{
	".workspaces/default_workspace/tests/time.sol": {
		"Time": {
			"abi": [
				{
					"inputs": [],
					"name": "currentTime",
					"outputs": [
						{
							"internalType": "uint256",
							"name": "",
							"type": "uint256"
						}
					],
					"stateMutability": "view",
					"type": "function"
				}
			],
			"devdoc": {
				"kind": "dev",
				"methods": {},
				"version": 1
			},
			"evm": {
				"assembly": "    /* \".workspaces/default_workspace/tests/time.sol\":57:285  library Time {... */\n  dataSize(sub_0)\n  dataOffset(sub_0)\n  0x0b\n  dup3\n  dup3\n  dup3\n  codecopy\n  dup1\n  mload\n  0x00\n  byte\n  0x73\n  eq\n  tag_1\n  jumpi\n  mstore(0x00, 0x4e487b7100000000000000000000000000000000000000000000000000000000)\n  mstore(0x04, 0x00)\n  revert(0x00, 0x24)\ntag_1:\n  mstore(0x00, address)\n  0x73\n  dup2\n  mstore8\n  dup3\n  dup2\n  return\nstop\n\nsub_0: assembly {\n        /* \".workspaces/default_workspace/tests/time.sol\":57:285  library Time {... */\n      eq(address, deployTimeAddress())\n      mstore(0x40, 0x80)\n      jumpi(tag_1, lt(calldatasize, 0x04))\n      shr(0xe0, calldataload(0x00))\n      dup1\n      0xd18e81b3\n      eq\n      tag_2\n      jumpi\n    tag_1:\n      0x00\n      dup1\n      revert\n        /* \".workspaces/default_workspace/tests/time.sol\":182:280  function currentTime() public view returns(uint256) {... */\n    tag_2:\n      tag_3\n      tag_4\n      jump\t// in\n    tag_3:\n      mload(0x40)\n      tag_5\n      swap2\n      swap1\n      tag_6\n      jump\t// in\n    tag_5:\n      mload(0x40)\n      dup1\n      swap2\n      sub\n      swap1\n      return\n    tag_4:\n        /* \".workspaces/default_workspace/tests/time.sol\":225:232  uint256 */\n      0x00\n        /* \".workspaces/default_workspace/tests/time.sol\":269:273  1000 */\n      0x03e8\n        /* \".workspaces/default_workspace/tests/time.sol\":251:266  block.timestamp */\n      timestamp\n        /* \".workspaces/default_workspace/tests/time.sol\":251:273  block.timestamp * 1000 */\n      tag_8\n      swap2\n      swap1\n      tag_9\n      jump\t// in\n    tag_8:\n        /* \".workspaces/default_workspace/tests/time.sol\":244:273  return block.timestamp * 1000 */\n      swap1\n      pop\n        /* \".workspaces/default_workspace/tests/time.sol\":182:280  function currentTime() public view returns(uint256) {... */\n      swap1\n      jump\t// out\n        /* \"#utility.yul\":7:84   */\n    tag_10:\n        /* \"#utility.yul\":44:51   */\n      0x00\n        /* \"#utility.yul\":73:78   */\n      dup2\n        /* \"#utility.yul\":62:78   */\n      swap1\n      pop\n        /* \"#utility.yul\":7:84   */\n      swap2\n      swap1\n      pop\n      jump\t// out\n        /* \"#utility.yul\":90:216   */\n    tag_11:\n        /* \"#utility.yul\":185:209   */\n      tag_16\n        /* \"#utility.yul\":203:208   */\n      dup2\n        /* \"#utility.yul\":185:209   */\n      tag_10\n      jump\t// in\n    tag_16:\n        /* \"#utility.yul\":180:183   */\n      dup3\n        /* \"#utility.yul\":173:210   */\n      mstore\n        /* \"#utility.yul\":90:216   */\n      pop\n      pop\n      jump\t// out\n        /* \"#utility.yul\":222:460   */\n    tag_6:\n        /* \"#utility.yul\":323:327   */\n      0x00\n        /* \"#utility.yul\":361:363   */\n      0x20\n        /* \"#utility.yul\":350:359   */\n      dup3\n        /* \"#utility.yul\":346:364   */\n      add\n        /* \"#utility.yul\":338:364   */\n      swap1\n      pop\n        /* \"#utility.yul\":374:453   */\n      tag_18\n        /* \"#utility.yul\":450:451   */\n      0x00\n        /* \"#utility.yul\":439:448   */\n      dup4\n        /* \"#utility.yul\":435:452   */\n      add\n        /* \"#utility.yul\":426:432   */\n      dup5\n        /* \"#utility.yul\":374:453   */\n      tag_11\n      jump\t// in\n    tag_18:\n        /* \"#utility.yul\":222:460   */\n      swap3\n      swap2\n      pop\n      pop\n      jump\t// out\n        /* \"#utility.yul\":466:646   */\n    tag_12:\n        /* \"#utility.yul\":514:591   */\n      0x4e487b7100000000000000000000000000000000000000000000000000000000\n        /* \"#utility.yul\":511:512   */\n      0x00\n        /* \"#utility.yul\":504:592   */\n      mstore\n        /* \"#utility.yul\":611:615   */\n      0x11\n        /* \"#utility.yul\":608:609   */\n      0x04\n        /* \"#utility.yul\":601:616   */\n      mstore\n        /* \"#utility.yul\":635:639   */\n      0x24\n        /* \"#utility.yul\":632:633   */\n      0x00\n        /* \"#utility.yul\":625:640   */\n      revert\n        /* \"#utility.yul\":652:1000   */\n    tag_9:\n        /* \"#utility.yul\":692:699   */\n      0x00\n        /* \"#utility.yul\":715:735   */\n      tag_21\n        /* \"#utility.yul\":733:734   */\n      dup3\n        /* \"#utility.yul\":715:735   */\n      tag_10\n      jump\t// in\n    tag_21:\n        /* \"#utility.yul\":710:735   */\n      swap2\n      pop\n        /* \"#utility.yul\":749:769   */\n      tag_22\n        /* \"#utility.yul\":767:768   */\n      dup4\n        /* \"#utility.yul\":749:769   */\n      tag_10\n      jump\t// in\n    tag_22:\n        /* \"#utility.yul\":744:769   */\n      swap3\n      pop\n        /* \"#utility.yul\":937:938   */\n      dup2\n        /* \"#utility.yul\":869:935   */\n      0xffffffffffffffffffffffffffffffffffffffffffffffffffffffffffffffff\n        /* \"#utility.yul\":865:939   */\n      div\n        /* \"#utility.yul\":862:863   */\n      dup4\n        /* \"#utility.yul\":859:940   */\n      gt\n        /* \"#utility.yul\":854:855   */\n      dup3\n        /* \"#utility.yul\":847:856   */\n      iszero\n        /* \"#utility.yul\":840:857   */\n      iszero\n        /* \"#utility.yul\":836:941   */\n      and\n        /* \"#utility.yul\":833:964   */\n      iszero\n      tag_23\n      jumpi\n        /* \"#utility.yul\":944:962   */\n      tag_24\n      tag_12\n      jump\t// in\n    tag_24:\n        /* \"#utility.yul\":833:964   */\n    tag_23:\n        /* \"#utility.yul\":992:993   */\n      dup3\n        /* \"#utility.yul\":989:990   */\n      dup3\n        /* \"#utility.yul\":985:994   */\n      mul\n        /* \"#utility.yul\":974:994   */\n      swap1\n      pop\n        /* \"#utility.yul\":652:1000   */\n      swap3\n      swap2\n      pop\n      pop\n      jump\t// out\n\n    auxdata: 0xa264697066735822122058bd7f446878c1a6fbda99683e195ee55182c167771e246379bab602c166ef5d64736f6c634300080d0033\n}\n",
				"bytecode": {
					"linkReferences": {},
					"object": "610160610053600b82828239805160001a607314610046577f4e487b7100000000000000000000000000000000000000000000000000000000600052600060045260246000fd5b30600052607381538281f3fe73000000000000000000000000000000000000000030146080604052600436106100355760003560e01c8063d18e81b31461003a575b600080fd5b610042610058565b60405161004f9190610086565b60405180910390f35b60006103e84261006891906100d0565b905090565b6000819050919050565b6100808161006d565b82525050565b600060208201905061009b6000830184610077565b92915050565b7f4e487b7100000000000000000000000000000000000000000000000000000000600052601160045260246000fd5b60006100db8261006d565b91506100e68361006d565b9250817fffffffffffffffffffffffffffffffffffffffffffffffffffffffffffffffff048311821515161561011f5761011e6100a1565b5b82820290509291505056fea264697066735822122058bd7f446878c1a6fbda99683e195ee55182c167771e246379bab602c166ef5d64736f6c634300080d0033",
					"opcodes": "PUSH2 0x160 PUSH2 0x53 PUSH1 0xB DUP3 DUP3 DUP3 CODECOPY DUP1 MLOAD PUSH1 0x0 BYTE PUSH1 0x73 EQ PUSH2 0x46 JUMPI PUSH32 0x4E487B7100000000000000000000000000000000000000000000000000000000 PUSH1 0x0 MSTORE PUSH1 0x0 PUSH1 0x4 MSTORE PUSH1 0x24 PUSH1 0x0 REVERT JUMPDEST ADDRESS PUSH1 0x0 MSTORE PUSH1 0x73 DUP2 MSTORE8 DUP3 DUP2 RETURN INVALID PUSH20 0x0 ADDRESS EQ PUSH1 0x80 PUSH1 0x40 MSTORE PUSH1 0x4 CALLDATASIZE LT PUSH2 0x35 JUMPI PUSH1 0x0 CALLDATALOAD PUSH1 0xE0 SHR DUP1 PUSH4 0xD18E81B3 EQ PUSH2 0x3A JUMPI JUMPDEST PUSH1 0x0 DUP1 REVERT JUMPDEST PUSH2 0x42 PUSH2 0x58 JUMP JUMPDEST PUSH1 0x40 MLOAD PUSH2 0x4F SWAP2 SWAP1 PUSH2 0x86 JUMP JUMPDEST PUSH1 0x40 MLOAD DUP1 SWAP2 SUB SWAP1 RETURN JUMPDEST PUSH1 0x0 PUSH2 0x3E8 TIMESTAMP PUSH2 0x68 SWAP2 SWAP1 PUSH2 0xD0 JUMP JUMPDEST SWAP1 POP SWAP1 JUMP JUMPDEST PUSH1 0x0 DUP2 SWAP1 POP SWAP2 SWAP1 POP JUMP JUMPDEST PUSH2 0x80 DUP2 PUSH2 0x6D JUMP JUMPDEST DUP3 MSTORE POP POP JUMP JUMPDEST PUSH1 0x0 PUSH1 0x20 DUP3 ADD SWAP1 POP PUSH2 0x9B PUSH1 0x0 DUP4 ADD DUP5 PUSH2 0x77 JUMP JUMPDEST SWAP3 SWAP2 POP POP JUMP JUMPDEST PUSH32 0x4E487B7100000000000000000000000000000000000000000000000000000000 PUSH1 0x0 MSTORE PUSH1 0x11 PUSH1 0x4 MSTORE PUSH1 0x24 PUSH1 0x0 REVERT JUMPDEST PUSH1 0x0 PUSH2 0xDB DUP3 PUSH2 0x6D JUMP JUMPDEST SWAP2 POP PUSH2 0xE6 DUP4 PUSH2 0x6D JUMP JUMPDEST SWAP3 POP DUP2 PUSH32 0xFFFFFFFFFFFFFFFFFFFFFFFFFFFFFFFFFFFFFFFFFFFFFFFFFFFFFFFFFFFFFFFF DIV DUP4 GT DUP3 ISZERO ISZERO AND ISZERO PUSH2 0x11F JUMPI PUSH2 0x11E PUSH2 0xA1 JUMP JUMPDEST JUMPDEST DUP3 DUP3 MUL SWAP1 POP SWAP3 SWAP2 POP POP JUMP INVALID LOG2 PUSH5 0x6970667358 0x22 SLT KECCAK256 PC 0xBD PUSH32 0x446878C1A6FBDA99683E195EE55182C167771E246379BAB602C166EF5D64736F PUSH13 0x634300080D0033000000000000 "
				},
				"gasEstimates": {
					"creation": {
						"codeDepositCost": "70400",
						"executionCost": "145",
						"totalCost": "70545"
					},
					"external": {
						"currentTime()": "infinite"
					}
				},
				"methodIdentifiers": {
					"currentTime()": "d18e81b3"
				}
			},
			"storageLayout": {
				"storage": [],
				"types": null
			},
			"userdoc": {
				"kind": "user",
				"methods": {},
				"version": 1
			}
		}
	}
}