{
	"lecture/modifier.sol": {
		"modifierC": {
			"abi": [
				{
					"inputs": [],
					"name": "BuyCigarette",
					"outputs": [
						{
							"internalType": "string",
							"name": "",
							"type": "string"
						}
					],
					"stateMutability": "nonpayable",
					"type": "function"
				}
			],
			"devdoc": {
				"kind": "dev",
				"methods": {},
				"version": 1
			},
			"evm": {
				"assembly": "    /* \"lecture/modifier.sol\":74:341  contract modifierC {\r... */\n  mstore(0x40, 0x80)\n  callvalue\n  dup1\n  iszero\n  tag_1\n  jumpi\n  0x00\n  dup1\n  revert\ntag_1:\n  pop\n  dataSize(sub_0)\n  dup1\n  dataOffset(sub_0)\n  0x00\n  codecopy\n  0x00\n  return\nstop\n\nsub_0: assembly {\n        /* \"lecture/modifier.sol\":74:341  contract modifierC {\r... */\n      mstore(0x40, 0x80)\n      callvalue\n      dup1\n      iszero\n      tag_1\n      jumpi\n      0x00\n      dup1\n      revert\n    tag_1:\n      pop\n      jumpi(tag_2, lt(calldatasize, 0x04))\n      shr(0xe0, calldataload(0x00))\n      dup1\n      0x5b2706b6\n      eq\n      tag_3\n      jumpi\n    tag_2:\n      0x00\n      dup1\n      revert\n        /* \"lecture/modifier.sol\":221:338  function BuyCigarette() public onlyAdults returns(string memory){\r... */\n    tag_3:\n      tag_4\n      tag_5\n      jump\t// in\n    tag_4:\n      mload(0x40)\n      tag_6\n      swap2\n      swap1\n      tag_7\n      jump\t// in\n    tag_6:\n      mload(0x40)\n      dup1\n      swap2\n      sub\n      swap1\n      return\n    tag_5:\n        /* \"lecture/modifier.sol\":271:284  string memory */\n      0x60\n        /* \"lecture/modifier.sol\":133:187  revert(\"You are not allowed to pay for the cigarette\") */\n      mload(0x40)\n      0x08c379a000000000000000000000000000000000000000000000000000000000\n      dup2\n      mstore\n      0x04\n      add\n      tag_9\n      swap1\n      tag_10\n      jump\t// in\n    tag_9:\n      mload(0x40)\n      dup1\n      swap2\n      sub\n      swap1\n      revert\n        /* \"#utility.yul\":7:371   */\n    tag_13:\n        /* \"#utility.yul\":95:98   */\n      0x00\n        /* \"#utility.yul\":123:162   */\n      tag_15\n        /* \"#utility.yul\":156:161   */\n      dup3\n        /* \"#utility.yul\":123:162   */\n      tag_16\n      jump\t// in\n    tag_15:\n        /* \"#utility.yul\":178:249   */\n      tag_17\n        /* \"#utility.yul\":242:248   */\n      dup2\n        /* \"#utility.yul\":237:240   */\n      dup6\n        /* \"#utility.yul\":178:249   */\n      tag_18\n      jump\t// in\n    tag_17:\n        /* \"#utility.yul\":171:249   */\n      swap4\n      pop\n        /* \"#utility.yul\":258:310   */\n      tag_19\n        /* \"#utility.yul\":303:309   */\n      dup2\n        /* \"#utility.yul\":298:301   */\n      dup6\n        /* \"#utility.yul\":291:295   */\n      0x20\n        /* \"#utility.yul\":284:289   */\n      dup7\n        /* \"#utility.yul\":280:296   */\n      add\n        /* \"#utility.yul\":258:310   */\n      tag_20\n      jump\t// in\n    tag_19:\n        /* \"#utility.yul\":335:364   */\n      tag_21\n        /* \"#utility.yul\":357:363   */\n      dup2\n        /* \"#utility.yul\":335:364   */\n      tag_22\n      jump\t// in\n    tag_21:\n        /* \"#utility.yul\":330:333   */\n      dup5\n        /* \"#utility.yul\":326:365   */\n      add\n        /* \"#utility.yul\":319:365   */\n      swap2\n      pop\n        /* \"#utility.yul\":99:371   */\n      pop\n        /* \"#utility.yul\":7:371   */\n      swap3\n      swap2\n      pop\n      pop\n      jump\t// out\n        /* \"#utility.yul\":377:743   */\n    tag_23:\n        /* \"#utility.yul\":519:522   */\n      0x00\n        /* \"#utility.yul\":540:607   */\n      tag_25\n        /* \"#utility.yul\":604:606   */\n      0x2c\n        /* \"#utility.yul\":599:602   */\n      dup4\n        /* \"#utility.yul\":540:607   */\n      tag_18\n      jump\t// in\n    tag_25:\n        /* \"#utility.yul\":533:607   */\n      swap2\n      pop\n        /* \"#utility.yul\":616:709   */\n      tag_26\n        /* \"#utility.yul\":705:708   */\n      dup3\n        /* \"#utility.yul\":616:709   */\n      tag_27\n      jump\t// in\n    tag_26:\n        /* \"#utility.yul\":734:736   */\n      0x40\n        /* \"#utility.yul\":729:732   */\n      dup3\n        /* \"#utility.yul\":725:737   */\n      add\n        /* \"#utility.yul\":718:737   */\n      swap1\n      pop\n        /* \"#utility.yul\":377:743   */\n      swap2\n      swap1\n      pop\n      jump\t// out\n        /* \"#utility.yul\":749:1062   */\n    tag_7:\n        /* \"#utility.yul\":862:866   */\n      0x00\n        /* \"#utility.yul\":900:902   */\n      0x20\n        /* \"#utility.yul\":889:898   */\n      dup3\n        /* \"#utility.yul\":885:903   */\n      add\n        /* \"#utility.yul\":877:903   */\n      swap1\n      pop\n        /* \"#utility.yul\":949:958   */\n      dup2\n        /* \"#utility.yul\":943:947   */\n      dup2\n        /* \"#utility.yul\":939:959   */\n      sub\n        /* \"#utility.yul\":935:936   */\n      0x00\n        /* \"#utility.yul\":924:933   */\n      dup4\n        /* \"#utility.yul\":920:937   */\n      add\n        /* \"#utility.yul\":913:960   */\n      mstore\n        /* \"#utility.yul\":977:1055   */\n      tag_29\n        /* \"#utility.yul\":1050:1054   */\n      dup2\n        /* \"#utility.yul\":1041:1047   */\n      dup5\n        /* \"#utility.yul\":977:1055   */\n      tag_13\n      jump\t// in\n    tag_29:\n        /* \"#utility.yul\":969:1055   */\n      swap1\n      pop\n        /* \"#utility.yul\":749:1062   */\n      swap3\n      swap2\n      pop\n      pop\n      jump\t// out\n        /* \"#utility.yul\":1068:1487   */\n    tag_10:\n        /* \"#utility.yul\":1234:1238   */\n      0x00\n        /* \"#utility.yul\":1272:1274   */\n      0x20\n        /* \"#utility.yul\":1261:1270   */\n      dup3\n        /* \"#utility.yul\":1257:1275   */\n      add\n        /* \"#utility.yul\":1249:1275   */\n      swap1\n      pop\n        /* \"#utility.yul\":1321:1330   */\n      dup2\n        /* \"#utility.yul\":1315:1319   */\n      dup2\n        /* \"#utility.yul\":1311:1331   */\n      sub\n        /* \"#utility.yul\":1307:1308   */\n      0x00\n        /* \"#utility.yul\":1296:1305   */\n      dup4\n        /* \"#utility.yul\":1292:1309   */\n      add\n        /* \"#utility.yul\":1285:1332   */\n      mstore\n        /* \"#utility.yul\":1349:1480   */\n      tag_31\n        /* \"#utility.yul\":1475:1479   */\n      dup2\n        /* \"#utility.yul\":1349:1480   */\n      tag_23\n      jump\t// in\n    tag_31:\n        /* \"#utility.yul\":1341:1480   */\n      swap1\n      pop\n        /* \"#utility.yul\":1068:1487   */\n      swap2\n      swap1\n      pop\n      jump\t// out\n        /* \"#utility.yul\":1493:1592   */\n    tag_16:\n        /* \"#utility.yul\":1545:1551   */\n      0x00\n        /* \"#utility.yul\":1579:1584   */\n      dup2\n        /* \"#utility.yul\":1573:1585   */\n      mload\n        /* \"#utility.yul\":1563:1585   */\n      swap1\n      pop\n        /* \"#utility.yul\":1493:1592   */\n      swap2\n      swap1\n      pop\n      jump\t// out\n        /* \"#utility.yul\":1598:1767   */\n    tag_18:\n        /* \"#utility.yul\":1682:1693   */\n      0x00\n        /* \"#utility.yul\":1716:1722   */\n      dup3\n        /* \"#utility.yul\":1711:1714   */\n      dup3\n        /* \"#utility.yul\":1704:1723   */\n      mstore\n        /* \"#utility.yul\":1756:1760   */\n      0x20\n        /* \"#utility.yul\":1751:1754   */\n      dup3\n        /* \"#utility.yul\":1747:1761   */\n      add\n        /* \"#utility.yul\":1732:1761   */\n      swap1\n      pop\n        /* \"#utility.yul\":1598:1767   */\n      swap3\n      swap2\n      pop\n      pop\n      jump\t// out\n        /* \"#utility.yul\":1773:2080   */\n    tag_20:\n        /* \"#utility.yul\":1841:1842   */\n      0x00\n        /* \"#utility.yul\":1851:1964   */\n    tag_35:\n        /* \"#utility.yul\":1865:1871   */\n      dup4\n        /* \"#utility.yul\":1862:1863   */\n      dup2\n        /* \"#utility.yul\":1859:1872   */\n      lt\n        /* \"#utility.yul\":1851:1964   */\n      iszero\n      tag_37\n      jumpi\n        /* \"#utility.yul\":1950:1951   */\n      dup1\n        /* \"#utility.yul\":1945:1948   */\n      dup3\n        /* \"#utility.yul\":1941:1952   */\n      add\n        /* \"#utility.yul\":1935:1953   */\n      mload\n        /* \"#utility.yul\":1931:1932   */\n      dup2\n        /* \"#utility.yul\":1926:1929   */\n      dup5\n        /* \"#utility.yul\":1922:1933   */\n      add\n        /* \"#utility.yul\":1915:1954   */\n      mstore\n        /* \"#utility.yul\":1887:1889   */\n      0x20\n        /* \"#utility.yul\":1884:1885   */\n      dup2\n        /* \"#utility.yul\":1880:1890   */\n      add\n        /* \"#utility.yul\":1875:1890   */\n      swap1\n      pop\n        /* \"#utility.yul\":1851:1964   */\n      jump(tag_35)\n    tag_37:\n        /* \"#utility.yul\":1982:1988   */\n      dup4\n        /* \"#utility.yul\":1979:1980   */\n      dup2\n        /* \"#utility.yul\":1976:1989   */\n      gt\n        /* \"#utility.yul\":1973:2074   */\n      iszero\n      tag_38\n      jumpi\n        /* \"#utility.yul\":2062:2063   */\n      0x00\n        /* \"#utility.yul\":2053:2059   */\n      dup5\n        /* \"#utility.yul\":2048:2051   */\n      dup5\n        /* \"#utility.yul\":2044:2060   */\n      add\n        /* \"#utility.yul\":2037:2064   */\n      mstore\n        /* \"#utility.yul\":1973:2074   */\n    tag_38:\n        /* \"#utility.yul\":1822:2080   */\n      pop\n        /* \"#utility.yul\":1773:2080   */\n      pop\n      pop\n      pop\n      jump\t// out\n        /* \"#utility.yul\":2086:2188   */\n    tag_22:\n        /* \"#utility.yul\":2127:2133   */\n      0x00\n        /* \"#utility.yul\":2178:2180   */\n      0x1f\n        /* \"#utility.yul\":2174:2181   */\n      not\n        /* \"#utility.yul\":2169:2171   */\n      0x1f\n        /* \"#utility.yul\":2162:2167   */\n      dup4\n        /* \"#utility.yul\":2158:2172   */\n      add\n        /* \"#utility.yul\":2154:2182   */\n      and\n        /* \"#utility.yul\":2144:2182   */\n      swap1\n      pop\n        /* \"#utility.yul\":2086:2188   */\n      swap2\n      swap1\n      pop\n      jump\t// out\n        /* \"#utility.yul\":2194:2425   */\n    tag_27:\n        /* \"#utility.yul\":2334:2368   */\n      0x596f7520617265206e6f7420616c6c6f77656420746f2070617920666f722074\n        /* \"#utility.yul\":2330:2331   */\n      0x00\n        /* \"#utility.yul\":2322:2328   */\n      dup3\n        /* \"#utility.yul\":2318:2332   */\n      add\n        /* \"#utility.yul\":2311:2369   */\n      mstore\n        /* \"#utility.yul\":2403:2417   */\n      0x6865206369676172657474650000000000000000000000000000000000000000\n        /* \"#utility.yul\":2398:2400   */\n      0x20\n        /* \"#utility.yul\":2390:2396   */\n      dup3\n        /* \"#utility.yul\":2386:2401   */\n      add\n        /* \"#utility.yul\":2379:2418   */\n      mstore\n        /* \"#utility.yul\":2194:2425   */\n      pop\n      jump\t// out\n\n    auxdata: 0xa2646970667358221220ae04ce1ba4bcd9a0fe1e102b067ec178e01f478255399416652a22335c0e511a64736f6c63430008070033\n}\n",
				"bytecode": {
					"linkReferences": {},
					"object": "608060405234801561001057600080fd5b5061020e806100206000396000f3fe608060405234801561001057600080fd5b506004361061002b5760003560e01c80635b2706b614610030575b600080fd5b61003861004e565b60405161004591906100e7565b60405180910390f35b60606040517f08c379a000000000000000000000000000000000000000000000000000000000815260040161008290610109565b60405180910390fd5b600061009682610129565b6100a08185610134565b93506100b0818560208601610145565b6100b981610178565b840191505092915050565b60006100d1602c83610134565b91506100dc82610189565b604082019050919050565b60006020820190508181036000830152610101818461008b565b905092915050565b60006020820190508181036000830152610122816100c4565b9050919050565b600081519050919050565b600082825260208201905092915050565b60005b83811015610163578082015181840152602081019050610148565b83811115610172576000848401525b50505050565b6000601f19601f8301169050919050565b7f596f7520617265206e6f7420616c6c6f77656420746f2070617920666f72207460008201527f686520636967617265747465000000000000000000000000000000000000000060208201525056fea2646970667358221220ae04ce1ba4bcd9a0fe1e102b067ec178e01f478255399416652a22335c0e511a64736f6c63430008070033",
					"opcodes": "PUSH1 0x80 PUSH1 0x40 MSTORE CALLVALUE DUP1 ISZERO PUSH2 0x10 JUMPI PUSH1 0x0 DUP1 REVERT JUMPDEST POP PUSH2 0x20E DUP1 PUSH2 0x20 PUSH1 0x0 CODECOPY PUSH1 0x0 RETURN INVALID PUSH1 0x80 PUSH1 0x40 MSTORE CALLVALUE DUP1 ISZERO PUSH2 0x10 JUMPI PUSH1 0x0 DUP1 REVERT JUMPDEST POP PUSH1 0x4 CALLDATASIZE LT PUSH2 0x2B JUMPI PUSH1 0x0 CALLDATALOAD PUSH1 0xE0 SHR DUP1 PUSH4 0x5B2706B6 EQ PUSH2 0x30 JUMPI JUMPDEST PUSH1 0x0 DUP1 REVERT JUMPDEST PUSH2 0x38 PUSH2 0x4E JUMP JUMPDEST PUSH1 0x40 MLOAD PUSH2 0x45 SWAP2 SWAP1 PUSH2 0xE7 JUMP JUMPDEST PUSH1 0x40 MLOAD DUP1 SWAP2 SUB SWAP1 RETURN JUMPDEST PUSH1 0x60 PUSH1 0x40 MLOAD PUSH32 0x8C379A000000000000000000000000000000000000000000000000000000000 DUP2 MSTORE PUSH1 0x4 ADD PUSH2 0x82 SWAP1 PUSH2 0x109 JUMP JUMPDEST PUSH1 0x40 MLOAD DUP1 SWAP2 SUB SWAP1 REVERT JUMPDEST PUSH1 0x0 PUSH2 0x96 DUP3 PUSH2 0x129 JUMP JUMPDEST PUSH2 0xA0 DUP2 DUP6 PUSH2 0x134 JUMP JUMPDEST SWAP4 POP PUSH2 0xB0 DUP2 DUP6 PUSH1 0x20 DUP7 ADD PUSH2 0x145 JUMP JUMPDEST PUSH2 0xB9 DUP2 PUSH2 0x178 JUMP JUMPDEST DUP5 ADD SWAP2 POP POP SWAP3 SWAP2 POP POP JUMP JUMPDEST PUSH1 0x0 PUSH2 0xD1 PUSH1 0x2C DUP4 PUSH2 0x134 JUMP JUMPDEST SWAP2 POP PUSH2 0xDC DUP3 PUSH2 0x189 JUMP JUMPDEST PUSH1 0x40 DUP3 ADD SWAP1 POP SWAP2 SWAP1 POP JUMP JUMPDEST PUSH1 0x0 PUSH1 0x20 DUP3 ADD SWAP1 POP DUP2 DUP2 SUB PUSH1 0x0 DUP4 ADD MSTORE PUSH2 0x101 DUP2 DUP5 PUSH2 0x8B JUMP JUMPDEST SWAP1 POP SWAP3 SWAP2 POP POP JUMP JUMPDEST PUSH1 0x0 PUSH1 0x20 DUP3 ADD SWAP1 POP DUP2 DUP2 SUB PUSH1 0x0 DUP4 ADD MSTORE PUSH2 0x122 DUP2 PUSH2 0xC4 JUMP JUMPDEST SWAP1 POP SWAP2 SWAP1 POP JUMP JUMPDEST PUSH1 0x0 DUP2 MLOAD SWAP1 POP SWAP2 SWAP1 POP JUMP JUMPDEST PUSH1 0x0 DUP3 DUP3 MSTORE PUSH1 0x20 DUP3 ADD SWAP1 POP SWAP3 SWAP2 POP POP JUMP JUMPDEST PUSH1 0x0 JUMPDEST DUP4 DUP2 LT ISZERO PUSH2 0x163 JUMPI DUP1 DUP3 ADD MLOAD DUP2 DUP5 ADD MSTORE PUSH1 0x20 DUP2 ADD SWAP1 POP PUSH2 0x148 JUMP JUMPDEST DUP4 DUP2 GT ISZERO PUSH2 0x172 JUMPI PUSH1 0x0 DUP5 DUP5 ADD MSTORE JUMPDEST POP POP POP POP JUMP JUMPDEST PUSH1 0x0 PUSH1 0x1F NOT PUSH1 0x1F DUP4 ADD AND SWAP1 POP SWAP2 SWAP1 POP JUMP JUMPDEST PUSH32 0x596F7520617265206E6F7420616C6C6F77656420746F2070617920666F722074 PUSH1 0x0 DUP3 ADD MSTORE PUSH32 0x6865206369676172657474650000000000000000000000000000000000000000 PUSH1 0x20 DUP3 ADD MSTORE POP JUMP INVALID LOG2 PUSH5 0x6970667358 0x22 SLT KECCAK256 0xAE DIV 0xCE SHL LOG4 0xBC 0xD9 LOG0 INVALID 0x1E LT 0x2B MOD PUSH31 0xC178E01F478255399416652A22335C0E511A64736F6C634300080700330000 "
				},
				"gasEstimates": {
					"creation": {
						"codeDepositCost": "105200",
						"executionCost": "153",
						"totalCost": "105353"
					},
					"external": {
						"BuyCigarette()": "433"
					}
				},
				"methodIdentifiers": {
					"BuyCigarette()": "5b2706b6"
				}
			},
			"userdoc": {
				"kind": "user",
				"methods": {},
				"version": 1
			}
		}
	}
}