{
	"lecture/tryCatch2.sol": {
		"runner": {
			"abi": [
				{
					"anonymous": false,
					"inputs": [
						{
							"indexed": false,
							"internalType": "string",
							"name": "_name",
							"type": "string"
						},
						{
							"indexed": false,
							"internalType": "string",
							"name": "_err",
							"type": "string"
						}
					],
					"name": "catchOnly",
					"type": "event"
				},
				{
					"inputs": [
						{
							"internalType": "string",
							"name": "_name",
							"type": "string"
						},
						{
							"internalType": "uint256",
							"name": "_power",
							"type": "uint256"
						}
					],
					"name": "playTryCatch",
					"outputs": [
						{
							"internalType": "bool",
							"name": "",
							"type": "bool"
						}
					],
					"stateMutability": "nonpayable",
					"type": "function"
				}
			],
			"devdoc": {
				"kind": "dev",
				"methods": {},
				"version": 1
			},
			"evm": {
				"assembly": "    /* \"lecture/tryCatch2.sol\":2751:3196  contract runner{... */\n  mstore(0x40, 0x80)\n  callvalue\n  dup1\n  iszero\n  tag_1\n  jumpi\n  0x00\n  dup1\n  revert\ntag_1:\n  pop\n  dataSize(sub_0)\n  dup1\n  dataOffset(sub_0)\n  0x00\n  codecopy\n  0x00\n  return\nstop\n\nsub_0: assembly {\n        /* \"lecture/tryCatch2.sol\":2751:3196  contract runner{... */\n      mstore(0x40, 0x80)\n      callvalue\n      dup1\n      iszero\n      tag_1\n      jumpi\n      0x00\n      dup1\n      revert\n    tag_1:\n      pop\n      jumpi(tag_2, lt(calldatasize, 0x04))\n      shr(0xe0, calldataload(0x00))\n      dup1\n      0x447bce4a\n      eq\n      tag_3\n      jumpi\n    tag_2:\n      0x00\n      dup1\n      revert\n        /* \"lecture/tryCatch2.sol\":2833:3192  function playTryCatch(string memory _name, uint256 _power) public returns(bool){... */\n    tag_3:\n      tag_4\n      0x04\n      dup1\n      calldatasize\n      sub\n      dup2\n      add\n      swap1\n      tag_5\n      swap2\n      swap1\n      tag_6\n      jump\t// in\n    tag_5:\n      tag_7\n      jump\t// in\n    tag_4:\n      mload(0x40)\n      tag_8\n      swap2\n      swap1\n      tag_9\n      jump\t// in\n    tag_8:\n      mload(0x40)\n      dup1\n      swap2\n      sub\n      swap1\n      return\n    tag_7:\n        /* \"lecture/tryCatch2.sol\":2907:2911  bool */\n      0x00\n        /* \"lecture/tryCatch2.sol\":2951:2956  _name */\n      dup3\n        /* \"lecture/tryCatch2.sol\":2957:2963  _power */\n      dup3\n        /* \"lecture/tryCatch2.sol\":2937:2964  new character(_name,_power) */\n      mload(0x40)\n      tag_11\n      swap1\n      tag_12\n      jump\t// in\n    tag_11:\n      tag_13\n      swap3\n      swap2\n      swap1\n      tag_14\n      jump\t// in\n    tag_13:\n      mload(0x40)\n      dup1\n      swap2\n      sub\n      swap1\n      0x00\n      create\n      dup1\n      iszero\n      tag_15\n      jumpi\n      0x01\n    tag_15:\n        /* \"lecture/tryCatch2.sol\":2933:3165  try new character(_name,_power) {... */\n      tag_16\n      jumpi\n        /* \"lecture/tryCatch2.sol\":3096:3125  catchOnly(\"catch\",\"ErrorS!!\") */\n      0xed1339d3b97aca38a4bc95190b93af9130be96b54e1bc34caa04b59819decfa0\n      mload(0x40)\n      tag_20\n      swap1\n      tag_21\n      jump\t// in\n    tag_20:\n      mload(0x40)\n      dup1\n      swap2\n      sub\n      swap1\n      log1\n        /* \"lecture/tryCatch2.sol\":3147:3152  false */\n      0x00\n        /* \"lecture/tryCatch2.sol\":3140:3153  return(false) */\n      swap1\n      pop\n      jump(tag_10)\n        /* \"lecture/tryCatch2.sol\":2933:3165  try new character(_name,_power) {... */\n    tag_16:\n      pop\n        /* \"lecture/tryCatch2.sol\":3044:3048  true */\n      0x01\n        /* \"lecture/tryCatch2.sol\":3037:3049  return(true) */\n      swap1\n      pop\n        /* \"lecture/tryCatch2.sol\":2833:3192  function playTryCatch(string memory _name, uint256 _power) public returns(bool){... */\n    tag_10:\n      swap3\n      swap2\n      pop\n      pop\n      jump\t// out\n    tag_12:\n      dataSize(sub_0)\n      dup1\n      dataOffset(sub_0)\n      dup4\n      codecopy\n      add\n      swap1\n      jump\t// out\n        /* \"#utility.yul\":7:82   */\n    tag_23:\n        /* \"#utility.yul\":40:46   */\n      0x00\n        /* \"#utility.yul\":73:75   */\n      0x40\n        /* \"#utility.yul\":67:76   */\n      mload\n        /* \"#utility.yul\":57:76   */\n      swap1\n      pop\n        /* \"#utility.yul\":7:82   */\n      swap1\n      jump\t// out\n        /* \"#utility.yul\":88:205   */\n    tag_24:\n        /* \"#utility.yul\":197:198   */\n      0x00\n        /* \"#utility.yul\":194:195   */\n      dup1\n        /* \"#utility.yul\":187:199   */\n      revert\n        /* \"#utility.yul\":211:328   */\n    tag_25:\n        /* \"#utility.yul\":320:321   */\n      0x00\n        /* \"#utility.yul\":317:318   */\n      dup1\n        /* \"#utility.yul\":310:322   */\n      revert\n        /* \"#utility.yul\":334:451   */\n    tag_26:\n        /* \"#utility.yul\":443:444   */\n      0x00\n        /* \"#utility.yul\":440:441   */\n      dup1\n        /* \"#utility.yul\":433:445   */\n      revert\n        /* \"#utility.yul\":457:574   */\n    tag_27:\n        /* \"#utility.yul\":566:567   */\n      0x00\n        /* \"#utility.yul\":563:564   */\n      dup1\n        /* \"#utility.yul\":556:568   */\n      revert\n        /* \"#utility.yul\":580:682   */\n    tag_28:\n        /* \"#utility.yul\":621:627   */\n      0x00\n        /* \"#utility.yul\":672:674   */\n      0x1f\n        /* \"#utility.yul\":668:675   */\n      not\n        /* \"#utility.yul\":663:665   */\n      0x1f\n        /* \"#utility.yul\":656:661   */\n      dup4\n        /* \"#utility.yul\":652:666   */\n      add\n        /* \"#utility.yul\":648:676   */\n      and\n        /* \"#utility.yul\":638:676   */\n      swap1\n      pop\n        /* \"#utility.yul\":580:682   */\n      swap2\n      swap1\n      pop\n      jump\t// out\n        /* \"#utility.yul\":688:868   */\n    tag_29:\n        /* \"#utility.yul\":736:813   */\n      0x4e487b7100000000000000000000000000000000000000000000000000000000\n        /* \"#utility.yul\":733:734   */\n      0x00\n        /* \"#utility.yul\":726:814   */\n      mstore\n        /* \"#utility.yul\":833:837   */\n      0x41\n        /* \"#utility.yul\":830:831   */\n      0x04\n        /* \"#utility.yul\":823:838   */\n      mstore\n        /* \"#utility.yul\":857:861   */\n      0x24\n        /* \"#utility.yul\":854:855   */\n      0x00\n        /* \"#utility.yul\":847:862   */\n      revert\n        /* \"#utility.yul\":874:1155   */\n    tag_30:\n        /* \"#utility.yul\":957:984   */\n      tag_59\n        /* \"#utility.yul\":979:983   */\n      dup3\n        /* \"#utility.yul\":957:984   */\n      tag_28\n      jump\t// in\n    tag_59:\n        /* \"#utility.yul\":949:955   */\n      dup2\n        /* \"#utility.yul\":945:985   */\n      add\n        /* \"#utility.yul\":1087:1093   */\n      dup2\n        /* \"#utility.yul\":1075:1085   */\n      dup2\n        /* \"#utility.yul\":1072:1094   */\n      lt\n        /* \"#utility.yul\":1051:1069   */\n      0xffffffffffffffff\n        /* \"#utility.yul\":1039:1049   */\n      dup3\n        /* \"#utility.yul\":1036:1070   */\n      gt\n        /* \"#utility.yul\":1033:1095   */\n      or\n        /* \"#utility.yul\":1030:1118   */\n      iszero\n      tag_60\n      jumpi\n        /* \"#utility.yul\":1098:1116   */\n      tag_61\n      tag_29\n      jump\t// in\n    tag_61:\n        /* \"#utility.yul\":1030:1118   */\n    tag_60:\n        /* \"#utility.yul\":1138:1148   */\n      dup1\n        /* \"#utility.yul\":1134:1136   */\n      0x40\n        /* \"#utility.yul\":1127:1149   */\n      mstore\n        /* \"#utility.yul\":917:1155   */\n      pop\n        /* \"#utility.yul\":874:1155   */\n      pop\n      pop\n      jump\t// out\n        /* \"#utility.yul\":1161:1290   */\n    tag_31:\n        /* \"#utility.yul\":1195:1201   */\n      0x00\n        /* \"#utility.yul\":1222:1242   */\n      tag_63\n      tag_23\n      jump\t// in\n    tag_63:\n        /* \"#utility.yul\":1212:1242   */\n      swap1\n      pop\n        /* \"#utility.yul\":1251:1284   */\n      tag_64\n        /* \"#utility.yul\":1279:1283   */\n      dup3\n        /* \"#utility.yul\":1271:1277   */\n      dup3\n        /* \"#utility.yul\":1251:1284   */\n      tag_30\n      jump\t// in\n    tag_64:\n        /* \"#utility.yul\":1161:1290   */\n      swap2\n      swap1\n      pop\n      jump\t// out\n        /* \"#utility.yul\":1296:1604   */\n    tag_32:\n        /* \"#utility.yul\":1358:1362   */\n      0x00\n        /* \"#utility.yul\":1448:1466   */\n      0xffffffffffffffff\n        /* \"#utility.yul\":1440:1446   */\n      dup3\n        /* \"#utility.yul\":1437:1467   */\n      gt\n        /* \"#utility.yul\":1434:1490   */\n      iszero\n      tag_66\n      jumpi\n        /* \"#utility.yul\":1470:1488   */\n      tag_67\n      tag_29\n      jump\t// in\n    tag_67:\n        /* \"#utility.yul\":1434:1490   */\n    tag_66:\n        /* \"#utility.yul\":1508:1537   */\n      tag_68\n        /* \"#utility.yul\":1530:1536   */\n      dup3\n        /* \"#utility.yul\":1508:1537   */\n      tag_28\n      jump\t// in\n    tag_68:\n        /* \"#utility.yul\":1500:1537   */\n      swap1\n      pop\n        /* \"#utility.yul\":1592:1596   */\n      0x20\n        /* \"#utility.yul\":1586:1590   */\n      dup2\n        /* \"#utility.yul\":1582:1597   */\n      add\n        /* \"#utility.yul\":1574:1597   */\n      swap1\n      pop\n        /* \"#utility.yul\":1296:1604   */\n      swap2\n      swap1\n      pop\n      jump\t// out\n        /* \"#utility.yul\":1610:1764   */\n    tag_33:\n        /* \"#utility.yul\":1694:1700   */\n      dup3\n        /* \"#utility.yul\":1689:1692   */\n      dup2\n        /* \"#utility.yul\":1684:1687   */\n      dup4\n        /* \"#utility.yul\":1671:1701   */\n      calldatacopy\n        /* \"#utility.yul\":1756:1757   */\n      0x00\n        /* \"#utility.yul\":1747:1753   */\n      dup4\n        /* \"#utility.yul\":1742:1745   */\n      dup4\n        /* \"#utility.yul\":1738:1754   */\n      add\n        /* \"#utility.yul\":1731:1758   */\n      mstore\n        /* \"#utility.yul\":1610:1764   */\n      pop\n      pop\n      pop\n      jump\t// out\n        /* \"#utility.yul\":1770:2182   */\n    tag_34:\n        /* \"#utility.yul\":1848:1853   */\n      0x00\n        /* \"#utility.yul\":1873:1939   */\n      tag_71\n        /* \"#utility.yul\":1889:1938   */\n      tag_72\n        /* \"#utility.yul\":1931:1937   */\n      dup5\n        /* \"#utility.yul\":1889:1938   */\n      tag_32\n      jump\t// in\n    tag_72:\n        /* \"#utility.yul\":1873:1939   */\n      tag_31\n      jump\t// in\n    tag_71:\n        /* \"#utility.yul\":1864:1939   */\n      swap1\n      pop\n        /* \"#utility.yul\":1962:1968   */\n      dup3\n        /* \"#utility.yul\":1955:1960   */\n      dup2\n        /* \"#utility.yul\":1948:1969   */\n      mstore\n        /* \"#utility.yul\":2000:2004   */\n      0x20\n        /* \"#utility.yul\":1993:1998   */\n      dup2\n        /* \"#utility.yul\":1989:2005   */\n      add\n        /* \"#utility.yul\":2038:2041   */\n      dup5\n        /* \"#utility.yul\":2029:2035   */\n      dup5\n        /* \"#utility.yul\":2024:2027   */\n      dup5\n        /* \"#utility.yul\":2020:2036   */\n      add\n        /* \"#utility.yul\":2017:2042   */\n      gt\n        /* \"#utility.yul\":2014:2126   */\n      iszero\n      tag_73\n      jumpi\n        /* \"#utility.yul\":2045:2124   */\n      tag_74\n      tag_27\n      jump\t// in\n    tag_74:\n        /* \"#utility.yul\":2014:2126   */\n    tag_73:\n        /* \"#utility.yul\":2135:2176   */\n      tag_75\n        /* \"#utility.yul\":2169:2175   */\n      dup5\n        /* \"#utility.yul\":2164:2167   */\n      dup3\n        /* \"#utility.yul\":2159:2162   */\n      dup6\n        /* \"#utility.yul\":2135:2176   */\n      tag_33\n      jump\t// in\n    tag_75:\n        /* \"#utility.yul\":1854:2182   */\n      pop\n        /* \"#utility.yul\":1770:2182   */\n      swap4\n      swap3\n      pop\n      pop\n      pop\n      jump\t// out\n        /* \"#utility.yul\":2202:2542   */\n    tag_35:\n        /* \"#utility.yul\":2258:2263   */\n      0x00\n        /* \"#utility.yul\":2307:2310   */\n      dup3\n        /* \"#utility.yul\":2300:2304   */\n      0x1f\n        /* \"#utility.yul\":2292:2298   */\n      dup4\n        /* \"#utility.yul\":2288:2305   */\n      add\n        /* \"#utility.yul\":2284:2311   */\n      slt\n        /* \"#utility.yul\":2274:2396   */\n      tag_77\n      jumpi\n        /* \"#utility.yul\":2315:2394   */\n      tag_78\n      tag_26\n      jump\t// in\n    tag_78:\n        /* \"#utility.yul\":2274:2396   */\n    tag_77:\n        /* \"#utility.yul\":2432:2438   */\n      dup2\n        /* \"#utility.yul\":2419:2439   */\n      calldataload\n        /* \"#utility.yul\":2457:2536   */\n      tag_79\n        /* \"#utility.yul\":2532:2535   */\n      dup5\n        /* \"#utility.yul\":2524:2530   */\n      dup3\n        /* \"#utility.yul\":2517:2521   */\n      0x20\n        /* \"#utility.yul\":2509:2515   */\n      dup7\n        /* \"#utility.yul\":2505:2522   */\n      add\n        /* \"#utility.yul\":2457:2536   */\n      tag_34\n      jump\t// in\n    tag_79:\n        /* \"#utility.yul\":2448:2536   */\n      swap2\n      pop\n        /* \"#utility.yul\":2264:2542   */\n      pop\n        /* \"#utility.yul\":2202:2542   */\n      swap3\n      swap2\n      pop\n      pop\n      jump\t// out\n        /* \"#utility.yul\":2548:2625   */\n    tag_36:\n        /* \"#utility.yul\":2585:2592   */\n      0x00\n        /* \"#utility.yul\":2614:2619   */\n      dup2\n        /* \"#utility.yul\":2603:2619   */\n      swap1\n      pop\n        /* \"#utility.yul\":2548:2625   */\n      swap2\n      swap1\n      pop\n      jump\t// out\n        /* \"#utility.yul\":2631:2753   */\n    tag_37:\n        /* \"#utility.yul\":2704:2728   */\n      tag_82\n        /* \"#utility.yul\":2722:2727   */\n      dup2\n        /* \"#utility.yul\":2704:2728   */\n      tag_36\n      jump\t// in\n    tag_82:\n        /* \"#utility.yul\":2697:2702   */\n      dup2\n        /* \"#utility.yul\":2694:2729   */\n      eq\n        /* \"#utility.yul\":2684:2747   */\n      tag_83\n      jumpi\n        /* \"#utility.yul\":2743:2744   */\n      0x00\n        /* \"#utility.yul\":2740:2741   */\n      dup1\n        /* \"#utility.yul\":2733:2745   */\n      revert\n        /* \"#utility.yul\":2684:2747   */\n    tag_83:\n        /* \"#utility.yul\":2631:2753   */\n      pop\n      jump\t// out\n        /* \"#utility.yul\":2759:2898   */\n    tag_38:\n        /* \"#utility.yul\":2805:2810   */\n      0x00\n        /* \"#utility.yul\":2843:2849   */\n      dup2\n        /* \"#utility.yul\":2830:2850   */\n      calldataload\n        /* \"#utility.yul\":2821:2850   */\n      swap1\n      pop\n        /* \"#utility.yul\":2859:2892   */\n      tag_85\n        /* \"#utility.yul\":2886:2891   */\n      dup2\n        /* \"#utility.yul\":2859:2892   */\n      tag_37\n      jump\t// in\n    tag_85:\n        /* \"#utility.yul\":2759:2898   */\n      swap3\n      swap2\n      pop\n      pop\n      jump\t// out\n        /* \"#utility.yul\":2904:3558   */\n    tag_6:\n        /* \"#utility.yul\":2982:2988   */\n      0x00\n        /* \"#utility.yul\":2990:2996   */\n      dup1\n        /* \"#utility.yul\":3039:3041   */\n      0x40\n        /* \"#utility.yul\":3027:3036   */\n      dup4\n        /* \"#utility.yul\":3018:3025   */\n      dup6\n        /* \"#utility.yul\":3014:3037   */\n      sub\n        /* \"#utility.yul\":3010:3042   */\n      slt\n        /* \"#utility.yul\":3007:3126   */\n      iszero\n      tag_87\n      jumpi\n        /* \"#utility.yul\":3045:3124   */\n      tag_88\n      tag_24\n      jump\t// in\n    tag_88:\n        /* \"#utility.yul\":3007:3126   */\n    tag_87:\n        /* \"#utility.yul\":3193:3194   */\n      0x00\n        /* \"#utility.yul\":3182:3191   */\n      dup4\n        /* \"#utility.yul\":3178:3195   */\n      add\n        /* \"#utility.yul\":3165:3196   */\n      calldataload\n        /* \"#utility.yul\":3223:3241   */\n      0xffffffffffffffff\n        /* \"#utility.yul\":3215:3221   */\n      dup2\n        /* \"#utility.yul\":3212:3242   */\n      gt\n        /* \"#utility.yul\":3209:3326   */\n      iszero\n      tag_89\n      jumpi\n        /* \"#utility.yul\":3245:3324   */\n      tag_90\n      tag_25\n      jump\t// in\n    tag_90:\n        /* \"#utility.yul\":3209:3326   */\n    tag_89:\n        /* \"#utility.yul\":3350:3413   */\n      tag_91\n        /* \"#utility.yul\":3405:3412   */\n      dup6\n        /* \"#utility.yul\":3396:3402   */\n      dup3\n        /* \"#utility.yul\":3385:3394   */\n      dup7\n        /* \"#utility.yul\":3381:3403   */\n      add\n        /* \"#utility.yul\":3350:3413   */\n      tag_35\n      jump\t// in\n    tag_91:\n        /* \"#utility.yul\":3340:3413   */\n      swap3\n      pop\n        /* \"#utility.yul\":3136:3423   */\n      pop\n        /* \"#utility.yul\":3462:3464   */\n      0x20\n        /* \"#utility.yul\":3488:3541   */\n      tag_92\n        /* \"#utility.yul\":3533:3540   */\n      dup6\n        /* \"#utility.yul\":3524:3530   */\n      dup3\n        /* \"#utility.yul\":3513:3522   */\n      dup7\n        /* \"#utility.yul\":3509:3531   */\n      add\n        /* \"#utility.yul\":3488:3541   */\n      tag_38\n      jump\t// in\n    tag_92:\n        /* \"#utility.yul\":3478:3541   */\n      swap2\n      pop\n        /* \"#utility.yul\":3433:3551   */\n      pop\n        /* \"#utility.yul\":2904:3558   */\n      swap3\n      pop\n      swap3\n      swap1\n      pop\n      jump\t// out\n        /* \"#utility.yul\":3564:3654   */\n    tag_39:\n        /* \"#utility.yul\":3598:3605   */\n      0x00\n        /* \"#utility.yul\":3641:3646   */\n      dup2\n        /* \"#utility.yul\":3634:3647   */\n      iszero\n        /* \"#utility.yul\":3627:3648   */\n      iszero\n        /* \"#utility.yul\":3616:3648   */\n      swap1\n      pop\n        /* \"#utility.yul\":3564:3654   */\n      swap2\n      swap1\n      pop\n      jump\t// out\n        /* \"#utility.yul\":3660:3769   */\n    tag_40:\n        /* \"#utility.yul\":3741:3762   */\n      tag_95\n        /* \"#utility.yul\":3756:3761   */\n      dup2\n        /* \"#utility.yul\":3741:3762   */\n      tag_39\n      jump\t// in\n    tag_95:\n        /* \"#utility.yul\":3736:3739   */\n      dup3\n        /* \"#utility.yul\":3729:3763   */\n      mstore\n        /* \"#utility.yul\":3660:3769   */\n      pop\n      pop\n      jump\t// out\n        /* \"#utility.yul\":3775:3985   */\n    tag_9:\n        /* \"#utility.yul\":3862:3866   */\n      0x00\n        /* \"#utility.yul\":3900:3902   */\n      0x20\n        /* \"#utility.yul\":3889:3898   */\n      dup3\n        /* \"#utility.yul\":3885:3903   */\n      add\n        /* \"#utility.yul\":3877:3903   */\n      swap1\n      pop\n        /* \"#utility.yul\":3913:3978   */\n      tag_97\n        /* \"#utility.yul\":3975:3976   */\n      0x00\n        /* \"#utility.yul\":3964:3973   */\n      dup4\n        /* \"#utility.yul\":3960:3977   */\n      add\n        /* \"#utility.yul\":3951:3957   */\n      dup5\n        /* \"#utility.yul\":3913:3978   */\n      tag_40\n      jump\t// in\n    tag_97:\n        /* \"#utility.yul\":3775:3985   */\n      swap3\n      swap2\n      pop\n      pop\n      jump\t// out\n        /* \"#utility.yul\":3991:4090   */\n    tag_41:\n        /* \"#utility.yul\":4043:4049   */\n      0x00\n        /* \"#utility.yul\":4077:4082   */\n      dup2\n        /* \"#utility.yul\":4071:4083   */\n      mload\n        /* \"#utility.yul\":4061:4083   */\n      swap1\n      pop\n        /* \"#utility.yul\":3991:4090   */\n      swap2\n      swap1\n      pop\n      jump\t// out\n        /* \"#utility.yul\":4096:4265   */\n    tag_42:\n        /* \"#utility.yul\":4180:4191   */\n      0x00\n        /* \"#utility.yul\":4214:4220   */\n      dup3\n        /* \"#utility.yul\":4209:4212   */\n      dup3\n        /* \"#utility.yul\":4202:4221   */\n      mstore\n        /* \"#utility.yul\":4254:4258   */\n      0x20\n        /* \"#utility.yul\":4249:4252   */\n      dup3\n        /* \"#utility.yul\":4245:4259   */\n      add\n        /* \"#utility.yul\":4230:4259   */\n      swap1\n      pop\n        /* \"#utility.yul\":4096:4265   */\n      swap3\n      swap2\n      pop\n      pop\n      jump\t// out\n        /* \"#utility.yul\":4271:4578   */\n    tag_43:\n        /* \"#utility.yul\":4339:4340   */\n      0x00\n        /* \"#utility.yul\":4349:4462   */\n    tag_101:\n        /* \"#utility.yul\":4363:4369   */\n      dup4\n        /* \"#utility.yul\":4360:4361   */\n      dup2\n        /* \"#utility.yul\":4357:4370   */\n      lt\n        /* \"#utility.yul\":4349:4462   */\n      iszero\n      tag_103\n      jumpi\n        /* \"#utility.yul\":4448:4449   */\n      dup1\n        /* \"#utility.yul\":4443:4446   */\n      dup3\n        /* \"#utility.yul\":4439:4450   */\n      add\n        /* \"#utility.yul\":4433:4451   */\n      mload\n        /* \"#utility.yul\":4429:4430   */\n      dup2\n        /* \"#utility.yul\":4424:4427   */\n      dup5\n        /* \"#utility.yul\":4420:4431   */\n      add\n        /* \"#utility.yul\":4413:4452   */\n      mstore\n        /* \"#utility.yul\":4385:4387   */\n      0x20\n        /* \"#utility.yul\":4382:4383   */\n      dup2\n        /* \"#utility.yul\":4378:4388   */\n      add\n        /* \"#utility.yul\":4373:4388   */\n      swap1\n      pop\n        /* \"#utility.yul\":4349:4462   */\n      jump(tag_101)\n    tag_103:\n        /* \"#utility.yul\":4480:4486   */\n      dup4\n        /* \"#utility.yul\":4477:4478   */\n      dup2\n        /* \"#utility.yul\":4474:4487   */\n      gt\n        /* \"#utility.yul\":4471:4572   */\n      iszero\n      tag_104\n      jumpi\n        /* \"#utility.yul\":4560:4561   */\n      0x00\n        /* \"#utility.yul\":4551:4557   */\n      dup5\n        /* \"#utility.yul\":4546:4549   */\n      dup5\n        /* \"#utility.yul\":4542:4558   */\n      add\n        /* \"#utility.yul\":4535:4562   */\n      mstore\n        /* \"#utility.yul\":4471:4572   */\n    tag_104:\n        /* \"#utility.yul\":4320:4578   */\n      pop\n        /* \"#utility.yul\":4271:4578   */\n      pop\n      pop\n      pop\n      jump\t// out\n        /* \"#utility.yul\":4584:4948   */\n    tag_44:\n        /* \"#utility.yul\":4672:4675   */\n      0x00\n        /* \"#utility.yul\":4700:4739   */\n      tag_106\n        /* \"#utility.yul\":4733:4738   */\n      dup3\n        /* \"#utility.yul\":4700:4739   */\n      tag_41\n      jump\t// in\n    tag_106:\n        /* \"#utility.yul\":4755:4826   */\n      tag_107\n        /* \"#utility.yul\":4819:4825   */\n      dup2\n        /* \"#utility.yul\":4814:4817   */\n      dup6\n        /* \"#utility.yul\":4755:4826   */\n      tag_42\n      jump\t// in\n    tag_107:\n        /* \"#utility.yul\":4748:4826   */\n      swap4\n      pop\n        /* \"#utility.yul\":4835:4887   */\n      tag_108\n        /* \"#utility.yul\":4880:4886   */\n      dup2\n        /* \"#utility.yul\":4875:4878   */\n      dup6\n        /* \"#utility.yul\":4868:4872   */\n      0x20\n        /* \"#utility.yul\":4861:4866   */\n      dup7\n        /* \"#utility.yul\":4857:4873   */\n      add\n        /* \"#utility.yul\":4835:4887   */\n      tag_43\n      jump\t// in\n    tag_108:\n        /* \"#utility.yul\":4912:4941   */\n      tag_109\n        /* \"#utility.yul\":4934:4940   */\n      dup2\n        /* \"#utility.yul\":4912:4941   */\n      tag_28\n      jump\t// in\n    tag_109:\n        /* \"#utility.yul\":4907:4910   */\n      dup5\n        /* \"#utility.yul\":4903:4942   */\n      add\n        /* \"#utility.yul\":4896:4942   */\n      swap2\n      pop\n        /* \"#utility.yul\":4676:4948   */\n      pop\n        /* \"#utility.yul\":4584:4948   */\n      swap3\n      swap2\n      pop\n      pop\n      jump\t// out\n        /* \"#utility.yul\":4954:5072   */\n    tag_45:\n        /* \"#utility.yul\":5041:5065   */\n      tag_111\n        /* \"#utility.yul\":5059:5064   */\n      dup2\n        /* \"#utility.yul\":5041:5065   */\n      tag_36\n      jump\t// in\n    tag_111:\n        /* \"#utility.yul\":5036:5039   */\n      dup3\n        /* \"#utility.yul\":5029:5066   */\n      mstore\n        /* \"#utility.yul\":4954:5072   */\n      pop\n      pop\n      jump\t// out\n        /* \"#utility.yul\":5078:5501   */\n    tag_14:\n        /* \"#utility.yul\":5219:5223   */\n      0x00\n        /* \"#utility.yul\":5257:5259   */\n      0x40\n        /* \"#utility.yul\":5246:5255   */\n      dup3\n        /* \"#utility.yul\":5242:5260   */\n      add\n        /* \"#utility.yul\":5234:5260   */\n      swap1\n      pop\n        /* \"#utility.yul\":5306:5315   */\n      dup2\n        /* \"#utility.yul\":5300:5304   */\n      dup2\n        /* \"#utility.yul\":5296:5316   */\n      sub\n        /* \"#utility.yul\":5292:5293   */\n      0x00\n        /* \"#utility.yul\":5281:5290   */\n      dup4\n        /* \"#utility.yul\":5277:5294   */\n      add\n        /* \"#utility.yul\":5270:5317   */\n      mstore\n        /* \"#utility.yul\":5334:5412   */\n      tag_113\n        /* \"#utility.yul\":5407:5411   */\n      dup2\n        /* \"#utility.yul\":5398:5404   */\n      dup6\n        /* \"#utility.yul\":5334:5412   */\n      tag_44\n      jump\t// in\n    tag_113:\n        /* \"#utility.yul\":5326:5412   */\n      swap1\n      pop\n        /* \"#utility.yul\":5422:5494   */\n      tag_114\n        /* \"#utility.yul\":5490:5492   */\n      0x20\n        /* \"#utility.yul\":5479:5488   */\n      dup4\n        /* \"#utility.yul\":5475:5493   */\n      add\n        /* \"#utility.yul\":5466:5472   */\n      dup5\n        /* \"#utility.yul\":5422:5494   */\n      tag_45\n      jump\t// in\n    tag_114:\n        /* \"#utility.yul\":5078:5501   */\n      swap4\n      swap3\n      pop\n      pop\n      pop\n      jump\t// out\n        /* \"#utility.yul\":5507:5662   */\n    tag_46:\n        /* \"#utility.yul\":5647:5654   */\n      0x6361746368000000000000000000000000000000000000000000000000000000\n        /* \"#utility.yul\":5643:5644   */\n      0x00\n        /* \"#utility.yul\":5635:5641   */\n      dup3\n        /* \"#utility.yul\":5631:5645   */\n      add\n        /* \"#utility.yul\":5624:5655   */\n      mstore\n        /* \"#utility.yul\":5507:5662   */\n      pop\n      jump\t// out\n        /* \"#utility.yul\":5668:6033   */\n    tag_47:\n        /* \"#utility.yul\":5810:5813   */\n      0x00\n        /* \"#utility.yul\":5831:5897   */\n      tag_117\n        /* \"#utility.yul\":5895:5896   */\n      0x05\n        /* \"#utility.yul\":5890:5893   */\n      dup4\n        /* \"#utility.yul\":5831:5897   */\n      tag_42\n      jump\t// in\n    tag_117:\n        /* \"#utility.yul\":5824:5897   */\n      swap2\n      pop\n        /* \"#utility.yul\":5906:5999   */\n      tag_118\n        /* \"#utility.yul\":5995:5998   */\n      dup3\n        /* \"#utility.yul\":5906:5999   */\n      tag_46\n      jump\t// in\n    tag_118:\n        /* \"#utility.yul\":6024:6026   */\n      0x20\n        /* \"#utility.yul\":6019:6022   */\n      dup3\n        /* \"#utility.yul\":6015:6027   */\n      add\n        /* \"#utility.yul\":6008:6027   */\n      swap1\n      pop\n        /* \"#utility.yul\":5668:6033   */\n      swap2\n      swap1\n      pop\n      jump\t// out\n        /* \"#utility.yul\":6039:6197   */\n    tag_48:\n        /* \"#utility.yul\":6179:6189   */\n      0x4572726f72532121000000000000000000000000000000000000000000000000\n        /* \"#utility.yul\":6175:6176   */\n      0x00\n        /* \"#utility.yul\":6167:6173   */\n      dup3\n        /* \"#utility.yul\":6163:6177   */\n      add\n        /* \"#utility.yul\":6156:6190   */\n      mstore\n        /* \"#utility.yul\":6039:6197   */\n      pop\n      jump\t// out\n        /* \"#utility.yul\":6203:6568   */\n    tag_49:\n        /* \"#utility.yul\":6345:6348   */\n      0x00\n        /* \"#utility.yul\":6366:6432   */\n      tag_121\n        /* \"#utility.yul\":6430:6431   */\n      0x08\n        /* \"#utility.yul\":6425:6428   */\n      dup4\n        /* \"#utility.yul\":6366:6432   */\n      tag_42\n      jump\t// in\n    tag_121:\n        /* \"#utility.yul\":6359:6432   */\n      swap2\n      pop\n        /* \"#utility.yul\":6441:6534   */\n      tag_122\n        /* \"#utility.yul\":6530:6533   */\n      dup3\n        /* \"#utility.yul\":6441:6534   */\n      tag_48\n      jump\t// in\n    tag_122:\n        /* \"#utility.yul\":6559:6561   */\n      0x20\n        /* \"#utility.yul\":6554:6557   */\n      dup3\n        /* \"#utility.yul\":6550:6562   */\n      add\n        /* \"#utility.yul\":6543:6562   */\n      swap1\n      pop\n        /* \"#utility.yul\":6203:6568   */\n      swap2\n      swap1\n      pop\n      jump\t// out\n        /* \"#utility.yul\":6574:7300   */\n    tag_21:\n        /* \"#utility.yul\":6841:6845   */\n      0x00\n        /* \"#utility.yul\":6879:6881   */\n      0x40\n        /* \"#utility.yul\":6868:6877   */\n      dup3\n        /* \"#utility.yul\":6864:6882   */\n      add\n        /* \"#utility.yul\":6856:6882   */\n      swap1\n      pop\n        /* \"#utility.yul\":6928:6937   */\n      dup2\n        /* \"#utility.yul\":6922:6926   */\n      dup2\n        /* \"#utility.yul\":6918:6938   */\n      sub\n        /* \"#utility.yul\":6914:6915   */\n      0x00\n        /* \"#utility.yul\":6903:6912   */\n      dup4\n        /* \"#utility.yul\":6899:6916   */\n      add\n        /* \"#utility.yul\":6892:6939   */\n      mstore\n        /* \"#utility.yul\":6956:7087   */\n      tag_124\n        /* \"#utility.yul\":7082:7086   */\n      dup2\n        /* \"#utility.yul\":6956:7087   */\n      tag_47\n      jump\t// in\n    tag_124:\n        /* \"#utility.yul\":6948:7087   */\n      swap1\n      pop\n        /* \"#utility.yul\":7134:7143   */\n      dup2\n        /* \"#utility.yul\":7128:7132   */\n      dup2\n        /* \"#utility.yul\":7124:7144   */\n      sub\n        /* \"#utility.yul\":7119:7121   */\n      0x20\n        /* \"#utility.yul\":7108:7117   */\n      dup4\n        /* \"#utility.yul\":7104:7122   */\n      add\n        /* \"#utility.yul\":7097:7145   */\n      mstore\n        /* \"#utility.yul\":7162:7293   */\n      tag_125\n        /* \"#utility.yul\":7288:7292   */\n      dup2\n        /* \"#utility.yul\":7162:7293   */\n      tag_49\n      jump\t// in\n    tag_125:\n        /* \"#utility.yul\":7154:7293   */\n      swap1\n      pop\n        /* \"#utility.yul\":6574:7300   */\n      swap2\n      swap1\n      pop\n      jump\t// out\n    stop\n\n    sub_0: assembly {\n            /* \"lecture/tryCatch2.sol\":2547:2747  contract character{... */\n          mstore(0x40, 0x80)\n            /* \"lecture/tryCatch2.sol\":2638:2742  constructor(string memory _name, uint256 _power){... */\n          callvalue\n          dup1\n          iszero\n          tag_1\n          jumpi\n          0x00\n          dup1\n          revert\n        tag_1:\n          pop\n          mload(0x40)\n          sub(codesize, bytecodeSize)\n          dup1\n          bytecodeSize\n          dup4\n          codecopy\n          dup2\n          dup2\n          add\n          0x40\n          mstore\n          dup2\n          add\n          swap1\n          tag_2\n          swap2\n          swap1\n          tag_3\n          jump\t// in\n        tag_2:\n            /* \"lecture/tryCatch2.sol\":2704:2709  _name */\n          dup2\n            /* \"lecture/tryCatch2.sol\":2697:2701  name */\n          0x00\n            /* \"lecture/tryCatch2.sol\":2697:2709  name = _name */\n          swap1\n          dup1\n          mload\n          swap1\n          0x20\n          add\n          swap1\n          tag_6\n          swap3\n          swap2\n          swap1\n          tag_7\n          jump\t// in\n        tag_6:\n          pop\n            /* \"lecture/tryCatch2.sol\":2728:2734  _power */\n          dup1\n            /* \"lecture/tryCatch2.sol\":2720:2725  power */\n          0x01\n            /* \"lecture/tryCatch2.sol\":2720:2734  power = _power */\n          dup2\n          swap1\n          sstore\n          pop\n            /* \"lecture/tryCatch2.sol\":2638:2742  constructor(string memory _name, uint256 _power){... */\n          pop\n          pop\n            /* \"lecture/tryCatch2.sol\":2547:2747  contract character{... */\n          jump(tag_8)\n        tag_7:\n          dup3\n          dup1\n          sload\n          tag_9\n          swap1\n          tag_10\n          jump\t// in\n        tag_9:\n          swap1\n          0x00\n          mstore\n          keccak256(0x00, 0x20)\n          swap1\n          0x1f\n          add\n          0x20\n          swap1\n          div\n          dup2\n          add\n          swap3\n          dup3\n          tag_12\n          jumpi\n          0x00\n          dup6\n          sstore\n          jump(tag_11)\n        tag_12:\n          dup3\n          0x1f\n          lt\n          tag_13\n          jumpi\n          dup1\n          mload\n          not(0xff)\n          and\n          dup4\n          dup1\n          add\n          or\n          dup6\n          sstore\n          jump(tag_11)\n        tag_13:\n          dup3\n          dup1\n          add\n          0x01\n          add\n          dup6\n          sstore\n          dup3\n          iszero\n          tag_11\n          jumpi\n          swap2\n          dup3\n          add\n        tag_14:\n          dup3\n          dup2\n          gt\n          iszero\n          tag_15\n          jumpi\n          dup3\n          mload\n          dup3\n          sstore\n          swap2\n          0x20\n          add\n          swap2\n          swap1\n          0x01\n          add\n          swap1\n          jump(tag_14)\n        tag_15:\n        tag_11:\n          pop\n          swap1\n          pop\n          tag_16\n          swap2\n          swap1\n          tag_17\n          jump\t// in\n        tag_16:\n          pop\n          swap1\n          jump\t// out\n        tag_17:\n        tag_18:\n          dup1\n          dup3\n          gt\n          iszero\n          tag_19\n          jumpi\n          0x00\n          dup2\n          0x00\n          swap1\n          sstore\n          pop\n          0x01\n          add\n          jump(tag_18)\n        tag_19:\n          pop\n          swap1\n          jump\t// out\n            /* \"#utility.yul\":7:82   */\n        tag_20:\n            /* \"#utility.yul\":40:46   */\n          0x00\n            /* \"#utility.yul\":73:75   */\n          0x40\n            /* \"#utility.yul\":67:76   */\n          mload\n            /* \"#utility.yul\":57:76   */\n          swap1\n          pop\n            /* \"#utility.yul\":7:82   */\n          swap1\n          jump\t// out\n            /* \"#utility.yul\":88:205   */\n        tag_21:\n            /* \"#utility.yul\":197:198   */\n          0x00\n            /* \"#utility.yul\":194:195   */\n          dup1\n            /* \"#utility.yul\":187:199   */\n          revert\n            /* \"#utility.yul\":211:328   */\n        tag_22:\n            /* \"#utility.yul\":320:321   */\n          0x00\n            /* \"#utility.yul\":317:318   */\n          dup1\n            /* \"#utility.yul\":310:322   */\n          revert\n            /* \"#utility.yul\":334:451   */\n        tag_23:\n            /* \"#utility.yul\":443:444   */\n          0x00\n            /* \"#utility.yul\":440:441   */\n          dup1\n            /* \"#utility.yul\":433:445   */\n          revert\n            /* \"#utility.yul\":457:574   */\n        tag_24:\n            /* \"#utility.yul\":566:567   */\n          0x00\n            /* \"#utility.yul\":563:564   */\n          dup1\n            /* \"#utility.yul\":556:568   */\n          revert\n            /* \"#utility.yul\":580:682   */\n        tag_25:\n            /* \"#utility.yul\":621:627   */\n          0x00\n            /* \"#utility.yul\":672:674   */\n          0x1f\n            /* \"#utility.yul\":668:675   */\n          not\n            /* \"#utility.yul\":663:665   */\n          0x1f\n            /* \"#utility.yul\":656:661   */\n          dup4\n            /* \"#utility.yul\":652:666   */\n          add\n            /* \"#utility.yul\":648:676   */\n          and\n            /* \"#utility.yul\":638:676   */\n          swap1\n          pop\n            /* \"#utility.yul\":580:682   */\n          swap2\n          swap1\n          pop\n          jump\t// out\n            /* \"#utility.yul\":688:868   */\n        tag_26:\n            /* \"#utility.yul\":736:813   */\n          0x4e487b7100000000000000000000000000000000000000000000000000000000\n            /* \"#utility.yul\":733:734   */\n          0x00\n            /* \"#utility.yul\":726:814   */\n          mstore\n            /* \"#utility.yul\":833:837   */\n          0x41\n            /* \"#utility.yul\":830:831   */\n          0x04\n            /* \"#utility.yul\":823:838   */\n          mstore\n            /* \"#utility.yul\":857:861   */\n          0x24\n            /* \"#utility.yul\":854:855   */\n          0x00\n            /* \"#utility.yul\":847:862   */\n          revert\n            /* \"#utility.yul\":874:1155   */\n        tag_27:\n            /* \"#utility.yul\":957:984   */\n          tag_46\n            /* \"#utility.yul\":979:983   */\n          dup3\n            /* \"#utility.yul\":957:984   */\n          tag_25\n          jump\t// in\n        tag_46:\n            /* \"#utility.yul\":949:955   */\n          dup2\n            /* \"#utility.yul\":945:985   */\n          add\n            /* \"#utility.yul\":1087:1093   */\n          dup2\n            /* \"#utility.yul\":1075:1085   */\n          dup2\n            /* \"#utility.yul\":1072:1094   */\n          lt\n            /* \"#utility.yul\":1051:1069   */\n          0xffffffffffffffff\n            /* \"#utility.yul\":1039:1049   */\n          dup3\n            /* \"#utility.yul\":1036:1070   */\n          gt\n            /* \"#utility.yul\":1033:1095   */\n          or\n            /* \"#utility.yul\":1030:1118   */\n          iszero\n          tag_47\n          jumpi\n            /* \"#utility.yul\":1098:1116   */\n          tag_48\n          tag_26\n          jump\t// in\n        tag_48:\n            /* \"#utility.yul\":1030:1118   */\n        tag_47:\n            /* \"#utility.yul\":1138:1148   */\n          dup1\n            /* \"#utility.yul\":1134:1136   */\n          0x40\n            /* \"#utility.yul\":1127:1149   */\n          mstore\n            /* \"#utility.yul\":917:1155   */\n          pop\n            /* \"#utility.yul\":874:1155   */\n          pop\n          pop\n          jump\t// out\n            /* \"#utility.yul\":1161:1290   */\n        tag_28:\n            /* \"#utility.yul\":1195:1201   */\n          0x00\n            /* \"#utility.yul\":1222:1242   */\n          tag_50\n          tag_20\n          jump\t// in\n        tag_50:\n            /* \"#utility.yul\":1212:1242   */\n          swap1\n          pop\n            /* \"#utility.yul\":1251:1284   */\n          tag_51\n            /* \"#utility.yul\":1279:1283   */\n          dup3\n            /* \"#utility.yul\":1271:1277   */\n          dup3\n            /* \"#utility.yul\":1251:1284   */\n          tag_27\n          jump\t// in\n        tag_51:\n            /* \"#utility.yul\":1161:1290   */\n          swap2\n          swap1\n          pop\n          jump\t// out\n            /* \"#utility.yul\":1296:1604   */\n        tag_29:\n            /* \"#utility.yul\":1358:1362   */\n          0x00\n            /* \"#utility.yul\":1448:1466   */\n          0xffffffffffffffff\n            /* \"#utility.yul\":1440:1446   */\n          dup3\n            /* \"#utility.yul\":1437:1467   */\n          gt\n            /* \"#utility.yul\":1434:1490   */\n          iszero\n          tag_53\n          jumpi\n            /* \"#utility.yul\":1470:1488   */\n          tag_54\n          tag_26\n          jump\t// in\n        tag_54:\n            /* \"#utility.yul\":1434:1490   */\n        tag_53:\n            /* \"#utility.yul\":1508:1537   */\n          tag_55\n            /* \"#utility.yul\":1530:1536   */\n          dup3\n            /* \"#utility.yul\":1508:1537   */\n          tag_25\n          jump\t// in\n        tag_55:\n            /* \"#utility.yul\":1500:1537   */\n          swap1\n          pop\n            /* \"#utility.yul\":1592:1596   */\n          0x20\n            /* \"#utility.yul\":1586:1590   */\n          dup2\n            /* \"#utility.yul\":1582:1597   */\n          add\n            /* \"#utility.yul\":1574:1597   */\n          swap1\n          pop\n            /* \"#utility.yul\":1296:1604   */\n          swap2\n          swap1\n          pop\n          jump\t// out\n            /* \"#utility.yul\":1610:1917   */\n        tag_30:\n            /* \"#utility.yul\":1678:1679   */\n          0x00\n            /* \"#utility.yul\":1688:1801   */\n        tag_57:\n            /* \"#utility.yul\":1702:1708   */\n          dup4\n            /* \"#utility.yul\":1699:1700   */\n          dup2\n            /* \"#utility.yul\":1696:1709   */\n          lt\n            /* \"#utility.yul\":1688:1801   */\n          iszero\n          tag_59\n          jumpi\n            /* \"#utility.yul\":1787:1788   */\n          dup1\n            /* \"#utility.yul\":1782:1785   */\n          dup3\n            /* \"#utility.yul\":1778:1789   */\n          add\n            /* \"#utility.yul\":1772:1790   */\n          mload\n            /* \"#utility.yul\":1768:1769   */\n          dup2\n            /* \"#utility.yul\":1763:1766   */\n          dup5\n            /* \"#utility.yul\":1759:1770   */\n          add\n            /* \"#utility.yul\":1752:1791   */\n          mstore\n            /* \"#utility.yul\":1724:1726   */\n          0x20\n            /* \"#utility.yul\":1721:1722   */\n          dup2\n            /* \"#utility.yul\":1717:1727   */\n          add\n            /* \"#utility.yul\":1712:1727   */\n          swap1\n          pop\n            /* \"#utility.yul\":1688:1801   */\n          jump(tag_57)\n        tag_59:\n            /* \"#utility.yul\":1819:1825   */\n          dup4\n            /* \"#utility.yul\":1816:1817   */\n          dup2\n            /* \"#utility.yul\":1813:1826   */\n          gt\n            /* \"#utility.yul\":1810:1911   */\n          iszero\n          tag_60\n          jumpi\n            /* \"#utility.yul\":1899:1900   */\n          0x00\n            /* \"#utility.yul\":1890:1896   */\n          dup5\n            /* \"#utility.yul\":1885:1888   */\n          dup5\n            /* \"#utility.yul\":1881:1897   */\n          add\n            /* \"#utility.yul\":1874:1901   */\n          mstore\n            /* \"#utility.yul\":1810:1911   */\n        tag_60:\n            /* \"#utility.yul\":1659:1917   */\n          pop\n            /* \"#utility.yul\":1610:1917   */\n          pop\n          pop\n          pop\n          jump\t// out\n            /* \"#utility.yul\":1923:2344   */\n        tag_31:\n            /* \"#utility.yul\":2012:2017   */\n          0x00\n            /* \"#utility.yul\":2037:2103   */\n          tag_62\n            /* \"#utility.yul\":2053:2102   */\n          tag_63\n            /* \"#utility.yul\":2095:2101   */\n          dup5\n            /* \"#utility.yul\":2053:2102   */\n          tag_29\n          jump\t// in\n        tag_63:\n            /* \"#utility.yul\":2037:2103   */\n          tag_28\n          jump\t// in\n        tag_62:\n            /* \"#utility.yul\":2028:2103   */\n          swap1\n          pop\n            /* \"#utility.yul\":2126:2132   */\n          dup3\n            /* \"#utility.yul\":2119:2124   */\n          dup2\n            /* \"#utility.yul\":2112:2133   */\n          mstore\n            /* \"#utility.yul\":2164:2168   */\n          0x20\n            /* \"#utility.yul\":2157:2162   */\n          dup2\n            /* \"#utility.yul\":2153:2169   */\n          add\n            /* \"#utility.yul\":2202:2205   */\n          dup5\n            /* \"#utility.yul\":2193:2199   */\n          dup5\n            /* \"#utility.yul\":2188:2191   */\n          dup5\n            /* \"#utility.yul\":2184:2200   */\n          add\n            /* \"#utility.yul\":2181:2206   */\n          gt\n            /* \"#utility.yul\":2178:2290   */\n          iszero\n          tag_64\n          jumpi\n            /* \"#utility.yul\":2209:2288   */\n          tag_65\n          tag_24\n          jump\t// in\n        tag_65:\n            /* \"#utility.yul\":2178:2290   */\n        tag_64:\n            /* \"#utility.yul\":2299:2338   */\n          tag_66\n            /* \"#utility.yul\":2331:2337   */\n          dup5\n            /* \"#utility.yul\":2326:2329   */\n          dup3\n            /* \"#utility.yul\":2321:2324   */\n          dup6\n            /* \"#utility.yul\":2299:2338   */\n          tag_30\n          jump\t// in\n        tag_66:\n            /* \"#utility.yul\":2018:2344   */\n          pop\n            /* \"#utility.yul\":1923:2344   */\n          swap4\n          swap3\n          pop\n          pop\n          pop\n          jump\t// out\n            /* \"#utility.yul\":2364:2719   */\n        tag_32:\n            /* \"#utility.yul\":2431:2436   */\n          0x00\n            /* \"#utility.yul\":2480:2483   */\n          dup3\n            /* \"#utility.yul\":2473:2477   */\n          0x1f\n            /* \"#utility.yul\":2465:2471   */\n          dup4\n            /* \"#utility.yul\":2461:2478   */\n          add\n            /* \"#utility.yul\":2457:2484   */\n          slt\n            /* \"#utility.yul\":2447:2569   */\n          tag_68\n          jumpi\n            /* \"#utility.yul\":2488:2567   */\n          tag_69\n          tag_23\n          jump\t// in\n        tag_69:\n            /* \"#utility.yul\":2447:2569   */\n        tag_68:\n            /* \"#utility.yul\":2598:2604   */\n          dup2\n            /* \"#utility.yul\":2592:2605   */\n          mload\n            /* \"#utility.yul\":2623:2713   */\n          tag_70\n            /* \"#utility.yul\":2709:2712   */\n          dup5\n            /* \"#utility.yul\":2701:2707   */\n          dup3\n            /* \"#utility.yul\":2694:2698   */\n          0x20\n            /* \"#utility.yul\":2686:2692   */\n          dup7\n            /* \"#utility.yul\":2682:2699   */\n          add\n            /* \"#utility.yul\":2623:2713   */\n          tag_31\n          jump\t// in\n        tag_70:\n            /* \"#utility.yul\":2614:2713   */\n          swap2\n          pop\n            /* \"#utility.yul\":2437:2719   */\n          pop\n            /* \"#utility.yul\":2364:2719   */\n          swap3\n          swap2\n          pop\n          pop\n          jump\t// out\n            /* \"#utility.yul\":2725:2802   */\n        tag_33:\n            /* \"#utility.yul\":2762:2769   */\n          0x00\n            /* \"#utility.yul\":2791:2796   */\n          dup2\n            /* \"#utility.yul\":2780:2796   */\n          swap1\n          pop\n            /* \"#utility.yul\":2725:2802   */\n          swap2\n          swap1\n          pop\n          jump\t// out\n            /* \"#utility.yul\":2808:2930   */\n        tag_34:\n            /* \"#utility.yul\":2881:2905   */\n          tag_73\n            /* \"#utility.yul\":2899:2904   */\n          dup2\n            /* \"#utility.yul\":2881:2905   */\n          tag_33\n          jump\t// in\n        tag_73:\n            /* \"#utility.yul\":2874:2879   */\n          dup2\n            /* \"#utility.yul\":2871:2906   */\n          eq\n            /* \"#utility.yul\":2861:2924   */\n          tag_74\n          jumpi\n            /* \"#utility.yul\":2920:2921   */\n          0x00\n            /* \"#utility.yul\":2917:2918   */\n          dup1\n            /* \"#utility.yul\":2910:2922   */\n          revert\n            /* \"#utility.yul\":2861:2924   */\n        tag_74:\n            /* \"#utility.yul\":2808:2930   */\n          pop\n          jump\t// out\n            /* \"#utility.yul\":2936:3079   */\n        tag_35:\n            /* \"#utility.yul\":2993:2998   */\n          0x00\n            /* \"#utility.yul\":3024:3030   */\n          dup2\n            /* \"#utility.yul\":3018:3031   */\n          mload\n            /* \"#utility.yul\":3009:3031   */\n          swap1\n          pop\n            /* \"#utility.yul\":3040:3073   */\n          tag_76\n            /* \"#utility.yul\":3067:3072   */\n          dup2\n            /* \"#utility.yul\":3040:3073   */\n          tag_34\n          jump\t// in\n        tag_76:\n            /* \"#utility.yul\":2936:3079   */\n          swap3\n          swap2\n          pop\n          pop\n          jump\t// out\n            /* \"#utility.yul\":3085:3765   */\n        tag_3:\n            /* \"#utility.yul\":3174:3180   */\n          0x00\n            /* \"#utility.yul\":3182:3188   */\n          dup1\n            /* \"#utility.yul\":3231:3233   */\n          0x40\n            /* \"#utility.yul\":3219:3228   */\n          dup4\n            /* \"#utility.yul\":3210:3217   */\n          dup6\n            /* \"#utility.yul\":3206:3229   */\n          sub\n            /* \"#utility.yul\":3202:3234   */\n          slt\n            /* \"#utility.yul\":3199:3318   */\n          iszero\n          tag_78\n          jumpi\n            /* \"#utility.yul\":3237:3316   */\n          tag_79\n          tag_21\n          jump\t// in\n        tag_79:\n            /* \"#utility.yul\":3199:3318   */\n        tag_78:\n            /* \"#utility.yul\":3378:3379   */\n          0x00\n            /* \"#utility.yul\":3367:3376   */\n          dup4\n            /* \"#utility.yul\":3363:3380   */\n          add\n            /* \"#utility.yul\":3357:3381   */\n          mload\n            /* \"#utility.yul\":3408:3426   */\n          0xffffffffffffffff\n            /* \"#utility.yul\":3400:3406   */\n          dup2\n            /* \"#utility.yul\":3397:3427   */\n          gt\n            /* \"#utility.yul\":3394:3511   */\n          iszero\n          tag_80\n          jumpi\n            /* \"#utility.yul\":3430:3509   */\n          tag_81\n          tag_22\n          jump\t// in\n        tag_81:\n            /* \"#utility.yul\":3394:3511   */\n        tag_80:\n            /* \"#utility.yul\":3535:3609   */\n          tag_82\n            /* \"#utility.yul\":3601:3608   */\n          dup6\n            /* \"#utility.yul\":3592:3598   */\n          dup3\n            /* \"#utility.yul\":3581:3590   */\n          dup7\n            /* \"#utility.yul\":3577:3599   */\n          add\n            /* \"#utility.yul\":3535:3609   */\n          tag_32\n          jump\t// in\n        tag_82:\n            /* \"#utility.yul\":3525:3609   */\n          swap3\n          pop\n            /* \"#utility.yul\":3328:3619   */\n          pop\n            /* \"#utility.yul\":3658:3660   */\n          0x20\n            /* \"#utility.yul\":3684:3748   */\n          tag_83\n            /* \"#utility.yul\":3740:3747   */\n          dup6\n            /* \"#utility.yul\":3731:3737   */\n          dup3\n            /* \"#utility.yul\":3720:3729   */\n          dup7\n            /* \"#utility.yul\":3716:3738   */\n          add\n            /* \"#utility.yul\":3684:3748   */\n          tag_35\n          jump\t// in\n        tag_83:\n            /* \"#utility.yul\":3674:3748   */\n          swap2\n          pop\n            /* \"#utility.yul\":3629:3758   */\n          pop\n            /* \"#utility.yul\":3085:3765   */\n          swap3\n          pop\n          swap3\n          swap1\n          pop\n          jump\t// out\n            /* \"#utility.yul\":3771:3951   */\n        tag_36:\n            /* \"#utility.yul\":3819:3896   */\n          0x4e487b7100000000000000000000000000000000000000000000000000000000\n            /* \"#utility.yul\":3816:3817   */\n          0x00\n            /* \"#utility.yul\":3809:3897   */\n          mstore\n            /* \"#utility.yul\":3916:3920   */\n          0x22\n            /* \"#utility.yul\":3913:3914   */\n          0x04\n            /* \"#utility.yul\":3906:3921   */\n          mstore\n            /* \"#utility.yul\":3940:3944   */\n          0x24\n            /* \"#utility.yul\":3937:3938   */\n          0x00\n            /* \"#utility.yul\":3930:3945   */\n          revert\n            /* \"#utility.yul\":3957:4277   */\n        tag_10:\n            /* \"#utility.yul\":4001:4007   */\n          0x00\n            /* \"#utility.yul\":4038:4039   */\n          0x02\n            /* \"#utility.yul\":4032:4036   */\n          dup3\n            /* \"#utility.yul\":4028:4040   */\n          div\n            /* \"#utility.yul\":4018:4040   */\n          swap1\n          pop\n            /* \"#utility.yul\":4085:4086   */\n          0x01\n            /* \"#utility.yul\":4079:4083   */\n          dup3\n            /* \"#utility.yul\":4075:4087   */\n          and\n            /* \"#utility.yul\":4106:4124   */\n          dup1\n            /* \"#utility.yul\":4096:4177   */\n          tag_86\n          jumpi\n            /* \"#utility.yul\":4162:4166   */\n          0x7f\n            /* \"#utility.yul\":4154:4160   */\n          dup3\n            /* \"#utility.yul\":4150:4167   */\n          and\n            /* \"#utility.yul\":4140:4167   */\n          swap2\n          pop\n            /* \"#utility.yul\":4096:4177   */\n        tag_86:\n            /* \"#utility.yul\":4224:4226   */\n          0x20\n            /* \"#utility.yul\":4216:4222   */\n          dup3\n            /* \"#utility.yul\":4213:4227   */\n          lt\n            /* \"#utility.yul\":4193:4211   */\n          dup2\n            /* \"#utility.yul\":4190:4228   */\n          sub\n            /* \"#utility.yul\":4187:4271   */\n          tag_87\n          jumpi\n            /* \"#utility.yul\":4243:4261   */\n          tag_88\n          tag_36\n          jump\t// in\n        tag_88:\n            /* \"#utility.yul\":4187:4271   */\n        tag_87:\n            /* \"#utility.yul\":4008:4277   */\n          pop\n            /* \"#utility.yul\":3957:4277   */\n          swap2\n          swap1\n          pop\n          jump\t// out\n            /* \"lecture/tryCatch2.sol\":2547:2747  contract character{... */\n        tag_8:\n          dataSize(sub_0)\n          dup1\n          dataOffset(sub_0)\n          0x00\n          codecopy\n          0x00\n          return\n        stop\n\n        sub_0: assembly {\n                /* \"lecture/tryCatch2.sol\":2547:2747  contract character{... */\n              mstore(0x40, 0x80)\n              0x00\n              dup1\n              revert\n\n            auxdata: 0xa2646970667358221220e9eb89b5f444cdd335310203a37bbab48669e0ed8cb73d95effd62556b7c1cf264736f6c634300080d0033\n        }\n    }\n\n    auxdata: 0xa2646970667358221220dd2a027eee57b47af8f39cdcd8977de03944a90b860eb956fd52fe4c6ab7ebc664736f6c634300080d0033\n}\n",
				"bytecode": {
					"linkReferences": {},
					"object": "608060405234801561001057600080fd5b506108e9806100206000396000f3fe60806040523480156200001157600080fd5b50600436106200002e5760003560e01c8063447bce4a1462000033575b600080fd5b6200005160048036038101906200004b9190620002ad565b62000069565b60405162000060919062000330565b60405180910390f35b600082826040516200007b90620000ee565b62000088929190620003f1565b604051809103906000f080156200009c5760015b620000e2577fed1339d3b97aca38a4bc95190b93af9130be96b54e1bc34caa04b59819decfa0604051620000d090620004c5565b60405180910390a160009050620000e8565b50600190505b92915050565b6103b780620004fd83390190565b6000604051905090565b600080fd5b600080fd5b600080fd5b600080fd5b6000601f19601f8301169050919050565b7f4e487b7100000000000000000000000000000000000000000000000000000000600052604160045260246000fd5b62000165826200011a565b810181811067ffffffffffffffff821117156200018757620001866200012b565b5b80604052505050565b60006200019c620000fc565b9050620001aa82826200015a565b919050565b600067ffffffffffffffff821115620001cd57620001cc6200012b565b5b620001d8826200011a565b9050602081019050919050565b82818337600083830152505050565b60006200020b6200020584620001af565b62000190565b9050828152602081018484840111156200022a576200022962000115565b5b62000237848285620001e5565b509392505050565b600082601f83011262000257576200025662000110565b5b813562000269848260208601620001f4565b91505092915050565b6000819050919050565b620002878162000272565b81146200029357600080fd5b50565b600081359050620002a7816200027c565b92915050565b60008060408385031215620002c757620002c662000106565b5b600083013567ffffffffffffffff811115620002e857620002e76200010b565b5b620002f6858286016200023f565b9250506020620003098582860162000296565b9150509250929050565b60008115159050919050565b6200032a8162000313565b82525050565b60006020820190506200034760008301846200031f565b92915050565b600081519050919050565b600082825260208201905092915050565b60005b83811015620003895780820151818401526020810190506200036c565b8381111562000399576000848401525b50505050565b6000620003ac826200034d565b620003b8818562000358565b9350620003ca81856020860162000369565b620003d5816200011a565b840191505092915050565b620003eb8162000272565b82525050565b600060408201905081810360008301526200040d81856200039f565b90506200041e6020830184620003e0565b9392505050565b7f6361746368000000000000000000000000000000000000000000000000000000600082015250565b60006200045d60058362000358565b91506200046a8262000425565b602082019050919050565b7f4572726f72532121000000000000000000000000000000000000000000000000600082015250565b6000620004ad60088362000358565b9150620004ba8262000475565b602082019050919050565b60006040820190508181036000830152620004e0816200044e565b90508181036020830152620004f5816200049e565b905091905056fe608060405234801561001057600080fd5b506040516103b73803806103b7833981810160405281019061003291906102ae565b8160009080519060200190610048929190610057565b5080600181905550505061036a565b82805461006390610339565b90600052602060002090601f01602090048101928261008557600085556100cc565b82601f1061009e57805160ff19168380011785556100cc565b828001600101855582156100cc579182015b828111156100cb5782518255916020019190600101906100b0565b5b5090506100d991906100dd565b5090565b5b808211156100f65760008160009055506001016100de565b5090565b6000604051905090565b600080fd5b600080fd5b600080fd5b600080fd5b6000601f19601f8301169050919050565b7f4e487b7100000000000000000000000000000000000000000000000000000000600052604160045260246000fd5b61016182610118565b810181811067ffffffffffffffff821117156101805761017f610129565b5b80604052505050565b60006101936100fa565b905061019f8282610158565b919050565b600067ffffffffffffffff8211156101bf576101be610129565b5b6101c882610118565b9050602081019050919050565b60005b838110156101f35780820151818401526020810190506101d8565b83811115610202576000848401525b50505050565b600061021b610216846101a4565b610189565b90508281526020810184848401111561023757610236610113565b5b6102428482856101d5565b509392505050565b600082601f83011261025f5761025e61010e565b5b815161026f848260208601610208565b91505092915050565b6000819050919050565b61028b81610278565b811461029657600080fd5b50565b6000815190506102a881610282565b92915050565b600080604083850312156102c5576102c4610104565b5b600083015167ffffffffffffffff8111156102e3576102e2610109565b5b6102ef8582860161024a565b925050602061030085828601610299565b9150509250929050565b7f4e487b7100000000000000000000000000000000000000000000000000000000600052602260045260246000fd5b6000600282049050600182168061035157607f821691505b6020821081036103645761036361030a565b5b50919050565b603f806103786000396000f3fe6080604052600080fdfea2646970667358221220e9eb89b5f444cdd335310203a37bbab48669e0ed8cb73d95effd62556b7c1cf264736f6c634300080d0033a2646970667358221220dd2a027eee57b47af8f39cdcd8977de03944a90b860eb956fd52fe4c6ab7ebc664736f6c634300080d0033",
					"opcodes": "PUSH1 0x80 PUSH1 0x40 MSTORE CALLVALUE DUP1 ISZERO PUSH2 0x10 JUMPI PUSH1 0x0 DUP1 REVERT JUMPDEST POP PUSH2 0x8E9 DUP1 PUSH2 0x20 PUSH1 0x0 CODECOPY PUSH1 0x0 RETURN INVALID PUSH1 0x80 PUSH1 0x40 MSTORE CALLVALUE DUP1 ISZERO PUSH3 0x11 JUMPI PUSH1 0x0 DUP1 REVERT JUMPDEST POP PUSH1 0x4 CALLDATASIZE LT PUSH3 0x2E JUMPI PUSH1 0x0 CALLDATALOAD PUSH1 0xE0 SHR DUP1 PUSH4 0x447BCE4A EQ PUSH3 0x33 JUMPI JUMPDEST PUSH1 0x0 DUP1 REVERT JUMPDEST PUSH3 0x51 PUSH1 0x4 DUP1 CALLDATASIZE SUB DUP2 ADD SWAP1 PUSH3 0x4B SWAP2 SWAP1 PUSH3 0x2AD JUMP JUMPDEST PUSH3 0x69 JUMP JUMPDEST PUSH1 0x40 MLOAD PUSH3 0x60 SWAP2 SWAP1 PUSH3 0x330 JUMP JUMPDEST PUSH1 0x40 MLOAD DUP1 SWAP2 SUB SWAP1 RETURN JUMPDEST PUSH1 0x0 DUP3 DUP3 PUSH1 0x40 MLOAD PUSH3 0x7B SWAP1 PUSH3 0xEE JUMP JUMPDEST PUSH3 0x88 SWAP3 SWAP2 SWAP1 PUSH3 0x3F1 JUMP JUMPDEST PUSH1 0x40 MLOAD DUP1 SWAP2 SUB SWAP1 PUSH1 0x0 CREATE DUP1 ISZERO PUSH3 0x9C JUMPI PUSH1 0x1 JUMPDEST PUSH3 0xE2 JUMPI PUSH32 0xED1339D3B97ACA38A4BC95190B93AF9130BE96B54E1BC34CAA04B59819DECFA0 PUSH1 0x40 MLOAD PUSH3 0xD0 SWAP1 PUSH3 0x4C5 JUMP JUMPDEST PUSH1 0x40 MLOAD DUP1 SWAP2 SUB SWAP1 LOG1 PUSH1 0x0 SWAP1 POP PUSH3 0xE8 JUMP JUMPDEST POP PUSH1 0x1 SWAP1 POP JUMPDEST SWAP3 SWAP2 POP POP JUMP JUMPDEST PUSH2 0x3B7 DUP1 PUSH3 0x4FD DUP4 CODECOPY ADD SWAP1 JUMP JUMPDEST PUSH1 0x0 PUSH1 0x40 MLOAD SWAP1 POP SWAP1 JUMP JUMPDEST PUSH1 0x0 DUP1 REVERT JUMPDEST PUSH1 0x0 DUP1 REVERT JUMPDEST PUSH1 0x0 DUP1 REVERT JUMPDEST PUSH1 0x0 DUP1 REVERT JUMPDEST PUSH1 0x0 PUSH1 0x1F NOT PUSH1 0x1F DUP4 ADD AND SWAP1 POP SWAP2 SWAP1 POP JUMP JUMPDEST PUSH32 0x4E487B7100000000000000000000000000000000000000000000000000000000 PUSH1 0x0 MSTORE PUSH1 0x41 PUSH1 0x4 MSTORE PUSH1 0x24 PUSH1 0x0 REVERT JUMPDEST PUSH3 0x165 DUP3 PUSH3 0x11A JUMP JUMPDEST DUP2 ADD DUP2 DUP2 LT PUSH8 0xFFFFFFFFFFFFFFFF DUP3 GT OR ISZERO PUSH3 0x187 JUMPI PUSH3 0x186 PUSH3 0x12B JUMP JUMPDEST JUMPDEST DUP1 PUSH1 0x40 MSTORE POP POP POP JUMP JUMPDEST PUSH1 0x0 PUSH3 0x19C PUSH3 0xFC JUMP JUMPDEST SWAP1 POP PUSH3 0x1AA DUP3 DUP3 PUSH3 0x15A JUMP JUMPDEST SWAP2 SWAP1 POP JUMP JUMPDEST PUSH1 0x0 PUSH8 0xFFFFFFFFFFFFFFFF DUP3 GT ISZERO PUSH3 0x1CD JUMPI PUSH3 0x1CC PUSH3 0x12B JUMP JUMPDEST JUMPDEST PUSH3 0x1D8 DUP3 PUSH3 0x11A JUMP JUMPDEST SWAP1 POP PUSH1 0x20 DUP2 ADD SWAP1 POP SWAP2 SWAP1 POP JUMP JUMPDEST DUP3 DUP2 DUP4 CALLDATACOPY PUSH1 0x0 DUP4 DUP4 ADD MSTORE POP POP POP JUMP JUMPDEST PUSH1 0x0 PUSH3 0x20B PUSH3 0x205 DUP5 PUSH3 0x1AF JUMP JUMPDEST PUSH3 0x190 JUMP JUMPDEST SWAP1 POP DUP3 DUP2 MSTORE PUSH1 0x20 DUP2 ADD DUP5 DUP5 DUP5 ADD GT ISZERO PUSH3 0x22A JUMPI PUSH3 0x229 PUSH3 0x115 JUMP JUMPDEST JUMPDEST PUSH3 0x237 DUP5 DUP3 DUP6 PUSH3 0x1E5 JUMP JUMPDEST POP SWAP4 SWAP3 POP POP POP JUMP JUMPDEST PUSH1 0x0 DUP3 PUSH1 0x1F DUP4 ADD SLT PUSH3 0x257 JUMPI PUSH3 0x256 PUSH3 0x110 JUMP JUMPDEST JUMPDEST DUP2 CALLDATALOAD PUSH3 0x269 DUP5 DUP3 PUSH1 0x20 DUP7 ADD PUSH3 0x1F4 JUMP JUMPDEST SWAP2 POP POP SWAP3 SWAP2 POP POP JUMP JUMPDEST PUSH1 0x0 DUP2 SWAP1 POP SWAP2 SWAP1 POP JUMP JUMPDEST PUSH3 0x287 DUP2 PUSH3 0x272 JUMP JUMPDEST DUP2 EQ PUSH3 0x293 JUMPI PUSH1 0x0 DUP1 REVERT JUMPDEST POP JUMP JUMPDEST PUSH1 0x0 DUP2 CALLDATALOAD SWAP1 POP PUSH3 0x2A7 DUP2 PUSH3 0x27C JUMP JUMPDEST SWAP3 SWAP2 POP POP JUMP JUMPDEST PUSH1 0x0 DUP1 PUSH1 0x40 DUP4 DUP6 SUB SLT ISZERO PUSH3 0x2C7 JUMPI PUSH3 0x2C6 PUSH3 0x106 JUMP JUMPDEST JUMPDEST PUSH1 0x0 DUP4 ADD CALLDATALOAD PUSH8 0xFFFFFFFFFFFFFFFF DUP2 GT ISZERO PUSH3 0x2E8 JUMPI PUSH3 0x2E7 PUSH3 0x10B JUMP JUMPDEST JUMPDEST PUSH3 0x2F6 DUP6 DUP3 DUP7 ADD PUSH3 0x23F JUMP JUMPDEST SWAP3 POP POP PUSH1 0x20 PUSH3 0x309 DUP6 DUP3 DUP7 ADD PUSH3 0x296 JUMP JUMPDEST SWAP2 POP POP SWAP3 POP SWAP3 SWAP1 POP JUMP JUMPDEST PUSH1 0x0 DUP2 ISZERO ISZERO SWAP1 POP SWAP2 SWAP1 POP JUMP JUMPDEST PUSH3 0x32A DUP2 PUSH3 0x313 JUMP JUMPDEST DUP3 MSTORE POP POP JUMP JUMPDEST PUSH1 0x0 PUSH1 0x20 DUP3 ADD SWAP1 POP PUSH3 0x347 PUSH1 0x0 DUP4 ADD DUP5 PUSH3 0x31F JUMP JUMPDEST SWAP3 SWAP2 POP POP JUMP JUMPDEST PUSH1 0x0 DUP2 MLOAD SWAP1 POP SWAP2 SWAP1 POP JUMP JUMPDEST PUSH1 0x0 DUP3 DUP3 MSTORE PUSH1 0x20 DUP3 ADD SWAP1 POP SWAP3 SWAP2 POP POP JUMP JUMPDEST PUSH1 0x0 JUMPDEST DUP4 DUP2 LT ISZERO PUSH3 0x389 JUMPI DUP1 DUP3 ADD MLOAD DUP2 DUP5 ADD MSTORE PUSH1 0x20 DUP2 ADD SWAP1 POP PUSH3 0x36C JUMP JUMPDEST DUP4 DUP2 GT ISZERO PUSH3 0x399 JUMPI PUSH1 0x0 DUP5 DUP5 ADD MSTORE JUMPDEST POP POP POP POP JUMP JUMPDEST PUSH1 0x0 PUSH3 0x3AC DUP3 PUSH3 0x34D JUMP JUMPDEST PUSH3 0x3B8 DUP2 DUP6 PUSH3 0x358 JUMP JUMPDEST SWAP4 POP PUSH3 0x3CA DUP2 DUP6 PUSH1 0x20 DUP7 ADD PUSH3 0x369 JUMP JUMPDEST PUSH3 0x3D5 DUP2 PUSH3 0x11A JUMP JUMPDEST DUP5 ADD SWAP2 POP POP SWAP3 SWAP2 POP POP JUMP JUMPDEST PUSH3 0x3EB DUP2 PUSH3 0x272 JUMP JUMPDEST DUP3 MSTORE POP POP JUMP JUMPDEST PUSH1 0x0 PUSH1 0x40 DUP3 ADD SWAP1 POP DUP2 DUP2 SUB PUSH1 0x0 DUP4 ADD MSTORE PUSH3 0x40D DUP2 DUP6 PUSH3 0x39F JUMP JUMPDEST SWAP1 POP PUSH3 0x41E PUSH1 0x20 DUP4 ADD DUP5 PUSH3 0x3E0 JUMP JUMPDEST SWAP4 SWAP3 POP POP POP JUMP JUMPDEST PUSH32 0x6361746368000000000000000000000000000000000000000000000000000000 PUSH1 0x0 DUP3 ADD MSTORE POP JUMP JUMPDEST PUSH1 0x0 PUSH3 0x45D PUSH1 0x5 DUP4 PUSH3 0x358 JUMP JUMPDEST SWAP2 POP PUSH3 0x46A DUP3 PUSH3 0x425 JUMP JUMPDEST PUSH1 0x20 DUP3 ADD SWAP1 POP SWAP2 SWAP1 POP JUMP JUMPDEST PUSH32 0x4572726F72532121000000000000000000000000000000000000000000000000 PUSH1 0x0 DUP3 ADD MSTORE POP JUMP JUMPDEST PUSH1 0x0 PUSH3 0x4AD PUSH1 0x8 DUP4 PUSH3 0x358 JUMP JUMPDEST SWAP2 POP PUSH3 0x4BA DUP3 PUSH3 0x475 JUMP JUMPDEST PUSH1 0x20 DUP3 ADD SWAP1 POP SWAP2 SWAP1 POP JUMP JUMPDEST PUSH1 0x0 PUSH1 0x40 DUP3 ADD SWAP1 POP DUP2 DUP2 SUB PUSH1 0x0 DUP4 ADD MSTORE PUSH3 0x4E0 DUP2 PUSH3 0x44E JUMP JUMPDEST SWAP1 POP DUP2 DUP2 SUB PUSH1 0x20 DUP4 ADD MSTORE PUSH3 0x4F5 DUP2 PUSH3 0x49E JUMP JUMPDEST SWAP1 POP SWAP2 SWAP1 POP JUMP INVALID PUSH1 0x80 PUSH1 0x40 MSTORE CALLVALUE DUP1 ISZERO PUSH2 0x10 JUMPI PUSH1 0x0 DUP1 REVERT JUMPDEST POP PUSH1 0x40 MLOAD PUSH2 0x3B7 CODESIZE SUB DUP1 PUSH2 0x3B7 DUP4 CODECOPY DUP2 DUP2 ADD PUSH1 0x40 MSTORE DUP2 ADD SWAP1 PUSH2 0x32 SWAP2 SWAP1 PUSH2 0x2AE JUMP JUMPDEST DUP2 PUSH1 0x0 SWAP1 DUP1 MLOAD SWAP1 PUSH1 0x20 ADD SWAP1 PUSH2 0x48 SWAP3 SWAP2 SWAP1 PUSH2 0x57 JUMP JUMPDEST POP DUP1 PUSH1 0x1 DUP2 SWAP1 SSTORE POP POP POP PUSH2 0x36A JUMP JUMPDEST DUP3 DUP1 SLOAD PUSH2 0x63 SWAP1 PUSH2 0x339 JUMP JUMPDEST SWAP1 PUSH1 0x0 MSTORE PUSH1 0x20 PUSH1 0x0 KECCAK256 SWAP1 PUSH1 0x1F ADD PUSH1 0x20 SWAP1 DIV DUP2 ADD SWAP3 DUP3 PUSH2 0x85 JUMPI PUSH1 0x0 DUP6 SSTORE PUSH2 0xCC JUMP JUMPDEST DUP3 PUSH1 0x1F LT PUSH2 0x9E JUMPI DUP1 MLOAD PUSH1 0xFF NOT AND DUP4 DUP1 ADD OR DUP6 SSTORE PUSH2 0xCC JUMP JUMPDEST DUP3 DUP1 ADD PUSH1 0x1 ADD DUP6 SSTORE DUP3 ISZERO PUSH2 0xCC JUMPI SWAP2 DUP3 ADD JUMPDEST DUP3 DUP2 GT ISZERO PUSH2 0xCB JUMPI DUP3 MLOAD DUP3 SSTORE SWAP2 PUSH1 0x20 ADD SWAP2 SWAP1 PUSH1 0x1 ADD SWAP1 PUSH2 0xB0 JUMP JUMPDEST JUMPDEST POP SWAP1 POP PUSH2 0xD9 SWAP2 SWAP1 PUSH2 0xDD JUMP JUMPDEST POP SWAP1 JUMP JUMPDEST JUMPDEST DUP1 DUP3 GT ISZERO PUSH2 0xF6 JUMPI PUSH1 0x0 DUP2 PUSH1 0x0 SWAP1 SSTORE POP PUSH1 0x1 ADD PUSH2 0xDE JUMP JUMPDEST POP SWAP1 JUMP JUMPDEST PUSH1 0x0 PUSH1 0x40 MLOAD SWAP1 POP SWAP1 JUMP JUMPDEST PUSH1 0x0 DUP1 REVERT JUMPDEST PUSH1 0x0 DUP1 REVERT JUMPDEST PUSH1 0x0 DUP1 REVERT JUMPDEST PUSH1 0x0 DUP1 REVERT JUMPDEST PUSH1 0x0 PUSH1 0x1F NOT PUSH1 0x1F DUP4 ADD AND SWAP1 POP SWAP2 SWAP1 POP JUMP JUMPDEST PUSH32 0x4E487B7100000000000000000000000000000000000000000000000000000000 PUSH1 0x0 MSTORE PUSH1 0x41 PUSH1 0x4 MSTORE PUSH1 0x24 PUSH1 0x0 REVERT JUMPDEST PUSH2 0x161 DUP3 PUSH2 0x118 JUMP JUMPDEST DUP2 ADD DUP2 DUP2 LT PUSH8 0xFFFFFFFFFFFFFFFF DUP3 GT OR ISZERO PUSH2 0x180 JUMPI PUSH2 0x17F PUSH2 0x129 JUMP JUMPDEST JUMPDEST DUP1 PUSH1 0x40 MSTORE POP POP POP JUMP JUMPDEST PUSH1 0x0 PUSH2 0x193 PUSH2 0xFA JUMP JUMPDEST SWAP1 POP PUSH2 0x19F DUP3 DUP3 PUSH2 0x158 JUMP JUMPDEST SWAP2 SWAP1 POP JUMP JUMPDEST PUSH1 0x0 PUSH8 0xFFFFFFFFFFFFFFFF DUP3 GT ISZERO PUSH2 0x1BF JUMPI PUSH2 0x1BE PUSH2 0x129 JUMP JUMPDEST JUMPDEST PUSH2 0x1C8 DUP3 PUSH2 0x118 JUMP JUMPDEST SWAP1 POP PUSH1 0x20 DUP2 ADD SWAP1 POP SWAP2 SWAP1 POP JUMP JUMPDEST PUSH1 0x0 JUMPDEST DUP4 DUP2 LT ISZERO PUSH2 0x1F3 JUMPI DUP1 DUP3 ADD MLOAD DUP2 DUP5 ADD MSTORE PUSH1 0x20 DUP2 ADD SWAP1 POP PUSH2 0x1D8 JUMP JUMPDEST DUP4 DUP2 GT ISZERO PUSH2 0x202 JUMPI PUSH1 0x0 DUP5 DUP5 ADD MSTORE JUMPDEST POP POP POP POP JUMP JUMPDEST PUSH1 0x0 PUSH2 0x21B PUSH2 0x216 DUP5 PUSH2 0x1A4 JUMP JUMPDEST PUSH2 0x189 JUMP JUMPDEST SWAP1 POP DUP3 DUP2 MSTORE PUSH1 0x20 DUP2 ADD DUP5 DUP5 DUP5 ADD GT ISZERO PUSH2 0x237 JUMPI PUSH2 0x236 PUSH2 0x113 JUMP JUMPDEST JUMPDEST PUSH2 0x242 DUP5 DUP3 DUP6 PUSH2 0x1D5 JUMP JUMPDEST POP SWAP4 SWAP3 POP POP POP JUMP JUMPDEST PUSH1 0x0 DUP3 PUSH1 0x1F DUP4 ADD SLT PUSH2 0x25F JUMPI PUSH2 0x25E PUSH2 0x10E JUMP JUMPDEST JUMPDEST DUP2 MLOAD PUSH2 0x26F DUP5 DUP3 PUSH1 0x20 DUP7 ADD PUSH2 0x208 JUMP JUMPDEST SWAP2 POP POP SWAP3 SWAP2 POP POP JUMP JUMPDEST PUSH1 0x0 DUP2 SWAP1 POP SWAP2 SWAP1 POP JUMP JUMPDEST PUSH2 0x28B DUP2 PUSH2 0x278 JUMP JUMPDEST DUP2 EQ PUSH2 0x296 JUMPI PUSH1 0x0 DUP1 REVERT JUMPDEST POP JUMP JUMPDEST PUSH1 0x0 DUP2 MLOAD SWAP1 POP PUSH2 0x2A8 DUP2 PUSH2 0x282 JUMP JUMPDEST SWAP3 SWAP2 POP POP JUMP JUMPDEST PUSH1 0x0 DUP1 PUSH1 0x40 DUP4 DUP6 SUB SLT ISZERO PUSH2 0x2C5 JUMPI PUSH2 0x2C4 PUSH2 0x104 JUMP JUMPDEST JUMPDEST PUSH1 0x0 DUP4 ADD MLOAD PUSH8 0xFFFFFFFFFFFFFFFF DUP2 GT ISZERO PUSH2 0x2E3 JUMPI PUSH2 0x2E2 PUSH2 0x109 JUMP JUMPDEST JUMPDEST PUSH2 0x2EF DUP6 DUP3 DUP7 ADD PUSH2 0x24A JUMP JUMPDEST SWAP3 POP POP PUSH1 0x20 PUSH2 0x300 DUP6 DUP3 DUP7 ADD PUSH2 0x299 JUMP JUMPDEST SWAP2 POP POP SWAP3 POP SWAP3 SWAP1 POP JUMP JUMPDEST PUSH32 0x4E487B7100000000000000000000000000000000000000000000000000000000 PUSH1 0x0 MSTORE PUSH1 0x22 PUSH1 0x4 MSTORE PUSH1 0x24 PUSH1 0x0 REVERT JUMPDEST PUSH1 0x0 PUSH1 0x2 DUP3 DIV SWAP1 POP PUSH1 0x1 DUP3 AND DUP1 PUSH2 0x351 JUMPI PUSH1 0x7F DUP3 AND SWAP2 POP JUMPDEST PUSH1 0x20 DUP3 LT DUP2 SUB PUSH2 0x364 JUMPI PUSH2 0x363 PUSH2 0x30A JUMP JUMPDEST JUMPDEST POP SWAP2 SWAP1 POP JUMP JUMPDEST PUSH1 0x3F DUP1 PUSH2 0x378 PUSH1 0x0 CODECOPY PUSH1 0x0 RETURN INVALID PUSH1 0x80 PUSH1 0x40 MSTORE PUSH1 0x0 DUP1 REVERT INVALID LOG2 PUSH5 0x6970667358 0x22 SLT KECCAK256 0xE9 0xEB DUP10 0xB5 DELEGATECALL DIFFICULTY 0xCD 0xD3 CALLDATALOAD BALANCE MUL SUB LOG3 PUSH28 0xBAB48669E0ED8CB73D95EFFD62556B7C1CF264736F6C634300080D00 CALLER LOG2 PUSH5 0x6970667358 0x22 SLT KECCAK256 0xDD 0x2A MUL PUSH31 0xEE57B47AF8F39CDCD8977DE03944A90B860EB956FD52FE4C6AB7EBC664736F PUSH13 0x634300080D0033000000000000 "
				},
				"gasEstimates": {
					"creation": {
						"codeDepositCost": "456200",
						"executionCost": "493",
						"totalCost": "456693"
					},
					"external": {
						"playTryCatch(string,uint256)": "infinite"
					}
				},
				"methodIdentifiers": {
					"playTryCatch(string,uint256)": "447bce4a"
				}
			},
			"userdoc": {
				"kind": "user",
				"methods": {},
				"version": 1
			}
		}
	}
}