{
	"lecture/modifier.sol": {
		"modifierC": {
			"abi": [
				{
					"inputs": [],
					"name": "BuyCigarette",
					"outputs": [
						{
							"internalType": "string",
							"name": "",
							"type": "string"
						}
					],
					"stateMutability": "pure",
					"type": "function"
				},
				{
					"inputs": [
						{
							"internalType": "uint256",
							"name": "_age",
							"type": "uint256"
						}
					],
					"name": "BuyCigarette2",
					"outputs": [
						{
							"internalType": "string",
							"name": "",
							"type": "string"
						}
					],
					"stateMutability": "nonpayable",
					"type": "function"
				}
			],
			"devdoc": {
				"kind": "dev",
				"methods": {},
				"version": 1
			},
			"evm": {
				"assembly": "    /* \"lecture/modifier.sol\":74:633  contract modifierC {\r... */\n  mstore(0x40, 0x80)\n  callvalue\n  dup1\n  iszero\n  tag_1\n  jumpi\n  0x00\n  dup1\n  revert\ntag_1:\n  pop\n  dataSize(sub_0)\n  dup1\n  dataOffset(sub_0)\n  0x00\n  codecopy\n  0x00\n  return\nstop\n\nsub_0: assembly {\n        /* \"lecture/modifier.sol\":74:633  contract modifierC {\r... */\n      mstore(0x40, 0x80)\n      callvalue\n      dup1\n      iszero\n      tag_1\n      jumpi\n      0x00\n      dup1\n      revert\n    tag_1:\n      pop\n      jumpi(tag_2, lt(calldatasize, 0x04))\n      shr(0xe0, calldataload(0x00))\n      dup1\n      0x5b2706b6\n      eq\n      tag_3\n      jumpi\n      dup1\n      0x7128a088\n      eq\n      tag_4\n      jumpi\n    tag_2:\n      0x00\n      dup1\n      revert\n        /* \"lecture/modifier.sol\":221:343  function BuyCigarette() public pure onlyAdults returns(string memory){\r... */\n    tag_3:\n      tag_5\n      tag_6\n      jump\t// in\n    tag_5:\n      mload(0x40)\n      tag_7\n      swap2\n      swap1\n      tag_8\n      jump\t// in\n    tag_7:\n      mload(0x40)\n      dup1\n      swap2\n      sub\n      swap1\n      return\n        /* \"lecture/modifier.sol\":493:630  function BuyCigarette2(uint256 _age) public onlyAdults2(_age) returns(string memory){\r... */\n    tag_4:\n      tag_9\n      0x04\n      dup1\n      calldatasize\n      sub\n      dup2\n      add\n      swap1\n      tag_10\n      swap2\n      swap1\n      tag_11\n      jump\t// in\n    tag_10:\n      tag_12\n      jump\t// in\n    tag_9:\n      mload(0x40)\n      tag_13\n      swap2\n      swap1\n      tag_8\n      jump\t// in\n    tag_13:\n      mload(0x40)\n      dup1\n      swap2\n      sub\n      swap1\n      return\n        /* \"lecture/modifier.sol\":221:343  function BuyCigarette() public pure onlyAdults returns(string memory){\r... */\n    tag_6:\n        /* \"lecture/modifier.sol\":276:289  string memory */\n      0x60\n        /* \"lecture/modifier.sol\":133:187  revert(\"You are not allowed to pay for the cigarette\") */\n      mload(0x40)\n      0x08c379a000000000000000000000000000000000000000000000000000000000\n      dup2\n      mstore\n      0x04\n      add\n      tag_15\n      swap1\n      tag_16\n      jump\t// in\n    tag_15:\n      mload(0x40)\n      dup1\n      swap2\n      sub\n      swap1\n      revert\n        /* \"lecture/modifier.sol\":493:630  function BuyCigarette2(uint256 _age) public onlyAdults2(_age) returns(string memory){\r... */\n    tag_12:\n        /* \"lecture/modifier.sol\":563:576  string memory */\n      0x60\n        /* \"lecture/modifier.sol\":549:553  _age */\n      dup2\n        /* \"lecture/modifier.sol\":410:412  18 */\n      0x12\n        /* \"lecture/modifier.sol\":405:409  _age */\n      dup2\n        /* \"lecture/modifier.sol\":405:412  _age>18 */\n      gt\n        /* \"lecture/modifier.sol\":397:460  require(_age>18,\"You are not allowed to pay for the cigarette\") */\n      tag_19\n      jumpi\n      mload(0x40)\n      0x08c379a000000000000000000000000000000000000000000000000000000000\n      dup2\n      mstore\n      0x04\n      add\n      tag_20\n      swap1\n      tag_16\n      jump\t// in\n    tag_20:\n      mload(0x40)\n      dup1\n      swap2\n      sub\n      swap1\n      revert\n    tag_19:\n        /* \"lecture/modifier.sol\":588:622  return \"Your payment is succeeded\" */\n      mload(0x40)\n      dup1\n      0x40\n      add\n      0x40\n      mstore\n      dup1\n      0x19\n      dup2\n      mstore\n      0x20\n      add\n      0x596f7572207061796d656e742069732073756363656564656400000000000000\n      dup2\n      mstore\n      pop\n      swap2\n      pop\n        /* \"lecture/modifier.sol\":493:630  function BuyCigarette2(uint256 _age) public onlyAdults2(_age) returns(string memory){\r... */\n      pop\n      swap2\n      swap1\n      pop\n      jump\t// out\n        /* \"#utility.yul\":7:146   */\n    tag_23:\n        /* \"#utility.yul\":53:58   */\n      0x00\n        /* \"#utility.yul\":91:97   */\n      dup2\n        /* \"#utility.yul\":78:98   */\n      calldataload\n        /* \"#utility.yul\":69:98   */\n      swap1\n      pop\n        /* \"#utility.yul\":107:140   */\n      tag_25\n        /* \"#utility.yul\":134:139   */\n      dup2\n        /* \"#utility.yul\":107:140   */\n      tag_26\n      jump\t// in\n    tag_25:\n        /* \"#utility.yul\":7:146   */\n      swap3\n      swap2\n      pop\n      pop\n      jump\t// out\n        /* \"#utility.yul\":152:481   */\n    tag_11:\n        /* \"#utility.yul\":211:217   */\n      0x00\n        /* \"#utility.yul\":260:262   */\n      0x20\n        /* \"#utility.yul\":248:257   */\n      dup3\n        /* \"#utility.yul\":239:246   */\n      dup5\n        /* \"#utility.yul\":235:258   */\n      sub\n        /* \"#utility.yul\":231:263   */\n      slt\n        /* \"#utility.yul\":228:347   */\n      iszero\n      tag_28\n      jumpi\n        /* \"#utility.yul\":266:345   */\n      tag_29\n      tag_30\n      jump\t// in\n    tag_29:\n        /* \"#utility.yul\":228:347   */\n    tag_28:\n        /* \"#utility.yul\":386:387   */\n      0x00\n        /* \"#utility.yul\":411:464   */\n      tag_31\n        /* \"#utility.yul\":456:463   */\n      dup5\n        /* \"#utility.yul\":447:453   */\n      dup3\n        /* \"#utility.yul\":436:445   */\n      dup6\n        /* \"#utility.yul\":432:454   */\n      add\n        /* \"#utility.yul\":411:464   */\n      tag_23\n      jump\t// in\n    tag_31:\n        /* \"#utility.yul\":401:464   */\n      swap2\n      pop\n        /* \"#utility.yul\":357:474   */\n      pop\n        /* \"#utility.yul\":152:481   */\n      swap3\n      swap2\n      pop\n      pop\n      jump\t// out\n        /* \"#utility.yul\":487:851   */\n    tag_32:\n        /* \"#utility.yul\":575:578   */\n      0x00\n        /* \"#utility.yul\":603:642   */\n      tag_34\n        /* \"#utility.yul\":636:641   */\n      dup3\n        /* \"#utility.yul\":603:642   */\n      tag_35\n      jump\t// in\n    tag_34:\n        /* \"#utility.yul\":658:729   */\n      tag_36\n        /* \"#utility.yul\":722:728   */\n      dup2\n        /* \"#utility.yul\":717:720   */\n      dup6\n        /* \"#utility.yul\":658:729   */\n      tag_37\n      jump\t// in\n    tag_36:\n        /* \"#utility.yul\":651:729   */\n      swap4\n      pop\n        /* \"#utility.yul\":738:790   */\n      tag_38\n        /* \"#utility.yul\":783:789   */\n      dup2\n        /* \"#utility.yul\":778:781   */\n      dup6\n        /* \"#utility.yul\":771:775   */\n      0x20\n        /* \"#utility.yul\":764:769   */\n      dup7\n        /* \"#utility.yul\":760:776   */\n      add\n        /* \"#utility.yul\":738:790   */\n      tag_39\n      jump\t// in\n    tag_38:\n        /* \"#utility.yul\":815:844   */\n      tag_40\n        /* \"#utility.yul\":837:843   */\n      dup2\n        /* \"#utility.yul\":815:844   */\n      tag_41\n      jump\t// in\n    tag_40:\n        /* \"#utility.yul\":810:813   */\n      dup5\n        /* \"#utility.yul\":806:845   */\n      add\n        /* \"#utility.yul\":799:845   */\n      swap2\n      pop\n        /* \"#utility.yul\":579:851   */\n      pop\n        /* \"#utility.yul\":487:851   */\n      swap3\n      swap2\n      pop\n      pop\n      jump\t// out\n        /* \"#utility.yul\":857:1223   */\n    tag_42:\n        /* \"#utility.yul\":999:1002   */\n      0x00\n        /* \"#utility.yul\":1020:1087   */\n      tag_44\n        /* \"#utility.yul\":1084:1086   */\n      0x2c\n        /* \"#utility.yul\":1079:1082   */\n      dup4\n        /* \"#utility.yul\":1020:1087   */\n      tag_37\n      jump\t// in\n    tag_44:\n        /* \"#utility.yul\":1013:1087   */\n      swap2\n      pop\n        /* \"#utility.yul\":1096:1189   */\n      tag_45\n        /* \"#utility.yul\":1185:1188   */\n      dup3\n        /* \"#utility.yul\":1096:1189   */\n      tag_46\n      jump\t// in\n    tag_45:\n        /* \"#utility.yul\":1214:1216   */\n      0x40\n        /* \"#utility.yul\":1209:1212   */\n      dup3\n        /* \"#utility.yul\":1205:1217   */\n      add\n        /* \"#utility.yul\":1198:1217   */\n      swap1\n      pop\n        /* \"#utility.yul\":857:1223   */\n      swap2\n      swap1\n      pop\n      jump\t// out\n        /* \"#utility.yul\":1229:1542   */\n    tag_8:\n        /* \"#utility.yul\":1342:1346   */\n      0x00\n        /* \"#utility.yul\":1380:1382   */\n      0x20\n        /* \"#utility.yul\":1369:1378   */\n      dup3\n        /* \"#utility.yul\":1365:1383   */\n      add\n        /* \"#utility.yul\":1357:1383   */\n      swap1\n      pop\n        /* \"#utility.yul\":1429:1438   */\n      dup2\n        /* \"#utility.yul\":1423:1427   */\n      dup2\n        /* \"#utility.yul\":1419:1439   */\n      sub\n        /* \"#utility.yul\":1415:1416   */\n      0x00\n        /* \"#utility.yul\":1404:1413   */\n      dup4\n        /* \"#utility.yul\":1400:1417   */\n      add\n        /* \"#utility.yul\":1393:1440   */\n      mstore\n        /* \"#utility.yul\":1457:1535   */\n      tag_48\n        /* \"#utility.yul\":1530:1534   */\n      dup2\n        /* \"#utility.yul\":1521:1527   */\n      dup5\n        /* \"#utility.yul\":1457:1535   */\n      tag_32\n      jump\t// in\n    tag_48:\n        /* \"#utility.yul\":1449:1535   */\n      swap1\n      pop\n        /* \"#utility.yul\":1229:1542   */\n      swap3\n      swap2\n      pop\n      pop\n      jump\t// out\n        /* \"#utility.yul\":1548:1967   */\n    tag_16:\n        /* \"#utility.yul\":1714:1718   */\n      0x00\n        /* \"#utility.yul\":1752:1754   */\n      0x20\n        /* \"#utility.yul\":1741:1750   */\n      dup3\n        /* \"#utility.yul\":1737:1755   */\n      add\n        /* \"#utility.yul\":1729:1755   */\n      swap1\n      pop\n        /* \"#utility.yul\":1801:1810   */\n      dup2\n        /* \"#utility.yul\":1795:1799   */\n      dup2\n        /* \"#utility.yul\":1791:1811   */\n      sub\n        /* \"#utility.yul\":1787:1788   */\n      0x00\n        /* \"#utility.yul\":1776:1785   */\n      dup4\n        /* \"#utility.yul\":1772:1789   */\n      add\n        /* \"#utility.yul\":1765:1812   */\n      mstore\n        /* \"#utility.yul\":1829:1960   */\n      tag_50\n        /* \"#utility.yul\":1955:1959   */\n      dup2\n        /* \"#utility.yul\":1829:1960   */\n      tag_42\n      jump\t// in\n    tag_50:\n        /* \"#utility.yul\":1821:1960   */\n      swap1\n      pop\n        /* \"#utility.yul\":1548:1967   */\n      swap2\n      swap1\n      pop\n      jump\t// out\n        /* \"#utility.yul\":2054:2153   */\n    tag_35:\n        /* \"#utility.yul\":2106:2112   */\n      0x00\n        /* \"#utility.yul\":2140:2145   */\n      dup2\n        /* \"#utility.yul\":2134:2146   */\n      mload\n        /* \"#utility.yul\":2124:2146   */\n      swap1\n      pop\n        /* \"#utility.yul\":2054:2153   */\n      swap2\n      swap1\n      pop\n      jump\t// out\n        /* \"#utility.yul\":2159:2328   */\n    tag_37:\n        /* \"#utility.yul\":2243:2254   */\n      0x00\n        /* \"#utility.yul\":2277:2283   */\n      dup3\n        /* \"#utility.yul\":2272:2275   */\n      dup3\n        /* \"#utility.yul\":2265:2284   */\n      mstore\n        /* \"#utility.yul\":2317:2321   */\n      0x20\n        /* \"#utility.yul\":2312:2315   */\n      dup3\n        /* \"#utility.yul\":2308:2322   */\n      add\n        /* \"#utility.yul\":2293:2322   */\n      swap1\n      pop\n        /* \"#utility.yul\":2159:2328   */\n      swap3\n      swap2\n      pop\n      pop\n      jump\t// out\n        /* \"#utility.yul\":2334:2411   */\n    tag_55:\n        /* \"#utility.yul\":2371:2378   */\n      0x00\n        /* \"#utility.yul\":2400:2405   */\n      dup2\n        /* \"#utility.yul\":2389:2405   */\n      swap1\n      pop\n        /* \"#utility.yul\":2334:2411   */\n      swap2\n      swap1\n      pop\n      jump\t// out\n        /* \"#utility.yul\":2417:2724   */\n    tag_39:\n        /* \"#utility.yul\":2485:2486   */\n      0x00\n        /* \"#utility.yul\":2495:2608   */\n    tag_58:\n        /* \"#utility.yul\":2509:2515   */\n      dup4\n        /* \"#utility.yul\":2506:2507   */\n      dup2\n        /* \"#utility.yul\":2503:2516   */\n      lt\n        /* \"#utility.yul\":2495:2608   */\n      iszero\n      tag_60\n      jumpi\n        /* \"#utility.yul\":2594:2595   */\n      dup1\n        /* \"#utility.yul\":2589:2592   */\n      dup3\n        /* \"#utility.yul\":2585:2596   */\n      add\n        /* \"#utility.yul\":2579:2597   */\n      mload\n        /* \"#utility.yul\":2575:2576   */\n      dup2\n        /* \"#utility.yul\":2570:2573   */\n      dup5\n        /* \"#utility.yul\":2566:2577   */\n      add\n        /* \"#utility.yul\":2559:2598   */\n      mstore\n        /* \"#utility.yul\":2531:2533   */\n      0x20\n        /* \"#utility.yul\":2528:2529   */\n      dup2\n        /* \"#utility.yul\":2524:2534   */\n      add\n        /* \"#utility.yul\":2519:2534   */\n      swap1\n      pop\n        /* \"#utility.yul\":2495:2608   */\n      jump(tag_58)\n    tag_60:\n        /* \"#utility.yul\":2626:2632   */\n      dup4\n        /* \"#utility.yul\":2623:2624   */\n      dup2\n        /* \"#utility.yul\":2620:2633   */\n      gt\n        /* \"#utility.yul\":2617:2718   */\n      iszero\n      tag_61\n      jumpi\n        /* \"#utility.yul\":2706:2707   */\n      0x00\n        /* \"#utility.yul\":2697:2703   */\n      dup5\n        /* \"#utility.yul\":2692:2695   */\n      dup5\n        /* \"#utility.yul\":2688:2704   */\n      add\n        /* \"#utility.yul\":2681:2708   */\n      mstore\n        /* \"#utility.yul\":2617:2718   */\n    tag_61:\n        /* \"#utility.yul\":2466:2724   */\n      pop\n        /* \"#utility.yul\":2417:2724   */\n      pop\n      pop\n      pop\n      jump\t// out\n        /* \"#utility.yul\":2853:2970   */\n    tag_30:\n        /* \"#utility.yul\":2962:2963   */\n      0x00\n        /* \"#utility.yul\":2959:2960   */\n      dup1\n        /* \"#utility.yul\":2952:2964   */\n      revert\n        /* \"#utility.yul\":2976:3078   */\n    tag_41:\n        /* \"#utility.yul\":3017:3023   */\n      0x00\n        /* \"#utility.yul\":3068:3070   */\n      0x1f\n        /* \"#utility.yul\":3064:3071   */\n      not\n        /* \"#utility.yul\":3059:3061   */\n      0x1f\n        /* \"#utility.yul\":3052:3057   */\n      dup4\n        /* \"#utility.yul\":3048:3062   */\n      add\n        /* \"#utility.yul\":3044:3072   */\n      and\n        /* \"#utility.yul\":3034:3072   */\n      swap1\n      pop\n        /* \"#utility.yul\":2976:3078   */\n      swap2\n      swap1\n      pop\n      jump\t// out\n        /* \"#utility.yul\":3084:3315   */\n    tag_46:\n        /* \"#utility.yul\":3224:3258   */\n      0x596f7520617265206e6f7420616c6c6f77656420746f2070617920666f722074\n        /* \"#utility.yul\":3220:3221   */\n      0x00\n        /* \"#utility.yul\":3212:3218   */\n      dup3\n        /* \"#utility.yul\":3208:3222   */\n      add\n        /* \"#utility.yul\":3201:3259   */\n      mstore\n        /* \"#utility.yul\":3293:3307   */\n      0x6865206369676172657474650000000000000000000000000000000000000000\n        /* \"#utility.yul\":3288:3290   */\n      0x20\n        /* \"#utility.yul\":3280:3286   */\n      dup3\n        /* \"#utility.yul\":3276:3291   */\n      add\n        /* \"#utility.yul\":3269:3308   */\n      mstore\n        /* \"#utility.yul\":3084:3315   */\n      pop\n      jump\t// out\n        /* \"#utility.yul\":3321:3443   */\n    tag_26:\n        /* \"#utility.yul\":3394:3418   */\n      tag_68\n        /* \"#utility.yul\":3412:3417   */\n      dup2\n        /* \"#utility.yul\":3394:3418   */\n      tag_55\n      jump\t// in\n    tag_68:\n        /* \"#utility.yul\":3387:3392   */\n      dup2\n        /* \"#utility.yul\":3384:3419   */\n      eq\n        /* \"#utility.yul\":3374:3437   */\n      tag_69\n      jumpi\n        /* \"#utility.yul\":3433:3434   */\n      0x00\n        /* \"#utility.yul\":3430:3431   */\n      dup1\n        /* \"#utility.yul\":3423:3435   */\n      revert\n        /* \"#utility.yul\":3374:3437   */\n    tag_69:\n        /* \"#utility.yul\":3321:3443   */\n      pop\n      jump\t// out\n\n    auxdata: 0xa264697066735822122034515e1ef6c3b85166d33e5aa5a0d5e8c65e63889689a56d0c06482932da4fb764736f6c63430008070033\n}\n",
				"bytecode": {
					"linkReferences": {},
					"object": "608060405234801561001057600080fd5b50610335806100206000396000f3fe608060405234801561001057600080fd5b50600436106100365760003560e01c80635b2706b61461003b5780637128a08814610059575b600080fd5b610043610089565b60405161005091906101e8565b60405180910390f35b610073600480360381019061006e919061015f565b6100c6565b60405161008091906101e8565b60405180910390f35b60606040517f08c379a00000000000000000000000000000000000000000000000000000000081526004016100bd9061020a565b60405180910390fd5b6060816012811161010c576040517f08c379a00000000000000000000000000000000000000000000000000000000081526004016101039061020a565b60405180910390fd5b6040518060400160405280601981526020017f596f7572207061796d656e742069732073756363656564656400000000000000815250915050919050565b600081359050610159816102e8565b92915050565b60006020828403121561017557610174610283565b5b60006101838482850161014a565b91505092915050565b60006101978261022a565b6101a18185610235565b93506101b1818560208601610250565b6101ba81610288565b840191505092915050565b60006101d2602c83610235565b91506101dd82610299565b604082019050919050565b60006020820190508181036000830152610202818461018c565b905092915050565b60006020820190508181036000830152610223816101c5565b9050919050565b600081519050919050565b600082825260208201905092915050565b6000819050919050565b60005b8381101561026e578082015181840152602081019050610253565b8381111561027d576000848401525b50505050565b600080fd5b6000601f19601f8301169050919050565b7f596f7520617265206e6f7420616c6c6f77656420746f2070617920666f72207460008201527f6865206369676172657474650000000000000000000000000000000000000000602082015250565b6102f181610246565b81146102fc57600080fd5b5056fea264697066735822122034515e1ef6c3b85166d33e5aa5a0d5e8c65e63889689a56d0c06482932da4fb764736f6c63430008070033",
					"opcodes": "PUSH1 0x80 PUSH1 0x40 MSTORE CALLVALUE DUP1 ISZERO PUSH2 0x10 JUMPI PUSH1 0x0 DUP1 REVERT JUMPDEST POP PUSH2 0x335 DUP1 PUSH2 0x20 PUSH1 0x0 CODECOPY PUSH1 0x0 RETURN INVALID PUSH1 0x80 PUSH1 0x40 MSTORE CALLVALUE DUP1 ISZERO PUSH2 0x10 JUMPI PUSH1 0x0 DUP1 REVERT JUMPDEST POP PUSH1 0x4 CALLDATASIZE LT PUSH2 0x36 JUMPI PUSH1 0x0 CALLDATALOAD PUSH1 0xE0 SHR DUP1 PUSH4 0x5B2706B6 EQ PUSH2 0x3B JUMPI DUP1 PUSH4 0x7128A088 EQ PUSH2 0x59 JUMPI JUMPDEST PUSH1 0x0 DUP1 REVERT JUMPDEST PUSH2 0x43 PUSH2 0x89 JUMP JUMPDEST PUSH1 0x40 MLOAD PUSH2 0x50 SWAP2 SWAP1 PUSH2 0x1E8 JUMP JUMPDEST PUSH1 0x40 MLOAD DUP1 SWAP2 SUB SWAP1 RETURN JUMPDEST PUSH2 0x73 PUSH1 0x4 DUP1 CALLDATASIZE SUB DUP2 ADD SWAP1 PUSH2 0x6E SWAP2 SWAP1 PUSH2 0x15F JUMP JUMPDEST PUSH2 0xC6 JUMP JUMPDEST PUSH1 0x40 MLOAD PUSH2 0x80 SWAP2 SWAP1 PUSH2 0x1E8 JUMP JUMPDEST PUSH1 0x40 MLOAD DUP1 SWAP2 SUB SWAP1 RETURN JUMPDEST PUSH1 0x60 PUSH1 0x40 MLOAD PUSH32 0x8C379A000000000000000000000000000000000000000000000000000000000 DUP2 MSTORE PUSH1 0x4 ADD PUSH2 0xBD SWAP1 PUSH2 0x20A JUMP JUMPDEST PUSH1 0x40 MLOAD DUP1 SWAP2 SUB SWAP1 REVERT JUMPDEST PUSH1 0x60 DUP2 PUSH1 0x12 DUP2 GT PUSH2 0x10C JUMPI PUSH1 0x40 MLOAD PUSH32 0x8C379A000000000000000000000000000000000000000000000000000000000 DUP2 MSTORE PUSH1 0x4 ADD PUSH2 0x103 SWAP1 PUSH2 0x20A JUMP JUMPDEST PUSH1 0x40 MLOAD DUP1 SWAP2 SUB SWAP1 REVERT JUMPDEST PUSH1 0x40 MLOAD DUP1 PUSH1 0x40 ADD PUSH1 0x40 MSTORE DUP1 PUSH1 0x19 DUP2 MSTORE PUSH1 0x20 ADD PUSH32 0x596F7572207061796D656E742069732073756363656564656400000000000000 DUP2 MSTORE POP SWAP2 POP POP SWAP2 SWAP1 POP JUMP JUMPDEST PUSH1 0x0 DUP2 CALLDATALOAD SWAP1 POP PUSH2 0x159 DUP2 PUSH2 0x2E8 JUMP JUMPDEST SWAP3 SWAP2 POP POP JUMP JUMPDEST PUSH1 0x0 PUSH1 0x20 DUP3 DUP5 SUB SLT ISZERO PUSH2 0x175 JUMPI PUSH2 0x174 PUSH2 0x283 JUMP JUMPDEST JUMPDEST PUSH1 0x0 PUSH2 0x183 DUP5 DUP3 DUP6 ADD PUSH2 0x14A JUMP JUMPDEST SWAP2 POP POP SWAP3 SWAP2 POP POP JUMP JUMPDEST PUSH1 0x0 PUSH2 0x197 DUP3 PUSH2 0x22A JUMP JUMPDEST PUSH2 0x1A1 DUP2 DUP6 PUSH2 0x235 JUMP JUMPDEST SWAP4 POP PUSH2 0x1B1 DUP2 DUP6 PUSH1 0x20 DUP7 ADD PUSH2 0x250 JUMP JUMPDEST PUSH2 0x1BA DUP2 PUSH2 0x288 JUMP JUMPDEST DUP5 ADD SWAP2 POP POP SWAP3 SWAP2 POP POP JUMP JUMPDEST PUSH1 0x0 PUSH2 0x1D2 PUSH1 0x2C DUP4 PUSH2 0x235 JUMP JUMPDEST SWAP2 POP PUSH2 0x1DD DUP3 PUSH2 0x299 JUMP JUMPDEST PUSH1 0x40 DUP3 ADD SWAP1 POP SWAP2 SWAP1 POP JUMP JUMPDEST PUSH1 0x0 PUSH1 0x20 DUP3 ADD SWAP1 POP DUP2 DUP2 SUB PUSH1 0x0 DUP4 ADD MSTORE PUSH2 0x202 DUP2 DUP5 PUSH2 0x18C JUMP JUMPDEST SWAP1 POP SWAP3 SWAP2 POP POP JUMP JUMPDEST PUSH1 0x0 PUSH1 0x20 DUP3 ADD SWAP1 POP DUP2 DUP2 SUB PUSH1 0x0 DUP4 ADD MSTORE PUSH2 0x223 DUP2 PUSH2 0x1C5 JUMP JUMPDEST SWAP1 POP SWAP2 SWAP1 POP JUMP JUMPDEST PUSH1 0x0 DUP2 MLOAD SWAP1 POP SWAP2 SWAP1 POP JUMP JUMPDEST PUSH1 0x0 DUP3 DUP3 MSTORE PUSH1 0x20 DUP3 ADD SWAP1 POP SWAP3 SWAP2 POP POP JUMP JUMPDEST PUSH1 0x0 DUP2 SWAP1 POP SWAP2 SWAP1 POP JUMP JUMPDEST PUSH1 0x0 JUMPDEST DUP4 DUP2 LT ISZERO PUSH2 0x26E JUMPI DUP1 DUP3 ADD MLOAD DUP2 DUP5 ADD MSTORE PUSH1 0x20 DUP2 ADD SWAP1 POP PUSH2 0x253 JUMP JUMPDEST DUP4 DUP2 GT ISZERO PUSH2 0x27D JUMPI PUSH1 0x0 DUP5 DUP5 ADD MSTORE JUMPDEST POP POP POP POP JUMP JUMPDEST PUSH1 0x0 DUP1 REVERT JUMPDEST PUSH1 0x0 PUSH1 0x1F NOT PUSH1 0x1F DUP4 ADD AND SWAP1 POP SWAP2 SWAP1 POP JUMP JUMPDEST PUSH32 0x596F7520617265206E6F7420616C6C6F77656420746F2070617920666F722074 PUSH1 0x0 DUP3 ADD MSTORE PUSH32 0x6865206369676172657474650000000000000000000000000000000000000000 PUSH1 0x20 DUP3 ADD MSTORE POP JUMP JUMPDEST PUSH2 0x2F1 DUP2 PUSH2 0x246 JUMP JUMPDEST DUP2 EQ PUSH2 0x2FC JUMPI PUSH1 0x0 DUP1 REVERT JUMPDEST POP JUMP INVALID LOG2 PUSH5 0x6970667358 0x22 SLT KECCAK256 CALLVALUE MLOAD 0x5E 0x1E 0xF6 0xC3 0xB8 MLOAD PUSH7 0xD33E5AA5A0D5E8 0xC6 0x5E PUSH4 0x889689A5 PUSH14 0xC06482932DA4FB764736F6C6343 STOP ADDMOD SMOD STOP CALLER "
				},
				"gasEstimates": {
					"creation": {
						"codeDepositCost": "164200",
						"executionCost": "208",
						"totalCost": "164408"
					},
					"external": {
						"BuyCigarette()": "433",
						"BuyCigarette2(uint256)": "infinite"
					}
				},
				"methodIdentifiers": {
					"BuyCigarette()": "5b2706b6",
					"BuyCigarette2(uint256)": "7128a088"
				}
			},
			"userdoc": {
				"kind": "user",
				"methods": {},
				"version": 1
			}
		}
	}
}