{
	"lecture/modifier.sol": {
		"modifierC": {
			"abi": [
				{
					"inputs": [],
					"name": "BuyCigarette",
					"outputs": [
						{
							"internalType": "string",
							"name": "",
							"type": "string"
						}
					],
					"stateMutability": "pure",
					"type": "function"
				},
				{
					"inputs": [
						{
							"internalType": "uint256",
							"name": "_age",
							"type": "uint256"
						}
					],
					"name": "BuyCigarette2",
					"outputs": [
						{
							"internalType": "string",
							"name": "",
							"type": "string"
						}
					],
					"stateMutability": "pure",
					"type": "function"
				},
				{
					"inputs": [],
					"name": "num",
					"outputs": [
						{
							"internalType": "uint256",
							"name": "",
							"type": "uint256"
						}
					],
					"stateMutability": "view",
					"type": "function"
				},
				{
					"inputs": [],
					"name": "numChangeFunction",
					"outputs": [],
					"stateMutability": "nonpayable",
					"type": "function"
				}
			],
			"devdoc": {
				"kind": "dev",
				"methods": {},
				"version": 1
			},
			"evm": {
				"assembly": "    /* \"lecture/modifier.sol\":74:833  contract modifierC {\r... */\n  mstore(0x40, 0x80)\n    /* \"lecture/modifier.sol\":674:675  5 */\n  0x05\n    /* \"lecture/modifier.sol\":653:675  uint256 public num = 5 */\n  0x00\n  sstore\n    /* \"lecture/modifier.sol\":74:833  contract modifierC {\r... */\n  callvalue\n  dup1\n  iszero\n  tag_1\n  jumpi\n  0x00\n  dup1\n  revert\ntag_1:\n  pop\n  dataSize(sub_0)\n  dup1\n  dataOffset(sub_0)\n  0x00\n  codecopy\n  0x00\n  return\nstop\n\nsub_0: assembly {\n        /* \"lecture/modifier.sol\":74:833  contract modifierC {\r... */\n      mstore(0x40, 0x80)\n      callvalue\n      dup1\n      iszero\n      tag_1\n      jumpi\n      0x00\n      dup1\n      revert\n    tag_1:\n      pop\n      jumpi(tag_2, lt(calldatasize, 0x04))\n      shr(0xe0, calldataload(0x00))\n      dup1\n      0x32a61695\n      eq\n      tag_3\n      jumpi\n      dup1\n      0x4e70b1dc\n      eq\n      tag_4\n      jumpi\n      dup1\n      0x5b2706b6\n      eq\n      tag_5\n      jumpi\n      dup1\n      0x7128a088\n      eq\n      tag_6\n      jumpi\n    tag_2:\n      0x00\n      dup1\n      revert\n        /* \"lecture/modifier.sol\":758:830  function numChangeFunction() public numChange{\r... */\n    tag_3:\n      tag_7\n      tag_8\n      jump\t// in\n    tag_7:\n      stop\n        /* \"lecture/modifier.sol\":653:675  uint256 public num = 5 */\n    tag_4:\n      tag_9\n      tag_10\n      jump\t// in\n    tag_9:\n      mload(0x40)\n      tag_11\n      swap2\n      swap1\n      tag_12\n      jump\t// in\n    tag_11:\n      mload(0x40)\n      dup1\n      swap2\n      sub\n      swap1\n      return\n        /* \"lecture/modifier.sol\":223:347  function BuyCigarette() public pure onlyAdults() returns(string memory){\r... */\n    tag_5:\n      tag_13\n      tag_14\n      jump\t// in\n    tag_13:\n      mload(0x40)\n      tag_15\n      swap2\n      swap1\n      tag_16\n      jump\t// in\n    tag_15:\n      mload(0x40)\n      dup1\n      swap2\n      sub\n      swap1\n      return\n        /* \"lecture/modifier.sol\":497:639  function BuyCigarette2(uint256 _age) public pure onlyAdults2(_age) returns(string memory){\r... */\n    tag_6:\n      tag_17\n      0x04\n      dup1\n      calldatasize\n      sub\n      dup2\n      add\n      swap1\n      tag_18\n      swap2\n      swap1\n      tag_19\n      jump\t// in\n    tag_18:\n      tag_20\n      jump\t// in\n    tag_17:\n      mload(0x40)\n      tag_21\n      swap2\n      swap1\n      tag_16\n      jump\t// in\n    tag_21:\n      mload(0x40)\n      dup1\n      swap2\n      sub\n      swap1\n      return\n        /* \"lecture/modifier.sol\":758:830  function numChangeFunction() public numChange{\r... */\n    tag_8:\n        /* \"lecture/modifier.sol\":820:822  15 */\n      0x0f\n        /* \"lecture/modifier.sol\":814:817  num */\n      0x00\n        /* \"lecture/modifier.sol\":814:822  num = 15 */\n      dup2\n      swap1\n      sstore\n      pop\n        /* \"lecture/modifier.sol\":732:734  10 */\n      0x0a\n        /* \"lecture/modifier.sol\":726:729  num */\n      0x00\n        /* \"lecture/modifier.sol\":726:734  num = 10 */\n      dup2\n      swap1\n      sstore\n      pop\n        /* \"lecture/modifier.sol\":758:830  function numChangeFunction() public numChange{\r... */\n      jump\t// out\n        /* \"lecture/modifier.sol\":653:675  uint256 public num = 5 */\n    tag_10:\n      sload(0x00)\n      dup2\n      jump\t// out\n        /* \"lecture/modifier.sol\":223:347  function BuyCigarette() public pure onlyAdults() returns(string memory){\r... */\n    tag_14:\n        /* \"lecture/modifier.sol\":280:293  string memory */\n      0x60\n        /* \"lecture/modifier.sol\":305:339  return \"Your payment is succeeded\" */\n      mload(0x40)\n      dup1\n      0x40\n      add\n      0x40\n      mstore\n      dup1\n      0x19\n      dup2\n      mstore\n      0x20\n      add\n      0x596f7572207061796d656e742069732073756363656564656400000000000000\n      dup2\n      mstore\n      pop\n      swap1\n      pop\n        /* \"lecture/modifier.sol\":148:202  revert(\"You are not allowed to pay for the cigarette\") */\n      mload(0x40)\n      0x08c379a000000000000000000000000000000000000000000000000000000000\n      dup2\n      mstore\n      0x04\n      add\n      tag_26\n      swap1\n      tag_27\n      jump\t// in\n    tag_26:\n      mload(0x40)\n      dup1\n      swap2\n      sub\n      swap1\n      revert\n        /* \"lecture/modifier.sol\":497:639  function BuyCigarette2(uint256 _age) public pure onlyAdults2(_age) returns(string memory){\r... */\n    tag_20:\n        /* \"lecture/modifier.sol\":572:585  string memory */\n      0x60\n        /* \"lecture/modifier.sol\":558:562  _age */\n      dup2\n        /* \"lecture/modifier.sol\":414:416  18 */\n      0x12\n        /* \"lecture/modifier.sol\":409:413  _age */\n      dup2\n        /* \"lecture/modifier.sol\":409:416  _age>18 */\n      gt\n        /* \"lecture/modifier.sol\":401:464  require(_age>18,\"You are not allowed to pay for the cigarette\") */\n      tag_29\n      jumpi\n      mload(0x40)\n      0x08c379a000000000000000000000000000000000000000000000000000000000\n      dup2\n      mstore\n      0x04\n      add\n      tag_30\n      swap1\n      tag_27\n      jump\t// in\n    tag_30:\n      mload(0x40)\n      dup1\n      swap2\n      sub\n      swap1\n      revert\n    tag_29:\n        /* \"lecture/modifier.sol\":597:631  return \"Your payment is succeeded\" */\n      mload(0x40)\n      dup1\n      0x40\n      add\n      0x40\n      mstore\n      dup1\n      0x19\n      dup2\n      mstore\n      0x20\n      add\n      0x596f7572207061796d656e742069732073756363656564656400000000000000\n      dup2\n      mstore\n      pop\n      swap2\n      pop\n        /* \"lecture/modifier.sol\":497:639  function BuyCigarette2(uint256 _age) public pure onlyAdults2(_age) returns(string memory){\r... */\n      pop\n      swap2\n      swap1\n      pop\n      jump\t// out\n        /* \"#utility.yul\":7:146   */\n    tag_33:\n        /* \"#utility.yul\":53:58   */\n      0x00\n        /* \"#utility.yul\":91:97   */\n      dup2\n        /* \"#utility.yul\":78:98   */\n      calldataload\n        /* \"#utility.yul\":69:98   */\n      swap1\n      pop\n        /* \"#utility.yul\":107:140   */\n      tag_35\n        /* \"#utility.yul\":134:139   */\n      dup2\n        /* \"#utility.yul\":107:140   */\n      tag_36\n      jump\t// in\n    tag_35:\n        /* \"#utility.yul\":7:146   */\n      swap3\n      swap2\n      pop\n      pop\n      jump\t// out\n        /* \"#utility.yul\":152:481   */\n    tag_19:\n        /* \"#utility.yul\":211:217   */\n      0x00\n        /* \"#utility.yul\":260:262   */\n      0x20\n        /* \"#utility.yul\":248:257   */\n      dup3\n        /* \"#utility.yul\":239:246   */\n      dup5\n        /* \"#utility.yul\":235:258   */\n      sub\n        /* \"#utility.yul\":231:263   */\n      slt\n        /* \"#utility.yul\":228:347   */\n      iszero\n      tag_38\n      jumpi\n        /* \"#utility.yul\":266:345   */\n      tag_39\n      tag_40\n      jump\t// in\n    tag_39:\n        /* \"#utility.yul\":228:347   */\n    tag_38:\n        /* \"#utility.yul\":386:387   */\n      0x00\n        /* \"#utility.yul\":411:464   */\n      tag_41\n        /* \"#utility.yul\":456:463   */\n      dup5\n        /* \"#utility.yul\":447:453   */\n      dup3\n        /* \"#utility.yul\":436:445   */\n      dup6\n        /* \"#utility.yul\":432:454   */\n      add\n        /* \"#utility.yul\":411:464   */\n      tag_33\n      jump\t// in\n    tag_41:\n        /* \"#utility.yul\":401:464   */\n      swap2\n      pop\n        /* \"#utility.yul\":357:474   */\n      pop\n        /* \"#utility.yul\":152:481   */\n      swap3\n      swap2\n      pop\n      pop\n      jump\t// out\n        /* \"#utility.yul\":487:851   */\n    tag_42:\n        /* \"#utility.yul\":575:578   */\n      0x00\n        /* \"#utility.yul\":603:642   */\n      tag_44\n        /* \"#utility.yul\":636:641   */\n      dup3\n        /* \"#utility.yul\":603:642   */\n      tag_45\n      jump\t// in\n    tag_44:\n        /* \"#utility.yul\":658:729   */\n      tag_46\n        /* \"#utility.yul\":722:728   */\n      dup2\n        /* \"#utility.yul\":717:720   */\n      dup6\n        /* \"#utility.yul\":658:729   */\n      tag_47\n      jump\t// in\n    tag_46:\n        /* \"#utility.yul\":651:729   */\n      swap4\n      pop\n        /* \"#utility.yul\":738:790   */\n      tag_48\n        /* \"#utility.yul\":783:789   */\n      dup2\n        /* \"#utility.yul\":778:781   */\n      dup6\n        /* \"#utility.yul\":771:775   */\n      0x20\n        /* \"#utility.yul\":764:769   */\n      dup7\n        /* \"#utility.yul\":760:776   */\n      add\n        /* \"#utility.yul\":738:790   */\n      tag_49\n      jump\t// in\n    tag_48:\n        /* \"#utility.yul\":815:844   */\n      tag_50\n        /* \"#utility.yul\":837:843   */\n      dup2\n        /* \"#utility.yul\":815:844   */\n      tag_51\n      jump\t// in\n    tag_50:\n        /* \"#utility.yul\":810:813   */\n      dup5\n        /* \"#utility.yul\":806:845   */\n      add\n        /* \"#utility.yul\":799:845   */\n      swap2\n      pop\n        /* \"#utility.yul\":579:851   */\n      pop\n        /* \"#utility.yul\":487:851   */\n      swap3\n      swap2\n      pop\n      pop\n      jump\t// out\n        /* \"#utility.yul\":857:1223   */\n    tag_52:\n        /* \"#utility.yul\":999:1002   */\n      0x00\n        /* \"#utility.yul\":1020:1087   */\n      tag_54\n        /* \"#utility.yul\":1084:1086   */\n      0x2c\n        /* \"#utility.yul\":1079:1082   */\n      dup4\n        /* \"#utility.yul\":1020:1087   */\n      tag_47\n      jump\t// in\n    tag_54:\n        /* \"#utility.yul\":1013:1087   */\n      swap2\n      pop\n        /* \"#utility.yul\":1096:1189   */\n      tag_55\n        /* \"#utility.yul\":1185:1188   */\n      dup3\n        /* \"#utility.yul\":1096:1189   */\n      tag_56\n      jump\t// in\n    tag_55:\n        /* \"#utility.yul\":1214:1216   */\n      0x40\n        /* \"#utility.yul\":1209:1212   */\n      dup3\n        /* \"#utility.yul\":1205:1217   */\n      add\n        /* \"#utility.yul\":1198:1217   */\n      swap1\n      pop\n        /* \"#utility.yul\":857:1223   */\n      swap2\n      swap1\n      pop\n      jump\t// out\n        /* \"#utility.yul\":1229:1347   */\n    tag_57:\n        /* \"#utility.yul\":1316:1340   */\n      tag_59\n        /* \"#utility.yul\":1334:1339   */\n      dup2\n        /* \"#utility.yul\":1316:1340   */\n      tag_60\n      jump\t// in\n    tag_59:\n        /* \"#utility.yul\":1311:1314   */\n      dup3\n        /* \"#utility.yul\":1304:1341   */\n      mstore\n        /* \"#utility.yul\":1229:1347   */\n      pop\n      pop\n      jump\t// out\n        /* \"#utility.yul\":1353:1666   */\n    tag_16:\n        /* \"#utility.yul\":1466:1470   */\n      0x00\n        /* \"#utility.yul\":1504:1506   */\n      0x20\n        /* \"#utility.yul\":1493:1502   */\n      dup3\n        /* \"#utility.yul\":1489:1507   */\n      add\n        /* \"#utility.yul\":1481:1507   */\n      swap1\n      pop\n        /* \"#utility.yul\":1553:1562   */\n      dup2\n        /* \"#utility.yul\":1547:1551   */\n      dup2\n        /* \"#utility.yul\":1543:1563   */\n      sub\n        /* \"#utility.yul\":1539:1540   */\n      0x00\n        /* \"#utility.yul\":1528:1537   */\n      dup4\n        /* \"#utility.yul\":1524:1541   */\n      add\n        /* \"#utility.yul\":1517:1564   */\n      mstore\n        /* \"#utility.yul\":1581:1659   */\n      tag_62\n        /* \"#utility.yul\":1654:1658   */\n      dup2\n        /* \"#utility.yul\":1645:1651   */\n      dup5\n        /* \"#utility.yul\":1581:1659   */\n      tag_42\n      jump\t// in\n    tag_62:\n        /* \"#utility.yul\":1573:1659   */\n      swap1\n      pop\n        /* \"#utility.yul\":1353:1666   */\n      swap3\n      swap2\n      pop\n      pop\n      jump\t// out\n        /* \"#utility.yul\":1672:2091   */\n    tag_27:\n        /* \"#utility.yul\":1838:1842   */\n      0x00\n        /* \"#utility.yul\":1876:1878   */\n      0x20\n        /* \"#utility.yul\":1865:1874   */\n      dup3\n        /* \"#utility.yul\":1861:1879   */\n      add\n        /* \"#utility.yul\":1853:1879   */\n      swap1\n      pop\n        /* \"#utility.yul\":1925:1934   */\n      dup2\n        /* \"#utility.yul\":1919:1923   */\n      dup2\n        /* \"#utility.yul\":1915:1935   */\n      sub\n        /* \"#utility.yul\":1911:1912   */\n      0x00\n        /* \"#utility.yul\":1900:1909   */\n      dup4\n        /* \"#utility.yul\":1896:1913   */\n      add\n        /* \"#utility.yul\":1889:1936   */\n      mstore\n        /* \"#utility.yul\":1953:2084   */\n      tag_64\n        /* \"#utility.yul\":2079:2083   */\n      dup2\n        /* \"#utility.yul\":1953:2084   */\n      tag_52\n      jump\t// in\n    tag_64:\n        /* \"#utility.yul\":1945:2084   */\n      swap1\n      pop\n        /* \"#utility.yul\":1672:2091   */\n      swap2\n      swap1\n      pop\n      jump\t// out\n        /* \"#utility.yul\":2097:2319   */\n    tag_12:\n        /* \"#utility.yul\":2190:2194   */\n      0x00\n        /* \"#utility.yul\":2228:2230   */\n      0x20\n        /* \"#utility.yul\":2217:2226   */\n      dup3\n        /* \"#utility.yul\":2213:2231   */\n      add\n        /* \"#utility.yul\":2205:2231   */\n      swap1\n      pop\n        /* \"#utility.yul\":2241:2312   */\n      tag_66\n        /* \"#utility.yul\":2309:2310   */\n      0x00\n        /* \"#utility.yul\":2298:2307   */\n      dup4\n        /* \"#utility.yul\":2294:2311   */\n      add\n        /* \"#utility.yul\":2285:2291   */\n      dup5\n        /* \"#utility.yul\":2241:2312   */\n      tag_57\n      jump\t// in\n    tag_66:\n        /* \"#utility.yul\":2097:2319   */\n      swap3\n      swap2\n      pop\n      pop\n      jump\t// out\n        /* \"#utility.yul\":2406:2505   */\n    tag_45:\n        /* \"#utility.yul\":2458:2464   */\n      0x00\n        /* \"#utility.yul\":2492:2497   */\n      dup2\n        /* \"#utility.yul\":2486:2498   */\n      mload\n        /* \"#utility.yul\":2476:2498   */\n      swap1\n      pop\n        /* \"#utility.yul\":2406:2505   */\n      swap2\n      swap1\n      pop\n      jump\t// out\n        /* \"#utility.yul\":2511:2680   */\n    tag_47:\n        /* \"#utility.yul\":2595:2606   */\n      0x00\n        /* \"#utility.yul\":2629:2635   */\n      dup3\n        /* \"#utility.yul\":2624:2627   */\n      dup3\n        /* \"#utility.yul\":2617:2636   */\n      mstore\n        /* \"#utility.yul\":2669:2673   */\n      0x20\n        /* \"#utility.yul\":2664:2667   */\n      dup3\n        /* \"#utility.yul\":2660:2674   */\n      add\n        /* \"#utility.yul\":2645:2674   */\n      swap1\n      pop\n        /* \"#utility.yul\":2511:2680   */\n      swap3\n      swap2\n      pop\n      pop\n      jump\t// out\n        /* \"#utility.yul\":2686:2763   */\n    tag_60:\n        /* \"#utility.yul\":2723:2730   */\n      0x00\n        /* \"#utility.yul\":2752:2757   */\n      dup2\n        /* \"#utility.yul\":2741:2757   */\n      swap1\n      pop\n        /* \"#utility.yul\":2686:2763   */\n      swap2\n      swap1\n      pop\n      jump\t// out\n        /* \"#utility.yul\":2769:3076   */\n    tag_49:\n        /* \"#utility.yul\":2837:2838   */\n      0x00\n        /* \"#utility.yul\":2847:2960   */\n    tag_73:\n        /* \"#utility.yul\":2861:2867   */\n      dup4\n        /* \"#utility.yul\":2858:2859   */\n      dup2\n        /* \"#utility.yul\":2855:2868   */\n      lt\n        /* \"#utility.yul\":2847:2960   */\n      iszero\n      tag_75\n      jumpi\n        /* \"#utility.yul\":2946:2947   */\n      dup1\n        /* \"#utility.yul\":2941:2944   */\n      dup3\n        /* \"#utility.yul\":2937:2948   */\n      add\n        /* \"#utility.yul\":2931:2949   */\n      mload\n        /* \"#utility.yul\":2927:2928   */\n      dup2\n        /* \"#utility.yul\":2922:2925   */\n      dup5\n        /* \"#utility.yul\":2918:2929   */\n      add\n        /* \"#utility.yul\":2911:2950   */\n      mstore\n        /* \"#utility.yul\":2883:2885   */\n      0x20\n        /* \"#utility.yul\":2880:2881   */\n      dup2\n        /* \"#utility.yul\":2876:2886   */\n      add\n        /* \"#utility.yul\":2871:2886   */\n      swap1\n      pop\n        /* \"#utility.yul\":2847:2960   */\n      jump(tag_73)\n    tag_75:\n        /* \"#utility.yul\":2978:2984   */\n      dup4\n        /* \"#utility.yul\":2975:2976   */\n      dup2\n        /* \"#utility.yul\":2972:2985   */\n      gt\n        /* \"#utility.yul\":2969:3070   */\n      iszero\n      tag_76\n      jumpi\n        /* \"#utility.yul\":3058:3059   */\n      0x00\n        /* \"#utility.yul\":3049:3055   */\n      dup5\n        /* \"#utility.yul\":3044:3047   */\n      dup5\n        /* \"#utility.yul\":3040:3056   */\n      add\n        /* \"#utility.yul\":3033:3060   */\n      mstore\n        /* \"#utility.yul\":2969:3070   */\n    tag_76:\n        /* \"#utility.yul\":2818:3076   */\n      pop\n        /* \"#utility.yul\":2769:3076   */\n      pop\n      pop\n      pop\n      jump\t// out\n        /* \"#utility.yul\":3205:3322   */\n    tag_40:\n        /* \"#utility.yul\":3314:3315   */\n      0x00\n        /* \"#utility.yul\":3311:3312   */\n      dup1\n        /* \"#utility.yul\":3304:3316   */\n      revert\n        /* \"#utility.yul\":3328:3430   */\n    tag_51:\n        /* \"#utility.yul\":3369:3375   */\n      0x00\n        /* \"#utility.yul\":3420:3422   */\n      0x1f\n        /* \"#utility.yul\":3416:3423   */\n      not\n        /* \"#utility.yul\":3411:3413   */\n      0x1f\n        /* \"#utility.yul\":3404:3409   */\n      dup4\n        /* \"#utility.yul\":3400:3414   */\n      add\n        /* \"#utility.yul\":3396:3424   */\n      and\n        /* \"#utility.yul\":3386:3424   */\n      swap1\n      pop\n        /* \"#utility.yul\":3328:3430   */\n      swap2\n      swap1\n      pop\n      jump\t// out\n        /* \"#utility.yul\":3436:3667   */\n    tag_56:\n        /* \"#utility.yul\":3576:3610   */\n      0x596f7520617265206e6f7420616c6c6f77656420746f2070617920666f722074\n        /* \"#utility.yul\":3572:3573   */\n      0x00\n        /* \"#utility.yul\":3564:3570   */\n      dup3\n        /* \"#utility.yul\":3560:3574   */\n      add\n        /* \"#utility.yul\":3553:3611   */\n      mstore\n        /* \"#utility.yul\":3645:3659   */\n      0x6865206369676172657474650000000000000000000000000000000000000000\n        /* \"#utility.yul\":3640:3642   */\n      0x20\n        /* \"#utility.yul\":3632:3638   */\n      dup3\n        /* \"#utility.yul\":3628:3643   */\n      add\n        /* \"#utility.yul\":3621:3660   */\n      mstore\n        /* \"#utility.yul\":3436:3667   */\n      pop\n      jump\t// out\n        /* \"#utility.yul\":3673:3795   */\n    tag_36:\n        /* \"#utility.yul\":3746:3770   */\n      tag_83\n        /* \"#utility.yul\":3764:3769   */\n      dup2\n        /* \"#utility.yul\":3746:3770   */\n      tag_60\n      jump\t// in\n    tag_83:\n        /* \"#utility.yul\":3739:3744   */\n      dup2\n        /* \"#utility.yul\":3736:3771   */\n      eq\n        /* \"#utility.yul\":3726:3789   */\n      tag_84\n      jumpi\n        /* \"#utility.yul\":3785:3786   */\n      0x00\n        /* \"#utility.yul\":3782:3783   */\n      dup1\n        /* \"#utility.yul\":3775:3787   */\n      revert\n        /* \"#utility.yul\":3726:3789   */\n    tag_84:\n        /* \"#utility.yul\":3673:3795   */\n      pop\n      jump\t// out\n\n    auxdata: 0xa2646970667358221220ce3a6aec38237b1368a5eab8e58540833eed8ce2e1fde4d9938998b1fbc9e27264736f6c63430008070033\n}\n",
				"bytecode": {
					"linkReferences": {},
					"object": "6080604052600560005534801561001557600080fd5b506103ed806100256000396000f3fe608060405234801561001057600080fd5b506004361061004c5760003560e01c806332a61695146100515780634e70b1dc1461005b5780635b2706b6146100795780637128a08814610097575b600080fd5b6100596100c7565b005b6100636100d9565b60405161007091906102c7565b60405180910390f35b6100816100df565b60405161008e9190610285565b60405180910390f35b6100b160048036038101906100ac91906101ed565b610154565b6040516100be9190610285565b60405180910390f35b600f600081905550600a600081905550565b60005481565b60606040518060400160405280601981526020017f596f7572207061796d656e74206973207375636365656465640000000000000081525090506040517f08c379a000000000000000000000000000000000000000000000000000000000815260040161014b906102a7565b60405180910390fd5b6060816012811161019a576040517f08c379a0000000000000000000000000000000000000000000000000000000008152600401610191906102a7565b60405180910390fd5b6040518060400160405280601981526020017f596f7572207061796d656e742069732073756363656564656400000000000000815250915050919050565b6000813590506101e7816103a0565b92915050565b6000602082840312156102035761020261033b565b5b6000610211848285016101d8565b91505092915050565b6000610225826102e2565b61022f81856102ed565b935061023f818560208601610308565b61024881610340565b840191505092915050565b6000610260602c836102ed565b915061026b82610351565b604082019050919050565b61027f816102fe565b82525050565b6000602082019050818103600083015261029f818461021a565b905092915050565b600060208201905081810360008301526102c081610253565b9050919050565b60006020820190506102dc6000830184610276565b92915050565b600081519050919050565b600082825260208201905092915050565b6000819050919050565b60005b8381101561032657808201518184015260208101905061030b565b83811115610335576000848401525b50505050565b600080fd5b6000601f19601f8301169050919050565b7f596f7520617265206e6f7420616c6c6f77656420746f2070617920666f72207460008201527f6865206369676172657474650000000000000000000000000000000000000000602082015250565b6103a9816102fe565b81146103b457600080fd5b5056fea2646970667358221220ce3a6aec38237b1368a5eab8e58540833eed8ce2e1fde4d9938998b1fbc9e27264736f6c63430008070033",
					"opcodes": "PUSH1 0x80 PUSH1 0x40 MSTORE PUSH1 0x5 PUSH1 0x0 SSTORE CALLVALUE DUP1 ISZERO PUSH2 0x15 JUMPI PUSH1 0x0 DUP1 REVERT JUMPDEST POP PUSH2 0x3ED DUP1 PUSH2 0x25 PUSH1 0x0 CODECOPY PUSH1 0x0 RETURN INVALID PUSH1 0x80 PUSH1 0x40 MSTORE CALLVALUE DUP1 ISZERO PUSH2 0x10 JUMPI PUSH1 0x0 DUP1 REVERT JUMPDEST POP PUSH1 0x4 CALLDATASIZE LT PUSH2 0x4C JUMPI PUSH1 0x0 CALLDATALOAD PUSH1 0xE0 SHR DUP1 PUSH4 0x32A61695 EQ PUSH2 0x51 JUMPI DUP1 PUSH4 0x4E70B1DC EQ PUSH2 0x5B JUMPI DUP1 PUSH4 0x5B2706B6 EQ PUSH2 0x79 JUMPI DUP1 PUSH4 0x7128A088 EQ PUSH2 0x97 JUMPI JUMPDEST PUSH1 0x0 DUP1 REVERT JUMPDEST PUSH2 0x59 PUSH2 0xC7 JUMP JUMPDEST STOP JUMPDEST PUSH2 0x63 PUSH2 0xD9 JUMP JUMPDEST PUSH1 0x40 MLOAD PUSH2 0x70 SWAP2 SWAP1 PUSH2 0x2C7 JUMP JUMPDEST PUSH1 0x40 MLOAD DUP1 SWAP2 SUB SWAP1 RETURN JUMPDEST PUSH2 0x81 PUSH2 0xDF JUMP JUMPDEST PUSH1 0x40 MLOAD PUSH2 0x8E SWAP2 SWAP1 PUSH2 0x285 JUMP JUMPDEST PUSH1 0x40 MLOAD DUP1 SWAP2 SUB SWAP1 RETURN JUMPDEST PUSH2 0xB1 PUSH1 0x4 DUP1 CALLDATASIZE SUB DUP2 ADD SWAP1 PUSH2 0xAC SWAP2 SWAP1 PUSH2 0x1ED JUMP JUMPDEST PUSH2 0x154 JUMP JUMPDEST PUSH1 0x40 MLOAD PUSH2 0xBE SWAP2 SWAP1 PUSH2 0x285 JUMP JUMPDEST PUSH1 0x40 MLOAD DUP1 SWAP2 SUB SWAP1 RETURN JUMPDEST PUSH1 0xF PUSH1 0x0 DUP2 SWAP1 SSTORE POP PUSH1 0xA PUSH1 0x0 DUP2 SWAP1 SSTORE POP JUMP JUMPDEST PUSH1 0x0 SLOAD DUP2 JUMP JUMPDEST PUSH1 0x60 PUSH1 0x40 MLOAD DUP1 PUSH1 0x40 ADD PUSH1 0x40 MSTORE DUP1 PUSH1 0x19 DUP2 MSTORE PUSH1 0x20 ADD PUSH32 0x596F7572207061796D656E742069732073756363656564656400000000000000 DUP2 MSTORE POP SWAP1 POP PUSH1 0x40 MLOAD PUSH32 0x8C379A000000000000000000000000000000000000000000000000000000000 DUP2 MSTORE PUSH1 0x4 ADD PUSH2 0x14B SWAP1 PUSH2 0x2A7 JUMP JUMPDEST PUSH1 0x40 MLOAD DUP1 SWAP2 SUB SWAP1 REVERT JUMPDEST PUSH1 0x60 DUP2 PUSH1 0x12 DUP2 GT PUSH2 0x19A JUMPI PUSH1 0x40 MLOAD PUSH32 0x8C379A000000000000000000000000000000000000000000000000000000000 DUP2 MSTORE PUSH1 0x4 ADD PUSH2 0x191 SWAP1 PUSH2 0x2A7 JUMP JUMPDEST PUSH1 0x40 MLOAD DUP1 SWAP2 SUB SWAP1 REVERT JUMPDEST PUSH1 0x40 MLOAD DUP1 PUSH1 0x40 ADD PUSH1 0x40 MSTORE DUP1 PUSH1 0x19 DUP2 MSTORE PUSH1 0x20 ADD PUSH32 0x596F7572207061796D656E742069732073756363656564656400000000000000 DUP2 MSTORE POP SWAP2 POP POP SWAP2 SWAP1 POP JUMP JUMPDEST PUSH1 0x0 DUP2 CALLDATALOAD SWAP1 POP PUSH2 0x1E7 DUP2 PUSH2 0x3A0 JUMP JUMPDEST SWAP3 SWAP2 POP POP JUMP JUMPDEST PUSH1 0x0 PUSH1 0x20 DUP3 DUP5 SUB SLT ISZERO PUSH2 0x203 JUMPI PUSH2 0x202 PUSH2 0x33B JUMP JUMPDEST JUMPDEST PUSH1 0x0 PUSH2 0x211 DUP5 DUP3 DUP6 ADD PUSH2 0x1D8 JUMP JUMPDEST SWAP2 POP POP SWAP3 SWAP2 POP POP JUMP JUMPDEST PUSH1 0x0 PUSH2 0x225 DUP3 PUSH2 0x2E2 JUMP JUMPDEST PUSH2 0x22F DUP2 DUP6 PUSH2 0x2ED JUMP JUMPDEST SWAP4 POP PUSH2 0x23F DUP2 DUP6 PUSH1 0x20 DUP7 ADD PUSH2 0x308 JUMP JUMPDEST PUSH2 0x248 DUP2 PUSH2 0x340 JUMP JUMPDEST DUP5 ADD SWAP2 POP POP SWAP3 SWAP2 POP POP JUMP JUMPDEST PUSH1 0x0 PUSH2 0x260 PUSH1 0x2C DUP4 PUSH2 0x2ED JUMP JUMPDEST SWAP2 POP PUSH2 0x26B DUP3 PUSH2 0x351 JUMP JUMPDEST PUSH1 0x40 DUP3 ADD SWAP1 POP SWAP2 SWAP1 POP JUMP JUMPDEST PUSH2 0x27F DUP2 PUSH2 0x2FE JUMP JUMPDEST DUP3 MSTORE POP POP JUMP JUMPDEST PUSH1 0x0 PUSH1 0x20 DUP3 ADD SWAP1 POP DUP2 DUP2 SUB PUSH1 0x0 DUP4 ADD MSTORE PUSH2 0x29F DUP2 DUP5 PUSH2 0x21A JUMP JUMPDEST SWAP1 POP SWAP3 SWAP2 POP POP JUMP JUMPDEST PUSH1 0x0 PUSH1 0x20 DUP3 ADD SWAP1 POP DUP2 DUP2 SUB PUSH1 0x0 DUP4 ADD MSTORE PUSH2 0x2C0 DUP2 PUSH2 0x253 JUMP JUMPDEST SWAP1 POP SWAP2 SWAP1 POP JUMP JUMPDEST PUSH1 0x0 PUSH1 0x20 DUP3 ADD SWAP1 POP PUSH2 0x2DC PUSH1 0x0 DUP4 ADD DUP5 PUSH2 0x276 JUMP JUMPDEST SWAP3 SWAP2 POP POP JUMP JUMPDEST PUSH1 0x0 DUP2 MLOAD SWAP1 POP SWAP2 SWAP1 POP JUMP JUMPDEST PUSH1 0x0 DUP3 DUP3 MSTORE PUSH1 0x20 DUP3 ADD SWAP1 POP SWAP3 SWAP2 POP POP JUMP JUMPDEST PUSH1 0x0 DUP2 SWAP1 POP SWAP2 SWAP1 POP JUMP JUMPDEST PUSH1 0x0 JUMPDEST DUP4 DUP2 LT ISZERO PUSH2 0x326 JUMPI DUP1 DUP3 ADD MLOAD DUP2 DUP5 ADD MSTORE PUSH1 0x20 DUP2 ADD SWAP1 POP PUSH2 0x30B JUMP JUMPDEST DUP4 DUP2 GT ISZERO PUSH2 0x335 JUMPI PUSH1 0x0 DUP5 DUP5 ADD MSTORE JUMPDEST POP POP POP POP JUMP JUMPDEST PUSH1 0x0 DUP1 REVERT JUMPDEST PUSH1 0x0 PUSH1 0x1F NOT PUSH1 0x1F DUP4 ADD AND SWAP1 POP SWAP2 SWAP1 POP JUMP JUMPDEST PUSH32 0x596F7520617265206E6F7420616C6C6F77656420746F2070617920666F722074 PUSH1 0x0 DUP3 ADD MSTORE PUSH32 0x6865206369676172657474650000000000000000000000000000000000000000 PUSH1 0x20 DUP3 ADD MSTORE POP JUMP JUMPDEST PUSH2 0x3A9 DUP2 PUSH2 0x2FE JUMP JUMPDEST DUP2 EQ PUSH2 0x3B4 JUMPI PUSH1 0x0 DUP1 REVERT JUMPDEST POP JUMP INVALID LOG2 PUSH5 0x6970667358 0x22 SLT KECCAK256 0xCE GASPRICE PUSH11 0xEC38237B1368A5EAB8E585 BLOCKHASH DUP4 RETURNDATACOPY 0xED DUP13 0xE2 0xE1 REVERT 0xE4 0xD9 SWAP4 DUP10 SWAP9 0xB1 0xFB 0xC9 0xE2 PUSH19 0x64736F6C634300080700330000000000000000 "
				},
				"gasEstimates": {
					"creation": {
						"codeDepositCost": "201000",
						"executionCost": "22351",
						"totalCost": "223351"
					},
					"external": {
						"BuyCigarette()": "538",
						"BuyCigarette2(uint256)": "infinite",
						"num()": "2429",
						"numChangeFunction()": "27250"
					}
				},
				"methodIdentifiers": {
					"BuyCigarette()": "5b2706b6",
					"BuyCigarette2(uint256)": "7128a088",
					"num()": "4e70b1dc",
					"numChangeFunction()": "32a61695"
				}
			},
			"userdoc": {
				"kind": "user",
				"methods": {},
				"version": 1
			}
		}
	}
}