{
	".workspaces/default_workspace/lecture/twoTimeMapping.sol": {
		"twoTimeMappintC": {
			"abi": [
				{
					"inputs": [
						{
							"internalType": "uint256",
							"name": "_id",
							"type": "uint256"
						},
						{
							"internalType": "uint256",
							"name": "id",
							"type": "uint256"
						},
						{
							"internalType": "string",
							"name": "_str",
							"type": "string"
						}
					],
					"name": "set",
					"outputs": [],
					"stateMutability": "nonpayable",
					"type": "function"
				},
				{
					"inputs": [
						{
							"internalType": "uint256",
							"name": "",
							"type": "uint256"
						},
						{
							"internalType": "uint256",
							"name": "",
							"type": "uint256"
						}
					],
					"name": "test",
					"outputs": [
						{
							"internalType": "string",
							"name": "",
							"type": "string"
						}
					],
					"stateMutability": "view",
					"type": "function"
				}
			],
			"devdoc": {
				"kind": "dev",
				"methods": {},
				"version": 1
			},
			"evm": {
				"assembly": "    /* \".workspaces/default_workspace/lecture/twoTimeMapping.sol\":73:262  contract twoTimeMappintC {... */\n  mstore(0x40, 0x80)\n  callvalue\n  dup1\n  iszero\n  tag_1\n  jumpi\n  0x00\n  dup1\n  revert\ntag_1:\n  pop\n  dataSize(sub_0)\n  dup1\n  dataOffset(sub_0)\n  0x00\n  codecopy\n  0x00\n  return\nstop\n\nsub_0: assembly {\n        /* \".workspaces/default_workspace/lecture/twoTimeMapping.sol\":73:262  contract twoTimeMappintC {... */\n      mstore(0x40, 0x80)\n      callvalue\n      dup1\n      iszero\n      tag_1\n      jumpi\n      0x00\n      dup1\n      revert\n    tag_1:\n      pop\n      jumpi(tag_2, lt(calldatasize, 0x04))\n      shr(0xe0, calldataload(0x00))\n      dup1\n      0x2c0621ce\n      eq\n      tag_3\n      jumpi\n      dup1\n      0xeb8ac921\n      eq\n      tag_4\n      jumpi\n    tag_2:\n      0x00\n      dup1\n      revert\n        /* \".workspaces/default_workspace/lecture/twoTimeMapping.sol\":165:260  function set(uint _id,uint id, string memory _str) public {... */\n    tag_3:\n      tag_5\n      0x04\n      dup1\n      calldatasize\n      sub\n      dup2\n      add\n      swap1\n      tag_6\n      swap2\n      swap1\n      tag_7\n      jump\t// in\n    tag_6:\n      tag_8\n      jump\t// in\n    tag_5:\n      stop\n        /* \".workspaces/default_workspace/lecture/twoTimeMapping.sol\":105:158  mapping( uint => mapping(uint => string)) public test */\n    tag_4:\n      tag_9\n      0x04\n      dup1\n      calldatasize\n      sub\n      dup2\n      add\n      swap1\n      tag_10\n      swap2\n      swap1\n      tag_11\n      jump\t// in\n    tag_10:\n      tag_12\n      jump\t// in\n    tag_9:\n      mload(0x40)\n      tag_13\n      swap2\n      swap1\n      tag_14\n      jump\t// in\n    tag_13:\n      mload(0x40)\n      dup1\n      swap2\n      sub\n      swap1\n      return\n        /* \".workspaces/default_workspace/lecture/twoTimeMapping.sol\":165:260  function set(uint _id,uint id, string memory _str) public {... */\n    tag_8:\n        /* \".workspaces/default_workspace/lecture/twoTimeMapping.sol\":249:253  _str */\n      dup1\n        /* \".workspaces/default_workspace/lecture/twoTimeMapping.sol\":233:237  test */\n      0x00\n        /* \".workspaces/default_workspace/lecture/twoTimeMapping.sol\":233:242  test[_id] */\n      dup1\n        /* \".workspaces/default_workspace/lecture/twoTimeMapping.sol\":238:241  _id */\n      dup6\n        /* \".workspaces/default_workspace/lecture/twoTimeMapping.sol\":233:242  test[_id] */\n      dup2\n      mstore\n      0x20\n      add\n      swap1\n      dup2\n      mstore\n      0x20\n      add\n      0x00\n      keccak256\n        /* \".workspaces/default_workspace/lecture/twoTimeMapping.sol\":233:246  test[_id][id] */\n      0x00\n        /* \".workspaces/default_workspace/lecture/twoTimeMapping.sol\":243:245  id */\n      dup5\n        /* \".workspaces/default_workspace/lecture/twoTimeMapping.sol\":233:246  test[_id][id] */\n      dup2\n      mstore\n      0x20\n      add\n      swap1\n      dup2\n      mstore\n      0x20\n      add\n      0x00\n      keccak256\n        /* \".workspaces/default_workspace/lecture/twoTimeMapping.sol\":233:253  test[_id][id] = _str */\n      swap1\n      dup1\n      mload\n      swap1\n      0x20\n      add\n      swap1\n      tag_16\n      swap3\n      swap2\n      swap1\n      tag_17\n      jump\t// in\n    tag_16:\n      pop\n        /* \".workspaces/default_workspace/lecture/twoTimeMapping.sol\":165:260  function set(uint _id,uint id, string memory _str) public {... */\n      pop\n      pop\n      pop\n      jump\t// out\n        /* \".workspaces/default_workspace/lecture/twoTimeMapping.sol\":105:158  mapping( uint => mapping(uint => string)) public test */\n    tag_12:\n      mstore(0x20, 0x00)\n      dup2\n      0x00\n      mstore\n      mstore(0x20, keccak256(0x00, 0x40))\n      dup1\n      0x00\n      mstore\n      keccak256(0x00, 0x40)\n      0x00\n      swap2\n      pop\n      swap2\n      pop\n      pop\n      dup1\n      sload\n      tag_18\n      swap1\n      tag_19\n      jump\t// in\n    tag_18:\n      dup1\n      0x1f\n      add\n      0x20\n      dup1\n      swap2\n      div\n      mul\n      0x20\n      add\n      mload(0x40)\n      swap1\n      dup2\n      add\n      0x40\n      mstore\n      dup1\n      swap3\n      swap2\n      swap1\n      dup2\n      dup2\n      mstore\n      0x20\n      add\n      dup3\n      dup1\n      sload\n      tag_20\n      swap1\n      tag_19\n      jump\t// in\n    tag_20:\n      dup1\n      iszero\n      tag_21\n      jumpi\n      dup1\n      0x1f\n      lt\n      tag_22\n      jumpi\n      0x0100\n      dup1\n      dup4\n      sload\n      div\n      mul\n      dup4\n      mstore\n      swap2\n      0x20\n      add\n      swap2\n      jump(tag_21)\n    tag_22:\n      dup3\n      add\n      swap2\n      swap1\n      0x00\n      mstore\n      keccak256(0x00, 0x20)\n      swap1\n    tag_23:\n      dup2\n      sload\n      dup2\n      mstore\n      swap1\n      0x01\n      add\n      swap1\n      0x20\n      add\n      dup1\n      dup4\n      gt\n      tag_23\n      jumpi\n      dup3\n      swap1\n      sub\n      0x1f\n      and\n      dup3\n      add\n      swap2\n    tag_21:\n      pop\n      pop\n      pop\n      pop\n      pop\n      dup2\n      jump\t// out\n    tag_17:\n      dup3\n      dup1\n      sload\n      tag_24\n      swap1\n      tag_19\n      jump\t// in\n    tag_24:\n      swap1\n      0x00\n      mstore\n      keccak256(0x00, 0x20)\n      swap1\n      0x1f\n      add\n      0x20\n      swap1\n      div\n      dup2\n      add\n      swap3\n      dup3\n      tag_26\n      jumpi\n      0x00\n      dup6\n      sstore\n      jump(tag_25)\n    tag_26:\n      dup3\n      0x1f\n      lt\n      tag_27\n      jumpi\n      dup1\n      mload\n      not(0xff)\n      and\n      dup4\n      dup1\n      add\n      or\n      dup6\n      sstore\n      jump(tag_25)\n    tag_27:\n      dup3\n      dup1\n      add\n      0x01\n      add\n      dup6\n      sstore\n      dup3\n      iszero\n      tag_25\n      jumpi\n      swap2\n      dup3\n      add\n    tag_28:\n      dup3\n      dup2\n      gt\n      iszero\n      tag_29\n      jumpi\n      dup3\n      mload\n      dup3\n      sstore\n      swap2\n      0x20\n      add\n      swap2\n      swap1\n      0x01\n      add\n      swap1\n      jump(tag_28)\n    tag_29:\n    tag_25:\n      pop\n      swap1\n      pop\n      tag_30\n      swap2\n      swap1\n      tag_31\n      jump\t// in\n    tag_30:\n      pop\n      swap1\n      jump\t// out\n    tag_31:\n    tag_32:\n      dup1\n      dup3\n      gt\n      iszero\n      tag_33\n      jumpi\n      0x00\n      dup2\n      0x00\n      swap1\n      sstore\n      pop\n      0x01\n      add\n      jump(tag_32)\n    tag_33:\n      pop\n      swap1\n      jump\t// out\n        /* \"#utility.yul\":7:82   */\n    tag_34:\n        /* \"#utility.yul\":40:46   */\n      0x00\n        /* \"#utility.yul\":73:75   */\n      0x40\n        /* \"#utility.yul\":67:76   */\n      mload\n        /* \"#utility.yul\":57:76   */\n      swap1\n      pop\n        /* \"#utility.yul\":7:82   */\n      swap1\n      jump\t// out\n        /* \"#utility.yul\":88:205   */\n    tag_35:\n        /* \"#utility.yul\":197:198   */\n      0x00\n        /* \"#utility.yul\":194:195   */\n      dup1\n        /* \"#utility.yul\":187:199   */\n      revert\n        /* \"#utility.yul\":211:328   */\n    tag_36:\n        /* \"#utility.yul\":320:321   */\n      0x00\n        /* \"#utility.yul\":317:318   */\n      dup1\n        /* \"#utility.yul\":310:322   */\n      revert\n        /* \"#utility.yul\":334:411   */\n    tag_37:\n        /* \"#utility.yul\":371:378   */\n      0x00\n        /* \"#utility.yul\":400:405   */\n      dup2\n        /* \"#utility.yul\":389:405   */\n      swap1\n      pop\n        /* \"#utility.yul\":334:411   */\n      swap2\n      swap1\n      pop\n      jump\t// out\n        /* \"#utility.yul\":417:539   */\n    tag_38:\n        /* \"#utility.yul\":490:514   */\n      tag_61\n        /* \"#utility.yul\":508:513   */\n      dup2\n        /* \"#utility.yul\":490:514   */\n      tag_37\n      jump\t// in\n    tag_61:\n        /* \"#utility.yul\":483:488   */\n      dup2\n        /* \"#utility.yul\":480:515   */\n      eq\n        /* \"#utility.yul\":470:533   */\n      tag_62\n      jumpi\n        /* \"#utility.yul\":529:530   */\n      0x00\n        /* \"#utility.yul\":526:527   */\n      dup1\n        /* \"#utility.yul\":519:531   */\n      revert\n        /* \"#utility.yul\":470:533   */\n    tag_62:\n        /* \"#utility.yul\":417:539   */\n      pop\n      jump\t// out\n        /* \"#utility.yul\":545:684   */\n    tag_39:\n        /* \"#utility.yul\":591:596   */\n      0x00\n        /* \"#utility.yul\":629:635   */\n      dup2\n        /* \"#utility.yul\":616:636   */\n      calldataload\n        /* \"#utility.yul\":607:636   */\n      swap1\n      pop\n        /* \"#utility.yul\":645:678   */\n      tag_64\n        /* \"#utility.yul\":672:677   */\n      dup2\n        /* \"#utility.yul\":645:678   */\n      tag_38\n      jump\t// in\n    tag_64:\n        /* \"#utility.yul\":545:684   */\n      swap3\n      swap2\n      pop\n      pop\n      jump\t// out\n        /* \"#utility.yul\":690:807   */\n    tag_40:\n        /* \"#utility.yul\":799:800   */\n      0x00\n        /* \"#utility.yul\":796:797   */\n      dup1\n        /* \"#utility.yul\":789:801   */\n      revert\n        /* \"#utility.yul\":813:930   */\n    tag_41:\n        /* \"#utility.yul\":922:923   */\n      0x00\n        /* \"#utility.yul\":919:920   */\n      dup1\n        /* \"#utility.yul\":912:924   */\n      revert\n        /* \"#utility.yul\":936:1038   */\n    tag_42:\n        /* \"#utility.yul\":977:983   */\n      0x00\n        /* \"#utility.yul\":1028:1030   */\n      0x1f\n        /* \"#utility.yul\":1024:1031   */\n      not\n        /* \"#utility.yul\":1019:1021   */\n      0x1f\n        /* \"#utility.yul\":1012:1017   */\n      dup4\n        /* \"#utility.yul\":1008:1022   */\n      add\n        /* \"#utility.yul\":1004:1032   */\n      and\n        /* \"#utility.yul\":994:1032   */\n      swap1\n      pop\n        /* \"#utility.yul\":936:1038   */\n      swap2\n      swap1\n      pop\n      jump\t// out\n        /* \"#utility.yul\":1044:1224   */\n    tag_43:\n        /* \"#utility.yul\":1092:1169   */\n      0x4e487b7100000000000000000000000000000000000000000000000000000000\n        /* \"#utility.yul\":1089:1090   */\n      0x00\n        /* \"#utility.yul\":1082:1170   */\n      mstore\n        /* \"#utility.yul\":1189:1193   */\n      0x41\n        /* \"#utility.yul\":1186:1187   */\n      0x04\n        /* \"#utility.yul\":1179:1194   */\n      mstore\n        /* \"#utility.yul\":1213:1217   */\n      0x24\n        /* \"#utility.yul\":1210:1211   */\n      0x00\n        /* \"#utility.yul\":1203:1218   */\n      revert\n        /* \"#utility.yul\":1230:1511   */\n    tag_44:\n        /* \"#utility.yul\":1313:1340   */\n      tag_70\n        /* \"#utility.yul\":1335:1339   */\n      dup3\n        /* \"#utility.yul\":1313:1340   */\n      tag_42\n      jump\t// in\n    tag_70:\n        /* \"#utility.yul\":1305:1311   */\n      dup2\n        /* \"#utility.yul\":1301:1341   */\n      add\n        /* \"#utility.yul\":1443:1449   */\n      dup2\n        /* \"#utility.yul\":1431:1441   */\n      dup2\n        /* \"#utility.yul\":1428:1450   */\n      lt\n        /* \"#utility.yul\":1407:1425   */\n      0xffffffffffffffff\n        /* \"#utility.yul\":1395:1405   */\n      dup3\n        /* \"#utility.yul\":1392:1426   */\n      gt\n        /* \"#utility.yul\":1389:1451   */\n      or\n        /* \"#utility.yul\":1386:1474   */\n      iszero\n      tag_71\n      jumpi\n        /* \"#utility.yul\":1454:1472   */\n      tag_72\n      tag_43\n      jump\t// in\n    tag_72:\n        /* \"#utility.yul\":1386:1474   */\n    tag_71:\n        /* \"#utility.yul\":1494:1504   */\n      dup1\n        /* \"#utility.yul\":1490:1492   */\n      0x40\n        /* \"#utility.yul\":1483:1505   */\n      mstore\n        /* \"#utility.yul\":1273:1511   */\n      pop\n        /* \"#utility.yul\":1230:1511   */\n      pop\n      pop\n      jump\t// out\n        /* \"#utility.yul\":1517:1646   */\n    tag_45:\n        /* \"#utility.yul\":1551:1557   */\n      0x00\n        /* \"#utility.yul\":1578:1598   */\n      tag_74\n      tag_34\n      jump\t// in\n    tag_74:\n        /* \"#utility.yul\":1568:1598   */\n      swap1\n      pop\n        /* \"#utility.yul\":1607:1640   */\n      tag_75\n        /* \"#utility.yul\":1635:1639   */\n      dup3\n        /* \"#utility.yul\":1627:1633   */\n      dup3\n        /* \"#utility.yul\":1607:1640   */\n      tag_44\n      jump\t// in\n    tag_75:\n        /* \"#utility.yul\":1517:1646   */\n      swap2\n      swap1\n      pop\n      jump\t// out\n        /* \"#utility.yul\":1652:1960   */\n    tag_46:\n        /* \"#utility.yul\":1714:1718   */\n      0x00\n        /* \"#utility.yul\":1804:1822   */\n      0xffffffffffffffff\n        /* \"#utility.yul\":1796:1802   */\n      dup3\n        /* \"#utility.yul\":1793:1823   */\n      gt\n        /* \"#utility.yul\":1790:1846   */\n      iszero\n      tag_77\n      jumpi\n        /* \"#utility.yul\":1826:1844   */\n      tag_78\n      tag_43\n      jump\t// in\n    tag_78:\n        /* \"#utility.yul\":1790:1846   */\n    tag_77:\n        /* \"#utility.yul\":1864:1893   */\n      tag_79\n        /* \"#utility.yul\":1886:1892   */\n      dup3\n        /* \"#utility.yul\":1864:1893   */\n      tag_42\n      jump\t// in\n    tag_79:\n        /* \"#utility.yul\":1856:1893   */\n      swap1\n      pop\n        /* \"#utility.yul\":1948:1952   */\n      0x20\n        /* \"#utility.yul\":1942:1946   */\n      dup2\n        /* \"#utility.yul\":1938:1953   */\n      add\n        /* \"#utility.yul\":1930:1953   */\n      swap1\n      pop\n        /* \"#utility.yul\":1652:1960   */\n      swap2\n      swap1\n      pop\n      jump\t// out\n        /* \"#utility.yul\":1966:2120   */\n    tag_47:\n        /* \"#utility.yul\":2050:2056   */\n      dup3\n        /* \"#utility.yul\":2045:2048   */\n      dup2\n        /* \"#utility.yul\":2040:2043   */\n      dup4\n        /* \"#utility.yul\":2027:2057   */\n      calldatacopy\n        /* \"#utility.yul\":2112:2113   */\n      0x00\n        /* \"#utility.yul\":2103:2109   */\n      dup4\n        /* \"#utility.yul\":2098:2101   */\n      dup4\n        /* \"#utility.yul\":2094:2110   */\n      add\n        /* \"#utility.yul\":2087:2114   */\n      mstore\n        /* \"#utility.yul\":1966:2120   */\n      pop\n      pop\n      pop\n      jump\t// out\n        /* \"#utility.yul\":2126:2538   */\n    tag_48:\n        /* \"#utility.yul\":2204:2209   */\n      0x00\n        /* \"#utility.yul\":2229:2295   */\n      tag_82\n        /* \"#utility.yul\":2245:2294   */\n      tag_83\n        /* \"#utility.yul\":2287:2293   */\n      dup5\n        /* \"#utility.yul\":2245:2294   */\n      tag_46\n      jump\t// in\n    tag_83:\n        /* \"#utility.yul\":2229:2295   */\n      tag_45\n      jump\t// in\n    tag_82:\n        /* \"#utility.yul\":2220:2295   */\n      swap1\n      pop\n        /* \"#utility.yul\":2318:2324   */\n      dup3\n        /* \"#utility.yul\":2311:2316   */\n      dup2\n        /* \"#utility.yul\":2304:2325   */\n      mstore\n        /* \"#utility.yul\":2356:2360   */\n      0x20\n        /* \"#utility.yul\":2349:2354   */\n      dup2\n        /* \"#utility.yul\":2345:2361   */\n      add\n        /* \"#utility.yul\":2394:2397   */\n      dup5\n        /* \"#utility.yul\":2385:2391   */\n      dup5\n        /* \"#utility.yul\":2380:2383   */\n      dup5\n        /* \"#utility.yul\":2376:2392   */\n      add\n        /* \"#utility.yul\":2373:2398   */\n      gt\n        /* \"#utility.yul\":2370:2482   */\n      iszero\n      tag_84\n      jumpi\n        /* \"#utility.yul\":2401:2480   */\n      tag_85\n      tag_41\n      jump\t// in\n    tag_85:\n        /* \"#utility.yul\":2370:2482   */\n    tag_84:\n        /* \"#utility.yul\":2491:2532   */\n      tag_86\n        /* \"#utility.yul\":2525:2531   */\n      dup5\n        /* \"#utility.yul\":2520:2523   */\n      dup3\n        /* \"#utility.yul\":2515:2518   */\n      dup6\n        /* \"#utility.yul\":2491:2532   */\n      tag_47\n      jump\t// in\n    tag_86:\n        /* \"#utility.yul\":2210:2538   */\n      pop\n        /* \"#utility.yul\":2126:2538   */\n      swap4\n      swap3\n      pop\n      pop\n      pop\n      jump\t// out\n        /* \"#utility.yul\":2558:2898   */\n    tag_49:\n        /* \"#utility.yul\":2614:2619   */\n      0x00\n        /* \"#utility.yul\":2663:2666   */\n      dup3\n        /* \"#utility.yul\":2656:2660   */\n      0x1f\n        /* \"#utility.yul\":2648:2654   */\n      dup4\n        /* \"#utility.yul\":2644:2661   */\n      add\n        /* \"#utility.yul\":2640:2667   */\n      slt\n        /* \"#utility.yul\":2630:2752   */\n      tag_88\n      jumpi\n        /* \"#utility.yul\":2671:2750   */\n      tag_89\n      tag_40\n      jump\t// in\n    tag_89:\n        /* \"#utility.yul\":2630:2752   */\n    tag_88:\n        /* \"#utility.yul\":2788:2794   */\n      dup2\n        /* \"#utility.yul\":2775:2795   */\n      calldataload\n        /* \"#utility.yul\":2813:2892   */\n      tag_90\n        /* \"#utility.yul\":2888:2891   */\n      dup5\n        /* \"#utility.yul\":2880:2886   */\n      dup3\n        /* \"#utility.yul\":2873:2877   */\n      0x20\n        /* \"#utility.yul\":2865:2871   */\n      dup7\n        /* \"#utility.yul\":2861:2878   */\n      add\n        /* \"#utility.yul\":2813:2892   */\n      tag_48\n      jump\t// in\n    tag_90:\n        /* \"#utility.yul\":2804:2892   */\n      swap2\n      pop\n        /* \"#utility.yul\":2620:2898   */\n      pop\n        /* \"#utility.yul\":2558:2898   */\n      swap3\n      swap2\n      pop\n      pop\n      jump\t// out\n        /* \"#utility.yul\":2904:3703   */\n    tag_7:\n        /* \"#utility.yul\":2991:2997   */\n      0x00\n        /* \"#utility.yul\":2999:3005   */\n      dup1\n        /* \"#utility.yul\":3007:3013   */\n      0x00\n        /* \"#utility.yul\":3056:3058   */\n      0x60\n        /* \"#utility.yul\":3044:3053   */\n      dup5\n        /* \"#utility.yul\":3035:3042   */\n      dup7\n        /* \"#utility.yul\":3031:3054   */\n      sub\n        /* \"#utility.yul\":3027:3059   */\n      slt\n        /* \"#utility.yul\":3024:3143   */\n      iszero\n      tag_92\n      jumpi\n        /* \"#utility.yul\":3062:3141   */\n      tag_93\n      tag_35\n      jump\t// in\n    tag_93:\n        /* \"#utility.yul\":3024:3143   */\n    tag_92:\n        /* \"#utility.yul\":3182:3183   */\n      0x00\n        /* \"#utility.yul\":3207:3260   */\n      tag_94\n        /* \"#utility.yul\":3252:3259   */\n      dup7\n        /* \"#utility.yul\":3243:3249   */\n      dup3\n        /* \"#utility.yul\":3232:3241   */\n      dup8\n        /* \"#utility.yul\":3228:3250   */\n      add\n        /* \"#utility.yul\":3207:3260   */\n      tag_39\n      jump\t// in\n    tag_94:\n        /* \"#utility.yul\":3197:3260   */\n      swap4\n      pop\n        /* \"#utility.yul\":3153:3270   */\n      pop\n        /* \"#utility.yul\":3309:3311   */\n      0x20\n        /* \"#utility.yul\":3335:3388   */\n      tag_95\n        /* \"#utility.yul\":3380:3387   */\n      dup7\n        /* \"#utility.yul\":3371:3377   */\n      dup3\n        /* \"#utility.yul\":3360:3369   */\n      dup8\n        /* \"#utility.yul\":3356:3378   */\n      add\n        /* \"#utility.yul\":3335:3388   */\n      tag_39\n      jump\t// in\n    tag_95:\n        /* \"#utility.yul\":3325:3388   */\n      swap3\n      pop\n        /* \"#utility.yul\":3280:3398   */\n      pop\n        /* \"#utility.yul\":3465:3467   */\n      0x40\n        /* \"#utility.yul\":3454:3463   */\n      dup5\n        /* \"#utility.yul\":3450:3468   */\n      add\n        /* \"#utility.yul\":3437:3469   */\n      calldataload\n        /* \"#utility.yul\":3496:3514   */\n      0xffffffffffffffff\n        /* \"#utility.yul\":3488:3494   */\n      dup2\n        /* \"#utility.yul\":3485:3515   */\n      gt\n        /* \"#utility.yul\":3482:3599   */\n      iszero\n      tag_96\n      jumpi\n        /* \"#utility.yul\":3518:3597   */\n      tag_97\n      tag_36\n      jump\t// in\n    tag_97:\n        /* \"#utility.yul\":3482:3599   */\n    tag_96:\n        /* \"#utility.yul\":3623:3686   */\n      tag_98\n        /* \"#utility.yul\":3678:3685   */\n      dup7\n        /* \"#utility.yul\":3669:3675   */\n      dup3\n        /* \"#utility.yul\":3658:3667   */\n      dup8\n        /* \"#utility.yul\":3654:3676   */\n      add\n        /* \"#utility.yul\":3623:3686   */\n      tag_49\n      jump\t// in\n    tag_98:\n        /* \"#utility.yul\":3613:3686   */\n      swap2\n      pop\n        /* \"#utility.yul\":3408:3696   */\n      pop\n        /* \"#utility.yul\":2904:3703   */\n      swap3\n      pop\n      swap3\n      pop\n      swap3\n      jump\t// out\n        /* \"#utility.yul\":3709:4183   */\n    tag_11:\n        /* \"#utility.yul\":3777:3783   */\n      0x00\n        /* \"#utility.yul\":3785:3791   */\n      dup1\n        /* \"#utility.yul\":3834:3836   */\n      0x40\n        /* \"#utility.yul\":3822:3831   */\n      dup4\n        /* \"#utility.yul\":3813:3820   */\n      dup6\n        /* \"#utility.yul\":3809:3832   */\n      sub\n        /* \"#utility.yul\":3805:3837   */\n      slt\n        /* \"#utility.yul\":3802:3921   */\n      iszero\n      tag_100\n      jumpi\n        /* \"#utility.yul\":3840:3919   */\n      tag_101\n      tag_35\n      jump\t// in\n    tag_101:\n        /* \"#utility.yul\":3802:3921   */\n    tag_100:\n        /* \"#utility.yul\":3960:3961   */\n      0x00\n        /* \"#utility.yul\":3985:4038   */\n      tag_102\n        /* \"#utility.yul\":4030:4037   */\n      dup6\n        /* \"#utility.yul\":4021:4027   */\n      dup3\n        /* \"#utility.yul\":4010:4019   */\n      dup7\n        /* \"#utility.yul\":4006:4028   */\n      add\n        /* \"#utility.yul\":3985:4038   */\n      tag_39\n      jump\t// in\n    tag_102:\n        /* \"#utility.yul\":3975:4038   */\n      swap3\n      pop\n        /* \"#utility.yul\":3931:4048   */\n      pop\n        /* \"#utility.yul\":4087:4089   */\n      0x20\n        /* \"#utility.yul\":4113:4166   */\n      tag_103\n        /* \"#utility.yul\":4158:4165   */\n      dup6\n        /* \"#utility.yul\":4149:4155   */\n      dup3\n        /* \"#utility.yul\":4138:4147   */\n      dup7\n        /* \"#utility.yul\":4134:4156   */\n      add\n        /* \"#utility.yul\":4113:4166   */\n      tag_39\n      jump\t// in\n    tag_103:\n        /* \"#utility.yul\":4103:4166   */\n      swap2\n      pop\n        /* \"#utility.yul\":4058:4176   */\n      pop\n        /* \"#utility.yul\":3709:4183   */\n      swap3\n      pop\n      swap3\n      swap1\n      pop\n      jump\t// out\n        /* \"#utility.yul\":4189:4288   */\n    tag_50:\n        /* \"#utility.yul\":4241:4247   */\n      0x00\n        /* \"#utility.yul\":4275:4280   */\n      dup2\n        /* \"#utility.yul\":4269:4281   */\n      mload\n        /* \"#utility.yul\":4259:4281   */\n      swap1\n      pop\n        /* \"#utility.yul\":4189:4288   */\n      swap2\n      swap1\n      pop\n      jump\t// out\n        /* \"#utility.yul\":4294:4463   */\n    tag_51:\n        /* \"#utility.yul\":4378:4389   */\n      0x00\n        /* \"#utility.yul\":4412:4418   */\n      dup3\n        /* \"#utility.yul\":4407:4410   */\n      dup3\n        /* \"#utility.yul\":4400:4419   */\n      mstore\n        /* \"#utility.yul\":4452:4456   */\n      0x20\n        /* \"#utility.yul\":4447:4450   */\n      dup3\n        /* \"#utility.yul\":4443:4457   */\n      add\n        /* \"#utility.yul\":4428:4457   */\n      swap1\n      pop\n        /* \"#utility.yul\":4294:4463   */\n      swap3\n      swap2\n      pop\n      pop\n      jump\t// out\n        /* \"#utility.yul\":4469:4776   */\n    tag_52:\n        /* \"#utility.yul\":4537:4538   */\n      0x00\n        /* \"#utility.yul\":4547:4660   */\n    tag_107:\n        /* \"#utility.yul\":4561:4567   */\n      dup4\n        /* \"#utility.yul\":4558:4559   */\n      dup2\n        /* \"#utility.yul\":4555:4568   */\n      lt\n        /* \"#utility.yul\":4547:4660   */\n      iszero\n      tag_109\n      jumpi\n        /* \"#utility.yul\":4646:4647   */\n      dup1\n        /* \"#utility.yul\":4641:4644   */\n      dup3\n        /* \"#utility.yul\":4637:4648   */\n      add\n        /* \"#utility.yul\":4631:4649   */\n      mload\n        /* \"#utility.yul\":4627:4628   */\n      dup2\n        /* \"#utility.yul\":4622:4625   */\n      dup5\n        /* \"#utility.yul\":4618:4629   */\n      add\n        /* \"#utility.yul\":4611:4650   */\n      mstore\n        /* \"#utility.yul\":4583:4585   */\n      0x20\n        /* \"#utility.yul\":4580:4581   */\n      dup2\n        /* \"#utility.yul\":4576:4586   */\n      add\n        /* \"#utility.yul\":4571:4586   */\n      swap1\n      pop\n        /* \"#utility.yul\":4547:4660   */\n      jump(tag_107)\n    tag_109:\n        /* \"#utility.yul\":4678:4684   */\n      dup4\n        /* \"#utility.yul\":4675:4676   */\n      dup2\n        /* \"#utility.yul\":4672:4685   */\n      gt\n        /* \"#utility.yul\":4669:4770   */\n      iszero\n      tag_110\n      jumpi\n        /* \"#utility.yul\":4758:4759   */\n      0x00\n        /* \"#utility.yul\":4749:4755   */\n      dup5\n        /* \"#utility.yul\":4744:4747   */\n      dup5\n        /* \"#utility.yul\":4740:4756   */\n      add\n        /* \"#utility.yul\":4733:4760   */\n      mstore\n        /* \"#utility.yul\":4669:4770   */\n    tag_110:\n        /* \"#utility.yul\":4518:4776   */\n      pop\n        /* \"#utility.yul\":4469:4776   */\n      pop\n      pop\n      pop\n      jump\t// out\n        /* \"#utility.yul\":4782:5146   */\n    tag_53:\n        /* \"#utility.yul\":4870:4873   */\n      0x00\n        /* \"#utility.yul\":4898:4937   */\n      tag_112\n        /* \"#utility.yul\":4931:4936   */\n      dup3\n        /* \"#utility.yul\":4898:4937   */\n      tag_50\n      jump\t// in\n    tag_112:\n        /* \"#utility.yul\":4953:5024   */\n      tag_113\n        /* \"#utility.yul\":5017:5023   */\n      dup2\n        /* \"#utility.yul\":5012:5015   */\n      dup6\n        /* \"#utility.yul\":4953:5024   */\n      tag_51\n      jump\t// in\n    tag_113:\n        /* \"#utility.yul\":4946:5024   */\n      swap4\n      pop\n        /* \"#utility.yul\":5033:5085   */\n      tag_114\n        /* \"#utility.yul\":5078:5084   */\n      dup2\n        /* \"#utility.yul\":5073:5076   */\n      dup6\n        /* \"#utility.yul\":5066:5070   */\n      0x20\n        /* \"#utility.yul\":5059:5064   */\n      dup7\n        /* \"#utility.yul\":5055:5071   */\n      add\n        /* \"#utility.yul\":5033:5085   */\n      tag_52\n      jump\t// in\n    tag_114:\n        /* \"#utility.yul\":5110:5139   */\n      tag_115\n        /* \"#utility.yul\":5132:5138   */\n      dup2\n        /* \"#utility.yul\":5110:5139   */\n      tag_42\n      jump\t// in\n    tag_115:\n        /* \"#utility.yul\":5105:5108   */\n      dup5\n        /* \"#utility.yul\":5101:5140   */\n      add\n        /* \"#utility.yul\":5094:5140   */\n      swap2\n      pop\n        /* \"#utility.yul\":4874:5146   */\n      pop\n        /* \"#utility.yul\":4782:5146   */\n      swap3\n      swap2\n      pop\n      pop\n      jump\t// out\n        /* \"#utility.yul\":5152:5465   */\n    tag_14:\n        /* \"#utility.yul\":5265:5269   */\n      0x00\n        /* \"#utility.yul\":5303:5305   */\n      0x20\n        /* \"#utility.yul\":5292:5301   */\n      dup3\n        /* \"#utility.yul\":5288:5306   */\n      add\n        /* \"#utility.yul\":5280:5306   */\n      swap1\n      pop\n        /* \"#utility.yul\":5352:5361   */\n      dup2\n        /* \"#utility.yul\":5346:5350   */\n      dup2\n        /* \"#utility.yul\":5342:5362   */\n      sub\n        /* \"#utility.yul\":5338:5339   */\n      0x00\n        /* \"#utility.yul\":5327:5336   */\n      dup4\n        /* \"#utility.yul\":5323:5340   */\n      add\n        /* \"#utility.yul\":5316:5363   */\n      mstore\n        /* \"#utility.yul\":5380:5458   */\n      tag_117\n        /* \"#utility.yul\":5453:5457   */\n      dup2\n        /* \"#utility.yul\":5444:5450   */\n      dup5\n        /* \"#utility.yul\":5380:5458   */\n      tag_53\n      jump\t// in\n    tag_117:\n        /* \"#utility.yul\":5372:5458   */\n      swap1\n      pop\n        /* \"#utility.yul\":5152:5465   */\n      swap3\n      swap2\n      pop\n      pop\n      jump\t// out\n        /* \"#utility.yul\":5471:5651   */\n    tag_54:\n        /* \"#utility.yul\":5519:5596   */\n      0x4e487b7100000000000000000000000000000000000000000000000000000000\n        /* \"#utility.yul\":5516:5517   */\n      0x00\n        /* \"#utility.yul\":5509:5597   */\n      mstore\n        /* \"#utility.yul\":5616:5620   */\n      0x22\n        /* \"#utility.yul\":5613:5614   */\n      0x04\n        /* \"#utility.yul\":5606:5621   */\n      mstore\n        /* \"#utility.yul\":5640:5644   */\n      0x24\n        /* \"#utility.yul\":5637:5638   */\n      0x00\n        /* \"#utility.yul\":5630:5645   */\n      revert\n        /* \"#utility.yul\":5657:5977   */\n    tag_19:\n        /* \"#utility.yul\":5701:5707   */\n      0x00\n        /* \"#utility.yul\":5738:5739   */\n      0x02\n        /* \"#utility.yul\":5732:5736   */\n      dup3\n        /* \"#utility.yul\":5728:5740   */\n      div\n        /* \"#utility.yul\":5718:5740   */\n      swap1\n      pop\n        /* \"#utility.yul\":5785:5786   */\n      0x01\n        /* \"#utility.yul\":5779:5783   */\n      dup3\n        /* \"#utility.yul\":5775:5787   */\n      and\n        /* \"#utility.yul\":5806:5824   */\n      dup1\n        /* \"#utility.yul\":5796:5877   */\n      tag_120\n      jumpi\n        /* \"#utility.yul\":5862:5866   */\n      0x7f\n        /* \"#utility.yul\":5854:5860   */\n      dup3\n        /* \"#utility.yul\":5850:5867   */\n      and\n        /* \"#utility.yul\":5840:5867   */\n      swap2\n      pop\n        /* \"#utility.yul\":5796:5877   */\n    tag_120:\n        /* \"#utility.yul\":5924:5926   */\n      0x20\n        /* \"#utility.yul\":5916:5922   */\n      dup3\n        /* \"#utility.yul\":5913:5927   */\n      lt\n        /* \"#utility.yul\":5893:5911   */\n      dup2\n        /* \"#utility.yul\":5890:5928   */\n      sub\n        /* \"#utility.yul\":5887:5971   */\n      tag_121\n      jumpi\n        /* \"#utility.yul\":5943:5961   */\n      tag_122\n      tag_54\n      jump\t// in\n    tag_122:\n        /* \"#utility.yul\":5887:5971   */\n    tag_121:\n        /* \"#utility.yul\":5708:5977   */\n      pop\n        /* \"#utility.yul\":5657:5977   */\n      swap2\n      swap1\n      pop\n      jump\t// out\n\n    auxdata: 0xa2646970667358221220c32b3c1205874bfa5e5e6e8a35d5fcbbc9bdaa6cd2d741c963870ac77960861064736f6c634300080d0033\n}\n",
				"bytecode": {
					"linkReferences": {},
					"object": "608060405234801561001057600080fd5b50610593806100206000396000f3fe608060405234801561001057600080fd5b50600436106100365760003560e01c80632c0621ce1461003b578063eb8ac92114610057575b600080fd5b610055600480360381019061005091906103a4565b610087565b005b610071600480360381019061006c9190610413565b6100c4565b60405161007e91906104db565b60405180910390f35b80600080858152602001908152602001600020600084815260200190815260200160002090805190602001906100be929190610171565b50505050565b60006020528160005260406000206020528060005260406000206000915091505080546100f09061052c565b80601f016020809104026020016040519081016040528092919081815260200182805461011c9061052c565b80156101695780601f1061013e57610100808354040283529160200191610169565b820191906000526020600020905b81548152906001019060200180831161014c57829003601f168201915b505050505081565b82805461017d9061052c565b90600052602060002090601f01602090048101928261019f57600085556101e6565b82601f106101b857805160ff19168380011785556101e6565b828001600101855582156101e6579182015b828111156101e55782518255916020019190600101906101ca565b5b5090506101f391906101f7565b5090565b5b808211156102105760008160009055506001016101f8565b5090565b6000604051905090565b600080fd5b600080fd5b6000819050919050565b61023b81610228565b811461024657600080fd5b50565b60008135905061025881610232565b92915050565b600080fd5b600080fd5b6000601f19601f8301169050919050565b7f4e487b7100000000000000000000000000000000000000000000000000000000600052604160045260246000fd5b6102b182610268565b810181811067ffffffffffffffff821117156102d0576102cf610279565b5b80604052505050565b60006102e3610214565b90506102ef82826102a8565b919050565b600067ffffffffffffffff82111561030f5761030e610279565b5b61031882610268565b9050602081019050919050565b82818337600083830152505050565b6000610347610342846102f4565b6102d9565b90508281526020810184848401111561036357610362610263565b5b61036e848285610325565b509392505050565b600082601f83011261038b5761038a61025e565b5b813561039b848260208601610334565b91505092915050565b6000806000606084860312156103bd576103bc61021e565b5b60006103cb86828701610249565b93505060206103dc86828701610249565b925050604084013567ffffffffffffffff8111156103fd576103fc610223565b5b61040986828701610376565b9150509250925092565b6000806040838503121561042a5761042961021e565b5b600061043885828601610249565b925050602061044985828601610249565b9150509250929050565b600081519050919050565b600082825260208201905092915050565b60005b8381101561048d578082015181840152602081019050610472565b8381111561049c576000848401525b50505050565b60006104ad82610453565b6104b7818561045e565b93506104c781856020860161046f565b6104d081610268565b840191505092915050565b600060208201905081810360008301526104f581846104a2565b905092915050565b7f4e487b7100000000000000000000000000000000000000000000000000000000600052602260045260246000fd5b6000600282049050600182168061054457607f821691505b602082108103610557576105566104fd565b5b5091905056fea2646970667358221220c32b3c1205874bfa5e5e6e8a35d5fcbbc9bdaa6cd2d741c963870ac77960861064736f6c634300080d0033",
					"opcodes": "PUSH1 0x80 PUSH1 0x40 MSTORE CALLVALUE DUP1 ISZERO PUSH2 0x10 JUMPI PUSH1 0x0 DUP1 REVERT JUMPDEST POP PUSH2 0x593 DUP1 PUSH2 0x20 PUSH1 0x0 CODECOPY PUSH1 0x0 RETURN INVALID PUSH1 0x80 PUSH1 0x40 MSTORE CALLVALUE DUP1 ISZERO PUSH2 0x10 JUMPI PUSH1 0x0 DUP1 REVERT JUMPDEST POP PUSH1 0x4 CALLDATASIZE LT PUSH2 0x36 JUMPI PUSH1 0x0 CALLDATALOAD PUSH1 0xE0 SHR DUP1 PUSH4 0x2C0621CE EQ PUSH2 0x3B JUMPI DUP1 PUSH4 0xEB8AC921 EQ PUSH2 0x57 JUMPI JUMPDEST PUSH1 0x0 DUP1 REVERT JUMPDEST PUSH2 0x55 PUSH1 0x4 DUP1 CALLDATASIZE SUB DUP2 ADD SWAP1 PUSH2 0x50 SWAP2 SWAP1 PUSH2 0x3A4 JUMP JUMPDEST PUSH2 0x87 JUMP JUMPDEST STOP JUMPDEST PUSH2 0x71 PUSH1 0x4 DUP1 CALLDATASIZE SUB DUP2 ADD SWAP1 PUSH2 0x6C SWAP2 SWAP1 PUSH2 0x413 JUMP JUMPDEST PUSH2 0xC4 JUMP JUMPDEST PUSH1 0x40 MLOAD PUSH2 0x7E SWAP2 SWAP1 PUSH2 0x4DB JUMP JUMPDEST PUSH1 0x40 MLOAD DUP1 SWAP2 SUB SWAP1 RETURN JUMPDEST DUP1 PUSH1 0x0 DUP1 DUP6 DUP2 MSTORE PUSH1 0x20 ADD SWAP1 DUP2 MSTORE PUSH1 0x20 ADD PUSH1 0x0 KECCAK256 PUSH1 0x0 DUP5 DUP2 MSTORE PUSH1 0x20 ADD SWAP1 DUP2 MSTORE PUSH1 0x20 ADD PUSH1 0x0 KECCAK256 SWAP1 DUP1 MLOAD SWAP1 PUSH1 0x20 ADD SWAP1 PUSH2 0xBE SWAP3 SWAP2 SWAP1 PUSH2 0x171 JUMP JUMPDEST POP POP POP POP JUMP JUMPDEST PUSH1 0x0 PUSH1 0x20 MSTORE DUP2 PUSH1 0x0 MSTORE PUSH1 0x40 PUSH1 0x0 KECCAK256 PUSH1 0x20 MSTORE DUP1 PUSH1 0x0 MSTORE PUSH1 0x40 PUSH1 0x0 KECCAK256 PUSH1 0x0 SWAP2 POP SWAP2 POP POP DUP1 SLOAD PUSH2 0xF0 SWAP1 PUSH2 0x52C JUMP JUMPDEST DUP1 PUSH1 0x1F ADD PUSH1 0x20 DUP1 SWAP2 DIV MUL PUSH1 0x20 ADD PUSH1 0x40 MLOAD SWAP1 DUP2 ADD PUSH1 0x40 MSTORE DUP1 SWAP3 SWAP2 SWAP1 DUP2 DUP2 MSTORE PUSH1 0x20 ADD DUP3 DUP1 SLOAD PUSH2 0x11C SWAP1 PUSH2 0x52C JUMP JUMPDEST DUP1 ISZERO PUSH2 0x169 JUMPI DUP1 PUSH1 0x1F LT PUSH2 0x13E JUMPI PUSH2 0x100 DUP1 DUP4 SLOAD DIV MUL DUP4 MSTORE SWAP2 PUSH1 0x20 ADD SWAP2 PUSH2 0x169 JUMP JUMPDEST DUP3 ADD SWAP2 SWAP1 PUSH1 0x0 MSTORE PUSH1 0x20 PUSH1 0x0 KECCAK256 SWAP1 JUMPDEST DUP2 SLOAD DUP2 MSTORE SWAP1 PUSH1 0x1 ADD SWAP1 PUSH1 0x20 ADD DUP1 DUP4 GT PUSH2 0x14C JUMPI DUP3 SWAP1 SUB PUSH1 0x1F AND DUP3 ADD SWAP2 JUMPDEST POP POP POP POP POP DUP2 JUMP JUMPDEST DUP3 DUP1 SLOAD PUSH2 0x17D SWAP1 PUSH2 0x52C JUMP JUMPDEST SWAP1 PUSH1 0x0 MSTORE PUSH1 0x20 PUSH1 0x0 KECCAK256 SWAP1 PUSH1 0x1F ADD PUSH1 0x20 SWAP1 DIV DUP2 ADD SWAP3 DUP3 PUSH2 0x19F JUMPI PUSH1 0x0 DUP6 SSTORE PUSH2 0x1E6 JUMP JUMPDEST DUP3 PUSH1 0x1F LT PUSH2 0x1B8 JUMPI DUP1 MLOAD PUSH1 0xFF NOT AND DUP4 DUP1 ADD OR DUP6 SSTORE PUSH2 0x1E6 JUMP JUMPDEST DUP3 DUP1 ADD PUSH1 0x1 ADD DUP6 SSTORE DUP3 ISZERO PUSH2 0x1E6 JUMPI SWAP2 DUP3 ADD JUMPDEST DUP3 DUP2 GT ISZERO PUSH2 0x1E5 JUMPI DUP3 MLOAD DUP3 SSTORE SWAP2 PUSH1 0x20 ADD SWAP2 SWAP1 PUSH1 0x1 ADD SWAP1 PUSH2 0x1CA JUMP JUMPDEST JUMPDEST POP SWAP1 POP PUSH2 0x1F3 SWAP2 SWAP1 PUSH2 0x1F7 JUMP JUMPDEST POP SWAP1 JUMP JUMPDEST JUMPDEST DUP1 DUP3 GT ISZERO PUSH2 0x210 JUMPI PUSH1 0x0 DUP2 PUSH1 0x0 SWAP1 SSTORE POP PUSH1 0x1 ADD PUSH2 0x1F8 JUMP JUMPDEST POP SWAP1 JUMP JUMPDEST PUSH1 0x0 PUSH1 0x40 MLOAD SWAP1 POP SWAP1 JUMP JUMPDEST PUSH1 0x0 DUP1 REVERT JUMPDEST PUSH1 0x0 DUP1 REVERT JUMPDEST PUSH1 0x0 DUP2 SWAP1 POP SWAP2 SWAP1 POP JUMP JUMPDEST PUSH2 0x23B DUP2 PUSH2 0x228 JUMP JUMPDEST DUP2 EQ PUSH2 0x246 JUMPI PUSH1 0x0 DUP1 REVERT JUMPDEST POP JUMP JUMPDEST PUSH1 0x0 DUP2 CALLDATALOAD SWAP1 POP PUSH2 0x258 DUP2 PUSH2 0x232 JUMP JUMPDEST SWAP3 SWAP2 POP POP JUMP JUMPDEST PUSH1 0x0 DUP1 REVERT JUMPDEST PUSH1 0x0 DUP1 REVERT JUMPDEST PUSH1 0x0 PUSH1 0x1F NOT PUSH1 0x1F DUP4 ADD AND SWAP1 POP SWAP2 SWAP1 POP JUMP JUMPDEST PUSH32 0x4E487B7100000000000000000000000000000000000000000000000000000000 PUSH1 0x0 MSTORE PUSH1 0x41 PUSH1 0x4 MSTORE PUSH1 0x24 PUSH1 0x0 REVERT JUMPDEST PUSH2 0x2B1 DUP3 PUSH2 0x268 JUMP JUMPDEST DUP2 ADD DUP2 DUP2 LT PUSH8 0xFFFFFFFFFFFFFFFF DUP3 GT OR ISZERO PUSH2 0x2D0 JUMPI PUSH2 0x2CF PUSH2 0x279 JUMP JUMPDEST JUMPDEST DUP1 PUSH1 0x40 MSTORE POP POP POP JUMP JUMPDEST PUSH1 0x0 PUSH2 0x2E3 PUSH2 0x214 JUMP JUMPDEST SWAP1 POP PUSH2 0x2EF DUP3 DUP3 PUSH2 0x2A8 JUMP JUMPDEST SWAP2 SWAP1 POP JUMP JUMPDEST PUSH1 0x0 PUSH8 0xFFFFFFFFFFFFFFFF DUP3 GT ISZERO PUSH2 0x30F JUMPI PUSH2 0x30E PUSH2 0x279 JUMP JUMPDEST JUMPDEST PUSH2 0x318 DUP3 PUSH2 0x268 JUMP JUMPDEST SWAP1 POP PUSH1 0x20 DUP2 ADD SWAP1 POP SWAP2 SWAP1 POP JUMP JUMPDEST DUP3 DUP2 DUP4 CALLDATACOPY PUSH1 0x0 DUP4 DUP4 ADD MSTORE POP POP POP JUMP JUMPDEST PUSH1 0x0 PUSH2 0x347 PUSH2 0x342 DUP5 PUSH2 0x2F4 JUMP JUMPDEST PUSH2 0x2D9 JUMP JUMPDEST SWAP1 POP DUP3 DUP2 MSTORE PUSH1 0x20 DUP2 ADD DUP5 DUP5 DUP5 ADD GT ISZERO PUSH2 0x363 JUMPI PUSH2 0x362 PUSH2 0x263 JUMP JUMPDEST JUMPDEST PUSH2 0x36E DUP5 DUP3 DUP6 PUSH2 0x325 JUMP JUMPDEST POP SWAP4 SWAP3 POP POP POP JUMP JUMPDEST PUSH1 0x0 DUP3 PUSH1 0x1F DUP4 ADD SLT PUSH2 0x38B JUMPI PUSH2 0x38A PUSH2 0x25E JUMP JUMPDEST JUMPDEST DUP2 CALLDATALOAD PUSH2 0x39B DUP5 DUP3 PUSH1 0x20 DUP7 ADD PUSH2 0x334 JUMP JUMPDEST SWAP2 POP POP SWAP3 SWAP2 POP POP JUMP JUMPDEST PUSH1 0x0 DUP1 PUSH1 0x0 PUSH1 0x60 DUP5 DUP7 SUB SLT ISZERO PUSH2 0x3BD JUMPI PUSH2 0x3BC PUSH2 0x21E JUMP JUMPDEST JUMPDEST PUSH1 0x0 PUSH2 0x3CB DUP7 DUP3 DUP8 ADD PUSH2 0x249 JUMP JUMPDEST SWAP4 POP POP PUSH1 0x20 PUSH2 0x3DC DUP7 DUP3 DUP8 ADD PUSH2 0x249 JUMP JUMPDEST SWAP3 POP POP PUSH1 0x40 DUP5 ADD CALLDATALOAD PUSH8 0xFFFFFFFFFFFFFFFF DUP2 GT ISZERO PUSH2 0x3FD JUMPI PUSH2 0x3FC PUSH2 0x223 JUMP JUMPDEST JUMPDEST PUSH2 0x409 DUP7 DUP3 DUP8 ADD PUSH2 0x376 JUMP JUMPDEST SWAP2 POP POP SWAP3 POP SWAP3 POP SWAP3 JUMP JUMPDEST PUSH1 0x0 DUP1 PUSH1 0x40 DUP4 DUP6 SUB SLT ISZERO PUSH2 0x42A JUMPI PUSH2 0x429 PUSH2 0x21E JUMP JUMPDEST JUMPDEST PUSH1 0x0 PUSH2 0x438 DUP6 DUP3 DUP7 ADD PUSH2 0x249 JUMP JUMPDEST SWAP3 POP POP PUSH1 0x20 PUSH2 0x449 DUP6 DUP3 DUP7 ADD PUSH2 0x249 JUMP JUMPDEST SWAP2 POP POP SWAP3 POP SWAP3 SWAP1 POP JUMP JUMPDEST PUSH1 0x0 DUP2 MLOAD SWAP1 POP SWAP2 SWAP1 POP JUMP JUMPDEST PUSH1 0x0 DUP3 DUP3 MSTORE PUSH1 0x20 DUP3 ADD SWAP1 POP SWAP3 SWAP2 POP POP JUMP JUMPDEST PUSH1 0x0 JUMPDEST DUP4 DUP2 LT ISZERO PUSH2 0x48D JUMPI DUP1 DUP3 ADD MLOAD DUP2 DUP5 ADD MSTORE PUSH1 0x20 DUP2 ADD SWAP1 POP PUSH2 0x472 JUMP JUMPDEST DUP4 DUP2 GT ISZERO PUSH2 0x49C JUMPI PUSH1 0x0 DUP5 DUP5 ADD MSTORE JUMPDEST POP POP POP POP JUMP JUMPDEST PUSH1 0x0 PUSH2 0x4AD DUP3 PUSH2 0x453 JUMP JUMPDEST PUSH2 0x4B7 DUP2 DUP6 PUSH2 0x45E JUMP JUMPDEST SWAP4 POP PUSH2 0x4C7 DUP2 DUP6 PUSH1 0x20 DUP7 ADD PUSH2 0x46F JUMP JUMPDEST PUSH2 0x4D0 DUP2 PUSH2 0x268 JUMP JUMPDEST DUP5 ADD SWAP2 POP POP SWAP3 SWAP2 POP POP JUMP JUMPDEST PUSH1 0x0 PUSH1 0x20 DUP3 ADD SWAP1 POP DUP2 DUP2 SUB PUSH1 0x0 DUP4 ADD MSTORE PUSH2 0x4F5 DUP2 DUP5 PUSH2 0x4A2 JUMP JUMPDEST SWAP1 POP SWAP3 SWAP2 POP POP JUMP JUMPDEST PUSH32 0x4E487B7100000000000000000000000000000000000000000000000000000000 PUSH1 0x0 MSTORE PUSH1 0x22 PUSH1 0x4 MSTORE PUSH1 0x24 PUSH1 0x0 REVERT JUMPDEST PUSH1 0x0 PUSH1 0x2 DUP3 DIV SWAP1 POP PUSH1 0x1 DUP3 AND DUP1 PUSH2 0x544 JUMPI PUSH1 0x7F DUP3 AND SWAP2 POP JUMPDEST PUSH1 0x20 DUP3 LT DUP2 SUB PUSH2 0x557 JUMPI PUSH2 0x556 PUSH2 0x4FD JUMP JUMPDEST JUMPDEST POP SWAP2 SWAP1 POP JUMP INVALID LOG2 PUSH5 0x6970667358 0x22 SLT KECCAK256 0xC3 0x2B EXTCODECOPY SLT SDIV DUP8 0x4B STATICCALL 0x5E 0x5E PUSH15 0x8A35D5FCBBC9BDAA6CD2D741C96387 EXP 0xC7 PUSH26 0x60861064736F6C634300080D0033000000000000000000000000 "
				},
				"gasEstimates": {
					"creation": {
						"codeDepositCost": "285400",
						"executionCost": "324",
						"totalCost": "285724"
					},
					"external": {
						"set(uint256,uint256,string)": "infinite",
						"test(uint256,uint256)": "infinite"
					}
				},
				"methodIdentifiers": {
					"set(uint256,uint256,string)": "2c0621ce",
					"test(uint256,uint256)": "eb8ac921"
				}
			},
			"storageLayout": {
				"storage": [
					{
						"astId": 7,
						"contract": ".workspaces/default_workspace/lecture/twoTimeMapping.sol:twoTimeMappintC",
						"label": "test",
						"offset": 0,
						"slot": "0",
						"type": "t_mapping(t_uint256,t_mapping(t_uint256,t_string_storage))"
					}
				],
				"types": {
					"t_mapping(t_uint256,t_mapping(t_uint256,t_string_storage))": {
						"encoding": "mapping",
						"key": "t_uint256",
						"label": "mapping(uint256 => mapping(uint256 => string))",
						"numberOfBytes": "32",
						"value": "t_mapping(t_uint256,t_string_storage)"
					},
					"t_mapping(t_uint256,t_string_storage)": {
						"encoding": "mapping",
						"key": "t_uint256",
						"label": "mapping(uint256 => string)",
						"numberOfBytes": "32",
						"value": "t_string_storage"
					},
					"t_string_storage": {
						"encoding": "bytes",
						"label": "string",
						"numberOfBytes": "32"
					},
					"t_uint256": {
						"encoding": "inplace",
						"label": "uint256",
						"numberOfBytes": "32"
					}
				}
			},
			"userdoc": {
				"kind": "user",
				"methods": {},
				"version": 1
			}
		}
	}
}