{
	"lecture/call.sol": {
		"caller": {
			"abi": [
				{
					"anonymous": false,
					"inputs": [
						{
							"indexed": false,
							"internalType": "bool",
							"name": "_success",
							"type": "bool"
						},
						{
							"indexed": false,
							"internalType": "bytes",
							"name": "_output",
							"type": "bytes"
						}
					],
					"name": "calledFunction",
					"type": "event"
				},
				{
					"inputs": [
						{
							"internalType": "address",
							"name": "_contractAddr",
							"type": "address"
						},
						{
							"internalType": "uint256",
							"name": "_num1",
							"type": "uint256"
						},
						{
							"internalType": "uint256",
							"name": "_num2",
							"type": "uint256"
						}
					],
					"name": "callMethod",
					"outputs": [],
					"stateMutability": "nonpayable",
					"type": "function"
				},
				{
					"inputs": [
						{
							"internalType": "address",
							"name": "_contractAddr",
							"type": "address"
						}
					],
					"name": "callMethod3",
					"outputs": [],
					"stateMutability": "payable",
					"type": "function"
				},
				{
					"inputs": [
						{
							"internalType": "address payable",
							"name": "_to",
							"type": "address"
						}
					],
					"name": "transferEther",
					"outputs": [],
					"stateMutability": "payable",
					"type": "function"
				}
			],
			"devdoc": {
				"kind": "dev",
				"methods": {},
				"version": 1
			},
			"evm": {
				"assembly": "    /* \"lecture/call.sol\":825:2029  contract caller{... */\n  mstore(0x40, 0x80)\n  callvalue\n  dup1\n  iszero\n  tag_1\n  jumpi\n  0x00\n  dup1\n  revert\ntag_1:\n  pop\n  dataSize(sub_0)\n  dup1\n  dataOffset(sub_0)\n  0x00\n  codecopy\n  0x00\n  return\nstop\n\nsub_0: assembly {\n        /* \"lecture/call.sol\":825:2029  contract caller{... */\n      mstore(0x40, 0x80)\n      jumpi(tag_1, lt(calldatasize, 0x04))\n      shr(0xe0, calldataload(0x00))\n      dup1\n      0x6b55e991\n      eq\n      tag_2\n      jumpi\n      dup1\n      0x6bca61b9\n      eq\n      tag_3\n      jumpi\n      dup1\n      0xf41a0b6b\n      eq\n      tag_4\n      jumpi\n    tag_1:\n      0x00\n      dup1\n      revert\n        /* \"lecture/call.sol\":933:1111  function transferEther(address payable _to) public payable{... */\n    tag_2:\n      tag_5\n      0x04\n      dup1\n      calldatasize\n      sub\n      dup2\n      add\n      swap1\n      tag_6\n      swap2\n      swap1\n      tag_7\n      jump\t// in\n    tag_6:\n      tag_8\n      jump\t// in\n    tag_5:\n      stop\n        /* \"lecture/call.sol\":1178:1635  function callMethod(address _contractAddr,uint256 _num1, uint256 _num2) public{... */\n    tag_3:\n      callvalue\n      dup1\n      iszero\n      tag_9\n      jumpi\n      0x00\n      dup1\n      revert\n    tag_9:\n      pop\n      tag_10\n      0x04\n      dup1\n      calldatasize\n      sub\n      dup2\n      add\n      swap1\n      tag_11\n      swap2\n      swap1\n      tag_12\n      jump\t// in\n    tag_11:\n      tag_13\n      jump\t// in\n    tag_10:\n      stop\n        /* \"lecture/call.sol\":1647:2026  function callMethod3(address _contractAddr) public payable{... */\n    tag_4:\n      tag_14\n      0x04\n      dup1\n      calldatasize\n      sub\n      dup2\n      add\n      swap1\n      tag_15\n      swap2\n      swap1\n      tag_16\n      jump\t// in\n    tag_15:\n      tag_17\n      jump\t// in\n    tag_14:\n      stop\n        /* \"lecture/call.sol\":933:1111  function transferEther(address payable _to) public payable{... */\n    tag_8:\n        /* \"lecture/call.sol\":1003:1015  bool success */\n      0x00\n        /* \"lecture/call.sol\":1020:1023  _to */\n      dup2\n        /* \"lecture/call.sol\":1020:1028  _to.call */\n      0xffffffffffffffffffffffffffffffffffffffff\n      and\n        /* \"lecture/call.sol\":1035:1044  msg.value */\n      callvalue\n        /* \"lecture/call.sol\":1020:1049  _to.call{value:msg.value}(\"\") */\n      mload(0x40)\n      tag_19\n      swap1\n      tag_20\n      jump\t// in\n    tag_19:\n      0x00\n      mload(0x40)\n      dup1\n      dup4\n      sub\n      dup2\n      dup6\n      dup8\n      gas\n      call\n      swap3\n      pop\n      pop\n      pop\n      returndatasize\n      dup1\n      0x00\n      dup2\n      eq\n      tag_23\n      jumpi\n      mload(0x40)\n      swap2\n      pop\n      and(add(returndatasize, 0x3f), not(0x1f))\n      dup3\n      add\n      0x40\n      mstore\n      returndatasize\n      dup3\n      mstore\n      returndatasize\n      0x00\n      0x20\n      dup5\n      add\n      returndatacopy\n      jump(tag_22)\n    tag_23:\n      0x60\n      swap2\n      pop\n    tag_22:\n      pop\n        /* \"lecture/call.sol\":1002:1049  (bool success,) = _to.call{value:msg.value}(\"\") */\n      pop\n      swap1\n      pop\n        /* \"lecture/call.sol\":1068:1075  success */\n      dup1\n        /* \"lecture/call.sol\":1060:1103  require(success,\"failed to transfer ether\") */\n      tag_24\n      jumpi\n      mload(0x40)\n      0x08c379a000000000000000000000000000000000000000000000000000000000\n      dup2\n      mstore\n      0x04\n      add\n      tag_25\n      swap1\n      tag_26\n      jump\t// in\n    tag_25:\n      mload(0x40)\n      dup1\n      swap2\n      sub\n      swap1\n      revert\n    tag_24:\n        /* \"lecture/call.sol\":991:1111  {... */\n      pop\n        /* \"lecture/call.sol\":933:1111  function transferEther(address payable _to) public payable{... */\n      pop\n      jump\t// out\n        /* \"lecture/call.sol\":1178:1635  function callMethod(address _contractAddr,uint256 _num1, uint256 _num2) public{... */\n    tag_13:\n        /* \"lecture/call.sol\":1324:1336  bool success */\n      0x00\n        /* \"lecture/call.sol\":1338:1375  bytes memory outputFromCalledFunction */\n      dup1\n        /* \"lecture/call.sol\":1379:1392  _contractAddr */\n      dup5\n        /* \"lecture/call.sol\":1379:1397  _contractAddr.call */\n      0xffffffffffffffffffffffffffffffffffffffff\n      and\n        /* \"lecture/call.sol\":1466:1471  _num1 */\n      dup5\n        /* \"lecture/call.sol\":1472:1477  _num2 */\n      dup5\n        /* \"lecture/call.sol\":1413:1478  abi.encodeWithSignature(\"addNumber(uint256,uint256)\",_num1,_num2) */\n      add(0x24, mload(0x40))\n      tag_28\n      swap3\n      swap2\n      swap1\n      tag_29\n      jump\t// in\n    tag_28:\n      mload(0x40)\n      0x20\n      dup2\n      dup4\n      sub\n      sub\n      dup2\n      mstore\n      swap1\n      0x40\n      mstore\n      and(not(0xffffffffffffffffffffffffffffffffffffffffffffffffffffffff), 0x0f3d020400000000000000000000000000000000000000000000000000000000)\n      0x20\n      dup3\n      add\n      dup1\n      mload\n      0xffffffffffffffffffffffffffffffffffffffffffffffffffffffff\n      dup4\n      dup2\n      dup4\n      and\n      or\n      dup4\n      mstore\n      pop\n      pop\n      pop\n      pop\n        /* \"lecture/call.sol\":1379:1493  _contractAddr.call(... */\n      mload(0x40)\n      tag_30\n      swap2\n      swap1\n      tag_31\n      jump\t// in\n    tag_30:\n      0x00\n      mload(0x40)\n      dup1\n      dup4\n      sub\n      dup2\n      0x00\n      dup7\n      gas\n      call\n      swap2\n      pop\n      pop\n      returndatasize\n      dup1\n      0x00\n      dup2\n      eq\n      tag_34\n      jumpi\n      mload(0x40)\n      swap2\n      pop\n      and(add(returndatasize, 0x3f), not(0x1f))\n      dup3\n      add\n      0x40\n      mstore\n      returndatasize\n      dup3\n      mstore\n      returndatasize\n      0x00\n      0x20\n      dup5\n      add\n      returndatacopy\n      jump(tag_33)\n    tag_34:\n      0x60\n      swap2\n      pop\n    tag_33:\n      pop\n        /* \"lecture/call.sol\":1323:1493  (bool success, bytes memory outputFromCalledFunction) = _contractAddr.call(... */\n      swap2\n      pop\n      swap2\n      pop\n        /* \"lecture/call.sol\":1528:1535  success */\n      dup2\n        /* \"lecture/call.sol\":1520:1563  require(success,\"failed to transfer ether\") */\n      tag_35\n      jumpi\n      mload(0x40)\n      0x08c379a000000000000000000000000000000000000000000000000000000000\n      dup2\n      mstore\n      0x04\n      add\n      tag_36\n      swap1\n      tag_26\n      jump\t// in\n    tag_36:\n      mload(0x40)\n      dup1\n      swap2\n      sub\n      swap1\n      revert\n    tag_35:\n        /* \"lecture/call.sol\":1579:1627  calledFunction(success,outputFromCalledFunction) */\n      0x80360304bd82b2c0e319d3e23ce5c7dea2dce952fb2b6bc695a70153f96d93d4\n        /* \"lecture/call.sol\":1594:1601  success */\n      dup3\n        /* \"lecture/call.sol\":1602:1626  outputFromCalledFunction */\n      dup3\n        /* \"lecture/call.sol\":1579:1627  calledFunction(success,outputFromCalledFunction) */\n      mload(0x40)\n      tag_37\n      swap3\n      swap2\n      swap1\n      tag_38\n      jump\t// in\n    tag_37:\n      mload(0x40)\n      dup1\n      swap2\n      sub\n      swap1\n      log1\n        /* \"lecture/call.sol\":1256:1635  {... */\n      pop\n      pop\n        /* \"lecture/call.sol\":1178:1635  function callMethod(address _contractAddr,uint256 _num1, uint256 _num2) public{... */\n      pop\n      pop\n      pop\n      jump\t// out\n        /* \"lecture/call.sol\":1647:2026  function callMethod3(address _contractAddr) public payable{... */\n    tag_17:\n        /* \"lecture/call.sol\":1727:1739  bool success */\n      0x00\n        /* \"lecture/call.sol\":1741:1778  bytes memory outputFromCalledFunction */\n      dup1\n        /* \"lecture/call.sol\":1782:1795  _contractAddr */\n      dup3\n        /* \"lecture/call.sol\":1782:1800  _contractAddr.call */\n      0xffffffffffffffffffffffffffffffffffffffff\n      and\n        /* \"lecture/call.sol\":1807:1816  msg.value */\n      callvalue\n        /* \"lecture/call.sol\":1833:1869  abi.encodeWithSignature(\"Nothing()\") */\n      add(0x24, mload(0x40))\n      mload(0x40)\n      0x20\n      dup2\n      dup4\n      sub\n      sub\n      dup2\n      mstore\n      swap1\n      0x40\n      mstore\n      and(not(0xffffffffffffffffffffffffffffffffffffffffffffffffffffffff), 0xf9820cc100000000000000000000000000000000000000000000000000000000)\n      0x20\n      dup3\n      add\n      dup1\n      mload\n      0xffffffffffffffffffffffffffffffffffffffffffffffffffffffff\n      dup4\n      dup2\n      dup4\n      and\n      or\n      dup4\n      mstore\n      pop\n      pop\n      pop\n      pop\n        /* \"lecture/call.sol\":1782:1884  _contractAddr.call{value:msg.value}(... */\n      mload(0x40)\n      tag_40\n      swap2\n      swap1\n      tag_31\n      jump\t// in\n    tag_40:\n      0x00\n      mload(0x40)\n      dup1\n      dup4\n      sub\n      dup2\n      dup6\n      dup8\n      gas\n      call\n      swap3\n      pop\n      pop\n      pop\n      returndatasize\n      dup1\n      0x00\n      dup2\n      eq\n      tag_43\n      jumpi\n      mload(0x40)\n      swap2\n      pop\n      and(add(returndatasize, 0x3f), not(0x1f))\n      dup3\n      add\n      0x40\n      mstore\n      returndatasize\n      dup3\n      mstore\n      returndatasize\n      0x00\n      0x20\n      dup5\n      add\n      returndatacopy\n      jump(tag_42)\n    tag_43:\n      0x60\n      swap2\n      pop\n    tag_42:\n      pop\n        /* \"lecture/call.sol\":1726:1884  (bool success, bytes memory outputFromCalledFunction) = _contractAddr.call{value:msg.value}(... */\n      swap2\n      pop\n      swap2\n      pop\n        /* \"lecture/call.sol\":1919:1926  success */\n      dup2\n        /* \"lecture/call.sol\":1911:1954  require(success,\"failed to transfer ether\") */\n      tag_44\n      jumpi\n      mload(0x40)\n      0x08c379a000000000000000000000000000000000000000000000000000000000\n      dup2\n      mstore\n      0x04\n      add\n      tag_45\n      swap1\n      tag_26\n      jump\t// in\n    tag_45:\n      mload(0x40)\n      dup1\n      swap2\n      sub\n      swap1\n      revert\n    tag_44:\n        /* \"lecture/call.sol\":1970:2018  calledFunction(success,outputFromCalledFunction) */\n      0x80360304bd82b2c0e319d3e23ce5c7dea2dce952fb2b6bc695a70153f96d93d4\n        /* \"lecture/call.sol\":1985:1992  success */\n      dup3\n        /* \"lecture/call.sol\":1993:2017  outputFromCalledFunction */\n      dup3\n        /* \"lecture/call.sol\":1970:2018  calledFunction(success,outputFromCalledFunction) */\n      mload(0x40)\n      tag_46\n      swap3\n      swap2\n      swap1\n      tag_38\n      jump\t// in\n    tag_46:\n      mload(0x40)\n      dup1\n      swap2\n      sub\n      swap1\n      log1\n        /* \"lecture/call.sol\":1705:2026  {... */\n      pop\n      pop\n        /* \"lecture/call.sol\":1647:2026  function callMethod3(address _contractAddr) public payable{... */\n      pop\n      jump\t// out\n        /* \"#utility.yul\":88:205   */\n    tag_48:\n        /* \"#utility.yul\":197:198   */\n      0x00\n        /* \"#utility.yul\":194:195   */\n      dup1\n        /* \"#utility.yul\":187:199   */\n      revert\n        /* \"#utility.yul\":334:460   */\n    tag_50:\n        /* \"#utility.yul\":371:378   */\n      0x00\n        /* \"#utility.yul\":411:453   */\n      0xffffffffffffffffffffffffffffffffffffffff\n        /* \"#utility.yul\":404:409   */\n      dup3\n        /* \"#utility.yul\":400:454   */\n      and\n        /* \"#utility.yul\":389:454   */\n      swap1\n      pop\n        /* \"#utility.yul\":334:460   */\n      swap2\n      swap1\n      pop\n      jump\t// out\n        /* \"#utility.yul\":466:570   */\n    tag_51:\n        /* \"#utility.yul\":511:518   */\n      0x00\n        /* \"#utility.yul\":540:564   */\n      tag_81\n        /* \"#utility.yul\":558:563   */\n      dup3\n        /* \"#utility.yul\":540:564   */\n      tag_50\n      jump\t// in\n    tag_81:\n        /* \"#utility.yul\":529:564   */\n      swap1\n      pop\n        /* \"#utility.yul\":466:570   */\n      swap2\n      swap1\n      pop\n      jump\t// out\n        /* \"#utility.yul\":576:714   */\n    tag_52:\n        /* \"#utility.yul\":657:689   */\n      tag_83\n        /* \"#utility.yul\":683:688   */\n      dup2\n        /* \"#utility.yul\":657:689   */\n      tag_51\n      jump\t// in\n    tag_83:\n        /* \"#utility.yul\":650:655   */\n      dup2\n        /* \"#utility.yul\":647:690   */\n      eq\n        /* \"#utility.yul\":637:708   */\n      tag_84\n      jumpi\n        /* \"#utility.yul\":704:705   */\n      0x00\n        /* \"#utility.yul\":701:702   */\n      dup1\n        /* \"#utility.yul\":694:706   */\n      revert\n        /* \"#utility.yul\":637:708   */\n    tag_84:\n        /* \"#utility.yul\":576:714   */\n      pop\n      jump\t// out\n        /* \"#utility.yul\":720:875   */\n    tag_53:\n        /* \"#utility.yul\":774:779   */\n      0x00\n        /* \"#utility.yul\":812:818   */\n      dup2\n        /* \"#utility.yul\":799:819   */\n      calldataload\n        /* \"#utility.yul\":790:819   */\n      swap1\n      pop\n        /* \"#utility.yul\":828:869   */\n      tag_86\n        /* \"#utility.yul\":863:868   */\n      dup2\n        /* \"#utility.yul\":828:869   */\n      tag_52\n      jump\t// in\n    tag_86:\n        /* \"#utility.yul\":720:875   */\n      swap3\n      swap2\n      pop\n      pop\n      jump\t// out\n        /* \"#utility.yul\":881:1226   */\n    tag_7:\n        /* \"#utility.yul\":948:954   */\n      0x00\n        /* \"#utility.yul\":997:999   */\n      0x20\n        /* \"#utility.yul\":985:994   */\n      dup3\n        /* \"#utility.yul\":976:983   */\n      dup5\n        /* \"#utility.yul\":972:995   */\n      sub\n        /* \"#utility.yul\":968:1000   */\n      slt\n        /* \"#utility.yul\":965:1084   */\n      iszero\n      tag_88\n      jumpi\n        /* \"#utility.yul\":1003:1082   */\n      tag_89\n      tag_48\n      jump\t// in\n    tag_89:\n        /* \"#utility.yul\":965:1084   */\n    tag_88:\n        /* \"#utility.yul\":1123:1124   */\n      0x00\n        /* \"#utility.yul\":1148:1209   */\n      tag_90\n        /* \"#utility.yul\":1201:1208   */\n      dup5\n        /* \"#utility.yul\":1192:1198   */\n      dup3\n        /* \"#utility.yul\":1181:1190   */\n      dup6\n        /* \"#utility.yul\":1177:1199   */\n      add\n        /* \"#utility.yul\":1148:1209   */\n      tag_53\n      jump\t// in\n    tag_90:\n        /* \"#utility.yul\":1138:1209   */\n      swap2\n      pop\n        /* \"#utility.yul\":1094:1219   */\n      pop\n        /* \"#utility.yul\":881:1226   */\n      swap3\n      swap2\n      pop\n      pop\n      jump\t// out\n        /* \"#utility.yul\":1232:1328   */\n    tag_54:\n        /* \"#utility.yul\":1269:1276   */\n      0x00\n        /* \"#utility.yul\":1298:1322   */\n      tag_92\n        /* \"#utility.yul\":1316:1321   */\n      dup3\n        /* \"#utility.yul\":1298:1322   */\n      tag_50\n      jump\t// in\n    tag_92:\n        /* \"#utility.yul\":1287:1322   */\n      swap1\n      pop\n        /* \"#utility.yul\":1232:1328   */\n      swap2\n      swap1\n      pop\n      jump\t// out\n        /* \"#utility.yul\":1334:1456   */\n    tag_55:\n        /* \"#utility.yul\":1407:1431   */\n      tag_94\n        /* \"#utility.yul\":1425:1430   */\n      dup2\n        /* \"#utility.yul\":1407:1431   */\n      tag_54\n      jump\t// in\n    tag_94:\n        /* \"#utility.yul\":1400:1405   */\n      dup2\n        /* \"#utility.yul\":1397:1432   */\n      eq\n        /* \"#utility.yul\":1387:1450   */\n      tag_95\n      jumpi\n        /* \"#utility.yul\":1446:1447   */\n      0x00\n        /* \"#utility.yul\":1443:1444   */\n      dup1\n        /* \"#utility.yul\":1436:1448   */\n      revert\n        /* \"#utility.yul\":1387:1450   */\n    tag_95:\n        /* \"#utility.yul\":1334:1456   */\n      pop\n      jump\t// out\n        /* \"#utility.yul\":1462:1601   */\n    tag_56:\n        /* \"#utility.yul\":1508:1513   */\n      0x00\n        /* \"#utility.yul\":1546:1552   */\n      dup2\n        /* \"#utility.yul\":1533:1553   */\n      calldataload\n        /* \"#utility.yul\":1524:1553   */\n      swap1\n      pop\n        /* \"#utility.yul\":1562:1595   */\n      tag_97\n        /* \"#utility.yul\":1589:1594   */\n      dup2\n        /* \"#utility.yul\":1562:1595   */\n      tag_55\n      jump\t// in\n    tag_97:\n        /* \"#utility.yul\":1462:1601   */\n      swap3\n      swap2\n      pop\n      pop\n      jump\t// out\n        /* \"#utility.yul\":1607:1684   */\n    tag_57:\n        /* \"#utility.yul\":1644:1651   */\n      0x00\n        /* \"#utility.yul\":1673:1678   */\n      dup2\n        /* \"#utility.yul\":1662:1678   */\n      swap1\n      pop\n        /* \"#utility.yul\":1607:1684   */\n      swap2\n      swap1\n      pop\n      jump\t// out\n        /* \"#utility.yul\":1690:1812   */\n    tag_58:\n        /* \"#utility.yul\":1763:1787   */\n      tag_100\n        /* \"#utility.yul\":1781:1786   */\n      dup2\n        /* \"#utility.yul\":1763:1787   */\n      tag_57\n      jump\t// in\n    tag_100:\n        /* \"#utility.yul\":1756:1761   */\n      dup2\n        /* \"#utility.yul\":1753:1788   */\n      eq\n        /* \"#utility.yul\":1743:1806   */\n      tag_101\n      jumpi\n        /* \"#utility.yul\":1802:1803   */\n      0x00\n        /* \"#utility.yul\":1799:1800   */\n      dup1\n        /* \"#utility.yul\":1792:1804   */\n      revert\n        /* \"#utility.yul\":1743:1806   */\n    tag_101:\n        /* \"#utility.yul\":1690:1812   */\n      pop\n      jump\t// out\n        /* \"#utility.yul\":1818:1957   */\n    tag_59:\n        /* \"#utility.yul\":1864:1869   */\n      0x00\n        /* \"#utility.yul\":1902:1908   */\n      dup2\n        /* \"#utility.yul\":1889:1909   */\n      calldataload\n        /* \"#utility.yul\":1880:1909   */\n      swap1\n      pop\n        /* \"#utility.yul\":1918:1951   */\n      tag_103\n        /* \"#utility.yul\":1945:1950   */\n      dup2\n        /* \"#utility.yul\":1918:1951   */\n      tag_58\n      jump\t// in\n    tag_103:\n        /* \"#utility.yul\":1818:1957   */\n      swap3\n      swap2\n      pop\n      pop\n      jump\t// out\n        /* \"#utility.yul\":1963:2582   */\n    tag_12:\n        /* \"#utility.yul\":2040:2046   */\n      0x00\n        /* \"#utility.yul\":2048:2054   */\n      dup1\n        /* \"#utility.yul\":2056:2062   */\n      0x00\n        /* \"#utility.yul\":2105:2107   */\n      0x60\n        /* \"#utility.yul\":2093:2102   */\n      dup5\n        /* \"#utility.yul\":2084:2091   */\n      dup7\n        /* \"#utility.yul\":2080:2103   */\n      sub\n        /* \"#utility.yul\":2076:2108   */\n      slt\n        /* \"#utility.yul\":2073:2192   */\n      iszero\n      tag_105\n      jumpi\n        /* \"#utility.yul\":2111:2190   */\n      tag_106\n      tag_48\n      jump\t// in\n    tag_106:\n        /* \"#utility.yul\":2073:2192   */\n    tag_105:\n        /* \"#utility.yul\":2231:2232   */\n      0x00\n        /* \"#utility.yul\":2256:2309   */\n      tag_107\n        /* \"#utility.yul\":2301:2308   */\n      dup7\n        /* \"#utility.yul\":2292:2298   */\n      dup3\n        /* \"#utility.yul\":2281:2290   */\n      dup8\n        /* \"#utility.yul\":2277:2299   */\n      add\n        /* \"#utility.yul\":2256:2309   */\n      tag_56\n      jump\t// in\n    tag_107:\n        /* \"#utility.yul\":2246:2309   */\n      swap4\n      pop\n        /* \"#utility.yul\":2202:2319   */\n      pop\n        /* \"#utility.yul\":2358:2360   */\n      0x20\n        /* \"#utility.yul\":2384:2437   */\n      tag_108\n        /* \"#utility.yul\":2429:2436   */\n      dup7\n        /* \"#utility.yul\":2420:2426   */\n      dup3\n        /* \"#utility.yul\":2409:2418   */\n      dup8\n        /* \"#utility.yul\":2405:2427   */\n      add\n        /* \"#utility.yul\":2384:2437   */\n      tag_59\n      jump\t// in\n    tag_108:\n        /* \"#utility.yul\":2374:2437   */\n      swap3\n      pop\n        /* \"#utility.yul\":2329:2447   */\n      pop\n        /* \"#utility.yul\":2486:2488   */\n      0x40\n        /* \"#utility.yul\":2512:2565   */\n      tag_109\n        /* \"#utility.yul\":2557:2564   */\n      dup7\n        /* \"#utility.yul\":2548:2554   */\n      dup3\n        /* \"#utility.yul\":2537:2546   */\n      dup8\n        /* \"#utility.yul\":2533:2555   */\n      add\n        /* \"#utility.yul\":2512:2565   */\n      tag_59\n      jump\t// in\n    tag_109:\n        /* \"#utility.yul\":2502:2565   */\n      swap2\n      pop\n        /* \"#utility.yul\":2457:2575   */\n      pop\n        /* \"#utility.yul\":1963:2582   */\n      swap3\n      pop\n      swap3\n      pop\n      swap3\n      jump\t// out\n        /* \"#utility.yul\":2588:2917   */\n    tag_16:\n        /* \"#utility.yul\":2647:2653   */\n      0x00\n        /* \"#utility.yul\":2696:2698   */\n      0x20\n        /* \"#utility.yul\":2684:2693   */\n      dup3\n        /* \"#utility.yul\":2675:2682   */\n      dup5\n        /* \"#utility.yul\":2671:2694   */\n      sub\n        /* \"#utility.yul\":2667:2699   */\n      slt\n        /* \"#utility.yul\":2664:2783   */\n      iszero\n      tag_111\n      jumpi\n        /* \"#utility.yul\":2702:2781   */\n      tag_112\n      tag_48\n      jump\t// in\n    tag_112:\n        /* \"#utility.yul\":2664:2783   */\n    tag_111:\n        /* \"#utility.yul\":2822:2823   */\n      0x00\n        /* \"#utility.yul\":2847:2900   */\n      tag_113\n        /* \"#utility.yul\":2892:2899   */\n      dup5\n        /* \"#utility.yul\":2883:2889   */\n      dup3\n        /* \"#utility.yul\":2872:2881   */\n      dup6\n        /* \"#utility.yul\":2868:2890   */\n      add\n        /* \"#utility.yul\":2847:2900   */\n      tag_56\n      jump\t// in\n    tag_113:\n        /* \"#utility.yul\":2837:2900   */\n      swap2\n      pop\n        /* \"#utility.yul\":2793:2910   */\n      pop\n        /* \"#utility.yul\":2588:2917   */\n      swap3\n      swap2\n      pop\n      pop\n      jump\t// out\n        /* \"#utility.yul\":2923:3070   */\n    tag_60:\n        /* \"#utility.yul\":3024:3035   */\n      0x00\n        /* \"#utility.yul\":3061:3064   */\n      dup2\n        /* \"#utility.yul\":3046:3064   */\n      swap1\n      pop\n        /* \"#utility.yul\":2923:3070   */\n      swap3\n      swap2\n      pop\n      pop\n      jump\t// out\n        /* \"#utility.yul\":3076:3190   */\n    tag_61:\n      pop\n      jump\t// out\n        /* \"#utility.yul\":3196:3594   */\n    tag_62:\n        /* \"#utility.yul\":3355:3358   */\n      0x00\n        /* \"#utility.yul\":3376:3459   */\n      tag_117\n        /* \"#utility.yul\":3457:3458   */\n      0x00\n        /* \"#utility.yul\":3452:3455   */\n      dup4\n        /* \"#utility.yul\":3376:3459   */\n      tag_60\n      jump\t// in\n    tag_117:\n        /* \"#utility.yul\":3369:3459   */\n      swap2\n      pop\n        /* \"#utility.yul\":3468:3561   */\n      tag_118\n        /* \"#utility.yul\":3557:3560   */\n      dup3\n        /* \"#utility.yul\":3468:3561   */\n      tag_61\n      jump\t// in\n    tag_118:\n        /* \"#utility.yul\":3586:3587   */\n      0x00\n        /* \"#utility.yul\":3581:3584   */\n      dup3\n        /* \"#utility.yul\":3577:3588   */\n      add\n        /* \"#utility.yul\":3570:3588   */\n      swap1\n      pop\n        /* \"#utility.yul\":3196:3594   */\n      swap2\n      swap1\n      pop\n      jump\t// out\n        /* \"#utility.yul\":3600:3979   */\n    tag_20:\n        /* \"#utility.yul\":3784:3787   */\n      0x00\n        /* \"#utility.yul\":3806:3953   */\n      tag_120\n        /* \"#utility.yul\":3949:3952   */\n      dup3\n        /* \"#utility.yul\":3806:3953   */\n      tag_62\n      jump\t// in\n    tag_120:\n        /* \"#utility.yul\":3799:3953   */\n      swap2\n      pop\n        /* \"#utility.yul\":3970:3973   */\n      dup2\n        /* \"#utility.yul\":3963:3973   */\n      swap1\n      pop\n        /* \"#utility.yul\":3600:3979   */\n      swap2\n      swap1\n      pop\n      jump\t// out\n        /* \"#utility.yul\":3985:4154   */\n    tag_63:\n        /* \"#utility.yul\":4069:4080   */\n      0x00\n        /* \"#utility.yul\":4103:4109   */\n      dup3\n        /* \"#utility.yul\":4098:4101   */\n      dup3\n        /* \"#utility.yul\":4091:4110   */\n      mstore\n        /* \"#utility.yul\":4143:4147   */\n      0x20\n        /* \"#utility.yul\":4138:4141   */\n      dup3\n        /* \"#utility.yul\":4134:4148   */\n      add\n        /* \"#utility.yul\":4119:4148   */\n      swap1\n      pop\n        /* \"#utility.yul\":3985:4154   */\n      swap3\n      swap2\n      pop\n      pop\n      jump\t// out\n        /* \"#utility.yul\":4160:4334   */\n    tag_64:\n        /* \"#utility.yul\":4300:4326   */\n      0x6661696c656420746f207472616e736665722065746865720000000000000000\n        /* \"#utility.yul\":4296:4297   */\n      0x00\n        /* \"#utility.yul\":4288:4294   */\n      dup3\n        /* \"#utility.yul\":4284:4298   */\n      add\n        /* \"#utility.yul\":4277:4327   */\n      mstore\n        /* \"#utility.yul\":4160:4334   */\n      pop\n      jump\t// out\n        /* \"#utility.yul\":4340:4706   */\n    tag_65:\n        /* \"#utility.yul\":4482:4485   */\n      0x00\n        /* \"#utility.yul\":4503:4570   */\n      tag_124\n        /* \"#utility.yul\":4567:4569   */\n      0x18\n        /* \"#utility.yul\":4562:4565   */\n      dup4\n        /* \"#utility.yul\":4503:4570   */\n      tag_63\n      jump\t// in\n    tag_124:\n        /* \"#utility.yul\":4496:4570   */\n      swap2\n      pop\n        /* \"#utility.yul\":4579:4672   */\n      tag_125\n        /* \"#utility.yul\":4668:4671   */\n      dup3\n        /* \"#utility.yul\":4579:4672   */\n      tag_64\n      jump\t// in\n    tag_125:\n        /* \"#utility.yul\":4697:4699   */\n      0x20\n        /* \"#utility.yul\":4692:4695   */\n      dup3\n        /* \"#utility.yul\":4688:4700   */\n      add\n        /* \"#utility.yul\":4681:4700   */\n      swap1\n      pop\n        /* \"#utility.yul\":4340:4706   */\n      swap2\n      swap1\n      pop\n      jump\t// out\n        /* \"#utility.yul\":4712:5131   */\n    tag_26:\n        /* \"#utility.yul\":4878:4882   */\n      0x00\n        /* \"#utility.yul\":4916:4918   */\n      0x20\n        /* \"#utility.yul\":4905:4914   */\n      dup3\n        /* \"#utility.yul\":4901:4919   */\n      add\n        /* \"#utility.yul\":4893:4919   */\n      swap1\n      pop\n        /* \"#utility.yul\":4965:4974   */\n      dup2\n        /* \"#utility.yul\":4959:4963   */\n      dup2\n        /* \"#utility.yul\":4955:4975   */\n      sub\n        /* \"#utility.yul\":4951:4952   */\n      0x00\n        /* \"#utility.yul\":4940:4949   */\n      dup4\n        /* \"#utility.yul\":4936:4953   */\n      add\n        /* \"#utility.yul\":4929:4976   */\n      mstore\n        /* \"#utility.yul\":4993:5124   */\n      tag_127\n        /* \"#utility.yul\":5119:5123   */\n      dup2\n        /* \"#utility.yul\":4993:5124   */\n      tag_65\n      jump\t// in\n    tag_127:\n        /* \"#utility.yul\":4985:5124   */\n      swap1\n      pop\n        /* \"#utility.yul\":4712:5131   */\n      swap2\n      swap1\n      pop\n      jump\t// out\n        /* \"#utility.yul\":5137:5255   */\n    tag_66:\n        /* \"#utility.yul\":5224:5248   */\n      tag_129\n        /* \"#utility.yul\":5242:5247   */\n      dup2\n        /* \"#utility.yul\":5224:5248   */\n      tag_57\n      jump\t// in\n    tag_129:\n        /* \"#utility.yul\":5219:5222   */\n      dup3\n        /* \"#utility.yul\":5212:5249   */\n      mstore\n        /* \"#utility.yul\":5137:5255   */\n      pop\n      pop\n      jump\t// out\n        /* \"#utility.yul\":5261:5593   */\n    tag_29:\n        /* \"#utility.yul\":5382:5386   */\n      0x00\n        /* \"#utility.yul\":5420:5422   */\n      0x40\n        /* \"#utility.yul\":5409:5418   */\n      dup3\n        /* \"#utility.yul\":5405:5423   */\n      add\n        /* \"#utility.yul\":5397:5423   */\n      swap1\n      pop\n        /* \"#utility.yul\":5433:5504   */\n      tag_131\n        /* \"#utility.yul\":5501:5502   */\n      0x00\n        /* \"#utility.yul\":5490:5499   */\n      dup4\n        /* \"#utility.yul\":5486:5503   */\n      add\n        /* \"#utility.yul\":5477:5483   */\n      dup6\n        /* \"#utility.yul\":5433:5504   */\n      tag_66\n      jump\t// in\n    tag_131:\n        /* \"#utility.yul\":5514:5586   */\n      tag_132\n        /* \"#utility.yul\":5582:5584   */\n      0x20\n        /* \"#utility.yul\":5571:5580   */\n      dup4\n        /* \"#utility.yul\":5567:5585   */\n      add\n        /* \"#utility.yul\":5558:5564   */\n      dup5\n        /* \"#utility.yul\":5514:5586   */\n      tag_66\n      jump\t// in\n    tag_132:\n        /* \"#utility.yul\":5261:5593   */\n      swap4\n      swap3\n      pop\n      pop\n      pop\n      jump\t// out\n        /* \"#utility.yul\":5599:5697   */\n    tag_67:\n        /* \"#utility.yul\":5650:5656   */\n      0x00\n        /* \"#utility.yul\":5684:5689   */\n      dup2\n        /* \"#utility.yul\":5678:5690   */\n      mload\n        /* \"#utility.yul\":5668:5690   */\n      swap1\n      pop\n        /* \"#utility.yul\":5599:5697   */\n      swap2\n      swap1\n      pop\n      jump\t// out\n        /* \"#utility.yul\":5703:6010   */\n    tag_68:\n        /* \"#utility.yul\":5771:5772   */\n      0x00\n        /* \"#utility.yul\":5781:5894   */\n    tag_135:\n        /* \"#utility.yul\":5795:5801   */\n      dup4\n        /* \"#utility.yul\":5792:5793   */\n      dup2\n        /* \"#utility.yul\":5789:5802   */\n      lt\n        /* \"#utility.yul\":5781:5894   */\n      iszero\n      tag_137\n      jumpi\n        /* \"#utility.yul\":5880:5881   */\n      dup1\n        /* \"#utility.yul\":5875:5878   */\n      dup3\n        /* \"#utility.yul\":5871:5882   */\n      add\n        /* \"#utility.yul\":5865:5883   */\n      mload\n        /* \"#utility.yul\":5861:5862   */\n      dup2\n        /* \"#utility.yul\":5856:5859   */\n      dup5\n        /* \"#utility.yul\":5852:5863   */\n      add\n        /* \"#utility.yul\":5845:5884   */\n      mstore\n        /* \"#utility.yul\":5817:5819   */\n      0x20\n        /* \"#utility.yul\":5814:5815   */\n      dup2\n        /* \"#utility.yul\":5810:5820   */\n      add\n        /* \"#utility.yul\":5805:5820   */\n      swap1\n      pop\n        /* \"#utility.yul\":5781:5894   */\n      jump(tag_135)\n    tag_137:\n        /* \"#utility.yul\":5912:5918   */\n      dup4\n        /* \"#utility.yul\":5909:5910   */\n      dup2\n        /* \"#utility.yul\":5906:5919   */\n      gt\n        /* \"#utility.yul\":5903:6004   */\n      iszero\n      tag_138\n      jumpi\n        /* \"#utility.yul\":5992:5993   */\n      0x00\n        /* \"#utility.yul\":5983:5989   */\n      dup5\n        /* \"#utility.yul\":5978:5981   */\n      dup5\n        /* \"#utility.yul\":5974:5990   */\n      add\n        /* \"#utility.yul\":5967:5994   */\n      mstore\n        /* \"#utility.yul\":5903:6004   */\n    tag_138:\n        /* \"#utility.yul\":5752:6010   */\n      pop\n        /* \"#utility.yul\":5703:6010   */\n      pop\n      pop\n      pop\n      jump\t// out\n        /* \"#utility.yul\":6016:6389   */\n    tag_69:\n        /* \"#utility.yul\":6120:6123   */\n      0x00\n        /* \"#utility.yul\":6148:6186   */\n      tag_140\n        /* \"#utility.yul\":6180:6185   */\n      dup3\n        /* \"#utility.yul\":6148:6186   */\n      tag_67\n      jump\t// in\n    tag_140:\n        /* \"#utility.yul\":6202:6290   */\n      tag_141\n        /* \"#utility.yul\":6283:6289   */\n      dup2\n        /* \"#utility.yul\":6278:6281   */\n      dup6\n        /* \"#utility.yul\":6202:6290   */\n      tag_60\n      jump\t// in\n    tag_141:\n        /* \"#utility.yul\":6195:6290   */\n      swap4\n      pop\n        /* \"#utility.yul\":6299:6351   */\n      tag_142\n        /* \"#utility.yul\":6344:6350   */\n      dup2\n        /* \"#utility.yul\":6339:6342   */\n      dup6\n        /* \"#utility.yul\":6332:6336   */\n      0x20\n        /* \"#utility.yul\":6325:6330   */\n      dup7\n        /* \"#utility.yul\":6321:6337   */\n      add\n        /* \"#utility.yul\":6299:6351   */\n      tag_68\n      jump\t// in\n    tag_142:\n        /* \"#utility.yul\":6376:6382   */\n      dup1\n        /* \"#utility.yul\":6371:6374   */\n      dup5\n        /* \"#utility.yul\":6367:6383   */\n      add\n        /* \"#utility.yul\":6360:6383   */\n      swap2\n      pop\n        /* \"#utility.yul\":6124:6389   */\n      pop\n        /* \"#utility.yul\":6016:6389   */\n      swap3\n      swap2\n      pop\n      pop\n      jump\t// out\n        /* \"#utility.yul\":6395:6666   */\n    tag_31:\n        /* \"#utility.yul\":6525:6528   */\n      0x00\n        /* \"#utility.yul\":6547:6640   */\n      tag_144\n        /* \"#utility.yul\":6636:6639   */\n      dup3\n        /* \"#utility.yul\":6627:6633   */\n      dup5\n        /* \"#utility.yul\":6547:6640   */\n      tag_69\n      jump\t// in\n    tag_144:\n        /* \"#utility.yul\":6540:6640   */\n      swap2\n      pop\n        /* \"#utility.yul\":6657:6660   */\n      dup2\n        /* \"#utility.yul\":6650:6660   */\n      swap1\n      pop\n        /* \"#utility.yul\":6395:6666   */\n      swap3\n      swap2\n      pop\n      pop\n      jump\t// out\n        /* \"#utility.yul\":6672:6762   */\n    tag_70:\n        /* \"#utility.yul\":6706:6713   */\n      0x00\n        /* \"#utility.yul\":6749:6754   */\n      dup2\n        /* \"#utility.yul\":6742:6755   */\n      iszero\n        /* \"#utility.yul\":6735:6756   */\n      iszero\n        /* \"#utility.yul\":6724:6756   */\n      swap1\n      pop\n        /* \"#utility.yul\":6672:6762   */\n      swap2\n      swap1\n      pop\n      jump\t// out\n        /* \"#utility.yul\":6768:6877   */\n    tag_71:\n        /* \"#utility.yul\":6849:6870   */\n      tag_147\n        /* \"#utility.yul\":6864:6869   */\n      dup2\n        /* \"#utility.yul\":6849:6870   */\n      tag_70\n      jump\t// in\n    tag_147:\n        /* \"#utility.yul\":6844:6847   */\n      dup3\n        /* \"#utility.yul\":6837:6871   */\n      mstore\n        /* \"#utility.yul\":6768:6877   */\n      pop\n      pop\n      jump\t// out\n        /* \"#utility.yul\":6883:7051   */\n    tag_72:\n        /* \"#utility.yul\":6966:6977   */\n      0x00\n        /* \"#utility.yul\":7000:7006   */\n      dup3\n        /* \"#utility.yul\":6995:6998   */\n      dup3\n        /* \"#utility.yul\":6988:7007   */\n      mstore\n        /* \"#utility.yul\":7040:7044   */\n      0x20\n        /* \"#utility.yul\":7035:7038   */\n      dup3\n        /* \"#utility.yul\":7031:7045   */\n      add\n        /* \"#utility.yul\":7016:7045   */\n      swap1\n      pop\n        /* \"#utility.yul\":6883:7051   */\n      swap3\n      swap2\n      pop\n      pop\n      jump\t// out\n        /* \"#utility.yul\":7057:7159   */\n    tag_73:\n        /* \"#utility.yul\":7098:7104   */\n      0x00\n        /* \"#utility.yul\":7149:7151   */\n      0x1f\n        /* \"#utility.yul\":7145:7152   */\n      not\n        /* \"#utility.yul\":7140:7142   */\n      0x1f\n        /* \"#utility.yul\":7133:7138   */\n      dup4\n        /* \"#utility.yul\":7129:7143   */\n      add\n        /* \"#utility.yul\":7125:7153   */\n      and\n        /* \"#utility.yul\":7115:7153   */\n      swap1\n      pop\n        /* \"#utility.yul\":7057:7159   */\n      swap2\n      swap1\n      pop\n      jump\t// out\n        /* \"#utility.yul\":7165:7525   */\n    tag_74:\n        /* \"#utility.yul\":7251:7254   */\n      0x00\n        /* \"#utility.yul\":7279:7317   */\n      tag_151\n        /* \"#utility.yul\":7311:7316   */\n      dup3\n        /* \"#utility.yul\":7279:7317   */\n      tag_67\n      jump\t// in\n    tag_151:\n        /* \"#utility.yul\":7333:7403   */\n      tag_152\n        /* \"#utility.yul\":7396:7402   */\n      dup2\n        /* \"#utility.yul\":7391:7394   */\n      dup6\n        /* \"#utility.yul\":7333:7403   */\n      tag_72\n      jump\t// in\n    tag_152:\n        /* \"#utility.yul\":7326:7403   */\n      swap4\n      pop\n        /* \"#utility.yul\":7412:7464   */\n      tag_153\n        /* \"#utility.yul\":7457:7463   */\n      dup2\n        /* \"#utility.yul\":7452:7455   */\n      dup6\n        /* \"#utility.yul\":7445:7449   */\n      0x20\n        /* \"#utility.yul\":7438:7443   */\n      dup7\n        /* \"#utility.yul\":7434:7450   */\n      add\n        /* \"#utility.yul\":7412:7464   */\n      tag_68\n      jump\t// in\n    tag_153:\n        /* \"#utility.yul\":7489:7518   */\n      tag_154\n        /* \"#utility.yul\":7511:7517   */\n      dup2\n        /* \"#utility.yul\":7489:7518   */\n      tag_73\n      jump\t// in\n    tag_154:\n        /* \"#utility.yul\":7484:7487   */\n      dup5\n        /* \"#utility.yul\":7480:7519   */\n      add\n        /* \"#utility.yul\":7473:7519   */\n      swap2\n      pop\n        /* \"#utility.yul\":7255:7525   */\n      pop\n        /* \"#utility.yul\":7165:7525   */\n      swap3\n      swap2\n      pop\n      pop\n      jump\t// out\n        /* \"#utility.yul\":7531:7938   */\n    tag_38:\n        /* \"#utility.yul\":7664:7668   */\n      0x00\n        /* \"#utility.yul\":7702:7704   */\n      0x40\n        /* \"#utility.yul\":7691:7700   */\n      dup3\n        /* \"#utility.yul\":7687:7705   */\n      add\n        /* \"#utility.yul\":7679:7705   */\n      swap1\n      pop\n        /* \"#utility.yul\":7715:7780   */\n      tag_156\n        /* \"#utility.yul\":7777:7778   */\n      0x00\n        /* \"#utility.yul\":7766:7775   */\n      dup4\n        /* \"#utility.yul\":7762:7779   */\n      add\n        /* \"#utility.yul\":7753:7759   */\n      dup6\n        /* \"#utility.yul\":7715:7780   */\n      tag_71\n      jump\t// in\n    tag_156:\n        /* \"#utility.yul\":7827:7836   */\n      dup2\n        /* \"#utility.yul\":7821:7825   */\n      dup2\n        /* \"#utility.yul\":7817:7837   */\n      sub\n        /* \"#utility.yul\":7812:7814   */\n      0x20\n        /* \"#utility.yul\":7801:7810   */\n      dup4\n        /* \"#utility.yul\":7797:7815   */\n      add\n        /* \"#utility.yul\":7790:7838   */\n      mstore\n        /* \"#utility.yul\":7855:7931   */\n      tag_157\n        /* \"#utility.yul\":7926:7930   */\n      dup2\n        /* \"#utility.yul\":7917:7923   */\n      dup5\n        /* \"#utility.yul\":7855:7931   */\n      tag_74\n      jump\t// in\n    tag_157:\n        /* \"#utility.yul\":7847:7931   */\n      swap1\n      pop\n        /* \"#utility.yul\":7531:7938   */\n      swap4\n      swap3\n      pop\n      pop\n      pop\n      jump\t// out\n\n    auxdata: 0xa26469706673582212201ea03ed4d3d2e30e7b852e6028c95bf335458c8503fcb6139a9492ef2785959d64736f6c634300080d0033\n}\n",
				"bytecode": {
					"linkReferences": {},
					"object": "608060405234801561001057600080fd5b50610819806100206000396000f3fe6080604052600436106100345760003560e01c80636b55e991146100395780636bca61b914610055578063f41a0b6b1461007e575b600080fd5b610053600480360381019061004e919061049b565b61009a565b005b34801561006157600080fd5b5061007c6004803603810190610077919061053c565b61014a565b005b6100986004803603810190610093919061058f565b6102c8565b005b60008173ffffffffffffffffffffffffffffffffffffffff16346040516100c0906105ed565b60006040518083038185875af1925050503d80600081146100fd576040519150601f19603f3d011682016040523d82523d6000602084013e610102565b606091505b5050905080610146576040517f08c379a000000000000000000000000000000000000000000000000000000000815260040161013d9061065f565b60405180910390fd5b5050565b6000808473ffffffffffffffffffffffffffffffffffffffff16848460405160240161017792919061068e565b6040516020818303038152906040527f0f3d0204000000000000000000000000000000000000000000000000000000007bffffffffffffffffffffffffffffffffffffffffffffffffffffffff19166020820180517bffffffffffffffffffffffffffffffffffffffffffffffffffffffff83818316178352505050506040516102019190610726565b6000604051808303816000865af19150503d806000811461023e576040519150601f19603f3d011682016040523d82523d6000602084013e610243565b606091505b509150915081610288576040517f08c379a000000000000000000000000000000000000000000000000000000000815260040161027f9061065f565b60405180910390fd5b7f80360304bd82b2c0e319d3e23ce5c7dea2dce952fb2b6bc695a70153f96d93d482826040516102b99291906107b3565b60405180910390a15050505050565b6000808273ffffffffffffffffffffffffffffffffffffffff16346040516024016040516020818303038152906040527ff9820cc1000000000000000000000000000000000000000000000000000000007bffffffffffffffffffffffffffffffffffffffffffffffffffffffff19166020820180517bffffffffffffffffffffffffffffffffffffffffffffffffffffffff83818316178352505050506040516103739190610726565b60006040518083038185875af1925050503d80600081146103b0576040519150601f19603f3d011682016040523d82523d6000602084013e6103b5565b606091505b5091509150816103fa576040517f08c379a00000000000000000000000000000000000000000000000000000000081526004016103f19061065f565b60405180910390fd5b7f80360304bd82b2c0e319d3e23ce5c7dea2dce952fb2b6bc695a70153f96d93d4828260405161042b9291906107b3565b60405180910390a1505050565b600080fd5b600073ffffffffffffffffffffffffffffffffffffffff82169050919050565b60006104688261043d565b9050919050565b6104788161045d565b811461048357600080fd5b50565b6000813590506104958161046f565b92915050565b6000602082840312156104b1576104b0610438565b5b60006104bf84828501610486565b91505092915050565b60006104d38261043d565b9050919050565b6104e3816104c8565b81146104ee57600080fd5b50565b600081359050610500816104da565b92915050565b6000819050919050565b61051981610506565b811461052457600080fd5b50565b60008135905061053681610510565b92915050565b60008060006060848603121561055557610554610438565b5b6000610563868287016104f1565b935050602061057486828701610527565b925050604061058586828701610527565b9150509250925092565b6000602082840312156105a5576105a4610438565b5b60006105b3848285016104f1565b91505092915050565b600081905092915050565b50565b60006105d76000836105bc565b91506105e2826105c7565b600082019050919050565b60006105f8826105ca565b9150819050919050565b600082825260208201905092915050565b7f6661696c656420746f207472616e736665722065746865720000000000000000600082015250565b6000610649601883610602565b915061065482610613565b602082019050919050565b600060208201905081810360008301526106788161063c565b9050919050565b61068881610506565b82525050565b60006040820190506106a3600083018561067f565b6106b0602083018461067f565b9392505050565b600081519050919050565b60005b838110156106e05780820151818401526020810190506106c5565b838111156106ef576000848401525b50505050565b6000610700826106b7565b61070a81856105bc565b935061071a8185602086016106c2565b80840191505092915050565b600061073282846106f5565b915081905092915050565b60008115159050919050565b6107528161073d565b82525050565b600082825260208201905092915050565b6000601f19601f8301169050919050565b6000610785826106b7565b61078f8185610758565b935061079f8185602086016106c2565b6107a881610769565b840191505092915050565b60006040820190506107c86000830185610749565b81810360208301526107da818461077a565b9050939250505056fea26469706673582212201ea03ed4d3d2e30e7b852e6028c95bf335458c8503fcb6139a9492ef2785959d64736f6c634300080d0033",
					"opcodes": "PUSH1 0x80 PUSH1 0x40 MSTORE CALLVALUE DUP1 ISZERO PUSH2 0x10 JUMPI PUSH1 0x0 DUP1 REVERT JUMPDEST POP PUSH2 0x819 DUP1 PUSH2 0x20 PUSH1 0x0 CODECOPY PUSH1 0x0 RETURN INVALID PUSH1 0x80 PUSH1 0x40 MSTORE PUSH1 0x4 CALLDATASIZE LT PUSH2 0x34 JUMPI PUSH1 0x0 CALLDATALOAD PUSH1 0xE0 SHR DUP1 PUSH4 0x6B55E991 EQ PUSH2 0x39 JUMPI DUP1 PUSH4 0x6BCA61B9 EQ PUSH2 0x55 JUMPI DUP1 PUSH4 0xF41A0B6B EQ PUSH2 0x7E JUMPI JUMPDEST PUSH1 0x0 DUP1 REVERT JUMPDEST PUSH2 0x53 PUSH1 0x4 DUP1 CALLDATASIZE SUB DUP2 ADD SWAP1 PUSH2 0x4E SWAP2 SWAP1 PUSH2 0x49B JUMP JUMPDEST PUSH2 0x9A JUMP JUMPDEST STOP JUMPDEST CALLVALUE DUP1 ISZERO PUSH2 0x61 JUMPI PUSH1 0x0 DUP1 REVERT JUMPDEST POP PUSH2 0x7C PUSH1 0x4 DUP1 CALLDATASIZE SUB DUP2 ADD SWAP1 PUSH2 0x77 SWAP2 SWAP1 PUSH2 0x53C JUMP JUMPDEST PUSH2 0x14A JUMP JUMPDEST STOP JUMPDEST PUSH2 0x98 PUSH1 0x4 DUP1 CALLDATASIZE SUB DUP2 ADD SWAP1 PUSH2 0x93 SWAP2 SWAP1 PUSH2 0x58F JUMP JUMPDEST PUSH2 0x2C8 JUMP JUMPDEST STOP JUMPDEST PUSH1 0x0 DUP2 PUSH20 0xFFFFFFFFFFFFFFFFFFFFFFFFFFFFFFFFFFFFFFFF AND CALLVALUE PUSH1 0x40 MLOAD PUSH2 0xC0 SWAP1 PUSH2 0x5ED JUMP JUMPDEST PUSH1 0x0 PUSH1 0x40 MLOAD DUP1 DUP4 SUB DUP2 DUP6 DUP8 GAS CALL SWAP3 POP POP POP RETURNDATASIZE DUP1 PUSH1 0x0 DUP2 EQ PUSH2 0xFD JUMPI PUSH1 0x40 MLOAD SWAP2 POP PUSH1 0x1F NOT PUSH1 0x3F RETURNDATASIZE ADD AND DUP3 ADD PUSH1 0x40 MSTORE RETURNDATASIZE DUP3 MSTORE RETURNDATASIZE PUSH1 0x0 PUSH1 0x20 DUP5 ADD RETURNDATACOPY PUSH2 0x102 JUMP JUMPDEST PUSH1 0x60 SWAP2 POP JUMPDEST POP POP SWAP1 POP DUP1 PUSH2 0x146 JUMPI PUSH1 0x40 MLOAD PUSH32 0x8C379A000000000000000000000000000000000000000000000000000000000 DUP2 MSTORE PUSH1 0x4 ADD PUSH2 0x13D SWAP1 PUSH2 0x65F JUMP JUMPDEST PUSH1 0x40 MLOAD DUP1 SWAP2 SUB SWAP1 REVERT JUMPDEST POP POP JUMP JUMPDEST PUSH1 0x0 DUP1 DUP5 PUSH20 0xFFFFFFFFFFFFFFFFFFFFFFFFFFFFFFFFFFFFFFFF AND DUP5 DUP5 PUSH1 0x40 MLOAD PUSH1 0x24 ADD PUSH2 0x177 SWAP3 SWAP2 SWAP1 PUSH2 0x68E JUMP JUMPDEST PUSH1 0x40 MLOAD PUSH1 0x20 DUP2 DUP4 SUB SUB DUP2 MSTORE SWAP1 PUSH1 0x40 MSTORE PUSH32 0xF3D020400000000000000000000000000000000000000000000000000000000 PUSH28 0xFFFFFFFFFFFFFFFFFFFFFFFFFFFFFFFFFFFFFFFFFFFFFFFFFFFFFFFF NOT AND PUSH1 0x20 DUP3 ADD DUP1 MLOAD PUSH28 0xFFFFFFFFFFFFFFFFFFFFFFFFFFFFFFFFFFFFFFFFFFFFFFFFFFFFFFFF DUP4 DUP2 DUP4 AND OR DUP4 MSTORE POP POP POP POP PUSH1 0x40 MLOAD PUSH2 0x201 SWAP2 SWAP1 PUSH2 0x726 JUMP JUMPDEST PUSH1 0x0 PUSH1 0x40 MLOAD DUP1 DUP4 SUB DUP2 PUSH1 0x0 DUP7 GAS CALL SWAP2 POP POP RETURNDATASIZE DUP1 PUSH1 0x0 DUP2 EQ PUSH2 0x23E JUMPI PUSH1 0x40 MLOAD SWAP2 POP PUSH1 0x1F NOT PUSH1 0x3F RETURNDATASIZE ADD AND DUP3 ADD PUSH1 0x40 MSTORE RETURNDATASIZE DUP3 MSTORE RETURNDATASIZE PUSH1 0x0 PUSH1 0x20 DUP5 ADD RETURNDATACOPY PUSH2 0x243 JUMP JUMPDEST PUSH1 0x60 SWAP2 POP JUMPDEST POP SWAP2 POP SWAP2 POP DUP2 PUSH2 0x288 JUMPI PUSH1 0x40 MLOAD PUSH32 0x8C379A000000000000000000000000000000000000000000000000000000000 DUP2 MSTORE PUSH1 0x4 ADD PUSH2 0x27F SWAP1 PUSH2 0x65F JUMP JUMPDEST PUSH1 0x40 MLOAD DUP1 SWAP2 SUB SWAP1 REVERT JUMPDEST PUSH32 0x80360304BD82B2C0E319D3E23CE5C7DEA2DCE952FB2B6BC695A70153F96D93D4 DUP3 DUP3 PUSH1 0x40 MLOAD PUSH2 0x2B9 SWAP3 SWAP2 SWAP1 PUSH2 0x7B3 JUMP JUMPDEST PUSH1 0x40 MLOAD DUP1 SWAP2 SUB SWAP1 LOG1 POP POP POP POP POP JUMP JUMPDEST PUSH1 0x0 DUP1 DUP3 PUSH20 0xFFFFFFFFFFFFFFFFFFFFFFFFFFFFFFFFFFFFFFFF AND CALLVALUE PUSH1 0x40 MLOAD PUSH1 0x24 ADD PUSH1 0x40 MLOAD PUSH1 0x20 DUP2 DUP4 SUB SUB DUP2 MSTORE SWAP1 PUSH1 0x40 MSTORE PUSH32 0xF9820CC100000000000000000000000000000000000000000000000000000000 PUSH28 0xFFFFFFFFFFFFFFFFFFFFFFFFFFFFFFFFFFFFFFFFFFFFFFFFFFFFFFFF NOT AND PUSH1 0x20 DUP3 ADD DUP1 MLOAD PUSH28 0xFFFFFFFFFFFFFFFFFFFFFFFFFFFFFFFFFFFFFFFFFFFFFFFFFFFFFFFF DUP4 DUP2 DUP4 AND OR DUP4 MSTORE POP POP POP POP PUSH1 0x40 MLOAD PUSH2 0x373 SWAP2 SWAP1 PUSH2 0x726 JUMP JUMPDEST PUSH1 0x0 PUSH1 0x40 MLOAD DUP1 DUP4 SUB DUP2 DUP6 DUP8 GAS CALL SWAP3 POP POP POP RETURNDATASIZE DUP1 PUSH1 0x0 DUP2 EQ PUSH2 0x3B0 JUMPI PUSH1 0x40 MLOAD SWAP2 POP PUSH1 0x1F NOT PUSH1 0x3F RETURNDATASIZE ADD AND DUP3 ADD PUSH1 0x40 MSTORE RETURNDATASIZE DUP3 MSTORE RETURNDATASIZE PUSH1 0x0 PUSH1 0x20 DUP5 ADD RETURNDATACOPY PUSH2 0x3B5 JUMP JUMPDEST PUSH1 0x60 SWAP2 POP JUMPDEST POP SWAP2 POP SWAP2 POP DUP2 PUSH2 0x3FA JUMPI PUSH1 0x40 MLOAD PUSH32 0x8C379A000000000000000000000000000000000000000000000000000000000 DUP2 MSTORE PUSH1 0x4 ADD PUSH2 0x3F1 SWAP1 PUSH2 0x65F JUMP JUMPDEST PUSH1 0x40 MLOAD DUP1 SWAP2 SUB SWAP1 REVERT JUMPDEST PUSH32 0x80360304BD82B2C0E319D3E23CE5C7DEA2DCE952FB2B6BC695A70153F96D93D4 DUP3 DUP3 PUSH1 0x40 MLOAD PUSH2 0x42B SWAP3 SWAP2 SWAP1 PUSH2 0x7B3 JUMP JUMPDEST PUSH1 0x40 MLOAD DUP1 SWAP2 SUB SWAP1 LOG1 POP POP POP JUMP JUMPDEST PUSH1 0x0 DUP1 REVERT JUMPDEST PUSH1 0x0 PUSH20 0xFFFFFFFFFFFFFFFFFFFFFFFFFFFFFFFFFFFFFFFF DUP3 AND SWAP1 POP SWAP2 SWAP1 POP JUMP JUMPDEST PUSH1 0x0 PUSH2 0x468 DUP3 PUSH2 0x43D JUMP JUMPDEST SWAP1 POP SWAP2 SWAP1 POP JUMP JUMPDEST PUSH2 0x478 DUP2 PUSH2 0x45D JUMP JUMPDEST DUP2 EQ PUSH2 0x483 JUMPI PUSH1 0x0 DUP1 REVERT JUMPDEST POP JUMP JUMPDEST PUSH1 0x0 DUP2 CALLDATALOAD SWAP1 POP PUSH2 0x495 DUP2 PUSH2 0x46F JUMP JUMPDEST SWAP3 SWAP2 POP POP JUMP JUMPDEST PUSH1 0x0 PUSH1 0x20 DUP3 DUP5 SUB SLT ISZERO PUSH2 0x4B1 JUMPI PUSH2 0x4B0 PUSH2 0x438 JUMP JUMPDEST JUMPDEST PUSH1 0x0 PUSH2 0x4BF DUP5 DUP3 DUP6 ADD PUSH2 0x486 JUMP JUMPDEST SWAP2 POP POP SWAP3 SWAP2 POP POP JUMP JUMPDEST PUSH1 0x0 PUSH2 0x4D3 DUP3 PUSH2 0x43D JUMP JUMPDEST SWAP1 POP SWAP2 SWAP1 POP JUMP JUMPDEST PUSH2 0x4E3 DUP2 PUSH2 0x4C8 JUMP JUMPDEST DUP2 EQ PUSH2 0x4EE JUMPI PUSH1 0x0 DUP1 REVERT JUMPDEST POP JUMP JUMPDEST PUSH1 0x0 DUP2 CALLDATALOAD SWAP1 POP PUSH2 0x500 DUP2 PUSH2 0x4DA JUMP JUMPDEST SWAP3 SWAP2 POP POP JUMP JUMPDEST PUSH1 0x0 DUP2 SWAP1 POP SWAP2 SWAP1 POP JUMP JUMPDEST PUSH2 0x519 DUP2 PUSH2 0x506 JUMP JUMPDEST DUP2 EQ PUSH2 0x524 JUMPI PUSH1 0x0 DUP1 REVERT JUMPDEST POP JUMP JUMPDEST PUSH1 0x0 DUP2 CALLDATALOAD SWAP1 POP PUSH2 0x536 DUP2 PUSH2 0x510 JUMP JUMPDEST SWAP3 SWAP2 POP POP JUMP JUMPDEST PUSH1 0x0 DUP1 PUSH1 0x0 PUSH1 0x60 DUP5 DUP7 SUB SLT ISZERO PUSH2 0x555 JUMPI PUSH2 0x554 PUSH2 0x438 JUMP JUMPDEST JUMPDEST PUSH1 0x0 PUSH2 0x563 DUP7 DUP3 DUP8 ADD PUSH2 0x4F1 JUMP JUMPDEST SWAP4 POP POP PUSH1 0x20 PUSH2 0x574 DUP7 DUP3 DUP8 ADD PUSH2 0x527 JUMP JUMPDEST SWAP3 POP POP PUSH1 0x40 PUSH2 0x585 DUP7 DUP3 DUP8 ADD PUSH2 0x527 JUMP JUMPDEST SWAP2 POP POP SWAP3 POP SWAP3 POP SWAP3 JUMP JUMPDEST PUSH1 0x0 PUSH1 0x20 DUP3 DUP5 SUB SLT ISZERO PUSH2 0x5A5 JUMPI PUSH2 0x5A4 PUSH2 0x438 JUMP JUMPDEST JUMPDEST PUSH1 0x0 PUSH2 0x5B3 DUP5 DUP3 DUP6 ADD PUSH2 0x4F1 JUMP JUMPDEST SWAP2 POP POP SWAP3 SWAP2 POP POP JUMP JUMPDEST PUSH1 0x0 DUP2 SWAP1 POP SWAP3 SWAP2 POP POP JUMP JUMPDEST POP JUMP JUMPDEST PUSH1 0x0 PUSH2 0x5D7 PUSH1 0x0 DUP4 PUSH2 0x5BC JUMP JUMPDEST SWAP2 POP PUSH2 0x5E2 DUP3 PUSH2 0x5C7 JUMP JUMPDEST PUSH1 0x0 DUP3 ADD SWAP1 POP SWAP2 SWAP1 POP JUMP JUMPDEST PUSH1 0x0 PUSH2 0x5F8 DUP3 PUSH2 0x5CA JUMP JUMPDEST SWAP2 POP DUP2 SWAP1 POP SWAP2 SWAP1 POP JUMP JUMPDEST PUSH1 0x0 DUP3 DUP3 MSTORE PUSH1 0x20 DUP3 ADD SWAP1 POP SWAP3 SWAP2 POP POP JUMP JUMPDEST PUSH32 0x6661696C656420746F207472616E736665722065746865720000000000000000 PUSH1 0x0 DUP3 ADD MSTORE POP JUMP JUMPDEST PUSH1 0x0 PUSH2 0x649 PUSH1 0x18 DUP4 PUSH2 0x602 JUMP JUMPDEST SWAP2 POP PUSH2 0x654 DUP3 PUSH2 0x613 JUMP JUMPDEST PUSH1 0x20 DUP3 ADD SWAP1 POP SWAP2 SWAP1 POP JUMP JUMPDEST PUSH1 0x0 PUSH1 0x20 DUP3 ADD SWAP1 POP DUP2 DUP2 SUB PUSH1 0x0 DUP4 ADD MSTORE PUSH2 0x678 DUP2 PUSH2 0x63C JUMP JUMPDEST SWAP1 POP SWAP2 SWAP1 POP JUMP JUMPDEST PUSH2 0x688 DUP2 PUSH2 0x506 JUMP JUMPDEST DUP3 MSTORE POP POP JUMP JUMPDEST PUSH1 0x0 PUSH1 0x40 DUP3 ADD SWAP1 POP PUSH2 0x6A3 PUSH1 0x0 DUP4 ADD DUP6 PUSH2 0x67F JUMP JUMPDEST PUSH2 0x6B0 PUSH1 0x20 DUP4 ADD DUP5 PUSH2 0x67F JUMP JUMPDEST SWAP4 SWAP3 POP POP POP JUMP JUMPDEST PUSH1 0x0 DUP2 MLOAD SWAP1 POP SWAP2 SWAP1 POP JUMP JUMPDEST PUSH1 0x0 JUMPDEST DUP4 DUP2 LT ISZERO PUSH2 0x6E0 JUMPI DUP1 DUP3 ADD MLOAD DUP2 DUP5 ADD MSTORE PUSH1 0x20 DUP2 ADD SWAP1 POP PUSH2 0x6C5 JUMP JUMPDEST DUP4 DUP2 GT ISZERO PUSH2 0x6EF JUMPI PUSH1 0x0 DUP5 DUP5 ADD MSTORE JUMPDEST POP POP POP POP JUMP JUMPDEST PUSH1 0x0 PUSH2 0x700 DUP3 PUSH2 0x6B7 JUMP JUMPDEST PUSH2 0x70A DUP2 DUP6 PUSH2 0x5BC JUMP JUMPDEST SWAP4 POP PUSH2 0x71A DUP2 DUP6 PUSH1 0x20 DUP7 ADD PUSH2 0x6C2 JUMP JUMPDEST DUP1 DUP5 ADD SWAP2 POP POP SWAP3 SWAP2 POP POP JUMP JUMPDEST PUSH1 0x0 PUSH2 0x732 DUP3 DUP5 PUSH2 0x6F5 JUMP JUMPDEST SWAP2 POP DUP2 SWAP1 POP SWAP3 SWAP2 POP POP JUMP JUMPDEST PUSH1 0x0 DUP2 ISZERO ISZERO SWAP1 POP SWAP2 SWAP1 POP JUMP JUMPDEST PUSH2 0x752 DUP2 PUSH2 0x73D JUMP JUMPDEST DUP3 MSTORE POP POP JUMP JUMPDEST PUSH1 0x0 DUP3 DUP3 MSTORE PUSH1 0x20 DUP3 ADD SWAP1 POP SWAP3 SWAP2 POP POP JUMP JUMPDEST PUSH1 0x0 PUSH1 0x1F NOT PUSH1 0x1F DUP4 ADD AND SWAP1 POP SWAP2 SWAP1 POP JUMP JUMPDEST PUSH1 0x0 PUSH2 0x785 DUP3 PUSH2 0x6B7 JUMP JUMPDEST PUSH2 0x78F DUP2 DUP6 PUSH2 0x758 JUMP JUMPDEST SWAP4 POP PUSH2 0x79F DUP2 DUP6 PUSH1 0x20 DUP7 ADD PUSH2 0x6C2 JUMP JUMPDEST PUSH2 0x7A8 DUP2 PUSH2 0x769 JUMP JUMPDEST DUP5 ADD SWAP2 POP POP SWAP3 SWAP2 POP POP JUMP JUMPDEST PUSH1 0x0 PUSH1 0x40 DUP3 ADD SWAP1 POP PUSH2 0x7C8 PUSH1 0x0 DUP4 ADD DUP6 PUSH2 0x749 JUMP JUMPDEST DUP2 DUP2 SUB PUSH1 0x20 DUP4 ADD MSTORE PUSH2 0x7DA DUP2 DUP5 PUSH2 0x77A JUMP JUMPDEST SWAP1 POP SWAP4 SWAP3 POP POP POP JUMP INVALID LOG2 PUSH5 0x6970667358 0x22 SLT KECCAK256 0x1E LOG0 RETURNDATACOPY 0xD4 0xD3 0xD2 0xE3 0xE PUSH28 0x852E6028C95BF335458C8503FCB6139A9492EF2785959D64736F6C63 NUMBER STOP ADDMOD 0xD STOP CALLER "
				},
				"gasEstimates": {
					"creation": {
						"codeDepositCost": "414600",
						"executionCost": "449",
						"totalCost": "415049"
					},
					"external": {
						"callMethod(address,uint256,uint256)": "infinite",
						"callMethod3(address)": "infinite",
						"transferEther(address)": "infinite"
					}
				},
				"methodIdentifiers": {
					"callMethod(address,uint256,uint256)": "6bca61b9",
					"callMethod3(address)": "f41a0b6b",
					"transferEther(address)": "6b55e991"
				}
			},
			"userdoc": {
				"kind": "user",
				"methods": {},
				"version": 1
			}
		}
	}
}