{
	".workspaces/default_workspace/lecture/twoTimeMapping.sol": {
		"twoTimeMappintC": {
			"abi": [
				{
					"inputs": [
						{
							"internalType": "uint256",
							"name": "id",
							"type": "uint256"
						},
						{
							"internalType": "uint256",
							"name": "time",
							"type": "uint256"
						}
					],
					"name": "getrec",
					"outputs": [
						{
							"components": [
								{
									"internalType": "string",
									"name": "name",
									"type": "string"
								},
								{
									"internalType": "string",
									"name": "senderaddress",
									"type": "string"
								},
								{
									"internalType": "string",
									"name": "reciveraddress",
									"type": "string"
								},
								{
									"internalType": "string",
									"name": "scheduletime",
									"type": "string"
								},
								{
									"internalType": "string",
									"name": "scheduledate",
									"type": "string"
								},
								{
									"internalType": "uint256",
									"name": "time",
									"type": "uint256"
								}
							],
							"internalType": "struct twoTimeMappintC.Record",
							"name": "",
							"type": "tuple"
						}
					],
					"stateMutability": "view",
					"type": "function"
				}
			],
			"devdoc": {
				"kind": "dev",
				"methods": {},
				"version": 1
			},
			"evm": {
				"assembly": "    /* \".workspaces/default_workspace/lecture/twoTimeMapping.sol\":73:1145  contract twoTimeMappintC {... */\n  mstore(0x40, 0x80)\n  callvalue\n  dup1\n  iszero\n  tag_1\n  jumpi\n  0x00\n  dup1\n  revert\ntag_1:\n  pop\n  dataSize(sub_0)\n  dup1\n  dataOffset(sub_0)\n  0x00\n  codecopy\n  0x00\n  return\nstop\n\nsub_0: assembly {\n        /* \".workspaces/default_workspace/lecture/twoTimeMapping.sol\":73:1145  contract twoTimeMappintC {... */\n      mstore(0x40, 0x80)\n      callvalue\n      dup1\n      iszero\n      tag_1\n      jumpi\n      0x00\n      dup1\n      revert\n    tag_1:\n      pop\n      jumpi(tag_2, lt(calldatasize, 0x04))\n      shr(0xe0, calldataload(0x00))\n      dup1\n      0x75b42f59\n      eq\n      tag_3\n      jumpi\n    tag_2:\n      0x00\n      dup1\n      revert\n        /* \".workspaces/default_workspace/lecture/twoTimeMapping.sol\":521:1142  function getrec(uint id , uint time) public view returns (Record memory ) {... */\n    tag_3:\n      tag_4\n      0x04\n      dup1\n      calldatasize\n      sub\n      dup2\n      add\n      swap1\n      tag_5\n      swap2\n      swap1\n      tag_6\n      jump\t// in\n    tag_5:\n      tag_7\n      jump\t// in\n    tag_4:\n      mload(0x40)\n      tag_8\n      swap2\n      swap1\n      tag_9\n      jump\t// in\n    tag_8:\n      mload(0x40)\n      dup1\n      swap2\n      sub\n      swap1\n      return\n    tag_7:\n        /* \".workspaces/default_workspace/lecture/twoTimeMapping.sol\":579:592  Record memory */\n      tag_10\n      tag_11\n      jump\t// in\n    tag_10:\n        /* \".workspaces/default_workspace/lecture/twoTimeMapping.sol\":605:615  uint index */\n      0x00\n        /* \".workspaces/default_workspace/lecture/twoTimeMapping.sol\":618:629  recordIndex */\n      dup1\n        /* \".workspaces/default_workspace/lecture/twoTimeMapping.sol\":618:633  recordIndex[id] */\n      0x00\n        /* \".workspaces/default_workspace/lecture/twoTimeMapping.sol\":630:632  id */\n      dup6\n        /* \".workspaces/default_workspace/lecture/twoTimeMapping.sol\":618:633  recordIndex[id] */\n      dup2\n      mstore\n      0x20\n      add\n      swap1\n      dup2\n      mstore\n      0x20\n      add\n      0x00\n      keccak256\n        /* \".workspaces/default_workspace/lecture/twoTimeMapping.sol\":618:639  recordIndex[id][time] */\n      0x00\n        /* \".workspaces/default_workspace/lecture/twoTimeMapping.sol\":634:638  time */\n      dup5\n        /* \".workspaces/default_workspace/lecture/twoTimeMapping.sol\":618:639  recordIndex[id][time] */\n      dup2\n      mstore\n      0x20\n      add\n      swap1\n      dup2\n      mstore\n      0x20\n      add\n      0x00\n      keccak256\n      sload\n        /* \".workspaces/default_workspace/lecture/twoTimeMapping.sol\":605:639  uint index = recordIndex[id][time] */\n      swap1\n      pop\n        /* \".workspaces/default_workspace/lecture/twoTimeMapping.sol\":760:761  1 */\n      0x01\n        /* \".workspaces/default_workspace/lecture/twoTimeMapping.sol\":751:761  index -= 1 */\n      dup2\n      tag_13\n      swap2\n      swap1\n      tag_14\n      jump\t// in\n    tag_13:\n      swap1\n      pop\n        /* \".workspaces/default_workspace/lecture/twoTimeMapping.sol\":771:786  string memory a */\n      0x00\n        /* \".workspaces/default_workspace/lecture/twoTimeMapping.sol\":789:796  records */\n      0x01\n        /* \".workspaces/default_workspace/lecture/twoTimeMapping.sol\":789:800  records[id] */\n      0x00\n        /* \".workspaces/default_workspace/lecture/twoTimeMapping.sol\":797:799  id */\n      dup7\n        /* \".workspaces/default_workspace/lecture/twoTimeMapping.sol\":789:800  records[id] */\n      dup2\n      mstore\n      0x20\n      add\n      swap1\n      dup2\n      mstore\n      0x20\n      add\n      0x00\n      keccak256\n        /* \".workspaces/default_workspace/lecture/twoTimeMapping.sol\":801:806  index */\n      dup3\n        /* \".workspaces/default_workspace/lecture/twoTimeMapping.sol\":789:807  records[id][index] */\n      dup2\n      sload\n      dup2\n      lt\n      tag_15\n      jumpi\n      tag_16\n      tag_17\n      jump\t// in\n    tag_16:\n    tag_15:\n      swap1\n      0x00\n      mstore\n      keccak256(0x00, 0x20)\n      swap1\n      0x06\n      mul\n      add\n        /* \".workspaces/default_workspace/lecture/twoTimeMapping.sol\":789:812  records[id][index].name */\n      0x00\n      add\n        /* \".workspaces/default_workspace/lecture/twoTimeMapping.sol\":771:812  string memory a = records[id][index].name */\n      dup1\n      sload\n      tag_19\n      swap1\n      tag_20\n      jump\t// in\n    tag_19:\n      dup1\n      0x1f\n      add\n      0x20\n      dup1\n      swap2\n      div\n      mul\n      0x20\n      add\n      mload(0x40)\n      swap1\n      dup2\n      add\n      0x40\n      mstore\n      dup1\n      swap3\n      swap2\n      swap1\n      dup2\n      dup2\n      mstore\n      0x20\n      add\n      dup3\n      dup1\n      sload\n      tag_21\n      swap1\n      tag_20\n      jump\t// in\n    tag_21:\n      dup1\n      iszero\n      tag_22\n      jumpi\n      dup1\n      0x1f\n      lt\n      tag_23\n      jumpi\n      0x0100\n      dup1\n      dup4\n      sload\n      div\n      mul\n      dup4\n      mstore\n      swap2\n      0x20\n      add\n      swap2\n      jump(tag_22)\n    tag_23:\n      dup3\n      add\n      swap2\n      swap1\n      0x00\n      mstore\n      keccak256(0x00, 0x20)\n      swap1\n    tag_24:\n      dup2\n      sload\n      dup2\n      mstore\n      swap1\n      0x01\n      add\n      swap1\n      0x20\n      add\n      dup1\n      dup4\n      gt\n      tag_24\n      jumpi\n      dup3\n      swap1\n      sub\n      0x1f\n      and\n      dup3\n      add\n      swap2\n    tag_22:\n      pop\n      pop\n      pop\n      pop\n      pop\n      swap1\n      pop\n        /* \".workspaces/default_workspace/lecture/twoTimeMapping.sol\":822:837  string memory b */\n      0x00\n        /* \".workspaces/default_workspace/lecture/twoTimeMapping.sol\":840:847  records */\n      0x01\n        /* \".workspaces/default_workspace/lecture/twoTimeMapping.sol\":840:851  records[id] */\n      0x00\n        /* \".workspaces/default_workspace/lecture/twoTimeMapping.sol\":848:850  id */\n      dup8\n        /* \".workspaces/default_workspace/lecture/twoTimeMapping.sol\":840:851  records[id] */\n      dup2\n      mstore\n      0x20\n      add\n      swap1\n      dup2\n      mstore\n      0x20\n      add\n      0x00\n      keccak256\n        /* \".workspaces/default_workspace/lecture/twoTimeMapping.sol\":852:857  index */\n      dup4\n        /* \".workspaces/default_workspace/lecture/twoTimeMapping.sol\":840:858  records[id][index] */\n      dup2\n      sload\n      dup2\n      lt\n      tag_25\n      jumpi\n      tag_26\n      tag_17\n      jump\t// in\n    tag_26:\n    tag_25:\n      swap1\n      0x00\n      mstore\n      keccak256(0x00, 0x20)\n      swap1\n      0x06\n      mul\n      add\n        /* \".workspaces/default_workspace/lecture/twoTimeMapping.sol\":840:872  records[id][index].senderaddress */\n      0x01\n      add\n        /* \".workspaces/default_workspace/lecture/twoTimeMapping.sol\":822:872  string memory b = records[id][index].senderaddress */\n      dup1\n      sload\n      tag_28\n      swap1\n      tag_20\n      jump\t// in\n    tag_28:\n      dup1\n      0x1f\n      add\n      0x20\n      dup1\n      swap2\n      div\n      mul\n      0x20\n      add\n      mload(0x40)\n      swap1\n      dup2\n      add\n      0x40\n      mstore\n      dup1\n      swap3\n      swap2\n      swap1\n      dup2\n      dup2\n      mstore\n      0x20\n      add\n      dup3\n      dup1\n      sload\n      tag_29\n      swap1\n      tag_20\n      jump\t// in\n    tag_29:\n      dup1\n      iszero\n      tag_30\n      jumpi\n      dup1\n      0x1f\n      lt\n      tag_31\n      jumpi\n      0x0100\n      dup1\n      dup4\n      sload\n      div\n      mul\n      dup4\n      mstore\n      swap2\n      0x20\n      add\n      swap2\n      jump(tag_30)\n    tag_31:\n      dup3\n      add\n      swap2\n      swap1\n      0x00\n      mstore\n      keccak256(0x00, 0x20)\n      swap1\n    tag_32:\n      dup2\n      sload\n      dup2\n      mstore\n      swap1\n      0x01\n      add\n      swap1\n      0x20\n      add\n      dup1\n      dup4\n      gt\n      tag_32\n      jumpi\n      dup3\n      swap1\n      sub\n      0x1f\n      and\n      dup3\n      add\n      swap2\n    tag_30:\n      pop\n      pop\n      pop\n      pop\n      pop\n      swap1\n      pop\n        /* \".workspaces/default_workspace/lecture/twoTimeMapping.sol\":882:897  string memory c */\n      0x00\n        /* \".workspaces/default_workspace/lecture/twoTimeMapping.sol\":900:907  records */\n      0x01\n        /* \".workspaces/default_workspace/lecture/twoTimeMapping.sol\":900:911  records[id] */\n      0x00\n        /* \".workspaces/default_workspace/lecture/twoTimeMapping.sol\":908:910  id */\n      dup9\n        /* \".workspaces/default_workspace/lecture/twoTimeMapping.sol\":900:911  records[id] */\n      dup2\n      mstore\n      0x20\n      add\n      swap1\n      dup2\n      mstore\n      0x20\n      add\n      0x00\n      keccak256\n        /* \".workspaces/default_workspace/lecture/twoTimeMapping.sol\":912:917  index */\n      dup5\n        /* \".workspaces/default_workspace/lecture/twoTimeMapping.sol\":900:918  records[id][index] */\n      dup2\n      sload\n      dup2\n      lt\n      tag_33\n      jumpi\n      tag_34\n      tag_17\n      jump\t// in\n    tag_34:\n    tag_33:\n      swap1\n      0x00\n      mstore\n      keccak256(0x00, 0x20)\n      swap1\n      0x06\n      mul\n      add\n        /* \".workspaces/default_workspace/lecture/twoTimeMapping.sol\":900:933  records[id][index].reciveraddress */\n      0x02\n      add\n        /* \".workspaces/default_workspace/lecture/twoTimeMapping.sol\":882:933  string memory c = records[id][index].reciveraddress */\n      dup1\n      sload\n      tag_36\n      swap1\n      tag_20\n      jump\t// in\n    tag_36:\n      dup1\n      0x1f\n      add\n      0x20\n      dup1\n      swap2\n      div\n      mul\n      0x20\n      add\n      mload(0x40)\n      swap1\n      dup2\n      add\n      0x40\n      mstore\n      dup1\n      swap3\n      swap2\n      swap1\n      dup2\n      dup2\n      mstore\n      0x20\n      add\n      dup3\n      dup1\n      sload\n      tag_37\n      swap1\n      tag_20\n      jump\t// in\n    tag_37:\n      dup1\n      iszero\n      tag_38\n      jumpi\n      dup1\n      0x1f\n      lt\n      tag_39\n      jumpi\n      0x0100\n      dup1\n      dup4\n      sload\n      div\n      mul\n      dup4\n      mstore\n      swap2\n      0x20\n      add\n      swap2\n      jump(tag_38)\n    tag_39:\n      dup3\n      add\n      swap2\n      swap1\n      0x00\n      mstore\n      keccak256(0x00, 0x20)\n      swap1\n    tag_40:\n      dup2\n      sload\n      dup2\n      mstore\n      swap1\n      0x01\n      add\n      swap1\n      0x20\n      add\n      dup1\n      dup4\n      gt\n      tag_40\n      jumpi\n      dup3\n      swap1\n      sub\n      0x1f\n      and\n      dup3\n      add\n      swap2\n    tag_38:\n      pop\n      pop\n      pop\n      pop\n      pop\n      swap1\n      pop\n        /* \".workspaces/default_workspace/lecture/twoTimeMapping.sol\":943:958  string memory d */\n      0x00\n        /* \".workspaces/default_workspace/lecture/twoTimeMapping.sol\":961:968  records */\n      0x01\n        /* \".workspaces/default_workspace/lecture/twoTimeMapping.sol\":961:972  records[id] */\n      0x00\n        /* \".workspaces/default_workspace/lecture/twoTimeMapping.sol\":969:971  id */\n      dup10\n        /* \".workspaces/default_workspace/lecture/twoTimeMapping.sol\":961:972  records[id] */\n      dup2\n      mstore\n      0x20\n      add\n      swap1\n      dup2\n      mstore\n      0x20\n      add\n      0x00\n      keccak256\n        /* \".workspaces/default_workspace/lecture/twoTimeMapping.sol\":973:978  index */\n      dup6\n        /* \".workspaces/default_workspace/lecture/twoTimeMapping.sol\":961:979  records[id][index] */\n      dup2\n      sload\n      dup2\n      lt\n      tag_41\n      jumpi\n      tag_42\n      tag_17\n      jump\t// in\n    tag_42:\n    tag_41:\n      swap1\n      0x00\n      mstore\n      keccak256(0x00, 0x20)\n      swap1\n      0x06\n      mul\n      add\n        /* \".workspaces/default_workspace/lecture/twoTimeMapping.sol\":961:992  records[id][index].scheduletime */\n      0x03\n      add\n        /* \".workspaces/default_workspace/lecture/twoTimeMapping.sol\":943:992  string memory d = records[id][index].scheduletime */\n      dup1\n      sload\n      tag_44\n      swap1\n      tag_20\n      jump\t// in\n    tag_44:\n      dup1\n      0x1f\n      add\n      0x20\n      dup1\n      swap2\n      div\n      mul\n      0x20\n      add\n      mload(0x40)\n      swap1\n      dup2\n      add\n      0x40\n      mstore\n      dup1\n      swap3\n      swap2\n      swap1\n      dup2\n      dup2\n      mstore\n      0x20\n      add\n      dup3\n      dup1\n      sload\n      tag_45\n      swap1\n      tag_20\n      jump\t// in\n    tag_45:\n      dup1\n      iszero\n      tag_46\n      jumpi\n      dup1\n      0x1f\n      lt\n      tag_47\n      jumpi\n      0x0100\n      dup1\n      dup4\n      sload\n      div\n      mul\n      dup4\n      mstore\n      swap2\n      0x20\n      add\n      swap2\n      jump(tag_46)\n    tag_47:\n      dup3\n      add\n      swap2\n      swap1\n      0x00\n      mstore\n      keccak256(0x00, 0x20)\n      swap1\n    tag_48:\n      dup2\n      sload\n      dup2\n      mstore\n      swap1\n      0x01\n      add\n      swap1\n      0x20\n      add\n      dup1\n      dup4\n      gt\n      tag_48\n      jumpi\n      dup3\n      swap1\n      sub\n      0x1f\n      and\n      dup3\n      add\n      swap2\n    tag_46:\n      pop\n      pop\n      pop\n      pop\n      pop\n      swap1\n      pop\n        /* \".workspaces/default_workspace/lecture/twoTimeMapping.sol\":1002:1017  string memory e */\n      0x00\n        /* \".workspaces/default_workspace/lecture/twoTimeMapping.sol\":1020:1027  records */\n      0x01\n        /* \".workspaces/default_workspace/lecture/twoTimeMapping.sol\":1020:1031  records[id] */\n      0x00\n        /* \".workspaces/default_workspace/lecture/twoTimeMapping.sol\":1028:1030  id */\n      dup11\n        /* \".workspaces/default_workspace/lecture/twoTimeMapping.sol\":1020:1031  records[id] */\n      dup2\n      mstore\n      0x20\n      add\n      swap1\n      dup2\n      mstore\n      0x20\n      add\n      0x00\n      keccak256\n        /* \".workspaces/default_workspace/lecture/twoTimeMapping.sol\":1032:1037  index */\n      dup7\n        /* \".workspaces/default_workspace/lecture/twoTimeMapping.sol\":1020:1038  records[id][index] */\n      dup2\n      sload\n      dup2\n      lt\n      tag_49\n      jumpi\n      tag_50\n      tag_17\n      jump\t// in\n    tag_50:\n    tag_49:\n      swap1\n      0x00\n      mstore\n      keccak256(0x00, 0x20)\n      swap1\n      0x06\n      mul\n      add\n        /* \".workspaces/default_workspace/lecture/twoTimeMapping.sol\":1020:1051  records[id][index].scheduledate */\n      0x04\n      add\n        /* \".workspaces/default_workspace/lecture/twoTimeMapping.sol\":1002:1051  string memory e = records[id][index].scheduledate */\n      dup1\n      sload\n      tag_52\n      swap1\n      tag_20\n      jump\t// in\n    tag_52:\n      dup1\n      0x1f\n      add\n      0x20\n      dup1\n      swap2\n      div\n      mul\n      0x20\n      add\n      mload(0x40)\n      swap1\n      dup2\n      add\n      0x40\n      mstore\n      dup1\n      swap3\n      swap2\n      swap1\n      dup2\n      dup2\n      mstore\n      0x20\n      add\n      dup3\n      dup1\n      sload\n      tag_53\n      swap1\n      tag_20\n      jump\t// in\n    tag_53:\n      dup1\n      iszero\n      tag_54\n      jumpi\n      dup1\n      0x1f\n      lt\n      tag_55\n      jumpi\n      0x0100\n      dup1\n      dup4\n      sload\n      div\n      mul\n      dup4\n      mstore\n      swap2\n      0x20\n      add\n      swap2\n      jump(tag_54)\n    tag_55:\n      dup3\n      add\n      swap2\n      swap1\n      0x00\n      mstore\n      keccak256(0x00, 0x20)\n      swap1\n    tag_56:\n      dup2\n      sload\n      dup2\n      mstore\n      swap1\n      0x01\n      add\n      swap1\n      0x20\n      add\n      dup1\n      dup4\n      gt\n      tag_56\n      jumpi\n      dup3\n      swap1\n      sub\n      0x1f\n      and\n      dup3\n      add\n      swap2\n    tag_54:\n      pop\n      pop\n      pop\n      pop\n      pop\n      swap1\n      pop\n        /* \".workspaces/default_workspace/lecture/twoTimeMapping.sol\":1061:1067  uint f */\n      0x00\n        /* \".workspaces/default_workspace/lecture/twoTimeMapping.sol\":1070:1077  records */\n      0x01\n        /* \".workspaces/default_workspace/lecture/twoTimeMapping.sol\":1070:1081  records[id] */\n      0x00\n        /* \".workspaces/default_workspace/lecture/twoTimeMapping.sol\":1078:1080  id */\n      dup12\n        /* \".workspaces/default_workspace/lecture/twoTimeMapping.sol\":1070:1081  records[id] */\n      dup2\n      mstore\n      0x20\n      add\n      swap1\n      dup2\n      mstore\n      0x20\n      add\n      0x00\n      keccak256\n        /* \".workspaces/default_workspace/lecture/twoTimeMapping.sol\":1082:1087  index */\n      dup8\n        /* \".workspaces/default_workspace/lecture/twoTimeMapping.sol\":1070:1088  records[id][index] */\n      dup2\n      sload\n      dup2\n      lt\n      tag_57\n      jumpi\n      tag_58\n      tag_17\n      jump\t// in\n    tag_58:\n    tag_57:\n      swap1\n      0x00\n      mstore\n      keccak256(0x00, 0x20)\n      swap1\n      0x06\n      mul\n      add\n        /* \".workspaces/default_workspace/lecture/twoTimeMapping.sol\":1070:1093  records[id][index].time */\n      0x05\n      add\n      sload\n        /* \".workspaces/default_workspace/lecture/twoTimeMapping.sol\":1061:1093  uint f = records[id][index].time */\n      swap1\n      pop\n        /* \".workspaces/default_workspace/lecture/twoTimeMapping.sol\":1111:1135  Record(a, b, c, d, e, f) */\n      mload(0x40)\n      dup1\n      0xc0\n      add\n      0x40\n      mstore\n      dup1\n        /* \".workspaces/default_workspace/lecture/twoTimeMapping.sol\":1118:1119  a */\n      dup8\n        /* \".workspaces/default_workspace/lecture/twoTimeMapping.sol\":1111:1135  Record(a, b, c, d, e, f) */\n      dup2\n      mstore\n      0x20\n      add\n        /* \".workspaces/default_workspace/lecture/twoTimeMapping.sol\":1121:1122  b */\n      dup7\n        /* \".workspaces/default_workspace/lecture/twoTimeMapping.sol\":1111:1135  Record(a, b, c, d, e, f) */\n      dup2\n      mstore\n      0x20\n      add\n        /* \".workspaces/default_workspace/lecture/twoTimeMapping.sol\":1124:1125  c */\n      dup6\n        /* \".workspaces/default_workspace/lecture/twoTimeMapping.sol\":1111:1135  Record(a, b, c, d, e, f) */\n      dup2\n      mstore\n      0x20\n      add\n        /* \".workspaces/default_workspace/lecture/twoTimeMapping.sol\":1127:1128  d */\n      dup5\n        /* \".workspaces/default_workspace/lecture/twoTimeMapping.sol\":1111:1135  Record(a, b, c, d, e, f) */\n      dup2\n      mstore\n      0x20\n      add\n        /* \".workspaces/default_workspace/lecture/twoTimeMapping.sol\":1130:1131  e */\n      dup4\n        /* \".workspaces/default_workspace/lecture/twoTimeMapping.sol\":1111:1135  Record(a, b, c, d, e, f) */\n      dup2\n      mstore\n      0x20\n      add\n        /* \".workspaces/default_workspace/lecture/twoTimeMapping.sol\":1133:1134  f */\n      dup3\n        /* \".workspaces/default_workspace/lecture/twoTimeMapping.sol\":1111:1135  Record(a, b, c, d, e, f) */\n      dup2\n      mstore\n      pop\n        /* \".workspaces/default_workspace/lecture/twoTimeMapping.sol\":1104:1135  return Record(a, b, c, d, e, f) */\n      swap8\n      pop\n      pop\n      pop\n      pop\n      pop\n      pop\n      pop\n      pop\n        /* \".workspaces/default_workspace/lecture/twoTimeMapping.sol\":521:1142  function getrec(uint id , uint time) public view returns (Record memory ) {... */\n      swap3\n      swap2\n      pop\n      pop\n      jump\t// out\n    tag_11:\n      mload(0x40)\n      dup1\n      0xc0\n      add\n      0x40\n      mstore\n      dup1\n      0x60\n      dup2\n      mstore\n      0x20\n      add\n      0x60\n      dup2\n      mstore\n      0x20\n      add\n      0x60\n      dup2\n      mstore\n      0x20\n      add\n      0x60\n      dup2\n      mstore\n      0x20\n      add\n      0x60\n      dup2\n      mstore\n      0x20\n      add\n      0x00\n      dup2\n      mstore\n      pop\n      swap1\n      jump\t// out\n        /* \"#utility.yul\":88:205   */\n    tag_61:\n        /* \"#utility.yul\":197:198   */\n      0x00\n        /* \"#utility.yul\":194:195   */\n      dup1\n        /* \"#utility.yul\":187:199   */\n      revert\n        /* \"#utility.yul\":334:411   */\n    tag_63:\n        /* \"#utility.yul\":371:378   */\n      0x00\n        /* \"#utility.yul\":400:405   */\n      dup2\n        /* \"#utility.yul\":389:405   */\n      swap1\n      pop\n        /* \"#utility.yul\":334:411   */\n      swap2\n      swap1\n      pop\n      jump\t// out\n        /* \"#utility.yul\":417:539   */\n    tag_64:\n        /* \"#utility.yul\":490:514   */\n      tag_81\n        /* \"#utility.yul\":508:513   */\n      dup2\n        /* \"#utility.yul\":490:514   */\n      tag_63\n      jump\t// in\n    tag_81:\n        /* \"#utility.yul\":483:488   */\n      dup2\n        /* \"#utility.yul\":480:515   */\n      eq\n        /* \"#utility.yul\":470:533   */\n      tag_82\n      jumpi\n        /* \"#utility.yul\":529:530   */\n      0x00\n        /* \"#utility.yul\":526:527   */\n      dup1\n        /* \"#utility.yul\":519:531   */\n      revert\n        /* \"#utility.yul\":470:533   */\n    tag_82:\n        /* \"#utility.yul\":417:539   */\n      pop\n      jump\t// out\n        /* \"#utility.yul\":545:684   */\n    tag_65:\n        /* \"#utility.yul\":591:596   */\n      0x00\n        /* \"#utility.yul\":629:635   */\n      dup2\n        /* \"#utility.yul\":616:636   */\n      calldataload\n        /* \"#utility.yul\":607:636   */\n      swap1\n      pop\n        /* \"#utility.yul\":645:678   */\n      tag_84\n        /* \"#utility.yul\":672:677   */\n      dup2\n        /* \"#utility.yul\":645:678   */\n      tag_64\n      jump\t// in\n    tag_84:\n        /* \"#utility.yul\":545:684   */\n      swap3\n      swap2\n      pop\n      pop\n      jump\t// out\n        /* \"#utility.yul\":690:1164   */\n    tag_6:\n        /* \"#utility.yul\":758:764   */\n      0x00\n        /* \"#utility.yul\":766:772   */\n      dup1\n        /* \"#utility.yul\":815:817   */\n      0x40\n        /* \"#utility.yul\":803:812   */\n      dup4\n        /* \"#utility.yul\":794:801   */\n      dup6\n        /* \"#utility.yul\":790:813   */\n      sub\n        /* \"#utility.yul\":786:818   */\n      slt\n        /* \"#utility.yul\":783:902   */\n      iszero\n      tag_86\n      jumpi\n        /* \"#utility.yul\":821:900   */\n      tag_87\n      tag_61\n      jump\t// in\n    tag_87:\n        /* \"#utility.yul\":783:902   */\n    tag_86:\n        /* \"#utility.yul\":941:942   */\n      0x00\n        /* \"#utility.yul\":966:1019   */\n      tag_88\n        /* \"#utility.yul\":1011:1018   */\n      dup6\n        /* \"#utility.yul\":1002:1008   */\n      dup3\n        /* \"#utility.yul\":991:1000   */\n      dup7\n        /* \"#utility.yul\":987:1009   */\n      add\n        /* \"#utility.yul\":966:1019   */\n      tag_65\n      jump\t// in\n    tag_88:\n        /* \"#utility.yul\":956:1019   */\n      swap3\n      pop\n        /* \"#utility.yul\":912:1029   */\n      pop\n        /* \"#utility.yul\":1068:1070   */\n      0x20\n        /* \"#utility.yul\":1094:1147   */\n      tag_89\n        /* \"#utility.yul\":1139:1146   */\n      dup6\n        /* \"#utility.yul\":1130:1136   */\n      dup3\n        /* \"#utility.yul\":1119:1128   */\n      dup7\n        /* \"#utility.yul\":1115:1137   */\n      add\n        /* \"#utility.yul\":1094:1147   */\n      tag_65\n      jump\t// in\n    tag_89:\n        /* \"#utility.yul\":1084:1147   */\n      swap2\n      pop\n        /* \"#utility.yul\":1039:1157   */\n      pop\n        /* \"#utility.yul\":690:1164   */\n      swap3\n      pop\n      swap3\n      swap1\n      pop\n      jump\t// out\n        /* \"#utility.yul\":1170:1269   */\n    tag_66:\n        /* \"#utility.yul\":1222:1228   */\n      0x00\n        /* \"#utility.yul\":1256:1261   */\n      dup2\n        /* \"#utility.yul\":1250:1262   */\n      mload\n        /* \"#utility.yul\":1240:1262   */\n      swap1\n      pop\n        /* \"#utility.yul\":1170:1269   */\n      swap2\n      swap1\n      pop\n      jump\t// out\n        /* \"#utility.yul\":1275:1434   */\n    tag_67:\n        /* \"#utility.yul\":1349:1360   */\n      0x00\n        /* \"#utility.yul\":1383:1389   */\n      dup3\n        /* \"#utility.yul\":1378:1381   */\n      dup3\n        /* \"#utility.yul\":1371:1390   */\n      mstore\n        /* \"#utility.yul\":1423:1427   */\n      0x20\n        /* \"#utility.yul\":1418:1421   */\n      dup3\n        /* \"#utility.yul\":1414:1428   */\n      add\n        /* \"#utility.yul\":1399:1428   */\n      swap1\n      pop\n        /* \"#utility.yul\":1275:1434   */\n      swap3\n      swap2\n      pop\n      pop\n      jump\t// out\n        /* \"#utility.yul\":1440:1747   */\n    tag_68:\n        /* \"#utility.yul\":1508:1509   */\n      0x00\n        /* \"#utility.yul\":1518:1631   */\n    tag_93:\n        /* \"#utility.yul\":1532:1538   */\n      dup4\n        /* \"#utility.yul\":1529:1530   */\n      dup2\n        /* \"#utility.yul\":1526:1539   */\n      lt\n        /* \"#utility.yul\":1518:1631   */\n      iszero\n      tag_95\n      jumpi\n        /* \"#utility.yul\":1617:1618   */\n      dup1\n        /* \"#utility.yul\":1612:1615   */\n      dup3\n        /* \"#utility.yul\":1608:1619   */\n      add\n        /* \"#utility.yul\":1602:1620   */\n      mload\n        /* \"#utility.yul\":1598:1599   */\n      dup2\n        /* \"#utility.yul\":1593:1596   */\n      dup5\n        /* \"#utility.yul\":1589:1600   */\n      add\n        /* \"#utility.yul\":1582:1621   */\n      mstore\n        /* \"#utility.yul\":1554:1556   */\n      0x20\n        /* \"#utility.yul\":1551:1552   */\n      dup2\n        /* \"#utility.yul\":1547:1557   */\n      add\n        /* \"#utility.yul\":1542:1557   */\n      swap1\n      pop\n        /* \"#utility.yul\":1518:1631   */\n      jump(tag_93)\n    tag_95:\n        /* \"#utility.yul\":1649:1655   */\n      dup4\n        /* \"#utility.yul\":1646:1647   */\n      dup2\n        /* \"#utility.yul\":1643:1656   */\n      gt\n        /* \"#utility.yul\":1640:1741   */\n      iszero\n      tag_96\n      jumpi\n        /* \"#utility.yul\":1729:1730   */\n      0x00\n        /* \"#utility.yul\":1720:1726   */\n      dup5\n        /* \"#utility.yul\":1715:1718   */\n      dup5\n        /* \"#utility.yul\":1711:1727   */\n      add\n        /* \"#utility.yul\":1704:1731   */\n      mstore\n        /* \"#utility.yul\":1640:1741   */\n    tag_96:\n        /* \"#utility.yul\":1489:1747   */\n      pop\n        /* \"#utility.yul\":1440:1747   */\n      pop\n      pop\n      pop\n      jump\t// out\n        /* \"#utility.yul\":1753:1855   */\n    tag_69:\n        /* \"#utility.yul\":1794:1800   */\n      0x00\n        /* \"#utility.yul\":1845:1847   */\n      0x1f\n        /* \"#utility.yul\":1841:1848   */\n      not\n        /* \"#utility.yul\":1836:1838   */\n      0x1f\n        /* \"#utility.yul\":1829:1834   */\n      dup4\n        /* \"#utility.yul\":1825:1839   */\n      add\n        /* \"#utility.yul\":1821:1849   */\n      and\n        /* \"#utility.yul\":1811:1849   */\n      swap1\n      pop\n        /* \"#utility.yul\":1753:1855   */\n      swap2\n      swap1\n      pop\n      jump\t// out\n        /* \"#utility.yul\":1861:2205   */\n    tag_70:\n        /* \"#utility.yul\":1939:1942   */\n      0x00\n        /* \"#utility.yul\":1967:2006   */\n      tag_99\n        /* \"#utility.yul\":2000:2005   */\n      dup3\n        /* \"#utility.yul\":1967:2006   */\n      tag_66\n      jump\t// in\n    tag_99:\n        /* \"#utility.yul\":2022:2083   */\n      tag_100\n        /* \"#utility.yul\":2076:2082   */\n      dup2\n        /* \"#utility.yul\":2071:2074   */\n      dup6\n        /* \"#utility.yul\":2022:2083   */\n      tag_67\n      jump\t// in\n    tag_100:\n        /* \"#utility.yul\":2015:2083   */\n      swap4\n      pop\n        /* \"#utility.yul\":2092:2144   */\n      tag_101\n        /* \"#utility.yul\":2137:2143   */\n      dup2\n        /* \"#utility.yul\":2132:2135   */\n      dup6\n        /* \"#utility.yul\":2125:2129   */\n      0x20\n        /* \"#utility.yul\":2118:2123   */\n      dup7\n        /* \"#utility.yul\":2114:2130   */\n      add\n        /* \"#utility.yul\":2092:2144   */\n      tag_68\n      jump\t// in\n    tag_101:\n        /* \"#utility.yul\":2169:2198   */\n      tag_102\n        /* \"#utility.yul\":2191:2197   */\n      dup2\n        /* \"#utility.yul\":2169:2198   */\n      tag_69\n      jump\t// in\n    tag_102:\n        /* \"#utility.yul\":2164:2167   */\n      dup5\n        /* \"#utility.yul\":2160:2199   */\n      add\n        /* \"#utility.yul\":2153:2199   */\n      swap2\n      pop\n        /* \"#utility.yul\":1943:2205   */\n      pop\n        /* \"#utility.yul\":1861:2205   */\n      swap3\n      swap2\n      pop\n      pop\n      jump\t// out\n        /* \"#utility.yul\":2211:2319   */\n    tag_71:\n        /* \"#utility.yul\":2288:2312   */\n      tag_104\n        /* \"#utility.yul\":2306:2311   */\n      dup2\n        /* \"#utility.yul\":2288:2312   */\n      tag_63\n      jump\t// in\n    tag_104:\n        /* \"#utility.yul\":2283:2286   */\n      dup3\n        /* \"#utility.yul\":2276:2313   */\n      mstore\n        /* \"#utility.yul\":2211:2319   */\n      pop\n      pop\n      jump\t// out\n        /* \"#utility.yul\":2395:4010   */\n    tag_72:\n        /* \"#utility.yul\":2508:2511   */\n      0x00\n        /* \"#utility.yul\":2544:2548   */\n      0xc0\n        /* \"#utility.yul\":2539:2542   */\n      dup4\n        /* \"#utility.yul\":2535:2549   */\n      add\n        /* \"#utility.yul\":2631:2635   */\n      0x00\n        /* \"#utility.yul\":2624:2629   */\n      dup4\n        /* \"#utility.yul\":2620:2636   */\n      add\n        /* \"#utility.yul\":2614:2637   */\n      mload\n        /* \"#utility.yul\":2684:2687   */\n      dup5\n        /* \"#utility.yul\":2678:2682   */\n      dup3\n        /* \"#utility.yul\":2674:2688   */\n      sub\n        /* \"#utility.yul\":2667:2671   */\n      0x00\n        /* \"#utility.yul\":2662:2665   */\n      dup7\n        /* \"#utility.yul\":2658:2672   */\n      add\n        /* \"#utility.yul\":2651:2689   */\n      mstore\n        /* \"#utility.yul\":2710:2783   */\n      tag_106\n        /* \"#utility.yul\":2778:2782   */\n      dup3\n        /* \"#utility.yul\":2764:2776   */\n      dup3\n        /* \"#utility.yul\":2710:2783   */\n      tag_70\n      jump\t// in\n    tag_106:\n        /* \"#utility.yul\":2702:2783   */\n      swap2\n      pop\n        /* \"#utility.yul\":2559:2794   */\n      pop\n        /* \"#utility.yul\":2885:2889   */\n      0x20\n        /* \"#utility.yul\":2878:2883   */\n      dup4\n        /* \"#utility.yul\":2874:2890   */\n      add\n        /* \"#utility.yul\":2868:2891   */\n      mload\n        /* \"#utility.yul\":2938:2941   */\n      dup5\n        /* \"#utility.yul\":2932:2936   */\n      dup3\n        /* \"#utility.yul\":2928:2942   */\n      sub\n        /* \"#utility.yul\":2921:2925   */\n      0x20\n        /* \"#utility.yul\":2916:2919   */\n      dup7\n        /* \"#utility.yul\":2912:2926   */\n      add\n        /* \"#utility.yul\":2905:2943   */\n      mstore\n        /* \"#utility.yul\":2964:3037   */\n      tag_107\n        /* \"#utility.yul\":3032:3036   */\n      dup3\n        /* \"#utility.yul\":3018:3030   */\n      dup3\n        /* \"#utility.yul\":2964:3037   */\n      tag_70\n      jump\t// in\n    tag_107:\n        /* \"#utility.yul\":2956:3037   */\n      swap2\n      pop\n        /* \"#utility.yul\":2804:3048   */\n      pop\n        /* \"#utility.yul\":3140:3144   */\n      0x40\n        /* \"#utility.yul\":3133:3138   */\n      dup4\n        /* \"#utility.yul\":3129:3145   */\n      add\n        /* \"#utility.yul\":3123:3146   */\n      mload\n        /* \"#utility.yul\":3193:3196   */\n      dup5\n        /* \"#utility.yul\":3187:3191   */\n      dup3\n        /* \"#utility.yul\":3183:3197   */\n      sub\n        /* \"#utility.yul\":3176:3180   */\n      0x40\n        /* \"#utility.yul\":3171:3174   */\n      dup7\n        /* \"#utility.yul\":3167:3181   */\n      add\n        /* \"#utility.yul\":3160:3198   */\n      mstore\n        /* \"#utility.yul\":3219:3292   */\n      tag_108\n        /* \"#utility.yul\":3287:3291   */\n      dup3\n        /* \"#utility.yul\":3273:3285   */\n      dup3\n        /* \"#utility.yul\":3219:3292   */\n      tag_70\n      jump\t// in\n    tag_108:\n        /* \"#utility.yul\":3211:3292   */\n      swap2\n      pop\n        /* \"#utility.yul\":3058:3303   */\n      pop\n        /* \"#utility.yul\":3393:3397   */\n      0x60\n        /* \"#utility.yul\":3386:3391   */\n      dup4\n        /* \"#utility.yul\":3382:3398   */\n      add\n        /* \"#utility.yul\":3376:3399   */\n      mload\n        /* \"#utility.yul\":3446:3449   */\n      dup5\n        /* \"#utility.yul\":3440:3444   */\n      dup3\n        /* \"#utility.yul\":3436:3450   */\n      sub\n        /* \"#utility.yul\":3429:3433   */\n      0x60\n        /* \"#utility.yul\":3424:3427   */\n      dup7\n        /* \"#utility.yul\":3420:3434   */\n      add\n        /* \"#utility.yul\":3413:3451   */\n      mstore\n        /* \"#utility.yul\":3472:3545   */\n      tag_109\n        /* \"#utility.yul\":3540:3544   */\n      dup3\n        /* \"#utility.yul\":3526:3538   */\n      dup3\n        /* \"#utility.yul\":3472:3545   */\n      tag_70\n      jump\t// in\n    tag_109:\n        /* \"#utility.yul\":3464:3545   */\n      swap2\n      pop\n        /* \"#utility.yul\":3313:3556   */\n      pop\n        /* \"#utility.yul\":3646:3650   */\n      0x80\n        /* \"#utility.yul\":3639:3644   */\n      dup4\n        /* \"#utility.yul\":3635:3651   */\n      add\n        /* \"#utility.yul\":3629:3652   */\n      mload\n        /* \"#utility.yul\":3699:3702   */\n      dup5\n        /* \"#utility.yul\":3693:3697   */\n      dup3\n        /* \"#utility.yul\":3689:3703   */\n      sub\n        /* \"#utility.yul\":3682:3686   */\n      0x80\n        /* \"#utility.yul\":3677:3680   */\n      dup7\n        /* \"#utility.yul\":3673:3687   */\n      add\n        /* \"#utility.yul\":3666:3704   */\n      mstore\n        /* \"#utility.yul\":3725:3798   */\n      tag_110\n        /* \"#utility.yul\":3793:3797   */\n      dup3\n        /* \"#utility.yul\":3779:3791   */\n      dup3\n        /* \"#utility.yul\":3725:3798   */\n      tag_70\n      jump\t// in\n    tag_110:\n        /* \"#utility.yul\":3717:3798   */\n      swap2\n      pop\n        /* \"#utility.yul\":3566:3809   */\n      pop\n        /* \"#utility.yul\":3891:3895   */\n      0xa0\n        /* \"#utility.yul\":3884:3889   */\n      dup4\n        /* \"#utility.yul\":3880:3896   */\n      add\n        /* \"#utility.yul\":3874:3897   */\n      mload\n        /* \"#utility.yul\":3910:3973   */\n      tag_111\n        /* \"#utility.yul\":3967:3971   */\n      0xa0\n        /* \"#utility.yul\":3962:3965   */\n      dup7\n        /* \"#utility.yul\":3958:3972   */\n      add\n        /* \"#utility.yul\":3944:3956   */\n      dup3\n        /* \"#utility.yul\":3910:3973   */\n      tag_71\n      jump\t// in\n    tag_111:\n        /* \"#utility.yul\":3819:3983   */\n      pop\n        /* \"#utility.yul\":4000:4004   */\n      dup1\n        /* \"#utility.yul\":3993:4004   */\n      swap2\n      pop\n        /* \"#utility.yul\":2513:4010   */\n      pop\n        /* \"#utility.yul\":2395:4010   */\n      swap3\n      swap2\n      pop\n      pop\n      jump\t// out\n        /* \"#utility.yul\":4016:4377   */\n    tag_9:\n        /* \"#utility.yul\":4153:4157   */\n      0x00\n        /* \"#utility.yul\":4191:4193   */\n      0x20\n        /* \"#utility.yul\":4180:4189   */\n      dup3\n        /* \"#utility.yul\":4176:4194   */\n      add\n        /* \"#utility.yul\":4168:4194   */\n      swap1\n      pop\n        /* \"#utility.yul\":4240:4249   */\n      dup2\n        /* \"#utility.yul\":4234:4238   */\n      dup2\n        /* \"#utility.yul\":4230:4250   */\n      sub\n        /* \"#utility.yul\":4226:4227   */\n      0x00\n        /* \"#utility.yul\":4215:4224   */\n      dup4\n        /* \"#utility.yul\":4211:4228   */\n      add\n        /* \"#utility.yul\":4204:4251   */\n      mstore\n        /* \"#utility.yul\":4268:4370   */\n      tag_113\n        /* \"#utility.yul\":4365:4369   */\n      dup2\n        /* \"#utility.yul\":4356:4362   */\n      dup5\n        /* \"#utility.yul\":4268:4370   */\n      tag_72\n      jump\t// in\n    tag_113:\n        /* \"#utility.yul\":4260:4370   */\n      swap1\n      pop\n        /* \"#utility.yul\":4016:4377   */\n      swap3\n      swap2\n      pop\n      pop\n      jump\t// out\n        /* \"#utility.yul\":4383:4563   */\n    tag_73:\n        /* \"#utility.yul\":4431:4508   */\n      0x4e487b7100000000000000000000000000000000000000000000000000000000\n        /* \"#utility.yul\":4428:4429   */\n      0x00\n        /* \"#utility.yul\":4421:4509   */\n      mstore\n        /* \"#utility.yul\":4528:4532   */\n      0x11\n        /* \"#utility.yul\":4525:4526   */\n      0x04\n        /* \"#utility.yul\":4518:4533   */\n      mstore\n        /* \"#utility.yul\":4552:4556   */\n      0x24\n        /* \"#utility.yul\":4549:4550   */\n      0x00\n        /* \"#utility.yul\":4542:4557   */\n      revert\n        /* \"#utility.yul\":4569:4760   */\n    tag_14:\n        /* \"#utility.yul\":4609:4613   */\n      0x00\n        /* \"#utility.yul\":4629:4649   */\n      tag_116\n        /* \"#utility.yul\":4647:4648   */\n      dup3\n        /* \"#utility.yul\":4629:4649   */\n      tag_63\n      jump\t// in\n    tag_116:\n        /* \"#utility.yul\":4624:4649   */\n      swap2\n      pop\n        /* \"#utility.yul\":4663:4683   */\n      tag_117\n        /* \"#utility.yul\":4681:4682   */\n      dup4\n        /* \"#utility.yul\":4663:4683   */\n      tag_63\n      jump\t// in\n    tag_117:\n        /* \"#utility.yul\":4658:4683   */\n      swap3\n      pop\n        /* \"#utility.yul\":4702:4703   */\n      dup3\n        /* \"#utility.yul\":4699:4700   */\n      dup3\n        /* \"#utility.yul\":4696:4704   */\n      lt\n        /* \"#utility.yul\":4693:4727   */\n      iszero\n      tag_118\n      jumpi\n        /* \"#utility.yul\":4707:4725   */\n      tag_119\n      tag_73\n      jump\t// in\n    tag_119:\n        /* \"#utility.yul\":4693:4727   */\n    tag_118:\n        /* \"#utility.yul\":4752:4753   */\n      dup3\n        /* \"#utility.yul\":4749:4750   */\n      dup3\n        /* \"#utility.yul\":4745:4754   */\n      sub\n        /* \"#utility.yul\":4737:4754   */\n      swap1\n      pop\n        /* \"#utility.yul\":4569:4760   */\n      swap3\n      swap2\n      pop\n      pop\n      jump\t// out\n        /* \"#utility.yul\":4766:4946   */\n    tag_17:\n        /* \"#utility.yul\":4814:4891   */\n      0x4e487b7100000000000000000000000000000000000000000000000000000000\n        /* \"#utility.yul\":4811:4812   */\n      0x00\n        /* \"#utility.yul\":4804:4892   */\n      mstore\n        /* \"#utility.yul\":4911:4915   */\n      0x32\n        /* \"#utility.yul\":4908:4909   */\n      0x04\n        /* \"#utility.yul\":4901:4916   */\n      mstore\n        /* \"#utility.yul\":4935:4939   */\n      0x24\n        /* \"#utility.yul\":4932:4933   */\n      0x00\n        /* \"#utility.yul\":4925:4940   */\n      revert\n        /* \"#utility.yul\":4952:5132   */\n    tag_74:\n        /* \"#utility.yul\":5000:5077   */\n      0x4e487b7100000000000000000000000000000000000000000000000000000000\n        /* \"#utility.yul\":4997:4998   */\n      0x00\n        /* \"#utility.yul\":4990:5078   */\n      mstore\n        /* \"#utility.yul\":5097:5101   */\n      0x22\n        /* \"#utility.yul\":5094:5095   */\n      0x04\n        /* \"#utility.yul\":5087:5102   */\n      mstore\n        /* \"#utility.yul\":5121:5125   */\n      0x24\n        /* \"#utility.yul\":5118:5119   */\n      0x00\n        /* \"#utility.yul\":5111:5126   */\n      revert\n        /* \"#utility.yul\":5138:5458   */\n    tag_20:\n        /* \"#utility.yul\":5182:5188   */\n      0x00\n        /* \"#utility.yul\":5219:5220   */\n      0x02\n        /* \"#utility.yul\":5213:5217   */\n      dup3\n        /* \"#utility.yul\":5209:5221   */\n      div\n        /* \"#utility.yul\":5199:5221   */\n      swap1\n      pop\n        /* \"#utility.yul\":5266:5267   */\n      0x01\n        /* \"#utility.yul\":5260:5264   */\n      dup3\n        /* \"#utility.yul\":5256:5268   */\n      and\n        /* \"#utility.yul\":5287:5305   */\n      dup1\n        /* \"#utility.yul\":5277:5358   */\n      tag_123\n      jumpi\n        /* \"#utility.yul\":5343:5347   */\n      0x7f\n        /* \"#utility.yul\":5335:5341   */\n      dup3\n        /* \"#utility.yul\":5331:5348   */\n      and\n        /* \"#utility.yul\":5321:5348   */\n      swap2\n      pop\n        /* \"#utility.yul\":5277:5358   */\n    tag_123:\n        /* \"#utility.yul\":5405:5407   */\n      0x20\n        /* \"#utility.yul\":5397:5403   */\n      dup3\n        /* \"#utility.yul\":5394:5408   */\n      lt\n        /* \"#utility.yul\":5374:5392   */\n      dup2\n        /* \"#utility.yul\":5371:5409   */\n      sub\n        /* \"#utility.yul\":5368:5452   */\n      tag_124\n      jumpi\n        /* \"#utility.yul\":5424:5442   */\n      tag_125\n      tag_74\n      jump\t// in\n    tag_125:\n        /* \"#utility.yul\":5368:5452   */\n    tag_124:\n        /* \"#utility.yul\":5189:5458   */\n      pop\n        /* \"#utility.yul\":5138:5458   */\n      swap2\n      swap1\n      pop\n      jump\t// out\n\n    auxdata: 0xa2646970667358221220d9f0788f18bc18203bce5f45ac08cb466b3cada02b0197ca9a592349f13de31664736f6c634300080d0033\n}\n",
				"bytecode": {
					"linkReferences": {},
					"object": "608060405234801561001057600080fd5b5061082d806100206000396000f3fe608060405234801561001057600080fd5b506004361061002b5760003560e01c806375b42f5914610030575b600080fd5b61004a60048036038101906100459190610556565b610060565b60405161005791906106e3565b60405180910390f35b6100686104e5565b6000806000858152602001908152602001600020600084815260200190815260200160002054905060018161009d9190610734565b905060006001600086815260200190815260200160002082815481106100c6576100c5610768565b5b906000526020600020906006020160000180546100e2906107c6565b80601f016020809104026020016040519081016040528092919081815260200182805461010e906107c6565b801561015b5780601f106101305761010080835404028352916020019161015b565b820191906000526020600020905b81548152906001019060200180831161013e57829003601f168201915b50505050509050600060016000878152602001908152602001600020838154811061018957610188610768565b5b906000526020600020906006020160010180546101a5906107c6565b80601f01602080910402602001604051908101604052809291908181526020018280546101d1906107c6565b801561021e5780601f106101f35761010080835404028352916020019161021e565b820191906000526020600020905b81548152906001019060200180831161020157829003601f168201915b50505050509050600060016000888152602001908152602001600020848154811061024c5761024b610768565b5b90600052602060002090600602016002018054610268906107c6565b80601f0160208091040260200160405190810160405280929190818152602001828054610294906107c6565b80156102e15780601f106102b6576101008083540402835291602001916102e1565b820191906000526020600020905b8154815290600101906020018083116102c457829003601f168201915b50505050509050600060016000898152602001908152602001600020858154811061030f5761030e610768565b5b9060005260206000209060060201600301805461032b906107c6565b80601f0160208091040260200160405190810160405280929190818152602001828054610357906107c6565b80156103a45780601f10610379576101008083540402835291602001916103a4565b820191906000526020600020905b81548152906001019060200180831161038757829003601f168201915b505050505090506000600160008a815260200190815260200160002086815481106103d2576103d1610768565b5b906000526020600020906006020160040180546103ee906107c6565b80601f016020809104026020016040519081016040528092919081815260200182805461041a906107c6565b80156104675780601f1061043c57610100808354040283529160200191610467565b820191906000526020600020905b81548152906001019060200180831161044a57829003601f168201915b505050505090506000600160008b8152602001908152602001600020878154811061049557610494610768565b5b90600052602060002090600602016005015490506040518060c001604052808781526020018681526020018581526020018481526020018381526020018281525097505050505050505092915050565b6040518060c001604052806060815260200160608152602001606081526020016060815260200160608152602001600081525090565b600080fd5b6000819050919050565b61053381610520565b811461053e57600080fd5b50565b6000813590506105508161052a565b92915050565b6000806040838503121561056d5761056c61051b565b5b600061057b85828601610541565b925050602061058c85828601610541565b9150509250929050565b600081519050919050565b600082825260208201905092915050565b60005b838110156105d05780820151818401526020810190506105b5565b838111156105df576000848401525b50505050565b6000601f19601f8301169050919050565b600061060182610596565b61060b81856105a1565b935061061b8185602086016105b2565b610624816105e5565b840191505092915050565b61063881610520565b82525050565b600060c083016000830151848203600086015261065b82826105f6565b9150506020830151848203602086015261067582826105f6565b9150506040830151848203604086015261068f82826105f6565b915050606083015184820360608601526106a982826105f6565b915050608083015184820360808601526106c382826105f6565b91505060a08301516106d860a086018261062f565b508091505092915050565b600060208201905081810360008301526106fd818461063e565b905092915050565b7f4e487b7100000000000000000000000000000000000000000000000000000000600052601160045260246000fd5b600061073f82610520565b915061074a83610520565b92508282101561075d5761075c610705565b5b828203905092915050565b7f4e487b7100000000000000000000000000000000000000000000000000000000600052603260045260246000fd5b7f4e487b7100000000000000000000000000000000000000000000000000000000600052602260045260246000fd5b600060028204905060018216806107de57607f821691505b6020821081036107f1576107f0610797565b5b5091905056fea2646970667358221220d9f0788f18bc18203bce5f45ac08cb466b3cada02b0197ca9a592349f13de31664736f6c634300080d0033",
					"opcodes": "PUSH1 0x80 PUSH1 0x40 MSTORE CALLVALUE DUP1 ISZERO PUSH2 0x10 JUMPI PUSH1 0x0 DUP1 REVERT JUMPDEST POP PUSH2 0x82D DUP1 PUSH2 0x20 PUSH1 0x0 CODECOPY PUSH1 0x0 RETURN INVALID PUSH1 0x80 PUSH1 0x40 MSTORE CALLVALUE DUP1 ISZERO PUSH2 0x10 JUMPI PUSH1 0x0 DUP1 REVERT JUMPDEST POP PUSH1 0x4 CALLDATASIZE LT PUSH2 0x2B JUMPI PUSH1 0x0 CALLDATALOAD PUSH1 0xE0 SHR DUP1 PUSH4 0x75B42F59 EQ PUSH2 0x30 JUMPI JUMPDEST PUSH1 0x0 DUP1 REVERT JUMPDEST PUSH2 0x4A PUSH1 0x4 DUP1 CALLDATASIZE SUB DUP2 ADD SWAP1 PUSH2 0x45 SWAP2 SWAP1 PUSH2 0x556 JUMP JUMPDEST PUSH2 0x60 JUMP JUMPDEST PUSH1 0x40 MLOAD PUSH2 0x57 SWAP2 SWAP1 PUSH2 0x6E3 JUMP JUMPDEST PUSH1 0x40 MLOAD DUP1 SWAP2 SUB SWAP1 RETURN JUMPDEST PUSH2 0x68 PUSH2 0x4E5 JUMP JUMPDEST PUSH1 0x0 DUP1 PUSH1 0x0 DUP6 DUP2 MSTORE PUSH1 0x20 ADD SWAP1 DUP2 MSTORE PUSH1 0x20 ADD PUSH1 0x0 KECCAK256 PUSH1 0x0 DUP5 DUP2 MSTORE PUSH1 0x20 ADD SWAP1 DUP2 MSTORE PUSH1 0x20 ADD PUSH1 0x0 KECCAK256 SLOAD SWAP1 POP PUSH1 0x1 DUP2 PUSH2 0x9D SWAP2 SWAP1 PUSH2 0x734 JUMP JUMPDEST SWAP1 POP PUSH1 0x0 PUSH1 0x1 PUSH1 0x0 DUP7 DUP2 MSTORE PUSH1 0x20 ADD SWAP1 DUP2 MSTORE PUSH1 0x20 ADD PUSH1 0x0 KECCAK256 DUP3 DUP2 SLOAD DUP2 LT PUSH2 0xC6 JUMPI PUSH2 0xC5 PUSH2 0x768 JUMP JUMPDEST JUMPDEST SWAP1 PUSH1 0x0 MSTORE PUSH1 0x20 PUSH1 0x0 KECCAK256 SWAP1 PUSH1 0x6 MUL ADD PUSH1 0x0 ADD DUP1 SLOAD PUSH2 0xE2 SWAP1 PUSH2 0x7C6 JUMP JUMPDEST DUP1 PUSH1 0x1F ADD PUSH1 0x20 DUP1 SWAP2 DIV MUL PUSH1 0x20 ADD PUSH1 0x40 MLOAD SWAP1 DUP2 ADD PUSH1 0x40 MSTORE DUP1 SWAP3 SWAP2 SWAP1 DUP2 DUP2 MSTORE PUSH1 0x20 ADD DUP3 DUP1 SLOAD PUSH2 0x10E SWAP1 PUSH2 0x7C6 JUMP JUMPDEST DUP1 ISZERO PUSH2 0x15B JUMPI DUP1 PUSH1 0x1F LT PUSH2 0x130 JUMPI PUSH2 0x100 DUP1 DUP4 SLOAD DIV MUL DUP4 MSTORE SWAP2 PUSH1 0x20 ADD SWAP2 PUSH2 0x15B JUMP JUMPDEST DUP3 ADD SWAP2 SWAP1 PUSH1 0x0 MSTORE PUSH1 0x20 PUSH1 0x0 KECCAK256 SWAP1 JUMPDEST DUP2 SLOAD DUP2 MSTORE SWAP1 PUSH1 0x1 ADD SWAP1 PUSH1 0x20 ADD DUP1 DUP4 GT PUSH2 0x13E JUMPI DUP3 SWAP1 SUB PUSH1 0x1F AND DUP3 ADD SWAP2 JUMPDEST POP POP POP POP POP SWAP1 POP PUSH1 0x0 PUSH1 0x1 PUSH1 0x0 DUP8 DUP2 MSTORE PUSH1 0x20 ADD SWAP1 DUP2 MSTORE PUSH1 0x20 ADD PUSH1 0x0 KECCAK256 DUP4 DUP2 SLOAD DUP2 LT PUSH2 0x189 JUMPI PUSH2 0x188 PUSH2 0x768 JUMP JUMPDEST JUMPDEST SWAP1 PUSH1 0x0 MSTORE PUSH1 0x20 PUSH1 0x0 KECCAK256 SWAP1 PUSH1 0x6 MUL ADD PUSH1 0x1 ADD DUP1 SLOAD PUSH2 0x1A5 SWAP1 PUSH2 0x7C6 JUMP JUMPDEST DUP1 PUSH1 0x1F ADD PUSH1 0x20 DUP1 SWAP2 DIV MUL PUSH1 0x20 ADD PUSH1 0x40 MLOAD SWAP1 DUP2 ADD PUSH1 0x40 MSTORE DUP1 SWAP3 SWAP2 SWAP1 DUP2 DUP2 MSTORE PUSH1 0x20 ADD DUP3 DUP1 SLOAD PUSH2 0x1D1 SWAP1 PUSH2 0x7C6 JUMP JUMPDEST DUP1 ISZERO PUSH2 0x21E JUMPI DUP1 PUSH1 0x1F LT PUSH2 0x1F3 JUMPI PUSH2 0x100 DUP1 DUP4 SLOAD DIV MUL DUP4 MSTORE SWAP2 PUSH1 0x20 ADD SWAP2 PUSH2 0x21E JUMP JUMPDEST DUP3 ADD SWAP2 SWAP1 PUSH1 0x0 MSTORE PUSH1 0x20 PUSH1 0x0 KECCAK256 SWAP1 JUMPDEST DUP2 SLOAD DUP2 MSTORE SWAP1 PUSH1 0x1 ADD SWAP1 PUSH1 0x20 ADD DUP1 DUP4 GT PUSH2 0x201 JUMPI DUP3 SWAP1 SUB PUSH1 0x1F AND DUP3 ADD SWAP2 JUMPDEST POP POP POP POP POP SWAP1 POP PUSH1 0x0 PUSH1 0x1 PUSH1 0x0 DUP9 DUP2 MSTORE PUSH1 0x20 ADD SWAP1 DUP2 MSTORE PUSH1 0x20 ADD PUSH1 0x0 KECCAK256 DUP5 DUP2 SLOAD DUP2 LT PUSH2 0x24C JUMPI PUSH2 0x24B PUSH2 0x768 JUMP JUMPDEST JUMPDEST SWAP1 PUSH1 0x0 MSTORE PUSH1 0x20 PUSH1 0x0 KECCAK256 SWAP1 PUSH1 0x6 MUL ADD PUSH1 0x2 ADD DUP1 SLOAD PUSH2 0x268 SWAP1 PUSH2 0x7C6 JUMP JUMPDEST DUP1 PUSH1 0x1F ADD PUSH1 0x20 DUP1 SWAP2 DIV MUL PUSH1 0x20 ADD PUSH1 0x40 MLOAD SWAP1 DUP2 ADD PUSH1 0x40 MSTORE DUP1 SWAP3 SWAP2 SWAP1 DUP2 DUP2 MSTORE PUSH1 0x20 ADD DUP3 DUP1 SLOAD PUSH2 0x294 SWAP1 PUSH2 0x7C6 JUMP JUMPDEST DUP1 ISZERO PUSH2 0x2E1 JUMPI DUP1 PUSH1 0x1F LT PUSH2 0x2B6 JUMPI PUSH2 0x100 DUP1 DUP4 SLOAD DIV MUL DUP4 MSTORE SWAP2 PUSH1 0x20 ADD SWAP2 PUSH2 0x2E1 JUMP JUMPDEST DUP3 ADD SWAP2 SWAP1 PUSH1 0x0 MSTORE PUSH1 0x20 PUSH1 0x0 KECCAK256 SWAP1 JUMPDEST DUP2 SLOAD DUP2 MSTORE SWAP1 PUSH1 0x1 ADD SWAP1 PUSH1 0x20 ADD DUP1 DUP4 GT PUSH2 0x2C4 JUMPI DUP3 SWAP1 SUB PUSH1 0x1F AND DUP3 ADD SWAP2 JUMPDEST POP POP POP POP POP SWAP1 POP PUSH1 0x0 PUSH1 0x1 PUSH1 0x0 DUP10 DUP2 MSTORE PUSH1 0x20 ADD SWAP1 DUP2 MSTORE PUSH1 0x20 ADD PUSH1 0x0 KECCAK256 DUP6 DUP2 SLOAD DUP2 LT PUSH2 0x30F JUMPI PUSH2 0x30E PUSH2 0x768 JUMP JUMPDEST JUMPDEST SWAP1 PUSH1 0x0 MSTORE PUSH1 0x20 PUSH1 0x0 KECCAK256 SWAP1 PUSH1 0x6 MUL ADD PUSH1 0x3 ADD DUP1 SLOAD PUSH2 0x32B SWAP1 PUSH2 0x7C6 JUMP JUMPDEST DUP1 PUSH1 0x1F ADD PUSH1 0x20 DUP1 SWAP2 DIV MUL PUSH1 0x20 ADD PUSH1 0x40 MLOAD SWAP1 DUP2 ADD PUSH1 0x40 MSTORE DUP1 SWAP3 SWAP2 SWAP1 DUP2 DUP2 MSTORE PUSH1 0x20 ADD DUP3 DUP1 SLOAD PUSH2 0x357 SWAP1 PUSH2 0x7C6 JUMP JUMPDEST DUP1 ISZERO PUSH2 0x3A4 JUMPI DUP1 PUSH1 0x1F LT PUSH2 0x379 JUMPI PUSH2 0x100 DUP1 DUP4 SLOAD DIV MUL DUP4 MSTORE SWAP2 PUSH1 0x20 ADD SWAP2 PUSH2 0x3A4 JUMP JUMPDEST DUP3 ADD SWAP2 SWAP1 PUSH1 0x0 MSTORE PUSH1 0x20 PUSH1 0x0 KECCAK256 SWAP1 JUMPDEST DUP2 SLOAD DUP2 MSTORE SWAP1 PUSH1 0x1 ADD SWAP1 PUSH1 0x20 ADD DUP1 DUP4 GT PUSH2 0x387 JUMPI DUP3 SWAP1 SUB PUSH1 0x1F AND DUP3 ADD SWAP2 JUMPDEST POP POP POP POP POP SWAP1 POP PUSH1 0x0 PUSH1 0x1 PUSH1 0x0 DUP11 DUP2 MSTORE PUSH1 0x20 ADD SWAP1 DUP2 MSTORE PUSH1 0x20 ADD PUSH1 0x0 KECCAK256 DUP7 DUP2 SLOAD DUP2 LT PUSH2 0x3D2 JUMPI PUSH2 0x3D1 PUSH2 0x768 JUMP JUMPDEST JUMPDEST SWAP1 PUSH1 0x0 MSTORE PUSH1 0x20 PUSH1 0x0 KECCAK256 SWAP1 PUSH1 0x6 MUL ADD PUSH1 0x4 ADD DUP1 SLOAD PUSH2 0x3EE SWAP1 PUSH2 0x7C6 JUMP JUMPDEST DUP1 PUSH1 0x1F ADD PUSH1 0x20 DUP1 SWAP2 DIV MUL PUSH1 0x20 ADD PUSH1 0x40 MLOAD SWAP1 DUP2 ADD PUSH1 0x40 MSTORE DUP1 SWAP3 SWAP2 SWAP1 DUP2 DUP2 MSTORE PUSH1 0x20 ADD DUP3 DUP1 SLOAD PUSH2 0x41A SWAP1 PUSH2 0x7C6 JUMP JUMPDEST DUP1 ISZERO PUSH2 0x467 JUMPI DUP1 PUSH1 0x1F LT PUSH2 0x43C JUMPI PUSH2 0x100 DUP1 DUP4 SLOAD DIV MUL DUP4 MSTORE SWAP2 PUSH1 0x20 ADD SWAP2 PUSH2 0x467 JUMP JUMPDEST DUP3 ADD SWAP2 SWAP1 PUSH1 0x0 MSTORE PUSH1 0x20 PUSH1 0x0 KECCAK256 SWAP1 JUMPDEST DUP2 SLOAD DUP2 MSTORE SWAP1 PUSH1 0x1 ADD SWAP1 PUSH1 0x20 ADD DUP1 DUP4 GT PUSH2 0x44A JUMPI DUP3 SWAP1 SUB PUSH1 0x1F AND DUP3 ADD SWAP2 JUMPDEST POP POP POP POP POP SWAP1 POP PUSH1 0x0 PUSH1 0x1 PUSH1 0x0 DUP12 DUP2 MSTORE PUSH1 0x20 ADD SWAP1 DUP2 MSTORE PUSH1 0x20 ADD PUSH1 0x0 KECCAK256 DUP8 DUP2 SLOAD DUP2 LT PUSH2 0x495 JUMPI PUSH2 0x494 PUSH2 0x768 JUMP JUMPDEST JUMPDEST SWAP1 PUSH1 0x0 MSTORE PUSH1 0x20 PUSH1 0x0 KECCAK256 SWAP1 PUSH1 0x6 MUL ADD PUSH1 0x5 ADD SLOAD SWAP1 POP PUSH1 0x40 MLOAD DUP1 PUSH1 0xC0 ADD PUSH1 0x40 MSTORE DUP1 DUP8 DUP2 MSTORE PUSH1 0x20 ADD DUP7 DUP2 MSTORE PUSH1 0x20 ADD DUP6 DUP2 MSTORE PUSH1 0x20 ADD DUP5 DUP2 MSTORE PUSH1 0x20 ADD DUP4 DUP2 MSTORE PUSH1 0x20 ADD DUP3 DUP2 MSTORE POP SWAP8 POP POP POP POP POP POP POP POP SWAP3 SWAP2 POP POP JUMP JUMPDEST PUSH1 0x40 MLOAD DUP1 PUSH1 0xC0 ADD PUSH1 0x40 MSTORE DUP1 PUSH1 0x60 DUP2 MSTORE PUSH1 0x20 ADD PUSH1 0x60 DUP2 MSTORE PUSH1 0x20 ADD PUSH1 0x60 DUP2 MSTORE PUSH1 0x20 ADD PUSH1 0x60 DUP2 MSTORE PUSH1 0x20 ADD PUSH1 0x60 DUP2 MSTORE PUSH1 0x20 ADD PUSH1 0x0 DUP2 MSTORE POP SWAP1 JUMP JUMPDEST PUSH1 0x0 DUP1 REVERT JUMPDEST PUSH1 0x0 DUP2 SWAP1 POP SWAP2 SWAP1 POP JUMP JUMPDEST PUSH2 0x533 DUP2 PUSH2 0x520 JUMP JUMPDEST DUP2 EQ PUSH2 0x53E JUMPI PUSH1 0x0 DUP1 REVERT JUMPDEST POP JUMP JUMPDEST PUSH1 0x0 DUP2 CALLDATALOAD SWAP1 POP PUSH2 0x550 DUP2 PUSH2 0x52A JUMP JUMPDEST SWAP3 SWAP2 POP POP JUMP JUMPDEST PUSH1 0x0 DUP1 PUSH1 0x40 DUP4 DUP6 SUB SLT ISZERO PUSH2 0x56D JUMPI PUSH2 0x56C PUSH2 0x51B JUMP JUMPDEST JUMPDEST PUSH1 0x0 PUSH2 0x57B DUP6 DUP3 DUP7 ADD PUSH2 0x541 JUMP JUMPDEST SWAP3 POP POP PUSH1 0x20 PUSH2 0x58C DUP6 DUP3 DUP7 ADD PUSH2 0x541 JUMP JUMPDEST SWAP2 POP POP SWAP3 POP SWAP3 SWAP1 POP JUMP JUMPDEST PUSH1 0x0 DUP2 MLOAD SWAP1 POP SWAP2 SWAP1 POP JUMP JUMPDEST PUSH1 0x0 DUP3 DUP3 MSTORE PUSH1 0x20 DUP3 ADD SWAP1 POP SWAP3 SWAP2 POP POP JUMP JUMPDEST PUSH1 0x0 JUMPDEST DUP4 DUP2 LT ISZERO PUSH2 0x5D0 JUMPI DUP1 DUP3 ADD MLOAD DUP2 DUP5 ADD MSTORE PUSH1 0x20 DUP2 ADD SWAP1 POP PUSH2 0x5B5 JUMP JUMPDEST DUP4 DUP2 GT ISZERO PUSH2 0x5DF JUMPI PUSH1 0x0 DUP5 DUP5 ADD MSTORE JUMPDEST POP POP POP POP JUMP JUMPDEST PUSH1 0x0 PUSH1 0x1F NOT PUSH1 0x1F DUP4 ADD AND SWAP1 POP SWAP2 SWAP1 POP JUMP JUMPDEST PUSH1 0x0 PUSH2 0x601 DUP3 PUSH2 0x596 JUMP JUMPDEST PUSH2 0x60B DUP2 DUP6 PUSH2 0x5A1 JUMP JUMPDEST SWAP4 POP PUSH2 0x61B DUP2 DUP6 PUSH1 0x20 DUP7 ADD PUSH2 0x5B2 JUMP JUMPDEST PUSH2 0x624 DUP2 PUSH2 0x5E5 JUMP JUMPDEST DUP5 ADD SWAP2 POP POP SWAP3 SWAP2 POP POP JUMP JUMPDEST PUSH2 0x638 DUP2 PUSH2 0x520 JUMP JUMPDEST DUP3 MSTORE POP POP JUMP JUMPDEST PUSH1 0x0 PUSH1 0xC0 DUP4 ADD PUSH1 0x0 DUP4 ADD MLOAD DUP5 DUP3 SUB PUSH1 0x0 DUP7 ADD MSTORE PUSH2 0x65B DUP3 DUP3 PUSH2 0x5F6 JUMP JUMPDEST SWAP2 POP POP PUSH1 0x20 DUP4 ADD MLOAD DUP5 DUP3 SUB PUSH1 0x20 DUP7 ADD MSTORE PUSH2 0x675 DUP3 DUP3 PUSH2 0x5F6 JUMP JUMPDEST SWAP2 POP POP PUSH1 0x40 DUP4 ADD MLOAD DUP5 DUP3 SUB PUSH1 0x40 DUP7 ADD MSTORE PUSH2 0x68F DUP3 DUP3 PUSH2 0x5F6 JUMP JUMPDEST SWAP2 POP POP PUSH1 0x60 DUP4 ADD MLOAD DUP5 DUP3 SUB PUSH1 0x60 DUP7 ADD MSTORE PUSH2 0x6A9 DUP3 DUP3 PUSH2 0x5F6 JUMP JUMPDEST SWAP2 POP POP PUSH1 0x80 DUP4 ADD MLOAD DUP5 DUP3 SUB PUSH1 0x80 DUP7 ADD MSTORE PUSH2 0x6C3 DUP3 DUP3 PUSH2 0x5F6 JUMP JUMPDEST SWAP2 POP POP PUSH1 0xA0 DUP4 ADD MLOAD PUSH2 0x6D8 PUSH1 0xA0 DUP7 ADD DUP3 PUSH2 0x62F JUMP JUMPDEST POP DUP1 SWAP2 POP POP SWAP3 SWAP2 POP POP JUMP JUMPDEST PUSH1 0x0 PUSH1 0x20 DUP3 ADD SWAP1 POP DUP2 DUP2 SUB PUSH1 0x0 DUP4 ADD MSTORE PUSH2 0x6FD DUP2 DUP5 PUSH2 0x63E JUMP JUMPDEST SWAP1 POP SWAP3 SWAP2 POP POP JUMP JUMPDEST PUSH32 0x4E487B7100000000000000000000000000000000000000000000000000000000 PUSH1 0x0 MSTORE PUSH1 0x11 PUSH1 0x4 MSTORE PUSH1 0x24 PUSH1 0x0 REVERT JUMPDEST PUSH1 0x0 PUSH2 0x73F DUP3 PUSH2 0x520 JUMP JUMPDEST SWAP2 POP PUSH2 0x74A DUP4 PUSH2 0x520 JUMP JUMPDEST SWAP3 POP DUP3 DUP3 LT ISZERO PUSH2 0x75D JUMPI PUSH2 0x75C PUSH2 0x705 JUMP JUMPDEST JUMPDEST DUP3 DUP3 SUB SWAP1 POP SWAP3 SWAP2 POP POP JUMP JUMPDEST PUSH32 0x4E487B7100000000000000000000000000000000000000000000000000000000 PUSH1 0x0 MSTORE PUSH1 0x32 PUSH1 0x4 MSTORE PUSH1 0x24 PUSH1 0x0 REVERT JUMPDEST PUSH32 0x4E487B7100000000000000000000000000000000000000000000000000000000 PUSH1 0x0 MSTORE PUSH1 0x22 PUSH1 0x4 MSTORE PUSH1 0x24 PUSH1 0x0 REVERT JUMPDEST PUSH1 0x0 PUSH1 0x2 DUP3 DIV SWAP1 POP PUSH1 0x1 DUP3 AND DUP1 PUSH2 0x7DE JUMPI PUSH1 0x7F DUP3 AND SWAP2 POP JUMPDEST PUSH1 0x20 DUP3 LT DUP2 SUB PUSH2 0x7F1 JUMPI PUSH2 0x7F0 PUSH2 0x797 JUMP JUMPDEST JUMPDEST POP SWAP2 SWAP1 POP JUMP INVALID LOG2 PUSH5 0x6970667358 0x22 SLT KECCAK256 0xD9 CREATE PUSH25 0x8F18BC18203BCE5F45AC08CB466B3CADA02B0197CA9A592349 CALL RETURNDATASIZE 0xE3 AND PUSH5 0x736F6C6343 STOP ADDMOD 0xD STOP CALLER "
				},
				"gasEstimates": {
					"creation": {
						"codeDepositCost": "418600",
						"executionCost": "455",
						"totalCost": "419055"
					},
					"external": {
						"getrec(uint256,uint256)": "infinite"
					}
				},
				"methodIdentifiers": {
					"getrec(uint256,uint256)": "75b42f59"
				}
			},
			"storageLayout": {
				"storage": [
					{
						"astId": 20,
						"contract": ".workspaces/default_workspace/lecture/twoTimeMapping.sol:twoTimeMappintC",
						"label": "recordIndex",
						"offset": 0,
						"slot": "0",
						"type": "t_mapping(t_uint256,t_mapping(t_uint256,t_uint256))"
					},
					{
						"astId": 26,
						"contract": ".workspaces/default_workspace/lecture/twoTimeMapping.sol:twoTimeMappintC",
						"label": "records",
						"offset": 0,
						"slot": "1",
						"type": "t_mapping(t_uint256,t_array(t_struct(Record)14_storage)dyn_storage)"
					}
				],
				"types": {
					"t_array(t_struct(Record)14_storage)dyn_storage": {
						"base": "t_struct(Record)14_storage",
						"encoding": "dynamic_array",
						"label": "struct twoTimeMappintC.Record[]",
						"numberOfBytes": "32"
					},
					"t_mapping(t_uint256,t_array(t_struct(Record)14_storage)dyn_storage)": {
						"encoding": "mapping",
						"key": "t_uint256",
						"label": "mapping(uint256 => struct twoTimeMappintC.Record[])",
						"numberOfBytes": "32",
						"value": "t_array(t_struct(Record)14_storage)dyn_storage"
					},
					"t_mapping(t_uint256,t_mapping(t_uint256,t_uint256))": {
						"encoding": "mapping",
						"key": "t_uint256",
						"label": "mapping(uint256 => mapping(uint256 => uint256))",
						"numberOfBytes": "32",
						"value": "t_mapping(t_uint256,t_uint256)"
					},
					"t_mapping(t_uint256,t_uint256)": {
						"encoding": "mapping",
						"key": "t_uint256",
						"label": "mapping(uint256 => uint256)",
						"numberOfBytes": "32",
						"value": "t_uint256"
					},
					"t_string_storage": {
						"encoding": "bytes",
						"label": "string",
						"numberOfBytes": "32"
					},
					"t_struct(Record)14_storage": {
						"encoding": "inplace",
						"label": "struct twoTimeMappintC.Record",
						"members": [
							{
								"astId": 3,
								"contract": ".workspaces/default_workspace/lecture/twoTimeMapping.sol:twoTimeMappintC",
								"label": "name",
								"offset": 0,
								"slot": "0",
								"type": "t_string_storage"
							},
							{
								"astId": 5,
								"contract": ".workspaces/default_workspace/lecture/twoTimeMapping.sol:twoTimeMappintC",
								"label": "senderaddress",
								"offset": 0,
								"slot": "1",
								"type": "t_string_storage"
							},
							{
								"astId": 7,
								"contract": ".workspaces/default_workspace/lecture/twoTimeMapping.sol:twoTimeMappintC",
								"label": "reciveraddress",
								"offset": 0,
								"slot": "2",
								"type": "t_string_storage"
							},
							{
								"astId": 9,
								"contract": ".workspaces/default_workspace/lecture/twoTimeMapping.sol:twoTimeMappintC",
								"label": "scheduletime",
								"offset": 0,
								"slot": "3",
								"type": "t_string_storage"
							},
							{
								"astId": 11,
								"contract": ".workspaces/default_workspace/lecture/twoTimeMapping.sol:twoTimeMappintC",
								"label": "scheduledate",
								"offset": 0,
								"slot": "4",
								"type": "t_string_storage"
							},
							{
								"astId": 13,
								"contract": ".workspaces/default_workspace/lecture/twoTimeMapping.sol:twoTimeMappintC",
								"label": "time",
								"offset": 0,
								"slot": "5",
								"type": "t_uint256"
							}
						],
						"numberOfBytes": "192"
					},
					"t_uint256": {
						"encoding": "inplace",
						"label": "uint256",
						"numberOfBytes": "32"
					}
				}
			},
			"userdoc": {
				"kind": "user",
				"methods": {},
				"version": 1
			}
		}
	}
}