{
	"lecture/overriding.sol": {
		"Son": {
			"abi": [
				{
					"inputs": [],
					"name": "earning",
					"outputs": [
						{
							"internalType": "uint256",
							"name": "",
							"type": "uint256"
						}
					],
					"stateMutability": "view",
					"type": "function"
				},
				{
					"inputs": [],
					"name": "familyName",
					"outputs": [
						{
							"internalType": "string",
							"name": "",
							"type": "string"
						}
					],
					"stateMutability": "view",
					"type": "function"
				},
				{
					"inputs": [],
					"name": "getFamilyName",
					"outputs": [
						{
							"internalType": "string",
							"name": "",
							"type": "string"
						}
					],
					"stateMutability": "view",
					"type": "function"
				},
				{
					"inputs": [],
					"name": "getGivenName",
					"outputs": [
						{
							"internalType": "string",
							"name": "",
							"type": "string"
						}
					],
					"stateMutability": "view",
					"type": "function"
				},
				{
					"inputs": [],
					"name": "getMoney",
					"outputs": [
						{
							"internalType": "uint256",
							"name": "",
							"type": "uint256"
						}
					],
					"stateMutability": "view",
					"type": "function"
				},
				{
					"inputs": [],
					"name": "givenName",
					"outputs": [
						{
							"internalType": "string",
							"name": "",
							"type": "string"
						}
					],
					"stateMutability": "view",
					"type": "function"
				},
				{
					"inputs": [],
					"name": "money",
					"outputs": [
						{
							"internalType": "uint256",
							"name": "",
							"type": "uint256"
						}
					],
					"stateMutability": "view",
					"type": "function"
				},
				{
					"inputs": [],
					"name": "work",
					"outputs": [],
					"stateMutability": "nonpayable",
					"type": "function"
				}
			],
			"devdoc": {
				"kind": "dev",
				"methods": {},
				"version": 1
			},
			"evm": {
				"assembly": "    /* \"lecture/overriding.sol\":638:892  contract Son is Father(\"James\"){... */\n  mstore(0x40, 0x80)\n    /* \"lecture/overriding.sol\":100:132  string public familyName = \"Kim\" */\n  mload(0x40)\n  dup1\n  0x40\n  add\n  0x40\n  mstore\n  dup1\n  0x03\n  dup2\n  mstore\n  0x20\n  add\n  0x4b696d0000000000000000000000000000000000000000000000000000000000\n  dup2\n  mstore\n  pop\n  0x00\n  swap1\n  dup1\n  mload\n  swap1\n  0x20\n  add\n  swap1\n  tag_1\n  swap3\n  swap2\n  swap1\n  tag_2\n  jump\t// in\ntag_1:\n  pop\n    /* \"lecture/overriding.sol\":139:171  string public givenName = \"Jung\" */\n  mload(0x40)\n  dup1\n  0x40\n  add\n  0x40\n  mstore\n  dup1\n  0x04\n  dup2\n  mstore\n  0x20\n  add\n  0x4a756e6700000000000000000000000000000000000000000000000000000000\n  dup2\n  mstore\n  pop\n  0x01\n  swap1\n  dup1\n  mload\n  swap1\n  0x20\n  add\n  swap1\n  tag_3\n  swap3\n  swap2\n  swap1\n  tag_2\n  jump\t// in\ntag_3:\n  pop\n    /* \"lecture/overriding.sol\":201:204  100 */\n  0x64\n    /* \"lecture/overriding.sol\":178:204  uint256 public money = 100 */\n  0x02\n  sstore\n    /* \"lecture/overriding.sol\":713:714  0 */\n  0x00\n    /* \"lecture/overriding.sol\":688:714  uint256 public earning = 0 */\n  0x03\n  sstore\n    /* \"lecture/overriding.sol\":638:892  contract Son is Father(\"James\"){... */\n  callvalue\n  dup1\n  iszero\n  tag_4\n  jumpi\n  0x00\n  dup1\n  revert\ntag_4:\n  pop\n    /* \"lecture/overriding.sol\":218:297  constructor(string memory _givenName) {... */\n  mload(0x40)\n  dup1\n  0x40\n  add\n  0x40\n  mstore\n  dup1\n  0x05\n  dup2\n  mstore\n  0x20\n  add\n  0x4a616d6573000000000000000000000000000000000000000000000000000000\n  dup2\n  mstore\n  pop\n    /* \"lecture/overriding.sol\":279:289  _givenName */\n  dup1\n    /* \"lecture/overriding.sol\":267:276  givenName */\n  0x01\n    /* \"lecture/overriding.sol\":267:289  givenName = _givenName */\n  swap1\n  dup1\n  mload\n  swap1\n  0x20\n  add\n  swap1\n  tag_7\n  swap3\n  swap2\n  swap1\n  tag_2\n  jump\t// in\ntag_7:\n  pop\n    /* \"lecture/overriding.sol\":218:297  constructor(string memory _givenName) {... */\n  pop\n    /* \"lecture/overriding.sol\":638:892  contract Son is Father(\"James\"){... */\n  jump(tag_8)\ntag_2:\n  dup3\n  dup1\n  sload\n  tag_9\n  swap1\n  tag_10\n  jump\t// in\ntag_9:\n  swap1\n  0x00\n  mstore\n  keccak256(0x00, 0x20)\n  swap1\n  0x1f\n  add\n  0x20\n  swap1\n  div\n  dup2\n  add\n  swap3\n  dup3\n  tag_12\n  jumpi\n  0x00\n  dup6\n  sstore\n  jump(tag_11)\ntag_12:\n  dup3\n  0x1f\n  lt\n  tag_13\n  jumpi\n  dup1\n  mload\n  not(0xff)\n  and\n  dup4\n  dup1\n  add\n  or\n  dup6\n  sstore\n  jump(tag_11)\ntag_13:\n  dup3\n  dup1\n  add\n  0x01\n  add\n  dup6\n  sstore\n  dup3\n  iszero\n  tag_11\n  jumpi\n  swap2\n  dup3\n  add\ntag_14:\n  dup3\n  dup2\n  gt\n  iszero\n  tag_15\n  jumpi\n  dup3\n  mload\n  dup3\n  sstore\n  swap2\n  0x20\n  add\n  swap2\n  swap1\n  0x01\n  add\n  swap1\n  jump(tag_14)\ntag_15:\ntag_11:\n  pop\n  swap1\n  pop\n  tag_16\n  swap2\n  swap1\n  tag_17\n  jump\t// in\ntag_16:\n  pop\n  swap1\n  jump\t// out\ntag_17:\ntag_18:\n  dup1\n  dup3\n  gt\n  iszero\n  tag_19\n  jumpi\n  0x00\n  dup2\n  0x00\n  swap1\n  sstore\n  pop\n  0x01\n  add\n  jump(tag_18)\ntag_19:\n  pop\n  swap1\n  jump\t// out\n    /* \"#utility.yul\":7:187   */\ntag_20:\n    /* \"#utility.yul\":55:132   */\n  0x4e487b7100000000000000000000000000000000000000000000000000000000\n    /* \"#utility.yul\":52:53   */\n  0x00\n    /* \"#utility.yul\":45:133   */\n  mstore\n    /* \"#utility.yul\":152:156   */\n  0x22\n    /* \"#utility.yul\":149:150   */\n  0x04\n    /* \"#utility.yul\":142:157   */\n  mstore\n    /* \"#utility.yul\":176:180   */\n  0x24\n    /* \"#utility.yul\":173:174   */\n  0x00\n    /* \"#utility.yul\":166:181   */\n  revert\n    /* \"#utility.yul\":193:513   */\ntag_10:\n    /* \"#utility.yul\":237:243   */\n  0x00\n    /* \"#utility.yul\":274:275   */\n  0x02\n    /* \"#utility.yul\":268:272   */\n  dup3\n    /* \"#utility.yul\":264:276   */\n  div\n    /* \"#utility.yul\":254:276   */\n  swap1\n  pop\n    /* \"#utility.yul\":321:322   */\n  0x01\n    /* \"#utility.yul\":315:319   */\n  dup3\n    /* \"#utility.yul\":311:323   */\n  and\n    /* \"#utility.yul\":342:360   */\n  dup1\n    /* \"#utility.yul\":332:413   */\n  tag_24\n  jumpi\n    /* \"#utility.yul\":398:402   */\n  0x7f\n    /* \"#utility.yul\":390:396   */\n  dup3\n    /* \"#utility.yul\":386:403   */\n  and\n    /* \"#utility.yul\":376:403   */\n  swap2\n  pop\n    /* \"#utility.yul\":332:413   */\ntag_24:\n    /* \"#utility.yul\":460:462   */\n  0x20\n    /* \"#utility.yul\":452:458   */\n  dup3\n    /* \"#utility.yul\":449:463   */\n  lt\n    /* \"#utility.yul\":429:447   */\n  dup2\n    /* \"#utility.yul\":426:464   */\n  sub\n    /* \"#utility.yul\":423:507   */\n  tag_25\n  jumpi\n    /* \"#utility.yul\":479:497   */\n  tag_26\n  tag_20\n  jump\t// in\ntag_26:\n    /* \"#utility.yul\":423:507   */\ntag_25:\n    /* \"#utility.yul\":244:513   */\n  pop\n    /* \"#utility.yul\":193:513   */\n  swap2\n  swap1\n  pop\n  jump\t// out\n    /* \"lecture/overriding.sol\":638:892  contract Son is Father(\"James\"){... */\ntag_8:\n  dataSize(sub_0)\n  dup1\n  dataOffset(sub_0)\n  0x00\n  codecopy\n  0x00\n  return\nstop\n\nsub_0: assembly {\n        /* \"lecture/overriding.sol\":638:892  contract Son is Father(\"James\"){... */\n      mstore(0x40, 0x80)\n      callvalue\n      dup1\n      iszero\n      tag_1\n      jumpi\n      0x00\n      dup1\n      revert\n    tag_1:\n      pop\n      jumpi(tag_2, lt(calldatasize, 0x04))\n      shr(0xe0, calldataload(0x00))\n      dup1\n      0x98e1b410\n      gt\n      tag_11\n      jumpi\n      dup1\n      0x98e1b410\n      eq\n      tag_7\n      jumpi\n      dup1\n      0xc515945b\n      eq\n      tag_8\n      jumpi\n      dup1\n      0xd26e329b\n      eq\n      tag_9\n      jumpi\n      dup1\n      0xdf78abe6\n      eq\n      tag_10\n      jumpi\n      jump(tag_2)\n    tag_11:\n      dup1\n      0x16c3e3b3\n      eq\n      tag_3\n      jumpi\n      dup1\n      0x322e9f04\n      eq\n      tag_4\n      jumpi\n      dup1\n      0x4ddd108a\n      eq\n      tag_5\n      jumpi\n      dup1\n      0x7853512c\n      eq\n      tag_6\n      jumpi\n    tag_2:\n      0x00\n      dup1\n      revert\n        /* \"lecture/overriding.sol\":315:411  function getFamilyName() view public  returns(string memory){... */\n    tag_3:\n      tag_12\n      tag_13\n      jump\t// in\n    tag_12:\n      mload(0x40)\n      tag_14\n      swap2\n      swap1\n      tag_15\n      jump\t// in\n    tag_14:\n      mload(0x40)\n      dup1\n      swap2\n      sub\n      swap1\n      return\n        /* \"lecture/overriding.sol\":721:777  function work() public {... */\n    tag_4:\n      tag_16\n      tag_17\n      jump\t// in\n    tag_16:\n      stop\n        /* \"lecture/overriding.sol\":178:204  uint256 public money = 100 */\n    tag_5:\n      tag_18\n      tag_19\n      jump\t// in\n    tag_18:\n      mload(0x40)\n      tag_20\n      swap2\n      swap1\n      tag_21\n      jump\t// in\n    tag_20:\n      mload(0x40)\n      dup1\n      swap2\n      sub\n      swap1\n      return\n        /* \"lecture/overriding.sol\":139:171  string public givenName = \"Jung\" */\n    tag_6:\n      tag_22\n      tag_23\n      jump\t// in\n    tag_22:\n      mload(0x40)\n      tag_24\n      swap2\n      swap1\n      tag_15\n      jump\t// in\n    tag_24:\n      mload(0x40)\n      dup1\n      swap2\n      sub\n      swap1\n      return\n        /* \"lecture/overriding.sol\":790:887  function getMoney() view  public override returns(uint256){... */\n    tag_7:\n      tag_25\n      tag_26\n      jump\t// in\n    tag_25:\n      mload(0x40)\n      tag_27\n      swap2\n      swap1\n      tag_21\n      jump\t// in\n    tag_27:\n      mload(0x40)\n      dup1\n      swap2\n      sub\n      swap1\n      return\n        /* \"lecture/overriding.sol\":424:518  function getGivenName() view public  returns(string memory){... */\n    tag_8:\n      tag_28\n      tag_29\n      jump\t// in\n    tag_28:\n      mload(0x40)\n      tag_30\n      swap2\n      swap1\n      tag_15\n      jump\t// in\n    tag_30:\n      mload(0x40)\n      dup1\n      swap2\n      sub\n      swap1\n      return\n        /* \"lecture/overriding.sol\":100:132  string public familyName = \"Kim\" */\n    tag_9:\n      tag_31\n      tag_32\n      jump\t// in\n    tag_31:\n      mload(0x40)\n      tag_33\n      swap2\n      swap1\n      tag_15\n      jump\t// in\n    tag_33:\n      mload(0x40)\n      dup1\n      swap2\n      sub\n      swap1\n      return\n        /* \"lecture/overriding.sol\":688:714  uint256 public earning = 0 */\n    tag_10:\n      tag_34\n      tag_35\n      jump\t// in\n    tag_34:\n      mload(0x40)\n      tag_36\n      swap2\n      swap1\n      tag_21\n      jump\t// in\n    tag_36:\n      mload(0x40)\n      dup1\n      swap2\n      sub\n      swap1\n      return\n        /* \"lecture/overriding.sol\":315:411  function getFamilyName() view public  returns(string memory){... */\n    tag_13:\n        /* \"lecture/overriding.sol\":361:374  string memory */\n      0x60\n        /* \"lecture/overriding.sol\":393:403  familyName */\n      0x00\n        /* \"lecture/overriding.sol\":386:403  return familyName */\n      dup1\n      sload\n      tag_38\n      swap1\n      tag_39\n      jump\t// in\n    tag_38:\n      dup1\n      0x1f\n      add\n      0x20\n      dup1\n      swap2\n      div\n      mul\n      0x20\n      add\n      mload(0x40)\n      swap1\n      dup2\n      add\n      0x40\n      mstore\n      dup1\n      swap3\n      swap2\n      swap1\n      dup2\n      dup2\n      mstore\n      0x20\n      add\n      dup3\n      dup1\n      sload\n      tag_40\n      swap1\n      tag_39\n      jump\t// in\n    tag_40:\n      dup1\n      iszero\n      tag_41\n      jumpi\n      dup1\n      0x1f\n      lt\n      tag_42\n      jumpi\n      0x0100\n      dup1\n      dup4\n      sload\n      div\n      mul\n      dup4\n      mstore\n      swap2\n      0x20\n      add\n      swap2\n      jump(tag_41)\n    tag_42:\n      dup3\n      add\n      swap2\n      swap1\n      0x00\n      mstore\n      keccak256(0x00, 0x20)\n      swap1\n    tag_43:\n      dup2\n      sload\n      dup2\n      mstore\n      swap1\n      0x01\n      add\n      swap1\n      0x20\n      add\n      dup1\n      dup4\n      gt\n      tag_43\n      jumpi\n      dup3\n      swap1\n      sub\n      0x1f\n      and\n      dup3\n      add\n      swap2\n    tag_41:\n      pop\n      pop\n      pop\n      pop\n      pop\n      swap1\n      pop\n        /* \"lecture/overriding.sol\":315:411  function getFamilyName() view public  returns(string memory){... */\n      swap1\n      jump\t// out\n        /* \"lecture/overriding.sol\":721:777  function work() public {... */\n    tag_17:\n        /* \"lecture/overriding.sol\":766:769  100 */\n      0x64\n        /* \"lecture/overriding.sol\":755:762  earning */\n      0x03\n      0x00\n        /* \"lecture/overriding.sol\":755:769  earning += 100 */\n      dup3\n      dup3\n      sload\n      tag_45\n      swap2\n      swap1\n      tag_46\n      jump\t// in\n    tag_45:\n      swap3\n      pop\n      pop\n      dup2\n      swap1\n      sstore\n      pop\n        /* \"lecture/overriding.sol\":721:777  function work() public {... */\n      jump\t// out\n        /* \"lecture/overriding.sol\":178:204  uint256 public money = 100 */\n    tag_19:\n      sload(0x02)\n      dup2\n      jump\t// out\n        /* \"lecture/overriding.sol\":139:171  string public givenName = \"Jung\" */\n    tag_23:\n      0x01\n      dup1\n      sload\n      tag_47\n      swap1\n      tag_39\n      jump\t// in\n    tag_47:\n      dup1\n      0x1f\n      add\n      0x20\n      dup1\n      swap2\n      div\n      mul\n      0x20\n      add\n      mload(0x40)\n      swap1\n      dup2\n      add\n      0x40\n      mstore\n      dup1\n      swap3\n      swap2\n      swap1\n      dup2\n      dup2\n      mstore\n      0x20\n      add\n      dup3\n      dup1\n      sload\n      tag_48\n      swap1\n      tag_39\n      jump\t// in\n    tag_48:\n      dup1\n      iszero\n      tag_49\n      jumpi\n      dup1\n      0x1f\n      lt\n      tag_50\n      jumpi\n      0x0100\n      dup1\n      dup4\n      sload\n      div\n      mul\n      dup4\n      mstore\n      swap2\n      0x20\n      add\n      swap2\n      jump(tag_49)\n    tag_50:\n      dup3\n      add\n      swap2\n      swap1\n      0x00\n      mstore\n      keccak256(0x00, 0x20)\n      swap1\n    tag_51:\n      dup2\n      sload\n      dup2\n      mstore\n      swap1\n      0x01\n      add\n      swap1\n      0x20\n      add\n      dup1\n      dup4\n      gt\n      tag_51\n      jumpi\n      dup3\n      swap1\n      sub\n      0x1f\n      and\n      dup3\n      add\n      swap2\n    tag_49:\n      pop\n      pop\n      pop\n      pop\n      pop\n      dup2\n      jump\t// out\n        /* \"lecture/overriding.sol\":790:887  function getMoney() view  public override returns(uint256){... */\n    tag_26:\n        /* \"lecture/overriding.sol\":840:847  uint256 */\n      0x00\n        /* \"lecture/overriding.sol\":872:879  earning */\n      sload(0x03)\n        /* \"lecture/overriding.sol\":866:871  money */\n      sload(0x02)\n        /* \"lecture/overriding.sol\":866:879  money+earning */\n      tag_53\n      swap2\n      swap1\n      tag_46\n      jump\t// in\n    tag_53:\n        /* \"lecture/overriding.sol\":859:879  return money+earning */\n      swap1\n      pop\n        /* \"lecture/overriding.sol\":790:887  function getMoney() view  public override returns(uint256){... */\n      swap1\n      jump\t// out\n        /* \"lecture/overriding.sol\":424:518  function getGivenName() view public  returns(string memory){... */\n    tag_29:\n        /* \"lecture/overriding.sol\":469:482  string memory */\n      0x60\n        /* \"lecture/overriding.sol\":501:510  givenName */\n      0x01\n        /* \"lecture/overriding.sol\":494:510  return givenName */\n      dup1\n      sload\n      tag_55\n      swap1\n      tag_39\n      jump\t// in\n    tag_55:\n      dup1\n      0x1f\n      add\n      0x20\n      dup1\n      swap2\n      div\n      mul\n      0x20\n      add\n      mload(0x40)\n      swap1\n      dup2\n      add\n      0x40\n      mstore\n      dup1\n      swap3\n      swap2\n      swap1\n      dup2\n      dup2\n      mstore\n      0x20\n      add\n      dup3\n      dup1\n      sload\n      tag_56\n      swap1\n      tag_39\n      jump\t// in\n    tag_56:\n      dup1\n      iszero\n      tag_57\n      jumpi\n      dup1\n      0x1f\n      lt\n      tag_58\n      jumpi\n      0x0100\n      dup1\n      dup4\n      sload\n      div\n      mul\n      dup4\n      mstore\n      swap2\n      0x20\n      add\n      swap2\n      jump(tag_57)\n    tag_58:\n      dup3\n      add\n      swap2\n      swap1\n      0x00\n      mstore\n      keccak256(0x00, 0x20)\n      swap1\n    tag_59:\n      dup2\n      sload\n      dup2\n      mstore\n      swap1\n      0x01\n      add\n      swap1\n      0x20\n      add\n      dup1\n      dup4\n      gt\n      tag_59\n      jumpi\n      dup3\n      swap1\n      sub\n      0x1f\n      and\n      dup3\n      add\n      swap2\n    tag_57:\n      pop\n      pop\n      pop\n      pop\n      pop\n      swap1\n      pop\n        /* \"lecture/overriding.sol\":424:518  function getGivenName() view public  returns(string memory){... */\n      swap1\n      jump\t// out\n        /* \"lecture/overriding.sol\":100:132  string public familyName = \"Kim\" */\n    tag_32:\n      0x00\n      dup1\n      sload\n      tag_60\n      swap1\n      tag_39\n      jump\t// in\n    tag_60:\n      dup1\n      0x1f\n      add\n      0x20\n      dup1\n      swap2\n      div\n      mul\n      0x20\n      add\n      mload(0x40)\n      swap1\n      dup2\n      add\n      0x40\n      mstore\n      dup1\n      swap3\n      swap2\n      swap1\n      dup2\n      dup2\n      mstore\n      0x20\n      add\n      dup3\n      dup1\n      sload\n      tag_61\n      swap1\n      tag_39\n      jump\t// in\n    tag_61:\n      dup1\n      iszero\n      tag_62\n      jumpi\n      dup1\n      0x1f\n      lt\n      tag_63\n      jumpi\n      0x0100\n      dup1\n      dup4\n      sload\n      div\n      mul\n      dup4\n      mstore\n      swap2\n      0x20\n      add\n      swap2\n      jump(tag_62)\n    tag_63:\n      dup3\n      add\n      swap2\n      swap1\n      0x00\n      mstore\n      keccak256(0x00, 0x20)\n      swap1\n    tag_64:\n      dup2\n      sload\n      dup2\n      mstore\n      swap1\n      0x01\n      add\n      swap1\n      0x20\n      add\n      dup1\n      dup4\n      gt\n      tag_64\n      jumpi\n      dup3\n      swap1\n      sub\n      0x1f\n      and\n      dup3\n      add\n      swap2\n    tag_62:\n      pop\n      pop\n      pop\n      pop\n      pop\n      dup2\n      jump\t// out\n        /* \"lecture/overriding.sol\":688:714  uint256 public earning = 0 */\n    tag_35:\n      sload(0x03)\n      dup2\n      jump\t// out\n        /* \"#utility.yul\":7:106   */\n    tag_65:\n        /* \"#utility.yul\":59:65   */\n      0x00\n        /* \"#utility.yul\":93:98   */\n      dup2\n        /* \"#utility.yul\":87:99   */\n      mload\n        /* \"#utility.yul\":77:99   */\n      swap1\n      pop\n        /* \"#utility.yul\":7:106   */\n      swap2\n      swap1\n      pop\n      jump\t// out\n        /* \"#utility.yul\":112:281   */\n    tag_66:\n        /* \"#utility.yul\":196:207   */\n      0x00\n        /* \"#utility.yul\":230:236   */\n      dup3\n        /* \"#utility.yul\":225:228   */\n      dup3\n        /* \"#utility.yul\":218:237   */\n      mstore\n        /* \"#utility.yul\":270:274   */\n      0x20\n        /* \"#utility.yul\":265:268   */\n      dup3\n        /* \"#utility.yul\":261:275   */\n      add\n        /* \"#utility.yul\":246:275   */\n      swap1\n      pop\n        /* \"#utility.yul\":112:281   */\n      swap3\n      swap2\n      pop\n      pop\n      jump\t// out\n        /* \"#utility.yul\":287:594   */\n    tag_67:\n        /* \"#utility.yul\":355:356   */\n      0x00\n        /* \"#utility.yul\":365:478   */\n    tag_78:\n        /* \"#utility.yul\":379:385   */\n      dup4\n        /* \"#utility.yul\":376:377   */\n      dup2\n        /* \"#utility.yul\":373:386   */\n      lt\n        /* \"#utility.yul\":365:478   */\n      iszero\n      tag_80\n      jumpi\n        /* \"#utility.yul\":464:465   */\n      dup1\n        /* \"#utility.yul\":459:462   */\n      dup3\n        /* \"#utility.yul\":455:466   */\n      add\n        /* \"#utility.yul\":449:467   */\n      mload\n        /* \"#utility.yul\":445:446   */\n      dup2\n        /* \"#utility.yul\":440:443   */\n      dup5\n        /* \"#utility.yul\":436:447   */\n      add\n        /* \"#utility.yul\":429:468   */\n      mstore\n        /* \"#utility.yul\":401:403   */\n      0x20\n        /* \"#utility.yul\":398:399   */\n      dup2\n        /* \"#utility.yul\":394:404   */\n      add\n        /* \"#utility.yul\":389:404   */\n      swap1\n      pop\n        /* \"#utility.yul\":365:478   */\n      jump(tag_78)\n    tag_80:\n        /* \"#utility.yul\":496:502   */\n      dup4\n        /* \"#utility.yul\":493:494   */\n      dup2\n        /* \"#utility.yul\":490:503   */\n      gt\n        /* \"#utility.yul\":487:588   */\n      iszero\n      tag_81\n      jumpi\n        /* \"#utility.yul\":576:577   */\n      0x00\n        /* \"#utility.yul\":567:573   */\n      dup5\n        /* \"#utility.yul\":562:565   */\n      dup5\n        /* \"#utility.yul\":558:574   */\n      add\n        /* \"#utility.yul\":551:578   */\n      mstore\n        /* \"#utility.yul\":487:588   */\n    tag_81:\n        /* \"#utility.yul\":336:594   */\n      pop\n        /* \"#utility.yul\":287:594   */\n      pop\n      pop\n      pop\n      jump\t// out\n        /* \"#utility.yul\":600:702   */\n    tag_68:\n        /* \"#utility.yul\":641:647   */\n      0x00\n        /* \"#utility.yul\":692:694   */\n      0x1f\n        /* \"#utility.yul\":688:695   */\n      not\n        /* \"#utility.yul\":683:685   */\n      0x1f\n        /* \"#utility.yul\":676:681   */\n      dup4\n        /* \"#utility.yul\":672:686   */\n      add\n        /* \"#utility.yul\":668:696   */\n      and\n        /* \"#utility.yul\":658:696   */\n      swap1\n      pop\n        /* \"#utility.yul\":600:702   */\n      swap2\n      swap1\n      pop\n      jump\t// out\n        /* \"#utility.yul\":708:1072   */\n    tag_69:\n        /* \"#utility.yul\":796:799   */\n      0x00\n        /* \"#utility.yul\":824:863   */\n      tag_84\n        /* \"#utility.yul\":857:862   */\n      dup3\n        /* \"#utility.yul\":824:863   */\n      tag_65\n      jump\t// in\n    tag_84:\n        /* \"#utility.yul\":879:950   */\n      tag_85\n        /* \"#utility.yul\":943:949   */\n      dup2\n        /* \"#utility.yul\":938:941   */\n      dup6\n        /* \"#utility.yul\":879:950   */\n      tag_66\n      jump\t// in\n    tag_85:\n        /* \"#utility.yul\":872:950   */\n      swap4\n      pop\n        /* \"#utility.yul\":959:1011   */\n      tag_86\n        /* \"#utility.yul\":1004:1010   */\n      dup2\n        /* \"#utility.yul\":999:1002   */\n      dup6\n        /* \"#utility.yul\":992:996   */\n      0x20\n        /* \"#utility.yul\":985:990   */\n      dup7\n        /* \"#utility.yul\":981:997   */\n      add\n        /* \"#utility.yul\":959:1011   */\n      tag_67\n      jump\t// in\n    tag_86:\n        /* \"#utility.yul\":1036:1065   */\n      tag_87\n        /* \"#utility.yul\":1058:1064   */\n      dup2\n        /* \"#utility.yul\":1036:1065   */\n      tag_68\n      jump\t// in\n    tag_87:\n        /* \"#utility.yul\":1031:1034   */\n      dup5\n        /* \"#utility.yul\":1027:1066   */\n      add\n        /* \"#utility.yul\":1020:1066   */\n      swap2\n      pop\n        /* \"#utility.yul\":800:1072   */\n      pop\n        /* \"#utility.yul\":708:1072   */\n      swap3\n      swap2\n      pop\n      pop\n      jump\t// out\n        /* \"#utility.yul\":1078:1391   */\n    tag_15:\n        /* \"#utility.yul\":1191:1195   */\n      0x00\n        /* \"#utility.yul\":1229:1231   */\n      0x20\n        /* \"#utility.yul\":1218:1227   */\n      dup3\n        /* \"#utility.yul\":1214:1232   */\n      add\n        /* \"#utility.yul\":1206:1232   */\n      swap1\n      pop\n        /* \"#utility.yul\":1278:1287   */\n      dup2\n        /* \"#utility.yul\":1272:1276   */\n      dup2\n        /* \"#utility.yul\":1268:1288   */\n      sub\n        /* \"#utility.yul\":1264:1265   */\n      0x00\n        /* \"#utility.yul\":1253:1262   */\n      dup4\n        /* \"#utility.yul\":1249:1266   */\n      add\n        /* \"#utility.yul\":1242:1289   */\n      mstore\n        /* \"#utility.yul\":1306:1384   */\n      tag_89\n        /* \"#utility.yul\":1379:1383   */\n      dup2\n        /* \"#utility.yul\":1370:1376   */\n      dup5\n        /* \"#utility.yul\":1306:1384   */\n      tag_69\n      jump\t// in\n    tag_89:\n        /* \"#utility.yul\":1298:1384   */\n      swap1\n      pop\n        /* \"#utility.yul\":1078:1391   */\n      swap3\n      swap2\n      pop\n      pop\n      jump\t// out\n        /* \"#utility.yul\":1397:1474   */\n    tag_70:\n        /* \"#utility.yul\":1434:1441   */\n      0x00\n        /* \"#utility.yul\":1463:1468   */\n      dup2\n        /* \"#utility.yul\":1452:1468   */\n      swap1\n      pop\n        /* \"#utility.yul\":1397:1474   */\n      swap2\n      swap1\n      pop\n      jump\t// out\n        /* \"#utility.yul\":1480:1598   */\n    tag_71:\n        /* \"#utility.yul\":1567:1591   */\n      tag_92\n        /* \"#utility.yul\":1585:1590   */\n      dup2\n        /* \"#utility.yul\":1567:1591   */\n      tag_70\n      jump\t// in\n    tag_92:\n        /* \"#utility.yul\":1562:1565   */\n      dup3\n        /* \"#utility.yul\":1555:1592   */\n      mstore\n        /* \"#utility.yul\":1480:1598   */\n      pop\n      pop\n      jump\t// out\n        /* \"#utility.yul\":1604:1826   */\n    tag_21:\n        /* \"#utility.yul\":1697:1701   */\n      0x00\n        /* \"#utility.yul\":1735:1737   */\n      0x20\n        /* \"#utility.yul\":1724:1733   */\n      dup3\n        /* \"#utility.yul\":1720:1738   */\n      add\n        /* \"#utility.yul\":1712:1738   */\n      swap1\n      pop\n        /* \"#utility.yul\":1748:1819   */\n      tag_94\n        /* \"#utility.yul\":1816:1817   */\n      0x00\n        /* \"#utility.yul\":1805:1814   */\n      dup4\n        /* \"#utility.yul\":1801:1818   */\n      add\n        /* \"#utility.yul\":1792:1798   */\n      dup5\n        /* \"#utility.yul\":1748:1819   */\n      tag_71\n      jump\t// in\n    tag_94:\n        /* \"#utility.yul\":1604:1826   */\n      swap3\n      swap2\n      pop\n      pop\n      jump\t// out\n        /* \"#utility.yul\":1832:2012   */\n    tag_72:\n        /* \"#utility.yul\":1880:1957   */\n      0x4e487b7100000000000000000000000000000000000000000000000000000000\n        /* \"#utility.yul\":1877:1878   */\n      0x00\n        /* \"#utility.yul\":1870:1958   */\n      mstore\n        /* \"#utility.yul\":1977:1981   */\n      0x22\n        /* \"#utility.yul\":1974:1975   */\n      0x04\n        /* \"#utility.yul\":1967:1982   */\n      mstore\n        /* \"#utility.yul\":2001:2005   */\n      0x24\n        /* \"#utility.yul\":1998:1999   */\n      0x00\n        /* \"#utility.yul\":1991:2006   */\n      revert\n        /* \"#utility.yul\":2018:2338   */\n    tag_39:\n        /* \"#utility.yul\":2062:2068   */\n      0x00\n        /* \"#utility.yul\":2099:2100   */\n      0x02\n        /* \"#utility.yul\":2093:2097   */\n      dup3\n        /* \"#utility.yul\":2089:2101   */\n      div\n        /* \"#utility.yul\":2079:2101   */\n      swap1\n      pop\n        /* \"#utility.yul\":2146:2147   */\n      0x01\n        /* \"#utility.yul\":2140:2144   */\n      dup3\n        /* \"#utility.yul\":2136:2148   */\n      and\n        /* \"#utility.yul\":2167:2185   */\n      dup1\n        /* \"#utility.yul\":2157:2238   */\n      tag_97\n      jumpi\n        /* \"#utility.yul\":2223:2227   */\n      0x7f\n        /* \"#utility.yul\":2215:2221   */\n      dup3\n        /* \"#utility.yul\":2211:2228   */\n      and\n        /* \"#utility.yul\":2201:2228   */\n      swap2\n      pop\n        /* \"#utility.yul\":2157:2238   */\n    tag_97:\n        /* \"#utility.yul\":2285:2287   */\n      0x20\n        /* \"#utility.yul\":2277:2283   */\n      dup3\n        /* \"#utility.yul\":2274:2288   */\n      lt\n        /* \"#utility.yul\":2254:2272   */\n      dup2\n        /* \"#utility.yul\":2251:2289   */\n      sub\n        /* \"#utility.yul\":2248:2332   */\n      tag_98\n      jumpi\n        /* \"#utility.yul\":2304:2322   */\n      tag_99\n      tag_72\n      jump\t// in\n    tag_99:\n        /* \"#utility.yul\":2248:2332   */\n    tag_98:\n        /* \"#utility.yul\":2069:2338   */\n      pop\n        /* \"#utility.yul\":2018:2338   */\n      swap2\n      swap1\n      pop\n      jump\t// out\n        /* \"#utility.yul\":2344:2524   */\n    tag_73:\n        /* \"#utility.yul\":2392:2469   */\n      0x4e487b7100000000000000000000000000000000000000000000000000000000\n        /* \"#utility.yul\":2389:2390   */\n      0x00\n        /* \"#utility.yul\":2382:2470   */\n      mstore\n        /* \"#utility.yul\":2489:2493   */\n      0x11\n        /* \"#utility.yul\":2486:2487   */\n      0x04\n        /* \"#utility.yul\":2479:2494   */\n      mstore\n        /* \"#utility.yul\":2513:2517   */\n      0x24\n        /* \"#utility.yul\":2510:2511   */\n      0x00\n        /* \"#utility.yul\":2503:2518   */\n      revert\n        /* \"#utility.yul\":2530:2835   */\n    tag_46:\n        /* \"#utility.yul\":2570:2573   */\n      0x00\n        /* \"#utility.yul\":2589:2609   */\n      tag_102\n        /* \"#utility.yul\":2607:2608   */\n      dup3\n        /* \"#utility.yul\":2589:2609   */\n      tag_70\n      jump\t// in\n    tag_102:\n        /* \"#utility.yul\":2584:2609   */\n      swap2\n      pop\n        /* \"#utility.yul\":2623:2643   */\n      tag_103\n        /* \"#utility.yul\":2641:2642   */\n      dup4\n        /* \"#utility.yul\":2623:2643   */\n      tag_70\n      jump\t// in\n    tag_103:\n        /* \"#utility.yul\":2618:2643   */\n      swap3\n      pop\n        /* \"#utility.yul\":2777:2778   */\n      dup3\n        /* \"#utility.yul\":2709:2775   */\n      0xffffffffffffffffffffffffffffffffffffffffffffffffffffffffffffffff\n        /* \"#utility.yul\":2705:2779   */\n      sub\n        /* \"#utility.yul\":2702:2703   */\n      dup3\n        /* \"#utility.yul\":2699:2780   */\n      gt\n        /* \"#utility.yul\":2696:2803   */\n      iszero\n      tag_104\n      jumpi\n        /* \"#utility.yul\":2783:2801   */\n      tag_105\n      tag_73\n      jump\t// in\n    tag_105:\n        /* \"#utility.yul\":2696:2803   */\n    tag_104:\n        /* \"#utility.yul\":2827:2828   */\n      dup3\n        /* \"#utility.yul\":2824:2825   */\n      dup3\n        /* \"#utility.yul\":2820:2829   */\n      add\n        /* \"#utility.yul\":2813:2829   */\n      swap1\n      pop\n        /* \"#utility.yul\":2530:2835   */\n      swap3\n      swap2\n      pop\n      pop\n      jump\t// out\n\n    auxdata: 0xa2646970667358221220b91fabf2813526fa3d59aa3cc291b03dae44ac2e3fbfce495fdf96351141581164736f6c634300080d0033\n}\n",
				"bytecode": {
					"linkReferences": {},
					"object": "60806040526040518060400160405280600381526020017f4b696d00000000000000000000000000000000000000000000000000000000008152506000908051906020019061004f929190610106565b506040518060400160405280600481526020017f4a756e67000000000000000000000000000000000000000000000000000000008152506001908051906020019061009b929190610106565b50606460025560006003553480156100b257600080fd5b506040518060400160405280600581526020017f4a616d657300000000000000000000000000000000000000000000000000000081525080600190805190602001906100ff929190610106565b5050610209565b828054610112906101d8565b90600052602060002090601f016020900481019282610134576000855561017b565b82601f1061014d57805160ff191683800117855561017b565b8280016001018555821561017b579182015b8281111561017a57825182559160200191906001019061015f565b5b509050610188919061018c565b5090565b5b808211156101a557600081600090555060010161018d565b5090565b7f4e487b7100000000000000000000000000000000000000000000000000000000600052602260045260246000fd5b600060028204905060018216806101f057607f821691505b602082108103610203576102026101a9565b5b50919050565b6105f2806102186000396000f3fe608060405234801561001057600080fd5b50600436106100885760003560e01c806398e1b4101161005b57806398e1b410146100f1578063c515945b1461010f578063d26e329b1461012d578063df78abe61461014b57610088565b806316c3e3b31461008d578063322e9f04146100ab5780634ddd108a146100b55780637853512c146100d3575b600080fd5b610095610169565b6040516100a29190610481565b60405180910390f35b6100b36101fb565b005b6100bd610217565b6040516100ca91906104bc565b60405180910390f35b6100db61021d565b6040516100e89190610481565b60405180910390f35b6100f96102ab565b60405161010691906104bc565b60405180910390f35b6101176102c2565b6040516101249190610481565b60405180910390f35b610135610354565b6040516101429190610481565b60405180910390f35b6101536103e2565b60405161016091906104bc565b60405180910390f35b60606000805461017890610506565b80601f01602080910402602001604051908101604052809291908181526020018280546101a490610506565b80156101f15780601f106101c6576101008083540402835291602001916101f1565b820191906000526020600020905b8154815290600101906020018083116101d457829003601f168201915b5050505050905090565b60646003600082825461020e9190610566565b92505081905550565b60025481565b6001805461022a90610506565b80601f016020809104026020016040519081016040528092919081815260200182805461025690610506565b80156102a35780601f10610278576101008083540402835291602001916102a3565b820191906000526020600020905b81548152906001019060200180831161028657829003601f168201915b505050505081565b60006003546002546102bd9190610566565b905090565b6060600180546102d190610506565b80601f01602080910402602001604051908101604052809291908181526020018280546102fd90610506565b801561034a5780601f1061031f5761010080835404028352916020019161034a565b820191906000526020600020905b81548152906001019060200180831161032d57829003601f168201915b5050505050905090565b6000805461036190610506565b80601f016020809104026020016040519081016040528092919081815260200182805461038d90610506565b80156103da5780601f106103af576101008083540402835291602001916103da565b820191906000526020600020905b8154815290600101906020018083116103bd57829003601f168201915b505050505081565b60035481565b600081519050919050565b600082825260208201905092915050565b60005b83811015610422578082015181840152602081019050610407565b83811115610431576000848401525b50505050565b6000601f19601f8301169050919050565b6000610453826103e8565b61045d81856103f3565b935061046d818560208601610404565b61047681610437565b840191505092915050565b6000602082019050818103600083015261049b8184610448565b905092915050565b6000819050919050565b6104b6816104a3565b82525050565b60006020820190506104d160008301846104ad565b92915050565b7f4e487b7100000000000000000000000000000000000000000000000000000000600052602260045260246000fd5b6000600282049050600182168061051e57607f821691505b602082108103610531576105306104d7565b5b50919050565b7f4e487b7100000000000000000000000000000000000000000000000000000000600052601160045260246000fd5b6000610571826104a3565b915061057c836104a3565b9250827fffffffffffffffffffffffffffffffffffffffffffffffffffffffffffffffff038211156105b1576105b0610537565b5b82820190509291505056fea2646970667358221220b91fabf2813526fa3d59aa3cc291b03dae44ac2e3fbfce495fdf96351141581164736f6c634300080d0033",
					"opcodes": "PUSH1 0x80 PUSH1 0x40 MSTORE PUSH1 0x40 MLOAD DUP1 PUSH1 0x40 ADD PUSH1 0x40 MSTORE DUP1 PUSH1 0x3 DUP2 MSTORE PUSH1 0x20 ADD PUSH32 0x4B696D0000000000000000000000000000000000000000000000000000000000 DUP2 MSTORE POP PUSH1 0x0 SWAP1 DUP1 MLOAD SWAP1 PUSH1 0x20 ADD SWAP1 PUSH2 0x4F SWAP3 SWAP2 SWAP1 PUSH2 0x106 JUMP JUMPDEST POP PUSH1 0x40 MLOAD DUP1 PUSH1 0x40 ADD PUSH1 0x40 MSTORE DUP1 PUSH1 0x4 DUP2 MSTORE PUSH1 0x20 ADD PUSH32 0x4A756E6700000000000000000000000000000000000000000000000000000000 DUP2 MSTORE POP PUSH1 0x1 SWAP1 DUP1 MLOAD SWAP1 PUSH1 0x20 ADD SWAP1 PUSH2 0x9B SWAP3 SWAP2 SWAP1 PUSH2 0x106 JUMP JUMPDEST POP PUSH1 0x64 PUSH1 0x2 SSTORE PUSH1 0x0 PUSH1 0x3 SSTORE CALLVALUE DUP1 ISZERO PUSH2 0xB2 JUMPI PUSH1 0x0 DUP1 REVERT JUMPDEST POP PUSH1 0x40 MLOAD DUP1 PUSH1 0x40 ADD PUSH1 0x40 MSTORE DUP1 PUSH1 0x5 DUP2 MSTORE PUSH1 0x20 ADD PUSH32 0x4A616D6573000000000000000000000000000000000000000000000000000000 DUP2 MSTORE POP DUP1 PUSH1 0x1 SWAP1 DUP1 MLOAD SWAP1 PUSH1 0x20 ADD SWAP1 PUSH2 0xFF SWAP3 SWAP2 SWAP1 PUSH2 0x106 JUMP JUMPDEST POP POP PUSH2 0x209 JUMP JUMPDEST DUP3 DUP1 SLOAD PUSH2 0x112 SWAP1 PUSH2 0x1D8 JUMP JUMPDEST SWAP1 PUSH1 0x0 MSTORE PUSH1 0x20 PUSH1 0x0 KECCAK256 SWAP1 PUSH1 0x1F ADD PUSH1 0x20 SWAP1 DIV DUP2 ADD SWAP3 DUP3 PUSH2 0x134 JUMPI PUSH1 0x0 DUP6 SSTORE PUSH2 0x17B JUMP JUMPDEST DUP3 PUSH1 0x1F LT PUSH2 0x14D JUMPI DUP1 MLOAD PUSH1 0xFF NOT AND DUP4 DUP1 ADD OR DUP6 SSTORE PUSH2 0x17B JUMP JUMPDEST DUP3 DUP1 ADD PUSH1 0x1 ADD DUP6 SSTORE DUP3 ISZERO PUSH2 0x17B JUMPI SWAP2 DUP3 ADD JUMPDEST DUP3 DUP2 GT ISZERO PUSH2 0x17A JUMPI DUP3 MLOAD DUP3 SSTORE SWAP2 PUSH1 0x20 ADD SWAP2 SWAP1 PUSH1 0x1 ADD SWAP1 PUSH2 0x15F JUMP JUMPDEST JUMPDEST POP SWAP1 POP PUSH2 0x188 SWAP2 SWAP1 PUSH2 0x18C JUMP JUMPDEST POP SWAP1 JUMP JUMPDEST JUMPDEST DUP1 DUP3 GT ISZERO PUSH2 0x1A5 JUMPI PUSH1 0x0 DUP2 PUSH1 0x0 SWAP1 SSTORE POP PUSH1 0x1 ADD PUSH2 0x18D JUMP JUMPDEST POP SWAP1 JUMP JUMPDEST PUSH32 0x4E487B7100000000000000000000000000000000000000000000000000000000 PUSH1 0x0 MSTORE PUSH1 0x22 PUSH1 0x4 MSTORE PUSH1 0x24 PUSH1 0x0 REVERT JUMPDEST PUSH1 0x0 PUSH1 0x2 DUP3 DIV SWAP1 POP PUSH1 0x1 DUP3 AND DUP1 PUSH2 0x1F0 JUMPI PUSH1 0x7F DUP3 AND SWAP2 POP JUMPDEST PUSH1 0x20 DUP3 LT DUP2 SUB PUSH2 0x203 JUMPI PUSH2 0x202 PUSH2 0x1A9 JUMP JUMPDEST JUMPDEST POP SWAP2 SWAP1 POP JUMP JUMPDEST PUSH2 0x5F2 DUP1 PUSH2 0x218 PUSH1 0x0 CODECOPY PUSH1 0x0 RETURN INVALID PUSH1 0x80 PUSH1 0x40 MSTORE CALLVALUE DUP1 ISZERO PUSH2 0x10 JUMPI PUSH1 0x0 DUP1 REVERT JUMPDEST POP PUSH1 0x4 CALLDATASIZE LT PUSH2 0x88 JUMPI PUSH1 0x0 CALLDATALOAD PUSH1 0xE0 SHR DUP1 PUSH4 0x98E1B410 GT PUSH2 0x5B JUMPI DUP1 PUSH4 0x98E1B410 EQ PUSH2 0xF1 JUMPI DUP1 PUSH4 0xC515945B EQ PUSH2 0x10F JUMPI DUP1 PUSH4 0xD26E329B EQ PUSH2 0x12D JUMPI DUP1 PUSH4 0xDF78ABE6 EQ PUSH2 0x14B JUMPI PUSH2 0x88 JUMP JUMPDEST DUP1 PUSH4 0x16C3E3B3 EQ PUSH2 0x8D JUMPI DUP1 PUSH4 0x322E9F04 EQ PUSH2 0xAB JUMPI DUP1 PUSH4 0x4DDD108A EQ PUSH2 0xB5 JUMPI DUP1 PUSH4 0x7853512C EQ PUSH2 0xD3 JUMPI JUMPDEST PUSH1 0x0 DUP1 REVERT JUMPDEST PUSH2 0x95 PUSH2 0x169 JUMP JUMPDEST PUSH1 0x40 MLOAD PUSH2 0xA2 SWAP2 SWAP1 PUSH2 0x481 JUMP JUMPDEST PUSH1 0x40 MLOAD DUP1 SWAP2 SUB SWAP1 RETURN JUMPDEST PUSH2 0xB3 PUSH2 0x1FB JUMP JUMPDEST STOP JUMPDEST PUSH2 0xBD PUSH2 0x217 JUMP JUMPDEST PUSH1 0x40 MLOAD PUSH2 0xCA SWAP2 SWAP1 PUSH2 0x4BC JUMP JUMPDEST PUSH1 0x40 MLOAD DUP1 SWAP2 SUB SWAP1 RETURN JUMPDEST PUSH2 0xDB PUSH2 0x21D JUMP JUMPDEST PUSH1 0x40 MLOAD PUSH2 0xE8 SWAP2 SWAP1 PUSH2 0x481 JUMP JUMPDEST PUSH1 0x40 MLOAD DUP1 SWAP2 SUB SWAP1 RETURN JUMPDEST PUSH2 0xF9 PUSH2 0x2AB JUMP JUMPDEST PUSH1 0x40 MLOAD PUSH2 0x106 SWAP2 SWAP1 PUSH2 0x4BC JUMP JUMPDEST PUSH1 0x40 MLOAD DUP1 SWAP2 SUB SWAP1 RETURN JUMPDEST PUSH2 0x117 PUSH2 0x2C2 JUMP JUMPDEST PUSH1 0x40 MLOAD PUSH2 0x124 SWAP2 SWAP1 PUSH2 0x481 JUMP JUMPDEST PUSH1 0x40 MLOAD DUP1 SWAP2 SUB SWAP1 RETURN JUMPDEST PUSH2 0x135 PUSH2 0x354 JUMP JUMPDEST PUSH1 0x40 MLOAD PUSH2 0x142 SWAP2 SWAP1 PUSH2 0x481 JUMP JUMPDEST PUSH1 0x40 MLOAD DUP1 SWAP2 SUB SWAP1 RETURN JUMPDEST PUSH2 0x153 PUSH2 0x3E2 JUMP JUMPDEST PUSH1 0x40 MLOAD PUSH2 0x160 SWAP2 SWAP1 PUSH2 0x4BC JUMP JUMPDEST PUSH1 0x40 MLOAD DUP1 SWAP2 SUB SWAP1 RETURN JUMPDEST PUSH1 0x60 PUSH1 0x0 DUP1 SLOAD PUSH2 0x178 SWAP1 PUSH2 0x506 JUMP JUMPDEST DUP1 PUSH1 0x1F ADD PUSH1 0x20 DUP1 SWAP2 DIV MUL PUSH1 0x20 ADD PUSH1 0x40 MLOAD SWAP1 DUP2 ADD PUSH1 0x40 MSTORE DUP1 SWAP3 SWAP2 SWAP1 DUP2 DUP2 MSTORE PUSH1 0x20 ADD DUP3 DUP1 SLOAD PUSH2 0x1A4 SWAP1 PUSH2 0x506 JUMP JUMPDEST DUP1 ISZERO PUSH2 0x1F1 JUMPI DUP1 PUSH1 0x1F LT PUSH2 0x1C6 JUMPI PUSH2 0x100 DUP1 DUP4 SLOAD DIV MUL DUP4 MSTORE SWAP2 PUSH1 0x20 ADD SWAP2 PUSH2 0x1F1 JUMP JUMPDEST DUP3 ADD SWAP2 SWAP1 PUSH1 0x0 MSTORE PUSH1 0x20 PUSH1 0x0 KECCAK256 SWAP1 JUMPDEST DUP2 SLOAD DUP2 MSTORE SWAP1 PUSH1 0x1 ADD SWAP1 PUSH1 0x20 ADD DUP1 DUP4 GT PUSH2 0x1D4 JUMPI DUP3 SWAP1 SUB PUSH1 0x1F AND DUP3 ADD SWAP2 JUMPDEST POP POP POP POP POP SWAP1 POP SWAP1 JUMP JUMPDEST PUSH1 0x64 PUSH1 0x3 PUSH1 0x0 DUP3 DUP3 SLOAD PUSH2 0x20E SWAP2 SWAP1 PUSH2 0x566 JUMP JUMPDEST SWAP3 POP POP DUP2 SWAP1 SSTORE POP JUMP JUMPDEST PUSH1 0x2 SLOAD DUP2 JUMP JUMPDEST PUSH1 0x1 DUP1 SLOAD PUSH2 0x22A SWAP1 PUSH2 0x506 JUMP JUMPDEST DUP1 PUSH1 0x1F ADD PUSH1 0x20 DUP1 SWAP2 DIV MUL PUSH1 0x20 ADD PUSH1 0x40 MLOAD SWAP1 DUP2 ADD PUSH1 0x40 MSTORE DUP1 SWAP3 SWAP2 SWAP1 DUP2 DUP2 MSTORE PUSH1 0x20 ADD DUP3 DUP1 SLOAD PUSH2 0x256 SWAP1 PUSH2 0x506 JUMP JUMPDEST DUP1 ISZERO PUSH2 0x2A3 JUMPI DUP1 PUSH1 0x1F LT PUSH2 0x278 JUMPI PUSH2 0x100 DUP1 DUP4 SLOAD DIV MUL DUP4 MSTORE SWAP2 PUSH1 0x20 ADD SWAP2 PUSH2 0x2A3 JUMP JUMPDEST DUP3 ADD SWAP2 SWAP1 PUSH1 0x0 MSTORE PUSH1 0x20 PUSH1 0x0 KECCAK256 SWAP1 JUMPDEST DUP2 SLOAD DUP2 MSTORE SWAP1 PUSH1 0x1 ADD SWAP1 PUSH1 0x20 ADD DUP1 DUP4 GT PUSH2 0x286 JUMPI DUP3 SWAP1 SUB PUSH1 0x1F AND DUP3 ADD SWAP2 JUMPDEST POP POP POP POP POP DUP2 JUMP JUMPDEST PUSH1 0x0 PUSH1 0x3 SLOAD PUSH1 0x2 SLOAD PUSH2 0x2BD SWAP2 SWAP1 PUSH2 0x566 JUMP JUMPDEST SWAP1 POP SWAP1 JUMP JUMPDEST PUSH1 0x60 PUSH1 0x1 DUP1 SLOAD PUSH2 0x2D1 SWAP1 PUSH2 0x506 JUMP JUMPDEST DUP1 PUSH1 0x1F ADD PUSH1 0x20 DUP1 SWAP2 DIV MUL PUSH1 0x20 ADD PUSH1 0x40 MLOAD SWAP1 DUP2 ADD PUSH1 0x40 MSTORE DUP1 SWAP3 SWAP2 SWAP1 DUP2 DUP2 MSTORE PUSH1 0x20 ADD DUP3 DUP1 SLOAD PUSH2 0x2FD SWAP1 PUSH2 0x506 JUMP JUMPDEST DUP1 ISZERO PUSH2 0x34A JUMPI DUP1 PUSH1 0x1F LT PUSH2 0x31F JUMPI PUSH2 0x100 DUP1 DUP4 SLOAD DIV MUL DUP4 MSTORE SWAP2 PUSH1 0x20 ADD SWAP2 PUSH2 0x34A JUMP JUMPDEST DUP3 ADD SWAP2 SWAP1 PUSH1 0x0 MSTORE PUSH1 0x20 PUSH1 0x0 KECCAK256 SWAP1 JUMPDEST DUP2 SLOAD DUP2 MSTORE SWAP1 PUSH1 0x1 ADD SWAP1 PUSH1 0x20 ADD DUP1 DUP4 GT PUSH2 0x32D JUMPI DUP3 SWAP1 SUB PUSH1 0x1F AND DUP3 ADD SWAP2 JUMPDEST POP POP POP POP POP SWAP1 POP SWAP1 JUMP JUMPDEST PUSH1 0x0 DUP1 SLOAD PUSH2 0x361 SWAP1 PUSH2 0x506 JUMP JUMPDEST DUP1 PUSH1 0x1F ADD PUSH1 0x20 DUP1 SWAP2 DIV MUL PUSH1 0x20 ADD PUSH1 0x40 MLOAD SWAP1 DUP2 ADD PUSH1 0x40 MSTORE DUP1 SWAP3 SWAP2 SWAP1 DUP2 DUP2 MSTORE PUSH1 0x20 ADD DUP3 DUP1 SLOAD PUSH2 0x38D SWAP1 PUSH2 0x506 JUMP JUMPDEST DUP1 ISZERO PUSH2 0x3DA JUMPI DUP1 PUSH1 0x1F LT PUSH2 0x3AF JUMPI PUSH2 0x100 DUP1 DUP4 SLOAD DIV MUL DUP4 MSTORE SWAP2 PUSH1 0x20 ADD SWAP2 PUSH2 0x3DA JUMP JUMPDEST DUP3 ADD SWAP2 SWAP1 PUSH1 0x0 MSTORE PUSH1 0x20 PUSH1 0x0 KECCAK256 SWAP1 JUMPDEST DUP2 SLOAD DUP2 MSTORE SWAP1 PUSH1 0x1 ADD SWAP1 PUSH1 0x20 ADD DUP1 DUP4 GT PUSH2 0x3BD JUMPI DUP3 SWAP1 SUB PUSH1 0x1F AND DUP3 ADD SWAP2 JUMPDEST POP POP POP POP POP DUP2 JUMP JUMPDEST PUSH1 0x3 SLOAD DUP2 JUMP JUMPDEST PUSH1 0x0 DUP2 MLOAD SWAP1 POP SWAP2 SWAP1 POP JUMP JUMPDEST PUSH1 0x0 DUP3 DUP3 MSTORE PUSH1 0x20 DUP3 ADD SWAP1 POP SWAP3 SWAP2 POP POP JUMP JUMPDEST PUSH1 0x0 JUMPDEST DUP4 DUP2 LT ISZERO PUSH2 0x422 JUMPI DUP1 DUP3 ADD MLOAD DUP2 DUP5 ADD MSTORE PUSH1 0x20 DUP2 ADD SWAP1 POP PUSH2 0x407 JUMP JUMPDEST DUP4 DUP2 GT ISZERO PUSH2 0x431 JUMPI PUSH1 0x0 DUP5 DUP5 ADD MSTORE JUMPDEST POP POP POP POP JUMP JUMPDEST PUSH1 0x0 PUSH1 0x1F NOT PUSH1 0x1F DUP4 ADD AND SWAP1 POP SWAP2 SWAP1 POP JUMP JUMPDEST PUSH1 0x0 PUSH2 0x453 DUP3 PUSH2 0x3E8 JUMP JUMPDEST PUSH2 0x45D DUP2 DUP6 PUSH2 0x3F3 JUMP JUMPDEST SWAP4 POP PUSH2 0x46D DUP2 DUP6 PUSH1 0x20 DUP7 ADD PUSH2 0x404 JUMP JUMPDEST PUSH2 0x476 DUP2 PUSH2 0x437 JUMP JUMPDEST DUP5 ADD SWAP2 POP POP SWAP3 SWAP2 POP POP JUMP JUMPDEST PUSH1 0x0 PUSH1 0x20 DUP3 ADD SWAP1 POP DUP2 DUP2 SUB PUSH1 0x0 DUP4 ADD MSTORE PUSH2 0x49B DUP2 DUP5 PUSH2 0x448 JUMP JUMPDEST SWAP1 POP SWAP3 SWAP2 POP POP JUMP JUMPDEST PUSH1 0x0 DUP2 SWAP1 POP SWAP2 SWAP1 POP JUMP JUMPDEST PUSH2 0x4B6 DUP2 PUSH2 0x4A3 JUMP JUMPDEST DUP3 MSTORE POP POP JUMP JUMPDEST PUSH1 0x0 PUSH1 0x20 DUP3 ADD SWAP1 POP PUSH2 0x4D1 PUSH1 0x0 DUP4 ADD DUP5 PUSH2 0x4AD JUMP JUMPDEST SWAP3 SWAP2 POP POP JUMP JUMPDEST PUSH32 0x4E487B7100000000000000000000000000000000000000000000000000000000 PUSH1 0x0 MSTORE PUSH1 0x22 PUSH1 0x4 MSTORE PUSH1 0x24 PUSH1 0x0 REVERT JUMPDEST PUSH1 0x0 PUSH1 0x2 DUP3 DIV SWAP1 POP PUSH1 0x1 DUP3 AND DUP1 PUSH2 0x51E JUMPI PUSH1 0x7F DUP3 AND SWAP2 POP JUMPDEST PUSH1 0x20 DUP3 LT DUP2 SUB PUSH2 0x531 JUMPI PUSH2 0x530 PUSH2 0x4D7 JUMP JUMPDEST JUMPDEST POP SWAP2 SWAP1 POP JUMP JUMPDEST PUSH32 0x4E487B7100000000000000000000000000000000000000000000000000000000 PUSH1 0x0 MSTORE PUSH1 0x11 PUSH1 0x4 MSTORE PUSH1 0x24 PUSH1 0x0 REVERT JUMPDEST PUSH1 0x0 PUSH2 0x571 DUP3 PUSH2 0x4A3 JUMP JUMPDEST SWAP2 POP PUSH2 0x57C DUP4 PUSH2 0x4A3 JUMP JUMPDEST SWAP3 POP DUP3 PUSH32 0xFFFFFFFFFFFFFFFFFFFFFFFFFFFFFFFFFFFFFFFFFFFFFFFFFFFFFFFFFFFFFFFF SUB DUP3 GT ISZERO PUSH2 0x5B1 JUMPI PUSH2 0x5B0 PUSH2 0x537 JUMP JUMPDEST JUMPDEST DUP3 DUP3 ADD SWAP1 POP SWAP3 SWAP2 POP POP JUMP INVALID LOG2 PUSH5 0x6970667358 0x22 SLT KECCAK256 0xB9 0x1F 0xAB CALLCODE DUP2 CALLDATALOAD 0x26 STATICCALL RETURNDATASIZE MSIZE 0xAA EXTCODECOPY 0xC2 SWAP2 0xB0 RETURNDATASIZE 0xAE DIFFICULTY 0xAC 0x2E EXTCODEHASH 0xBF 0xCE 0x49 0x5F 0xDF SWAP7 CALLDATALOAD GT COINBASE PC GT PUSH5 0x736F6C6343 STOP ADDMOD 0xD STOP CALLER "
				},
				"gasEstimates": {
					"creation": {
						"codeDepositCost": "304400",
						"executionCost": "infinite",
						"totalCost": "infinite"
					},
					"external": {
						"earning()": "2495",
						"familyName()": "infinite",
						"getFamilyName()": "infinite",
						"getGivenName()": "infinite",
						"getMoney()": "infinite",
						"givenName()": "infinite",
						"money()": "2474",
						"work()": "infinite"
					}
				},
				"methodIdentifiers": {
					"earning()": "df78abe6",
					"familyName()": "d26e329b",
					"getFamilyName()": "16c3e3b3",
					"getGivenName()": "c515945b",
					"getMoney()": "98e1b410",
					"givenName()": "7853512c",
					"money()": "4ddd108a",
					"work()": "322e9f04"
				}
			},
			"userdoc": {
				"kind": "user",
				"methods": {},
				"version": 1
			}
		}
	}
}