{
	"lecture/linearSearch.sol": {
		"linearSearchC": {
			"abi": [
				{
					"anonymous": false,
					"inputs": [
						{
							"indexed": false,
							"internalType": "uint256",
							"name": "_index",
							"type": "uint256"
						},
						{
							"indexed": false,
							"internalType": "string",
							"name": "_name",
							"type": "string"
						}
					],
					"name": "CountryIndexName",
					"type": "event"
				},
				{
					"inputs": [
						{
							"internalType": "string",
							"name": "_search",
							"type": "string"
						}
					],
					"name": "linearSearch",
					"outputs": [
						{
							"internalType": "uint256",
							"name": "",
							"type": "uint256"
						},
						{
							"internalType": "string",
							"name": "",
							"type": "string"
						}
					],
					"stateMutability": "view",
					"type": "function"
				}
			],
			"devdoc": {
				"kind": "dev",
				"methods": {},
				"version": 1
			},
			"evm": {
				"assembly": "    /* \"lecture/linearSearch.sol\":72:651  contract linearSearchC {... */\n  mstore(0x40, 0x80)\n    /* \"lecture/linearSearch.sol\":162:244  string[] private counrtryList = [\"South Kore\",\"North Korea\",\"USA\",\"CHINA\",\"Japan\"] */\n  mload(0x40)\n  dup1\n  0xa0\n  add\n  0x40\n  mstore\n  dup1\n  mload(0x40)\n  dup1\n  0x40\n  add\n  0x40\n  mstore\n  dup1\n  0x0a\n  dup2\n  mstore\n  0x20\n  add\n  0x536f757468204b6f726500000000000000000000000000000000000000000000\n  dup2\n  mstore\n  pop\n  dup2\n  mstore\n  0x20\n  add\n  mload(0x40)\n  dup1\n  0x40\n  add\n  0x40\n  mstore\n  dup1\n  0x0b\n  dup2\n  mstore\n  0x20\n  add\n  0x4e6f727468204b6f726561000000000000000000000000000000000000000000\n  dup2\n  mstore\n  pop\n  dup2\n  mstore\n  0x20\n  add\n  mload(0x40)\n  dup1\n  0x40\n  add\n  0x40\n  mstore\n  dup1\n  0x03\n  dup2\n  mstore\n  0x20\n  add\n  0x5553410000000000000000000000000000000000000000000000000000000000\n  dup2\n  mstore\n  pop\n  dup2\n  mstore\n  0x20\n  add\n  mload(0x40)\n  dup1\n  0x40\n  add\n  0x40\n  mstore\n  dup1\n  0x05\n  dup2\n  mstore\n  0x20\n  add\n  0x4348494e41000000000000000000000000000000000000000000000000000000\n  dup2\n  mstore\n  pop\n  dup2\n  mstore\n  0x20\n  add\n  mload(0x40)\n  dup1\n  0x40\n  add\n  0x40\n  mstore\n  dup1\n  0x05\n  dup2\n  mstore\n  0x20\n  add\n  0x4a6170616e000000000000000000000000000000000000000000000000000000\n  dup2\n  mstore\n  pop\n  dup2\n  mstore\n  pop\n  0x00\n  swap1\n  0x05\n  tag_1\n  swap3\n  swap2\n  swap1\n  tag_2\n  jump\t// in\ntag_1:\n  pop\n    /* \"lecture/linearSearch.sol\":72:651  contract linearSearchC {... */\n  callvalue\n  dup1\n  iszero\n  tag_3\n  jumpi\n  0x00\n  dup1\n  revert\ntag_3:\n  pop\n  jump(tag_4)\ntag_2:\n  dup3\n  dup1\n  sload\n  dup3\n  dup3\n  sstore\n  swap1\n  0x00\n  mstore\n  keccak256(0x00, 0x20)\n  swap1\n  dup2\n  add\n  swap3\n  dup3\n  iszero\n  tag_5\n  jumpi\n  swap2\n  0x20\n  mul\n  dup3\n  add\ntag_6:\n  dup3\n  dup2\n  gt\n  iszero\n  tag_7\n  jumpi\n  dup3\n  mload\n  dup3\n  swap1\n  dup1\n  mload\n  swap1\n  0x20\n  add\n  swap1\n  tag_8\n  swap3\n  swap2\n  swap1\n  tag_9\n  jump\t// in\ntag_8:\n  pop\n  swap2\n  0x20\n  add\n  swap2\n  swap1\n  0x01\n  add\n  swap1\n  jump(tag_6)\ntag_7:\ntag_5:\n  pop\n  swap1\n  pop\n  tag_10\n  swap2\n  swap1\n  tag_11\n  jump\t// in\ntag_10:\n  pop\n  swap1\n  jump\t// out\ntag_9:\n  dup3\n  dup1\n  sload\n  tag_12\n  swap1\n  tag_13\n  jump\t// in\ntag_12:\n  swap1\n  0x00\n  mstore\n  keccak256(0x00, 0x20)\n  swap1\n  0x1f\n  add\n  0x20\n  swap1\n  div\n  dup2\n  add\n  swap3\n  dup3\n  tag_15\n  jumpi\n  0x00\n  dup6\n  sstore\n  jump(tag_14)\ntag_15:\n  dup3\n  0x1f\n  lt\n  tag_16\n  jumpi\n  dup1\n  mload\n  not(0xff)\n  and\n  dup4\n  dup1\n  add\n  or\n  dup6\n  sstore\n  jump(tag_14)\ntag_16:\n  dup3\n  dup1\n  add\n  0x01\n  add\n  dup6\n  sstore\n  dup3\n  iszero\n  tag_14\n  jumpi\n  swap2\n  dup3\n  add\ntag_17:\n  dup3\n  dup2\n  gt\n  iszero\n  tag_18\n  jumpi\n  dup3\n  mload\n  dup3\n  sstore\n  swap2\n  0x20\n  add\n  swap2\n  swap1\n  0x01\n  add\n  swap1\n  jump(tag_17)\ntag_18:\ntag_14:\n  pop\n  swap1\n  pop\n  tag_19\n  swap2\n  swap1\n  tag_20\n  jump\t// in\ntag_19:\n  pop\n  swap1\n  jump\t// out\ntag_11:\ntag_21:\n  dup1\n  dup3\n  gt\n  iszero\n  tag_22\n  jumpi\n  0x00\n  dup2\n  dup2\n  tag_23\n  swap2\n  swap1\n  tag_24\n  jump\t// in\ntag_23:\n  pop\n  0x01\n  add\n  jump(tag_21)\ntag_22:\n  pop\n  swap1\n  jump\t// out\ntag_20:\ntag_25:\n  dup1\n  dup3\n  gt\n  iszero\n  tag_26\n  jumpi\n  0x00\n  dup2\n  0x00\n  swap1\n  sstore\n  pop\n  0x01\n  add\n  jump(tag_25)\ntag_26:\n  pop\n  swap1\n  jump\t// out\ntag_24:\n  pop\n  dup1\n  sload\n  tag_27\n  swap1\n  tag_13\n  jump\t// in\ntag_27:\n  0x00\n  dup3\n  sstore\n  dup1\n  0x1f\n  lt\n  tag_29\n  jumpi\n  pop\n  jump(tag_28)\ntag_29:\n  0x1f\n  add\n  0x20\n  swap1\n  div\n  swap1\n  0x00\n  mstore\n  keccak256(0x00, 0x20)\n  swap1\n  dup2\n  add\n  swap1\n  tag_30\n  swap2\n  swap1\n  tag_20\n  jump\t// in\ntag_30:\ntag_28:\n  pop\n  jump\t// out\n    /* \"#utility.yul\":7:187   */\ntag_31:\n    /* \"#utility.yul\":55:132   */\n  0x4e487b7100000000000000000000000000000000000000000000000000000000\n    /* \"#utility.yul\":52:53   */\n  0x00\n    /* \"#utility.yul\":45:133   */\n  mstore\n    /* \"#utility.yul\":152:156   */\n  0x22\n    /* \"#utility.yul\":149:150   */\n  0x04\n    /* \"#utility.yul\":142:157   */\n  mstore\n    /* \"#utility.yul\":176:180   */\n  0x24\n    /* \"#utility.yul\":173:174   */\n  0x00\n    /* \"#utility.yul\":166:181   */\n  revert\n    /* \"#utility.yul\":193:513   */\ntag_13:\n    /* \"#utility.yul\":237:243   */\n  0x00\n    /* \"#utility.yul\":274:275   */\n  0x02\n    /* \"#utility.yul\":268:272   */\n  dup3\n    /* \"#utility.yul\":264:276   */\n  div\n    /* \"#utility.yul\":254:276   */\n  swap1\n  pop\n    /* \"#utility.yul\":321:322   */\n  0x01\n    /* \"#utility.yul\":315:319   */\n  dup3\n    /* \"#utility.yul\":311:323   */\n  and\n    /* \"#utility.yul\":342:360   */\n  dup1\n    /* \"#utility.yul\":332:413   */\n  tag_35\n  jumpi\n    /* \"#utility.yul\":398:402   */\n  0x7f\n    /* \"#utility.yul\":390:396   */\n  dup3\n    /* \"#utility.yul\":386:403   */\n  and\n    /* \"#utility.yul\":376:403   */\n  swap2\n  pop\n    /* \"#utility.yul\":332:413   */\ntag_35:\n    /* \"#utility.yul\":460:462   */\n  0x20\n    /* \"#utility.yul\":452:458   */\n  dup3\n    /* \"#utility.yul\":449:463   */\n  lt\n    /* \"#utility.yul\":429:447   */\n  dup2\n    /* \"#utility.yul\":426:464   */\n  sub\n    /* \"#utility.yul\":423:507   */\n  tag_36\n  jumpi\n    /* \"#utility.yul\":479:497   */\n  tag_37\n  tag_31\n  jump\t// in\ntag_37:\n    /* \"#utility.yul\":423:507   */\ntag_36:\n    /* \"#utility.yul\":244:513   */\n  pop\n    /* \"#utility.yul\":193:513   */\n  swap2\n  swap1\n  pop\n  jump\t// out\n    /* \"lecture/linearSearch.sol\":72:651  contract linearSearchC {... */\ntag_4:\n  dataSize(sub_0)\n  dup1\n  dataOffset(sub_0)\n  0x00\n  codecopy\n  0x00\n  return\nstop\n\nsub_0: assembly {\n        /* \"lecture/linearSearch.sol\":72:651  contract linearSearchC {... */\n      mstore(0x40, 0x80)\n      callvalue\n      dup1\n      iszero\n      tag_1\n      jumpi\n      0x00\n      dup1\n      revert\n    tag_1:\n      pop\n      jumpi(tag_2, lt(calldatasize, 0x04))\n      shr(0xe0, calldataload(0x00))\n      dup1\n      0x655f478b\n      eq\n      tag_3\n      jumpi\n    tag_2:\n      0x00\n      dup1\n      revert\n        /* \"lecture/linearSearch.sol\":259:648  function linearSearch(string memory _search) public view returns(uint,string memory) {... */\n    tag_3:\n      tag_4\n      0x04\n      dup1\n      calldatasize\n      sub\n      dup2\n      add\n      swap1\n      tag_5\n      swap2\n      swap1\n      tag_6\n      jump\t// in\n    tag_5:\n      tag_7\n      jump\t// in\n    tag_4:\n      mload(0x40)\n      tag_8\n      swap3\n      swap2\n      swap1\n      tag_9\n      jump\t// in\n    tag_8:\n      mload(0x40)\n      dup1\n      swap2\n      sub\n      swap1\n      return\n    tag_7:\n        /* \"lecture/linearSearch.sol\":324:328  uint */\n      0x00\n        /* \"lecture/linearSearch.sol\":329:342  string memory */\n      0x60\n        /* \"lecture/linearSearch.sol\":359:365  uint i */\n      0x00\n        /* \"lecture/linearSearch.sol\":355:599  for(uint i = 0; i < counrtryList.length; i++ ) {... */\n    tag_11:\n        /* \"lecture/linearSearch.sol\":375:387  counrtryList */\n      0x00\n        /* \"lecture/linearSearch.sol\":375:394  counrtryList.length */\n      dup1\n      sload\n      swap1\n      pop\n        /* \"lecture/linearSearch.sol\":371:372  i */\n      dup2\n        /* \"lecture/linearSearch.sol\":371:394  i < counrtryList.length */\n      lt\n        /* \"lecture/linearSearch.sol\":355:599  for(uint i = 0; i < counrtryList.length; i++ ) {... */\n      iszero\n      tag_12\n      jumpi\n        /* \"lecture/linearSearch.sol\":516:523  _search */\n      dup4\n        /* \"lecture/linearSearch.sol\":500:525  keccak256(bytes(_search)) */\n      dup1\n      mload\n      swap1\n      0x20\n      add\n      keccak256\n        /* \"lecture/linearSearch.sol\":479:491  counrtryList */\n      0x00\n        /* \"lecture/linearSearch.sol\":492:493  i */\n      dup3\n        /* \"lecture/linearSearch.sol\":479:494  counrtryList[i] */\n      dup2\n      sload\n      dup2\n      lt\n      tag_14\n      jumpi\n      tag_15\n      tag_16\n      jump\t// in\n    tag_15:\n    tag_14:\n      swap1\n      0x00\n      mstore\n      keccak256(0x00, 0x20)\n      add\n        /* \"lecture/linearSearch.sol\":463:496  keccak256(bytes(counrtryList[i])) */\n      mload(0x40)\n      tag_18\n      swap2\n      swap1\n      tag_19\n      jump\t// in\n    tag_18:\n      mload(0x40)\n      dup1\n      swap2\n      sub\n      swap1\n      keccak256\n        /* \"lecture/linearSearch.sol\":463:525  keccak256(bytes(counrtryList[i])) == keccak256(bytes(_search)) */\n      sub\n        /* \"lecture/linearSearch.sol\":460:588  if(keccak256(bytes(counrtryList[i])) == keccak256(bytes(_search))) {... */\n      tag_20\n      jumpi\n        /* \"lecture/linearSearch.sol\":554:555  i */\n      dup1\n        /* \"lecture/linearSearch.sol\":556:568  counrtryList */\n      0x00\n        /* \"lecture/linearSearch.sol\":569:570  i */\n      dup3\n        /* \"lecture/linearSearch.sol\":556:571  counrtryList[i] */\n      dup2\n      sload\n      dup2\n      lt\n      tag_21\n      jumpi\n      tag_22\n      tag_16\n      jump\t// in\n    tag_22:\n    tag_21:\n      swap1\n      0x00\n      mstore\n      keccak256(0x00, 0x20)\n      add\n        /* \"lecture/linearSearch.sol\":546:572  return (i,counrtryList[i]) */\n      dup1\n      dup1\n      sload\n      tag_24\n      swap1\n      tag_25\n      jump\t// in\n    tag_24:\n      dup1\n      0x1f\n      add\n      0x20\n      dup1\n      swap2\n      div\n      mul\n      0x20\n      add\n      mload(0x40)\n      swap1\n      dup2\n      add\n      0x40\n      mstore\n      dup1\n      swap3\n      swap2\n      swap1\n      dup2\n      dup2\n      mstore\n      0x20\n      add\n      dup3\n      dup1\n      sload\n      tag_26\n      swap1\n      tag_25\n      jump\t// in\n    tag_26:\n      dup1\n      iszero\n      tag_27\n      jumpi\n      dup1\n      0x1f\n      lt\n      tag_28\n      jumpi\n      0x0100\n      dup1\n      dup4\n      sload\n      div\n      mul\n      dup4\n      mstore\n      swap2\n      0x20\n      add\n      swap2\n      jump(tag_27)\n    tag_28:\n      dup3\n      add\n      swap2\n      swap1\n      0x00\n      mstore\n      keccak256(0x00, 0x20)\n      swap1\n    tag_29:\n      dup2\n      sload\n      dup2\n      mstore\n      swap1\n      0x01\n      add\n      swap1\n      0x20\n      add\n      dup1\n      dup4\n      gt\n      tag_29\n      jumpi\n      dup3\n      swap1\n      sub\n      0x1f\n      and\n      dup3\n      add\n      swap2\n    tag_27:\n      pop\n      pop\n      pop\n      pop\n      pop\n      swap1\n      pop\n      swap3\n      pop\n      swap3\n      pop\n      pop\n      jump(tag_10)\n        /* \"lecture/linearSearch.sol\":460:588  if(keccak256(bytes(counrtryList[i])) == keccak256(bytes(_search))) {... */\n    tag_20:\n        /* \"lecture/linearSearch.sol\":396:399  i++ */\n      dup1\n      dup1\n      tag_30\n      swap1\n      tag_31\n      jump\t// in\n    tag_30:\n      swap2\n      pop\n      pop\n        /* \"lecture/linearSearch.sol\":355:599  for(uint i = 0; i < counrtryList.length; i++ ) {... */\n      jump(tag_11)\n    tag_12:\n      pop\n        /* \"lecture/linearSearch.sol\":619:620  0 */\n      0x00\n        /* \"lecture/linearSearch.sol\":611:640  return (0,\"Nothing In Array\") */\n      mload(0x40)\n      dup1\n      0x40\n      add\n      0x40\n      mstore\n      dup1\n      0x10\n      dup2\n      mstore\n      0x20\n      add\n      0x4e6f7468696e6720496e20417272617900000000000000000000000000000000\n      dup2\n      mstore\n      pop\n      swap2\n      pop\n      swap2\n      pop\n        /* \"lecture/linearSearch.sol\":259:648  function linearSearch(string memory _search) public view returns(uint,string memory) {... */\n    tag_10:\n      swap2\n      pop\n      swap2\n      jump\t// out\n        /* \"#utility.yul\":7:82   */\n    tag_32:\n        /* \"#utility.yul\":40:46   */\n      0x00\n        /* \"#utility.yul\":73:75   */\n      0x40\n        /* \"#utility.yul\":67:76   */\n      mload\n        /* \"#utility.yul\":57:76   */\n      swap1\n      pop\n        /* \"#utility.yul\":7:82   */\n      swap1\n      jump\t// out\n        /* \"#utility.yul\":88:205   */\n    tag_33:\n        /* \"#utility.yul\":197:198   */\n      0x00\n        /* \"#utility.yul\":194:195   */\n      dup1\n        /* \"#utility.yul\":187:199   */\n      revert\n        /* \"#utility.yul\":211:328   */\n    tag_34:\n        /* \"#utility.yul\":320:321   */\n      0x00\n        /* \"#utility.yul\":317:318   */\n      dup1\n        /* \"#utility.yul\":310:322   */\n      revert\n        /* \"#utility.yul\":334:451   */\n    tag_35:\n        /* \"#utility.yul\":443:444   */\n      0x00\n        /* \"#utility.yul\":440:441   */\n      dup1\n        /* \"#utility.yul\":433:445   */\n      revert\n        /* \"#utility.yul\":457:574   */\n    tag_36:\n        /* \"#utility.yul\":566:567   */\n      0x00\n        /* \"#utility.yul\":563:564   */\n      dup1\n        /* \"#utility.yul\":556:568   */\n      revert\n        /* \"#utility.yul\":580:682   */\n    tag_37:\n        /* \"#utility.yul\":621:627   */\n      0x00\n        /* \"#utility.yul\":672:674   */\n      0x1f\n        /* \"#utility.yul\":668:675   */\n      not\n        /* \"#utility.yul\":663:665   */\n      0x1f\n        /* \"#utility.yul\":656:661   */\n      dup4\n        /* \"#utility.yul\":652:666   */\n      add\n        /* \"#utility.yul\":648:676   */\n      and\n        /* \"#utility.yul\":638:676   */\n      swap1\n      pop\n        /* \"#utility.yul\":580:682   */\n      swap2\n      swap1\n      pop\n      jump\t// out\n        /* \"#utility.yul\":688:868   */\n    tag_38:\n        /* \"#utility.yul\":736:813   */\n      0x4e487b7100000000000000000000000000000000000000000000000000000000\n        /* \"#utility.yul\":733:734   */\n      0x00\n        /* \"#utility.yul\":726:814   */\n      mstore\n        /* \"#utility.yul\":833:837   */\n      0x41\n        /* \"#utility.yul\":830:831   */\n      0x04\n        /* \"#utility.yul\":823:838   */\n      mstore\n        /* \"#utility.yul\":857:861   */\n      0x24\n        /* \"#utility.yul\":854:855   */\n      0x00\n        /* \"#utility.yul\":847:862   */\n      revert\n        /* \"#utility.yul\":874:1155   */\n    tag_39:\n        /* \"#utility.yul\":957:984   */\n      tag_65\n        /* \"#utility.yul\":979:983   */\n      dup3\n        /* \"#utility.yul\":957:984   */\n      tag_37\n      jump\t// in\n    tag_65:\n        /* \"#utility.yul\":949:955   */\n      dup2\n        /* \"#utility.yul\":945:985   */\n      add\n        /* \"#utility.yul\":1087:1093   */\n      dup2\n        /* \"#utility.yul\":1075:1085   */\n      dup2\n        /* \"#utility.yul\":1072:1094   */\n      lt\n        /* \"#utility.yul\":1051:1069   */\n      0xffffffffffffffff\n        /* \"#utility.yul\":1039:1049   */\n      dup3\n        /* \"#utility.yul\":1036:1070   */\n      gt\n        /* \"#utility.yul\":1033:1095   */\n      or\n        /* \"#utility.yul\":1030:1118   */\n      iszero\n      tag_66\n      jumpi\n        /* \"#utility.yul\":1098:1116   */\n      tag_67\n      tag_38\n      jump\t// in\n    tag_67:\n        /* \"#utility.yul\":1030:1118   */\n    tag_66:\n        /* \"#utility.yul\":1138:1148   */\n      dup1\n        /* \"#utility.yul\":1134:1136   */\n      0x40\n        /* \"#utility.yul\":1127:1149   */\n      mstore\n        /* \"#utility.yul\":917:1155   */\n      pop\n        /* \"#utility.yul\":874:1155   */\n      pop\n      pop\n      jump\t// out\n        /* \"#utility.yul\":1161:1290   */\n    tag_40:\n        /* \"#utility.yul\":1195:1201   */\n      0x00\n        /* \"#utility.yul\":1222:1242   */\n      tag_69\n      tag_32\n      jump\t// in\n    tag_69:\n        /* \"#utility.yul\":1212:1242   */\n      swap1\n      pop\n        /* \"#utility.yul\":1251:1284   */\n      tag_70\n        /* \"#utility.yul\":1279:1283   */\n      dup3\n        /* \"#utility.yul\":1271:1277   */\n      dup3\n        /* \"#utility.yul\":1251:1284   */\n      tag_39\n      jump\t// in\n    tag_70:\n        /* \"#utility.yul\":1161:1290   */\n      swap2\n      swap1\n      pop\n      jump\t// out\n        /* \"#utility.yul\":1296:1604   */\n    tag_41:\n        /* \"#utility.yul\":1358:1362   */\n      0x00\n        /* \"#utility.yul\":1448:1466   */\n      0xffffffffffffffff\n        /* \"#utility.yul\":1440:1446   */\n      dup3\n        /* \"#utility.yul\":1437:1467   */\n      gt\n        /* \"#utility.yul\":1434:1490   */\n      iszero\n      tag_72\n      jumpi\n        /* \"#utility.yul\":1470:1488   */\n      tag_73\n      tag_38\n      jump\t// in\n    tag_73:\n        /* \"#utility.yul\":1434:1490   */\n    tag_72:\n        /* \"#utility.yul\":1508:1537   */\n      tag_74\n        /* \"#utility.yul\":1530:1536   */\n      dup3\n        /* \"#utility.yul\":1508:1537   */\n      tag_37\n      jump\t// in\n    tag_74:\n        /* \"#utility.yul\":1500:1537   */\n      swap1\n      pop\n        /* \"#utility.yul\":1592:1596   */\n      0x20\n        /* \"#utility.yul\":1586:1590   */\n      dup2\n        /* \"#utility.yul\":1582:1597   */\n      add\n        /* \"#utility.yul\":1574:1597   */\n      swap1\n      pop\n        /* \"#utility.yul\":1296:1604   */\n      swap2\n      swap1\n      pop\n      jump\t// out\n        /* \"#utility.yul\":1610:1764   */\n    tag_42:\n        /* \"#utility.yul\":1694:1700   */\n      dup3\n        /* \"#utility.yul\":1689:1692   */\n      dup2\n        /* \"#utility.yul\":1684:1687   */\n      dup4\n        /* \"#utility.yul\":1671:1701   */\n      calldatacopy\n        /* \"#utility.yul\":1756:1757   */\n      0x00\n        /* \"#utility.yul\":1747:1753   */\n      dup4\n        /* \"#utility.yul\":1742:1745   */\n      dup4\n        /* \"#utility.yul\":1738:1754   */\n      add\n        /* \"#utility.yul\":1731:1758   */\n      mstore\n        /* \"#utility.yul\":1610:1764   */\n      pop\n      pop\n      pop\n      jump\t// out\n        /* \"#utility.yul\":1770:2182   */\n    tag_43:\n        /* \"#utility.yul\":1848:1853   */\n      0x00\n        /* \"#utility.yul\":1873:1939   */\n      tag_77\n        /* \"#utility.yul\":1889:1938   */\n      tag_78\n        /* \"#utility.yul\":1931:1937   */\n      dup5\n        /* \"#utility.yul\":1889:1938   */\n      tag_41\n      jump\t// in\n    tag_78:\n        /* \"#utility.yul\":1873:1939   */\n      tag_40\n      jump\t// in\n    tag_77:\n        /* \"#utility.yul\":1864:1939   */\n      swap1\n      pop\n        /* \"#utility.yul\":1962:1968   */\n      dup3\n        /* \"#utility.yul\":1955:1960   */\n      dup2\n        /* \"#utility.yul\":1948:1969   */\n      mstore\n        /* \"#utility.yul\":2000:2004   */\n      0x20\n        /* \"#utility.yul\":1993:1998   */\n      dup2\n        /* \"#utility.yul\":1989:2005   */\n      add\n        /* \"#utility.yul\":2038:2041   */\n      dup5\n        /* \"#utility.yul\":2029:2035   */\n      dup5\n        /* \"#utility.yul\":2024:2027   */\n      dup5\n        /* \"#utility.yul\":2020:2036   */\n      add\n        /* \"#utility.yul\":2017:2042   */\n      gt\n        /* \"#utility.yul\":2014:2126   */\n      iszero\n      tag_79\n      jumpi\n        /* \"#utility.yul\":2045:2124   */\n      tag_80\n      tag_36\n      jump\t// in\n    tag_80:\n        /* \"#utility.yul\":2014:2126   */\n    tag_79:\n        /* \"#utility.yul\":2135:2176   */\n      tag_81\n        /* \"#utility.yul\":2169:2175   */\n      dup5\n        /* \"#utility.yul\":2164:2167   */\n      dup3\n        /* \"#utility.yul\":2159:2162   */\n      dup6\n        /* \"#utility.yul\":2135:2176   */\n      tag_42\n      jump\t// in\n    tag_81:\n        /* \"#utility.yul\":1854:2182   */\n      pop\n        /* \"#utility.yul\":1770:2182   */\n      swap4\n      swap3\n      pop\n      pop\n      pop\n      jump\t// out\n        /* \"#utility.yul\":2202:2542   */\n    tag_44:\n        /* \"#utility.yul\":2258:2263   */\n      0x00\n        /* \"#utility.yul\":2307:2310   */\n      dup3\n        /* \"#utility.yul\":2300:2304   */\n      0x1f\n        /* \"#utility.yul\":2292:2298   */\n      dup4\n        /* \"#utility.yul\":2288:2305   */\n      add\n        /* \"#utility.yul\":2284:2311   */\n      slt\n        /* \"#utility.yul\":2274:2396   */\n      tag_83\n      jumpi\n        /* \"#utility.yul\":2315:2394   */\n      tag_84\n      tag_35\n      jump\t// in\n    tag_84:\n        /* \"#utility.yul\":2274:2396   */\n    tag_83:\n        /* \"#utility.yul\":2432:2438   */\n      dup2\n        /* \"#utility.yul\":2419:2439   */\n      calldataload\n        /* \"#utility.yul\":2457:2536   */\n      tag_85\n        /* \"#utility.yul\":2532:2535   */\n      dup5\n        /* \"#utility.yul\":2524:2530   */\n      dup3\n        /* \"#utility.yul\":2517:2521   */\n      0x20\n        /* \"#utility.yul\":2509:2515   */\n      dup7\n        /* \"#utility.yul\":2505:2522   */\n      add\n        /* \"#utility.yul\":2457:2536   */\n      tag_43\n      jump\t// in\n    tag_85:\n        /* \"#utility.yul\":2448:2536   */\n      swap2\n      pop\n        /* \"#utility.yul\":2264:2542   */\n      pop\n        /* \"#utility.yul\":2202:2542   */\n      swap3\n      swap2\n      pop\n      pop\n      jump\t// out\n        /* \"#utility.yul\":2548:3057   */\n    tag_6:\n        /* \"#utility.yul\":2617:2623   */\n      0x00\n        /* \"#utility.yul\":2666:2668   */\n      0x20\n        /* \"#utility.yul\":2654:2663   */\n      dup3\n        /* \"#utility.yul\":2645:2652   */\n      dup5\n        /* \"#utility.yul\":2641:2664   */\n      sub\n        /* \"#utility.yul\":2637:2669   */\n      slt\n        /* \"#utility.yul\":2634:2753   */\n      iszero\n      tag_87\n      jumpi\n        /* \"#utility.yul\":2672:2751   */\n      tag_88\n      tag_33\n      jump\t// in\n    tag_88:\n        /* \"#utility.yul\":2634:2753   */\n    tag_87:\n        /* \"#utility.yul\":2820:2821   */\n      0x00\n        /* \"#utility.yul\":2809:2818   */\n      dup3\n        /* \"#utility.yul\":2805:2822   */\n      add\n        /* \"#utility.yul\":2792:2823   */\n      calldataload\n        /* \"#utility.yul\":2850:2868   */\n      0xffffffffffffffff\n        /* \"#utility.yul\":2842:2848   */\n      dup2\n        /* \"#utility.yul\":2839:2869   */\n      gt\n        /* \"#utility.yul\":2836:2953   */\n      iszero\n      tag_89\n      jumpi\n        /* \"#utility.yul\":2872:2951   */\n      tag_90\n      tag_34\n      jump\t// in\n    tag_90:\n        /* \"#utility.yul\":2836:2953   */\n    tag_89:\n        /* \"#utility.yul\":2977:3040   */\n      tag_91\n        /* \"#utility.yul\":3032:3039   */\n      dup5\n        /* \"#utility.yul\":3023:3029   */\n      dup3\n        /* \"#utility.yul\":3012:3021   */\n      dup6\n        /* \"#utility.yul\":3008:3030   */\n      add\n        /* \"#utility.yul\":2977:3040   */\n      tag_44\n      jump\t// in\n    tag_91:\n        /* \"#utility.yul\":2967:3040   */\n      swap2\n      pop\n        /* \"#utility.yul\":2763:3050   */\n      pop\n        /* \"#utility.yul\":2548:3057   */\n      swap3\n      swap2\n      pop\n      pop\n      jump\t// out\n        /* \"#utility.yul\":3063:3140   */\n    tag_45:\n        /* \"#utility.yul\":3100:3107   */\n      0x00\n        /* \"#utility.yul\":3129:3134   */\n      dup2\n        /* \"#utility.yul\":3118:3134   */\n      swap1\n      pop\n        /* \"#utility.yul\":3063:3140   */\n      swap2\n      swap1\n      pop\n      jump\t// out\n        /* \"#utility.yul\":3146:3264   */\n    tag_46:\n        /* \"#utility.yul\":3233:3257   */\n      tag_94\n        /* \"#utility.yul\":3251:3256   */\n      dup2\n        /* \"#utility.yul\":3233:3257   */\n      tag_45\n      jump\t// in\n    tag_94:\n        /* \"#utility.yul\":3228:3231   */\n      dup3\n        /* \"#utility.yul\":3221:3258   */\n      mstore\n        /* \"#utility.yul\":3146:3264   */\n      pop\n      pop\n      jump\t// out\n        /* \"#utility.yul\":3270:3369   */\n    tag_47:\n        /* \"#utility.yul\":3322:3328   */\n      0x00\n        /* \"#utility.yul\":3356:3361   */\n      dup2\n        /* \"#utility.yul\":3350:3362   */\n      mload\n        /* \"#utility.yul\":3340:3362   */\n      swap1\n      pop\n        /* \"#utility.yul\":3270:3369   */\n      swap2\n      swap1\n      pop\n      jump\t// out\n        /* \"#utility.yul\":3375:3544   */\n    tag_48:\n        /* \"#utility.yul\":3459:3470   */\n      0x00\n        /* \"#utility.yul\":3493:3499   */\n      dup3\n        /* \"#utility.yul\":3488:3491   */\n      dup3\n        /* \"#utility.yul\":3481:3500   */\n      mstore\n        /* \"#utility.yul\":3533:3537   */\n      0x20\n        /* \"#utility.yul\":3528:3531   */\n      dup3\n        /* \"#utility.yul\":3524:3538   */\n      add\n        /* \"#utility.yul\":3509:3538   */\n      swap1\n      pop\n        /* \"#utility.yul\":3375:3544   */\n      swap3\n      swap2\n      pop\n      pop\n      jump\t// out\n        /* \"#utility.yul\":3550:3857   */\n    tag_49:\n        /* \"#utility.yul\":3618:3619   */\n      0x00\n        /* \"#utility.yul\":3628:3741   */\n    tag_98:\n        /* \"#utility.yul\":3642:3648   */\n      dup4\n        /* \"#utility.yul\":3639:3640   */\n      dup2\n        /* \"#utility.yul\":3636:3649   */\n      lt\n        /* \"#utility.yul\":3628:3741   */\n      iszero\n      tag_100\n      jumpi\n        /* \"#utility.yul\":3727:3728   */\n      dup1\n        /* \"#utility.yul\":3722:3725   */\n      dup3\n        /* \"#utility.yul\":3718:3729   */\n      add\n        /* \"#utility.yul\":3712:3730   */\n      mload\n        /* \"#utility.yul\":3708:3709   */\n      dup2\n        /* \"#utility.yul\":3703:3706   */\n      dup5\n        /* \"#utility.yul\":3699:3710   */\n      add\n        /* \"#utility.yul\":3692:3731   */\n      mstore\n        /* \"#utility.yul\":3664:3666   */\n      0x20\n        /* \"#utility.yul\":3661:3662   */\n      dup2\n        /* \"#utility.yul\":3657:3667   */\n      add\n        /* \"#utility.yul\":3652:3667   */\n      swap1\n      pop\n        /* \"#utility.yul\":3628:3741   */\n      jump(tag_98)\n    tag_100:\n        /* \"#utility.yul\":3759:3765   */\n      dup4\n        /* \"#utility.yul\":3756:3757   */\n      dup2\n        /* \"#utility.yul\":3753:3766   */\n      gt\n        /* \"#utility.yul\":3750:3851   */\n      iszero\n      tag_101\n      jumpi\n        /* \"#utility.yul\":3839:3840   */\n      0x00\n        /* \"#utility.yul\":3830:3836   */\n      dup5\n        /* \"#utility.yul\":3825:3828   */\n      dup5\n        /* \"#utility.yul\":3821:3837   */\n      add\n        /* \"#utility.yul\":3814:3841   */\n      mstore\n        /* \"#utility.yul\":3750:3851   */\n    tag_101:\n        /* \"#utility.yul\":3599:3857   */\n      pop\n        /* \"#utility.yul\":3550:3857   */\n      pop\n      pop\n      pop\n      jump\t// out\n        /* \"#utility.yul\":3863:4227   */\n    tag_50:\n        /* \"#utility.yul\":3951:3954   */\n      0x00\n        /* \"#utility.yul\":3979:4018   */\n      tag_103\n        /* \"#utility.yul\":4012:4017   */\n      dup3\n        /* \"#utility.yul\":3979:4018   */\n      tag_47\n      jump\t// in\n    tag_103:\n        /* \"#utility.yul\":4034:4105   */\n      tag_104\n        /* \"#utility.yul\":4098:4104   */\n      dup2\n        /* \"#utility.yul\":4093:4096   */\n      dup6\n        /* \"#utility.yul\":4034:4105   */\n      tag_48\n      jump\t// in\n    tag_104:\n        /* \"#utility.yul\":4027:4105   */\n      swap4\n      pop\n        /* \"#utility.yul\":4114:4166   */\n      tag_105\n        /* \"#utility.yul\":4159:4165   */\n      dup2\n        /* \"#utility.yul\":4154:4157   */\n      dup6\n        /* \"#utility.yul\":4147:4151   */\n      0x20\n        /* \"#utility.yul\":4140:4145   */\n      dup7\n        /* \"#utility.yul\":4136:4152   */\n      add\n        /* \"#utility.yul\":4114:4166   */\n      tag_49\n      jump\t// in\n    tag_105:\n        /* \"#utility.yul\":4191:4220   */\n      tag_106\n        /* \"#utility.yul\":4213:4219   */\n      dup2\n        /* \"#utility.yul\":4191:4220   */\n      tag_37\n      jump\t// in\n    tag_106:\n        /* \"#utility.yul\":4186:4189   */\n      dup5\n        /* \"#utility.yul\":4182:4221   */\n      add\n        /* \"#utility.yul\":4175:4221   */\n      swap2\n      pop\n        /* \"#utility.yul\":3955:4227   */\n      pop\n        /* \"#utility.yul\":3863:4227   */\n      swap3\n      swap2\n      pop\n      pop\n      jump\t// out\n        /* \"#utility.yul\":4233:4656   */\n    tag_9:\n        /* \"#utility.yul\":4374:4378   */\n      0x00\n        /* \"#utility.yul\":4412:4414   */\n      0x40\n        /* \"#utility.yul\":4401:4410   */\n      dup3\n        /* \"#utility.yul\":4397:4415   */\n      add\n        /* \"#utility.yul\":4389:4415   */\n      swap1\n      pop\n        /* \"#utility.yul\":4425:4496   */\n      tag_108\n        /* \"#utility.yul\":4493:4494   */\n      0x00\n        /* \"#utility.yul\":4482:4491   */\n      dup4\n        /* \"#utility.yul\":4478:4495   */\n      add\n        /* \"#utility.yul\":4469:4475   */\n      dup6\n        /* \"#utility.yul\":4425:4496   */\n      tag_46\n      jump\t// in\n    tag_108:\n        /* \"#utility.yul\":4543:4552   */\n      dup2\n        /* \"#utility.yul\":4537:4541   */\n      dup2\n        /* \"#utility.yul\":4533:4553   */\n      sub\n        /* \"#utility.yul\":4528:4530   */\n      0x20\n        /* \"#utility.yul\":4517:4526   */\n      dup4\n        /* \"#utility.yul\":4513:4531   */\n      add\n        /* \"#utility.yul\":4506:4554   */\n      mstore\n        /* \"#utility.yul\":4571:4649   */\n      tag_109\n        /* \"#utility.yul\":4644:4648   */\n      dup2\n        /* \"#utility.yul\":4635:4641   */\n      dup5\n        /* \"#utility.yul\":4571:4649   */\n      tag_50\n      jump\t// in\n    tag_109:\n        /* \"#utility.yul\":4563:4649   */\n      swap1\n      pop\n        /* \"#utility.yul\":4233:4656   */\n      swap4\n      swap3\n      pop\n      pop\n      pop\n      jump\t// out\n        /* \"#utility.yul\":4662:4842   */\n    tag_16:\n        /* \"#utility.yul\":4710:4787   */\n      0x4e487b7100000000000000000000000000000000000000000000000000000000\n        /* \"#utility.yul\":4707:4708   */\n      0x00\n        /* \"#utility.yul\":4700:4788   */\n      mstore\n        /* \"#utility.yul\":4807:4811   */\n      0x32\n        /* \"#utility.yul\":4804:4805   */\n      0x04\n        /* \"#utility.yul\":4797:4812   */\n      mstore\n        /* \"#utility.yul\":4831:4835   */\n      0x24\n        /* \"#utility.yul\":4828:4829   */\n      0x00\n        /* \"#utility.yul\":4821:4836   */\n      revert\n        /* \"#utility.yul\":4848:5028   */\n    tag_51:\n        /* \"#utility.yul\":4896:4973   */\n      0x4e487b7100000000000000000000000000000000000000000000000000000000\n        /* \"#utility.yul\":4893:4894   */\n      0x00\n        /* \"#utility.yul\":4886:4974   */\n      mstore\n        /* \"#utility.yul\":4993:4997   */\n      0x22\n        /* \"#utility.yul\":4990:4991   */\n      0x04\n        /* \"#utility.yul\":4983:4998   */\n      mstore\n        /* \"#utility.yul\":5017:5021   */\n      0x24\n        /* \"#utility.yul\":5014:5015   */\n      0x00\n        /* \"#utility.yul\":5007:5022   */\n      revert\n        /* \"#utility.yul\":5034:5354   */\n    tag_25:\n        /* \"#utility.yul\":5078:5084   */\n      0x00\n        /* \"#utility.yul\":5115:5116   */\n      0x02\n        /* \"#utility.yul\":5109:5113   */\n      dup3\n        /* \"#utility.yul\":5105:5117   */\n      div\n        /* \"#utility.yul\":5095:5117   */\n      swap1\n      pop\n        /* \"#utility.yul\":5162:5163   */\n      0x01\n        /* \"#utility.yul\":5156:5160   */\n      dup3\n        /* \"#utility.yul\":5152:5164   */\n      and\n        /* \"#utility.yul\":5183:5201   */\n      dup1\n        /* \"#utility.yul\":5173:5254   */\n      tag_113\n      jumpi\n        /* \"#utility.yul\":5239:5243   */\n      0x7f\n        /* \"#utility.yul\":5231:5237   */\n      dup3\n        /* \"#utility.yul\":5227:5244   */\n      and\n        /* \"#utility.yul\":5217:5244   */\n      swap2\n      pop\n        /* \"#utility.yul\":5173:5254   */\n    tag_113:\n        /* \"#utility.yul\":5301:5303   */\n      0x20\n        /* \"#utility.yul\":5293:5299   */\n      dup3\n        /* \"#utility.yul\":5290:5304   */\n      lt\n        /* \"#utility.yul\":5270:5288   */\n      dup2\n        /* \"#utility.yul\":5267:5305   */\n      sub\n        /* \"#utility.yul\":5264:5348   */\n      tag_114\n      jumpi\n        /* \"#utility.yul\":5320:5338   */\n      tag_115\n      tag_51\n      jump\t// in\n    tag_115:\n        /* \"#utility.yul\":5264:5348   */\n    tag_114:\n        /* \"#utility.yul\":5085:5354   */\n      pop\n        /* \"#utility.yul\":5034:5354   */\n      swap2\n      swap1\n      pop\n      jump\t// out\n        /* \"#utility.yul\":5360:5507   */\n    tag_52:\n        /* \"#utility.yul\":5461:5472   */\n      0x00\n        /* \"#utility.yul\":5498:5501   */\n      dup2\n        /* \"#utility.yul\":5483:5501   */\n      swap1\n      pop\n        /* \"#utility.yul\":5360:5507   */\n      swap3\n      swap2\n      pop\n      pop\n      jump\t// out\n        /* \"#utility.yul\":5513:5657   */\n    tag_53:\n        /* \"#utility.yul\":5565:5569   */\n      0x00\n        /* \"#utility.yul\":5588:5591   */\n      dup2\n        /* \"#utility.yul\":5580:5591   */\n      swap1\n      pop\n        /* \"#utility.yul\":5611:5614   */\n      dup2\n        /* \"#utility.yul\":5608:5609   */\n      0x00\n        /* \"#utility.yul\":5601:5615   */\n      mstore\n        /* \"#utility.yul\":5645:5649   */\n      0x20\n        /* \"#utility.yul\":5642:5643   */\n      0x00\n        /* \"#utility.yul\":5632:5650   */\n      keccak256\n        /* \"#utility.yul\":5624:5650   */\n      swap1\n      pop\n        /* \"#utility.yul\":5513:5657   */\n      swap2\n      swap1\n      pop\n      jump\t// out\n        /* \"#utility.yul\":5685:6534   */\n    tag_54:\n        /* \"#utility.yul\":5790:5793   */\n      0x00\n        /* \"#utility.yul\":5827:5832   */\n      dup2\n        /* \"#utility.yul\":5821:5833   */\n      sload\n        /* \"#utility.yul\":5856:5892   */\n      tag_119\n        /* \"#utility.yul\":5882:5891   */\n      dup2\n        /* \"#utility.yul\":5856:5892   */\n      tag_25\n      jump\t// in\n    tag_119:\n        /* \"#utility.yul\":5908:5996   */\n      tag_120\n        /* \"#utility.yul\":5989:5995   */\n      dup2\n        /* \"#utility.yul\":5984:5987   */\n      dup7\n        /* \"#utility.yul\":5908:5996   */\n      tag_52\n      jump\t// in\n    tag_120:\n        /* \"#utility.yul\":5901:5996   */\n      swap5\n      pop\n        /* \"#utility.yul\":6027:6028   */\n      0x01\n        /* \"#utility.yul\":6016:6025   */\n      dup3\n        /* \"#utility.yul\":6012:6029   */\n      and\n        /* \"#utility.yul\":6043:6044   */\n      0x00\n        /* \"#utility.yul\":6038:6175   */\n      dup2\n      eq\n      tag_122\n      jumpi\n        /* \"#utility.yul\":6189:6190   */\n      0x01\n        /* \"#utility.yul\":6184:6528   */\n      dup2\n      eq\n      tag_123\n      jumpi\n        /* \"#utility.yul\":6005:6528   */\n      jump(tag_121)\n        /* \"#utility.yul\":6038:6175   */\n    tag_122:\n        /* \"#utility.yul\":6122:6126   */\n      0xff\n        /* \"#utility.yul\":6118:6127   */\n      not\n        /* \"#utility.yul\":6107:6116   */\n      dup4\n        /* \"#utility.yul\":6103:6128   */\n      and\n        /* \"#utility.yul\":6098:6101   */\n      dup7\n        /* \"#utility.yul\":6091:6129   */\n      mstore\n        /* \"#utility.yul\":6158:6164   */\n      dup2\n        /* \"#utility.yul\":6153:6156   */\n      dup7\n        /* \"#utility.yul\":6149:6165   */\n      add\n        /* \"#utility.yul\":6142:6165   */\n      swap4\n      pop\n        /* \"#utility.yul\":6038:6175   */\n      jump(tag_121)\n        /* \"#utility.yul\":6184:6528   */\n    tag_123:\n        /* \"#utility.yul\":6251:6292   */\n      tag_124\n        /* \"#utility.yul\":6286:6291   */\n      dup6\n        /* \"#utility.yul\":6251:6292   */\n      tag_53\n      jump\t// in\n    tag_124:\n        /* \"#utility.yul\":6314:6315   */\n      0x00\n        /* \"#utility.yul\":6328:6482   */\n    tag_125:\n        /* \"#utility.yul\":6342:6348   */\n      dup4\n        /* \"#utility.yul\":6339:6340   */\n      dup2\n        /* \"#utility.yul\":6336:6349   */\n      lt\n        /* \"#utility.yul\":6328:6482   */\n      iszero\n      tag_127\n      jumpi\n        /* \"#utility.yul\":6416:6423   */\n      dup2\n        /* \"#utility.yul\":6410:6424   */\n      sload\n        /* \"#utility.yul\":6406:6407   */\n      dup2\n        /* \"#utility.yul\":6401:6404   */\n      dup10\n        /* \"#utility.yul\":6397:6408   */\n      add\n        /* \"#utility.yul\":6390:6425   */\n      mstore\n        /* \"#utility.yul\":6466:6467   */\n      0x01\n        /* \"#utility.yul\":6457:6464   */\n      dup3\n        /* \"#utility.yul\":6453:6468   */\n      add\n        /* \"#utility.yul\":6442:6468   */\n      swap2\n      pop\n        /* \"#utility.yul\":6364:6368   */\n      0x20\n        /* \"#utility.yul\":6361:6362   */\n      dup2\n        /* \"#utility.yul\":6357:6369   */\n      add\n        /* \"#utility.yul\":6352:6369   */\n      swap1\n      pop\n        /* \"#utility.yul\":6328:6482   */\n      jump(tag_125)\n    tag_127:\n        /* \"#utility.yul\":6511:6517   */\n      dup4\n        /* \"#utility.yul\":6506:6509   */\n      dup9\n        /* \"#utility.yul\":6502:6518   */\n      add\n        /* \"#utility.yul\":6495:6518   */\n      swap6\n      pop\n        /* \"#utility.yul\":6191:6528   */\n      pop\n      pop\n        /* \"#utility.yul\":6005:6528   */\n    tag_121:\n      pop\n        /* \"#utility.yul\":5794:6534   */\n      pop\n      pop\n        /* \"#utility.yul\":5685:6534   */\n      swap3\n      swap2\n      pop\n      pop\n      jump\t// out\n        /* \"#utility.yul\":6540:6813   */\n    tag_19:\n        /* \"#utility.yul\":6671:6674   */\n      0x00\n        /* \"#utility.yul\":6693:6787   */\n      tag_129\n        /* \"#utility.yul\":6783:6786   */\n      dup3\n        /* \"#utility.yul\":6774:6780   */\n      dup5\n        /* \"#utility.yul\":6693:6787   */\n      tag_54\n      jump\t// in\n    tag_129:\n        /* \"#utility.yul\":6686:6787   */\n      swap2\n      pop\n        /* \"#utility.yul\":6804:6807   */\n      dup2\n        /* \"#utility.yul\":6797:6807   */\n      swap1\n      pop\n        /* \"#utility.yul\":6540:6813   */\n      swap3\n      swap2\n      pop\n      pop\n      jump\t// out\n        /* \"#utility.yul\":6819:6999   */\n    tag_55:\n        /* \"#utility.yul\":6867:6944   */\n      0x4e487b7100000000000000000000000000000000000000000000000000000000\n        /* \"#utility.yul\":6864:6865   */\n      0x00\n        /* \"#utility.yul\":6857:6945   */\n      mstore\n        /* \"#utility.yul\":6964:6968   */\n      0x11\n        /* \"#utility.yul\":6961:6962   */\n      0x04\n        /* \"#utility.yul\":6954:6969   */\n      mstore\n        /* \"#utility.yul\":6988:6992   */\n      0x24\n        /* \"#utility.yul\":6985:6986   */\n      0x00\n        /* \"#utility.yul\":6978:6993   */\n      revert\n        /* \"#utility.yul\":7005:7238   */\n    tag_31:\n        /* \"#utility.yul\":7044:7047   */\n      0x00\n        /* \"#utility.yul\":7067:7091   */\n      tag_132\n        /* \"#utility.yul\":7085:7090   */\n      dup3\n        /* \"#utility.yul\":7067:7091   */\n      tag_45\n      jump\t// in\n    tag_132:\n        /* \"#utility.yul\":7058:7091   */\n      swap2\n      pop\n        /* \"#utility.yul\":7113:7179   */\n      0xffffffffffffffffffffffffffffffffffffffffffffffffffffffffffffffff\n        /* \"#utility.yul\":7106:7111   */\n      dup3\n        /* \"#utility.yul\":7103:7180   */\n      sub\n        /* \"#utility.yul\":7100:7203   */\n      tag_133\n      jumpi\n        /* \"#utility.yul\":7183:7201   */\n      tag_134\n      tag_55\n      jump\t// in\n    tag_134:\n        /* \"#utility.yul\":7100:7203   */\n    tag_133:\n        /* \"#utility.yul\":7230:7231   */\n      0x01\n        /* \"#utility.yul\":7223:7228   */\n      dup3\n        /* \"#utility.yul\":7219:7232   */\n      add\n        /* \"#utility.yul\":7212:7232   */\n      swap1\n      pop\n        /* \"#utility.yul\":7005:7238   */\n      swap2\n      swap1\n      pop\n      jump\t// out\n\n    auxdata: 0xa2646970667358221220e5f8c666dbba313aafd954c0ad6fa50b12a80cffac4f2df0b421a7ec99d962d464736f6c634300080d0033\n}\n",
				"bytecode": {
					"linkReferences": {},
					"object": "60806040526040518060a001604052806040518060400160405280600a81526020017f536f757468204b6f72650000000000000000000000000000000000000000000081525081526020016040518060400160405280600b81526020017f4e6f727468204b6f72656100000000000000000000000000000000000000000081525081526020016040518060400160405280600381526020017f555341000000000000000000000000000000000000000000000000000000000081525081526020016040518060400160405280600581526020017f4348494e4100000000000000000000000000000000000000000000000000000081525081526020016040518060400160405280600581526020017f4a6170616e0000000000000000000000000000000000000000000000000000008152508152506000906005610144929190610157565b5034801561015157600080fd5b5061031e565b8280548282559060005260206000209081019282156101a6579160200282015b828111156101a55782518290805190602001906101959291906101b7565b5091602001919060010190610177565b5b5090506101b3919061023d565b5090565b8280546101c3906102ed565b90600052602060002090601f0160209004810192826101e5576000855561022c565b82601f106101fe57805160ff191683800117855561022c565b8280016001018555821561022c579182015b8281111561022b578251825591602001919060010190610210565b5b5090506102399190610261565b5090565b5b8082111561025d5760008181610254919061027e565b5060010161023e565b5090565b5b8082111561027a576000816000905550600101610262565b5090565b50805461028a906102ed565b6000825580601f1061029c57506102bb565b601f0160209004906000526020600020908101906102ba9190610261565b5b50565b7f4e487b7100000000000000000000000000000000000000000000000000000000600052602260045260246000fd5b6000600282049050600182168061030557607f821691505b602082108103610318576103176102be565b5b50919050565b6106268061032d6000396000f3fe608060405234801561001057600080fd5b506004361061002b5760003560e01c8063655f478b14610030575b600080fd5b61004a6004803603810190610045919061031a565b610061565b604051610058929190610404565b60405180910390f35b6000606060005b60008054905081101561017d5783805190602001206000828154811061009157610090610434565b5b906000526020600020016040516100a89190610562565b60405180910390200361016a5780600082815481106100ca576100c9610434565b5b906000526020600020018080546100e090610492565b80601f016020809104026020016040519081016040528092919081815260200182805461010c90610492565b80156101595780601f1061012e57610100808354040283529160200191610159565b820191906000526020600020905b81548152906001019060200180831161013c57829003601f168201915b5050505050905092509250506101bb565b8080610175906105a8565b915050610068565b5060006040518060400160405280601081526020017f4e6f7468696e6720496e20417272617900000000000000000000000000000000815250915091505b915091565b6000604051905090565b600080fd5b600080fd5b600080fd5b600080fd5b6000601f19601f8301169050919050565b7f4e487b7100000000000000000000000000000000000000000000000000000000600052604160045260246000fd5b610227826101de565b810181811067ffffffffffffffff82111715610246576102456101ef565b5b80604052505050565b60006102596101c0565b9050610265828261021e565b919050565b600067ffffffffffffffff821115610285576102846101ef565b5b61028e826101de565b9050602081019050919050565b82818337600083830152505050565b60006102bd6102b88461026a565b61024f565b9050828152602081018484840111156102d9576102d86101d9565b5b6102e484828561029b565b509392505050565b600082601f830112610301576103006101d4565b5b81356103118482602086016102aa565b91505092915050565b6000602082840312156103305761032f6101ca565b5b600082013567ffffffffffffffff81111561034e5761034d6101cf565b5b61035a848285016102ec565b91505092915050565b6000819050919050565b61037681610363565b82525050565b600081519050919050565b600082825260208201905092915050565b60005b838110156103b657808201518184015260208101905061039b565b838111156103c5576000848401525b50505050565b60006103d68261037c565b6103e08185610387565b93506103f0818560208601610398565b6103f9816101de565b840191505092915050565b6000604082019050610419600083018561036d565b818103602083015261042b81846103cb565b90509392505050565b7f4e487b7100000000000000000000000000000000000000000000000000000000600052603260045260246000fd5b7f4e487b7100000000000000000000000000000000000000000000000000000000600052602260045260246000fd5b600060028204905060018216806104aa57607f821691505b6020821081036104bd576104bc610463565b5b50919050565b600081905092915050565b60008190508160005260206000209050919050565b600081546104f081610492565b6104fa81866104c3565b94506001821660008114610515576001811461052657610559565b60ff19831686528186019350610559565b61052f856104ce565b60005b8381101561055157815481890152600182019150602081019050610532565b838801955050505b50505092915050565b600061056e82846104e3565b915081905092915050565b7f4e487b7100000000000000000000000000000000000000000000000000000000600052601160045260246000fd5b60006105b382610363565b91507fffffffffffffffffffffffffffffffffffffffffffffffffffffffffffffffff82036105e5576105e4610579565b5b60018201905091905056fea2646970667358221220e5f8c666dbba313aafd954c0ad6fa50b12a80cffac4f2df0b421a7ec99d962d464736f6c634300080d0033",
					"opcodes": "PUSH1 0x80 PUSH1 0x40 MSTORE PUSH1 0x40 MLOAD DUP1 PUSH1 0xA0 ADD PUSH1 0x40 MSTORE DUP1 PUSH1 0x40 MLOAD DUP1 PUSH1 0x40 ADD PUSH1 0x40 MSTORE DUP1 PUSH1 0xA DUP2 MSTORE PUSH1 0x20 ADD PUSH32 0x536F757468204B6F726500000000000000000000000000000000000000000000 DUP2 MSTORE POP DUP2 MSTORE PUSH1 0x20 ADD PUSH1 0x40 MLOAD DUP1 PUSH1 0x40 ADD PUSH1 0x40 MSTORE DUP1 PUSH1 0xB DUP2 MSTORE PUSH1 0x20 ADD PUSH32 0x4E6F727468204B6F726561000000000000000000000000000000000000000000 DUP2 MSTORE POP DUP2 MSTORE PUSH1 0x20 ADD PUSH1 0x40 MLOAD DUP1 PUSH1 0x40 ADD PUSH1 0x40 MSTORE DUP1 PUSH1 0x3 DUP2 MSTORE PUSH1 0x20 ADD PUSH32 0x5553410000000000000000000000000000000000000000000000000000000000 DUP2 MSTORE POP DUP2 MSTORE PUSH1 0x20 ADD PUSH1 0x40 MLOAD DUP1 PUSH1 0x40 ADD PUSH1 0x40 MSTORE DUP1 PUSH1 0x5 DUP2 MSTORE PUSH1 0x20 ADD PUSH32 0x4348494E41000000000000000000000000000000000000000000000000000000 DUP2 MSTORE POP DUP2 MSTORE PUSH1 0x20 ADD PUSH1 0x40 MLOAD DUP1 PUSH1 0x40 ADD PUSH1 0x40 MSTORE DUP1 PUSH1 0x5 DUP2 MSTORE PUSH1 0x20 ADD PUSH32 0x4A6170616E000000000000000000000000000000000000000000000000000000 DUP2 MSTORE POP DUP2 MSTORE POP PUSH1 0x0 SWAP1 PUSH1 0x5 PUSH2 0x144 SWAP3 SWAP2 SWAP1 PUSH2 0x157 JUMP JUMPDEST POP CALLVALUE DUP1 ISZERO PUSH2 0x151 JUMPI PUSH1 0x0 DUP1 REVERT JUMPDEST POP PUSH2 0x31E JUMP JUMPDEST DUP3 DUP1 SLOAD DUP3 DUP3 SSTORE SWAP1 PUSH1 0x0 MSTORE PUSH1 0x20 PUSH1 0x0 KECCAK256 SWAP1 DUP2 ADD SWAP3 DUP3 ISZERO PUSH2 0x1A6 JUMPI SWAP2 PUSH1 0x20 MUL DUP3 ADD JUMPDEST DUP3 DUP2 GT ISZERO PUSH2 0x1A5 JUMPI DUP3 MLOAD DUP3 SWAP1 DUP1 MLOAD SWAP1 PUSH1 0x20 ADD SWAP1 PUSH2 0x195 SWAP3 SWAP2 SWAP1 PUSH2 0x1B7 JUMP JUMPDEST POP SWAP2 PUSH1 0x20 ADD SWAP2 SWAP1 PUSH1 0x1 ADD SWAP1 PUSH2 0x177 JUMP JUMPDEST JUMPDEST POP SWAP1 POP PUSH2 0x1B3 SWAP2 SWAP1 PUSH2 0x23D JUMP JUMPDEST POP SWAP1 JUMP JUMPDEST DUP3 DUP1 SLOAD PUSH2 0x1C3 SWAP1 PUSH2 0x2ED JUMP JUMPDEST SWAP1 PUSH1 0x0 MSTORE PUSH1 0x20 PUSH1 0x0 KECCAK256 SWAP1 PUSH1 0x1F ADD PUSH1 0x20 SWAP1 DIV DUP2 ADD SWAP3 DUP3 PUSH2 0x1E5 JUMPI PUSH1 0x0 DUP6 SSTORE PUSH2 0x22C JUMP JUMPDEST DUP3 PUSH1 0x1F LT PUSH2 0x1FE JUMPI DUP1 MLOAD PUSH1 0xFF NOT AND DUP4 DUP1 ADD OR DUP6 SSTORE PUSH2 0x22C JUMP JUMPDEST DUP3 DUP1 ADD PUSH1 0x1 ADD DUP6 SSTORE DUP3 ISZERO PUSH2 0x22C JUMPI SWAP2 DUP3 ADD JUMPDEST DUP3 DUP2 GT ISZERO PUSH2 0x22B JUMPI DUP3 MLOAD DUP3 SSTORE SWAP2 PUSH1 0x20 ADD SWAP2 SWAP1 PUSH1 0x1 ADD SWAP1 PUSH2 0x210 JUMP JUMPDEST JUMPDEST POP SWAP1 POP PUSH2 0x239 SWAP2 SWAP1 PUSH2 0x261 JUMP JUMPDEST POP SWAP1 JUMP JUMPDEST JUMPDEST DUP1 DUP3 GT ISZERO PUSH2 0x25D JUMPI PUSH1 0x0 DUP2 DUP2 PUSH2 0x254 SWAP2 SWAP1 PUSH2 0x27E JUMP JUMPDEST POP PUSH1 0x1 ADD PUSH2 0x23E JUMP JUMPDEST POP SWAP1 JUMP JUMPDEST JUMPDEST DUP1 DUP3 GT ISZERO PUSH2 0x27A JUMPI PUSH1 0x0 DUP2 PUSH1 0x0 SWAP1 SSTORE POP PUSH1 0x1 ADD PUSH2 0x262 JUMP JUMPDEST POP SWAP1 JUMP JUMPDEST POP DUP1 SLOAD PUSH2 0x28A SWAP1 PUSH2 0x2ED JUMP JUMPDEST PUSH1 0x0 DUP3 SSTORE DUP1 PUSH1 0x1F LT PUSH2 0x29C JUMPI POP PUSH2 0x2BB JUMP JUMPDEST PUSH1 0x1F ADD PUSH1 0x20 SWAP1 DIV SWAP1 PUSH1 0x0 MSTORE PUSH1 0x20 PUSH1 0x0 KECCAK256 SWAP1 DUP2 ADD SWAP1 PUSH2 0x2BA SWAP2 SWAP1 PUSH2 0x261 JUMP JUMPDEST JUMPDEST POP JUMP JUMPDEST PUSH32 0x4E487B7100000000000000000000000000000000000000000000000000000000 PUSH1 0x0 MSTORE PUSH1 0x22 PUSH1 0x4 MSTORE PUSH1 0x24 PUSH1 0x0 REVERT JUMPDEST PUSH1 0x0 PUSH1 0x2 DUP3 DIV SWAP1 POP PUSH1 0x1 DUP3 AND DUP1 PUSH2 0x305 JUMPI PUSH1 0x7F DUP3 AND SWAP2 POP JUMPDEST PUSH1 0x20 DUP3 LT DUP2 SUB PUSH2 0x318 JUMPI PUSH2 0x317 PUSH2 0x2BE JUMP JUMPDEST JUMPDEST POP SWAP2 SWAP1 POP JUMP JUMPDEST PUSH2 0x626 DUP1 PUSH2 0x32D PUSH1 0x0 CODECOPY PUSH1 0x0 RETURN INVALID PUSH1 0x80 PUSH1 0x40 MSTORE CALLVALUE DUP1 ISZERO PUSH2 0x10 JUMPI PUSH1 0x0 DUP1 REVERT JUMPDEST POP PUSH1 0x4 CALLDATASIZE LT PUSH2 0x2B JUMPI PUSH1 0x0 CALLDATALOAD PUSH1 0xE0 SHR DUP1 PUSH4 0x655F478B EQ PUSH2 0x30 JUMPI JUMPDEST PUSH1 0x0 DUP1 REVERT JUMPDEST PUSH2 0x4A PUSH1 0x4 DUP1 CALLDATASIZE SUB DUP2 ADD SWAP1 PUSH2 0x45 SWAP2 SWAP1 PUSH2 0x31A JUMP JUMPDEST PUSH2 0x61 JUMP JUMPDEST PUSH1 0x40 MLOAD PUSH2 0x58 SWAP3 SWAP2 SWAP1 PUSH2 0x404 JUMP JUMPDEST PUSH1 0x40 MLOAD DUP1 SWAP2 SUB SWAP1 RETURN JUMPDEST PUSH1 0x0 PUSH1 0x60 PUSH1 0x0 JUMPDEST PUSH1 0x0 DUP1 SLOAD SWAP1 POP DUP2 LT ISZERO PUSH2 0x17D JUMPI DUP4 DUP1 MLOAD SWAP1 PUSH1 0x20 ADD KECCAK256 PUSH1 0x0 DUP3 DUP2 SLOAD DUP2 LT PUSH2 0x91 JUMPI PUSH2 0x90 PUSH2 0x434 JUMP JUMPDEST JUMPDEST SWAP1 PUSH1 0x0 MSTORE PUSH1 0x20 PUSH1 0x0 KECCAK256 ADD PUSH1 0x40 MLOAD PUSH2 0xA8 SWAP2 SWAP1 PUSH2 0x562 JUMP JUMPDEST PUSH1 0x40 MLOAD DUP1 SWAP2 SUB SWAP1 KECCAK256 SUB PUSH2 0x16A JUMPI DUP1 PUSH1 0x0 DUP3 DUP2 SLOAD DUP2 LT PUSH2 0xCA JUMPI PUSH2 0xC9 PUSH2 0x434 JUMP JUMPDEST JUMPDEST SWAP1 PUSH1 0x0 MSTORE PUSH1 0x20 PUSH1 0x0 KECCAK256 ADD DUP1 DUP1 SLOAD PUSH2 0xE0 SWAP1 PUSH2 0x492 JUMP JUMPDEST DUP1 PUSH1 0x1F ADD PUSH1 0x20 DUP1 SWAP2 DIV MUL PUSH1 0x20 ADD PUSH1 0x40 MLOAD SWAP1 DUP2 ADD PUSH1 0x40 MSTORE DUP1 SWAP3 SWAP2 SWAP1 DUP2 DUP2 MSTORE PUSH1 0x20 ADD DUP3 DUP1 SLOAD PUSH2 0x10C SWAP1 PUSH2 0x492 JUMP JUMPDEST DUP1 ISZERO PUSH2 0x159 JUMPI DUP1 PUSH1 0x1F LT PUSH2 0x12E JUMPI PUSH2 0x100 DUP1 DUP4 SLOAD DIV MUL DUP4 MSTORE SWAP2 PUSH1 0x20 ADD SWAP2 PUSH2 0x159 JUMP JUMPDEST DUP3 ADD SWAP2 SWAP1 PUSH1 0x0 MSTORE PUSH1 0x20 PUSH1 0x0 KECCAK256 SWAP1 JUMPDEST DUP2 SLOAD DUP2 MSTORE SWAP1 PUSH1 0x1 ADD SWAP1 PUSH1 0x20 ADD DUP1 DUP4 GT PUSH2 0x13C JUMPI DUP3 SWAP1 SUB PUSH1 0x1F AND DUP3 ADD SWAP2 JUMPDEST POP POP POP POP POP SWAP1 POP SWAP3 POP SWAP3 POP POP PUSH2 0x1BB JUMP JUMPDEST DUP1 DUP1 PUSH2 0x175 SWAP1 PUSH2 0x5A8 JUMP JUMPDEST SWAP2 POP POP PUSH2 0x68 JUMP JUMPDEST POP PUSH1 0x0 PUSH1 0x40 MLOAD DUP1 PUSH1 0x40 ADD PUSH1 0x40 MSTORE DUP1 PUSH1 0x10 DUP2 MSTORE PUSH1 0x20 ADD PUSH32 0x4E6F7468696E6720496E20417272617900000000000000000000000000000000 DUP2 MSTORE POP SWAP2 POP SWAP2 POP JUMPDEST SWAP2 POP SWAP2 JUMP JUMPDEST PUSH1 0x0 PUSH1 0x40 MLOAD SWAP1 POP SWAP1 JUMP JUMPDEST PUSH1 0x0 DUP1 REVERT JUMPDEST PUSH1 0x0 DUP1 REVERT JUMPDEST PUSH1 0x0 DUP1 REVERT JUMPDEST PUSH1 0x0 DUP1 REVERT JUMPDEST PUSH1 0x0 PUSH1 0x1F NOT PUSH1 0x1F DUP4 ADD AND SWAP1 POP SWAP2 SWAP1 POP JUMP JUMPDEST PUSH32 0x4E487B7100000000000000000000000000000000000000000000000000000000 PUSH1 0x0 MSTORE PUSH1 0x41 PUSH1 0x4 MSTORE PUSH1 0x24 PUSH1 0x0 REVERT JUMPDEST PUSH2 0x227 DUP3 PUSH2 0x1DE JUMP JUMPDEST DUP2 ADD DUP2 DUP2 LT PUSH8 0xFFFFFFFFFFFFFFFF DUP3 GT OR ISZERO PUSH2 0x246 JUMPI PUSH2 0x245 PUSH2 0x1EF JUMP JUMPDEST JUMPDEST DUP1 PUSH1 0x40 MSTORE POP POP POP JUMP JUMPDEST PUSH1 0x0 PUSH2 0x259 PUSH2 0x1C0 JUMP JUMPDEST SWAP1 POP PUSH2 0x265 DUP3 DUP3 PUSH2 0x21E JUMP JUMPDEST SWAP2 SWAP1 POP JUMP JUMPDEST PUSH1 0x0 PUSH8 0xFFFFFFFFFFFFFFFF DUP3 GT ISZERO PUSH2 0x285 JUMPI PUSH2 0x284 PUSH2 0x1EF JUMP JUMPDEST JUMPDEST PUSH2 0x28E DUP3 PUSH2 0x1DE JUMP JUMPDEST SWAP1 POP PUSH1 0x20 DUP2 ADD SWAP1 POP SWAP2 SWAP1 POP JUMP JUMPDEST DUP3 DUP2 DUP4 CALLDATACOPY PUSH1 0x0 DUP4 DUP4 ADD MSTORE POP POP POP JUMP JUMPDEST PUSH1 0x0 PUSH2 0x2BD PUSH2 0x2B8 DUP5 PUSH2 0x26A JUMP JUMPDEST PUSH2 0x24F JUMP JUMPDEST SWAP1 POP DUP3 DUP2 MSTORE PUSH1 0x20 DUP2 ADD DUP5 DUP5 DUP5 ADD GT ISZERO PUSH2 0x2D9 JUMPI PUSH2 0x2D8 PUSH2 0x1D9 JUMP JUMPDEST JUMPDEST PUSH2 0x2E4 DUP5 DUP3 DUP6 PUSH2 0x29B JUMP JUMPDEST POP SWAP4 SWAP3 POP POP POP JUMP JUMPDEST PUSH1 0x0 DUP3 PUSH1 0x1F DUP4 ADD SLT PUSH2 0x301 JUMPI PUSH2 0x300 PUSH2 0x1D4 JUMP JUMPDEST JUMPDEST DUP2 CALLDATALOAD PUSH2 0x311 DUP5 DUP3 PUSH1 0x20 DUP7 ADD PUSH2 0x2AA JUMP JUMPDEST SWAP2 POP POP SWAP3 SWAP2 POP POP JUMP JUMPDEST PUSH1 0x0 PUSH1 0x20 DUP3 DUP5 SUB SLT ISZERO PUSH2 0x330 JUMPI PUSH2 0x32F PUSH2 0x1CA JUMP JUMPDEST JUMPDEST PUSH1 0x0 DUP3 ADD CALLDATALOAD PUSH8 0xFFFFFFFFFFFFFFFF DUP2 GT ISZERO PUSH2 0x34E JUMPI PUSH2 0x34D PUSH2 0x1CF JUMP JUMPDEST JUMPDEST PUSH2 0x35A DUP5 DUP3 DUP6 ADD PUSH2 0x2EC JUMP JUMPDEST SWAP2 POP POP SWAP3 SWAP2 POP POP JUMP JUMPDEST PUSH1 0x0 DUP2 SWAP1 POP SWAP2 SWAP1 POP JUMP JUMPDEST PUSH2 0x376 DUP2 PUSH2 0x363 JUMP JUMPDEST DUP3 MSTORE POP POP JUMP JUMPDEST PUSH1 0x0 DUP2 MLOAD SWAP1 POP SWAP2 SWAP1 POP JUMP JUMPDEST PUSH1 0x0 DUP3 DUP3 MSTORE PUSH1 0x20 DUP3 ADD SWAP1 POP SWAP3 SWAP2 POP POP JUMP JUMPDEST PUSH1 0x0 JUMPDEST DUP4 DUP2 LT ISZERO PUSH2 0x3B6 JUMPI DUP1 DUP3 ADD MLOAD DUP2 DUP5 ADD MSTORE PUSH1 0x20 DUP2 ADD SWAP1 POP PUSH2 0x39B JUMP JUMPDEST DUP4 DUP2 GT ISZERO PUSH2 0x3C5 JUMPI PUSH1 0x0 DUP5 DUP5 ADD MSTORE JUMPDEST POP POP POP POP JUMP JUMPDEST PUSH1 0x0 PUSH2 0x3D6 DUP3 PUSH2 0x37C JUMP JUMPDEST PUSH2 0x3E0 DUP2 DUP6 PUSH2 0x387 JUMP JUMPDEST SWAP4 POP PUSH2 0x3F0 DUP2 DUP6 PUSH1 0x20 DUP7 ADD PUSH2 0x398 JUMP JUMPDEST PUSH2 0x3F9 DUP2 PUSH2 0x1DE JUMP JUMPDEST DUP5 ADD SWAP2 POP POP SWAP3 SWAP2 POP POP JUMP JUMPDEST PUSH1 0x0 PUSH1 0x40 DUP3 ADD SWAP1 POP PUSH2 0x419 PUSH1 0x0 DUP4 ADD DUP6 PUSH2 0x36D JUMP JUMPDEST DUP2 DUP2 SUB PUSH1 0x20 DUP4 ADD MSTORE PUSH2 0x42B DUP2 DUP5 PUSH2 0x3CB JUMP JUMPDEST SWAP1 POP SWAP4 SWAP3 POP POP POP JUMP JUMPDEST PUSH32 0x4E487B7100000000000000000000000000000000000000000000000000000000 PUSH1 0x0 MSTORE PUSH1 0x32 PUSH1 0x4 MSTORE PUSH1 0x24 PUSH1 0x0 REVERT JUMPDEST PUSH32 0x4E487B7100000000000000000000000000000000000000000000000000000000 PUSH1 0x0 MSTORE PUSH1 0x22 PUSH1 0x4 MSTORE PUSH1 0x24 PUSH1 0x0 REVERT JUMPDEST PUSH1 0x0 PUSH1 0x2 DUP3 DIV SWAP1 POP PUSH1 0x1 DUP3 AND DUP1 PUSH2 0x4AA JUMPI PUSH1 0x7F DUP3 AND SWAP2 POP JUMPDEST PUSH1 0x20 DUP3 LT DUP2 SUB PUSH2 0x4BD JUMPI PUSH2 0x4BC PUSH2 0x463 JUMP JUMPDEST JUMPDEST POP SWAP2 SWAP1 POP JUMP JUMPDEST PUSH1 0x0 DUP2 SWAP1 POP SWAP3 SWAP2 POP POP JUMP JUMPDEST PUSH1 0x0 DUP2 SWAP1 POP DUP2 PUSH1 0x0 MSTORE PUSH1 0x20 PUSH1 0x0 KECCAK256 SWAP1 POP SWAP2 SWAP1 POP JUMP JUMPDEST PUSH1 0x0 DUP2 SLOAD PUSH2 0x4F0 DUP2 PUSH2 0x492 JUMP JUMPDEST PUSH2 0x4FA DUP2 DUP7 PUSH2 0x4C3 JUMP JUMPDEST SWAP5 POP PUSH1 0x1 DUP3 AND PUSH1 0x0 DUP2 EQ PUSH2 0x515 JUMPI PUSH1 0x1 DUP2 EQ PUSH2 0x526 JUMPI PUSH2 0x559 JUMP JUMPDEST PUSH1 0xFF NOT DUP4 AND DUP7 MSTORE DUP2 DUP7 ADD SWAP4 POP PUSH2 0x559 JUMP JUMPDEST PUSH2 0x52F DUP6 PUSH2 0x4CE JUMP JUMPDEST PUSH1 0x0 JUMPDEST DUP4 DUP2 LT ISZERO PUSH2 0x551 JUMPI DUP2 SLOAD DUP2 DUP10 ADD MSTORE PUSH1 0x1 DUP3 ADD SWAP2 POP PUSH1 0x20 DUP2 ADD SWAP1 POP PUSH2 0x532 JUMP JUMPDEST DUP4 DUP9 ADD SWAP6 POP POP POP JUMPDEST POP POP POP SWAP3 SWAP2 POP POP JUMP JUMPDEST PUSH1 0x0 PUSH2 0x56E DUP3 DUP5 PUSH2 0x4E3 JUMP JUMPDEST SWAP2 POP DUP2 SWAP1 POP SWAP3 SWAP2 POP POP JUMP JUMPDEST PUSH32 0x4E487B7100000000000000000000000000000000000000000000000000000000 PUSH1 0x0 MSTORE PUSH1 0x11 PUSH1 0x4 MSTORE PUSH1 0x24 PUSH1 0x0 REVERT JUMPDEST PUSH1 0x0 PUSH2 0x5B3 DUP3 PUSH2 0x363 JUMP JUMPDEST SWAP2 POP PUSH32 0xFFFFFFFFFFFFFFFFFFFFFFFFFFFFFFFFFFFFFFFFFFFFFFFFFFFFFFFFFFFFFFFF DUP3 SUB PUSH2 0x5E5 JUMPI PUSH2 0x5E4 PUSH2 0x579 JUMP JUMPDEST JUMPDEST PUSH1 0x1 DUP3 ADD SWAP1 POP SWAP2 SWAP1 POP JUMP INVALID LOG2 PUSH5 0x6970667358 0x22 SLT KECCAK256 0xE5 0xF8 0xC6 PUSH7 0xDBBA313AAFD954 0xC0 0xAD PUSH16 0xA50B12A80CFFAC4F2DF0B421A7EC99D9 PUSH3 0xD46473 PUSH16 0x6C634300080D00330000000000000000 "
				},
				"gasEstimates": {
					"creation": {
						"codeDepositCost": "314800",
						"executionCost": "infinite",
						"totalCost": "infinite"
					},
					"external": {
						"linearSearch(string)": "infinite"
					}
				},
				"methodIdentifiers": {
					"linearSearch(string)": "655f478b"
				}
			},
			"userdoc": {
				"kind": "user",
				"methods": {},
				"version": 1
			}
		}
	}
}