{
	"lecture/loop.sol": {
		"loopC": {
			"abi": [
				{
					"anonymous": false,
					"inputs": [
						{
							"indexed": false,
							"internalType": "uint256",
							"name": "_index",
							"type": "uint256"
						},
						{
							"indexed": false,
							"internalType": "string",
							"name": "_name",
							"type": "string"
						}
					],
					"name": "CountryIndexName",
					"type": "event"
				},
				{
					"inputs": [],
					"name": "forLoopEvents",
					"outputs": [],
					"stateMutability": "nonpayable",
					"type": "function"
				},
				{
					"inputs": [],
					"name": "whileLoopEvents",
					"outputs": [],
					"stateMutability": "nonpayable",
					"type": "function"
				}
			],
			"devdoc": {
				"kind": "dev",
				"methods": {},
				"version": 1
			},
			"evm": {
				"assembly": "    /* \"lecture/loop.sol\":72:610  contract loopC {... */\n  mstore(0x40, 0x80)\n    /* \"lecture/loop.sol\":152:234  string[] private counrtryList = [\"South Kore\",\"North Korea\",\"USA\",\"CHINA\",\"Japan\"] */\n  mload(0x40)\n  dup1\n  0xa0\n  add\n  0x40\n  mstore\n  dup1\n  mload(0x40)\n  dup1\n  0x40\n  add\n  0x40\n  mstore\n  dup1\n  0x0a\n  dup2\n  mstore\n  0x20\n  add\n  0x536f757468204b6f726500000000000000000000000000000000000000000000\n  dup2\n  mstore\n  pop\n  dup2\n  mstore\n  0x20\n  add\n  mload(0x40)\n  dup1\n  0x40\n  add\n  0x40\n  mstore\n  dup1\n  0x0b\n  dup2\n  mstore\n  0x20\n  add\n  0x4e6f727468204b6f726561000000000000000000000000000000000000000000\n  dup2\n  mstore\n  pop\n  dup2\n  mstore\n  0x20\n  add\n  mload(0x40)\n  dup1\n  0x40\n  add\n  0x40\n  mstore\n  dup1\n  0x03\n  dup2\n  mstore\n  0x20\n  add\n  0x5553410000000000000000000000000000000000000000000000000000000000\n  dup2\n  mstore\n  pop\n  dup2\n  mstore\n  0x20\n  add\n  mload(0x40)\n  dup1\n  0x40\n  add\n  0x40\n  mstore\n  dup1\n  0x05\n  dup2\n  mstore\n  0x20\n  add\n  0x4348494e41000000000000000000000000000000000000000000000000000000\n  dup2\n  mstore\n  pop\n  dup2\n  mstore\n  0x20\n  add\n  mload(0x40)\n  dup1\n  0x40\n  add\n  0x40\n  mstore\n  dup1\n  0x05\n  dup2\n  mstore\n  0x20\n  add\n  0x4a6170616e000000000000000000000000000000000000000000000000000000\n  dup2\n  mstore\n  pop\n  dup2\n  mstore\n  pop\n  0x00\n  swap1\n  0x05\n  tag_1\n  swap3\n  swap2\n  swap1\n  tag_2\n  jump\t// in\ntag_1:\n  pop\n    /* \"lecture/loop.sol\":72:610  contract loopC {... */\n  callvalue\n  dup1\n  iszero\n  tag_3\n  jumpi\n  0x00\n  dup1\n  revert\ntag_3:\n  pop\n  jump(tag_4)\ntag_2:\n  dup3\n  dup1\n  sload\n  dup3\n  dup3\n  sstore\n  swap1\n  0x00\n  mstore\n  keccak256(0x00, 0x20)\n  swap1\n  dup2\n  add\n  swap3\n  dup3\n  iszero\n  tag_5\n  jumpi\n  swap2\n  0x20\n  mul\n  dup3\n  add\ntag_6:\n  dup3\n  dup2\n  gt\n  iszero\n  tag_7\n  jumpi\n  dup3\n  mload\n  dup3\n  swap1\n  dup1\n  mload\n  swap1\n  0x20\n  add\n  swap1\n  tag_8\n  swap3\n  swap2\n  swap1\n  tag_9\n  jump\t// in\ntag_8:\n  pop\n  swap2\n  0x20\n  add\n  swap2\n  swap1\n  0x01\n  add\n  swap1\n  jump(tag_6)\ntag_7:\ntag_5:\n  pop\n  swap1\n  pop\n  tag_10\n  swap2\n  swap1\n  tag_11\n  jump\t// in\ntag_10:\n  pop\n  swap1\n  jump\t// out\ntag_9:\n  dup3\n  dup1\n  sload\n  tag_12\n  swap1\n  tag_13\n  jump\t// in\ntag_12:\n  swap1\n  0x00\n  mstore\n  keccak256(0x00, 0x20)\n  swap1\n  0x1f\n  add\n  0x20\n  swap1\n  div\n  dup2\n  add\n  swap3\n  dup3\n  tag_15\n  jumpi\n  0x00\n  dup6\n  sstore\n  jump(tag_14)\ntag_15:\n  dup3\n  0x1f\n  lt\n  tag_16\n  jumpi\n  dup1\n  mload\n  not(0xff)\n  and\n  dup4\n  dup1\n  add\n  or\n  dup6\n  sstore\n  jump(tag_14)\ntag_16:\n  dup3\n  dup1\n  add\n  0x01\n  add\n  dup6\n  sstore\n  dup3\n  iszero\n  tag_14\n  jumpi\n  swap2\n  dup3\n  add\ntag_17:\n  dup3\n  dup2\n  gt\n  iszero\n  tag_18\n  jumpi\n  dup3\n  mload\n  dup3\n  sstore\n  swap2\n  0x20\n  add\n  swap2\n  swap1\n  0x01\n  add\n  swap1\n  jump(tag_17)\ntag_18:\ntag_14:\n  pop\n  swap1\n  pop\n  tag_19\n  swap2\n  swap1\n  tag_20\n  jump\t// in\ntag_19:\n  pop\n  swap1\n  jump\t// out\ntag_11:\ntag_21:\n  dup1\n  dup3\n  gt\n  iszero\n  tag_22\n  jumpi\n  0x00\n  dup2\n  dup2\n  tag_23\n  swap2\n  swap1\n  tag_24\n  jump\t// in\ntag_23:\n  pop\n  0x01\n  add\n  jump(tag_21)\ntag_22:\n  pop\n  swap1\n  jump\t// out\ntag_20:\ntag_25:\n  dup1\n  dup3\n  gt\n  iszero\n  tag_26\n  jumpi\n  0x00\n  dup2\n  0x00\n  swap1\n  sstore\n  pop\n  0x01\n  add\n  jump(tag_25)\ntag_26:\n  pop\n  swap1\n  jump\t// out\ntag_24:\n  pop\n  dup1\n  sload\n  tag_27\n  swap1\n  tag_13\n  jump\t// in\ntag_27:\n  0x00\n  dup3\n  sstore\n  dup1\n  0x1f\n  lt\n  tag_29\n  jumpi\n  pop\n  jump(tag_28)\ntag_29:\n  0x1f\n  add\n  0x20\n  swap1\n  div\n  swap1\n  0x00\n  mstore\n  keccak256(0x00, 0x20)\n  swap1\n  dup2\n  add\n  swap1\n  tag_30\n  swap2\n  swap1\n  tag_20\n  jump\t// in\ntag_30:\ntag_28:\n  pop\n  jump\t// out\n    /* \"#utility.yul\":7:187   */\ntag_31:\n    /* \"#utility.yul\":55:132   */\n  0x4e487b7100000000000000000000000000000000000000000000000000000000\n    /* \"#utility.yul\":52:53   */\n  0x00\n    /* \"#utility.yul\":45:133   */\n  mstore\n    /* \"#utility.yul\":152:156   */\n  0x22\n    /* \"#utility.yul\":149:150   */\n  0x04\n    /* \"#utility.yul\":142:157   */\n  mstore\n    /* \"#utility.yul\":176:180   */\n  0x24\n    /* \"#utility.yul\":173:174   */\n  0x00\n    /* \"#utility.yul\":166:181   */\n  revert\n    /* \"#utility.yul\":193:513   */\ntag_13:\n    /* \"#utility.yul\":237:243   */\n  0x00\n    /* \"#utility.yul\":274:275   */\n  0x02\n    /* \"#utility.yul\":268:272   */\n  dup3\n    /* \"#utility.yul\":264:276   */\n  div\n    /* \"#utility.yul\":254:276   */\n  swap1\n  pop\n    /* \"#utility.yul\":321:322   */\n  0x01\n    /* \"#utility.yul\":315:319   */\n  dup3\n    /* \"#utility.yul\":311:323   */\n  and\n    /* \"#utility.yul\":342:360   */\n  dup1\n    /* \"#utility.yul\":332:413   */\n  tag_35\n  jumpi\n    /* \"#utility.yul\":398:402   */\n  0x7f\n    /* \"#utility.yul\":390:396   */\n  dup3\n    /* \"#utility.yul\":386:403   */\n  and\n    /* \"#utility.yul\":376:403   */\n  swap2\n  pop\n    /* \"#utility.yul\":332:413   */\ntag_35:\n    /* \"#utility.yul\":460:462   */\n  0x20\n    /* \"#utility.yul\":452:458   */\n  dup3\n    /* \"#utility.yul\":449:463   */\n  lt\n    /* \"#utility.yul\":429:447   */\n  dup2\n    /* \"#utility.yul\":426:464   */\n  sub\n    /* \"#utility.yul\":423:507   */\n  tag_36\n  jumpi\n    /* \"#utility.yul\":479:497   */\n  tag_37\n  tag_31\n  jump\t// in\ntag_37:\n    /* \"#utility.yul\":423:507   */\ntag_36:\n    /* \"#utility.yul\":244:513   */\n  pop\n    /* \"#utility.yul\":193:513   */\n  swap2\n  swap1\n  pop\n  jump\t// out\n    /* \"lecture/loop.sol\":72:610  contract loopC {... */\ntag_4:\n  dataSize(sub_0)\n  dup1\n  dataOffset(sub_0)\n  0x00\n  codecopy\n  0x00\n  return\nstop\n\nsub_0: assembly {\n        /* \"lecture/loop.sol\":72:610  contract loopC {... */\n      mstore(0x40, 0x80)\n      callvalue\n      dup1\n      iszero\n      tag_1\n      jumpi\n      0x00\n      dup1\n      revert\n    tag_1:\n      pop\n      jumpi(tag_2, lt(calldatasize, 0x04))\n      shr(0xe0, calldataload(0x00))\n      dup1\n      0x6cde9f8c\n      eq\n      tag_3\n      jumpi\n      dup1\n      0xddea9b0a\n      eq\n      tag_4\n      jumpi\n    tag_2:\n      0x00\n      dup1\n      revert\n        /* \"lecture/loop.sol\":243:407  function forLoopEvents() public {... */\n    tag_3:\n      tag_5\n      tag_6\n      jump\t// in\n    tag_5:\n      stop\n        /* \"lecture/loop.sol\":415:607  function whileLoopEvents() public {... */\n    tag_4:\n      tag_7\n      tag_8\n      jump\t// in\n    tag_7:\n      stop\n        /* \"lecture/loop.sol\":243:407  function forLoopEvents() public {... */\n    tag_6:\n        /* \"lecture/loop.sol\":290:296  uint i */\n      0x00\n        /* \"lecture/loop.sol\":286:400  for(uint i = 0; i < counrtryList.length; i++ ) {... */\n    tag_10:\n        /* \"lecture/loop.sol\":306:318  counrtryList */\n      0x00\n        /* \"lecture/loop.sol\":306:325  counrtryList.length */\n      dup1\n      sload\n      swap1\n      pop\n        /* \"lecture/loop.sol\":302:303  i */\n      dup2\n        /* \"lecture/loop.sol\":302:325  i < counrtryList.length */\n      lt\n        /* \"lecture/loop.sol\":286:400  for(uint i = 0; i < counrtryList.length; i++ ) {... */\n      iszero\n      tag_11\n      jumpi\n        /* \"lecture/loop.sol\":353:388  CountryIndexName(i,counrtryList[i]) */\n      0xc3750795857a09dd89d722c915dbd49e7496a6f23cad9de450838745e45f9329\n        /* \"lecture/loop.sol\":370:371  i */\n      dup2\n        /* \"lecture/loop.sol\":372:384  counrtryList */\n      0x00\n        /* \"lecture/loop.sol\":385:386  i */\n      dup4\n        /* \"lecture/loop.sol\":372:387  counrtryList[i] */\n      dup2\n      sload\n      dup2\n      lt\n      tag_13\n      jumpi\n      tag_14\n      tag_15\n      jump\t// in\n    tag_14:\n    tag_13:\n      swap1\n      0x00\n      mstore\n      keccak256(0x00, 0x20)\n      add\n        /* \"lecture/loop.sol\":353:388  CountryIndexName(i,counrtryList[i]) */\n      mload(0x40)\n      tag_17\n      swap3\n      swap2\n      swap1\n      tag_18\n      jump\t// in\n    tag_17:\n      mload(0x40)\n      dup1\n      swap2\n      sub\n      swap1\n      log1\n        /* \"lecture/loop.sol\":327:330  i++ */\n      dup1\n      dup1\n      tag_19\n      swap1\n      tag_20\n      jump\t// in\n    tag_19:\n      swap2\n      pop\n      pop\n        /* \"lecture/loop.sol\":286:400  for(uint i = 0; i < counrtryList.length; i++ ) {... */\n      jump(tag_10)\n    tag_11:\n      pop\n        /* \"lecture/loop.sol\":243:407  function forLoopEvents() public {... */\n      jump\t// out\n        /* \"lecture/loop.sol\":415:607  function whileLoopEvents() public {... */\n    tag_8:\n        /* \"lecture/loop.sol\":460:469  uint256 i */\n      0x00\n        /* \"lecture/loop.sol\":484:600  while(i < counrtryList.length) {... */\n    tag_22:\n        /* \"lecture/loop.sol\":494:506  counrtryList */\n      0x00\n        /* \"lecture/loop.sol\":494:513  counrtryList.length */\n      dup1\n      sload\n      swap1\n      pop\n        /* \"lecture/loop.sol\":490:491  i */\n      dup2\n        /* \"lecture/loop.sol\":490:513  i < counrtryList.length */\n      lt\n        /* \"lecture/loop.sol\":484:600  while(i < counrtryList.length) {... */\n      iszero\n      tag_23\n      jumpi\n        /* \"lecture/loop.sol\":535:570  CountryIndexName(i,counrtryList[i]) */\n      0xc3750795857a09dd89d722c915dbd49e7496a6f23cad9de450838745e45f9329\n        /* \"lecture/loop.sol\":552:553  i */\n      dup2\n        /* \"lecture/loop.sol\":554:566  counrtryList */\n      0x00\n        /* \"lecture/loop.sol\":567:568  i */\n      dup4\n        /* \"lecture/loop.sol\":554:569  counrtryList[i] */\n      dup2\n      sload\n      dup2\n      lt\n      tag_24\n      jumpi\n      tag_25\n      tag_15\n      jump\t// in\n    tag_25:\n    tag_24:\n      swap1\n      0x00\n      mstore\n      keccak256(0x00, 0x20)\n      add\n        /* \"lecture/loop.sol\":535:570  CountryIndexName(i,counrtryList[i]) */\n      mload(0x40)\n      tag_27\n      swap3\n      swap2\n      swap1\n      tag_18\n      jump\t// in\n    tag_27:\n      mload(0x40)\n      dup1\n      swap2\n      sub\n      swap1\n      log1\n        /* \"lecture/loop.sol\":585:588  i++ */\n      dup1\n      dup1\n      tag_28\n      swap1\n      tag_20\n      jump\t// in\n    tag_28:\n      swap2\n      pop\n      pop\n        /* \"lecture/loop.sol\":484:600  while(i < counrtryList.length) {... */\n      jump(tag_22)\n    tag_23:\n        /* \"lecture/loop.sol\":449:607  {... */\n      pop\n        /* \"lecture/loop.sol\":415:607  function whileLoopEvents() public {... */\n      jump\t// out\n        /* \"#utility.yul\":7:187   */\n    tag_15:\n        /* \"#utility.yul\":55:132   */\n      0x4e487b7100000000000000000000000000000000000000000000000000000000\n        /* \"#utility.yul\":52:53   */\n      0x00\n        /* \"#utility.yul\":45:133   */\n      mstore\n        /* \"#utility.yul\":152:156   */\n      0x32\n        /* \"#utility.yul\":149:150   */\n      0x04\n        /* \"#utility.yul\":142:157   */\n      mstore\n        /* \"#utility.yul\":176:180   */\n      0x24\n        /* \"#utility.yul\":173:174   */\n      0x00\n        /* \"#utility.yul\":166:181   */\n      revert\n        /* \"#utility.yul\":193:270   */\n    tag_29:\n        /* \"#utility.yul\":230:237   */\n      0x00\n        /* \"#utility.yul\":259:264   */\n      dup2\n        /* \"#utility.yul\":248:264   */\n      swap1\n      pop\n        /* \"#utility.yul\":193:270   */\n      swap2\n      swap1\n      pop\n      jump\t// out\n        /* \"#utility.yul\":276:394   */\n    tag_30:\n        /* \"#utility.yul\":363:387   */\n      tag_41\n        /* \"#utility.yul\":381:386   */\n      dup2\n        /* \"#utility.yul\":363:387   */\n      tag_29\n      jump\t// in\n    tag_41:\n        /* \"#utility.yul\":358:361   */\n      dup3\n        /* \"#utility.yul\":351:388   */\n      mstore\n        /* \"#utility.yul\":276:394   */\n      pop\n      pop\n      jump\t// out\n        /* \"#utility.yul\":400:580   */\n    tag_31:\n        /* \"#utility.yul\":448:525   */\n      0x4e487b7100000000000000000000000000000000000000000000000000000000\n        /* \"#utility.yul\":445:446   */\n      0x00\n        /* \"#utility.yul\":438:526   */\n      mstore\n        /* \"#utility.yul\":545:549   */\n      0x22\n        /* \"#utility.yul\":542:543   */\n      0x04\n        /* \"#utility.yul\":535:550   */\n      mstore\n        /* \"#utility.yul\":569:573   */\n      0x24\n        /* \"#utility.yul\":566:567   */\n      0x00\n        /* \"#utility.yul\":559:574   */\n      revert\n        /* \"#utility.yul\":586:906   */\n    tag_32:\n        /* \"#utility.yul\":630:636   */\n      0x00\n        /* \"#utility.yul\":667:668   */\n      0x02\n        /* \"#utility.yul\":661:665   */\n      dup3\n        /* \"#utility.yul\":657:669   */\n      div\n        /* \"#utility.yul\":647:669   */\n      swap1\n      pop\n        /* \"#utility.yul\":714:715   */\n      0x01\n        /* \"#utility.yul\":708:712   */\n      dup3\n        /* \"#utility.yul\":704:716   */\n      and\n        /* \"#utility.yul\":735:753   */\n      dup1\n        /* \"#utility.yul\":725:806   */\n      tag_44\n      jumpi\n        /* \"#utility.yul\":791:795   */\n      0x7f\n        /* \"#utility.yul\":783:789   */\n      dup3\n        /* \"#utility.yul\":779:796   */\n      and\n        /* \"#utility.yul\":769:796   */\n      swap2\n      pop\n        /* \"#utility.yul\":725:806   */\n    tag_44:\n        /* \"#utility.yul\":853:855   */\n      0x20\n        /* \"#utility.yul\":845:851   */\n      dup3\n        /* \"#utility.yul\":842:856   */\n      lt\n        /* \"#utility.yul\":822:840   */\n      dup2\n        /* \"#utility.yul\":819:857   */\n      sub\n        /* \"#utility.yul\":816:900   */\n      tag_45\n      jumpi\n        /* \"#utility.yul\":872:890   */\n      tag_46\n      tag_31\n      jump\t// in\n    tag_46:\n        /* \"#utility.yul\":816:900   */\n    tag_45:\n        /* \"#utility.yul\":637:906   */\n      pop\n        /* \"#utility.yul\":586:906   */\n      swap2\n      swap1\n      pop\n      jump\t// out\n        /* \"#utility.yul\":912:1081   */\n    tag_33:\n        /* \"#utility.yul\":996:1007   */\n      0x00\n        /* \"#utility.yul\":1030:1036   */\n      dup3\n        /* \"#utility.yul\":1025:1028   */\n      dup3\n        /* \"#utility.yul\":1018:1037   */\n      mstore\n        /* \"#utility.yul\":1070:1074   */\n      0x20\n        /* \"#utility.yul\":1065:1068   */\n      dup3\n        /* \"#utility.yul\":1061:1075   */\n      add\n        /* \"#utility.yul\":1046:1075   */\n      swap1\n      pop\n        /* \"#utility.yul\":912:1081   */\n      swap3\n      swap2\n      pop\n      pop\n      jump\t// out\n        /* \"#utility.yul\":1087:1228   */\n    tag_34:\n        /* \"#utility.yul\":1136:1140   */\n      0x00\n        /* \"#utility.yul\":1159:1162   */\n      dup2\n        /* \"#utility.yul\":1151:1162   */\n      swap1\n      pop\n        /* \"#utility.yul\":1182:1185   */\n      dup2\n        /* \"#utility.yul\":1179:1180   */\n      0x00\n        /* \"#utility.yul\":1172:1186   */\n      mstore\n        /* \"#utility.yul\":1216:1220   */\n      0x20\n        /* \"#utility.yul\":1213:1214   */\n      0x00\n        /* \"#utility.yul\":1203:1221   */\n      keccak256\n        /* \"#utility.yul\":1195:1221   */\n      swap1\n      pop\n        /* \"#utility.yul\":1087:1228   */\n      swap2\n      swap1\n      pop\n      jump\t// out\n        /* \"#utility.yul\":1258:2060   */\n    tag_35:\n        /* \"#utility.yul\":1343:1346   */\n      0x00\n        /* \"#utility.yul\":1380:1385   */\n      dup2\n        /* \"#utility.yul\":1374:1386   */\n      sload\n        /* \"#utility.yul\":1409:1445   */\n      tag_50\n        /* \"#utility.yul\":1435:1444   */\n      dup2\n        /* \"#utility.yul\":1409:1445   */\n      tag_32\n      jump\t// in\n    tag_50:\n        /* \"#utility.yul\":1461:1532   */\n      tag_51\n        /* \"#utility.yul\":1525:1531   */\n      dup2\n        /* \"#utility.yul\":1520:1523   */\n      dup7\n        /* \"#utility.yul\":1461:1532   */\n      tag_33\n      jump\t// in\n    tag_51:\n        /* \"#utility.yul\":1454:1532   */\n      swap5\n      pop\n        /* \"#utility.yul\":1563:1564   */\n      0x01\n        /* \"#utility.yul\":1552:1561   */\n      dup3\n        /* \"#utility.yul\":1548:1565   */\n      and\n        /* \"#utility.yul\":1579:1580   */\n      0x00\n        /* \"#utility.yul\":1574:1709   */\n      dup2\n      eq\n      tag_53\n      jumpi\n        /* \"#utility.yul\":1723:1724   */\n      0x01\n        /* \"#utility.yul\":1718:2054   */\n      dup2\n      eq\n      tag_54\n      jumpi\n        /* \"#utility.yul\":1541:2054   */\n      jump(tag_52)\n        /* \"#utility.yul\":1574:1709   */\n    tag_53:\n        /* \"#utility.yul\":1658:1662   */\n      0xff\n        /* \"#utility.yul\":1654:1663   */\n      not\n        /* \"#utility.yul\":1643:1652   */\n      dup4\n        /* \"#utility.yul\":1639:1664   */\n      and\n        /* \"#utility.yul\":1634:1637   */\n      dup7\n        /* \"#utility.yul\":1627:1665   */\n      mstore\n        /* \"#utility.yul\":1694:1698   */\n      0x20\n        /* \"#utility.yul\":1689:1692   */\n      dup7\n        /* \"#utility.yul\":1685:1699   */\n      add\n        /* \"#utility.yul\":1678:1699   */\n      swap4\n      pop\n        /* \"#utility.yul\":1574:1709   */\n      jump(tag_52)\n        /* \"#utility.yul\":1718:2054   */\n    tag_54:\n        /* \"#utility.yul\":1785:1823   */\n      tag_55\n        /* \"#utility.yul\":1817:1822   */\n      dup6\n        /* \"#utility.yul\":1785:1823   */\n      tag_34\n      jump\t// in\n    tag_55:\n        /* \"#utility.yul\":1845:1846   */\n      0x00\n        /* \"#utility.yul\":1859:2013   */\n    tag_56:\n        /* \"#utility.yul\":1873:1879   */\n      dup4\n        /* \"#utility.yul\":1870:1871   */\n      dup2\n        /* \"#utility.yul\":1867:1880   */\n      lt\n        /* \"#utility.yul\":1859:2013   */\n      iszero\n      tag_58\n      jumpi\n        /* \"#utility.yul\":1947:1954   */\n      dup2\n        /* \"#utility.yul\":1941:1955   */\n      sload\n        /* \"#utility.yul\":1937:1938   */\n      dup2\n        /* \"#utility.yul\":1932:1935   */\n      dup10\n        /* \"#utility.yul\":1928:1939   */\n      add\n        /* \"#utility.yul\":1921:1956   */\n      mstore\n        /* \"#utility.yul\":1997:1998   */\n      0x01\n        /* \"#utility.yul\":1988:1995   */\n      dup3\n        /* \"#utility.yul\":1984:1999   */\n      add\n        /* \"#utility.yul\":1973:1999   */\n      swap2\n      pop\n        /* \"#utility.yul\":1895:1899   */\n      0x20\n        /* \"#utility.yul\":1892:1893   */\n      dup2\n        /* \"#utility.yul\":1888:1900   */\n      add\n        /* \"#utility.yul\":1883:1900   */\n      swap1\n      pop\n        /* \"#utility.yul\":1859:2013   */\n      jump(tag_56)\n    tag_58:\n        /* \"#utility.yul\":2042:2043   */\n      dup1\n        /* \"#utility.yul\":2037:2040   */\n      dup9\n        /* \"#utility.yul\":2033:2044   */\n      add\n        /* \"#utility.yul\":2026:2044   */\n      swap6\n      pop\n        /* \"#utility.yul\":1725:2054   */\n      pop\n      pop\n        /* \"#utility.yul\":1541:2054   */\n    tag_52:\n      pop\n        /* \"#utility.yul\":1347:2060   */\n      pop\n      pop\n        /* \"#utility.yul\":1258:2060   */\n      swap3\n      swap2\n      pop\n      pop\n      jump\t// out\n        /* \"#utility.yul\":2066:2483   */\n    tag_18:\n        /* \"#utility.yul\":2204:2208   */\n      0x00\n        /* \"#utility.yul\":2242:2244   */\n      0x40\n        /* \"#utility.yul\":2231:2240   */\n      dup3\n        /* \"#utility.yul\":2227:2245   */\n      add\n        /* \"#utility.yul\":2219:2245   */\n      swap1\n      pop\n        /* \"#utility.yul\":2255:2326   */\n      tag_60\n        /* \"#utility.yul\":2323:2324   */\n      0x00\n        /* \"#utility.yul\":2312:2321   */\n      dup4\n        /* \"#utility.yul\":2308:2325   */\n      add\n        /* \"#utility.yul\":2299:2305   */\n      dup6\n        /* \"#utility.yul\":2255:2326   */\n      tag_30\n      jump\t// in\n    tag_60:\n        /* \"#utility.yul\":2373:2382   */\n      dup2\n        /* \"#utility.yul\":2367:2371   */\n      dup2\n        /* \"#utility.yul\":2363:2383   */\n      sub\n        /* \"#utility.yul\":2358:2360   */\n      0x20\n        /* \"#utility.yul\":2347:2356   */\n      dup4\n        /* \"#utility.yul\":2343:2361   */\n      add\n        /* \"#utility.yul\":2336:2384   */\n      mstore\n        /* \"#utility.yul\":2401:2476   */\n      tag_61\n        /* \"#utility.yul\":2471:2475   */\n      dup2\n        /* \"#utility.yul\":2462:2468   */\n      dup5\n        /* \"#utility.yul\":2401:2476   */\n      tag_35\n      jump\t// in\n    tag_61:\n        /* \"#utility.yul\":2393:2476   */\n      swap1\n      pop\n        /* \"#utility.yul\":2066:2483   */\n      swap4\n      swap3\n      pop\n      pop\n      pop\n      jump\t// out\n        /* \"#utility.yul\":2489:2669   */\n    tag_36:\n        /* \"#utility.yul\":2537:2614   */\n      0x4e487b7100000000000000000000000000000000000000000000000000000000\n        /* \"#utility.yul\":2534:2535   */\n      0x00\n        /* \"#utility.yul\":2527:2615   */\n      mstore\n        /* \"#utility.yul\":2634:2638   */\n      0x11\n        /* \"#utility.yul\":2631:2632   */\n      0x04\n        /* \"#utility.yul\":2624:2639   */\n      mstore\n        /* \"#utility.yul\":2658:2662   */\n      0x24\n        /* \"#utility.yul\":2655:2656   */\n      0x00\n        /* \"#utility.yul\":2648:2663   */\n      revert\n        /* \"#utility.yul\":2675:2908   */\n    tag_20:\n        /* \"#utility.yul\":2714:2717   */\n      0x00\n        /* \"#utility.yul\":2737:2761   */\n      tag_64\n        /* \"#utility.yul\":2755:2760   */\n      dup3\n        /* \"#utility.yul\":2737:2761   */\n      tag_29\n      jump\t// in\n    tag_64:\n        /* \"#utility.yul\":2728:2761   */\n      swap2\n      pop\n        /* \"#utility.yul\":2783:2849   */\n      0xffffffffffffffffffffffffffffffffffffffffffffffffffffffffffffffff\n        /* \"#utility.yul\":2776:2781   */\n      dup3\n        /* \"#utility.yul\":2773:2850   */\n      sub\n        /* \"#utility.yul\":2770:2873   */\n      tag_65\n      jumpi\n        /* \"#utility.yul\":2853:2871   */\n      tag_66\n      tag_36\n      jump\t// in\n    tag_66:\n        /* \"#utility.yul\":2770:2873   */\n    tag_65:\n        /* \"#utility.yul\":2900:2901   */\n      0x01\n        /* \"#utility.yul\":2893:2898   */\n      dup3\n        /* \"#utility.yul\":2889:2902   */\n      add\n        /* \"#utility.yul\":2882:2902   */\n      swap1\n      pop\n        /* \"#utility.yul\":2675:2908   */\n      swap2\n      swap1\n      pop\n      jump\t// out\n\n    auxdata: 0xa2646970667358221220f9fdc5c0701398113ca8febe42525b817306f3a4a1aa4606aac7abddf288dcba64736f6c634300080d0033\n}\n",
				"bytecode": {
					"linkReferences": {},
					"object": "60806040526040518060a001604052806040518060400160405280600a81526020017f536f757468204b6f72650000000000000000000000000000000000000000000081525081526020016040518060400160405280600b81526020017f4e6f727468204b6f72656100000000000000000000000000000000000000000081525081526020016040518060400160405280600381526020017f555341000000000000000000000000000000000000000000000000000000000081525081526020016040518060400160405280600581526020017f4348494e4100000000000000000000000000000000000000000000000000000081525081526020016040518060400160405280600581526020017f4a6170616e0000000000000000000000000000000000000000000000000000008152508152506000906005610144929190610157565b5034801561015157600080fd5b5061031e565b8280548282559060005260206000209081019282156101a6579160200282015b828111156101a55782518290805190602001906101959291906101b7565b5091602001919060010190610177565b5b5090506101b3919061023d565b5090565b8280546101c3906102ed565b90600052602060002090601f0160209004810192826101e5576000855561022c565b82601f106101fe57805160ff191683800117855561022c565b8280016001018555821561022c579182015b8281111561022b578251825591602001919060010190610210565b5b5090506102399190610261565b5090565b5b8082111561025d5760008181610254919061027e565b5060010161023e565b5090565b5b8082111561027a576000816000905550600101610262565b5090565b50805461028a906102ed565b6000825580601f1061029c57506102bb565b601f0160209004906000526020600020908101906102ba9190610261565b5b50565b7f4e487b7100000000000000000000000000000000000000000000000000000000600052602260045260246000fd5b6000600282049050600182168061030557607f821691505b602082108103610318576103176102be565b5b50919050565b6103728061032d6000396000f3fe608060405234801561001057600080fd5b50600436106100365760003560e01c80636cde9f8c1461003b578063ddea9b0a14610045575b600080fd5b61004361004f565b005b61004d6100cb565b005b60005b6000805490508110156100c8577fc3750795857a09dd89d722c915dbd49e7496a6f23cad9de450838745e45f9329816000838154811061009557610094610147565b5b906000526020600020016040516100ad929190610295565b60405180910390a180806100c0906102f4565b915050610052565b50565b60005b600080549050811015610144577fc3750795857a09dd89d722c915dbd49e7496a6f23cad9de450838745e45f9329816000838154811061011157610110610147565b5b90600052602060002001604051610129929190610295565b60405180910390a1808061013c906102f4565b9150506100ce565b50565b7f4e487b7100000000000000000000000000000000000000000000000000000000600052603260045260246000fd5b6000819050919050565b61018981610176565b82525050565b7f4e487b7100000000000000000000000000000000000000000000000000000000600052602260045260246000fd5b600060028204905060018216806101d657607f821691505b6020821081036101e9576101e861018f565b5b50919050565b600082825260208201905092915050565b60008190508160005260206000209050919050565b60008154610222816101be565b61022c81866101ef565b9450600182166000811461024757600181146102595761028c565b60ff198316865260208601935061028c565b61026285610200565b60005b8381101561028457815481890152600182019150602081019050610265565b808801955050505b50505092915050565b60006040820190506102aa6000830185610180565b81810360208301526102bc8184610215565b90509392505050565b7f4e487b7100000000000000000000000000000000000000000000000000000000600052601160045260246000fd5b60006102ff82610176565b91507fffffffffffffffffffffffffffffffffffffffffffffffffffffffffffffffff8203610331576103306102c5565b5b60018201905091905056fea2646970667358221220f9fdc5c0701398113ca8febe42525b817306f3a4a1aa4606aac7abddf288dcba64736f6c634300080d0033",
					"opcodes": "PUSH1 0x80 PUSH1 0x40 MSTORE PUSH1 0x40 MLOAD DUP1 PUSH1 0xA0 ADD PUSH1 0x40 MSTORE DUP1 PUSH1 0x40 MLOAD DUP1 PUSH1 0x40 ADD PUSH1 0x40 MSTORE DUP1 PUSH1 0xA DUP2 MSTORE PUSH1 0x20 ADD PUSH32 0x536F757468204B6F726500000000000000000000000000000000000000000000 DUP2 MSTORE POP DUP2 MSTORE PUSH1 0x20 ADD PUSH1 0x40 MLOAD DUP1 PUSH1 0x40 ADD PUSH1 0x40 MSTORE DUP1 PUSH1 0xB DUP2 MSTORE PUSH1 0x20 ADD PUSH32 0x4E6F727468204B6F726561000000000000000000000000000000000000000000 DUP2 MSTORE POP DUP2 MSTORE PUSH1 0x20 ADD PUSH1 0x40 MLOAD DUP1 PUSH1 0x40 ADD PUSH1 0x40 MSTORE DUP1 PUSH1 0x3 DUP2 MSTORE PUSH1 0x20 ADD PUSH32 0x5553410000000000000000000000000000000000000000000000000000000000 DUP2 MSTORE POP DUP2 MSTORE PUSH1 0x20 ADD PUSH1 0x40 MLOAD DUP1 PUSH1 0x40 ADD PUSH1 0x40 MSTORE DUP1 PUSH1 0x5 DUP2 MSTORE PUSH1 0x20 ADD PUSH32 0x4348494E41000000000000000000000000000000000000000000000000000000 DUP2 MSTORE POP DUP2 MSTORE PUSH1 0x20 ADD PUSH1 0x40 MLOAD DUP1 PUSH1 0x40 ADD PUSH1 0x40 MSTORE DUP1 PUSH1 0x5 DUP2 MSTORE PUSH1 0x20 ADD PUSH32 0x4A6170616E000000000000000000000000000000000000000000000000000000 DUP2 MSTORE POP DUP2 MSTORE POP PUSH1 0x0 SWAP1 PUSH1 0x5 PUSH2 0x144 SWAP3 SWAP2 SWAP1 PUSH2 0x157 JUMP JUMPDEST POP CALLVALUE DUP1 ISZERO PUSH2 0x151 JUMPI PUSH1 0x0 DUP1 REVERT JUMPDEST POP PUSH2 0x31E JUMP JUMPDEST DUP3 DUP1 SLOAD DUP3 DUP3 SSTORE SWAP1 PUSH1 0x0 MSTORE PUSH1 0x20 PUSH1 0x0 KECCAK256 SWAP1 DUP2 ADD SWAP3 DUP3 ISZERO PUSH2 0x1A6 JUMPI SWAP2 PUSH1 0x20 MUL DUP3 ADD JUMPDEST DUP3 DUP2 GT ISZERO PUSH2 0x1A5 JUMPI DUP3 MLOAD DUP3 SWAP1 DUP1 MLOAD SWAP1 PUSH1 0x20 ADD SWAP1 PUSH2 0x195 SWAP3 SWAP2 SWAP1 PUSH2 0x1B7 JUMP JUMPDEST POP SWAP2 PUSH1 0x20 ADD SWAP2 SWAP1 PUSH1 0x1 ADD SWAP1 PUSH2 0x177 JUMP JUMPDEST JUMPDEST POP SWAP1 POP PUSH2 0x1B3 SWAP2 SWAP1 PUSH2 0x23D JUMP JUMPDEST POP SWAP1 JUMP JUMPDEST DUP3 DUP1 SLOAD PUSH2 0x1C3 SWAP1 PUSH2 0x2ED JUMP JUMPDEST SWAP1 PUSH1 0x0 MSTORE PUSH1 0x20 PUSH1 0x0 KECCAK256 SWAP1 PUSH1 0x1F ADD PUSH1 0x20 SWAP1 DIV DUP2 ADD SWAP3 DUP3 PUSH2 0x1E5 JUMPI PUSH1 0x0 DUP6 SSTORE PUSH2 0x22C JUMP JUMPDEST DUP3 PUSH1 0x1F LT PUSH2 0x1FE JUMPI DUP1 MLOAD PUSH1 0xFF NOT AND DUP4 DUP1 ADD OR DUP6 SSTORE PUSH2 0x22C JUMP JUMPDEST DUP3 DUP1 ADD PUSH1 0x1 ADD DUP6 SSTORE DUP3 ISZERO PUSH2 0x22C JUMPI SWAP2 DUP3 ADD JUMPDEST DUP3 DUP2 GT ISZERO PUSH2 0x22B JUMPI DUP3 MLOAD DUP3 SSTORE SWAP2 PUSH1 0x20 ADD SWAP2 SWAP1 PUSH1 0x1 ADD SWAP1 PUSH2 0x210 JUMP JUMPDEST JUMPDEST POP SWAP1 POP PUSH2 0x239 SWAP2 SWAP1 PUSH2 0x261 JUMP JUMPDEST POP SWAP1 JUMP JUMPDEST JUMPDEST DUP1 DUP3 GT ISZERO PUSH2 0x25D JUMPI PUSH1 0x0 DUP2 DUP2 PUSH2 0x254 SWAP2 SWAP1 PUSH2 0x27E JUMP JUMPDEST POP PUSH1 0x1 ADD PUSH2 0x23E JUMP JUMPDEST POP SWAP1 JUMP JUMPDEST JUMPDEST DUP1 DUP3 GT ISZERO PUSH2 0x27A JUMPI PUSH1 0x0 DUP2 PUSH1 0x0 SWAP1 SSTORE POP PUSH1 0x1 ADD PUSH2 0x262 JUMP JUMPDEST POP SWAP1 JUMP JUMPDEST POP DUP1 SLOAD PUSH2 0x28A SWAP1 PUSH2 0x2ED JUMP JUMPDEST PUSH1 0x0 DUP3 SSTORE DUP1 PUSH1 0x1F LT PUSH2 0x29C JUMPI POP PUSH2 0x2BB JUMP JUMPDEST PUSH1 0x1F ADD PUSH1 0x20 SWAP1 DIV SWAP1 PUSH1 0x0 MSTORE PUSH1 0x20 PUSH1 0x0 KECCAK256 SWAP1 DUP2 ADD SWAP1 PUSH2 0x2BA SWAP2 SWAP1 PUSH2 0x261 JUMP JUMPDEST JUMPDEST POP JUMP JUMPDEST PUSH32 0x4E487B7100000000000000000000000000000000000000000000000000000000 PUSH1 0x0 MSTORE PUSH1 0x22 PUSH1 0x4 MSTORE PUSH1 0x24 PUSH1 0x0 REVERT JUMPDEST PUSH1 0x0 PUSH1 0x2 DUP3 DIV SWAP1 POP PUSH1 0x1 DUP3 AND DUP1 PUSH2 0x305 JUMPI PUSH1 0x7F DUP3 AND SWAP2 POP JUMPDEST PUSH1 0x20 DUP3 LT DUP2 SUB PUSH2 0x318 JUMPI PUSH2 0x317 PUSH2 0x2BE JUMP JUMPDEST JUMPDEST POP SWAP2 SWAP1 POP JUMP JUMPDEST PUSH2 0x372 DUP1 PUSH2 0x32D PUSH1 0x0 CODECOPY PUSH1 0x0 RETURN INVALID PUSH1 0x80 PUSH1 0x40 MSTORE CALLVALUE DUP1 ISZERO PUSH2 0x10 JUMPI PUSH1 0x0 DUP1 REVERT JUMPDEST POP PUSH1 0x4 CALLDATASIZE LT PUSH2 0x36 JUMPI PUSH1 0x0 CALLDATALOAD PUSH1 0xE0 SHR DUP1 PUSH4 0x6CDE9F8C EQ PUSH2 0x3B JUMPI DUP1 PUSH4 0xDDEA9B0A EQ PUSH2 0x45 JUMPI JUMPDEST PUSH1 0x0 DUP1 REVERT JUMPDEST PUSH2 0x43 PUSH2 0x4F JUMP JUMPDEST STOP JUMPDEST PUSH2 0x4D PUSH2 0xCB JUMP JUMPDEST STOP JUMPDEST PUSH1 0x0 JUMPDEST PUSH1 0x0 DUP1 SLOAD SWAP1 POP DUP2 LT ISZERO PUSH2 0xC8 JUMPI PUSH32 0xC3750795857A09DD89D722C915DBD49E7496A6F23CAD9DE450838745E45F9329 DUP2 PUSH1 0x0 DUP4 DUP2 SLOAD DUP2 LT PUSH2 0x95 JUMPI PUSH2 0x94 PUSH2 0x147 JUMP JUMPDEST JUMPDEST SWAP1 PUSH1 0x0 MSTORE PUSH1 0x20 PUSH1 0x0 KECCAK256 ADD PUSH1 0x40 MLOAD PUSH2 0xAD SWAP3 SWAP2 SWAP1 PUSH2 0x295 JUMP JUMPDEST PUSH1 0x40 MLOAD DUP1 SWAP2 SUB SWAP1 LOG1 DUP1 DUP1 PUSH2 0xC0 SWAP1 PUSH2 0x2F4 JUMP JUMPDEST SWAP2 POP POP PUSH2 0x52 JUMP JUMPDEST POP JUMP JUMPDEST PUSH1 0x0 JUMPDEST PUSH1 0x0 DUP1 SLOAD SWAP1 POP DUP2 LT ISZERO PUSH2 0x144 JUMPI PUSH32 0xC3750795857A09DD89D722C915DBD49E7496A6F23CAD9DE450838745E45F9329 DUP2 PUSH1 0x0 DUP4 DUP2 SLOAD DUP2 LT PUSH2 0x111 JUMPI PUSH2 0x110 PUSH2 0x147 JUMP JUMPDEST JUMPDEST SWAP1 PUSH1 0x0 MSTORE PUSH1 0x20 PUSH1 0x0 KECCAK256 ADD PUSH1 0x40 MLOAD PUSH2 0x129 SWAP3 SWAP2 SWAP1 PUSH2 0x295 JUMP JUMPDEST PUSH1 0x40 MLOAD DUP1 SWAP2 SUB SWAP1 LOG1 DUP1 DUP1 PUSH2 0x13C SWAP1 PUSH2 0x2F4 JUMP JUMPDEST SWAP2 POP POP PUSH2 0xCE JUMP JUMPDEST POP JUMP JUMPDEST PUSH32 0x4E487B7100000000000000000000000000000000000000000000000000000000 PUSH1 0x0 MSTORE PUSH1 0x32 PUSH1 0x4 MSTORE PUSH1 0x24 PUSH1 0x0 REVERT JUMPDEST PUSH1 0x0 DUP2 SWAP1 POP SWAP2 SWAP1 POP JUMP JUMPDEST PUSH2 0x189 DUP2 PUSH2 0x176 JUMP JUMPDEST DUP3 MSTORE POP POP JUMP JUMPDEST PUSH32 0x4E487B7100000000000000000000000000000000000000000000000000000000 PUSH1 0x0 MSTORE PUSH1 0x22 PUSH1 0x4 MSTORE PUSH1 0x24 PUSH1 0x0 REVERT JUMPDEST PUSH1 0x0 PUSH1 0x2 DUP3 DIV SWAP1 POP PUSH1 0x1 DUP3 AND DUP1 PUSH2 0x1D6 JUMPI PUSH1 0x7F DUP3 AND SWAP2 POP JUMPDEST PUSH1 0x20 DUP3 LT DUP2 SUB PUSH2 0x1E9 JUMPI PUSH2 0x1E8 PUSH2 0x18F JUMP JUMPDEST JUMPDEST POP SWAP2 SWAP1 POP JUMP JUMPDEST PUSH1 0x0 DUP3 DUP3 MSTORE PUSH1 0x20 DUP3 ADD SWAP1 POP SWAP3 SWAP2 POP POP JUMP JUMPDEST PUSH1 0x0 DUP2 SWAP1 POP DUP2 PUSH1 0x0 MSTORE PUSH1 0x20 PUSH1 0x0 KECCAK256 SWAP1 POP SWAP2 SWAP1 POP JUMP JUMPDEST PUSH1 0x0 DUP2 SLOAD PUSH2 0x222 DUP2 PUSH2 0x1BE JUMP JUMPDEST PUSH2 0x22C DUP2 DUP7 PUSH2 0x1EF JUMP JUMPDEST SWAP5 POP PUSH1 0x1 DUP3 AND PUSH1 0x0 DUP2 EQ PUSH2 0x247 JUMPI PUSH1 0x1 DUP2 EQ PUSH2 0x259 JUMPI PUSH2 0x28C JUMP JUMPDEST PUSH1 0xFF NOT DUP4 AND DUP7 MSTORE PUSH1 0x20 DUP7 ADD SWAP4 POP PUSH2 0x28C JUMP JUMPDEST PUSH2 0x262 DUP6 PUSH2 0x200 JUMP JUMPDEST PUSH1 0x0 JUMPDEST DUP4 DUP2 LT ISZERO PUSH2 0x284 JUMPI DUP2 SLOAD DUP2 DUP10 ADD MSTORE PUSH1 0x1 DUP3 ADD SWAP2 POP PUSH1 0x20 DUP2 ADD SWAP1 POP PUSH2 0x265 JUMP JUMPDEST DUP1 DUP9 ADD SWAP6 POP POP POP JUMPDEST POP POP POP SWAP3 SWAP2 POP POP JUMP JUMPDEST PUSH1 0x0 PUSH1 0x40 DUP3 ADD SWAP1 POP PUSH2 0x2AA PUSH1 0x0 DUP4 ADD DUP6 PUSH2 0x180 JUMP JUMPDEST DUP2 DUP2 SUB PUSH1 0x20 DUP4 ADD MSTORE PUSH2 0x2BC DUP2 DUP5 PUSH2 0x215 JUMP JUMPDEST SWAP1 POP SWAP4 SWAP3 POP POP POP JUMP JUMPDEST PUSH32 0x4E487B7100000000000000000000000000000000000000000000000000000000 PUSH1 0x0 MSTORE PUSH1 0x11 PUSH1 0x4 MSTORE PUSH1 0x24 PUSH1 0x0 REVERT JUMPDEST PUSH1 0x0 PUSH2 0x2FF DUP3 PUSH2 0x176 JUMP JUMPDEST SWAP2 POP PUSH32 0xFFFFFFFFFFFFFFFFFFFFFFFFFFFFFFFFFFFFFFFFFFFFFFFFFFFFFFFFFFFFFFFF DUP3 SUB PUSH2 0x331 JUMPI PUSH2 0x330 PUSH2 0x2C5 JUMP JUMPDEST JUMPDEST PUSH1 0x1 DUP3 ADD SWAP1 POP SWAP2 SWAP1 POP JUMP INVALID LOG2 PUSH5 0x6970667358 0x22 SLT KECCAK256 0xF9 REVERT 0xC5 0xC0 PUSH17 0x1398113CA8FEBE42525B817306F3A4A1AA CHAINID MOD 0xAA 0xC7 0xAB 0xDD CALLCODE DUP9 0xDC 0xBA PUSH5 0x736F6C6343 STOP ADDMOD 0xD STOP CALLER "
				},
				"gasEstimates": {
					"creation": {
						"codeDepositCost": "176400",
						"executionCost": "infinite",
						"totalCost": "infinite"
					},
					"external": {
						"forLoopEvents()": "infinite",
						"whileLoopEvents()": "infinite"
					}
				},
				"methodIdentifiers": {
					"forLoopEvents()": "6cde9f8c",
					"whileLoopEvents()": "ddea9b0a"
				}
			},
			"userdoc": {
				"kind": "user",
				"methods": {},
				"version": 1
			}
		}
	}
}