{
	"lecture/delegateCall.sol": {
		"add": {
			"abi": [
				{
					"anonymous": false,
					"inputs": [
						{
							"indexed": false,
							"internalType": "address",
							"name": "_addr",
							"type": "address"
						},
						{
							"indexed": false,
							"internalType": "uint256",
							"name": "_num",
							"type": "uint256"
						}
					],
					"name": "Info",
					"type": "event"
				},
				{
					"inputs": [],
					"name": "num",
					"outputs": [
						{
							"internalType": "uint256",
							"name": "",
							"type": "uint256"
						}
					],
					"stateMutability": "view",
					"type": "function"
				},
				{
					"inputs": [],
					"name": "plusOne",
					"outputs": [],
					"stateMutability": "nonpayable",
					"type": "function"
				}
			],
			"devdoc": {
				"kind": "dev",
				"methods": {},
				"version": 1
			},
			"evm": {
				"assembly": "    /* \"lecture/delegateCall.sol\":531:741  contract add{... */\n  mstore(0x40, 0x80)\n    /* \"lecture/delegateCall.sol\":571:572  0 */\n  0x00\n    /* \"lecture/delegateCall.sol\":550:572  uint256 public num = 0 */\n  dup1\n  sstore\n    /* \"lecture/delegateCall.sol\":531:741  contract add{... */\n  callvalue\n  dup1\n  iszero\n  tag_1\n  jumpi\n  0x00\n  dup1\n  revert\ntag_1:\n  pop\n  dataSize(sub_0)\n  dup1\n  dataOffset(sub_0)\n  0x00\n  codecopy\n  0x00\n  return\nstop\n\nsub_0: assembly {\n        /* \"lecture/delegateCall.sol\":531:741  contract add{... */\n      mstore(0x40, 0x80)\n      callvalue\n      dup1\n      iszero\n      tag_1\n      jumpi\n      0x00\n      dup1\n      revert\n    tag_1:\n      pop\n      jumpi(tag_2, lt(calldatasize, 0x04))\n      shr(0xe0, calldataload(0x00))\n      dup1\n      0x4e70b1dc\n      eq\n      tag_3\n      jumpi\n      dup1\n      0x68e5c066\n      eq\n      tag_4\n      jumpi\n    tag_2:\n      0x00\n      dup1\n      revert\n        /* \"lecture/delegateCall.sol\":550:572  uint256 public num = 0 */\n    tag_3:\n      tag_5\n      tag_6\n      jump\t// in\n    tag_5:\n      mload(0x40)\n      tag_7\n      swap2\n      swap1\n      tag_8\n      jump\t// in\n    tag_7:\n      mload(0x40)\n      dup1\n      swap2\n      sub\n      swap1\n      return\n        /* \"lecture/delegateCall.sol\":630:724  function plusOne() public {... */\n    tag_4:\n      tag_9\n      tag_10\n      jump\t// in\n    tag_9:\n      stop\n        /* \"lecture/delegateCall.sol\":550:572  uint256 public num = 0 */\n    tag_6:\n      sload(0x00)\n      dup2\n      jump\t// out\n        /* \"lecture/delegateCall.sol\":630:724  function plusOne() public {... */\n    tag_10:\n        /* \"lecture/delegateCall.sol\":679:680  1 */\n      0x01\n        /* \"lecture/delegateCall.sol\":673:676  num */\n      sload(0x00)\n        /* \"lecture/delegateCall.sol\":673:680  num + 1 */\n      tag_12\n      swap2\n      swap1\n      tag_13\n      jump\t// in\n    tag_12:\n        /* \"lecture/delegateCall.sol\":667:670  num */\n      0x00\n        /* \"lecture/delegateCall.sol\":667:680  num = num + 1 */\n      dup2\n      swap1\n      sstore\n      pop\n        /* \"lecture/delegateCall.sol\":696:716  Info(msg.sender,num) */\n      0x2e2a4a34dacfe23211d7cd5f2269b17fe50bc4440e8ac080de1026da21e8007d\n        /* \"lecture/delegateCall.sol\":701:711  msg.sender */\n      caller\n        /* \"lecture/delegateCall.sol\":712:715  num */\n      sload(0x00)\n        /* \"lecture/delegateCall.sol\":696:716  Info(msg.sender,num) */\n      mload(0x40)\n      tag_14\n      swap3\n      swap2\n      swap1\n      tag_15\n      jump\t// in\n    tag_14:\n      mload(0x40)\n      dup1\n      swap2\n      sub\n      swap1\n      log1\n        /* \"lecture/delegateCall.sol\":630:724  function plusOne() public {... */\n      jump\t// out\n        /* \"#utility.yul\":7:84   */\n    tag_16:\n        /* \"#utility.yul\":44:51   */\n      0x00\n        /* \"#utility.yul\":73:78   */\n      dup2\n        /* \"#utility.yul\":62:78   */\n      swap1\n      pop\n        /* \"#utility.yul\":7:84   */\n      swap2\n      swap1\n      pop\n      jump\t// out\n        /* \"#utility.yul\":90:208   */\n    tag_17:\n        /* \"#utility.yul\":177:201   */\n      tag_25\n        /* \"#utility.yul\":195:200   */\n      dup2\n        /* \"#utility.yul\":177:201   */\n      tag_16\n      jump\t// in\n    tag_25:\n        /* \"#utility.yul\":172:175   */\n      dup3\n        /* \"#utility.yul\":165:202   */\n      mstore\n        /* \"#utility.yul\":90:208   */\n      pop\n      pop\n      jump\t// out\n        /* \"#utility.yul\":214:436   */\n    tag_8:\n        /* \"#utility.yul\":307:311   */\n      0x00\n        /* \"#utility.yul\":345:347   */\n      0x20\n        /* \"#utility.yul\":334:343   */\n      dup3\n        /* \"#utility.yul\":330:348   */\n      add\n        /* \"#utility.yul\":322:348   */\n      swap1\n      pop\n        /* \"#utility.yul\":358:429   */\n      tag_27\n        /* \"#utility.yul\":426:427   */\n      0x00\n        /* \"#utility.yul\":415:424   */\n      dup4\n        /* \"#utility.yul\":411:428   */\n      add\n        /* \"#utility.yul\":402:408   */\n      dup5\n        /* \"#utility.yul\":358:429   */\n      tag_17\n      jump\t// in\n    tag_27:\n        /* \"#utility.yul\":214:436   */\n      swap3\n      swap2\n      pop\n      pop\n      jump\t// out\n        /* \"#utility.yul\":442:622   */\n    tag_18:\n        /* \"#utility.yul\":490:567   */\n      0x4e487b7100000000000000000000000000000000000000000000000000000000\n        /* \"#utility.yul\":487:488   */\n      0x00\n        /* \"#utility.yul\":480:568   */\n      mstore\n        /* \"#utility.yul\":587:591   */\n      0x11\n        /* \"#utility.yul\":584:585   */\n      0x04\n        /* \"#utility.yul\":577:592   */\n      mstore\n        /* \"#utility.yul\":611:615   */\n      0x24\n        /* \"#utility.yul\":608:609   */\n      0x00\n        /* \"#utility.yul\":601:616   */\n      revert\n        /* \"#utility.yul\":628:933   */\n    tag_13:\n        /* \"#utility.yul\":668:671   */\n      0x00\n        /* \"#utility.yul\":687:707   */\n      tag_30\n        /* \"#utility.yul\":705:706   */\n      dup3\n        /* \"#utility.yul\":687:707   */\n      tag_16\n      jump\t// in\n    tag_30:\n        /* \"#utility.yul\":682:707   */\n      swap2\n      pop\n        /* \"#utility.yul\":721:741   */\n      tag_31\n        /* \"#utility.yul\":739:740   */\n      dup4\n        /* \"#utility.yul\":721:741   */\n      tag_16\n      jump\t// in\n    tag_31:\n        /* \"#utility.yul\":716:741   */\n      swap3\n      pop\n        /* \"#utility.yul\":875:876   */\n      dup3\n        /* \"#utility.yul\":807:873   */\n      0xffffffffffffffffffffffffffffffffffffffffffffffffffffffffffffffff\n        /* \"#utility.yul\":803:877   */\n      sub\n        /* \"#utility.yul\":800:801   */\n      dup3\n        /* \"#utility.yul\":797:878   */\n      gt\n        /* \"#utility.yul\":794:901   */\n      iszero\n      tag_32\n      jumpi\n        /* \"#utility.yul\":881:899   */\n      tag_33\n      tag_18\n      jump\t// in\n    tag_33:\n        /* \"#utility.yul\":794:901   */\n    tag_32:\n        /* \"#utility.yul\":925:926   */\n      dup3\n        /* \"#utility.yul\":922:923   */\n      dup3\n        /* \"#utility.yul\":918:927   */\n      add\n        /* \"#utility.yul\":911:927   */\n      swap1\n      pop\n        /* \"#utility.yul\":628:933   */\n      swap3\n      swap2\n      pop\n      pop\n      jump\t// out\n        /* \"#utility.yul\":939:1065   */\n    tag_19:\n        /* \"#utility.yul\":976:983   */\n      0x00\n        /* \"#utility.yul\":1016:1058   */\n      0xffffffffffffffffffffffffffffffffffffffff\n        /* \"#utility.yul\":1009:1014   */\n      dup3\n        /* \"#utility.yul\":1005:1059   */\n      and\n        /* \"#utility.yul\":994:1059   */\n      swap1\n      pop\n        /* \"#utility.yul\":939:1065   */\n      swap2\n      swap1\n      pop\n      jump\t// out\n        /* \"#utility.yul\":1071:1167   */\n    tag_20:\n        /* \"#utility.yul\":1108:1115   */\n      0x00\n        /* \"#utility.yul\":1137:1161   */\n      tag_36\n        /* \"#utility.yul\":1155:1160   */\n      dup3\n        /* \"#utility.yul\":1137:1161   */\n      tag_19\n      jump\t// in\n    tag_36:\n        /* \"#utility.yul\":1126:1161   */\n      swap1\n      pop\n        /* \"#utility.yul\":1071:1167   */\n      swap2\n      swap1\n      pop\n      jump\t// out\n        /* \"#utility.yul\":1173:1291   */\n    tag_21:\n        /* \"#utility.yul\":1260:1284   */\n      tag_38\n        /* \"#utility.yul\":1278:1283   */\n      dup2\n        /* \"#utility.yul\":1260:1284   */\n      tag_20\n      jump\t// in\n    tag_38:\n        /* \"#utility.yul\":1255:1258   */\n      dup3\n        /* \"#utility.yul\":1248:1285   */\n      mstore\n        /* \"#utility.yul\":1173:1291   */\n      pop\n      pop\n      jump\t// out\n        /* \"#utility.yul\":1297:1629   */\n    tag_15:\n        /* \"#utility.yul\":1418:1422   */\n      0x00\n        /* \"#utility.yul\":1456:1458   */\n      0x40\n        /* \"#utility.yul\":1445:1454   */\n      dup3\n        /* \"#utility.yul\":1441:1459   */\n      add\n        /* \"#utility.yul\":1433:1459   */\n      swap1\n      pop\n        /* \"#utility.yul\":1469:1540   */\n      tag_40\n        /* \"#utility.yul\":1537:1538   */\n      0x00\n        /* \"#utility.yul\":1526:1535   */\n      dup4\n        /* \"#utility.yul\":1522:1539   */\n      add\n        /* \"#utility.yul\":1513:1519   */\n      dup6\n        /* \"#utility.yul\":1469:1540   */\n      tag_21\n      jump\t// in\n    tag_40:\n        /* \"#utility.yul\":1550:1622   */\n      tag_41\n        /* \"#utility.yul\":1618:1620   */\n      0x20\n        /* \"#utility.yul\":1607:1616   */\n      dup4\n        /* \"#utility.yul\":1603:1621   */\n      add\n        /* \"#utility.yul\":1594:1600   */\n      dup5\n        /* \"#utility.yul\":1550:1622   */\n      tag_17\n      jump\t// in\n    tag_41:\n        /* \"#utility.yul\":1297:1629   */\n      swap4\n      swap3\n      pop\n      pop\n      pop\n      jump\t// out\n\n    auxdata: 0xa26469706673582212200ed5a89a0be034e9fdd4acdf50650efc9976f55a3d565b7acd07c2d2542fb8b164736f6c634300080d0033\n}\n",
				"bytecode": {
					"linkReferences": {},
					"object": "60806040526000805534801561001457600080fd5b50610214806100246000396000f3fe608060405234801561001057600080fd5b50600436106100365760003560e01c80634e70b1dc1461003b57806368e5c06614610059575b600080fd5b610043610063565b60405161005091906100d4565b60405180910390f35b610061610069565b005b60005481565b6001600054610078919061011e565b6000819055507f2e2a4a34dacfe23211d7cd5f2269b17fe50bc4440e8ac080de1026da21e8007d336000546040516100b19291906101b5565b60405180910390a1565b6000819050919050565b6100ce816100bb565b82525050565b60006020820190506100e960008301846100c5565b92915050565b7f4e487b7100000000000000000000000000000000000000000000000000000000600052601160045260246000fd5b6000610129826100bb565b9150610134836100bb565b9250827fffffffffffffffffffffffffffffffffffffffffffffffffffffffffffffffff03821115610169576101686100ef565b5b828201905092915050565b600073ffffffffffffffffffffffffffffffffffffffff82169050919050565b600061019f82610174565b9050919050565b6101af81610194565b82525050565b60006040820190506101ca60008301856101a6565b6101d760208301846100c5565b939250505056fea26469706673582212200ed5a89a0be034e9fdd4acdf50650efc9976f55a3d565b7acd07c2d2542fb8b164736f6c634300080d0033",
					"opcodes": "PUSH1 0x80 PUSH1 0x40 MSTORE PUSH1 0x0 DUP1 SSTORE CALLVALUE DUP1 ISZERO PUSH2 0x14 JUMPI PUSH1 0x0 DUP1 REVERT JUMPDEST POP PUSH2 0x214 DUP1 PUSH2 0x24 PUSH1 0x0 CODECOPY PUSH1 0x0 RETURN INVALID PUSH1 0x80 PUSH1 0x40 MSTORE CALLVALUE DUP1 ISZERO PUSH2 0x10 JUMPI PUSH1 0x0 DUP1 REVERT JUMPDEST POP PUSH1 0x4 CALLDATASIZE LT PUSH2 0x36 JUMPI PUSH1 0x0 CALLDATALOAD PUSH1 0xE0 SHR DUP1 PUSH4 0x4E70B1DC EQ PUSH2 0x3B JUMPI DUP1 PUSH4 0x68E5C066 EQ PUSH2 0x59 JUMPI JUMPDEST PUSH1 0x0 DUP1 REVERT JUMPDEST PUSH2 0x43 PUSH2 0x63 JUMP JUMPDEST PUSH1 0x40 MLOAD PUSH2 0x50 SWAP2 SWAP1 PUSH2 0xD4 JUMP JUMPDEST PUSH1 0x40 MLOAD DUP1 SWAP2 SUB SWAP1 RETURN JUMPDEST PUSH2 0x61 PUSH2 0x69 JUMP JUMPDEST STOP JUMPDEST PUSH1 0x0 SLOAD DUP2 JUMP JUMPDEST PUSH1 0x1 PUSH1 0x0 SLOAD PUSH2 0x78 SWAP2 SWAP1 PUSH2 0x11E JUMP JUMPDEST PUSH1 0x0 DUP2 SWAP1 SSTORE POP PUSH32 0x2E2A4A34DACFE23211D7CD5F2269B17FE50BC4440E8AC080DE1026DA21E8007D CALLER PUSH1 0x0 SLOAD PUSH1 0x40 MLOAD PUSH2 0xB1 SWAP3 SWAP2 SWAP1 PUSH2 0x1B5 JUMP JUMPDEST PUSH1 0x40 MLOAD DUP1 SWAP2 SUB SWAP1 LOG1 JUMP JUMPDEST PUSH1 0x0 DUP2 SWAP1 POP SWAP2 SWAP1 POP JUMP JUMPDEST PUSH2 0xCE DUP2 PUSH2 0xBB JUMP JUMPDEST DUP3 MSTORE POP POP JUMP JUMPDEST PUSH1 0x0 PUSH1 0x20 DUP3 ADD SWAP1 POP PUSH2 0xE9 PUSH1 0x0 DUP4 ADD DUP5 PUSH2 0xC5 JUMP JUMPDEST SWAP3 SWAP2 POP POP JUMP JUMPDEST PUSH32 0x4E487B7100000000000000000000000000000000000000000000000000000000 PUSH1 0x0 MSTORE PUSH1 0x11 PUSH1 0x4 MSTORE PUSH1 0x24 PUSH1 0x0 REVERT JUMPDEST PUSH1 0x0 PUSH2 0x129 DUP3 PUSH2 0xBB JUMP JUMPDEST SWAP2 POP PUSH2 0x134 DUP4 PUSH2 0xBB JUMP JUMPDEST SWAP3 POP DUP3 PUSH32 0xFFFFFFFFFFFFFFFFFFFFFFFFFFFFFFFFFFFFFFFFFFFFFFFFFFFFFFFFFFFFFFFF SUB DUP3 GT ISZERO PUSH2 0x169 JUMPI PUSH2 0x168 PUSH2 0xEF JUMP JUMPDEST JUMPDEST DUP3 DUP3 ADD SWAP1 POP SWAP3 SWAP2 POP POP JUMP JUMPDEST PUSH1 0x0 PUSH20 0xFFFFFFFFFFFFFFFFFFFFFFFFFFFFFFFFFFFFFFFF DUP3 AND SWAP1 POP SWAP2 SWAP1 POP JUMP JUMPDEST PUSH1 0x0 PUSH2 0x19F DUP3 PUSH2 0x174 JUMP JUMPDEST SWAP1 POP SWAP2 SWAP1 POP JUMP JUMPDEST PUSH2 0x1AF DUP2 PUSH2 0x194 JUMP JUMPDEST DUP3 MSTORE POP POP JUMP JUMPDEST PUSH1 0x0 PUSH1 0x40 DUP3 ADD SWAP1 POP PUSH2 0x1CA PUSH1 0x0 DUP4 ADD DUP6 PUSH2 0x1A6 JUMP JUMPDEST PUSH2 0x1D7 PUSH1 0x20 DUP4 ADD DUP5 PUSH2 0xC5 JUMP JUMPDEST SWAP4 SWAP3 POP POP POP JUMP INVALID LOG2 PUSH5 0x6970667358 0x22 SLT KECCAK256 0xE 0xD5 0xA8 SWAP11 SIGNEXTEND 0xE0 CALLVALUE 0xE9 REVERT 0xD4 0xAC 0xDF POP PUSH6 0xEFC9976F55A RETURNDATASIZE JUMP JUMPDEST PUSH27 0xCD07C2D2542FB8B164736F6C634300080D00330000000000000000 "
				},
				"gasEstimates": {
					"creation": {
						"codeDepositCost": "106400",
						"executionCost": "5159",
						"totalCost": "111559"
					},
					"external": {
						"num()": "2407",
						"plusOne()": "infinite"
					}
				},
				"methodIdentifiers": {
					"num()": "4e70b1dc",
					"plusOne()": "68e5c066"
				}
			},
			"userdoc": {
				"kind": "user",
				"methods": {},
				"version": 1
			}
		}
	}
}