{
	"lecture/smart.sol": {
		"MoneyBox": {
			"abi": [
				{
					"inputs": [],
					"stateMutability": "nonpayable",
					"type": "constructor"
				},
				{
					"anonymous": false,
					"inputs": [
						{
							"indexed": true,
							"internalType": "address",
							"name": "sender",
							"type": "address"
						},
						{
							"indexed": false,
							"internalType": "uint256",
							"name": "payment",
							"type": "uint256"
						}
					],
					"name": "WhoPaid",
					"type": "event"
				},
				{
					"inputs": [],
					"name": "checkRound",
					"outputs": [
						{
							"internalType": "uint256",
							"name": "",
							"type": "uint256"
						}
					],
					"stateMutability": "view",
					"type": "function"
				},
				{
					"inputs": [],
					"name": "checkValue",
					"outputs": [
						{
							"internalType": "uint256",
							"name": "",
							"type": "uint256"
						}
					],
					"stateMutability": "view",
					"type": "function"
				},
				{
					"stateMutability": "payable",
					"type": "receive"
				}
			],
			"devdoc": {
				"kind": "dev",
				"methods": {},
				"version": 1
			},
			"evm": {
				"assembly": "    /* \"lecture/smart.sol\":407:1491  contract MoneyBox {... */\n  mstore(0x40, 0x80)\n    /* \"lecture/smart.sol\":650:651  1 */\n  0x01\n    /* \"lecture/smart.sol\":637:651  uint round = 1 */\n  0x02\n  sstore\n    /* \"lecture/smart.sol\":660:712  constructor() {... */\n  callvalue\n  dup1\n  iszero\n  tag_1\n  jumpi\n  0x00\n  dup1\n  revert\ntag_1:\n  pop\n    /* \"lecture/smart.sol\":694:704  msg.sender */\n  caller\n    /* \"lecture/smart.sol\":685:691  ownwer */\n  0x00\n  dup1\n    /* \"lecture/smart.sol\":685:704  ownwer = msg.sender */\n  0x0100\n  exp\n  dup2\n  sload\n  dup2\n  0xffffffffffffffffffffffffffffffffffffffff\n  mul\n  not\n  and\n  swap1\n  dup4\n  0xffffffffffffffffffffffffffffffffffffffff\n  and\n  mul\n  or\n  swap1\n  sstore\n  pop\n    /* \"lecture/smart.sol\":407:1491  contract MoneyBox {... */\n  dataSize(sub_0)\n  dup1\n  dataOffset(sub_0)\n  0x00\n  codecopy\n  0x00\n  return\nstop\n\nsub_0: assembly {\n        /* \"lecture/smart.sol\":407:1491  contract MoneyBox {... */\n      mstore(0x40, 0x80)\n      jumpi(tag_1, lt(calldatasize, 0x04))\n      shr(0xe0, calldataload(0x00))\n      dup1\n      0x5c681920\n      eq\n      tag_3\n      jumpi\n      dup1\n      0x69bbe5c7\n      eq\n      tag_4\n      jumpi\n      jump(tag_2)\n    tag_1:\n      jumpi(tag_2, calldatasize)\n        /* \"lecture/smart.sol\":781:788  1 ether */\n      0x0de0b6b3a7640000\n        /* \"lecture/smart.sol\":768:777  msg.value */\n      callvalue\n        /* \"lecture/smart.sol\":768:788  msg.value == 1 ether */\n      eq\n        /* \"lecture/smart.sol\":760:807  require(msg.value == 1 ether,\"Must be 1 ether\") */\n      tag_7\n      jumpi\n      mload(0x40)\n      0x08c379a000000000000000000000000000000000000000000000000000000000\n      dup2\n      mstore\n      0x04\n      add\n      tag_8\n      swap1\n      tag_9\n      jump\t// in\n    tag_8:\n      mload(0x40)\n      dup1\n      swap2\n      sub\n      swap1\n      revert\n    tag_7:\n        /* \"lecture/smart.sol\":863:868  false */\n      0x00\n        /* \"lecture/smart.sol\":826:868  paidMemberList[round][msg.sender] == false */\n      iszero\n      iszero\n        /* \"lecture/smart.sol\":826:840  paidMemberList */\n      0x01\n        /* \"lecture/smart.sol\":826:847  paidMemberList[round] */\n      0x00\n        /* \"lecture/smart.sol\":841:846  round */\n      sload(0x02)\n        /* \"lecture/smart.sol\":826:847  paidMemberList[round] */\n      dup2\n      mstore\n      0x20\n      add\n      swap1\n      dup2\n      mstore\n      0x20\n      add\n      0x00\n      keccak256\n        /* \"lecture/smart.sol\":826:859  paidMemberList[round][msg.sender] */\n      0x00\n        /* \"lecture/smart.sol\":848:858  msg.sender */\n      caller\n        /* \"lecture/smart.sol\":826:859  paidMemberList[round][msg.sender] */\n      0xffffffffffffffffffffffffffffffffffffffff\n      and\n      0xffffffffffffffffffffffffffffffffffffffff\n      and\n      dup2\n      mstore\n      0x20\n      add\n      swap1\n      dup2\n      mstore\n      0x20\n      add\n      0x00\n      keccak256\n      0x00\n      swap1\n      sload\n      swap1\n      0x0100\n      exp\n      swap1\n      div\n      0xff\n      and\n        /* \"lecture/smart.sol\":826:868  paidMemberList[round][msg.sender] == false */\n      iszero\n      iszero\n      eq\n        /* \"lecture/smart.sol\":818:907  require(paidMemberList[round][msg.sender] == false, \"Must be a new player in each game.\") */\n      tag_10\n      jumpi\n      mload(0x40)\n      0x08c379a000000000000000000000000000000000000000000000000000000000\n      dup2\n      mstore\n      0x04\n      add\n      tag_11\n      swap1\n      tag_12\n      jump\t// in\n    tag_11:\n      mload(0x40)\n      dup1\n      swap2\n      sub\n      swap1\n      revert\n    tag_10:\n        /* \"lecture/smart.sol\":954:958  true */\n      0x01\n        /* \"lecture/smart.sol\":918:932  paidMemberList */\n      dup1\n        /* \"lecture/smart.sol\":918:939  paidMemberList[round] */\n      0x00\n        /* \"lecture/smart.sol\":933:938  round */\n      sload(0x02)\n        /* \"lecture/smart.sol\":918:939  paidMemberList[round] */\n      dup2\n      mstore\n      0x20\n      add\n      swap1\n      dup2\n      mstore\n      0x20\n      add\n      0x00\n      keccak256\n        /* \"lecture/smart.sol\":918:951  paidMemberList[round][msg.sender] */\n      0x00\n        /* \"lecture/smart.sol\":940:950  msg.sender */\n      caller\n        /* \"lecture/smart.sol\":918:951  paidMemberList[round][msg.sender] */\n      0xffffffffffffffffffffffffffffffffffffffff\n      and\n      0xffffffffffffffffffffffffffffffffffffffff\n      and\n      dup2\n      mstore\n      0x20\n      add\n      swap1\n      dup2\n      mstore\n      0x20\n      add\n      0x00\n      keccak256\n      0x00\n        /* \"lecture/smart.sol\":918:958  paidMemberList[round][msg.sender] = true */\n      0x0100\n      exp\n      dup2\n      sload\n      dup2\n      0xff\n      mul\n      not\n      and\n      swap1\n      dup4\n      iszero\n      iszero\n      mul\n      or\n      swap1\n      sstore\n      pop\n        /* \"lecture/smart.sol\":982:992  msg.sender */\n      caller\n        /* \"lecture/smart.sol\":974:1004  WhoPaid(msg.sender, msg.value) */\n      0xffffffffffffffffffffffffffffffffffffffff\n      and\n      0x124914a3e6966a060a8132f2c609203a76d9b0cc2b5ba9e626df64525de4765c\n        /* \"lecture/smart.sol\":994:1003  msg.value */\n      callvalue\n        /* \"lecture/smart.sol\":974:1004  WhoPaid(msg.sender, msg.value) */\n      mload(0x40)\n      tag_13\n      swap2\n      swap1\n      tag_14\n      jump\t// in\n    tag_13:\n      mload(0x40)\n      dup1\n      swap2\n      sub\n      swap1\n      log2\n        /* \"lecture/smart.sol\":1043:1050  3 ether */\n      0x29a2241af62c0000\n        /* \"lecture/smart.sol\":1018:1039  address(this).balance */\n      selfbalance\n        /* \"lecture/smart.sol\":1018:1050  address(this).balance == 3 ether */\n      sub\n        /* \"lecture/smart.sol\":1015:1215  if(address(this).balance == 3 ether) {... */\n      tag_15\n      jumpi\n        /* \"lecture/smart.sol\":1068:1077  bool sent */\n      0x00\n        /* \"lecture/smart.sol\":1088:1098  msg.sender */\n      caller\n        /* \"lecture/smart.sol\":1080:1104  payable(msg.sender).call */\n      0xffffffffffffffffffffffffffffffffffffffff\n      and\n        /* \"lecture/smart.sol\":1111:1132  address(this).balance */\n      selfbalance\n        /* \"lecture/smart.sol\":1080:1137  payable(msg.sender).call{value:address(this).balance}(\"\") */\n      mload(0x40)\n      tag_16\n      swap1\n      tag_17\n      jump\t// in\n    tag_16:\n      0x00\n      mload(0x40)\n      dup1\n      dup4\n      sub\n      dup2\n      dup6\n      dup8\n      gas\n      call\n      swap3\n      pop\n      pop\n      pop\n      returndatasize\n      dup1\n      0x00\n      dup2\n      eq\n      tag_20\n      jumpi\n      mload(0x40)\n      swap2\n      pop\n      and(add(returndatasize, 0x3f), not(0x1f))\n      dup3\n      add\n      0x40\n      mstore\n      returndatasize\n      dup3\n      mstore\n      returndatasize\n      0x00\n      0x20\n      dup5\n      add\n      returndatacopy\n      jump(tag_19)\n    tag_20:\n      0x60\n      swap2\n      pop\n    tag_19:\n      pop\n        /* \"lecture/smart.sol\":1067:1137  (bool sent,)=payable(msg.sender).call{value:address(this).balance}(\"\") */\n      pop\n      swap1\n      pop\n        /* \"lecture/smart.sol\":1160:1164  sent */\n      dup1\n        /* \"lecture/smart.sol\":1152:1181  require(sent,\"Failed to pay\") */\n      tag_21\n      jumpi\n      mload(0x40)\n      0x08c379a000000000000000000000000000000000000000000000000000000000\n      dup2\n      mstore\n      0x04\n      add\n      tag_22\n      swap1\n      tag_23\n      jump\t// in\n    tag_22:\n      mload(0x40)\n      dup1\n      swap2\n      sub\n      swap1\n      revert\n    tag_21:\n        /* \"lecture/smart.sol\":1196:1201  round */\n      0x02\n      0x00\n        /* \"lecture/smart.sol\":1196:1203  round++ */\n      dup2\n      sload\n      dup1\n      swap3\n      swap2\n      swap1\n      tag_24\n      swap1\n      tag_25\n      jump\t// in\n    tag_24:\n      swap2\n      swap1\n      pop\n      sstore\n      pop\n        /* \"lecture/smart.sol\":1052:1215  {... */\n      pop\n        /* \"lecture/smart.sol\":1015:1215  if(address(this).balance == 3 ether) {... */\n    tag_15:\n        /* \"lecture/smart.sol\":407:1491  contract MoneyBox {... */\n      stop\n    tag_2:\n      0x00\n      dup1\n      revert\n        /* \"lecture/smart.sol\":1318:1488  function checkValue() public view returns(uint256) {... */\n    tag_3:\n      callvalue\n      dup1\n      iszero\n      tag_26\n      jumpi\n      0x00\n      dup1\n      revert\n    tag_26:\n      pop\n      tag_27\n      tag_28\n      jump\t// in\n    tag_27:\n      mload(0x40)\n      tag_29\n      swap2\n      swap1\n      tag_14\n      jump\t// in\n    tag_29:\n      mload(0x40)\n      dup1\n      swap2\n      sub\n      swap1\n      return\n        /* \"lecture/smart.sol\":1228:1310  function checkRound() public view returns(uint256) {... */\n    tag_4:\n      callvalue\n      dup1\n      iszero\n      tag_30\n      jumpi\n      0x00\n      dup1\n      revert\n    tag_30:\n      pop\n      tag_31\n      tag_32\n      jump\t// in\n    tag_31:\n      mload(0x40)\n      tag_33\n      swap2\n      swap1\n      tag_14\n      jump\t// in\n    tag_33:\n      mload(0x40)\n      dup1\n      swap2\n      sub\n      swap1\n      return\n        /* \"lecture/smart.sol\":1318:1488  function checkValue() public view returns(uint256) {... */\n    tag_28:\n        /* \"lecture/smart.sol\":1360:1367  uint256 */\n      0x00\n        /* \"lecture/smart.sol\":1396:1406  msg.sender */\n      caller\n        /* \"lecture/smart.sol\":1388:1406  ownwer==msg.sender */\n      0xffffffffffffffffffffffffffffffffffffffff\n      and\n        /* \"lecture/smart.sol\":1388:1394  ownwer */\n      0x00\n      dup1\n      sload\n      swap1\n      0x0100\n      exp\n      swap1\n      div\n      0xffffffffffffffffffffffffffffffffffffffff\n      and\n        /* \"lecture/smart.sol\":1388:1406  ownwer==msg.sender */\n      0xffffffffffffffffffffffffffffffffffffffff\n      and\n      eq\n        /* \"lecture/smart.sol\":1380:1441  require(ownwer==msg.sender, \"Only Onwer can check the value\") */\n      tag_35\n      jumpi\n      mload(0x40)\n      0x08c379a000000000000000000000000000000000000000000000000000000000\n      dup2\n      mstore\n      0x04\n      add\n      tag_36\n      swap1\n      tag_37\n      jump\t// in\n    tag_36:\n      mload(0x40)\n      dup1\n      swap2\n      sub\n      swap1\n      revert\n    tag_35:\n        /* \"lecture/smart.sol\":1459:1480  address(this).balance */\n      selfbalance\n        /* \"lecture/smart.sol\":1452:1480  return address(this).balance */\n      swap1\n      pop\n        /* \"lecture/smart.sol\":1318:1488  function checkValue() public view returns(uint256) {... */\n      swap1\n      jump\t// out\n        /* \"lecture/smart.sol\":1228:1310  function checkRound() public view returns(uint256) {... */\n    tag_32:\n        /* \"lecture/smart.sol\":1270:1277  uint256 */\n      0x00\n        /* \"lecture/smart.sol\":1297:1302  round */\n      sload(0x02)\n        /* \"lecture/smart.sol\":1290:1302  return round */\n      swap1\n      pop\n        /* \"lecture/smart.sol\":1228:1310  function checkRound() public view returns(uint256) {... */\n      swap1\n      jump\t// out\n        /* \"#utility.yul\":7:176   */\n    tag_39:\n        /* \"#utility.yul\":91:102   */\n      0x00\n        /* \"#utility.yul\":125:131   */\n      dup3\n        /* \"#utility.yul\":120:123   */\n      dup3\n        /* \"#utility.yul\":113:132   */\n      mstore\n        /* \"#utility.yul\":165:169   */\n      0x20\n        /* \"#utility.yul\":160:163   */\n      dup3\n        /* \"#utility.yul\":156:170   */\n      add\n        /* \"#utility.yul\":141:170   */\n      swap1\n      pop\n        /* \"#utility.yul\":7:176   */\n      swap3\n      swap2\n      pop\n      pop\n      jump\t// out\n        /* \"#utility.yul\":182:347   */\n    tag_40:\n        /* \"#utility.yul\":322:339   */\n      0x4d75737420626520312065746865720000000000000000000000000000000000\n        /* \"#utility.yul\":318:319   */\n      0x00\n        /* \"#utility.yul\":310:316   */\n      dup3\n        /* \"#utility.yul\":306:320   */\n      add\n        /* \"#utility.yul\":299:340   */\n      mstore\n        /* \"#utility.yul\":182:347   */\n      pop\n      jump\t// out\n        /* \"#utility.yul\":353:719   */\n    tag_41:\n        /* \"#utility.yul\":495:498   */\n      0x00\n        /* \"#utility.yul\":516:583   */\n      tag_58\n        /* \"#utility.yul\":580:582   */\n      0x0f\n        /* \"#utility.yul\":575:578   */\n      dup4\n        /* \"#utility.yul\":516:583   */\n      tag_39\n      jump\t// in\n    tag_58:\n        /* \"#utility.yul\":509:583   */\n      swap2\n      pop\n        /* \"#utility.yul\":592:685   */\n      tag_59\n        /* \"#utility.yul\":681:684   */\n      dup3\n        /* \"#utility.yul\":592:685   */\n      tag_40\n      jump\t// in\n    tag_59:\n        /* \"#utility.yul\":710:712   */\n      0x20\n        /* \"#utility.yul\":705:708   */\n      dup3\n        /* \"#utility.yul\":701:713   */\n      add\n        /* \"#utility.yul\":694:713   */\n      swap1\n      pop\n        /* \"#utility.yul\":353:719   */\n      swap2\n      swap1\n      pop\n      jump\t// out\n        /* \"#utility.yul\":725:1144   */\n    tag_9:\n        /* \"#utility.yul\":891:895   */\n      0x00\n        /* \"#utility.yul\":929:931   */\n      0x20\n        /* \"#utility.yul\":918:927   */\n      dup3\n        /* \"#utility.yul\":914:932   */\n      add\n        /* \"#utility.yul\":906:932   */\n      swap1\n      pop\n        /* \"#utility.yul\":978:987   */\n      dup2\n        /* \"#utility.yul\":972:976   */\n      dup2\n        /* \"#utility.yul\":968:988   */\n      sub\n        /* \"#utility.yul\":964:965   */\n      0x00\n        /* \"#utility.yul\":953:962   */\n      dup4\n        /* \"#utility.yul\":949:966   */\n      add\n        /* \"#utility.yul\":942:989   */\n      mstore\n        /* \"#utility.yul\":1006:1137   */\n      tag_61\n        /* \"#utility.yul\":1132:1136   */\n      dup2\n        /* \"#utility.yul\":1006:1137   */\n      tag_41\n      jump\t// in\n    tag_61:\n        /* \"#utility.yul\":998:1137   */\n      swap1\n      pop\n        /* \"#utility.yul\":725:1144   */\n      swap2\n      swap1\n      pop\n      jump\t// out\n        /* \"#utility.yul\":1150:1371   */\n    tag_42:\n        /* \"#utility.yul\":1290:1324   */\n      0x4d7573742062652061206e657720706c6179657220696e20656163682067616d\n        /* \"#utility.yul\":1286:1287   */\n      0x00\n        /* \"#utility.yul\":1278:1284   */\n      dup3\n        /* \"#utility.yul\":1274:1288   */\n      add\n        /* \"#utility.yul\":1267:1325   */\n      mstore\n        /* \"#utility.yul\":1359:1363   */\n      0x652e000000000000000000000000000000000000000000000000000000000000\n        /* \"#utility.yul\":1354:1356   */\n      0x20\n        /* \"#utility.yul\":1346:1352   */\n      dup3\n        /* \"#utility.yul\":1342:1357   */\n      add\n        /* \"#utility.yul\":1335:1364   */\n      mstore\n        /* \"#utility.yul\":1150:1371   */\n      pop\n      jump\t// out\n        /* \"#utility.yul\":1377:1743   */\n    tag_43:\n        /* \"#utility.yul\":1519:1522   */\n      0x00\n        /* \"#utility.yul\":1540:1607   */\n      tag_64\n        /* \"#utility.yul\":1604:1606   */\n      0x22\n        /* \"#utility.yul\":1599:1602   */\n      dup4\n        /* \"#utility.yul\":1540:1607   */\n      tag_39\n      jump\t// in\n    tag_64:\n        /* \"#utility.yul\":1533:1607   */\n      swap2\n      pop\n        /* \"#utility.yul\":1616:1709   */\n      tag_65\n        /* \"#utility.yul\":1705:1708   */\n      dup3\n        /* \"#utility.yul\":1616:1709   */\n      tag_42\n      jump\t// in\n    tag_65:\n        /* \"#utility.yul\":1734:1736   */\n      0x40\n        /* \"#utility.yul\":1729:1732   */\n      dup3\n        /* \"#utility.yul\":1725:1737   */\n      add\n        /* \"#utility.yul\":1718:1737   */\n      swap1\n      pop\n        /* \"#utility.yul\":1377:1743   */\n      swap2\n      swap1\n      pop\n      jump\t// out\n        /* \"#utility.yul\":1749:2168   */\n    tag_12:\n        /* \"#utility.yul\":1915:1919   */\n      0x00\n        /* \"#utility.yul\":1953:1955   */\n      0x20\n        /* \"#utility.yul\":1942:1951   */\n      dup3\n        /* \"#utility.yul\":1938:1956   */\n      add\n        /* \"#utility.yul\":1930:1956   */\n      swap1\n      pop\n        /* \"#utility.yul\":2002:2011   */\n      dup2\n        /* \"#utility.yul\":1996:2000   */\n      dup2\n        /* \"#utility.yul\":1992:2012   */\n      sub\n        /* \"#utility.yul\":1988:1989   */\n      0x00\n        /* \"#utility.yul\":1977:1986   */\n      dup4\n        /* \"#utility.yul\":1973:1990   */\n      add\n        /* \"#utility.yul\":1966:2013   */\n      mstore\n        /* \"#utility.yul\":2030:2161   */\n      tag_67\n        /* \"#utility.yul\":2156:2160   */\n      dup2\n        /* \"#utility.yul\":2030:2161   */\n      tag_43\n      jump\t// in\n    tag_67:\n        /* \"#utility.yul\":2022:2161   */\n      swap1\n      pop\n        /* \"#utility.yul\":1749:2168   */\n      swap2\n      swap1\n      pop\n      jump\t// out\n        /* \"#utility.yul\":2174:2251   */\n    tag_44:\n        /* \"#utility.yul\":2211:2218   */\n      0x00\n        /* \"#utility.yul\":2240:2245   */\n      dup2\n        /* \"#utility.yul\":2229:2245   */\n      swap1\n      pop\n        /* \"#utility.yul\":2174:2251   */\n      swap2\n      swap1\n      pop\n      jump\t// out\n        /* \"#utility.yul\":2257:2375   */\n    tag_45:\n        /* \"#utility.yul\":2344:2368   */\n      tag_70\n        /* \"#utility.yul\":2362:2367   */\n      dup2\n        /* \"#utility.yul\":2344:2368   */\n      tag_44\n      jump\t// in\n    tag_70:\n        /* \"#utility.yul\":2339:2342   */\n      dup3\n        /* \"#utility.yul\":2332:2369   */\n      mstore\n        /* \"#utility.yul\":2257:2375   */\n      pop\n      pop\n      jump\t// out\n        /* \"#utility.yul\":2381:2603   */\n    tag_14:\n        /* \"#utility.yul\":2474:2478   */\n      0x00\n        /* \"#utility.yul\":2512:2514   */\n      0x20\n        /* \"#utility.yul\":2501:2510   */\n      dup3\n        /* \"#utility.yul\":2497:2515   */\n      add\n        /* \"#utility.yul\":2489:2515   */\n      swap1\n      pop\n        /* \"#utility.yul\":2525:2596   */\n      tag_72\n        /* \"#utility.yul\":2593:2594   */\n      0x00\n        /* \"#utility.yul\":2582:2591   */\n      dup4\n        /* \"#utility.yul\":2578:2595   */\n      add\n        /* \"#utility.yul\":2569:2575   */\n      dup5\n        /* \"#utility.yul\":2525:2596   */\n      tag_45\n      jump\t// in\n    tag_72:\n        /* \"#utility.yul\":2381:2603   */\n      swap3\n      swap2\n      pop\n      pop\n      jump\t// out\n        /* \"#utility.yul\":2609:2756   */\n    tag_46:\n        /* \"#utility.yul\":2710:2721   */\n      0x00\n        /* \"#utility.yul\":2747:2750   */\n      dup2\n        /* \"#utility.yul\":2732:2750   */\n      swap1\n      pop\n        /* \"#utility.yul\":2609:2756   */\n      swap3\n      swap2\n      pop\n      pop\n      jump\t// out\n        /* \"#utility.yul\":2762:2876   */\n    tag_47:\n      pop\n      jump\t// out\n        /* \"#utility.yul\":2882:3280   */\n    tag_48:\n        /* \"#utility.yul\":3041:3044   */\n      0x00\n        /* \"#utility.yul\":3062:3145   */\n      tag_76\n        /* \"#utility.yul\":3143:3144   */\n      0x00\n        /* \"#utility.yul\":3138:3141   */\n      dup4\n        /* \"#utility.yul\":3062:3145   */\n      tag_46\n      jump\t// in\n    tag_76:\n        /* \"#utility.yul\":3055:3145   */\n      swap2\n      pop\n        /* \"#utility.yul\":3154:3247   */\n      tag_77\n        /* \"#utility.yul\":3243:3246   */\n      dup3\n        /* \"#utility.yul\":3154:3247   */\n      tag_47\n      jump\t// in\n    tag_77:\n        /* \"#utility.yul\":3272:3273   */\n      0x00\n        /* \"#utility.yul\":3267:3270   */\n      dup3\n        /* \"#utility.yul\":3263:3274   */\n      add\n        /* \"#utility.yul\":3256:3274   */\n      swap1\n      pop\n        /* \"#utility.yul\":2882:3280   */\n      swap2\n      swap1\n      pop\n      jump\t// out\n        /* \"#utility.yul\":3286:3665   */\n    tag_17:\n        /* \"#utility.yul\":3470:3473   */\n      0x00\n        /* \"#utility.yul\":3492:3639   */\n      tag_79\n        /* \"#utility.yul\":3635:3638   */\n      dup3\n        /* \"#utility.yul\":3492:3639   */\n      tag_48\n      jump\t// in\n    tag_79:\n        /* \"#utility.yul\":3485:3639   */\n      swap2\n      pop\n        /* \"#utility.yul\":3656:3659   */\n      dup2\n        /* \"#utility.yul\":3649:3659   */\n      swap1\n      pop\n        /* \"#utility.yul\":3286:3665   */\n      swap2\n      swap1\n      pop\n      jump\t// out\n        /* \"#utility.yul\":3671:3834   */\n    tag_49:\n        /* \"#utility.yul\":3811:3826   */\n      0x4661696c656420746f2070617900000000000000000000000000000000000000\n        /* \"#utility.yul\":3807:3808   */\n      0x00\n        /* \"#utility.yul\":3799:3805   */\n      dup3\n        /* \"#utility.yul\":3795:3809   */\n      add\n        /* \"#utility.yul\":3788:3827   */\n      mstore\n        /* \"#utility.yul\":3671:3834   */\n      pop\n      jump\t// out\n        /* \"#utility.yul\":3840:4206   */\n    tag_50:\n        /* \"#utility.yul\":3982:3985   */\n      0x00\n        /* \"#utility.yul\":4003:4070   */\n      tag_82\n        /* \"#utility.yul\":4067:4069   */\n      0x0d\n        /* \"#utility.yul\":4062:4065   */\n      dup4\n        /* \"#utility.yul\":4003:4070   */\n      tag_39\n      jump\t// in\n    tag_82:\n        /* \"#utility.yul\":3996:4070   */\n      swap2\n      pop\n        /* \"#utility.yul\":4079:4172   */\n      tag_83\n        /* \"#utility.yul\":4168:4171   */\n      dup3\n        /* \"#utility.yul\":4079:4172   */\n      tag_49\n      jump\t// in\n    tag_83:\n        /* \"#utility.yul\":4197:4199   */\n      0x20\n        /* \"#utility.yul\":4192:4195   */\n      dup3\n        /* \"#utility.yul\":4188:4200   */\n      add\n        /* \"#utility.yul\":4181:4200   */\n      swap1\n      pop\n        /* \"#utility.yul\":3840:4206   */\n      swap2\n      swap1\n      pop\n      jump\t// out\n        /* \"#utility.yul\":4212:4631   */\n    tag_23:\n        /* \"#utility.yul\":4378:4382   */\n      0x00\n        /* \"#utility.yul\":4416:4418   */\n      0x20\n        /* \"#utility.yul\":4405:4414   */\n      dup3\n        /* \"#utility.yul\":4401:4419   */\n      add\n        /* \"#utility.yul\":4393:4419   */\n      swap1\n      pop\n        /* \"#utility.yul\":4465:4474   */\n      dup2\n        /* \"#utility.yul\":4459:4463   */\n      dup2\n        /* \"#utility.yul\":4455:4475   */\n      sub\n        /* \"#utility.yul\":4451:4452   */\n      0x00\n        /* \"#utility.yul\":4440:4449   */\n      dup4\n        /* \"#utility.yul\":4436:4453   */\n      add\n        /* \"#utility.yul\":4429:4476   */\n      mstore\n        /* \"#utility.yul\":4493:4624   */\n      tag_85\n        /* \"#utility.yul\":4619:4623   */\n      dup2\n        /* \"#utility.yul\":4493:4624   */\n      tag_50\n      jump\t// in\n    tag_85:\n        /* \"#utility.yul\":4485:4624   */\n      swap1\n      pop\n        /* \"#utility.yul\":4212:4631   */\n      swap2\n      swap1\n      pop\n      jump\t// out\n        /* \"#utility.yul\":4637:4817   */\n    tag_51:\n        /* \"#utility.yul\":4685:4762   */\n      0x4e487b7100000000000000000000000000000000000000000000000000000000\n        /* \"#utility.yul\":4682:4683   */\n      0x00\n        /* \"#utility.yul\":4675:4763   */\n      mstore\n        /* \"#utility.yul\":4782:4786   */\n      0x11\n        /* \"#utility.yul\":4779:4780   */\n      0x04\n        /* \"#utility.yul\":4772:4787   */\n      mstore\n        /* \"#utility.yul\":4806:4810   */\n      0x24\n        /* \"#utility.yul\":4803:4804   */\n      0x00\n        /* \"#utility.yul\":4796:4811   */\n      revert\n        /* \"#utility.yul\":4823:5056   */\n    tag_25:\n        /* \"#utility.yul\":4862:4865   */\n      0x00\n        /* \"#utility.yul\":4885:4909   */\n      tag_88\n        /* \"#utility.yul\":4903:4908   */\n      dup3\n        /* \"#utility.yul\":4885:4909   */\n      tag_44\n      jump\t// in\n    tag_88:\n        /* \"#utility.yul\":4876:4909   */\n      swap2\n      pop\n        /* \"#utility.yul\":4931:4997   */\n      0xffffffffffffffffffffffffffffffffffffffffffffffffffffffffffffffff\n        /* \"#utility.yul\":4924:4929   */\n      dup3\n        /* \"#utility.yul\":4921:4998   */\n      sub\n        /* \"#utility.yul\":4918:5021   */\n      tag_89\n      jumpi\n        /* \"#utility.yul\":5001:5019   */\n      tag_90\n      tag_51\n      jump\t// in\n    tag_90:\n        /* \"#utility.yul\":4918:5021   */\n    tag_89:\n        /* \"#utility.yul\":5048:5049   */\n      0x01\n        /* \"#utility.yul\":5041:5046   */\n      dup3\n        /* \"#utility.yul\":5037:5050   */\n      add\n        /* \"#utility.yul\":5030:5050   */\n      swap1\n      pop\n        /* \"#utility.yul\":4823:5056   */\n      swap2\n      swap1\n      pop\n      jump\t// out\n        /* \"#utility.yul\":5062:5242   */\n    tag_52:\n        /* \"#utility.yul\":5202:5234   */\n      0x4f6e6c79204f6e7765722063616e20636865636b207468652076616c75650000\n        /* \"#utility.yul\":5198:5199   */\n      0x00\n        /* \"#utility.yul\":5190:5196   */\n      dup3\n        /* \"#utility.yul\":5186:5200   */\n      add\n        /* \"#utility.yul\":5179:5235   */\n      mstore\n        /* \"#utility.yul\":5062:5242   */\n      pop\n      jump\t// out\n        /* \"#utility.yul\":5248:5614   */\n    tag_53:\n        /* \"#utility.yul\":5390:5393   */\n      0x00\n        /* \"#utility.yul\":5411:5478   */\n      tag_93\n        /* \"#utility.yul\":5475:5477   */\n      0x1e\n        /* \"#utility.yul\":5470:5473   */\n      dup4\n        /* \"#utility.yul\":5411:5478   */\n      tag_39\n      jump\t// in\n    tag_93:\n        /* \"#utility.yul\":5404:5478   */\n      swap2\n      pop\n        /* \"#utility.yul\":5487:5580   */\n      tag_94\n        /* \"#utility.yul\":5576:5579   */\n      dup3\n        /* \"#utility.yul\":5487:5580   */\n      tag_52\n      jump\t// in\n    tag_94:\n        /* \"#utility.yul\":5605:5607   */\n      0x20\n        /* \"#utility.yul\":5600:5603   */\n      dup3\n        /* \"#utility.yul\":5596:5608   */\n      add\n        /* \"#utility.yul\":5589:5608   */\n      swap1\n      pop\n        /* \"#utility.yul\":5248:5614   */\n      swap2\n      swap1\n      pop\n      jump\t// out\n        /* \"#utility.yul\":5620:6039   */\n    tag_37:\n        /* \"#utility.yul\":5786:5790   */\n      0x00\n        /* \"#utility.yul\":5824:5826   */\n      0x20\n        /* \"#utility.yul\":5813:5822   */\n      dup3\n        /* \"#utility.yul\":5809:5827   */\n      add\n        /* \"#utility.yul\":5801:5827   */\n      swap1\n      pop\n        /* \"#utility.yul\":5873:5882   */\n      dup2\n        /* \"#utility.yul\":5867:5871   */\n      dup2\n        /* \"#utility.yul\":5863:5883   */\n      sub\n        /* \"#utility.yul\":5859:5860   */\n      0x00\n        /* \"#utility.yul\":5848:5857   */\n      dup4\n        /* \"#utility.yul\":5844:5861   */\n      add\n        /* \"#utility.yul\":5837:5884   */\n      mstore\n        /* \"#utility.yul\":5901:6032   */\n      tag_96\n        /* \"#utility.yul\":6027:6031   */\n      dup2\n        /* \"#utility.yul\":5901:6032   */\n      tag_53\n      jump\t// in\n    tag_96:\n        /* \"#utility.yul\":5893:6032   */\n      swap1\n      pop\n        /* \"#utility.yul\":5620:6039   */\n      swap2\n      swap1\n      pop\n      jump\t// out\n\n    auxdata: 0xa264697066735822122052bcfd6403c15b6366bfb91d6f5881e3260a034edfc6cb7dc6008ec32a27739e64736f6c634300080d0033\n}\n",
				"bytecode": {
					"linkReferences": {},
					"object": "6080604052600160025534801561001557600080fd5b50336000806101000a81548173ffffffffffffffffffffffffffffffffffffffff021916908373ffffffffffffffffffffffffffffffffffffffff1602179055506106ba806100656000396000f3fe60806040526004361061002d5760003560e01c80635c681920146102b657806369bbe5c7146102e1576102b1565b366102b157670de0b6b3a7640000341461007c576040517f08c379a000000000000000000000000000000000000000000000000000000000815260040161007390610409565b60405180910390fd5b6000151560016000600254815260200190815260200160002060003373ffffffffffffffffffffffffffffffffffffffff1673ffffffffffffffffffffffffffffffffffffffff16815260200190815260200160002060009054906101000a900460ff16151514610122576040517f08c379a00000000000000000000000000000000000000000000000000000000081526004016101199061049b565b60405180910390fd5b6001806000600254815260200190815260200160002060003373ffffffffffffffffffffffffffffffffffffffff1673ffffffffffffffffffffffffffffffffffffffff16815260200190815260200160002060006101000a81548160ff0219169083151502179055503373ffffffffffffffffffffffffffffffffffffffff167f124914a3e6966a060a8132f2c609203a76d9b0cc2b5ba9e626df64525de4765c346040516101d291906104d4565b60405180910390a26729a2241af62c000047036102af5760003373ffffffffffffffffffffffffffffffffffffffff164760405161020f90610520565b60006040518083038185875af1925050503d806000811461024c576040519150601f19603f3d011682016040523d82523d6000602084013e610251565b606091505b5050905080610295576040517f08c379a000000000000000000000000000000000000000000000000000000000815260040161028c90610581565b60405180910390fd5b600260008154809291906102a8906105d0565b9190505550505b005b600080fd5b3480156102c257600080fd5b506102cb61030c565b6040516102d891906104d4565b60405180910390f35b3480156102ed57600080fd5b506102f66103a2565b60405161030391906104d4565b60405180910390f35b60003373ffffffffffffffffffffffffffffffffffffffff1660008054906101000a900473ffffffffffffffffffffffffffffffffffffffff1673ffffffffffffffffffffffffffffffffffffffff161461039c576040517f08c379a000000000000000000000000000000000000000000000000000000000815260040161039390610664565b60405180910390fd5b47905090565b6000600254905090565b600082825260208201905092915050565b7f4d75737420626520312065746865720000000000000000000000000000000000600082015250565b60006103f3600f836103ac565b91506103fe826103bd565b602082019050919050565b60006020820190508181036000830152610422816103e6565b9050919050565b7f4d7573742062652061206e657720706c6179657220696e20656163682067616d60008201527f652e000000000000000000000000000000000000000000000000000000000000602082015250565b60006104856022836103ac565b915061049082610429565b604082019050919050565b600060208201905081810360008301526104b481610478565b9050919050565b6000819050919050565b6104ce816104bb565b82525050565b60006020820190506104e960008301846104c5565b92915050565b600081905092915050565b50565b600061050a6000836104ef565b9150610515826104fa565b600082019050919050565b600061052b826104fd565b9150819050919050565b7f4661696c656420746f2070617900000000000000000000000000000000000000600082015250565b600061056b600d836103ac565b915061057682610535565b602082019050919050565b6000602082019050818103600083015261059a8161055e565b9050919050565b7f4e487b7100000000000000000000000000000000000000000000000000000000600052601160045260246000fd5b60006105db826104bb565b91507fffffffffffffffffffffffffffffffffffffffffffffffffffffffffffffffff820361060d5761060c6105a1565b5b600182019050919050565b7f4f6e6c79204f6e7765722063616e20636865636b207468652076616c75650000600082015250565b600061064e601e836103ac565b915061065982610618565b602082019050919050565b6000602082019050818103600083015261067d81610641565b905091905056fea264697066735822122052bcfd6403c15b6366bfb91d6f5881e3260a034edfc6cb7dc6008ec32a27739e64736f6c634300080d0033",
					"opcodes": "PUSH1 0x80 PUSH1 0x40 MSTORE PUSH1 0x1 PUSH1 0x2 SSTORE CALLVALUE DUP1 ISZERO PUSH2 0x15 JUMPI PUSH1 0x0 DUP1 REVERT JUMPDEST POP CALLER PUSH1 0x0 DUP1 PUSH2 0x100 EXP DUP2 SLOAD DUP2 PUSH20 0xFFFFFFFFFFFFFFFFFFFFFFFFFFFFFFFFFFFFFFFF MUL NOT AND SWAP1 DUP4 PUSH20 0xFFFFFFFFFFFFFFFFFFFFFFFFFFFFFFFFFFFFFFFF AND MUL OR SWAP1 SSTORE POP PUSH2 0x6BA DUP1 PUSH2 0x65 PUSH1 0x0 CODECOPY PUSH1 0x0 RETURN INVALID PUSH1 0x80 PUSH1 0x40 MSTORE PUSH1 0x4 CALLDATASIZE LT PUSH2 0x2D JUMPI PUSH1 0x0 CALLDATALOAD PUSH1 0xE0 SHR DUP1 PUSH4 0x5C681920 EQ PUSH2 0x2B6 JUMPI DUP1 PUSH4 0x69BBE5C7 EQ PUSH2 0x2E1 JUMPI PUSH2 0x2B1 JUMP JUMPDEST CALLDATASIZE PUSH2 0x2B1 JUMPI PUSH8 0xDE0B6B3A7640000 CALLVALUE EQ PUSH2 0x7C JUMPI PUSH1 0x40 MLOAD PUSH32 0x8C379A000000000000000000000000000000000000000000000000000000000 DUP2 MSTORE PUSH1 0x4 ADD PUSH2 0x73 SWAP1 PUSH2 0x409 JUMP JUMPDEST PUSH1 0x40 MLOAD DUP1 SWAP2 SUB SWAP1 REVERT JUMPDEST PUSH1 0x0 ISZERO ISZERO PUSH1 0x1 PUSH1 0x0 PUSH1 0x2 SLOAD DUP2 MSTORE PUSH1 0x20 ADD SWAP1 DUP2 MSTORE PUSH1 0x20 ADD PUSH1 0x0 KECCAK256 PUSH1 0x0 CALLER PUSH20 0xFFFFFFFFFFFFFFFFFFFFFFFFFFFFFFFFFFFFFFFF AND PUSH20 0xFFFFFFFFFFFFFFFFFFFFFFFFFFFFFFFFFFFFFFFF AND DUP2 MSTORE PUSH1 0x20 ADD SWAP1 DUP2 MSTORE PUSH1 0x20 ADD PUSH1 0x0 KECCAK256 PUSH1 0x0 SWAP1 SLOAD SWAP1 PUSH2 0x100 EXP SWAP1 DIV PUSH1 0xFF AND ISZERO ISZERO EQ PUSH2 0x122 JUMPI PUSH1 0x40 MLOAD PUSH32 0x8C379A000000000000000000000000000000000000000000000000000000000 DUP2 MSTORE PUSH1 0x4 ADD PUSH2 0x119 SWAP1 PUSH2 0x49B JUMP JUMPDEST PUSH1 0x40 MLOAD DUP1 SWAP2 SUB SWAP1 REVERT JUMPDEST PUSH1 0x1 DUP1 PUSH1 0x0 PUSH1 0x2 SLOAD DUP2 MSTORE PUSH1 0x20 ADD SWAP1 DUP2 MSTORE PUSH1 0x20 ADD PUSH1 0x0 KECCAK256 PUSH1 0x0 CALLER PUSH20 0xFFFFFFFFFFFFFFFFFFFFFFFFFFFFFFFFFFFFFFFF AND PUSH20 0xFFFFFFFFFFFFFFFFFFFFFFFFFFFFFFFFFFFFFFFF AND DUP2 MSTORE PUSH1 0x20 ADD SWAP1 DUP2 MSTORE PUSH1 0x20 ADD PUSH1 0x0 KECCAK256 PUSH1 0x0 PUSH2 0x100 EXP DUP2 SLOAD DUP2 PUSH1 0xFF MUL NOT AND SWAP1 DUP4 ISZERO ISZERO MUL OR SWAP1 SSTORE POP CALLER PUSH20 0xFFFFFFFFFFFFFFFFFFFFFFFFFFFFFFFFFFFFFFFF AND PUSH32 0x124914A3E6966A060A8132F2C609203A76D9B0CC2B5BA9E626DF64525DE4765C CALLVALUE PUSH1 0x40 MLOAD PUSH2 0x1D2 SWAP2 SWAP1 PUSH2 0x4D4 JUMP JUMPDEST PUSH1 0x40 MLOAD DUP1 SWAP2 SUB SWAP1 LOG2 PUSH8 0x29A2241AF62C0000 SELFBALANCE SUB PUSH2 0x2AF JUMPI PUSH1 0x0 CALLER PUSH20 0xFFFFFFFFFFFFFFFFFFFFFFFFFFFFFFFFFFFFFFFF AND SELFBALANCE PUSH1 0x40 MLOAD PUSH2 0x20F SWAP1 PUSH2 0x520 JUMP JUMPDEST PUSH1 0x0 PUSH1 0x40 MLOAD DUP1 DUP4 SUB DUP2 DUP6 DUP8 GAS CALL SWAP3 POP POP POP RETURNDATASIZE DUP1 PUSH1 0x0 DUP2 EQ PUSH2 0x24C JUMPI PUSH1 0x40 MLOAD SWAP2 POP PUSH1 0x1F NOT PUSH1 0x3F RETURNDATASIZE ADD AND DUP3 ADD PUSH1 0x40 MSTORE RETURNDATASIZE DUP3 MSTORE RETURNDATASIZE PUSH1 0x0 PUSH1 0x20 DUP5 ADD RETURNDATACOPY PUSH2 0x251 JUMP JUMPDEST PUSH1 0x60 SWAP2 POP JUMPDEST POP POP SWAP1 POP DUP1 PUSH2 0x295 JUMPI PUSH1 0x40 MLOAD PUSH32 0x8C379A000000000000000000000000000000000000000000000000000000000 DUP2 MSTORE PUSH1 0x4 ADD PUSH2 0x28C SWAP1 PUSH2 0x581 JUMP JUMPDEST PUSH1 0x40 MLOAD DUP1 SWAP2 SUB SWAP1 REVERT JUMPDEST PUSH1 0x2 PUSH1 0x0 DUP2 SLOAD DUP1 SWAP3 SWAP2 SWAP1 PUSH2 0x2A8 SWAP1 PUSH2 0x5D0 JUMP JUMPDEST SWAP2 SWAP1 POP SSTORE POP POP JUMPDEST STOP JUMPDEST PUSH1 0x0 DUP1 REVERT JUMPDEST CALLVALUE DUP1 ISZERO PUSH2 0x2C2 JUMPI PUSH1 0x0 DUP1 REVERT JUMPDEST POP PUSH2 0x2CB PUSH2 0x30C JUMP JUMPDEST PUSH1 0x40 MLOAD PUSH2 0x2D8 SWAP2 SWAP1 PUSH2 0x4D4 JUMP JUMPDEST PUSH1 0x40 MLOAD DUP1 SWAP2 SUB SWAP1 RETURN JUMPDEST CALLVALUE DUP1 ISZERO PUSH2 0x2ED JUMPI PUSH1 0x0 DUP1 REVERT JUMPDEST POP PUSH2 0x2F6 PUSH2 0x3A2 JUMP JUMPDEST PUSH1 0x40 MLOAD PUSH2 0x303 SWAP2 SWAP1 PUSH2 0x4D4 JUMP JUMPDEST PUSH1 0x40 MLOAD DUP1 SWAP2 SUB SWAP1 RETURN JUMPDEST PUSH1 0x0 CALLER PUSH20 0xFFFFFFFFFFFFFFFFFFFFFFFFFFFFFFFFFFFFFFFF AND PUSH1 0x0 DUP1 SLOAD SWAP1 PUSH2 0x100 EXP SWAP1 DIV PUSH20 0xFFFFFFFFFFFFFFFFFFFFFFFFFFFFFFFFFFFFFFFF AND PUSH20 0xFFFFFFFFFFFFFFFFFFFFFFFFFFFFFFFFFFFFFFFF AND EQ PUSH2 0x39C JUMPI PUSH1 0x40 MLOAD PUSH32 0x8C379A000000000000000000000000000000000000000000000000000000000 DUP2 MSTORE PUSH1 0x4 ADD PUSH2 0x393 SWAP1 PUSH2 0x664 JUMP JUMPDEST PUSH1 0x40 MLOAD DUP1 SWAP2 SUB SWAP1 REVERT JUMPDEST SELFBALANCE SWAP1 POP SWAP1 JUMP JUMPDEST PUSH1 0x0 PUSH1 0x2 SLOAD SWAP1 POP SWAP1 JUMP JUMPDEST PUSH1 0x0 DUP3 DUP3 MSTORE PUSH1 0x20 DUP3 ADD SWAP1 POP SWAP3 SWAP2 POP POP JUMP JUMPDEST PUSH32 0x4D75737420626520312065746865720000000000000000000000000000000000 PUSH1 0x0 DUP3 ADD MSTORE POP JUMP JUMPDEST PUSH1 0x0 PUSH2 0x3F3 PUSH1 0xF DUP4 PUSH2 0x3AC JUMP JUMPDEST SWAP2 POP PUSH2 0x3FE DUP3 PUSH2 0x3BD JUMP JUMPDEST PUSH1 0x20 DUP3 ADD SWAP1 POP SWAP2 SWAP1 POP JUMP JUMPDEST PUSH1 0x0 PUSH1 0x20 DUP3 ADD SWAP1 POP DUP2 DUP2 SUB PUSH1 0x0 DUP4 ADD MSTORE PUSH2 0x422 DUP2 PUSH2 0x3E6 JUMP JUMPDEST SWAP1 POP SWAP2 SWAP1 POP JUMP JUMPDEST PUSH32 0x4D7573742062652061206E657720706C6179657220696E20656163682067616D PUSH1 0x0 DUP3 ADD MSTORE PUSH32 0x652E000000000000000000000000000000000000000000000000000000000000 PUSH1 0x20 DUP3 ADD MSTORE POP JUMP JUMPDEST PUSH1 0x0 PUSH2 0x485 PUSH1 0x22 DUP4 PUSH2 0x3AC JUMP JUMPDEST SWAP2 POP PUSH2 0x490 DUP3 PUSH2 0x429 JUMP JUMPDEST PUSH1 0x40 DUP3 ADD SWAP1 POP SWAP2 SWAP1 POP JUMP JUMPDEST PUSH1 0x0 PUSH1 0x20 DUP3 ADD SWAP1 POP DUP2 DUP2 SUB PUSH1 0x0 DUP4 ADD MSTORE PUSH2 0x4B4 DUP2 PUSH2 0x478 JUMP JUMPDEST SWAP1 POP SWAP2 SWAP1 POP JUMP JUMPDEST PUSH1 0x0 DUP2 SWAP1 POP SWAP2 SWAP1 POP JUMP JUMPDEST PUSH2 0x4CE DUP2 PUSH2 0x4BB JUMP JUMPDEST DUP3 MSTORE POP POP JUMP JUMPDEST PUSH1 0x0 PUSH1 0x20 DUP3 ADD SWAP1 POP PUSH2 0x4E9 PUSH1 0x0 DUP4 ADD DUP5 PUSH2 0x4C5 JUMP JUMPDEST SWAP3 SWAP2 POP POP JUMP JUMPDEST PUSH1 0x0 DUP2 SWAP1 POP SWAP3 SWAP2 POP POP JUMP JUMPDEST POP JUMP JUMPDEST PUSH1 0x0 PUSH2 0x50A PUSH1 0x0 DUP4 PUSH2 0x4EF JUMP JUMPDEST SWAP2 POP PUSH2 0x515 DUP3 PUSH2 0x4FA JUMP JUMPDEST PUSH1 0x0 DUP3 ADD SWAP1 POP SWAP2 SWAP1 POP JUMP JUMPDEST PUSH1 0x0 PUSH2 0x52B DUP3 PUSH2 0x4FD JUMP JUMPDEST SWAP2 POP DUP2 SWAP1 POP SWAP2 SWAP1 POP JUMP JUMPDEST PUSH32 0x4661696C656420746F2070617900000000000000000000000000000000000000 PUSH1 0x0 DUP3 ADD MSTORE POP JUMP JUMPDEST PUSH1 0x0 PUSH2 0x56B PUSH1 0xD DUP4 PUSH2 0x3AC JUMP JUMPDEST SWAP2 POP PUSH2 0x576 DUP3 PUSH2 0x535 JUMP JUMPDEST PUSH1 0x20 DUP3 ADD SWAP1 POP SWAP2 SWAP1 POP JUMP JUMPDEST PUSH1 0x0 PUSH1 0x20 DUP3 ADD SWAP1 POP DUP2 DUP2 SUB PUSH1 0x0 DUP4 ADD MSTORE PUSH2 0x59A DUP2 PUSH2 0x55E JUMP JUMPDEST SWAP1 POP SWAP2 SWAP1 POP JUMP JUMPDEST PUSH32 0x4E487B7100000000000000000000000000000000000000000000000000000000 PUSH1 0x0 MSTORE PUSH1 0x11 PUSH1 0x4 MSTORE PUSH1 0x24 PUSH1 0x0 REVERT JUMPDEST PUSH1 0x0 PUSH2 0x5DB DUP3 PUSH2 0x4BB JUMP JUMPDEST SWAP2 POP PUSH32 0xFFFFFFFFFFFFFFFFFFFFFFFFFFFFFFFFFFFFFFFFFFFFFFFFFFFFFFFFFFFFFFFF DUP3 SUB PUSH2 0x60D JUMPI PUSH2 0x60C PUSH2 0x5A1 JUMP JUMPDEST JUMPDEST PUSH1 0x1 DUP3 ADD SWAP1 POP SWAP2 SWAP1 POP JUMP JUMPDEST PUSH32 0x4F6E6C79204F6E7765722063616E20636865636B207468652076616C75650000 PUSH1 0x0 DUP3 ADD MSTORE POP JUMP JUMPDEST PUSH1 0x0 PUSH2 0x64E PUSH1 0x1E DUP4 PUSH2 0x3AC JUMP JUMPDEST SWAP2 POP PUSH2 0x659 DUP3 PUSH2 0x618 JUMP JUMPDEST PUSH1 0x20 DUP3 ADD SWAP1 POP SWAP2 SWAP1 POP JUMP JUMPDEST PUSH1 0x0 PUSH1 0x20 DUP3 ADD SWAP1 POP DUP2 DUP2 SUB PUSH1 0x0 DUP4 ADD MSTORE PUSH2 0x67D DUP2 PUSH2 0x641 JUMP JUMPDEST SWAP1 POP SWAP2 SWAP1 POP JUMP INVALID LOG2 PUSH5 0x6970667358 0x22 SLT KECCAK256 MSTORE 0xBC REVERT PUSH5 0x3C15B6366 0xBF 0xB9 SAR PUSH16 0x5881E3260A034EDFC6CB7DC6008EC32A 0x27 PUSH20 0x9E64736F6C634300080D00330000000000000000 "
				},
				"gasEstimates": {
					"creation": {
						"codeDepositCost": "344400",
						"executionCost": "46752",
						"totalCost": "391152"
					},
					"external": {
						"checkRound()": "2437",
						"checkValue()": "2581"
					}
				},
				"methodIdentifiers": {
					"checkRound()": "69bbe5c7",
					"checkValue()": "5c681920"
				}
			},
			"userdoc": {
				"kind": "user",
				"methods": {},
				"version": 1
			}
		}
	}
}