{
	".workspaces/default_workspace/lecture/twoTimeMapping.sol": {
		"twoTimeMappintC": {
			"abi": [
				{
					"inputs": [
						{
							"internalType": "uint256",
							"name": "id",
							"type": "uint256"
						},
						{
							"internalType": "uint256",
							"name": "time",
							"type": "uint256"
						}
					],
					"name": "getrec",
					"outputs": [
						{
							"components": [
								{
									"internalType": "string",
									"name": "name",
									"type": "string"
								},
								{
									"internalType": "string",
									"name": "senderaddress",
									"type": "string"
								},
								{
									"internalType": "string",
									"name": "reciveraddress",
									"type": "string"
								},
								{
									"internalType": "string",
									"name": "scheduletime",
									"type": "string"
								},
								{
									"internalType": "string",
									"name": "scheduledate",
									"type": "string"
								},
								{
									"internalType": "uint256",
									"name": "time",
									"type": "uint256"
								}
							],
							"internalType": "struct twoTimeMappintC.Record",
							"name": "",
							"type": "tuple"
						}
					],
					"stateMutability": "view",
					"type": "function"
				}
			],
			"devdoc": {
				"kind": "dev",
				"methods": {},
				"version": 1
			},
			"evm": {
				"assembly": "    /* \".workspaces/default_workspace/lecture/twoTimeMapping.sol\":73:1143  contract twoTimeMappintC {... */\n  mstore(0x40, 0x80)\n  callvalue\n  dup1\n  iszero\n  tag_1\n  jumpi\n  0x00\n  dup1\n  revert\ntag_1:\n  pop\n  dataSize(sub_0)\n  dup1\n  dataOffset(sub_0)\n  0x00\n  codecopy\n  0x00\n  return\nstop\n\nsub_0: assembly {\n        /* \".workspaces/default_workspace/lecture/twoTimeMapping.sol\":73:1143  contract twoTimeMappintC {... */\n      mstore(0x40, 0x80)\n      callvalue\n      dup1\n      iszero\n      tag_1\n      jumpi\n      0x00\n      dup1\n      revert\n    tag_1:\n      pop\n      jumpi(tag_2, lt(calldatasize, 0x04))\n      shr(0xe0, calldataload(0x00))\n      dup1\n      0x75b42f59\n      eq\n      tag_3\n      jumpi\n    tag_2:\n      0x00\n      dup1\n      revert\n        /* \".workspaces/default_workspace/lecture/twoTimeMapping.sol\":521:1140  function getrec(uint id , uint time) public view returns (Record memory ) {... */\n    tag_3:\n      tag_4\n      0x04\n      dup1\n      calldatasize\n      sub\n      dup2\n      add\n      swap1\n      tag_5\n      swap2\n      swap1\n      tag_6\n      jump\t// in\n    tag_5:\n      tag_7\n      jump\t// in\n    tag_4:\n      mload(0x40)\n      tag_8\n      swap2\n      swap1\n      tag_9\n      jump\t// in\n    tag_8:\n      mload(0x40)\n      dup1\n      swap2\n      sub\n      swap1\n      return\n    tag_7:\n        /* \".workspaces/default_workspace/lecture/twoTimeMapping.sol\":579:592  Record memory */\n      tag_10\n      tag_11\n      jump\t// in\n    tag_10:\n        /* \".workspaces/default_workspace/lecture/twoTimeMapping.sol\":605:615  uint index */\n      0x00\n        /* \".workspaces/default_workspace/lecture/twoTimeMapping.sol\":618:629  recordIndex */\n      dup1\n        /* \".workspaces/default_workspace/lecture/twoTimeMapping.sol\":618:633  recordIndex[id] */\n      0x00\n        /* \".workspaces/default_workspace/lecture/twoTimeMapping.sol\":630:632  id */\n      dup6\n        /* \".workspaces/default_workspace/lecture/twoTimeMapping.sol\":618:633  recordIndex[id] */\n      dup2\n      mstore\n      0x20\n      add\n      swap1\n      dup2\n      mstore\n      0x20\n      add\n      0x00\n      keccak256\n        /* \".workspaces/default_workspace/lecture/twoTimeMapping.sol\":618:639  recordIndex[id][time] */\n      0x00\n        /* \".workspaces/default_workspace/lecture/twoTimeMapping.sol\":634:638  time */\n      dup5\n        /* \".workspaces/default_workspace/lecture/twoTimeMapping.sol\":618:639  recordIndex[id][time] */\n      dup2\n      mstore\n      0x20\n      add\n      swap1\n      dup2\n      mstore\n      0x20\n      add\n      0x00\n      keccak256\n      sload\n        /* \".workspaces/default_workspace/lecture/twoTimeMapping.sol\":605:639  uint index = recordIndex[id][time] */\n      swap1\n      pop\n        /* \".workspaces/default_workspace/lecture/twoTimeMapping.sol\":721:722  0 */\n      0x00\n        /* \".workspaces/default_workspace/lecture/twoTimeMapping.sol\":713:718  index */\n      dup2\n        /* \".workspaces/default_workspace/lecture/twoTimeMapping.sol\":713:722  index > 0 */\n      gt\n        /* \".workspaces/default_workspace/lecture/twoTimeMapping.sol\":705:739  require(index > 0, \"invalid time\") */\n      tag_13\n      jumpi\n      mload(0x40)\n      0x08c379a000000000000000000000000000000000000000000000000000000000\n      dup2\n      mstore\n      0x04\n      add\n      tag_14\n      swap1\n      tag_15\n      jump\t// in\n    tag_14:\n      mload(0x40)\n      dup1\n      swap2\n      sub\n      swap1\n      revert\n    tag_13:\n        /* \".workspaces/default_workspace/lecture/twoTimeMapping.sol\":758:759  1 */\n      0x01\n        /* \".workspaces/default_workspace/lecture/twoTimeMapping.sol\":749:759  index -= 1 */\n      dup2\n      tag_16\n      swap2\n      swap1\n      tag_17\n      jump\t// in\n    tag_16:\n      swap1\n      pop\n        /* \".workspaces/default_workspace/lecture/twoTimeMapping.sol\":769:784  string memory a */\n      0x00\n        /* \".workspaces/default_workspace/lecture/twoTimeMapping.sol\":787:794  records */\n      0x01\n        /* \".workspaces/default_workspace/lecture/twoTimeMapping.sol\":787:798  records[id] */\n      0x00\n        /* \".workspaces/default_workspace/lecture/twoTimeMapping.sol\":795:797  id */\n      dup7\n        /* \".workspaces/default_workspace/lecture/twoTimeMapping.sol\":787:798  records[id] */\n      dup2\n      mstore\n      0x20\n      add\n      swap1\n      dup2\n      mstore\n      0x20\n      add\n      0x00\n      keccak256\n        /* \".workspaces/default_workspace/lecture/twoTimeMapping.sol\":799:804  index */\n      dup3\n        /* \".workspaces/default_workspace/lecture/twoTimeMapping.sol\":787:805  records[id][index] */\n      dup2\n      sload\n      dup2\n      lt\n      tag_18\n      jumpi\n      tag_19\n      tag_20\n      jump\t// in\n    tag_19:\n    tag_18:\n      swap1\n      0x00\n      mstore\n      keccak256(0x00, 0x20)\n      swap1\n      0x06\n      mul\n      add\n        /* \".workspaces/default_workspace/lecture/twoTimeMapping.sol\":787:810  records[id][index].name */\n      0x00\n      add\n        /* \".workspaces/default_workspace/lecture/twoTimeMapping.sol\":769:810  string memory a = records[id][index].name */\n      dup1\n      sload\n      tag_22\n      swap1\n      tag_23\n      jump\t// in\n    tag_22:\n      dup1\n      0x1f\n      add\n      0x20\n      dup1\n      swap2\n      div\n      mul\n      0x20\n      add\n      mload(0x40)\n      swap1\n      dup2\n      add\n      0x40\n      mstore\n      dup1\n      swap3\n      swap2\n      swap1\n      dup2\n      dup2\n      mstore\n      0x20\n      add\n      dup3\n      dup1\n      sload\n      tag_24\n      swap1\n      tag_23\n      jump\t// in\n    tag_24:\n      dup1\n      iszero\n      tag_25\n      jumpi\n      dup1\n      0x1f\n      lt\n      tag_26\n      jumpi\n      0x0100\n      dup1\n      dup4\n      sload\n      div\n      mul\n      dup4\n      mstore\n      swap2\n      0x20\n      add\n      swap2\n      jump(tag_25)\n    tag_26:\n      dup3\n      add\n      swap2\n      swap1\n      0x00\n      mstore\n      keccak256(0x00, 0x20)\n      swap1\n    tag_27:\n      dup2\n      sload\n      dup2\n      mstore\n      swap1\n      0x01\n      add\n      swap1\n      0x20\n      add\n      dup1\n      dup4\n      gt\n      tag_27\n      jumpi\n      dup3\n      swap1\n      sub\n      0x1f\n      and\n      dup3\n      add\n      swap2\n    tag_25:\n      pop\n      pop\n      pop\n      pop\n      pop\n      swap1\n      pop\n        /* \".workspaces/default_workspace/lecture/twoTimeMapping.sol\":820:835  string memory b */\n      0x00\n        /* \".workspaces/default_workspace/lecture/twoTimeMapping.sol\":838:845  records */\n      0x01\n        /* \".workspaces/default_workspace/lecture/twoTimeMapping.sol\":838:849  records[id] */\n      0x00\n        /* \".workspaces/default_workspace/lecture/twoTimeMapping.sol\":846:848  id */\n      dup8\n        /* \".workspaces/default_workspace/lecture/twoTimeMapping.sol\":838:849  records[id] */\n      dup2\n      mstore\n      0x20\n      add\n      swap1\n      dup2\n      mstore\n      0x20\n      add\n      0x00\n      keccak256\n        /* \".workspaces/default_workspace/lecture/twoTimeMapping.sol\":850:855  index */\n      dup4\n        /* \".workspaces/default_workspace/lecture/twoTimeMapping.sol\":838:856  records[id][index] */\n      dup2\n      sload\n      dup2\n      lt\n      tag_28\n      jumpi\n      tag_29\n      tag_20\n      jump\t// in\n    tag_29:\n    tag_28:\n      swap1\n      0x00\n      mstore\n      keccak256(0x00, 0x20)\n      swap1\n      0x06\n      mul\n      add\n        /* \".workspaces/default_workspace/lecture/twoTimeMapping.sol\":838:870  records[id][index].senderaddress */\n      0x01\n      add\n        /* \".workspaces/default_workspace/lecture/twoTimeMapping.sol\":820:870  string memory b = records[id][index].senderaddress */\n      dup1\n      sload\n      tag_31\n      swap1\n      tag_23\n      jump\t// in\n    tag_31:\n      dup1\n      0x1f\n      add\n      0x20\n      dup1\n      swap2\n      div\n      mul\n      0x20\n      add\n      mload(0x40)\n      swap1\n      dup2\n      add\n      0x40\n      mstore\n      dup1\n      swap3\n      swap2\n      swap1\n      dup2\n      dup2\n      mstore\n      0x20\n      add\n      dup3\n      dup1\n      sload\n      tag_32\n      swap1\n      tag_23\n      jump\t// in\n    tag_32:\n      dup1\n      iszero\n      tag_33\n      jumpi\n      dup1\n      0x1f\n      lt\n      tag_34\n      jumpi\n      0x0100\n      dup1\n      dup4\n      sload\n      div\n      mul\n      dup4\n      mstore\n      swap2\n      0x20\n      add\n      swap2\n      jump(tag_33)\n    tag_34:\n      dup3\n      add\n      swap2\n      swap1\n      0x00\n      mstore\n      keccak256(0x00, 0x20)\n      swap1\n    tag_35:\n      dup2\n      sload\n      dup2\n      mstore\n      swap1\n      0x01\n      add\n      swap1\n      0x20\n      add\n      dup1\n      dup4\n      gt\n      tag_35\n      jumpi\n      dup3\n      swap1\n      sub\n      0x1f\n      and\n      dup3\n      add\n      swap2\n    tag_33:\n      pop\n      pop\n      pop\n      pop\n      pop\n      swap1\n      pop\n        /* \".workspaces/default_workspace/lecture/twoTimeMapping.sol\":880:895  string memory c */\n      0x00\n        /* \".workspaces/default_workspace/lecture/twoTimeMapping.sol\":898:905  records */\n      0x01\n        /* \".workspaces/default_workspace/lecture/twoTimeMapping.sol\":898:909  records[id] */\n      0x00\n        /* \".workspaces/default_workspace/lecture/twoTimeMapping.sol\":906:908  id */\n      dup9\n        /* \".workspaces/default_workspace/lecture/twoTimeMapping.sol\":898:909  records[id] */\n      dup2\n      mstore\n      0x20\n      add\n      swap1\n      dup2\n      mstore\n      0x20\n      add\n      0x00\n      keccak256\n        /* \".workspaces/default_workspace/lecture/twoTimeMapping.sol\":910:915  index */\n      dup5\n        /* \".workspaces/default_workspace/lecture/twoTimeMapping.sol\":898:916  records[id][index] */\n      dup2\n      sload\n      dup2\n      lt\n      tag_36\n      jumpi\n      tag_37\n      tag_20\n      jump\t// in\n    tag_37:\n    tag_36:\n      swap1\n      0x00\n      mstore\n      keccak256(0x00, 0x20)\n      swap1\n      0x06\n      mul\n      add\n        /* \".workspaces/default_workspace/lecture/twoTimeMapping.sol\":898:931  records[id][index].reciveraddress */\n      0x02\n      add\n        /* \".workspaces/default_workspace/lecture/twoTimeMapping.sol\":880:931  string memory c = records[id][index].reciveraddress */\n      dup1\n      sload\n      tag_39\n      swap1\n      tag_23\n      jump\t// in\n    tag_39:\n      dup1\n      0x1f\n      add\n      0x20\n      dup1\n      swap2\n      div\n      mul\n      0x20\n      add\n      mload(0x40)\n      swap1\n      dup2\n      add\n      0x40\n      mstore\n      dup1\n      swap3\n      swap2\n      swap1\n      dup2\n      dup2\n      mstore\n      0x20\n      add\n      dup3\n      dup1\n      sload\n      tag_40\n      swap1\n      tag_23\n      jump\t// in\n    tag_40:\n      dup1\n      iszero\n      tag_41\n      jumpi\n      dup1\n      0x1f\n      lt\n      tag_42\n      jumpi\n      0x0100\n      dup1\n      dup4\n      sload\n      div\n      mul\n      dup4\n      mstore\n      swap2\n      0x20\n      add\n      swap2\n      jump(tag_41)\n    tag_42:\n      dup3\n      add\n      swap2\n      swap1\n      0x00\n      mstore\n      keccak256(0x00, 0x20)\n      swap1\n    tag_43:\n      dup2\n      sload\n      dup2\n      mstore\n      swap1\n      0x01\n      add\n      swap1\n      0x20\n      add\n      dup1\n      dup4\n      gt\n      tag_43\n      jumpi\n      dup3\n      swap1\n      sub\n      0x1f\n      and\n      dup3\n      add\n      swap2\n    tag_41:\n      pop\n      pop\n      pop\n      pop\n      pop\n      swap1\n      pop\n        /* \".workspaces/default_workspace/lecture/twoTimeMapping.sol\":941:956  string memory d */\n      0x00\n        /* \".workspaces/default_workspace/lecture/twoTimeMapping.sol\":959:966  records */\n      0x01\n        /* \".workspaces/default_workspace/lecture/twoTimeMapping.sol\":959:970  records[id] */\n      0x00\n        /* \".workspaces/default_workspace/lecture/twoTimeMapping.sol\":967:969  id */\n      dup10\n        /* \".workspaces/default_workspace/lecture/twoTimeMapping.sol\":959:970  records[id] */\n      dup2\n      mstore\n      0x20\n      add\n      swap1\n      dup2\n      mstore\n      0x20\n      add\n      0x00\n      keccak256\n        /* \".workspaces/default_workspace/lecture/twoTimeMapping.sol\":971:976  index */\n      dup6\n        /* \".workspaces/default_workspace/lecture/twoTimeMapping.sol\":959:977  records[id][index] */\n      dup2\n      sload\n      dup2\n      lt\n      tag_44\n      jumpi\n      tag_45\n      tag_20\n      jump\t// in\n    tag_45:\n    tag_44:\n      swap1\n      0x00\n      mstore\n      keccak256(0x00, 0x20)\n      swap1\n      0x06\n      mul\n      add\n        /* \".workspaces/default_workspace/lecture/twoTimeMapping.sol\":959:990  records[id][index].scheduletime */\n      0x03\n      add\n        /* \".workspaces/default_workspace/lecture/twoTimeMapping.sol\":941:990  string memory d = records[id][index].scheduletime */\n      dup1\n      sload\n      tag_47\n      swap1\n      tag_23\n      jump\t// in\n    tag_47:\n      dup1\n      0x1f\n      add\n      0x20\n      dup1\n      swap2\n      div\n      mul\n      0x20\n      add\n      mload(0x40)\n      swap1\n      dup2\n      add\n      0x40\n      mstore\n      dup1\n      swap3\n      swap2\n      swap1\n      dup2\n      dup2\n      mstore\n      0x20\n      add\n      dup3\n      dup1\n      sload\n      tag_48\n      swap1\n      tag_23\n      jump\t// in\n    tag_48:\n      dup1\n      iszero\n      tag_49\n      jumpi\n      dup1\n      0x1f\n      lt\n      tag_50\n      jumpi\n      0x0100\n      dup1\n      dup4\n      sload\n      div\n      mul\n      dup4\n      mstore\n      swap2\n      0x20\n      add\n      swap2\n      jump(tag_49)\n    tag_50:\n      dup3\n      add\n      swap2\n      swap1\n      0x00\n      mstore\n      keccak256(0x00, 0x20)\n      swap1\n    tag_51:\n      dup2\n      sload\n      dup2\n      mstore\n      swap1\n      0x01\n      add\n      swap1\n      0x20\n      add\n      dup1\n      dup4\n      gt\n      tag_51\n      jumpi\n      dup3\n      swap1\n      sub\n      0x1f\n      and\n      dup3\n      add\n      swap2\n    tag_49:\n      pop\n      pop\n      pop\n      pop\n      pop\n      swap1\n      pop\n        /* \".workspaces/default_workspace/lecture/twoTimeMapping.sol\":1000:1015  string memory e */\n      0x00\n        /* \".workspaces/default_workspace/lecture/twoTimeMapping.sol\":1018:1025  records */\n      0x01\n        /* \".workspaces/default_workspace/lecture/twoTimeMapping.sol\":1018:1029  records[id] */\n      0x00\n        /* \".workspaces/default_workspace/lecture/twoTimeMapping.sol\":1026:1028  id */\n      dup11\n        /* \".workspaces/default_workspace/lecture/twoTimeMapping.sol\":1018:1029  records[id] */\n      dup2\n      mstore\n      0x20\n      add\n      swap1\n      dup2\n      mstore\n      0x20\n      add\n      0x00\n      keccak256\n        /* \".workspaces/default_workspace/lecture/twoTimeMapping.sol\":1030:1035  index */\n      dup7\n        /* \".workspaces/default_workspace/lecture/twoTimeMapping.sol\":1018:1036  records[id][index] */\n      dup2\n      sload\n      dup2\n      lt\n      tag_52\n      jumpi\n      tag_53\n      tag_20\n      jump\t// in\n    tag_53:\n    tag_52:\n      swap1\n      0x00\n      mstore\n      keccak256(0x00, 0x20)\n      swap1\n      0x06\n      mul\n      add\n        /* \".workspaces/default_workspace/lecture/twoTimeMapping.sol\":1018:1049  records[id][index].scheduledate */\n      0x04\n      add\n        /* \".workspaces/default_workspace/lecture/twoTimeMapping.sol\":1000:1049  string memory e = records[id][index].scheduledate */\n      dup1\n      sload\n      tag_55\n      swap1\n      tag_23\n      jump\t// in\n    tag_55:\n      dup1\n      0x1f\n      add\n      0x20\n      dup1\n      swap2\n      div\n      mul\n      0x20\n      add\n      mload(0x40)\n      swap1\n      dup2\n      add\n      0x40\n      mstore\n      dup1\n      swap3\n      swap2\n      swap1\n      dup2\n      dup2\n      mstore\n      0x20\n      add\n      dup3\n      dup1\n      sload\n      tag_56\n      swap1\n      tag_23\n      jump\t// in\n    tag_56:\n      dup1\n      iszero\n      tag_57\n      jumpi\n      dup1\n      0x1f\n      lt\n      tag_58\n      jumpi\n      0x0100\n      dup1\n      dup4\n      sload\n      div\n      mul\n      dup4\n      mstore\n      swap2\n      0x20\n      add\n      swap2\n      jump(tag_57)\n    tag_58:\n      dup3\n      add\n      swap2\n      swap1\n      0x00\n      mstore\n      keccak256(0x00, 0x20)\n      swap1\n    tag_59:\n      dup2\n      sload\n      dup2\n      mstore\n      swap1\n      0x01\n      add\n      swap1\n      0x20\n      add\n      dup1\n      dup4\n      gt\n      tag_59\n      jumpi\n      dup3\n      swap1\n      sub\n      0x1f\n      and\n      dup3\n      add\n      swap2\n    tag_57:\n      pop\n      pop\n      pop\n      pop\n      pop\n      swap1\n      pop\n        /* \".workspaces/default_workspace/lecture/twoTimeMapping.sol\":1059:1065  uint f */\n      0x00\n        /* \".workspaces/default_workspace/lecture/twoTimeMapping.sol\":1068:1075  records */\n      0x01\n        /* \".workspaces/default_workspace/lecture/twoTimeMapping.sol\":1068:1079  records[id] */\n      0x00\n        /* \".workspaces/default_workspace/lecture/twoTimeMapping.sol\":1076:1078  id */\n      dup12\n        /* \".workspaces/default_workspace/lecture/twoTimeMapping.sol\":1068:1079  records[id] */\n      dup2\n      mstore\n      0x20\n      add\n      swap1\n      dup2\n      mstore\n      0x20\n      add\n      0x00\n      keccak256\n        /* \".workspaces/default_workspace/lecture/twoTimeMapping.sol\":1080:1085  index */\n      dup8\n        /* \".workspaces/default_workspace/lecture/twoTimeMapping.sol\":1068:1086  records[id][index] */\n      dup2\n      sload\n      dup2\n      lt\n      tag_60\n      jumpi\n      tag_61\n      tag_20\n      jump\t// in\n    tag_61:\n    tag_60:\n      swap1\n      0x00\n      mstore\n      keccak256(0x00, 0x20)\n      swap1\n      0x06\n      mul\n      add\n        /* \".workspaces/default_workspace/lecture/twoTimeMapping.sol\":1068:1091  records[id][index].time */\n      0x05\n      add\n      sload\n        /* \".workspaces/default_workspace/lecture/twoTimeMapping.sol\":1059:1091  uint f = records[id][index].time */\n      swap1\n      pop\n        /* \".workspaces/default_workspace/lecture/twoTimeMapping.sol\":1109:1133  Record(a, b, c, d, e, f) */\n      mload(0x40)\n      dup1\n      0xc0\n      add\n      0x40\n      mstore\n      dup1\n        /* \".workspaces/default_workspace/lecture/twoTimeMapping.sol\":1116:1117  a */\n      dup8\n        /* \".workspaces/default_workspace/lecture/twoTimeMapping.sol\":1109:1133  Record(a, b, c, d, e, f) */\n      dup2\n      mstore\n      0x20\n      add\n        /* \".workspaces/default_workspace/lecture/twoTimeMapping.sol\":1119:1120  b */\n      dup7\n        /* \".workspaces/default_workspace/lecture/twoTimeMapping.sol\":1109:1133  Record(a, b, c, d, e, f) */\n      dup2\n      mstore\n      0x20\n      add\n        /* \".workspaces/default_workspace/lecture/twoTimeMapping.sol\":1122:1123  c */\n      dup6\n        /* \".workspaces/default_workspace/lecture/twoTimeMapping.sol\":1109:1133  Record(a, b, c, d, e, f) */\n      dup2\n      mstore\n      0x20\n      add\n        /* \".workspaces/default_workspace/lecture/twoTimeMapping.sol\":1125:1126  d */\n      dup5\n        /* \".workspaces/default_workspace/lecture/twoTimeMapping.sol\":1109:1133  Record(a, b, c, d, e, f) */\n      dup2\n      mstore\n      0x20\n      add\n        /* \".workspaces/default_workspace/lecture/twoTimeMapping.sol\":1128:1129  e */\n      dup4\n        /* \".workspaces/default_workspace/lecture/twoTimeMapping.sol\":1109:1133  Record(a, b, c, d, e, f) */\n      dup2\n      mstore\n      0x20\n      add\n        /* \".workspaces/default_workspace/lecture/twoTimeMapping.sol\":1131:1132  f */\n      dup3\n        /* \".workspaces/default_workspace/lecture/twoTimeMapping.sol\":1109:1133  Record(a, b, c, d, e, f) */\n      dup2\n      mstore\n      pop\n        /* \".workspaces/default_workspace/lecture/twoTimeMapping.sol\":1102:1133  return Record(a, b, c, d, e, f) */\n      swap8\n      pop\n      pop\n      pop\n      pop\n      pop\n      pop\n      pop\n      pop\n        /* \".workspaces/default_workspace/lecture/twoTimeMapping.sol\":521:1140  function getrec(uint id , uint time) public view returns (Record memory ) {... */\n      swap3\n      swap2\n      pop\n      pop\n      jump\t// out\n    tag_11:\n      mload(0x40)\n      dup1\n      0xc0\n      add\n      0x40\n      mstore\n      dup1\n      0x60\n      dup2\n      mstore\n      0x20\n      add\n      0x60\n      dup2\n      mstore\n      0x20\n      add\n      0x60\n      dup2\n      mstore\n      0x20\n      add\n      0x60\n      dup2\n      mstore\n      0x20\n      add\n      0x60\n      dup2\n      mstore\n      0x20\n      add\n      0x00\n      dup2\n      mstore\n      pop\n      swap1\n      jump\t// out\n        /* \"#utility.yul\":88:205   */\n    tag_64:\n        /* \"#utility.yul\":197:198   */\n      0x00\n        /* \"#utility.yul\":194:195   */\n      dup1\n        /* \"#utility.yul\":187:199   */\n      revert\n        /* \"#utility.yul\":334:411   */\n    tag_66:\n        /* \"#utility.yul\":371:378   */\n      0x00\n        /* \"#utility.yul\":400:405   */\n      dup2\n        /* \"#utility.yul\":389:405   */\n      swap1\n      pop\n        /* \"#utility.yul\":334:411   */\n      swap2\n      swap1\n      pop\n      jump\t// out\n        /* \"#utility.yul\":417:539   */\n    tag_67:\n        /* \"#utility.yul\":490:514   */\n      tag_87\n        /* \"#utility.yul\":508:513   */\n      dup2\n        /* \"#utility.yul\":490:514   */\n      tag_66\n      jump\t// in\n    tag_87:\n        /* \"#utility.yul\":483:488   */\n      dup2\n        /* \"#utility.yul\":480:515   */\n      eq\n        /* \"#utility.yul\":470:533   */\n      tag_88\n      jumpi\n        /* \"#utility.yul\":529:530   */\n      0x00\n        /* \"#utility.yul\":526:527   */\n      dup1\n        /* \"#utility.yul\":519:531   */\n      revert\n        /* \"#utility.yul\":470:533   */\n    tag_88:\n        /* \"#utility.yul\":417:539   */\n      pop\n      jump\t// out\n        /* \"#utility.yul\":545:684   */\n    tag_68:\n        /* \"#utility.yul\":591:596   */\n      0x00\n        /* \"#utility.yul\":629:635   */\n      dup2\n        /* \"#utility.yul\":616:636   */\n      calldataload\n        /* \"#utility.yul\":607:636   */\n      swap1\n      pop\n        /* \"#utility.yul\":645:678   */\n      tag_90\n        /* \"#utility.yul\":672:677   */\n      dup2\n        /* \"#utility.yul\":645:678   */\n      tag_67\n      jump\t// in\n    tag_90:\n        /* \"#utility.yul\":545:684   */\n      swap3\n      swap2\n      pop\n      pop\n      jump\t// out\n        /* \"#utility.yul\":690:1164   */\n    tag_6:\n        /* \"#utility.yul\":758:764   */\n      0x00\n        /* \"#utility.yul\":766:772   */\n      dup1\n        /* \"#utility.yul\":815:817   */\n      0x40\n        /* \"#utility.yul\":803:812   */\n      dup4\n        /* \"#utility.yul\":794:801   */\n      dup6\n        /* \"#utility.yul\":790:813   */\n      sub\n        /* \"#utility.yul\":786:818   */\n      slt\n        /* \"#utility.yul\":783:902   */\n      iszero\n      tag_92\n      jumpi\n        /* \"#utility.yul\":821:900   */\n      tag_93\n      tag_64\n      jump\t// in\n    tag_93:\n        /* \"#utility.yul\":783:902   */\n    tag_92:\n        /* \"#utility.yul\":941:942   */\n      0x00\n        /* \"#utility.yul\":966:1019   */\n      tag_94\n        /* \"#utility.yul\":1011:1018   */\n      dup6\n        /* \"#utility.yul\":1002:1008   */\n      dup3\n        /* \"#utility.yul\":991:1000   */\n      dup7\n        /* \"#utility.yul\":987:1009   */\n      add\n        /* \"#utility.yul\":966:1019   */\n      tag_68\n      jump\t// in\n    tag_94:\n        /* \"#utility.yul\":956:1019   */\n      swap3\n      pop\n        /* \"#utility.yul\":912:1029   */\n      pop\n        /* \"#utility.yul\":1068:1070   */\n      0x20\n        /* \"#utility.yul\":1094:1147   */\n      tag_95\n        /* \"#utility.yul\":1139:1146   */\n      dup6\n        /* \"#utility.yul\":1130:1136   */\n      dup3\n        /* \"#utility.yul\":1119:1128   */\n      dup7\n        /* \"#utility.yul\":1115:1137   */\n      add\n        /* \"#utility.yul\":1094:1147   */\n      tag_68\n      jump\t// in\n    tag_95:\n        /* \"#utility.yul\":1084:1147   */\n      swap2\n      pop\n        /* \"#utility.yul\":1039:1157   */\n      pop\n        /* \"#utility.yul\":690:1164   */\n      swap3\n      pop\n      swap3\n      swap1\n      pop\n      jump\t// out\n        /* \"#utility.yul\":1170:1269   */\n    tag_69:\n        /* \"#utility.yul\":1222:1228   */\n      0x00\n        /* \"#utility.yul\":1256:1261   */\n      dup2\n        /* \"#utility.yul\":1250:1262   */\n      mload\n        /* \"#utility.yul\":1240:1262   */\n      swap1\n      pop\n        /* \"#utility.yul\":1170:1269   */\n      swap2\n      swap1\n      pop\n      jump\t// out\n        /* \"#utility.yul\":1275:1434   */\n    tag_70:\n        /* \"#utility.yul\":1349:1360   */\n      0x00\n        /* \"#utility.yul\":1383:1389   */\n      dup3\n        /* \"#utility.yul\":1378:1381   */\n      dup3\n        /* \"#utility.yul\":1371:1390   */\n      mstore\n        /* \"#utility.yul\":1423:1427   */\n      0x20\n        /* \"#utility.yul\":1418:1421   */\n      dup3\n        /* \"#utility.yul\":1414:1428   */\n      add\n        /* \"#utility.yul\":1399:1428   */\n      swap1\n      pop\n        /* \"#utility.yul\":1275:1434   */\n      swap3\n      swap2\n      pop\n      pop\n      jump\t// out\n        /* \"#utility.yul\":1440:1747   */\n    tag_71:\n        /* \"#utility.yul\":1508:1509   */\n      0x00\n        /* \"#utility.yul\":1518:1631   */\n    tag_99:\n        /* \"#utility.yul\":1532:1538   */\n      dup4\n        /* \"#utility.yul\":1529:1530   */\n      dup2\n        /* \"#utility.yul\":1526:1539   */\n      lt\n        /* \"#utility.yul\":1518:1631   */\n      iszero\n      tag_101\n      jumpi\n        /* \"#utility.yul\":1617:1618   */\n      dup1\n        /* \"#utility.yul\":1612:1615   */\n      dup3\n        /* \"#utility.yul\":1608:1619   */\n      add\n        /* \"#utility.yul\":1602:1620   */\n      mload\n        /* \"#utility.yul\":1598:1599   */\n      dup2\n        /* \"#utility.yul\":1593:1596   */\n      dup5\n        /* \"#utility.yul\":1589:1600   */\n      add\n        /* \"#utility.yul\":1582:1621   */\n      mstore\n        /* \"#utility.yul\":1554:1556   */\n      0x20\n        /* \"#utility.yul\":1551:1552   */\n      dup2\n        /* \"#utility.yul\":1547:1557   */\n      add\n        /* \"#utility.yul\":1542:1557   */\n      swap1\n      pop\n        /* \"#utility.yul\":1518:1631   */\n      jump(tag_99)\n    tag_101:\n        /* \"#utility.yul\":1649:1655   */\n      dup4\n        /* \"#utility.yul\":1646:1647   */\n      dup2\n        /* \"#utility.yul\":1643:1656   */\n      gt\n        /* \"#utility.yul\":1640:1741   */\n      iszero\n      tag_102\n      jumpi\n        /* \"#utility.yul\":1729:1730   */\n      0x00\n        /* \"#utility.yul\":1720:1726   */\n      dup5\n        /* \"#utility.yul\":1715:1718   */\n      dup5\n        /* \"#utility.yul\":1711:1727   */\n      add\n        /* \"#utility.yul\":1704:1731   */\n      mstore\n        /* \"#utility.yul\":1640:1741   */\n    tag_102:\n        /* \"#utility.yul\":1489:1747   */\n      pop\n        /* \"#utility.yul\":1440:1747   */\n      pop\n      pop\n      pop\n      jump\t// out\n        /* \"#utility.yul\":1753:1855   */\n    tag_72:\n        /* \"#utility.yul\":1794:1800   */\n      0x00\n        /* \"#utility.yul\":1845:1847   */\n      0x1f\n        /* \"#utility.yul\":1841:1848   */\n      not\n        /* \"#utility.yul\":1836:1838   */\n      0x1f\n        /* \"#utility.yul\":1829:1834   */\n      dup4\n        /* \"#utility.yul\":1825:1839   */\n      add\n        /* \"#utility.yul\":1821:1849   */\n      and\n        /* \"#utility.yul\":1811:1849   */\n      swap1\n      pop\n        /* \"#utility.yul\":1753:1855   */\n      swap2\n      swap1\n      pop\n      jump\t// out\n        /* \"#utility.yul\":1861:2205   */\n    tag_73:\n        /* \"#utility.yul\":1939:1942   */\n      0x00\n        /* \"#utility.yul\":1967:2006   */\n      tag_105\n        /* \"#utility.yul\":2000:2005   */\n      dup3\n        /* \"#utility.yul\":1967:2006   */\n      tag_69\n      jump\t// in\n    tag_105:\n        /* \"#utility.yul\":2022:2083   */\n      tag_106\n        /* \"#utility.yul\":2076:2082   */\n      dup2\n        /* \"#utility.yul\":2071:2074   */\n      dup6\n        /* \"#utility.yul\":2022:2083   */\n      tag_70\n      jump\t// in\n    tag_106:\n        /* \"#utility.yul\":2015:2083   */\n      swap4\n      pop\n        /* \"#utility.yul\":2092:2144   */\n      tag_107\n        /* \"#utility.yul\":2137:2143   */\n      dup2\n        /* \"#utility.yul\":2132:2135   */\n      dup6\n        /* \"#utility.yul\":2125:2129   */\n      0x20\n        /* \"#utility.yul\":2118:2123   */\n      dup7\n        /* \"#utility.yul\":2114:2130   */\n      add\n        /* \"#utility.yul\":2092:2144   */\n      tag_71\n      jump\t// in\n    tag_107:\n        /* \"#utility.yul\":2169:2198   */\n      tag_108\n        /* \"#utility.yul\":2191:2197   */\n      dup2\n        /* \"#utility.yul\":2169:2198   */\n      tag_72\n      jump\t// in\n    tag_108:\n        /* \"#utility.yul\":2164:2167   */\n      dup5\n        /* \"#utility.yul\":2160:2199   */\n      add\n        /* \"#utility.yul\":2153:2199   */\n      swap2\n      pop\n        /* \"#utility.yul\":1943:2205   */\n      pop\n        /* \"#utility.yul\":1861:2205   */\n      swap3\n      swap2\n      pop\n      pop\n      jump\t// out\n        /* \"#utility.yul\":2211:2319   */\n    tag_74:\n        /* \"#utility.yul\":2288:2312   */\n      tag_110\n        /* \"#utility.yul\":2306:2311   */\n      dup2\n        /* \"#utility.yul\":2288:2312   */\n      tag_66\n      jump\t// in\n    tag_110:\n        /* \"#utility.yul\":2283:2286   */\n      dup3\n        /* \"#utility.yul\":2276:2313   */\n      mstore\n        /* \"#utility.yul\":2211:2319   */\n      pop\n      pop\n      jump\t// out\n        /* \"#utility.yul\":2395:4010   */\n    tag_75:\n        /* \"#utility.yul\":2508:2511   */\n      0x00\n        /* \"#utility.yul\":2544:2548   */\n      0xc0\n        /* \"#utility.yul\":2539:2542   */\n      dup4\n        /* \"#utility.yul\":2535:2549   */\n      add\n        /* \"#utility.yul\":2631:2635   */\n      0x00\n        /* \"#utility.yul\":2624:2629   */\n      dup4\n        /* \"#utility.yul\":2620:2636   */\n      add\n        /* \"#utility.yul\":2614:2637   */\n      mload\n        /* \"#utility.yul\":2684:2687   */\n      dup5\n        /* \"#utility.yul\":2678:2682   */\n      dup3\n        /* \"#utility.yul\":2674:2688   */\n      sub\n        /* \"#utility.yul\":2667:2671   */\n      0x00\n        /* \"#utility.yul\":2662:2665   */\n      dup7\n        /* \"#utility.yul\":2658:2672   */\n      add\n        /* \"#utility.yul\":2651:2689   */\n      mstore\n        /* \"#utility.yul\":2710:2783   */\n      tag_112\n        /* \"#utility.yul\":2778:2782   */\n      dup3\n        /* \"#utility.yul\":2764:2776   */\n      dup3\n        /* \"#utility.yul\":2710:2783   */\n      tag_73\n      jump\t// in\n    tag_112:\n        /* \"#utility.yul\":2702:2783   */\n      swap2\n      pop\n        /* \"#utility.yul\":2559:2794   */\n      pop\n        /* \"#utility.yul\":2885:2889   */\n      0x20\n        /* \"#utility.yul\":2878:2883   */\n      dup4\n        /* \"#utility.yul\":2874:2890   */\n      add\n        /* \"#utility.yul\":2868:2891   */\n      mload\n        /* \"#utility.yul\":2938:2941   */\n      dup5\n        /* \"#utility.yul\":2932:2936   */\n      dup3\n        /* \"#utility.yul\":2928:2942   */\n      sub\n        /* \"#utility.yul\":2921:2925   */\n      0x20\n        /* \"#utility.yul\":2916:2919   */\n      dup7\n        /* \"#utility.yul\":2912:2926   */\n      add\n        /* \"#utility.yul\":2905:2943   */\n      mstore\n        /* \"#utility.yul\":2964:3037   */\n      tag_113\n        /* \"#utility.yul\":3032:3036   */\n      dup3\n        /* \"#utility.yul\":3018:3030   */\n      dup3\n        /* \"#utility.yul\":2964:3037   */\n      tag_73\n      jump\t// in\n    tag_113:\n        /* \"#utility.yul\":2956:3037   */\n      swap2\n      pop\n        /* \"#utility.yul\":2804:3048   */\n      pop\n        /* \"#utility.yul\":3140:3144   */\n      0x40\n        /* \"#utility.yul\":3133:3138   */\n      dup4\n        /* \"#utility.yul\":3129:3145   */\n      add\n        /* \"#utility.yul\":3123:3146   */\n      mload\n        /* \"#utility.yul\":3193:3196   */\n      dup5\n        /* \"#utility.yul\":3187:3191   */\n      dup3\n        /* \"#utility.yul\":3183:3197   */\n      sub\n        /* \"#utility.yul\":3176:3180   */\n      0x40\n        /* \"#utility.yul\":3171:3174   */\n      dup7\n        /* \"#utility.yul\":3167:3181   */\n      add\n        /* \"#utility.yul\":3160:3198   */\n      mstore\n        /* \"#utility.yul\":3219:3292   */\n      tag_114\n        /* \"#utility.yul\":3287:3291   */\n      dup3\n        /* \"#utility.yul\":3273:3285   */\n      dup3\n        /* \"#utility.yul\":3219:3292   */\n      tag_73\n      jump\t// in\n    tag_114:\n        /* \"#utility.yul\":3211:3292   */\n      swap2\n      pop\n        /* \"#utility.yul\":3058:3303   */\n      pop\n        /* \"#utility.yul\":3393:3397   */\n      0x60\n        /* \"#utility.yul\":3386:3391   */\n      dup4\n        /* \"#utility.yul\":3382:3398   */\n      add\n        /* \"#utility.yul\":3376:3399   */\n      mload\n        /* \"#utility.yul\":3446:3449   */\n      dup5\n        /* \"#utility.yul\":3440:3444   */\n      dup3\n        /* \"#utility.yul\":3436:3450   */\n      sub\n        /* \"#utility.yul\":3429:3433   */\n      0x60\n        /* \"#utility.yul\":3424:3427   */\n      dup7\n        /* \"#utility.yul\":3420:3434   */\n      add\n        /* \"#utility.yul\":3413:3451   */\n      mstore\n        /* \"#utility.yul\":3472:3545   */\n      tag_115\n        /* \"#utility.yul\":3540:3544   */\n      dup3\n        /* \"#utility.yul\":3526:3538   */\n      dup3\n        /* \"#utility.yul\":3472:3545   */\n      tag_73\n      jump\t// in\n    tag_115:\n        /* \"#utility.yul\":3464:3545   */\n      swap2\n      pop\n        /* \"#utility.yul\":3313:3556   */\n      pop\n        /* \"#utility.yul\":3646:3650   */\n      0x80\n        /* \"#utility.yul\":3639:3644   */\n      dup4\n        /* \"#utility.yul\":3635:3651   */\n      add\n        /* \"#utility.yul\":3629:3652   */\n      mload\n        /* \"#utility.yul\":3699:3702   */\n      dup5\n        /* \"#utility.yul\":3693:3697   */\n      dup3\n        /* \"#utility.yul\":3689:3703   */\n      sub\n        /* \"#utility.yul\":3682:3686   */\n      0x80\n        /* \"#utility.yul\":3677:3680   */\n      dup7\n        /* \"#utility.yul\":3673:3687   */\n      add\n        /* \"#utility.yul\":3666:3704   */\n      mstore\n        /* \"#utility.yul\":3725:3798   */\n      tag_116\n        /* \"#utility.yul\":3793:3797   */\n      dup3\n        /* \"#utility.yul\":3779:3791   */\n      dup3\n        /* \"#utility.yul\":3725:3798   */\n      tag_73\n      jump\t// in\n    tag_116:\n        /* \"#utility.yul\":3717:3798   */\n      swap2\n      pop\n        /* \"#utility.yul\":3566:3809   */\n      pop\n        /* \"#utility.yul\":3891:3895   */\n      0xa0\n        /* \"#utility.yul\":3884:3889   */\n      dup4\n        /* \"#utility.yul\":3880:3896   */\n      add\n        /* \"#utility.yul\":3874:3897   */\n      mload\n        /* \"#utility.yul\":3910:3973   */\n      tag_117\n        /* \"#utility.yul\":3967:3971   */\n      0xa0\n        /* \"#utility.yul\":3962:3965   */\n      dup7\n        /* \"#utility.yul\":3958:3972   */\n      add\n        /* \"#utility.yul\":3944:3956   */\n      dup3\n        /* \"#utility.yul\":3910:3973   */\n      tag_74\n      jump\t// in\n    tag_117:\n        /* \"#utility.yul\":3819:3983   */\n      pop\n        /* \"#utility.yul\":4000:4004   */\n      dup1\n        /* \"#utility.yul\":3993:4004   */\n      swap2\n      pop\n        /* \"#utility.yul\":2513:4010   */\n      pop\n        /* \"#utility.yul\":2395:4010   */\n      swap3\n      swap2\n      pop\n      pop\n      jump\t// out\n        /* \"#utility.yul\":4016:4377   */\n    tag_9:\n        /* \"#utility.yul\":4153:4157   */\n      0x00\n        /* \"#utility.yul\":4191:4193   */\n      0x20\n        /* \"#utility.yul\":4180:4189   */\n      dup3\n        /* \"#utility.yul\":4176:4194   */\n      add\n        /* \"#utility.yul\":4168:4194   */\n      swap1\n      pop\n        /* \"#utility.yul\":4240:4249   */\n      dup2\n        /* \"#utility.yul\":4234:4238   */\n      dup2\n        /* \"#utility.yul\":4230:4250   */\n      sub\n        /* \"#utility.yul\":4226:4227   */\n      0x00\n        /* \"#utility.yul\":4215:4224   */\n      dup4\n        /* \"#utility.yul\":4211:4228   */\n      add\n        /* \"#utility.yul\":4204:4251   */\n      mstore\n        /* \"#utility.yul\":4268:4370   */\n      tag_119\n        /* \"#utility.yul\":4365:4369   */\n      dup2\n        /* \"#utility.yul\":4356:4362   */\n      dup5\n        /* \"#utility.yul\":4268:4370   */\n      tag_75\n      jump\t// in\n    tag_119:\n        /* \"#utility.yul\":4260:4370   */\n      swap1\n      pop\n        /* \"#utility.yul\":4016:4377   */\n      swap3\n      swap2\n      pop\n      pop\n      jump\t// out\n        /* \"#utility.yul\":4383:4552   */\n    tag_76:\n        /* \"#utility.yul\":4467:4478   */\n      0x00\n        /* \"#utility.yul\":4501:4507   */\n      dup3\n        /* \"#utility.yul\":4496:4499   */\n      dup3\n        /* \"#utility.yul\":4489:4508   */\n      mstore\n        /* \"#utility.yul\":4541:4545   */\n      0x20\n        /* \"#utility.yul\":4536:4539   */\n      dup3\n        /* \"#utility.yul\":4532:4546   */\n      add\n        /* \"#utility.yul\":4517:4546   */\n      swap1\n      pop\n        /* \"#utility.yul\":4383:4552   */\n      swap3\n      swap2\n      pop\n      pop\n      jump\t// out\n        /* \"#utility.yul\":4558:4720   */\n    tag_77:\n        /* \"#utility.yul\":4698:4712   */\n      0x696e76616c69642074696d650000000000000000000000000000000000000000\n        /* \"#utility.yul\":4694:4695   */\n      0x00\n        /* \"#utility.yul\":4686:4692   */\n      dup3\n        /* \"#utility.yul\":4682:4696   */\n      add\n        /* \"#utility.yul\":4675:4713   */\n      mstore\n        /* \"#utility.yul\":4558:4720   */\n      pop\n      jump\t// out\n        /* \"#utility.yul\":4726:5092   */\n    tag_78:\n        /* \"#utility.yul\":4868:4871   */\n      0x00\n        /* \"#utility.yul\":4889:4956   */\n      tag_123\n        /* \"#utility.yul\":4953:4955   */\n      0x0c\n        /* \"#utility.yul\":4948:4951   */\n      dup4\n        /* \"#utility.yul\":4889:4956   */\n      tag_76\n      jump\t// in\n    tag_123:\n        /* \"#utility.yul\":4882:4956   */\n      swap2\n      pop\n        /* \"#utility.yul\":4965:5058   */\n      tag_124\n        /* \"#utility.yul\":5054:5057   */\n      dup3\n        /* \"#utility.yul\":4965:5058   */\n      tag_77\n      jump\t// in\n    tag_124:\n        /* \"#utility.yul\":5083:5085   */\n      0x20\n        /* \"#utility.yul\":5078:5081   */\n      dup3\n        /* \"#utility.yul\":5074:5086   */\n      add\n        /* \"#utility.yul\":5067:5086   */\n      swap1\n      pop\n        /* \"#utility.yul\":4726:5092   */\n      swap2\n      swap1\n      pop\n      jump\t// out\n        /* \"#utility.yul\":5098:5517   */\n    tag_15:\n        /* \"#utility.yul\":5264:5268   */\n      0x00\n        /* \"#utility.yul\":5302:5304   */\n      0x20\n        /* \"#utility.yul\":5291:5300   */\n      dup3\n        /* \"#utility.yul\":5287:5305   */\n      add\n        /* \"#utility.yul\":5279:5305   */\n      swap1\n      pop\n        /* \"#utility.yul\":5351:5360   */\n      dup2\n        /* \"#utility.yul\":5345:5349   */\n      dup2\n        /* \"#utility.yul\":5341:5361   */\n      sub\n        /* \"#utility.yul\":5337:5338   */\n      0x00\n        /* \"#utility.yul\":5326:5335   */\n      dup4\n        /* \"#utility.yul\":5322:5339   */\n      add\n        /* \"#utility.yul\":5315:5362   */\n      mstore\n        /* \"#utility.yul\":5379:5510   */\n      tag_126\n        /* \"#utility.yul\":5505:5509   */\n      dup2\n        /* \"#utility.yul\":5379:5510   */\n      tag_78\n      jump\t// in\n    tag_126:\n        /* \"#utility.yul\":5371:5510   */\n      swap1\n      pop\n        /* \"#utility.yul\":5098:5517   */\n      swap2\n      swap1\n      pop\n      jump\t// out\n        /* \"#utility.yul\":5523:5703   */\n    tag_79:\n        /* \"#utility.yul\":5571:5648   */\n      0x4e487b7100000000000000000000000000000000000000000000000000000000\n        /* \"#utility.yul\":5568:5569   */\n      0x00\n        /* \"#utility.yul\":5561:5649   */\n      mstore\n        /* \"#utility.yul\":5668:5672   */\n      0x11\n        /* \"#utility.yul\":5665:5666   */\n      0x04\n        /* \"#utility.yul\":5658:5673   */\n      mstore\n        /* \"#utility.yul\":5692:5696   */\n      0x24\n        /* \"#utility.yul\":5689:5690   */\n      0x00\n        /* \"#utility.yul\":5682:5697   */\n      revert\n        /* \"#utility.yul\":5709:5900   */\n    tag_17:\n        /* \"#utility.yul\":5749:5753   */\n      0x00\n        /* \"#utility.yul\":5769:5789   */\n      tag_129\n        /* \"#utility.yul\":5787:5788   */\n      dup3\n        /* \"#utility.yul\":5769:5789   */\n      tag_66\n      jump\t// in\n    tag_129:\n        /* \"#utility.yul\":5764:5789   */\n      swap2\n      pop\n        /* \"#utility.yul\":5803:5823   */\n      tag_130\n        /* \"#utility.yul\":5821:5822   */\n      dup4\n        /* \"#utility.yul\":5803:5823   */\n      tag_66\n      jump\t// in\n    tag_130:\n        /* \"#utility.yul\":5798:5823   */\n      swap3\n      pop\n        /* \"#utility.yul\":5842:5843   */\n      dup3\n        /* \"#utility.yul\":5839:5840   */\n      dup3\n        /* \"#utility.yul\":5836:5844   */\n      lt\n        /* \"#utility.yul\":5833:5867   */\n      iszero\n      tag_131\n      jumpi\n        /* \"#utility.yul\":5847:5865   */\n      tag_132\n      tag_79\n      jump\t// in\n    tag_132:\n        /* \"#utility.yul\":5833:5867   */\n    tag_131:\n        /* \"#utility.yul\":5892:5893   */\n      dup3\n        /* \"#utility.yul\":5889:5890   */\n      dup3\n        /* \"#utility.yul\":5885:5894   */\n      sub\n        /* \"#utility.yul\":5877:5894   */\n      swap1\n      pop\n        /* \"#utility.yul\":5709:5900   */\n      swap3\n      swap2\n      pop\n      pop\n      jump\t// out\n        /* \"#utility.yul\":5906:6086   */\n    tag_20:\n        /* \"#utility.yul\":5954:6031   */\n      0x4e487b7100000000000000000000000000000000000000000000000000000000\n        /* \"#utility.yul\":5951:5952   */\n      0x00\n        /* \"#utility.yul\":5944:6032   */\n      mstore\n        /* \"#utility.yul\":6051:6055   */\n      0x32\n        /* \"#utility.yul\":6048:6049   */\n      0x04\n        /* \"#utility.yul\":6041:6056   */\n      mstore\n        /* \"#utility.yul\":6075:6079   */\n      0x24\n        /* \"#utility.yul\":6072:6073   */\n      0x00\n        /* \"#utility.yul\":6065:6080   */\n      revert\n        /* \"#utility.yul\":6092:6272   */\n    tag_80:\n        /* \"#utility.yul\":6140:6217   */\n      0x4e487b7100000000000000000000000000000000000000000000000000000000\n        /* \"#utility.yul\":6137:6138   */\n      0x00\n        /* \"#utility.yul\":6130:6218   */\n      mstore\n        /* \"#utility.yul\":6237:6241   */\n      0x22\n        /* \"#utility.yul\":6234:6235   */\n      0x04\n        /* \"#utility.yul\":6227:6242   */\n      mstore\n        /* \"#utility.yul\":6261:6265   */\n      0x24\n        /* \"#utility.yul\":6258:6259   */\n      0x00\n        /* \"#utility.yul\":6251:6266   */\n      revert\n        /* \"#utility.yul\":6278:6598   */\n    tag_23:\n        /* \"#utility.yul\":6322:6328   */\n      0x00\n        /* \"#utility.yul\":6359:6360   */\n      0x02\n        /* \"#utility.yul\":6353:6357   */\n      dup3\n        /* \"#utility.yul\":6349:6361   */\n      div\n        /* \"#utility.yul\":6339:6361   */\n      swap1\n      pop\n        /* \"#utility.yul\":6406:6407   */\n      0x01\n        /* \"#utility.yul\":6400:6404   */\n      dup3\n        /* \"#utility.yul\":6396:6408   */\n      and\n        /* \"#utility.yul\":6427:6445   */\n      dup1\n        /* \"#utility.yul\":6417:6498   */\n      tag_136\n      jumpi\n        /* \"#utility.yul\":6483:6487   */\n      0x7f\n        /* \"#utility.yul\":6475:6481   */\n      dup3\n        /* \"#utility.yul\":6471:6488   */\n      and\n        /* \"#utility.yul\":6461:6488   */\n      swap2\n      pop\n        /* \"#utility.yul\":6417:6498   */\n    tag_136:\n        /* \"#utility.yul\":6545:6547   */\n      0x20\n        /* \"#utility.yul\":6537:6543   */\n      dup3\n        /* \"#utility.yul\":6534:6548   */\n      lt\n        /* \"#utility.yul\":6514:6532   */\n      dup2\n        /* \"#utility.yul\":6511:6549   */\n      sub\n        /* \"#utility.yul\":6508:6592   */\n      tag_137\n      jumpi\n        /* \"#utility.yul\":6564:6582   */\n      tag_138\n      tag_80\n      jump\t// in\n    tag_138:\n        /* \"#utility.yul\":6508:6592   */\n    tag_137:\n        /* \"#utility.yul\":6329:6598   */\n      pop\n        /* \"#utility.yul\":6278:6598   */\n      swap2\n      swap1\n      pop\n      jump\t// out\n\n    auxdata: 0xa2646970667358221220f6cd78099dcceaea52e14e632483c07b8c2836f974e87112f31a81e88aa1709064736f6c634300080d0033\n}\n",
				"bytecode": {
					"linkReferences": {},
					"object": "608060405234801561001057600080fd5b506108ed806100206000396000f3fe608060405234801561001057600080fd5b506004361061002b5760003560e01c806375b42f5914610030575b600080fd5b61004a60048036038101906100459190610599565b610060565b6040516100579190610726565b60405180910390f35b610068610528565b60008060008581526020019081526020016000206000848152602001908152602001600020549050600081116100d3576040517f08c379a00000000000000000000000000000000000000000000000000000000081526004016100ca906107a5565b60405180910390fd5b6001816100e091906107f4565b9050600060016000868152602001908152602001600020828154811061010957610108610828565b5b9060005260206000209060060201600001805461012590610886565b80601f016020809104026020016040519081016040528092919081815260200182805461015190610886565b801561019e5780601f106101735761010080835404028352916020019161019e565b820191906000526020600020905b81548152906001019060200180831161018157829003601f168201915b5050505050905060006001600087815260200190815260200160002083815481106101cc576101cb610828565b5b906000526020600020906006020160010180546101e890610886565b80601f016020809104026020016040519081016040528092919081815260200182805461021490610886565b80156102615780601f1061023657610100808354040283529160200191610261565b820191906000526020600020905b81548152906001019060200180831161024457829003601f168201915b50505050509050600060016000888152602001908152602001600020848154811061028f5761028e610828565b5b906000526020600020906006020160020180546102ab90610886565b80601f01602080910402602001604051908101604052809291908181526020018280546102d790610886565b80156103245780601f106102f957610100808354040283529160200191610324565b820191906000526020600020905b81548152906001019060200180831161030757829003601f168201915b50505050509050600060016000898152602001908152602001600020858154811061035257610351610828565b5b9060005260206000209060060201600301805461036e90610886565b80601f016020809104026020016040519081016040528092919081815260200182805461039a90610886565b80156103e75780601f106103bc576101008083540402835291602001916103e7565b820191906000526020600020905b8154815290600101906020018083116103ca57829003601f168201915b505050505090506000600160008a8152602001908152602001600020868154811061041557610414610828565b5b9060005260206000209060060201600401805461043190610886565b80601f016020809104026020016040519081016040528092919081815260200182805461045d90610886565b80156104aa5780601f1061047f576101008083540402835291602001916104aa565b820191906000526020600020905b81548152906001019060200180831161048d57829003601f168201915b505050505090506000600160008b815260200190815260200160002087815481106104d8576104d7610828565b5b90600052602060002090600602016005015490506040518060c001604052808781526020018681526020018581526020018481526020018381526020018281525097505050505050505092915050565b6040518060c001604052806060815260200160608152602001606081526020016060815260200160608152602001600081525090565b600080fd5b6000819050919050565b61057681610563565b811461058157600080fd5b50565b6000813590506105938161056d565b92915050565b600080604083850312156105b0576105af61055e565b5b60006105be85828601610584565b92505060206105cf85828601610584565b9150509250929050565b600081519050919050565b600082825260208201905092915050565b60005b838110156106135780820151818401526020810190506105f8565b83811115610622576000848401525b50505050565b6000601f19601f8301169050919050565b6000610644826105d9565b61064e81856105e4565b935061065e8185602086016105f5565b61066781610628565b840191505092915050565b61067b81610563565b82525050565b600060c083016000830151848203600086015261069e8282610639565b915050602083015184820360208601526106b88282610639565b915050604083015184820360408601526106d28282610639565b915050606083015184820360608601526106ec8282610639565b915050608083015184820360808601526107068282610639565b91505060a083015161071b60a0860182610672565b508091505092915050565b600060208201905081810360008301526107408184610681565b905092915050565b600082825260208201905092915050565b7f696e76616c69642074696d650000000000000000000000000000000000000000600082015250565b600061078f600c83610748565b915061079a82610759565b602082019050919050565b600060208201905081810360008301526107be81610782565b9050919050565b7f4e487b7100000000000000000000000000000000000000000000000000000000600052601160045260246000fd5b60006107ff82610563565b915061080a83610563565b92508282101561081d5761081c6107c5565b5b828203905092915050565b7f4e487b7100000000000000000000000000000000000000000000000000000000600052603260045260246000fd5b7f4e487b7100000000000000000000000000000000000000000000000000000000600052602260045260246000fd5b6000600282049050600182168061089e57607f821691505b6020821081036108b1576108b0610857565b5b5091905056fea2646970667358221220f6cd78099dcceaea52e14e632483c07b8c2836f974e87112f31a81e88aa1709064736f6c634300080d0033",
					"opcodes": "PUSH1 0x80 PUSH1 0x40 MSTORE CALLVALUE DUP1 ISZERO PUSH2 0x10 JUMPI PUSH1 0x0 DUP1 REVERT JUMPDEST POP PUSH2 0x8ED DUP1 PUSH2 0x20 PUSH1 0x0 CODECOPY PUSH1 0x0 RETURN INVALID PUSH1 0x80 PUSH1 0x40 MSTORE CALLVALUE DUP1 ISZERO PUSH2 0x10 JUMPI PUSH1 0x0 DUP1 REVERT JUMPDEST POP PUSH1 0x4 CALLDATASIZE LT PUSH2 0x2B JUMPI PUSH1 0x0 CALLDATALOAD PUSH1 0xE0 SHR DUP1 PUSH4 0x75B42F59 EQ PUSH2 0x30 JUMPI JUMPDEST PUSH1 0x0 DUP1 REVERT JUMPDEST PUSH2 0x4A PUSH1 0x4 DUP1 CALLDATASIZE SUB DUP2 ADD SWAP1 PUSH2 0x45 SWAP2 SWAP1 PUSH2 0x599 JUMP JUMPDEST PUSH2 0x60 JUMP JUMPDEST PUSH1 0x40 MLOAD PUSH2 0x57 SWAP2 SWAP1 PUSH2 0x726 JUMP JUMPDEST PUSH1 0x40 MLOAD DUP1 SWAP2 SUB SWAP1 RETURN JUMPDEST PUSH2 0x68 PUSH2 0x528 JUMP JUMPDEST PUSH1 0x0 DUP1 PUSH1 0x0 DUP6 DUP2 MSTORE PUSH1 0x20 ADD SWAP1 DUP2 MSTORE PUSH1 0x20 ADD PUSH1 0x0 KECCAK256 PUSH1 0x0 DUP5 DUP2 MSTORE PUSH1 0x20 ADD SWAP1 DUP2 MSTORE PUSH1 0x20 ADD PUSH1 0x0 KECCAK256 SLOAD SWAP1 POP PUSH1 0x0 DUP2 GT PUSH2 0xD3 JUMPI PUSH1 0x40 MLOAD PUSH32 0x8C379A000000000000000000000000000000000000000000000000000000000 DUP2 MSTORE PUSH1 0x4 ADD PUSH2 0xCA SWAP1 PUSH2 0x7A5 JUMP JUMPDEST PUSH1 0x40 MLOAD DUP1 SWAP2 SUB SWAP1 REVERT JUMPDEST PUSH1 0x1 DUP2 PUSH2 0xE0 SWAP2 SWAP1 PUSH2 0x7F4 JUMP JUMPDEST SWAP1 POP PUSH1 0x0 PUSH1 0x1 PUSH1 0x0 DUP7 DUP2 MSTORE PUSH1 0x20 ADD SWAP1 DUP2 MSTORE PUSH1 0x20 ADD PUSH1 0x0 KECCAK256 DUP3 DUP2 SLOAD DUP2 LT PUSH2 0x109 JUMPI PUSH2 0x108 PUSH2 0x828 JUMP JUMPDEST JUMPDEST SWAP1 PUSH1 0x0 MSTORE PUSH1 0x20 PUSH1 0x0 KECCAK256 SWAP1 PUSH1 0x6 MUL ADD PUSH1 0x0 ADD DUP1 SLOAD PUSH2 0x125 SWAP1 PUSH2 0x886 JUMP JUMPDEST DUP1 PUSH1 0x1F ADD PUSH1 0x20 DUP1 SWAP2 DIV MUL PUSH1 0x20 ADD PUSH1 0x40 MLOAD SWAP1 DUP2 ADD PUSH1 0x40 MSTORE DUP1 SWAP3 SWAP2 SWAP1 DUP2 DUP2 MSTORE PUSH1 0x20 ADD DUP3 DUP1 SLOAD PUSH2 0x151 SWAP1 PUSH2 0x886 JUMP JUMPDEST DUP1 ISZERO PUSH2 0x19E JUMPI DUP1 PUSH1 0x1F LT PUSH2 0x173 JUMPI PUSH2 0x100 DUP1 DUP4 SLOAD DIV MUL DUP4 MSTORE SWAP2 PUSH1 0x20 ADD SWAP2 PUSH2 0x19E JUMP JUMPDEST DUP3 ADD SWAP2 SWAP1 PUSH1 0x0 MSTORE PUSH1 0x20 PUSH1 0x0 KECCAK256 SWAP1 JUMPDEST DUP2 SLOAD DUP2 MSTORE SWAP1 PUSH1 0x1 ADD SWAP1 PUSH1 0x20 ADD DUP1 DUP4 GT PUSH2 0x181 JUMPI DUP3 SWAP1 SUB PUSH1 0x1F AND DUP3 ADD SWAP2 JUMPDEST POP POP POP POP POP SWAP1 POP PUSH1 0x0 PUSH1 0x1 PUSH1 0x0 DUP8 DUP2 MSTORE PUSH1 0x20 ADD SWAP1 DUP2 MSTORE PUSH1 0x20 ADD PUSH1 0x0 KECCAK256 DUP4 DUP2 SLOAD DUP2 LT PUSH2 0x1CC JUMPI PUSH2 0x1CB PUSH2 0x828 JUMP JUMPDEST JUMPDEST SWAP1 PUSH1 0x0 MSTORE PUSH1 0x20 PUSH1 0x0 KECCAK256 SWAP1 PUSH1 0x6 MUL ADD PUSH1 0x1 ADD DUP1 SLOAD PUSH2 0x1E8 SWAP1 PUSH2 0x886 JUMP JUMPDEST DUP1 PUSH1 0x1F ADD PUSH1 0x20 DUP1 SWAP2 DIV MUL PUSH1 0x20 ADD PUSH1 0x40 MLOAD SWAP1 DUP2 ADD PUSH1 0x40 MSTORE DUP1 SWAP3 SWAP2 SWAP1 DUP2 DUP2 MSTORE PUSH1 0x20 ADD DUP3 DUP1 SLOAD PUSH2 0x214 SWAP1 PUSH2 0x886 JUMP JUMPDEST DUP1 ISZERO PUSH2 0x261 JUMPI DUP1 PUSH1 0x1F LT PUSH2 0x236 JUMPI PUSH2 0x100 DUP1 DUP4 SLOAD DIV MUL DUP4 MSTORE SWAP2 PUSH1 0x20 ADD SWAP2 PUSH2 0x261 JUMP JUMPDEST DUP3 ADD SWAP2 SWAP1 PUSH1 0x0 MSTORE PUSH1 0x20 PUSH1 0x0 KECCAK256 SWAP1 JUMPDEST DUP2 SLOAD DUP2 MSTORE SWAP1 PUSH1 0x1 ADD SWAP1 PUSH1 0x20 ADD DUP1 DUP4 GT PUSH2 0x244 JUMPI DUP3 SWAP1 SUB PUSH1 0x1F AND DUP3 ADD SWAP2 JUMPDEST POP POP POP POP POP SWAP1 POP PUSH1 0x0 PUSH1 0x1 PUSH1 0x0 DUP9 DUP2 MSTORE PUSH1 0x20 ADD SWAP1 DUP2 MSTORE PUSH1 0x20 ADD PUSH1 0x0 KECCAK256 DUP5 DUP2 SLOAD DUP2 LT PUSH2 0x28F JUMPI PUSH2 0x28E PUSH2 0x828 JUMP JUMPDEST JUMPDEST SWAP1 PUSH1 0x0 MSTORE PUSH1 0x20 PUSH1 0x0 KECCAK256 SWAP1 PUSH1 0x6 MUL ADD PUSH1 0x2 ADD DUP1 SLOAD PUSH2 0x2AB SWAP1 PUSH2 0x886 JUMP JUMPDEST DUP1 PUSH1 0x1F ADD PUSH1 0x20 DUP1 SWAP2 DIV MUL PUSH1 0x20 ADD PUSH1 0x40 MLOAD SWAP1 DUP2 ADD PUSH1 0x40 MSTORE DUP1 SWAP3 SWAP2 SWAP1 DUP2 DUP2 MSTORE PUSH1 0x20 ADD DUP3 DUP1 SLOAD PUSH2 0x2D7 SWAP1 PUSH2 0x886 JUMP JUMPDEST DUP1 ISZERO PUSH2 0x324 JUMPI DUP1 PUSH1 0x1F LT PUSH2 0x2F9 JUMPI PUSH2 0x100 DUP1 DUP4 SLOAD DIV MUL DUP4 MSTORE SWAP2 PUSH1 0x20 ADD SWAP2 PUSH2 0x324 JUMP JUMPDEST DUP3 ADD SWAP2 SWAP1 PUSH1 0x0 MSTORE PUSH1 0x20 PUSH1 0x0 KECCAK256 SWAP1 JUMPDEST DUP2 SLOAD DUP2 MSTORE SWAP1 PUSH1 0x1 ADD SWAP1 PUSH1 0x20 ADD DUP1 DUP4 GT PUSH2 0x307 JUMPI DUP3 SWAP1 SUB PUSH1 0x1F AND DUP3 ADD SWAP2 JUMPDEST POP POP POP POP POP SWAP1 POP PUSH1 0x0 PUSH1 0x1 PUSH1 0x0 DUP10 DUP2 MSTORE PUSH1 0x20 ADD SWAP1 DUP2 MSTORE PUSH1 0x20 ADD PUSH1 0x0 KECCAK256 DUP6 DUP2 SLOAD DUP2 LT PUSH2 0x352 JUMPI PUSH2 0x351 PUSH2 0x828 JUMP JUMPDEST JUMPDEST SWAP1 PUSH1 0x0 MSTORE PUSH1 0x20 PUSH1 0x0 KECCAK256 SWAP1 PUSH1 0x6 MUL ADD PUSH1 0x3 ADD DUP1 SLOAD PUSH2 0x36E SWAP1 PUSH2 0x886 JUMP JUMPDEST DUP1 PUSH1 0x1F ADD PUSH1 0x20 DUP1 SWAP2 DIV MUL PUSH1 0x20 ADD PUSH1 0x40 MLOAD SWAP1 DUP2 ADD PUSH1 0x40 MSTORE DUP1 SWAP3 SWAP2 SWAP1 DUP2 DUP2 MSTORE PUSH1 0x20 ADD DUP3 DUP1 SLOAD PUSH2 0x39A SWAP1 PUSH2 0x886 JUMP JUMPDEST DUP1 ISZERO PUSH2 0x3E7 JUMPI DUP1 PUSH1 0x1F LT PUSH2 0x3BC JUMPI PUSH2 0x100 DUP1 DUP4 SLOAD DIV MUL DUP4 MSTORE SWAP2 PUSH1 0x20 ADD SWAP2 PUSH2 0x3E7 JUMP JUMPDEST DUP3 ADD SWAP2 SWAP1 PUSH1 0x0 MSTORE PUSH1 0x20 PUSH1 0x0 KECCAK256 SWAP1 JUMPDEST DUP2 SLOAD DUP2 MSTORE SWAP1 PUSH1 0x1 ADD SWAP1 PUSH1 0x20 ADD DUP1 DUP4 GT PUSH2 0x3CA JUMPI DUP3 SWAP1 SUB PUSH1 0x1F AND DUP3 ADD SWAP2 JUMPDEST POP POP POP POP POP SWAP1 POP PUSH1 0x0 PUSH1 0x1 PUSH1 0x0 DUP11 DUP2 MSTORE PUSH1 0x20 ADD SWAP1 DUP2 MSTORE PUSH1 0x20 ADD PUSH1 0x0 KECCAK256 DUP7 DUP2 SLOAD DUP2 LT PUSH2 0x415 JUMPI PUSH2 0x414 PUSH2 0x828 JUMP JUMPDEST JUMPDEST SWAP1 PUSH1 0x0 MSTORE PUSH1 0x20 PUSH1 0x0 KECCAK256 SWAP1 PUSH1 0x6 MUL ADD PUSH1 0x4 ADD DUP1 SLOAD PUSH2 0x431 SWAP1 PUSH2 0x886 JUMP JUMPDEST DUP1 PUSH1 0x1F ADD PUSH1 0x20 DUP1 SWAP2 DIV MUL PUSH1 0x20 ADD PUSH1 0x40 MLOAD SWAP1 DUP2 ADD PUSH1 0x40 MSTORE DUP1 SWAP3 SWAP2 SWAP1 DUP2 DUP2 MSTORE PUSH1 0x20 ADD DUP3 DUP1 SLOAD PUSH2 0x45D SWAP1 PUSH2 0x886 JUMP JUMPDEST DUP1 ISZERO PUSH2 0x4AA JUMPI DUP1 PUSH1 0x1F LT PUSH2 0x47F JUMPI PUSH2 0x100 DUP1 DUP4 SLOAD DIV MUL DUP4 MSTORE SWAP2 PUSH1 0x20 ADD SWAP2 PUSH2 0x4AA JUMP JUMPDEST DUP3 ADD SWAP2 SWAP1 PUSH1 0x0 MSTORE PUSH1 0x20 PUSH1 0x0 KECCAK256 SWAP1 JUMPDEST DUP2 SLOAD DUP2 MSTORE SWAP1 PUSH1 0x1 ADD SWAP1 PUSH1 0x20 ADD DUP1 DUP4 GT PUSH2 0x48D JUMPI DUP3 SWAP1 SUB PUSH1 0x1F AND DUP3 ADD SWAP2 JUMPDEST POP POP POP POP POP SWAP1 POP PUSH1 0x0 PUSH1 0x1 PUSH1 0x0 DUP12 DUP2 MSTORE PUSH1 0x20 ADD SWAP1 DUP2 MSTORE PUSH1 0x20 ADD PUSH1 0x0 KECCAK256 DUP8 DUP2 SLOAD DUP2 LT PUSH2 0x4D8 JUMPI PUSH2 0x4D7 PUSH2 0x828 JUMP JUMPDEST JUMPDEST SWAP1 PUSH1 0x0 MSTORE PUSH1 0x20 PUSH1 0x0 KECCAK256 SWAP1 PUSH1 0x6 MUL ADD PUSH1 0x5 ADD SLOAD SWAP1 POP PUSH1 0x40 MLOAD DUP1 PUSH1 0xC0 ADD PUSH1 0x40 MSTORE DUP1 DUP8 DUP2 MSTORE PUSH1 0x20 ADD DUP7 DUP2 MSTORE PUSH1 0x20 ADD DUP6 DUP2 MSTORE PUSH1 0x20 ADD DUP5 DUP2 MSTORE PUSH1 0x20 ADD DUP4 DUP2 MSTORE PUSH1 0x20 ADD DUP3 DUP2 MSTORE POP SWAP8 POP POP POP POP POP POP POP POP SWAP3 SWAP2 POP POP JUMP JUMPDEST PUSH1 0x40 MLOAD DUP1 PUSH1 0xC0 ADD PUSH1 0x40 MSTORE DUP1 PUSH1 0x60 DUP2 MSTORE PUSH1 0x20 ADD PUSH1 0x60 DUP2 MSTORE PUSH1 0x20 ADD PUSH1 0x60 DUP2 MSTORE PUSH1 0x20 ADD PUSH1 0x60 DUP2 MSTORE PUSH1 0x20 ADD PUSH1 0x60 DUP2 MSTORE PUSH1 0x20 ADD PUSH1 0x0 DUP2 MSTORE POP SWAP1 JUMP JUMPDEST PUSH1 0x0 DUP1 REVERT JUMPDEST PUSH1 0x0 DUP2 SWAP1 POP SWAP2 SWAP1 POP JUMP JUMPDEST PUSH2 0x576 DUP2 PUSH2 0x563 JUMP JUMPDEST DUP2 EQ PUSH2 0x581 JUMPI PUSH1 0x0 DUP1 REVERT JUMPDEST POP JUMP JUMPDEST PUSH1 0x0 DUP2 CALLDATALOAD SWAP1 POP PUSH2 0x593 DUP2 PUSH2 0x56D JUMP JUMPDEST SWAP3 SWAP2 POP POP JUMP JUMPDEST PUSH1 0x0 DUP1 PUSH1 0x40 DUP4 DUP6 SUB SLT ISZERO PUSH2 0x5B0 JUMPI PUSH2 0x5AF PUSH2 0x55E JUMP JUMPDEST JUMPDEST PUSH1 0x0 PUSH2 0x5BE DUP6 DUP3 DUP7 ADD PUSH2 0x584 JUMP JUMPDEST SWAP3 POP POP PUSH1 0x20 PUSH2 0x5CF DUP6 DUP3 DUP7 ADD PUSH2 0x584 JUMP JUMPDEST SWAP2 POP POP SWAP3 POP SWAP3 SWAP1 POP JUMP JUMPDEST PUSH1 0x0 DUP2 MLOAD SWAP1 POP SWAP2 SWAP1 POP JUMP JUMPDEST PUSH1 0x0 DUP3 DUP3 MSTORE PUSH1 0x20 DUP3 ADD SWAP1 POP SWAP3 SWAP2 POP POP JUMP JUMPDEST PUSH1 0x0 JUMPDEST DUP4 DUP2 LT ISZERO PUSH2 0x613 JUMPI DUP1 DUP3 ADD MLOAD DUP2 DUP5 ADD MSTORE PUSH1 0x20 DUP2 ADD SWAP1 POP PUSH2 0x5F8 JUMP JUMPDEST DUP4 DUP2 GT ISZERO PUSH2 0x622 JUMPI PUSH1 0x0 DUP5 DUP5 ADD MSTORE JUMPDEST POP POP POP POP JUMP JUMPDEST PUSH1 0x0 PUSH1 0x1F NOT PUSH1 0x1F DUP4 ADD AND SWAP1 POP SWAP2 SWAP1 POP JUMP JUMPDEST PUSH1 0x0 PUSH2 0x644 DUP3 PUSH2 0x5D9 JUMP JUMPDEST PUSH2 0x64E DUP2 DUP6 PUSH2 0x5E4 JUMP JUMPDEST SWAP4 POP PUSH2 0x65E DUP2 DUP6 PUSH1 0x20 DUP7 ADD PUSH2 0x5F5 JUMP JUMPDEST PUSH2 0x667 DUP2 PUSH2 0x628 JUMP JUMPDEST DUP5 ADD SWAP2 POP POP SWAP3 SWAP2 POP POP JUMP JUMPDEST PUSH2 0x67B DUP2 PUSH2 0x563 JUMP JUMPDEST DUP3 MSTORE POP POP JUMP JUMPDEST PUSH1 0x0 PUSH1 0xC0 DUP4 ADD PUSH1 0x0 DUP4 ADD MLOAD DUP5 DUP3 SUB PUSH1 0x0 DUP7 ADD MSTORE PUSH2 0x69E DUP3 DUP3 PUSH2 0x639 JUMP JUMPDEST SWAP2 POP POP PUSH1 0x20 DUP4 ADD MLOAD DUP5 DUP3 SUB PUSH1 0x20 DUP7 ADD MSTORE PUSH2 0x6B8 DUP3 DUP3 PUSH2 0x639 JUMP JUMPDEST SWAP2 POP POP PUSH1 0x40 DUP4 ADD MLOAD DUP5 DUP3 SUB PUSH1 0x40 DUP7 ADD MSTORE PUSH2 0x6D2 DUP3 DUP3 PUSH2 0x639 JUMP JUMPDEST SWAP2 POP POP PUSH1 0x60 DUP4 ADD MLOAD DUP5 DUP3 SUB PUSH1 0x60 DUP7 ADD MSTORE PUSH2 0x6EC DUP3 DUP3 PUSH2 0x639 JUMP JUMPDEST SWAP2 POP POP PUSH1 0x80 DUP4 ADD MLOAD DUP5 DUP3 SUB PUSH1 0x80 DUP7 ADD MSTORE PUSH2 0x706 DUP3 DUP3 PUSH2 0x639 JUMP JUMPDEST SWAP2 POP POP PUSH1 0xA0 DUP4 ADD MLOAD PUSH2 0x71B PUSH1 0xA0 DUP7 ADD DUP3 PUSH2 0x672 JUMP JUMPDEST POP DUP1 SWAP2 POP POP SWAP3 SWAP2 POP POP JUMP JUMPDEST PUSH1 0x0 PUSH1 0x20 DUP3 ADD SWAP1 POP DUP2 DUP2 SUB PUSH1 0x0 DUP4 ADD MSTORE PUSH2 0x740 DUP2 DUP5 PUSH2 0x681 JUMP JUMPDEST SWAP1 POP SWAP3 SWAP2 POP POP JUMP JUMPDEST PUSH1 0x0 DUP3 DUP3 MSTORE PUSH1 0x20 DUP3 ADD SWAP1 POP SWAP3 SWAP2 POP POP JUMP JUMPDEST PUSH32 0x696E76616C69642074696D650000000000000000000000000000000000000000 PUSH1 0x0 DUP3 ADD MSTORE POP JUMP JUMPDEST PUSH1 0x0 PUSH2 0x78F PUSH1 0xC DUP4 PUSH2 0x748 JUMP JUMPDEST SWAP2 POP PUSH2 0x79A DUP3 PUSH2 0x759 JUMP JUMPDEST PUSH1 0x20 DUP3 ADD SWAP1 POP SWAP2 SWAP1 POP JUMP JUMPDEST PUSH1 0x0 PUSH1 0x20 DUP3 ADD SWAP1 POP DUP2 DUP2 SUB PUSH1 0x0 DUP4 ADD MSTORE PUSH2 0x7BE DUP2 PUSH2 0x782 JUMP JUMPDEST SWAP1 POP SWAP2 SWAP1 POP JUMP JUMPDEST PUSH32 0x4E487B7100000000000000000000000000000000000000000000000000000000 PUSH1 0x0 MSTORE PUSH1 0x11 PUSH1 0x4 MSTORE PUSH1 0x24 PUSH1 0x0 REVERT JUMPDEST PUSH1 0x0 PUSH2 0x7FF DUP3 PUSH2 0x563 JUMP JUMPDEST SWAP2 POP PUSH2 0x80A DUP4 PUSH2 0x563 JUMP JUMPDEST SWAP3 POP DUP3 DUP3 LT ISZERO PUSH2 0x81D JUMPI PUSH2 0x81C PUSH2 0x7C5 JUMP JUMPDEST JUMPDEST DUP3 DUP3 SUB SWAP1 POP SWAP3 SWAP2 POP POP JUMP JUMPDEST PUSH32 0x4E487B7100000000000000000000000000000000000000000000000000000000 PUSH1 0x0 MSTORE PUSH1 0x32 PUSH1 0x4 MSTORE PUSH1 0x24 PUSH1 0x0 REVERT JUMPDEST PUSH32 0x4E487B7100000000000000000000000000000000000000000000000000000000 PUSH1 0x0 MSTORE PUSH1 0x22 PUSH1 0x4 MSTORE PUSH1 0x24 PUSH1 0x0 REVERT JUMPDEST PUSH1 0x0 PUSH1 0x2 DUP3 DIV SWAP1 POP PUSH1 0x1 DUP3 AND DUP1 PUSH2 0x89E JUMPI PUSH1 0x7F DUP3 AND SWAP2 POP JUMPDEST PUSH1 0x20 DUP3 LT DUP2 SUB PUSH2 0x8B1 JUMPI PUSH2 0x8B0 PUSH2 0x857 JUMP JUMPDEST JUMPDEST POP SWAP2 SWAP1 POP JUMP INVALID LOG2 PUSH5 0x6970667358 0x22 SLT KECCAK256 0xF6 0xCD PUSH25 0x99DCCEAEA52E14E632483C07B8C2836F974E87112F31A81E8 DUP11 LOG1 PUSH17 0x9064736F6C634300080D00330000000000 "
				},
				"gasEstimates": {
					"creation": {
						"codeDepositCost": "457000",
						"executionCost": "493",
						"totalCost": "457493"
					},
					"external": {
						"getrec(uint256,uint256)": "infinite"
					}
				},
				"methodIdentifiers": {
					"getrec(uint256,uint256)": "75b42f59"
				}
			},
			"storageLayout": {
				"storage": [
					{
						"astId": 20,
						"contract": ".workspaces/default_workspace/lecture/twoTimeMapping.sol:twoTimeMappintC",
						"label": "recordIndex",
						"offset": 0,
						"slot": "0",
						"type": "t_mapping(t_uint256,t_mapping(t_uint256,t_uint256))"
					},
					{
						"astId": 26,
						"contract": ".workspaces/default_workspace/lecture/twoTimeMapping.sol:twoTimeMappintC",
						"label": "records",
						"offset": 0,
						"slot": "1",
						"type": "t_mapping(t_uint256,t_array(t_struct(Record)14_storage)dyn_storage)"
					}
				],
				"types": {
					"t_array(t_struct(Record)14_storage)dyn_storage": {
						"base": "t_struct(Record)14_storage",
						"encoding": "dynamic_array",
						"label": "struct twoTimeMappintC.Record[]",
						"numberOfBytes": "32"
					},
					"t_mapping(t_uint256,t_array(t_struct(Record)14_storage)dyn_storage)": {
						"encoding": "mapping",
						"key": "t_uint256",
						"label": "mapping(uint256 => struct twoTimeMappintC.Record[])",
						"numberOfBytes": "32",
						"value": "t_array(t_struct(Record)14_storage)dyn_storage"
					},
					"t_mapping(t_uint256,t_mapping(t_uint256,t_uint256))": {
						"encoding": "mapping",
						"key": "t_uint256",
						"label": "mapping(uint256 => mapping(uint256 => uint256))",
						"numberOfBytes": "32",
						"value": "t_mapping(t_uint256,t_uint256)"
					},
					"t_mapping(t_uint256,t_uint256)": {
						"encoding": "mapping",
						"key": "t_uint256",
						"label": "mapping(uint256 => uint256)",
						"numberOfBytes": "32",
						"value": "t_uint256"
					},
					"t_string_storage": {
						"encoding": "bytes",
						"label": "string",
						"numberOfBytes": "32"
					},
					"t_struct(Record)14_storage": {
						"encoding": "inplace",
						"label": "struct twoTimeMappintC.Record",
						"members": [
							{
								"astId": 3,
								"contract": ".workspaces/default_workspace/lecture/twoTimeMapping.sol:twoTimeMappintC",
								"label": "name",
								"offset": 0,
								"slot": "0",
								"type": "t_string_storage"
							},
							{
								"astId": 5,
								"contract": ".workspaces/default_workspace/lecture/twoTimeMapping.sol:twoTimeMappintC",
								"label": "senderaddress",
								"offset": 0,
								"slot": "1",
								"type": "t_string_storage"
							},
							{
								"astId": 7,
								"contract": ".workspaces/default_workspace/lecture/twoTimeMapping.sol:twoTimeMappintC",
								"label": "reciveraddress",
								"offset": 0,
								"slot": "2",
								"type": "t_string_storage"
							},
							{
								"astId": 9,
								"contract": ".workspaces/default_workspace/lecture/twoTimeMapping.sol:twoTimeMappintC",
								"label": "scheduletime",
								"offset": 0,
								"slot": "3",
								"type": "t_string_storage"
							},
							{
								"astId": 11,
								"contract": ".workspaces/default_workspace/lecture/twoTimeMapping.sol:twoTimeMappintC",
								"label": "scheduledate",
								"offset": 0,
								"slot": "4",
								"type": "t_string_storage"
							},
							{
								"astId": 13,
								"contract": ".workspaces/default_workspace/lecture/twoTimeMapping.sol:twoTimeMappintC",
								"label": "time",
								"offset": 0,
								"slot": "5",
								"type": "t_uint256"
							}
						],
						"numberOfBytes": "192"
					},
					"t_uint256": {
						"encoding": "inplace",
						"label": "uint256",
						"numberOfBytes": "32"
					}
				}
			},
			"userdoc": {
				"kind": "user",
				"methods": {},
				"version": 1
			}
		}
	}
}