{
	".workspaces/default_workspace/lecture/twoTimeMapping.sol": {
		"twoTimeMappintC": {
			"abi": [
				{
					"inputs": [
						{
							"internalType": "uint256",
							"name": "",
							"type": "uint256"
						},
						{
							"internalType": "uint256",
							"name": "",
							"type": "uint256"
						}
					],
					"name": "test",
					"outputs": [
						{
							"internalType": "string",
							"name": "",
							"type": "string"
						}
					],
					"stateMutability": "view",
					"type": "function"
				}
			],
			"devdoc": {
				"kind": "dev",
				"methods": {},
				"version": 1
			},
			"evm": {
				"assembly": "    /* \".workspaces/default_workspace/lecture/twoTimeMapping.sol\":73:163  contract twoTimeMappintC {... */\n  mstore(0x40, 0x80)\n  callvalue\n  dup1\n  iszero\n  tag_1\n  jumpi\n  0x00\n  dup1\n  revert\ntag_1:\n  pop\n  dataSize(sub_0)\n  dup1\n  dataOffset(sub_0)\n  0x00\n  codecopy\n  0x00\n  return\nstop\n\nsub_0: assembly {\n        /* \".workspaces/default_workspace/lecture/twoTimeMapping.sol\":73:163  contract twoTimeMappintC {... */\n      mstore(0x40, 0x80)\n      callvalue\n      dup1\n      iszero\n      tag_1\n      jumpi\n      0x00\n      dup1\n      revert\n    tag_1:\n      pop\n      jumpi(tag_2, lt(calldatasize, 0x04))\n      shr(0xe0, calldataload(0x00))\n      dup1\n      0xeb8ac921\n      eq\n      tag_3\n      jumpi\n    tag_2:\n      0x00\n      dup1\n      revert\n        /* \".workspaces/default_workspace/lecture/twoTimeMapping.sol\":105:159  mapping( uint => mapping(uint => string) ) public test */\n    tag_3:\n      tag_4\n      0x04\n      dup1\n      calldatasize\n      sub\n      dup2\n      add\n      swap1\n      tag_5\n      swap2\n      swap1\n      tag_6\n      jump\t// in\n    tag_5:\n      tag_7\n      jump\t// in\n    tag_4:\n      mload(0x40)\n      tag_8\n      swap2\n      swap1\n      tag_9\n      jump\t// in\n    tag_8:\n      mload(0x40)\n      dup1\n      swap2\n      sub\n      swap1\n      return\n    tag_7:\n      mstore(0x20, 0x00)\n      dup2\n      0x00\n      mstore\n      mstore(0x20, keccak256(0x00, 0x40))\n      dup1\n      0x00\n      mstore\n      keccak256(0x00, 0x40)\n      0x00\n      swap2\n      pop\n      swap2\n      pop\n      pop\n      dup1\n      sload\n      tag_10\n      swap1\n      tag_11\n      jump\t// in\n    tag_10:\n      dup1\n      0x1f\n      add\n      0x20\n      dup1\n      swap2\n      div\n      mul\n      0x20\n      add\n      mload(0x40)\n      swap1\n      dup2\n      add\n      0x40\n      mstore\n      dup1\n      swap3\n      swap2\n      swap1\n      dup2\n      dup2\n      mstore\n      0x20\n      add\n      dup3\n      dup1\n      sload\n      tag_12\n      swap1\n      tag_11\n      jump\t// in\n    tag_12:\n      dup1\n      iszero\n      tag_13\n      jumpi\n      dup1\n      0x1f\n      lt\n      tag_14\n      jumpi\n      0x0100\n      dup1\n      dup4\n      sload\n      div\n      mul\n      dup4\n      mstore\n      swap2\n      0x20\n      add\n      swap2\n      jump(tag_13)\n    tag_14:\n      dup3\n      add\n      swap2\n      swap1\n      0x00\n      mstore\n      keccak256(0x00, 0x20)\n      swap1\n    tag_15:\n      dup2\n      sload\n      dup2\n      mstore\n      swap1\n      0x01\n      add\n      swap1\n      0x20\n      add\n      dup1\n      dup4\n      gt\n      tag_15\n      jumpi\n      dup3\n      swap1\n      sub\n      0x1f\n      and\n      dup3\n      add\n      swap2\n    tag_13:\n      pop\n      pop\n      pop\n      pop\n      pop\n      dup2\n      jump\t// out\n        /* \"#utility.yul\":88:205   */\n    tag_17:\n        /* \"#utility.yul\":197:198   */\n      0x00\n        /* \"#utility.yul\":194:195   */\n      dup1\n        /* \"#utility.yul\":187:199   */\n      revert\n        /* \"#utility.yul\":334:411   */\n    tag_19:\n        /* \"#utility.yul\":371:378   */\n      0x00\n        /* \"#utility.yul\":400:405   */\n      dup2\n        /* \"#utility.yul\":389:405   */\n      swap1\n      pop\n        /* \"#utility.yul\":334:411   */\n      swap2\n      swap1\n      pop\n      jump\t// out\n        /* \"#utility.yul\":417:539   */\n    tag_20:\n        /* \"#utility.yul\":490:514   */\n      tag_34\n        /* \"#utility.yul\":508:513   */\n      dup2\n        /* \"#utility.yul\":490:514   */\n      tag_19\n      jump\t// in\n    tag_34:\n        /* \"#utility.yul\":483:488   */\n      dup2\n        /* \"#utility.yul\":480:515   */\n      eq\n        /* \"#utility.yul\":470:533   */\n      tag_35\n      jumpi\n        /* \"#utility.yul\":529:530   */\n      0x00\n        /* \"#utility.yul\":526:527   */\n      dup1\n        /* \"#utility.yul\":519:531   */\n      revert\n        /* \"#utility.yul\":470:533   */\n    tag_35:\n        /* \"#utility.yul\":417:539   */\n      pop\n      jump\t// out\n        /* \"#utility.yul\":545:684   */\n    tag_21:\n        /* \"#utility.yul\":591:596   */\n      0x00\n        /* \"#utility.yul\":629:635   */\n      dup2\n        /* \"#utility.yul\":616:636   */\n      calldataload\n        /* \"#utility.yul\":607:636   */\n      swap1\n      pop\n        /* \"#utility.yul\":645:678   */\n      tag_37\n        /* \"#utility.yul\":672:677   */\n      dup2\n        /* \"#utility.yul\":645:678   */\n      tag_20\n      jump\t// in\n    tag_37:\n        /* \"#utility.yul\":545:684   */\n      swap3\n      swap2\n      pop\n      pop\n      jump\t// out\n        /* \"#utility.yul\":690:1164   */\n    tag_6:\n        /* \"#utility.yul\":758:764   */\n      0x00\n        /* \"#utility.yul\":766:772   */\n      dup1\n        /* \"#utility.yul\":815:817   */\n      0x40\n        /* \"#utility.yul\":803:812   */\n      dup4\n        /* \"#utility.yul\":794:801   */\n      dup6\n        /* \"#utility.yul\":790:813   */\n      sub\n        /* \"#utility.yul\":786:818   */\n      slt\n        /* \"#utility.yul\":783:902   */\n      iszero\n      tag_39\n      jumpi\n        /* \"#utility.yul\":821:900   */\n      tag_40\n      tag_17\n      jump\t// in\n    tag_40:\n        /* \"#utility.yul\":783:902   */\n    tag_39:\n        /* \"#utility.yul\":941:942   */\n      0x00\n        /* \"#utility.yul\":966:1019   */\n      tag_41\n        /* \"#utility.yul\":1011:1018   */\n      dup6\n        /* \"#utility.yul\":1002:1008   */\n      dup3\n        /* \"#utility.yul\":991:1000   */\n      dup7\n        /* \"#utility.yul\":987:1009   */\n      add\n        /* \"#utility.yul\":966:1019   */\n      tag_21\n      jump\t// in\n    tag_41:\n        /* \"#utility.yul\":956:1019   */\n      swap3\n      pop\n        /* \"#utility.yul\":912:1029   */\n      pop\n        /* \"#utility.yul\":1068:1070   */\n      0x20\n        /* \"#utility.yul\":1094:1147   */\n      tag_42\n        /* \"#utility.yul\":1139:1146   */\n      dup6\n        /* \"#utility.yul\":1130:1136   */\n      dup3\n        /* \"#utility.yul\":1119:1128   */\n      dup7\n        /* \"#utility.yul\":1115:1137   */\n      add\n        /* \"#utility.yul\":1094:1147   */\n      tag_21\n      jump\t// in\n    tag_42:\n        /* \"#utility.yul\":1084:1147   */\n      swap2\n      pop\n        /* \"#utility.yul\":1039:1157   */\n      pop\n        /* \"#utility.yul\":690:1164   */\n      swap3\n      pop\n      swap3\n      swap1\n      pop\n      jump\t// out\n        /* \"#utility.yul\":1170:1269   */\n    tag_22:\n        /* \"#utility.yul\":1222:1228   */\n      0x00\n        /* \"#utility.yul\":1256:1261   */\n      dup2\n        /* \"#utility.yul\":1250:1262   */\n      mload\n        /* \"#utility.yul\":1240:1262   */\n      swap1\n      pop\n        /* \"#utility.yul\":1170:1269   */\n      swap2\n      swap1\n      pop\n      jump\t// out\n        /* \"#utility.yul\":1275:1444   */\n    tag_23:\n        /* \"#utility.yul\":1359:1370   */\n      0x00\n        /* \"#utility.yul\":1393:1399   */\n      dup3\n        /* \"#utility.yul\":1388:1391   */\n      dup3\n        /* \"#utility.yul\":1381:1400   */\n      mstore\n        /* \"#utility.yul\":1433:1437   */\n      0x20\n        /* \"#utility.yul\":1428:1431   */\n      dup3\n        /* \"#utility.yul\":1424:1438   */\n      add\n        /* \"#utility.yul\":1409:1438   */\n      swap1\n      pop\n        /* \"#utility.yul\":1275:1444   */\n      swap3\n      swap2\n      pop\n      pop\n      jump\t// out\n        /* \"#utility.yul\":1450:1757   */\n    tag_24:\n        /* \"#utility.yul\":1518:1519   */\n      0x00\n        /* \"#utility.yul\":1528:1641   */\n    tag_46:\n        /* \"#utility.yul\":1542:1548   */\n      dup4\n        /* \"#utility.yul\":1539:1540   */\n      dup2\n        /* \"#utility.yul\":1536:1549   */\n      lt\n        /* \"#utility.yul\":1528:1641   */\n      iszero\n      tag_48\n      jumpi\n        /* \"#utility.yul\":1627:1628   */\n      dup1\n        /* \"#utility.yul\":1622:1625   */\n      dup3\n        /* \"#utility.yul\":1618:1629   */\n      add\n        /* \"#utility.yul\":1612:1630   */\n      mload\n        /* \"#utility.yul\":1608:1609   */\n      dup2\n        /* \"#utility.yul\":1603:1606   */\n      dup5\n        /* \"#utility.yul\":1599:1610   */\n      add\n        /* \"#utility.yul\":1592:1631   */\n      mstore\n        /* \"#utility.yul\":1564:1566   */\n      0x20\n        /* \"#utility.yul\":1561:1562   */\n      dup2\n        /* \"#utility.yul\":1557:1567   */\n      add\n        /* \"#utility.yul\":1552:1567   */\n      swap1\n      pop\n        /* \"#utility.yul\":1528:1641   */\n      jump(tag_46)\n    tag_48:\n        /* \"#utility.yul\":1659:1665   */\n      dup4\n        /* \"#utility.yul\":1656:1657   */\n      dup2\n        /* \"#utility.yul\":1653:1666   */\n      gt\n        /* \"#utility.yul\":1650:1751   */\n      iszero\n      tag_49\n      jumpi\n        /* \"#utility.yul\":1739:1740   */\n      0x00\n        /* \"#utility.yul\":1730:1736   */\n      dup5\n        /* \"#utility.yul\":1725:1728   */\n      dup5\n        /* \"#utility.yul\":1721:1737   */\n      add\n        /* \"#utility.yul\":1714:1741   */\n      mstore\n        /* \"#utility.yul\":1650:1751   */\n    tag_49:\n        /* \"#utility.yul\":1499:1757   */\n      pop\n        /* \"#utility.yul\":1450:1757   */\n      pop\n      pop\n      pop\n      jump\t// out\n        /* \"#utility.yul\":1763:1865   */\n    tag_25:\n        /* \"#utility.yul\":1804:1810   */\n      0x00\n        /* \"#utility.yul\":1855:1857   */\n      0x1f\n        /* \"#utility.yul\":1851:1858   */\n      not\n        /* \"#utility.yul\":1846:1848   */\n      0x1f\n        /* \"#utility.yul\":1839:1844   */\n      dup4\n        /* \"#utility.yul\":1835:1849   */\n      add\n        /* \"#utility.yul\":1831:1859   */\n      and\n        /* \"#utility.yul\":1821:1859   */\n      swap1\n      pop\n        /* \"#utility.yul\":1763:1865   */\n      swap2\n      swap1\n      pop\n      jump\t// out\n        /* \"#utility.yul\":1871:2235   */\n    tag_26:\n        /* \"#utility.yul\":1959:1962   */\n      0x00\n        /* \"#utility.yul\":1987:2026   */\n      tag_52\n        /* \"#utility.yul\":2020:2025   */\n      dup3\n        /* \"#utility.yul\":1987:2026   */\n      tag_22\n      jump\t// in\n    tag_52:\n        /* \"#utility.yul\":2042:2113   */\n      tag_53\n        /* \"#utility.yul\":2106:2112   */\n      dup2\n        /* \"#utility.yul\":2101:2104   */\n      dup6\n        /* \"#utility.yul\":2042:2113   */\n      tag_23\n      jump\t// in\n    tag_53:\n        /* \"#utility.yul\":2035:2113   */\n      swap4\n      pop\n        /* \"#utility.yul\":2122:2174   */\n      tag_54\n        /* \"#utility.yul\":2167:2173   */\n      dup2\n        /* \"#utility.yul\":2162:2165   */\n      dup6\n        /* \"#utility.yul\":2155:2159   */\n      0x20\n        /* \"#utility.yul\":2148:2153   */\n      dup7\n        /* \"#utility.yul\":2144:2160   */\n      add\n        /* \"#utility.yul\":2122:2174   */\n      tag_24\n      jump\t// in\n    tag_54:\n        /* \"#utility.yul\":2199:2228   */\n      tag_55\n        /* \"#utility.yul\":2221:2227   */\n      dup2\n        /* \"#utility.yul\":2199:2228   */\n      tag_25\n      jump\t// in\n    tag_55:\n        /* \"#utility.yul\":2194:2197   */\n      dup5\n        /* \"#utility.yul\":2190:2229   */\n      add\n        /* \"#utility.yul\":2183:2229   */\n      swap2\n      pop\n        /* \"#utility.yul\":1963:2235   */\n      pop\n        /* \"#utility.yul\":1871:2235   */\n      swap3\n      swap2\n      pop\n      pop\n      jump\t// out\n        /* \"#utility.yul\":2241:2554   */\n    tag_9:\n        /* \"#utility.yul\":2354:2358   */\n      0x00\n        /* \"#utility.yul\":2392:2394   */\n      0x20\n        /* \"#utility.yul\":2381:2390   */\n      dup3\n        /* \"#utility.yul\":2377:2395   */\n      add\n        /* \"#utility.yul\":2369:2395   */\n      swap1\n      pop\n        /* \"#utility.yul\":2441:2450   */\n      dup2\n        /* \"#utility.yul\":2435:2439   */\n      dup2\n        /* \"#utility.yul\":2431:2451   */\n      sub\n        /* \"#utility.yul\":2427:2428   */\n      0x00\n        /* \"#utility.yul\":2416:2425   */\n      dup4\n        /* \"#utility.yul\":2412:2429   */\n      add\n        /* \"#utility.yul\":2405:2452   */\n      mstore\n        /* \"#utility.yul\":2469:2547   */\n      tag_57\n        /* \"#utility.yul\":2542:2546   */\n      dup2\n        /* \"#utility.yul\":2533:2539   */\n      dup5\n        /* \"#utility.yul\":2469:2547   */\n      tag_26\n      jump\t// in\n    tag_57:\n        /* \"#utility.yul\":2461:2547   */\n      swap1\n      pop\n        /* \"#utility.yul\":2241:2554   */\n      swap3\n      swap2\n      pop\n      pop\n      jump\t// out\n        /* \"#utility.yul\":2560:2740   */\n    tag_27:\n        /* \"#utility.yul\":2608:2685   */\n      0x4e487b7100000000000000000000000000000000000000000000000000000000\n        /* \"#utility.yul\":2605:2606   */\n      0x00\n        /* \"#utility.yul\":2598:2686   */\n      mstore\n        /* \"#utility.yul\":2705:2709   */\n      0x22\n        /* \"#utility.yul\":2702:2703   */\n      0x04\n        /* \"#utility.yul\":2695:2710   */\n      mstore\n        /* \"#utility.yul\":2729:2733   */\n      0x24\n        /* \"#utility.yul\":2726:2727   */\n      0x00\n        /* \"#utility.yul\":2719:2734   */\n      revert\n        /* \"#utility.yul\":2746:3066   */\n    tag_11:\n        /* \"#utility.yul\":2790:2796   */\n      0x00\n        /* \"#utility.yul\":2827:2828   */\n      0x02\n        /* \"#utility.yul\":2821:2825   */\n      dup3\n        /* \"#utility.yul\":2817:2829   */\n      div\n        /* \"#utility.yul\":2807:2829   */\n      swap1\n      pop\n        /* \"#utility.yul\":2874:2875   */\n      0x01\n        /* \"#utility.yul\":2868:2872   */\n      dup3\n        /* \"#utility.yul\":2864:2876   */\n      and\n        /* \"#utility.yul\":2895:2913   */\n      dup1\n        /* \"#utility.yul\":2885:2966   */\n      tag_60\n      jumpi\n        /* \"#utility.yul\":2951:2955   */\n      0x7f\n        /* \"#utility.yul\":2943:2949   */\n      dup3\n        /* \"#utility.yul\":2939:2956   */\n      and\n        /* \"#utility.yul\":2929:2956   */\n      swap2\n      pop\n        /* \"#utility.yul\":2885:2966   */\n    tag_60:\n        /* \"#utility.yul\":3013:3015   */\n      0x20\n        /* \"#utility.yul\":3005:3011   */\n      dup3\n        /* \"#utility.yul\":3002:3016   */\n      lt\n        /* \"#utility.yul\":2982:3000   */\n      dup2\n        /* \"#utility.yul\":2979:3017   */\n      sub\n        /* \"#utility.yul\":2976:3060   */\n      tag_61\n      jumpi\n        /* \"#utility.yul\":3032:3050   */\n      tag_62\n      tag_27\n      jump\t// in\n    tag_62:\n        /* \"#utility.yul\":2976:3060   */\n    tag_61:\n        /* \"#utility.yul\":2797:3066   */\n      pop\n        /* \"#utility.yul\":2746:3066   */\n      swap2\n      swap1\n      pop\n      jump\t// out\n\n    auxdata: 0xa26469706673582212202673e9fcda46e85767405fe78c358c077ebf318c19424e786e0c9137b05b290c64736f6c634300080d0033\n}\n",
				"bytecode": {
					"linkReferences": {},
					"object": "608060405234801561001057600080fd5b506102d9806100206000396000f3fe608060405234801561001057600080fd5b506004361061002b5760003560e01c8063eb8ac92114610030575b600080fd5b61004a60048036038101906100459190610148565b610060565b6040516100579190610221565b60405180910390f35b600060205281600052604060002060205280600052604060002060009150915050805461008c90610272565b80601f01602080910402602001604051908101604052809291908181526020018280546100b890610272565b80156101055780601f106100da57610100808354040283529160200191610105565b820191906000526020600020905b8154815290600101906020018083116100e857829003601f168201915b505050505081565b600080fd5b6000819050919050565b61012581610112565b811461013057600080fd5b50565b6000813590506101428161011c565b92915050565b6000806040838503121561015f5761015e61010d565b5b600061016d85828601610133565b925050602061017e85828601610133565b9150509250929050565b600081519050919050565b600082825260208201905092915050565b60005b838110156101c25780820151818401526020810190506101a7565b838111156101d1576000848401525b50505050565b6000601f19601f8301169050919050565b60006101f382610188565b6101fd8185610193565b935061020d8185602086016101a4565b610216816101d7565b840191505092915050565b6000602082019050818103600083015261023b81846101e8565b905092915050565b7f4e487b7100000000000000000000000000000000000000000000000000000000600052602260045260246000fd5b6000600282049050600182168061028a57607f821691505b60208210810361029d5761029c610243565b5b5091905056fea26469706673582212202673e9fcda46e85767405fe78c358c077ebf318c19424e786e0c9137b05b290c64736f6c634300080d0033",
					"opcodes": "PUSH1 0x80 PUSH1 0x40 MSTORE CALLVALUE DUP1 ISZERO PUSH2 0x10 JUMPI PUSH1 0x0 DUP1 REVERT JUMPDEST POP PUSH2 0x2D9 DUP1 PUSH2 0x20 PUSH1 0x0 CODECOPY PUSH1 0x0 RETURN INVALID PUSH1 0x80 PUSH1 0x40 MSTORE CALLVALUE DUP1 ISZERO PUSH2 0x10 JUMPI PUSH1 0x0 DUP1 REVERT JUMPDEST POP PUSH1 0x4 CALLDATASIZE LT PUSH2 0x2B JUMPI PUSH1 0x0 CALLDATALOAD PUSH1 0xE0 SHR DUP1 PUSH4 0xEB8AC921 EQ PUSH2 0x30 JUMPI JUMPDEST PUSH1 0x0 DUP1 REVERT JUMPDEST PUSH2 0x4A PUSH1 0x4 DUP1 CALLDATASIZE SUB DUP2 ADD SWAP1 PUSH2 0x45 SWAP2 SWAP1 PUSH2 0x148 JUMP JUMPDEST PUSH2 0x60 JUMP JUMPDEST PUSH1 0x40 MLOAD PUSH2 0x57 SWAP2 SWAP1 PUSH2 0x221 JUMP JUMPDEST PUSH1 0x40 MLOAD DUP1 SWAP2 SUB SWAP1 RETURN JUMPDEST PUSH1 0x0 PUSH1 0x20 MSTORE DUP2 PUSH1 0x0 MSTORE PUSH1 0x40 PUSH1 0x0 KECCAK256 PUSH1 0x20 MSTORE DUP1 PUSH1 0x0 MSTORE PUSH1 0x40 PUSH1 0x0 KECCAK256 PUSH1 0x0 SWAP2 POP SWAP2 POP POP DUP1 SLOAD PUSH2 0x8C SWAP1 PUSH2 0x272 JUMP JUMPDEST DUP1 PUSH1 0x1F ADD PUSH1 0x20 DUP1 SWAP2 DIV MUL PUSH1 0x20 ADD PUSH1 0x40 MLOAD SWAP1 DUP2 ADD PUSH1 0x40 MSTORE DUP1 SWAP3 SWAP2 SWAP1 DUP2 DUP2 MSTORE PUSH1 0x20 ADD DUP3 DUP1 SLOAD PUSH2 0xB8 SWAP1 PUSH2 0x272 JUMP JUMPDEST DUP1 ISZERO PUSH2 0x105 JUMPI DUP1 PUSH1 0x1F LT PUSH2 0xDA JUMPI PUSH2 0x100 DUP1 DUP4 SLOAD DIV MUL DUP4 MSTORE SWAP2 PUSH1 0x20 ADD SWAP2 PUSH2 0x105 JUMP JUMPDEST DUP3 ADD SWAP2 SWAP1 PUSH1 0x0 MSTORE PUSH1 0x20 PUSH1 0x0 KECCAK256 SWAP1 JUMPDEST DUP2 SLOAD DUP2 MSTORE SWAP1 PUSH1 0x1 ADD SWAP1 PUSH1 0x20 ADD DUP1 DUP4 GT PUSH2 0xE8 JUMPI DUP3 SWAP1 SUB PUSH1 0x1F AND DUP3 ADD SWAP2 JUMPDEST POP POP POP POP POP DUP2 JUMP JUMPDEST PUSH1 0x0 DUP1 REVERT JUMPDEST PUSH1 0x0 DUP2 SWAP1 POP SWAP2 SWAP1 POP JUMP JUMPDEST PUSH2 0x125 DUP2 PUSH2 0x112 JUMP JUMPDEST DUP2 EQ PUSH2 0x130 JUMPI PUSH1 0x0 DUP1 REVERT JUMPDEST POP JUMP JUMPDEST PUSH1 0x0 DUP2 CALLDATALOAD SWAP1 POP PUSH2 0x142 DUP2 PUSH2 0x11C JUMP JUMPDEST SWAP3 SWAP2 POP POP JUMP JUMPDEST PUSH1 0x0 DUP1 PUSH1 0x40 DUP4 DUP6 SUB SLT ISZERO PUSH2 0x15F JUMPI PUSH2 0x15E PUSH2 0x10D JUMP JUMPDEST JUMPDEST PUSH1 0x0 PUSH2 0x16D DUP6 DUP3 DUP7 ADD PUSH2 0x133 JUMP JUMPDEST SWAP3 POP POP PUSH1 0x20 PUSH2 0x17E DUP6 DUP3 DUP7 ADD PUSH2 0x133 JUMP JUMPDEST SWAP2 POP POP SWAP3 POP SWAP3 SWAP1 POP JUMP JUMPDEST PUSH1 0x0 DUP2 MLOAD SWAP1 POP SWAP2 SWAP1 POP JUMP JUMPDEST PUSH1 0x0 DUP3 DUP3 MSTORE PUSH1 0x20 DUP3 ADD SWAP1 POP SWAP3 SWAP2 POP POP JUMP JUMPDEST PUSH1 0x0 JUMPDEST DUP4 DUP2 LT ISZERO PUSH2 0x1C2 JUMPI DUP1 DUP3 ADD MLOAD DUP2 DUP5 ADD MSTORE PUSH1 0x20 DUP2 ADD SWAP1 POP PUSH2 0x1A7 JUMP JUMPDEST DUP4 DUP2 GT ISZERO PUSH2 0x1D1 JUMPI PUSH1 0x0 DUP5 DUP5 ADD MSTORE JUMPDEST POP POP POP POP JUMP JUMPDEST PUSH1 0x0 PUSH1 0x1F NOT PUSH1 0x1F DUP4 ADD AND SWAP1 POP SWAP2 SWAP1 POP JUMP JUMPDEST PUSH1 0x0 PUSH2 0x1F3 DUP3 PUSH2 0x188 JUMP JUMPDEST PUSH2 0x1FD DUP2 DUP6 PUSH2 0x193 JUMP JUMPDEST SWAP4 POP PUSH2 0x20D DUP2 DUP6 PUSH1 0x20 DUP7 ADD PUSH2 0x1A4 JUMP JUMPDEST PUSH2 0x216 DUP2 PUSH2 0x1D7 JUMP JUMPDEST DUP5 ADD SWAP2 POP POP SWAP3 SWAP2 POP POP JUMP JUMPDEST PUSH1 0x0 PUSH1 0x20 DUP3 ADD SWAP1 POP DUP2 DUP2 SUB PUSH1 0x0 DUP4 ADD MSTORE PUSH2 0x23B DUP2 DUP5 PUSH2 0x1E8 JUMP JUMPDEST SWAP1 POP SWAP3 SWAP2 POP POP JUMP JUMPDEST PUSH32 0x4E487B7100000000000000000000000000000000000000000000000000000000 PUSH1 0x0 MSTORE PUSH1 0x22 PUSH1 0x4 MSTORE PUSH1 0x24 PUSH1 0x0 REVERT JUMPDEST PUSH1 0x0 PUSH1 0x2 DUP3 DIV SWAP1 POP PUSH1 0x1 DUP3 AND DUP1 PUSH2 0x28A JUMPI PUSH1 0x7F DUP3 AND SWAP2 POP JUMPDEST PUSH1 0x20 DUP3 LT DUP2 SUB PUSH2 0x29D JUMPI PUSH2 0x29C PUSH2 0x243 JUMP JUMPDEST JUMPDEST POP SWAP2 SWAP1 POP JUMP INVALID LOG2 PUSH5 0x6970667358 0x22 SLT KECCAK256 0x26 PUSH20 0xE9FCDA46E85767405FE78C358C077EBF318C1942 0x4E PUSH25 0x6E0C9137B05B290C64736F6C634300080D0033000000000000 "
				},
				"gasEstimates": {
					"creation": {
						"codeDepositCost": "145800",
						"executionCost": "190",
						"totalCost": "145990"
					},
					"external": {
						"test(uint256,uint256)": "infinite"
					}
				},
				"methodIdentifiers": {
					"test(uint256,uint256)": "eb8ac921"
				}
			},
			"storageLayout": {
				"storage": [
					{
						"astId": 7,
						"contract": ".workspaces/default_workspace/lecture/twoTimeMapping.sol:twoTimeMappintC",
						"label": "test",
						"offset": 0,
						"slot": "0",
						"type": "t_mapping(t_uint256,t_mapping(t_uint256,t_string_storage))"
					}
				],
				"types": {
					"t_mapping(t_uint256,t_mapping(t_uint256,t_string_storage))": {
						"encoding": "mapping",
						"key": "t_uint256",
						"label": "mapping(uint256 => mapping(uint256 => string))",
						"numberOfBytes": "32",
						"value": "t_mapping(t_uint256,t_string_storage)"
					},
					"t_mapping(t_uint256,t_string_storage)": {
						"encoding": "mapping",
						"key": "t_uint256",
						"label": "mapping(uint256 => string)",
						"numberOfBytes": "32",
						"value": "t_string_storage"
					},
					"t_string_storage": {
						"encoding": "bytes",
						"label": "string",
						"numberOfBytes": "32"
					},
					"t_uint256": {
						"encoding": "inplace",
						"label": "uint256",
						"numberOfBytes": "32"
					}
				}
			},
			"userdoc": {
				"kind": "user",
				"methods": {},
				"version": 1
			}
		}
	}
}