{
	"lecture/capture.sol": {
		"lec19": {
			"abi": [
				{
					"inputs": [],
					"name": "UpdateMap",
					"outputs": [],
					"stateMutability": "nonpayable",
					"type": "function"
				},
				{
					"inputs": [
						{
							"internalType": "uint256",
							"name": "_num",
							"type": "uint256"
						}
					],
					"name": "changeNum",
					"outputs": [],
					"stateMutability": "nonpayable",
					"type": "function"
				},
				{
					"inputs": [],
					"name": "numArrayAdd",
					"outputs": [],
					"stateMutability": "nonpayable",
					"type": "function"
				},
				{
					"inputs": [],
					"name": "numMapAdd",
					"outputs": [],
					"stateMutability": "nonpayable",
					"type": "function"
				},
				{
					"inputs": [],
					"name": "showNum",
					"outputs": [
						{
							"internalType": "uint256",
							"name": "",
							"type": "uint256"
						}
					],
					"stateMutability": "view",
					"type": "function"
				},
				{
					"inputs": [],
					"name": "showNumArray",
					"outputs": [
						{
							"internalType": "uint256",
							"name": "",
							"type": "uint256"
						}
					],
					"stateMutability": "view",
					"type": "function"
				},
				{
					"inputs": [],
					"name": "showNumMap",
					"outputs": [
						{
							"internalType": "uint256",
							"name": "",
							"type": "uint256"
						}
					],
					"stateMutability": "view",
					"type": "function"
				},
				{
					"inputs": [],
					"name": "updateArray",
					"outputs": [],
					"stateMutability": "nonpayable",
					"type": "function"
				}
			],
			"devdoc": {
				"kind": "dev",
				"methods": {},
				"version": 1
			},
			"evm": {
				"assembly": "    /* \"lecture/capture.sol\":72:791  contract lec19{... */\n  mstore(0x40, 0x80)\n    /* \"lecture/capture.sol\":106:108  89 */\n  0x59\n    /* \"lecture/capture.sol\":92:108  uint256 num = 89 */\n  0x00\n  sstore\n    /* \"lecture/capture.sol\":72:791  contract lec19{... */\n  callvalue\n  dup1\n  iszero\n  tag_1\n  jumpi\n  0x00\n  dup1\n  revert\ntag_1:\n  pop\n  dataSize(sub_0)\n  dup1\n  dataOffset(sub_0)\n  0x00\n  codecopy\n  0x00\n  return\nstop\n\nsub_0: assembly {\n        /* \"lecture/capture.sol\":72:791  contract lec19{... */\n      mstore(0x40, 0x80)\n      callvalue\n      dup1\n      iszero\n      tag_1\n      jumpi\n      0x00\n      dup1\n      revert\n    tag_1:\n      pop\n      jumpi(tag_2, lt(calldatasize, 0x04))\n      shr(0xe0, calldataload(0x00))\n      dup1\n      0x5bd1cdbd\n      gt\n      tag_11\n      jumpi\n      dup1\n      0x5bd1cdbd\n      eq\n      tag_7\n      jumpi\n      dup1\n      0x965db2f2\n      eq\n      tag_8\n      jumpi\n      dup1\n      0xb18c518c\n      eq\n      tag_9\n      jumpi\n      dup1\n      0xee4c8a67\n      eq\n      tag_10\n      jumpi\n      jump(tag_2)\n    tag_11:\n      dup1\n      0x1c8763e1\n      eq\n      tag_3\n      jumpi\n      dup1\n      0x2b311337\n      eq\n      tag_4\n      jumpi\n      dup1\n      0x3a3f45b7\n      eq\n      tag_5\n      jumpi\n      dup1\n      0x40fbe435\n      eq\n      tag_6\n      jumpi\n    tag_2:\n      0x00\n      dup1\n      revert\n        /* \"lecture/capture.sol\":254:327  function showNum() public view returns(uint256){... */\n    tag_3:\n      tag_12\n      tag_13\n      jump\t// in\n    tag_12:\n      mload(0x40)\n      tag_14\n      swap2\n      swap1\n      tag_15\n      jump\t// in\n    tag_14:\n      mload(0x40)\n      dup1\n      swap2\n      sub\n      swap1\n      return\n        /* \"lecture/capture.sol\":183:249  function changeNum(uint256 _num) public{... */\n    tag_4:\n      tag_16\n      0x04\n      dup1\n      calldatasize\n      sub\n      dup2\n      add\n      swap1\n      tag_17\n      swap2\n      swap1\n      tag_18\n      jump\t// in\n    tag_17:\n      tag_19\n      jump\t// in\n    tag_16:\n      stop\n        /* \"lecture/capture.sol\":719:783  function updateArray() public {... */\n    tag_5:\n      tag_20\n      tag_21\n      jump\t// in\n    tag_20:\n      stop\n        /* \"lecture/capture.sol\":401:484  function showNumMap() public view returns(uint256){... */\n    tag_6:\n      tag_22\n      tag_23\n      jump\t// in\n    tag_22:\n      mload(0x40)\n      tag_24\n      swap2\n      swap1\n      tag_15\n      jump\t// in\n    tag_24:\n      mload(0x40)\n      dup1\n      swap2\n      sub\n      swap1\n      return\n        /* \"lecture/capture.sol\":489:548  function UpdateMap() public{... */\n    tag_7:\n      tag_25\n      tag_26\n      jump\t// in\n    tag_25:\n      stop\n        /* \"lecture/capture.sol\":627:714  function showNumArray() public view returns(uint256){... */\n    tag_8:\n      tag_27\n      tag_28\n      jump\t// in\n    tag_27:\n      mload(0x40)\n      tag_29\n      swap2\n      swap1\n      tag_15\n      jump\t// in\n    tag_29:\n      mload(0x40)\n      dup1\n      swap2\n      sub\n      swap1\n      return\n        /* \"lecture/capture.sol\":337:396  function numMapAdd() public{... */\n    tag_9:\n      tag_30\n      tag_31\n      jump\t// in\n    tag_30:\n      stop\n        /* \"lecture/capture.sol\":558:622  function numArrayAdd() public{... */\n    tag_10:\n      tag_32\n      tag_33\n      jump\t// in\n    tag_32:\n      stop\n        /* \"lecture/capture.sol\":254:327  function showNum() public view returns(uint256){... */\n    tag_13:\n        /* \"lecture/capture.sol\":293:300  uint256 */\n      0x00\n        /* \"lecture/capture.sol\":317:320  num */\n      dup1\n      sload\n        /* \"lecture/capture.sol\":310:320  return num */\n      swap1\n      pop\n        /* \"lecture/capture.sol\":254:327  function showNum() public view returns(uint256){... */\n      swap1\n      jump\t// out\n        /* \"lecture/capture.sol\":183:249  function changeNum(uint256 _num) public{... */\n    tag_19:\n        /* \"lecture/capture.sol\":238:242  _num */\n      dup1\n        /* \"lecture/capture.sol\":232:235  num */\n      0x00\n        /* \"lecture/capture.sol\":232:242  num = _num */\n      dup2\n      swap1\n      sstore\n      pop\n        /* \"lecture/capture.sol\":183:249  function changeNum(uint256 _num) public{... */\n      pop\n      jump\t// out\n        /* \"lecture/capture.sol\":719:783  function updateArray() public {... */\n    tag_21:\n        /* \"lecture/capture.sol\":773:776  num */\n      sload(0x00)\n        /* \"lecture/capture.sol\":759:767  numArray */\n      0x02\n        /* \"lecture/capture.sol\":768:769  0 */\n      0x00\n        /* \"lecture/capture.sol\":759:770  numArray[0] */\n      dup2\n      sload\n      dup2\n      lt\n      tag_37\n      jumpi\n      tag_38\n      tag_39\n      jump\t// in\n    tag_38:\n    tag_37:\n      swap1\n      0x00\n      mstore\n      keccak256(0x00, 0x20)\n      add\n        /* \"lecture/capture.sol\":759:776  numArray[0] = num */\n      dup2\n      swap1\n      sstore\n      pop\n        /* \"lecture/capture.sol\":719:783  function updateArray() public {... */\n      jump\t// out\n        /* \"lecture/capture.sol\":401:484  function showNumMap() public view returns(uint256){... */\n    tag_23:\n        /* \"lecture/capture.sol\":443:450  uint256 */\n      0x00\n        /* \"lecture/capture.sol\":468:474  numMap */\n      0x01\n        /* \"lecture/capture.sol\":468:477  numMap[0] */\n      0x00\n        /* \"lecture/capture.sol\":475:476  0 */\n      dup1\n        /* \"lecture/capture.sol\":468:477  numMap[0] */\n      dup2\n      mstore\n      0x20\n      add\n      swap1\n      dup2\n      mstore\n      0x20\n      add\n      0x00\n      keccak256\n      sload\n        /* \"lecture/capture.sol\":461:477  return numMap[0] */\n      swap1\n      pop\n        /* \"lecture/capture.sol\":401:484  function showNumMap() public view returns(uint256){... */\n      swap1\n      jump\t// out\n        /* \"lecture/capture.sol\":489:548  function UpdateMap() public{... */\n    tag_26:\n        /* \"lecture/capture.sol\":538:541  num */\n      sload(0x00)\n        /* \"lecture/capture.sol\":526:532  numMap */\n      0x01\n        /* \"lecture/capture.sol\":526:535  numMap[0] */\n      0x00\n        /* \"lecture/capture.sol\":533:534  0 */\n      dup1\n        /* \"lecture/capture.sol\":526:535  numMap[0] */\n      dup2\n      mstore\n      0x20\n      add\n      swap1\n      dup2\n      mstore\n      0x20\n      add\n      0x00\n      keccak256\n        /* \"lecture/capture.sol\":526:541  numMap[0] = num */\n      dup2\n      swap1\n      sstore\n      pop\n        /* \"lecture/capture.sol\":489:548  function UpdateMap() public{... */\n      jump\t// out\n        /* \"lecture/capture.sol\":627:714  function showNumArray() public view returns(uint256){... */\n    tag_28:\n        /* \"lecture/capture.sol\":671:678  uint256 */\n      0x00\n        /* \"lecture/capture.sol\":696:704  numArray */\n      0x02\n        /* \"lecture/capture.sol\":705:706  0 */\n      0x00\n        /* \"lecture/capture.sol\":696:707  numArray[0] */\n      dup2\n      sload\n      dup2\n      lt\n      tag_44\n      jumpi\n      tag_45\n      tag_39\n      jump\t// in\n    tag_45:\n    tag_44:\n      swap1\n      0x00\n      mstore\n      keccak256(0x00, 0x20)\n      add\n      sload\n        /* \"lecture/capture.sol\":689:707  return numArray[0] */\n      swap1\n      pop\n        /* \"lecture/capture.sol\":627:714  function showNumArray() public view returns(uint256){... */\n      swap1\n      jump\t// out\n        /* \"lecture/capture.sol\":337:396  function numMapAdd() public{... */\n    tag_31:\n        /* \"lecture/capture.sol\":386:389  num */\n      sload(0x00)\n        /* \"lecture/capture.sol\":374:380  numMap */\n      0x01\n        /* \"lecture/capture.sol\":374:383  numMap[0] */\n      0x00\n        /* \"lecture/capture.sol\":381:382  0 */\n      dup1\n        /* \"lecture/capture.sol\":374:383  numMap[0] */\n      dup2\n      mstore\n      0x20\n      add\n      swap1\n      dup2\n      mstore\n      0x20\n      add\n      0x00\n      keccak256\n        /* \"lecture/capture.sol\":374:389  numMap[0] = num */\n      dup2\n      swap1\n      sstore\n      pop\n        /* \"lecture/capture.sol\":337:396  function numMapAdd() public{... */\n      jump\t// out\n        /* \"lecture/capture.sol\":558:622  function numArrayAdd() public{... */\n    tag_33:\n        /* \"lecture/capture.sol\":597:605  numArray */\n      0x02\n        /* \"lecture/capture.sol\":611:614  num */\n      sload(0x00)\n        /* \"lecture/capture.sol\":597:615  numArray.push(num) */\n      swap1\n      dup1\n      0x01\n      dup2\n      sload\n      add\n      dup1\n      dup3\n      sstore\n      dup1\n      swap2\n      pop\n      pop\n      0x01\n      swap1\n      sub\n      swap1\n      0x00\n      mstore\n      keccak256(0x00, 0x20)\n      add\n      0x00\n      swap1\n      swap2\n      swap1\n      swap2\n      swap1\n      swap2\n      pop\n      sstore\n        /* \"lecture/capture.sol\":558:622  function numArrayAdd() public{... */\n      jump\t// out\n        /* \"#utility.yul\":7:84   */\n    tag_50:\n        /* \"#utility.yul\":44:51   */\n      0x00\n        /* \"#utility.yul\":73:78   */\n      dup2\n        /* \"#utility.yul\":62:78   */\n      swap1\n      pop\n        /* \"#utility.yul\":7:84   */\n      swap2\n      swap1\n      pop\n      jump\t// out\n        /* \"#utility.yul\":90:208   */\n    tag_51:\n        /* \"#utility.yul\":177:201   */\n      tag_60\n        /* \"#utility.yul\":195:200   */\n      dup2\n        /* \"#utility.yul\":177:201   */\n      tag_50\n      jump\t// in\n    tag_60:\n        /* \"#utility.yul\":172:175   */\n      dup3\n        /* \"#utility.yul\":165:202   */\n      mstore\n        /* \"#utility.yul\":90:208   */\n      pop\n      pop\n      jump\t// out\n        /* \"#utility.yul\":214:436   */\n    tag_15:\n        /* \"#utility.yul\":307:311   */\n      0x00\n        /* \"#utility.yul\":345:347   */\n      0x20\n        /* \"#utility.yul\":334:343   */\n      dup3\n        /* \"#utility.yul\":330:348   */\n      add\n        /* \"#utility.yul\":322:348   */\n      swap1\n      pop\n        /* \"#utility.yul\":358:429   */\n      tag_62\n        /* \"#utility.yul\":426:427   */\n      0x00\n        /* \"#utility.yul\":415:424   */\n      dup4\n        /* \"#utility.yul\":411:428   */\n      add\n        /* \"#utility.yul\":402:408   */\n      dup5\n        /* \"#utility.yul\":358:429   */\n      tag_51\n      jump\t// in\n    tag_62:\n        /* \"#utility.yul\":214:436   */\n      swap3\n      swap2\n      pop\n      pop\n      jump\t// out\n        /* \"#utility.yul\":523:640   */\n    tag_53:\n        /* \"#utility.yul\":632:633   */\n      0x00\n        /* \"#utility.yul\":629:630   */\n      dup1\n        /* \"#utility.yul\":622:634   */\n      revert\n        /* \"#utility.yul\":769:891   */\n    tag_55:\n        /* \"#utility.yul\":842:866   */\n      tag_67\n        /* \"#utility.yul\":860:865   */\n      dup2\n        /* \"#utility.yul\":842:866   */\n      tag_50\n      jump\t// in\n    tag_67:\n        /* \"#utility.yul\":835:840   */\n      dup2\n        /* \"#utility.yul\":832:867   */\n      eq\n        /* \"#utility.yul\":822:885   */\n      tag_68\n      jumpi\n        /* \"#utility.yul\":881:882   */\n      0x00\n        /* \"#utility.yul\":878:879   */\n      dup1\n        /* \"#utility.yul\":871:883   */\n      revert\n        /* \"#utility.yul\":822:885   */\n    tag_68:\n        /* \"#utility.yul\":769:891   */\n      pop\n      jump\t// out\n        /* \"#utility.yul\":897:1036   */\n    tag_56:\n        /* \"#utility.yul\":943:948   */\n      0x00\n        /* \"#utility.yul\":981:987   */\n      dup2\n        /* \"#utility.yul\":968:988   */\n      calldataload\n        /* \"#utility.yul\":959:988   */\n      swap1\n      pop\n        /* \"#utility.yul\":997:1030   */\n      tag_70\n        /* \"#utility.yul\":1024:1029   */\n      dup2\n        /* \"#utility.yul\":997:1030   */\n      tag_55\n      jump\t// in\n    tag_70:\n        /* \"#utility.yul\":897:1036   */\n      swap3\n      swap2\n      pop\n      pop\n      jump\t// out\n        /* \"#utility.yul\":1042:1371   */\n    tag_18:\n        /* \"#utility.yul\":1101:1107   */\n      0x00\n        /* \"#utility.yul\":1150:1152   */\n      0x20\n        /* \"#utility.yul\":1138:1147   */\n      dup3\n        /* \"#utility.yul\":1129:1136   */\n      dup5\n        /* \"#utility.yul\":1125:1148   */\n      sub\n        /* \"#utility.yul\":1121:1153   */\n      slt\n        /* \"#utility.yul\":1118:1237   */\n      iszero\n      tag_72\n      jumpi\n        /* \"#utility.yul\":1156:1235   */\n      tag_73\n      tag_53\n      jump\t// in\n    tag_73:\n        /* \"#utility.yul\":1118:1237   */\n    tag_72:\n        /* \"#utility.yul\":1276:1277   */\n      0x00\n        /* \"#utility.yul\":1301:1354   */\n      tag_74\n        /* \"#utility.yul\":1346:1353   */\n      dup5\n        /* \"#utility.yul\":1337:1343   */\n      dup3\n        /* \"#utility.yul\":1326:1335   */\n      dup6\n        /* \"#utility.yul\":1322:1344   */\n      add\n        /* \"#utility.yul\":1301:1354   */\n      tag_56\n      jump\t// in\n    tag_74:\n        /* \"#utility.yul\":1291:1354   */\n      swap2\n      pop\n        /* \"#utility.yul\":1247:1364   */\n      pop\n        /* \"#utility.yul\":1042:1371   */\n      swap3\n      swap2\n      pop\n      pop\n      jump\t// out\n        /* \"#utility.yul\":1377:1557   */\n    tag_39:\n        /* \"#utility.yul\":1425:1502   */\n      0x4e487b7100000000000000000000000000000000000000000000000000000000\n        /* \"#utility.yul\":1422:1423   */\n      0x00\n        /* \"#utility.yul\":1415:1503   */\n      mstore\n        /* \"#utility.yul\":1522:1526   */\n      0x32\n        /* \"#utility.yul\":1519:1520   */\n      0x04\n        /* \"#utility.yul\":1512:1527   */\n      mstore\n        /* \"#utility.yul\":1546:1550   */\n      0x24\n        /* \"#utility.yul\":1543:1544   */\n      0x00\n        /* \"#utility.yul\":1536:1551   */\n      revert\n\n    auxdata: 0xa26469706673582212202e83f02dbaad1a6c4a95691bb0109260bb5aff6234c553259dd2786342c6197764736f6c634300080d0033\n}\n",
				"bytecode": {
					"linkReferences": {},
					"object": "6080604052605960005534801561001557600080fd5b50610304806100256000396000f3fe608060405234801561001057600080fd5b50600436106100885760003560e01c80635bd1cdbd1161005b5780635bd1cdbd146100ef578063965db2f2146100f9578063b18c518c14610117578063ee4c8a671461012157610088565b80631c8763e11461008d5780632b311337146100ab5780633a3f45b7146100c757806340fbe435146100d1575b600080fd5b61009561012b565b6040516100a29190610226565b60405180910390f35b6100c560048036038101906100c09190610272565b610134565b005b6100cf61013e565b005b6100d9610166565b6040516100e69190610226565b60405180910390f35b6100f7610181565b005b61010161019d565b60405161010e9190610226565b60405180910390f35b61011f6101c4565b005b6101296101e0565b005b60008054905090565b8060008190555050565b60005460026000815481106101565761015561029f565b5b9060005260206000200181905550565b60006001600080815260200190815260200160002054905090565b6000546001600080815260200190815260200160002081905550565b600060026000815481106101b4576101b361029f565b5b9060005260206000200154905090565b6000546001600080815260200190815260200160002081905550565b60026000549080600181540180825580915050600190039060005260206000200160009091909190915055565b6000819050919050565b6102208161020d565b82525050565b600060208201905061023b6000830184610217565b92915050565b600080fd5b61024f8161020d565b811461025a57600080fd5b50565b60008135905061026c81610246565b92915050565b60006020828403121561028857610287610241565b5b60006102968482850161025d565b91505092915050565b7f4e487b7100000000000000000000000000000000000000000000000000000000600052603260045260246000fdfea26469706673582212202e83f02dbaad1a6c4a95691bb0109260bb5aff6234c553259dd2786342c6197764736f6c634300080d0033",
					"opcodes": "PUSH1 0x80 PUSH1 0x40 MSTORE PUSH1 0x59 PUSH1 0x0 SSTORE CALLVALUE DUP1 ISZERO PUSH2 0x15 JUMPI PUSH1 0x0 DUP1 REVERT JUMPDEST POP PUSH2 0x304 DUP1 PUSH2 0x25 PUSH1 0x0 CODECOPY PUSH1 0x0 RETURN INVALID PUSH1 0x80 PUSH1 0x40 MSTORE CALLVALUE DUP1 ISZERO PUSH2 0x10 JUMPI PUSH1 0x0 DUP1 REVERT JUMPDEST POP PUSH1 0x4 CALLDATASIZE LT PUSH2 0x88 JUMPI PUSH1 0x0 CALLDATALOAD PUSH1 0xE0 SHR DUP1 PUSH4 0x5BD1CDBD GT PUSH2 0x5B JUMPI DUP1 PUSH4 0x5BD1CDBD EQ PUSH2 0xEF JUMPI DUP1 PUSH4 0x965DB2F2 EQ PUSH2 0xF9 JUMPI DUP1 PUSH4 0xB18C518C EQ PUSH2 0x117 JUMPI DUP1 PUSH4 0xEE4C8A67 EQ PUSH2 0x121 JUMPI PUSH2 0x88 JUMP JUMPDEST DUP1 PUSH4 0x1C8763E1 EQ PUSH2 0x8D JUMPI DUP1 PUSH4 0x2B311337 EQ PUSH2 0xAB JUMPI DUP1 PUSH4 0x3A3F45B7 EQ PUSH2 0xC7 JUMPI DUP1 PUSH4 0x40FBE435 EQ PUSH2 0xD1 JUMPI JUMPDEST PUSH1 0x0 DUP1 REVERT JUMPDEST PUSH2 0x95 PUSH2 0x12B JUMP JUMPDEST PUSH1 0x40 MLOAD PUSH2 0xA2 SWAP2 SWAP1 PUSH2 0x226 JUMP JUMPDEST PUSH1 0x40 MLOAD DUP1 SWAP2 SUB SWAP1 RETURN JUMPDEST PUSH2 0xC5 PUSH1 0x4 DUP1 CALLDATASIZE SUB DUP2 ADD SWAP1 PUSH2 0xC0 SWAP2 SWAP1 PUSH2 0x272 JUMP JUMPDEST PUSH2 0x134 JUMP JUMPDEST STOP JUMPDEST PUSH2 0xCF PUSH2 0x13E JUMP JUMPDEST STOP JUMPDEST PUSH2 0xD9 PUSH2 0x166 JUMP JUMPDEST PUSH1 0x40 MLOAD PUSH2 0xE6 SWAP2 SWAP1 PUSH2 0x226 JUMP JUMPDEST PUSH1 0x40 MLOAD DUP1 SWAP2 SUB SWAP1 RETURN JUMPDEST PUSH2 0xF7 PUSH2 0x181 JUMP JUMPDEST STOP JUMPDEST PUSH2 0x101 PUSH2 0x19D JUMP JUMPDEST PUSH1 0x40 MLOAD PUSH2 0x10E SWAP2 SWAP1 PUSH2 0x226 JUMP JUMPDEST PUSH1 0x40 MLOAD DUP1 SWAP2 SUB SWAP1 RETURN JUMPDEST PUSH2 0x11F PUSH2 0x1C4 JUMP JUMPDEST STOP JUMPDEST PUSH2 0x129 PUSH2 0x1E0 JUMP JUMPDEST STOP JUMPDEST PUSH1 0x0 DUP1 SLOAD SWAP1 POP SWAP1 JUMP JUMPDEST DUP1 PUSH1 0x0 DUP2 SWAP1 SSTORE POP POP JUMP JUMPDEST PUSH1 0x0 SLOAD PUSH1 0x2 PUSH1 0x0 DUP2 SLOAD DUP2 LT PUSH2 0x156 JUMPI PUSH2 0x155 PUSH2 0x29F JUMP JUMPDEST JUMPDEST SWAP1 PUSH1 0x0 MSTORE PUSH1 0x20 PUSH1 0x0 KECCAK256 ADD DUP2 SWAP1 SSTORE POP JUMP JUMPDEST PUSH1 0x0 PUSH1 0x1 PUSH1 0x0 DUP1 DUP2 MSTORE PUSH1 0x20 ADD SWAP1 DUP2 MSTORE PUSH1 0x20 ADD PUSH1 0x0 KECCAK256 SLOAD SWAP1 POP SWAP1 JUMP JUMPDEST PUSH1 0x0 SLOAD PUSH1 0x1 PUSH1 0x0 DUP1 DUP2 MSTORE PUSH1 0x20 ADD SWAP1 DUP2 MSTORE PUSH1 0x20 ADD PUSH1 0x0 KECCAK256 DUP2 SWAP1 SSTORE POP JUMP JUMPDEST PUSH1 0x0 PUSH1 0x2 PUSH1 0x0 DUP2 SLOAD DUP2 LT PUSH2 0x1B4 JUMPI PUSH2 0x1B3 PUSH2 0x29F JUMP JUMPDEST JUMPDEST SWAP1 PUSH1 0x0 MSTORE PUSH1 0x20 PUSH1 0x0 KECCAK256 ADD SLOAD SWAP1 POP SWAP1 JUMP JUMPDEST PUSH1 0x0 SLOAD PUSH1 0x1 PUSH1 0x0 DUP1 DUP2 MSTORE PUSH1 0x20 ADD SWAP1 DUP2 MSTORE PUSH1 0x20 ADD PUSH1 0x0 KECCAK256 DUP2 SWAP1 SSTORE POP JUMP JUMPDEST PUSH1 0x2 PUSH1 0x0 SLOAD SWAP1 DUP1 PUSH1 0x1 DUP2 SLOAD ADD DUP1 DUP3 SSTORE DUP1 SWAP2 POP POP PUSH1 0x1 SWAP1 SUB SWAP1 PUSH1 0x0 MSTORE PUSH1 0x20 PUSH1 0x0 KECCAK256 ADD PUSH1 0x0 SWAP1 SWAP2 SWAP1 SWAP2 SWAP1 SWAP2 POP SSTORE JUMP JUMPDEST PUSH1 0x0 DUP2 SWAP1 POP SWAP2 SWAP1 POP JUMP JUMPDEST PUSH2 0x220 DUP2 PUSH2 0x20D JUMP JUMPDEST DUP3 MSTORE POP POP JUMP JUMPDEST PUSH1 0x0 PUSH1 0x20 DUP3 ADD SWAP1 POP PUSH2 0x23B PUSH1 0x0 DUP4 ADD DUP5 PUSH2 0x217 JUMP JUMPDEST SWAP3 SWAP2 POP POP JUMP JUMPDEST PUSH1 0x0 DUP1 REVERT JUMPDEST PUSH2 0x24F DUP2 PUSH2 0x20D JUMP JUMPDEST DUP2 EQ PUSH2 0x25A JUMPI PUSH1 0x0 DUP1 REVERT JUMPDEST POP JUMP JUMPDEST PUSH1 0x0 DUP2 CALLDATALOAD SWAP1 POP PUSH2 0x26C DUP2 PUSH2 0x246 JUMP JUMPDEST SWAP3 SWAP2 POP POP JUMP JUMPDEST PUSH1 0x0 PUSH1 0x20 DUP3 DUP5 SUB SLT ISZERO PUSH2 0x288 JUMPI PUSH2 0x287 PUSH2 0x241 JUMP JUMPDEST JUMPDEST PUSH1 0x0 PUSH2 0x296 DUP5 DUP3 DUP6 ADD PUSH2 0x25D JUMP JUMPDEST SWAP2 POP POP SWAP3 SWAP2 POP POP JUMP JUMPDEST PUSH32 0x4E487B7100000000000000000000000000000000000000000000000000000000 PUSH1 0x0 MSTORE PUSH1 0x32 PUSH1 0x4 MSTORE PUSH1 0x24 PUSH1 0x0 REVERT INVALID LOG2 PUSH5 0x6970667358 0x22 SLT KECCAK256 0x2E DUP4 CREATE 0x2D 0xBA 0xAD BYTE PUSH13 0x4A95691BB0109260BB5AFF6234 0xC5 MSTORE8 0x25 SWAP14 0xD2 PUSH25 0x6342C6197764736F6C634300080D0033000000000000000000 "
				},
				"gasEstimates": {
					"creation": {
						"codeDepositCost": "154400",
						"executionCost": "22308",
						"totalCost": "176708"
					},
					"external": {
						"UpdateMap()": "24436",
						"changeNum(uint256)": "22543",
						"numArrayAdd()": "48733",
						"numMapAdd()": "24480",
						"showNum()": "2438",
						"showNumArray()": "4639",
						"showNumMap()": "2582",
						"updateArray()": "26583"
					}
				},
				"methodIdentifiers": {
					"UpdateMap()": "5bd1cdbd",
					"changeNum(uint256)": "2b311337",
					"numArrayAdd()": "ee4c8a67",
					"numMapAdd()": "b18c518c",
					"showNum()": "1c8763e1",
					"showNumArray()": "965db2f2",
					"showNumMap()": "40fbe435",
					"updateArray()": "3a3f45b7"
				}
			},
			"userdoc": {
				"kind": "user",
				"methods": {},
				"version": 1
			}
		}
	}
}