{
	"lecture/smart.sol": {
		"MoneyBox": {
			"abi": [
				{
					"inputs": [],
					"stateMutability": "nonpayable",
					"type": "constructor"
				},
				{
					"anonymous": false,
					"inputs": [
						{
							"indexed": true,
							"internalType": "address",
							"name": "sender",
							"type": "address"
						},
						{
							"indexed": false,
							"internalType": "uint256",
							"name": "payment",
							"type": "uint256"
						}
					],
					"name": "WhoPaid",
					"type": "event"
				},
				{
					"inputs": [],
					"name": "checkRound",
					"outputs": [
						{
							"internalType": "uint256",
							"name": "",
							"type": "uint256"
						}
					],
					"stateMutability": "view",
					"type": "function"
				},
				{
					"inputs": [],
					"name": "checkValue",
					"outputs": [
						{
							"internalType": "uint256",
							"name": "",
							"type": "uint256"
						}
					],
					"stateMutability": "view",
					"type": "function"
				}
			],
			"devdoc": {
				"kind": "dev",
				"methods": {},
				"version": 1
			},
			"evm": {
				"assembly": "    /* \"lecture/smart.sol\":407:983  contract MoneyBox {... */\n  mstore(0x40, 0x80)\n    /* \"lecture/smart.sol\":650:651  1 */\n  0x01\n    /* \"lecture/smart.sol\":637:651  uint round = 1 */\n  0x02\n  sstore\n    /* \"lecture/smart.sol\":660:712  constructor() {... */\n  callvalue\n  dup1\n  iszero\n  tag_1\n  jumpi\n  0x00\n  dup1\n  revert\ntag_1:\n  pop\n    /* \"lecture/smart.sol\":694:704  msg.sender */\n  caller\n    /* \"lecture/smart.sol\":685:691  ownwer */\n  0x00\n  dup1\n    /* \"lecture/smart.sol\":685:704  ownwer = msg.sender */\n  0x0100\n  exp\n  dup2\n  sload\n  dup2\n  0xffffffffffffffffffffffffffffffffffffffff\n  mul\n  not\n  and\n  swap1\n  dup4\n  0xffffffffffffffffffffffffffffffffffffffff\n  and\n  mul\n  or\n  swap1\n  sstore\n  pop\n    /* \"lecture/smart.sol\":407:983  contract MoneyBox {... */\n  dataSize(sub_0)\n  dup1\n  dataOffset(sub_0)\n  0x00\n  codecopy\n  0x00\n  return\nstop\n\nsub_0: assembly {\n        /* \"lecture/smart.sol\":407:983  contract MoneyBox {... */\n      mstore(0x40, 0x80)\n      callvalue\n      dup1\n      iszero\n      tag_1\n      jumpi\n      0x00\n      dup1\n      revert\n    tag_1:\n      pop\n      jumpi(tag_2, lt(calldatasize, 0x04))\n      shr(0xe0, calldataload(0x00))\n      dup1\n      0x5c681920\n      eq\n      tag_3\n      jumpi\n      dup1\n      0x69bbe5c7\n      eq\n      tag_4\n      jumpi\n    tag_2:\n      0x00\n      dup1\n      revert\n        /* \"lecture/smart.sol\":810:980  function checkValue() public view returns(uint256) {... */\n    tag_3:\n      tag_5\n      tag_6\n      jump\t// in\n    tag_5:\n      mload(0x40)\n      tag_7\n      swap2\n      swap1\n      tag_8\n      jump\t// in\n    tag_7:\n      mload(0x40)\n      dup1\n      swap2\n      sub\n      swap1\n      return\n        /* \"lecture/smart.sol\":720:802  function checkRound() public view returns(uint256) {... */\n    tag_4:\n      tag_9\n      tag_10\n      jump\t// in\n    tag_9:\n      mload(0x40)\n      tag_11\n      swap2\n      swap1\n      tag_8\n      jump\t// in\n    tag_11:\n      mload(0x40)\n      dup1\n      swap2\n      sub\n      swap1\n      return\n        /* \"lecture/smart.sol\":810:980  function checkValue() public view returns(uint256) {... */\n    tag_6:\n        /* \"lecture/smart.sol\":852:859  uint256 */\n      0x00\n        /* \"lecture/smart.sol\":888:898  msg.sender */\n      caller\n        /* \"lecture/smart.sol\":880:898  ownwer==msg.sender */\n      0xffffffffffffffffffffffffffffffffffffffff\n      and\n        /* \"lecture/smart.sol\":880:886  ownwer */\n      0x00\n      dup1\n      sload\n      swap1\n      0x0100\n      exp\n      swap1\n      div\n      0xffffffffffffffffffffffffffffffffffffffff\n      and\n        /* \"lecture/smart.sol\":880:898  ownwer==msg.sender */\n      0xffffffffffffffffffffffffffffffffffffffff\n      and\n      eq\n        /* \"lecture/smart.sol\":872:933  require(ownwer==msg.sender, \"Only Onwer can check the value\") */\n      tag_13\n      jumpi\n      mload(0x40)\n      0x08c379a000000000000000000000000000000000000000000000000000000000\n      dup2\n      mstore\n      0x04\n      add\n      tag_14\n      swap1\n      tag_15\n      jump\t// in\n    tag_14:\n      mload(0x40)\n      dup1\n      swap2\n      sub\n      swap1\n      revert\n    tag_13:\n        /* \"lecture/smart.sol\":951:972  address(this).balance */\n      selfbalance\n        /* \"lecture/smart.sol\":944:972  return address(this).balance */\n      swap1\n      pop\n        /* \"lecture/smart.sol\":810:980  function checkValue() public view returns(uint256) {... */\n      swap1\n      jump\t// out\n        /* \"lecture/smart.sol\":720:802  function checkRound() public view returns(uint256) {... */\n    tag_10:\n        /* \"lecture/smart.sol\":762:769  uint256 */\n      0x00\n        /* \"lecture/smart.sol\":789:794  round */\n      sload(0x02)\n        /* \"lecture/smart.sol\":782:794  return round */\n      swap1\n      pop\n        /* \"lecture/smart.sol\":720:802  function checkRound() public view returns(uint256) {... */\n      swap1\n      jump\t// out\n        /* \"#utility.yul\":7:84   */\n    tag_17:\n        /* \"#utility.yul\":44:51   */\n      0x00\n        /* \"#utility.yul\":73:78   */\n      dup2\n        /* \"#utility.yul\":62:78   */\n      swap1\n      pop\n        /* \"#utility.yul\":7:84   */\n      swap2\n      swap1\n      pop\n      jump\t// out\n        /* \"#utility.yul\":90:208   */\n    tag_18:\n        /* \"#utility.yul\":177:201   */\n      tag_25\n        /* \"#utility.yul\":195:200   */\n      dup2\n        /* \"#utility.yul\":177:201   */\n      tag_17\n      jump\t// in\n    tag_25:\n        /* \"#utility.yul\":172:175   */\n      dup3\n        /* \"#utility.yul\":165:202   */\n      mstore\n        /* \"#utility.yul\":90:208   */\n      pop\n      pop\n      jump\t// out\n        /* \"#utility.yul\":214:436   */\n    tag_8:\n        /* \"#utility.yul\":307:311   */\n      0x00\n        /* \"#utility.yul\":345:347   */\n      0x20\n        /* \"#utility.yul\":334:343   */\n      dup3\n        /* \"#utility.yul\":330:348   */\n      add\n        /* \"#utility.yul\":322:348   */\n      swap1\n      pop\n        /* \"#utility.yul\":358:429   */\n      tag_27\n        /* \"#utility.yul\":426:427   */\n      0x00\n        /* \"#utility.yul\":415:424   */\n      dup4\n        /* \"#utility.yul\":411:428   */\n      add\n        /* \"#utility.yul\":402:408   */\n      dup5\n        /* \"#utility.yul\":358:429   */\n      tag_18\n      jump\t// in\n    tag_27:\n        /* \"#utility.yul\":214:436   */\n      swap3\n      swap2\n      pop\n      pop\n      jump\t// out\n        /* \"#utility.yul\":442:611   */\n    tag_19:\n        /* \"#utility.yul\":526:537   */\n      0x00\n        /* \"#utility.yul\":560:566   */\n      dup3\n        /* \"#utility.yul\":555:558   */\n      dup3\n        /* \"#utility.yul\":548:567   */\n      mstore\n        /* \"#utility.yul\":600:604   */\n      0x20\n        /* \"#utility.yul\":595:598   */\n      dup3\n        /* \"#utility.yul\":591:605   */\n      add\n        /* \"#utility.yul\":576:605   */\n      swap1\n      pop\n        /* \"#utility.yul\":442:611   */\n      swap3\n      swap2\n      pop\n      pop\n      jump\t// out\n        /* \"#utility.yul\":617:797   */\n    tag_20:\n        /* \"#utility.yul\":757:789   */\n      0x4f6e6c79204f6e7765722063616e20636865636b207468652076616c75650000\n        /* \"#utility.yul\":753:754   */\n      0x00\n        /* \"#utility.yul\":745:751   */\n      dup3\n        /* \"#utility.yul\":741:755   */\n      add\n        /* \"#utility.yul\":734:790   */\n      mstore\n        /* \"#utility.yul\":617:797   */\n      pop\n      jump\t// out\n        /* \"#utility.yul\":803:1169   */\n    tag_21:\n        /* \"#utility.yul\":945:948   */\n      0x00\n        /* \"#utility.yul\":966:1033   */\n      tag_31\n        /* \"#utility.yul\":1030:1032   */\n      0x1e\n        /* \"#utility.yul\":1025:1028   */\n      dup4\n        /* \"#utility.yul\":966:1033   */\n      tag_19\n      jump\t// in\n    tag_31:\n        /* \"#utility.yul\":959:1033   */\n      swap2\n      pop\n        /* \"#utility.yul\":1042:1135   */\n      tag_32\n        /* \"#utility.yul\":1131:1134   */\n      dup3\n        /* \"#utility.yul\":1042:1135   */\n      tag_20\n      jump\t// in\n    tag_32:\n        /* \"#utility.yul\":1160:1162   */\n      0x20\n        /* \"#utility.yul\":1155:1158   */\n      dup3\n        /* \"#utility.yul\":1151:1163   */\n      add\n        /* \"#utility.yul\":1144:1163   */\n      swap1\n      pop\n        /* \"#utility.yul\":803:1169   */\n      swap2\n      swap1\n      pop\n      jump\t// out\n        /* \"#utility.yul\":1175:1594   */\n    tag_15:\n        /* \"#utility.yul\":1341:1345   */\n      0x00\n        /* \"#utility.yul\":1379:1381   */\n      0x20\n        /* \"#utility.yul\":1368:1377   */\n      dup3\n        /* \"#utility.yul\":1364:1382   */\n      add\n        /* \"#utility.yul\":1356:1382   */\n      swap1\n      pop\n        /* \"#utility.yul\":1428:1437   */\n      dup2\n        /* \"#utility.yul\":1422:1426   */\n      dup2\n        /* \"#utility.yul\":1418:1438   */\n      sub\n        /* \"#utility.yul\":1414:1415   */\n      0x00\n        /* \"#utility.yul\":1403:1412   */\n      dup4\n        /* \"#utility.yul\":1399:1416   */\n      add\n        /* \"#utility.yul\":1392:1439   */\n      mstore\n        /* \"#utility.yul\":1456:1587   */\n      tag_34\n        /* \"#utility.yul\":1582:1586   */\n      dup2\n        /* \"#utility.yul\":1456:1587   */\n      tag_21\n      jump\t// in\n    tag_34:\n        /* \"#utility.yul\":1448:1587   */\n      swap1\n      pop\n        /* \"#utility.yul\":1175:1594   */\n      swap2\n      swap1\n      pop\n      jump\t// out\n\n    auxdata: 0xa2646970667358221220f21149380b5d711be4cd8e00041f4700cba9f1542263f09d42baf8f3c707e42a64736f6c634300080d0033\n}\n",
				"bytecode": {
					"linkReferences": {},
					"object": "6080604052600160025534801561001557600080fd5b50336000806101000a81548173ffffffffffffffffffffffffffffffffffffffff021916908373ffffffffffffffffffffffffffffffffffffffff1602179055506101fe806100656000396000f3fe608060405234801561001057600080fd5b50600436106100365760003560e01c80635c6819201461003b57806369bbe5c714610059575b600080fd5b610043610077565b6040516100509190610130565b60405180910390f35b61006161010d565b60405161006e9190610130565b60405180910390f35b60003373ffffffffffffffffffffffffffffffffffffffff1660008054906101000a900473ffffffffffffffffffffffffffffffffffffffff1673ffffffffffffffffffffffffffffffffffffffff1614610107576040517f08c379a00000000000000000000000000000000000000000000000000000000081526004016100fe906101a8565b60405180910390fd5b47905090565b6000600254905090565b6000819050919050565b61012a81610117565b82525050565b60006020820190506101456000830184610121565b92915050565b600082825260208201905092915050565b7f4f6e6c79204f6e7765722063616e20636865636b207468652076616c75650000600082015250565b6000610192601e8361014b565b915061019d8261015c565b602082019050919050565b600060208201905081810360008301526101c181610185565b905091905056fea2646970667358221220f21149380b5d711be4cd8e00041f4700cba9f1542263f09d42baf8f3c707e42a64736f6c634300080d0033",
					"opcodes": "PUSH1 0x80 PUSH1 0x40 MSTORE PUSH1 0x1 PUSH1 0x2 SSTORE CALLVALUE DUP1 ISZERO PUSH2 0x15 JUMPI PUSH1 0x0 DUP1 REVERT JUMPDEST POP CALLER PUSH1 0x0 DUP1 PUSH2 0x100 EXP DUP2 SLOAD DUP2 PUSH20 0xFFFFFFFFFFFFFFFFFFFFFFFFFFFFFFFFFFFFFFFF MUL NOT AND SWAP1 DUP4 PUSH20 0xFFFFFFFFFFFFFFFFFFFFFFFFFFFFFFFFFFFFFFFF AND MUL OR SWAP1 SSTORE POP PUSH2 0x1FE DUP1 PUSH2 0x65 PUSH1 0x0 CODECOPY PUSH1 0x0 RETURN INVALID PUSH1 0x80 PUSH1 0x40 MSTORE CALLVALUE DUP1 ISZERO PUSH2 0x10 JUMPI PUSH1 0x0 DUP1 REVERT JUMPDEST POP PUSH1 0x4 CALLDATASIZE LT PUSH2 0x36 JUMPI PUSH1 0x0 CALLDATALOAD PUSH1 0xE0 SHR DUP1 PUSH4 0x5C681920 EQ PUSH2 0x3B JUMPI DUP1 PUSH4 0x69BBE5C7 EQ PUSH2 0x59 JUMPI JUMPDEST PUSH1 0x0 DUP1 REVERT JUMPDEST PUSH2 0x43 PUSH2 0x77 JUMP JUMPDEST PUSH1 0x40 MLOAD PUSH2 0x50 SWAP2 SWAP1 PUSH2 0x130 JUMP JUMPDEST PUSH1 0x40 MLOAD DUP1 SWAP2 SUB SWAP1 RETURN JUMPDEST PUSH2 0x61 PUSH2 0x10D JUMP JUMPDEST PUSH1 0x40 MLOAD PUSH2 0x6E SWAP2 SWAP1 PUSH2 0x130 JUMP JUMPDEST PUSH1 0x40 MLOAD DUP1 SWAP2 SUB SWAP1 RETURN JUMPDEST PUSH1 0x0 CALLER PUSH20 0xFFFFFFFFFFFFFFFFFFFFFFFFFFFFFFFFFFFFFFFF AND PUSH1 0x0 DUP1 SLOAD SWAP1 PUSH2 0x100 EXP SWAP1 DIV PUSH20 0xFFFFFFFFFFFFFFFFFFFFFFFFFFFFFFFFFFFFFFFF AND PUSH20 0xFFFFFFFFFFFFFFFFFFFFFFFFFFFFFFFFFFFFFFFF AND EQ PUSH2 0x107 JUMPI PUSH1 0x40 MLOAD PUSH32 0x8C379A000000000000000000000000000000000000000000000000000000000 DUP2 MSTORE PUSH1 0x4 ADD PUSH2 0xFE SWAP1 PUSH2 0x1A8 JUMP JUMPDEST PUSH1 0x40 MLOAD DUP1 SWAP2 SUB SWAP1 REVERT JUMPDEST SELFBALANCE SWAP1 POP SWAP1 JUMP JUMPDEST PUSH1 0x0 PUSH1 0x2 SLOAD SWAP1 POP SWAP1 JUMP JUMPDEST PUSH1 0x0 DUP2 SWAP1 POP SWAP2 SWAP1 POP JUMP JUMPDEST PUSH2 0x12A DUP2 PUSH2 0x117 JUMP JUMPDEST DUP3 MSTORE POP POP JUMP JUMPDEST PUSH1 0x0 PUSH1 0x20 DUP3 ADD SWAP1 POP PUSH2 0x145 PUSH1 0x0 DUP4 ADD DUP5 PUSH2 0x121 JUMP JUMPDEST SWAP3 SWAP2 POP POP JUMP JUMPDEST PUSH1 0x0 DUP3 DUP3 MSTORE PUSH1 0x20 DUP3 ADD SWAP1 POP SWAP3 SWAP2 POP POP JUMP JUMPDEST PUSH32 0x4F6E6C79204F6E7765722063616E20636865636B207468652076616C75650000 PUSH1 0x0 DUP3 ADD MSTORE POP JUMP JUMPDEST PUSH1 0x0 PUSH2 0x192 PUSH1 0x1E DUP4 PUSH2 0x14B JUMP JUMPDEST SWAP2 POP PUSH2 0x19D DUP3 PUSH2 0x15C JUMP JUMPDEST PUSH1 0x20 DUP3 ADD SWAP1 POP SWAP2 SWAP1 POP JUMP JUMPDEST PUSH1 0x0 PUSH1 0x20 DUP3 ADD SWAP1 POP DUP2 DUP2 SUB PUSH1 0x0 DUP4 ADD MSTORE PUSH2 0x1C1 DUP2 PUSH2 0x185 JUMP JUMPDEST SWAP1 POP SWAP2 SWAP1 POP JUMP INVALID LOG2 PUSH5 0x6970667358 0x22 SLT KECCAK256 CALLCODE GT 0x49 CODESIZE SIGNEXTEND 0x5D PUSH18 0x1BE4CD8E00041F4700CBA9F1542263F09D42 0xBA 0xF8 RETURN 0xC7 SMOD 0xE4 0x2A PUSH5 0x736F6C6343 STOP ADDMOD 0xD STOP CALLER "
				},
				"gasEstimates": {
					"creation": {
						"codeDepositCost": "102000",
						"executionCost": "46519",
						"totalCost": "148519"
					},
					"external": {
						"checkRound()": "2437",
						"checkValue()": "2581"
					}
				},
				"methodIdentifiers": {
					"checkRound()": "69bbe5c7",
					"checkValue()": "5c681920"
				}
			},
			"userdoc": {
				"kind": "user",
				"methods": {},
				"version": 1
			}
		}
	}
}