{
	"lecture/enum.sol": {
		"lec38": {
			"abi": [
				{
					"inputs": [],
					"stateMutability": "nonpayable",
					"type": "constructor"
				},
				{
					"anonymous": false,
					"inputs": [
						{
							"indexed": false,
							"internalType": "enum lec38.CarStatus",
							"name": "_carStatus",
							"type": "uint8"
						},
						{
							"indexed": false,
							"internalType": "uint256",
							"name": "_carStatusInInt",
							"type": "uint256"
						}
					],
					"name": "carCurrentStatus",
					"type": "event"
				},
				{
					"inputs": [],
					"name": "CheckStatus",
					"outputs": [
						{
							"internalType": "enum lec38.CarStatus",
							"name": "",
							"type": "uint8"
						}
					],
					"stateMutability": "view",
					"type": "function"
				},
				{
					"inputs": [],
					"name": "DrivingCar",
					"outputs": [],
					"stateMutability": "nonpayable",
					"type": "function"
				},
				{
					"inputs": [],
					"name": "StopCar",
					"outputs": [],
					"stateMutability": "nonpayable",
					"type": "function"
				},
				{
					"inputs": [],
					"name": "carStatus",
					"outputs": [
						{
							"internalType": "enum lec38.CarStatus",
							"name": "",
							"type": "uint8"
						}
					],
					"stateMutability": "view",
					"type": "function"
				},
				{
					"inputs": [],
					"name": "turnOffCar",
					"outputs": [],
					"stateMutability": "nonpayable",
					"type": "function"
				},
				{
					"inputs": [],
					"name": "turnOnCar",
					"outputs": [],
					"stateMutability": "nonpayable",
					"type": "function"
				}
			],
			"devdoc": {
				"kind": "dev",
				"methods": {},
				"version": 1
			},
			"evm": {
				"assembly": "    /* \"lecture/enum.sol\":236:1672  contract lec38{... */\n  mstore(0x40, 0x80)\n    /* \"lecture/enum.sol\":403:464  constructor(){... */\n  callvalue\n  dup1\n  iszero\n  tag_1\n  jumpi\n  0x00\n  dup1\n  revert\ntag_1:\n  pop\n    /* \"lecture/enum.sol\":439:456  CarStatus.TurnOff */\n  0x00\n    /* \"lecture/enum.sol\":427:436  carStatus */\n  dup1\n  0x00\n    /* \"lecture/enum.sol\":427:456  carStatus = CarStatus.TurnOff */\n  0x0100\n  exp\n  dup2\n  sload\n  dup2\n  0xff\n  mul\n  not\n  and\n  swap1\n  dup4\n  0x03\n  dup2\n  gt\n  iszero\n  tag_4\n  jumpi\n  tag_5\n  tag_6\n  jump\t// in\ntag_5:\ntag_4:\n  mul\n  or\n  swap1\n  sstore\n  pop\n    /* \"lecture/enum.sol\":236:1672  contract lec38{... */\n  jump(tag_7)\n    /* \"#utility.yul\":7:187   */\ntag_6:\n    /* \"#utility.yul\":55:132   */\n  0x4e487b7100000000000000000000000000000000000000000000000000000000\n    /* \"#utility.yul\":52:53   */\n  0x00\n    /* \"#utility.yul\":45:133   */\n  mstore\n    /* \"#utility.yul\":152:156   */\n  0x21\n    /* \"#utility.yul\":149:150   */\n  0x04\n    /* \"#utility.yul\":142:157   */\n  mstore\n    /* \"#utility.yul\":176:180   */\n  0x24\n    /* \"#utility.yul\":173:174   */\n  0x00\n    /* \"#utility.yul\":166:181   */\n  revert\n    /* \"lecture/enum.sol\":236:1672  contract lec38{... */\ntag_7:\n  dataSize(sub_0)\n  dup1\n  dataOffset(sub_0)\n  0x00\n  codecopy\n  0x00\n  return\nstop\n\nsub_0: assembly {\n        /* \"lecture/enum.sol\":236:1672  contract lec38{... */\n      mstore(0x40, 0x80)\n      callvalue\n      dup1\n      iszero\n      tag_1\n      jumpi\n      0x00\n      dup1\n      revert\n    tag_1:\n      pop\n      jumpi(tag_2, lt(calldatasize, 0x04))\n      shr(0xe0, calldataload(0x00))\n      dup1\n      0x196fbd7a\n      eq\n      tag_3\n      jumpi\n      dup1\n      0x3ba825ec\n      eq\n      tag_4\n      jumpi\n      dup1\n      0x5745105b\n      eq\n      tag_5\n      jumpi\n      dup1\n      0x6eb4a8d2\n      eq\n      tag_6\n      jumpi\n      dup1\n      0xdfb2abd2\n      eq\n      tag_7\n      jumpi\n      dup1\n      0xf1d67397\n      eq\n      tag_8\n      jumpi\n    tag_2:\n      0x00\n      dup1\n      revert\n        /* \"lecture/enum.sol\":793:1027  function DrivingCar() public {... */\n    tag_3:\n      tag_9\n      tag_10\n      jump\t// in\n    tag_9:\n      stop\n        /* \"lecture/enum.sol\":364:390  CarStatus public carStatus */\n    tag_4:\n      tag_11\n      tag_12\n      jump\t// in\n    tag_11:\n      mload(0x40)\n      tag_13\n      swap2\n      swap1\n      tag_14\n      jump\t// in\n    tag_13:\n      mload(0x40)\n      dup1\n      swap2\n      sub\n      swap1\n      return\n        /* \"lecture/enum.sol\":1039:1268  function StopCar() public {... */\n    tag_5:\n      tag_15\n      tag_16\n      jump\t// in\n    tag_15:\n      stop\n        /* \"lecture/enum.sol\":558:779  function turnOnCar() public {... */\n    tag_6:\n      tag_17\n      tag_18\n      jump\t// in\n    tag_17:\n      stop\n        /* \"lecture/enum.sol\":1280:1572  function turnOffCar() public {... */\n    tag_7:\n      tag_19\n      tag_20\n      jump\t// in\n    tag_19:\n      stop\n        /* \"lecture/enum.sol\":1580:1669  function CheckStatus() public view returns(CarStatus) {... */\n    tag_8:\n      tag_21\n      tag_22\n      jump\t// in\n    tag_21:\n      mload(0x40)\n      tag_23\n      swap2\n      swap1\n      tag_14\n      jump\t// in\n    tag_23:\n      mload(0x40)\n      dup1\n      swap2\n      sub\n      swap1\n      return\n        /* \"lecture/enum.sol\":793:1027  function DrivingCar() public {... */\n    tag_10:\n        /* \"lecture/enum.sol\":854:870  CarStatus.TurnOn */\n      0x01\n        /* \"lecture/enum.sol\":841:870  carStatus == CarStatus.TurnOn */\n      0x03\n      dup2\n      gt\n      iszero\n      tag_25\n      jumpi\n      tag_26\n      tag_27\n      jump\t// in\n    tag_26:\n    tag_25:\n        /* \"lecture/enum.sol\":841:850  carStatus */\n      0x00\n      dup1\n      sload\n      swap1\n      0x0100\n      exp\n      swap1\n      div\n      0xff\n      and\n        /* \"lecture/enum.sol\":841:870  carStatus == CarStatus.TurnOn */\n      0x03\n      dup2\n      gt\n      iszero\n      tag_28\n      jumpi\n      tag_29\n      tag_27\n      jump\t// in\n    tag_29:\n    tag_28:\n      eq\n        /* \"lecture/enum.sol\":833:917  require(carStatus == CarStatus.TurnOn, \"To drive a car, your car must be turned on\") */\n      tag_30\n      jumpi\n      mload(0x40)\n      0x08c379a000000000000000000000000000000000000000000000000000000000\n      dup2\n      mstore\n      0x04\n      add\n      tag_31\n      swap1\n      tag_32\n      jump\t// in\n    tag_31:\n      mload(0x40)\n      dup1\n      swap2\n      sub\n      swap1\n      revert\n    tag_30:\n        /* \"lecture/enum.sol\":940:957  CarStatus.Driving */\n      0x02\n        /* \"lecture/enum.sol\":928:937  carStatus */\n      0x00\n      dup1\n        /* \"lecture/enum.sol\":928:957  carStatus = CarStatus.Driving */\n      0x0100\n      exp\n      dup2\n      sload\n      dup2\n      0xff\n      mul\n      not\n      and\n      swap1\n      dup4\n      0x03\n      dup2\n      gt\n      iszero\n      tag_33\n      jumpi\n      tag_34\n      tag_27\n      jump\t// in\n    tag_34:\n    tag_33:\n      mul\n      or\n      swap1\n      sstore\n      pop\n        /* \"lecture/enum.sol\":973:1019  carCurrentStatus(carStatus,uint256(carStatus)) */\n      0x077f134d3966f81009f754fc11af11c8f578f7101883ef57d6923bef5fb2c012\n        /* \"lecture/enum.sol\":990:999  carStatus */\n      0x00\n      dup1\n      sload\n      swap1\n      0x0100\n      exp\n      swap1\n      div\n      0xff\n      and\n        /* \"lecture/enum.sol\":1008:1017  carStatus */\n      0x00\n      dup1\n      sload\n      swap1\n      0x0100\n      exp\n      swap1\n      div\n      0xff\n      and\n        /* \"lecture/enum.sol\":1000:1018  uint256(carStatus) */\n      0x03\n      dup2\n      gt\n      iszero\n      tag_35\n      jumpi\n      tag_36\n      tag_27\n      jump\t// in\n    tag_36:\n    tag_35:\n        /* \"lecture/enum.sol\":973:1019  carCurrentStatus(carStatus,uint256(carStatus)) */\n      mload(0x40)\n      tag_37\n      swap3\n      swap2\n      swap1\n      tag_38\n      jump\t// in\n    tag_37:\n      mload(0x40)\n      dup1\n      swap2\n      sub\n      swap1\n      log1\n        /* \"lecture/enum.sol\":793:1027  function DrivingCar() public {... */\n      jump\t// out\n        /* \"lecture/enum.sol\":364:390  CarStatus public carStatus */\n    tag_12:\n      0x00\n      dup1\n      sload\n      swap1\n      0x0100\n      exp\n      swap1\n      div\n      0xff\n      and\n      dup2\n      jump\t// out\n        /* \"lecture/enum.sol\":1039:1268  function StopCar() public {... */\n    tag_16:\n        /* \"lecture/enum.sol\":1097:1114  CarStatus.Driving */\n      0x02\n        /* \"lecture/enum.sol\":1084:1114  carStatus == CarStatus.Driving */\n      0x03\n      dup2\n      gt\n      iszero\n      tag_40\n      jumpi\n      tag_41\n      tag_27\n      jump\t// in\n    tag_41:\n    tag_40:\n        /* \"lecture/enum.sol\":1084:1093  carStatus */\n      0x00\n      dup1\n      sload\n      swap1\n      0x0100\n      exp\n      swap1\n      div\n      0xff\n      and\n        /* \"lecture/enum.sol\":1084:1114  carStatus == CarStatus.Driving */\n      0x03\n      dup2\n      gt\n      iszero\n      tag_42\n      jumpi\n      tag_43\n      tag_27\n      jump\t// in\n    tag_43:\n    tag_42:\n      eq\n        /* \"lecture/enum.sol\":1076:1161  require(carStatus == CarStatus.Driving, \"To drive a car, your car must be turned on\") */\n      tag_44\n      jumpi\n      mload(0x40)\n      0x08c379a000000000000000000000000000000000000000000000000000000000\n      dup2\n      mstore\n      0x04\n      add\n      tag_45\n      swap1\n      tag_32\n      jump\t// in\n    tag_45:\n      mload(0x40)\n      dup1\n      swap2\n      sub\n      swap1\n      revert\n    tag_44:\n        /* \"lecture/enum.sol\":1184:1198  CarStatus.Stop */\n      0x03\n        /* \"lecture/enum.sol\":1172:1181  carStatus */\n      0x00\n      dup1\n        /* \"lecture/enum.sol\":1172:1198  carStatus = CarStatus.Stop */\n      0x0100\n      exp\n      dup2\n      sload\n      dup2\n      0xff\n      mul\n      not\n      and\n      swap1\n      dup4\n      0x03\n      dup2\n      gt\n      iszero\n      tag_46\n      jumpi\n      tag_47\n      tag_27\n      jump\t// in\n    tag_47:\n    tag_46:\n      mul\n      or\n      swap1\n      sstore\n      pop\n        /* \"lecture/enum.sol\":1214:1260  carCurrentStatus(carStatus,uint256(carStatus)) */\n      0x077f134d3966f81009f754fc11af11c8f578f7101883ef57d6923bef5fb2c012\n        /* \"lecture/enum.sol\":1231:1240  carStatus */\n      0x00\n      dup1\n      sload\n      swap1\n      0x0100\n      exp\n      swap1\n      div\n      0xff\n      and\n        /* \"lecture/enum.sol\":1249:1258  carStatus */\n      0x00\n      dup1\n      sload\n      swap1\n      0x0100\n      exp\n      swap1\n      div\n      0xff\n      and\n        /* \"lecture/enum.sol\":1241:1259  uint256(carStatus) */\n      0x03\n      dup2\n      gt\n      iszero\n      tag_48\n      jumpi\n      tag_49\n      tag_27\n      jump\t// in\n    tag_49:\n    tag_48:\n        /* \"lecture/enum.sol\":1214:1260  carCurrentStatus(carStatus,uint256(carStatus)) */\n      mload(0x40)\n      tag_50\n      swap3\n      swap2\n      swap1\n      tag_38\n      jump\t// in\n    tag_50:\n      mload(0x40)\n      dup1\n      swap2\n      sub\n      swap1\n      log1\n        /* \"lecture/enum.sol\":1039:1268  function StopCar() public {... */\n      jump\t// out\n        /* \"lecture/enum.sol\":558:779  function turnOnCar() public {... */\n    tag_18:\n        /* \"lecture/enum.sol\":628:629  0 */\n      0x00\n        /* \"lecture/enum.sol\":618:630  CarStatus(0) */\n      0x03\n      dup2\n      gt\n      iszero\n      tag_52\n      jumpi\n      tag_53\n      tag_27\n      jump\t// in\n    tag_53:\n    tag_52:\n        /* \"lecture/enum.sol\":605:630  carStatus == CarStatus(0) */\n      0x03\n      dup2\n      gt\n      iszero\n      tag_54\n      jumpi\n      tag_55\n      tag_27\n      jump\t// in\n    tag_55:\n    tag_54:\n        /* \"lecture/enum.sol\":605:614  carStatus */\n      0x00\n      dup1\n      sload\n      swap1\n      0x0100\n      exp\n      swap1\n      div\n      0xff\n      and\n        /* \"lecture/enum.sol\":605:630  carStatus == CarStatus(0) */\n      0x03\n      dup2\n      gt\n      iszero\n      tag_56\n      jumpi\n      tag_57\n      tag_27\n      jump\t// in\n    tag_57:\n    tag_56:\n      eq\n        /* \"lecture/enum.sol\":597:674  require(carStatus == CarStatus(0), \"To turn on, your car must be turned off\") */\n      tag_58\n      jumpi\n      mload(0x40)\n      0x08c379a000000000000000000000000000000000000000000000000000000000\n      dup2\n      mstore\n      0x04\n      add\n      tag_59\n      swap1\n      tag_60\n      jump\t// in\n    tag_59:\n      mload(0x40)\n      dup1\n      swap2\n      sub\n      swap1\n      revert\n    tag_58:\n        /* \"lecture/enum.sol\":707:708  1 */\n      0x01\n        /* \"lecture/enum.sol\":697:709  CarStatus(1) */\n      0x03\n      dup2\n      gt\n      iszero\n      tag_61\n      jumpi\n      tag_62\n      tag_27\n      jump\t// in\n    tag_62:\n    tag_61:\n        /* \"lecture/enum.sol\":685:694  carStatus */\n      0x00\n      dup1\n        /* \"lecture/enum.sol\":685:709  carStatus = CarStatus(1) */\n      0x0100\n      exp\n      dup2\n      sload\n      dup2\n      0xff\n      mul\n      not\n      and\n      swap1\n      dup4\n      0x03\n      dup2\n      gt\n      iszero\n      tag_63\n      jumpi\n      tag_64\n      tag_27\n      jump\t// in\n    tag_64:\n    tag_63:\n      mul\n      or\n      swap1\n      sstore\n      pop\n        /* \"lecture/enum.sol\":725:771  carCurrentStatus(carStatus,uint256(carStatus)) */\n      0x077f134d3966f81009f754fc11af11c8f578f7101883ef57d6923bef5fb2c012\n        /* \"lecture/enum.sol\":742:751  carStatus */\n      0x00\n      dup1\n      sload\n      swap1\n      0x0100\n      exp\n      swap1\n      div\n      0xff\n      and\n        /* \"lecture/enum.sol\":760:769  carStatus */\n      0x00\n      dup1\n      sload\n      swap1\n      0x0100\n      exp\n      swap1\n      div\n      0xff\n      and\n        /* \"lecture/enum.sol\":752:770  uint256(carStatus) */\n      0x03\n      dup2\n      gt\n      iszero\n      tag_65\n      jumpi\n      tag_66\n      tag_27\n      jump\t// in\n    tag_66:\n    tag_65:\n        /* \"lecture/enum.sol\":725:771  carCurrentStatus(carStatus,uint256(carStatus)) */\n      mload(0x40)\n      tag_67\n      swap3\n      swap2\n      swap1\n      tag_38\n      jump\t// in\n    tag_67:\n      mload(0x40)\n      dup1\n      swap2\n      sub\n      swap1\n      log1\n        /* \"lecture/enum.sol\":558:779  function turnOnCar() public {... */\n      jump\t// out\n        /* \"lecture/enum.sol\":1280:1572  function turnOffCar() public {... */\n    tag_20:\n        /* \"lecture/enum.sol\":1341:1357  CarStatus.TurnOn */\n      0x01\n        /* \"lecture/enum.sol\":1328:1357  carStatus == CarStatus.TurnOn */\n      0x03\n      dup2\n      gt\n      iszero\n      tag_69\n      jumpi\n      tag_70\n      tag_27\n      jump\t// in\n    tag_70:\n    tag_69:\n        /* \"lecture/enum.sol\":1328:1337  carStatus */\n      0x00\n      dup1\n      sload\n      swap1\n      0x0100\n      exp\n      swap1\n      div\n      0xff\n      and\n        /* \"lecture/enum.sol\":1328:1357  carStatus == CarStatus.TurnOn */\n      0x03\n      dup2\n      gt\n      iszero\n      tag_71\n      jumpi\n      tag_72\n      tag_27\n      jump\t// in\n    tag_72:\n    tag_71:\n      eq\n        /* \"lecture/enum.sol\":1328:1406  carStatus == CarStatus.TurnOn ... */\n      dup1\n      tag_73\n      jumpi\n      pop\n        /* \"lecture/enum.sol\":1392:1406  CarStatus.Stop */\n      0x03\n        /* \"lecture/enum.sol\":1379:1406  carStatus == CarStatus.Stop */\n      dup1\n      dup2\n      gt\n      iszero\n      tag_74\n      jumpi\n      tag_75\n      tag_27\n      jump\t// in\n    tag_75:\n    tag_74:\n        /* \"lecture/enum.sol\":1379:1388  carStatus */\n      0x00\n      dup1\n      sload\n      swap1\n      0x0100\n      exp\n      swap1\n      div\n      0xff\n      and\n        /* \"lecture/enum.sol\":1379:1406  carStatus == CarStatus.Stop */\n      0x03\n      dup2\n      gt\n      iszero\n      tag_76\n      jumpi\n      tag_77\n      tag_27\n      jump\t// in\n    tag_77:\n    tag_76:\n      eq\n        /* \"lecture/enum.sol\":1328:1406  carStatus == CarStatus.TurnOn ... */\n    tag_73:\n        /* \"lecture/enum.sol\":1320:1462  require(carStatus == CarStatus.TurnOn ... */\n      tag_78\n      jumpi\n      mload(0x40)\n      0x08c379a000000000000000000000000000000000000000000000000000000000\n      dup2\n      mstore\n      0x04\n      add\n      tag_79\n      swap1\n      tag_80\n      jump\t// in\n    tag_79:\n      mload(0x40)\n      dup1\n      swap2\n      sub\n      swap1\n      revert\n    tag_78:\n        /* \"lecture/enum.sol\":1485:1502  CarStatus.TurnOff */\n      0x00\n        /* \"lecture/enum.sol\":1473:1482  carStatus */\n      dup1\n      0x00\n        /* \"lecture/enum.sol\":1473:1502  carStatus = CarStatus.TurnOff */\n      0x0100\n      exp\n      dup2\n      sload\n      dup2\n      0xff\n      mul\n      not\n      and\n      swap1\n      dup4\n      0x03\n      dup2\n      gt\n      iszero\n      tag_81\n      jumpi\n      tag_82\n      tag_27\n      jump\t// in\n    tag_82:\n    tag_81:\n      mul\n      or\n      swap1\n      sstore\n      pop\n        /* \"lecture/enum.sol\":1518:1564  carCurrentStatus(carStatus,uint256(carStatus)) */\n      0x077f134d3966f81009f754fc11af11c8f578f7101883ef57d6923bef5fb2c012\n        /* \"lecture/enum.sol\":1535:1544  carStatus */\n      0x00\n      dup1\n      sload\n      swap1\n      0x0100\n      exp\n      swap1\n      div\n      0xff\n      and\n        /* \"lecture/enum.sol\":1553:1562  carStatus */\n      0x00\n      dup1\n      sload\n      swap1\n      0x0100\n      exp\n      swap1\n      div\n      0xff\n      and\n        /* \"lecture/enum.sol\":1545:1563  uint256(carStatus) */\n      0x03\n      dup2\n      gt\n      iszero\n      tag_83\n      jumpi\n      tag_84\n      tag_27\n      jump\t// in\n    tag_84:\n    tag_83:\n        /* \"lecture/enum.sol\":1518:1564  carCurrentStatus(carStatus,uint256(carStatus)) */\n      mload(0x40)\n      tag_85\n      swap3\n      swap2\n      swap1\n      tag_38\n      jump\t// in\n    tag_85:\n      mload(0x40)\n      dup1\n      swap2\n      sub\n      swap1\n      log1\n        /* \"lecture/enum.sol\":1280:1572  function turnOffCar() public {... */\n      jump\t// out\n        /* \"lecture/enum.sol\":1580:1669  function CheckStatus() public view returns(CarStatus) {... */\n    tag_22:\n        /* \"lecture/enum.sol\":1623:1632  CarStatus */\n      0x00\n        /* \"lecture/enum.sol\":1652:1661  carStatus */\n      dup1\n      0x00\n      swap1\n      sload\n      swap1\n      0x0100\n      exp\n      swap1\n      div\n      0xff\n      and\n        /* \"lecture/enum.sol\":1645:1661  return carStatus */\n      swap1\n      pop\n        /* \"lecture/enum.sol\":1580:1669  function CheckStatus() public view returns(CarStatus) {... */\n      swap1\n      jump\t// out\n        /* \"#utility.yul\":7:187   */\n    tag_27:\n        /* \"#utility.yul\":55:132   */\n      0x4e487b7100000000000000000000000000000000000000000000000000000000\n        /* \"#utility.yul\":52:53   */\n      0x00\n        /* \"#utility.yul\":45:133   */\n      mstore\n        /* \"#utility.yul\":152:156   */\n      0x21\n        /* \"#utility.yul\":149:150   */\n      0x04\n        /* \"#utility.yul\":142:157   */\n      mstore\n        /* \"#utility.yul\":176:180   */\n      0x24\n        /* \"#utility.yul\":173:174   */\n      0x00\n        /* \"#utility.yul\":166:181   */\n      revert\n        /* \"#utility.yul\":193:309   */\n    tag_87:\n        /* \"#utility.yul\":277:278   */\n      0x04\n        /* \"#utility.yul\":270:275   */\n      dup2\n        /* \"#utility.yul\":267:279   */\n      lt\n        /* \"#utility.yul\":257:303   */\n      tag_103\n      jumpi\n        /* \"#utility.yul\":283:301   */\n      tag_104\n      tag_27\n      jump\t// in\n    tag_104:\n        /* \"#utility.yul\":257:303   */\n    tag_103:\n        /* \"#utility.yul\":193:309   */\n      pop\n      jump\t// out\n        /* \"#utility.yul\":315:448   */\n    tag_88:\n        /* \"#utility.yul\":363:370   */\n      0x00\n        /* \"#utility.yul\":392:397   */\n      dup2\n        /* \"#utility.yul\":381:397   */\n      swap1\n      pop\n        /* \"#utility.yul\":398:442   */\n      tag_106\n        /* \"#utility.yul\":436:441   */\n      dup3\n        /* \"#utility.yul\":398:442   */\n      tag_87\n      jump\t// in\n    tag_106:\n        /* \"#utility.yul\":315:448   */\n      swap2\n      swap1\n      pop\n      jump\t// out\n        /* \"#utility.yul\":454:587   */\n    tag_89:\n        /* \"#utility.yul\":513:522   */\n      0x00\n        /* \"#utility.yul\":546:581   */\n      tag_108\n        /* \"#utility.yul\":575:580   */\n      dup3\n        /* \"#utility.yul\":546:581   */\n      tag_88\n      jump\t// in\n    tag_108:\n        /* \"#utility.yul\":533:581   */\n      swap1\n      pop\n        /* \"#utility.yul\":454:587   */\n      swap2\n      swap1\n      pop\n      jump\t// out\n        /* \"#utility.yul\":593:742   */\n    tag_90:\n        /* \"#utility.yul\":689:735   */\n      tag_110\n        /* \"#utility.yul\":729:734   */\n      dup2\n        /* \"#utility.yul\":689:735   */\n      tag_89\n      jump\t// in\n    tag_110:\n        /* \"#utility.yul\":684:687   */\n      dup3\n        /* \"#utility.yul\":677:736   */\n      mstore\n        /* \"#utility.yul\":593:742   */\n      pop\n      pop\n      jump\t// out\n        /* \"#utility.yul\":748:988   */\n    tag_14:\n        /* \"#utility.yul\":850:854   */\n      0x00\n        /* \"#utility.yul\":888:890   */\n      0x20\n        /* \"#utility.yul\":877:886   */\n      dup3\n        /* \"#utility.yul\":873:891   */\n      add\n        /* \"#utility.yul\":865:891   */\n      swap1\n      pop\n        /* \"#utility.yul\":901:981   */\n      tag_112\n        /* \"#utility.yul\":978:979   */\n      0x00\n        /* \"#utility.yul\":967:976   */\n      dup4\n        /* \"#utility.yul\":963:980   */\n      add\n        /* \"#utility.yul\":954:960   */\n      dup5\n        /* \"#utility.yul\":901:981   */\n      tag_90\n      jump\t// in\n    tag_112:\n        /* \"#utility.yul\":748:988   */\n      swap3\n      swap2\n      pop\n      pop\n      jump\t// out\n        /* \"#utility.yul\":994:1163   */\n    tag_91:\n        /* \"#utility.yul\":1078:1089   */\n      0x00\n        /* \"#utility.yul\":1112:1118   */\n      dup3\n        /* \"#utility.yul\":1107:1110   */\n      dup3\n        /* \"#utility.yul\":1100:1119   */\n      mstore\n        /* \"#utility.yul\":1152:1156   */\n      0x20\n        /* \"#utility.yul\":1147:1150   */\n      dup3\n        /* \"#utility.yul\":1143:1157   */\n      add\n        /* \"#utility.yul\":1128:1157   */\n      swap1\n      pop\n        /* \"#utility.yul\":994:1163   */\n      swap3\n      swap2\n      pop\n      pop\n      jump\t// out\n        /* \"#utility.yul\":1169:1398   */\n    tag_92:\n        /* \"#utility.yul\":1309:1343   */\n      0x546f2064726976652061206361722c20796f757220636172206d757374206265\n        /* \"#utility.yul\":1305:1306   */\n      0x00\n        /* \"#utility.yul\":1297:1303   */\n      dup3\n        /* \"#utility.yul\":1293:1307   */\n      add\n        /* \"#utility.yul\":1286:1344   */\n      mstore\n        /* \"#utility.yul\":1378:1390   */\n      0x207475726e6564206f6e00000000000000000000000000000000000000000000\n        /* \"#utility.yul\":1373:1375   */\n      0x20\n        /* \"#utility.yul\":1365:1371   */\n      dup3\n        /* \"#utility.yul\":1361:1376   */\n      add\n        /* \"#utility.yul\":1354:1391   */\n      mstore\n        /* \"#utility.yul\":1169:1398   */\n      pop\n      jump\t// out\n        /* \"#utility.yul\":1404:1770   */\n    tag_93:\n        /* \"#utility.yul\":1546:1549   */\n      0x00\n        /* \"#utility.yul\":1567:1634   */\n      tag_116\n        /* \"#utility.yul\":1631:1633   */\n      0x2a\n        /* \"#utility.yul\":1626:1629   */\n      dup4\n        /* \"#utility.yul\":1567:1634   */\n      tag_91\n      jump\t// in\n    tag_116:\n        /* \"#utility.yul\":1560:1634   */\n      swap2\n      pop\n        /* \"#utility.yul\":1643:1736   */\n      tag_117\n        /* \"#utility.yul\":1732:1735   */\n      dup3\n        /* \"#utility.yul\":1643:1736   */\n      tag_92\n      jump\t// in\n    tag_117:\n        /* \"#utility.yul\":1761:1763   */\n      0x40\n        /* \"#utility.yul\":1756:1759   */\n      dup3\n        /* \"#utility.yul\":1752:1764   */\n      add\n        /* \"#utility.yul\":1745:1764   */\n      swap1\n      pop\n        /* \"#utility.yul\":1404:1770   */\n      swap2\n      swap1\n      pop\n      jump\t// out\n        /* \"#utility.yul\":1776:2195   */\n    tag_32:\n        /* \"#utility.yul\":1942:1946   */\n      0x00\n        /* \"#utility.yul\":1980:1982   */\n      0x20\n        /* \"#utility.yul\":1969:1978   */\n      dup3\n        /* \"#utility.yul\":1965:1983   */\n      add\n        /* \"#utility.yul\":1957:1983   */\n      swap1\n      pop\n        /* \"#utility.yul\":2029:2038   */\n      dup2\n        /* \"#utility.yul\":2023:2027   */\n      dup2\n        /* \"#utility.yul\":2019:2039   */\n      sub\n        /* \"#utility.yul\":2015:2016   */\n      0x00\n        /* \"#utility.yul\":2004:2013   */\n      dup4\n        /* \"#utility.yul\":2000:2017   */\n      add\n        /* \"#utility.yul\":1993:2040   */\n      mstore\n        /* \"#utility.yul\":2057:2188   */\n      tag_119\n        /* \"#utility.yul\":2183:2187   */\n      dup2\n        /* \"#utility.yul\":2057:2188   */\n      tag_93\n      jump\t// in\n    tag_119:\n        /* \"#utility.yul\":2049:2188   */\n      swap1\n      pop\n        /* \"#utility.yul\":1776:2195   */\n      swap2\n      swap1\n      pop\n      jump\t// out\n        /* \"#utility.yul\":2201:2278   */\n    tag_94:\n        /* \"#utility.yul\":2238:2245   */\n      0x00\n        /* \"#utility.yul\":2267:2272   */\n      dup2\n        /* \"#utility.yul\":2256:2272   */\n      swap1\n      pop\n        /* \"#utility.yul\":2201:2278   */\n      swap2\n      swap1\n      pop\n      jump\t// out\n        /* \"#utility.yul\":2284:2402   */\n    tag_95:\n        /* \"#utility.yul\":2371:2395   */\n      tag_122\n        /* \"#utility.yul\":2389:2394   */\n      dup2\n        /* \"#utility.yul\":2371:2395   */\n      tag_94\n      jump\t// in\n    tag_122:\n        /* \"#utility.yul\":2366:2369   */\n      dup3\n        /* \"#utility.yul\":2359:2396   */\n      mstore\n        /* \"#utility.yul\":2284:2402   */\n      pop\n      pop\n      jump\t// out\n        /* \"#utility.yul\":2408:2758   */\n    tag_38:\n        /* \"#utility.yul\":2538:2542   */\n      0x00\n        /* \"#utility.yul\":2576:2578   */\n      0x40\n        /* \"#utility.yul\":2565:2574   */\n      dup3\n        /* \"#utility.yul\":2561:2579   */\n      add\n        /* \"#utility.yul\":2553:2579   */\n      swap1\n      pop\n        /* \"#utility.yul\":2589:2669   */\n      tag_124\n        /* \"#utility.yul\":2666:2667   */\n      0x00\n        /* \"#utility.yul\":2655:2664   */\n      dup4\n        /* \"#utility.yul\":2651:2668   */\n      add\n        /* \"#utility.yul\":2642:2648   */\n      dup6\n        /* \"#utility.yul\":2589:2669   */\n      tag_90\n      jump\t// in\n    tag_124:\n        /* \"#utility.yul\":2679:2751   */\n      tag_125\n        /* \"#utility.yul\":2747:2749   */\n      0x20\n        /* \"#utility.yul\":2736:2745   */\n      dup4\n        /* \"#utility.yul\":2732:2750   */\n      add\n        /* \"#utility.yul\":2723:2729   */\n      dup5\n        /* \"#utility.yul\":2679:2751   */\n      tag_95\n      jump\t// in\n    tag_125:\n        /* \"#utility.yul\":2408:2758   */\n      swap4\n      swap3\n      pop\n      pop\n      pop\n      jump\t// out\n        /* \"#utility.yul\":2764:2990   */\n    tag_96:\n        /* \"#utility.yul\":2904:2938   */\n      0x546f207475726e206f6e2c20796f757220636172206d75737420626520747572\n        /* \"#utility.yul\":2900:2901   */\n      0x00\n        /* \"#utility.yul\":2892:2898   */\n      dup3\n        /* \"#utility.yul\":2888:2902   */\n      add\n        /* \"#utility.yul\":2881:2939   */\n      mstore\n        /* \"#utility.yul\":2973:2982   */\n      0x6e6564206f666600000000000000000000000000000000000000000000000000\n        /* \"#utility.yul\":2968:2970   */\n      0x20\n        /* \"#utility.yul\":2960:2966   */\n      dup3\n        /* \"#utility.yul\":2956:2971   */\n      add\n        /* \"#utility.yul\":2949:2983   */\n      mstore\n        /* \"#utility.yul\":2764:2990   */\n      pop\n      jump\t// out\n        /* \"#utility.yul\":2996:3362   */\n    tag_97:\n        /* \"#utility.yul\":3138:3141   */\n      0x00\n        /* \"#utility.yul\":3159:3226   */\n      tag_128\n        /* \"#utility.yul\":3223:3225   */\n      0x27\n        /* \"#utility.yul\":3218:3221   */\n      dup4\n        /* \"#utility.yul\":3159:3226   */\n      tag_91\n      jump\t// in\n    tag_128:\n        /* \"#utility.yul\":3152:3226   */\n      swap2\n      pop\n        /* \"#utility.yul\":3235:3328   */\n      tag_129\n        /* \"#utility.yul\":3324:3327   */\n      dup3\n        /* \"#utility.yul\":3235:3328   */\n      tag_96\n      jump\t// in\n    tag_129:\n        /* \"#utility.yul\":3353:3355   */\n      0x40\n        /* \"#utility.yul\":3348:3351   */\n      dup3\n        /* \"#utility.yul\":3344:3356   */\n      add\n        /* \"#utility.yul\":3337:3356   */\n      swap1\n      pop\n        /* \"#utility.yul\":2996:3362   */\n      swap2\n      swap1\n      pop\n      jump\t// out\n        /* \"#utility.yul\":3368:3787   */\n    tag_60:\n        /* \"#utility.yul\":3534:3538   */\n      0x00\n        /* \"#utility.yul\":3572:3574   */\n      0x20\n        /* \"#utility.yul\":3561:3570   */\n      dup3\n        /* \"#utility.yul\":3557:3575   */\n      add\n        /* \"#utility.yul\":3549:3575   */\n      swap1\n      pop\n        /* \"#utility.yul\":3621:3630   */\n      dup2\n        /* \"#utility.yul\":3615:3619   */\n      dup2\n        /* \"#utility.yul\":3611:3631   */\n      sub\n        /* \"#utility.yul\":3607:3608   */\n      0x00\n        /* \"#utility.yul\":3596:3605   */\n      dup4\n        /* \"#utility.yul\":3592:3609   */\n      add\n        /* \"#utility.yul\":3585:3632   */\n      mstore\n        /* \"#utility.yul\":3649:3780   */\n      tag_131\n        /* \"#utility.yul\":3775:3779   */\n      dup2\n        /* \"#utility.yul\":3649:3780   */\n      tag_97\n      jump\t// in\n    tag_131:\n        /* \"#utility.yul\":3641:3780   */\n      swap1\n      pop\n        /* \"#utility.yul\":3368:3787   */\n      swap2\n      swap1\n      pop\n      jump\t// out\n        /* \"#utility.yul\":3793:4030   */\n    tag_98:\n        /* \"#utility.yul\":3933:3967   */\n      0x546f207475726e206f66662c20796f757220636172206d757374206265207475\n        /* \"#utility.yul\":3929:3930   */\n      0x00\n        /* \"#utility.yul\":3921:3927   */\n      dup3\n        /* \"#utility.yul\":3917:3931   */\n      add\n        /* \"#utility.yul\":3910:3968   */\n      mstore\n        /* \"#utility.yul\":4002:4022   */\n      0x726e6564206f6e206f722064726976696e670000000000000000000000000000\n        /* \"#utility.yul\":3997:3999   */\n      0x20\n        /* \"#utility.yul\":3989:3995   */\n      dup3\n        /* \"#utility.yul\":3985:4000   */\n      add\n        /* \"#utility.yul\":3978:4023   */\n      mstore\n        /* \"#utility.yul\":3793:4030   */\n      pop\n      jump\t// out\n        /* \"#utility.yul\":4036:4402   */\n    tag_99:\n        /* \"#utility.yul\":4178:4181   */\n      0x00\n        /* \"#utility.yul\":4199:4266   */\n      tag_134\n        /* \"#utility.yul\":4263:4265   */\n      0x32\n        /* \"#utility.yul\":4258:4261   */\n      dup4\n        /* \"#utility.yul\":4199:4266   */\n      tag_91\n      jump\t// in\n    tag_134:\n        /* \"#utility.yul\":4192:4266   */\n      swap2\n      pop\n        /* \"#utility.yul\":4275:4368   */\n      tag_135\n        /* \"#utility.yul\":4364:4367   */\n      dup3\n        /* \"#utility.yul\":4275:4368   */\n      tag_98\n      jump\t// in\n    tag_135:\n        /* \"#utility.yul\":4393:4395   */\n      0x40\n        /* \"#utility.yul\":4388:4391   */\n      dup3\n        /* \"#utility.yul\":4384:4396   */\n      add\n        /* \"#utility.yul\":4377:4396   */\n      swap1\n      pop\n        /* \"#utility.yul\":4036:4402   */\n      swap2\n      swap1\n      pop\n      jump\t// out\n        /* \"#utility.yul\":4408:4827   */\n    tag_80:\n        /* \"#utility.yul\":4574:4578   */\n      0x00\n        /* \"#utility.yul\":4612:4614   */\n      0x20\n        /* \"#utility.yul\":4601:4610   */\n      dup3\n        /* \"#utility.yul\":4597:4615   */\n      add\n        /* \"#utility.yul\":4589:4615   */\n      swap1\n      pop\n        /* \"#utility.yul\":4661:4670   */\n      dup2\n        /* \"#utility.yul\":4655:4659   */\n      dup2\n        /* \"#utility.yul\":4651:4671   */\n      sub\n        /* \"#utility.yul\":4647:4648   */\n      0x00\n        /* \"#utility.yul\":4636:4645   */\n      dup4\n        /* \"#utility.yul\":4632:4649   */\n      add\n        /* \"#utility.yul\":4625:4672   */\n      mstore\n        /* \"#utility.yul\":4689:4820   */\n      tag_137\n        /* \"#utility.yul\":4815:4819   */\n      dup2\n        /* \"#utility.yul\":4689:4820   */\n      tag_99\n      jump\t// in\n    tag_137:\n        /* \"#utility.yul\":4681:4820   */\n      swap1\n      pop\n        /* \"#utility.yul\":4408:4827   */\n      swap2\n      swap1\n      pop\n      jump\t// out\n\n    auxdata: 0xa2646970667358221220c4c4234a4e7e1ac16a8e0fef19c890bb62eeb343b27ca17ce97ef0325748878164736f6c634300080d0033\n}\n",
				"bytecode": {
					"linkReferences": {},
					"object": "608060405234801561001057600080fd5b5060008060006101000a81548160ff0219169083600381111561003657610035610040565b5b021790555061006f565b7f4e487b7100000000000000000000000000000000000000000000000000000000600052602160045260246000fd5b6108368061007e6000396000f3fe608060405234801561001057600080fd5b50600436106100625760003560e01c8063196fbd7a146100675780633ba825ec146100715780635745105b1461008f5780636eb4a8d214610099578063dfb2abd2146100a3578063f1d67397146100ad575b600080fd5b61006f6100cb565b005b6100796101d0565b60405161008691906105dc565b60405180910390f35b6100976101e1565b005b6100a16102e6565b005b6100ab61040f565b005b6100b561054f565b6040516100c291906105dc565b60405180910390f35b600160038111156100df576100de610565565b5b60008054906101000a900460ff1660038111156100ff576100fe610565565b5b1461013f576040517f08c379a00000000000000000000000000000000000000000000000000000000081526004016101369061067a565b60405180910390fd5b60026000806101000a81548160ff0219169083600381111561016457610163610565565b5b02179055507f077f134d3966f81009f754fc11af11c8f578f7101883ef57d6923bef5fb2c01260008054906101000a900460ff1660008054906101000a900460ff1660038111156101b8576101b7610565565b5b6040516101c69291906106b3565b60405180910390a1565b60008054906101000a900460ff1681565b600260038111156101f5576101f4610565565b5b60008054906101000a900460ff16600381111561021557610214610565565b5b14610255576040517f08c379a000000000000000000000000000000000000000000000000000000000815260040161024c9061067a565b60405180910390fd5b60036000806101000a81548160ff0219169083600381111561027a57610279610565565b5b02179055507f077f134d3966f81009f754fc11af11c8f578f7101883ef57d6923bef5fb2c01260008054906101000a900460ff1660008054906101000a900460ff1660038111156102ce576102cd610565565b5b6040516102dc9291906106b3565b60405180910390a1565b600060038111156102fa576102f9610565565b5b600381111561030c5761030b610565565b5b60008054906101000a900460ff16600381111561032c5761032b610565565b5b1461036c576040517f08c379a00000000000000000000000000000000000000000000000000000000081526004016103639061074e565b60405180910390fd5b600160038111156103805761037f610565565b5b6000806101000a81548160ff021916908360038111156103a3576103a2610565565b5b02179055507f077f134d3966f81009f754fc11af11c8f578f7101883ef57d6923bef5fb2c01260008054906101000a900460ff1660008054906101000a900460ff1660038111156103f7576103f6610565565b5b6040516104059291906106b3565b60405180910390a1565b6001600381111561042357610422610565565b5b60008054906101000a900460ff16600381111561044357610442610565565b5b148061047f575060038081111561045d5761045c610565565b5b60008054906101000a900460ff16600381111561047d5761047c610565565b5b145b6104be576040517f08c379a00000000000000000000000000000000000000000000000000000000081526004016104b5906107e0565b60405180910390fd5b60008060006101000a81548160ff021916908360038111156104e3576104e2610565565b5b02179055507f077f134d3966f81009f754fc11af11c8f578f7101883ef57d6923bef5fb2c01260008054906101000a900460ff1660008054906101000a900460ff16600381111561053757610536610565565b5b6040516105459291906106b3565b60405180910390a1565b60008060009054906101000a900460ff16905090565b7f4e487b7100000000000000000000000000000000000000000000000000000000600052602160045260246000fd5b600481106105a5576105a4610565565b5b50565b60008190506105b682610594565b919050565b60006105c6826105a8565b9050919050565b6105d6816105bb565b82525050565b60006020820190506105f160008301846105cd565b92915050565b600082825260208201905092915050565b7f546f2064726976652061206361722c20796f757220636172206d75737420626560008201527f207475726e6564206f6e00000000000000000000000000000000000000000000602082015250565b6000610664602a836105f7565b915061066f82610608565b604082019050919050565b6000602082019050818103600083015261069381610657565b9050919050565b6000819050919050565b6106ad8161069a565b82525050565b60006040820190506106c860008301856105cd565b6106d560208301846106a4565b9392505050565b7f546f207475726e206f6e2c20796f757220636172206d7573742062652074757260008201527f6e6564206f666600000000000000000000000000000000000000000000000000602082015250565b60006107386027836105f7565b9150610743826106dc565b604082019050919050565b600060208201905081810360008301526107678161072b565b9050919050565b7f546f207475726e206f66662c20796f757220636172206d75737420626520747560008201527f726e6564206f6e206f722064726976696e670000000000000000000000000000602082015250565b60006107ca6032836105f7565b91506107d58261076e565b604082019050919050565b600060208201905081810360008301526107f9816107bd565b905091905056fea2646970667358221220c4c4234a4e7e1ac16a8e0fef19c890bb62eeb343b27ca17ce97ef0325748878164736f6c634300080d0033",
					"opcodes": "PUSH1 0x80 PUSH1 0x40 MSTORE CALLVALUE DUP1 ISZERO PUSH2 0x10 JUMPI PUSH1 0x0 DUP1 REVERT JUMPDEST POP PUSH1 0x0 DUP1 PUSH1 0x0 PUSH2 0x100 EXP DUP2 SLOAD DUP2 PUSH1 0xFF MUL NOT AND SWAP1 DUP4 PUSH1 0x3 DUP2 GT ISZERO PUSH2 0x36 JUMPI PUSH2 0x35 PUSH2 0x40 JUMP JUMPDEST JUMPDEST MUL OR SWAP1 SSTORE POP PUSH2 0x6F JUMP JUMPDEST PUSH32 0x4E487B7100000000000000000000000000000000000000000000000000000000 PUSH1 0x0 MSTORE PUSH1 0x21 PUSH1 0x4 MSTORE PUSH1 0x24 PUSH1 0x0 REVERT JUMPDEST PUSH2 0x836 DUP1 PUSH2 0x7E PUSH1 0x0 CODECOPY PUSH1 0x0 RETURN INVALID PUSH1 0x80 PUSH1 0x40 MSTORE CALLVALUE DUP1 ISZERO PUSH2 0x10 JUMPI PUSH1 0x0 DUP1 REVERT JUMPDEST POP PUSH1 0x4 CALLDATASIZE LT PUSH2 0x62 JUMPI PUSH1 0x0 CALLDATALOAD PUSH1 0xE0 SHR DUP1 PUSH4 0x196FBD7A EQ PUSH2 0x67 JUMPI DUP1 PUSH4 0x3BA825EC EQ PUSH2 0x71 JUMPI DUP1 PUSH4 0x5745105B EQ PUSH2 0x8F JUMPI DUP1 PUSH4 0x6EB4A8D2 EQ PUSH2 0x99 JUMPI DUP1 PUSH4 0xDFB2ABD2 EQ PUSH2 0xA3 JUMPI DUP1 PUSH4 0xF1D67397 EQ PUSH2 0xAD JUMPI JUMPDEST PUSH1 0x0 DUP1 REVERT JUMPDEST PUSH2 0x6F PUSH2 0xCB JUMP JUMPDEST STOP JUMPDEST PUSH2 0x79 PUSH2 0x1D0 JUMP JUMPDEST PUSH1 0x40 MLOAD PUSH2 0x86 SWAP2 SWAP1 PUSH2 0x5DC JUMP JUMPDEST PUSH1 0x40 MLOAD DUP1 SWAP2 SUB SWAP1 RETURN JUMPDEST PUSH2 0x97 PUSH2 0x1E1 JUMP JUMPDEST STOP JUMPDEST PUSH2 0xA1 PUSH2 0x2E6 JUMP JUMPDEST STOP JUMPDEST PUSH2 0xAB PUSH2 0x40F JUMP JUMPDEST STOP JUMPDEST PUSH2 0xB5 PUSH2 0x54F JUMP JUMPDEST PUSH1 0x40 MLOAD PUSH2 0xC2 SWAP2 SWAP1 PUSH2 0x5DC JUMP JUMPDEST PUSH1 0x40 MLOAD DUP1 SWAP2 SUB SWAP1 RETURN JUMPDEST PUSH1 0x1 PUSH1 0x3 DUP2 GT ISZERO PUSH2 0xDF JUMPI PUSH2 0xDE PUSH2 0x565 JUMP JUMPDEST JUMPDEST PUSH1 0x0 DUP1 SLOAD SWAP1 PUSH2 0x100 EXP SWAP1 DIV PUSH1 0xFF AND PUSH1 0x3 DUP2 GT ISZERO PUSH2 0xFF JUMPI PUSH2 0xFE PUSH2 0x565 JUMP JUMPDEST JUMPDEST EQ PUSH2 0x13F JUMPI PUSH1 0x40 MLOAD PUSH32 0x8C379A000000000000000000000000000000000000000000000000000000000 DUP2 MSTORE PUSH1 0x4 ADD PUSH2 0x136 SWAP1 PUSH2 0x67A JUMP JUMPDEST PUSH1 0x40 MLOAD DUP1 SWAP2 SUB SWAP1 REVERT JUMPDEST PUSH1 0x2 PUSH1 0x0 DUP1 PUSH2 0x100 EXP DUP2 SLOAD DUP2 PUSH1 0xFF MUL NOT AND SWAP1 DUP4 PUSH1 0x3 DUP2 GT ISZERO PUSH2 0x164 JUMPI PUSH2 0x163 PUSH2 0x565 JUMP JUMPDEST JUMPDEST MUL OR SWAP1 SSTORE POP PUSH32 0x77F134D3966F81009F754FC11AF11C8F578F7101883EF57D6923BEF5FB2C012 PUSH1 0x0 DUP1 SLOAD SWAP1 PUSH2 0x100 EXP SWAP1 DIV PUSH1 0xFF AND PUSH1 0x0 DUP1 SLOAD SWAP1 PUSH2 0x100 EXP SWAP1 DIV PUSH1 0xFF AND PUSH1 0x3 DUP2 GT ISZERO PUSH2 0x1B8 JUMPI PUSH2 0x1B7 PUSH2 0x565 JUMP JUMPDEST JUMPDEST PUSH1 0x40 MLOAD PUSH2 0x1C6 SWAP3 SWAP2 SWAP1 PUSH2 0x6B3 JUMP JUMPDEST PUSH1 0x40 MLOAD DUP1 SWAP2 SUB SWAP1 LOG1 JUMP JUMPDEST PUSH1 0x0 DUP1 SLOAD SWAP1 PUSH2 0x100 EXP SWAP1 DIV PUSH1 0xFF AND DUP2 JUMP JUMPDEST PUSH1 0x2 PUSH1 0x3 DUP2 GT ISZERO PUSH2 0x1F5 JUMPI PUSH2 0x1F4 PUSH2 0x565 JUMP JUMPDEST JUMPDEST PUSH1 0x0 DUP1 SLOAD SWAP1 PUSH2 0x100 EXP SWAP1 DIV PUSH1 0xFF AND PUSH1 0x3 DUP2 GT ISZERO PUSH2 0x215 JUMPI PUSH2 0x214 PUSH2 0x565 JUMP JUMPDEST JUMPDEST EQ PUSH2 0x255 JUMPI PUSH1 0x40 MLOAD PUSH32 0x8C379A000000000000000000000000000000000000000000000000000000000 DUP2 MSTORE PUSH1 0x4 ADD PUSH2 0x24C SWAP1 PUSH2 0x67A JUMP JUMPDEST PUSH1 0x40 MLOAD DUP1 SWAP2 SUB SWAP1 REVERT JUMPDEST PUSH1 0x3 PUSH1 0x0 DUP1 PUSH2 0x100 EXP DUP2 SLOAD DUP2 PUSH1 0xFF MUL NOT AND SWAP1 DUP4 PUSH1 0x3 DUP2 GT ISZERO PUSH2 0x27A JUMPI PUSH2 0x279 PUSH2 0x565 JUMP JUMPDEST JUMPDEST MUL OR SWAP1 SSTORE POP PUSH32 0x77F134D3966F81009F754FC11AF11C8F578F7101883EF57D6923BEF5FB2C012 PUSH1 0x0 DUP1 SLOAD SWAP1 PUSH2 0x100 EXP SWAP1 DIV PUSH1 0xFF AND PUSH1 0x0 DUP1 SLOAD SWAP1 PUSH2 0x100 EXP SWAP1 DIV PUSH1 0xFF AND PUSH1 0x3 DUP2 GT ISZERO PUSH2 0x2CE JUMPI PUSH2 0x2CD PUSH2 0x565 JUMP JUMPDEST JUMPDEST PUSH1 0x40 MLOAD PUSH2 0x2DC SWAP3 SWAP2 SWAP1 PUSH2 0x6B3 JUMP JUMPDEST PUSH1 0x40 MLOAD DUP1 SWAP2 SUB SWAP1 LOG1 JUMP JUMPDEST PUSH1 0x0 PUSH1 0x3 DUP2 GT ISZERO PUSH2 0x2FA JUMPI PUSH2 0x2F9 PUSH2 0x565 JUMP JUMPDEST JUMPDEST PUSH1 0x3 DUP2 GT ISZERO PUSH2 0x30C JUMPI PUSH2 0x30B PUSH2 0x565 JUMP JUMPDEST JUMPDEST PUSH1 0x0 DUP1 SLOAD SWAP1 PUSH2 0x100 EXP SWAP1 DIV PUSH1 0xFF AND PUSH1 0x3 DUP2 GT ISZERO PUSH2 0x32C JUMPI PUSH2 0x32B PUSH2 0x565 JUMP JUMPDEST JUMPDEST EQ PUSH2 0x36C JUMPI PUSH1 0x40 MLOAD PUSH32 0x8C379A000000000000000000000000000000000000000000000000000000000 DUP2 MSTORE PUSH1 0x4 ADD PUSH2 0x363 SWAP1 PUSH2 0x74E JUMP JUMPDEST PUSH1 0x40 MLOAD DUP1 SWAP2 SUB SWAP1 REVERT JUMPDEST PUSH1 0x1 PUSH1 0x3 DUP2 GT ISZERO PUSH2 0x380 JUMPI PUSH2 0x37F PUSH2 0x565 JUMP JUMPDEST JUMPDEST PUSH1 0x0 DUP1 PUSH2 0x100 EXP DUP2 SLOAD DUP2 PUSH1 0xFF MUL NOT AND SWAP1 DUP4 PUSH1 0x3 DUP2 GT ISZERO PUSH2 0x3A3 JUMPI PUSH2 0x3A2 PUSH2 0x565 JUMP JUMPDEST JUMPDEST MUL OR SWAP1 SSTORE POP PUSH32 0x77F134D3966F81009F754FC11AF11C8F578F7101883EF57D6923BEF5FB2C012 PUSH1 0x0 DUP1 SLOAD SWAP1 PUSH2 0x100 EXP SWAP1 DIV PUSH1 0xFF AND PUSH1 0x0 DUP1 SLOAD SWAP1 PUSH2 0x100 EXP SWAP1 DIV PUSH1 0xFF AND PUSH1 0x3 DUP2 GT ISZERO PUSH2 0x3F7 JUMPI PUSH2 0x3F6 PUSH2 0x565 JUMP JUMPDEST JUMPDEST PUSH1 0x40 MLOAD PUSH2 0x405 SWAP3 SWAP2 SWAP1 PUSH2 0x6B3 JUMP JUMPDEST PUSH1 0x40 MLOAD DUP1 SWAP2 SUB SWAP1 LOG1 JUMP JUMPDEST PUSH1 0x1 PUSH1 0x3 DUP2 GT ISZERO PUSH2 0x423 JUMPI PUSH2 0x422 PUSH2 0x565 JUMP JUMPDEST JUMPDEST PUSH1 0x0 DUP1 SLOAD SWAP1 PUSH2 0x100 EXP SWAP1 DIV PUSH1 0xFF AND PUSH1 0x3 DUP2 GT ISZERO PUSH2 0x443 JUMPI PUSH2 0x442 PUSH2 0x565 JUMP JUMPDEST JUMPDEST EQ DUP1 PUSH2 0x47F JUMPI POP PUSH1 0x3 DUP1 DUP2 GT ISZERO PUSH2 0x45D JUMPI PUSH2 0x45C PUSH2 0x565 JUMP JUMPDEST JUMPDEST PUSH1 0x0 DUP1 SLOAD SWAP1 PUSH2 0x100 EXP SWAP1 DIV PUSH1 0xFF AND PUSH1 0x3 DUP2 GT ISZERO PUSH2 0x47D JUMPI PUSH2 0x47C PUSH2 0x565 JUMP JUMPDEST JUMPDEST EQ JUMPDEST PUSH2 0x4BE JUMPI PUSH1 0x40 MLOAD PUSH32 0x8C379A000000000000000000000000000000000000000000000000000000000 DUP2 MSTORE PUSH1 0x4 ADD PUSH2 0x4B5 SWAP1 PUSH2 0x7E0 JUMP JUMPDEST PUSH1 0x40 MLOAD DUP1 SWAP2 SUB SWAP1 REVERT JUMPDEST PUSH1 0x0 DUP1 PUSH1 0x0 PUSH2 0x100 EXP DUP2 SLOAD DUP2 PUSH1 0xFF MUL NOT AND SWAP1 DUP4 PUSH1 0x3 DUP2 GT ISZERO PUSH2 0x4E3 JUMPI PUSH2 0x4E2 PUSH2 0x565 JUMP JUMPDEST JUMPDEST MUL OR SWAP1 SSTORE POP PUSH32 0x77F134D3966F81009F754FC11AF11C8F578F7101883EF57D6923BEF5FB2C012 PUSH1 0x0 DUP1 SLOAD SWAP1 PUSH2 0x100 EXP SWAP1 DIV PUSH1 0xFF AND PUSH1 0x0 DUP1 SLOAD SWAP1 PUSH2 0x100 EXP SWAP1 DIV PUSH1 0xFF AND PUSH1 0x3 DUP2 GT ISZERO PUSH2 0x537 JUMPI PUSH2 0x536 PUSH2 0x565 JUMP JUMPDEST JUMPDEST PUSH1 0x40 MLOAD PUSH2 0x545 SWAP3 SWAP2 SWAP1 PUSH2 0x6B3 JUMP JUMPDEST PUSH1 0x40 MLOAD DUP1 SWAP2 SUB SWAP1 LOG1 JUMP JUMPDEST PUSH1 0x0 DUP1 PUSH1 0x0 SWAP1 SLOAD SWAP1 PUSH2 0x100 EXP SWAP1 DIV PUSH1 0xFF AND SWAP1 POP SWAP1 JUMP JUMPDEST PUSH32 0x4E487B7100000000000000000000000000000000000000000000000000000000 PUSH1 0x0 MSTORE PUSH1 0x21 PUSH1 0x4 MSTORE PUSH1 0x24 PUSH1 0x0 REVERT JUMPDEST PUSH1 0x4 DUP2 LT PUSH2 0x5A5 JUMPI PUSH2 0x5A4 PUSH2 0x565 JUMP JUMPDEST JUMPDEST POP JUMP JUMPDEST PUSH1 0x0 DUP2 SWAP1 POP PUSH2 0x5B6 DUP3 PUSH2 0x594 JUMP JUMPDEST SWAP2 SWAP1 POP JUMP JUMPDEST PUSH1 0x0 PUSH2 0x5C6 DUP3 PUSH2 0x5A8 JUMP JUMPDEST SWAP1 POP SWAP2 SWAP1 POP JUMP JUMPDEST PUSH2 0x5D6 DUP2 PUSH2 0x5BB JUMP JUMPDEST DUP3 MSTORE POP POP JUMP JUMPDEST PUSH1 0x0 PUSH1 0x20 DUP3 ADD SWAP1 POP PUSH2 0x5F1 PUSH1 0x0 DUP4 ADD DUP5 PUSH2 0x5CD JUMP JUMPDEST SWAP3 SWAP2 POP POP JUMP JUMPDEST PUSH1 0x0 DUP3 DUP3 MSTORE PUSH1 0x20 DUP3 ADD SWAP1 POP SWAP3 SWAP2 POP POP JUMP JUMPDEST PUSH32 0x546F2064726976652061206361722C20796F757220636172206D757374206265 PUSH1 0x0 DUP3 ADD MSTORE PUSH32 0x207475726E6564206F6E00000000000000000000000000000000000000000000 PUSH1 0x20 DUP3 ADD MSTORE POP JUMP JUMPDEST PUSH1 0x0 PUSH2 0x664 PUSH1 0x2A DUP4 PUSH2 0x5F7 JUMP JUMPDEST SWAP2 POP PUSH2 0x66F DUP3 PUSH2 0x608 JUMP JUMPDEST PUSH1 0x40 DUP3 ADD SWAP1 POP SWAP2 SWAP1 POP JUMP JUMPDEST PUSH1 0x0 PUSH1 0x20 DUP3 ADD SWAP1 POP DUP2 DUP2 SUB PUSH1 0x0 DUP4 ADD MSTORE PUSH2 0x693 DUP2 PUSH2 0x657 JUMP JUMPDEST SWAP1 POP SWAP2 SWAP1 POP JUMP JUMPDEST PUSH1 0x0 DUP2 SWAP1 POP SWAP2 SWAP1 POP JUMP JUMPDEST PUSH2 0x6AD DUP2 PUSH2 0x69A JUMP JUMPDEST DUP3 MSTORE POP POP JUMP JUMPDEST PUSH1 0x0 PUSH1 0x40 DUP3 ADD SWAP1 POP PUSH2 0x6C8 PUSH1 0x0 DUP4 ADD DUP6 PUSH2 0x5CD JUMP JUMPDEST PUSH2 0x6D5 PUSH1 0x20 DUP4 ADD DUP5 PUSH2 0x6A4 JUMP JUMPDEST SWAP4 SWAP3 POP POP POP JUMP JUMPDEST PUSH32 0x546F207475726E206F6E2C20796F757220636172206D75737420626520747572 PUSH1 0x0 DUP3 ADD MSTORE PUSH32 0x6E6564206F666600000000000000000000000000000000000000000000000000 PUSH1 0x20 DUP3 ADD MSTORE POP JUMP JUMPDEST PUSH1 0x0 PUSH2 0x738 PUSH1 0x27 DUP4 PUSH2 0x5F7 JUMP JUMPDEST SWAP2 POP PUSH2 0x743 DUP3 PUSH2 0x6DC JUMP JUMPDEST PUSH1 0x40 DUP3 ADD SWAP1 POP SWAP2 SWAP1 POP JUMP JUMPDEST PUSH1 0x0 PUSH1 0x20 DUP3 ADD SWAP1 POP DUP2 DUP2 SUB PUSH1 0x0 DUP4 ADD MSTORE PUSH2 0x767 DUP2 PUSH2 0x72B JUMP JUMPDEST SWAP1 POP SWAP2 SWAP1 POP JUMP JUMPDEST PUSH32 0x546F207475726E206F66662C20796F757220636172206D757374206265207475 PUSH1 0x0 DUP3 ADD MSTORE PUSH32 0x726E6564206F6E206F722064726976696E670000000000000000000000000000 PUSH1 0x20 DUP3 ADD MSTORE POP JUMP JUMPDEST PUSH1 0x0 PUSH2 0x7CA PUSH1 0x32 DUP4 PUSH2 0x5F7 JUMP JUMPDEST SWAP2 POP PUSH2 0x7D5 DUP3 PUSH2 0x76E JUMP JUMPDEST PUSH1 0x40 DUP3 ADD SWAP1 POP SWAP2 SWAP1 POP JUMP JUMPDEST PUSH1 0x0 PUSH1 0x20 DUP3 ADD SWAP1 POP DUP2 DUP2 SUB PUSH1 0x0 DUP4 ADD MSTORE PUSH2 0x7F9 DUP2 PUSH2 0x7BD JUMP JUMPDEST SWAP1 POP SWAP2 SWAP1 POP JUMP INVALID LOG2 PUSH5 0x6970667358 0x22 SLT KECCAK256 0xC4 0xC4 0x23 0x4A 0x4E PUSH31 0x1AC16A8E0FEF19C890BB62EEB343B27CA17CE97EF0325748878164736F6C63 NUMBER STOP ADDMOD 0xD STOP CALLER "
				},
				"gasEstimates": {
					"creation": {
						"codeDepositCost": "420400",
						"executionCost": "24754",
						"totalCost": "445154"
					},
					"external": {
						"CheckStatus()": "2656",
						"DrivingCar()": "32554",
						"StopCar()": "32598",
						"carStatus()": "2557",
						"turnOffCar()": "34855",
						"turnOnCar()": "32672"
					}
				},
				"methodIdentifiers": {
					"CheckStatus()": "f1d67397",
					"DrivingCar()": "196fbd7a",
					"StopCar()": "5745105b",
					"carStatus()": "3ba825ec",
					"turnOffCar()": "dfb2abd2",
					"turnOnCar()": "6eb4a8d2"
				}
			},
			"userdoc": {
				"kind": "user",
				"methods": {},
				"version": 1
			}
		}
	}
}