{
	"lecture/continueBreak.sol": {
		"continueBreak": {
			"abi": [
				{
					"anonymous": false,
					"inputs": [
						{
							"indexed": false,
							"internalType": "uint256",
							"name": "_index",
							"type": "uint256"
						},
						{
							"indexed": false,
							"internalType": "string",
							"name": "_name",
							"type": "string"
						}
					],
					"name": "CountryIndexName",
					"type": "event"
				},
				{
					"inputs": [],
					"name": "useBreak",
					"outputs": [],
					"stateMutability": "nonpayable",
					"type": "function"
				},
				{
					"inputs": [],
					"name": "useContinue",
					"outputs": [],
					"stateMutability": "nonpayable",
					"type": "function"
				}
			],
			"devdoc": {
				"kind": "dev",
				"methods": {},
				"version": 1
			},
			"evm": {
				"assembly": "    /* \"lecture/continueBreak.sol\":72:726  contract continueBreak {... */\n  mstore(0x40, 0x80)\n    /* \"lecture/continueBreak.sol\":162:244  string[] private counrtryList = [\"South Kore\",\"North Korea\",\"USA\",\"CHINA\",\"Japan\"] */\n  mload(0x40)\n  dup1\n  0xa0\n  add\n  0x40\n  mstore\n  dup1\n  mload(0x40)\n  dup1\n  0x40\n  add\n  0x40\n  mstore\n  dup1\n  0x0a\n  dup2\n  mstore\n  0x20\n  add\n  0x536f757468204b6f726500000000000000000000000000000000000000000000\n  dup2\n  mstore\n  pop\n  dup2\n  mstore\n  0x20\n  add\n  mload(0x40)\n  dup1\n  0x40\n  add\n  0x40\n  mstore\n  dup1\n  0x0b\n  dup2\n  mstore\n  0x20\n  add\n  0x4e6f727468204b6f726561000000000000000000000000000000000000000000\n  dup2\n  mstore\n  pop\n  dup2\n  mstore\n  0x20\n  add\n  mload(0x40)\n  dup1\n  0x40\n  add\n  0x40\n  mstore\n  dup1\n  0x03\n  dup2\n  mstore\n  0x20\n  add\n  0x5553410000000000000000000000000000000000000000000000000000000000\n  dup2\n  mstore\n  pop\n  dup2\n  mstore\n  0x20\n  add\n  mload(0x40)\n  dup1\n  0x40\n  add\n  0x40\n  mstore\n  dup1\n  0x05\n  dup2\n  mstore\n  0x20\n  add\n  0x4348494e41000000000000000000000000000000000000000000000000000000\n  dup2\n  mstore\n  pop\n  dup2\n  mstore\n  0x20\n  add\n  mload(0x40)\n  dup1\n  0x40\n  add\n  0x40\n  mstore\n  dup1\n  0x05\n  dup2\n  mstore\n  0x20\n  add\n  0x4a6170616e000000000000000000000000000000000000000000000000000000\n  dup2\n  mstore\n  pop\n  dup2\n  mstore\n  pop\n  0x00\n  swap1\n  0x05\n  tag_1\n  swap3\n  swap2\n  swap1\n  tag_2\n  jump\t// in\ntag_1:\n  pop\n    /* \"lecture/continueBreak.sol\":72:726  contract continueBreak {... */\n  callvalue\n  dup1\n  iszero\n  tag_3\n  jumpi\n  0x00\n  dup1\n  revert\ntag_3:\n  pop\n  jump(tag_4)\ntag_2:\n  dup3\n  dup1\n  sload\n  dup3\n  dup3\n  sstore\n  swap1\n  0x00\n  mstore\n  keccak256(0x00, 0x20)\n  swap1\n  dup2\n  add\n  swap3\n  dup3\n  iszero\n  tag_5\n  jumpi\n  swap2\n  0x20\n  mul\n  dup3\n  add\ntag_6:\n  dup3\n  dup2\n  gt\n  iszero\n  tag_7\n  jumpi\n  dup3\n  mload\n  dup3\n  swap1\n  dup1\n  mload\n  swap1\n  0x20\n  add\n  swap1\n  tag_8\n  swap3\n  swap2\n  swap1\n  tag_9\n  jump\t// in\ntag_8:\n  pop\n  swap2\n  0x20\n  add\n  swap2\n  swap1\n  0x01\n  add\n  swap1\n  jump(tag_6)\ntag_7:\ntag_5:\n  pop\n  swap1\n  pop\n  tag_10\n  swap2\n  swap1\n  tag_11\n  jump\t// in\ntag_10:\n  pop\n  swap1\n  jump\t// out\ntag_9:\n  dup3\n  dup1\n  sload\n  tag_12\n  swap1\n  tag_13\n  jump\t// in\ntag_12:\n  swap1\n  0x00\n  mstore\n  keccak256(0x00, 0x20)\n  swap1\n  0x1f\n  add\n  0x20\n  swap1\n  div\n  dup2\n  add\n  swap3\n  dup3\n  tag_15\n  jumpi\n  0x00\n  dup6\n  sstore\n  jump(tag_14)\ntag_15:\n  dup3\n  0x1f\n  lt\n  tag_16\n  jumpi\n  dup1\n  mload\n  not(0xff)\n  and\n  dup4\n  dup1\n  add\n  or\n  dup6\n  sstore\n  jump(tag_14)\ntag_16:\n  dup3\n  dup1\n  add\n  0x01\n  add\n  dup6\n  sstore\n  dup3\n  iszero\n  tag_14\n  jumpi\n  swap2\n  dup3\n  add\ntag_17:\n  dup3\n  dup2\n  gt\n  iszero\n  tag_18\n  jumpi\n  dup3\n  mload\n  dup3\n  sstore\n  swap2\n  0x20\n  add\n  swap2\n  swap1\n  0x01\n  add\n  swap1\n  jump(tag_17)\ntag_18:\ntag_14:\n  pop\n  swap1\n  pop\n  tag_19\n  swap2\n  swap1\n  tag_20\n  jump\t// in\ntag_19:\n  pop\n  swap1\n  jump\t// out\ntag_11:\ntag_21:\n  dup1\n  dup3\n  gt\n  iszero\n  tag_22\n  jumpi\n  0x00\n  dup2\n  dup2\n  tag_23\n  swap2\n  swap1\n  tag_24\n  jump\t// in\ntag_23:\n  pop\n  0x01\n  add\n  jump(tag_21)\ntag_22:\n  pop\n  swap1\n  jump\t// out\ntag_20:\ntag_25:\n  dup1\n  dup3\n  gt\n  iszero\n  tag_26\n  jumpi\n  0x00\n  dup2\n  0x00\n  swap1\n  sstore\n  pop\n  0x01\n  add\n  jump(tag_25)\ntag_26:\n  pop\n  swap1\n  jump\t// out\ntag_24:\n  pop\n  dup1\n  sload\n  tag_27\n  swap1\n  tag_13\n  jump\t// in\ntag_27:\n  0x00\n  dup3\n  sstore\n  dup1\n  0x1f\n  lt\n  tag_29\n  jumpi\n  pop\n  jump(tag_28)\ntag_29:\n  0x1f\n  add\n  0x20\n  swap1\n  div\n  swap1\n  0x00\n  mstore\n  keccak256(0x00, 0x20)\n  swap1\n  dup2\n  add\n  swap1\n  tag_30\n  swap2\n  swap1\n  tag_20\n  jump\t// in\ntag_30:\ntag_28:\n  pop\n  jump\t// out\n    /* \"#utility.yul\":7:187   */\ntag_31:\n    /* \"#utility.yul\":55:132   */\n  0x4e487b7100000000000000000000000000000000000000000000000000000000\n    /* \"#utility.yul\":52:53   */\n  0x00\n    /* \"#utility.yul\":45:133   */\n  mstore\n    /* \"#utility.yul\":152:156   */\n  0x22\n    /* \"#utility.yul\":149:150   */\n  0x04\n    /* \"#utility.yul\":142:157   */\n  mstore\n    /* \"#utility.yul\":176:180   */\n  0x24\n    /* \"#utility.yul\":173:174   */\n  0x00\n    /* \"#utility.yul\":166:181   */\n  revert\n    /* \"#utility.yul\":193:513   */\ntag_13:\n    /* \"#utility.yul\":237:243   */\n  0x00\n    /* \"#utility.yul\":274:275   */\n  0x02\n    /* \"#utility.yul\":268:272   */\n  dup3\n    /* \"#utility.yul\":264:276   */\n  div\n    /* \"#utility.yul\":254:276   */\n  swap1\n  pop\n    /* \"#utility.yul\":321:322   */\n  0x01\n    /* \"#utility.yul\":315:319   */\n  dup3\n    /* \"#utility.yul\":311:323   */\n  and\n    /* \"#utility.yul\":342:360   */\n  dup1\n    /* \"#utility.yul\":332:413   */\n  tag_35\n  jumpi\n    /* \"#utility.yul\":398:402   */\n  0x7f\n    /* \"#utility.yul\":390:396   */\n  dup3\n    /* \"#utility.yul\":386:403   */\n  and\n    /* \"#utility.yul\":376:403   */\n  swap2\n  pop\n    /* \"#utility.yul\":332:413   */\ntag_35:\n    /* \"#utility.yul\":460:462   */\n  0x20\n    /* \"#utility.yul\":452:458   */\n  dup3\n    /* \"#utility.yul\":449:463   */\n  lt\n    /* \"#utility.yul\":429:447   */\n  dup2\n    /* \"#utility.yul\":426:464   */\n  sub\n    /* \"#utility.yul\":423:507   */\n  tag_36\n  jumpi\n    /* \"#utility.yul\":479:497   */\n  tag_37\n  tag_31\n  jump\t// in\ntag_37:\n    /* \"#utility.yul\":423:507   */\ntag_36:\n    /* \"#utility.yul\":244:513   */\n  pop\n    /* \"#utility.yul\":193:513   */\n  swap2\n  swap1\n  pop\n  jump\t// out\n    /* \"lecture/continueBreak.sol\":72:726  contract continueBreak {... */\ntag_4:\n  dataSize(sub_0)\n  dup1\n  dataOffset(sub_0)\n  0x00\n  codecopy\n  0x00\n  return\nstop\n\nsub_0: assembly {\n        /* \"lecture/continueBreak.sol\":72:726  contract continueBreak {... */\n      mstore(0x40, 0x80)\n      callvalue\n      dup1\n      iszero\n      tag_1\n      jumpi\n      0x00\n      dup1\n      revert\n    tag_1:\n      pop\n      jumpi(tag_2, lt(calldatasize, 0x04))\n      shr(0xe0, calldataload(0x00))\n      dup1\n      0x1e2ae857\n      eq\n      tag_3\n      jumpi\n      dup1\n      0x268caf73\n      eq\n      tag_4\n      jumpi\n    tag_2:\n      0x00\n      dup1\n      revert\n        /* \"lecture/continueBreak.sol\":257:487  function useContinue() public {... */\n    tag_3:\n      tag_5\n      tag_6\n      jump\t// in\n    tag_5:\n      stop\n        /* \"lecture/continueBreak.sol\":495:723  function useBreak() public {... */\n    tag_4:\n      tag_7\n      tag_8\n      jump\t// in\n    tag_7:\n      stop\n        /* \"lecture/continueBreak.sol\":257:487  function useContinue() public {... */\n    tag_6:\n        /* \"lecture/continueBreak.sol\":302:308  uint i */\n      0x00\n        /* \"lecture/continueBreak.sol\":298:480  for(uint i =0; i < counrtryList.length; i++ ) {... */\n    tag_10:\n        /* \"lecture/continueBreak.sol\":317:329  counrtryList */\n      0x00\n        /* \"lecture/continueBreak.sol\":317:336  counrtryList.length */\n      dup1\n      sload\n      swap1\n      pop\n        /* \"lecture/continueBreak.sol\":313:314  i */\n      dup2\n        /* \"lecture/continueBreak.sol\":313:336  i < counrtryList.length */\n      lt\n        /* \"lecture/continueBreak.sol\":298:480  for(uint i =0; i < counrtryList.length; i++ ) {... */\n      iszero\n      tag_11\n      jumpi\n        /* \"lecture/continueBreak.sol\":367:368  1 */\n      0x01\n        /* \"lecture/continueBreak.sol\":364:365  2 */\n      0x02\n        /* \"lecture/continueBreak.sol\":362:363  i */\n      dup3\n        /* \"lecture/continueBreak.sol\":362:365  i%2 */\n      tag_13\n      swap2\n      swap1\n      tag_14\n      jump\t// in\n    tag_13:\n        /* \"lecture/continueBreak.sol\":362:368  i%2==1 */\n      sub\n        /* \"lecture/continueBreak.sol\":359:413  if(i%2==1) {... */\n      iszero\n        /* \"lecture/continueBreak.sol\":389:397  continue */\n      tag_12\n        /* \"lecture/continueBreak.sol\":359:413  if(i%2==1) {... */\n      jumpi\n        /* \"lecture/continueBreak.sol\":432:467  CountryIndexName(i,counrtryList[i]) */\n      0xc3750795857a09dd89d722c915dbd49e7496a6f23cad9de450838745e45f9329\n        /* \"lecture/continueBreak.sol\":449:450  i */\n      dup2\n        /* \"lecture/continueBreak.sol\":451:463  counrtryList */\n      0x00\n        /* \"lecture/continueBreak.sol\":464:465  i */\n      dup4\n        /* \"lecture/continueBreak.sol\":451:466  counrtryList[i] */\n      dup2\n      sload\n      dup2\n      lt\n      tag_16\n      jumpi\n      tag_17\n      tag_18\n      jump\t// in\n    tag_17:\n    tag_16:\n      swap1\n      0x00\n      mstore\n      keccak256(0x00, 0x20)\n      add\n        /* \"lecture/continueBreak.sol\":432:467  CountryIndexName(i,counrtryList[i]) */\n      mload(0x40)\n      tag_20\n      swap3\n      swap2\n      swap1\n      tag_21\n      jump\t// in\n    tag_20:\n      mload(0x40)\n      dup1\n      swap2\n      sub\n      swap1\n      log1\n        /* \"lecture/continueBreak.sol\":298:480  for(uint i =0; i < counrtryList.length; i++ ) {... */\n    tag_12:\n        /* \"lecture/continueBreak.sol\":338:341  i++ */\n      dup1\n      dup1\n      tag_22\n      swap1\n      tag_23\n      jump\t// in\n    tag_22:\n      swap2\n      pop\n      pop\n        /* \"lecture/continueBreak.sol\":298:480  for(uint i =0; i < counrtryList.length; i++ ) {... */\n      jump(tag_10)\n    tag_11:\n      pop\n        /* \"lecture/continueBreak.sol\":257:487  function useContinue() public {... */\n      jump\t// out\n        /* \"lecture/continueBreak.sol\":495:723  function useBreak() public {... */\n    tag_8:\n        /* \"lecture/continueBreak.sol\":537:546  uint256 i */\n      0x00\n        /* \"lecture/continueBreak.sol\":533:716  for(uint256 i = 0; i < counrtryList.length; i++ ) {... */\n    tag_25:\n        /* \"lecture/continueBreak.sol\":556:568  counrtryList */\n      0x00\n        /* \"lecture/continueBreak.sol\":556:575  counrtryList.length */\n      dup1\n      sload\n      swap1\n      pop\n        /* \"lecture/continueBreak.sol\":552:553  i */\n      dup2\n        /* \"lecture/continueBreak.sol\":552:575  i < counrtryList.length */\n      lt\n        /* \"lecture/continueBreak.sol\":533:716  for(uint256 i = 0; i < counrtryList.length; i++ ) {... */\n      iszero\n      tag_26\n      jumpi\n        /* \"lecture/continueBreak.sol\":606:607  2 */\n      0x02\n        /* \"lecture/continueBreak.sol\":601:602  i */\n      dup2\n        /* \"lecture/continueBreak.sol\":601:607  i == 2 */\n      sub\n        /* \"lecture/continueBreak.sol\":598:649  if(i == 2) {... */\n      iszero\n        /* \"lecture/continueBreak.sol\":628:633  break */\n      tag_26\n        /* \"lecture/continueBreak.sol\":598:649  if(i == 2) {... */\n      jumpi\n        /* \"lecture/continueBreak.sol\":668:703  CountryIndexName(i,counrtryList[i]) */\n      0xc3750795857a09dd89d722c915dbd49e7496a6f23cad9de450838745e45f9329\n        /* \"lecture/continueBreak.sol\":685:686  i */\n      dup2\n        /* \"lecture/continueBreak.sol\":687:699  counrtryList */\n      0x00\n        /* \"lecture/continueBreak.sol\":700:701  i */\n      dup4\n        /* \"lecture/continueBreak.sol\":687:702  counrtryList[i] */\n      dup2\n      sload\n      dup2\n      lt\n      tag_29\n      jumpi\n      tag_30\n      tag_18\n      jump\t// in\n    tag_30:\n    tag_29:\n      swap1\n      0x00\n      mstore\n      keccak256(0x00, 0x20)\n      add\n        /* \"lecture/continueBreak.sol\":668:703  CountryIndexName(i,counrtryList[i]) */\n      mload(0x40)\n      tag_32\n      swap3\n      swap2\n      swap1\n      tag_21\n      jump\t// in\n    tag_32:\n      mload(0x40)\n      dup1\n      swap2\n      sub\n      swap1\n      log1\n        /* \"lecture/continueBreak.sol\":577:580  i++ */\n      dup1\n      dup1\n      tag_33\n      swap1\n      tag_23\n      jump\t// in\n    tag_33:\n      swap2\n      pop\n      pop\n        /* \"lecture/continueBreak.sol\":533:716  for(uint256 i = 0; i < counrtryList.length; i++ ) {... */\n      jump(tag_25)\n    tag_26:\n      pop\n        /* \"lecture/continueBreak.sol\":495:723  function useBreak() public {... */\n      jump\t// out\n        /* \"#utility.yul\":7:84   */\n    tag_34:\n        /* \"#utility.yul\":44:51   */\n      0x00\n        /* \"#utility.yul\":73:78   */\n      dup2\n        /* \"#utility.yul\":62:78   */\n      swap1\n      pop\n        /* \"#utility.yul\":7:84   */\n      swap2\n      swap1\n      pop\n      jump\t// out\n        /* \"#utility.yul\":90:270   */\n    tag_35:\n        /* \"#utility.yul\":138:215   */\n      0x4e487b7100000000000000000000000000000000000000000000000000000000\n        /* \"#utility.yul\":135:136   */\n      0x00\n        /* \"#utility.yul\":128:216   */\n      mstore\n        /* \"#utility.yul\":235:239   */\n      0x12\n        /* \"#utility.yul\":232:233   */\n      0x04\n        /* \"#utility.yul\":225:240   */\n      mstore\n        /* \"#utility.yul\":259:263   */\n      0x24\n        /* \"#utility.yul\":256:257   */\n      0x00\n        /* \"#utility.yul\":249:264   */\n      revert\n        /* \"#utility.yul\":276:452   */\n    tag_14:\n        /* \"#utility.yul\":308:309   */\n      0x00\n        /* \"#utility.yul\":325:345   */\n      tag_47\n        /* \"#utility.yul\":343:344   */\n      dup3\n        /* \"#utility.yul\":325:345   */\n      tag_34\n      jump\t// in\n    tag_47:\n        /* \"#utility.yul\":320:345   */\n      swap2\n      pop\n        /* \"#utility.yul\":359:379   */\n      tag_48\n        /* \"#utility.yul\":377:378   */\n      dup4\n        /* \"#utility.yul\":359:379   */\n      tag_34\n      jump\t// in\n    tag_48:\n        /* \"#utility.yul\":354:379   */\n      swap3\n      pop\n        /* \"#utility.yul\":398:399   */\n      dup3\n        /* \"#utility.yul\":388:423   */\n      tag_49\n      jumpi\n        /* \"#utility.yul\":403:421   */\n      tag_50\n      tag_35\n      jump\t// in\n    tag_50:\n        /* \"#utility.yul\":388:423   */\n    tag_49:\n        /* \"#utility.yul\":444:445   */\n      dup3\n        /* \"#utility.yul\":441:442   */\n      dup3\n        /* \"#utility.yul\":437:446   */\n      mod\n        /* \"#utility.yul\":432:446   */\n      swap1\n      pop\n        /* \"#utility.yul\":276:452   */\n      swap3\n      swap2\n      pop\n      pop\n      jump\t// out\n        /* \"#utility.yul\":458:638   */\n    tag_18:\n        /* \"#utility.yul\":506:583   */\n      0x4e487b7100000000000000000000000000000000000000000000000000000000\n        /* \"#utility.yul\":503:504   */\n      0x00\n        /* \"#utility.yul\":496:584   */\n      mstore\n        /* \"#utility.yul\":603:607   */\n      0x32\n        /* \"#utility.yul\":600:601   */\n      0x04\n        /* \"#utility.yul\":593:608   */\n      mstore\n        /* \"#utility.yul\":627:631   */\n      0x24\n        /* \"#utility.yul\":624:625   */\n      0x00\n        /* \"#utility.yul\":617:632   */\n      revert\n        /* \"#utility.yul\":644:762   */\n    tag_36:\n        /* \"#utility.yul\":731:755   */\n      tag_53\n        /* \"#utility.yul\":749:754   */\n      dup2\n        /* \"#utility.yul\":731:755   */\n      tag_34\n      jump\t// in\n    tag_53:\n        /* \"#utility.yul\":726:729   */\n      dup3\n        /* \"#utility.yul\":719:756   */\n      mstore\n        /* \"#utility.yul\":644:762   */\n      pop\n      pop\n      jump\t// out\n        /* \"#utility.yul\":768:948   */\n    tag_37:\n        /* \"#utility.yul\":816:893   */\n      0x4e487b7100000000000000000000000000000000000000000000000000000000\n        /* \"#utility.yul\":813:814   */\n      0x00\n        /* \"#utility.yul\":806:894   */\n      mstore\n        /* \"#utility.yul\":913:917   */\n      0x22\n        /* \"#utility.yul\":910:911   */\n      0x04\n        /* \"#utility.yul\":903:918   */\n      mstore\n        /* \"#utility.yul\":937:941   */\n      0x24\n        /* \"#utility.yul\":934:935   */\n      0x00\n        /* \"#utility.yul\":927:942   */\n      revert\n        /* \"#utility.yul\":954:1274   */\n    tag_38:\n        /* \"#utility.yul\":998:1004   */\n      0x00\n        /* \"#utility.yul\":1035:1036   */\n      0x02\n        /* \"#utility.yul\":1029:1033   */\n      dup3\n        /* \"#utility.yul\":1025:1037   */\n      div\n        /* \"#utility.yul\":1015:1037   */\n      swap1\n      pop\n        /* \"#utility.yul\":1082:1083   */\n      0x01\n        /* \"#utility.yul\":1076:1080   */\n      dup3\n        /* \"#utility.yul\":1072:1084   */\n      and\n        /* \"#utility.yul\":1103:1121   */\n      dup1\n        /* \"#utility.yul\":1093:1174   */\n      tag_56\n      jumpi\n        /* \"#utility.yul\":1159:1163   */\n      0x7f\n        /* \"#utility.yul\":1151:1157   */\n      dup3\n        /* \"#utility.yul\":1147:1164   */\n      and\n        /* \"#utility.yul\":1137:1164   */\n      swap2\n      pop\n        /* \"#utility.yul\":1093:1174   */\n    tag_56:\n        /* \"#utility.yul\":1221:1223   */\n      0x20\n        /* \"#utility.yul\":1213:1219   */\n      dup3\n        /* \"#utility.yul\":1210:1224   */\n      lt\n        /* \"#utility.yul\":1190:1208   */\n      dup2\n        /* \"#utility.yul\":1187:1225   */\n      sub\n        /* \"#utility.yul\":1184:1268   */\n      tag_57\n      jumpi\n        /* \"#utility.yul\":1240:1258   */\n      tag_58\n      tag_37\n      jump\t// in\n    tag_58:\n        /* \"#utility.yul\":1184:1268   */\n    tag_57:\n        /* \"#utility.yul\":1005:1274   */\n      pop\n        /* \"#utility.yul\":954:1274   */\n      swap2\n      swap1\n      pop\n      jump\t// out\n        /* \"#utility.yul\":1280:1449   */\n    tag_39:\n        /* \"#utility.yul\":1364:1375   */\n      0x00\n        /* \"#utility.yul\":1398:1404   */\n      dup3\n        /* \"#utility.yul\":1393:1396   */\n      dup3\n        /* \"#utility.yul\":1386:1405   */\n      mstore\n        /* \"#utility.yul\":1438:1442   */\n      0x20\n        /* \"#utility.yul\":1433:1436   */\n      dup3\n        /* \"#utility.yul\":1429:1443   */\n      add\n        /* \"#utility.yul\":1414:1443   */\n      swap1\n      pop\n        /* \"#utility.yul\":1280:1449   */\n      swap3\n      swap2\n      pop\n      pop\n      jump\t// out\n        /* \"#utility.yul\":1455:1596   */\n    tag_40:\n        /* \"#utility.yul\":1504:1508   */\n      0x00\n        /* \"#utility.yul\":1527:1530   */\n      dup2\n        /* \"#utility.yul\":1519:1530   */\n      swap1\n      pop\n        /* \"#utility.yul\":1550:1553   */\n      dup2\n        /* \"#utility.yul\":1547:1548   */\n      0x00\n        /* \"#utility.yul\":1540:1554   */\n      mstore\n        /* \"#utility.yul\":1584:1588   */\n      0x20\n        /* \"#utility.yul\":1581:1582   */\n      0x00\n        /* \"#utility.yul\":1571:1589   */\n      keccak256\n        /* \"#utility.yul\":1563:1589   */\n      swap1\n      pop\n        /* \"#utility.yul\":1455:1596   */\n      swap2\n      swap1\n      pop\n      jump\t// out\n        /* \"#utility.yul\":1626:2428   */\n    tag_41:\n        /* \"#utility.yul\":1711:1714   */\n      0x00\n        /* \"#utility.yul\":1748:1753   */\n      dup2\n        /* \"#utility.yul\":1742:1754   */\n      sload\n        /* \"#utility.yul\":1777:1813   */\n      tag_62\n        /* \"#utility.yul\":1803:1812   */\n      dup2\n        /* \"#utility.yul\":1777:1813   */\n      tag_38\n      jump\t// in\n    tag_62:\n        /* \"#utility.yul\":1829:1900   */\n      tag_63\n        /* \"#utility.yul\":1893:1899   */\n      dup2\n        /* \"#utility.yul\":1888:1891   */\n      dup7\n        /* \"#utility.yul\":1829:1900   */\n      tag_39\n      jump\t// in\n    tag_63:\n        /* \"#utility.yul\":1822:1900   */\n      swap5\n      pop\n        /* \"#utility.yul\":1931:1932   */\n      0x01\n        /* \"#utility.yul\":1920:1929   */\n      dup3\n        /* \"#utility.yul\":1916:1933   */\n      and\n        /* \"#utility.yul\":1947:1948   */\n      0x00\n        /* \"#utility.yul\":1942:2077   */\n      dup2\n      eq\n      tag_65\n      jumpi\n        /* \"#utility.yul\":2091:2092   */\n      0x01\n        /* \"#utility.yul\":2086:2422   */\n      dup2\n      eq\n      tag_66\n      jumpi\n        /* \"#utility.yul\":1909:2422   */\n      jump(tag_64)\n        /* \"#utility.yul\":1942:2077   */\n    tag_65:\n        /* \"#utility.yul\":2026:2030   */\n      0xff\n        /* \"#utility.yul\":2022:2031   */\n      not\n        /* \"#utility.yul\":2011:2020   */\n      dup4\n        /* \"#utility.yul\":2007:2032   */\n      and\n        /* \"#utility.yul\":2002:2005   */\n      dup7\n        /* \"#utility.yul\":1995:2033   */\n      mstore\n        /* \"#utility.yul\":2062:2066   */\n      0x20\n        /* \"#utility.yul\":2057:2060   */\n      dup7\n        /* \"#utility.yul\":2053:2067   */\n      add\n        /* \"#utility.yul\":2046:2067   */\n      swap4\n      pop\n        /* \"#utility.yul\":1942:2077   */\n      jump(tag_64)\n        /* \"#utility.yul\":2086:2422   */\n    tag_66:\n        /* \"#utility.yul\":2153:2191   */\n      tag_67\n        /* \"#utility.yul\":2185:2190   */\n      dup6\n        /* \"#utility.yul\":2153:2191   */\n      tag_40\n      jump\t// in\n    tag_67:\n        /* \"#utility.yul\":2213:2214   */\n      0x00\n        /* \"#utility.yul\":2227:2381   */\n    tag_68:\n        /* \"#utility.yul\":2241:2247   */\n      dup4\n        /* \"#utility.yul\":2238:2239   */\n      dup2\n        /* \"#utility.yul\":2235:2248   */\n      lt\n        /* \"#utility.yul\":2227:2381   */\n      iszero\n      tag_70\n      jumpi\n        /* \"#utility.yul\":2315:2322   */\n      dup2\n        /* \"#utility.yul\":2309:2323   */\n      sload\n        /* \"#utility.yul\":2305:2306   */\n      dup2\n        /* \"#utility.yul\":2300:2303   */\n      dup10\n        /* \"#utility.yul\":2296:2307   */\n      add\n        /* \"#utility.yul\":2289:2324   */\n      mstore\n        /* \"#utility.yul\":2365:2366   */\n      0x01\n        /* \"#utility.yul\":2356:2363   */\n      dup3\n        /* \"#utility.yul\":2352:2367   */\n      add\n        /* \"#utility.yul\":2341:2367   */\n      swap2\n      pop\n        /* \"#utility.yul\":2263:2267   */\n      0x20\n        /* \"#utility.yul\":2260:2261   */\n      dup2\n        /* \"#utility.yul\":2256:2268   */\n      add\n        /* \"#utility.yul\":2251:2268   */\n      swap1\n      pop\n        /* \"#utility.yul\":2227:2381   */\n      jump(tag_68)\n    tag_70:\n        /* \"#utility.yul\":2410:2411   */\n      dup1\n        /* \"#utility.yul\":2405:2408   */\n      dup9\n        /* \"#utility.yul\":2401:2412   */\n      add\n        /* \"#utility.yul\":2394:2412   */\n      swap6\n      pop\n        /* \"#utility.yul\":2093:2422   */\n      pop\n      pop\n        /* \"#utility.yul\":1909:2422   */\n    tag_64:\n      pop\n        /* \"#utility.yul\":1715:2428   */\n      pop\n      pop\n        /* \"#utility.yul\":1626:2428   */\n      swap3\n      swap2\n      pop\n      pop\n      jump\t// out\n        /* \"#utility.yul\":2434:2851   */\n    tag_21:\n        /* \"#utility.yul\":2572:2576   */\n      0x00\n        /* \"#utility.yul\":2610:2612   */\n      0x40\n        /* \"#utility.yul\":2599:2608   */\n      dup3\n        /* \"#utility.yul\":2595:2613   */\n      add\n        /* \"#utility.yul\":2587:2613   */\n      swap1\n      pop\n        /* \"#utility.yul\":2623:2694   */\n      tag_72\n        /* \"#utility.yul\":2691:2692   */\n      0x00\n        /* \"#utility.yul\":2680:2689   */\n      dup4\n        /* \"#utility.yul\":2676:2693   */\n      add\n        /* \"#utility.yul\":2667:2673   */\n      dup6\n        /* \"#utility.yul\":2623:2694   */\n      tag_36\n      jump\t// in\n    tag_72:\n        /* \"#utility.yul\":2741:2750   */\n      dup2\n        /* \"#utility.yul\":2735:2739   */\n      dup2\n        /* \"#utility.yul\":2731:2751   */\n      sub\n        /* \"#utility.yul\":2726:2728   */\n      0x20\n        /* \"#utility.yul\":2715:2724   */\n      dup4\n        /* \"#utility.yul\":2711:2729   */\n      add\n        /* \"#utility.yul\":2704:2752   */\n      mstore\n        /* \"#utility.yul\":2769:2844   */\n      tag_73\n        /* \"#utility.yul\":2839:2843   */\n      dup2\n        /* \"#utility.yul\":2830:2836   */\n      dup5\n        /* \"#utility.yul\":2769:2844   */\n      tag_41\n      jump\t// in\n    tag_73:\n        /* \"#utility.yul\":2761:2844   */\n      swap1\n      pop\n        /* \"#utility.yul\":2434:2851   */\n      swap4\n      swap3\n      pop\n      pop\n      pop\n      jump\t// out\n        /* \"#utility.yul\":2857:3037   */\n    tag_42:\n        /* \"#utility.yul\":2905:2982   */\n      0x4e487b7100000000000000000000000000000000000000000000000000000000\n        /* \"#utility.yul\":2902:2903   */\n      0x00\n        /* \"#utility.yul\":2895:2983   */\n      mstore\n        /* \"#utility.yul\":3002:3006   */\n      0x11\n        /* \"#utility.yul\":2999:3000   */\n      0x04\n        /* \"#utility.yul\":2992:3007   */\n      mstore\n        /* \"#utility.yul\":3026:3030   */\n      0x24\n        /* \"#utility.yul\":3023:3024   */\n      0x00\n        /* \"#utility.yul\":3016:3031   */\n      revert\n        /* \"#utility.yul\":3043:3276   */\n    tag_23:\n        /* \"#utility.yul\":3082:3085   */\n      0x00\n        /* \"#utility.yul\":3105:3129   */\n      tag_76\n        /* \"#utility.yul\":3123:3128   */\n      dup3\n        /* \"#utility.yul\":3105:3129   */\n      tag_34\n      jump\t// in\n    tag_76:\n        /* \"#utility.yul\":3096:3129   */\n      swap2\n      pop\n        /* \"#utility.yul\":3151:3217   */\n      0xffffffffffffffffffffffffffffffffffffffffffffffffffffffffffffffff\n        /* \"#utility.yul\":3144:3149   */\n      dup3\n        /* \"#utility.yul\":3141:3218   */\n      sub\n        /* \"#utility.yul\":3138:3241   */\n      tag_77\n      jumpi\n        /* \"#utility.yul\":3221:3239   */\n      tag_78\n      tag_42\n      jump\t// in\n    tag_78:\n        /* \"#utility.yul\":3138:3241   */\n    tag_77:\n        /* \"#utility.yul\":3268:3269   */\n      0x01\n        /* \"#utility.yul\":3261:3266   */\n      dup3\n        /* \"#utility.yul\":3257:3270   */\n      add\n        /* \"#utility.yul\":3250:3270   */\n      swap1\n      pop\n        /* \"#utility.yul\":3043:3276   */\n      swap2\n      swap1\n      pop\n      jump\t// out\n\n    auxdata: 0xa264697066735822122038a01e83b22cbc7227819cf34049f1bf7785823105df751c1d0d7754a20da6e764736f6c634300080d0033\n}\n",
				"bytecode": {
					"linkReferences": {},
					"object": "60806040526040518060a001604052806040518060400160405280600a81526020017f536f757468204b6f72650000000000000000000000000000000000000000000081525081526020016040518060400160405280600b81526020017f4e6f727468204b6f72656100000000000000000000000000000000000000000081525081526020016040518060400160405280600381526020017f555341000000000000000000000000000000000000000000000000000000000081525081526020016040518060400160405280600581526020017f4348494e4100000000000000000000000000000000000000000000000000000081525081526020016040518060400160405280600581526020017f4a6170616e0000000000000000000000000000000000000000000000000000008152508152506000906005610144929190610157565b5034801561015157600080fd5b5061031e565b8280548282559060005260206000209081019282156101a6579160200282015b828111156101a55782518290805190602001906101959291906101b7565b5091602001919060010190610177565b5b5090506101b3919061023d565b5090565b8280546101c3906102ed565b90600052602060002090601f0160209004810192826101e5576000855561022c565b82601f106101fe57805160ff191683800117855561022c565b8280016001018555821561022c579182015b8281111561022b578251825591602001919060010190610210565b5b5090506102399190610261565b5090565b5b8082111561025d5760008181610254919061027e565b5060010161023e565b5090565b5b8082111561027a576000816000905550600101610262565b5090565b50805461028a906102ed565b6000825580601f1061029c57506102bb565b601f0160209004906000526020600020908101906102ba9190610261565b5b50565b7f4e487b7100000000000000000000000000000000000000000000000000000000600052602260045260246000fd5b6000600282049050600182168061030557607f821691505b602082108103610318576103176102be565b5b50919050565b6103f18061032d6000396000f3fe608060405234801561001057600080fd5b50600436106100365760003560e01c80631e2ae8571461003b578063268caf7314610045575b600080fd5b61004361004f565b005b61004d6100e1565b005b60005b6000805490508110156100de57600160028261006e919061019f565b03156100cb577fc3750795857a09dd89d722c915dbd49e7496a6f23cad9de450838745e45f932981600083815481106100aa576100a96101d0565b5b906000526020600020016040516100c2929190610314565b60405180910390a15b80806100d690610373565b915050610052565b50565b60005b600080549050811015610163576002810315610163577fc3750795857a09dd89d722c915dbd49e7496a6f23cad9de450838745e45f932981600083815481106101305761012f6101d0565b5b90600052602060002001604051610148929190610314565b60405180910390a1808061015b90610373565b9150506100e4565b50565b6000819050919050565b7f4e487b7100000000000000000000000000000000000000000000000000000000600052601260045260246000fd5b60006101aa82610166565b91506101b583610166565b9250826101c5576101c4610170565b5b828206905092915050565b7f4e487b7100000000000000000000000000000000000000000000000000000000600052603260045260246000fd5b61020881610166565b82525050565b7f4e487b7100000000000000000000000000000000000000000000000000000000600052602260045260246000fd5b6000600282049050600182168061025557607f821691505b6020821081036102685761026761020e565b5b50919050565b600082825260208201905092915050565b60008190508160005260206000209050919050565b600081546102a18161023d565b6102ab818661026e565b945060018216600081146102c657600181146102d85761030b565b60ff198316865260208601935061030b565b6102e18561027f565b60005b83811015610303578154818901526001820191506020810190506102e4565b808801955050505b50505092915050565b600060408201905061032960008301856101ff565b818103602083015261033b8184610294565b90509392505050565b7f4e487b7100000000000000000000000000000000000000000000000000000000600052601160045260246000fd5b600061037e82610166565b91507fffffffffffffffffffffffffffffffffffffffffffffffffffffffffffffffff82036103b0576103af610344565b5b60018201905091905056fea264697066735822122038a01e83b22cbc7227819cf34049f1bf7785823105df751c1d0d7754a20da6e764736f6c634300080d0033",
					"opcodes": "PUSH1 0x80 PUSH1 0x40 MSTORE PUSH1 0x40 MLOAD DUP1 PUSH1 0xA0 ADD PUSH1 0x40 MSTORE DUP1 PUSH1 0x40 MLOAD DUP1 PUSH1 0x40 ADD PUSH1 0x40 MSTORE DUP1 PUSH1 0xA DUP2 MSTORE PUSH1 0x20 ADD PUSH32 0x536F757468204B6F726500000000000000000000000000000000000000000000 DUP2 MSTORE POP DUP2 MSTORE PUSH1 0x20 ADD PUSH1 0x40 MLOAD DUP1 PUSH1 0x40 ADD PUSH1 0x40 MSTORE DUP1 PUSH1 0xB DUP2 MSTORE PUSH1 0x20 ADD PUSH32 0x4E6F727468204B6F726561000000000000000000000000000000000000000000 DUP2 MSTORE POP DUP2 MSTORE PUSH1 0x20 ADD PUSH1 0x40 MLOAD DUP1 PUSH1 0x40 ADD PUSH1 0x40 MSTORE DUP1 PUSH1 0x3 DUP2 MSTORE PUSH1 0x20 ADD PUSH32 0x5553410000000000000000000000000000000000000000000000000000000000 DUP2 MSTORE POP DUP2 MSTORE PUSH1 0x20 ADD PUSH1 0x40 MLOAD DUP1 PUSH1 0x40 ADD PUSH1 0x40 MSTORE DUP1 PUSH1 0x5 DUP2 MSTORE PUSH1 0x20 ADD PUSH32 0x4348494E41000000000000000000000000000000000000000000000000000000 DUP2 MSTORE POP DUP2 MSTORE PUSH1 0x20 ADD PUSH1 0x40 MLOAD DUP1 PUSH1 0x40 ADD PUSH1 0x40 MSTORE DUP1 PUSH1 0x5 DUP2 MSTORE PUSH1 0x20 ADD PUSH32 0x4A6170616E000000000000000000000000000000000000000000000000000000 DUP2 MSTORE POP DUP2 MSTORE POP PUSH1 0x0 SWAP1 PUSH1 0x5 PUSH2 0x144 SWAP3 SWAP2 SWAP1 PUSH2 0x157 JUMP JUMPDEST POP CALLVALUE DUP1 ISZERO PUSH2 0x151 JUMPI PUSH1 0x0 DUP1 REVERT JUMPDEST POP PUSH2 0x31E JUMP JUMPDEST DUP3 DUP1 SLOAD DUP3 DUP3 SSTORE SWAP1 PUSH1 0x0 MSTORE PUSH1 0x20 PUSH1 0x0 KECCAK256 SWAP1 DUP2 ADD SWAP3 DUP3 ISZERO PUSH2 0x1A6 JUMPI SWAP2 PUSH1 0x20 MUL DUP3 ADD JUMPDEST DUP3 DUP2 GT ISZERO PUSH2 0x1A5 JUMPI DUP3 MLOAD DUP3 SWAP1 DUP1 MLOAD SWAP1 PUSH1 0x20 ADD SWAP1 PUSH2 0x195 SWAP3 SWAP2 SWAP1 PUSH2 0x1B7 JUMP JUMPDEST POP SWAP2 PUSH1 0x20 ADD SWAP2 SWAP1 PUSH1 0x1 ADD SWAP1 PUSH2 0x177 JUMP JUMPDEST JUMPDEST POP SWAP1 POP PUSH2 0x1B3 SWAP2 SWAP1 PUSH2 0x23D JUMP JUMPDEST POP SWAP1 JUMP JUMPDEST DUP3 DUP1 SLOAD PUSH2 0x1C3 SWAP1 PUSH2 0x2ED JUMP JUMPDEST SWAP1 PUSH1 0x0 MSTORE PUSH1 0x20 PUSH1 0x0 KECCAK256 SWAP1 PUSH1 0x1F ADD PUSH1 0x20 SWAP1 DIV DUP2 ADD SWAP3 DUP3 PUSH2 0x1E5 JUMPI PUSH1 0x0 DUP6 SSTORE PUSH2 0x22C JUMP JUMPDEST DUP3 PUSH1 0x1F LT PUSH2 0x1FE JUMPI DUP1 MLOAD PUSH1 0xFF NOT AND DUP4 DUP1 ADD OR DUP6 SSTORE PUSH2 0x22C JUMP JUMPDEST DUP3 DUP1 ADD PUSH1 0x1 ADD DUP6 SSTORE DUP3 ISZERO PUSH2 0x22C JUMPI SWAP2 DUP3 ADD JUMPDEST DUP3 DUP2 GT ISZERO PUSH2 0x22B JUMPI DUP3 MLOAD DUP3 SSTORE SWAP2 PUSH1 0x20 ADD SWAP2 SWAP1 PUSH1 0x1 ADD SWAP1 PUSH2 0x210 JUMP JUMPDEST JUMPDEST POP SWAP1 POP PUSH2 0x239 SWAP2 SWAP1 PUSH2 0x261 JUMP JUMPDEST POP SWAP1 JUMP JUMPDEST JUMPDEST DUP1 DUP3 GT ISZERO PUSH2 0x25D JUMPI PUSH1 0x0 DUP2 DUP2 PUSH2 0x254 SWAP2 SWAP1 PUSH2 0x27E JUMP JUMPDEST POP PUSH1 0x1 ADD PUSH2 0x23E JUMP JUMPDEST POP SWAP1 JUMP JUMPDEST JUMPDEST DUP1 DUP3 GT ISZERO PUSH2 0x27A JUMPI PUSH1 0x0 DUP2 PUSH1 0x0 SWAP1 SSTORE POP PUSH1 0x1 ADD PUSH2 0x262 JUMP JUMPDEST POP SWAP1 JUMP JUMPDEST POP DUP1 SLOAD PUSH2 0x28A SWAP1 PUSH2 0x2ED JUMP JUMPDEST PUSH1 0x0 DUP3 SSTORE DUP1 PUSH1 0x1F LT PUSH2 0x29C JUMPI POP PUSH2 0x2BB JUMP JUMPDEST PUSH1 0x1F ADD PUSH1 0x20 SWAP1 DIV SWAP1 PUSH1 0x0 MSTORE PUSH1 0x20 PUSH1 0x0 KECCAK256 SWAP1 DUP2 ADD SWAP1 PUSH2 0x2BA SWAP2 SWAP1 PUSH2 0x261 JUMP JUMPDEST JUMPDEST POP JUMP JUMPDEST PUSH32 0x4E487B7100000000000000000000000000000000000000000000000000000000 PUSH1 0x0 MSTORE PUSH1 0x22 PUSH1 0x4 MSTORE PUSH1 0x24 PUSH1 0x0 REVERT JUMPDEST PUSH1 0x0 PUSH1 0x2 DUP3 DIV SWAP1 POP PUSH1 0x1 DUP3 AND DUP1 PUSH2 0x305 JUMPI PUSH1 0x7F DUP3 AND SWAP2 POP JUMPDEST PUSH1 0x20 DUP3 LT DUP2 SUB PUSH2 0x318 JUMPI PUSH2 0x317 PUSH2 0x2BE JUMP JUMPDEST JUMPDEST POP SWAP2 SWAP1 POP JUMP JUMPDEST PUSH2 0x3F1 DUP1 PUSH2 0x32D PUSH1 0x0 CODECOPY PUSH1 0x0 RETURN INVALID PUSH1 0x80 PUSH1 0x40 MSTORE CALLVALUE DUP1 ISZERO PUSH2 0x10 JUMPI PUSH1 0x0 DUP1 REVERT JUMPDEST POP PUSH1 0x4 CALLDATASIZE LT PUSH2 0x36 JUMPI PUSH1 0x0 CALLDATALOAD PUSH1 0xE0 SHR DUP1 PUSH4 0x1E2AE857 EQ PUSH2 0x3B JUMPI DUP1 PUSH4 0x268CAF73 EQ PUSH2 0x45 JUMPI JUMPDEST PUSH1 0x0 DUP1 REVERT JUMPDEST PUSH2 0x43 PUSH2 0x4F JUMP JUMPDEST STOP JUMPDEST PUSH2 0x4D PUSH2 0xE1 JUMP JUMPDEST STOP JUMPDEST PUSH1 0x0 JUMPDEST PUSH1 0x0 DUP1 SLOAD SWAP1 POP DUP2 LT ISZERO PUSH2 0xDE JUMPI PUSH1 0x1 PUSH1 0x2 DUP3 PUSH2 0x6E SWAP2 SWAP1 PUSH2 0x19F JUMP JUMPDEST SUB ISZERO PUSH2 0xCB JUMPI PUSH32 0xC3750795857A09DD89D722C915DBD49E7496A6F23CAD9DE450838745E45F9329 DUP2 PUSH1 0x0 DUP4 DUP2 SLOAD DUP2 LT PUSH2 0xAA JUMPI PUSH2 0xA9 PUSH2 0x1D0 JUMP JUMPDEST JUMPDEST SWAP1 PUSH1 0x0 MSTORE PUSH1 0x20 PUSH1 0x0 KECCAK256 ADD PUSH1 0x40 MLOAD PUSH2 0xC2 SWAP3 SWAP2 SWAP1 PUSH2 0x314 JUMP JUMPDEST PUSH1 0x40 MLOAD DUP1 SWAP2 SUB SWAP1 LOG1 JUMPDEST DUP1 DUP1 PUSH2 0xD6 SWAP1 PUSH2 0x373 JUMP JUMPDEST SWAP2 POP POP PUSH2 0x52 JUMP JUMPDEST POP JUMP JUMPDEST PUSH1 0x0 JUMPDEST PUSH1 0x0 DUP1 SLOAD SWAP1 POP DUP2 LT ISZERO PUSH2 0x163 JUMPI PUSH1 0x2 DUP2 SUB ISZERO PUSH2 0x163 JUMPI PUSH32 0xC3750795857A09DD89D722C915DBD49E7496A6F23CAD9DE450838745E45F9329 DUP2 PUSH1 0x0 DUP4 DUP2 SLOAD DUP2 LT PUSH2 0x130 JUMPI PUSH2 0x12F PUSH2 0x1D0 JUMP JUMPDEST JUMPDEST SWAP1 PUSH1 0x0 MSTORE PUSH1 0x20 PUSH1 0x0 KECCAK256 ADD PUSH1 0x40 MLOAD PUSH2 0x148 SWAP3 SWAP2 SWAP1 PUSH2 0x314 JUMP JUMPDEST PUSH1 0x40 MLOAD DUP1 SWAP2 SUB SWAP1 LOG1 DUP1 DUP1 PUSH2 0x15B SWAP1 PUSH2 0x373 JUMP JUMPDEST SWAP2 POP POP PUSH2 0xE4 JUMP JUMPDEST POP JUMP JUMPDEST PUSH1 0x0 DUP2 SWAP1 POP SWAP2 SWAP1 POP JUMP JUMPDEST PUSH32 0x4E487B7100000000000000000000000000000000000000000000000000000000 PUSH1 0x0 MSTORE PUSH1 0x12 PUSH1 0x4 MSTORE PUSH1 0x24 PUSH1 0x0 REVERT JUMPDEST PUSH1 0x0 PUSH2 0x1AA DUP3 PUSH2 0x166 JUMP JUMPDEST SWAP2 POP PUSH2 0x1B5 DUP4 PUSH2 0x166 JUMP JUMPDEST SWAP3 POP DUP3 PUSH2 0x1C5 JUMPI PUSH2 0x1C4 PUSH2 0x170 JUMP JUMPDEST JUMPDEST DUP3 DUP3 MOD SWAP1 POP SWAP3 SWAP2 POP POP JUMP JUMPDEST PUSH32 0x4E487B7100000000000000000000000000000000000000000000000000000000 PUSH1 0x0 MSTORE PUSH1 0x32 PUSH1 0x4 MSTORE PUSH1 0x24 PUSH1 0x0 REVERT JUMPDEST PUSH2 0x208 DUP2 PUSH2 0x166 JUMP JUMPDEST DUP3 MSTORE POP POP JUMP JUMPDEST PUSH32 0x4E487B7100000000000000000000000000000000000000000000000000000000 PUSH1 0x0 MSTORE PUSH1 0x22 PUSH1 0x4 MSTORE PUSH1 0x24 PUSH1 0x0 REVERT JUMPDEST PUSH1 0x0 PUSH1 0x2 DUP3 DIV SWAP1 POP PUSH1 0x1 DUP3 AND DUP1 PUSH2 0x255 JUMPI PUSH1 0x7F DUP3 AND SWAP2 POP JUMPDEST PUSH1 0x20 DUP3 LT DUP2 SUB PUSH2 0x268 JUMPI PUSH2 0x267 PUSH2 0x20E JUMP JUMPDEST JUMPDEST POP SWAP2 SWAP1 POP JUMP JUMPDEST PUSH1 0x0 DUP3 DUP3 MSTORE PUSH1 0x20 DUP3 ADD SWAP1 POP SWAP3 SWAP2 POP POP JUMP JUMPDEST PUSH1 0x0 DUP2 SWAP1 POP DUP2 PUSH1 0x0 MSTORE PUSH1 0x20 PUSH1 0x0 KECCAK256 SWAP1 POP SWAP2 SWAP1 POP JUMP JUMPDEST PUSH1 0x0 DUP2 SLOAD PUSH2 0x2A1 DUP2 PUSH2 0x23D JUMP JUMPDEST PUSH2 0x2AB DUP2 DUP7 PUSH2 0x26E JUMP JUMPDEST SWAP5 POP PUSH1 0x1 DUP3 AND PUSH1 0x0 DUP2 EQ PUSH2 0x2C6 JUMPI PUSH1 0x1 DUP2 EQ PUSH2 0x2D8 JUMPI PUSH2 0x30B JUMP JUMPDEST PUSH1 0xFF NOT DUP4 AND DUP7 MSTORE PUSH1 0x20 DUP7 ADD SWAP4 POP PUSH2 0x30B JUMP JUMPDEST PUSH2 0x2E1 DUP6 PUSH2 0x27F JUMP JUMPDEST PUSH1 0x0 JUMPDEST DUP4 DUP2 LT ISZERO PUSH2 0x303 JUMPI DUP2 SLOAD DUP2 DUP10 ADD MSTORE PUSH1 0x1 DUP3 ADD SWAP2 POP PUSH1 0x20 DUP2 ADD SWAP1 POP PUSH2 0x2E4 JUMP JUMPDEST DUP1 DUP9 ADD SWAP6 POP POP POP JUMPDEST POP POP POP SWAP3 SWAP2 POP POP JUMP JUMPDEST PUSH1 0x0 PUSH1 0x40 DUP3 ADD SWAP1 POP PUSH2 0x329 PUSH1 0x0 DUP4 ADD DUP6 PUSH2 0x1FF JUMP JUMPDEST DUP2 DUP2 SUB PUSH1 0x20 DUP4 ADD MSTORE PUSH2 0x33B DUP2 DUP5 PUSH2 0x294 JUMP JUMPDEST SWAP1 POP SWAP4 SWAP3 POP POP POP JUMP JUMPDEST PUSH32 0x4E487B7100000000000000000000000000000000000000000000000000000000 PUSH1 0x0 MSTORE PUSH1 0x11 PUSH1 0x4 MSTORE PUSH1 0x24 PUSH1 0x0 REVERT JUMPDEST PUSH1 0x0 PUSH2 0x37E DUP3 PUSH2 0x166 JUMP JUMPDEST SWAP2 POP PUSH32 0xFFFFFFFFFFFFFFFFFFFFFFFFFFFFFFFFFFFFFFFFFFFFFFFFFFFFFFFFFFFFFFFF DUP3 SUB PUSH2 0x3B0 JUMPI PUSH2 0x3AF PUSH2 0x344 JUMP JUMPDEST JUMPDEST PUSH1 0x1 DUP3 ADD SWAP1 POP SWAP2 SWAP1 POP JUMP INVALID LOG2 PUSH5 0x6970667358 0x22 SLT KECCAK256 CODESIZE LOG0 0x1E DUP4 0xB2 0x2C 0xBC PUSH19 0x27819CF34049F1BF7785823105DF751C1D0D77 SLOAD LOG2 0xD 0xA6 0xE7 PUSH5 0x736F6C6343 STOP ADDMOD 0xD STOP CALLER "
				},
				"gasEstimates": {
					"creation": {
						"codeDepositCost": "201800",
						"executionCost": "infinite",
						"totalCost": "infinite"
					},
					"external": {
						"useBreak()": "infinite",
						"useContinue()": "infinite"
					}
				},
				"methodIdentifiers": {
					"useBreak()": "268caf73",
					"useContinue()": "1e2ae857"
				}
			},
			"userdoc": {
				"kind": "user",
				"methods": {},
				"version": 1
			}
		}
	}
}