{
	"lecture/payable2.sol": {
		"MobileBanking": {
			"abi": [
				{
					"inputs": [],
					"stateMutability": "payable",
					"type": "constructor"
				},
				{
					"anonymous": false,
					"inputs": [
						{
							"indexed": false,
							"internalType": "address",
							"name": "_msgSender",
							"type": "address"
						},
						{
							"indexed": false,
							"internalType": "address",
							"name": "_to",
							"type": "address"
						},
						{
							"indexed": false,
							"internalType": "uint256",
							"name": "_value",
							"type": "uint256"
						}
					],
					"name": "CurrentValueOfSomeone",
					"type": "event"
				},
				{
					"anonymous": false,
					"inputs": [
						{
							"indexed": false,
							"internalType": "address",
							"name": "_msgSender",
							"type": "address"
						},
						{
							"indexed": false,
							"internalType": "uint256",
							"name": "_value",
							"type": "uint256"
						}
					],
					"name": "MyCurrentValue",
					"type": "event"
				},
				{
					"anonymous": false,
					"inputs": [
						{
							"indexed": false,
							"internalType": "address",
							"name": "_msgSender",
							"type": "address"
						},
						{
							"indexed": false,
							"internalType": "uint256",
							"name": "_currentValue",
							"type": "uint256"
						}
					],
					"name": "SendInfo",
					"type": "event"
				},
				{
					"inputs": [
						{
							"internalType": "address",
							"name": "_to",
							"type": "address"
						}
					],
					"name": "checkUserMoney",
					"outputs": [],
					"stateMutability": "nonpayable",
					"type": "function"
				},
				{
					"inputs": [],
					"name": "checkValueNow",
					"outputs": [],
					"stateMutability": "nonpayable",
					"type": "function"
				},
				{
					"inputs": [
						{
							"internalType": "address payable",
							"name": "_to",
							"type": "address"
						}
					],
					"name": "sendEther",
					"outputs": [],
					"stateMutability": "payable",
					"type": "function"
				}
			],
			"devdoc": {
				"kind": "dev",
				"methods": {},
				"version": 1
			},
			"evm": {
				"assembly": "    /* \"lecture/payable2.sol\":688:1663  contract MobileBanking{... */\n  mstore(0x40, 0x80)\n    /* \"lecture/payable2.sol\":878:888  msg.sender */\n  caller\n    /* \"lecture/payable2.sol\":870:875  owner */\n  0x00\n  dup1\n    /* \"lecture/payable2.sol\":870:888  owner = msg.sender */\n  0x0100\n  exp\n  dup2\n  sload\n  dup2\n  0xffffffffffffffffffffffffffffffffffffffff\n  mul\n  not\n  and\n  swap1\n  dup4\n  0xffffffffffffffffffffffffffffffffffffffff\n  and\n  mul\n  or\n  swap1\n  sstore\n  pop\n    /* \"lecture/payable2.sol\":688:1663  contract MobileBanking{... */\n  dataSize(sub_0)\n  dup1\n  dataOffset(sub_0)\n  0x00\n  codecopy\n  0x00\n  return\nstop\n\nsub_0: assembly {\n        /* \"lecture/payable2.sol\":688:1663  contract MobileBanking{... */\n      mstore(0x40, 0x80)\n      jumpi(tag_1, lt(calldatasize, 0x04))\n      shr(0xe0, calldataload(0x00))\n      dup1\n      0x48c981e2\n      eq\n      tag_2\n      jumpi\n      dup1\n      0x9d427413\n      eq\n      tag_3\n      jumpi\n      dup1\n      0xc776b4df\n      eq\n      tag_4\n      jumpi\n    tag_1:\n      0x00\n      dup1\n      revert\n        /* \"lecture/payable2.sol\":1120:1412  function sendEther(address payable _to) public payable {... */\n    tag_2:\n      tag_5\n      0x04\n      dup1\n      calldatasize\n      sub\n      dup2\n      add\n      swap1\n      tag_6\n      swap2\n      swap1\n      tag_7\n      jump\t// in\n    tag_6:\n      tag_8\n      jump\t// in\n    tag_5:\n      stop\n        /* \"lecture/payable2.sol\":1537:1654  function checkUserMoney(address _to) public{... */\n    tag_3:\n      callvalue\n      dup1\n      iszero\n      tag_9\n      jumpi\n      0x00\n      dup1\n      revert\n    tag_9:\n      pop\n      tag_10\n      0x04\n      dup1\n      calldatasize\n      sub\n      dup2\n      add\n      swap1\n      tag_11\n      swap2\n      swap1\n      tag_12\n      jump\t// in\n    tag_11:\n      tag_13\n      jump\t// in\n    tag_10:\n      stop\n        /* \"lecture/payable2.sol\":1424:1525  function checkValueNow() public{... */\n    tag_4:\n      callvalue\n      dup1\n      iszero\n      tag_14\n      jumpi\n      0x00\n      dup1\n      revert\n    tag_14:\n      pop\n      tag_15\n      tag_16\n      jump\t// in\n    tag_15:\n      stop\n        /* \"lecture/payable2.sol\":1120:1412  function sendEther(address payable _to) public payable {... */\n    tag_8:\n        /* \"lecture/payable2.sol\":1208:1213  owner */\n      0x00\n      dup1\n      sload\n      swap1\n      0x0100\n      exp\n      swap1\n      div\n      0xffffffffffffffffffffffffffffffffffffffff\n      and\n        /* \"lecture/payable2.sol\":1194:1213  msg.sender == owner */\n      0xffffffffffffffffffffffffffffffffffffffff\n      and\n        /* \"lecture/payable2.sol\":1194:1204  msg.sender */\n      caller\n        /* \"lecture/payable2.sol\":1194:1213  msg.sender == owner */\n      0xffffffffffffffffffffffffffffffffffffffff\n      and\n      eq\n        /* \"lecture/payable2.sol\":1186:1230  require(msg.sender == owner, \"Only Owner !\") */\n      tag_18\n      jumpi\n      mload(0x40)\n      0x08c379a000000000000000000000000000000000000000000000000000000000\n      dup2\n      mstore\n      0x04\n      add\n      tag_19\n      swap1\n      tag_20\n      jump\t// in\n    tag_19:\n      mload(0x40)\n      dup1\n      swap2\n      sub\n      swap1\n      revert\n    tag_18:\n        /* \"lecture/payable2.sol\":1269:1278  msg.value */\n      callvalue\n        /* \"lecture/payable2.sol\":1249:1259  msg.sender */\n      caller\n        /* \"lecture/payable2.sol\":1249:1267  msg.sender.balance */\n      0xffffffffffffffffffffffffffffffffffffffff\n      and\n      balance\n        /* \"lecture/payable2.sol\":1249:1278  msg.sender.balance>=msg.value */\n      lt\n      iszero\n        /* \"lecture/payable2.sol\":1241:1309  require(msg.sender.balance>=msg.value, \"Your balance is not enough\") */\n      tag_21\n      jumpi\n      mload(0x40)\n      0x08c379a000000000000000000000000000000000000000000000000000000000\n      dup2\n      mstore\n      0x04\n      add\n      tag_22\n      swap1\n      tag_23\n      jump\t// in\n    tag_22:\n      mload(0x40)\n      dup1\n      swap2\n      sub\n      swap1\n      revert\n    tag_21:\n        /* \"lecture/payable2.sol\":1320:1323  _to */\n      dup1\n        /* \"lecture/payable2.sol\":1320:1332  _to.transfer */\n      0xffffffffffffffffffffffffffffffffffffffff\n      and\n        /* \"lecture/payable2.sol\":1320:1343  _to.transfer(msg.value) */\n      0x08fc\n        /* \"lecture/payable2.sol\":1333:1342  msg.value */\n      callvalue\n        /* \"lecture/payable2.sol\":1320:1343  _to.transfer(msg.value) */\n      swap1\n      dup2\n      iszero\n      mul\n      swap1\n      mload(0x40)\n      0x00\n      mload(0x40)\n      dup1\n      dup4\n      sub\n      dup2\n      dup6\n      dup9\n      dup9\n      call\n      swap4\n      pop\n      pop\n      pop\n      pop\n      iszero\n      dup1\n      iszero\n      tag_25\n      jumpi\n      returndatasize\n      0x00\n      dup1\n      returndatacopy\n      revert(0x00, returndatasize)\n    tag_25:\n      pop\n        /* \"lecture/payable2.sol\":1363:1404  SendInfo(msg.sender,(msg.sender).balance) */\n      0xef3d45e3976629248ff5a27c6e07e8c80013b2b1f46611f16ebf46c6bf09be29\n        /* \"lecture/payable2.sol\":1372:1382  msg.sender */\n      caller\n        /* \"lecture/payable2.sol\":1384:1394  msg.sender */\n      caller\n        /* \"lecture/payable2.sol\":1383:1403  (msg.sender).balance */\n      0xffffffffffffffffffffffffffffffffffffffff\n      and\n      balance\n        /* \"lecture/payable2.sol\":1363:1404  SendInfo(msg.sender,(msg.sender).balance) */\n      mload(0x40)\n      tag_26\n      swap3\n      swap2\n      swap1\n      tag_27\n      jump\t// in\n    tag_26:\n      mload(0x40)\n      dup1\n      swap2\n      sub\n      swap1\n      log1\n        /* \"lecture/payable2.sol\":1120:1412  function sendEther(address payable _to) public payable {... */\n      pop\n      jump\t// out\n        /* \"lecture/payable2.sol\":1537:1654  function checkUserMoney(address _to) public{... */\n    tag_13:\n        /* \"lecture/payable2.sol\":1596:1646  CurrentValueOfSomeone(msg.sender,_to ,_to.balance) */\n      0xbce456ac206bf5f267f4accbf956229979251e867ffc3fb45ca938fc6a27a440\n        /* \"lecture/payable2.sol\":1618:1628  msg.sender */\n      caller\n        /* \"lecture/payable2.sol\":1629:1632  _to */\n      dup3\n        /* \"lecture/payable2.sol\":1634:1637  _to */\n      dup4\n        /* \"lecture/payable2.sol\":1634:1645  _to.balance */\n      0xffffffffffffffffffffffffffffffffffffffff\n      and\n      balance\n        /* \"lecture/payable2.sol\":1596:1646  CurrentValueOfSomeone(msg.sender,_to ,_to.balance) */\n      mload(0x40)\n      tag_29\n      swap4\n      swap3\n      swap2\n      swap1\n      tag_30\n      jump\t// in\n    tag_29:\n      mload(0x40)\n      dup1\n      swap2\n      sub\n      swap1\n      log1\n        /* \"lecture/payable2.sol\":1537:1654  function checkUserMoney(address _to) public{... */\n      pop\n      jump\t// out\n        /* \"lecture/payable2.sol\":1424:1525  function checkValueNow() public{... */\n    tag_16:\n        /* \"lecture/payable2.sol\":1471:1517  MyCurrentValue(msg.sender, msg.sender.balance) */\n      0x96f3ab567151de7a605db2b427c0e7bd4c402b81f2d24c89b0b92687e0494c15\n        /* \"lecture/payable2.sol\":1486:1496  msg.sender */\n      caller\n        /* \"lecture/payable2.sol\":1498:1508  msg.sender */\n      caller\n        /* \"lecture/payable2.sol\":1498:1516  msg.sender.balance */\n      0xffffffffffffffffffffffffffffffffffffffff\n      and\n      balance\n        /* \"lecture/payable2.sol\":1471:1517  MyCurrentValue(msg.sender, msg.sender.balance) */\n      mload(0x40)\n      tag_32\n      swap3\n      swap2\n      swap1\n      tag_27\n      jump\t// in\n    tag_32:\n      mload(0x40)\n      dup1\n      swap2\n      sub\n      swap1\n      log1\n        /* \"lecture/payable2.sol\":1424:1525  function checkValueNow() public{... */\n      jump\t// out\n        /* \"#utility.yul\":88:205   */\n    tag_34:\n        /* \"#utility.yul\":197:198   */\n      0x00\n        /* \"#utility.yul\":194:195   */\n      dup1\n        /* \"#utility.yul\":187:199   */\n      revert\n        /* \"#utility.yul\":334:460   */\n    tag_36:\n        /* \"#utility.yul\":371:378   */\n      0x00\n        /* \"#utility.yul\":411:453   */\n      0xffffffffffffffffffffffffffffffffffffffff\n        /* \"#utility.yul\":404:409   */\n      dup3\n        /* \"#utility.yul\":400:454   */\n      and\n        /* \"#utility.yul\":389:454   */\n      swap1\n      pop\n        /* \"#utility.yul\":334:460   */\n      swap2\n      swap1\n      pop\n      jump\t// out\n        /* \"#utility.yul\":466:570   */\n    tag_37:\n        /* \"#utility.yul\":511:518   */\n      0x00\n        /* \"#utility.yul\":540:564   */\n      tag_57\n        /* \"#utility.yul\":558:563   */\n      dup3\n        /* \"#utility.yul\":540:564   */\n      tag_36\n      jump\t// in\n    tag_57:\n        /* \"#utility.yul\":529:564   */\n      swap1\n      pop\n        /* \"#utility.yul\":466:570   */\n      swap2\n      swap1\n      pop\n      jump\t// out\n        /* \"#utility.yul\":576:714   */\n    tag_38:\n        /* \"#utility.yul\":657:689   */\n      tag_59\n        /* \"#utility.yul\":683:688   */\n      dup2\n        /* \"#utility.yul\":657:689   */\n      tag_37\n      jump\t// in\n    tag_59:\n        /* \"#utility.yul\":650:655   */\n      dup2\n        /* \"#utility.yul\":647:690   */\n      eq\n        /* \"#utility.yul\":637:708   */\n      tag_60\n      jumpi\n        /* \"#utility.yul\":704:705   */\n      0x00\n        /* \"#utility.yul\":701:702   */\n      dup1\n        /* \"#utility.yul\":694:706   */\n      revert\n        /* \"#utility.yul\":637:708   */\n    tag_60:\n        /* \"#utility.yul\":576:714   */\n      pop\n      jump\t// out\n        /* \"#utility.yul\":720:875   */\n    tag_39:\n        /* \"#utility.yul\":774:779   */\n      0x00\n        /* \"#utility.yul\":812:818   */\n      dup2\n        /* \"#utility.yul\":799:819   */\n      calldataload\n        /* \"#utility.yul\":790:819   */\n      swap1\n      pop\n        /* \"#utility.yul\":828:869   */\n      tag_62\n        /* \"#utility.yul\":863:868   */\n      dup2\n        /* \"#utility.yul\":828:869   */\n      tag_38\n      jump\t// in\n    tag_62:\n        /* \"#utility.yul\":720:875   */\n      swap3\n      swap2\n      pop\n      pop\n      jump\t// out\n        /* \"#utility.yul\":881:1226   */\n    tag_7:\n        /* \"#utility.yul\":948:954   */\n      0x00\n        /* \"#utility.yul\":997:999   */\n      0x20\n        /* \"#utility.yul\":985:994   */\n      dup3\n        /* \"#utility.yul\":976:983   */\n      dup5\n        /* \"#utility.yul\":972:995   */\n      sub\n        /* \"#utility.yul\":968:1000   */\n      slt\n        /* \"#utility.yul\":965:1084   */\n      iszero\n      tag_64\n      jumpi\n        /* \"#utility.yul\":1003:1082   */\n      tag_65\n      tag_34\n      jump\t// in\n    tag_65:\n        /* \"#utility.yul\":965:1084   */\n    tag_64:\n        /* \"#utility.yul\":1123:1124   */\n      0x00\n        /* \"#utility.yul\":1148:1209   */\n      tag_66\n        /* \"#utility.yul\":1201:1208   */\n      dup5\n        /* \"#utility.yul\":1192:1198   */\n      dup3\n        /* \"#utility.yul\":1181:1190   */\n      dup6\n        /* \"#utility.yul\":1177:1199   */\n      add\n        /* \"#utility.yul\":1148:1209   */\n      tag_39\n      jump\t// in\n    tag_66:\n        /* \"#utility.yul\":1138:1209   */\n      swap2\n      pop\n        /* \"#utility.yul\":1094:1219   */\n      pop\n        /* \"#utility.yul\":881:1226   */\n      swap3\n      swap2\n      pop\n      pop\n      jump\t// out\n        /* \"#utility.yul\":1232:1328   */\n    tag_40:\n        /* \"#utility.yul\":1269:1276   */\n      0x00\n        /* \"#utility.yul\":1298:1322   */\n      tag_68\n        /* \"#utility.yul\":1316:1321   */\n      dup3\n        /* \"#utility.yul\":1298:1322   */\n      tag_36\n      jump\t// in\n    tag_68:\n        /* \"#utility.yul\":1287:1322   */\n      swap1\n      pop\n        /* \"#utility.yul\":1232:1328   */\n      swap2\n      swap1\n      pop\n      jump\t// out\n        /* \"#utility.yul\":1334:1456   */\n    tag_41:\n        /* \"#utility.yul\":1407:1431   */\n      tag_70\n        /* \"#utility.yul\":1425:1430   */\n      dup2\n        /* \"#utility.yul\":1407:1431   */\n      tag_40\n      jump\t// in\n    tag_70:\n        /* \"#utility.yul\":1400:1405   */\n      dup2\n        /* \"#utility.yul\":1397:1432   */\n      eq\n        /* \"#utility.yul\":1387:1450   */\n      tag_71\n      jumpi\n        /* \"#utility.yul\":1446:1447   */\n      0x00\n        /* \"#utility.yul\":1443:1444   */\n      dup1\n        /* \"#utility.yul\":1436:1448   */\n      revert\n        /* \"#utility.yul\":1387:1450   */\n    tag_71:\n        /* \"#utility.yul\":1334:1456   */\n      pop\n      jump\t// out\n        /* \"#utility.yul\":1462:1601   */\n    tag_42:\n        /* \"#utility.yul\":1508:1513   */\n      0x00\n        /* \"#utility.yul\":1546:1552   */\n      dup2\n        /* \"#utility.yul\":1533:1553   */\n      calldataload\n        /* \"#utility.yul\":1524:1553   */\n      swap1\n      pop\n        /* \"#utility.yul\":1562:1595   */\n      tag_73\n        /* \"#utility.yul\":1589:1594   */\n      dup2\n        /* \"#utility.yul\":1562:1595   */\n      tag_41\n      jump\t// in\n    tag_73:\n        /* \"#utility.yul\":1462:1601   */\n      swap3\n      swap2\n      pop\n      pop\n      jump\t// out\n        /* \"#utility.yul\":1607:1936   */\n    tag_12:\n        /* \"#utility.yul\":1666:1672   */\n      0x00\n        /* \"#utility.yul\":1715:1717   */\n      0x20\n        /* \"#utility.yul\":1703:1712   */\n      dup3\n        /* \"#utility.yul\":1694:1701   */\n      dup5\n        /* \"#utility.yul\":1690:1713   */\n      sub\n        /* \"#utility.yul\":1686:1718   */\n      slt\n        /* \"#utility.yul\":1683:1802   */\n      iszero\n      tag_75\n      jumpi\n        /* \"#utility.yul\":1721:1800   */\n      tag_76\n      tag_34\n      jump\t// in\n    tag_76:\n        /* \"#utility.yul\":1683:1802   */\n    tag_75:\n        /* \"#utility.yul\":1841:1842   */\n      0x00\n        /* \"#utility.yul\":1866:1919   */\n      tag_77\n        /* \"#utility.yul\":1911:1918   */\n      dup5\n        /* \"#utility.yul\":1902:1908   */\n      dup3\n        /* \"#utility.yul\":1891:1900   */\n      dup6\n        /* \"#utility.yul\":1887:1909   */\n      add\n        /* \"#utility.yul\":1866:1919   */\n      tag_42\n      jump\t// in\n    tag_77:\n        /* \"#utility.yul\":1856:1919   */\n      swap2\n      pop\n        /* \"#utility.yul\":1812:1929   */\n      pop\n        /* \"#utility.yul\":1607:1936   */\n      swap3\n      swap2\n      pop\n      pop\n      jump\t// out\n        /* \"#utility.yul\":1942:2111   */\n    tag_43:\n        /* \"#utility.yul\":2026:2037   */\n      0x00\n        /* \"#utility.yul\":2060:2066   */\n      dup3\n        /* \"#utility.yul\":2055:2058   */\n      dup3\n        /* \"#utility.yul\":2048:2067   */\n      mstore\n        /* \"#utility.yul\":2100:2104   */\n      0x20\n        /* \"#utility.yul\":2095:2098   */\n      dup3\n        /* \"#utility.yul\":2091:2105   */\n      add\n        /* \"#utility.yul\":2076:2105   */\n      swap1\n      pop\n        /* \"#utility.yul\":1942:2111   */\n      swap3\n      swap2\n      pop\n      pop\n      jump\t// out\n        /* \"#utility.yul\":2117:2279   */\n    tag_44:\n        /* \"#utility.yul\":2257:2271   */\n      0x4f6e6c79204f776e657220210000000000000000000000000000000000000000\n        /* \"#utility.yul\":2253:2254   */\n      0x00\n        /* \"#utility.yul\":2245:2251   */\n      dup3\n        /* \"#utility.yul\":2241:2255   */\n      add\n        /* \"#utility.yul\":2234:2272   */\n      mstore\n        /* \"#utility.yul\":2117:2279   */\n      pop\n      jump\t// out\n        /* \"#utility.yul\":2285:2651   */\n    tag_45:\n        /* \"#utility.yul\":2427:2430   */\n      0x00\n        /* \"#utility.yul\":2448:2515   */\n      tag_81\n        /* \"#utility.yul\":2512:2514   */\n      0x0c\n        /* \"#utility.yul\":2507:2510   */\n      dup4\n        /* \"#utility.yul\":2448:2515   */\n      tag_43\n      jump\t// in\n    tag_81:\n        /* \"#utility.yul\":2441:2515   */\n      swap2\n      pop\n        /* \"#utility.yul\":2524:2617   */\n      tag_82\n        /* \"#utility.yul\":2613:2616   */\n      dup3\n        /* \"#utility.yul\":2524:2617   */\n      tag_44\n      jump\t// in\n    tag_82:\n        /* \"#utility.yul\":2642:2644   */\n      0x20\n        /* \"#utility.yul\":2637:2640   */\n      dup3\n        /* \"#utility.yul\":2633:2645   */\n      add\n        /* \"#utility.yul\":2626:2645   */\n      swap1\n      pop\n        /* \"#utility.yul\":2285:2651   */\n      swap2\n      swap1\n      pop\n      jump\t// out\n        /* \"#utility.yul\":2657:3076   */\n    tag_20:\n        /* \"#utility.yul\":2823:2827   */\n      0x00\n        /* \"#utility.yul\":2861:2863   */\n      0x20\n        /* \"#utility.yul\":2850:2859   */\n      dup3\n        /* \"#utility.yul\":2846:2864   */\n      add\n        /* \"#utility.yul\":2838:2864   */\n      swap1\n      pop\n        /* \"#utility.yul\":2910:2919   */\n      dup2\n        /* \"#utility.yul\":2904:2908   */\n      dup2\n        /* \"#utility.yul\":2900:2920   */\n      sub\n        /* \"#utility.yul\":2896:2897   */\n      0x00\n        /* \"#utility.yul\":2885:2894   */\n      dup4\n        /* \"#utility.yul\":2881:2898   */\n      add\n        /* \"#utility.yul\":2874:2921   */\n      mstore\n        /* \"#utility.yul\":2938:3069   */\n      tag_84\n        /* \"#utility.yul\":3064:3068   */\n      dup2\n        /* \"#utility.yul\":2938:3069   */\n      tag_45\n      jump\t// in\n    tag_84:\n        /* \"#utility.yul\":2930:3069   */\n      swap1\n      pop\n        /* \"#utility.yul\":2657:3076   */\n      swap2\n      swap1\n      pop\n      jump\t// out\n        /* \"#utility.yul\":3082:3258   */\n    tag_46:\n        /* \"#utility.yul\":3222:3250   */\n      0x596f75722062616c616e6365206973206e6f7420656e6f756768000000000000\n        /* \"#utility.yul\":3218:3219   */\n      0x00\n        /* \"#utility.yul\":3210:3216   */\n      dup3\n        /* \"#utility.yul\":3206:3220   */\n      add\n        /* \"#utility.yul\":3199:3251   */\n      mstore\n        /* \"#utility.yul\":3082:3258   */\n      pop\n      jump\t// out\n        /* \"#utility.yul\":3264:3630   */\n    tag_47:\n        /* \"#utility.yul\":3406:3409   */\n      0x00\n        /* \"#utility.yul\":3427:3494   */\n      tag_87\n        /* \"#utility.yul\":3491:3493   */\n      0x1a\n        /* \"#utility.yul\":3486:3489   */\n      dup4\n        /* \"#utility.yul\":3427:3494   */\n      tag_43\n      jump\t// in\n    tag_87:\n        /* \"#utility.yul\":3420:3494   */\n      swap2\n      pop\n        /* \"#utility.yul\":3503:3596   */\n      tag_88\n        /* \"#utility.yul\":3592:3595   */\n      dup3\n        /* \"#utility.yul\":3503:3596   */\n      tag_46\n      jump\t// in\n    tag_88:\n        /* \"#utility.yul\":3621:3623   */\n      0x20\n        /* \"#utility.yul\":3616:3619   */\n      dup3\n        /* \"#utility.yul\":3612:3624   */\n      add\n        /* \"#utility.yul\":3605:3624   */\n      swap1\n      pop\n        /* \"#utility.yul\":3264:3630   */\n      swap2\n      swap1\n      pop\n      jump\t// out\n        /* \"#utility.yul\":3636:4055   */\n    tag_23:\n        /* \"#utility.yul\":3802:3806   */\n      0x00\n        /* \"#utility.yul\":3840:3842   */\n      0x20\n        /* \"#utility.yul\":3829:3838   */\n      dup3\n        /* \"#utility.yul\":3825:3843   */\n      add\n        /* \"#utility.yul\":3817:3843   */\n      swap1\n      pop\n        /* \"#utility.yul\":3889:3898   */\n      dup2\n        /* \"#utility.yul\":3883:3887   */\n      dup2\n        /* \"#utility.yul\":3879:3899   */\n      sub\n        /* \"#utility.yul\":3875:3876   */\n      0x00\n        /* \"#utility.yul\":3864:3873   */\n      dup4\n        /* \"#utility.yul\":3860:3877   */\n      add\n        /* \"#utility.yul\":3853:3900   */\n      mstore\n        /* \"#utility.yul\":3917:4048   */\n      tag_90\n        /* \"#utility.yul\":4043:4047   */\n      dup2\n        /* \"#utility.yul\":3917:4048   */\n      tag_47\n      jump\t// in\n    tag_90:\n        /* \"#utility.yul\":3909:4048   */\n      swap1\n      pop\n        /* \"#utility.yul\":3636:4055   */\n      swap2\n      swap1\n      pop\n      jump\t// out\n        /* \"#utility.yul\":4061:4179   */\n    tag_48:\n        /* \"#utility.yul\":4148:4172   */\n      tag_92\n        /* \"#utility.yul\":4166:4171   */\n      dup2\n        /* \"#utility.yul\":4148:4172   */\n      tag_40\n      jump\t// in\n    tag_92:\n        /* \"#utility.yul\":4143:4146   */\n      dup3\n        /* \"#utility.yul\":4136:4173   */\n      mstore\n        /* \"#utility.yul\":4061:4179   */\n      pop\n      pop\n      jump\t// out\n        /* \"#utility.yul\":4185:4262   */\n    tag_49:\n        /* \"#utility.yul\":4222:4229   */\n      0x00\n        /* \"#utility.yul\":4251:4256   */\n      dup2\n        /* \"#utility.yul\":4240:4256   */\n      swap1\n      pop\n        /* \"#utility.yul\":4185:4262   */\n      swap2\n      swap1\n      pop\n      jump\t// out\n        /* \"#utility.yul\":4268:4386   */\n    tag_50:\n        /* \"#utility.yul\":4355:4379   */\n      tag_95\n        /* \"#utility.yul\":4373:4378   */\n      dup2\n        /* \"#utility.yul\":4355:4379   */\n      tag_49\n      jump\t// in\n    tag_95:\n        /* \"#utility.yul\":4350:4353   */\n      dup3\n        /* \"#utility.yul\":4343:4380   */\n      mstore\n        /* \"#utility.yul\":4268:4386   */\n      pop\n      pop\n      jump\t// out\n        /* \"#utility.yul\":4392:4724   */\n    tag_27:\n        /* \"#utility.yul\":4513:4517   */\n      0x00\n        /* \"#utility.yul\":4551:4553   */\n      0x40\n        /* \"#utility.yul\":4540:4549   */\n      dup3\n        /* \"#utility.yul\":4536:4554   */\n      add\n        /* \"#utility.yul\":4528:4554   */\n      swap1\n      pop\n        /* \"#utility.yul\":4564:4635   */\n      tag_97\n        /* \"#utility.yul\":4632:4633   */\n      0x00\n        /* \"#utility.yul\":4621:4630   */\n      dup4\n        /* \"#utility.yul\":4617:4634   */\n      add\n        /* \"#utility.yul\":4608:4614   */\n      dup6\n        /* \"#utility.yul\":4564:4635   */\n      tag_48\n      jump\t// in\n    tag_97:\n        /* \"#utility.yul\":4645:4717   */\n      tag_98\n        /* \"#utility.yul\":4713:4715   */\n      0x20\n        /* \"#utility.yul\":4702:4711   */\n      dup4\n        /* \"#utility.yul\":4698:4716   */\n      add\n        /* \"#utility.yul\":4689:4695   */\n      dup5\n        /* \"#utility.yul\":4645:4717   */\n      tag_50\n      jump\t// in\n    tag_98:\n        /* \"#utility.yul\":4392:4724   */\n      swap4\n      swap3\n      pop\n      pop\n      pop\n      jump\t// out\n        /* \"#utility.yul\":4730:5172   */\n    tag_30:\n        /* \"#utility.yul\":4879:4883   */\n      0x00\n        /* \"#utility.yul\":4917:4919   */\n      0x60\n        /* \"#utility.yul\":4906:4915   */\n      dup3\n        /* \"#utility.yul\":4902:4920   */\n      add\n        /* \"#utility.yul\":4894:4920   */\n      swap1\n      pop\n        /* \"#utility.yul\":4930:5001   */\n      tag_100\n        /* \"#utility.yul\":4998:4999   */\n      0x00\n        /* \"#utility.yul\":4987:4996   */\n      dup4\n        /* \"#utility.yul\":4983:5000   */\n      add\n        /* \"#utility.yul\":4974:4980   */\n      dup7\n        /* \"#utility.yul\":4930:5001   */\n      tag_48\n      jump\t// in\n    tag_100:\n        /* \"#utility.yul\":5011:5083   */\n      tag_101\n        /* \"#utility.yul\":5079:5081   */\n      0x20\n        /* \"#utility.yul\":5068:5077   */\n      dup4\n        /* \"#utility.yul\":5064:5082   */\n      add\n        /* \"#utility.yul\":5055:5061   */\n      dup6\n        /* \"#utility.yul\":5011:5083   */\n      tag_48\n      jump\t// in\n    tag_101:\n        /* \"#utility.yul\":5093:5165   */\n      tag_102\n        /* \"#utility.yul\":5161:5163   */\n      0x40\n        /* \"#utility.yul\":5150:5159   */\n      dup4\n        /* \"#utility.yul\":5146:5164   */\n      add\n        /* \"#utility.yul\":5137:5143   */\n      dup5\n        /* \"#utility.yul\":5093:5165   */\n      tag_50\n      jump\t// in\n    tag_102:\n        /* \"#utility.yul\":4730:5172   */\n      swap5\n      swap4\n      pop\n      pop\n      pop\n      pop\n      jump\t// out\n\n    auxdata: 0xa26469706673582212206f105db57974ec741ae85dcb2c231d312a7fe84e12be2758642a128a9858295f64736f6c634300080d0033\n}\n",
				"bytecode": {
					"linkReferences": {},
					"object": "6080604052336000806101000a81548173ffffffffffffffffffffffffffffffffffffffff021916908373ffffffffffffffffffffffffffffffffffffffff160217905550610560806100536000396000f3fe6080604052600436106100345760003560e01c806348c981e2146100395780639d42741314610055578063c776b4df1461007e575b600080fd5b610053600480360381019061004e9190610321565b610095565b005b34801561006157600080fd5b5061007c6004803603810190610077919061038c565b610217565b005b34801561008a57600080fd5b5061009361026c565b005b60008054906101000a900473ffffffffffffffffffffffffffffffffffffffff1673ffffffffffffffffffffffffffffffffffffffff163373ffffffffffffffffffffffffffffffffffffffff1614610123576040517f08c379a000000000000000000000000000000000000000000000000000000000815260040161011a90610416565b60405180910390fd5b343373ffffffffffffffffffffffffffffffffffffffff1631101561017d576040517f08c379a000000000000000000000000000000000000000000000000000000000815260040161017490610482565b60405180910390fd5b8073ffffffffffffffffffffffffffffffffffffffff166108fc349081150290604051600060405180830381858888f193505050501580156101c3573d6000803e3d6000fd5b507fef3d45e3976629248ff5a27c6e07e8c80013b2b1f46611f16ebf46c6bf09be29333373ffffffffffffffffffffffffffffffffffffffff163160405161020c9291906104ca565b60405180910390a150565b7fbce456ac206bf5f267f4accbf956229979251e867ffc3fb45ca938fc6a27a44033828373ffffffffffffffffffffffffffffffffffffffff1631604051610261939291906104f3565b60405180910390a150565b7f96f3ab567151de7a605db2b427c0e7bd4c402b81f2d24c89b0b92687e0494c15333373ffffffffffffffffffffffffffffffffffffffff16316040516102b49291906104ca565b60405180910390a1565b600080fd5b600073ffffffffffffffffffffffffffffffffffffffff82169050919050565b60006102ee826102c3565b9050919050565b6102fe816102e3565b811461030957600080fd5b50565b60008135905061031b816102f5565b92915050565b600060208284031215610337576103366102be565b5b60006103458482850161030c565b91505092915050565b6000610359826102c3565b9050919050565b6103698161034e565b811461037457600080fd5b50565b60008135905061038681610360565b92915050565b6000602082840312156103a2576103a16102be565b5b60006103b084828501610377565b91505092915050565b600082825260208201905092915050565b7f4f6e6c79204f776e657220210000000000000000000000000000000000000000600082015250565b6000610400600c836103b9565b915061040b826103ca565b602082019050919050565b6000602082019050818103600083015261042f816103f3565b9050919050565b7f596f75722062616c616e6365206973206e6f7420656e6f756768000000000000600082015250565b600061046c601a836103b9565b915061047782610436565b602082019050919050565b6000602082019050818103600083015261049b8161045f565b9050919050565b6104ab8161034e565b82525050565b6000819050919050565b6104c4816104b1565b82525050565b60006040820190506104df60008301856104a2565b6104ec60208301846104bb565b9392505050565b600060608201905061050860008301866104a2565b61051560208301856104a2565b61052260408301846104bb565b94935050505056fea26469706673582212206f105db57974ec741ae85dcb2c231d312a7fe84e12be2758642a128a9858295f64736f6c634300080d0033",
					"opcodes": "PUSH1 0x80 PUSH1 0x40 MSTORE CALLER PUSH1 0x0 DUP1 PUSH2 0x100 EXP DUP2 SLOAD DUP2 PUSH20 0xFFFFFFFFFFFFFFFFFFFFFFFFFFFFFFFFFFFFFFFF MUL NOT AND SWAP1 DUP4 PUSH20 0xFFFFFFFFFFFFFFFFFFFFFFFFFFFFFFFFFFFFFFFF AND MUL OR SWAP1 SSTORE POP PUSH2 0x560 DUP1 PUSH2 0x53 PUSH1 0x0 CODECOPY PUSH1 0x0 RETURN INVALID PUSH1 0x80 PUSH1 0x40 MSTORE PUSH1 0x4 CALLDATASIZE LT PUSH2 0x34 JUMPI PUSH1 0x0 CALLDATALOAD PUSH1 0xE0 SHR DUP1 PUSH4 0x48C981E2 EQ PUSH2 0x39 JUMPI DUP1 PUSH4 0x9D427413 EQ PUSH2 0x55 JUMPI DUP1 PUSH4 0xC776B4DF EQ PUSH2 0x7E JUMPI JUMPDEST PUSH1 0x0 DUP1 REVERT JUMPDEST PUSH2 0x53 PUSH1 0x4 DUP1 CALLDATASIZE SUB DUP2 ADD SWAP1 PUSH2 0x4E SWAP2 SWAP1 PUSH2 0x321 JUMP JUMPDEST PUSH2 0x95 JUMP JUMPDEST STOP JUMPDEST CALLVALUE DUP1 ISZERO PUSH2 0x61 JUMPI PUSH1 0x0 DUP1 REVERT JUMPDEST POP PUSH2 0x7C PUSH1 0x4 DUP1 CALLDATASIZE SUB DUP2 ADD SWAP1 PUSH2 0x77 SWAP2 SWAP1 PUSH2 0x38C JUMP JUMPDEST PUSH2 0x217 JUMP JUMPDEST STOP JUMPDEST CALLVALUE DUP1 ISZERO PUSH2 0x8A JUMPI PUSH1 0x0 DUP1 REVERT JUMPDEST POP PUSH2 0x93 PUSH2 0x26C JUMP JUMPDEST STOP JUMPDEST PUSH1 0x0 DUP1 SLOAD SWAP1 PUSH2 0x100 EXP SWAP1 DIV PUSH20 0xFFFFFFFFFFFFFFFFFFFFFFFFFFFFFFFFFFFFFFFF AND PUSH20 0xFFFFFFFFFFFFFFFFFFFFFFFFFFFFFFFFFFFFFFFF AND CALLER PUSH20 0xFFFFFFFFFFFFFFFFFFFFFFFFFFFFFFFFFFFFFFFF AND EQ PUSH2 0x123 JUMPI PUSH1 0x40 MLOAD PUSH32 0x8C379A000000000000000000000000000000000000000000000000000000000 DUP2 MSTORE PUSH1 0x4 ADD PUSH2 0x11A SWAP1 PUSH2 0x416 JUMP JUMPDEST PUSH1 0x40 MLOAD DUP1 SWAP2 SUB SWAP1 REVERT JUMPDEST CALLVALUE CALLER PUSH20 0xFFFFFFFFFFFFFFFFFFFFFFFFFFFFFFFFFFFFFFFF AND BALANCE LT ISZERO PUSH2 0x17D JUMPI PUSH1 0x40 MLOAD PUSH32 0x8C379A000000000000000000000000000000000000000000000000000000000 DUP2 MSTORE PUSH1 0x4 ADD PUSH2 0x174 SWAP1 PUSH2 0x482 JUMP JUMPDEST PUSH1 0x40 MLOAD DUP1 SWAP2 SUB SWAP1 REVERT JUMPDEST DUP1 PUSH20 0xFFFFFFFFFFFFFFFFFFFFFFFFFFFFFFFFFFFFFFFF AND PUSH2 0x8FC CALLVALUE SWAP1 DUP2 ISZERO MUL SWAP1 PUSH1 0x40 MLOAD PUSH1 0x0 PUSH1 0x40 MLOAD DUP1 DUP4 SUB DUP2 DUP6 DUP9 DUP9 CALL SWAP4 POP POP POP POP ISZERO DUP1 ISZERO PUSH2 0x1C3 JUMPI RETURNDATASIZE PUSH1 0x0 DUP1 RETURNDATACOPY RETURNDATASIZE PUSH1 0x0 REVERT JUMPDEST POP PUSH32 0xEF3D45E3976629248FF5A27C6E07E8C80013B2B1F46611F16EBF46C6BF09BE29 CALLER CALLER PUSH20 0xFFFFFFFFFFFFFFFFFFFFFFFFFFFFFFFFFFFFFFFF AND BALANCE PUSH1 0x40 MLOAD PUSH2 0x20C SWAP3 SWAP2 SWAP1 PUSH2 0x4CA JUMP JUMPDEST PUSH1 0x40 MLOAD DUP1 SWAP2 SUB SWAP1 LOG1 POP JUMP JUMPDEST PUSH32 0xBCE456AC206BF5F267F4ACCBF956229979251E867FFC3FB45CA938FC6A27A440 CALLER DUP3 DUP4 PUSH20 0xFFFFFFFFFFFFFFFFFFFFFFFFFFFFFFFFFFFFFFFF AND BALANCE PUSH1 0x40 MLOAD PUSH2 0x261 SWAP4 SWAP3 SWAP2 SWAP1 PUSH2 0x4F3 JUMP JUMPDEST PUSH1 0x40 MLOAD DUP1 SWAP2 SUB SWAP1 LOG1 POP JUMP JUMPDEST PUSH32 0x96F3AB567151DE7A605DB2B427C0E7BD4C402B81F2D24C89B0B92687E0494C15 CALLER CALLER PUSH20 0xFFFFFFFFFFFFFFFFFFFFFFFFFFFFFFFFFFFFFFFF AND BALANCE PUSH1 0x40 MLOAD PUSH2 0x2B4 SWAP3 SWAP2 SWAP1 PUSH2 0x4CA JUMP JUMPDEST PUSH1 0x40 MLOAD DUP1 SWAP2 SUB SWAP1 LOG1 JUMP JUMPDEST PUSH1 0x0 DUP1 REVERT JUMPDEST PUSH1 0x0 PUSH20 0xFFFFFFFFFFFFFFFFFFFFFFFFFFFFFFFFFFFFFFFF DUP3 AND SWAP1 POP SWAP2 SWAP1 POP JUMP JUMPDEST PUSH1 0x0 PUSH2 0x2EE DUP3 PUSH2 0x2C3 JUMP JUMPDEST SWAP1 POP SWAP2 SWAP1 POP JUMP JUMPDEST PUSH2 0x2FE DUP2 PUSH2 0x2E3 JUMP JUMPDEST DUP2 EQ PUSH2 0x309 JUMPI PUSH1 0x0 DUP1 REVERT JUMPDEST POP JUMP JUMPDEST PUSH1 0x0 DUP2 CALLDATALOAD SWAP1 POP PUSH2 0x31B DUP2 PUSH2 0x2F5 JUMP JUMPDEST SWAP3 SWAP2 POP POP JUMP JUMPDEST PUSH1 0x0 PUSH1 0x20 DUP3 DUP5 SUB SLT ISZERO PUSH2 0x337 JUMPI PUSH2 0x336 PUSH2 0x2BE JUMP JUMPDEST JUMPDEST PUSH1 0x0 PUSH2 0x345 DUP5 DUP3 DUP6 ADD PUSH2 0x30C JUMP JUMPDEST SWAP2 POP POP SWAP3 SWAP2 POP POP JUMP JUMPDEST PUSH1 0x0 PUSH2 0x359 DUP3 PUSH2 0x2C3 JUMP JUMPDEST SWAP1 POP SWAP2 SWAP1 POP JUMP JUMPDEST PUSH2 0x369 DUP2 PUSH2 0x34E JUMP JUMPDEST DUP2 EQ PUSH2 0x374 JUMPI PUSH1 0x0 DUP1 REVERT JUMPDEST POP JUMP JUMPDEST PUSH1 0x0 DUP2 CALLDATALOAD SWAP1 POP PUSH2 0x386 DUP2 PUSH2 0x360 JUMP JUMPDEST SWAP3 SWAP2 POP POP JUMP JUMPDEST PUSH1 0x0 PUSH1 0x20 DUP3 DUP5 SUB SLT ISZERO PUSH2 0x3A2 JUMPI PUSH2 0x3A1 PUSH2 0x2BE JUMP JUMPDEST JUMPDEST PUSH1 0x0 PUSH2 0x3B0 DUP5 DUP3 DUP6 ADD PUSH2 0x377 JUMP JUMPDEST SWAP2 POP POP SWAP3 SWAP2 POP POP JUMP JUMPDEST PUSH1 0x0 DUP3 DUP3 MSTORE PUSH1 0x20 DUP3 ADD SWAP1 POP SWAP3 SWAP2 POP POP JUMP JUMPDEST PUSH32 0x4F6E6C79204F776E657220210000000000000000000000000000000000000000 PUSH1 0x0 DUP3 ADD MSTORE POP JUMP JUMPDEST PUSH1 0x0 PUSH2 0x400 PUSH1 0xC DUP4 PUSH2 0x3B9 JUMP JUMPDEST SWAP2 POP PUSH2 0x40B DUP3 PUSH2 0x3CA JUMP JUMPDEST PUSH1 0x20 DUP3 ADD SWAP1 POP SWAP2 SWAP1 POP JUMP JUMPDEST PUSH1 0x0 PUSH1 0x20 DUP3 ADD SWAP1 POP DUP2 DUP2 SUB PUSH1 0x0 DUP4 ADD MSTORE PUSH2 0x42F DUP2 PUSH2 0x3F3 JUMP JUMPDEST SWAP1 POP SWAP2 SWAP1 POP JUMP JUMPDEST PUSH32 0x596F75722062616C616E6365206973206E6F7420656E6F756768000000000000 PUSH1 0x0 DUP3 ADD MSTORE POP JUMP JUMPDEST PUSH1 0x0 PUSH2 0x46C PUSH1 0x1A DUP4 PUSH2 0x3B9 JUMP JUMPDEST SWAP2 POP PUSH2 0x477 DUP3 PUSH2 0x436 JUMP JUMPDEST PUSH1 0x20 DUP3 ADD SWAP1 POP SWAP2 SWAP1 POP JUMP JUMPDEST PUSH1 0x0 PUSH1 0x20 DUP3 ADD SWAP1 POP DUP2 DUP2 SUB PUSH1 0x0 DUP4 ADD MSTORE PUSH2 0x49B DUP2 PUSH2 0x45F JUMP JUMPDEST SWAP1 POP SWAP2 SWAP1 POP JUMP JUMPDEST PUSH2 0x4AB DUP2 PUSH2 0x34E JUMP JUMPDEST DUP3 MSTORE POP POP JUMP JUMPDEST PUSH1 0x0 DUP2 SWAP1 POP SWAP2 SWAP1 POP JUMP JUMPDEST PUSH2 0x4C4 DUP2 PUSH2 0x4B1 JUMP JUMPDEST DUP3 MSTORE POP POP JUMP JUMPDEST PUSH1 0x0 PUSH1 0x40 DUP3 ADD SWAP1 POP PUSH2 0x4DF PUSH1 0x0 DUP4 ADD DUP6 PUSH2 0x4A2 JUMP JUMPDEST PUSH2 0x4EC PUSH1 0x20 DUP4 ADD DUP5 PUSH2 0x4BB JUMP JUMPDEST SWAP4 SWAP3 POP POP POP JUMP JUMPDEST PUSH1 0x0 PUSH1 0x60 DUP3 ADD SWAP1 POP PUSH2 0x508 PUSH1 0x0 DUP4 ADD DUP7 PUSH2 0x4A2 JUMP JUMPDEST PUSH2 0x515 PUSH1 0x20 DUP4 ADD DUP6 PUSH2 0x4A2 JUMP JUMPDEST PUSH2 0x522 PUSH1 0x40 DUP4 ADD DUP5 PUSH2 0x4BB JUMP JUMPDEST SWAP5 SWAP4 POP POP POP POP JUMP INVALID LOG2 PUSH5 0x6970667358 0x22 SLT KECCAK256 PUSH16 0x105DB57974EC741AE85DCB2C231D312A PUSH32 0xE84E12BE2758642A128A9858295F64736F6C634300080D003300000000000000 "
				},
				"gasEstimates": {
					"creation": {
						"codeDepositCost": "275200",
						"executionCost": "24554",
						"totalCost": "299754"
					},
					"external": {
						"checkUserMoney(address)": "infinite",
						"checkValueNow()": "4369",
						"sendEther(address)": "infinite"
					}
				},
				"methodIdentifiers": {
					"checkUserMoney(address)": "9d427413",
					"checkValueNow()": "c776b4df",
					"sendEther(address)": "48c981e2"
				}
			},
			"userdoc": {
				"kind": "user",
				"methods": {},
				"version": 1
			}
		}
	}
}