{
	"lecture/payable.sol": {
		"payableC": {
			"abi": [
				{
					"anonymous": false,
					"inputs": [
						{
							"indexed": false,
							"internalType": "uint256",
							"name": "_value",
							"type": "uint256"
						}
					],
					"name": "howMuch",
					"type": "event"
				},
				{
					"inputs": [
						{
							"internalType": "address payable",
							"name": "_to",
							"type": "address"
						}
					],
					"name": "callNow",
					"outputs": [],
					"stateMutability": "payable",
					"type": "function"
				},
				{
					"inputs": [
						{
							"internalType": "address payable",
							"name": "_to",
							"type": "address"
						}
					],
					"name": "sendNow",
					"outputs": [],
					"stateMutability": "payable",
					"type": "function"
				},
				{
					"inputs": [
						{
							"internalType": "address payable",
							"name": "_to",
							"type": "address"
						}
					],
					"name": "transferNow",
					"outputs": [],
					"stateMutability": "payable",
					"type": "function"
				}
			],
			"devdoc": {
				"kind": "dev",
				"methods": {},
				"version": 1
			},
			"evm": {
				"assembly": "    /* \"lecture/payable.sol\":1094:2138  contract payableC {... */\n  mstore(0x40, 0x80)\n  callvalue\n  dup1\n  iszero\n  tag_1\n  jumpi\n  0x00\n  dup1\n  revert\ntag_1:\n  pop\n  dataSize(sub_0)\n  dup1\n  dataOffset(sub_0)\n  0x00\n  codecopy\n  0x00\n  return\nstop\n\nsub_0: assembly {\n        /* \"lecture/payable.sol\":1094:2138  contract payableC {... */\n      mstore(0x40, 0x80)\n      jumpi(tag_1, lt(calldatasize, 0x04))\n      shr(0xe0, calldataload(0x00))\n      dup1\n      0x0b1fa23f\n      eq\n      tag_2\n      jumpi\n      dup1\n      0x56a967b4\n      eq\n      tag_3\n      jumpi\n      dup1\n      0x75a4624d\n      eq\n      tag_4\n      jumpi\n    tag_1:\n      0x00\n      dup1\n      revert\n        /* \"lecture/payable.sol\":1389:1597  function sendNow(address payable _to) public payable{... */\n    tag_2:\n      tag_5\n      0x04\n      dup1\n      calldatasize\n      sub\n      dup2\n      add\n      swap1\n      tag_6\n      swap2\n      swap1\n      tag_7\n      jump\t// in\n    tag_6:\n      tag_8\n      jump\t// in\n    tag_5:\n      stop\n        /* \"lecture/payable.sol\":1609:1741  function transferNow(address payable _to) public payable{... */\n    tag_3:\n      tag_9\n      0x04\n      dup1\n      calldatasize\n      sub\n      dup2\n      add\n      swap1\n      tag_10\n      swap2\n      swap1\n      tag_7\n      jump\t// in\n    tag_10:\n      tag_11\n      jump\t// in\n    tag_9:\n      stop\n        /* \"lecture/payable.sol\":1749:2135  function callNow (address payable _to) public payable{... */\n    tag_4:\n      tag_12\n      0x04\n      dup1\n      calldatasize\n      sub\n      dup2\n      add\n      swap1\n      tag_13\n      swap2\n      swap1\n      tag_7\n      jump\t// in\n    tag_13:\n      tag_14\n      jump\t// in\n    tag_12:\n      stop\n        /* \"lecture/payable.sol\":1389:1597  function sendNow(address payable _to) public payable{... */\n    tag_8:\n        /* \"lecture/payable.sol\":1452:1461  bool sent */\n      0x00\n        /* \"lecture/payable.sol\":1464:1467  _to */\n      dup2\n        /* \"lecture/payable.sol\":1464:1472  _to.send */\n      0xffffffffffffffffffffffffffffffffffffffff\n      and\n        /* \"lecture/payable.sol\":1464:1483  _to.send(msg.value) */\n      0x08fc\n        /* \"lecture/payable.sol\":1473:1482  msg.value */\n      callvalue\n        /* \"lecture/payable.sol\":1464:1483  _to.send(msg.value) */\n      swap1\n      dup2\n      iszero\n      mul\n      swap1\n      mload(0x40)\n      0x00\n      mload(0x40)\n      dup1\n      dup4\n      sub\n      dup2\n      dup6\n      dup9\n      dup9\n      call\n      swap4\n      pop\n      pop\n      pop\n      pop\n        /* \"lecture/payable.sol\":1452:1483  bool sent = _to.send(msg.value) */\n      swap1\n      pop\n        /* \"lecture/payable.sol\":1526:1530  sent */\n      dup1\n        /* \"lecture/payable.sol\":1518:1555  require(sent,\"Failed to send either\") */\n      tag_17\n      jumpi\n      mload(0x40)\n      0x08c379a000000000000000000000000000000000000000000000000000000000\n      dup2\n      mstore\n      0x04\n      add\n      tag_18\n      swap1\n      tag_19\n      jump\t// in\n    tag_18:\n      mload(0x40)\n      dup1\n      swap2\n      sub\n      swap1\n      revert\n    tag_17:\n        /* \"lecture/payable.sol\":1571:1589  howMuch(msg.value) */\n      0xe4f740571b79610deff27ca80ef3046de224a7fc42e82177a0d9919cd5b7a8d9\n        /* \"lecture/payable.sol\":1579:1588  msg.value */\n      callvalue\n        /* \"lecture/payable.sol\":1571:1589  howMuch(msg.value) */\n      mload(0x40)\n      tag_20\n      swap2\n      swap1\n      tag_21\n      jump\t// in\n    tag_20:\n      mload(0x40)\n      dup1\n      swap2\n      sub\n      swap1\n      log1\n        /* \"lecture/payable.sol\":1441:1597  {... */\n      pop\n        /* \"lecture/payable.sol\":1389:1597  function sendNow(address payable _to) public payable{... */\n      pop\n      jump\t// out\n        /* \"lecture/payable.sol\":1609:1741  function transferNow(address payable _to) public payable{... */\n    tag_11:\n        /* \"lecture/payable.sol\":1676:1679  _to */\n      dup1\n        /* \"lecture/payable.sol\":1676:1688  _to.transfer */\n      0xffffffffffffffffffffffffffffffffffffffff\n      and\n        /* \"lecture/payable.sol\":1676:1699  _to.transfer(msg.value) */\n      0x08fc\n        /* \"lecture/payable.sol\":1689:1698  msg.value */\n      callvalue\n        /* \"lecture/payable.sol\":1676:1699  _to.transfer(msg.value) */\n      swap1\n      dup2\n      iszero\n      mul\n      swap1\n      mload(0x40)\n      0x00\n      mload(0x40)\n      dup1\n      dup4\n      sub\n      dup2\n      dup6\n      dup9\n      dup9\n      call\n      swap4\n      pop\n      pop\n      pop\n      pop\n      iszero\n      dup1\n      iszero\n      tag_24\n      jumpi\n      returndatasize\n      0x00\n      dup1\n      returndatacopy\n      revert(0x00, returndatasize)\n    tag_24:\n      pop\n        /* \"lecture/payable.sol\":1715:1733  howMuch(msg.value) */\n      0xe4f740571b79610deff27ca80ef3046de224a7fc42e82177a0d9919cd5b7a8d9\n        /* \"lecture/payable.sol\":1723:1732  msg.value */\n      callvalue\n        /* \"lecture/payable.sol\":1715:1733  howMuch(msg.value) */\n      mload(0x40)\n      tag_25\n      swap2\n      swap1\n      tag_21\n      jump\t// in\n    tag_25:\n      mload(0x40)\n      dup1\n      swap2\n      sub\n      swap1\n      log1\n        /* \"lecture/payable.sol\":1609:1741  function transferNow(address payable _to) public payable{... */\n      pop\n      jump\t// out\n        /* \"lecture/payable.sol\":1749:2135  function callNow (address payable _to) public payable{... */\n    tag_14:\n        /* \"lecture/payable.sol\":1979:1988  bool sent */\n      0x00\n        /* \"lecture/payable.sol\":1994:1997  _to */\n      dup2\n        /* \"lecture/payable.sol\":1994:2002  _to.call */\n      0xffffffffffffffffffffffffffffffffffffffff\n      and\n        /* \"lecture/payable.sol\":2010:2019  msg.value */\n      callvalue\n        /* \"lecture/payable.sol\":2026:2030  1000 */\n      0x03e8\n        /* \"lecture/payable.sol\":1994:2035  _to.call{value: msg.value , gas:1000}(\"\") */\n      swap1\n      mload(0x40)\n      tag_27\n      swap1\n      tag_28\n      jump\t// in\n    tag_27:\n      0x00\n      mload(0x40)\n      dup1\n      dup4\n      sub\n      dup2\n      dup6\n      dup9\n      dup9\n      call\n      swap4\n      pop\n      pop\n      pop\n      pop\n      returndatasize\n      dup1\n      0x00\n      dup2\n      eq\n      tag_31\n      jumpi\n      mload(0x40)\n      swap2\n      pop\n      and(add(returndatasize, 0x3f), not(0x1f))\n      dup3\n      add\n      0x40\n      mstore\n      returndatasize\n      dup3\n      mstore\n      returndatasize\n      0x00\n      0x20\n      dup5\n      add\n      returndatacopy\n      jump(tag_30)\n    tag_31:\n      0x60\n      swap2\n      pop\n    tag_30:\n      pop\n        /* \"lecture/payable.sol\":1978:2035  (bool sent, ) = _to.call{value: msg.value , gas:1000}(\"\") */\n      pop\n      swap1\n      pop\n        /* \"lecture/payable.sol\":2054:2058  sent */\n      dup1\n        /* \"lecture/payable.sol\":2046:2083  require(sent, \"Failed to send Ether\") */\n      tag_32\n      jumpi\n      mload(0x40)\n      0x08c379a000000000000000000000000000000000000000000000000000000000\n      dup2\n      mstore\n      0x04\n      add\n      tag_33\n      swap1\n      tag_34\n      jump\t// in\n    tag_33:\n      mload(0x40)\n      dup1\n      swap2\n      sub\n      swap1\n      revert\n    tag_32:\n        /* \"lecture/payable.sol\":2099:2117  howMuch(msg.value) */\n      0xe4f740571b79610deff27ca80ef3046de224a7fc42e82177a0d9919cd5b7a8d9\n        /* \"lecture/payable.sol\":2107:2116  msg.value */\n      callvalue\n        /* \"lecture/payable.sol\":2099:2117  howMuch(msg.value) */\n      mload(0x40)\n      tag_35\n      swap2\n      swap1\n      tag_21\n      jump\t// in\n    tag_35:\n      mload(0x40)\n      dup1\n      swap2\n      sub\n      swap1\n      log1\n        /* \"lecture/payable.sol\":1802:2135  {... */\n      pop\n        /* \"lecture/payable.sol\":1749:2135  function callNow (address payable _to) public payable{... */\n      pop\n      jump\t// out\n        /* \"#utility.yul\":88:205   */\n    tag_37:\n        /* \"#utility.yul\":197:198   */\n      0x00\n        /* \"#utility.yul\":194:195   */\n      dup1\n        /* \"#utility.yul\":187:199   */\n      revert\n        /* \"#utility.yul\":334:460   */\n    tag_39:\n        /* \"#utility.yul\":371:378   */\n      0x00\n        /* \"#utility.yul\":411:453   */\n      0xffffffffffffffffffffffffffffffffffffffff\n        /* \"#utility.yul\":404:409   */\n      dup3\n        /* \"#utility.yul\":400:454   */\n      and\n        /* \"#utility.yul\":389:454   */\n      swap1\n      pop\n        /* \"#utility.yul\":334:460   */\n      swap2\n      swap1\n      pop\n      jump\t// out\n        /* \"#utility.yul\":466:570   */\n    tag_40:\n        /* \"#utility.yul\":511:518   */\n      0x00\n        /* \"#utility.yul\":540:564   */\n      tag_59\n        /* \"#utility.yul\":558:563   */\n      dup3\n        /* \"#utility.yul\":540:564   */\n      tag_39\n      jump\t// in\n    tag_59:\n        /* \"#utility.yul\":529:564   */\n      swap1\n      pop\n        /* \"#utility.yul\":466:570   */\n      swap2\n      swap1\n      pop\n      jump\t// out\n        /* \"#utility.yul\":576:714   */\n    tag_41:\n        /* \"#utility.yul\":657:689   */\n      tag_61\n        /* \"#utility.yul\":683:688   */\n      dup2\n        /* \"#utility.yul\":657:689   */\n      tag_40\n      jump\t// in\n    tag_61:\n        /* \"#utility.yul\":650:655   */\n      dup2\n        /* \"#utility.yul\":647:690   */\n      eq\n        /* \"#utility.yul\":637:708   */\n      tag_62\n      jumpi\n        /* \"#utility.yul\":704:705   */\n      0x00\n        /* \"#utility.yul\":701:702   */\n      dup1\n        /* \"#utility.yul\":694:706   */\n      revert\n        /* \"#utility.yul\":637:708   */\n    tag_62:\n        /* \"#utility.yul\":576:714   */\n      pop\n      jump\t// out\n        /* \"#utility.yul\":720:875   */\n    tag_42:\n        /* \"#utility.yul\":774:779   */\n      0x00\n        /* \"#utility.yul\":812:818   */\n      dup2\n        /* \"#utility.yul\":799:819   */\n      calldataload\n        /* \"#utility.yul\":790:819   */\n      swap1\n      pop\n        /* \"#utility.yul\":828:869   */\n      tag_64\n        /* \"#utility.yul\":863:868   */\n      dup2\n        /* \"#utility.yul\":828:869   */\n      tag_41\n      jump\t// in\n    tag_64:\n        /* \"#utility.yul\":720:875   */\n      swap3\n      swap2\n      pop\n      pop\n      jump\t// out\n        /* \"#utility.yul\":881:1226   */\n    tag_7:\n        /* \"#utility.yul\":948:954   */\n      0x00\n        /* \"#utility.yul\":997:999   */\n      0x20\n        /* \"#utility.yul\":985:994   */\n      dup3\n        /* \"#utility.yul\":976:983   */\n      dup5\n        /* \"#utility.yul\":972:995   */\n      sub\n        /* \"#utility.yul\":968:1000   */\n      slt\n        /* \"#utility.yul\":965:1084   */\n      iszero\n      tag_66\n      jumpi\n        /* \"#utility.yul\":1003:1082   */\n      tag_67\n      tag_37\n      jump\t// in\n    tag_67:\n        /* \"#utility.yul\":965:1084   */\n    tag_66:\n        /* \"#utility.yul\":1123:1124   */\n      0x00\n        /* \"#utility.yul\":1148:1209   */\n      tag_68\n        /* \"#utility.yul\":1201:1208   */\n      dup5\n        /* \"#utility.yul\":1192:1198   */\n      dup3\n        /* \"#utility.yul\":1181:1190   */\n      dup6\n        /* \"#utility.yul\":1177:1199   */\n      add\n        /* \"#utility.yul\":1148:1209   */\n      tag_42\n      jump\t// in\n    tag_68:\n        /* \"#utility.yul\":1138:1209   */\n      swap2\n      pop\n        /* \"#utility.yul\":1094:1219   */\n      pop\n        /* \"#utility.yul\":881:1226   */\n      swap3\n      swap2\n      pop\n      pop\n      jump\t// out\n        /* \"#utility.yul\":1232:1401   */\n    tag_43:\n        /* \"#utility.yul\":1316:1327   */\n      0x00\n        /* \"#utility.yul\":1350:1356   */\n      dup3\n        /* \"#utility.yul\":1345:1348   */\n      dup3\n        /* \"#utility.yul\":1338:1357   */\n      mstore\n        /* \"#utility.yul\":1390:1394   */\n      0x20\n        /* \"#utility.yul\":1385:1388   */\n      dup3\n        /* \"#utility.yul\":1381:1395   */\n      add\n        /* \"#utility.yul\":1366:1395   */\n      swap1\n      pop\n        /* \"#utility.yul\":1232:1401   */\n      swap3\n      swap2\n      pop\n      pop\n      jump\t// out\n        /* \"#utility.yul\":1407:1578   */\n    tag_44:\n        /* \"#utility.yul\":1547:1570   */\n      0x4661696c656420746f2073656e64206569746865720000000000000000000000\n        /* \"#utility.yul\":1543:1544   */\n      0x00\n        /* \"#utility.yul\":1535:1541   */\n      dup3\n        /* \"#utility.yul\":1531:1545   */\n      add\n        /* \"#utility.yul\":1524:1571   */\n      mstore\n        /* \"#utility.yul\":1407:1578   */\n      pop\n      jump\t// out\n        /* \"#utility.yul\":1584:1950   */\n    tag_45:\n        /* \"#utility.yul\":1726:1729   */\n      0x00\n        /* \"#utility.yul\":1747:1814   */\n      tag_72\n        /* \"#utility.yul\":1811:1813   */\n      0x15\n        /* \"#utility.yul\":1806:1809   */\n      dup4\n        /* \"#utility.yul\":1747:1814   */\n      tag_43\n      jump\t// in\n    tag_72:\n        /* \"#utility.yul\":1740:1814   */\n      swap2\n      pop\n        /* \"#utility.yul\":1823:1916   */\n      tag_73\n        /* \"#utility.yul\":1912:1915   */\n      dup3\n        /* \"#utility.yul\":1823:1916   */\n      tag_44\n      jump\t// in\n    tag_73:\n        /* \"#utility.yul\":1941:1943   */\n      0x20\n        /* \"#utility.yul\":1936:1939   */\n      dup3\n        /* \"#utility.yul\":1932:1944   */\n      add\n        /* \"#utility.yul\":1925:1944   */\n      swap1\n      pop\n        /* \"#utility.yul\":1584:1950   */\n      swap2\n      swap1\n      pop\n      jump\t// out\n        /* \"#utility.yul\":1956:2375   */\n    tag_19:\n        /* \"#utility.yul\":2122:2126   */\n      0x00\n        /* \"#utility.yul\":2160:2162   */\n      0x20\n        /* \"#utility.yul\":2149:2158   */\n      dup3\n        /* \"#utility.yul\":2145:2163   */\n      add\n        /* \"#utility.yul\":2137:2163   */\n      swap1\n      pop\n        /* \"#utility.yul\":2209:2218   */\n      dup2\n        /* \"#utility.yul\":2203:2207   */\n      dup2\n        /* \"#utility.yul\":2199:2219   */\n      sub\n        /* \"#utility.yul\":2195:2196   */\n      0x00\n        /* \"#utility.yul\":2184:2193   */\n      dup4\n        /* \"#utility.yul\":2180:2197   */\n      add\n        /* \"#utility.yul\":2173:2220   */\n      mstore\n        /* \"#utility.yul\":2237:2368   */\n      tag_75\n        /* \"#utility.yul\":2363:2367   */\n      dup2\n        /* \"#utility.yul\":2237:2368   */\n      tag_45\n      jump\t// in\n    tag_75:\n        /* \"#utility.yul\":2229:2368   */\n      swap1\n      pop\n        /* \"#utility.yul\":1956:2375   */\n      swap2\n      swap1\n      pop\n      jump\t// out\n        /* \"#utility.yul\":2381:2458   */\n    tag_46:\n        /* \"#utility.yul\":2418:2425   */\n      0x00\n        /* \"#utility.yul\":2447:2452   */\n      dup2\n        /* \"#utility.yul\":2436:2452   */\n      swap1\n      pop\n        /* \"#utility.yul\":2381:2458   */\n      swap2\n      swap1\n      pop\n      jump\t// out\n        /* \"#utility.yul\":2464:2582   */\n    tag_47:\n        /* \"#utility.yul\":2551:2575   */\n      tag_78\n        /* \"#utility.yul\":2569:2574   */\n      dup2\n        /* \"#utility.yul\":2551:2575   */\n      tag_46\n      jump\t// in\n    tag_78:\n        /* \"#utility.yul\":2546:2549   */\n      dup3\n        /* \"#utility.yul\":2539:2576   */\n      mstore\n        /* \"#utility.yul\":2464:2582   */\n      pop\n      pop\n      jump\t// out\n        /* \"#utility.yul\":2588:2810   */\n    tag_21:\n        /* \"#utility.yul\":2681:2685   */\n      0x00\n        /* \"#utility.yul\":2719:2721   */\n      0x20\n        /* \"#utility.yul\":2708:2717   */\n      dup3\n        /* \"#utility.yul\":2704:2722   */\n      add\n        /* \"#utility.yul\":2696:2722   */\n      swap1\n      pop\n        /* \"#utility.yul\":2732:2803   */\n      tag_80\n        /* \"#utility.yul\":2800:2801   */\n      0x00\n        /* \"#utility.yul\":2789:2798   */\n      dup4\n        /* \"#utility.yul\":2785:2802   */\n      add\n        /* \"#utility.yul\":2776:2782   */\n      dup5\n        /* \"#utility.yul\":2732:2803   */\n      tag_47\n      jump\t// in\n    tag_80:\n        /* \"#utility.yul\":2588:2810   */\n      swap3\n      swap2\n      pop\n      pop\n      jump\t// out\n        /* \"#utility.yul\":2816:2963   */\n    tag_48:\n        /* \"#utility.yul\":2917:2928   */\n      0x00\n        /* \"#utility.yul\":2954:2957   */\n      dup2\n        /* \"#utility.yul\":2939:2957   */\n      swap1\n      pop\n        /* \"#utility.yul\":2816:2963   */\n      swap3\n      swap2\n      pop\n      pop\n      jump\t// out\n        /* \"#utility.yul\":2969:3083   */\n    tag_49:\n      pop\n      jump\t// out\n        /* \"#utility.yul\":3089:3487   */\n    tag_50:\n        /* \"#utility.yul\":3248:3251   */\n      0x00\n        /* \"#utility.yul\":3269:3352   */\n      tag_84\n        /* \"#utility.yul\":3350:3351   */\n      0x00\n        /* \"#utility.yul\":3345:3348   */\n      dup4\n        /* \"#utility.yul\":3269:3352   */\n      tag_48\n      jump\t// in\n    tag_84:\n        /* \"#utility.yul\":3262:3352   */\n      swap2\n      pop\n        /* \"#utility.yul\":3361:3454   */\n      tag_85\n        /* \"#utility.yul\":3450:3453   */\n      dup3\n        /* \"#utility.yul\":3361:3454   */\n      tag_49\n      jump\t// in\n    tag_85:\n        /* \"#utility.yul\":3479:3480   */\n      0x00\n        /* \"#utility.yul\":3474:3477   */\n      dup3\n        /* \"#utility.yul\":3470:3481   */\n      add\n        /* \"#utility.yul\":3463:3481   */\n      swap1\n      pop\n        /* \"#utility.yul\":3089:3487   */\n      swap2\n      swap1\n      pop\n      jump\t// out\n        /* \"#utility.yul\":3493:3872   */\n    tag_28:\n        /* \"#utility.yul\":3677:3680   */\n      0x00\n        /* \"#utility.yul\":3699:3846   */\n      tag_87\n        /* \"#utility.yul\":3842:3845   */\n      dup3\n        /* \"#utility.yul\":3699:3846   */\n      tag_50\n      jump\t// in\n    tag_87:\n        /* \"#utility.yul\":3692:3846   */\n      swap2\n      pop\n        /* \"#utility.yul\":3863:3866   */\n      dup2\n        /* \"#utility.yul\":3856:3866   */\n      swap1\n      pop\n        /* \"#utility.yul\":3493:3872   */\n      swap2\n      swap1\n      pop\n      jump\t// out\n        /* \"#utility.yul\":3878:4048   */\n    tag_51:\n        /* \"#utility.yul\":4018:4040   */\n      0x4661696c656420746f2073656e64204574686572000000000000000000000000\n        /* \"#utility.yul\":4014:4015   */\n      0x00\n        /* \"#utility.yul\":4006:4012   */\n      dup3\n        /* \"#utility.yul\":4002:4016   */\n      add\n        /* \"#utility.yul\":3995:4041   */\n      mstore\n        /* \"#utility.yul\":3878:4048   */\n      pop\n      jump\t// out\n        /* \"#utility.yul\":4054:4420   */\n    tag_52:\n        /* \"#utility.yul\":4196:4199   */\n      0x00\n        /* \"#utility.yul\":4217:4284   */\n      tag_90\n        /* \"#utility.yul\":4281:4283   */\n      0x14\n        /* \"#utility.yul\":4276:4279   */\n      dup4\n        /* \"#utility.yul\":4217:4284   */\n      tag_43\n      jump\t// in\n    tag_90:\n        /* \"#utility.yul\":4210:4284   */\n      swap2\n      pop\n        /* \"#utility.yul\":4293:4386   */\n      tag_91\n        /* \"#utility.yul\":4382:4385   */\n      dup3\n        /* \"#utility.yul\":4293:4386   */\n      tag_51\n      jump\t// in\n    tag_91:\n        /* \"#utility.yul\":4411:4413   */\n      0x20\n        /* \"#utility.yul\":4406:4409   */\n      dup3\n        /* \"#utility.yul\":4402:4414   */\n      add\n        /* \"#utility.yul\":4395:4414   */\n      swap1\n      pop\n        /* \"#utility.yul\":4054:4420   */\n      swap2\n      swap1\n      pop\n      jump\t// out\n        /* \"#utility.yul\":4426:4845   */\n    tag_34:\n        /* \"#utility.yul\":4592:4596   */\n      0x00\n        /* \"#utility.yul\":4630:4632   */\n      0x20\n        /* \"#utility.yul\":4619:4628   */\n      dup3\n        /* \"#utility.yul\":4615:4633   */\n      add\n        /* \"#utility.yul\":4607:4633   */\n      swap1\n      pop\n        /* \"#utility.yul\":4679:4688   */\n      dup2\n        /* \"#utility.yul\":4673:4677   */\n      dup2\n        /* \"#utility.yul\":4669:4689   */\n      sub\n        /* \"#utility.yul\":4665:4666   */\n      0x00\n        /* \"#utility.yul\":4654:4663   */\n      dup4\n        /* \"#utility.yul\":4650:4667   */\n      add\n        /* \"#utility.yul\":4643:4690   */\n      mstore\n        /* \"#utility.yul\":4707:4838   */\n      tag_93\n        /* \"#utility.yul\":4833:4837   */\n      dup2\n        /* \"#utility.yul\":4707:4838   */\n      tag_52\n      jump\t// in\n    tag_93:\n        /* \"#utility.yul\":4699:4838   */\n      swap1\n      pop\n        /* \"#utility.yul\":4426:4845   */\n      swap2\n      swap1\n      pop\n      jump\t// out\n\n    auxdata: 0xa264697066735822122018d9132820dd80712a72ad2ea87ed495a379363bb34febe46e272d2d01635ed964736f6c634300080d0033\n}\n",
				"bytecode": {
					"linkReferences": {},
					"object": "608060405234801561001057600080fd5b506104d7806100206000396000f3fe6080604052600436106100345760003560e01c80630b1fa23f1461003957806356a967b41461005557806375a4624d14610071575b600080fd5b610053600480360381019061004e9190610311565b61008d565b005b61006f600480360381019061006a9190610311565b610141565b005b61008b60048036038101906100869190610311565b6101c2565b005b60008173ffffffffffffffffffffffffffffffffffffffff166108fc349081150290604051600060405180830381858888f19350505050905080610106576040517f08c379a00000000000000000000000000000000000000000000000000000000081526004016100fd9061039b565b60405180910390fd5b7fe4f740571b79610deff27ca80ef3046de224a7fc42e82177a0d9919cd5b7a8d93460405161013591906103d4565b60405180910390a15050565b8073ffffffffffffffffffffffffffffffffffffffff166108fc349081150290604051600060405180830381858888f19350505050158015610187573d6000803e3d6000fd5b507fe4f740571b79610deff27ca80ef3046de224a7fc42e82177a0d9919cd5b7a8d9346040516101b791906103d4565b60405180910390a150565b60008173ffffffffffffffffffffffffffffffffffffffff16346103e8906040516101ec90610420565b600060405180830381858888f193505050503d806000811461022a576040519150601f19603f3d011682016040523d82523d6000602084013e61022f565b606091505b5050905080610273576040517f08c379a000000000000000000000000000000000000000000000000000000000815260040161026a90610481565b60405180910390fd5b7fe4f740571b79610deff27ca80ef3046de224a7fc42e82177a0d9919cd5b7a8d9346040516102a291906103d4565b60405180910390a15050565b600080fd5b600073ffffffffffffffffffffffffffffffffffffffff82169050919050565b60006102de826102b3565b9050919050565b6102ee816102d3565b81146102f957600080fd5b50565b60008135905061030b816102e5565b92915050565b600060208284031215610327576103266102ae565b5b6000610335848285016102fc565b91505092915050565b600082825260208201905092915050565b7f4661696c656420746f2073656e64206569746865720000000000000000000000600082015250565b600061038560158361033e565b91506103908261034f565b602082019050919050565b600060208201905081810360008301526103b481610378565b9050919050565b6000819050919050565b6103ce816103bb565b82525050565b60006020820190506103e960008301846103c5565b92915050565b600081905092915050565b50565b600061040a6000836103ef565b9150610415826103fa565b600082019050919050565b600061042b826103fd565b9150819050919050565b7f4661696c656420746f2073656e64204574686572000000000000000000000000600082015250565b600061046b60148361033e565b915061047682610435565b602082019050919050565b6000602082019050818103600083015261049a8161045e565b905091905056fea264697066735822122018d9132820dd80712a72ad2ea87ed495a379363bb34febe46e272d2d01635ed964736f6c634300080d0033",
					"opcodes": "PUSH1 0x80 PUSH1 0x40 MSTORE CALLVALUE DUP1 ISZERO PUSH2 0x10 JUMPI PUSH1 0x0 DUP1 REVERT JUMPDEST POP PUSH2 0x4D7 DUP1 PUSH2 0x20 PUSH1 0x0 CODECOPY PUSH1 0x0 RETURN INVALID PUSH1 0x80 PUSH1 0x40 MSTORE PUSH1 0x4 CALLDATASIZE LT PUSH2 0x34 JUMPI PUSH1 0x0 CALLDATALOAD PUSH1 0xE0 SHR DUP1 PUSH4 0xB1FA23F EQ PUSH2 0x39 JUMPI DUP1 PUSH4 0x56A967B4 EQ PUSH2 0x55 JUMPI DUP1 PUSH4 0x75A4624D EQ PUSH2 0x71 JUMPI JUMPDEST PUSH1 0x0 DUP1 REVERT JUMPDEST PUSH2 0x53 PUSH1 0x4 DUP1 CALLDATASIZE SUB DUP2 ADD SWAP1 PUSH2 0x4E SWAP2 SWAP1 PUSH2 0x311 JUMP JUMPDEST PUSH2 0x8D JUMP JUMPDEST STOP JUMPDEST PUSH2 0x6F PUSH1 0x4 DUP1 CALLDATASIZE SUB DUP2 ADD SWAP1 PUSH2 0x6A SWAP2 SWAP1 PUSH2 0x311 JUMP JUMPDEST PUSH2 0x141 JUMP JUMPDEST STOP JUMPDEST PUSH2 0x8B PUSH1 0x4 DUP1 CALLDATASIZE SUB DUP2 ADD SWAP1 PUSH2 0x86 SWAP2 SWAP1 PUSH2 0x311 JUMP JUMPDEST PUSH2 0x1C2 JUMP JUMPDEST STOP JUMPDEST PUSH1 0x0 DUP2 PUSH20 0xFFFFFFFFFFFFFFFFFFFFFFFFFFFFFFFFFFFFFFFF AND PUSH2 0x8FC CALLVALUE SWAP1 DUP2 ISZERO MUL SWAP1 PUSH1 0x40 MLOAD PUSH1 0x0 PUSH1 0x40 MLOAD DUP1 DUP4 SUB DUP2 DUP6 DUP9 DUP9 CALL SWAP4 POP POP POP POP SWAP1 POP DUP1 PUSH2 0x106 JUMPI PUSH1 0x40 MLOAD PUSH32 0x8C379A000000000000000000000000000000000000000000000000000000000 DUP2 MSTORE PUSH1 0x4 ADD PUSH2 0xFD SWAP1 PUSH2 0x39B JUMP JUMPDEST PUSH1 0x40 MLOAD DUP1 SWAP2 SUB SWAP1 REVERT JUMPDEST PUSH32 0xE4F740571B79610DEFF27CA80EF3046DE224A7FC42E82177A0D9919CD5B7A8D9 CALLVALUE PUSH1 0x40 MLOAD PUSH2 0x135 SWAP2 SWAP1 PUSH2 0x3D4 JUMP JUMPDEST PUSH1 0x40 MLOAD DUP1 SWAP2 SUB SWAP1 LOG1 POP POP JUMP JUMPDEST DUP1 PUSH20 0xFFFFFFFFFFFFFFFFFFFFFFFFFFFFFFFFFFFFFFFF AND PUSH2 0x8FC CALLVALUE SWAP1 DUP2 ISZERO MUL SWAP1 PUSH1 0x40 MLOAD PUSH1 0x0 PUSH1 0x40 MLOAD DUP1 DUP4 SUB DUP2 DUP6 DUP9 DUP9 CALL SWAP4 POP POP POP POP ISZERO DUP1 ISZERO PUSH2 0x187 JUMPI RETURNDATASIZE PUSH1 0x0 DUP1 RETURNDATACOPY RETURNDATASIZE PUSH1 0x0 REVERT JUMPDEST POP PUSH32 0xE4F740571B79610DEFF27CA80EF3046DE224A7FC42E82177A0D9919CD5B7A8D9 CALLVALUE PUSH1 0x40 MLOAD PUSH2 0x1B7 SWAP2 SWAP1 PUSH2 0x3D4 JUMP JUMPDEST PUSH1 0x40 MLOAD DUP1 SWAP2 SUB SWAP1 LOG1 POP JUMP JUMPDEST PUSH1 0x0 DUP2 PUSH20 0xFFFFFFFFFFFFFFFFFFFFFFFFFFFFFFFFFFFFFFFF AND CALLVALUE PUSH2 0x3E8 SWAP1 PUSH1 0x40 MLOAD PUSH2 0x1EC SWAP1 PUSH2 0x420 JUMP JUMPDEST PUSH1 0x0 PUSH1 0x40 MLOAD DUP1 DUP4 SUB DUP2 DUP6 DUP9 DUP9 CALL SWAP4 POP POP POP POP RETURNDATASIZE DUP1 PUSH1 0x0 DUP2 EQ PUSH2 0x22A JUMPI PUSH1 0x40 MLOAD SWAP2 POP PUSH1 0x1F NOT PUSH1 0x3F RETURNDATASIZE ADD AND DUP3 ADD PUSH1 0x40 MSTORE RETURNDATASIZE DUP3 MSTORE RETURNDATASIZE PUSH1 0x0 PUSH1 0x20 DUP5 ADD RETURNDATACOPY PUSH2 0x22F JUMP JUMPDEST PUSH1 0x60 SWAP2 POP JUMPDEST POP POP SWAP1 POP DUP1 PUSH2 0x273 JUMPI PUSH1 0x40 MLOAD PUSH32 0x8C379A000000000000000000000000000000000000000000000000000000000 DUP2 MSTORE PUSH1 0x4 ADD PUSH2 0x26A SWAP1 PUSH2 0x481 JUMP JUMPDEST PUSH1 0x40 MLOAD DUP1 SWAP2 SUB SWAP1 REVERT JUMPDEST PUSH32 0xE4F740571B79610DEFF27CA80EF3046DE224A7FC42E82177A0D9919CD5B7A8D9 CALLVALUE PUSH1 0x40 MLOAD PUSH2 0x2A2 SWAP2 SWAP1 PUSH2 0x3D4 JUMP JUMPDEST PUSH1 0x40 MLOAD DUP1 SWAP2 SUB SWAP1 LOG1 POP POP JUMP JUMPDEST PUSH1 0x0 DUP1 REVERT JUMPDEST PUSH1 0x0 PUSH20 0xFFFFFFFFFFFFFFFFFFFFFFFFFFFFFFFFFFFFFFFF DUP3 AND SWAP1 POP SWAP2 SWAP1 POP JUMP JUMPDEST PUSH1 0x0 PUSH2 0x2DE DUP3 PUSH2 0x2B3 JUMP JUMPDEST SWAP1 POP SWAP2 SWAP1 POP JUMP JUMPDEST PUSH2 0x2EE DUP2 PUSH2 0x2D3 JUMP JUMPDEST DUP2 EQ PUSH2 0x2F9 JUMPI PUSH1 0x0 DUP1 REVERT JUMPDEST POP JUMP JUMPDEST PUSH1 0x0 DUP2 CALLDATALOAD SWAP1 POP PUSH2 0x30B DUP2 PUSH2 0x2E5 JUMP JUMPDEST SWAP3 SWAP2 POP POP JUMP JUMPDEST PUSH1 0x0 PUSH1 0x20 DUP3 DUP5 SUB SLT ISZERO PUSH2 0x327 JUMPI PUSH2 0x326 PUSH2 0x2AE JUMP JUMPDEST JUMPDEST PUSH1 0x0 PUSH2 0x335 DUP5 DUP3 DUP6 ADD PUSH2 0x2FC JUMP JUMPDEST SWAP2 POP POP SWAP3 SWAP2 POP POP JUMP JUMPDEST PUSH1 0x0 DUP3 DUP3 MSTORE PUSH1 0x20 DUP3 ADD SWAP1 POP SWAP3 SWAP2 POP POP JUMP JUMPDEST PUSH32 0x4661696C656420746F2073656E64206569746865720000000000000000000000 PUSH1 0x0 DUP3 ADD MSTORE POP JUMP JUMPDEST PUSH1 0x0 PUSH2 0x385 PUSH1 0x15 DUP4 PUSH2 0x33E JUMP JUMPDEST SWAP2 POP PUSH2 0x390 DUP3 PUSH2 0x34F JUMP JUMPDEST PUSH1 0x20 DUP3 ADD SWAP1 POP SWAP2 SWAP1 POP JUMP JUMPDEST PUSH1 0x0 PUSH1 0x20 DUP3 ADD SWAP1 POP DUP2 DUP2 SUB PUSH1 0x0 DUP4 ADD MSTORE PUSH2 0x3B4 DUP2 PUSH2 0x378 JUMP JUMPDEST SWAP1 POP SWAP2 SWAP1 POP JUMP JUMPDEST PUSH1 0x0 DUP2 SWAP1 POP SWAP2 SWAP1 POP JUMP JUMPDEST PUSH2 0x3CE DUP2 PUSH2 0x3BB JUMP JUMPDEST DUP3 MSTORE POP POP JUMP JUMPDEST PUSH1 0x0 PUSH1 0x20 DUP3 ADD SWAP1 POP PUSH2 0x3E9 PUSH1 0x0 DUP4 ADD DUP5 PUSH2 0x3C5 JUMP JUMPDEST SWAP3 SWAP2 POP POP JUMP JUMPDEST PUSH1 0x0 DUP2 SWAP1 POP SWAP3 SWAP2 POP POP JUMP JUMPDEST POP JUMP JUMPDEST PUSH1 0x0 PUSH2 0x40A PUSH1 0x0 DUP4 PUSH2 0x3EF JUMP JUMPDEST SWAP2 POP PUSH2 0x415 DUP3 PUSH2 0x3FA JUMP JUMPDEST PUSH1 0x0 DUP3 ADD SWAP1 POP SWAP2 SWAP1 POP JUMP JUMPDEST PUSH1 0x0 PUSH2 0x42B DUP3 PUSH2 0x3FD JUMP JUMPDEST SWAP2 POP DUP2 SWAP1 POP SWAP2 SWAP1 POP JUMP JUMPDEST PUSH32 0x4661696C656420746F2073656E64204574686572000000000000000000000000 PUSH1 0x0 DUP3 ADD MSTORE POP JUMP JUMPDEST PUSH1 0x0 PUSH2 0x46B PUSH1 0x14 DUP4 PUSH2 0x33E JUMP JUMPDEST SWAP2 POP PUSH2 0x476 DUP3 PUSH2 0x435 JUMP JUMPDEST PUSH1 0x20 DUP3 ADD SWAP1 POP SWAP2 SWAP1 POP JUMP JUMPDEST PUSH1 0x0 PUSH1 0x20 DUP3 ADD SWAP1 POP DUP2 DUP2 SUB PUSH1 0x0 DUP4 ADD MSTORE PUSH2 0x49A DUP2 PUSH2 0x45E JUMP JUMPDEST SWAP1 POP SWAP2 SWAP1 POP JUMP INVALID LOG2 PUSH5 0x6970667358 0x22 SLT KECCAK256 XOR 0xD9 SGT 0x28 KECCAK256 0xDD DUP1 PUSH18 0x2A72AD2EA87ED495A379363BB34FEBE46E27 0x2D 0x2D ADD PUSH4 0x5ED96473 PUSH16 0x6C634300080D00330000000000000000 "
				},
				"gasEstimates": {
					"creation": {
						"codeDepositCost": "247800",
						"executionCost": "287",
						"totalCost": "248087"
					},
					"external": {
						"callNow(address)": "infinite",
						"sendNow(address)": "infinite",
						"transferNow(address)": "infinite"
					}
				},
				"methodIdentifiers": {
					"callNow(address)": "75a4624d",
					"sendNow(address)": "0b1fa23f",
					"transferNow(address)": "56a967b4"
				}
			},
			"userdoc": {
				"kind": "user",
				"methods": {},
				"version": 1
			}
		}
	}
}