{
	"lecture/errorHandle.sol": {
		"errorHandleC": {
			"abi": [
				{
					"inputs": [],
					"name": "assertNow",
					"outputs": [],
					"stateMutability": "pure",
					"type": "function"
				},
				{
					"inputs": [],
					"name": "requireNow",
					"outputs": [],
					"stateMutability": "pure",
					"type": "function"
				},
				{
					"inputs": [],
					"name": "revertNow",
					"outputs": [],
					"stateMutability": "pure",
					"type": "function"
				}
			],
			"devdoc": {
				"kind": "dev",
				"methods": {},
				"version": 1
			},
			"evm": {
				"assembly": "    /* \"lecture/errorHandle.sol\":72:802  contract errorHandleC {... */\n  mstore(0x40, 0x80)\n  callvalue\n  dup1\n  iszero\n  tag_1\n  jumpi\n  0x00\n  dup1\n  revert\ntag_1:\n  pop\n  dataSize(sub_0)\n  dup1\n  dataOffset(sub_0)\n  0x00\n  codecopy\n  0x00\n  return\nstop\n\nsub_0: assembly {\n        /* \"lecture/errorHandle.sol\":72:802  contract errorHandleC {... */\n      mstore(0x40, 0x80)\n      callvalue\n      dup1\n      iszero\n      tag_1\n      jumpi\n      0x00\n      dup1\n      revert\n    tag_1:\n      pop\n      jumpi(tag_2, lt(calldatasize, 0x04))\n      shr(0xe0, calldataload(0x00))\n      dup1\n      0x2712f519\n      eq\n      tag_3\n      jumpi\n      dup1\n      0x844adfd2\n      eq\n      tag_4\n      jumpi\n      dup1\n      0xafe26609\n      eq\n      tag_5\n      jumpi\n    tag_2:\n      0x00\n      dup1\n      revert\n        /* \"lecture/errorHandle.sol\":504:577  function assertNow() public pure{... */\n    tag_3:\n      tag_6\n      tag_7\n      jump\t// in\n    tag_6:\n      stop\n        /* \"lecture/errorHandle.sol\":723:799  function requireNow()public pure{... */\n    tag_4:\n      tag_8\n      tag_9\n      jump\t// in\n    tag_8:\n      stop\n        /* \"lecture/errorHandle.sol\":598:698  function revertNow() public pure{... */\n    tag_5:\n      tag_10\n      tag_11\n      jump\t// in\n    tag_10:\n      stop\n        /* \"lecture/errorHandle.sol\":504:577  function assertNow() public pure{... */\n    tag_7:\n        /* \"lecture/errorHandle.sol\":554:559  false */\n      0x00\n        /* \"lecture/errorHandle.sol\":547:560  assert(false) */\n      tag_13\n      jumpi\n      tag_14\n      tag_15\n      jump\t// in\n    tag_14:\n    tag_13:\n        /* \"lecture/errorHandle.sol\":504:577  function assertNow() public pure{... */\n      jump\t// out\n        /* \"lecture/errorHandle.sol\":723:799  function requireNow()public pure{... */\n    tag_9:\n        /* \"lecture/errorHandle.sol\":774:779  false */\n      0x00\n        /* \"lecture/errorHandle.sol\":766:791  require(false,\"occurred\") */\n      tag_17\n      jumpi\n      mload(0x40)\n      0x08c379a000000000000000000000000000000000000000000000000000000000\n      dup2\n      mstore\n      0x04\n      add\n      tag_18\n      swap1\n      tag_19\n      jump\t// in\n    tag_18:\n      mload(0x40)\n      dup1\n      swap2\n      sub\n      swap1\n      revert\n    tag_17:\n        /* \"lecture/errorHandle.sol\":723:799  function requireNow()public pure{... */\n      jump\t// out\n        /* \"lecture/errorHandle.sol\":598:698  function revertNow() public pure{... */\n    tag_11:\n        /* \"lecture/errorHandle.sol\":641:658  revert(\"error!!\") */\n      mload(0x40)\n      0x08c379a000000000000000000000000000000000000000000000000000000000\n      dup2\n      mstore\n      0x04\n      add\n      tag_21\n      swap1\n      tag_22\n      jump\t// in\n    tag_21:\n      mload(0x40)\n      dup1\n      swap2\n      sub\n      swap1\n      revert\n        /* \"#utility.yul\":7:187   */\n    tag_15:\n        /* \"#utility.yul\":55:132   */\n      0x4e487b7100000000000000000000000000000000000000000000000000000000\n        /* \"#utility.yul\":52:53   */\n      0x00\n        /* \"#utility.yul\":45:133   */\n      mstore\n        /* \"#utility.yul\":152:156   */\n      0x01\n        /* \"#utility.yul\":149:150   */\n      0x04\n        /* \"#utility.yul\":142:157   */\n      mstore\n        /* \"#utility.yul\":176:180   */\n      0x24\n        /* \"#utility.yul\":173:174   */\n      0x00\n        /* \"#utility.yul\":166:181   */\n      revert\n        /* \"#utility.yul\":193:362   */\n    tag_23:\n        /* \"#utility.yul\":277:288   */\n      0x00\n        /* \"#utility.yul\":311:317   */\n      dup3\n        /* \"#utility.yul\":306:309   */\n      dup3\n        /* \"#utility.yul\":299:318   */\n      mstore\n        /* \"#utility.yul\":351:355   */\n      0x20\n        /* \"#utility.yul\":346:349   */\n      dup3\n        /* \"#utility.yul\":342:356   */\n      add\n        /* \"#utility.yul\":327:356   */\n      swap1\n      pop\n        /* \"#utility.yul\":193:362   */\n      swap3\n      swap2\n      pop\n      pop\n      jump\t// out\n        /* \"#utility.yul\":368:526   */\n    tag_24:\n        /* \"#utility.yul\":508:518   */\n      0x6f63637572726564000000000000000000000000000000000000000000000000\n        /* \"#utility.yul\":504:505   */\n      0x00\n        /* \"#utility.yul\":496:502   */\n      dup3\n        /* \"#utility.yul\":492:506   */\n      add\n        /* \"#utility.yul\":485:519   */\n      mstore\n        /* \"#utility.yul\":368:526   */\n      pop\n      jump\t// out\n        /* \"#utility.yul\":532:897   */\n    tag_25:\n        /* \"#utility.yul\":674:677   */\n      0x00\n        /* \"#utility.yul\":695:761   */\n      tag_33\n        /* \"#utility.yul\":759:760   */\n      0x08\n        /* \"#utility.yul\":754:757   */\n      dup4\n        /* \"#utility.yul\":695:761   */\n      tag_23\n      jump\t// in\n    tag_33:\n        /* \"#utility.yul\":688:761   */\n      swap2\n      pop\n        /* \"#utility.yul\":770:863   */\n      tag_34\n        /* \"#utility.yul\":859:862   */\n      dup3\n        /* \"#utility.yul\":770:863   */\n      tag_24\n      jump\t// in\n    tag_34:\n        /* \"#utility.yul\":888:890   */\n      0x20\n        /* \"#utility.yul\":883:886   */\n      dup3\n        /* \"#utility.yul\":879:891   */\n      add\n        /* \"#utility.yul\":872:891   */\n      swap1\n      pop\n        /* \"#utility.yul\":532:897   */\n      swap2\n      swap1\n      pop\n      jump\t// out\n        /* \"#utility.yul\":903:1322   */\n    tag_19:\n        /* \"#utility.yul\":1069:1073   */\n      0x00\n        /* \"#utility.yul\":1107:1109   */\n      0x20\n        /* \"#utility.yul\":1096:1105   */\n      dup3\n        /* \"#utility.yul\":1092:1110   */\n      add\n        /* \"#utility.yul\":1084:1110   */\n      swap1\n      pop\n        /* \"#utility.yul\":1156:1165   */\n      dup2\n        /* \"#utility.yul\":1150:1154   */\n      dup2\n        /* \"#utility.yul\":1146:1166   */\n      sub\n        /* \"#utility.yul\":1142:1143   */\n      0x00\n        /* \"#utility.yul\":1131:1140   */\n      dup4\n        /* \"#utility.yul\":1127:1144   */\n      add\n        /* \"#utility.yul\":1120:1167   */\n      mstore\n        /* \"#utility.yul\":1184:1315   */\n      tag_36\n        /* \"#utility.yul\":1310:1314   */\n      dup2\n        /* \"#utility.yul\":1184:1315   */\n      tag_25\n      jump\t// in\n    tag_36:\n        /* \"#utility.yul\":1176:1315   */\n      swap1\n      pop\n        /* \"#utility.yul\":903:1322   */\n      swap2\n      swap1\n      pop\n      jump\t// out\n        /* \"#utility.yul\":1328:1485   */\n    tag_26:\n        /* \"#utility.yul\":1468:1477   */\n      0x6572726f72212100000000000000000000000000000000000000000000000000\n        /* \"#utility.yul\":1464:1465   */\n      0x00\n        /* \"#utility.yul\":1456:1462   */\n      dup3\n        /* \"#utility.yul\":1452:1466   */\n      add\n        /* \"#utility.yul\":1445:1478   */\n      mstore\n        /* \"#utility.yul\":1328:1485   */\n      pop\n      jump\t// out\n        /* \"#utility.yul\":1491:1856   */\n    tag_27:\n        /* \"#utility.yul\":1633:1636   */\n      0x00\n        /* \"#utility.yul\":1654:1720   */\n      tag_39\n        /* \"#utility.yul\":1718:1719   */\n      0x07\n        /* \"#utility.yul\":1713:1716   */\n      dup4\n        /* \"#utility.yul\":1654:1720   */\n      tag_23\n      jump\t// in\n    tag_39:\n        /* \"#utility.yul\":1647:1720   */\n      swap2\n      pop\n        /* \"#utility.yul\":1729:1822   */\n      tag_40\n        /* \"#utility.yul\":1818:1821   */\n      dup3\n        /* \"#utility.yul\":1729:1822   */\n      tag_26\n      jump\t// in\n    tag_40:\n        /* \"#utility.yul\":1847:1849   */\n      0x20\n        /* \"#utility.yul\":1842:1845   */\n      dup3\n        /* \"#utility.yul\":1838:1850   */\n      add\n        /* \"#utility.yul\":1831:1850   */\n      swap1\n      pop\n        /* \"#utility.yul\":1491:1856   */\n      swap2\n      swap1\n      pop\n      jump\t// out\n        /* \"#utility.yul\":1862:2281   */\n    tag_22:\n        /* \"#utility.yul\":2028:2032   */\n      0x00\n        /* \"#utility.yul\":2066:2068   */\n      0x20\n        /* \"#utility.yul\":2055:2064   */\n      dup3\n        /* \"#utility.yul\":2051:2069   */\n      add\n        /* \"#utility.yul\":2043:2069   */\n      swap1\n      pop\n        /* \"#utility.yul\":2115:2124   */\n      dup2\n        /* \"#utility.yul\":2109:2113   */\n      dup2\n        /* \"#utility.yul\":2105:2125   */\n      sub\n        /* \"#utility.yul\":2101:2102   */\n      0x00\n        /* \"#utility.yul\":2090:2099   */\n      dup4\n        /* \"#utility.yul\":2086:2103   */\n      add\n        /* \"#utility.yul\":2079:2126   */\n      mstore\n        /* \"#utility.yul\":2143:2274   */\n      tag_42\n        /* \"#utility.yul\":2269:2273   */\n      dup2\n        /* \"#utility.yul\":2143:2274   */\n      tag_27\n      jump\t// in\n    tag_42:\n        /* \"#utility.yul\":2135:2274   */\n      swap1\n      pop\n        /* \"#utility.yul\":1862:2281   */\n      swap2\n      swap1\n      pop\n      jump\t// out\n\n    auxdata: 0xa2646970667358221220a8df7036b25c865bf0e745fdec926f21671494279f2d530fb7f5a60f0aad07e964736f6c634300080d0033\n}\n",
				"bytecode": {
					"linkReferences": {},
					"object": "608060405234801561001057600080fd5b50610241806100206000396000f3fe608060405234801561001057600080fd5b50600436106100415760003560e01c80632712f51914610046578063844adfd214610050578063afe266091461005a575b600080fd5b61004e610064565b005b610058610075565b005b6100626100b8565b005b6000610073576100726100f3565b5b565b60006100b6576040517f08c379a00000000000000000000000000000000000000000000000000000000081526004016100ad9061017f565b60405180910390fd5b565b6040517f08c379a00000000000000000000000000000000000000000000000000000000081526004016100ea906101eb565b60405180910390fd5b7f4e487b7100000000000000000000000000000000000000000000000000000000600052600160045260246000fd5b600082825260208201905092915050565b7f6f63637572726564000000000000000000000000000000000000000000000000600082015250565b6000610169600883610122565b915061017482610133565b602082019050919050565b600060208201905081810360008301526101988161015c565b9050919050565b7f6572726f72212100000000000000000000000000000000000000000000000000600082015250565b60006101d5600783610122565b91506101e08261019f565b602082019050919050565b60006020820190508181036000830152610204816101c8565b905091905056fea2646970667358221220a8df7036b25c865bf0e745fdec926f21671494279f2d530fb7f5a60f0aad07e964736f6c634300080d0033",
					"opcodes": "PUSH1 0x80 PUSH1 0x40 MSTORE CALLVALUE DUP1 ISZERO PUSH2 0x10 JUMPI PUSH1 0x0 DUP1 REVERT JUMPDEST POP PUSH2 0x241 DUP1 PUSH2 0x20 PUSH1 0x0 CODECOPY PUSH1 0x0 RETURN INVALID PUSH1 0x80 PUSH1 0x40 MSTORE CALLVALUE DUP1 ISZERO PUSH2 0x10 JUMPI PUSH1 0x0 DUP1 REVERT JUMPDEST POP PUSH1 0x4 CALLDATASIZE LT PUSH2 0x41 JUMPI PUSH1 0x0 CALLDATALOAD PUSH1 0xE0 SHR DUP1 PUSH4 0x2712F519 EQ PUSH2 0x46 JUMPI DUP1 PUSH4 0x844ADFD2 EQ PUSH2 0x50 JUMPI DUP1 PUSH4 0xAFE26609 EQ PUSH2 0x5A JUMPI JUMPDEST PUSH1 0x0 DUP1 REVERT JUMPDEST PUSH2 0x4E PUSH2 0x64 JUMP JUMPDEST STOP JUMPDEST PUSH2 0x58 PUSH2 0x75 JUMP JUMPDEST STOP JUMPDEST PUSH2 0x62 PUSH2 0xB8 JUMP JUMPDEST STOP JUMPDEST PUSH1 0x0 PUSH2 0x73 JUMPI PUSH2 0x72 PUSH2 0xF3 JUMP JUMPDEST JUMPDEST JUMP JUMPDEST PUSH1 0x0 PUSH2 0xB6 JUMPI PUSH1 0x40 MLOAD PUSH32 0x8C379A000000000000000000000000000000000000000000000000000000000 DUP2 MSTORE PUSH1 0x4 ADD PUSH2 0xAD SWAP1 PUSH2 0x17F JUMP JUMPDEST PUSH1 0x40 MLOAD DUP1 SWAP2 SUB SWAP1 REVERT JUMPDEST JUMP JUMPDEST PUSH1 0x40 MLOAD PUSH32 0x8C379A000000000000000000000000000000000000000000000000000000000 DUP2 MSTORE PUSH1 0x4 ADD PUSH2 0xEA SWAP1 PUSH2 0x1EB JUMP JUMPDEST PUSH1 0x40 MLOAD DUP1 SWAP2 SUB SWAP1 REVERT JUMPDEST PUSH32 0x4E487B7100000000000000000000000000000000000000000000000000000000 PUSH1 0x0 MSTORE PUSH1 0x1 PUSH1 0x4 MSTORE PUSH1 0x24 PUSH1 0x0 REVERT JUMPDEST PUSH1 0x0 DUP3 DUP3 MSTORE PUSH1 0x20 DUP3 ADD SWAP1 POP SWAP3 SWAP2 POP POP JUMP JUMPDEST PUSH32 0x6F63637572726564000000000000000000000000000000000000000000000000 PUSH1 0x0 DUP3 ADD MSTORE POP JUMP JUMPDEST PUSH1 0x0 PUSH2 0x169 PUSH1 0x8 DUP4 PUSH2 0x122 JUMP JUMPDEST SWAP2 POP PUSH2 0x174 DUP3 PUSH2 0x133 JUMP JUMPDEST PUSH1 0x20 DUP3 ADD SWAP1 POP SWAP2 SWAP1 POP JUMP JUMPDEST PUSH1 0x0 PUSH1 0x20 DUP3 ADD SWAP1 POP DUP2 DUP2 SUB PUSH1 0x0 DUP4 ADD MSTORE PUSH2 0x198 DUP2 PUSH2 0x15C JUMP JUMPDEST SWAP1 POP SWAP2 SWAP1 POP JUMP JUMPDEST PUSH32 0x6572726F72212100000000000000000000000000000000000000000000000000 PUSH1 0x0 DUP3 ADD MSTORE POP JUMP JUMPDEST PUSH1 0x0 PUSH2 0x1D5 PUSH1 0x7 DUP4 PUSH2 0x122 JUMP JUMPDEST SWAP2 POP PUSH2 0x1E0 DUP3 PUSH2 0x19F JUMP JUMPDEST PUSH1 0x20 DUP3 ADD SWAP1 POP SWAP2 SWAP1 POP JUMP JUMPDEST PUSH1 0x0 PUSH1 0x20 DUP3 ADD SWAP1 POP DUP2 DUP2 SUB PUSH1 0x0 DUP4 ADD MSTORE PUSH2 0x204 DUP2 PUSH2 0x1C8 JUMP JUMPDEST SWAP1 POP SWAP2 SWAP1 POP JUMP INVALID LOG2 PUSH5 0x6970667358 0x22 SLT KECCAK256 0xA8 0xDF PUSH17 0x36B25C865BF0E745FDEC926F2167149427 SWAP16 0x2D MSTORE8 0xF 0xB7 CREATE2 0xA6 0xF EXP 0xAD SMOD 0xE9 PUSH5 0x736F6C6343 STOP ADDMOD 0xD STOP CALLER "
				},
				"gasEstimates": {
					"creation": {
						"codeDepositCost": "115400",
						"executionCost": "165",
						"totalCost": "115565"
					},
					"external": {
						"assertNow()": "168",
						"requireNow()": "450",
						"revertNow()": "456"
					}
				},
				"methodIdentifiers": {
					"assertNow()": "2712f519",
					"requireNow()": "844adfd2",
					"revertNow()": "afe26609"
				}
			},
			"userdoc": {
				"kind": "user",
				"methods": {},
				"version": 1
			}
		}
	}
}