{
	"lecture/payable2.sol": {
		"MobileBanking": {
			"abi": [
				{
					"inputs": [],
					"stateMutability": "payable",
					"type": "constructor"
				},
				{
					"anonymous": false,
					"inputs": [
						{
							"indexed": false,
							"internalType": "address",
							"name": "_msgSender",
							"type": "address"
						},
						{
							"indexed": false,
							"internalType": "address",
							"name": "_to",
							"type": "address"
						},
						{
							"indexed": false,
							"internalType": "uint256",
							"name": "_value",
							"type": "uint256"
						}
					],
					"name": "CurrentValueOfSomeone",
					"type": "event"
				},
				{
					"anonymous": false,
					"inputs": [
						{
							"indexed": false,
							"internalType": "address",
							"name": "_msgSender",
							"type": "address"
						},
						{
							"indexed": false,
							"internalType": "uint256",
							"name": "_value",
							"type": "uint256"
						}
					],
					"name": "MyCurrentValue",
					"type": "event"
				},
				{
					"anonymous": false,
					"inputs": [
						{
							"indexed": false,
							"internalType": "address",
							"name": "_msgSender",
							"type": "address"
						},
						{
							"indexed": false,
							"internalType": "uint256",
							"name": "_currentValue",
							"type": "uint256"
						}
					],
					"name": "SendInfo",
					"type": "event"
				},
				{
					"inputs": [
						{
							"internalType": "address",
							"name": "_to",
							"type": "address"
						}
					],
					"name": "checkUserMoney",
					"outputs": [],
					"stateMutability": "nonpayable",
					"type": "function"
				},
				{
					"inputs": [],
					"name": "checkValueNow",
					"outputs": [],
					"stateMutability": "nonpayable",
					"type": "function"
				},
				{
					"inputs": [
						{
							"internalType": "address payable",
							"name": "_to",
							"type": "address"
						}
					],
					"name": "sendEther",
					"outputs": [],
					"stateMutability": "payable",
					"type": "function"
				}
			],
			"devdoc": {
				"kind": "dev",
				"methods": {},
				"version": 1
			},
			"evm": {
				"assembly": "    /* \"lecture/payable2.sol\":688:1780  contract MobileBanking{... */\n  mstore(0x40, 0x80)\n    /* \"lecture/payable2.sol\":878:888  msg.sender */\n  caller\n    /* \"lecture/payable2.sol\":870:875  owner */\n  0x00\n  dup1\n    /* \"lecture/payable2.sol\":870:888  owner = msg.sender */\n  0x0100\n  exp\n  dup2\n  sload\n  dup2\n  0xffffffffffffffffffffffffffffffffffffffff\n  mul\n  not\n  and\n  swap1\n  dup4\n  0xffffffffffffffffffffffffffffffffffffffff\n  and\n  mul\n  or\n  swap1\n  sstore\n  pop\n    /* \"lecture/payable2.sol\":688:1780  contract MobileBanking{... */\n  dataSize(sub_0)\n  dup1\n  dataOffset(sub_0)\n  0x00\n  codecopy\n  0x00\n  return\nstop\n\nsub_0: assembly {\n        /* \"lecture/payable2.sol\":688:1780  contract MobileBanking{... */\n      mstore(0x40, 0x80)\n      jumpi(tag_1, lt(calldatasize, 0x04))\n      shr(0xe0, calldataload(0x00))\n      dup1\n      0x48c981e2\n      eq\n      tag_2\n      jumpi\n      dup1\n      0x9d427413\n      eq\n      tag_3\n      jumpi\n      dup1\n      0xc776b4df\n      eq\n      tag_4\n      jumpi\n    tag_1:\n      0x00\n      dup1\n      revert\n        /* \"lecture/payable2.sol\":1224:1529  function sendEther(address payable _to) public onlyOwner payable {... */\n    tag_2:\n      tag_5\n      0x04\n      dup1\n      calldatasize\n      sub\n      dup2\n      add\n      swap1\n      tag_6\n      swap2\n      swap1\n      tag_7\n      jump\t// in\n    tag_6:\n      tag_8\n      jump\t// in\n    tag_5:\n      stop\n        /* \"lecture/payable2.sol\":1654:1771  function checkUserMoney(address _to) public{... */\n    tag_3:\n      callvalue\n      dup1\n      iszero\n      tag_9\n      jumpi\n      0x00\n      dup1\n      revert\n    tag_9:\n      pop\n      tag_10\n      0x04\n      dup1\n      calldatasize\n      sub\n      dup2\n      add\n      swap1\n      tag_11\n      swap2\n      swap1\n      tag_12\n      jump\t// in\n    tag_11:\n      tag_13\n      jump\t// in\n    tag_10:\n      stop\n        /* \"lecture/payable2.sol\":1541:1642  function checkValueNow() public{... */\n    tag_4:\n      callvalue\n      dup1\n      iszero\n      tag_14\n      jumpi\n      0x00\n      dup1\n      revert\n    tag_14:\n      pop\n      tag_15\n      tag_16\n      jump\t// in\n    tag_15:\n      stop\n        /* \"lecture/payable2.sol\":1224:1529  function sendEther(address payable _to) public onlyOwner payable {... */\n    tag_8:\n        /* \"lecture/payable2.sol\":1386:1395  msg.value */\n      callvalue\n        /* \"lecture/payable2.sol\":1366:1376  msg.sender */\n      caller\n        /* \"lecture/payable2.sol\":1366:1384  msg.sender.balance */\n      0xffffffffffffffffffffffffffffffffffffffff\n      and\n      balance\n        /* \"lecture/payable2.sol\":1366:1395  msg.sender.balance>=msg.value */\n      lt\n      iszero\n        /* \"lecture/payable2.sol\":1358:1426  require(msg.sender.balance>=msg.value, \"Your balance is not enough\") */\n      tag_19\n      jumpi\n      mload(0x40)\n      0x08c379a000000000000000000000000000000000000000000000000000000000\n      dup2\n      mstore\n      0x04\n      add\n      tag_20\n      swap1\n      tag_21\n      jump\t// in\n    tag_20:\n      mload(0x40)\n      dup1\n      swap2\n      sub\n      swap1\n      revert\n    tag_19:\n        /* \"lecture/payable2.sol\":1437:1440  _to */\n      dup1\n        /* \"lecture/payable2.sol\":1437:1449  _to.transfer */\n      0xffffffffffffffffffffffffffffffffffffffff\n      and\n        /* \"lecture/payable2.sol\":1437:1460  _to.transfer(msg.value) */\n      0x08fc\n        /* \"lecture/payable2.sol\":1450:1459  msg.value */\n      callvalue\n        /* \"lecture/payable2.sol\":1437:1460  _to.transfer(msg.value) */\n      swap1\n      dup2\n      iszero\n      mul\n      swap1\n      mload(0x40)\n      0x00\n      mload(0x40)\n      dup1\n      dup4\n      sub\n      dup2\n      dup6\n      dup9\n      dup9\n      call\n      swap4\n      pop\n      pop\n      pop\n      pop\n      iszero\n      dup1\n      iszero\n      tag_23\n      jumpi\n      returndatasize\n      0x00\n      dup1\n      returndatacopy\n      revert(0x00, returndatasize)\n    tag_23:\n      pop\n        /* \"lecture/payable2.sol\":1480:1521  SendInfo(msg.sender,(msg.sender).balance) */\n      0xef3d45e3976629248ff5a27c6e07e8c80013b2b1f46611f16ebf46c6bf09be29\n        /* \"lecture/payable2.sol\":1489:1499  msg.sender */\n      caller\n        /* \"lecture/payable2.sol\":1501:1511  msg.sender */\n      caller\n        /* \"lecture/payable2.sol\":1500:1520  (msg.sender).balance */\n      0xffffffffffffffffffffffffffffffffffffffff\n      and\n      balance\n        /* \"lecture/payable2.sol\":1480:1521  SendInfo(msg.sender,(msg.sender).balance) */\n      mload(0x40)\n      tag_24\n      swap3\n      swap2\n      swap1\n      tag_25\n      jump\t// in\n    tag_24:\n      mload(0x40)\n      dup1\n      swap2\n      sub\n      swap1\n      log1\n        /* \"lecture/payable2.sol\":967:972  owner */\n      0x00\n      dup1\n      sload\n      swap1\n      0x0100\n      exp\n      swap1\n      div\n      0xffffffffffffffffffffffffffffffffffffffff\n      and\n        /* \"lecture/payable2.sol\":953:972  msg.sender == owner */\n      0xffffffffffffffffffffffffffffffffffffffff\n      and\n        /* \"lecture/payable2.sol\":953:963  msg.sender */\n      caller\n        /* \"lecture/payable2.sol\":953:972  msg.sender == owner */\n      0xffffffffffffffffffffffffffffffffffffffff\n      and\n      eq\n        /* \"lecture/payable2.sol\":945:988  require(msg.sender == owner, \"Only Owner!\") */\n      tag_26\n      jumpi\n      mload(0x40)\n      0x08c379a000000000000000000000000000000000000000000000000000000000\n      dup2\n      mstore\n      0x04\n      add\n      tag_27\n      swap1\n      tag_28\n      jump\t// in\n    tag_27:\n      mload(0x40)\n      dup1\n      swap2\n      sub\n      swap1\n      revert\n    tag_26:\n        /* \"lecture/payable2.sol\":1224:1529  function sendEther(address payable _to) public onlyOwner payable {... */\n      pop\n      jump\t// out\n        /* \"lecture/payable2.sol\":1654:1771  function checkUserMoney(address _to) public{... */\n    tag_13:\n        /* \"lecture/payable2.sol\":1713:1763  CurrentValueOfSomeone(msg.sender,_to ,_to.balance) */\n      0xbce456ac206bf5f267f4accbf956229979251e867ffc3fb45ca938fc6a27a440\n        /* \"lecture/payable2.sol\":1735:1745  msg.sender */\n      caller\n        /* \"lecture/payable2.sol\":1746:1749  _to */\n      dup3\n        /* \"lecture/payable2.sol\":1751:1754  _to */\n      dup4\n        /* \"lecture/payable2.sol\":1751:1762  _to.balance */\n      0xffffffffffffffffffffffffffffffffffffffff\n      and\n      balance\n        /* \"lecture/payable2.sol\":1713:1763  CurrentValueOfSomeone(msg.sender,_to ,_to.balance) */\n      mload(0x40)\n      tag_30\n      swap4\n      swap3\n      swap2\n      swap1\n      tag_31\n      jump\t// in\n    tag_30:\n      mload(0x40)\n      dup1\n      swap2\n      sub\n      swap1\n      log1\n        /* \"lecture/payable2.sol\":1654:1771  function checkUserMoney(address _to) public{... */\n      pop\n      jump\t// out\n        /* \"lecture/payable2.sol\":1541:1642  function checkValueNow() public{... */\n    tag_16:\n        /* \"lecture/payable2.sol\":1588:1634  MyCurrentValue(msg.sender, msg.sender.balance) */\n      0x96f3ab567151de7a605db2b427c0e7bd4c402b81f2d24c89b0b92687e0494c15\n        /* \"lecture/payable2.sol\":1603:1613  msg.sender */\n      caller\n        /* \"lecture/payable2.sol\":1615:1625  msg.sender */\n      caller\n        /* \"lecture/payable2.sol\":1615:1633  msg.sender.balance */\n      0xffffffffffffffffffffffffffffffffffffffff\n      and\n      balance\n        /* \"lecture/payable2.sol\":1588:1634  MyCurrentValue(msg.sender, msg.sender.balance) */\n      mload(0x40)\n      tag_33\n      swap3\n      swap2\n      swap1\n      tag_25\n      jump\t// in\n    tag_33:\n      mload(0x40)\n      dup1\n      swap2\n      sub\n      swap1\n      log1\n        /* \"lecture/payable2.sol\":1541:1642  function checkValueNow() public{... */\n      jump\t// out\n        /* \"#utility.yul\":88:205   */\n    tag_35:\n        /* \"#utility.yul\":197:198   */\n      0x00\n        /* \"#utility.yul\":194:195   */\n      dup1\n        /* \"#utility.yul\":187:199   */\n      revert\n        /* \"#utility.yul\":334:460   */\n    tag_37:\n        /* \"#utility.yul\":371:378   */\n      0x00\n        /* \"#utility.yul\":411:453   */\n      0xffffffffffffffffffffffffffffffffffffffff\n        /* \"#utility.yul\":404:409   */\n      dup3\n        /* \"#utility.yul\":400:454   */\n      and\n        /* \"#utility.yul\":389:454   */\n      swap1\n      pop\n        /* \"#utility.yul\":334:460   */\n      swap2\n      swap1\n      pop\n      jump\t// out\n        /* \"#utility.yul\":466:570   */\n    tag_38:\n        /* \"#utility.yul\":511:518   */\n      0x00\n        /* \"#utility.yul\":540:564   */\n      tag_58\n        /* \"#utility.yul\":558:563   */\n      dup3\n        /* \"#utility.yul\":540:564   */\n      tag_37\n      jump\t// in\n    tag_58:\n        /* \"#utility.yul\":529:564   */\n      swap1\n      pop\n        /* \"#utility.yul\":466:570   */\n      swap2\n      swap1\n      pop\n      jump\t// out\n        /* \"#utility.yul\":576:714   */\n    tag_39:\n        /* \"#utility.yul\":657:689   */\n      tag_60\n        /* \"#utility.yul\":683:688   */\n      dup2\n        /* \"#utility.yul\":657:689   */\n      tag_38\n      jump\t// in\n    tag_60:\n        /* \"#utility.yul\":650:655   */\n      dup2\n        /* \"#utility.yul\":647:690   */\n      eq\n        /* \"#utility.yul\":637:708   */\n      tag_61\n      jumpi\n        /* \"#utility.yul\":704:705   */\n      0x00\n        /* \"#utility.yul\":701:702   */\n      dup1\n        /* \"#utility.yul\":694:706   */\n      revert\n        /* \"#utility.yul\":637:708   */\n    tag_61:\n        /* \"#utility.yul\":576:714   */\n      pop\n      jump\t// out\n        /* \"#utility.yul\":720:875   */\n    tag_40:\n        /* \"#utility.yul\":774:779   */\n      0x00\n        /* \"#utility.yul\":812:818   */\n      dup2\n        /* \"#utility.yul\":799:819   */\n      calldataload\n        /* \"#utility.yul\":790:819   */\n      swap1\n      pop\n        /* \"#utility.yul\":828:869   */\n      tag_63\n        /* \"#utility.yul\":863:868   */\n      dup2\n        /* \"#utility.yul\":828:869   */\n      tag_39\n      jump\t// in\n    tag_63:\n        /* \"#utility.yul\":720:875   */\n      swap3\n      swap2\n      pop\n      pop\n      jump\t// out\n        /* \"#utility.yul\":881:1226   */\n    tag_7:\n        /* \"#utility.yul\":948:954   */\n      0x00\n        /* \"#utility.yul\":997:999   */\n      0x20\n        /* \"#utility.yul\":985:994   */\n      dup3\n        /* \"#utility.yul\":976:983   */\n      dup5\n        /* \"#utility.yul\":972:995   */\n      sub\n        /* \"#utility.yul\":968:1000   */\n      slt\n        /* \"#utility.yul\":965:1084   */\n      iszero\n      tag_65\n      jumpi\n        /* \"#utility.yul\":1003:1082   */\n      tag_66\n      tag_35\n      jump\t// in\n    tag_66:\n        /* \"#utility.yul\":965:1084   */\n    tag_65:\n        /* \"#utility.yul\":1123:1124   */\n      0x00\n        /* \"#utility.yul\":1148:1209   */\n      tag_67\n        /* \"#utility.yul\":1201:1208   */\n      dup5\n        /* \"#utility.yul\":1192:1198   */\n      dup3\n        /* \"#utility.yul\":1181:1190   */\n      dup6\n        /* \"#utility.yul\":1177:1199   */\n      add\n        /* \"#utility.yul\":1148:1209   */\n      tag_40\n      jump\t// in\n    tag_67:\n        /* \"#utility.yul\":1138:1209   */\n      swap2\n      pop\n        /* \"#utility.yul\":1094:1219   */\n      pop\n        /* \"#utility.yul\":881:1226   */\n      swap3\n      swap2\n      pop\n      pop\n      jump\t// out\n        /* \"#utility.yul\":1232:1328   */\n    tag_41:\n        /* \"#utility.yul\":1269:1276   */\n      0x00\n        /* \"#utility.yul\":1298:1322   */\n      tag_69\n        /* \"#utility.yul\":1316:1321   */\n      dup3\n        /* \"#utility.yul\":1298:1322   */\n      tag_37\n      jump\t// in\n    tag_69:\n        /* \"#utility.yul\":1287:1322   */\n      swap1\n      pop\n        /* \"#utility.yul\":1232:1328   */\n      swap2\n      swap1\n      pop\n      jump\t// out\n        /* \"#utility.yul\":1334:1456   */\n    tag_42:\n        /* \"#utility.yul\":1407:1431   */\n      tag_71\n        /* \"#utility.yul\":1425:1430   */\n      dup2\n        /* \"#utility.yul\":1407:1431   */\n      tag_41\n      jump\t// in\n    tag_71:\n        /* \"#utility.yul\":1400:1405   */\n      dup2\n        /* \"#utility.yul\":1397:1432   */\n      eq\n        /* \"#utility.yul\":1387:1450   */\n      tag_72\n      jumpi\n        /* \"#utility.yul\":1446:1447   */\n      0x00\n        /* \"#utility.yul\":1443:1444   */\n      dup1\n        /* \"#utility.yul\":1436:1448   */\n      revert\n        /* \"#utility.yul\":1387:1450   */\n    tag_72:\n        /* \"#utility.yul\":1334:1456   */\n      pop\n      jump\t// out\n        /* \"#utility.yul\":1462:1601   */\n    tag_43:\n        /* \"#utility.yul\":1508:1513   */\n      0x00\n        /* \"#utility.yul\":1546:1552   */\n      dup2\n        /* \"#utility.yul\":1533:1553   */\n      calldataload\n        /* \"#utility.yul\":1524:1553   */\n      swap1\n      pop\n        /* \"#utility.yul\":1562:1595   */\n      tag_74\n        /* \"#utility.yul\":1589:1594   */\n      dup2\n        /* \"#utility.yul\":1562:1595   */\n      tag_42\n      jump\t// in\n    tag_74:\n        /* \"#utility.yul\":1462:1601   */\n      swap3\n      swap2\n      pop\n      pop\n      jump\t// out\n        /* \"#utility.yul\":1607:1936   */\n    tag_12:\n        /* \"#utility.yul\":1666:1672   */\n      0x00\n        /* \"#utility.yul\":1715:1717   */\n      0x20\n        /* \"#utility.yul\":1703:1712   */\n      dup3\n        /* \"#utility.yul\":1694:1701   */\n      dup5\n        /* \"#utility.yul\":1690:1713   */\n      sub\n        /* \"#utility.yul\":1686:1718   */\n      slt\n        /* \"#utility.yul\":1683:1802   */\n      iszero\n      tag_76\n      jumpi\n        /* \"#utility.yul\":1721:1800   */\n      tag_77\n      tag_35\n      jump\t// in\n    tag_77:\n        /* \"#utility.yul\":1683:1802   */\n    tag_76:\n        /* \"#utility.yul\":1841:1842   */\n      0x00\n        /* \"#utility.yul\":1866:1919   */\n      tag_78\n        /* \"#utility.yul\":1911:1918   */\n      dup5\n        /* \"#utility.yul\":1902:1908   */\n      dup3\n        /* \"#utility.yul\":1891:1900   */\n      dup6\n        /* \"#utility.yul\":1887:1909   */\n      add\n        /* \"#utility.yul\":1866:1919   */\n      tag_43\n      jump\t// in\n    tag_78:\n        /* \"#utility.yul\":1856:1919   */\n      swap2\n      pop\n        /* \"#utility.yul\":1812:1929   */\n      pop\n        /* \"#utility.yul\":1607:1936   */\n      swap3\n      swap2\n      pop\n      pop\n      jump\t// out\n        /* \"#utility.yul\":1942:2111   */\n    tag_44:\n        /* \"#utility.yul\":2026:2037   */\n      0x00\n        /* \"#utility.yul\":2060:2066   */\n      dup3\n        /* \"#utility.yul\":2055:2058   */\n      dup3\n        /* \"#utility.yul\":2048:2067   */\n      mstore\n        /* \"#utility.yul\":2100:2104   */\n      0x20\n        /* \"#utility.yul\":2095:2098   */\n      dup3\n        /* \"#utility.yul\":2091:2105   */\n      add\n        /* \"#utility.yul\":2076:2105   */\n      swap1\n      pop\n        /* \"#utility.yul\":1942:2111   */\n      swap3\n      swap2\n      pop\n      pop\n      jump\t// out\n        /* \"#utility.yul\":2117:2293   */\n    tag_45:\n        /* \"#utility.yul\":2257:2285   */\n      0x596f75722062616c616e6365206973206e6f7420656e6f756768000000000000\n        /* \"#utility.yul\":2253:2254   */\n      0x00\n        /* \"#utility.yul\":2245:2251   */\n      dup3\n        /* \"#utility.yul\":2241:2255   */\n      add\n        /* \"#utility.yul\":2234:2286   */\n      mstore\n        /* \"#utility.yul\":2117:2293   */\n      pop\n      jump\t// out\n        /* \"#utility.yul\":2299:2665   */\n    tag_46:\n        /* \"#utility.yul\":2441:2444   */\n      0x00\n        /* \"#utility.yul\":2462:2529   */\n      tag_82\n        /* \"#utility.yul\":2526:2528   */\n      0x1a\n        /* \"#utility.yul\":2521:2524   */\n      dup4\n        /* \"#utility.yul\":2462:2529   */\n      tag_44\n      jump\t// in\n    tag_82:\n        /* \"#utility.yul\":2455:2529   */\n      swap2\n      pop\n        /* \"#utility.yul\":2538:2631   */\n      tag_83\n        /* \"#utility.yul\":2627:2630   */\n      dup3\n        /* \"#utility.yul\":2538:2631   */\n      tag_45\n      jump\t// in\n    tag_83:\n        /* \"#utility.yul\":2656:2658   */\n      0x20\n        /* \"#utility.yul\":2651:2654   */\n      dup3\n        /* \"#utility.yul\":2647:2659   */\n      add\n        /* \"#utility.yul\":2640:2659   */\n      swap1\n      pop\n        /* \"#utility.yul\":2299:2665   */\n      swap2\n      swap1\n      pop\n      jump\t// out\n        /* \"#utility.yul\":2671:3090   */\n    tag_21:\n        /* \"#utility.yul\":2837:2841   */\n      0x00\n        /* \"#utility.yul\":2875:2877   */\n      0x20\n        /* \"#utility.yul\":2864:2873   */\n      dup3\n        /* \"#utility.yul\":2860:2878   */\n      add\n        /* \"#utility.yul\":2852:2878   */\n      swap1\n      pop\n        /* \"#utility.yul\":2924:2933   */\n      dup2\n        /* \"#utility.yul\":2918:2922   */\n      dup2\n        /* \"#utility.yul\":2914:2934   */\n      sub\n        /* \"#utility.yul\":2910:2911   */\n      0x00\n        /* \"#utility.yul\":2899:2908   */\n      dup4\n        /* \"#utility.yul\":2895:2912   */\n      add\n        /* \"#utility.yul\":2888:2935   */\n      mstore\n        /* \"#utility.yul\":2952:3083   */\n      tag_85\n        /* \"#utility.yul\":3078:3082   */\n      dup2\n        /* \"#utility.yul\":2952:3083   */\n      tag_46\n      jump\t// in\n    tag_85:\n        /* \"#utility.yul\":2944:3083   */\n      swap1\n      pop\n        /* \"#utility.yul\":2671:3090   */\n      swap2\n      swap1\n      pop\n      jump\t// out\n        /* \"#utility.yul\":3096:3214   */\n    tag_47:\n        /* \"#utility.yul\":3183:3207   */\n      tag_87\n        /* \"#utility.yul\":3201:3206   */\n      dup2\n        /* \"#utility.yul\":3183:3207   */\n      tag_41\n      jump\t// in\n    tag_87:\n        /* \"#utility.yul\":3178:3181   */\n      dup3\n        /* \"#utility.yul\":3171:3208   */\n      mstore\n        /* \"#utility.yul\":3096:3214   */\n      pop\n      pop\n      jump\t// out\n        /* \"#utility.yul\":3220:3297   */\n    tag_48:\n        /* \"#utility.yul\":3257:3264   */\n      0x00\n        /* \"#utility.yul\":3286:3291   */\n      dup2\n        /* \"#utility.yul\":3275:3291   */\n      swap1\n      pop\n        /* \"#utility.yul\":3220:3297   */\n      swap2\n      swap1\n      pop\n      jump\t// out\n        /* \"#utility.yul\":3303:3421   */\n    tag_49:\n        /* \"#utility.yul\":3390:3414   */\n      tag_90\n        /* \"#utility.yul\":3408:3413   */\n      dup2\n        /* \"#utility.yul\":3390:3414   */\n      tag_48\n      jump\t// in\n    tag_90:\n        /* \"#utility.yul\":3385:3388   */\n      dup3\n        /* \"#utility.yul\":3378:3415   */\n      mstore\n        /* \"#utility.yul\":3303:3421   */\n      pop\n      pop\n      jump\t// out\n        /* \"#utility.yul\":3427:3759   */\n    tag_25:\n        /* \"#utility.yul\":3548:3552   */\n      0x00\n        /* \"#utility.yul\":3586:3588   */\n      0x40\n        /* \"#utility.yul\":3575:3584   */\n      dup3\n        /* \"#utility.yul\":3571:3589   */\n      add\n        /* \"#utility.yul\":3563:3589   */\n      swap1\n      pop\n        /* \"#utility.yul\":3599:3670   */\n      tag_92\n        /* \"#utility.yul\":3667:3668   */\n      0x00\n        /* \"#utility.yul\":3656:3665   */\n      dup4\n        /* \"#utility.yul\":3652:3669   */\n      add\n        /* \"#utility.yul\":3643:3649   */\n      dup6\n        /* \"#utility.yul\":3599:3670   */\n      tag_47\n      jump\t// in\n    tag_92:\n        /* \"#utility.yul\":3680:3752   */\n      tag_93\n        /* \"#utility.yul\":3748:3750   */\n      0x20\n        /* \"#utility.yul\":3737:3746   */\n      dup4\n        /* \"#utility.yul\":3733:3751   */\n      add\n        /* \"#utility.yul\":3724:3730   */\n      dup5\n        /* \"#utility.yul\":3680:3752   */\n      tag_49\n      jump\t// in\n    tag_93:\n        /* \"#utility.yul\":3427:3759   */\n      swap4\n      swap3\n      pop\n      pop\n      pop\n      jump\t// out\n        /* \"#utility.yul\":3765:3926   */\n    tag_50:\n        /* \"#utility.yul\":3905:3918   */\n      0x4f6e6c79204f776e657221000000000000000000000000000000000000000000\n        /* \"#utility.yul\":3901:3902   */\n      0x00\n        /* \"#utility.yul\":3893:3899   */\n      dup3\n        /* \"#utility.yul\":3889:3903   */\n      add\n        /* \"#utility.yul\":3882:3919   */\n      mstore\n        /* \"#utility.yul\":3765:3926   */\n      pop\n      jump\t// out\n        /* \"#utility.yul\":3932:4298   */\n    tag_51:\n        /* \"#utility.yul\":4074:4077   */\n      0x00\n        /* \"#utility.yul\":4095:4162   */\n      tag_96\n        /* \"#utility.yul\":4159:4161   */\n      0x0b\n        /* \"#utility.yul\":4154:4157   */\n      dup4\n        /* \"#utility.yul\":4095:4162   */\n      tag_44\n      jump\t// in\n    tag_96:\n        /* \"#utility.yul\":4088:4162   */\n      swap2\n      pop\n        /* \"#utility.yul\":4171:4264   */\n      tag_97\n        /* \"#utility.yul\":4260:4263   */\n      dup3\n        /* \"#utility.yul\":4171:4264   */\n      tag_50\n      jump\t// in\n    tag_97:\n        /* \"#utility.yul\":4289:4291   */\n      0x20\n        /* \"#utility.yul\":4284:4287   */\n      dup3\n        /* \"#utility.yul\":4280:4292   */\n      add\n        /* \"#utility.yul\":4273:4292   */\n      swap1\n      pop\n        /* \"#utility.yul\":3932:4298   */\n      swap2\n      swap1\n      pop\n      jump\t// out\n        /* \"#utility.yul\":4304:4723   */\n    tag_28:\n        /* \"#utility.yul\":4470:4474   */\n      0x00\n        /* \"#utility.yul\":4508:4510   */\n      0x20\n        /* \"#utility.yul\":4497:4506   */\n      dup3\n        /* \"#utility.yul\":4493:4511   */\n      add\n        /* \"#utility.yul\":4485:4511   */\n      swap1\n      pop\n        /* \"#utility.yul\":4557:4566   */\n      dup2\n        /* \"#utility.yul\":4551:4555   */\n      dup2\n        /* \"#utility.yul\":4547:4567   */\n      sub\n        /* \"#utility.yul\":4543:4544   */\n      0x00\n        /* \"#utility.yul\":4532:4541   */\n      dup4\n        /* \"#utility.yul\":4528:4545   */\n      add\n        /* \"#utility.yul\":4521:4568   */\n      mstore\n        /* \"#utility.yul\":4585:4716   */\n      tag_99\n        /* \"#utility.yul\":4711:4715   */\n      dup2\n        /* \"#utility.yul\":4585:4716   */\n      tag_51\n      jump\t// in\n    tag_99:\n        /* \"#utility.yul\":4577:4716   */\n      swap1\n      pop\n        /* \"#utility.yul\":4304:4723   */\n      swap2\n      swap1\n      pop\n      jump\t// out\n        /* \"#utility.yul\":4729:5171   */\n    tag_31:\n        /* \"#utility.yul\":4878:4882   */\n      0x00\n        /* \"#utility.yul\":4916:4918   */\n      0x60\n        /* \"#utility.yul\":4905:4914   */\n      dup3\n        /* \"#utility.yul\":4901:4919   */\n      add\n        /* \"#utility.yul\":4893:4919   */\n      swap1\n      pop\n        /* \"#utility.yul\":4929:5000   */\n      tag_101\n        /* \"#utility.yul\":4997:4998   */\n      0x00\n        /* \"#utility.yul\":4986:4995   */\n      dup4\n        /* \"#utility.yul\":4982:4999   */\n      add\n        /* \"#utility.yul\":4973:4979   */\n      dup7\n        /* \"#utility.yul\":4929:5000   */\n      tag_47\n      jump\t// in\n    tag_101:\n        /* \"#utility.yul\":5010:5082   */\n      tag_102\n        /* \"#utility.yul\":5078:5080   */\n      0x20\n        /* \"#utility.yul\":5067:5076   */\n      dup4\n        /* \"#utility.yul\":5063:5081   */\n      add\n        /* \"#utility.yul\":5054:5060   */\n      dup6\n        /* \"#utility.yul\":5010:5082   */\n      tag_47\n      jump\t// in\n    tag_102:\n        /* \"#utility.yul\":5092:5164   */\n      tag_103\n        /* \"#utility.yul\":5160:5162   */\n      0x40\n        /* \"#utility.yul\":5149:5158   */\n      dup4\n        /* \"#utility.yul\":5145:5163   */\n      add\n        /* \"#utility.yul\":5136:5142   */\n      dup5\n        /* \"#utility.yul\":5092:5164   */\n      tag_49\n      jump\t// in\n    tag_103:\n        /* \"#utility.yul\":4729:5171   */\n      swap5\n      swap4\n      pop\n      pop\n      pop\n      pop\n      jump\t// out\n\n    auxdata: 0xa2646970667358221220c0715411beaab88d375f25f86a7cb5830f42175a431e676d8122b6e84d0b305464736f6c634300080d0033\n}\n",
				"bytecode": {
					"linkReferences": {},
					"object": "6080604052336000806101000a81548173ffffffffffffffffffffffffffffffffffffffff021916908373ffffffffffffffffffffffffffffffffffffffff160217905550610560806100536000396000f3fe6080604052600436106100345760003560e01c806348c981e2146100395780639d42741314610055578063c776b4df1461007e575b600080fd5b610053600480360381019061004e9190610321565b610095565b005b34801561006157600080fd5b5061007c6004803603810190610077919061038c565b610217565b005b34801561008a57600080fd5b5061009361026c565b005b343373ffffffffffffffffffffffffffffffffffffffff163110156100ef576040517f08c379a00000000000000000000000000000000000000000000000000000000081526004016100e690610416565b60405180910390fd5b8073ffffffffffffffffffffffffffffffffffffffff166108fc349081150290604051600060405180830381858888f19350505050158015610135573d6000803e3d6000fd5b507fef3d45e3976629248ff5a27c6e07e8c80013b2b1f46611f16ebf46c6bf09be29333373ffffffffffffffffffffffffffffffffffffffff163160405161017e92919061045e565b60405180910390a160008054906101000a900473ffffffffffffffffffffffffffffffffffffffff1673ffffffffffffffffffffffffffffffffffffffff163373ffffffffffffffffffffffffffffffffffffffff1614610214576040517f08c379a000000000000000000000000000000000000000000000000000000000815260040161020b906104d3565b60405180910390fd5b50565b7fbce456ac206bf5f267f4accbf956229979251e867ffc3fb45ca938fc6a27a44033828373ffffffffffffffffffffffffffffffffffffffff1631604051610261939291906104f3565b60405180910390a150565b7f96f3ab567151de7a605db2b427c0e7bd4c402b81f2d24c89b0b92687e0494c15333373ffffffffffffffffffffffffffffffffffffffff16316040516102b492919061045e565b60405180910390a1565b600080fd5b600073ffffffffffffffffffffffffffffffffffffffff82169050919050565b60006102ee826102c3565b9050919050565b6102fe816102e3565b811461030957600080fd5b50565b60008135905061031b816102f5565b92915050565b600060208284031215610337576103366102be565b5b60006103458482850161030c565b91505092915050565b6000610359826102c3565b9050919050565b6103698161034e565b811461037457600080fd5b50565b60008135905061038681610360565b92915050565b6000602082840312156103a2576103a16102be565b5b60006103b084828501610377565b91505092915050565b600082825260208201905092915050565b7f596f75722062616c616e6365206973206e6f7420656e6f756768000000000000600082015250565b6000610400601a836103b9565b915061040b826103ca565b602082019050919050565b6000602082019050818103600083015261042f816103f3565b9050919050565b61043f8161034e565b82525050565b6000819050919050565b61045881610445565b82525050565b60006040820190506104736000830185610436565b610480602083018461044f565b9392505050565b7f4f6e6c79204f776e657221000000000000000000000000000000000000000000600082015250565b60006104bd600b836103b9565b91506104c882610487565b602082019050919050565b600060208201905081810360008301526104ec816104b0565b9050919050565b60006060820190506105086000830186610436565b6105156020830185610436565b610522604083018461044f565b94935050505056fea2646970667358221220c0715411beaab88d375f25f86a7cb5830f42175a431e676d8122b6e84d0b305464736f6c634300080d0033",
					"opcodes": "PUSH1 0x80 PUSH1 0x40 MSTORE CALLER PUSH1 0x0 DUP1 PUSH2 0x100 EXP DUP2 SLOAD DUP2 PUSH20 0xFFFFFFFFFFFFFFFFFFFFFFFFFFFFFFFFFFFFFFFF MUL NOT AND SWAP1 DUP4 PUSH20 0xFFFFFFFFFFFFFFFFFFFFFFFFFFFFFFFFFFFFFFFF AND MUL OR SWAP1 SSTORE POP PUSH2 0x560 DUP1 PUSH2 0x53 PUSH1 0x0 CODECOPY PUSH1 0x0 RETURN INVALID PUSH1 0x80 PUSH1 0x40 MSTORE PUSH1 0x4 CALLDATASIZE LT PUSH2 0x34 JUMPI PUSH1 0x0 CALLDATALOAD PUSH1 0xE0 SHR DUP1 PUSH4 0x48C981E2 EQ PUSH2 0x39 JUMPI DUP1 PUSH4 0x9D427413 EQ PUSH2 0x55 JUMPI DUP1 PUSH4 0xC776B4DF EQ PUSH2 0x7E JUMPI JUMPDEST PUSH1 0x0 DUP1 REVERT JUMPDEST PUSH2 0x53 PUSH1 0x4 DUP1 CALLDATASIZE SUB DUP2 ADD SWAP1 PUSH2 0x4E SWAP2 SWAP1 PUSH2 0x321 JUMP JUMPDEST PUSH2 0x95 JUMP JUMPDEST STOP JUMPDEST CALLVALUE DUP1 ISZERO PUSH2 0x61 JUMPI PUSH1 0x0 DUP1 REVERT JUMPDEST POP PUSH2 0x7C PUSH1 0x4 DUP1 CALLDATASIZE SUB DUP2 ADD SWAP1 PUSH2 0x77 SWAP2 SWAP1 PUSH2 0x38C JUMP JUMPDEST PUSH2 0x217 JUMP JUMPDEST STOP JUMPDEST CALLVALUE DUP1 ISZERO PUSH2 0x8A JUMPI PUSH1 0x0 DUP1 REVERT JUMPDEST POP PUSH2 0x93 PUSH2 0x26C JUMP JUMPDEST STOP JUMPDEST CALLVALUE CALLER PUSH20 0xFFFFFFFFFFFFFFFFFFFFFFFFFFFFFFFFFFFFFFFF AND BALANCE LT ISZERO PUSH2 0xEF JUMPI PUSH1 0x40 MLOAD PUSH32 0x8C379A000000000000000000000000000000000000000000000000000000000 DUP2 MSTORE PUSH1 0x4 ADD PUSH2 0xE6 SWAP1 PUSH2 0x416 JUMP JUMPDEST PUSH1 0x40 MLOAD DUP1 SWAP2 SUB SWAP1 REVERT JUMPDEST DUP1 PUSH20 0xFFFFFFFFFFFFFFFFFFFFFFFFFFFFFFFFFFFFFFFF AND PUSH2 0x8FC CALLVALUE SWAP1 DUP2 ISZERO MUL SWAP1 PUSH1 0x40 MLOAD PUSH1 0x0 PUSH1 0x40 MLOAD DUP1 DUP4 SUB DUP2 DUP6 DUP9 DUP9 CALL SWAP4 POP POP POP POP ISZERO DUP1 ISZERO PUSH2 0x135 JUMPI RETURNDATASIZE PUSH1 0x0 DUP1 RETURNDATACOPY RETURNDATASIZE PUSH1 0x0 REVERT JUMPDEST POP PUSH32 0xEF3D45E3976629248FF5A27C6E07E8C80013B2B1F46611F16EBF46C6BF09BE29 CALLER CALLER PUSH20 0xFFFFFFFFFFFFFFFFFFFFFFFFFFFFFFFFFFFFFFFF AND BALANCE PUSH1 0x40 MLOAD PUSH2 0x17E SWAP3 SWAP2 SWAP1 PUSH2 0x45E JUMP JUMPDEST PUSH1 0x40 MLOAD DUP1 SWAP2 SUB SWAP1 LOG1 PUSH1 0x0 DUP1 SLOAD SWAP1 PUSH2 0x100 EXP SWAP1 DIV PUSH20 0xFFFFFFFFFFFFFFFFFFFFFFFFFFFFFFFFFFFFFFFF AND PUSH20 0xFFFFFFFFFFFFFFFFFFFFFFFFFFFFFFFFFFFFFFFF AND CALLER PUSH20 0xFFFFFFFFFFFFFFFFFFFFFFFFFFFFFFFFFFFFFFFF AND EQ PUSH2 0x214 JUMPI PUSH1 0x40 MLOAD PUSH32 0x8C379A000000000000000000000000000000000000000000000000000000000 DUP2 MSTORE PUSH1 0x4 ADD PUSH2 0x20B SWAP1 PUSH2 0x4D3 JUMP JUMPDEST PUSH1 0x40 MLOAD DUP1 SWAP2 SUB SWAP1 REVERT JUMPDEST POP JUMP JUMPDEST PUSH32 0xBCE456AC206BF5F267F4ACCBF956229979251E867FFC3FB45CA938FC6A27A440 CALLER DUP3 DUP4 PUSH20 0xFFFFFFFFFFFFFFFFFFFFFFFFFFFFFFFFFFFFFFFF AND BALANCE PUSH1 0x40 MLOAD PUSH2 0x261 SWAP4 SWAP3 SWAP2 SWAP1 PUSH2 0x4F3 JUMP JUMPDEST PUSH1 0x40 MLOAD DUP1 SWAP2 SUB SWAP1 LOG1 POP JUMP JUMPDEST PUSH32 0x96F3AB567151DE7A605DB2B427C0E7BD4C402B81F2D24C89B0B92687E0494C15 CALLER CALLER PUSH20 0xFFFFFFFFFFFFFFFFFFFFFFFFFFFFFFFFFFFFFFFF AND BALANCE PUSH1 0x40 MLOAD PUSH2 0x2B4 SWAP3 SWAP2 SWAP1 PUSH2 0x45E JUMP JUMPDEST PUSH1 0x40 MLOAD DUP1 SWAP2 SUB SWAP1 LOG1 JUMP JUMPDEST PUSH1 0x0 DUP1 REVERT JUMPDEST PUSH1 0x0 PUSH20 0xFFFFFFFFFFFFFFFFFFFFFFFFFFFFFFFFFFFFFFFF DUP3 AND SWAP1 POP SWAP2 SWAP1 POP JUMP JUMPDEST PUSH1 0x0 PUSH2 0x2EE DUP3 PUSH2 0x2C3 JUMP JUMPDEST SWAP1 POP SWAP2 SWAP1 POP JUMP JUMPDEST PUSH2 0x2FE DUP2 PUSH2 0x2E3 JUMP JUMPDEST DUP2 EQ PUSH2 0x309 JUMPI PUSH1 0x0 DUP1 REVERT JUMPDEST POP JUMP JUMPDEST PUSH1 0x0 DUP2 CALLDATALOAD SWAP1 POP PUSH2 0x31B DUP2 PUSH2 0x2F5 JUMP JUMPDEST SWAP3 SWAP2 POP POP JUMP JUMPDEST PUSH1 0x0 PUSH1 0x20 DUP3 DUP5 SUB SLT ISZERO PUSH2 0x337 JUMPI PUSH2 0x336 PUSH2 0x2BE JUMP JUMPDEST JUMPDEST PUSH1 0x0 PUSH2 0x345 DUP5 DUP3 DUP6 ADD PUSH2 0x30C JUMP JUMPDEST SWAP2 POP POP SWAP3 SWAP2 POP POP JUMP JUMPDEST PUSH1 0x0 PUSH2 0x359 DUP3 PUSH2 0x2C3 JUMP JUMPDEST SWAP1 POP SWAP2 SWAP1 POP JUMP JUMPDEST PUSH2 0x369 DUP2 PUSH2 0x34E JUMP JUMPDEST DUP2 EQ PUSH2 0x374 JUMPI PUSH1 0x0 DUP1 REVERT JUMPDEST POP JUMP JUMPDEST PUSH1 0x0 DUP2 CALLDATALOAD SWAP1 POP PUSH2 0x386 DUP2 PUSH2 0x360 JUMP JUMPDEST SWAP3 SWAP2 POP POP JUMP JUMPDEST PUSH1 0x0 PUSH1 0x20 DUP3 DUP5 SUB SLT ISZERO PUSH2 0x3A2 JUMPI PUSH2 0x3A1 PUSH2 0x2BE JUMP JUMPDEST JUMPDEST PUSH1 0x0 PUSH2 0x3B0 DUP5 DUP3 DUP6 ADD PUSH2 0x377 JUMP JUMPDEST SWAP2 POP POP SWAP3 SWAP2 POP POP JUMP JUMPDEST PUSH1 0x0 DUP3 DUP3 MSTORE PUSH1 0x20 DUP3 ADD SWAP1 POP SWAP3 SWAP2 POP POP JUMP JUMPDEST PUSH32 0x596F75722062616C616E6365206973206E6F7420656E6F756768000000000000 PUSH1 0x0 DUP3 ADD MSTORE POP JUMP JUMPDEST PUSH1 0x0 PUSH2 0x400 PUSH1 0x1A DUP4 PUSH2 0x3B9 JUMP JUMPDEST SWAP2 POP PUSH2 0x40B DUP3 PUSH2 0x3CA JUMP JUMPDEST PUSH1 0x20 DUP3 ADD SWAP1 POP SWAP2 SWAP1 POP JUMP JUMPDEST PUSH1 0x0 PUSH1 0x20 DUP3 ADD SWAP1 POP DUP2 DUP2 SUB PUSH1 0x0 DUP4 ADD MSTORE PUSH2 0x42F DUP2 PUSH2 0x3F3 JUMP JUMPDEST SWAP1 POP SWAP2 SWAP1 POP JUMP JUMPDEST PUSH2 0x43F DUP2 PUSH2 0x34E JUMP JUMPDEST DUP3 MSTORE POP POP JUMP JUMPDEST PUSH1 0x0 DUP2 SWAP1 POP SWAP2 SWAP1 POP JUMP JUMPDEST PUSH2 0x458 DUP2 PUSH2 0x445 JUMP JUMPDEST DUP3 MSTORE POP POP JUMP JUMPDEST PUSH1 0x0 PUSH1 0x40 DUP3 ADD SWAP1 POP PUSH2 0x473 PUSH1 0x0 DUP4 ADD DUP6 PUSH2 0x436 JUMP JUMPDEST PUSH2 0x480 PUSH1 0x20 DUP4 ADD DUP5 PUSH2 0x44F JUMP JUMPDEST SWAP4 SWAP3 POP POP POP JUMP JUMPDEST PUSH32 0x4F6E6C79204F776E657221000000000000000000000000000000000000000000 PUSH1 0x0 DUP3 ADD MSTORE POP JUMP JUMPDEST PUSH1 0x0 PUSH2 0x4BD PUSH1 0xB DUP4 PUSH2 0x3B9 JUMP JUMPDEST SWAP2 POP PUSH2 0x4C8 DUP3 PUSH2 0x487 JUMP JUMPDEST PUSH1 0x20 DUP3 ADD SWAP1 POP SWAP2 SWAP1 POP JUMP JUMPDEST PUSH1 0x0 PUSH1 0x20 DUP3 ADD SWAP1 POP DUP2 DUP2 SUB PUSH1 0x0 DUP4 ADD MSTORE PUSH2 0x4EC DUP2 PUSH2 0x4B0 JUMP JUMPDEST SWAP1 POP SWAP2 SWAP1 POP JUMP JUMPDEST PUSH1 0x0 PUSH1 0x60 DUP3 ADD SWAP1 POP PUSH2 0x508 PUSH1 0x0 DUP4 ADD DUP7 PUSH2 0x436 JUMP JUMPDEST PUSH2 0x515 PUSH1 0x20 DUP4 ADD DUP6 PUSH2 0x436 JUMP JUMPDEST PUSH2 0x522 PUSH1 0x40 DUP4 ADD DUP5 PUSH2 0x44F JUMP JUMPDEST SWAP5 SWAP4 POP POP POP POP JUMP INVALID LOG2 PUSH5 0x6970667358 0x22 SLT KECCAK256 0xC0 PUSH18 0x5411BEAAB88D375F25F86A7CB5830F42175A NUMBER 0x1E PUSH8 0x6D8122B6E84D0B30 SLOAD PUSH5 0x736F6C6343 STOP ADDMOD 0xD STOP CALLER "
				},
				"gasEstimates": {
					"creation": {
						"codeDepositCost": "275200",
						"executionCost": "24554",
						"totalCost": "299754"
					},
					"external": {
						"checkUserMoney(address)": "infinite",
						"checkValueNow()": "4369",
						"sendEther(address)": "infinite"
					}
				},
				"methodIdentifiers": {
					"checkUserMoney(address)": "9d427413",
					"checkValueNow()": "c776b4df",
					"sendEther(address)": "48c981e2"
				}
			},
			"userdoc": {
				"kind": "user",
				"methods": {},
				"version": 1
			}
		}
	}
}