{
	"data": {
		"bytecode": {
			"linkReferences": {},
			"object": "608060405260405180606001604052806040518060400160405280600381526020017f4b616c000000000000000000000000000000000000000000000000000000000081525081526020016040518060400160405280600481526020017f4a686f6e0000000000000000000000000000000000000000000000000000000081525081526020016040518060400160405280600581526020017f4b65727269000000000000000000000000000000000000000000000000000000815250815250600b9060036100ce9291906100e1565b503480156100db57600080fd5b506102a8565b828054828255906000526020600020908101928215610130579160200282015b8281111561012f57825182908051906020019061011f929190610141565b5091602001919060010190610101565b5b50905061013d91906101c7565b5090565b82805461014d90610277565b90600052602060002090601f01602090048101928261016f57600085556101b6565b82601f1061018857805160ff19168380011785556101b6565b828001600101855582156101b6579182015b828111156101b557825182559160200191906001019061019a565b5b5090506101c391906101eb565b5090565b5b808211156101e757600081816101de9190610208565b506001016101c8565b5090565b5b808211156102045760008160009055506001016101ec565b5090565b50805461021490610277565b6000825580601f106102265750610245565b601f01602090049060005260206000209081019061024491906101eb565b5b50565b7f4e487b7100000000000000000000000000000000000000000000000000000000600052602260045260246000fd5b6000600282049050600182168061028f57607f821691505b6020821081036102a2576102a1610248565b5b50919050565b610615806102b76000396000f3fe608060405234801561001057600080fd5b50600436106100935760003560e01c8063989537231161006657806398953723146101445780639beb77d014610160578063c1375ce81461017c578063cfcc827b14610186578063ee5030af146101b657610093565b806338c9548b1461009857806352c8fcfd146100c85780636ac48092146100e45780637847c27714610114575b600080fd5b6100b260048036038101906100ad91906103cf565b6101d4565b6040516100bf919061040b565b60405180910390f35b6100e260048036038101906100dd91906103cf565b6101fb565b005b6100fe60048036038101906100f991906103cf565b610227565b60405161010b919061040b565b60405180910390f35b61012e600480360381019061012991906103cf565b610242565b60405161013b919061040b565b60405180910390f35b61015e60048036038101906101599190610426565b610266565b005b61017a600480360381019061017591906103cf565b61028d565b005b6101846102b2565b005b6101a0600480360381019061019b91906103cf565b6102dc565b6040516101ad91906104ff565b60405180910390f35b6101be610388565b6040516101cb919061040b565b60405180910390f35b60008082815481106101e9576101e8610521565b5b90600052602060002001549050919050565b600081908060018154018082558091505060019003906000526020600020016000909190919091505550565b600181600a811061023757600080fd5b016000915090505481565b6000818154811061025257600080fd5b906000526020600020016000915090505481565b806000838154811061027b5761027a610521565b5b90600052602060002001819055505050565b600081815481106102a1576102a0610521565b5b906000526020600020016000905550565b60008054806102c4576102c3610550565b5b60019003818190600052602060002001600090559055565b600b81815481106102ec57600080fd5b906000526020600020016000915090508054610307906105ae565b80601f0160208091040260200160405190810160405280929190818152602001828054610333906105ae565b80156103805780601f1061035557610100808354040283529160200191610380565b820191906000526020600020905b81548152906001019060200180831161036357829003601f168201915b505050505081565b60008080549050905090565b600080fd5b6000819050919050565b6103ac81610399565b81146103b757600080fd5b50565b6000813590506103c9816103a3565b92915050565b6000602082840312156103e5576103e4610394565b5b60006103f3848285016103ba565b91505092915050565b61040581610399565b82525050565b600060208201905061042060008301846103fc565b92915050565b6000806040838503121561043d5761043c610394565b5b600061044b858286016103ba565b925050602061045c858286016103ba565b9150509250929050565b600081519050919050565b600082825260208201905092915050565b60005b838110156104a0578082015181840152602081019050610485565b838111156104af576000848401525b50505050565b6000601f19601f8301169050919050565b60006104d182610466565b6104db8185610471565b93506104eb818560208601610482565b6104f4816104b5565b840191505092915050565b6000602082019050818103600083015261051981846104c6565b905092915050565b7f4e487b7100000000000000000000000000000000000000000000000000000000600052603260045260246000fd5b7f4e487b7100000000000000000000000000000000000000000000000000000000600052603160045260246000fd5b7f4e487b7100000000000000000000000000000000000000000000000000000000600052602260045260246000fd5b600060028204905060018216806105c657607f821691505b6020821081036105d9576105d861057f565b5b5091905056fea2646970667358221220edee303a269a55ef86d7e07e175568f7985959e26d1b7d56360bb1701b155e9864736f6c634300080d0033",
			"opcodes": "PUSH1 0x80 PUSH1 0x40 MSTORE PUSH1 0x40 MLOAD DUP1 PUSH1 0x60 ADD PUSH1 0x40 MSTORE DUP1 PUSH1 0x40 MLOAD DUP1 PUSH1 0x40 ADD PUSH1 0x40 MSTORE DUP1 PUSH1 0x3 DUP2 MSTORE PUSH1 0x20 ADD PUSH32 0x4B616C0000000000000000000000000000000000000000000000000000000000 DUP2 MSTORE POP DUP2 MSTORE PUSH1 0x20 ADD PUSH1 0x40 MLOAD DUP1 PUSH1 0x40 ADD PUSH1 0x40 MSTORE DUP1 PUSH1 0x4 DUP2 MSTORE PUSH1 0x20 ADD PUSH32 0x4A686F6E00000000000000000000000000000000000000000000000000000000 DUP2 MSTORE POP DUP2 MSTORE PUSH1 0x20 ADD PUSH1 0x40 MLOAD DUP1 PUSH1 0x40 ADD PUSH1 0x40 MSTORE DUP1 PUSH1 0x5 DUP2 MSTORE PUSH1 0x20 ADD PUSH32 0x4B65727269000000000000000000000000000000000000000000000000000000 DUP2 MSTORE POP DUP2 MSTORE POP PUSH1 0xB SWAP1 PUSH1 0x3 PUSH2 0xCE SWAP3 SWAP2 SWAP1 PUSH2 0xE1 JUMP JUMPDEST POP CALLVALUE DUP1 ISZERO PUSH2 0xDB JUMPI PUSH1 0x0 DUP1 REVERT JUMPDEST POP PUSH2 0x2A8 JUMP JUMPDEST DUP3 DUP1 SLOAD DUP3 DUP3 SSTORE SWAP1 PUSH1 0x0 MSTORE PUSH1 0x20 PUSH1 0x0 KECCAK256 SWAP1 DUP2 ADD SWAP3 DUP3 ISZERO PUSH2 0x130 JUMPI SWAP2 PUSH1 0x20 MUL DUP3 ADD JUMPDEST DUP3 DUP2 GT ISZERO PUSH2 0x12F JUMPI DUP3 MLOAD DUP3 SWAP1 DUP1 MLOAD SWAP1 PUSH1 0x20 ADD SWAP1 PUSH2 0x11F SWAP3 SWAP2 SWAP1 PUSH2 0x141 JUMP JUMPDEST POP SWAP2 PUSH1 0x20 ADD SWAP2 SWAP1 PUSH1 0x1 ADD SWAP1 PUSH2 0x101 JUMP JUMPDEST JUMPDEST POP SWAP1 POP PUSH2 0x13D SWAP2 SWAP1 PUSH2 0x1C7 JUMP JUMPDEST POP SWAP1 JUMP JUMPDEST DUP3 DUP1 SLOAD PUSH2 0x14D SWAP1 PUSH2 0x277 JUMP JUMPDEST SWAP1 PUSH1 0x0 MSTORE PUSH1 0x20 PUSH1 0x0 KECCAK256 SWAP1 PUSH1 0x1F ADD PUSH1 0x20 SWAP1 DIV DUP2 ADD SWAP3 DUP3 PUSH2 0x16F JUMPI PUSH1 0x0 DUP6 SSTORE PUSH2 0x1B6 JUMP JUMPDEST DUP3 PUSH1 0x1F LT PUSH2 0x188 JUMPI DUP1 MLOAD PUSH1 0xFF NOT AND DUP4 DUP1 ADD OR DUP6 SSTORE PUSH2 0x1B6 JUMP JUMPDEST DUP3 DUP1 ADD PUSH1 0x1 ADD DUP6 SSTORE DUP3 ISZERO PUSH2 0x1B6 JUMPI SWAP2 DUP3 ADD JUMPDEST DUP3 DUP2 GT ISZERO PUSH2 0x1B5 JUMPI DUP3 MLOAD DUP3 SSTORE SWAP2 PUSH1 0x20 ADD SWAP2 SWAP1 PUSH1 0x1 ADD SWAP1 PUSH2 0x19A JUMP JUMPDEST JUMPDEST POP SWAP1 POP PUSH2 0x1C3 SWAP2 SWAP1 PUSH2 0x1EB JUMP JUMPDEST POP SWAP1 JUMP JUMPDEST JUMPDEST DUP1 DUP3 GT ISZERO PUSH2 0x1E7 JUMPI PUSH1 0x0 DUP2 DUP2 PUSH2 0x1DE SWAP2 SWAP1 PUSH2 0x208 JUMP JUMPDEST POP PUSH1 0x1 ADD PUSH2 0x1C8 JUMP JUMPDEST POP SWAP1 JUMP JUMPDEST JUMPDEST DUP1 DUP3 GT ISZERO PUSH2 0x204 JUMPI PUSH1 0x0 DUP2 PUSH1 0x0 SWAP1 SSTORE POP PUSH1 0x1 ADD PUSH2 0x1EC JUMP JUMPDEST POP SWAP1 JUMP JUMPDEST POP DUP1 SLOAD PUSH2 0x214 SWAP1 PUSH2 0x277 JUMP JUMPDEST PUSH1 0x0 DUP3 SSTORE DUP1 PUSH1 0x1F LT PUSH2 0x226 JUMPI POP PUSH2 0x245 JUMP JUMPDEST PUSH1 0x1F ADD PUSH1 0x20 SWAP1 DIV SWAP1 PUSH1 0x0 MSTORE PUSH1 0x20 PUSH1 0x0 KECCAK256 SWAP1 DUP2 ADD SWAP1 PUSH2 0x244 SWAP2 SWAP1 PUSH2 0x1EB JUMP JUMPDEST JUMPDEST POP JUMP JUMPDEST PUSH32 0x4E487B7100000000000000000000000000000000000000000000000000000000 PUSH1 0x0 MSTORE PUSH1 0x22 PUSH1 0x4 MSTORE PUSH1 0x24 PUSH1 0x0 REVERT JUMPDEST PUSH1 0x0 PUSH1 0x2 DUP3 DIV SWAP1 POP PUSH1 0x1 DUP3 AND DUP1 PUSH2 0x28F JUMPI PUSH1 0x7F DUP3 AND SWAP2 POP JUMPDEST PUSH1 0x20 DUP3 LT DUP2 SUB PUSH2 0x2A2 JUMPI PUSH2 0x2A1 PUSH2 0x248 JUMP JUMPDEST JUMPDEST POP SWAP2 SWAP1 POP JUMP JUMPDEST PUSH2 0x615 DUP1 PUSH2 0x2B7 PUSH1 0x0 CODECOPY PUSH1 0x0 RETURN INVALID PUSH1 0x80 PUSH1 0x40 MSTORE CALLVALUE DUP1 ISZERO PUSH2 0x10 JUMPI PUSH1 0x0 DUP1 REVERT JUMPDEST POP PUSH1 0x4 CALLDATASIZE LT PUSH2 0x93 JUMPI PUSH1 0x0 CALLDATALOAD PUSH1 0xE0 SHR DUP1 PUSH4 0x98953723 GT PUSH2 0x66 JUMPI DUP1 PUSH4 0x98953723 EQ PUSH2 0x144 JUMPI DUP1 PUSH4 0x9BEB77D0 EQ PUSH2 0x160 JUMPI DUP1 PUSH4 0xC1375CE8 EQ PUSH2 0x17C JUMPI DUP1 PUSH4 0xCFCC827B EQ PUSH2 0x186 JUMPI DUP1 PUSH4 0xEE5030AF EQ PUSH2 0x1B6 JUMPI PUSH2 0x93 JUMP JUMPDEST DUP1 PUSH4 0x38C9548B EQ PUSH2 0x98 JUMPI DUP1 PUSH4 0x52C8FCFD EQ PUSH2 0xC8 JUMPI DUP1 PUSH4 0x6AC48092 EQ PUSH2 0xE4 JUMPI DUP1 PUSH4 0x7847C277 EQ PUSH2 0x114 JUMPI JUMPDEST PUSH1 0x0 DUP1 REVERT JUMPDEST PUSH2 0xB2 PUSH1 0x4 DUP1 CALLDATASIZE SUB DUP2 ADD SWAP1 PUSH2 0xAD SWAP2 SWAP1 PUSH2 0x3CF JUMP JUMPDEST PUSH2 0x1D4 JUMP JUMPDEST PUSH1 0x40 MLOAD PUSH2 0xBF SWAP2 SWAP1 PUSH2 0x40B JUMP JUMPDEST PUSH1 0x40 MLOAD DUP1 SWAP2 SUB SWAP1 RETURN JUMPDEST PUSH2 0xE2 PUSH1 0x4 DUP1 CALLDATASIZE SUB DUP2 ADD SWAP1 PUSH2 0xDD SWAP2 SWAP1 PUSH2 0x3CF JUMP JUMPDEST PUSH2 0x1FB JUMP JUMPDEST STOP JUMPDEST PUSH2 0xFE PUSH1 0x4 DUP1 CALLDATASIZE SUB DUP2 ADD SWAP1 PUSH2 0xF9 SWAP2 SWAP1 PUSH2 0x3CF JUMP JUMPDEST PUSH2 0x227 JUMP JUMPDEST PUSH1 0x40 MLOAD PUSH2 0x10B SWAP2 SWAP1 PUSH2 0x40B JUMP JUMPDEST PUSH1 0x40 MLOAD DUP1 SWAP2 SUB SWAP1 RETURN JUMPDEST PUSH2 0x12E PUSH1 0x4 DUP1 CALLDATASIZE SUB DUP2 ADD SWAP1 PUSH2 0x129 SWAP2 SWAP1 PUSH2 0x3CF JUMP JUMPDEST PUSH2 0x242 JUMP JUMPDEST PUSH1 0x40 MLOAD PUSH2 0x13B SWAP2 SWAP1 PUSH2 0x40B JUMP JUMPDEST PUSH1 0x40 MLOAD DUP1 SWAP2 SUB SWAP1 RETURN JUMPDEST PUSH2 0x15E PUSH1 0x4 DUP1 CALLDATASIZE SUB DUP2 ADD SWAP1 PUSH2 0x159 SWAP2 SWAP1 PUSH2 0x426 JUMP JUMPDEST PUSH2 0x266 JUMP JUMPDEST STOP JUMPDEST PUSH2 0x17A PUSH1 0x4 DUP1 CALLDATASIZE SUB DUP2 ADD SWAP1 PUSH2 0x175 SWAP2 SWAP1 PUSH2 0x3CF JUMP JUMPDEST PUSH2 0x28D JUMP JUMPDEST STOP JUMPDEST PUSH2 0x184 PUSH2 0x2B2 JUMP JUMPDEST STOP JUMPDEST PUSH2 0x1A0 PUSH1 0x4 DUP1 CALLDATASIZE SUB DUP2 ADD SWAP1 PUSH2 0x19B SWAP2 SWAP1 PUSH2 0x3CF JUMP JUMPDEST PUSH2 0x2DC JUMP JUMPDEST PUSH1 0x40 MLOAD PUSH2 0x1AD SWAP2 SWAP1 PUSH2 0x4FF JUMP JUMPDEST PUSH1 0x40 MLOAD DUP1 SWAP2 SUB SWAP1 RETURN JUMPDEST PUSH2 0x1BE PUSH2 0x388 JUMP JUMPDEST PUSH1 0x40 MLOAD PUSH2 0x1CB SWAP2 SWAP1 PUSH2 0x40B JUMP JUMPDEST PUSH1 0x40 MLOAD DUP1 SWAP2 SUB SWAP1 RETURN JUMPDEST PUSH1 0x0 DUP1 DUP3 DUP2 SLOAD DUP2 LT PUSH2 0x1E9 JUMPI PUSH2 0x1E8 PUSH2 0x521 JUMP JUMPDEST JUMPDEST SWAP1 PUSH1 0x0 MSTORE PUSH1 0x20 PUSH1 0x0 KECCAK256 ADD SLOAD SWAP1 POP SWAP2 SWAP1 POP JUMP JUMPDEST PUSH1 0x0 DUP2 SWAP1 DUP1 PUSH1 0x1 DUP2 SLOAD ADD DUP1 DUP3 SSTORE DUP1 SWAP2 POP POP PUSH1 0x1 SWAP1 SUB SWAP1 PUSH1 0x0 MSTORE PUSH1 0x20 PUSH1 0x0 KECCAK256 ADD PUSH1 0x0 SWAP1 SWAP2 SWAP1 SWAP2 SWAP1 SWAP2 POP SSTORE POP JUMP JUMPDEST PUSH1 0x1 DUP2 PUSH1 0xA DUP2 LT PUSH2 0x237 JUMPI PUSH1 0x0 DUP1 REVERT JUMPDEST ADD PUSH1 0x0 SWAP2 POP SWAP1 POP SLOAD DUP2 JUMP JUMPDEST PUSH1 0x0 DUP2 DUP2 SLOAD DUP2 LT PUSH2 0x252 JUMPI PUSH1 0x0 DUP1 REVERT JUMPDEST SWAP1 PUSH1 0x0 MSTORE PUSH1 0x20 PUSH1 0x0 KECCAK256 ADD PUSH1 0x0 SWAP2 POP SWAP1 POP SLOAD DUP2 JUMP JUMPDEST DUP1 PUSH1 0x0 DUP4 DUP2 SLOAD DUP2 LT PUSH2 0x27B JUMPI PUSH2 0x27A PUSH2 0x521 JUMP JUMPDEST JUMPDEST SWAP1 PUSH1 0x0 MSTORE PUSH1 0x20 PUSH1 0x0 KECCAK256 ADD DUP2 SWAP1 SSTORE POP POP POP JUMP JUMPDEST PUSH1 0x0 DUP2 DUP2 SLOAD DUP2 LT PUSH2 0x2A1 JUMPI PUSH2 0x2A0 PUSH2 0x521 JUMP JUMPDEST JUMPDEST SWAP1 PUSH1 0x0 MSTORE PUSH1 0x20 PUSH1 0x0 KECCAK256 ADD PUSH1 0x0 SWAP1 SSTORE POP JUMP JUMPDEST PUSH1 0x0 DUP1 SLOAD DUP1 PUSH2 0x2C4 JUMPI PUSH2 0x2C3 PUSH2 0x550 JUMP JUMPDEST JUMPDEST PUSH1 0x1 SWAP1 SUB DUP2 DUP2 SWAP1 PUSH1 0x0 MSTORE PUSH1 0x20 PUSH1 0x0 KECCAK256 ADD PUSH1 0x0 SWAP1 SSTORE SWAP1 SSTORE JUMP JUMPDEST PUSH1 0xB DUP2 DUP2 SLOAD DUP2 LT PUSH2 0x2EC JUMPI PUSH1 0x0 DUP1 REVERT JUMPDEST SWAP1 PUSH1 0x0 MSTORE PUSH1 0x20 PUSH1 0x0 KECCAK256 ADD PUSH1 0x0 SWAP2 POP SWAP1 POP DUP1 SLOAD PUSH2 0x307 SWAP1 PUSH2 0x5AE JUMP JUMPDEST DUP1 PUSH1 0x1F ADD PUSH1 0x20 DUP1 SWAP2 DIV MUL PUSH1 0x20 ADD PUSH1 0x40 MLOAD SWAP1 DUP2 ADD PUSH1 0x40 MSTORE DUP1 SWAP3 SWAP2 SWAP1 DUP2 DUP2 MSTORE PUSH1 0x20 ADD DUP3 DUP1 SLOAD PUSH2 0x333 SWAP1 PUSH2 0x5AE JUMP JUMPDEST DUP1 ISZERO PUSH2 0x380 JUMPI DUP1 PUSH1 0x1F LT PUSH2 0x355 JUMPI PUSH2 0x100 DUP1 DUP4 SLOAD DIV MUL DUP4 MSTORE SWAP2 PUSH1 0x20 ADD SWAP2 PUSH2 0x380 JUMP JUMPDEST DUP3 ADD SWAP2 SWAP1 PUSH1 0x0 MSTORE PUSH1 0x20 PUSH1 0x0 KECCAK256 SWAP1 JUMPDEST DUP2 SLOAD DUP2 MSTORE SWAP1 PUSH1 0x1 ADD SWAP1 PUSH1 0x20 ADD DUP1 DUP4 GT PUSH2 0x363 JUMPI DUP3 SWAP1 SUB PUSH1 0x1F AND DUP3 ADD SWAP2 JUMPDEST POP POP POP POP POP DUP2 JUMP JUMPDEST PUSH1 0x0 DUP1 DUP1 SLOAD SWAP1 POP SWAP1 POP SWAP1 JUMP JUMPDEST PUSH1 0x0 DUP1 REVERT JUMPDEST PUSH1 0x0 DUP2 SWAP1 POP SWAP2 SWAP1 POP JUMP JUMPDEST PUSH2 0x3AC DUP2 PUSH2 0x399 JUMP JUMPDEST DUP2 EQ PUSH2 0x3B7 JUMPI PUSH1 0x0 DUP1 REVERT JUMPDEST POP JUMP JUMPDEST PUSH1 0x0 DUP2 CALLDATALOAD SWAP1 POP PUSH2 0x3C9 DUP2 PUSH2 0x3A3 JUMP JUMPDEST SWAP3 SWAP2 POP POP JUMP JUMPDEST PUSH1 0x0 PUSH1 0x20 DUP3 DUP5 SUB SLT ISZERO PUSH2 0x3E5 JUMPI PUSH2 0x3E4 PUSH2 0x394 JUMP JUMPDEST JUMPDEST PUSH1 0x0 PUSH2 0x3F3 DUP5 DUP3 DUP6 ADD PUSH2 0x3BA JUMP JUMPDEST SWAP2 POP POP SWAP3 SWAP2 POP POP JUMP JUMPDEST PUSH2 0x405 DUP2 PUSH2 0x399 JUMP JUMPDEST DUP3 MSTORE POP POP JUMP JUMPDEST PUSH1 0x0 PUSH1 0x20 DUP3 ADD SWAP1 POP PUSH2 0x420 PUSH1 0x0 DUP4 ADD DUP5 PUSH2 0x3FC JUMP JUMPDEST SWAP3 SWAP2 POP POP JUMP JUMPDEST PUSH1 0x0 DUP1 PUSH1 0x40 DUP4 DUP6 SUB SLT ISZERO PUSH2 0x43D JUMPI PUSH2 0x43C PUSH2 0x394 JUMP JUMPDEST JUMPDEST PUSH1 0x0 PUSH2 0x44B DUP6 DUP3 DUP7 ADD PUSH2 0x3BA JUMP JUMPDEST SWAP3 POP POP PUSH1 0x20 PUSH2 0x45C DUP6 DUP3 DUP7 ADD PUSH2 0x3BA JUMP JUMPDEST SWAP2 POP POP SWAP3 POP SWAP3 SWAP1 POP JUMP JUMPDEST PUSH1 0x0 DUP2 MLOAD SWAP1 POP SWAP2 SWAP1 POP JUMP JUMPDEST PUSH1 0x0 DUP3 DUP3 MSTORE PUSH1 0x20 DUP3 ADD SWAP1 POP SWAP3 SWAP2 POP POP JUMP JUMPDEST PUSH1 0x0 JUMPDEST DUP4 DUP2 LT ISZERO PUSH2 0x4A0 JUMPI DUP1 DUP3 ADD MLOAD DUP2 DUP5 ADD MSTORE PUSH1 0x20 DUP2 ADD SWAP1 POP PUSH2 0x485 JUMP JUMPDEST DUP4 DUP2 GT ISZERO PUSH2 0x4AF JUMPI PUSH1 0x0 DUP5 DUP5 ADD MSTORE JUMPDEST POP POP POP POP JUMP JUMPDEST PUSH1 0x0 PUSH1 0x1F NOT PUSH1 0x1F DUP4 ADD AND SWAP1 POP SWAP2 SWAP1 POP JUMP JUMPDEST PUSH1 0x0 PUSH2 0x4D1 DUP3 PUSH2 0x466 JUMP JUMPDEST PUSH2 0x4DB DUP2 DUP6 PUSH2 0x471 JUMP JUMPDEST SWAP4 POP PUSH2 0x4EB DUP2 DUP6 PUSH1 0x20 DUP7 ADD PUSH2 0x482 JUMP JUMPDEST PUSH2 0x4F4 DUP2 PUSH2 0x4B5 JUMP JUMPDEST DUP5 ADD SWAP2 POP POP SWAP3 SWAP2 POP POP JUMP JUMPDEST PUSH1 0x0 PUSH1 0x20 DUP3 ADD SWAP1 POP DUP2 DUP2 SUB PUSH1 0x0 DUP4 ADD MSTORE PUSH2 0x519 DUP2 DUP5 PUSH2 0x4C6 JUMP JUMPDEST SWAP1 POP SWAP3 SWAP2 POP POP JUMP JUMPDEST PUSH32 0x4E487B7100000000000000000000000000000000000000000000000000000000 PUSH1 0x0 MSTORE PUSH1 0x32 PUSH1 0x4 MSTORE PUSH1 0x24 PUSH1 0x0 REVERT JUMPDEST PUSH32 0x4E487B7100000000000000000000000000000000000000000000000000000000 PUSH1 0x0 MSTORE PUSH1 0x31 PUSH1 0x4 MSTORE PUSH1 0x24 PUSH1 0x0 REVERT JUMPDEST PUSH32 0x4E487B7100000000000000000000000000000000000000000000000000000000 PUSH1 0x0 MSTORE PUSH1 0x22 PUSH1 0x4 MSTORE PUSH1 0x24 PUSH1 0x0 REVERT JUMPDEST PUSH1 0x0 PUSH1 0x2 DUP3 DIV SWAP1 POP PUSH1 0x1 DUP3 AND DUP1 PUSH2 0x5C6 JUMPI PUSH1 0x7F DUP3 AND SWAP2 POP JUMPDEST PUSH1 0x20 DUP3 LT DUP2 SUB PUSH2 0x5D9 JUMPI PUSH2 0x5D8 PUSH2 0x57F JUMP JUMPDEST JUMPDEST POP SWAP2 SWAP1 POP JUMP INVALID LOG2 PUSH5 0x6970667358 0x22 SLT KECCAK256 0xED 0xEE ADDRESS GASPRICE 0x26 SWAP11 SSTORE 0xEF DUP7 0xD7 0xE0 PUSH31 0x175568F7985959E26D1B7D56360BB1701B155E9864736F6C634300080D0033 "
		},
		"gasEstimates": {
			"creation": {
				"codeDepositCost": "311400",
				"executionCost": "infinite",
				"totalCost": "infinite"
			},
			"external": {
				"AgeChange(uint256,uint256)": "infinite",
				"AgeGet(uint256)": "infinite",
				"AgeLength()": "2533",
				"AgePop()": "29489",
				"AgePop(uint256)": "7617",
				"AgePush(uint256)": "46852",
				"ageArray(uint256)": "infinite",
				"ageFixedSizeArray(uint256)": "infinite",
				"nameArray(uint256)": "infinite"
			}
		},
		"methodIdentifiers": {
			"AgeChange(uint256,uint256)": "98953723",
			"AgeGet(uint256)": "38c9548b",
			"AgeLength()": "ee5030af",
			"AgePop()": "c1375ce8",
			"AgePop(uint256)": "9beb77d0",
			"AgePush(uint256)": "52c8fcfd",
			"ageArray(uint256)": "7847c277",
			"ageFixedSizeArray(uint256)": "6ac48092",
			"nameArray(uint256)": "cfcc827b"
		}
	},
	"abi": [
		{
			"inputs": [
				{
					"internalType": "uint256",
					"name": "_index",
					"type": "uint256"
				},
				{
					"internalType": "uint256",
					"name": "_age",
					"type": "uint256"
				}
			],
			"name": "AgeChange",
			"outputs": [],
			"stateMutability": "nonpayable",
			"type": "function"
		},
		{
			"inputs": [
				{
					"internalType": "uint256",
					"name": "_index",
					"type": "uint256"
				}
			],
			"name": "AgeGet",
			"outputs": [
				{
					"internalType": "uint256",
					"name": "",
					"type": "uint256"
				}
			],
			"stateMutability": "view",
			"type": "function"
		},
		{
			"inputs": [],
			"name": "AgeLength",
			"outputs": [
				{
					"internalType": "uint256",
					"name": "",
					"type": "uint256"
				}
			],
			"stateMutability": "view",
			"type": "function"
		},
		{
			"inputs": [
				{
					"internalType": "uint256",
					"name": "_index",
					"type": "uint256"
				}
			],
			"name": "AgePop",
			"outputs": [],
			"stateMutability": "nonpayable",
			"type": "function"
		},
		{
			"inputs": [],
			"name": "AgePop",
			"outputs": [],
			"stateMutability": "nonpayable",
			"type": "function"
		},
		{
			"inputs": [
				{
					"internalType": "uint256",
					"name": "_age",
					"type": "uint256"
				}
			],
			"name": "AgePush",
			"outputs": [],
			"stateMutability": "nonpayable",
			"type": "function"
		},
		{
			"inputs": [
				{
					"internalType": "uint256",
					"name": "",
					"type": "uint256"
				}
			],
			"name": "ageArray",
			"outputs": [
				{
					"internalType": "uint256",
					"name": "",
					"type": "uint256"
				}
			],
			"stateMutability": "view",
			"type": "function"
		},
		{
			"inputs": [
				{
					"internalType": "uint256",
					"name": "",
					"type": "uint256"
				}
			],
			"name": "ageFixedSizeArray",
			"outputs": [
				{
					"internalType": "uint256",
					"name": "",
					"type": "uint256"
				}
			],
			"stateMutability": "view",
			"type": "function"
		},
		{
			"inputs": [
				{
					"internalType": "uint256",
					"name": "",
					"type": "uint256"
				}
			],
			"name": "nameArray",
			"outputs": [
				{
					"internalType": "string",
					"name": "",
					"type": "string"
				}
			],
			"stateMutability": "view",
			"type": "function"
		}
	]
}