{
	"data": {
		"bytecode": {
			"linkReferences": {},
			"object": "60806040526040518060a001604052806040518060400160405280600a81526020017f536f757468204b6f72650000000000000000000000000000000000000000000081525081526020016040518060400160405280600b81526020017f4e6f727468204b6f72656100000000000000000000000000000000000000000081525081526020016040518060400160405280600381526020017f555341000000000000000000000000000000000000000000000000000000000081525081526020016040518060400160405280600581526020017f4348494e4100000000000000000000000000000000000000000000000000000081525081526020016040518060400160405280600581526020017f4a6170616e0000000000000000000000000000000000000000000000000000008152508152506000906005610144929190610157565b5034801561015157600080fd5b5061031e565b8280548282559060005260206000209081019282156101a6579160200282015b828111156101a55782518290805190602001906101959291906101b7565b5091602001919060010190610177565b5b5090506101b3919061023d565b5090565b8280546101c3906102ed565b90600052602060002090601f0160209004810192826101e5576000855561022c565b82601f106101fe57805160ff191683800117855561022c565b8280016001018555821561022c579182015b8281111561022b578251825591602001919060010190610210565b5b5090506102399190610261565b5090565b5b8082111561025d5760008181610254919061027e565b5060010161023e565b5090565b5b8082111561027a576000816000905550600101610262565b5090565b50805461028a906102ed565b6000825580601f1061029c57506102bb565b601f0160209004906000526020600020908101906102ba9190610261565b5b50565b7f4e487b7100000000000000000000000000000000000000000000000000000000600052602260045260246000fd5b6000600282049050600182168061030557607f821691505b602082108103610318576103176102be565b5b50919050565b6103fd8061032d6000396000f3fe608060405234801561001057600080fd5b50600436106100415760003560e01c80636cde9f8c14610046578063af2eb32f14610050578063ddea9b0a1461005a575b600080fd5b61004e610064565b005b6100586100e0565b005b610062610156565b005b60005b6000805490508110156100dd577fc3750795857a09dd89d722c915dbd49e7496a6f23cad9de450838745e45f932981600083815481106100aa576100a96101d2565b5b906000526020600020016040516100c2929190610320565b60405180910390a180806100d59061037f565b915050610067565b50565b60005b7fc3750795857a09dd89d722c915dbd49e7496a6f23cad9de450838745e45f93298160008381548110610119576101186101d2565b5b90600052602060002001604051610131929190610320565b60405180910390a180806101449061037f565b91505060008054905081106100e35750565b60005b6000805490508110156101cf577fc3750795857a09dd89d722c915dbd49e7496a6f23cad9de450838745e45f9329816000838154811061019c5761019b6101d2565b5b906000526020600020016040516101b4929190610320565b60405180910390a180806101c79061037f565b915050610159565b50565b7f4e487b7100000000000000000000000000000000000000000000000000000000600052603260045260246000fd5b6000819050919050565b61021481610201565b82525050565b7f4e487b7100000000000000000000000000000000000000000000000000000000600052602260045260246000fd5b6000600282049050600182168061026157607f821691505b6020821081036102745761027361021a565b5b50919050565b600082825260208201905092915050565b60008190508160005260206000209050919050565b600081546102ad81610249565b6102b7818661027a565b945060018216600081146102d257600181146102e457610317565b60ff1983168652602086019350610317565b6102ed8561028b565b60005b8381101561030f578154818901526001820191506020810190506102f0565b808801955050505b50505092915050565b6000604082019050610335600083018561020b565b818103602083015261034781846102a0565b90509392505050565b7f4e487b7100000000000000000000000000000000000000000000000000000000600052601160045260246000fd5b600061038a82610201565b91507fffffffffffffffffffffffffffffffffffffffffffffffffffffffffffffffff82036103bc576103bb610350565b5b60018201905091905056fea2646970667358221220e249333d5037f0e33d2c801109d660102555d6d705bd4db5ee86a1822c10114a64736f6c634300080d0033",
			"opcodes": "PUSH1 0x80 PUSH1 0x40 MSTORE PUSH1 0x40 MLOAD DUP1 PUSH1 0xA0 ADD PUSH1 0x40 MSTORE DUP1 PUSH1 0x40 MLOAD DUP1 PUSH1 0x40 ADD PUSH1 0x40 MSTORE DUP1 PUSH1 0xA DUP2 MSTORE PUSH1 0x20 ADD PUSH32 0x536F757468204B6F726500000000000000000000000000000000000000000000 DUP2 MSTORE POP DUP2 MSTORE PUSH1 0x20 ADD PUSH1 0x40 MLOAD DUP1 PUSH1 0x40 ADD PUSH1 0x40 MSTORE DUP1 PUSH1 0xB DUP2 MSTORE PUSH1 0x20 ADD PUSH32 0x4E6F727468204B6F726561000000000000000000000000000000000000000000 DUP2 MSTORE POP DUP2 MSTORE PUSH1 0x20 ADD PUSH1 0x40 MLOAD DUP1 PUSH1 0x40 ADD PUSH1 0x40 MSTORE DUP1 PUSH1 0x3 DUP2 MSTORE PUSH1 0x20 ADD PUSH32 0x5553410000000000000000000000000000000000000000000000000000000000 DUP2 MSTORE POP DUP2 MSTORE PUSH1 0x20 ADD PUSH1 0x40 MLOAD DUP1 PUSH1 0x40 ADD PUSH1 0x40 MSTORE DUP1 PUSH1 0x5 DUP2 MSTORE PUSH1 0x20 ADD PUSH32 0x4348494E41000000000000000000000000000000000000000000000000000000 DUP2 MSTORE POP DUP2 MSTORE PUSH1 0x20 ADD PUSH1 0x40 MLOAD DUP1 PUSH1 0x40 ADD PUSH1 0x40 MSTORE DUP1 PUSH1 0x5 DUP2 MSTORE PUSH1 0x20 ADD PUSH32 0x4A6170616E000000000000000000000000000000000000000000000000000000 DUP2 MSTORE POP DUP2 MSTORE POP PUSH1 0x0 SWAP1 PUSH1 0x5 PUSH2 0x144 SWAP3 SWAP2 SWAP1 PUSH2 0x157 JUMP JUMPDEST POP CALLVALUE DUP1 ISZERO PUSH2 0x151 JUMPI PUSH1 0x0 DUP1 REVERT JUMPDEST POP PUSH2 0x31E JUMP JUMPDEST DUP3 DUP1 SLOAD DUP3 DUP3 SSTORE SWAP1 PUSH1 0x0 MSTORE PUSH1 0x20 PUSH1 0x0 KECCAK256 SWAP1 DUP2 ADD SWAP3 DUP3 ISZERO PUSH2 0x1A6 JUMPI SWAP2 PUSH1 0x20 MUL DUP3 ADD JUMPDEST DUP3 DUP2 GT ISZERO PUSH2 0x1A5 JUMPI DUP3 MLOAD DUP3 SWAP1 DUP1 MLOAD SWAP1 PUSH1 0x20 ADD SWAP1 PUSH2 0x195 SWAP3 SWAP2 SWAP1 PUSH2 0x1B7 JUMP JUMPDEST POP SWAP2 PUSH1 0x20 ADD SWAP2 SWAP1 PUSH1 0x1 ADD SWAP1 PUSH2 0x177 JUMP JUMPDEST JUMPDEST POP SWAP1 POP PUSH2 0x1B3 SWAP2 SWAP1 PUSH2 0x23D JUMP JUMPDEST POP SWAP1 JUMP JUMPDEST DUP3 DUP1 SLOAD PUSH2 0x1C3 SWAP1 PUSH2 0x2ED JUMP JUMPDEST SWAP1 PUSH1 0x0 MSTORE PUSH1 0x20 PUSH1 0x0 KECCAK256 SWAP1 PUSH1 0x1F ADD PUSH1 0x20 SWAP1 DIV DUP2 ADD SWAP3 DUP3 PUSH2 0x1E5 JUMPI PUSH1 0x0 DUP6 SSTORE PUSH2 0x22C JUMP JUMPDEST DUP3 PUSH1 0x1F LT PUSH2 0x1FE JUMPI DUP1 MLOAD PUSH1 0xFF NOT AND DUP4 DUP1 ADD OR DUP6 SSTORE PUSH2 0x22C JUMP JUMPDEST DUP3 DUP1 ADD PUSH1 0x1 ADD DUP6 SSTORE DUP3 ISZERO PUSH2 0x22C JUMPI SWAP2 DUP3 ADD JUMPDEST DUP3 DUP2 GT ISZERO PUSH2 0x22B JUMPI DUP3 MLOAD DUP3 SSTORE SWAP2 PUSH1 0x20 ADD SWAP2 SWAP1 PUSH1 0x1 ADD SWAP1 PUSH2 0x210 JUMP JUMPDEST JUMPDEST POP SWAP1 POP PUSH2 0x239 SWAP2 SWAP1 PUSH2 0x261 JUMP JUMPDEST POP SWAP1 JUMP JUMPDEST JUMPDEST DUP1 DUP3 GT ISZERO PUSH2 0x25D JUMPI PUSH1 0x0 DUP2 DUP2 PUSH2 0x254 SWAP2 SWAP1 PUSH2 0x27E JUMP JUMPDEST POP PUSH1 0x1 ADD PUSH2 0x23E JUMP JUMPDEST POP SWAP1 JUMP JUMPDEST JUMPDEST DUP1 DUP3 GT ISZERO PUSH2 0x27A JUMPI PUSH1 0x0 DUP2 PUSH1 0x0 SWAP1 SSTORE POP PUSH1 0x1 ADD PUSH2 0x262 JUMP JUMPDEST POP SWAP1 JUMP JUMPDEST POP DUP1 SLOAD PUSH2 0x28A SWAP1 PUSH2 0x2ED JUMP JUMPDEST PUSH1 0x0 DUP3 SSTORE DUP1 PUSH1 0x1F LT PUSH2 0x29C JUMPI POP PUSH2 0x2BB JUMP JUMPDEST PUSH1 0x1F ADD PUSH1 0x20 SWAP1 DIV SWAP1 PUSH1 0x0 MSTORE PUSH1 0x20 PUSH1 0x0 KECCAK256 SWAP1 DUP2 ADD SWAP1 PUSH2 0x2BA SWAP2 SWAP1 PUSH2 0x261 JUMP JUMPDEST JUMPDEST POP JUMP JUMPDEST PUSH32 0x4E487B7100000000000000000000000000000000000000000000000000000000 PUSH1 0x0 MSTORE PUSH1 0x22 PUSH1 0x4 MSTORE PUSH1 0x24 PUSH1 0x0 REVERT JUMPDEST PUSH1 0x0 PUSH1 0x2 DUP3 DIV SWAP1 POP PUSH1 0x1 DUP3 AND DUP1 PUSH2 0x305 JUMPI PUSH1 0x7F DUP3 AND SWAP2 POP JUMPDEST PUSH1 0x20 DUP3 LT DUP2 SUB PUSH2 0x318 JUMPI PUSH2 0x317 PUSH2 0x2BE JUMP JUMPDEST JUMPDEST POP SWAP2 SWAP1 POP JUMP JUMPDEST PUSH2 0x3FD DUP1 PUSH2 0x32D PUSH1 0x0 CODECOPY PUSH1 0x0 RETURN INVALID PUSH1 0x80 PUSH1 0x40 MSTORE CALLVALUE DUP1 ISZERO PUSH2 0x10 JUMPI PUSH1 0x0 DUP1 REVERT JUMPDEST POP PUSH1 0x4 CALLDATASIZE LT PUSH2 0x41 JUMPI PUSH1 0x0 CALLDATALOAD PUSH1 0xE0 SHR DUP1 PUSH4 0x6CDE9F8C EQ PUSH2 0x46 JUMPI DUP1 PUSH4 0xAF2EB32F EQ PUSH2 0x50 JUMPI DUP1 PUSH4 0xDDEA9B0A EQ PUSH2 0x5A JUMPI JUMPDEST PUSH1 0x0 DUP1 REVERT JUMPDEST PUSH2 0x4E PUSH2 0x64 JUMP JUMPDEST STOP JUMPDEST PUSH2 0x58 PUSH2 0xE0 JUMP JUMPDEST STOP JUMPDEST PUSH2 0x62 PUSH2 0x156 JUMP JUMPDEST STOP JUMPDEST PUSH1 0x0 JUMPDEST PUSH1 0x0 DUP1 SLOAD SWAP1 POP DUP2 LT ISZERO PUSH2 0xDD JUMPI PUSH32 0xC3750795857A09DD89D722C915DBD49E7496A6F23CAD9DE450838745E45F9329 DUP2 PUSH1 0x0 DUP4 DUP2 SLOAD DUP2 LT PUSH2 0xAA JUMPI PUSH2 0xA9 PUSH2 0x1D2 JUMP JUMPDEST JUMPDEST SWAP1 PUSH1 0x0 MSTORE PUSH1 0x20 PUSH1 0x0 KECCAK256 ADD PUSH1 0x40 MLOAD PUSH2 0xC2 SWAP3 SWAP2 SWAP1 PUSH2 0x320 JUMP JUMPDEST PUSH1 0x40 MLOAD DUP1 SWAP2 SUB SWAP1 LOG1 DUP1 DUP1 PUSH2 0xD5 SWAP1 PUSH2 0x37F JUMP JUMPDEST SWAP2 POP POP PUSH2 0x67 JUMP JUMPDEST POP JUMP JUMPDEST PUSH1 0x0 JUMPDEST PUSH32 0xC3750795857A09DD89D722C915DBD49E7496A6F23CAD9DE450838745E45F9329 DUP2 PUSH1 0x0 DUP4 DUP2 SLOAD DUP2 LT PUSH2 0x119 JUMPI PUSH2 0x118 PUSH2 0x1D2 JUMP JUMPDEST JUMPDEST SWAP1 PUSH1 0x0 MSTORE PUSH1 0x20 PUSH1 0x0 KECCAK256 ADD PUSH1 0x40 MLOAD PUSH2 0x131 SWAP3 SWAP2 SWAP1 PUSH2 0x320 JUMP JUMPDEST PUSH1 0x40 MLOAD DUP1 SWAP2 SUB SWAP1 LOG1 DUP1 DUP1 PUSH2 0x144 SWAP1 PUSH2 0x37F JUMP JUMPDEST SWAP2 POP POP PUSH1 0x0 DUP1 SLOAD SWAP1 POP DUP2 LT PUSH2 0xE3 JUMPI POP JUMP JUMPDEST PUSH1 0x0 JUMPDEST PUSH1 0x0 DUP1 SLOAD SWAP1 POP DUP2 LT ISZERO PUSH2 0x1CF JUMPI PUSH32 0xC3750795857A09DD89D722C915DBD49E7496A6F23CAD9DE450838745E45F9329 DUP2 PUSH1 0x0 DUP4 DUP2 SLOAD DUP2 LT PUSH2 0x19C JUMPI PUSH2 0x19B PUSH2 0x1D2 JUMP JUMPDEST JUMPDEST SWAP1 PUSH1 0x0 MSTORE PUSH1 0x20 PUSH1 0x0 KECCAK256 ADD PUSH1 0x40 MLOAD PUSH2 0x1B4 SWAP3 SWAP2 SWAP1 PUSH2 0x320 JUMP JUMPDEST PUSH1 0x40 MLOAD DUP1 SWAP2 SUB SWAP1 LOG1 DUP1 DUP1 PUSH2 0x1C7 SWAP1 PUSH2 0x37F JUMP JUMPDEST SWAP2 POP POP PUSH2 0x159 JUMP JUMPDEST POP JUMP JUMPDEST PUSH32 0x4E487B7100000000000000000000000000000000000000000000000000000000 PUSH1 0x0 MSTORE PUSH1 0x32 PUSH1 0x4 MSTORE PUSH1 0x24 PUSH1 0x0 REVERT JUMPDEST PUSH1 0x0 DUP2 SWAP1 POP SWAP2 SWAP1 POP JUMP JUMPDEST PUSH2 0x214 DUP2 PUSH2 0x201 JUMP JUMPDEST DUP3 MSTORE POP POP JUMP JUMPDEST PUSH32 0x4E487B7100000000000000000000000000000000000000000000000000000000 PUSH1 0x0 MSTORE PUSH1 0x22 PUSH1 0x4 MSTORE PUSH1 0x24 PUSH1 0x0 REVERT JUMPDEST PUSH1 0x0 PUSH1 0x2 DUP3 DIV SWAP1 POP PUSH1 0x1 DUP3 AND DUP1 PUSH2 0x261 JUMPI PUSH1 0x7F DUP3 AND SWAP2 POP JUMPDEST PUSH1 0x20 DUP3 LT DUP2 SUB PUSH2 0x274 JUMPI PUSH2 0x273 PUSH2 0x21A JUMP JUMPDEST JUMPDEST POP SWAP2 SWAP1 POP JUMP JUMPDEST PUSH1 0x0 DUP3 DUP3 MSTORE PUSH1 0x20 DUP3 ADD SWAP1 POP SWAP3 SWAP2 POP POP JUMP JUMPDEST PUSH1 0x0 DUP2 SWAP1 POP DUP2 PUSH1 0x0 MSTORE PUSH1 0x20 PUSH1 0x0 KECCAK256 SWAP1 POP SWAP2 SWAP1 POP JUMP JUMPDEST PUSH1 0x0 DUP2 SLOAD PUSH2 0x2AD DUP2 PUSH2 0x249 JUMP JUMPDEST PUSH2 0x2B7 DUP2 DUP7 PUSH2 0x27A JUMP JUMPDEST SWAP5 POP PUSH1 0x1 DUP3 AND PUSH1 0x0 DUP2 EQ PUSH2 0x2D2 JUMPI PUSH1 0x1 DUP2 EQ PUSH2 0x2E4 JUMPI PUSH2 0x317 JUMP JUMPDEST PUSH1 0xFF NOT DUP4 AND DUP7 MSTORE PUSH1 0x20 DUP7 ADD SWAP4 POP PUSH2 0x317 JUMP JUMPDEST PUSH2 0x2ED DUP6 PUSH2 0x28B JUMP JUMPDEST PUSH1 0x0 JUMPDEST DUP4 DUP2 LT ISZERO PUSH2 0x30F JUMPI DUP2 SLOAD DUP2 DUP10 ADD MSTORE PUSH1 0x1 DUP3 ADD SWAP2 POP PUSH1 0x20 DUP2 ADD SWAP1 POP PUSH2 0x2F0 JUMP JUMPDEST DUP1 DUP9 ADD SWAP6 POP POP POP JUMPDEST POP POP POP SWAP3 SWAP2 POP POP JUMP JUMPDEST PUSH1 0x0 PUSH1 0x40 DUP3 ADD SWAP1 POP PUSH2 0x335 PUSH1 0x0 DUP4 ADD DUP6 PUSH2 0x20B JUMP JUMPDEST DUP2 DUP2 SUB PUSH1 0x20 DUP4 ADD MSTORE PUSH2 0x347 DUP2 DUP5 PUSH2 0x2A0 JUMP JUMPDEST SWAP1 POP SWAP4 SWAP3 POP POP POP JUMP JUMPDEST PUSH32 0x4E487B7100000000000000000000000000000000000000000000000000000000 PUSH1 0x0 MSTORE PUSH1 0x11 PUSH1 0x4 MSTORE PUSH1 0x24 PUSH1 0x0 REVERT JUMPDEST PUSH1 0x0 PUSH2 0x38A DUP3 PUSH2 0x201 JUMP JUMPDEST SWAP2 POP PUSH32 0xFFFFFFFFFFFFFFFFFFFFFFFFFFFFFFFFFFFFFFFFFFFFFFFFFFFFFFFFFFFFFFFF DUP3 SUB PUSH2 0x3BC JUMPI PUSH2 0x3BB PUSH2 0x350 JUMP JUMPDEST JUMPDEST PUSH1 0x1 DUP3 ADD SWAP1 POP SWAP2 SWAP1 POP JUMP INVALID LOG2 PUSH5 0x6970667358 0x22 SLT KECCAK256 0xE2 0x49 CALLER RETURNDATASIZE POP CALLDATACOPY CREATE 0xE3 RETURNDATASIZE 0x2C DUP1 GT MULMOD 0xD6 PUSH1 0x10 0x25 SSTORE 0xD6 0xD7 SDIV 0xBD 0x4D 0xB5 0xEE DUP7 LOG1 DUP3 0x2C LT GT 0x4A PUSH5 0x736F6C6343 STOP ADDMOD 0xD STOP CALLER "
		},
		"gasEstimates": {
			"creation": {
				"codeDepositCost": "204200",
				"executionCost": "infinite",
				"totalCost": "infinite"
			},
			"external": {
				"doWhileLoopEvents()": "infinite",
				"forLoopEvents()": "infinite",
				"whileLoopEvents()": "infinite"
			}
		},
		"methodIdentifiers": {
			"doWhileLoopEvents()": "af2eb32f",
			"forLoopEvents()": "6cde9f8c",
			"whileLoopEvents()": "ddea9b0a"
		}
	},
	"abi": [
		{
			"anonymous": false,
			"inputs": [
				{
					"indexed": false,
					"internalType": "uint256",
					"name": "_index",
					"type": "uint256"
				},
				{
					"indexed": false,
					"internalType": "string",
					"name": "_name",
					"type": "string"
				}
			],
			"name": "CountryIndexName",
			"type": "event"
		},
		{
			"inputs": [],
			"name": "doWhileLoopEvents",
			"outputs": [],
			"stateMutability": "nonpayable",
			"type": "function"
		},
		{
			"inputs": [],
			"name": "forLoopEvents",
			"outputs": [],
			"stateMutability": "nonpayable",
			"type": "function"
		},
		{
			"inputs": [],
			"name": "whileLoopEvents",
			"outputs": [],
			"stateMutability": "nonpayable",
			"type": "function"
		}
	]
}