{
	"data": {
		"bytecode": {
			"linkReferences": {},
			"object": "608060405234801561001057600080fd5b50610328806100206000396000f3fe608060405234801561001057600080fd5b50600436106100365760003560e01c8063d57f43831461003b578063df201a461461005a575b600080fd5b610043610078565b604051610051929190610174565b60405180910390f35b610062610137565b60405161006f919061019d565b60405180910390f35b6000803073ffffffffffffffffffffffffffffffffffffffff1663df201a466040518163ffffffff1660e01b81526004016020604051808303816000875af19250505080156100e557506040513d601f19601f820116820180604052508101906100e291906101e9565b60015b61012a577fed1339d3b97aca38a4bc95190b93af9130be96b54e1bc34caa04b59819decfa0604051610116906102bf565b60405180910390a160008091509150610133565b80600192509250505b9091565b60006004905090565b6000819050919050565b61015381610140565b82525050565b60008115159050919050565b61016e81610159565b82525050565b6000604082019050610189600083018561014a565b6101966020830184610165565b9392505050565b60006020820190506101b2600083018461014a565b92915050565b600080fd5b6101c681610140565b81146101d157600080fd5b50565b6000815190506101e3816101bd565b92915050565b6000602082840312156101ff576101fe6101b8565b5b600061020d848285016101d4565b91505092915050565b600082825260208201905092915050565b7f6361746368000000000000000000000000000000000000000000000000000000600082015250565b600061025d600583610216565b915061026882610227565b602082019050919050565b7f4572726f72532121000000000000000000000000000000000000000000000000600082015250565b60006102a9600883610216565b91506102b482610273565b602082019050919050565b600060408201905081810360008301526102d881610250565b905081810360208301526102eb8161029c565b905091905056fea26469706673582212205aa388f64368c3ee1f1c851f48b845a3ee53b7785b55d40082f6b3d1d18a6b9264736f6c634300080d0033",
			"opcodes": "PUSH1 0x80 PUSH1 0x40 MSTORE CALLVALUE DUP1 ISZERO PUSH2 0x10 JUMPI PUSH1 0x0 DUP1 REVERT JUMPDEST POP PUSH2 0x328 DUP1 PUSH2 0x20 PUSH1 0x0 CODECOPY PUSH1 0x0 RETURN INVALID PUSH1 0x80 PUSH1 0x40 MSTORE CALLVALUE DUP1 ISZERO PUSH2 0x10 JUMPI PUSH1 0x0 DUP1 REVERT JUMPDEST POP PUSH1 0x4 CALLDATASIZE LT PUSH2 0x36 JUMPI PUSH1 0x0 CALLDATALOAD PUSH1 0xE0 SHR DUP1 PUSH4 0xD57F4383 EQ PUSH2 0x3B JUMPI DUP1 PUSH4 0xDF201A46 EQ PUSH2 0x5A JUMPI JUMPDEST PUSH1 0x0 DUP1 REVERT JUMPDEST PUSH2 0x43 PUSH2 0x78 JUMP JUMPDEST PUSH1 0x40 MLOAD PUSH2 0x51 SWAP3 SWAP2 SWAP1 PUSH2 0x174 JUMP JUMPDEST PUSH1 0x40 MLOAD DUP1 SWAP2 SUB SWAP1 RETURN JUMPDEST PUSH2 0x62 PUSH2 0x137 JUMP JUMPDEST PUSH1 0x40 MLOAD PUSH2 0x6F SWAP2 SWAP1 PUSH2 0x19D JUMP JUMPDEST PUSH1 0x40 MLOAD DUP1 SWAP2 SUB SWAP1 RETURN JUMPDEST PUSH1 0x0 DUP1 ADDRESS PUSH20 0xFFFFFFFFFFFFFFFFFFFFFFFFFFFFFFFFFFFFFFFF AND PUSH4 0xDF201A46 PUSH1 0x40 MLOAD DUP2 PUSH4 0xFFFFFFFF AND PUSH1 0xE0 SHL DUP2 MSTORE PUSH1 0x4 ADD PUSH1 0x20 PUSH1 0x40 MLOAD DUP1 DUP4 SUB DUP2 PUSH1 0x0 DUP8 GAS CALL SWAP3 POP POP POP DUP1 ISZERO PUSH2 0xE5 JUMPI POP PUSH1 0x40 MLOAD RETURNDATASIZE PUSH1 0x1F NOT PUSH1 0x1F DUP3 ADD AND DUP3 ADD DUP1 PUSH1 0x40 MSTORE POP DUP2 ADD SWAP1 PUSH2 0xE2 SWAP2 SWAP1 PUSH2 0x1E9 JUMP JUMPDEST PUSH1 0x1 JUMPDEST PUSH2 0x12A JUMPI PUSH32 0xED1339D3B97ACA38A4BC95190B93AF9130BE96B54E1BC34CAA04B59819DECFA0 PUSH1 0x40 MLOAD PUSH2 0x116 SWAP1 PUSH2 0x2BF JUMP JUMPDEST PUSH1 0x40 MLOAD DUP1 SWAP2 SUB SWAP1 LOG1 PUSH1 0x0 DUP1 SWAP2 POP SWAP2 POP PUSH2 0x133 JUMP JUMPDEST DUP1 PUSH1 0x1 SWAP3 POP SWAP3 POP POP JUMPDEST SWAP1 SWAP2 JUMP JUMPDEST PUSH1 0x0 PUSH1 0x4 SWAP1 POP SWAP1 JUMP JUMPDEST PUSH1 0x0 DUP2 SWAP1 POP SWAP2 SWAP1 POP JUMP JUMPDEST PUSH2 0x153 DUP2 PUSH2 0x140 JUMP JUMPDEST DUP3 MSTORE POP POP JUMP JUMPDEST PUSH1 0x0 DUP2 ISZERO ISZERO SWAP1 POP SWAP2 SWAP1 POP JUMP JUMPDEST PUSH2 0x16E DUP2 PUSH2 0x159 JUMP JUMPDEST DUP3 MSTORE POP POP JUMP JUMPDEST PUSH1 0x0 PUSH1 0x40 DUP3 ADD SWAP1 POP PUSH2 0x189 PUSH1 0x0 DUP4 ADD DUP6 PUSH2 0x14A JUMP JUMPDEST PUSH2 0x196 PUSH1 0x20 DUP4 ADD DUP5 PUSH2 0x165 JUMP JUMPDEST SWAP4 SWAP3 POP POP POP JUMP JUMPDEST PUSH1 0x0 PUSH1 0x20 DUP3 ADD SWAP1 POP PUSH2 0x1B2 PUSH1 0x0 DUP4 ADD DUP5 PUSH2 0x14A JUMP JUMPDEST SWAP3 SWAP2 POP POP JUMP JUMPDEST PUSH1 0x0 DUP1 REVERT JUMPDEST PUSH2 0x1C6 DUP2 PUSH2 0x140 JUMP JUMPDEST DUP2 EQ PUSH2 0x1D1 JUMPI PUSH1 0x0 DUP1 REVERT JUMPDEST POP JUMP JUMPDEST PUSH1 0x0 DUP2 MLOAD SWAP1 POP PUSH2 0x1E3 DUP2 PUSH2 0x1BD JUMP JUMPDEST SWAP3 SWAP2 POP POP JUMP JUMPDEST PUSH1 0x0 PUSH1 0x20 DUP3 DUP5 SUB SLT ISZERO PUSH2 0x1FF JUMPI PUSH2 0x1FE PUSH2 0x1B8 JUMP JUMPDEST JUMPDEST PUSH1 0x0 PUSH2 0x20D DUP5 DUP3 DUP6 ADD PUSH2 0x1D4 JUMP JUMPDEST SWAP2 POP POP SWAP3 SWAP2 POP POP JUMP JUMPDEST PUSH1 0x0 DUP3 DUP3 MSTORE PUSH1 0x20 DUP3 ADD SWAP1 POP SWAP3 SWAP2 POP POP JUMP JUMPDEST PUSH32 0x6361746368000000000000000000000000000000000000000000000000000000 PUSH1 0x0 DUP3 ADD MSTORE POP JUMP JUMPDEST PUSH1 0x0 PUSH2 0x25D PUSH1 0x5 DUP4 PUSH2 0x216 JUMP JUMPDEST SWAP2 POP PUSH2 0x268 DUP3 PUSH2 0x227 JUMP JUMPDEST PUSH1 0x20 DUP3 ADD SWAP1 POP SWAP2 SWAP1 POP JUMP JUMPDEST PUSH32 0x4572726F72532121000000000000000000000000000000000000000000000000 PUSH1 0x0 DUP3 ADD MSTORE POP JUMP JUMPDEST PUSH1 0x0 PUSH2 0x2A9 PUSH1 0x8 DUP4 PUSH2 0x216 JUMP JUMPDEST SWAP2 POP PUSH2 0x2B4 DUP3 PUSH2 0x273 JUMP JUMPDEST PUSH1 0x20 DUP3 ADD SWAP1 POP SWAP2 SWAP1 POP JUMP JUMPDEST PUSH1 0x0 PUSH1 0x40 DUP3 ADD SWAP1 POP DUP2 DUP2 SUB PUSH1 0x0 DUP4 ADD MSTORE PUSH2 0x2D8 DUP2 PUSH2 0x250 JUMP JUMPDEST SWAP1 POP DUP2 DUP2 SUB PUSH1 0x20 DUP4 ADD MSTORE PUSH2 0x2EB DUP2 PUSH2 0x29C JUMP JUMPDEST SWAP1 POP SWAP2 SWAP1 POP JUMP INVALID LOG2 PUSH5 0x6970667358 0x22 SLT KECCAK256 GAS LOG3 DUP9 0xF6 NUMBER PUSH9 0xC3EE1F1C851F48B845 LOG3 0xEE MSTORE8 0xB7 PUSH25 0x5B55D40082F6B3D1D18A6B9264736F6C634300080D00330000 "
		},
		"gasEstimates": {
			"creation": {
				"codeDepositCost": "161600",
				"executionCost": "208",
				"totalCost": "161808"
			},
			"external": {
				"playTryCatch()": "infinite",
				"simple()": "337"
			}
		},
		"methodIdentifiers": {
			"playTryCatch()": "d57f4383",
			"simple()": "df201a46"
		}
	},
	"abi": [
		{
			"anonymous": false,
			"inputs": [
				{
					"indexed": false,
					"internalType": "string",
					"name": "_name",
					"type": "string"
				},
				{
					"indexed": false,
					"internalType": "string",
					"name": "_err",
					"type": "string"
				}
			],
			"name": "catchOnly",
			"type": "event"
		},
		{
			"inputs": [],
			"name": "playTryCatch",
			"outputs": [
				{
					"internalType": "uint256",
					"name": "",
					"type": "uint256"
				},
				{
					"internalType": "bool",
					"name": "",
					"type": "bool"
				}
			],
			"stateMutability": "nonpayable",
			"type": "function"
		},
		{
			"inputs": [],
			"name": "simple",
			"outputs": [
				{
					"internalType": "uint256",
					"name": "",
					"type": "uint256"
				}
			],
			"stateMutability": "nonpayable",
			"type": "function"
		}
	]
}