{
	".workspaces/default_workspace/unMiracle/test.sol": {
		"test": {
			"abi": [
				{
					"inputs": [],
					"name": "_executor",
					"outputs": [
						{
							"internalType": "address",
							"name": "",
							"type": "address"
						}
					],
					"stateMutability": "view",
					"type": "function"
				},
				{
					"inputs": [
						{
							"internalType": "bytes",
							"name": "data",
							"type": "bytes"
						}
					],
					"name": "abiDecode",
					"outputs": [
						{
							"internalType": "uint256",
							"name": "_str1",
							"type": "uint256"
						},
						{
							"internalType": "uint256",
							"name": "_number",
							"type": "uint256"
						},
						{
							"internalType": "uint256",
							"name": "_str2",
							"type": "uint256"
						}
					],
					"stateMutability": "nonpayable",
					"type": "function"
				},
				{
					"inputs": [],
					"name": "abiEncode",
					"outputs": [
						{
							"internalType": "bytes",
							"name": "",
							"type": "bytes"
						}
					],
					"stateMutability": "nonpayable",
					"type": "function"
				},
				{
					"inputs": [],
					"name": "deadline",
					"outputs": [
						{
							"internalType": "uint64",
							"name": "",
							"type": "uint64"
						}
					],
					"stateMutability": "view",
					"type": "function"
				},
				{
					"inputs": [],
					"name": "keccak256test",
					"outputs": [
						{
							"internalType": "bytes",
							"name": "",
							"type": "bytes"
						}
					],
					"stateMutability": "nonpayable",
					"type": "function"
				},
				{
					"inputs": [],
					"name": "name",
					"outputs": [
						{
							"internalType": "string",
							"name": "",
							"type": "string"
						}
					],
					"stateMutability": "nonpayable",
					"type": "function"
				},
				{
					"inputs": [
						{
							"internalType": "int256",
							"name": "a",
							"type": "int256"
						}
					],
					"name": "num",
					"outputs": [
						{
							"internalType": "uint256",
							"name": "",
							"type": "uint256"
						}
					],
					"stateMutability": "view",
					"type": "function"
				},
				{
					"inputs": [],
					"name": "snapshot",
					"outputs": [
						{
							"internalType": "uint64",
							"name": "",
							"type": "uint64"
						}
					],
					"stateMutability": "view",
					"type": "function"
				},
				{
					"inputs": [],
					"name": "time",
					"outputs": [
						{
							"internalType": "uint256",
							"name": "",
							"type": "uint256"
						}
					],
					"stateMutability": "nonpayable",
					"type": "function"
				},
				{
					"inputs": [],
					"name": "votingDelay",
					"outputs": [
						{
							"internalType": "uint256",
							"name": "",
							"type": "uint256"
						}
					],
					"stateMutability": "pure",
					"type": "function"
				},
				{
					"inputs": [],
					"name": "votingPeriod",
					"outputs": [
						{
							"internalType": "uint256",
							"name": "",
							"type": "uint256"
						}
					],
					"stateMutability": "pure",
					"type": "function"
				}
			],
			"devdoc": {
				"kind": "dev",
				"methods": {},
				"version": 1
			},
			"evm": {
				"assembly": "    /* \".workspaces/default_workspace/unMiracle/test.sol\":167:2059  contract test {... */\n  mstore(0x40, 0x80)\n  callvalue\n  dup1\n  iszero\n  tag_1\n  jumpi\n  0x00\n  dup1\n  revert\ntag_1:\n  pop\n  dataSize(sub_0)\n  dup1\n  dataOffset(sub_0)\n  0x00\n  codecopy\n  0x00\n  return\nstop\n\nsub_0: assembly {\n        /* \".workspaces/default_workspace/unMiracle/test.sol\":167:2059  contract test {... */\n      mstore(0x40, 0x80)\n      callvalue\n      dup1\n      iszero\n      tag_1\n      jumpi\n      0x00\n      dup1\n      revert\n    tag_1:\n      pop\n      jumpi(tag_2, lt(calldatasize, 0x04))\n      shr(0xe0, calldataload(0x00))\n      dup1\n      0x416bdc52\n      gt\n      tag_14\n      jumpi\n      dup1\n      0x416bdc52\n      eq\n      tag_8\n      jumpi\n      dup1\n      0x6097e7a3\n      eq\n      tag_9\n      jumpi\n      dup1\n      0x625ddea9\n      eq\n      tag_10\n      jumpi\n      dup1\n      0x8c492a76\n      eq\n      tag_11\n      jumpi\n      dup1\n      0x9711715a\n      eq\n      tag_12\n      jumpi\n      dup1\n      0xfb1a746f\n      eq\n      tag_13\n      jumpi\n      jump(tag_2)\n    tag_14:\n      dup1\n      0x02a251a3\n      eq\n      tag_3\n      jumpi\n      dup1\n      0x06fdde03\n      eq\n      tag_4\n      jumpi\n      dup1\n      0x16ada547\n      eq\n      tag_5\n      jumpi\n      dup1\n      0x29dcb0cf\n      eq\n      tag_6\n      jumpi\n      dup1\n      0x3932abb1\n      eq\n      tag_7\n      jumpi\n    tag_2:\n      0x00\n      dup1\n      revert\n        /* \".workspaces/default_workspace/unMiracle/test.sol\":1587:1678  function votingPeriod() public pure returns(uint256) {... */\n    tag_3:\n      tag_15\n      tag_16\n      jump\t// in\n    tag_15:\n      mload(0x40)\n      tag_17\n      swap2\n      swap1\n      tag_18\n      jump\t// in\n    tag_17:\n      mload(0x40)\n      dup1\n      swap2\n      sub\n      swap1\n      return\n        /* \".workspaces/default_workspace/unMiracle/test.sol\":684:764  function name() public returns(string memory) {... */\n    tag_4:\n      tag_19\n      tag_20\n      jump\t// in\n    tag_19:\n      mload(0x40)\n      tag_21\n      swap2\n      swap1\n      tag_22\n      jump\t// in\n    tag_21:\n      mload(0x40)\n      dup1\n      swap2\n      sub\n      swap1\n      return\n        /* \".workspaces/default_workspace/unMiracle/test.sol\":562:678  function time() public returns(uint256){... */\n    tag_5:\n      tag_23\n      tag_24\n      jump\t// in\n    tag_23:\n      mload(0x40)\n      tag_25\n      swap2\n      swap1\n      tag_18\n      jump\t// in\n    tag_25:\n      mload(0x40)\n      dup1\n      swap2\n      sub\n      swap1\n      return\n        /* \".workspaces/default_workspace/unMiracle/test.sol\":1843:2057  function deadline() public view returns(uint64) {... */\n    tag_6:\n      tag_26\n      tag_27\n      jump\t// in\n    tag_26:\n      mload(0x40)\n      tag_28\n      swap2\n      swap1\n      tag_29\n      jump\t// in\n    tag_28:\n      mload(0x40)\n      dup1\n      swap2\n      sub\n      swap1\n      return\n        /* \".workspaces/default_workspace/unMiracle/test.sol\":1504:1581  function votingDelay() public pure returns(uint256) {... */\n    tag_7:\n      tag_30\n      tag_31\n      jump\t// in\n    tag_30:\n      mload(0x40)\n      tag_32\n      swap2\n      swap1\n      tag_18\n      jump\t// in\n    tag_32:\n      mload(0x40)\n      dup1\n      swap2\n      sub\n      swap1\n      return\n        /* \".workspaces/default_workspace/unMiracle/test.sol\":1315:1497  function abiDecode(bytes memory data) public returns(uint _str1, uint _number, uint _str2) {... */\n    tag_8:\n      tag_33\n      0x04\n      dup1\n      calldatasize\n      sub\n      dup2\n      add\n      swap1\n      tag_34\n      swap2\n      swap1\n      tag_35\n      jump\t// in\n    tag_34:\n      tag_36\n      jump\t// in\n    tag_33:\n      mload(0x40)\n      tag_37\n      swap4\n      swap3\n      swap2\n      swap1\n      tag_38\n      jump\t// in\n    tag_37:\n      mload(0x40)\n      dup1\n      swap2\n      sub\n      swap1\n      return\n        /* \".workspaces/default_workspace/unMiracle/test.sol\":1212:1310  function abiEncode() public returns(bytes memory) {... */\n    tag_9:\n      tag_39\n      tag_40\n      jump\t// in\n    tag_39:\n      mload(0x40)\n      tag_41\n      swap2\n      swap1\n      tag_42\n      jump\t// in\n    tag_41:\n      mload(0x40)\n      dup1\n      swap2\n      sub\n      swap1\n      return\n        /* \".workspaces/default_workspace/unMiracle/test.sol\":302:462  function num(int a) public view returns(uint256) {... */\n    tag_10:\n      tag_43\n      0x04\n      dup1\n      calldatasize\n      sub\n      dup2\n      add\n      swap1\n      tag_44\n      swap2\n      swap1\n      tag_45\n      jump\t// in\n    tag_44:\n      tag_46\n      jump\t// in\n    tag_43:\n      mload(0x40)\n      tag_47\n      swap2\n      swap1\n      tag_18\n      jump\t// in\n    tag_47:\n      mload(0x40)\n      dup1\n      swap2\n      sub\n      swap1\n      return\n        /* \".workspaces/default_workspace/unMiracle/test.sol\":942:1206  function keccak256test() public returns(bytes memory) {... */\n    tag_11:\n      tag_48\n      tag_49\n      jump\t// in\n    tag_48:\n      mload(0x40)\n      tag_50\n      swap2\n      swap1\n      tag_42\n      jump\t// in\n    tag_50:\n      mload(0x40)\n      dup1\n      swap2\n      sub\n      swap1\n      return\n        /* \".workspaces/default_workspace/unMiracle/test.sol\":1684:1837  function snapshot() public view returns(uint64) {... */\n    tag_12:\n      tag_51\n      tag_52\n      jump\t// in\n    tag_51:\n      mload(0x40)\n      tag_53\n      swap2\n      swap1\n      tag_29\n      jump\t// in\n    tag_53:\n      mload(0x40)\n      dup1\n      swap2\n      sub\n      swap1\n      return\n        /* \".workspaces/default_workspace/unMiracle/test.sol\":468:556  function _executor() public view returns (address) {... */\n    tag_13:\n      tag_54\n      tag_55\n      jump\t// in\n    tag_54:\n      mload(0x40)\n      tag_56\n      swap2\n      swap1\n      tag_57\n      jump\t// in\n    tag_56:\n      mload(0x40)\n      dup1\n      swap2\n      sub\n      swap1\n      return\n        /* \".workspaces/default_workspace/unMiracle/test.sol\":1587:1678  function votingPeriod() public pure returns(uint256) {... */\n    tag_16:\n        /* \".workspaces/default_workspace/unMiracle/test.sol\":1631:1638  uint256 */\n      0x00\n        /* \".workspaces/default_workspace/unMiracle/test.sol\":1657:1662  45818 */\n      0xb2fa\n        /* \".workspaces/default_workspace/unMiracle/test.sol\":1650:1662  return 45818 */\n      swap1\n      pop\n        /* \".workspaces/default_workspace/unMiracle/test.sol\":1587:1678  function votingPeriod() public pure returns(uint256) {... */\n      swap1\n      jump\t// out\n        /* \".workspaces/default_workspace/unMiracle/test.sol\":684:764  function name() public returns(string memory) {... */\n    tag_20:\n        /* \".workspaces/default_workspace/unMiracle/test.sol\":715:728  string memory */\n      0x60\n        /* \".workspaces/default_workspace/unMiracle/test.sol\":740:757  return 'wonhyeok' */\n      mload(0x40)\n      dup1\n      0x40\n      add\n      0x40\n      mstore\n      dup1\n      0x08\n      dup2\n      mstore\n      0x20\n      add\n      0x776f6e6879656f6b000000000000000000000000000000000000000000000000\n      dup2\n      mstore\n      pop\n      swap1\n      pop\n        /* \".workspaces/default_workspace/unMiracle/test.sol\":684:764  function name() public returns(string memory) {... */\n      swap1\n      jump\t// out\n        /* \".workspaces/default_workspace/unMiracle/test.sol\":562:678  function time() public returns(uint256){... */\n    tag_24:\n        /* \".workspaces/default_workspace/unMiracle/test.sol\":593:600  uint256 */\n      0x00\n        /* \".workspaces/default_workspace/unMiracle/test.sol\":611:621  uint256 re */\n      dup1\n        /* \".workspaces/default_workspace/unMiracle/test.sol\":642:652  5*24*60*60 */\n      0x069780\n        /* \".workspaces/default_workspace/unMiracle/test.sol\":624:639  block.timestamp */\n      timestamp\n        /* \".workspaces/default_workspace/unMiracle/test.sol\":624:652  block.timestamp + 5*24*60*60 */\n      tag_61\n      swap2\n      swap1\n      tag_62\n      jump\t// in\n    tag_61:\n        /* \".workspaces/default_workspace/unMiracle/test.sol\":611:652  uint256 re = block.timestamp + 5*24*60*60 */\n      swap1\n      pop\n        /* \".workspaces/default_workspace/unMiracle/test.sol\":669:671  re */\n      dup1\n        /* \".workspaces/default_workspace/unMiracle/test.sol\":662:671  return re */\n      swap2\n      pop\n      pop\n        /* \".workspaces/default_workspace/unMiracle/test.sol\":562:678  function time() public returns(uint256){... */\n      swap1\n      jump\t// out\n        /* \".workspaces/default_workspace/unMiracle/test.sol\":1843:2057  function deadline() public view returns(uint64) {... */\n    tag_27:\n        /* \".workspaces/default_workspace/unMiracle/test.sol\":1883:1889  uint64 */\n      0x00\n        /* \".workspaces/default_workspace/unMiracle/test.sol\":1901:1916  uint64 snapshot */\n      dup1\n        /* \".workspaces/default_workspace/unMiracle/test.sol\":1949:1962  votingDelay() */\n      tag_64\n        /* \".workspaces/default_workspace/unMiracle/test.sol\":1949:1960  votingDelay */\n      tag_31\n        /* \".workspaces/default_workspace/unMiracle/test.sol\":1949:1962  votingDelay() */\n      jump\t// in\n    tag_64:\n        /* \".workspaces/default_workspace/unMiracle/test.sol\":1926:1938  block.number */\n      number\n        /* \".workspaces/default_workspace/unMiracle/test.sol\":1919:1963  uint64(block.number) + uint64(votingDelay()) */\n      tag_65\n      swap2\n      swap1\n      tag_66\n      jump\t// in\n    tag_65:\n        /* \".workspaces/default_workspace/unMiracle/test.sol\":1901:1963  uint64 snapshot = uint64(block.number) + uint64(votingDelay()) */\n      swap1\n      pop\n        /* \".workspaces/default_workspace/unMiracle/test.sol\":1973:1988  uint64 deadline */\n      0x00\n        /* \".workspaces/default_workspace/unMiracle/test.sol\":2009:2023  votingPeriod() */\n      tag_67\n        /* \".workspaces/default_workspace/unMiracle/test.sol\":2009:2021  votingPeriod */\n      tag_16\n        /* \".workspaces/default_workspace/unMiracle/test.sol\":2009:2023  votingPeriod() */\n      jump\t// in\n    tag_67:\n        /* \".workspaces/default_workspace/unMiracle/test.sol\":1991:1999  snapshot */\n      dup3\n        /* \".workspaces/default_workspace/unMiracle/test.sol\":1991:2024  snapshot + uint64(votingPeriod()) */\n      tag_68\n      swap2\n      swap1\n      tag_66\n      jump\t// in\n    tag_68:\n        /* \".workspaces/default_workspace/unMiracle/test.sol\":1973:2024  uint64 deadline = snapshot + uint64(votingPeriod()) */\n      swap1\n      pop\n        /* \".workspaces/default_workspace/unMiracle/test.sol\":2042:2050  deadline */\n      dup1\n        /* \".workspaces/default_workspace/unMiracle/test.sol\":2035:2050  return deadline */\n      swap3\n      pop\n      pop\n      pop\n        /* \".workspaces/default_workspace/unMiracle/test.sol\":1843:2057  function deadline() public view returns(uint64) {... */\n      swap1\n      jump\t// out\n        /* \".workspaces/default_workspace/unMiracle/test.sol\":1504:1581  function votingDelay() public pure returns(uint256) {... */\n    tag_31:\n        /* \".workspaces/default_workspace/unMiracle/test.sol\":1547:1554  uint256 */\n      0x00\n        /* \".workspaces/default_workspace/unMiracle/test.sol\":1573:1574  1 */\n      0x01\n        /* \".workspaces/default_workspace/unMiracle/test.sol\":1566:1574  return 1 */\n      swap1\n      pop\n        /* \".workspaces/default_workspace/unMiracle/test.sol\":1504:1581  function votingDelay() public pure returns(uint256) {... */\n      swap1\n      jump\t// out\n        /* \".workspaces/default_workspace/unMiracle/test.sol\":1315:1497  function abiDecode(bytes memory data) public returns(uint _str1, uint _number, uint _str2) {... */\n    tag_36:\n        /* \".workspaces/default_workspace/unMiracle/test.sol\":1368:1378  uint _str1 */\n      0x00\n        /* \".workspaces/default_workspace/unMiracle/test.sol\":1380:1392  uint _number */\n      dup1\n        /* \".workspaces/default_workspace/unMiracle/test.sol\":1394:1404  uint _str2 */\n      0x00\n        /* \".workspaces/default_workspace/unMiracle/test.sol\":1453:1457  data */\n      dup4\n        /* \".workspaces/default_workspace/unMiracle/test.sol\":1442:1478  abi.decode(data, (uint, uint, uint)) */\n      dup1\n      0x20\n      add\n      swap1\n      mload\n      dup2\n      add\n      swap1\n      tag_71\n      swap2\n      swap1\n      tag_72\n      jump\t// in\n    tag_71:\n        /* \".workspaces/default_workspace/unMiracle/test.sol\":1416:1478  (_str1, _number, _str2) = abi.decode(data, (uint, uint, uint)) */\n      dup1\n      swap4\n      pop\n      dup2\n      swap5\n      pop\n      dup3\n      swap6\n      pop\n      pop\n      pop\n      pop\n        /* \".workspaces/default_workspace/unMiracle/test.sol\":1315:1497  function abiDecode(bytes memory data) public returns(uint _str1, uint _number, uint _str2) {... */\n      swap2\n      swap4\n      swap1\n      swap3\n      pop\n      jump\t// out\n        /* \".workspaces/default_workspace/unMiracle/test.sol\":1212:1310  function abiEncode() public returns(bytes memory) {... */\n    tag_40:\n        /* \".workspaces/default_workspace/unMiracle/test.sol\":1248:1260  bytes memory */\n      0x60\n        /* \".workspaces/default_workspace/unMiracle/test.sol\":1290:1291  1 */\n      0x01\n        /* \".workspaces/default_workspace/unMiracle/test.sol\":1292:1297  45804 */\n      0xb2ec\n        /* \".workspaces/default_workspace/unMiracle/test.sol\":1298:1302  5000 */\n      0x1388\n        /* \".workspaces/default_workspace/unMiracle/test.sol\":1279:1303  abi.encode(1,45804,5000) */\n      add(0x20, mload(0x40))\n      tag_74\n      swap4\n      swap3\n      swap2\n      swap1\n      tag_75\n      jump\t// in\n    tag_74:\n      mload(0x40)\n      0x20\n      dup2\n      dup4\n      sub\n      sub\n      dup2\n      mstore\n      swap1\n      0x40\n      mstore\n        /* \".workspaces/default_workspace/unMiracle/test.sol\":1272:1303  return abi.encode(1,45804,5000) */\n      swap1\n      pop\n        /* \".workspaces/default_workspace/unMiracle/test.sol\":1212:1310  function abiEncode() public returns(bytes memory) {... */\n      swap1\n      jump\t// out\n        /* \".workspaces/default_workspace/unMiracle/test.sol\":302:462  function num(int a) public view returns(uint256) {... */\n    tag_46:\n        /* \".workspaces/default_workspace/unMiracle/test.sol\":342:349  uint256 */\n      0x00\n        /* \".workspaces/default_workspace/unMiracle/test.sol\":361:375  uint256 result */\n      dup1\n        /* \".workspaces/default_workspace/unMiracle/test.sol\":378:386  1* 10^18 */\n      0x18\n        /* \".workspaces/default_workspace/unMiracle/test.sol\":361:386  uint256 result = 1* 10^18 */\n      swap1\n      pop\n        /* \".workspaces/default_workspace/unMiracle/test.sol\":449:455  result */\n      dup1\n        /* \".workspaces/default_workspace/unMiracle/test.sol\":442:455  return result */\n      swap2\n      pop\n      pop\n        /* \".workspaces/default_workspace/unMiracle/test.sol\":302:462  function num(int a) public view returns(uint256) {... */\n      swap2\n      swap1\n      pop\n      jump\t// out\n        /* \".workspaces/default_workspace/unMiracle/test.sol\":942:1206  function keccak256test() public returns(bytes memory) {... */\n    tag_49:\n        /* \".workspaces/default_workspace/unMiracle/test.sol\":982:994  bytes memory */\n      0x60\n        /* \".workspaces/default_workspace/unMiracle/test.sol\":1186:1187  1 */\n      0x01\n        /* \".workspaces/default_workspace/unMiracle/test.sol\":1188:1193  45804 */\n      0xb2ec\n        /* \".workspaces/default_workspace/unMiracle/test.sol\":1194:1198  5000 */\n      0x1388\n        /* \".workspaces/default_workspace/unMiracle/test.sol\":1175:1199  abi.encode(1,45804,5000) */\n      add(0x20, mload(0x40))\n      tag_78\n      swap4\n      swap3\n      swap2\n      swap1\n      tag_75\n      jump\t// in\n    tag_78:\n      mload(0x40)\n      0x20\n      dup2\n      dup4\n      sub\n      sub\n      dup2\n      mstore\n      swap1\n      0x40\n      mstore\n        /* \".workspaces/default_workspace/unMiracle/test.sol\":1167:1199  return  abi.encode(1,45804,5000) */\n      swap1\n      pop\n        /* \".workspaces/default_workspace/unMiracle/test.sol\":942:1206  function keccak256test() public returns(bytes memory) {... */\n      swap1\n      jump\t// out\n        /* \".workspaces/default_workspace/unMiracle/test.sol\":1684:1837  function snapshot() public view returns(uint64) {... */\n    tag_52:\n        /* \".workspaces/default_workspace/unMiracle/test.sol\":1724:1730  uint64 */\n      0x00\n        /* \".workspaces/default_workspace/unMiracle/test.sol\":1742:1757  uint64 snapshot */\n      dup1\n        /* \".workspaces/default_workspace/unMiracle/test.sol\":1790:1803  votingDelay() */\n      tag_80\n        /* \".workspaces/default_workspace/unMiracle/test.sol\":1790:1801  votingDelay */\n      tag_31\n        /* \".workspaces/default_workspace/unMiracle/test.sol\":1790:1803  votingDelay() */\n      jump\t// in\n    tag_80:\n        /* \".workspaces/default_workspace/unMiracle/test.sol\":1767:1779  block.number */\n      number\n        /* \".workspaces/default_workspace/unMiracle/test.sol\":1760:1804  uint64(block.number) + uint64(votingDelay()) */\n      tag_81\n      swap2\n      swap1\n      tag_66\n      jump\t// in\n    tag_81:\n        /* \".workspaces/default_workspace/unMiracle/test.sol\":1742:1804  uint64 snapshot = uint64(block.number) + uint64(votingDelay()) */\n      swap1\n      pop\n        /* \".workspaces/default_workspace/unMiracle/test.sol\":1822:1830  snapshot */\n      dup1\n        /* \".workspaces/default_workspace/unMiracle/test.sol\":1815:1830  return snapshot */\n      swap2\n      pop\n      pop\n        /* \".workspaces/default_workspace/unMiracle/test.sol\":1684:1837  function snapshot() public view returns(uint64) {... */\n      swap1\n      jump\t// out\n        /* \".workspaces/default_workspace/unMiracle/test.sol\":468:556  function _executor() public view returns (address) {... */\n    tag_55:\n        /* \".workspaces/default_workspace/unMiracle/test.sol\":510:517  address */\n      0x00\n        /* \".workspaces/default_workspace/unMiracle/test.sol\":544:548  this */\n      address\n        /* \".workspaces/default_workspace/unMiracle/test.sol\":529:549  return address(this) */\n      swap1\n      pop\n        /* \".workspaces/default_workspace/unMiracle/test.sol\":468:556  function _executor() public view returns (address) {... */\n      swap1\n      jump\t// out\n        /* \"#utility.yul\":7:84   */\n    tag_83:\n        /* \"#utility.yul\":44:51   */\n      0x00\n        /* \"#utility.yul\":73:78   */\n      dup2\n        /* \"#utility.yul\":62:78   */\n      swap1\n      pop\n        /* \"#utility.yul\":7:84   */\n      swap2\n      swap1\n      pop\n      jump\t// out\n        /* \"#utility.yul\":90:208   */\n    tag_84:\n        /* \"#utility.yul\":177:201   */\n      tag_131\n        /* \"#utility.yul\":195:200   */\n      dup2\n        /* \"#utility.yul\":177:201   */\n      tag_83\n      jump\t// in\n    tag_131:\n        /* \"#utility.yul\":172:175   */\n      dup3\n        /* \"#utility.yul\":165:202   */\n      mstore\n        /* \"#utility.yul\":90:208   */\n      pop\n      pop\n      jump\t// out\n        /* \"#utility.yul\":214:436   */\n    tag_18:\n        /* \"#utility.yul\":307:311   */\n      0x00\n        /* \"#utility.yul\":345:347   */\n      0x20\n        /* \"#utility.yul\":334:343   */\n      dup3\n        /* \"#utility.yul\":330:348   */\n      add\n        /* \"#utility.yul\":322:348   */\n      swap1\n      pop\n        /* \"#utility.yul\":358:429   */\n      tag_133\n        /* \"#utility.yul\":426:427   */\n      0x00\n        /* \"#utility.yul\":415:424   */\n      dup4\n        /* \"#utility.yul\":411:428   */\n      add\n        /* \"#utility.yul\":402:408   */\n      dup5\n        /* \"#utility.yul\":358:429   */\n      tag_84\n      jump\t// in\n    tag_133:\n        /* \"#utility.yul\":214:436   */\n      swap3\n      swap2\n      pop\n      pop\n      jump\t// out\n        /* \"#utility.yul\":442:541   */\n    tag_85:\n        /* \"#utility.yul\":494:500   */\n      0x00\n        /* \"#utility.yul\":528:533   */\n      dup2\n        /* \"#utility.yul\":522:534   */\n      mload\n        /* \"#utility.yul\":512:534   */\n      swap1\n      pop\n        /* \"#utility.yul\":442:541   */\n      swap2\n      swap1\n      pop\n      jump\t// out\n        /* \"#utility.yul\":547:716   */\n    tag_86:\n        /* \"#utility.yul\":631:642   */\n      0x00\n        /* \"#utility.yul\":665:671   */\n      dup3\n        /* \"#utility.yul\":660:663   */\n      dup3\n        /* \"#utility.yul\":653:672   */\n      mstore\n        /* \"#utility.yul\":705:709   */\n      0x20\n        /* \"#utility.yul\":700:703   */\n      dup3\n        /* \"#utility.yul\":696:710   */\n      add\n        /* \"#utility.yul\":681:710   */\n      swap1\n      pop\n        /* \"#utility.yul\":547:716   */\n      swap3\n      swap2\n      pop\n      pop\n      jump\t// out\n        /* \"#utility.yul\":722:1029   */\n    tag_87:\n        /* \"#utility.yul\":790:791   */\n      0x00\n        /* \"#utility.yul\":800:913   */\n    tag_137:\n        /* \"#utility.yul\":814:820   */\n      dup4\n        /* \"#utility.yul\":811:812   */\n      dup2\n        /* \"#utility.yul\":808:821   */\n      lt\n        /* \"#utility.yul\":800:913   */\n      iszero\n      tag_139\n      jumpi\n        /* \"#utility.yul\":899:900   */\n      dup1\n        /* \"#utility.yul\":894:897   */\n      dup3\n        /* \"#utility.yul\":890:901   */\n      add\n        /* \"#utility.yul\":884:902   */\n      mload\n        /* \"#utility.yul\":880:881   */\n      dup2\n        /* \"#utility.yul\":875:878   */\n      dup5\n        /* \"#utility.yul\":871:882   */\n      add\n        /* \"#utility.yul\":864:903   */\n      mstore\n        /* \"#utility.yul\":836:838   */\n      0x20\n        /* \"#utility.yul\":833:834   */\n      dup2\n        /* \"#utility.yul\":829:839   */\n      add\n        /* \"#utility.yul\":824:839   */\n      swap1\n      pop\n        /* \"#utility.yul\":800:913   */\n      jump(tag_137)\n    tag_139:\n        /* \"#utility.yul\":931:937   */\n      dup4\n        /* \"#utility.yul\":928:929   */\n      dup2\n        /* \"#utility.yul\":925:938   */\n      gt\n        /* \"#utility.yul\":922:1023   */\n      iszero\n      tag_140\n      jumpi\n        /* \"#utility.yul\":1011:1012   */\n      0x00\n        /* \"#utility.yul\":1002:1008   */\n      dup5\n        /* \"#utility.yul\":997:1000   */\n      dup5\n        /* \"#utility.yul\":993:1009   */\n      add\n        /* \"#utility.yul\":986:1013   */\n      mstore\n        /* \"#utility.yul\":922:1023   */\n    tag_140:\n        /* \"#utility.yul\":771:1029   */\n      pop\n        /* \"#utility.yul\":722:1029   */\n      pop\n      pop\n      pop\n      jump\t// out\n        /* \"#utility.yul\":1035:1137   */\n    tag_88:\n        /* \"#utility.yul\":1076:1082   */\n      0x00\n        /* \"#utility.yul\":1127:1129   */\n      0x1f\n        /* \"#utility.yul\":1123:1130   */\n      not\n        /* \"#utility.yul\":1118:1120   */\n      0x1f\n        /* \"#utility.yul\":1111:1116   */\n      dup4\n        /* \"#utility.yul\":1107:1121   */\n      add\n        /* \"#utility.yul\":1103:1131   */\n      and\n        /* \"#utility.yul\":1093:1131   */\n      swap1\n      pop\n        /* \"#utility.yul\":1035:1137   */\n      swap2\n      swap1\n      pop\n      jump\t// out\n        /* \"#utility.yul\":1143:1507   */\n    tag_89:\n        /* \"#utility.yul\":1231:1234   */\n      0x00\n        /* \"#utility.yul\":1259:1298   */\n      tag_143\n        /* \"#utility.yul\":1292:1297   */\n      dup3\n        /* \"#utility.yul\":1259:1298   */\n      tag_85\n      jump\t// in\n    tag_143:\n        /* \"#utility.yul\":1314:1385   */\n      tag_144\n        /* \"#utility.yul\":1378:1384   */\n      dup2\n        /* \"#utility.yul\":1373:1376   */\n      dup6\n        /* \"#utility.yul\":1314:1385   */\n      tag_86\n      jump\t// in\n    tag_144:\n        /* \"#utility.yul\":1307:1385   */\n      swap4\n      pop\n        /* \"#utility.yul\":1394:1446   */\n      tag_145\n        /* \"#utility.yul\":1439:1445   */\n      dup2\n        /* \"#utility.yul\":1434:1437   */\n      dup6\n        /* \"#utility.yul\":1427:1431   */\n      0x20\n        /* \"#utility.yul\":1420:1425   */\n      dup7\n        /* \"#utility.yul\":1416:1432   */\n      add\n        /* \"#utility.yul\":1394:1446   */\n      tag_87\n      jump\t// in\n    tag_145:\n        /* \"#utility.yul\":1471:1500   */\n      tag_146\n        /* \"#utility.yul\":1493:1499   */\n      dup2\n        /* \"#utility.yul\":1471:1500   */\n      tag_88\n      jump\t// in\n    tag_146:\n        /* \"#utility.yul\":1466:1469   */\n      dup5\n        /* \"#utility.yul\":1462:1501   */\n      add\n        /* \"#utility.yul\":1455:1501   */\n      swap2\n      pop\n        /* \"#utility.yul\":1235:1507   */\n      pop\n        /* \"#utility.yul\":1143:1507   */\n      swap3\n      swap2\n      pop\n      pop\n      jump\t// out\n        /* \"#utility.yul\":1513:1826   */\n    tag_22:\n        /* \"#utility.yul\":1626:1630   */\n      0x00\n        /* \"#utility.yul\":1664:1666   */\n      0x20\n        /* \"#utility.yul\":1653:1662   */\n      dup3\n        /* \"#utility.yul\":1649:1667   */\n      add\n        /* \"#utility.yul\":1641:1667   */\n      swap1\n      pop\n        /* \"#utility.yul\":1713:1722   */\n      dup2\n        /* \"#utility.yul\":1707:1711   */\n      dup2\n        /* \"#utility.yul\":1703:1723   */\n      sub\n        /* \"#utility.yul\":1699:1700   */\n      0x00\n        /* \"#utility.yul\":1688:1697   */\n      dup4\n        /* \"#utility.yul\":1684:1701   */\n      add\n        /* \"#utility.yul\":1677:1724   */\n      mstore\n        /* \"#utility.yul\":1741:1819   */\n      tag_148\n        /* \"#utility.yul\":1814:1818   */\n      dup2\n        /* \"#utility.yul\":1805:1811   */\n      dup5\n        /* \"#utility.yul\":1741:1819   */\n      tag_89\n      jump\t// in\n    tag_148:\n        /* \"#utility.yul\":1733:1819   */\n      swap1\n      pop\n        /* \"#utility.yul\":1513:1826   */\n      swap3\n      swap2\n      pop\n      pop\n      jump\t// out\n        /* \"#utility.yul\":1832:1933   */\n    tag_90:\n        /* \"#utility.yul\":1868:1875   */\n      0x00\n        /* \"#utility.yul\":1908:1926   */\n      0xffffffffffffffff\n        /* \"#utility.yul\":1901:1906   */\n      dup3\n        /* \"#utility.yul\":1897:1927   */\n      and\n        /* \"#utility.yul\":1886:1927   */\n      swap1\n      pop\n        /* \"#utility.yul\":1832:1933   */\n      swap2\n      swap1\n      pop\n      jump\t// out\n        /* \"#utility.yul\":1939:2054   */\n    tag_91:\n        /* \"#utility.yul\":2024:2047   */\n      tag_151\n        /* \"#utility.yul\":2041:2046   */\n      dup2\n        /* \"#utility.yul\":2024:2047   */\n      tag_90\n      jump\t// in\n    tag_151:\n        /* \"#utility.yul\":2019:2022   */\n      dup3\n        /* \"#utility.yul\":2012:2048   */\n      mstore\n        /* \"#utility.yul\":1939:2054   */\n      pop\n      pop\n      jump\t// out\n        /* \"#utility.yul\":2060:2278   */\n    tag_29:\n        /* \"#utility.yul\":2151:2155   */\n      0x00\n        /* \"#utility.yul\":2189:2191   */\n      0x20\n        /* \"#utility.yul\":2178:2187   */\n      dup3\n        /* \"#utility.yul\":2174:2192   */\n      add\n        /* \"#utility.yul\":2166:2192   */\n      swap1\n      pop\n        /* \"#utility.yul\":2202:2271   */\n      tag_153\n        /* \"#utility.yul\":2268:2269   */\n      0x00\n        /* \"#utility.yul\":2257:2266   */\n      dup4\n        /* \"#utility.yul\":2253:2270   */\n      add\n        /* \"#utility.yul\":2244:2250   */\n      dup5\n        /* \"#utility.yul\":2202:2271   */\n      tag_91\n      jump\t// in\n    tag_153:\n        /* \"#utility.yul\":2060:2278   */\n      swap3\n      swap2\n      pop\n      pop\n      jump\t// out\n        /* \"#utility.yul\":2284:2359   */\n    tag_92:\n        /* \"#utility.yul\":2317:2323   */\n      0x00\n        /* \"#utility.yul\":2350:2352   */\n      0x40\n        /* \"#utility.yul\":2344:2353   */\n      mload\n        /* \"#utility.yul\":2334:2353   */\n      swap1\n      pop\n        /* \"#utility.yul\":2284:2359   */\n      swap1\n      jump\t// out\n        /* \"#utility.yul\":2365:2482   */\n    tag_93:\n        /* \"#utility.yul\":2474:2475   */\n      0x00\n        /* \"#utility.yul\":2471:2472   */\n      dup1\n        /* \"#utility.yul\":2464:2476   */\n      revert\n        /* \"#utility.yul\":2488:2605   */\n    tag_94:\n        /* \"#utility.yul\":2597:2598   */\n      0x00\n        /* \"#utility.yul\":2594:2595   */\n      dup1\n        /* \"#utility.yul\":2587:2599   */\n      revert\n        /* \"#utility.yul\":2611:2728   */\n    tag_95:\n        /* \"#utility.yul\":2720:2721   */\n      0x00\n        /* \"#utility.yul\":2717:2718   */\n      dup1\n        /* \"#utility.yul\":2710:2722   */\n      revert\n        /* \"#utility.yul\":2734:2851   */\n    tag_96:\n        /* \"#utility.yul\":2843:2844   */\n      0x00\n        /* \"#utility.yul\":2840:2841   */\n      dup1\n        /* \"#utility.yul\":2833:2845   */\n      revert\n        /* \"#utility.yul\":2857:3037   */\n    tag_97:\n        /* \"#utility.yul\":2905:2982   */\n      0x4e487b7100000000000000000000000000000000000000000000000000000000\n        /* \"#utility.yul\":2902:2903   */\n      0x00\n        /* \"#utility.yul\":2895:2983   */\n      mstore\n        /* \"#utility.yul\":3002:3006   */\n      0x41\n        /* \"#utility.yul\":2999:3000   */\n      0x04\n        /* \"#utility.yul\":2992:3007   */\n      mstore\n        /* \"#utility.yul\":3026:3030   */\n      0x24\n        /* \"#utility.yul\":3023:3024   */\n      0x00\n        /* \"#utility.yul\":3016:3031   */\n      revert\n        /* \"#utility.yul\":3043:3324   */\n    tag_98:\n        /* \"#utility.yul\":3126:3153   */\n      tag_161\n        /* \"#utility.yul\":3148:3152   */\n      dup3\n        /* \"#utility.yul\":3126:3153   */\n      tag_88\n      jump\t// in\n    tag_161:\n        /* \"#utility.yul\":3118:3124   */\n      dup2\n        /* \"#utility.yul\":3114:3154   */\n      add\n        /* \"#utility.yul\":3256:3262   */\n      dup2\n        /* \"#utility.yul\":3244:3254   */\n      dup2\n        /* \"#utility.yul\":3241:3263   */\n      lt\n        /* \"#utility.yul\":3220:3238   */\n      0xffffffffffffffff\n        /* \"#utility.yul\":3208:3218   */\n      dup3\n        /* \"#utility.yul\":3205:3239   */\n      gt\n        /* \"#utility.yul\":3202:3264   */\n      or\n        /* \"#utility.yul\":3199:3287   */\n      iszero\n      tag_162\n      jumpi\n        /* \"#utility.yul\":3267:3285   */\n      tag_163\n      tag_97\n      jump\t// in\n    tag_163:\n        /* \"#utility.yul\":3199:3287   */\n    tag_162:\n        /* \"#utility.yul\":3307:3317   */\n      dup1\n        /* \"#utility.yul\":3303:3305   */\n      0x40\n        /* \"#utility.yul\":3296:3318   */\n      mstore\n        /* \"#utility.yul\":3086:3324   */\n      pop\n        /* \"#utility.yul\":3043:3324   */\n      pop\n      pop\n      jump\t// out\n        /* \"#utility.yul\":3330:3459   */\n    tag_99:\n        /* \"#utility.yul\":3364:3370   */\n      0x00\n        /* \"#utility.yul\":3391:3411   */\n      tag_165\n      tag_92\n      jump\t// in\n    tag_165:\n        /* \"#utility.yul\":3381:3411   */\n      swap1\n      pop\n        /* \"#utility.yul\":3420:3453   */\n      tag_166\n        /* \"#utility.yul\":3448:3452   */\n      dup3\n        /* \"#utility.yul\":3440:3446   */\n      dup3\n        /* \"#utility.yul\":3420:3453   */\n      tag_98\n      jump\t// in\n    tag_166:\n        /* \"#utility.yul\":3330:3459   */\n      swap2\n      swap1\n      pop\n      jump\t// out\n        /* \"#utility.yul\":3465:3772   */\n    tag_100:\n        /* \"#utility.yul\":3526:3530   */\n      0x00\n        /* \"#utility.yul\":3616:3634   */\n      0xffffffffffffffff\n        /* \"#utility.yul\":3608:3614   */\n      dup3\n        /* \"#utility.yul\":3605:3635   */\n      gt\n        /* \"#utility.yul\":3602:3658   */\n      iszero\n      tag_168\n      jumpi\n        /* \"#utility.yul\":3638:3656   */\n      tag_169\n      tag_97\n      jump\t// in\n    tag_169:\n        /* \"#utility.yul\":3602:3658   */\n    tag_168:\n        /* \"#utility.yul\":3676:3705   */\n      tag_170\n        /* \"#utility.yul\":3698:3704   */\n      dup3\n        /* \"#utility.yul\":3676:3705   */\n      tag_88\n      jump\t// in\n    tag_170:\n        /* \"#utility.yul\":3668:3705   */\n      swap1\n      pop\n        /* \"#utility.yul\":3760:3764   */\n      0x20\n        /* \"#utility.yul\":3754:3758   */\n      dup2\n        /* \"#utility.yul\":3750:3765   */\n      add\n        /* \"#utility.yul\":3742:3765   */\n      swap1\n      pop\n        /* \"#utility.yul\":3465:3772   */\n      swap2\n      swap1\n      pop\n      jump\t// out\n        /* \"#utility.yul\":3778:3932   */\n    tag_101:\n        /* \"#utility.yul\":3862:3868   */\n      dup3\n        /* \"#utility.yul\":3857:3860   */\n      dup2\n        /* \"#utility.yul\":3852:3855   */\n      dup4\n        /* \"#utility.yul\":3839:3869   */\n      calldatacopy\n        /* \"#utility.yul\":3924:3925   */\n      0x00\n        /* \"#utility.yul\":3915:3921   */\n      dup4\n        /* \"#utility.yul\":3910:3913   */\n      dup4\n        /* \"#utility.yul\":3906:3922   */\n      add\n        /* \"#utility.yul\":3899:3926   */\n      mstore\n        /* \"#utility.yul\":3778:3932   */\n      pop\n      pop\n      pop\n      jump\t// out\n        /* \"#utility.yul\":3938:4348   */\n    tag_102:\n        /* \"#utility.yul\":4015:4020   */\n      0x00\n        /* \"#utility.yul\":4040:4105   */\n      tag_173\n        /* \"#utility.yul\":4056:4104   */\n      tag_174\n        /* \"#utility.yul\":4097:4103   */\n      dup5\n        /* \"#utility.yul\":4056:4104   */\n      tag_100\n      jump\t// in\n    tag_174:\n        /* \"#utility.yul\":4040:4105   */\n      tag_99\n      jump\t// in\n    tag_173:\n        /* \"#utility.yul\":4031:4105   */\n      swap1\n      pop\n        /* \"#utility.yul\":4128:4134   */\n      dup3\n        /* \"#utility.yul\":4121:4126   */\n      dup2\n        /* \"#utility.yul\":4114:4135   */\n      mstore\n        /* \"#utility.yul\":4166:4170   */\n      0x20\n        /* \"#utility.yul\":4159:4164   */\n      dup2\n        /* \"#utility.yul\":4155:4171   */\n      add\n        /* \"#utility.yul\":4204:4207   */\n      dup5\n        /* \"#utility.yul\":4195:4201   */\n      dup5\n        /* \"#utility.yul\":4190:4193   */\n      dup5\n        /* \"#utility.yul\":4186:4202   */\n      add\n        /* \"#utility.yul\":4183:4208   */\n      gt\n        /* \"#utility.yul\":4180:4292   */\n      iszero\n      tag_175\n      jumpi\n        /* \"#utility.yul\":4211:4290   */\n      tag_176\n      tag_96\n      jump\t// in\n    tag_176:\n        /* \"#utility.yul\":4180:4292   */\n    tag_175:\n        /* \"#utility.yul\":4301:4342   */\n      tag_177\n        /* \"#utility.yul\":4335:4341   */\n      dup5\n        /* \"#utility.yul\":4330:4333   */\n      dup3\n        /* \"#utility.yul\":4325:4328   */\n      dup6\n        /* \"#utility.yul\":4301:4342   */\n      tag_101\n      jump\t// in\n    tag_177:\n        /* \"#utility.yul\":4021:4348   */\n      pop\n        /* \"#utility.yul\":3938:4348   */\n      swap4\n      swap3\n      pop\n      pop\n      pop\n      jump\t// out\n        /* \"#utility.yul\":4367:4705   */\n    tag_103:\n        /* \"#utility.yul\":4422:4427   */\n      0x00\n        /* \"#utility.yul\":4471:4474   */\n      dup3\n        /* \"#utility.yul\":4464:4468   */\n      0x1f\n        /* \"#utility.yul\":4456:4462   */\n      dup4\n        /* \"#utility.yul\":4452:4469   */\n      add\n        /* \"#utility.yul\":4448:4475   */\n      slt\n        /* \"#utility.yul\":4438:4560   */\n      tag_179\n      jumpi\n        /* \"#utility.yul\":4479:4558   */\n      tag_180\n      tag_95\n      jump\t// in\n    tag_180:\n        /* \"#utility.yul\":4438:4560   */\n    tag_179:\n        /* \"#utility.yul\":4596:4602   */\n      dup2\n        /* \"#utility.yul\":4583:4603   */\n      calldataload\n        /* \"#utility.yul\":4621:4699   */\n      tag_181\n        /* \"#utility.yul\":4695:4698   */\n      dup5\n        /* \"#utility.yul\":4687:4693   */\n      dup3\n        /* \"#utility.yul\":4680:4684   */\n      0x20\n        /* \"#utility.yul\":4672:4678   */\n      dup7\n        /* \"#utility.yul\":4668:4685   */\n      add\n        /* \"#utility.yul\":4621:4699   */\n      tag_102\n      jump\t// in\n    tag_181:\n        /* \"#utility.yul\":4612:4699   */\n      swap2\n      pop\n        /* \"#utility.yul\":4428:4705   */\n      pop\n        /* \"#utility.yul\":4367:4705   */\n      swap3\n      swap2\n      pop\n      pop\n      jump\t// out\n        /* \"#utility.yul\":4711:5218   */\n    tag_35:\n        /* \"#utility.yul\":4779:4785   */\n      0x00\n        /* \"#utility.yul\":4828:4830   */\n      0x20\n        /* \"#utility.yul\":4816:4825   */\n      dup3\n        /* \"#utility.yul\":4807:4814   */\n      dup5\n        /* \"#utility.yul\":4803:4826   */\n      sub\n        /* \"#utility.yul\":4799:4831   */\n      slt\n        /* \"#utility.yul\":4796:4915   */\n      iszero\n      tag_183\n      jumpi\n        /* \"#utility.yul\":4834:4913   */\n      tag_184\n      tag_93\n      jump\t// in\n    tag_184:\n        /* \"#utility.yul\":4796:4915   */\n    tag_183:\n        /* \"#utility.yul\":4982:4983   */\n      0x00\n        /* \"#utility.yul\":4971:4980   */\n      dup3\n        /* \"#utility.yul\":4967:4984   */\n      add\n        /* \"#utility.yul\":4954:4985   */\n      calldataload\n        /* \"#utility.yul\":5012:5030   */\n      0xffffffffffffffff\n        /* \"#utility.yul\":5004:5010   */\n      dup2\n        /* \"#utility.yul\":5001:5031   */\n      gt\n        /* \"#utility.yul\":4998:5115   */\n      iszero\n      tag_185\n      jumpi\n        /* \"#utility.yul\":5034:5113   */\n      tag_186\n      tag_94\n      jump\t// in\n    tag_186:\n        /* \"#utility.yul\":4998:5115   */\n    tag_185:\n        /* \"#utility.yul\":5139:5201   */\n      tag_187\n        /* \"#utility.yul\":5193:5200   */\n      dup5\n        /* \"#utility.yul\":5184:5190   */\n      dup3\n        /* \"#utility.yul\":5173:5182   */\n      dup6\n        /* \"#utility.yul\":5169:5191   */\n      add\n        /* \"#utility.yul\":5139:5201   */\n      tag_103\n      jump\t// in\n    tag_187:\n        /* \"#utility.yul\":5129:5201   */\n      swap2\n      pop\n        /* \"#utility.yul\":4925:5211   */\n      pop\n        /* \"#utility.yul\":4711:5218   */\n      swap3\n      swap2\n      pop\n      pop\n      jump\t// out\n        /* \"#utility.yul\":5224:5666   */\n    tag_38:\n        /* \"#utility.yul\":5373:5377   */\n      0x00\n        /* \"#utility.yul\":5411:5413   */\n      0x60\n        /* \"#utility.yul\":5400:5409   */\n      dup3\n        /* \"#utility.yul\":5396:5414   */\n      add\n        /* \"#utility.yul\":5388:5414   */\n      swap1\n      pop\n        /* \"#utility.yul\":5424:5495   */\n      tag_189\n        /* \"#utility.yul\":5492:5493   */\n      0x00\n        /* \"#utility.yul\":5481:5490   */\n      dup4\n        /* \"#utility.yul\":5477:5494   */\n      add\n        /* \"#utility.yul\":5468:5474   */\n      dup7\n        /* \"#utility.yul\":5424:5495   */\n      tag_84\n      jump\t// in\n    tag_189:\n        /* \"#utility.yul\":5505:5577   */\n      tag_190\n        /* \"#utility.yul\":5573:5575   */\n      0x20\n        /* \"#utility.yul\":5562:5571   */\n      dup4\n        /* \"#utility.yul\":5558:5576   */\n      add\n        /* \"#utility.yul\":5549:5555   */\n      dup6\n        /* \"#utility.yul\":5505:5577   */\n      tag_84\n      jump\t// in\n    tag_190:\n        /* \"#utility.yul\":5587:5659   */\n      tag_191\n        /* \"#utility.yul\":5655:5657   */\n      0x40\n        /* \"#utility.yul\":5644:5653   */\n      dup4\n        /* \"#utility.yul\":5640:5658   */\n      add\n        /* \"#utility.yul\":5631:5637   */\n      dup5\n        /* \"#utility.yul\":5587:5659   */\n      tag_84\n      jump\t// in\n    tag_191:\n        /* \"#utility.yul\":5224:5666   */\n      swap5\n      swap4\n      pop\n      pop\n      pop\n      pop\n      jump\t// out\n        /* \"#utility.yul\":5672:5770   */\n    tag_104:\n        /* \"#utility.yul\":5723:5729   */\n      0x00\n        /* \"#utility.yul\":5757:5762   */\n      dup2\n        /* \"#utility.yul\":5751:5763   */\n      mload\n        /* \"#utility.yul\":5741:5763   */\n      swap1\n      pop\n        /* \"#utility.yul\":5672:5770   */\n      swap2\n      swap1\n      pop\n      jump\t// out\n        /* \"#utility.yul\":5776:5944   */\n    tag_105:\n        /* \"#utility.yul\":5859:5870   */\n      0x00\n        /* \"#utility.yul\":5893:5899   */\n      dup3\n        /* \"#utility.yul\":5888:5891   */\n      dup3\n        /* \"#utility.yul\":5881:5900   */\n      mstore\n        /* \"#utility.yul\":5933:5937   */\n      0x20\n        /* \"#utility.yul\":5928:5931   */\n      dup3\n        /* \"#utility.yul\":5924:5938   */\n      add\n        /* \"#utility.yul\":5909:5938   */\n      swap1\n      pop\n        /* \"#utility.yul\":5776:5944   */\n      swap3\n      swap2\n      pop\n      pop\n      jump\t// out\n        /* \"#utility.yul\":5950:6310   */\n    tag_106:\n        /* \"#utility.yul\":6036:6039   */\n      0x00\n        /* \"#utility.yul\":6064:6102   */\n      tag_195\n        /* \"#utility.yul\":6096:6101   */\n      dup3\n        /* \"#utility.yul\":6064:6102   */\n      tag_104\n      jump\t// in\n    tag_195:\n        /* \"#utility.yul\":6118:6188   */\n      tag_196\n        /* \"#utility.yul\":6181:6187   */\n      dup2\n        /* \"#utility.yul\":6176:6179   */\n      dup6\n        /* \"#utility.yul\":6118:6188   */\n      tag_105\n      jump\t// in\n    tag_196:\n        /* \"#utility.yul\":6111:6188   */\n      swap4\n      pop\n        /* \"#utility.yul\":6197:6249   */\n      tag_197\n        /* \"#utility.yul\":6242:6248   */\n      dup2\n        /* \"#utility.yul\":6237:6240   */\n      dup6\n        /* \"#utility.yul\":6230:6234   */\n      0x20\n        /* \"#utility.yul\":6223:6228   */\n      dup7\n        /* \"#utility.yul\":6219:6235   */\n      add\n        /* \"#utility.yul\":6197:6249   */\n      tag_87\n      jump\t// in\n    tag_197:\n        /* \"#utility.yul\":6274:6303   */\n      tag_198\n        /* \"#utility.yul\":6296:6302   */\n      dup2\n        /* \"#utility.yul\":6274:6303   */\n      tag_88\n      jump\t// in\n    tag_198:\n        /* \"#utility.yul\":6269:6272   */\n      dup5\n        /* \"#utility.yul\":6265:6304   */\n      add\n        /* \"#utility.yul\":6258:6304   */\n      swap2\n      pop\n        /* \"#utility.yul\":6040:6310   */\n      pop\n        /* \"#utility.yul\":5950:6310   */\n      swap3\n      swap2\n      pop\n      pop\n      jump\t// out\n        /* \"#utility.yul\":6316:6625   */\n    tag_42:\n        /* \"#utility.yul\":6427:6431   */\n      0x00\n        /* \"#utility.yul\":6465:6467   */\n      0x20\n        /* \"#utility.yul\":6454:6463   */\n      dup3\n        /* \"#utility.yul\":6450:6468   */\n      add\n        /* \"#utility.yul\":6442:6468   */\n      swap1\n      pop\n        /* \"#utility.yul\":6514:6523   */\n      dup2\n        /* \"#utility.yul\":6508:6512   */\n      dup2\n        /* \"#utility.yul\":6504:6524   */\n      sub\n        /* \"#utility.yul\":6500:6501   */\n      0x00\n        /* \"#utility.yul\":6489:6498   */\n      dup4\n        /* \"#utility.yul\":6485:6502   */\n      add\n        /* \"#utility.yul\":6478:6525   */\n      mstore\n        /* \"#utility.yul\":6542:6618   */\n      tag_200\n        /* \"#utility.yul\":6613:6617   */\n      dup2\n        /* \"#utility.yul\":6604:6610   */\n      dup5\n        /* \"#utility.yul\":6542:6618   */\n      tag_106\n      jump\t// in\n    tag_200:\n        /* \"#utility.yul\":6534:6618   */\n      swap1\n      pop\n        /* \"#utility.yul\":6316:6625   */\n      swap3\n      swap2\n      pop\n      pop\n      jump\t// out\n        /* \"#utility.yul\":6631:6707   */\n    tag_107:\n        /* \"#utility.yul\":6667:6674   */\n      0x00\n        /* \"#utility.yul\":6696:6701   */\n      dup2\n        /* \"#utility.yul\":6685:6701   */\n      swap1\n      pop\n        /* \"#utility.yul\":6631:6707   */\n      swap2\n      swap1\n      pop\n      jump\t// out\n        /* \"#utility.yul\":6713:6833   */\n    tag_108:\n        /* \"#utility.yul\":6785:6808   */\n      tag_203\n        /* \"#utility.yul\":6802:6807   */\n      dup2\n        /* \"#utility.yul\":6785:6808   */\n      tag_107\n      jump\t// in\n    tag_203:\n        /* \"#utility.yul\":6778:6783   */\n      dup2\n        /* \"#utility.yul\":6775:6809   */\n      eq\n        /* \"#utility.yul\":6765:6827   */\n      tag_204\n      jumpi\n        /* \"#utility.yul\":6823:6824   */\n      0x00\n        /* \"#utility.yul\":6820:6821   */\n      dup1\n        /* \"#utility.yul\":6813:6825   */\n      revert\n        /* \"#utility.yul\":6765:6827   */\n    tag_204:\n        /* \"#utility.yul\":6713:6833   */\n      pop\n      jump\t// out\n        /* \"#utility.yul\":6839:6976   */\n    tag_109:\n        /* \"#utility.yul\":6884:6889   */\n      0x00\n        /* \"#utility.yul\":6922:6928   */\n      dup2\n        /* \"#utility.yul\":6909:6929   */\n      calldataload\n        /* \"#utility.yul\":6900:6929   */\n      swap1\n      pop\n        /* \"#utility.yul\":6938:6970   */\n      tag_206\n        /* \"#utility.yul\":6964:6969   */\n      dup2\n        /* \"#utility.yul\":6938:6970   */\n      tag_108\n      jump\t// in\n    tag_206:\n        /* \"#utility.yul\":6839:6976   */\n      swap3\n      swap2\n      pop\n      pop\n      jump\t// out\n        /* \"#utility.yul\":6982:7309   */\n    tag_45:\n        /* \"#utility.yul\":7040:7046   */\n      0x00\n        /* \"#utility.yul\":7089:7091   */\n      0x20\n        /* \"#utility.yul\":7077:7086   */\n      dup3\n        /* \"#utility.yul\":7068:7075   */\n      dup5\n        /* \"#utility.yul\":7064:7087   */\n      sub\n        /* \"#utility.yul\":7060:7092   */\n      slt\n        /* \"#utility.yul\":7057:7176   */\n      iszero\n      tag_208\n      jumpi\n        /* \"#utility.yul\":7095:7174   */\n      tag_209\n      tag_93\n      jump\t// in\n    tag_209:\n        /* \"#utility.yul\":7057:7176   */\n    tag_208:\n        /* \"#utility.yul\":7215:7216   */\n      0x00\n        /* \"#utility.yul\":7240:7292   */\n      tag_210\n        /* \"#utility.yul\":7284:7291   */\n      dup5\n        /* \"#utility.yul\":7275:7281   */\n      dup3\n        /* \"#utility.yul\":7264:7273   */\n      dup6\n        /* \"#utility.yul\":7260:7282   */\n      add\n        /* \"#utility.yul\":7240:7292   */\n      tag_109\n      jump\t// in\n    tag_210:\n        /* \"#utility.yul\":7230:7292   */\n      swap2\n      pop\n        /* \"#utility.yul\":7186:7302   */\n      pop\n        /* \"#utility.yul\":6982:7309   */\n      swap3\n      swap2\n      pop\n      pop\n      jump\t// out\n        /* \"#utility.yul\":7315:7441   */\n    tag_110:\n        /* \"#utility.yul\":7352:7359   */\n      0x00\n        /* \"#utility.yul\":7392:7434   */\n      0xffffffffffffffffffffffffffffffffffffffff\n        /* \"#utility.yul\":7385:7390   */\n      dup3\n        /* \"#utility.yul\":7381:7435   */\n      and\n        /* \"#utility.yul\":7370:7435   */\n      swap1\n      pop\n        /* \"#utility.yul\":7315:7441   */\n      swap2\n      swap1\n      pop\n      jump\t// out\n        /* \"#utility.yul\":7447:7543   */\n    tag_111:\n        /* \"#utility.yul\":7484:7491   */\n      0x00\n        /* \"#utility.yul\":7513:7537   */\n      tag_213\n        /* \"#utility.yul\":7531:7536   */\n      dup3\n        /* \"#utility.yul\":7513:7537   */\n      tag_110\n      jump\t// in\n    tag_213:\n        /* \"#utility.yul\":7502:7537   */\n      swap1\n      pop\n        /* \"#utility.yul\":7447:7543   */\n      swap2\n      swap1\n      pop\n      jump\t// out\n        /* \"#utility.yul\":7549:7667   */\n    tag_112:\n        /* \"#utility.yul\":7636:7660   */\n      tag_215\n        /* \"#utility.yul\":7654:7659   */\n      dup2\n        /* \"#utility.yul\":7636:7660   */\n      tag_111\n      jump\t// in\n    tag_215:\n        /* \"#utility.yul\":7631:7634   */\n      dup3\n        /* \"#utility.yul\":7624:7661   */\n      mstore\n        /* \"#utility.yul\":7549:7667   */\n      pop\n      pop\n      jump\t// out\n        /* \"#utility.yul\":7673:7895   */\n    tag_57:\n        /* \"#utility.yul\":7766:7770   */\n      0x00\n        /* \"#utility.yul\":7804:7806   */\n      0x20\n        /* \"#utility.yul\":7793:7802   */\n      dup3\n        /* \"#utility.yul\":7789:7807   */\n      add\n        /* \"#utility.yul\":7781:7807   */\n      swap1\n      pop\n        /* \"#utility.yul\":7817:7888   */\n      tag_217\n        /* \"#utility.yul\":7885:7886   */\n      0x00\n        /* \"#utility.yul\":7874:7883   */\n      dup4\n        /* \"#utility.yul\":7870:7887   */\n      add\n        /* \"#utility.yul\":7861:7867   */\n      dup5\n        /* \"#utility.yul\":7817:7888   */\n      tag_112\n      jump\t// in\n    tag_217:\n        /* \"#utility.yul\":7673:7895   */\n      swap3\n      swap2\n      pop\n      pop\n      jump\t// out\n        /* \"#utility.yul\":7901:8081   */\n    tag_113:\n        /* \"#utility.yul\":7949:8026   */\n      0x4e487b7100000000000000000000000000000000000000000000000000000000\n        /* \"#utility.yul\":7946:7947   */\n      0x00\n        /* \"#utility.yul\":7939:8027   */\n      mstore\n        /* \"#utility.yul\":8046:8050   */\n      0x11\n        /* \"#utility.yul\":8043:8044   */\n      0x04\n        /* \"#utility.yul\":8036:8051   */\n      mstore\n        /* \"#utility.yul\":8070:8074   */\n      0x24\n        /* \"#utility.yul\":8067:8068   */\n      0x00\n        /* \"#utility.yul\":8060:8075   */\n      revert\n        /* \"#utility.yul\":8087:8392   */\n    tag_62:\n        /* \"#utility.yul\":8127:8130   */\n      0x00\n        /* \"#utility.yul\":8146:8166   */\n      tag_220\n        /* \"#utility.yul\":8164:8165   */\n      dup3\n        /* \"#utility.yul\":8146:8166   */\n      tag_83\n      jump\t// in\n    tag_220:\n        /* \"#utility.yul\":8141:8166   */\n      swap2\n      pop\n        /* \"#utility.yul\":8180:8200   */\n      tag_221\n        /* \"#utility.yul\":8198:8199   */\n      dup4\n        /* \"#utility.yul\":8180:8200   */\n      tag_83\n      jump\t// in\n    tag_221:\n        /* \"#utility.yul\":8175:8200   */\n      swap3\n      pop\n        /* \"#utility.yul\":8334:8335   */\n      dup3\n        /* \"#utility.yul\":8266:8332   */\n      0xffffffffffffffffffffffffffffffffffffffffffffffffffffffffffffffff\n        /* \"#utility.yul\":8262:8336   */\n      sub\n        /* \"#utility.yul\":8259:8260   */\n      dup3\n        /* \"#utility.yul\":8256:8337   */\n      gt\n        /* \"#utility.yul\":8253:8360   */\n      iszero\n      tag_222\n      jumpi\n        /* \"#utility.yul\":8340:8358   */\n      tag_223\n      tag_113\n      jump\t// in\n    tag_223:\n        /* \"#utility.yul\":8253:8360   */\n    tag_222:\n        /* \"#utility.yul\":8384:8385   */\n      dup3\n        /* \"#utility.yul\":8381:8382   */\n      dup3\n        /* \"#utility.yul\":8377:8386   */\n      add\n        /* \"#utility.yul\":8370:8386   */\n      swap1\n      pop\n        /* \"#utility.yul\":8087:8392   */\n      swap3\n      swap2\n      pop\n      pop\n      jump\t// out\n        /* \"#utility.yul\":8398:8652   */\n    tag_66:\n        /* \"#utility.yul\":8437:8440   */\n      0x00\n        /* \"#utility.yul\":8456:8475   */\n      tag_225\n        /* \"#utility.yul\":8473:8474   */\n      dup3\n        /* \"#utility.yul\":8456:8475   */\n      tag_90\n      jump\t// in\n    tag_225:\n        /* \"#utility.yul\":8451:8475   */\n      swap2\n      pop\n        /* \"#utility.yul\":8489:8508   */\n      tag_226\n        /* \"#utility.yul\":8506:8507   */\n      dup4\n        /* \"#utility.yul\":8489:8508   */\n      tag_90\n      jump\t// in\n    tag_226:\n        /* \"#utility.yul\":8484:8508   */\n      swap3\n      pop\n        /* \"#utility.yul\":8594:8595   */\n      dup3\n        /* \"#utility.yul\":8574:8592   */\n      0xffffffffffffffff\n        /* \"#utility.yul\":8570:8596   */\n      sub\n        /* \"#utility.yul\":8567:8568   */\n      dup3\n        /* \"#utility.yul\":8564:8597   */\n      gt\n        /* \"#utility.yul\":8561:8620   */\n      iszero\n      tag_227\n      jumpi\n        /* \"#utility.yul\":8600:8618   */\n      tag_228\n      tag_113\n      jump\t// in\n    tag_228:\n        /* \"#utility.yul\":8561:8620   */\n    tag_227:\n        /* \"#utility.yul\":8644:8645   */\n      dup3\n        /* \"#utility.yul\":8641:8642   */\n      dup3\n        /* \"#utility.yul\":8637:8646   */\n      add\n        /* \"#utility.yul\":8630:8646   */\n      swap1\n      pop\n        /* \"#utility.yul\":8398:8652   */\n      swap3\n      swap2\n      pop\n      pop\n      jump\t// out\n        /* \"#utility.yul\":8658:8780   */\n    tag_114:\n        /* \"#utility.yul\":8731:8755   */\n      tag_230\n        /* \"#utility.yul\":8749:8754   */\n      dup2\n        /* \"#utility.yul\":8731:8755   */\n      tag_83\n      jump\t// in\n    tag_230:\n        /* \"#utility.yul\":8724:8729   */\n      dup2\n        /* \"#utility.yul\":8721:8756   */\n      eq\n        /* \"#utility.yul\":8711:8774   */\n      tag_231\n      jumpi\n        /* \"#utility.yul\":8770:8771   */\n      0x00\n        /* \"#utility.yul\":8767:8768   */\n      dup1\n        /* \"#utility.yul\":8760:8772   */\n      revert\n        /* \"#utility.yul\":8711:8774   */\n    tag_231:\n        /* \"#utility.yul\":8658:8780   */\n      pop\n      jump\t// out\n        /* \"#utility.yul\":8786:8929   */\n    tag_115:\n        /* \"#utility.yul\":8843:8848   */\n      0x00\n        /* \"#utility.yul\":8874:8880   */\n      dup2\n        /* \"#utility.yul\":8868:8881   */\n      mload\n        /* \"#utility.yul\":8859:8881   */\n      swap1\n      pop\n        /* \"#utility.yul\":8890:8923   */\n      tag_233\n        /* \"#utility.yul\":8917:8922   */\n      dup2\n        /* \"#utility.yul\":8890:8923   */\n      tag_114\n      jump\t// in\n    tag_233:\n        /* \"#utility.yul\":8786:8929   */\n      swap3\n      swap2\n      pop\n      pop\n      jump\t// out\n        /* \"#utility.yul\":8935:9598   */\n    tag_72:\n        /* \"#utility.yul\":9023:9029   */\n      0x00\n        /* \"#utility.yul\":9031:9037   */\n      dup1\n        /* \"#utility.yul\":9039:9045   */\n      0x00\n        /* \"#utility.yul\":9088:9090   */\n      0x60\n        /* \"#utility.yul\":9076:9085   */\n      dup5\n        /* \"#utility.yul\":9067:9074   */\n      dup7\n        /* \"#utility.yul\":9063:9086   */\n      sub\n        /* \"#utility.yul\":9059:9091   */\n      slt\n        /* \"#utility.yul\":9056:9175   */\n      iszero\n      tag_235\n      jumpi\n        /* \"#utility.yul\":9094:9173   */\n      tag_236\n      tag_93\n      jump\t// in\n    tag_236:\n        /* \"#utility.yul\":9056:9175   */\n    tag_235:\n        /* \"#utility.yul\":9214:9215   */\n      0x00\n        /* \"#utility.yul\":9239:9303   */\n      tag_237\n        /* \"#utility.yul\":9295:9302   */\n      dup7\n        /* \"#utility.yul\":9286:9292   */\n      dup3\n        /* \"#utility.yul\":9275:9284   */\n      dup8\n        /* \"#utility.yul\":9271:9293   */\n      add\n        /* \"#utility.yul\":9239:9303   */\n      tag_115\n      jump\t// in\n    tag_237:\n        /* \"#utility.yul\":9229:9303   */\n      swap4\n      pop\n        /* \"#utility.yul\":9185:9313   */\n      pop\n        /* \"#utility.yul\":9352:9354   */\n      0x20\n        /* \"#utility.yul\":9378:9442   */\n      tag_238\n        /* \"#utility.yul\":9434:9441   */\n      dup7\n        /* \"#utility.yul\":9425:9431   */\n      dup3\n        /* \"#utility.yul\":9414:9423   */\n      dup8\n        /* \"#utility.yul\":9410:9432   */\n      add\n        /* \"#utility.yul\":9378:9442   */\n      tag_115\n      jump\t// in\n    tag_238:\n        /* \"#utility.yul\":9368:9442   */\n      swap3\n      pop\n        /* \"#utility.yul\":9323:9452   */\n      pop\n        /* \"#utility.yul\":9491:9493   */\n      0x40\n        /* \"#utility.yul\":9517:9581   */\n      tag_239\n        /* \"#utility.yul\":9573:9580   */\n      dup7\n        /* \"#utility.yul\":9564:9570   */\n      dup3\n        /* \"#utility.yul\":9553:9562   */\n      dup8\n        /* \"#utility.yul\":9549:9571   */\n      add\n        /* \"#utility.yul\":9517:9581   */\n      tag_115\n      jump\t// in\n    tag_239:\n        /* \"#utility.yul\":9507:9581   */\n      swap2\n      pop\n        /* \"#utility.yul\":9462:9591   */\n      pop\n        /* \"#utility.yul\":8935:9598   */\n      swap3\n      pop\n      swap3\n      pop\n      swap3\n      jump\t// out\n        /* \"#utility.yul\":9604:9689   */\n    tag_116:\n        /* \"#utility.yul\":9649:9656   */\n      0x00\n        /* \"#utility.yul\":9678:9683   */\n      dup2\n        /* \"#utility.yul\":9667:9683   */\n      swap1\n      pop\n        /* \"#utility.yul\":9604:9689   */\n      swap2\n      swap1\n      pop\n      jump\t// out\n        /* \"#utility.yul\":9695:9781   */\n    tag_117:\n        /* \"#utility.yul\":9730:9737   */\n      0x00\n        /* \"#utility.yul\":9770:9774   */\n      0xff\n        /* \"#utility.yul\":9763:9768   */\n      dup3\n        /* \"#utility.yul\":9759:9775   */\n      and\n        /* \"#utility.yul\":9748:9775   */\n      swap1\n      pop\n        /* \"#utility.yul\":9695:9781   */\n      swap2\n      swap1\n      pop\n      jump\t// out\n        /* \"#utility.yul\":9787:9847   */\n    tag_118:\n        /* \"#utility.yul\":9815:9818   */\n      0x00\n        /* \"#utility.yul\":9836:9841   */\n      dup2\n        /* \"#utility.yul\":9829:9841   */\n      swap1\n      pop\n        /* \"#utility.yul\":9787:9847   */\n      swap2\n      swap1\n      pop\n      jump\t// out\n        /* \"#utility.yul\":9853:10007   */\n    tag_119:\n        /* \"#utility.yul\":9909:9918   */\n      0x00\n        /* \"#utility.yul\":9942:10001   */\n      tag_244\n        /* \"#utility.yul\":9958:10000   */\n      tag_245\n        /* \"#utility.yul\":9967:9999   */\n      tag_246\n        /* \"#utility.yul\":9993:9998   */\n      dup5\n        /* \"#utility.yul\":9967:9999   */\n      tag_116\n      jump\t// in\n    tag_246:\n        /* \"#utility.yul\":9958:10000   */\n      tag_118\n      jump\t// in\n    tag_245:\n        /* \"#utility.yul\":9942:10001   */\n      tag_117\n      jump\t// in\n    tag_244:\n        /* \"#utility.yul\":9929:10001   */\n      swap1\n      pop\n        /* \"#utility.yul\":9853:10007   */\n      swap2\n      swap1\n      pop\n      jump\t// out\n        /* \"#utility.yul\":10013:10156   */\n    tag_120:\n        /* \"#utility.yul\":10106:10149   */\n      tag_248\n        /* \"#utility.yul\":10143:10148   */\n      dup2\n        /* \"#utility.yul\":10106:10149   */\n      tag_119\n      jump\t// in\n    tag_248:\n        /* \"#utility.yul\":10101:10104   */\n      dup3\n        /* \"#utility.yul\":10094:10150   */\n      mstore\n        /* \"#utility.yul\":10013:10156   */\n      pop\n      pop\n      jump\t// out\n        /* \"#utility.yul\":10162:10251   */\n    tag_121:\n        /* \"#utility.yul\":10211:10218   */\n      0x00\n        /* \"#utility.yul\":10240:10245   */\n      dup2\n        /* \"#utility.yul\":10229:10245   */\n      swap1\n      pop\n        /* \"#utility.yul\":10162:10251   */\n      swap2\n      swap1\n      pop\n      jump\t// out\n        /* \"#utility.yul\":10257:10346   */\n    tag_122:\n        /* \"#utility.yul\":10293:10300   */\n      0x00\n        /* \"#utility.yul\":10333:10339   */\n      0xffff\n        /* \"#utility.yul\":10326:10331   */\n      dup3\n        /* \"#utility.yul\":10322:10340   */\n      and\n        /* \"#utility.yul\":10311:10340   */\n      swap1\n      pop\n        /* \"#utility.yul\":10257:10346   */\n      swap2\n      swap1\n      pop\n      jump\t// out\n        /* \"#utility.yul\":10352:10516   */\n    tag_123:\n        /* \"#utility.yul\":10413:10422   */\n      0x00\n        /* \"#utility.yul\":10446:10510   */\n      tag_252\n        /* \"#utility.yul\":10463:10509   */\n      tag_253\n        /* \"#utility.yul\":10472:10508   */\n      tag_254\n        /* \"#utility.yul\":10502:10507   */\n      dup5\n        /* \"#utility.yul\":10472:10508   */\n      tag_121\n      jump\t// in\n    tag_254:\n        /* \"#utility.yul\":10463:10509   */\n      tag_118\n      jump\t// in\n    tag_253:\n        /* \"#utility.yul\":10446:10510   */\n      tag_122\n      jump\t// in\n    tag_252:\n        /* \"#utility.yul\":10433:10510   */\n      swap1\n      pop\n        /* \"#utility.yul\":10352:10516   */\n      swap2\n      swap1\n      pop\n      jump\t// out\n        /* \"#utility.yul\":10522:10675   */\n    tag_124:\n        /* \"#utility.yul\":10620:10668   */\n      tag_256\n        /* \"#utility.yul\":10662:10667   */\n      dup2\n        /* \"#utility.yul\":10620:10668   */\n      tag_123\n      jump\t// in\n    tag_256:\n        /* \"#utility.yul\":10615:10618   */\n      dup3\n        /* \"#utility.yul\":10608:10669   */\n      mstore\n        /* \"#utility.yul\":10522:10675   */\n      pop\n      pop\n      jump\t// out\n        /* \"#utility.yul\":10681:10769   */\n    tag_125:\n        /* \"#utility.yul\":10729:10736   */\n      0x00\n        /* \"#utility.yul\":10758:10763   */\n      dup2\n        /* \"#utility.yul\":10747:10763   */\n      swap1\n      pop\n        /* \"#utility.yul\":10681:10769   */\n      swap2\n      swap1\n      pop\n      jump\t// out\n        /* \"#utility.yul\":10775:10937   */\n    tag_126:\n        /* \"#utility.yul\":10835:10844   */\n      0x00\n        /* \"#utility.yul\":10868:10931   */\n      tag_259\n        /* \"#utility.yul\":10885:10930   */\n      tag_260\n        /* \"#utility.yul\":10894:10929   */\n      tag_261\n        /* \"#utility.yul\":10923:10928   */\n      dup5\n        /* \"#utility.yul\":10894:10929   */\n      tag_125\n      jump\t// in\n    tag_261:\n        /* \"#utility.yul\":10885:10930   */\n      tag_118\n      jump\t// in\n    tag_260:\n        /* \"#utility.yul\":10868:10931   */\n      tag_122\n      jump\t// in\n    tag_259:\n        /* \"#utility.yul\":10855:10931   */\n      swap1\n      pop\n        /* \"#utility.yul\":10775:10937   */\n      swap2\n      swap1\n      pop\n      jump\t// out\n        /* \"#utility.yul\":10943:11094   */\n    tag_127:\n        /* \"#utility.yul\":11040:11087   */\n      tag_263\n        /* \"#utility.yul\":11081:11086   */\n      dup2\n        /* \"#utility.yul\":11040:11087   */\n      tag_126\n      jump\t// in\n    tag_263:\n        /* \"#utility.yul\":11035:11038   */\n      dup3\n        /* \"#utility.yul\":11028:11088   */\n      mstore\n        /* \"#utility.yul\":10943:11094   */\n      pop\n      pop\n      jump\t// out\n        /* \"#utility.yul\":11100:11596   */\n    tag_75:\n        /* \"#utility.yul\":11276:11280   */\n      0x00\n        /* \"#utility.yul\":11314:11316   */\n      0x60\n        /* \"#utility.yul\":11303:11312   */\n      dup3\n        /* \"#utility.yul\":11299:11317   */\n      add\n        /* \"#utility.yul\":11291:11317   */\n      swap1\n      pop\n        /* \"#utility.yul\":11327:11404   */\n      tag_265\n        /* \"#utility.yul\":11401:11402   */\n      0x00\n        /* \"#utility.yul\":11390:11399   */\n      dup4\n        /* \"#utility.yul\":11386:11403   */\n      add\n        /* \"#utility.yul\":11377:11383   */\n      dup7\n        /* \"#utility.yul\":11327:11404   */\n      tag_120\n      jump\t// in\n    tag_265:\n        /* \"#utility.yul\":11414:11497   */\n      tag_266\n        /* \"#utility.yul\":11493:11495   */\n      0x20\n        /* \"#utility.yul\":11482:11491   */\n      dup4\n        /* \"#utility.yul\":11478:11496   */\n      add\n        /* \"#utility.yul\":11469:11475   */\n      dup6\n        /* \"#utility.yul\":11414:11497   */\n      tag_124\n      jump\t// in\n    tag_266:\n        /* \"#utility.yul\":11507:11589   */\n      tag_267\n        /* \"#utility.yul\":11585:11587   */\n      0x40\n        /* \"#utility.yul\":11574:11583   */\n      dup4\n        /* \"#utility.yul\":11570:11588   */\n      add\n        /* \"#utility.yul\":11561:11567   */\n      dup5\n        /* \"#utility.yul\":11507:11589   */\n      tag_127\n      jump\t// in\n    tag_267:\n        /* \"#utility.yul\":11100:11596   */\n      swap5\n      swap4\n      pop\n      pop\n      pop\n      pop\n      jump\t// out\n\n    auxdata: 0xa26469706673582212201836ec7b63f6fe97ab372318c90b79517df20cd6819e4a841273ec4e37b6a5f864736f6c634300080d0033\n}\n",
				"bytecode": {
					"linkReferences": {},
					"object": "608060405234801561001057600080fd5b50610a34806100206000396000f3fe608060405234801561001057600080fd5b50600436106100a95760003560e01c8063416bdc5211610071578063416bdc52146101445780636097e7a314610176578063625ddea9146101945780638c492a76146101c45780639711715a146101e2578063fb1a746f14610200576100a9565b806302a251a3146100ae57806306fdde03146100cc57806316ada547146100ea57806329dcb0cf146101085780633932abb114610126575b600080fd5b6100b661021e565b6040516100c3919061039c565b60405180910390f35b6100d4610228565b6040516100e19190610450565b60405180910390f35b6100f2610265565b6040516100ff919061039c565b60405180910390f35b610110610280565b60405161011d9190610495565b60405180910390f35b61012e6102b7565b60405161013b919061039c565b60405180910390f35b61015e600480360381019061015991906105f9565b6102c0565b60405161016d93929190610642565b60405180910390f35b61017e6102ec565b60405161018b91906106ce565b60405180910390f35b6101ae60048036038101906101a99190610726565b61031c565b6040516101bb919061039c565b60405180910390f35b6101cc61032c565b6040516101d991906106ce565b60405180910390f35b6101ea61035c565b6040516101f79190610495565b60405180910390f35b61020861037b565b6040516102159190610794565b60405180910390f35b600061b2fa905090565b60606040518060400160405280600881526020017f776f6e6879656f6b000000000000000000000000000000000000000000000000815250905090565b600080620697804261027791906107de565b90508091505090565b60008061028b6102b7565b436102969190610834565b905060006102a261021e565b826102ad9190610834565b9050809250505090565b60006001905090565b6000806000838060200190518101906102d9919061089e565b8093508194508295505050509193909250565b6060600161b2ec611388604051602001610308939291906109c7565b604051602081830303815290604052905090565b6000806018905080915050919050565b6060600161b2ec611388604051602001610348939291906109c7565b604051602081830303815290604052905090565b6000806103676102b7565b436103729190610834565b90508091505090565b600030905090565b6000819050919050565b61039681610383565b82525050565b60006020820190506103b1600083018461038d565b92915050565b600081519050919050565b600082825260208201905092915050565b60005b838110156103f15780820151818401526020810190506103d6565b83811115610400576000848401525b50505050565b6000601f19601f8301169050919050565b6000610422826103b7565b61042c81856103c2565b935061043c8185602086016103d3565b61044581610406565b840191505092915050565b6000602082019050818103600083015261046a8184610417565b905092915050565b600067ffffffffffffffff82169050919050565b61048f81610472565b82525050565b60006020820190506104aa6000830184610486565b92915050565b6000604051905090565b600080fd5b600080fd5b600080fd5b600080fd5b7f4e487b7100000000000000000000000000000000000000000000000000000000600052604160045260246000fd5b61050682610406565b810181811067ffffffffffffffff82111715610525576105246104ce565b5b80604052505050565b60006105386104b0565b905061054482826104fd565b919050565b600067ffffffffffffffff821115610564576105636104ce565b5b61056d82610406565b9050602081019050919050565b82818337600083830152505050565b600061059c61059784610549565b61052e565b9050828152602081018484840111156105b8576105b76104c9565b5b6105c384828561057a565b509392505050565b600082601f8301126105e0576105df6104c4565b5b81356105f0848260208601610589565b91505092915050565b60006020828403121561060f5761060e6104ba565b5b600082013567ffffffffffffffff81111561062d5761062c6104bf565b5b610639848285016105cb565b91505092915050565b6000606082019050610657600083018661038d565b610664602083018561038d565b610671604083018461038d565b949350505050565b600081519050919050565b600082825260208201905092915050565b60006106a082610679565b6106aa8185610684565b93506106ba8185602086016103d3565b6106c381610406565b840191505092915050565b600060208201905081810360008301526106e88184610695565b905092915050565b6000819050919050565b610703816106f0565b811461070e57600080fd5b50565b600081359050610720816106fa565b92915050565b60006020828403121561073c5761073b6104ba565b5b600061074a84828501610711565b91505092915050565b600073ffffffffffffffffffffffffffffffffffffffff82169050919050565b600061077e82610753565b9050919050565b61078e81610773565b82525050565b60006020820190506107a96000830184610785565b92915050565b7f4e487b7100000000000000000000000000000000000000000000000000000000600052601160045260246000fd5b60006107e982610383565b91506107f483610383565b9250827fffffffffffffffffffffffffffffffffffffffffffffffffffffffffffffffff03821115610829576108286107af565b5b828201905092915050565b600061083f82610472565b915061084a83610472565b92508267ffffffffffffffff03821115610867576108666107af565b5b828201905092915050565b61087b81610383565b811461088657600080fd5b50565b60008151905061089881610872565b92915050565b6000806000606084860312156108b7576108b66104ba565b5b60006108c586828701610889565b93505060206108d686828701610889565b92505060406108e786828701610889565b9150509250925092565b6000819050919050565b600060ff82169050919050565b6000819050919050565b600061092d610928610923846108f1565b610908565b6108fb565b9050919050565b61093d81610912565b82525050565b6000819050919050565b600061ffff82169050919050565b600061097661097161096c84610943565b610908565b61094d565b9050919050565b6109868161095b565b82525050565b6000819050919050565b60006109b16109ac6109a78461098c565b610908565b61094d565b9050919050565b6109c181610996565b82525050565b60006060820190506109dc6000830186610934565b6109e9602083018561097d565b6109f660408301846109b8565b94935050505056fea26469706673582212201836ec7b63f6fe97ab372318c90b79517df20cd6819e4a841273ec4e37b6a5f864736f6c634300080d0033",
					"opcodes": "PUSH1 0x80 PUSH1 0x40 MSTORE CALLVALUE DUP1 ISZERO PUSH2 0x10 JUMPI PUSH1 0x0 DUP1 REVERT JUMPDEST POP PUSH2 0xA34 DUP1 PUSH2 0x20 PUSH1 0x0 CODECOPY PUSH1 0x0 RETURN INVALID PUSH1 0x80 PUSH1 0x40 MSTORE CALLVALUE DUP1 ISZERO PUSH2 0x10 JUMPI PUSH1 0x0 DUP1 REVERT JUMPDEST POP PUSH1 0x4 CALLDATASIZE LT PUSH2 0xA9 JUMPI PUSH1 0x0 CALLDATALOAD PUSH1 0xE0 SHR DUP1 PUSH4 0x416BDC52 GT PUSH2 0x71 JUMPI DUP1 PUSH4 0x416BDC52 EQ PUSH2 0x144 JUMPI DUP1 PUSH4 0x6097E7A3 EQ PUSH2 0x176 JUMPI DUP1 PUSH4 0x625DDEA9 EQ PUSH2 0x194 JUMPI DUP1 PUSH4 0x8C492A76 EQ PUSH2 0x1C4 JUMPI DUP1 PUSH4 0x9711715A EQ PUSH2 0x1E2 JUMPI DUP1 PUSH4 0xFB1A746F EQ PUSH2 0x200 JUMPI PUSH2 0xA9 JUMP JUMPDEST DUP1 PUSH4 0x2A251A3 EQ PUSH2 0xAE JUMPI DUP1 PUSH4 0x6FDDE03 EQ PUSH2 0xCC JUMPI DUP1 PUSH4 0x16ADA547 EQ PUSH2 0xEA JUMPI DUP1 PUSH4 0x29DCB0CF EQ PUSH2 0x108 JUMPI DUP1 PUSH4 0x3932ABB1 EQ PUSH2 0x126 JUMPI JUMPDEST PUSH1 0x0 DUP1 REVERT JUMPDEST PUSH2 0xB6 PUSH2 0x21E JUMP JUMPDEST PUSH1 0x40 MLOAD PUSH2 0xC3 SWAP2 SWAP1 PUSH2 0x39C JUMP JUMPDEST PUSH1 0x40 MLOAD DUP1 SWAP2 SUB SWAP1 RETURN JUMPDEST PUSH2 0xD4 PUSH2 0x228 JUMP JUMPDEST PUSH1 0x40 MLOAD PUSH2 0xE1 SWAP2 SWAP1 PUSH2 0x450 JUMP JUMPDEST PUSH1 0x40 MLOAD DUP1 SWAP2 SUB SWAP1 RETURN JUMPDEST PUSH2 0xF2 PUSH2 0x265 JUMP JUMPDEST PUSH1 0x40 MLOAD PUSH2 0xFF SWAP2 SWAP1 PUSH2 0x39C JUMP JUMPDEST PUSH1 0x40 MLOAD DUP1 SWAP2 SUB SWAP1 RETURN JUMPDEST PUSH2 0x110 PUSH2 0x280 JUMP JUMPDEST PUSH1 0x40 MLOAD PUSH2 0x11D SWAP2 SWAP1 PUSH2 0x495 JUMP JUMPDEST PUSH1 0x40 MLOAD DUP1 SWAP2 SUB SWAP1 RETURN JUMPDEST PUSH2 0x12E PUSH2 0x2B7 JUMP JUMPDEST PUSH1 0x40 MLOAD PUSH2 0x13B SWAP2 SWAP1 PUSH2 0x39C JUMP JUMPDEST PUSH1 0x40 MLOAD DUP1 SWAP2 SUB SWAP1 RETURN JUMPDEST PUSH2 0x15E PUSH1 0x4 DUP1 CALLDATASIZE SUB DUP2 ADD SWAP1 PUSH2 0x159 SWAP2 SWAP1 PUSH2 0x5F9 JUMP JUMPDEST PUSH2 0x2C0 JUMP JUMPDEST PUSH1 0x40 MLOAD PUSH2 0x16D SWAP4 SWAP3 SWAP2 SWAP1 PUSH2 0x642 JUMP JUMPDEST PUSH1 0x40 MLOAD DUP1 SWAP2 SUB SWAP1 RETURN JUMPDEST PUSH2 0x17E PUSH2 0x2EC JUMP JUMPDEST PUSH1 0x40 MLOAD PUSH2 0x18B SWAP2 SWAP1 PUSH2 0x6CE JUMP JUMPDEST PUSH1 0x40 MLOAD DUP1 SWAP2 SUB SWAP1 RETURN JUMPDEST PUSH2 0x1AE PUSH1 0x4 DUP1 CALLDATASIZE SUB DUP2 ADD SWAP1 PUSH2 0x1A9 SWAP2 SWAP1 PUSH2 0x726 JUMP JUMPDEST PUSH2 0x31C JUMP JUMPDEST PUSH1 0x40 MLOAD PUSH2 0x1BB SWAP2 SWAP1 PUSH2 0x39C JUMP JUMPDEST PUSH1 0x40 MLOAD DUP1 SWAP2 SUB SWAP1 RETURN JUMPDEST PUSH2 0x1CC PUSH2 0x32C JUMP JUMPDEST PUSH1 0x40 MLOAD PUSH2 0x1D9 SWAP2 SWAP1 PUSH2 0x6CE JUMP JUMPDEST PUSH1 0x40 MLOAD DUP1 SWAP2 SUB SWAP1 RETURN JUMPDEST PUSH2 0x1EA PUSH2 0x35C JUMP JUMPDEST PUSH1 0x40 MLOAD PUSH2 0x1F7 SWAP2 SWAP1 PUSH2 0x495 JUMP JUMPDEST PUSH1 0x40 MLOAD DUP1 SWAP2 SUB SWAP1 RETURN JUMPDEST PUSH2 0x208 PUSH2 0x37B JUMP JUMPDEST PUSH1 0x40 MLOAD PUSH2 0x215 SWAP2 SWAP1 PUSH2 0x794 JUMP JUMPDEST PUSH1 0x40 MLOAD DUP1 SWAP2 SUB SWAP1 RETURN JUMPDEST PUSH1 0x0 PUSH2 0xB2FA SWAP1 POP SWAP1 JUMP JUMPDEST PUSH1 0x60 PUSH1 0x40 MLOAD DUP1 PUSH1 0x40 ADD PUSH1 0x40 MSTORE DUP1 PUSH1 0x8 DUP2 MSTORE PUSH1 0x20 ADD PUSH32 0x776F6E6879656F6B000000000000000000000000000000000000000000000000 DUP2 MSTORE POP SWAP1 POP SWAP1 JUMP JUMPDEST PUSH1 0x0 DUP1 PUSH3 0x69780 TIMESTAMP PUSH2 0x277 SWAP2 SWAP1 PUSH2 0x7DE JUMP JUMPDEST SWAP1 POP DUP1 SWAP2 POP POP SWAP1 JUMP JUMPDEST PUSH1 0x0 DUP1 PUSH2 0x28B PUSH2 0x2B7 JUMP JUMPDEST NUMBER PUSH2 0x296 SWAP2 SWAP1 PUSH2 0x834 JUMP JUMPDEST SWAP1 POP PUSH1 0x0 PUSH2 0x2A2 PUSH2 0x21E JUMP JUMPDEST DUP3 PUSH2 0x2AD SWAP2 SWAP1 PUSH2 0x834 JUMP JUMPDEST SWAP1 POP DUP1 SWAP3 POP POP POP SWAP1 JUMP JUMPDEST PUSH1 0x0 PUSH1 0x1 SWAP1 POP SWAP1 JUMP JUMPDEST PUSH1 0x0 DUP1 PUSH1 0x0 DUP4 DUP1 PUSH1 0x20 ADD SWAP1 MLOAD DUP2 ADD SWAP1 PUSH2 0x2D9 SWAP2 SWAP1 PUSH2 0x89E JUMP JUMPDEST DUP1 SWAP4 POP DUP2 SWAP5 POP DUP3 SWAP6 POP POP POP POP SWAP2 SWAP4 SWAP1 SWAP3 POP JUMP JUMPDEST PUSH1 0x60 PUSH1 0x1 PUSH2 0xB2EC PUSH2 0x1388 PUSH1 0x40 MLOAD PUSH1 0x20 ADD PUSH2 0x308 SWAP4 SWAP3 SWAP2 SWAP1 PUSH2 0x9C7 JUMP JUMPDEST PUSH1 0x40 MLOAD PUSH1 0x20 DUP2 DUP4 SUB SUB DUP2 MSTORE SWAP1 PUSH1 0x40 MSTORE SWAP1 POP SWAP1 JUMP JUMPDEST PUSH1 0x0 DUP1 PUSH1 0x18 SWAP1 POP DUP1 SWAP2 POP POP SWAP2 SWAP1 POP JUMP JUMPDEST PUSH1 0x60 PUSH1 0x1 PUSH2 0xB2EC PUSH2 0x1388 PUSH1 0x40 MLOAD PUSH1 0x20 ADD PUSH2 0x348 SWAP4 SWAP3 SWAP2 SWAP1 PUSH2 0x9C7 JUMP JUMPDEST PUSH1 0x40 MLOAD PUSH1 0x20 DUP2 DUP4 SUB SUB DUP2 MSTORE SWAP1 PUSH1 0x40 MSTORE SWAP1 POP SWAP1 JUMP JUMPDEST PUSH1 0x0 DUP1 PUSH2 0x367 PUSH2 0x2B7 JUMP JUMPDEST NUMBER PUSH2 0x372 SWAP2 SWAP1 PUSH2 0x834 JUMP JUMPDEST SWAP1 POP DUP1 SWAP2 POP POP SWAP1 JUMP JUMPDEST PUSH1 0x0 ADDRESS SWAP1 POP SWAP1 JUMP JUMPDEST PUSH1 0x0 DUP2 SWAP1 POP SWAP2 SWAP1 POP JUMP JUMPDEST PUSH2 0x396 DUP2 PUSH2 0x383 JUMP JUMPDEST DUP3 MSTORE POP POP JUMP JUMPDEST PUSH1 0x0 PUSH1 0x20 DUP3 ADD SWAP1 POP PUSH2 0x3B1 PUSH1 0x0 DUP4 ADD DUP5 PUSH2 0x38D JUMP JUMPDEST SWAP3 SWAP2 POP POP JUMP JUMPDEST PUSH1 0x0 DUP2 MLOAD SWAP1 POP SWAP2 SWAP1 POP JUMP JUMPDEST PUSH1 0x0 DUP3 DUP3 MSTORE PUSH1 0x20 DUP3 ADD SWAP1 POP SWAP3 SWAP2 POP POP JUMP JUMPDEST PUSH1 0x0 JUMPDEST DUP4 DUP2 LT ISZERO PUSH2 0x3F1 JUMPI DUP1 DUP3 ADD MLOAD DUP2 DUP5 ADD MSTORE PUSH1 0x20 DUP2 ADD SWAP1 POP PUSH2 0x3D6 JUMP JUMPDEST DUP4 DUP2 GT ISZERO PUSH2 0x400 JUMPI PUSH1 0x0 DUP5 DUP5 ADD MSTORE JUMPDEST POP POP POP POP JUMP JUMPDEST PUSH1 0x0 PUSH1 0x1F NOT PUSH1 0x1F DUP4 ADD AND SWAP1 POP SWAP2 SWAP1 POP JUMP JUMPDEST PUSH1 0x0 PUSH2 0x422 DUP3 PUSH2 0x3B7 JUMP JUMPDEST PUSH2 0x42C DUP2 DUP6 PUSH2 0x3C2 JUMP JUMPDEST SWAP4 POP PUSH2 0x43C DUP2 DUP6 PUSH1 0x20 DUP7 ADD PUSH2 0x3D3 JUMP JUMPDEST PUSH2 0x445 DUP2 PUSH2 0x406 JUMP JUMPDEST DUP5 ADD SWAP2 POP POP SWAP3 SWAP2 POP POP JUMP JUMPDEST PUSH1 0x0 PUSH1 0x20 DUP3 ADD SWAP1 POP DUP2 DUP2 SUB PUSH1 0x0 DUP4 ADD MSTORE PUSH2 0x46A DUP2 DUP5 PUSH2 0x417 JUMP JUMPDEST SWAP1 POP SWAP3 SWAP2 POP POP JUMP JUMPDEST PUSH1 0x0 PUSH8 0xFFFFFFFFFFFFFFFF DUP3 AND SWAP1 POP SWAP2 SWAP1 POP JUMP JUMPDEST PUSH2 0x48F DUP2 PUSH2 0x472 JUMP JUMPDEST DUP3 MSTORE POP POP JUMP JUMPDEST PUSH1 0x0 PUSH1 0x20 DUP3 ADD SWAP1 POP PUSH2 0x4AA PUSH1 0x0 DUP4 ADD DUP5 PUSH2 0x486 JUMP JUMPDEST SWAP3 SWAP2 POP POP JUMP JUMPDEST PUSH1 0x0 PUSH1 0x40 MLOAD SWAP1 POP SWAP1 JUMP JUMPDEST PUSH1 0x0 DUP1 REVERT JUMPDEST PUSH1 0x0 DUP1 REVERT JUMPDEST PUSH1 0x0 DUP1 REVERT JUMPDEST PUSH1 0x0 DUP1 REVERT JUMPDEST PUSH32 0x4E487B7100000000000000000000000000000000000000000000000000000000 PUSH1 0x0 MSTORE PUSH1 0x41 PUSH1 0x4 MSTORE PUSH1 0x24 PUSH1 0x0 REVERT JUMPDEST PUSH2 0x506 DUP3 PUSH2 0x406 JUMP JUMPDEST DUP2 ADD DUP2 DUP2 LT PUSH8 0xFFFFFFFFFFFFFFFF DUP3 GT OR ISZERO PUSH2 0x525 JUMPI PUSH2 0x524 PUSH2 0x4CE JUMP JUMPDEST JUMPDEST DUP1 PUSH1 0x40 MSTORE POP POP POP JUMP JUMPDEST PUSH1 0x0 PUSH2 0x538 PUSH2 0x4B0 JUMP JUMPDEST SWAP1 POP PUSH2 0x544 DUP3 DUP3 PUSH2 0x4FD JUMP JUMPDEST SWAP2 SWAP1 POP JUMP JUMPDEST PUSH1 0x0 PUSH8 0xFFFFFFFFFFFFFFFF DUP3 GT ISZERO PUSH2 0x564 JUMPI PUSH2 0x563 PUSH2 0x4CE JUMP JUMPDEST JUMPDEST PUSH2 0x56D DUP3 PUSH2 0x406 JUMP JUMPDEST SWAP1 POP PUSH1 0x20 DUP2 ADD SWAP1 POP SWAP2 SWAP1 POP JUMP JUMPDEST DUP3 DUP2 DUP4 CALLDATACOPY PUSH1 0x0 DUP4 DUP4 ADD MSTORE POP POP POP JUMP JUMPDEST PUSH1 0x0 PUSH2 0x59C PUSH2 0x597 DUP5 PUSH2 0x549 JUMP JUMPDEST PUSH2 0x52E JUMP JUMPDEST SWAP1 POP DUP3 DUP2 MSTORE PUSH1 0x20 DUP2 ADD DUP5 DUP5 DUP5 ADD GT ISZERO PUSH2 0x5B8 JUMPI PUSH2 0x5B7 PUSH2 0x4C9 JUMP JUMPDEST JUMPDEST PUSH2 0x5C3 DUP5 DUP3 DUP6 PUSH2 0x57A JUMP JUMPDEST POP SWAP4 SWAP3 POP POP POP JUMP JUMPDEST PUSH1 0x0 DUP3 PUSH1 0x1F DUP4 ADD SLT PUSH2 0x5E0 JUMPI PUSH2 0x5DF PUSH2 0x4C4 JUMP JUMPDEST JUMPDEST DUP2 CALLDATALOAD PUSH2 0x5F0 DUP5 DUP3 PUSH1 0x20 DUP7 ADD PUSH2 0x589 JUMP JUMPDEST SWAP2 POP POP SWAP3 SWAP2 POP POP JUMP JUMPDEST PUSH1 0x0 PUSH1 0x20 DUP3 DUP5 SUB SLT ISZERO PUSH2 0x60F JUMPI PUSH2 0x60E PUSH2 0x4BA JUMP JUMPDEST JUMPDEST PUSH1 0x0 DUP3 ADD CALLDATALOAD PUSH8 0xFFFFFFFFFFFFFFFF DUP2 GT ISZERO PUSH2 0x62D JUMPI PUSH2 0x62C PUSH2 0x4BF JUMP JUMPDEST JUMPDEST PUSH2 0x639 DUP5 DUP3 DUP6 ADD PUSH2 0x5CB JUMP JUMPDEST SWAP2 POP POP SWAP3 SWAP2 POP POP JUMP JUMPDEST PUSH1 0x0 PUSH1 0x60 DUP3 ADD SWAP1 POP PUSH2 0x657 PUSH1 0x0 DUP4 ADD DUP7 PUSH2 0x38D JUMP JUMPDEST PUSH2 0x664 PUSH1 0x20 DUP4 ADD DUP6 PUSH2 0x38D JUMP JUMPDEST PUSH2 0x671 PUSH1 0x40 DUP4 ADD DUP5 PUSH2 0x38D JUMP JUMPDEST SWAP5 SWAP4 POP POP POP POP JUMP JUMPDEST PUSH1 0x0 DUP2 MLOAD SWAP1 POP SWAP2 SWAP1 POP JUMP JUMPDEST PUSH1 0x0 DUP3 DUP3 MSTORE PUSH1 0x20 DUP3 ADD SWAP1 POP SWAP3 SWAP2 POP POP JUMP JUMPDEST PUSH1 0x0 PUSH2 0x6A0 DUP3 PUSH2 0x679 JUMP JUMPDEST PUSH2 0x6AA DUP2 DUP6 PUSH2 0x684 JUMP JUMPDEST SWAP4 POP PUSH2 0x6BA DUP2 DUP6 PUSH1 0x20 DUP7 ADD PUSH2 0x3D3 JUMP JUMPDEST PUSH2 0x6C3 DUP2 PUSH2 0x406 JUMP JUMPDEST DUP5 ADD SWAP2 POP POP SWAP3 SWAP2 POP POP JUMP JUMPDEST PUSH1 0x0 PUSH1 0x20 DUP3 ADD SWAP1 POP DUP2 DUP2 SUB PUSH1 0x0 DUP4 ADD MSTORE PUSH2 0x6E8 DUP2 DUP5 PUSH2 0x695 JUMP JUMPDEST SWAP1 POP SWAP3 SWAP2 POP POP JUMP JUMPDEST PUSH1 0x0 DUP2 SWAP1 POP SWAP2 SWAP1 POP JUMP JUMPDEST PUSH2 0x703 DUP2 PUSH2 0x6F0 JUMP JUMPDEST DUP2 EQ PUSH2 0x70E JUMPI PUSH1 0x0 DUP1 REVERT JUMPDEST POP JUMP JUMPDEST PUSH1 0x0 DUP2 CALLDATALOAD SWAP1 POP PUSH2 0x720 DUP2 PUSH2 0x6FA JUMP JUMPDEST SWAP3 SWAP2 POP POP JUMP JUMPDEST PUSH1 0x0 PUSH1 0x20 DUP3 DUP5 SUB SLT ISZERO PUSH2 0x73C JUMPI PUSH2 0x73B PUSH2 0x4BA JUMP JUMPDEST JUMPDEST PUSH1 0x0 PUSH2 0x74A DUP5 DUP3 DUP6 ADD PUSH2 0x711 JUMP JUMPDEST SWAP2 POP POP SWAP3 SWAP2 POP POP JUMP JUMPDEST PUSH1 0x0 PUSH20 0xFFFFFFFFFFFFFFFFFFFFFFFFFFFFFFFFFFFFFFFF DUP3 AND SWAP1 POP SWAP2 SWAP1 POP JUMP JUMPDEST PUSH1 0x0 PUSH2 0x77E DUP3 PUSH2 0x753 JUMP JUMPDEST SWAP1 POP SWAP2 SWAP1 POP JUMP JUMPDEST PUSH2 0x78E DUP2 PUSH2 0x773 JUMP JUMPDEST DUP3 MSTORE POP POP JUMP JUMPDEST PUSH1 0x0 PUSH1 0x20 DUP3 ADD SWAP1 POP PUSH2 0x7A9 PUSH1 0x0 DUP4 ADD DUP5 PUSH2 0x785 JUMP JUMPDEST SWAP3 SWAP2 POP POP JUMP JUMPDEST PUSH32 0x4E487B7100000000000000000000000000000000000000000000000000000000 PUSH1 0x0 MSTORE PUSH1 0x11 PUSH1 0x4 MSTORE PUSH1 0x24 PUSH1 0x0 REVERT JUMPDEST PUSH1 0x0 PUSH2 0x7E9 DUP3 PUSH2 0x383 JUMP JUMPDEST SWAP2 POP PUSH2 0x7F4 DUP4 PUSH2 0x383 JUMP JUMPDEST SWAP3 POP DUP3 PUSH32 0xFFFFFFFFFFFFFFFFFFFFFFFFFFFFFFFFFFFFFFFFFFFFFFFFFFFFFFFFFFFFFFFF SUB DUP3 GT ISZERO PUSH2 0x829 JUMPI PUSH2 0x828 PUSH2 0x7AF JUMP JUMPDEST JUMPDEST DUP3 DUP3 ADD SWAP1 POP SWAP3 SWAP2 POP POP JUMP JUMPDEST PUSH1 0x0 PUSH2 0x83F DUP3 PUSH2 0x472 JUMP JUMPDEST SWAP2 POP PUSH2 0x84A DUP4 PUSH2 0x472 JUMP JUMPDEST SWAP3 POP DUP3 PUSH8 0xFFFFFFFFFFFFFFFF SUB DUP3 GT ISZERO PUSH2 0x867 JUMPI PUSH2 0x866 PUSH2 0x7AF JUMP JUMPDEST JUMPDEST DUP3 DUP3 ADD SWAP1 POP SWAP3 SWAP2 POP POP JUMP JUMPDEST PUSH2 0x87B DUP2 PUSH2 0x383 JUMP JUMPDEST DUP2 EQ PUSH2 0x886 JUMPI PUSH1 0x0 DUP1 REVERT JUMPDEST POP JUMP JUMPDEST PUSH1 0x0 DUP2 MLOAD SWAP1 POP PUSH2 0x898 DUP2 PUSH2 0x872 JUMP JUMPDEST SWAP3 SWAP2 POP POP JUMP JUMPDEST PUSH1 0x0 DUP1 PUSH1 0x0 PUSH1 0x60 DUP5 DUP7 SUB SLT ISZERO PUSH2 0x8B7 JUMPI PUSH2 0x8B6 PUSH2 0x4BA JUMP JUMPDEST JUMPDEST PUSH1 0x0 PUSH2 0x8C5 DUP7 DUP3 DUP8 ADD PUSH2 0x889 JUMP JUMPDEST SWAP4 POP POP PUSH1 0x20 PUSH2 0x8D6 DUP7 DUP3 DUP8 ADD PUSH2 0x889 JUMP JUMPDEST SWAP3 POP POP PUSH1 0x40 PUSH2 0x8E7 DUP7 DUP3 DUP8 ADD PUSH2 0x889 JUMP JUMPDEST SWAP2 POP POP SWAP3 POP SWAP3 POP SWAP3 JUMP JUMPDEST PUSH1 0x0 DUP2 SWAP1 POP SWAP2 SWAP1 POP JUMP JUMPDEST PUSH1 0x0 PUSH1 0xFF DUP3 AND SWAP1 POP SWAP2 SWAP1 POP JUMP JUMPDEST PUSH1 0x0 DUP2 SWAP1 POP SWAP2 SWAP1 POP JUMP JUMPDEST PUSH1 0x0 PUSH2 0x92D PUSH2 0x928 PUSH2 0x923 DUP5 PUSH2 0x8F1 JUMP JUMPDEST PUSH2 0x908 JUMP JUMPDEST PUSH2 0x8FB JUMP JUMPDEST SWAP1 POP SWAP2 SWAP1 POP JUMP JUMPDEST PUSH2 0x93D DUP2 PUSH2 0x912 JUMP JUMPDEST DUP3 MSTORE POP POP JUMP JUMPDEST PUSH1 0x0 DUP2 SWAP1 POP SWAP2 SWAP1 POP JUMP JUMPDEST PUSH1 0x0 PUSH2 0xFFFF DUP3 AND SWAP1 POP SWAP2 SWAP1 POP JUMP JUMPDEST PUSH1 0x0 PUSH2 0x976 PUSH2 0x971 PUSH2 0x96C DUP5 PUSH2 0x943 JUMP JUMPDEST PUSH2 0x908 JUMP JUMPDEST PUSH2 0x94D JUMP JUMPDEST SWAP1 POP SWAP2 SWAP1 POP JUMP JUMPDEST PUSH2 0x986 DUP2 PUSH2 0x95B JUMP JUMPDEST DUP3 MSTORE POP POP JUMP JUMPDEST PUSH1 0x0 DUP2 SWAP1 POP SWAP2 SWAP1 POP JUMP JUMPDEST PUSH1 0x0 PUSH2 0x9B1 PUSH2 0x9AC PUSH2 0x9A7 DUP5 PUSH2 0x98C JUMP JUMPDEST PUSH2 0x908 JUMP JUMPDEST PUSH2 0x94D JUMP JUMPDEST SWAP1 POP SWAP2 SWAP1 POP JUMP JUMPDEST PUSH2 0x9C1 DUP2 PUSH2 0x996 JUMP JUMPDEST DUP3 MSTORE POP POP JUMP JUMPDEST PUSH1 0x0 PUSH1 0x60 DUP3 ADD SWAP1 POP PUSH2 0x9DC PUSH1 0x0 DUP4 ADD DUP7 PUSH2 0x934 JUMP JUMPDEST PUSH2 0x9E9 PUSH1 0x20 DUP4 ADD DUP6 PUSH2 0x97D JUMP JUMPDEST PUSH2 0x9F6 PUSH1 0x40 DUP4 ADD DUP5 PUSH2 0x9B8 JUMP JUMPDEST SWAP5 SWAP4 POP POP POP POP JUMP INVALID LOG2 PUSH5 0x6970667358 0x22 SLT KECCAK256 XOR CALLDATASIZE 0xEC PUSH28 0x63F6FE97AB372318C90B79517DF20CD6819E4A841273EC4E37B6A5F8 PUSH5 0x736F6C6343 STOP ADDMOD 0xD STOP CALLER "
				},
				"gasEstimates": {
					"creation": {
						"codeDepositCost": "522400",
						"executionCost": "556",
						"totalCost": "522956"
					},
					"external": {
						"_executor()": "495",
						"abiDecode(bytes)": "infinite",
						"abiEncode()": "infinite",
						"deadline()": "infinite",
						"keccak256test()": "infinite",
						"name()": "infinite",
						"num(int256)": "659",
						"snapshot()": "infinite",
						"time()": "infinite",
						"votingDelay()": "426",
						"votingPeriod()": "338"
					}
				},
				"methodIdentifiers": {
					"_executor()": "fb1a746f",
					"abiDecode(bytes)": "416bdc52",
					"abiEncode()": "6097e7a3",
					"deadline()": "29dcb0cf",
					"keccak256test()": "8c492a76",
					"name()": "06fdde03",
					"num(int256)": "625ddea9",
					"snapshot()": "9711715a",
					"time()": "16ada547",
					"votingDelay()": "3932abb1",
					"votingPeriod()": "02a251a3"
				}
			},
			"storageLayout": {
				"storage": [
					{
						"astId": 13,
						"contract": ".workspaces/default_workspace/unMiracle/test.sol:test",
						"label": "_testS",
						"offset": 0,
						"slot": "0",
						"type": "t_mapping(t_uint256,t_struct(testS)8_storage)"
					}
				],
				"types": {
					"t_mapping(t_uint256,t_struct(testS)8_storage)": {
						"encoding": "mapping",
						"key": "t_uint256",
						"label": "mapping(uint256 => struct test.testS)",
						"numberOfBytes": "32",
						"value": "t_struct(testS)8_storage"
					},
					"t_string_storage": {
						"encoding": "bytes",
						"label": "string",
						"numberOfBytes": "32"
					},
					"t_struct(testS)8_storage": {
						"encoding": "inplace",
						"label": "struct test.testS",
						"members": [
							{
								"astId": 5,
								"contract": ".workspaces/default_workspace/unMiracle/test.sol:test",
								"label": "name",
								"offset": 0,
								"slot": "0",
								"type": "t_string_storage"
							},
							{
								"astId": 7,
								"contract": ".workspaces/default_workspace/unMiracle/test.sol:test",
								"label": "num",
								"offset": 0,
								"slot": "1",
								"type": "t_uint256"
							}
						],
						"numberOfBytes": "64"
					},
					"t_uint256": {
						"encoding": "inplace",
						"label": "uint256",
						"numberOfBytes": "32"
					}
				}
			},
			"userdoc": {
				"kind": "user",
				"methods": {},
				"version": 1
			}
		}
	}
}