{
	".workspaces/default_workspace/unMiracle/UMRCmiracle.sol": {
		"UMRproposal": {
			"abi": [
				{
					"inputs": [
						{
							"internalType": "address",
							"name": "proposer",
							"type": "address"
						},
						{
							"internalType": "address",
							"name": "destination",
							"type": "address"
						},
						{
							"internalType": "bytes[]",
							"name": "calldatas",
							"type": "bytes[]"
						},
						{
							"internalType": "bytes32",
							"name": "descriptionHash",
							"type": "bytes32"
						}
					],
					"name": "hashProposal",
					"outputs": [
						{
							"internalType": "uint256",
							"name": "",
							"type": "uint256"
						}
					],
					"stateMutability": "pure",
					"type": "function"
				},
				{
					"inputs": [
						{
							"internalType": "address",
							"name": "proposer",
							"type": "address"
						},
						{
							"internalType": "uint256",
							"name": "donateDelay",
							"type": "uint256"
						},
						{
							"internalType": "uint256",
							"name": "donatePeriod",
							"type": "uint256"
						},
						{
							"internalType": "uint256",
							"name": "donateMinimum",
							"type": "uint256"
						},
						{
							"internalType": "address",
							"name": "destination",
							"type": "address"
						},
						{
							"internalType": "string",
							"name": "description",
							"type": "string"
						},
						{
							"internalType": "bytes[]",
							"name": "calldatas",
							"type": "bytes[]"
						}
					],
					"name": "proposal",
					"outputs": [
						{
							"internalType": "uint256",
							"name": "",
							"type": "uint256"
						}
					],
					"stateMutability": "nonpayable",
					"type": "function"
				},
				{
					"inputs": [
						{
							"internalType": "uint256",
							"name": "proposalId",
							"type": "uint256"
						}
					],
					"name": "proposalDeadline",
					"outputs": [
						{
							"internalType": "uint256",
							"name": "",
							"type": "uint256"
						}
					],
					"stateMutability": "view",
					"type": "function"
				},
				{
					"inputs": [
						{
							"internalType": "uint256",
							"name": "proposalId",
							"type": "uint256"
						}
					],
					"name": "proposalDonateMinimum",
					"outputs": [
						{
							"internalType": "uint256",
							"name": "",
							"type": "uint256"
						}
					],
					"stateMutability": "view",
					"type": "function"
				},
				{
					"inputs": [
						{
							"internalType": "uint256",
							"name": "proposalId",
							"type": "uint256"
						}
					],
					"name": "proposalSnapshot",
					"outputs": [
						{
							"internalType": "uint256",
							"name": "",
							"type": "uint256"
						}
					],
					"stateMutability": "view",
					"type": "function"
				}
			],
			"devdoc": {
				"kind": "dev",
				"methods": {},
				"version": 1
			},
			"evm": {
				"assembly": "    /* \".workspaces/default_workspace/unMiracle/UMRCmiracle.sol\":88:2484  contract UMRproposal {... */\n  mstore(0x40, 0x80)\n  callvalue\n  dup1\n  iszero\n  tag_1\n  jumpi\n  0x00\n  dup1\n  revert\ntag_1:\n  pop\n  dataSize(sub_0)\n  dup1\n  dataOffset(sub_0)\n  0x00\n  codecopy\n  0x00\n  return\nstop\n\nsub_0: assembly {\n        /* \".workspaces/default_workspace/unMiracle/UMRCmiracle.sol\":88:2484  contract UMRproposal {... */\n      mstore(0x40, 0x80)\n      callvalue\n      dup1\n      iszero\n      tag_1\n      jumpi\n      0x00\n      dup1\n      revert\n    tag_1:\n      pop\n      jumpi(tag_2, lt(calldatasize, 0x04))\n      shr(0xe0, calldataload(0x00))\n      dup1\n      0x2d63f693\n      eq\n      tag_3\n      jumpi\n      dup1\n      0x42f9d5be\n      eq\n      tag_4\n      jumpi\n      dup1\n      0xc01f9e37\n      eq\n      tag_5\n      jumpi\n      dup1\n      0xee4d6020\n      eq\n      tag_6\n      jumpi\n      dup1\n      0xf68deaf9\n      eq\n      tag_7\n      jumpi\n    tag_2:\n      0x00\n      dup1\n      revert\n        /* \".workspaces/default_workspace/unMiracle/UMRCmiracle.sol\":1933:2091  function proposalSnapshot(uint256 proposalId) public view virtual returns (uint256) {... */\n    tag_3:\n      tag_8\n      0x04\n      dup1\n      calldatasize\n      sub\n      dup2\n      add\n      swap1\n      tag_9\n      swap2\n      swap1\n      tag_10\n      jump\t// in\n    tag_9:\n      tag_11\n      jump\t// in\n    tag_8:\n      mload(0x40)\n      tag_12\n      swap2\n      swap1\n      tag_13\n      jump\t// in\n    tag_12:\n      mload(0x40)\n      dup1\n      swap2\n      sub\n      swap1\n      return\n        /* \".workspaces/default_workspace/unMiracle/UMRCmiracle.sol\":789:1895  function proposal(... */\n    tag_4:\n      tag_14\n      0x04\n      dup1\n      calldatasize\n      sub\n      dup2\n      add\n      swap1\n      tag_15\n      swap2\n      swap1\n      tag_16\n      jump\t// in\n    tag_15:\n      tag_17\n      jump\t// in\n    tag_14:\n      mload(0x40)\n      tag_18\n      swap2\n      swap1\n      tag_13\n      jump\t// in\n    tag_18:\n      mload(0x40)\n      dup1\n      swap2\n      sub\n      swap1\n      return\n        /* \".workspaces/default_workspace/unMiracle/UMRCmiracle.sol\":2128:2284  function proposalDeadline(uint256 proposalId) public view virtual returns (uint256) {... */\n    tag_5:\n      tag_19\n      0x04\n      dup1\n      calldatasize\n      sub\n      dup2\n      add\n      swap1\n      tag_20\n      swap2\n      swap1\n      tag_10\n      jump\t// in\n    tag_20:\n      tag_21\n      jump\t// in\n    tag_19:\n      mload(0x40)\n      tag_22\n      swap2\n      swap1\n      tag_13\n      jump\t// in\n    tag_22:\n      mload(0x40)\n      dup1\n      swap2\n      sub\n      swap1\n      return\n        /* \".workspaces/default_workspace/unMiracle/UMRCmiracle.sol\":407:783  function hashProposal(... */\n    tag_6:\n      tag_23\n      0x04\n      dup1\n      calldatasize\n      sub\n      dup2\n      add\n      swap1\n      tag_24\n      swap2\n      swap1\n      tag_25\n      jump\t// in\n    tag_24:\n      tag_26\n      jump\t// in\n    tag_23:\n      mload(0x40)\n      tag_27\n      swap2\n      swap1\n      tag_13\n      jump\t// in\n    tag_27:\n      mload(0x40)\n      dup1\n      swap2\n      sub\n      swap1\n      return\n        /* \".workspaces/default_workspace/unMiracle/UMRCmiracle.sol\":2321:2482  function proposalDonateMinimum(uint256 proposalId) public view virtual returns (uint256) {... */\n    tag_7:\n      tag_28\n      0x04\n      dup1\n      calldatasize\n      sub\n      dup2\n      add\n      swap1\n      tag_29\n      swap2\n      swap1\n      tag_10\n      jump\t// in\n    tag_29:\n      tag_30\n      jump\t// in\n    tag_28:\n      mload(0x40)\n      tag_31\n      swap2\n      swap1\n      tag_13\n      jump\t// in\n    tag_31:\n      mload(0x40)\n      dup1\n      swap2\n      sub\n      swap1\n      return\n        /* \".workspaces/default_workspace/unMiracle/UMRCmiracle.sol\":1933:2091  function proposalSnapshot(uint256 proposalId) public view virtual returns (uint256) {... */\n    tag_11:\n        /* \".workspaces/default_workspace/unMiracle/UMRCmiracle.sol\":2008:2015  uint256 */\n      0x00\n        /* \".workspaces/default_workspace/unMiracle/UMRCmiracle.sol\":2034:2084  _proposals[proposalId].donationStart.getDeadline() */\n      tag_33\n        /* \".workspaces/default_workspace/unMiracle/UMRCmiracle.sol\":2034:2044  _proposals */\n      0x00\n        /* \".workspaces/default_workspace/unMiracle/UMRCmiracle.sol\":2034:2056  _proposals[proposalId] */\n      dup1\n        /* \".workspaces/default_workspace/unMiracle/UMRCmiracle.sol\":2045:2055  proposalId */\n      dup5\n        /* \".workspaces/default_workspace/unMiracle/UMRCmiracle.sol\":2034:2056  _proposals[proposalId] */\n      dup2\n      mstore\n      0x20\n      add\n      swap1\n      dup2\n      mstore\n      0x20\n      add\n      0x00\n      keccak256\n        /* \".workspaces/default_workspace/unMiracle/UMRCmiracle.sol\":2034:2070  _proposals[proposalId].donationStart */\n      0x00\n      add\n        /* \".workspaces/default_workspace/unMiracle/UMRCmiracle.sol\":2034:2082  _proposals[proposalId].donationStart.getDeadline */\n      mload(0x40)\n      dup1\n      0x40\n      add\n      0x40\n      mstore\n      swap1\n      dup2\n      0x00\n      dup3\n      add\n      sload\n      dup2\n      mstore\n      0x20\n      add\n      0x01\n      dup3\n      add\n      sload\n      dup2\n      mstore\n      pop\n      pop\n      tag_34\n        /* \".workspaces/default_workspace/unMiracle/UMRCmiracle.sol\":2034:2084  _proposals[proposalId].donationStart.getDeadline() */\n      jump\t// in\n    tag_33:\n        /* \".workspaces/default_workspace/unMiracle/UMRCmiracle.sol\":2027:2084  return _proposals[proposalId].donationStart.getDeadline() */\n      swap1\n      pop\n        /* \".workspaces/default_workspace/unMiracle/UMRCmiracle.sol\":1933:2091  function proposalSnapshot(uint256 proposalId) public view virtual returns (uint256) {... */\n      swap2\n      swap1\n      pop\n      jump\t// out\n        /* \".workspaces/default_workspace/unMiracle/UMRCmiracle.sol\":789:1895  function proposal(... */\n    tag_17:\n        /* \".workspaces/default_workspace/unMiracle/UMRCmiracle.sol\":1229:1236  uint256 */\n      0x00\n        /* \".workspaces/default_workspace/unMiracle/UMRCmiracle.sol\":1280:1298  uint256 proposalId */\n      dup1\n        /* \".workspaces/default_workspace/unMiracle/UMRCmiracle.sol\":1301:1377  hashProposal(proposer,destination, calldatas, keccak256(bytes(description))) */\n      tag_36\n        /* \".workspaces/default_workspace/unMiracle/UMRCmiracle.sol\":1314:1322  proposer */\n      dup10\n        /* \".workspaces/default_workspace/unMiracle/UMRCmiracle.sol\":1323:1334  destination */\n      dup7\n        /* \".workspaces/default_workspace/unMiracle/UMRCmiracle.sol\":1336:1345  calldatas */\n      dup6\n        /* \".workspaces/default_workspace/unMiracle/UMRCmiracle.sol\":1363:1374  description */\n      dup8\n        /* \".workspaces/default_workspace/unMiracle/UMRCmiracle.sol\":1347:1376  keccak256(bytes(description)) */\n      dup1\n      mload\n      swap1\n      0x20\n      add\n      keccak256\n        /* \".workspaces/default_workspace/unMiracle/UMRCmiracle.sol\":1301:1313  hashProposal */\n      tag_26\n        /* \".workspaces/default_workspace/unMiracle/UMRCmiracle.sol\":1301:1377  hashProposal(proposer,destination, calldatas, keccak256(bytes(description))) */\n      jump\t// in\n    tag_36:\n        /* \".workspaces/default_workspace/unMiracle/UMRCmiracle.sol\":1280:1377  uint256 proposalId = hashProposal(proposer,destination, calldatas, keccak256(bytes(description))) */\n      swap1\n      pop\n        /* \".workspaces/default_workspace/unMiracle/UMRCmiracle.sol\":1420:1449  ProposalCore storage proposal */\n      0x00\n        /* \".workspaces/default_workspace/unMiracle/UMRCmiracle.sol\":1452:1462  _proposals */\n      dup1\n        /* \".workspaces/default_workspace/unMiracle/UMRCmiracle.sol\":1452:1474  _proposals[proposalId] */\n      0x00\n        /* \".workspaces/default_workspace/unMiracle/UMRCmiracle.sol\":1463:1473  proposalId */\n      dup4\n        /* \".workspaces/default_workspace/unMiracle/UMRCmiracle.sol\":1452:1474  _proposals[proposalId] */\n      dup2\n      mstore\n      0x20\n      add\n      swap1\n      dup2\n      mstore\n      0x20\n      add\n      0x00\n      keccak256\n        /* \".workspaces/default_workspace/unMiracle/UMRCmiracle.sol\":1420:1474  ProposalCore storage proposal = _proposals[proposalId] */\n      swap1\n      pop\n        /* \".workspaces/default_workspace/unMiracle/UMRCmiracle.sol\":1517:1533  uint256 snapshot */\n      0x00\n        /* \".workspaces/default_workspace/unMiracle/UMRCmiracle.sol\":1573:1575  60 */\n      0x3c\n        /* \".workspaces/default_workspace/unMiracle/UMRCmiracle.sol\":1570:1572  60 */\n      dup1\n        /* \".workspaces/default_workspace/unMiracle/UMRCmiracle.sol\":1567:1569  24 */\n      0x18\n        /* \".workspaces/default_workspace/unMiracle/UMRCmiracle.sol\":1555:1566  donateDelay */\n      dup13\n        /* \".workspaces/default_workspace/unMiracle/UMRCmiracle.sol\":1555:1569  donateDelay*24 */\n      tag_37\n      swap2\n      swap1\n      tag_38\n      jump\t// in\n    tag_37:\n        /* \".workspaces/default_workspace/unMiracle/UMRCmiracle.sol\":1555:1572  donateDelay*24*60 */\n      tag_39\n      swap2\n      swap1\n      tag_38\n      jump\t// in\n    tag_39:\n        /* \".workspaces/default_workspace/unMiracle/UMRCmiracle.sol\":1555:1575  donateDelay*24*60*60 */\n      tag_40\n      swap2\n      swap1\n      tag_38\n      jump\t// in\n    tag_40:\n        /* \".workspaces/default_workspace/unMiracle/UMRCmiracle.sol\":1537:1552  block.timestamp */\n      timestamp\n        /* \".workspaces/default_workspace/unMiracle/UMRCmiracle.sol\":1537:1575  block.timestamp + donateDelay*24*60*60 */\n      tag_41\n      swap2\n      swap1\n      tag_42\n      jump\t// in\n    tag_41:\n        /* \".workspaces/default_workspace/unMiracle/UMRCmiracle.sol\":1517:1575  uint256 snapshot =  block.timestamp + donateDelay*24*60*60 */\n      swap1\n      pop\n        /* \".workspaces/default_workspace/unMiracle/UMRCmiracle.sol\":1617:1633  uint256 deadline */\n      0x00\n        /* \".workspaces/default_workspace/unMiracle/UMRCmiracle.sol\":1666:1668  60 */\n      0x3c\n        /* \".workspaces/default_workspace/unMiracle/UMRCmiracle.sol\":1663:1665  60 */\n      dup1\n        /* \".workspaces/default_workspace/unMiracle/UMRCmiracle.sol\":1660:1662  24 */\n      0x18\n        /* \".workspaces/default_workspace/unMiracle/UMRCmiracle.sol\":1647:1659  donatePeriod */\n      dup13\n        /* \".workspaces/default_workspace/unMiracle/UMRCmiracle.sol\":1647:1662  donatePeriod*24 */\n      tag_43\n      swap2\n      swap1\n      tag_38\n      jump\t// in\n    tag_43:\n        /* \".workspaces/default_workspace/unMiracle/UMRCmiracle.sol\":1647:1665  donatePeriod*24*60 */\n      tag_44\n      swap2\n      swap1\n      tag_38\n      jump\t// in\n    tag_44:\n        /* \".workspaces/default_workspace/unMiracle/UMRCmiracle.sol\":1647:1668  donatePeriod*24*60*60 */\n      tag_45\n      swap2\n      swap1\n      tag_38\n      jump\t// in\n    tag_45:\n        /* \".workspaces/default_workspace/unMiracle/UMRCmiracle.sol\":1636:1644  snapshot */\n      dup3\n        /* \".workspaces/default_workspace/unMiracle/UMRCmiracle.sol\":1636:1668  snapshot + donatePeriod*24*60*60 */\n      tag_46\n      swap2\n      swap1\n      tag_42\n      jump\t// in\n    tag_46:\n        /* \".workspaces/default_workspace/unMiracle/UMRCmiracle.sol\":1617:1668  uint256 deadline = snapshot + donatePeriod*24*60*60 */\n      swap1\n      pop\n        /* \".workspaces/default_workspace/unMiracle/UMRCmiracle.sol\":1707:1751  proposal.donationStart.setDeadline(snapshot) */\n      tag_47\n        /* \".workspaces/default_workspace/unMiracle/UMRCmiracle.sol\":1742:1750  snapshot */\n      dup3\n        /* \".workspaces/default_workspace/unMiracle/UMRCmiracle.sol\":1707:1715  proposal */\n      dup5\n        /* \".workspaces/default_workspace/unMiracle/UMRCmiracle.sol\":1707:1729  proposal.donationStart */\n      0x00\n      add\n        /* \".workspaces/default_workspace/unMiracle/UMRCmiracle.sol\":1707:1741  proposal.donationStart.setDeadline */\n      tag_48\n      swap1\n        /* \".workspaces/default_workspace/unMiracle/UMRCmiracle.sol\":1707:1751  proposal.donationStart.setDeadline(snapshot) */\n      swap2\n      swap1\n      0xffffffff\n      and\n      jump\t// in\n    tag_47:\n        /* \".workspaces/default_workspace/unMiracle/UMRCmiracle.sol\":1761:1803  proposal.donationEnd.setDeadline(deadline) */\n      tag_49\n        /* \".workspaces/default_workspace/unMiracle/UMRCmiracle.sol\":1794:1802  deadline */\n      dup2\n        /* \".workspaces/default_workspace/unMiracle/UMRCmiracle.sol\":1761:1769  proposal */\n      dup5\n        /* \".workspaces/default_workspace/unMiracle/UMRCmiracle.sol\":1761:1781  proposal.donationEnd */\n      0x02\n      add\n        /* \".workspaces/default_workspace/unMiracle/UMRCmiracle.sol\":1761:1793  proposal.donationEnd.setDeadline */\n      tag_48\n      swap1\n        /* \".workspaces/default_workspace/unMiracle/UMRCmiracle.sol\":1761:1803  proposal.donationEnd.setDeadline(deadline) */\n      swap2\n      swap1\n      0xffffffff\n      and\n      jump\t// in\n    tag_49:\n        /* \".workspaces/default_workspace/unMiracle/UMRCmiracle.sol\":1813:1860  proposal.donateMinimum.setAmount(donateMinimum) */\n      tag_50\n        /* \".workspaces/default_workspace/unMiracle/UMRCmiracle.sol\":1846:1859  donateMinimum */\n      dup10\n        /* \".workspaces/default_workspace/unMiracle/UMRCmiracle.sol\":1813:1821  proposal */\n      dup5\n        /* \".workspaces/default_workspace/unMiracle/UMRCmiracle.sol\":1813:1835  proposal.donateMinimum */\n      0x04\n      add\n        /* \".workspaces/default_workspace/unMiracle/UMRCmiracle.sol\":1813:1845  proposal.donateMinimum.setAmount */\n      tag_51\n      swap1\n        /* \".workspaces/default_workspace/unMiracle/UMRCmiracle.sol\":1813:1860  proposal.donateMinimum.setAmount(donateMinimum) */\n      swap2\n      swap1\n      0xffffffff\n      and\n      jump\t// in\n    tag_50:\n        /* \".workspaces/default_workspace/unMiracle/UMRCmiracle.sol\":1878:1888  proposalId */\n      dup4\n        /* \".workspaces/default_workspace/unMiracle/UMRCmiracle.sol\":1871:1888  return proposalId */\n      swap5\n      pop\n      pop\n      pop\n      pop\n      pop\n        /* \".workspaces/default_workspace/unMiracle/UMRCmiracle.sol\":789:1895  function proposal(... */\n      swap8\n      swap7\n      pop\n      pop\n      pop\n      pop\n      pop\n      pop\n      pop\n      jump\t// out\n        /* \".workspaces/default_workspace/unMiracle/UMRCmiracle.sol\":2128:2284  function proposalDeadline(uint256 proposalId) public view virtual returns (uint256) {... */\n    tag_21:\n        /* \".workspaces/default_workspace/unMiracle/UMRCmiracle.sol\":2203:2210  uint256 */\n      0x00\n        /* \".workspaces/default_workspace/unMiracle/UMRCmiracle.sol\":2229:2277  _proposals[proposalId].donationEnd.getDeadline() */\n      tag_53\n        /* \".workspaces/default_workspace/unMiracle/UMRCmiracle.sol\":2229:2239  _proposals */\n      0x00\n        /* \".workspaces/default_workspace/unMiracle/UMRCmiracle.sol\":2229:2251  _proposals[proposalId] */\n      dup1\n        /* \".workspaces/default_workspace/unMiracle/UMRCmiracle.sol\":2240:2250  proposalId */\n      dup5\n        /* \".workspaces/default_workspace/unMiracle/UMRCmiracle.sol\":2229:2251  _proposals[proposalId] */\n      dup2\n      mstore\n      0x20\n      add\n      swap1\n      dup2\n      mstore\n      0x20\n      add\n      0x00\n      keccak256\n        /* \".workspaces/default_workspace/unMiracle/UMRCmiracle.sol\":2229:2263  _proposals[proposalId].donationEnd */\n      0x02\n      add\n        /* \".workspaces/default_workspace/unMiracle/UMRCmiracle.sol\":2229:2275  _proposals[proposalId].donationEnd.getDeadline */\n      mload(0x40)\n      dup1\n      0x40\n      add\n      0x40\n      mstore\n      swap1\n      dup2\n      0x00\n      dup3\n      add\n      sload\n      dup2\n      mstore\n      0x20\n      add\n      0x01\n      dup3\n      add\n      sload\n      dup2\n      mstore\n      pop\n      pop\n      tag_34\n        /* \".workspaces/default_workspace/unMiracle/UMRCmiracle.sol\":2229:2277  _proposals[proposalId].donationEnd.getDeadline() */\n      jump\t// in\n    tag_53:\n        /* \".workspaces/default_workspace/unMiracle/UMRCmiracle.sol\":2222:2277  return _proposals[proposalId].donationEnd.getDeadline() */\n      swap1\n      pop\n        /* \".workspaces/default_workspace/unMiracle/UMRCmiracle.sol\":2128:2284  function proposalDeadline(uint256 proposalId) public view virtual returns (uint256) {... */\n      swap2\n      swap1\n      pop\n      jump\t// out\n        /* \".workspaces/default_workspace/unMiracle/UMRCmiracle.sol\":407:783  function hashProposal(... */\n    tag_26:\n        /* \".workspaces/default_workspace/unMiracle/UMRCmiracle.sol\":670:677  uint256 */\n      0x00\n        /* \".workspaces/default_workspace/unMiracle/UMRCmiracle.sol\":725:733  proposer */\n      dup5\n        /* \".workspaces/default_workspace/unMiracle/UMRCmiracle.sol\":734:745  destination */\n      dup5\n        /* \".workspaces/default_workspace/unMiracle/UMRCmiracle.sol\":747:756  calldatas */\n      dup5\n        /* \".workspaces/default_workspace/unMiracle/UMRCmiracle.sol\":758:773  descriptionHash */\n      dup5\n        /* \".workspaces/default_workspace/unMiracle/UMRCmiracle.sol\":714:774  abi.encode(proposer,destination, calldatas, descriptionHash) */\n      add(0x20, mload(0x40))\n      tag_55\n      swap5\n      swap4\n      swap3\n      swap2\n      swap1\n      tag_56\n      jump\t// in\n    tag_55:\n      mload(0x40)\n      0x20\n      dup2\n      dup4\n      sub\n      sub\n      dup2\n      mstore\n      swap1\n      0x40\n      mstore\n        /* \".workspaces/default_workspace/unMiracle/UMRCmiracle.sol\":704:775  keccak256(abi.encode(proposer,destination, calldatas, descriptionHash)) */\n      dup1\n      mload\n      swap1\n      0x20\n      add\n      keccak256\n        /* \".workspaces/default_workspace/unMiracle/UMRCmiracle.sol\":696:776  uint256(keccak256(abi.encode(proposer,destination, calldatas, descriptionHash))) */\n      0x00\n      shr\n        /* \".workspaces/default_workspace/unMiracle/UMRCmiracle.sol\":689:776  return uint256(keccak256(abi.encode(proposer,destination, calldatas, descriptionHash))) */\n      swap1\n      pop\n        /* \".workspaces/default_workspace/unMiracle/UMRCmiracle.sol\":407:783  function hashProposal(... */\n      swap5\n      swap4\n      pop\n      pop\n      pop\n      pop\n      jump\t// out\n        /* \".workspaces/default_workspace/unMiracle/UMRCmiracle.sol\":2321:2482  function proposalDonateMinimum(uint256 proposalId) public view virtual returns (uint256) {... */\n    tag_30:\n        /* \".workspaces/default_workspace/unMiracle/UMRCmiracle.sol\":2401:2408  uint256 */\n      0x00\n        /* \".workspaces/default_workspace/unMiracle/UMRCmiracle.sol\":2427:2475  _proposals[proposalId].donateMinimum.getAmount() */\n      tag_58\n        /* \".workspaces/default_workspace/unMiracle/UMRCmiracle.sol\":2427:2437  _proposals */\n      0x00\n        /* \".workspaces/default_workspace/unMiracle/UMRCmiracle.sol\":2427:2449  _proposals[proposalId] */\n      dup1\n        /* \".workspaces/default_workspace/unMiracle/UMRCmiracle.sol\":2438:2448  proposalId */\n      dup5\n        /* \".workspaces/default_workspace/unMiracle/UMRCmiracle.sol\":2427:2449  _proposals[proposalId] */\n      dup2\n      mstore\n      0x20\n      add\n      swap1\n      dup2\n      mstore\n      0x20\n      add\n      0x00\n      keccak256\n        /* \".workspaces/default_workspace/unMiracle/UMRCmiracle.sol\":2427:2463  _proposals[proposalId].donateMinimum */\n      0x04\n      add\n        /* \".workspaces/default_workspace/unMiracle/UMRCmiracle.sol\":2427:2473  _proposals[proposalId].donateMinimum.getAmount */\n      mload(0x40)\n      dup1\n      0x40\n      add\n      0x40\n      mstore\n      swap1\n      dup2\n      0x00\n      dup3\n      add\n      sload\n      dup2\n      mstore\n      0x20\n      add\n      0x01\n      dup3\n      add\n      sload\n      dup2\n      mstore\n      pop\n      pop\n      tag_59\n        /* \".workspaces/default_workspace/unMiracle/UMRCmiracle.sol\":2427:2475  _proposals[proposalId].donateMinimum.getAmount() */\n      jump\t// in\n    tag_58:\n        /* \".workspaces/default_workspace/unMiracle/UMRCmiracle.sol\":2420:2475  return _proposals[proposalId].donateMinimum.getAmount() */\n      swap1\n      pop\n        /* \".workspaces/default_workspace/unMiracle/UMRCmiracle.sol\":2321:2482  function proposalDonateMinimum(uint256 proposalId) public view virtual returns (uint256) {... */\n      swap2\n      swap1\n      pop\n      jump\t// out\n        /* \".workspaces/default_workspace/unMiracle/utils/setting.sol\":354:464  function getDeadline(SetInfo memory info) internal pure returns(uint256) {... */\n    tag_34:\n        /* \".workspaces/default_workspace/unMiracle/utils/setting.sol\":418:425  uint256 */\n      0x00\n        /* \".workspaces/default_workspace/unMiracle/utils/setting.sol\":444:448  info */\n      dup2\n        /* \".workspaces/default_workspace/unMiracle/utils/setting.sol\":444:457  info.deadline */\n      0x00\n      add\n      mload\n        /* \".workspaces/default_workspace/unMiracle/utils/setting.sol\":437:457  return info.deadline */\n      swap1\n      pop\n        /* \".workspaces/default_workspace/unMiracle/utils/setting.sol\":354:464  function getDeadline(SetInfo memory info) internal pure returns(uint256) {... */\n      swap2\n      swap1\n      pop\n      jump\t// out\n        /* \".workspaces/default_workspace/unMiracle/utils/setting.sol\":228:348  function setDeadline(SetInfo storage info, uint256 timestamp) internal {... */\n    tag_48:\n        /* \".workspaces/default_workspace/unMiracle/utils/setting.sol\":337:341  1000 */\n      0x03e8\n        /* \".workspaces/default_workspace/unMiracle/utils/setting.sol\":325:334  timestamp */\n      dup2\n        /* \".workspaces/default_workspace/unMiracle/utils/setting.sol\":325:341  timestamp * 1000 */\n      tag_62\n      swap2\n      swap1\n      tag_38\n      jump\t// in\n    tag_62:\n        /* \".workspaces/default_workspace/unMiracle/utils/setting.sol\":309:313  info */\n      dup3\n        /* \".workspaces/default_workspace/unMiracle/utils/setting.sol\":309:322  info.deadline */\n      0x00\n      add\n        /* \".workspaces/default_workspace/unMiracle/utils/setting.sol\":309:341  info.deadline = timestamp * 1000 */\n      dup2\n      swap1\n      sstore\n      pop\n        /* \".workspaces/default_workspace/unMiracle/utils/setting.sol\":228:348  function setDeadline(SetInfo storage info, uint256 timestamp) internal {... */\n      pop\n      pop\n      jump\t// out\n        /* \".workspaces/default_workspace/unMiracle/utils/setting.sol\":470:573  function setAmount(SetInfo storage info, uint256 amount) internal {... */\n    tag_51:\n        /* \".workspaces/default_workspace/unMiracle/utils/setting.sol\":560:566  amount */\n      dup1\n        /* \".workspaces/default_workspace/unMiracle/utils/setting.sol\":546:550  info */\n      dup3\n        /* \".workspaces/default_workspace/unMiracle/utils/setting.sol\":546:557  info.amount */\n      0x01\n      add\n        /* \".workspaces/default_workspace/unMiracle/utils/setting.sol\":546:566  info.amount = amount */\n      dup2\n      swap1\n      sstore\n      pop\n        /* \".workspaces/default_workspace/unMiracle/utils/setting.sol\":470:573  function setAmount(SetInfo storage info, uint256 amount) internal {... */\n      pop\n      pop\n      jump\t// out\n        /* \".workspaces/default_workspace/unMiracle/utils/setting.sol\":579:685  function getAmount(SetInfo memory info) internal pure returns(uint256) {... */\n    tag_59:\n        /* \".workspaces/default_workspace/unMiracle/utils/setting.sol\":641:648  uint256 */\n      0x00\n        /* \".workspaces/default_workspace/unMiracle/utils/setting.sol\":667:671  info */\n      dup2\n        /* \".workspaces/default_workspace/unMiracle/utils/setting.sol\":667:678  info.amount */\n      0x20\n      add\n      mload\n        /* \".workspaces/default_workspace/unMiracle/utils/setting.sol\":660:678  return info.amount */\n      swap1\n      pop\n        /* \".workspaces/default_workspace/unMiracle/utils/setting.sol\":579:685  function getAmount(SetInfo memory info) internal pure returns(uint256) {... */\n      swap2\n      swap1\n      pop\n      jump\t// out\n        /* \"#utility.yul\":7:82   */\n    tag_65:\n        /* \"#utility.yul\":40:46   */\n      0x00\n        /* \"#utility.yul\":73:75   */\n      0x40\n        /* \"#utility.yul\":67:76   */\n      mload\n        /* \"#utility.yul\":57:76   */\n      swap1\n      pop\n        /* \"#utility.yul\":7:82   */\n      swap1\n      jump\t// out\n        /* \"#utility.yul\":88:205   */\n    tag_66:\n        /* \"#utility.yul\":197:198   */\n      0x00\n        /* \"#utility.yul\":194:195   */\n      dup1\n        /* \"#utility.yul\":187:199   */\n      revert\n        /* \"#utility.yul\":211:328   */\n    tag_67:\n        /* \"#utility.yul\":320:321   */\n      0x00\n        /* \"#utility.yul\":317:318   */\n      dup1\n        /* \"#utility.yul\":310:322   */\n      revert\n        /* \"#utility.yul\":334:411   */\n    tag_68:\n        /* \"#utility.yul\":371:378   */\n      0x00\n        /* \"#utility.yul\":400:405   */\n      dup2\n        /* \"#utility.yul\":389:405   */\n      swap1\n      pop\n        /* \"#utility.yul\":334:411   */\n      swap2\n      swap1\n      pop\n      jump\t// out\n        /* \"#utility.yul\":417:539   */\n    tag_69:\n        /* \"#utility.yul\":490:514   */\n      tag_115\n        /* \"#utility.yul\":508:513   */\n      dup2\n        /* \"#utility.yul\":490:514   */\n      tag_68\n      jump\t// in\n    tag_115:\n        /* \"#utility.yul\":483:488   */\n      dup2\n        /* \"#utility.yul\":480:515   */\n      eq\n        /* \"#utility.yul\":470:533   */\n      tag_116\n      jumpi\n        /* \"#utility.yul\":529:530   */\n      0x00\n        /* \"#utility.yul\":526:527   */\n      dup1\n        /* \"#utility.yul\":519:531   */\n      revert\n        /* \"#utility.yul\":470:533   */\n    tag_116:\n        /* \"#utility.yul\":417:539   */\n      pop\n      jump\t// out\n        /* \"#utility.yul\":545:684   */\n    tag_70:\n        /* \"#utility.yul\":591:596   */\n      0x00\n        /* \"#utility.yul\":629:635   */\n      dup2\n        /* \"#utility.yul\":616:636   */\n      calldataload\n        /* \"#utility.yul\":607:636   */\n      swap1\n      pop\n        /* \"#utility.yul\":645:678   */\n      tag_118\n        /* \"#utility.yul\":672:677   */\n      dup2\n        /* \"#utility.yul\":645:678   */\n      tag_69\n      jump\t// in\n    tag_118:\n        /* \"#utility.yul\":545:684   */\n      swap3\n      swap2\n      pop\n      pop\n      jump\t// out\n        /* \"#utility.yul\":690:1019   */\n    tag_10:\n        /* \"#utility.yul\":749:755   */\n      0x00\n        /* \"#utility.yul\":798:800   */\n      0x20\n        /* \"#utility.yul\":786:795   */\n      dup3\n        /* \"#utility.yul\":777:784   */\n      dup5\n        /* \"#utility.yul\":773:796   */\n      sub\n        /* \"#utility.yul\":769:801   */\n      slt\n        /* \"#utility.yul\":766:885   */\n      iszero\n      tag_120\n      jumpi\n        /* \"#utility.yul\":804:883   */\n      tag_121\n      tag_66\n      jump\t// in\n    tag_121:\n        /* \"#utility.yul\":766:885   */\n    tag_120:\n        /* \"#utility.yul\":924:925   */\n      0x00\n        /* \"#utility.yul\":949:1002   */\n      tag_122\n        /* \"#utility.yul\":994:1001   */\n      dup5\n        /* \"#utility.yul\":985:991   */\n      dup3\n        /* \"#utility.yul\":974:983   */\n      dup6\n        /* \"#utility.yul\":970:992   */\n      add\n        /* \"#utility.yul\":949:1002   */\n      tag_70\n      jump\t// in\n    tag_122:\n        /* \"#utility.yul\":939:1002   */\n      swap2\n      pop\n        /* \"#utility.yul\":895:1012   */\n      pop\n        /* \"#utility.yul\":690:1019   */\n      swap3\n      swap2\n      pop\n      pop\n      jump\t// out\n        /* \"#utility.yul\":1025:1143   */\n    tag_71:\n        /* \"#utility.yul\":1112:1136   */\n      tag_124\n        /* \"#utility.yul\":1130:1135   */\n      dup2\n        /* \"#utility.yul\":1112:1136   */\n      tag_68\n      jump\t// in\n    tag_124:\n        /* \"#utility.yul\":1107:1110   */\n      dup3\n        /* \"#utility.yul\":1100:1137   */\n      mstore\n        /* \"#utility.yul\":1025:1143   */\n      pop\n      pop\n      jump\t// out\n        /* \"#utility.yul\":1149:1371   */\n    tag_13:\n        /* \"#utility.yul\":1242:1246   */\n      0x00\n        /* \"#utility.yul\":1280:1282   */\n      0x20\n        /* \"#utility.yul\":1269:1278   */\n      dup3\n        /* \"#utility.yul\":1265:1283   */\n      add\n        /* \"#utility.yul\":1257:1283   */\n      swap1\n      pop\n        /* \"#utility.yul\":1293:1364   */\n      tag_126\n        /* \"#utility.yul\":1361:1362   */\n      0x00\n        /* \"#utility.yul\":1350:1359   */\n      dup4\n        /* \"#utility.yul\":1346:1363   */\n      add\n        /* \"#utility.yul\":1337:1343   */\n      dup5\n        /* \"#utility.yul\":1293:1364   */\n      tag_71\n      jump\t// in\n    tag_126:\n        /* \"#utility.yul\":1149:1371   */\n      swap3\n      swap2\n      pop\n      pop\n      jump\t// out\n        /* \"#utility.yul\":1377:1503   */\n    tag_72:\n        /* \"#utility.yul\":1414:1421   */\n      0x00\n        /* \"#utility.yul\":1454:1496   */\n      0xffffffffffffffffffffffffffffffffffffffff\n        /* \"#utility.yul\":1447:1452   */\n      dup3\n        /* \"#utility.yul\":1443:1497   */\n      and\n        /* \"#utility.yul\":1432:1497   */\n      swap1\n      pop\n        /* \"#utility.yul\":1377:1503   */\n      swap2\n      swap1\n      pop\n      jump\t// out\n        /* \"#utility.yul\":1509:1605   */\n    tag_73:\n        /* \"#utility.yul\":1546:1553   */\n      0x00\n        /* \"#utility.yul\":1575:1599   */\n      tag_129\n        /* \"#utility.yul\":1593:1598   */\n      dup3\n        /* \"#utility.yul\":1575:1599   */\n      tag_72\n      jump\t// in\n    tag_129:\n        /* \"#utility.yul\":1564:1599   */\n      swap1\n      pop\n        /* \"#utility.yul\":1509:1605   */\n      swap2\n      swap1\n      pop\n      jump\t// out\n        /* \"#utility.yul\":1611:1733   */\n    tag_74:\n        /* \"#utility.yul\":1684:1708   */\n      tag_131\n        /* \"#utility.yul\":1702:1707   */\n      dup2\n        /* \"#utility.yul\":1684:1708   */\n      tag_73\n      jump\t// in\n    tag_131:\n        /* \"#utility.yul\":1677:1682   */\n      dup2\n        /* \"#utility.yul\":1674:1709   */\n      eq\n        /* \"#utility.yul\":1664:1727   */\n      tag_132\n      jumpi\n        /* \"#utility.yul\":1723:1724   */\n      0x00\n        /* \"#utility.yul\":1720:1721   */\n      dup1\n        /* \"#utility.yul\":1713:1725   */\n      revert\n        /* \"#utility.yul\":1664:1727   */\n    tag_132:\n        /* \"#utility.yul\":1611:1733   */\n      pop\n      jump\t// out\n        /* \"#utility.yul\":1739:1878   */\n    tag_75:\n        /* \"#utility.yul\":1785:1790   */\n      0x00\n        /* \"#utility.yul\":1823:1829   */\n      dup2\n        /* \"#utility.yul\":1810:1830   */\n      calldataload\n        /* \"#utility.yul\":1801:1830   */\n      swap1\n      pop\n        /* \"#utility.yul\":1839:1872   */\n      tag_134\n        /* \"#utility.yul\":1866:1871   */\n      dup2\n        /* \"#utility.yul\":1839:1872   */\n      tag_74\n      jump\t// in\n    tag_134:\n        /* \"#utility.yul\":1739:1878   */\n      swap3\n      swap2\n      pop\n      pop\n      jump\t// out\n        /* \"#utility.yul\":1884:2001   */\n    tag_76:\n        /* \"#utility.yul\":1993:1994   */\n      0x00\n        /* \"#utility.yul\":1990:1991   */\n      dup1\n        /* \"#utility.yul\":1983:1995   */\n      revert\n        /* \"#utility.yul\":2007:2124   */\n    tag_77:\n        /* \"#utility.yul\":2116:2117   */\n      0x00\n        /* \"#utility.yul\":2113:2114   */\n      dup1\n        /* \"#utility.yul\":2106:2118   */\n      revert\n        /* \"#utility.yul\":2130:2232   */\n    tag_78:\n        /* \"#utility.yul\":2171:2177   */\n      0x00\n        /* \"#utility.yul\":2222:2224   */\n      0x1f\n        /* \"#utility.yul\":2218:2225   */\n      not\n        /* \"#utility.yul\":2213:2215   */\n      0x1f\n        /* \"#utility.yul\":2206:2211   */\n      dup4\n        /* \"#utility.yul\":2202:2216   */\n      add\n        /* \"#utility.yul\":2198:2226   */\n      and\n        /* \"#utility.yul\":2188:2226   */\n      swap1\n      pop\n        /* \"#utility.yul\":2130:2232   */\n      swap2\n      swap1\n      pop\n      jump\t// out\n        /* \"#utility.yul\":2238:2418   */\n    tag_79:\n        /* \"#utility.yul\":2286:2363   */\n      0x4e487b7100000000000000000000000000000000000000000000000000000000\n        /* \"#utility.yul\":2283:2284   */\n      0x00\n        /* \"#utility.yul\":2276:2364   */\n      mstore\n        /* \"#utility.yul\":2383:2387   */\n      0x41\n        /* \"#utility.yul\":2380:2381   */\n      0x04\n        /* \"#utility.yul\":2373:2388   */\n      mstore\n        /* \"#utility.yul\":2407:2411   */\n      0x24\n        /* \"#utility.yul\":2404:2405   */\n      0x00\n        /* \"#utility.yul\":2397:2412   */\n      revert\n        /* \"#utility.yul\":2424:2705   */\n    tag_80:\n        /* \"#utility.yul\":2507:2534   */\n      tag_140\n        /* \"#utility.yul\":2529:2533   */\n      dup3\n        /* \"#utility.yul\":2507:2534   */\n      tag_78\n      jump\t// in\n    tag_140:\n        /* \"#utility.yul\":2499:2505   */\n      dup2\n        /* \"#utility.yul\":2495:2535   */\n      add\n        /* \"#utility.yul\":2637:2643   */\n      dup2\n        /* \"#utility.yul\":2625:2635   */\n      dup2\n        /* \"#utility.yul\":2622:2644   */\n      lt\n        /* \"#utility.yul\":2601:2619   */\n      0xffffffffffffffff\n        /* \"#utility.yul\":2589:2599   */\n      dup3\n        /* \"#utility.yul\":2586:2620   */\n      gt\n        /* \"#utility.yul\":2583:2645   */\n      or\n        /* \"#utility.yul\":2580:2668   */\n      iszero\n      tag_141\n      jumpi\n        /* \"#utility.yul\":2648:2666   */\n      tag_142\n      tag_79\n      jump\t// in\n    tag_142:\n        /* \"#utility.yul\":2580:2668   */\n    tag_141:\n        /* \"#utility.yul\":2688:2698   */\n      dup1\n        /* \"#utility.yul\":2684:2686   */\n      0x40\n        /* \"#utility.yul\":2677:2699   */\n      mstore\n        /* \"#utility.yul\":2467:2705   */\n      pop\n        /* \"#utility.yul\":2424:2705   */\n      pop\n      pop\n      jump\t// out\n        /* \"#utility.yul\":2711:2840   */\n    tag_81:\n        /* \"#utility.yul\":2745:2751   */\n      0x00\n        /* \"#utility.yul\":2772:2792   */\n      tag_144\n      tag_65\n      jump\t// in\n    tag_144:\n        /* \"#utility.yul\":2762:2792   */\n      swap1\n      pop\n        /* \"#utility.yul\":2801:2834   */\n      tag_145\n        /* \"#utility.yul\":2829:2833   */\n      dup3\n        /* \"#utility.yul\":2821:2827   */\n      dup3\n        /* \"#utility.yul\":2801:2834   */\n      tag_80\n      jump\t// in\n    tag_145:\n        /* \"#utility.yul\":2711:2840   */\n      swap2\n      swap1\n      pop\n      jump\t// out\n        /* \"#utility.yul\":2846:3154   */\n    tag_82:\n        /* \"#utility.yul\":2908:2912   */\n      0x00\n        /* \"#utility.yul\":2998:3016   */\n      0xffffffffffffffff\n        /* \"#utility.yul\":2990:2996   */\n      dup3\n        /* \"#utility.yul\":2987:3017   */\n      gt\n        /* \"#utility.yul\":2984:3040   */\n      iszero\n      tag_147\n      jumpi\n        /* \"#utility.yul\":3020:3038   */\n      tag_148\n      tag_79\n      jump\t// in\n    tag_148:\n        /* \"#utility.yul\":2984:3040   */\n    tag_147:\n        /* \"#utility.yul\":3058:3087   */\n      tag_149\n        /* \"#utility.yul\":3080:3086   */\n      dup3\n        /* \"#utility.yul\":3058:3087   */\n      tag_78\n      jump\t// in\n    tag_149:\n        /* \"#utility.yul\":3050:3087   */\n      swap1\n      pop\n        /* \"#utility.yul\":3142:3146   */\n      0x20\n        /* \"#utility.yul\":3136:3140   */\n      dup2\n        /* \"#utility.yul\":3132:3147   */\n      add\n        /* \"#utility.yul\":3124:3147   */\n      swap1\n      pop\n        /* \"#utility.yul\":2846:3154   */\n      swap2\n      swap1\n      pop\n      jump\t// out\n        /* \"#utility.yul\":3160:3314   */\n    tag_83:\n        /* \"#utility.yul\":3244:3250   */\n      dup3\n        /* \"#utility.yul\":3239:3242   */\n      dup2\n        /* \"#utility.yul\":3234:3237   */\n      dup4\n        /* \"#utility.yul\":3221:3251   */\n      calldatacopy\n        /* \"#utility.yul\":3306:3307   */\n      0x00\n        /* \"#utility.yul\":3297:3303   */\n      dup4\n        /* \"#utility.yul\":3292:3295   */\n      dup4\n        /* \"#utility.yul\":3288:3304   */\n      add\n        /* \"#utility.yul\":3281:3308   */\n      mstore\n        /* \"#utility.yul\":3160:3314   */\n      pop\n      pop\n      pop\n      jump\t// out\n        /* \"#utility.yul\":3320:3732   */\n    tag_84:\n        /* \"#utility.yul\":3398:3403   */\n      0x00\n        /* \"#utility.yul\":3423:3489   */\n      tag_152\n        /* \"#utility.yul\":3439:3488   */\n      tag_153\n        /* \"#utility.yul\":3481:3487   */\n      dup5\n        /* \"#utility.yul\":3439:3488   */\n      tag_82\n      jump\t// in\n    tag_153:\n        /* \"#utility.yul\":3423:3489   */\n      tag_81\n      jump\t// in\n    tag_152:\n        /* \"#utility.yul\":3414:3489   */\n      swap1\n      pop\n        /* \"#utility.yul\":3512:3518   */\n      dup3\n        /* \"#utility.yul\":3505:3510   */\n      dup2\n        /* \"#utility.yul\":3498:3519   */\n      mstore\n        /* \"#utility.yul\":3550:3554   */\n      0x20\n        /* \"#utility.yul\":3543:3548   */\n      dup2\n        /* \"#utility.yul\":3539:3555   */\n      add\n        /* \"#utility.yul\":3588:3591   */\n      dup5\n        /* \"#utility.yul\":3579:3585   */\n      dup5\n        /* \"#utility.yul\":3574:3577   */\n      dup5\n        /* \"#utility.yul\":3570:3586   */\n      add\n        /* \"#utility.yul\":3567:3592   */\n      gt\n        /* \"#utility.yul\":3564:3676   */\n      iszero\n      tag_154\n      jumpi\n        /* \"#utility.yul\":3595:3674   */\n      tag_155\n      tag_77\n      jump\t// in\n    tag_155:\n        /* \"#utility.yul\":3564:3676   */\n    tag_154:\n        /* \"#utility.yul\":3685:3726   */\n      tag_156\n        /* \"#utility.yul\":3719:3725   */\n      dup5\n        /* \"#utility.yul\":3714:3717   */\n      dup3\n        /* \"#utility.yul\":3709:3712   */\n      dup6\n        /* \"#utility.yul\":3685:3726   */\n      tag_83\n      jump\t// in\n    tag_156:\n        /* \"#utility.yul\":3404:3732   */\n      pop\n        /* \"#utility.yul\":3320:3732   */\n      swap4\n      swap3\n      pop\n      pop\n      pop\n      jump\t// out\n        /* \"#utility.yul\":3752:4092   */\n    tag_85:\n        /* \"#utility.yul\":3808:3813   */\n      0x00\n        /* \"#utility.yul\":3857:3860   */\n      dup3\n        /* \"#utility.yul\":3850:3854   */\n      0x1f\n        /* \"#utility.yul\":3842:3848   */\n      dup4\n        /* \"#utility.yul\":3838:3855   */\n      add\n        /* \"#utility.yul\":3834:3861   */\n      slt\n        /* \"#utility.yul\":3824:3946   */\n      tag_158\n      jumpi\n        /* \"#utility.yul\":3865:3944   */\n      tag_159\n      tag_76\n      jump\t// in\n    tag_159:\n        /* \"#utility.yul\":3824:3946   */\n    tag_158:\n        /* \"#utility.yul\":3982:3988   */\n      dup2\n        /* \"#utility.yul\":3969:3989   */\n      calldataload\n        /* \"#utility.yul\":4007:4086   */\n      tag_160\n        /* \"#utility.yul\":4082:4085   */\n      dup5\n        /* \"#utility.yul\":4074:4080   */\n      dup3\n        /* \"#utility.yul\":4067:4071   */\n      0x20\n        /* \"#utility.yul\":4059:4065   */\n      dup7\n        /* \"#utility.yul\":4055:4072   */\n      add\n        /* \"#utility.yul\":4007:4086   */\n      tag_84\n      jump\t// in\n    tag_160:\n        /* \"#utility.yul\":3998:4086   */\n      swap2\n      pop\n        /* \"#utility.yul\":3814:4092   */\n      pop\n        /* \"#utility.yul\":3752:4092   */\n      swap3\n      swap2\n      pop\n      pop\n      jump\t// out\n        /* \"#utility.yul\":4098:4418   */\n    tag_86:\n        /* \"#utility.yul\":4184:4188   */\n      0x00\n        /* \"#utility.yul\":4274:4292   */\n      0xffffffffffffffff\n        /* \"#utility.yul\":4266:4272   */\n      dup3\n        /* \"#utility.yul\":4263:4293   */\n      gt\n        /* \"#utility.yul\":4260:4316   */\n      iszero\n      tag_162\n      jumpi\n        /* \"#utility.yul\":4296:4314   */\n      tag_163\n      tag_79\n      jump\t// in\n    tag_163:\n        /* \"#utility.yul\":4260:4316   */\n    tag_162:\n        /* \"#utility.yul\":4346:4350   */\n      0x20\n        /* \"#utility.yul\":4338:4344   */\n      dup3\n        /* \"#utility.yul\":4334:4351   */\n      mul\n        /* \"#utility.yul\":4326:4351   */\n      swap1\n      pop\n        /* \"#utility.yul\":4406:4410   */\n      0x20\n        /* \"#utility.yul\":4400:4404   */\n      dup2\n        /* \"#utility.yul\":4396:4411   */\n      add\n        /* \"#utility.yul\":4388:4411   */\n      swap1\n      pop\n        /* \"#utility.yul\":4098:4418   */\n      swap2\n      swap1\n      pop\n      jump\t// out\n        /* \"#utility.yul\":4424:4541   */\n    tag_87:\n        /* \"#utility.yul\":4533:4534   */\n      0x00\n        /* \"#utility.yul\":4530:4531   */\n      dup1\n        /* \"#utility.yul\":4523:4535   */\n      revert\n        /* \"#utility.yul\":4547:4854   */\n    tag_88:\n        /* \"#utility.yul\":4608:4612   */\n      0x00\n        /* \"#utility.yul\":4698:4716   */\n      0xffffffffffffffff\n        /* \"#utility.yul\":4690:4696   */\n      dup3\n        /* \"#utility.yul\":4687:4717   */\n      gt\n        /* \"#utility.yul\":4684:4740   */\n      iszero\n      tag_166\n      jumpi\n        /* \"#utility.yul\":4720:4738   */\n      tag_167\n      tag_79\n      jump\t// in\n    tag_167:\n        /* \"#utility.yul\":4684:4740   */\n    tag_166:\n        /* \"#utility.yul\":4758:4787   */\n      tag_168\n        /* \"#utility.yul\":4780:4786   */\n      dup3\n        /* \"#utility.yul\":4758:4787   */\n      tag_78\n      jump\t// in\n    tag_168:\n        /* \"#utility.yul\":4750:4787   */\n      swap1\n      pop\n        /* \"#utility.yul\":4842:4846   */\n      0x20\n        /* \"#utility.yul\":4836:4840   */\n      dup2\n        /* \"#utility.yul\":4832:4847   */\n      add\n        /* \"#utility.yul\":4824:4847   */\n      swap1\n      pop\n        /* \"#utility.yul\":4547:4854   */\n      swap2\n      swap1\n      pop\n      jump\t// out\n        /* \"#utility.yul\":4860:5270   */\n    tag_89:\n        /* \"#utility.yul\":4937:4942   */\n      0x00\n        /* \"#utility.yul\":4962:5027   */\n      tag_170\n        /* \"#utility.yul\":4978:5026   */\n      tag_171\n        /* \"#utility.yul\":5019:5025   */\n      dup5\n        /* \"#utility.yul\":4978:5026   */\n      tag_88\n      jump\t// in\n    tag_171:\n        /* \"#utility.yul\":4962:5027   */\n      tag_81\n      jump\t// in\n    tag_170:\n        /* \"#utility.yul\":4953:5027   */\n      swap1\n      pop\n        /* \"#utility.yul\":5050:5056   */\n      dup3\n        /* \"#utility.yul\":5043:5048   */\n      dup2\n        /* \"#utility.yul\":5036:5057   */\n      mstore\n        /* \"#utility.yul\":5088:5092   */\n      0x20\n        /* \"#utility.yul\":5081:5086   */\n      dup2\n        /* \"#utility.yul\":5077:5093   */\n      add\n        /* \"#utility.yul\":5126:5129   */\n      dup5\n        /* \"#utility.yul\":5117:5123   */\n      dup5\n        /* \"#utility.yul\":5112:5115   */\n      dup5\n        /* \"#utility.yul\":5108:5124   */\n      add\n        /* \"#utility.yul\":5105:5130   */\n      gt\n        /* \"#utility.yul\":5102:5214   */\n      iszero\n      tag_172\n      jumpi\n        /* \"#utility.yul\":5133:5212   */\n      tag_173\n      tag_77\n      jump\t// in\n    tag_173:\n        /* \"#utility.yul\":5102:5214   */\n    tag_172:\n        /* \"#utility.yul\":5223:5264   */\n      tag_174\n        /* \"#utility.yul\":5257:5263   */\n      dup5\n        /* \"#utility.yul\":5252:5255   */\n      dup3\n        /* \"#utility.yul\":5247:5250   */\n      dup6\n        /* \"#utility.yul\":5223:5264   */\n      tag_83\n      jump\t// in\n    tag_174:\n        /* \"#utility.yul\":4943:5270   */\n      pop\n        /* \"#utility.yul\":4860:5270   */\n      swap4\n      swap3\n      pop\n      pop\n      pop\n      jump\t// out\n        /* \"#utility.yul\":5289:5627   */\n    tag_90:\n        /* \"#utility.yul\":5344:5349   */\n      0x00\n        /* \"#utility.yul\":5393:5396   */\n      dup3\n        /* \"#utility.yul\":5386:5390   */\n      0x1f\n        /* \"#utility.yul\":5378:5384   */\n      dup4\n        /* \"#utility.yul\":5374:5391   */\n      add\n        /* \"#utility.yul\":5370:5397   */\n      slt\n        /* \"#utility.yul\":5360:5482   */\n      tag_176\n      jumpi\n        /* \"#utility.yul\":5401:5480   */\n      tag_177\n      tag_76\n      jump\t// in\n    tag_177:\n        /* \"#utility.yul\":5360:5482   */\n    tag_176:\n        /* \"#utility.yul\":5518:5524   */\n      dup2\n        /* \"#utility.yul\":5505:5525   */\n      calldataload\n        /* \"#utility.yul\":5543:5621   */\n      tag_178\n        /* \"#utility.yul\":5617:5620   */\n      dup5\n        /* \"#utility.yul\":5609:5615   */\n      dup3\n        /* \"#utility.yul\":5602:5606   */\n      0x20\n        /* \"#utility.yul\":5594:5600   */\n      dup7\n        /* \"#utility.yul\":5590:5607   */\n      add\n        /* \"#utility.yul\":5543:5621   */\n      tag_89\n      jump\t// in\n    tag_178:\n        /* \"#utility.yul\":5534:5621   */\n      swap2\n      pop\n        /* \"#utility.yul\":5350:5627   */\n      pop\n        /* \"#utility.yul\":5289:5627   */\n      swap3\n      swap2\n      pop\n      pop\n      jump\t// out\n        /* \"#utility.yul\":5648:6590   */\n    tag_91:\n        /* \"#utility.yul\":5753:5758   */\n      0x00\n        /* \"#utility.yul\":5778:5868   */\n      tag_180\n        /* \"#utility.yul\":5794:5867   */\n      tag_181\n        /* \"#utility.yul\":5860:5866   */\n      dup5\n        /* \"#utility.yul\":5794:5867   */\n      tag_86\n      jump\t// in\n    tag_181:\n        /* \"#utility.yul\":5778:5868   */\n      tag_81\n      jump\t// in\n    tag_180:\n        /* \"#utility.yul\":5769:5868   */\n      swap1\n      pop\n        /* \"#utility.yul\":5888:5893   */\n      dup1\n        /* \"#utility.yul\":5917:5923   */\n      dup4\n        /* \"#utility.yul\":5910:5915   */\n      dup3\n        /* \"#utility.yul\":5903:5924   */\n      mstore\n        /* \"#utility.yul\":5951:5955   */\n      0x20\n        /* \"#utility.yul\":5944:5949   */\n      dup3\n        /* \"#utility.yul\":5940:5956   */\n      add\n        /* \"#utility.yul\":5933:5956   */\n      swap1\n      pop\n        /* \"#utility.yul\":6004:6008   */\n      0x20\n        /* \"#utility.yul\":5996:6002   */\n      dup5\n        /* \"#utility.yul\":5992:6009   */\n      mul\n        /* \"#utility.yul\":5984:5990   */\n      dup4\n        /* \"#utility.yul\":5980:6010   */\n      add\n        /* \"#utility.yul\":6033:6036   */\n      dup6\n        /* \"#utility.yul\":6025:6031   */\n      dup2\n        /* \"#utility.yul\":6022:6037   */\n      gt\n        /* \"#utility.yul\":6019:6141   */\n      iszero\n      tag_182\n      jumpi\n        /* \"#utility.yul\":6052:6131   */\n      tag_183\n      tag_87\n      jump\t// in\n    tag_183:\n        /* \"#utility.yul\":6019:6141   */\n    tag_182:\n        /* \"#utility.yul\":6167:6173   */\n      dup4\n        /* \"#utility.yul\":6150:6584   */\n    tag_184:\n        /* \"#utility.yul\":6184:6190   */\n      dup2\n        /* \"#utility.yul\":6179:6182   */\n      dup2\n        /* \"#utility.yul\":6176:6191   */\n      lt\n        /* \"#utility.yul\":6150:6584   */\n      iszero\n      tag_186\n      jumpi\n        /* \"#utility.yul\":6273:6276   */\n      dup1\n        /* \"#utility.yul\":6260:6277   */\n      calldataload\n        /* \"#utility.yul\":6309:6327   */\n      0xffffffffffffffff\n        /* \"#utility.yul\":6296:6307   */\n      dup2\n        /* \"#utility.yul\":6293:6328   */\n      gt\n        /* \"#utility.yul\":6290:6412   */\n      iszero\n      tag_187\n      jumpi\n        /* \"#utility.yul\":6331:6410   */\n      tag_188\n      tag_76\n      jump\t// in\n    tag_188:\n        /* \"#utility.yul\":6290:6412   */\n    tag_187:\n        /* \"#utility.yul\":6455:6466   */\n      dup1\n        /* \"#utility.yul\":6447:6453   */\n      dup7\n        /* \"#utility.yul\":6443:6467   */\n      add\n        /* \"#utility.yul\":6493:6539   */\n      tag_189\n        /* \"#utility.yul\":6535:6538   */\n      dup10\n        /* \"#utility.yul\":6523:6533   */\n      dup3\n        /* \"#utility.yul\":6493:6539   */\n      tag_90\n      jump\t// in\n    tag_189:\n        /* \"#utility.yul\":6488:6491   */\n      dup6\n        /* \"#utility.yul\":6481:6540   */\n      mstore\n        /* \"#utility.yul\":6569:6573   */\n      0x20\n        /* \"#utility.yul\":6564:6567   */\n      dup6\n        /* \"#utility.yul\":6560:6574   */\n      add\n        /* \"#utility.yul\":6553:6574   */\n      swap5\n      pop\n        /* \"#utility.yul\":6226:6584   */\n      pop\n      pop\n        /* \"#utility.yul\":6210:6214   */\n      0x20\n        /* \"#utility.yul\":6205:6208   */\n      dup2\n        /* \"#utility.yul\":6201:6215   */\n      add\n        /* \"#utility.yul\":6194:6215   */\n      swap1\n      pop\n        /* \"#utility.yul\":6150:6584   */\n      jump(tag_184)\n    tag_186:\n        /* \"#utility.yul\":6154:6175   */\n      pop\n        /* \"#utility.yul\":5759:6590   */\n      pop\n      pop\n        /* \"#utility.yul\":5648:6590   */\n      swap4\n      swap3\n      pop\n      pop\n      pop\n      jump\t// out\n        /* \"#utility.yul\":6611:6999   */\n    tag_92:\n        /* \"#utility.yul\":6691:6696   */\n      0x00\n        /* \"#utility.yul\":6740:6743   */\n      dup3\n        /* \"#utility.yul\":6733:6737   */\n      0x1f\n        /* \"#utility.yul\":6725:6731   */\n      dup4\n        /* \"#utility.yul\":6721:6738   */\n      add\n        /* \"#utility.yul\":6717:6744   */\n      slt\n        /* \"#utility.yul\":6707:6829   */\n      tag_191\n      jumpi\n        /* \"#utility.yul\":6748:6827   */\n      tag_192\n      tag_76\n      jump\t// in\n    tag_192:\n        /* \"#utility.yul\":6707:6829   */\n    tag_191:\n        /* \"#utility.yul\":6865:6871   */\n      dup2\n        /* \"#utility.yul\":6852:6872   */\n      calldataload\n        /* \"#utility.yul\":6890:6993   */\n      tag_193\n        /* \"#utility.yul\":6989:6992   */\n      dup5\n        /* \"#utility.yul\":6981:6987   */\n      dup3\n        /* \"#utility.yul\":6974:6978   */\n      0x20\n        /* \"#utility.yul\":6966:6972   */\n      dup7\n        /* \"#utility.yul\":6962:6979   */\n      add\n        /* \"#utility.yul\":6890:6993   */\n      tag_91\n      jump\t// in\n    tag_193:\n        /* \"#utility.yul\":6881:6993   */\n      swap2\n      pop\n        /* \"#utility.yul\":6697:6999   */\n      pop\n        /* \"#utility.yul\":6611:6999   */\n      swap3\n      swap2\n      pop\n      pop\n      jump\t// out\n        /* \"#utility.yul\":7005:8616   */\n    tag_16:\n        /* \"#utility.yul\":7162:7168   */\n      0x00\n        /* \"#utility.yul\":7170:7176   */\n      dup1\n        /* \"#utility.yul\":7178:7184   */\n      0x00\n        /* \"#utility.yul\":7186:7192   */\n      dup1\n        /* \"#utility.yul\":7194:7200   */\n      0x00\n        /* \"#utility.yul\":7202:7208   */\n      dup1\n        /* \"#utility.yul\":7210:7216   */\n      0x00\n        /* \"#utility.yul\":7259:7262   */\n      0xe0\n        /* \"#utility.yul\":7247:7256   */\n      dup9\n        /* \"#utility.yul\":7238:7245   */\n      dup11\n        /* \"#utility.yul\":7234:7257   */\n      sub\n        /* \"#utility.yul\":7230:7263   */\n      slt\n        /* \"#utility.yul\":7227:7347   */\n      iszero\n      tag_195\n      jumpi\n        /* \"#utility.yul\":7266:7345   */\n      tag_196\n      tag_66\n      jump\t// in\n    tag_196:\n        /* \"#utility.yul\":7227:7347   */\n    tag_195:\n        /* \"#utility.yul\":7386:7387   */\n      0x00\n        /* \"#utility.yul\":7411:7464   */\n      tag_197\n        /* \"#utility.yul\":7456:7463   */\n      dup11\n        /* \"#utility.yul\":7447:7453   */\n      dup3\n        /* \"#utility.yul\":7436:7445   */\n      dup12\n        /* \"#utility.yul\":7432:7454   */\n      add\n        /* \"#utility.yul\":7411:7464   */\n      tag_75\n      jump\t// in\n    tag_197:\n        /* \"#utility.yul\":7401:7464   */\n      swap8\n      pop\n        /* \"#utility.yul\":7357:7474   */\n      pop\n        /* \"#utility.yul\":7513:7515   */\n      0x20\n        /* \"#utility.yul\":7539:7592   */\n      tag_198\n        /* \"#utility.yul\":7584:7591   */\n      dup11\n        /* \"#utility.yul\":7575:7581   */\n      dup3\n        /* \"#utility.yul\":7564:7573   */\n      dup12\n        /* \"#utility.yul\":7560:7582   */\n      add\n        /* \"#utility.yul\":7539:7592   */\n      tag_70\n      jump\t// in\n    tag_198:\n        /* \"#utility.yul\":7529:7592   */\n      swap7\n      pop\n        /* \"#utility.yul\":7484:7602   */\n      pop\n        /* \"#utility.yul\":7641:7643   */\n      0x40\n        /* \"#utility.yul\":7667:7720   */\n      tag_199\n        /* \"#utility.yul\":7712:7719   */\n      dup11\n        /* \"#utility.yul\":7703:7709   */\n      dup3\n        /* \"#utility.yul\":7692:7701   */\n      dup12\n        /* \"#utility.yul\":7688:7710   */\n      add\n        /* \"#utility.yul\":7667:7720   */\n      tag_70\n      jump\t// in\n    tag_199:\n        /* \"#utility.yul\":7657:7720   */\n      swap6\n      pop\n        /* \"#utility.yul\":7612:7730   */\n      pop\n        /* \"#utility.yul\":7769:7771   */\n      0x60\n        /* \"#utility.yul\":7795:7848   */\n      tag_200\n        /* \"#utility.yul\":7840:7847   */\n      dup11\n        /* \"#utility.yul\":7831:7837   */\n      dup3\n        /* \"#utility.yul\":7820:7829   */\n      dup12\n        /* \"#utility.yul\":7816:7838   */\n      add\n        /* \"#utility.yul\":7795:7848   */\n      tag_70\n      jump\t// in\n    tag_200:\n        /* \"#utility.yul\":7785:7848   */\n      swap5\n      pop\n        /* \"#utility.yul\":7740:7858   */\n      pop\n        /* \"#utility.yul\":7897:7900   */\n      0x80\n        /* \"#utility.yul\":7924:7977   */\n      tag_201\n        /* \"#utility.yul\":7969:7976   */\n      dup11\n        /* \"#utility.yul\":7960:7966   */\n      dup3\n        /* \"#utility.yul\":7949:7958   */\n      dup12\n        /* \"#utility.yul\":7945:7967   */\n      add\n        /* \"#utility.yul\":7924:7977   */\n      tag_75\n      jump\t// in\n    tag_201:\n        /* \"#utility.yul\":7914:7977   */\n      swap4\n      pop\n        /* \"#utility.yul\":7868:7987   */\n      pop\n        /* \"#utility.yul\":8054:8057   */\n      0xa0\n        /* \"#utility.yul\":8043:8052   */\n      dup9\n        /* \"#utility.yul\":8039:8058   */\n      add\n        /* \"#utility.yul\":8026:8059   */\n      calldataload\n        /* \"#utility.yul\":8086:8104   */\n      0xffffffffffffffff\n        /* \"#utility.yul\":8078:8084   */\n      dup2\n        /* \"#utility.yul\":8075:8105   */\n      gt\n        /* \"#utility.yul\":8072:8189   */\n      iszero\n      tag_202\n      jumpi\n        /* \"#utility.yul\":8108:8187   */\n      tag_203\n      tag_67\n      jump\t// in\n    tag_203:\n        /* \"#utility.yul\":8072:8189   */\n    tag_202:\n        /* \"#utility.yul\":8213:8276   */\n      tag_204\n        /* \"#utility.yul\":8268:8275   */\n      dup11\n        /* \"#utility.yul\":8259:8265   */\n      dup3\n        /* \"#utility.yul\":8248:8257   */\n      dup12\n        /* \"#utility.yul\":8244:8266   */\n      add\n        /* \"#utility.yul\":8213:8276   */\n      tag_85\n      jump\t// in\n    tag_204:\n        /* \"#utility.yul\":8203:8276   */\n      swap3\n      pop\n        /* \"#utility.yul\":7997:8286   */\n      pop\n        /* \"#utility.yul\":8353:8356   */\n      0xc0\n        /* \"#utility.yul\":8342:8351   */\n      dup9\n        /* \"#utility.yul\":8338:8357   */\n      add\n        /* \"#utility.yul\":8325:8358   */\n      calldataload\n        /* \"#utility.yul\":8385:8403   */\n      0xffffffffffffffff\n        /* \"#utility.yul\":8377:8383   */\n      dup2\n        /* \"#utility.yul\":8374:8404   */\n      gt\n        /* \"#utility.yul\":8371:8488   */\n      iszero\n      tag_205\n      jumpi\n        /* \"#utility.yul\":8407:8486   */\n      tag_206\n      tag_67\n      jump\t// in\n    tag_206:\n        /* \"#utility.yul\":8371:8488   */\n    tag_205:\n        /* \"#utility.yul\":8512:8599   */\n      tag_207\n        /* \"#utility.yul\":8591:8598   */\n      dup11\n        /* \"#utility.yul\":8582:8588   */\n      dup3\n        /* \"#utility.yul\":8571:8580   */\n      dup12\n        /* \"#utility.yul\":8567:8589   */\n      add\n        /* \"#utility.yul\":8512:8599   */\n      tag_92\n      jump\t// in\n    tag_207:\n        /* \"#utility.yul\":8502:8599   */\n      swap2\n      pop\n        /* \"#utility.yul\":8296:8609   */\n      pop\n        /* \"#utility.yul\":7005:8616   */\n      swap3\n      swap6\n      swap9\n      swap2\n      swap5\n      swap8\n      pop\n      swap3\n      swap6\n      pop\n      jump\t// out\n        /* \"#utility.yul\":8622:8699   */\n    tag_93:\n        /* \"#utility.yul\":8659:8666   */\n      0x00\n        /* \"#utility.yul\":8688:8693   */\n      dup2\n        /* \"#utility.yul\":8677:8693   */\n      swap1\n      pop\n        /* \"#utility.yul\":8622:8699   */\n      swap2\n      swap1\n      pop\n      jump\t// out\n        /* \"#utility.yul\":8705:8827   */\n    tag_94:\n        /* \"#utility.yul\":8778:8802   */\n      tag_210\n        /* \"#utility.yul\":8796:8801   */\n      dup2\n        /* \"#utility.yul\":8778:8802   */\n      tag_93\n      jump\t// in\n    tag_210:\n        /* \"#utility.yul\":8771:8776   */\n      dup2\n        /* \"#utility.yul\":8768:8803   */\n      eq\n        /* \"#utility.yul\":8758:8821   */\n      tag_211\n      jumpi\n        /* \"#utility.yul\":8817:8818   */\n      0x00\n        /* \"#utility.yul\":8814:8815   */\n      dup1\n        /* \"#utility.yul\":8807:8819   */\n      revert\n        /* \"#utility.yul\":8758:8821   */\n    tag_211:\n        /* \"#utility.yul\":8705:8827   */\n      pop\n      jump\t// out\n        /* \"#utility.yul\":8833:8972   */\n    tag_95:\n        /* \"#utility.yul\":8879:8884   */\n      0x00\n        /* \"#utility.yul\":8917:8923   */\n      dup2\n        /* \"#utility.yul\":8904:8924   */\n      calldataload\n        /* \"#utility.yul\":8895:8924   */\n      swap1\n      pop\n        /* \"#utility.yul\":8933:8966   */\n      tag_213\n        /* \"#utility.yul\":8960:8965   */\n      dup2\n        /* \"#utility.yul\":8933:8966   */\n      tag_94\n      jump\t// in\n    tag_213:\n        /* \"#utility.yul\":8833:8972   */\n      swap3\n      swap2\n      pop\n      pop\n      jump\t// out\n        /* \"#utility.yul\":8978:9971   */\n    tag_25:\n        /* \"#utility.yul\":9098:9104   */\n      0x00\n        /* \"#utility.yul\":9106:9112   */\n      dup1\n        /* \"#utility.yul\":9114:9120   */\n      0x00\n        /* \"#utility.yul\":9122:9128   */\n      dup1\n        /* \"#utility.yul\":9171:9174   */\n      0x80\n        /* \"#utility.yul\":9159:9168   */\n      dup6\n        /* \"#utility.yul\":9150:9157   */\n      dup8\n        /* \"#utility.yul\":9146:9169   */\n      sub\n        /* \"#utility.yul\":9142:9175   */\n      slt\n        /* \"#utility.yul\":9139:9259   */\n      iszero\n      tag_215\n      jumpi\n        /* \"#utility.yul\":9178:9257   */\n      tag_216\n      tag_66\n      jump\t// in\n    tag_216:\n        /* \"#utility.yul\":9139:9259   */\n    tag_215:\n        /* \"#utility.yul\":9298:9299   */\n      0x00\n        /* \"#utility.yul\":9323:9376   */\n      tag_217\n        /* \"#utility.yul\":9368:9375   */\n      dup8\n        /* \"#utility.yul\":9359:9365   */\n      dup3\n        /* \"#utility.yul\":9348:9357   */\n      dup9\n        /* \"#utility.yul\":9344:9366   */\n      add\n        /* \"#utility.yul\":9323:9376   */\n      tag_75\n      jump\t// in\n    tag_217:\n        /* \"#utility.yul\":9313:9376   */\n      swap5\n      pop\n        /* \"#utility.yul\":9269:9386   */\n      pop\n        /* \"#utility.yul\":9425:9427   */\n      0x20\n        /* \"#utility.yul\":9451:9504   */\n      tag_218\n        /* \"#utility.yul\":9496:9503   */\n      dup8\n        /* \"#utility.yul\":9487:9493   */\n      dup3\n        /* \"#utility.yul\":9476:9485   */\n      dup9\n        /* \"#utility.yul\":9472:9494   */\n      add\n        /* \"#utility.yul\":9451:9504   */\n      tag_75\n      jump\t// in\n    tag_218:\n        /* \"#utility.yul\":9441:9504   */\n      swap4\n      pop\n        /* \"#utility.yul\":9396:9514   */\n      pop\n        /* \"#utility.yul\":9581:9583   */\n      0x40\n        /* \"#utility.yul\":9570:9579   */\n      dup6\n        /* \"#utility.yul\":9566:9584   */\n      add\n        /* \"#utility.yul\":9553:9585   */\n      calldataload\n        /* \"#utility.yul\":9612:9630   */\n      0xffffffffffffffff\n        /* \"#utility.yul\":9604:9610   */\n      dup2\n        /* \"#utility.yul\":9601:9631   */\n      gt\n        /* \"#utility.yul\":9598:9715   */\n      iszero\n      tag_219\n      jumpi\n        /* \"#utility.yul\":9634:9713   */\n      tag_220\n      tag_67\n      jump\t// in\n    tag_220:\n        /* \"#utility.yul\":9598:9715   */\n    tag_219:\n        /* \"#utility.yul\":9739:9826   */\n      tag_221\n        /* \"#utility.yul\":9818:9825   */\n      dup8\n        /* \"#utility.yul\":9809:9815   */\n      dup3\n        /* \"#utility.yul\":9798:9807   */\n      dup9\n        /* \"#utility.yul\":9794:9816   */\n      add\n        /* \"#utility.yul\":9739:9826   */\n      tag_92\n      jump\t// in\n    tag_221:\n        /* \"#utility.yul\":9729:9826   */\n      swap3\n      pop\n        /* \"#utility.yul\":9524:9836   */\n      pop\n        /* \"#utility.yul\":9875:9877   */\n      0x60\n        /* \"#utility.yul\":9901:9954   */\n      tag_222\n        /* \"#utility.yul\":9946:9953   */\n      dup8\n        /* \"#utility.yul\":9937:9943   */\n      dup3\n        /* \"#utility.yul\":9926:9935   */\n      dup9\n        /* \"#utility.yul\":9922:9944   */\n      add\n        /* \"#utility.yul\":9901:9954   */\n      tag_95\n      jump\t// in\n    tag_222:\n        /* \"#utility.yul\":9891:9954   */\n      swap2\n      pop\n        /* \"#utility.yul\":9846:9964   */\n      pop\n        /* \"#utility.yul\":8978:9971   */\n      swap3\n      swap6\n      swap2\n      swap5\n      pop\n      swap3\n      pop\n      jump\t// out\n        /* \"#utility.yul\":9977:10157   */\n    tag_96:\n        /* \"#utility.yul\":10025:10102   */\n      0x4e487b7100000000000000000000000000000000000000000000000000000000\n        /* \"#utility.yul\":10022:10023   */\n      0x00\n        /* \"#utility.yul\":10015:10103   */\n      mstore\n        /* \"#utility.yul\":10122:10126   */\n      0x11\n        /* \"#utility.yul\":10119:10120   */\n      0x04\n        /* \"#utility.yul\":10112:10127   */\n      mstore\n        /* \"#utility.yul\":10146:10150   */\n      0x24\n        /* \"#utility.yul\":10143:10144   */\n      0x00\n        /* \"#utility.yul\":10136:10151   */\n      revert\n        /* \"#utility.yul\":10163:10511   */\n    tag_38:\n        /* \"#utility.yul\":10203:10210   */\n      0x00\n        /* \"#utility.yul\":10226:10246   */\n      tag_225\n        /* \"#utility.yul\":10244:10245   */\n      dup3\n        /* \"#utility.yul\":10226:10246   */\n      tag_68\n      jump\t// in\n    tag_225:\n        /* \"#utility.yul\":10221:10246   */\n      swap2\n      pop\n        /* \"#utility.yul\":10260:10280   */\n      tag_226\n        /* \"#utility.yul\":10278:10279   */\n      dup4\n        /* \"#utility.yul\":10260:10280   */\n      tag_68\n      jump\t// in\n    tag_226:\n        /* \"#utility.yul\":10255:10280   */\n      swap3\n      pop\n        /* \"#utility.yul\":10448:10449   */\n      dup2\n        /* \"#utility.yul\":10380:10446   */\n      0xffffffffffffffffffffffffffffffffffffffffffffffffffffffffffffffff\n        /* \"#utility.yul\":10376:10450   */\n      div\n        /* \"#utility.yul\":10373:10374   */\n      dup4\n        /* \"#utility.yul\":10370:10451   */\n      gt\n        /* \"#utility.yul\":10365:10366   */\n      dup3\n        /* \"#utility.yul\":10358:10367   */\n      iszero\n        /* \"#utility.yul\":10351:10368   */\n      iszero\n        /* \"#utility.yul\":10347:10452   */\n      and\n        /* \"#utility.yul\":10344:10475   */\n      iszero\n      tag_227\n      jumpi\n        /* \"#utility.yul\":10455:10473   */\n      tag_228\n      tag_96\n      jump\t// in\n    tag_228:\n        /* \"#utility.yul\":10344:10475   */\n    tag_227:\n        /* \"#utility.yul\":10503:10504   */\n      dup3\n        /* \"#utility.yul\":10500:10501   */\n      dup3\n        /* \"#utility.yul\":10496:10505   */\n      mul\n        /* \"#utility.yul\":10485:10505   */\n      swap1\n      pop\n        /* \"#utility.yul\":10163:10511   */\n      swap3\n      swap2\n      pop\n      pop\n      jump\t// out\n        /* \"#utility.yul\":10517:10822   */\n    tag_42:\n        /* \"#utility.yul\":10557:10560   */\n      0x00\n        /* \"#utility.yul\":10576:10596   */\n      tag_230\n        /* \"#utility.yul\":10594:10595   */\n      dup3\n        /* \"#utility.yul\":10576:10596   */\n      tag_68\n      jump\t// in\n    tag_230:\n        /* \"#utility.yul\":10571:10596   */\n      swap2\n      pop\n        /* \"#utility.yul\":10610:10630   */\n      tag_231\n        /* \"#utility.yul\":10628:10629   */\n      dup4\n        /* \"#utility.yul\":10610:10630   */\n      tag_68\n      jump\t// in\n    tag_231:\n        /* \"#utility.yul\":10605:10630   */\n      swap3\n      pop\n        /* \"#utility.yul\":10764:10765   */\n      dup3\n        /* \"#utility.yul\":10696:10762   */\n      0xffffffffffffffffffffffffffffffffffffffffffffffffffffffffffffffff\n        /* \"#utility.yul\":10692:10766   */\n      sub\n        /* \"#utility.yul\":10689:10690   */\n      dup3\n        /* \"#utility.yul\":10686:10767   */\n      gt\n        /* \"#utility.yul\":10683:10790   */\n      iszero\n      tag_232\n      jumpi\n        /* \"#utility.yul\":10770:10788   */\n      tag_233\n      tag_96\n      jump\t// in\n    tag_233:\n        /* \"#utility.yul\":10683:10790   */\n    tag_232:\n        /* \"#utility.yul\":10814:10815   */\n      dup3\n        /* \"#utility.yul\":10811:10812   */\n      dup3\n        /* \"#utility.yul\":10807:10816   */\n      add\n        /* \"#utility.yul\":10800:10816   */\n      swap1\n      pop\n        /* \"#utility.yul\":10517:10822   */\n      swap3\n      swap2\n      pop\n      pop\n      jump\t// out\n        /* \"#utility.yul\":10828:10946   */\n    tag_97:\n        /* \"#utility.yul\":10915:10939   */\n      tag_235\n        /* \"#utility.yul\":10933:10938   */\n      dup2\n        /* \"#utility.yul\":10915:10939   */\n      tag_73\n      jump\t// in\n    tag_235:\n        /* \"#utility.yul\":10910:10913   */\n      dup3\n        /* \"#utility.yul\":10903:10940   */\n      mstore\n        /* \"#utility.yul\":10828:10946   */\n      pop\n      pop\n      jump\t// out\n        /* \"#utility.yul\":10952:11075   */\n    tag_98:\n        /* \"#utility.yul\":11028:11034   */\n      0x00\n        /* \"#utility.yul\":11062:11067   */\n      dup2\n        /* \"#utility.yul\":11056:11068   */\n      mload\n        /* \"#utility.yul\":11046:11068   */\n      swap1\n      pop\n        /* \"#utility.yul\":10952:11075   */\n      swap2\n      swap1\n      pop\n      jump\t// out\n        /* \"#utility.yul\":11081:11274   */\n    tag_99:\n        /* \"#utility.yul\":11189:11200   */\n      0x00\n        /* \"#utility.yul\":11223:11229   */\n      dup3\n        /* \"#utility.yul\":11218:11221   */\n      dup3\n        /* \"#utility.yul\":11211:11230   */\n      mstore\n        /* \"#utility.yul\":11263:11267   */\n      0x20\n        /* \"#utility.yul\":11258:11261   */\n      dup3\n        /* \"#utility.yul\":11254:11268   */\n      add\n        /* \"#utility.yul\":11239:11268   */\n      swap1\n      pop\n        /* \"#utility.yul\":11081:11274   */\n      swap3\n      swap2\n      pop\n      pop\n      jump\t// out\n        /* \"#utility.yul\":11280:11421   */\n    tag_100:\n        /* \"#utility.yul\":11356:11360   */\n      0x00\n        /* \"#utility.yul\":11379:11382   */\n      dup2\n        /* \"#utility.yul\":11371:11382   */\n      swap1\n      pop\n        /* \"#utility.yul\":11409:11413   */\n      0x20\n        /* \"#utility.yul\":11404:11407   */\n      dup3\n        /* \"#utility.yul\":11400:11414   */\n      add\n        /* \"#utility.yul\":11392:11414   */\n      swap1\n      pop\n        /* \"#utility.yul\":11280:11421   */\n      swap2\n      swap1\n      pop\n      jump\t// out\n        /* \"#utility.yul\":11427:11525   */\n    tag_101:\n        /* \"#utility.yul\":11478:11484   */\n      0x00\n        /* \"#utility.yul\":11512:11517   */\n      dup2\n        /* \"#utility.yul\":11506:11518   */\n      mload\n        /* \"#utility.yul\":11496:11518   */\n      swap1\n      pop\n        /* \"#utility.yul\":11427:11525   */\n      swap2\n      swap1\n      pop\n      jump\t// out\n        /* \"#utility.yul\":11531:11689   */\n    tag_102:\n        /* \"#utility.yul\":11604:11615   */\n      0x00\n        /* \"#utility.yul\":11638:11644   */\n      dup3\n        /* \"#utility.yul\":11633:11636   */\n      dup3\n        /* \"#utility.yul\":11626:11645   */\n      mstore\n        /* \"#utility.yul\":11678:11682   */\n      0x20\n        /* \"#utility.yul\":11673:11676   */\n      dup3\n        /* \"#utility.yul\":11669:11683   */\n      add\n        /* \"#utility.yul\":11654:11683   */\n      swap1\n      pop\n        /* \"#utility.yul\":11531:11689   */\n      swap3\n      swap2\n      pop\n      pop\n      jump\t// out\n        /* \"#utility.yul\":11695:12002   */\n    tag_103:\n        /* \"#utility.yul\":11763:11764   */\n      0x00\n        /* \"#utility.yul\":11773:11886   */\n    tag_242:\n        /* \"#utility.yul\":11787:11793   */\n      dup4\n        /* \"#utility.yul\":11784:11785   */\n      dup2\n        /* \"#utility.yul\":11781:11794   */\n      lt\n        /* \"#utility.yul\":11773:11886   */\n      iszero\n      tag_244\n      jumpi\n        /* \"#utility.yul\":11872:11873   */\n      dup1\n        /* \"#utility.yul\":11867:11870   */\n      dup3\n        /* \"#utility.yul\":11863:11874   */\n      add\n        /* \"#utility.yul\":11857:11875   */\n      mload\n        /* \"#utility.yul\":11853:11854   */\n      dup2\n        /* \"#utility.yul\":11848:11851   */\n      dup5\n        /* \"#utility.yul\":11844:11855   */\n      add\n        /* \"#utility.yul\":11837:11876   */\n      mstore\n        /* \"#utility.yul\":11809:11811   */\n      0x20\n        /* \"#utility.yul\":11806:11807   */\n      dup2\n        /* \"#utility.yul\":11802:11812   */\n      add\n        /* \"#utility.yul\":11797:11812   */\n      swap1\n      pop\n        /* \"#utility.yul\":11773:11886   */\n      jump(tag_242)\n    tag_244:\n        /* \"#utility.yul\":11904:11910   */\n      dup4\n        /* \"#utility.yul\":11901:11902   */\n      dup2\n        /* \"#utility.yul\":11898:11911   */\n      gt\n        /* \"#utility.yul\":11895:11996   */\n      iszero\n      tag_245\n      jumpi\n        /* \"#utility.yul\":11984:11985   */\n      0x00\n        /* \"#utility.yul\":11975:11981   */\n      dup5\n        /* \"#utility.yul\":11970:11973   */\n      dup5\n        /* \"#utility.yul\":11966:11982   */\n      add\n        /* \"#utility.yul\":11959:11986   */\n      mstore\n        /* \"#utility.yul\":11895:11996   */\n    tag_245:\n        /* \"#utility.yul\":11744:12002   */\n      pop\n        /* \"#utility.yul\":11695:12002   */\n      pop\n      pop\n      pop\n      jump\t// out\n        /* \"#utility.yul\":12008:12348   */\n    tag_104:\n        /* \"#utility.yul\":12084:12087   */\n      0x00\n        /* \"#utility.yul\":12112:12150   */\n      tag_247\n        /* \"#utility.yul\":12144:12149   */\n      dup3\n        /* \"#utility.yul\":12112:12150   */\n      tag_101\n      jump\t// in\n    tag_247:\n        /* \"#utility.yul\":12166:12226   */\n      tag_248\n        /* \"#utility.yul\":12219:12225   */\n      dup2\n        /* \"#utility.yul\":12214:12217   */\n      dup6\n        /* \"#utility.yul\":12166:12226   */\n      tag_102\n      jump\t// in\n    tag_248:\n        /* \"#utility.yul\":12159:12226   */\n      swap4\n      pop\n        /* \"#utility.yul\":12235:12287   */\n      tag_249\n        /* \"#utility.yul\":12280:12286   */\n      dup2\n        /* \"#utility.yul\":12275:12278   */\n      dup6\n        /* \"#utility.yul\":12268:12272   */\n      0x20\n        /* \"#utility.yul\":12261:12266   */\n      dup7\n        /* \"#utility.yul\":12257:12273   */\n      add\n        /* \"#utility.yul\":12235:12287   */\n      tag_103\n      jump\t// in\n    tag_249:\n        /* \"#utility.yul\":12312:12341   */\n      tag_250\n        /* \"#utility.yul\":12334:12340   */\n      dup2\n        /* \"#utility.yul\":12312:12341   */\n      tag_78\n      jump\t// in\n    tag_250:\n        /* \"#utility.yul\":12307:12310   */\n      dup5\n        /* \"#utility.yul\":12303:12342   */\n      add\n        /* \"#utility.yul\":12296:12342   */\n      swap2\n      pop\n        /* \"#utility.yul\":12088:12348   */\n      pop\n        /* \"#utility.yul\":12008:12348   */\n      swap3\n      swap2\n      pop\n      pop\n      jump\t// out\n        /* \"#utility.yul\":12354:12546   */\n    tag_105:\n        /* \"#utility.yul\":12441:12451   */\n      0x00\n        /* \"#utility.yul\":12476:12540   */\n      tag_252\n        /* \"#utility.yul\":12536:12539   */\n      dup4\n        /* \"#utility.yul\":12528:12534   */\n      dup4\n        /* \"#utility.yul\":12476:12540   */\n      tag_104\n      jump\t// in\n    tag_252:\n        /* \"#utility.yul\":12462:12540   */\n      swap1\n      pop\n        /* \"#utility.yul\":12354:12546   */\n      swap3\n      swap2\n      pop\n      pop\n      jump\t// out\n        /* \"#utility.yul\":12552:12674   */\n    tag_106:\n        /* \"#utility.yul\":12631:12635   */\n      0x00\n        /* \"#utility.yul\":12663:12667   */\n      0x20\n        /* \"#utility.yul\":12658:12661   */\n      dup3\n        /* \"#utility.yul\":12654:12668   */\n      add\n        /* \"#utility.yul\":12646:12668   */\n      swap1\n      pop\n        /* \"#utility.yul\":12552:12674   */\n      swap2\n      swap1\n      pop\n      jump\t// out\n        /* \"#utility.yul\":12706:13689   */\n    tag_107:\n        /* \"#utility.yul\":12843:12846   */\n      0x00\n        /* \"#utility.yul\":12872:12935   */\n      tag_255\n        /* \"#utility.yul\":12929:12934   */\n      dup3\n        /* \"#utility.yul\":12872:12935   */\n      tag_98\n      jump\t// in\n    tag_255:\n        /* \"#utility.yul\":12951:13046   */\n      tag_256\n        /* \"#utility.yul\":13039:13045   */\n      dup2\n        /* \"#utility.yul\":13034:13037   */\n      dup6\n        /* \"#utility.yul\":12951:13046   */\n      tag_99\n      jump\t// in\n    tag_256:\n        /* \"#utility.yul\":12944:13046   */\n      swap4\n      pop\n        /* \"#utility.yul\":13072:13075   */\n      dup4\n        /* \"#utility.yul\":13117:13121   */\n      0x20\n        /* \"#utility.yul\":13109:13115   */\n      dup3\n        /* \"#utility.yul\":13105:13122   */\n      mul\n        /* \"#utility.yul\":13100:13103   */\n      dup6\n        /* \"#utility.yul\":13096:13123   */\n      add\n        /* \"#utility.yul\":13147:13212   */\n      tag_257\n        /* \"#utility.yul\":13206:13211   */\n      dup6\n        /* \"#utility.yul\":13147:13212   */\n      tag_100\n      jump\t// in\n    tag_257:\n        /* \"#utility.yul\":13235:13242   */\n      dup1\n        /* \"#utility.yul\":13266:13267   */\n      0x00\n        /* \"#utility.yul\":13251:13644   */\n    tag_258:\n        /* \"#utility.yul\":13276:13282   */\n      dup6\n        /* \"#utility.yul\":13273:13274   */\n      dup2\n        /* \"#utility.yul\":13270:13283   */\n      lt\n        /* \"#utility.yul\":13251:13644   */\n      iszero\n      tag_260\n      jumpi\n        /* \"#utility.yul\":13347:13356   */\n      dup5\n        /* \"#utility.yul\":13341:13345   */\n      dup5\n        /* \"#utility.yul\":13337:13357   */\n      sub\n        /* \"#utility.yul\":13332:13335   */\n      dup10\n        /* \"#utility.yul\":13325:13358   */\n      mstore\n        /* \"#utility.yul\":13398:13404   */\n      dup2\n        /* \"#utility.yul\":13392:13405   */\n      mload\n        /* \"#utility.yul\":13426:13508   */\n      tag_261\n        /* \"#utility.yul\":13503:13507   */\n      dup6\n        /* \"#utility.yul\":13488:13501   */\n      dup3\n        /* \"#utility.yul\":13426:13508   */\n      tag_105\n      jump\t// in\n    tag_261:\n        /* \"#utility.yul\":13418:13508   */\n      swap5\n      pop\n        /* \"#utility.yul\":13531:13600   */\n      tag_262\n        /* \"#utility.yul\":13593:13599   */\n      dup4\n        /* \"#utility.yul\":13531:13600   */\n      tag_106\n      jump\t// in\n    tag_262:\n        /* \"#utility.yul\":13521:13600   */\n      swap3\n      pop\n        /* \"#utility.yul\":13629:13633   */\n      0x20\n        /* \"#utility.yul\":13624:13627   */\n      dup11\n        /* \"#utility.yul\":13620:13634   */\n      add\n        /* \"#utility.yul\":13613:13634   */\n      swap10\n      pop\n        /* \"#utility.yul\":13311:13644   */\n      pop\n        /* \"#utility.yul\":13298:13299   */\n      0x01\n        /* \"#utility.yul\":13295:13296   */\n      dup2\n        /* \"#utility.yul\":13291:13300   */\n      add\n        /* \"#utility.yul\":13286:13300   */\n      swap1\n      pop\n        /* \"#utility.yul\":13251:13644   */\n      jump(tag_258)\n    tag_260:\n        /* \"#utility.yul\":13255:13269   */\n      pop\n        /* \"#utility.yul\":13660:13664   */\n      dup3\n        /* \"#utility.yul\":13653:13664   */\n      swap8\n      pop\n        /* \"#utility.yul\":13680:13683   */\n      dup8\n        /* \"#utility.yul\":13673:13683   */\n      swap6\n      pop\n        /* \"#utility.yul\":12848:13689   */\n      pop\n      pop\n      pop\n      pop\n      pop\n        /* \"#utility.yul\":12706:13689   */\n      swap3\n      swap2\n      pop\n      pop\n      jump\t// out\n        /* \"#utility.yul\":13695:13813   */\n    tag_108:\n        /* \"#utility.yul\":13782:13806   */\n      tag_264\n        /* \"#utility.yul\":13800:13805   */\n      dup2\n        /* \"#utility.yul\":13782:13806   */\n      tag_93\n      jump\t// in\n    tag_264:\n        /* \"#utility.yul\":13777:13780   */\n      dup3\n        /* \"#utility.yul\":13770:13807   */\n      mstore\n        /* \"#utility.yul\":13695:13813   */\n      pop\n      pop\n      jump\t// out\n        /* \"#utility.yul\":13819:14559   */\n    tag_56:\n        /* \"#utility.yul\":14064:14068   */\n      0x00\n        /* \"#utility.yul\":14102:14105   */\n      0x80\n        /* \"#utility.yul\":14091:14100   */\n      dup3\n        /* \"#utility.yul\":14087:14106   */\n      add\n        /* \"#utility.yul\":14079:14106   */\n      swap1\n      pop\n        /* \"#utility.yul\":14116:14187   */\n      tag_266\n        /* \"#utility.yul\":14184:14185   */\n      0x00\n        /* \"#utility.yul\":14173:14182   */\n      dup4\n        /* \"#utility.yul\":14169:14186   */\n      add\n        /* \"#utility.yul\":14160:14166   */\n      dup8\n        /* \"#utility.yul\":14116:14187   */\n      tag_97\n      jump\t// in\n    tag_266:\n        /* \"#utility.yul\":14197:14269   */\n      tag_267\n        /* \"#utility.yul\":14265:14267   */\n      0x20\n        /* \"#utility.yul\":14254:14263   */\n      dup4\n        /* \"#utility.yul\":14250:14268   */\n      add\n        /* \"#utility.yul\":14241:14247   */\n      dup7\n        /* \"#utility.yul\":14197:14269   */\n      tag_97\n      jump\t// in\n    tag_267:\n        /* \"#utility.yul\":14316:14325   */\n      dup2\n        /* \"#utility.yul\":14310:14314   */\n      dup2\n        /* \"#utility.yul\":14306:14326   */\n      sub\n        /* \"#utility.yul\":14301:14303   */\n      0x40\n        /* \"#utility.yul\":14290:14299   */\n      dup4\n        /* \"#utility.yul\":14286:14304   */\n      add\n        /* \"#utility.yul\":14279:14327   */\n      mstore\n        /* \"#utility.yul\":14344:14470   */\n      tag_268\n        /* \"#utility.yul\":14465:14469   */\n      dup2\n        /* \"#utility.yul\":14456:14462   */\n      dup6\n        /* \"#utility.yul\":14344:14470   */\n      tag_107\n      jump\t// in\n    tag_268:\n        /* \"#utility.yul\":14336:14470   */\n      swap1\n      pop\n        /* \"#utility.yul\":14480:14552   */\n      tag_269\n        /* \"#utility.yul\":14548:14550   */\n      0x60\n        /* \"#utility.yul\":14537:14546   */\n      dup4\n        /* \"#utility.yul\":14533:14551   */\n      add\n        /* \"#utility.yul\":14524:14530   */\n      dup5\n        /* \"#utility.yul\":14480:14552   */\n      tag_108\n      jump\t// in\n    tag_269:\n        /* \"#utility.yul\":13819:14559   */\n      swap6\n      swap5\n      pop\n      pop\n      pop\n      pop\n      pop\n      jump\t// out\n\n    auxdata: 0xa264697066735822122050c34598d7827534f0b57fbd3545d4dc233e1fc00fa509175636f96401721d6964736f6c634300080d0033\n}\n",
				"bytecode": {
					"linkReferences": {},
					"object": "608060405234801561001057600080fd5b50610baa806100206000396000f3fe608060405234801561001057600080fd5b50600436106100575760003560e01c80632d63f6931461005c57806342f9d5be1461008c578063c01f9e37146100bc578063ee4d6020146100ec578063f68deaf91461011c575b600080fd5b610076600480360381019061007191906103cc565b61014c565b6040516100839190610408565b60405180910390f35b6100a660048036038101906100a1919061074e565b610191565b6040516100b39190610408565b60405180910390f35b6100d660048036038101906100d191906103cc565b610279565b6040516100e39190610408565b60405180910390f35b6101066004803603810190610101919061085e565b6102be565b6040516101139190610408565b60405180910390f35b610136600480360381019061013191906103cc565b6102fa565b6040516101439190610408565b60405180910390f35b600061018a6000808481526020019081526020016000206000016040518060400160405290816000820154815260200160018201548152505061033f565b9050919050565b6000806101a789868587805190602001206102be565b9050600080600083815260200190815260200160002090506000603c8060188c6101d19190610910565b6101db9190610910565b6101e59190610910565b426101f0919061096a565b90506000603c8060188c6102049190610910565b61020e9190610910565b6102189190610910565b82610223919061096a565b905061023b828460000161034d90919063ffffffff16565b610251818460020161034d90919063ffffffff16565b610267898460040161036790919063ffffffff16565b83945050505050979650505050505050565b60006102b76000808481526020019081526020016000206002016040518060400160405290816000820154815260200160018201548152505061033f565b9050919050565b6000848484846040516020016102d79493929190610b28565b6040516020818303038152906040528051906020012060001c9050949350505050565b600061033860008084815260200190815260200160002060040160405180604001604052908160008201548152602001600182015481525050610374565b9050919050565b600081600001519050919050565b6103e88161035b9190610910565b82600001819055505050565b8082600101819055505050565b600081602001519050919050565b6000604051905090565b600080fd5b600080fd5b6000819050919050565b6103a981610396565b81146103b457600080fd5b50565b6000813590506103c6816103a0565b92915050565b6000602082840312156103e2576103e161038c565b5b60006103f0848285016103b7565b91505092915050565b61040281610396565b82525050565b600060208201905061041d60008301846103f9565b92915050565b600073ffffffffffffffffffffffffffffffffffffffff82169050919050565b600061044e82610423565b9050919050565b61045e81610443565b811461046957600080fd5b50565b60008135905061047b81610455565b92915050565b600080fd5b600080fd5b6000601f19601f8301169050919050565b7f4e487b7100000000000000000000000000000000000000000000000000000000600052604160045260246000fd5b6104d48261048b565b810181811067ffffffffffffffff821117156104f3576104f261049c565b5b80604052505050565b6000610506610382565b905061051282826104cb565b919050565b600067ffffffffffffffff8211156105325761053161049c565b5b61053b8261048b565b9050602081019050919050565b82818337600083830152505050565b600061056a61056584610517565b6104fc565b90508281526020810184848401111561058657610585610486565b5b610591848285610548565b509392505050565b600082601f8301126105ae576105ad610481565b5b81356105be848260208601610557565b91505092915050565b600067ffffffffffffffff8211156105e2576105e161049c565b5b602082029050602081019050919050565b600080fd5b600067ffffffffffffffff8211156106135761061261049c565b5b61061c8261048b565b9050602081019050919050565b600061063c610637846105f8565b6104fc565b90508281526020810184848401111561065857610657610486565b5b610663848285610548565b509392505050565b600082601f8301126106805761067f610481565b5b8135610690848260208601610629565b91505092915050565b60006106ac6106a7846105c7565b6104fc565b905080838252602082019050602084028301858111156106cf576106ce6105f3565b5b835b8181101561071657803567ffffffffffffffff8111156106f4576106f3610481565b5b808601610701898261066b565b855260208501945050506020810190506106d1565b5050509392505050565b600082601f83011261073557610734610481565b5b8135610745848260208601610699565b91505092915050565b600080600080600080600060e0888a03121561076d5761076c61038c565b5b600061077b8a828b0161046c565b975050602061078c8a828b016103b7565b965050604061079d8a828b016103b7565b95505060606107ae8a828b016103b7565b94505060806107bf8a828b0161046c565b93505060a088013567ffffffffffffffff8111156107e0576107df610391565b5b6107ec8a828b01610599565b92505060c088013567ffffffffffffffff81111561080d5761080c610391565b5b6108198a828b01610720565b91505092959891949750929550565b6000819050919050565b61083b81610828565b811461084657600080fd5b50565b60008135905061085881610832565b92915050565b600080600080608085870312156108785761087761038c565b5b60006108868782880161046c565b94505060206108978782880161046c565b935050604085013567ffffffffffffffff8111156108b8576108b7610391565b5b6108c487828801610720565b92505060606108d587828801610849565b91505092959194509250565b7f4e487b7100000000000000000000000000000000000000000000000000000000600052601160045260246000fd5b600061091b82610396565b915061092683610396565b9250817fffffffffffffffffffffffffffffffffffffffffffffffffffffffffffffffff048311821515161561095f5761095e6108e1565b5b828202905092915050565b600061097582610396565b915061098083610396565b9250827fffffffffffffffffffffffffffffffffffffffffffffffffffffffffffffffff038211156109b5576109b46108e1565b5b828201905092915050565b6109c981610443565b82525050565b600081519050919050565b600082825260208201905092915050565b6000819050602082019050919050565b600081519050919050565b600082825260208201905092915050565b60005b83811015610a35578082015181840152602081019050610a1a565b83811115610a44576000848401525b50505050565b6000610a55826109fb565b610a5f8185610a06565b9350610a6f818560208601610a17565b610a788161048b565b840191505092915050565b6000610a8f8383610a4a565b905092915050565b6000602082019050919050565b6000610aaf826109cf565b610ab981856109da565b935083602082028501610acb856109eb565b8060005b85811015610b075784840389528151610ae88582610a83565b9450610af383610a97565b925060208a01995050600181019050610acf565b50829750879550505050505092915050565b610b2281610828565b82525050565b6000608082019050610b3d60008301876109c0565b610b4a60208301866109c0565b8181036040830152610b5c8185610aa4565b9050610b6b6060830184610b19565b9594505050505056fea264697066735822122050c34598d7827534f0b57fbd3545d4dc233e1fc00fa509175636f96401721d6964736f6c634300080d0033",
					"opcodes": "PUSH1 0x80 PUSH1 0x40 MSTORE CALLVALUE DUP1 ISZERO PUSH2 0x10 JUMPI PUSH1 0x0 DUP1 REVERT JUMPDEST POP PUSH2 0xBAA DUP1 PUSH2 0x20 PUSH1 0x0 CODECOPY PUSH1 0x0 RETURN INVALID PUSH1 0x80 PUSH1 0x40 MSTORE CALLVALUE DUP1 ISZERO PUSH2 0x10 JUMPI PUSH1 0x0 DUP1 REVERT JUMPDEST POP PUSH1 0x4 CALLDATASIZE LT PUSH2 0x57 JUMPI PUSH1 0x0 CALLDATALOAD PUSH1 0xE0 SHR DUP1 PUSH4 0x2D63F693 EQ PUSH2 0x5C JUMPI DUP1 PUSH4 0x42F9D5BE EQ PUSH2 0x8C JUMPI DUP1 PUSH4 0xC01F9E37 EQ PUSH2 0xBC JUMPI DUP1 PUSH4 0xEE4D6020 EQ PUSH2 0xEC JUMPI DUP1 PUSH4 0xF68DEAF9 EQ PUSH2 0x11C JUMPI JUMPDEST PUSH1 0x0 DUP1 REVERT JUMPDEST PUSH2 0x76 PUSH1 0x4 DUP1 CALLDATASIZE SUB DUP2 ADD SWAP1 PUSH2 0x71 SWAP2 SWAP1 PUSH2 0x3CC JUMP JUMPDEST PUSH2 0x14C JUMP JUMPDEST PUSH1 0x40 MLOAD PUSH2 0x83 SWAP2 SWAP1 PUSH2 0x408 JUMP JUMPDEST PUSH1 0x40 MLOAD DUP1 SWAP2 SUB SWAP1 RETURN JUMPDEST PUSH2 0xA6 PUSH1 0x4 DUP1 CALLDATASIZE SUB DUP2 ADD SWAP1 PUSH2 0xA1 SWAP2 SWAP1 PUSH2 0x74E JUMP JUMPDEST PUSH2 0x191 JUMP JUMPDEST PUSH1 0x40 MLOAD PUSH2 0xB3 SWAP2 SWAP1 PUSH2 0x408 JUMP JUMPDEST PUSH1 0x40 MLOAD DUP1 SWAP2 SUB SWAP1 RETURN JUMPDEST PUSH2 0xD6 PUSH1 0x4 DUP1 CALLDATASIZE SUB DUP2 ADD SWAP1 PUSH2 0xD1 SWAP2 SWAP1 PUSH2 0x3CC JUMP JUMPDEST PUSH2 0x279 JUMP JUMPDEST PUSH1 0x40 MLOAD PUSH2 0xE3 SWAP2 SWAP1 PUSH2 0x408 JUMP JUMPDEST PUSH1 0x40 MLOAD DUP1 SWAP2 SUB SWAP1 RETURN JUMPDEST PUSH2 0x106 PUSH1 0x4 DUP1 CALLDATASIZE SUB DUP2 ADD SWAP1 PUSH2 0x101 SWAP2 SWAP1 PUSH2 0x85E JUMP JUMPDEST PUSH2 0x2BE JUMP JUMPDEST PUSH1 0x40 MLOAD PUSH2 0x113 SWAP2 SWAP1 PUSH2 0x408 JUMP JUMPDEST PUSH1 0x40 MLOAD DUP1 SWAP2 SUB SWAP1 RETURN JUMPDEST PUSH2 0x136 PUSH1 0x4 DUP1 CALLDATASIZE SUB DUP2 ADD SWAP1 PUSH2 0x131 SWAP2 SWAP1 PUSH2 0x3CC JUMP JUMPDEST PUSH2 0x2FA JUMP JUMPDEST PUSH1 0x40 MLOAD PUSH2 0x143 SWAP2 SWAP1 PUSH2 0x408 JUMP JUMPDEST PUSH1 0x40 MLOAD DUP1 SWAP2 SUB SWAP1 RETURN JUMPDEST PUSH1 0x0 PUSH2 0x18A PUSH1 0x0 DUP1 DUP5 DUP2 MSTORE PUSH1 0x20 ADD SWAP1 DUP2 MSTORE PUSH1 0x20 ADD PUSH1 0x0 KECCAK256 PUSH1 0x0 ADD PUSH1 0x40 MLOAD DUP1 PUSH1 0x40 ADD PUSH1 0x40 MSTORE SWAP1 DUP2 PUSH1 0x0 DUP3 ADD SLOAD DUP2 MSTORE PUSH1 0x20 ADD PUSH1 0x1 DUP3 ADD SLOAD DUP2 MSTORE POP POP PUSH2 0x33F JUMP JUMPDEST SWAP1 POP SWAP2 SWAP1 POP JUMP JUMPDEST PUSH1 0x0 DUP1 PUSH2 0x1A7 DUP10 DUP7 DUP6 DUP8 DUP1 MLOAD SWAP1 PUSH1 0x20 ADD KECCAK256 PUSH2 0x2BE JUMP JUMPDEST SWAP1 POP PUSH1 0x0 DUP1 PUSH1 0x0 DUP4 DUP2 MSTORE PUSH1 0x20 ADD SWAP1 DUP2 MSTORE PUSH1 0x20 ADD PUSH1 0x0 KECCAK256 SWAP1 POP PUSH1 0x0 PUSH1 0x3C DUP1 PUSH1 0x18 DUP13 PUSH2 0x1D1 SWAP2 SWAP1 PUSH2 0x910 JUMP JUMPDEST PUSH2 0x1DB SWAP2 SWAP1 PUSH2 0x910 JUMP JUMPDEST PUSH2 0x1E5 SWAP2 SWAP1 PUSH2 0x910 JUMP JUMPDEST TIMESTAMP PUSH2 0x1F0 SWAP2 SWAP1 PUSH2 0x96A JUMP JUMPDEST SWAP1 POP PUSH1 0x0 PUSH1 0x3C DUP1 PUSH1 0x18 DUP13 PUSH2 0x204 SWAP2 SWAP1 PUSH2 0x910 JUMP JUMPDEST PUSH2 0x20E SWAP2 SWAP1 PUSH2 0x910 JUMP JUMPDEST PUSH2 0x218 SWAP2 SWAP1 PUSH2 0x910 JUMP JUMPDEST DUP3 PUSH2 0x223 SWAP2 SWAP1 PUSH2 0x96A JUMP JUMPDEST SWAP1 POP PUSH2 0x23B DUP3 DUP5 PUSH1 0x0 ADD PUSH2 0x34D SWAP1 SWAP2 SWAP1 PUSH4 0xFFFFFFFF AND JUMP JUMPDEST PUSH2 0x251 DUP2 DUP5 PUSH1 0x2 ADD PUSH2 0x34D SWAP1 SWAP2 SWAP1 PUSH4 0xFFFFFFFF AND JUMP JUMPDEST PUSH2 0x267 DUP10 DUP5 PUSH1 0x4 ADD PUSH2 0x367 SWAP1 SWAP2 SWAP1 PUSH4 0xFFFFFFFF AND JUMP JUMPDEST DUP4 SWAP5 POP POP POP POP POP SWAP8 SWAP7 POP POP POP POP POP POP POP JUMP JUMPDEST PUSH1 0x0 PUSH2 0x2B7 PUSH1 0x0 DUP1 DUP5 DUP2 MSTORE PUSH1 0x20 ADD SWAP1 DUP2 MSTORE PUSH1 0x20 ADD PUSH1 0x0 KECCAK256 PUSH1 0x2 ADD PUSH1 0x40 MLOAD DUP1 PUSH1 0x40 ADD PUSH1 0x40 MSTORE SWAP1 DUP2 PUSH1 0x0 DUP3 ADD SLOAD DUP2 MSTORE PUSH1 0x20 ADD PUSH1 0x1 DUP3 ADD SLOAD DUP2 MSTORE POP POP PUSH2 0x33F JUMP JUMPDEST SWAP1 POP SWAP2 SWAP1 POP JUMP JUMPDEST PUSH1 0x0 DUP5 DUP5 DUP5 DUP5 PUSH1 0x40 MLOAD PUSH1 0x20 ADD PUSH2 0x2D7 SWAP5 SWAP4 SWAP3 SWAP2 SWAP1 PUSH2 0xB28 JUMP JUMPDEST PUSH1 0x40 MLOAD PUSH1 0x20 DUP2 DUP4 SUB SUB DUP2 MSTORE SWAP1 PUSH1 0x40 MSTORE DUP1 MLOAD SWAP1 PUSH1 0x20 ADD KECCAK256 PUSH1 0x0 SHR SWAP1 POP SWAP5 SWAP4 POP POP POP POP JUMP JUMPDEST PUSH1 0x0 PUSH2 0x338 PUSH1 0x0 DUP1 DUP5 DUP2 MSTORE PUSH1 0x20 ADD SWAP1 DUP2 MSTORE PUSH1 0x20 ADD PUSH1 0x0 KECCAK256 PUSH1 0x4 ADD PUSH1 0x40 MLOAD DUP1 PUSH1 0x40 ADD PUSH1 0x40 MSTORE SWAP1 DUP2 PUSH1 0x0 DUP3 ADD SLOAD DUP2 MSTORE PUSH1 0x20 ADD PUSH1 0x1 DUP3 ADD SLOAD DUP2 MSTORE POP POP PUSH2 0x374 JUMP JUMPDEST SWAP1 POP SWAP2 SWAP1 POP JUMP JUMPDEST PUSH1 0x0 DUP2 PUSH1 0x0 ADD MLOAD SWAP1 POP SWAP2 SWAP1 POP JUMP JUMPDEST PUSH2 0x3E8 DUP2 PUSH2 0x35B SWAP2 SWAP1 PUSH2 0x910 JUMP JUMPDEST DUP3 PUSH1 0x0 ADD DUP2 SWAP1 SSTORE POP POP POP JUMP JUMPDEST DUP1 DUP3 PUSH1 0x1 ADD DUP2 SWAP1 SSTORE POP POP POP JUMP JUMPDEST PUSH1 0x0 DUP2 PUSH1 0x20 ADD MLOAD SWAP1 POP SWAP2 SWAP1 POP JUMP JUMPDEST PUSH1 0x0 PUSH1 0x40 MLOAD SWAP1 POP SWAP1 JUMP JUMPDEST PUSH1 0x0 DUP1 REVERT JUMPDEST PUSH1 0x0 DUP1 REVERT JUMPDEST PUSH1 0x0 DUP2 SWAP1 POP SWAP2 SWAP1 POP JUMP JUMPDEST PUSH2 0x3A9 DUP2 PUSH2 0x396 JUMP JUMPDEST DUP2 EQ PUSH2 0x3B4 JUMPI PUSH1 0x0 DUP1 REVERT JUMPDEST POP JUMP JUMPDEST PUSH1 0x0 DUP2 CALLDATALOAD SWAP1 POP PUSH2 0x3C6 DUP2 PUSH2 0x3A0 JUMP JUMPDEST SWAP3 SWAP2 POP POP JUMP JUMPDEST PUSH1 0x0 PUSH1 0x20 DUP3 DUP5 SUB SLT ISZERO PUSH2 0x3E2 JUMPI PUSH2 0x3E1 PUSH2 0x38C JUMP JUMPDEST JUMPDEST PUSH1 0x0 PUSH2 0x3F0 DUP5 DUP3 DUP6 ADD PUSH2 0x3B7 JUMP JUMPDEST SWAP2 POP POP SWAP3 SWAP2 POP POP JUMP JUMPDEST PUSH2 0x402 DUP2 PUSH2 0x396 JUMP JUMPDEST DUP3 MSTORE POP POP JUMP JUMPDEST PUSH1 0x0 PUSH1 0x20 DUP3 ADD SWAP1 POP PUSH2 0x41D PUSH1 0x0 DUP4 ADD DUP5 PUSH2 0x3F9 JUMP JUMPDEST SWAP3 SWAP2 POP POP JUMP JUMPDEST PUSH1 0x0 PUSH20 0xFFFFFFFFFFFFFFFFFFFFFFFFFFFFFFFFFFFFFFFF DUP3 AND SWAP1 POP SWAP2 SWAP1 POP JUMP JUMPDEST PUSH1 0x0 PUSH2 0x44E DUP3 PUSH2 0x423 JUMP JUMPDEST SWAP1 POP SWAP2 SWAP1 POP JUMP JUMPDEST PUSH2 0x45E DUP2 PUSH2 0x443 JUMP JUMPDEST DUP2 EQ PUSH2 0x469 JUMPI PUSH1 0x0 DUP1 REVERT JUMPDEST POP JUMP JUMPDEST PUSH1 0x0 DUP2 CALLDATALOAD SWAP1 POP PUSH2 0x47B DUP2 PUSH2 0x455 JUMP JUMPDEST SWAP3 SWAP2 POP POP JUMP JUMPDEST PUSH1 0x0 DUP1 REVERT JUMPDEST PUSH1 0x0 DUP1 REVERT JUMPDEST PUSH1 0x0 PUSH1 0x1F NOT PUSH1 0x1F DUP4 ADD AND SWAP1 POP SWAP2 SWAP1 POP JUMP JUMPDEST PUSH32 0x4E487B7100000000000000000000000000000000000000000000000000000000 PUSH1 0x0 MSTORE PUSH1 0x41 PUSH1 0x4 MSTORE PUSH1 0x24 PUSH1 0x0 REVERT JUMPDEST PUSH2 0x4D4 DUP3 PUSH2 0x48B JUMP JUMPDEST DUP2 ADD DUP2 DUP2 LT PUSH8 0xFFFFFFFFFFFFFFFF DUP3 GT OR ISZERO PUSH2 0x4F3 JUMPI PUSH2 0x4F2 PUSH2 0x49C JUMP JUMPDEST JUMPDEST DUP1 PUSH1 0x40 MSTORE POP POP POP JUMP JUMPDEST PUSH1 0x0 PUSH2 0x506 PUSH2 0x382 JUMP JUMPDEST SWAP1 POP PUSH2 0x512 DUP3 DUP3 PUSH2 0x4CB JUMP JUMPDEST SWAP2 SWAP1 POP JUMP JUMPDEST PUSH1 0x0 PUSH8 0xFFFFFFFFFFFFFFFF DUP3 GT ISZERO PUSH2 0x532 JUMPI PUSH2 0x531 PUSH2 0x49C JUMP JUMPDEST JUMPDEST PUSH2 0x53B DUP3 PUSH2 0x48B JUMP JUMPDEST SWAP1 POP PUSH1 0x20 DUP2 ADD SWAP1 POP SWAP2 SWAP1 POP JUMP JUMPDEST DUP3 DUP2 DUP4 CALLDATACOPY PUSH1 0x0 DUP4 DUP4 ADD MSTORE POP POP POP JUMP JUMPDEST PUSH1 0x0 PUSH2 0x56A PUSH2 0x565 DUP5 PUSH2 0x517 JUMP JUMPDEST PUSH2 0x4FC JUMP JUMPDEST SWAP1 POP DUP3 DUP2 MSTORE PUSH1 0x20 DUP2 ADD DUP5 DUP5 DUP5 ADD GT ISZERO PUSH2 0x586 JUMPI PUSH2 0x585 PUSH2 0x486 JUMP JUMPDEST JUMPDEST PUSH2 0x591 DUP5 DUP3 DUP6 PUSH2 0x548 JUMP JUMPDEST POP SWAP4 SWAP3 POP POP POP JUMP JUMPDEST PUSH1 0x0 DUP3 PUSH1 0x1F DUP4 ADD SLT PUSH2 0x5AE JUMPI PUSH2 0x5AD PUSH2 0x481 JUMP JUMPDEST JUMPDEST DUP2 CALLDATALOAD PUSH2 0x5BE DUP5 DUP3 PUSH1 0x20 DUP7 ADD PUSH2 0x557 JUMP JUMPDEST SWAP2 POP POP SWAP3 SWAP2 POP POP JUMP JUMPDEST PUSH1 0x0 PUSH8 0xFFFFFFFFFFFFFFFF DUP3 GT ISZERO PUSH2 0x5E2 JUMPI PUSH2 0x5E1 PUSH2 0x49C JUMP JUMPDEST JUMPDEST PUSH1 0x20 DUP3 MUL SWAP1 POP PUSH1 0x20 DUP2 ADD SWAP1 POP SWAP2 SWAP1 POP JUMP JUMPDEST PUSH1 0x0 DUP1 REVERT JUMPDEST PUSH1 0x0 PUSH8 0xFFFFFFFFFFFFFFFF DUP3 GT ISZERO PUSH2 0x613 JUMPI PUSH2 0x612 PUSH2 0x49C JUMP JUMPDEST JUMPDEST PUSH2 0x61C DUP3 PUSH2 0x48B JUMP JUMPDEST SWAP1 POP PUSH1 0x20 DUP2 ADD SWAP1 POP SWAP2 SWAP1 POP JUMP JUMPDEST PUSH1 0x0 PUSH2 0x63C PUSH2 0x637 DUP5 PUSH2 0x5F8 JUMP JUMPDEST PUSH2 0x4FC JUMP JUMPDEST SWAP1 POP DUP3 DUP2 MSTORE PUSH1 0x20 DUP2 ADD DUP5 DUP5 DUP5 ADD GT ISZERO PUSH2 0x658 JUMPI PUSH2 0x657 PUSH2 0x486 JUMP JUMPDEST JUMPDEST PUSH2 0x663 DUP5 DUP3 DUP6 PUSH2 0x548 JUMP JUMPDEST POP SWAP4 SWAP3 POP POP POP JUMP JUMPDEST PUSH1 0x0 DUP3 PUSH1 0x1F DUP4 ADD SLT PUSH2 0x680 JUMPI PUSH2 0x67F PUSH2 0x481 JUMP JUMPDEST JUMPDEST DUP2 CALLDATALOAD PUSH2 0x690 DUP5 DUP3 PUSH1 0x20 DUP7 ADD PUSH2 0x629 JUMP JUMPDEST SWAP2 POP POP SWAP3 SWAP2 POP POP JUMP JUMPDEST PUSH1 0x0 PUSH2 0x6AC PUSH2 0x6A7 DUP5 PUSH2 0x5C7 JUMP JUMPDEST PUSH2 0x4FC JUMP JUMPDEST SWAP1 POP DUP1 DUP4 DUP3 MSTORE PUSH1 0x20 DUP3 ADD SWAP1 POP PUSH1 0x20 DUP5 MUL DUP4 ADD DUP6 DUP2 GT ISZERO PUSH2 0x6CF JUMPI PUSH2 0x6CE PUSH2 0x5F3 JUMP JUMPDEST JUMPDEST DUP4 JUMPDEST DUP2 DUP2 LT ISZERO PUSH2 0x716 JUMPI DUP1 CALLDATALOAD PUSH8 0xFFFFFFFFFFFFFFFF DUP2 GT ISZERO PUSH2 0x6F4 JUMPI PUSH2 0x6F3 PUSH2 0x481 JUMP JUMPDEST JUMPDEST DUP1 DUP7 ADD PUSH2 0x701 DUP10 DUP3 PUSH2 0x66B JUMP JUMPDEST DUP6 MSTORE PUSH1 0x20 DUP6 ADD SWAP5 POP POP POP PUSH1 0x20 DUP2 ADD SWAP1 POP PUSH2 0x6D1 JUMP JUMPDEST POP POP POP SWAP4 SWAP3 POP POP POP JUMP JUMPDEST PUSH1 0x0 DUP3 PUSH1 0x1F DUP4 ADD SLT PUSH2 0x735 JUMPI PUSH2 0x734 PUSH2 0x481 JUMP JUMPDEST JUMPDEST DUP2 CALLDATALOAD PUSH2 0x745 DUP5 DUP3 PUSH1 0x20 DUP7 ADD PUSH2 0x699 JUMP JUMPDEST SWAP2 POP POP SWAP3 SWAP2 POP POP JUMP JUMPDEST PUSH1 0x0 DUP1 PUSH1 0x0 DUP1 PUSH1 0x0 DUP1 PUSH1 0x0 PUSH1 0xE0 DUP9 DUP11 SUB SLT ISZERO PUSH2 0x76D JUMPI PUSH2 0x76C PUSH2 0x38C JUMP JUMPDEST JUMPDEST PUSH1 0x0 PUSH2 0x77B DUP11 DUP3 DUP12 ADD PUSH2 0x46C JUMP JUMPDEST SWAP8 POP POP PUSH1 0x20 PUSH2 0x78C DUP11 DUP3 DUP12 ADD PUSH2 0x3B7 JUMP JUMPDEST SWAP7 POP POP PUSH1 0x40 PUSH2 0x79D DUP11 DUP3 DUP12 ADD PUSH2 0x3B7 JUMP JUMPDEST SWAP6 POP POP PUSH1 0x60 PUSH2 0x7AE DUP11 DUP3 DUP12 ADD PUSH2 0x3B7 JUMP JUMPDEST SWAP5 POP POP PUSH1 0x80 PUSH2 0x7BF DUP11 DUP3 DUP12 ADD PUSH2 0x46C JUMP JUMPDEST SWAP4 POP POP PUSH1 0xA0 DUP9 ADD CALLDATALOAD PUSH8 0xFFFFFFFFFFFFFFFF DUP2 GT ISZERO PUSH2 0x7E0 JUMPI PUSH2 0x7DF PUSH2 0x391 JUMP JUMPDEST JUMPDEST PUSH2 0x7EC DUP11 DUP3 DUP12 ADD PUSH2 0x599 JUMP JUMPDEST SWAP3 POP POP PUSH1 0xC0 DUP9 ADD CALLDATALOAD PUSH8 0xFFFFFFFFFFFFFFFF DUP2 GT ISZERO PUSH2 0x80D JUMPI PUSH2 0x80C PUSH2 0x391 JUMP JUMPDEST JUMPDEST PUSH2 0x819 DUP11 DUP3 DUP12 ADD PUSH2 0x720 JUMP JUMPDEST SWAP2 POP POP SWAP3 SWAP6 SWAP9 SWAP2 SWAP5 SWAP8 POP SWAP3 SWAP6 POP JUMP JUMPDEST PUSH1 0x0 DUP2 SWAP1 POP SWAP2 SWAP1 POP JUMP JUMPDEST PUSH2 0x83B DUP2 PUSH2 0x828 JUMP JUMPDEST DUP2 EQ PUSH2 0x846 JUMPI PUSH1 0x0 DUP1 REVERT JUMPDEST POP JUMP JUMPDEST PUSH1 0x0 DUP2 CALLDATALOAD SWAP1 POP PUSH2 0x858 DUP2 PUSH2 0x832 JUMP JUMPDEST SWAP3 SWAP2 POP POP JUMP JUMPDEST PUSH1 0x0 DUP1 PUSH1 0x0 DUP1 PUSH1 0x80 DUP6 DUP8 SUB SLT ISZERO PUSH2 0x878 JUMPI PUSH2 0x877 PUSH2 0x38C JUMP JUMPDEST JUMPDEST PUSH1 0x0 PUSH2 0x886 DUP8 DUP3 DUP9 ADD PUSH2 0x46C JUMP JUMPDEST SWAP5 POP POP PUSH1 0x20 PUSH2 0x897 DUP8 DUP3 DUP9 ADD PUSH2 0x46C JUMP JUMPDEST SWAP4 POP POP PUSH1 0x40 DUP6 ADD CALLDATALOAD PUSH8 0xFFFFFFFFFFFFFFFF DUP2 GT ISZERO PUSH2 0x8B8 JUMPI PUSH2 0x8B7 PUSH2 0x391 JUMP JUMPDEST JUMPDEST PUSH2 0x8C4 DUP8 DUP3 DUP9 ADD PUSH2 0x720 JUMP JUMPDEST SWAP3 POP POP PUSH1 0x60 PUSH2 0x8D5 DUP8 DUP3 DUP9 ADD PUSH2 0x849 JUMP JUMPDEST SWAP2 POP POP SWAP3 SWAP6 SWAP2 SWAP5 POP SWAP3 POP JUMP JUMPDEST PUSH32 0x4E487B7100000000000000000000000000000000000000000000000000000000 PUSH1 0x0 MSTORE PUSH1 0x11 PUSH1 0x4 MSTORE PUSH1 0x24 PUSH1 0x0 REVERT JUMPDEST PUSH1 0x0 PUSH2 0x91B DUP3 PUSH2 0x396 JUMP JUMPDEST SWAP2 POP PUSH2 0x926 DUP4 PUSH2 0x396 JUMP JUMPDEST SWAP3 POP DUP2 PUSH32 0xFFFFFFFFFFFFFFFFFFFFFFFFFFFFFFFFFFFFFFFFFFFFFFFFFFFFFFFFFFFFFFFF DIV DUP4 GT DUP3 ISZERO ISZERO AND ISZERO PUSH2 0x95F JUMPI PUSH2 0x95E PUSH2 0x8E1 JUMP JUMPDEST JUMPDEST DUP3 DUP3 MUL SWAP1 POP SWAP3 SWAP2 POP POP JUMP JUMPDEST PUSH1 0x0 PUSH2 0x975 DUP3 PUSH2 0x396 JUMP JUMPDEST SWAP2 POP PUSH2 0x980 DUP4 PUSH2 0x396 JUMP JUMPDEST SWAP3 POP DUP3 PUSH32 0xFFFFFFFFFFFFFFFFFFFFFFFFFFFFFFFFFFFFFFFFFFFFFFFFFFFFFFFFFFFFFFFF SUB DUP3 GT ISZERO PUSH2 0x9B5 JUMPI PUSH2 0x9B4 PUSH2 0x8E1 JUMP JUMPDEST JUMPDEST DUP3 DUP3 ADD SWAP1 POP SWAP3 SWAP2 POP POP JUMP JUMPDEST PUSH2 0x9C9 DUP2 PUSH2 0x443 JUMP JUMPDEST DUP3 MSTORE POP POP JUMP JUMPDEST PUSH1 0x0 DUP2 MLOAD SWAP1 POP SWAP2 SWAP1 POP JUMP JUMPDEST PUSH1 0x0 DUP3 DUP3 MSTORE PUSH1 0x20 DUP3 ADD SWAP1 POP SWAP3 SWAP2 POP POP JUMP JUMPDEST PUSH1 0x0 DUP2 SWAP1 POP PUSH1 0x20 DUP3 ADD SWAP1 POP SWAP2 SWAP1 POP JUMP JUMPDEST PUSH1 0x0 DUP2 MLOAD SWAP1 POP SWAP2 SWAP1 POP JUMP JUMPDEST PUSH1 0x0 DUP3 DUP3 MSTORE PUSH1 0x20 DUP3 ADD SWAP1 POP SWAP3 SWAP2 POP POP JUMP JUMPDEST PUSH1 0x0 JUMPDEST DUP4 DUP2 LT ISZERO PUSH2 0xA35 JUMPI DUP1 DUP3 ADD MLOAD DUP2 DUP5 ADD MSTORE PUSH1 0x20 DUP2 ADD SWAP1 POP PUSH2 0xA1A JUMP JUMPDEST DUP4 DUP2 GT ISZERO PUSH2 0xA44 JUMPI PUSH1 0x0 DUP5 DUP5 ADD MSTORE JUMPDEST POP POP POP POP JUMP JUMPDEST PUSH1 0x0 PUSH2 0xA55 DUP3 PUSH2 0x9FB JUMP JUMPDEST PUSH2 0xA5F DUP2 DUP6 PUSH2 0xA06 JUMP JUMPDEST SWAP4 POP PUSH2 0xA6F DUP2 DUP6 PUSH1 0x20 DUP7 ADD PUSH2 0xA17 JUMP JUMPDEST PUSH2 0xA78 DUP2 PUSH2 0x48B JUMP JUMPDEST DUP5 ADD SWAP2 POP POP SWAP3 SWAP2 POP POP JUMP JUMPDEST PUSH1 0x0 PUSH2 0xA8F DUP4 DUP4 PUSH2 0xA4A JUMP JUMPDEST SWAP1 POP SWAP3 SWAP2 POP POP JUMP JUMPDEST PUSH1 0x0 PUSH1 0x20 DUP3 ADD SWAP1 POP SWAP2 SWAP1 POP JUMP JUMPDEST PUSH1 0x0 PUSH2 0xAAF DUP3 PUSH2 0x9CF JUMP JUMPDEST PUSH2 0xAB9 DUP2 DUP6 PUSH2 0x9DA JUMP JUMPDEST SWAP4 POP DUP4 PUSH1 0x20 DUP3 MUL DUP6 ADD PUSH2 0xACB DUP6 PUSH2 0x9EB JUMP JUMPDEST DUP1 PUSH1 0x0 JUMPDEST DUP6 DUP2 LT ISZERO PUSH2 0xB07 JUMPI DUP5 DUP5 SUB DUP10 MSTORE DUP2 MLOAD PUSH2 0xAE8 DUP6 DUP3 PUSH2 0xA83 JUMP JUMPDEST SWAP5 POP PUSH2 0xAF3 DUP4 PUSH2 0xA97 JUMP JUMPDEST SWAP3 POP PUSH1 0x20 DUP11 ADD SWAP10 POP POP PUSH1 0x1 DUP2 ADD SWAP1 POP PUSH2 0xACF JUMP JUMPDEST POP DUP3 SWAP8 POP DUP8 SWAP6 POP POP POP POP POP POP SWAP3 SWAP2 POP POP JUMP JUMPDEST PUSH2 0xB22 DUP2 PUSH2 0x828 JUMP JUMPDEST DUP3 MSTORE POP POP JUMP JUMPDEST PUSH1 0x0 PUSH1 0x80 DUP3 ADD SWAP1 POP PUSH2 0xB3D PUSH1 0x0 DUP4 ADD DUP8 PUSH2 0x9C0 JUMP JUMPDEST PUSH2 0xB4A PUSH1 0x20 DUP4 ADD DUP7 PUSH2 0x9C0 JUMP JUMPDEST DUP2 DUP2 SUB PUSH1 0x40 DUP4 ADD MSTORE PUSH2 0xB5C DUP2 DUP6 PUSH2 0xAA4 JUMP JUMPDEST SWAP1 POP PUSH2 0xB6B PUSH1 0x60 DUP4 ADD DUP5 PUSH2 0xB19 JUMP JUMPDEST SWAP6 SWAP5 POP POP POP POP POP JUMP INVALID LOG2 PUSH5 0x6970667358 0x22 SLT KECCAK256 POP 0xC3 GASLIMIT SWAP9 0xD7 DUP3 PUSH22 0x34F0B57FBD3545D4DC233E1FC00FA509175636F96401 PUSH19 0x1D6964736F6C634300080D0033000000000000 "
				},
				"gasEstimates": {
					"creation": {
						"codeDepositCost": "597200",
						"executionCost": "632",
						"totalCost": "597832"
					},
					"external": {
						"hashProposal(address,address,bytes[],bytes32)": "infinite",
						"proposal(address,uint256,uint256,uint256,address,string,bytes[])": "infinite",
						"proposalDeadline(uint256)": "infinite",
						"proposalDonateMinimum(uint256)": "infinite",
						"proposalSnapshot(uint256)": "infinite"
					}
				},
				"methodIdentifiers": {
					"hashProposal(address,address,bytes[],bytes32)": "ee4d6020",
					"proposal(address,uint256,uint256,uint256,address,string,bytes[])": "42f9d5be",
					"proposalDeadline(uint256)": "c01f9e37",
					"proposalDonateMinimum(uint256)": "f68deaf9",
					"proposalSnapshot(uint256)": "2d63f693"
				}
			},
			"storageLayout": {
				"storage": [
					{
						"astId": 48,
						"contract": ".workspaces/default_workspace/unMiracle/UMRCmiracle.sol:UMRproposal",
						"label": "_proposals",
						"offset": 0,
						"slot": "0",
						"type": "t_mapping(t_uint256,t_struct(ProposalCore)43_storage)"
					}
				],
				"types": {
					"t_bool": {
						"encoding": "inplace",
						"label": "bool",
						"numberOfBytes": "1"
					},
					"t_mapping(t_uint256,t_struct(ProposalCore)43_storage)": {
						"encoding": "mapping",
						"key": "t_uint256",
						"label": "mapping(uint256 => struct UMRproposal.ProposalCore)",
						"numberOfBytes": "32",
						"value": "t_struct(ProposalCore)43_storage"
					},
					"t_struct(ProposalCore)43_storage": {
						"encoding": "inplace",
						"label": "struct UMRproposal.ProposalCore",
						"members": [
							{
								"astId": 32,
								"contract": ".workspaces/default_workspace/unMiracle/UMRCmiracle.sol:UMRproposal",
								"label": "donationStart",
								"offset": 0,
								"slot": "0",
								"type": "t_struct(SetInfo)222_storage"
							},
							{
								"astId": 35,
								"contract": ".workspaces/default_workspace/unMiracle/UMRCmiracle.sol:UMRproposal",
								"label": "donationEnd",
								"offset": 0,
								"slot": "2",
								"type": "t_struct(SetInfo)222_storage"
							},
							{
								"astId": 38,
								"contract": ".workspaces/default_workspace/unMiracle/UMRCmiracle.sol:UMRproposal",
								"label": "donateMinimum",
								"offset": 0,
								"slot": "4",
								"type": "t_struct(SetInfo)222_storage"
							},
							{
								"astId": 40,
								"contract": ".workspaces/default_workspace/unMiracle/UMRCmiracle.sol:UMRproposal",
								"label": "executed",
								"offset": 0,
								"slot": "6",
								"type": "t_bool"
							},
							{
								"astId": 42,
								"contract": ".workspaces/default_workspace/unMiracle/UMRCmiracle.sol:UMRproposal",
								"label": "canceled",
								"offset": 1,
								"slot": "6",
								"type": "t_bool"
							}
						],
						"numberOfBytes": "224"
					},
					"t_struct(SetInfo)222_storage": {
						"encoding": "inplace",
						"label": "struct Setting.SetInfo",
						"members": [
							{
								"astId": 219,
								"contract": ".workspaces/default_workspace/unMiracle/UMRCmiracle.sol:UMRproposal",
								"label": "deadline",
								"offset": 0,
								"slot": "0",
								"type": "t_uint256"
							},
							{
								"astId": 221,
								"contract": ".workspaces/default_workspace/unMiracle/UMRCmiracle.sol:UMRproposal",
								"label": "amount",
								"offset": 0,
								"slot": "1",
								"type": "t_uint256"
							}
						],
						"numberOfBytes": "64"
					},
					"t_uint256": {
						"encoding": "inplace",
						"label": "uint256",
						"numberOfBytes": "32"
					}
				}
			},
			"userdoc": {
				"kind": "user",
				"methods": {},
				"version": 1
			}
		}
	}
}