{
	".workspaces/default_workspace/unMiracle/UMRCmiracle.sol": {
		"UMRproposal": {
			"abi": [
				{
					"inputs": [],
					"name": "get",
					"outputs": [
						{
							"components": [
								{
									"components": [
										{
											"internalType": "uint256",
											"name": "deadline",
											"type": "uint256"
										},
										{
											"internalType": "uint256",
											"name": "amount",
											"type": "uint256"
										}
									],
									"internalType": "struct Setting.SetInfo",
									"name": "donationStart",
									"type": "tuple"
								},
								{
									"components": [
										{
											"internalType": "uint256",
											"name": "deadline",
											"type": "uint256"
										},
										{
											"internalType": "uint256",
											"name": "amount",
											"type": "uint256"
										}
									],
									"internalType": "struct Setting.SetInfo",
									"name": "donationEnd",
									"type": "tuple"
								},
								{
									"components": [
										{
											"internalType": "uint256",
											"name": "deadline",
											"type": "uint256"
										},
										{
											"internalType": "uint256",
											"name": "amount",
											"type": "uint256"
										}
									],
									"internalType": "struct Setting.SetInfo",
									"name": "donateMinimum",
									"type": "tuple"
								},
								{
									"internalType": "bool",
									"name": "executed",
									"type": "bool"
								},
								{
									"internalType": "bool",
									"name": "canceled",
									"type": "bool"
								}
							],
							"internalType": "struct UMRproposal.ProposalCore",
							"name": "",
							"type": "tuple"
						}
					],
					"stateMutability": "view",
					"type": "function"
				},
				{
					"inputs": [
						{
							"internalType": "address",
							"name": "proposer",
							"type": "address"
						},
						{
							"internalType": "address",
							"name": "destination",
							"type": "address"
						},
						{
							"internalType": "bytes[]",
							"name": "calldatas",
							"type": "bytes[]"
						},
						{
							"internalType": "bytes32",
							"name": "descriptionHash",
							"type": "bytes32"
						}
					],
					"name": "hashProposal",
					"outputs": [
						{
							"internalType": "uint256",
							"name": "",
							"type": "uint256"
						}
					],
					"stateMutability": "pure",
					"type": "function"
				},
				{
					"inputs": [
						{
							"internalType": "address",
							"name": "proposer",
							"type": "address"
						},
						{
							"internalType": "uint256",
							"name": "donateDelay",
							"type": "uint256"
						},
						{
							"internalType": "uint256",
							"name": "donatePeriod",
							"type": "uint256"
						},
						{
							"internalType": "uint256",
							"name": "donateMinimum",
							"type": "uint256"
						},
						{
							"internalType": "address",
							"name": "destination",
							"type": "address"
						},
						{
							"internalType": "string",
							"name": "description",
							"type": "string"
						},
						{
							"internalType": "bytes[]",
							"name": "calldatas",
							"type": "bytes[]"
						}
					],
					"name": "proposal",
					"outputs": [
						{
							"internalType": "uint256",
							"name": "",
							"type": "uint256"
						}
					],
					"stateMutability": "nonpayable",
					"type": "function"
				}
			],
			"devdoc": {
				"kind": "dev",
				"methods": {},
				"version": 1
			},
			"evm": {
				"assembly": "    /* \".workspaces/default_workspace/unMiracle/UMRCmiracle.sol\":88:1904  contract UMRproposal {... */\n  mstore(0x40, 0x80)\n  callvalue\n  dup1\n  iszero\n  tag_1\n  jumpi\n  0x00\n  dup1\n  revert\ntag_1:\n  pop\n  dataSize(sub_0)\n  dup1\n  dataOffset(sub_0)\n  0x00\n  codecopy\n  0x00\n  return\nstop\n\nsub_0: assembly {\n        /* \".workspaces/default_workspace/unMiracle/UMRCmiracle.sol\":88:1904  contract UMRproposal {... */\n      mstore(0x40, 0x80)\n      callvalue\n      dup1\n      iszero\n      tag_1\n      jumpi\n      0x00\n      dup1\n      revert\n    tag_1:\n      pop\n      jumpi(tag_2, lt(calldatasize, 0x04))\n      shr(0xe0, calldataload(0x00))\n      dup1\n      0x42f9d5be\n      eq\n      tag_3\n      jumpi\n      dup1\n      0x6d4ce63c\n      eq\n      tag_4\n      jumpi\n      dup1\n      0xee4d6020\n      eq\n      tag_5\n      jumpi\n    tag_2:\n      0x00\n      dup1\n      revert\n        /* \".workspaces/default_workspace/unMiracle/UMRCmiracle.sol\":697:1803  function proposal(... */\n    tag_3:\n      tag_6\n      0x04\n      dup1\n      calldatasize\n      sub\n      dup2\n      add\n      swap1\n      tag_7\n      swap2\n      swap1\n      tag_8\n      jump\t// in\n    tag_7:\n      tag_9\n      jump\t// in\n    tag_6:\n      mload(0x40)\n      tag_10\n      swap2\n      swap1\n      tag_11\n      jump\t// in\n    tag_10:\n      mload(0x40)\n      dup1\n      swap2\n      sub\n      swap1\n      return\n        /* \".workspaces/default_workspace/unMiracle/UMRCmiracle.sol\":1809:1902  function get() public view returns(ProposalCore memory) {... */\n    tag_4:\n      tag_12\n      tag_13\n      jump\t// in\n    tag_12:\n      mload(0x40)\n      tag_14\n      swap2\n      swap1\n      tag_15\n      jump\t// in\n    tag_14:\n      mload(0x40)\n      dup1\n      swap2\n      sub\n      swap1\n      return\n        /* \".workspaces/default_workspace/unMiracle/UMRCmiracle.sol\":407:691  function hashProposal(... */\n    tag_5:\n      tag_16\n      0x04\n      dup1\n      calldatasize\n      sub\n      dup2\n      add\n      swap1\n      tag_17\n      swap2\n      swap1\n      tag_18\n      jump\t// in\n    tag_17:\n      tag_19\n      jump\t// in\n    tag_16:\n      mload(0x40)\n      tag_20\n      swap2\n      swap1\n      tag_11\n      jump\t// in\n    tag_20:\n      mload(0x40)\n      dup1\n      swap2\n      sub\n      swap1\n      return\n        /* \".workspaces/default_workspace/unMiracle/UMRCmiracle.sol\":697:1803  function proposal(... */\n    tag_9:\n        /* \".workspaces/default_workspace/unMiracle/UMRCmiracle.sol\":1137:1144  uint256 */\n      0x00\n        /* \".workspaces/default_workspace/unMiracle/UMRCmiracle.sol\":1188:1206  uint256 proposalId */\n      dup1\n        /* \".workspaces/default_workspace/unMiracle/UMRCmiracle.sol\":1209:1285  hashProposal(proposer,destination, calldatas, keccak256(bytes(description))) */\n      tag_22\n        /* \".workspaces/default_workspace/unMiracle/UMRCmiracle.sol\":1222:1230  proposer */\n      dup10\n        /* \".workspaces/default_workspace/unMiracle/UMRCmiracle.sol\":1231:1242  destination */\n      dup7\n        /* \".workspaces/default_workspace/unMiracle/UMRCmiracle.sol\":1244:1253  calldatas */\n      dup6\n        /* \".workspaces/default_workspace/unMiracle/UMRCmiracle.sol\":1271:1282  description */\n      dup8\n        /* \".workspaces/default_workspace/unMiracle/UMRCmiracle.sol\":1255:1284  keccak256(bytes(description)) */\n      dup1\n      mload\n      swap1\n      0x20\n      add\n      keccak256\n        /* \".workspaces/default_workspace/unMiracle/UMRCmiracle.sol\":1209:1221  hashProposal */\n      tag_19\n        /* \".workspaces/default_workspace/unMiracle/UMRCmiracle.sol\":1209:1285  hashProposal(proposer,destination, calldatas, keccak256(bytes(description))) */\n      jump\t// in\n    tag_22:\n        /* \".workspaces/default_workspace/unMiracle/UMRCmiracle.sol\":1188:1285  uint256 proposalId = hashProposal(proposer,destination, calldatas, keccak256(bytes(description))) */\n      swap1\n      pop\n        /* \".workspaces/default_workspace/unMiracle/UMRCmiracle.sol\":1328:1357  ProposalCore storage proposal */\n      0x00\n        /* \".workspaces/default_workspace/unMiracle/UMRCmiracle.sol\":1360:1370  _proposals */\n      dup1\n        /* \".workspaces/default_workspace/unMiracle/UMRCmiracle.sol\":1360:1382  _proposals[proposalId] */\n      0x00\n        /* \".workspaces/default_workspace/unMiracle/UMRCmiracle.sol\":1371:1381  proposalId */\n      dup4\n        /* \".workspaces/default_workspace/unMiracle/UMRCmiracle.sol\":1360:1382  _proposals[proposalId] */\n      dup2\n      mstore\n      0x20\n      add\n      swap1\n      dup2\n      mstore\n      0x20\n      add\n      0x00\n      keccak256\n        /* \".workspaces/default_workspace/unMiracle/UMRCmiracle.sol\":1328:1382  ProposalCore storage proposal = _proposals[proposalId] */\n      swap1\n      pop\n        /* \".workspaces/default_workspace/unMiracle/UMRCmiracle.sol\":1425:1441  uint256 snapshot */\n      0x00\n        /* \".workspaces/default_workspace/unMiracle/UMRCmiracle.sol\":1481:1483  60 */\n      0x3c\n        /* \".workspaces/default_workspace/unMiracle/UMRCmiracle.sol\":1478:1480  60 */\n      dup1\n        /* \".workspaces/default_workspace/unMiracle/UMRCmiracle.sol\":1475:1477  24 */\n      0x18\n        /* \".workspaces/default_workspace/unMiracle/UMRCmiracle.sol\":1463:1474  donateDelay */\n      dup13\n        /* \".workspaces/default_workspace/unMiracle/UMRCmiracle.sol\":1463:1477  donateDelay*24 */\n      tag_23\n      swap2\n      swap1\n      tag_24\n      jump\t// in\n    tag_23:\n        /* \".workspaces/default_workspace/unMiracle/UMRCmiracle.sol\":1463:1480  donateDelay*24*60 */\n      tag_25\n      swap2\n      swap1\n      tag_24\n      jump\t// in\n    tag_25:\n        /* \".workspaces/default_workspace/unMiracle/UMRCmiracle.sol\":1463:1483  donateDelay*24*60*60 */\n      tag_26\n      swap2\n      swap1\n      tag_24\n      jump\t// in\n    tag_26:\n        /* \".workspaces/default_workspace/unMiracle/UMRCmiracle.sol\":1445:1460  block.timestamp */\n      timestamp\n        /* \".workspaces/default_workspace/unMiracle/UMRCmiracle.sol\":1445:1483  block.timestamp + donateDelay*24*60*60 */\n      tag_27\n      swap2\n      swap1\n      tag_28\n      jump\t// in\n    tag_27:\n        /* \".workspaces/default_workspace/unMiracle/UMRCmiracle.sol\":1425:1483  uint256 snapshot =  block.timestamp + donateDelay*24*60*60 */\n      swap1\n      pop\n        /* \".workspaces/default_workspace/unMiracle/UMRCmiracle.sol\":1525:1541  uint256 deadline */\n      0x00\n        /* \".workspaces/default_workspace/unMiracle/UMRCmiracle.sol\":1574:1576  60 */\n      0x3c\n        /* \".workspaces/default_workspace/unMiracle/UMRCmiracle.sol\":1571:1573  60 */\n      dup1\n        /* \".workspaces/default_workspace/unMiracle/UMRCmiracle.sol\":1568:1570  24 */\n      0x18\n        /* \".workspaces/default_workspace/unMiracle/UMRCmiracle.sol\":1555:1567  donatePeriod */\n      dup13\n        /* \".workspaces/default_workspace/unMiracle/UMRCmiracle.sol\":1555:1570  donatePeriod*24 */\n      tag_29\n      swap2\n      swap1\n      tag_24\n      jump\t// in\n    tag_29:\n        /* \".workspaces/default_workspace/unMiracle/UMRCmiracle.sol\":1555:1573  donatePeriod*24*60 */\n      tag_30\n      swap2\n      swap1\n      tag_24\n      jump\t// in\n    tag_30:\n        /* \".workspaces/default_workspace/unMiracle/UMRCmiracle.sol\":1555:1576  donatePeriod*24*60*60 */\n      tag_31\n      swap2\n      swap1\n      tag_24\n      jump\t// in\n    tag_31:\n        /* \".workspaces/default_workspace/unMiracle/UMRCmiracle.sol\":1544:1552  snapshot */\n      dup3\n        /* \".workspaces/default_workspace/unMiracle/UMRCmiracle.sol\":1544:1576  snapshot + donatePeriod*24*60*60 */\n      tag_32\n      swap2\n      swap1\n      tag_28\n      jump\t// in\n    tag_32:\n        /* \".workspaces/default_workspace/unMiracle/UMRCmiracle.sol\":1525:1576  uint256 deadline = snapshot + donatePeriod*24*60*60 */\n      swap1\n      pop\n        /* \".workspaces/default_workspace/unMiracle/UMRCmiracle.sol\":1615:1659  proposal.donationStart.setDeadline(snapshot) */\n      tag_33\n        /* \".workspaces/default_workspace/unMiracle/UMRCmiracle.sol\":1650:1658  snapshot */\n      dup3\n        /* \".workspaces/default_workspace/unMiracle/UMRCmiracle.sol\":1615:1623  proposal */\n      dup5\n        /* \".workspaces/default_workspace/unMiracle/UMRCmiracle.sol\":1615:1637  proposal.donationStart */\n      0x00\n      add\n        /* \".workspaces/default_workspace/unMiracle/UMRCmiracle.sol\":1615:1649  proposal.donationStart.setDeadline */\n      tag_34\n      swap1\n        /* \".workspaces/default_workspace/unMiracle/UMRCmiracle.sol\":1615:1659  proposal.donationStart.setDeadline(snapshot) */\n      swap2\n      swap1\n      0xffffffff\n      and\n      jump\t// in\n    tag_33:\n        /* \".workspaces/default_workspace/unMiracle/UMRCmiracle.sol\":1669:1711  proposal.donationEnd.setDeadline(deadline) */\n      tag_35\n        /* \".workspaces/default_workspace/unMiracle/UMRCmiracle.sol\":1702:1710  deadline */\n      dup2\n        /* \".workspaces/default_workspace/unMiracle/UMRCmiracle.sol\":1669:1677  proposal */\n      dup5\n        /* \".workspaces/default_workspace/unMiracle/UMRCmiracle.sol\":1669:1689  proposal.donationEnd */\n      0x02\n      add\n        /* \".workspaces/default_workspace/unMiracle/UMRCmiracle.sol\":1669:1701  proposal.donationEnd.setDeadline */\n      tag_34\n      swap1\n        /* \".workspaces/default_workspace/unMiracle/UMRCmiracle.sol\":1669:1711  proposal.donationEnd.setDeadline(deadline) */\n      swap2\n      swap1\n      0xffffffff\n      and\n      jump\t// in\n    tag_35:\n        /* \".workspaces/default_workspace/unMiracle/UMRCmiracle.sol\":1721:1768  proposal.donateMinimum.setAmount(donateMinimum) */\n      tag_36\n        /* \".workspaces/default_workspace/unMiracle/UMRCmiracle.sol\":1754:1767  donateMinimum */\n      dup10\n        /* \".workspaces/default_workspace/unMiracle/UMRCmiracle.sol\":1721:1729  proposal */\n      dup5\n        /* \".workspaces/default_workspace/unMiracle/UMRCmiracle.sol\":1721:1743  proposal.donateMinimum */\n      0x04\n      add\n        /* \".workspaces/default_workspace/unMiracle/UMRCmiracle.sol\":1721:1753  proposal.donateMinimum.setAmount */\n      tag_37\n      swap1\n        /* \".workspaces/default_workspace/unMiracle/UMRCmiracle.sol\":1721:1768  proposal.donateMinimum.setAmount(donateMinimum) */\n      swap2\n      swap1\n      0xffffffff\n      and\n      jump\t// in\n    tag_36:\n        /* \".workspaces/default_workspace/unMiracle/UMRCmiracle.sol\":1786:1796  proposalId */\n      dup4\n        /* \".workspaces/default_workspace/unMiracle/UMRCmiracle.sol\":1779:1796  return proposalId */\n      swap5\n      pop\n      pop\n      pop\n      pop\n      pop\n        /* \".workspaces/default_workspace/unMiracle/UMRCmiracle.sol\":697:1803  function proposal(... */\n      swap8\n      swap7\n      pop\n      pop\n      pop\n      pop\n      pop\n      pop\n      pop\n      jump\t// out\n        /* \".workspaces/default_workspace/unMiracle/UMRCmiracle.sol\":1809:1902  function get() public view returns(ProposalCore memory) {... */\n    tag_13:\n        /* \".workspaces/default_workspace/unMiracle/UMRCmiracle.sol\":1844:1863  ProposalCore memory */\n      tag_38\n      tag_39\n      jump\t// in\n    tag_38:\n        /* \".workspaces/default_workspace/unMiracle/UMRCmiracle.sol\":1882:1892  _proposals */\n      0x00\n        /* \".workspaces/default_workspace/unMiracle/UMRCmiracle.sol\":1882:1895  _proposals[0] */\n      dup1\n        /* \".workspaces/default_workspace/unMiracle/UMRCmiracle.sol\":1893:1894  0 */\n      dup1\n        /* \".workspaces/default_workspace/unMiracle/UMRCmiracle.sol\":1882:1895  _proposals[0] */\n      dup2\n      mstore\n      0x20\n      add\n      swap1\n      dup2\n      mstore\n      0x20\n      add\n      0x00\n      keccak256\n        /* \".workspaces/default_workspace/unMiracle/UMRCmiracle.sol\":1875:1895  return _proposals[0] */\n      mload(0x40)\n      dup1\n      0xa0\n      add\n      0x40\n      mstore\n      swap1\n      dup2\n      0x00\n      dup3\n      add\n      mload(0x40)\n      dup1\n      0x40\n      add\n      0x40\n      mstore\n      swap1\n      dup2\n      0x00\n      dup3\n      add\n      sload\n      dup2\n      mstore\n      0x20\n      add\n      0x01\n      dup3\n      add\n      sload\n      dup2\n      mstore\n      pop\n      pop\n      dup2\n      mstore\n      0x20\n      add\n      0x02\n      dup3\n      add\n      mload(0x40)\n      dup1\n      0x40\n      add\n      0x40\n      mstore\n      swap1\n      dup2\n      0x00\n      dup3\n      add\n      sload\n      dup2\n      mstore\n      0x20\n      add\n      0x01\n      dup3\n      add\n      sload\n      dup2\n      mstore\n      pop\n      pop\n      dup2\n      mstore\n      0x20\n      add\n      0x04\n      dup3\n      add\n      mload(0x40)\n      dup1\n      0x40\n      add\n      0x40\n      mstore\n      swap1\n      dup2\n      0x00\n      dup3\n      add\n      sload\n      dup2\n      mstore\n      0x20\n      add\n      0x01\n      dup3\n      add\n      sload\n      dup2\n      mstore\n      pop\n      pop\n      dup2\n      mstore\n      0x20\n      add\n      0x06\n      dup3\n      add\n      0x00\n      swap1\n      sload\n      swap1\n      0x0100\n      exp\n      swap1\n      div\n      0xff\n      and\n      iszero\n      iszero\n      iszero\n      iszero\n      dup2\n      mstore\n      0x20\n      add\n      0x06\n      dup3\n      add\n      0x01\n      swap1\n      sload\n      swap1\n      0x0100\n      exp\n      swap1\n      div\n      0xff\n      and\n      iszero\n      iszero\n      iszero\n      iszero\n      dup2\n      mstore\n      pop\n      pop\n      swap1\n      pop\n        /* \".workspaces/default_workspace/unMiracle/UMRCmiracle.sol\":1809:1902  function get() public view returns(ProposalCore memory) {... */\n      swap1\n      jump\t// out\n        /* \".workspaces/default_workspace/unMiracle/UMRCmiracle.sol\":407:691  function hashProposal(... */\n    tag_19:\n        /* \".workspaces/default_workspace/unMiracle/UMRCmiracle.sol\":578:585  uint256 */\n      0x00\n        /* \".workspaces/default_workspace/unMiracle/UMRCmiracle.sol\":633:641  proposer */\n      dup5\n        /* \".workspaces/default_workspace/unMiracle/UMRCmiracle.sol\":642:653  destination */\n      dup5\n        /* \".workspaces/default_workspace/unMiracle/UMRCmiracle.sol\":655:664  calldatas */\n      dup5\n        /* \".workspaces/default_workspace/unMiracle/UMRCmiracle.sol\":666:681  descriptionHash */\n      dup5\n        /* \".workspaces/default_workspace/unMiracle/UMRCmiracle.sol\":622:682  abi.encode(proposer,destination, calldatas, descriptionHash) */\n      add(0x20, mload(0x40))\n      tag_42\n      swap5\n      swap4\n      swap3\n      swap2\n      swap1\n      tag_43\n      jump\t// in\n    tag_42:\n      mload(0x40)\n      0x20\n      dup2\n      dup4\n      sub\n      sub\n      dup2\n      mstore\n      swap1\n      0x40\n      mstore\n        /* \".workspaces/default_workspace/unMiracle/UMRCmiracle.sol\":612:683  keccak256(abi.encode(proposer,destination, calldatas, descriptionHash)) */\n      dup1\n      mload\n      swap1\n      0x20\n      add\n      keccak256\n        /* \".workspaces/default_workspace/unMiracle/UMRCmiracle.sol\":604:684  uint256(keccak256(abi.encode(proposer,destination, calldatas, descriptionHash))) */\n      0x00\n      shr\n        /* \".workspaces/default_workspace/unMiracle/UMRCmiracle.sol\":597:684  return uint256(keccak256(abi.encode(proposer,destination, calldatas, descriptionHash))) */\n      swap1\n      pop\n        /* \".workspaces/default_workspace/unMiracle/UMRCmiracle.sol\":407:691  function hashProposal(... */\n      swap5\n      swap4\n      pop\n      pop\n      pop\n      pop\n      jump\t// out\n        /* \".workspaces/default_workspace/unMiracle/utils/setting.sol\":228:348  function setDeadline(SetInfo storage info, uint256 timestamp) internal {... */\n    tag_34:\n        /* \".workspaces/default_workspace/unMiracle/utils/setting.sol\":337:341  1000 */\n      0x03e8\n        /* \".workspaces/default_workspace/unMiracle/utils/setting.sol\":325:334  timestamp */\n      dup2\n        /* \".workspaces/default_workspace/unMiracle/utils/setting.sol\":325:341  timestamp * 1000 */\n      tag_45\n      swap2\n      swap1\n      tag_24\n      jump\t// in\n    tag_45:\n        /* \".workspaces/default_workspace/unMiracle/utils/setting.sol\":309:313  info */\n      dup3\n        /* \".workspaces/default_workspace/unMiracle/utils/setting.sol\":309:322  info.deadline */\n      0x00\n      add\n        /* \".workspaces/default_workspace/unMiracle/utils/setting.sol\":309:341  info.deadline = timestamp * 1000 */\n      dup2\n      swap1\n      sstore\n      pop\n        /* \".workspaces/default_workspace/unMiracle/utils/setting.sol\":228:348  function setDeadline(SetInfo storage info, uint256 timestamp) internal {... */\n      pop\n      pop\n      jump\t// out\n        /* \".workspaces/default_workspace/unMiracle/utils/setting.sol\":470:573  function setAmount(SetInfo storage info, uint256 amount) internal {... */\n    tag_37:\n        /* \".workspaces/default_workspace/unMiracle/utils/setting.sol\":560:566  amount */\n      dup1\n        /* \".workspaces/default_workspace/unMiracle/utils/setting.sol\":546:550  info */\n      dup3\n        /* \".workspaces/default_workspace/unMiracle/utils/setting.sol\":546:557  info.amount */\n      0x01\n      add\n        /* \".workspaces/default_workspace/unMiracle/utils/setting.sol\":546:566  info.amount = amount */\n      dup2\n      swap1\n      sstore\n      pop\n        /* \".workspaces/default_workspace/unMiracle/utils/setting.sol\":470:573  function setAmount(SetInfo storage info, uint256 amount) internal {... */\n      pop\n      pop\n      jump\t// out\n    tag_39:\n      mload(0x40)\n      dup1\n      0xa0\n      add\n      0x40\n      mstore\n      dup1\n      tag_47\n      tag_48\n      jump\t// in\n    tag_47:\n      dup2\n      mstore\n      0x20\n      add\n      tag_49\n      tag_48\n      jump\t// in\n    tag_49:\n      dup2\n      mstore\n      0x20\n      add\n      tag_50\n      tag_48\n      jump\t// in\n    tag_50:\n      dup2\n      mstore\n      0x20\n      add\n      iszero(iszero(0x00))\n      dup2\n      mstore\n      0x20\n      add\n      iszero(iszero(0x00))\n      dup2\n      mstore\n      pop\n      swap1\n      jump\t// out\n    tag_48:\n      mload(0x40)\n      dup1\n      0x40\n      add\n      0x40\n      mstore\n      dup1\n      0x00\n      dup2\n      mstore\n      0x20\n      add\n      0x00\n      dup2\n      mstore\n      pop\n      swap1\n      jump\t// out\n        /* \"#utility.yul\":7:82   */\n    tag_51:\n        /* \"#utility.yul\":40:46   */\n      0x00\n        /* \"#utility.yul\":73:75   */\n      0x40\n        /* \"#utility.yul\":67:76   */\n      mload\n        /* \"#utility.yul\":57:76   */\n      swap1\n      pop\n        /* \"#utility.yul\":7:82   */\n      swap1\n      jump\t// out\n        /* \"#utility.yul\":88:205   */\n    tag_52:\n        /* \"#utility.yul\":197:198   */\n      0x00\n        /* \"#utility.yul\":194:195   */\n      dup1\n        /* \"#utility.yul\":187:199   */\n      revert\n        /* \"#utility.yul\":211:328   */\n    tag_53:\n        /* \"#utility.yul\":320:321   */\n      0x00\n        /* \"#utility.yul\":317:318   */\n      dup1\n        /* \"#utility.yul\":310:322   */\n      revert\n        /* \"#utility.yul\":334:460   */\n    tag_54:\n        /* \"#utility.yul\":371:378   */\n      0x00\n        /* \"#utility.yul\":411:453   */\n      0xffffffffffffffffffffffffffffffffffffffff\n        /* \"#utility.yul\":404:409   */\n      dup3\n        /* \"#utility.yul\":400:454   */\n      and\n        /* \"#utility.yul\":389:454   */\n      swap1\n      pop\n        /* \"#utility.yul\":334:460   */\n      swap2\n      swap1\n      pop\n      jump\t// out\n        /* \"#utility.yul\":466:562   */\n    tag_55:\n        /* \"#utility.yul\":503:510   */\n      0x00\n        /* \"#utility.yul\":532:556   */\n      tag_106\n        /* \"#utility.yul\":550:555   */\n      dup3\n        /* \"#utility.yul\":532:556   */\n      tag_54\n      jump\t// in\n    tag_106:\n        /* \"#utility.yul\":521:556   */\n      swap1\n      pop\n        /* \"#utility.yul\":466:562   */\n      swap2\n      swap1\n      pop\n      jump\t// out\n        /* \"#utility.yul\":568:690   */\n    tag_56:\n        /* \"#utility.yul\":641:665   */\n      tag_108\n        /* \"#utility.yul\":659:664   */\n      dup2\n        /* \"#utility.yul\":641:665   */\n      tag_55\n      jump\t// in\n    tag_108:\n        /* \"#utility.yul\":634:639   */\n      dup2\n        /* \"#utility.yul\":631:666   */\n      eq\n        /* \"#utility.yul\":621:684   */\n      tag_109\n      jumpi\n        /* \"#utility.yul\":680:681   */\n      0x00\n        /* \"#utility.yul\":677:678   */\n      dup1\n        /* \"#utility.yul\":670:682   */\n      revert\n        /* \"#utility.yul\":621:684   */\n    tag_109:\n        /* \"#utility.yul\":568:690   */\n      pop\n      jump\t// out\n        /* \"#utility.yul\":696:835   */\n    tag_57:\n        /* \"#utility.yul\":742:747   */\n      0x00\n        /* \"#utility.yul\":780:786   */\n      dup2\n        /* \"#utility.yul\":767:787   */\n      calldataload\n        /* \"#utility.yul\":758:787   */\n      swap1\n      pop\n        /* \"#utility.yul\":796:829   */\n      tag_111\n        /* \"#utility.yul\":823:828   */\n      dup2\n        /* \"#utility.yul\":796:829   */\n      tag_56\n      jump\t// in\n    tag_111:\n        /* \"#utility.yul\":696:835   */\n      swap3\n      swap2\n      pop\n      pop\n      jump\t// out\n        /* \"#utility.yul\":841:918   */\n    tag_58:\n        /* \"#utility.yul\":878:885   */\n      0x00\n        /* \"#utility.yul\":907:912   */\n      dup2\n        /* \"#utility.yul\":896:912   */\n      swap1\n      pop\n        /* \"#utility.yul\":841:918   */\n      swap2\n      swap1\n      pop\n      jump\t// out\n        /* \"#utility.yul\":924:1046   */\n    tag_59:\n        /* \"#utility.yul\":997:1021   */\n      tag_114\n        /* \"#utility.yul\":1015:1020   */\n      dup2\n        /* \"#utility.yul\":997:1021   */\n      tag_58\n      jump\t// in\n    tag_114:\n        /* \"#utility.yul\":990:995   */\n      dup2\n        /* \"#utility.yul\":987:1022   */\n      eq\n        /* \"#utility.yul\":977:1040   */\n      tag_115\n      jumpi\n        /* \"#utility.yul\":1036:1037   */\n      0x00\n        /* \"#utility.yul\":1033:1034   */\n      dup1\n        /* \"#utility.yul\":1026:1038   */\n      revert\n        /* \"#utility.yul\":977:1040   */\n    tag_115:\n        /* \"#utility.yul\":924:1046   */\n      pop\n      jump\t// out\n        /* \"#utility.yul\":1052:1191   */\n    tag_60:\n        /* \"#utility.yul\":1098:1103   */\n      0x00\n        /* \"#utility.yul\":1136:1142   */\n      dup2\n        /* \"#utility.yul\":1123:1143   */\n      calldataload\n        /* \"#utility.yul\":1114:1143   */\n      swap1\n      pop\n        /* \"#utility.yul\":1152:1185   */\n      tag_117\n        /* \"#utility.yul\":1179:1184   */\n      dup2\n        /* \"#utility.yul\":1152:1185   */\n      tag_59\n      jump\t// in\n    tag_117:\n        /* \"#utility.yul\":1052:1191   */\n      swap3\n      swap2\n      pop\n      pop\n      jump\t// out\n        /* \"#utility.yul\":1197:1314   */\n    tag_61:\n        /* \"#utility.yul\":1306:1307   */\n      0x00\n        /* \"#utility.yul\":1303:1304   */\n      dup1\n        /* \"#utility.yul\":1296:1308   */\n      revert\n        /* \"#utility.yul\":1320:1437   */\n    tag_62:\n        /* \"#utility.yul\":1429:1430   */\n      0x00\n        /* \"#utility.yul\":1426:1427   */\n      dup1\n        /* \"#utility.yul\":1419:1431   */\n      revert\n        /* \"#utility.yul\":1443:1545   */\n    tag_63:\n        /* \"#utility.yul\":1484:1490   */\n      0x00\n        /* \"#utility.yul\":1535:1537   */\n      0x1f\n        /* \"#utility.yul\":1531:1538   */\n      not\n        /* \"#utility.yul\":1526:1528   */\n      0x1f\n        /* \"#utility.yul\":1519:1524   */\n      dup4\n        /* \"#utility.yul\":1515:1529   */\n      add\n        /* \"#utility.yul\":1511:1539   */\n      and\n        /* \"#utility.yul\":1501:1539   */\n      swap1\n      pop\n        /* \"#utility.yul\":1443:1545   */\n      swap2\n      swap1\n      pop\n      jump\t// out\n        /* \"#utility.yul\":1551:1731   */\n    tag_64:\n        /* \"#utility.yul\":1599:1676   */\n      0x4e487b7100000000000000000000000000000000000000000000000000000000\n        /* \"#utility.yul\":1596:1597   */\n      0x00\n        /* \"#utility.yul\":1589:1677   */\n      mstore\n        /* \"#utility.yul\":1696:1700   */\n      0x41\n        /* \"#utility.yul\":1693:1694   */\n      0x04\n        /* \"#utility.yul\":1686:1701   */\n      mstore\n        /* \"#utility.yul\":1720:1724   */\n      0x24\n        /* \"#utility.yul\":1717:1718   */\n      0x00\n        /* \"#utility.yul\":1710:1725   */\n      revert\n        /* \"#utility.yul\":1737:2018   */\n    tag_65:\n        /* \"#utility.yul\":1820:1847   */\n      tag_123\n        /* \"#utility.yul\":1842:1846   */\n      dup3\n        /* \"#utility.yul\":1820:1847   */\n      tag_63\n      jump\t// in\n    tag_123:\n        /* \"#utility.yul\":1812:1818   */\n      dup2\n        /* \"#utility.yul\":1808:1848   */\n      add\n        /* \"#utility.yul\":1950:1956   */\n      dup2\n        /* \"#utility.yul\":1938:1948   */\n      dup2\n        /* \"#utility.yul\":1935:1957   */\n      lt\n        /* \"#utility.yul\":1914:1932   */\n      0xffffffffffffffff\n        /* \"#utility.yul\":1902:1912   */\n      dup3\n        /* \"#utility.yul\":1899:1933   */\n      gt\n        /* \"#utility.yul\":1896:1958   */\n      or\n        /* \"#utility.yul\":1893:1981   */\n      iszero\n      tag_124\n      jumpi\n        /* \"#utility.yul\":1961:1979   */\n      tag_125\n      tag_64\n      jump\t// in\n    tag_125:\n        /* \"#utility.yul\":1893:1981   */\n    tag_124:\n        /* \"#utility.yul\":2001:2011   */\n      dup1\n        /* \"#utility.yul\":1997:1999   */\n      0x40\n        /* \"#utility.yul\":1990:2012   */\n      mstore\n        /* \"#utility.yul\":1780:2018   */\n      pop\n        /* \"#utility.yul\":1737:2018   */\n      pop\n      pop\n      jump\t// out\n        /* \"#utility.yul\":2024:2153   */\n    tag_66:\n        /* \"#utility.yul\":2058:2064   */\n      0x00\n        /* \"#utility.yul\":2085:2105   */\n      tag_127\n      tag_51\n      jump\t// in\n    tag_127:\n        /* \"#utility.yul\":2075:2105   */\n      swap1\n      pop\n        /* \"#utility.yul\":2114:2147   */\n      tag_128\n        /* \"#utility.yul\":2142:2146   */\n      dup3\n        /* \"#utility.yul\":2134:2140   */\n      dup3\n        /* \"#utility.yul\":2114:2147   */\n      tag_65\n      jump\t// in\n    tag_128:\n        /* \"#utility.yul\":2024:2153   */\n      swap2\n      swap1\n      pop\n      jump\t// out\n        /* \"#utility.yul\":2159:2467   */\n    tag_67:\n        /* \"#utility.yul\":2221:2225   */\n      0x00\n        /* \"#utility.yul\":2311:2329   */\n      0xffffffffffffffff\n        /* \"#utility.yul\":2303:2309   */\n      dup3\n        /* \"#utility.yul\":2300:2330   */\n      gt\n        /* \"#utility.yul\":2297:2353   */\n      iszero\n      tag_130\n      jumpi\n        /* \"#utility.yul\":2333:2351   */\n      tag_131\n      tag_64\n      jump\t// in\n    tag_131:\n        /* \"#utility.yul\":2297:2353   */\n    tag_130:\n        /* \"#utility.yul\":2371:2400   */\n      tag_132\n        /* \"#utility.yul\":2393:2399   */\n      dup3\n        /* \"#utility.yul\":2371:2400   */\n      tag_63\n      jump\t// in\n    tag_132:\n        /* \"#utility.yul\":2363:2400   */\n      swap1\n      pop\n        /* \"#utility.yul\":2455:2459   */\n      0x20\n        /* \"#utility.yul\":2449:2453   */\n      dup2\n        /* \"#utility.yul\":2445:2460   */\n      add\n        /* \"#utility.yul\":2437:2460   */\n      swap1\n      pop\n        /* \"#utility.yul\":2159:2467   */\n      swap2\n      swap1\n      pop\n      jump\t// out\n        /* \"#utility.yul\":2473:2627   */\n    tag_68:\n        /* \"#utility.yul\":2557:2563   */\n      dup3\n        /* \"#utility.yul\":2552:2555   */\n      dup2\n        /* \"#utility.yul\":2547:2550   */\n      dup4\n        /* \"#utility.yul\":2534:2564   */\n      calldatacopy\n        /* \"#utility.yul\":2619:2620   */\n      0x00\n        /* \"#utility.yul\":2610:2616   */\n      dup4\n        /* \"#utility.yul\":2605:2608   */\n      dup4\n        /* \"#utility.yul\":2601:2617   */\n      add\n        /* \"#utility.yul\":2594:2621   */\n      mstore\n        /* \"#utility.yul\":2473:2627   */\n      pop\n      pop\n      pop\n      jump\t// out\n        /* \"#utility.yul\":2633:3045   */\n    tag_69:\n        /* \"#utility.yul\":2711:2716   */\n      0x00\n        /* \"#utility.yul\":2736:2802   */\n      tag_135\n        /* \"#utility.yul\":2752:2801   */\n      tag_136\n        /* \"#utility.yul\":2794:2800   */\n      dup5\n        /* \"#utility.yul\":2752:2801   */\n      tag_67\n      jump\t// in\n    tag_136:\n        /* \"#utility.yul\":2736:2802   */\n      tag_66\n      jump\t// in\n    tag_135:\n        /* \"#utility.yul\":2727:2802   */\n      swap1\n      pop\n        /* \"#utility.yul\":2825:2831   */\n      dup3\n        /* \"#utility.yul\":2818:2823   */\n      dup2\n        /* \"#utility.yul\":2811:2832   */\n      mstore\n        /* \"#utility.yul\":2863:2867   */\n      0x20\n        /* \"#utility.yul\":2856:2861   */\n      dup2\n        /* \"#utility.yul\":2852:2868   */\n      add\n        /* \"#utility.yul\":2901:2904   */\n      dup5\n        /* \"#utility.yul\":2892:2898   */\n      dup5\n        /* \"#utility.yul\":2887:2890   */\n      dup5\n        /* \"#utility.yul\":2883:2899   */\n      add\n        /* \"#utility.yul\":2880:2905   */\n      gt\n        /* \"#utility.yul\":2877:2989   */\n      iszero\n      tag_137\n      jumpi\n        /* \"#utility.yul\":2908:2987   */\n      tag_138\n      tag_62\n      jump\t// in\n    tag_138:\n        /* \"#utility.yul\":2877:2989   */\n    tag_137:\n        /* \"#utility.yul\":2998:3039   */\n      tag_139\n        /* \"#utility.yul\":3032:3038   */\n      dup5\n        /* \"#utility.yul\":3027:3030   */\n      dup3\n        /* \"#utility.yul\":3022:3025   */\n      dup6\n        /* \"#utility.yul\":2998:3039   */\n      tag_68\n      jump\t// in\n    tag_139:\n        /* \"#utility.yul\":2717:3045   */\n      pop\n        /* \"#utility.yul\":2633:3045   */\n      swap4\n      swap3\n      pop\n      pop\n      pop\n      jump\t// out\n        /* \"#utility.yul\":3065:3405   */\n    tag_70:\n        /* \"#utility.yul\":3121:3126   */\n      0x00\n        /* \"#utility.yul\":3170:3173   */\n      dup3\n        /* \"#utility.yul\":3163:3167   */\n      0x1f\n        /* \"#utility.yul\":3155:3161   */\n      dup4\n        /* \"#utility.yul\":3151:3168   */\n      add\n        /* \"#utility.yul\":3147:3174   */\n      slt\n        /* \"#utility.yul\":3137:3259   */\n      tag_141\n      jumpi\n        /* \"#utility.yul\":3178:3257   */\n      tag_142\n      tag_61\n      jump\t// in\n    tag_142:\n        /* \"#utility.yul\":3137:3259   */\n    tag_141:\n        /* \"#utility.yul\":3295:3301   */\n      dup2\n        /* \"#utility.yul\":3282:3302   */\n      calldataload\n        /* \"#utility.yul\":3320:3399   */\n      tag_143\n        /* \"#utility.yul\":3395:3398   */\n      dup5\n        /* \"#utility.yul\":3387:3393   */\n      dup3\n        /* \"#utility.yul\":3380:3384   */\n      0x20\n        /* \"#utility.yul\":3372:3378   */\n      dup7\n        /* \"#utility.yul\":3368:3385   */\n      add\n        /* \"#utility.yul\":3320:3399   */\n      tag_69\n      jump\t// in\n    tag_143:\n        /* \"#utility.yul\":3311:3399   */\n      swap2\n      pop\n        /* \"#utility.yul\":3127:3405   */\n      pop\n        /* \"#utility.yul\":3065:3405   */\n      swap3\n      swap2\n      pop\n      pop\n      jump\t// out\n        /* \"#utility.yul\":3411:3731   */\n    tag_71:\n        /* \"#utility.yul\":3497:3501   */\n      0x00\n        /* \"#utility.yul\":3587:3605   */\n      0xffffffffffffffff\n        /* \"#utility.yul\":3579:3585   */\n      dup3\n        /* \"#utility.yul\":3576:3606   */\n      gt\n        /* \"#utility.yul\":3573:3629   */\n      iszero\n      tag_145\n      jumpi\n        /* \"#utility.yul\":3609:3627   */\n      tag_146\n      tag_64\n      jump\t// in\n    tag_146:\n        /* \"#utility.yul\":3573:3629   */\n    tag_145:\n        /* \"#utility.yul\":3659:3663   */\n      0x20\n        /* \"#utility.yul\":3651:3657   */\n      dup3\n        /* \"#utility.yul\":3647:3664   */\n      mul\n        /* \"#utility.yul\":3639:3664   */\n      swap1\n      pop\n        /* \"#utility.yul\":3719:3723   */\n      0x20\n        /* \"#utility.yul\":3713:3717   */\n      dup2\n        /* \"#utility.yul\":3709:3724   */\n      add\n        /* \"#utility.yul\":3701:3724   */\n      swap1\n      pop\n        /* \"#utility.yul\":3411:3731   */\n      swap2\n      swap1\n      pop\n      jump\t// out\n        /* \"#utility.yul\":3737:3854   */\n    tag_72:\n        /* \"#utility.yul\":3846:3847   */\n      0x00\n        /* \"#utility.yul\":3843:3844   */\n      dup1\n        /* \"#utility.yul\":3836:3848   */\n      revert\n        /* \"#utility.yul\":3860:4167   */\n    tag_73:\n        /* \"#utility.yul\":3921:3925   */\n      0x00\n        /* \"#utility.yul\":4011:4029   */\n      0xffffffffffffffff\n        /* \"#utility.yul\":4003:4009   */\n      dup3\n        /* \"#utility.yul\":4000:4030   */\n      gt\n        /* \"#utility.yul\":3997:4053   */\n      iszero\n      tag_149\n      jumpi\n        /* \"#utility.yul\":4033:4051   */\n      tag_150\n      tag_64\n      jump\t// in\n    tag_150:\n        /* \"#utility.yul\":3997:4053   */\n    tag_149:\n        /* \"#utility.yul\":4071:4100   */\n      tag_151\n        /* \"#utility.yul\":4093:4099   */\n      dup3\n        /* \"#utility.yul\":4071:4100   */\n      tag_63\n      jump\t// in\n    tag_151:\n        /* \"#utility.yul\":4063:4100   */\n      swap1\n      pop\n        /* \"#utility.yul\":4155:4159   */\n      0x20\n        /* \"#utility.yul\":4149:4153   */\n      dup2\n        /* \"#utility.yul\":4145:4160   */\n      add\n        /* \"#utility.yul\":4137:4160   */\n      swap1\n      pop\n        /* \"#utility.yul\":3860:4167   */\n      swap2\n      swap1\n      pop\n      jump\t// out\n        /* \"#utility.yul\":4173:4583   */\n    tag_74:\n        /* \"#utility.yul\":4250:4255   */\n      0x00\n        /* \"#utility.yul\":4275:4340   */\n      tag_153\n        /* \"#utility.yul\":4291:4339   */\n      tag_154\n        /* \"#utility.yul\":4332:4338   */\n      dup5\n        /* \"#utility.yul\":4291:4339   */\n      tag_73\n      jump\t// in\n    tag_154:\n        /* \"#utility.yul\":4275:4340   */\n      tag_66\n      jump\t// in\n    tag_153:\n        /* \"#utility.yul\":4266:4340   */\n      swap1\n      pop\n        /* \"#utility.yul\":4363:4369   */\n      dup3\n        /* \"#utility.yul\":4356:4361   */\n      dup2\n        /* \"#utility.yul\":4349:4370   */\n      mstore\n        /* \"#utility.yul\":4401:4405   */\n      0x20\n        /* \"#utility.yul\":4394:4399   */\n      dup2\n        /* \"#utility.yul\":4390:4406   */\n      add\n        /* \"#utility.yul\":4439:4442   */\n      dup5\n        /* \"#utility.yul\":4430:4436   */\n      dup5\n        /* \"#utility.yul\":4425:4428   */\n      dup5\n        /* \"#utility.yul\":4421:4437   */\n      add\n        /* \"#utility.yul\":4418:4443   */\n      gt\n        /* \"#utility.yul\":4415:4527   */\n      iszero\n      tag_155\n      jumpi\n        /* \"#utility.yul\":4446:4525   */\n      tag_156\n      tag_62\n      jump\t// in\n    tag_156:\n        /* \"#utility.yul\":4415:4527   */\n    tag_155:\n        /* \"#utility.yul\":4536:4577   */\n      tag_157\n        /* \"#utility.yul\":4570:4576   */\n      dup5\n        /* \"#utility.yul\":4565:4568   */\n      dup3\n        /* \"#utility.yul\":4560:4563   */\n      dup6\n        /* \"#utility.yul\":4536:4577   */\n      tag_68\n      jump\t// in\n    tag_157:\n        /* \"#utility.yul\":4256:4583   */\n      pop\n        /* \"#utility.yul\":4173:4583   */\n      swap4\n      swap3\n      pop\n      pop\n      pop\n      jump\t// out\n        /* \"#utility.yul\":4602:4940   */\n    tag_75:\n        /* \"#utility.yul\":4657:4662   */\n      0x00\n        /* \"#utility.yul\":4706:4709   */\n      dup3\n        /* \"#utility.yul\":4699:4703   */\n      0x1f\n        /* \"#utility.yul\":4691:4697   */\n      dup4\n        /* \"#utility.yul\":4687:4704   */\n      add\n        /* \"#utility.yul\":4683:4710   */\n      slt\n        /* \"#utility.yul\":4673:4795   */\n      tag_159\n      jumpi\n        /* \"#utility.yul\":4714:4793   */\n      tag_160\n      tag_61\n      jump\t// in\n    tag_160:\n        /* \"#utility.yul\":4673:4795   */\n    tag_159:\n        /* \"#utility.yul\":4831:4837   */\n      dup2\n        /* \"#utility.yul\":4818:4838   */\n      calldataload\n        /* \"#utility.yul\":4856:4934   */\n      tag_161\n        /* \"#utility.yul\":4930:4933   */\n      dup5\n        /* \"#utility.yul\":4922:4928   */\n      dup3\n        /* \"#utility.yul\":4915:4919   */\n      0x20\n        /* \"#utility.yul\":4907:4913   */\n      dup7\n        /* \"#utility.yul\":4903:4920   */\n      add\n        /* \"#utility.yul\":4856:4934   */\n      tag_74\n      jump\t// in\n    tag_161:\n        /* \"#utility.yul\":4847:4934   */\n      swap2\n      pop\n        /* \"#utility.yul\":4663:4940   */\n      pop\n        /* \"#utility.yul\":4602:4940   */\n      swap3\n      swap2\n      pop\n      pop\n      jump\t// out\n        /* \"#utility.yul\":4961:5903   */\n    tag_76:\n        /* \"#utility.yul\":5066:5071   */\n      0x00\n        /* \"#utility.yul\":5091:5181   */\n      tag_163\n        /* \"#utility.yul\":5107:5180   */\n      tag_164\n        /* \"#utility.yul\":5173:5179   */\n      dup5\n        /* \"#utility.yul\":5107:5180   */\n      tag_71\n      jump\t// in\n    tag_164:\n        /* \"#utility.yul\":5091:5181   */\n      tag_66\n      jump\t// in\n    tag_163:\n        /* \"#utility.yul\":5082:5181   */\n      swap1\n      pop\n        /* \"#utility.yul\":5201:5206   */\n      dup1\n        /* \"#utility.yul\":5230:5236   */\n      dup4\n        /* \"#utility.yul\":5223:5228   */\n      dup3\n        /* \"#utility.yul\":5216:5237   */\n      mstore\n        /* \"#utility.yul\":5264:5268   */\n      0x20\n        /* \"#utility.yul\":5257:5262   */\n      dup3\n        /* \"#utility.yul\":5253:5269   */\n      add\n        /* \"#utility.yul\":5246:5269   */\n      swap1\n      pop\n        /* \"#utility.yul\":5317:5321   */\n      0x20\n        /* \"#utility.yul\":5309:5315   */\n      dup5\n        /* \"#utility.yul\":5305:5322   */\n      mul\n        /* \"#utility.yul\":5297:5303   */\n      dup4\n        /* \"#utility.yul\":5293:5323   */\n      add\n        /* \"#utility.yul\":5346:5349   */\n      dup6\n        /* \"#utility.yul\":5338:5344   */\n      dup2\n        /* \"#utility.yul\":5335:5350   */\n      gt\n        /* \"#utility.yul\":5332:5454   */\n      iszero\n      tag_165\n      jumpi\n        /* \"#utility.yul\":5365:5444   */\n      tag_166\n      tag_72\n      jump\t// in\n    tag_166:\n        /* \"#utility.yul\":5332:5454   */\n    tag_165:\n        /* \"#utility.yul\":5480:5486   */\n      dup4\n        /* \"#utility.yul\":5463:5897   */\n    tag_167:\n        /* \"#utility.yul\":5497:5503   */\n      dup2\n        /* \"#utility.yul\":5492:5495   */\n      dup2\n        /* \"#utility.yul\":5489:5504   */\n      lt\n        /* \"#utility.yul\":5463:5897   */\n      iszero\n      tag_169\n      jumpi\n        /* \"#utility.yul\":5586:5589   */\n      dup1\n        /* \"#utility.yul\":5573:5590   */\n      calldataload\n        /* \"#utility.yul\":5622:5640   */\n      0xffffffffffffffff\n        /* \"#utility.yul\":5609:5620   */\n      dup2\n        /* \"#utility.yul\":5606:5641   */\n      gt\n        /* \"#utility.yul\":5603:5725   */\n      iszero\n      tag_170\n      jumpi\n        /* \"#utility.yul\":5644:5723   */\n      tag_171\n      tag_61\n      jump\t// in\n    tag_171:\n        /* \"#utility.yul\":5603:5725   */\n    tag_170:\n        /* \"#utility.yul\":5768:5779   */\n      dup1\n        /* \"#utility.yul\":5760:5766   */\n      dup7\n        /* \"#utility.yul\":5756:5780   */\n      add\n        /* \"#utility.yul\":5806:5852   */\n      tag_172\n        /* \"#utility.yul\":5848:5851   */\n      dup10\n        /* \"#utility.yul\":5836:5846   */\n      dup3\n        /* \"#utility.yul\":5806:5852   */\n      tag_75\n      jump\t// in\n    tag_172:\n        /* \"#utility.yul\":5801:5804   */\n      dup6\n        /* \"#utility.yul\":5794:5853   */\n      mstore\n        /* \"#utility.yul\":5882:5886   */\n      0x20\n        /* \"#utility.yul\":5877:5880   */\n      dup6\n        /* \"#utility.yul\":5873:5887   */\n      add\n        /* \"#utility.yul\":5866:5887   */\n      swap5\n      pop\n        /* \"#utility.yul\":5539:5897   */\n      pop\n      pop\n        /* \"#utility.yul\":5523:5527   */\n      0x20\n        /* \"#utility.yul\":5518:5521   */\n      dup2\n        /* \"#utility.yul\":5514:5528   */\n      add\n        /* \"#utility.yul\":5507:5528   */\n      swap1\n      pop\n        /* \"#utility.yul\":5463:5897   */\n      jump(tag_167)\n    tag_169:\n        /* \"#utility.yul\":5467:5488   */\n      pop\n        /* \"#utility.yul\":5072:5903   */\n      pop\n      pop\n        /* \"#utility.yul\":4961:5903   */\n      swap4\n      swap3\n      pop\n      pop\n      pop\n      jump\t// out\n        /* \"#utility.yul\":5924:6312   */\n    tag_77:\n        /* \"#utility.yul\":6004:6009   */\n      0x00\n        /* \"#utility.yul\":6053:6056   */\n      dup3\n        /* \"#utility.yul\":6046:6050   */\n      0x1f\n        /* \"#utility.yul\":6038:6044   */\n      dup4\n        /* \"#utility.yul\":6034:6051   */\n      add\n        /* \"#utility.yul\":6030:6057   */\n      slt\n        /* \"#utility.yul\":6020:6142   */\n      tag_174\n      jumpi\n        /* \"#utility.yul\":6061:6140   */\n      tag_175\n      tag_61\n      jump\t// in\n    tag_175:\n        /* \"#utility.yul\":6020:6142   */\n    tag_174:\n        /* \"#utility.yul\":6178:6184   */\n      dup2\n        /* \"#utility.yul\":6165:6185   */\n      calldataload\n        /* \"#utility.yul\":6203:6306   */\n      tag_176\n        /* \"#utility.yul\":6302:6305   */\n      dup5\n        /* \"#utility.yul\":6294:6300   */\n      dup3\n        /* \"#utility.yul\":6287:6291   */\n      0x20\n        /* \"#utility.yul\":6279:6285   */\n      dup7\n        /* \"#utility.yul\":6275:6292   */\n      add\n        /* \"#utility.yul\":6203:6306   */\n      tag_76\n      jump\t// in\n    tag_176:\n        /* \"#utility.yul\":6194:6306   */\n      swap2\n      pop\n        /* \"#utility.yul\":6010:6312   */\n      pop\n        /* \"#utility.yul\":5924:6312   */\n      swap3\n      swap2\n      pop\n      pop\n      jump\t// out\n        /* \"#utility.yul\":6318:7929   */\n    tag_8:\n        /* \"#utility.yul\":6475:6481   */\n      0x00\n        /* \"#utility.yul\":6483:6489   */\n      dup1\n        /* \"#utility.yul\":6491:6497   */\n      0x00\n        /* \"#utility.yul\":6499:6505   */\n      dup1\n        /* \"#utility.yul\":6507:6513   */\n      0x00\n        /* \"#utility.yul\":6515:6521   */\n      dup1\n        /* \"#utility.yul\":6523:6529   */\n      0x00\n        /* \"#utility.yul\":6572:6575   */\n      0xe0\n        /* \"#utility.yul\":6560:6569   */\n      dup9\n        /* \"#utility.yul\":6551:6558   */\n      dup11\n        /* \"#utility.yul\":6547:6570   */\n      sub\n        /* \"#utility.yul\":6543:6576   */\n      slt\n        /* \"#utility.yul\":6540:6660   */\n      iszero\n      tag_178\n      jumpi\n        /* \"#utility.yul\":6579:6658   */\n      tag_179\n      tag_52\n      jump\t// in\n    tag_179:\n        /* \"#utility.yul\":6540:6660   */\n    tag_178:\n        /* \"#utility.yul\":6699:6700   */\n      0x00\n        /* \"#utility.yul\":6724:6777   */\n      tag_180\n        /* \"#utility.yul\":6769:6776   */\n      dup11\n        /* \"#utility.yul\":6760:6766   */\n      dup3\n        /* \"#utility.yul\":6749:6758   */\n      dup12\n        /* \"#utility.yul\":6745:6767   */\n      add\n        /* \"#utility.yul\":6724:6777   */\n      tag_57\n      jump\t// in\n    tag_180:\n        /* \"#utility.yul\":6714:6777   */\n      swap8\n      pop\n        /* \"#utility.yul\":6670:6787   */\n      pop\n        /* \"#utility.yul\":6826:6828   */\n      0x20\n        /* \"#utility.yul\":6852:6905   */\n      tag_181\n        /* \"#utility.yul\":6897:6904   */\n      dup11\n        /* \"#utility.yul\":6888:6894   */\n      dup3\n        /* \"#utility.yul\":6877:6886   */\n      dup12\n        /* \"#utility.yul\":6873:6895   */\n      add\n        /* \"#utility.yul\":6852:6905   */\n      tag_60\n      jump\t// in\n    tag_181:\n        /* \"#utility.yul\":6842:6905   */\n      swap7\n      pop\n        /* \"#utility.yul\":6797:6915   */\n      pop\n        /* \"#utility.yul\":6954:6956   */\n      0x40\n        /* \"#utility.yul\":6980:7033   */\n      tag_182\n        /* \"#utility.yul\":7025:7032   */\n      dup11\n        /* \"#utility.yul\":7016:7022   */\n      dup3\n        /* \"#utility.yul\":7005:7014   */\n      dup12\n        /* \"#utility.yul\":7001:7023   */\n      add\n        /* \"#utility.yul\":6980:7033   */\n      tag_60\n      jump\t// in\n    tag_182:\n        /* \"#utility.yul\":6970:7033   */\n      swap6\n      pop\n        /* \"#utility.yul\":6925:7043   */\n      pop\n        /* \"#utility.yul\":7082:7084   */\n      0x60\n        /* \"#utility.yul\":7108:7161   */\n      tag_183\n        /* \"#utility.yul\":7153:7160   */\n      dup11\n        /* \"#utility.yul\":7144:7150   */\n      dup3\n        /* \"#utility.yul\":7133:7142   */\n      dup12\n        /* \"#utility.yul\":7129:7151   */\n      add\n        /* \"#utility.yul\":7108:7161   */\n      tag_60\n      jump\t// in\n    tag_183:\n        /* \"#utility.yul\":7098:7161   */\n      swap5\n      pop\n        /* \"#utility.yul\":7053:7171   */\n      pop\n        /* \"#utility.yul\":7210:7213   */\n      0x80\n        /* \"#utility.yul\":7237:7290   */\n      tag_184\n        /* \"#utility.yul\":7282:7289   */\n      dup11\n        /* \"#utility.yul\":7273:7279   */\n      dup3\n        /* \"#utility.yul\":7262:7271   */\n      dup12\n        /* \"#utility.yul\":7258:7280   */\n      add\n        /* \"#utility.yul\":7237:7290   */\n      tag_57\n      jump\t// in\n    tag_184:\n        /* \"#utility.yul\":7227:7290   */\n      swap4\n      pop\n        /* \"#utility.yul\":7181:7300   */\n      pop\n        /* \"#utility.yul\":7367:7370   */\n      0xa0\n        /* \"#utility.yul\":7356:7365   */\n      dup9\n        /* \"#utility.yul\":7352:7371   */\n      add\n        /* \"#utility.yul\":7339:7372   */\n      calldataload\n        /* \"#utility.yul\":7399:7417   */\n      0xffffffffffffffff\n        /* \"#utility.yul\":7391:7397   */\n      dup2\n        /* \"#utility.yul\":7388:7418   */\n      gt\n        /* \"#utility.yul\":7385:7502   */\n      iszero\n      tag_185\n      jumpi\n        /* \"#utility.yul\":7421:7500   */\n      tag_186\n      tag_53\n      jump\t// in\n    tag_186:\n        /* \"#utility.yul\":7385:7502   */\n    tag_185:\n        /* \"#utility.yul\":7526:7589   */\n      tag_187\n        /* \"#utility.yul\":7581:7588   */\n      dup11\n        /* \"#utility.yul\":7572:7578   */\n      dup3\n        /* \"#utility.yul\":7561:7570   */\n      dup12\n        /* \"#utility.yul\":7557:7579   */\n      add\n        /* \"#utility.yul\":7526:7589   */\n      tag_70\n      jump\t// in\n    tag_187:\n        /* \"#utility.yul\":7516:7589   */\n      swap3\n      pop\n        /* \"#utility.yul\":7310:7599   */\n      pop\n        /* \"#utility.yul\":7666:7669   */\n      0xc0\n        /* \"#utility.yul\":7655:7664   */\n      dup9\n        /* \"#utility.yul\":7651:7670   */\n      add\n        /* \"#utility.yul\":7638:7671   */\n      calldataload\n        /* \"#utility.yul\":7698:7716   */\n      0xffffffffffffffff\n        /* \"#utility.yul\":7690:7696   */\n      dup2\n        /* \"#utility.yul\":7687:7717   */\n      gt\n        /* \"#utility.yul\":7684:7801   */\n      iszero\n      tag_188\n      jumpi\n        /* \"#utility.yul\":7720:7799   */\n      tag_189\n      tag_53\n      jump\t// in\n    tag_189:\n        /* \"#utility.yul\":7684:7801   */\n    tag_188:\n        /* \"#utility.yul\":7825:7912   */\n      tag_190\n        /* \"#utility.yul\":7904:7911   */\n      dup11\n        /* \"#utility.yul\":7895:7901   */\n      dup3\n        /* \"#utility.yul\":7884:7893   */\n      dup12\n        /* \"#utility.yul\":7880:7902   */\n      add\n        /* \"#utility.yul\":7825:7912   */\n      tag_77\n      jump\t// in\n    tag_190:\n        /* \"#utility.yul\":7815:7912   */\n      swap2\n      pop\n        /* \"#utility.yul\":7609:7922   */\n      pop\n        /* \"#utility.yul\":6318:7929   */\n      swap3\n      swap6\n      swap9\n      swap2\n      swap5\n      swap8\n      pop\n      swap3\n      swap6\n      pop\n      jump\t// out\n        /* \"#utility.yul\":7935:8053   */\n    tag_78:\n        /* \"#utility.yul\":8022:8046   */\n      tag_192\n        /* \"#utility.yul\":8040:8045   */\n      dup2\n        /* \"#utility.yul\":8022:8046   */\n      tag_58\n      jump\t// in\n    tag_192:\n        /* \"#utility.yul\":8017:8020   */\n      dup3\n        /* \"#utility.yul\":8010:8047   */\n      mstore\n        /* \"#utility.yul\":7935:8053   */\n      pop\n      pop\n      jump\t// out\n        /* \"#utility.yul\":8059:8281   */\n    tag_11:\n        /* \"#utility.yul\":8152:8156   */\n      0x00\n        /* \"#utility.yul\":8190:8192   */\n      0x20\n        /* \"#utility.yul\":8179:8188   */\n      dup3\n        /* \"#utility.yul\":8175:8193   */\n      add\n        /* \"#utility.yul\":8167:8193   */\n      swap1\n      pop\n        /* \"#utility.yul\":8203:8274   */\n      tag_194\n        /* \"#utility.yul\":8271:8272   */\n      0x00\n        /* \"#utility.yul\":8260:8269   */\n      dup4\n        /* \"#utility.yul\":8256:8273   */\n      add\n        /* \"#utility.yul\":8247:8253   */\n      dup5\n        /* \"#utility.yul\":8203:8274   */\n      tag_78\n      jump\t// in\n    tag_194:\n        /* \"#utility.yul\":8059:8281   */\n      swap3\n      swap2\n      pop\n      pop\n      jump\t// out\n        /* \"#utility.yul\":8287:8395   */\n    tag_79:\n        /* \"#utility.yul\":8364:8388   */\n      tag_196\n        /* \"#utility.yul\":8382:8387   */\n      dup2\n        /* \"#utility.yul\":8364:8388   */\n      tag_58\n      jump\t// in\n    tag_196:\n        /* \"#utility.yul\":8359:8362   */\n      dup3\n        /* \"#utility.yul\":8352:8389   */\n      mstore\n        /* \"#utility.yul\":8287:8395   */\n      pop\n      pop\n      jump\t// out\n        /* \"#utility.yul\":8457:8958   */\n    tag_80:\n        /* \"#utility.yul\":8592:8596   */\n      0x40\n        /* \"#utility.yul\":8587:8590   */\n      dup3\n        /* \"#utility.yul\":8583:8597   */\n      add\n        /* \"#utility.yul\":8683:8687   */\n      0x00\n        /* \"#utility.yul\":8676:8681   */\n      dup3\n        /* \"#utility.yul\":8672:8688   */\n      add\n        /* \"#utility.yul\":8666:8689   */\n      mload\n        /* \"#utility.yul\":8702:8765   */\n      tag_198\n        /* \"#utility.yul\":8759:8763   */\n      0x00\n        /* \"#utility.yul\":8754:8757   */\n      dup6\n        /* \"#utility.yul\":8750:8764   */\n      add\n        /* \"#utility.yul\":8736:8748   */\n      dup3\n        /* \"#utility.yul\":8702:8765   */\n      tag_79\n      jump\t// in\n    tag_198:\n        /* \"#utility.yul\":8607:8775   */\n      pop\n        /* \"#utility.yul\":8859:8863   */\n      0x20\n        /* \"#utility.yul\":8852:8857   */\n      dup3\n        /* \"#utility.yul\":8848:8864   */\n      add\n        /* \"#utility.yul\":8842:8865   */\n      mload\n        /* \"#utility.yul\":8878:8941   */\n      tag_199\n        /* \"#utility.yul\":8935:8939   */\n      0x20\n        /* \"#utility.yul\":8930:8933   */\n      dup6\n        /* \"#utility.yul\":8926:8940   */\n      add\n        /* \"#utility.yul\":8912:8924   */\n      dup3\n        /* \"#utility.yul\":8878:8941   */\n      tag_79\n      jump\t// in\n    tag_199:\n        /* \"#utility.yul\":8785:8951   */\n      pop\n        /* \"#utility.yul\":8561:8958   */\n      pop\n        /* \"#utility.yul\":8457:8958   */\n      pop\n      pop\n      jump\t// out\n        /* \"#utility.yul\":8964:9054   */\n    tag_81:\n        /* \"#utility.yul\":8998:9005   */\n      0x00\n        /* \"#utility.yul\":9041:9046   */\n      dup2\n        /* \"#utility.yul\":9034:9047   */\n      iszero\n        /* \"#utility.yul\":9027:9048   */\n      iszero\n        /* \"#utility.yul\":9016:9048   */\n      swap1\n      pop\n        /* \"#utility.yul\":8964:9054   */\n      swap2\n      swap1\n      pop\n      jump\t// out\n        /* \"#utility.yul\":9060:9159   */\n    tag_82:\n        /* \"#utility.yul\":9131:9152   */\n      tag_202\n        /* \"#utility.yul\":9146:9151   */\n      dup2\n        /* \"#utility.yul\":9131:9152   */\n      tag_81\n      jump\t// in\n    tag_202:\n        /* \"#utility.yul\":9126:9129   */\n      dup3\n        /* \"#utility.yul\":9119:9153   */\n      mstore\n        /* \"#utility.yul\":9060:9159   */\n      pop\n      pop\n      jump\t// out\n        /* \"#utility.yul\":9239:10441   */\n    tag_83:\n        /* \"#utility.yul\":9392:9398   */\n      0x0100\n        /* \"#utility.yul\":9387:9390   */\n      dup3\n        /* \"#utility.yul\":9383:9399   */\n      add\n        /* \"#utility.yul\":9490:9494   */\n      0x00\n        /* \"#utility.yul\":9483:9488   */\n      dup3\n        /* \"#utility.yul\":9479:9495   */\n      add\n        /* \"#utility.yul\":9473:9496   */\n      mload\n        /* \"#utility.yul\":9509:9620   */\n      tag_204\n        /* \"#utility.yul\":9614:9618   */\n      0x00\n        /* \"#utility.yul\":9609:9612   */\n      dup6\n        /* \"#utility.yul\":9605:9619   */\n      add\n        /* \"#utility.yul\":9591:9603   */\n      dup3\n        /* \"#utility.yul\":9509:9620   */\n      tag_80\n      jump\t// in\n    tag_204:\n        /* \"#utility.yul\":9409:9630   */\n      pop\n        /* \"#utility.yul\":9719:9723   */\n      0x20\n        /* \"#utility.yul\":9712:9717   */\n      dup3\n        /* \"#utility.yul\":9708:9724   */\n      add\n        /* \"#utility.yul\":9702:9725   */\n      mload\n        /* \"#utility.yul\":9738:9849   */\n      tag_205\n        /* \"#utility.yul\":9843:9847   */\n      0x40\n        /* \"#utility.yul\":9838:9841   */\n      dup6\n        /* \"#utility.yul\":9834:9848   */\n      add\n        /* \"#utility.yul\":9820:9832   */\n      dup3\n        /* \"#utility.yul\":9738:9849   */\n      tag_80\n      jump\t// in\n    tag_205:\n        /* \"#utility.yul\":9640:9859   */\n      pop\n        /* \"#utility.yul\":9950:9954   */\n      0x40\n        /* \"#utility.yul\":9943:9948   */\n      dup3\n        /* \"#utility.yul\":9939:9955   */\n      add\n        /* \"#utility.yul\":9933:9956   */\n      mload\n        /* \"#utility.yul\":9969:10080   */\n      tag_206\n        /* \"#utility.yul\":10074:10078   */\n      0x80\n        /* \"#utility.yul\":10069:10072   */\n      dup6\n        /* \"#utility.yul\":10065:10079   */\n      add\n        /* \"#utility.yul\":10051:10063   */\n      dup3\n        /* \"#utility.yul\":9969:10080   */\n      tag_80\n      jump\t// in\n    tag_206:\n        /* \"#utility.yul\":9869:10090   */\n      pop\n        /* \"#utility.yul\":10176:10180   */\n      0x60\n        /* \"#utility.yul\":10169:10174   */\n      dup3\n        /* \"#utility.yul\":10165:10181   */\n      add\n        /* \"#utility.yul\":10159:10182   */\n      mload\n        /* \"#utility.yul\":10195:10252   */\n      tag_207\n        /* \"#utility.yul\":10246:10250   */\n      0xc0\n        /* \"#utility.yul\":10241:10244   */\n      dup6\n        /* \"#utility.yul\":10237:10251   */\n      add\n        /* \"#utility.yul\":10223:10235   */\n      dup3\n        /* \"#utility.yul\":10195:10252   */\n      tag_82\n      jump\t// in\n    tag_207:\n        /* \"#utility.yul\":10100:10262   */\n      pop\n        /* \"#utility.yul\":10348:10352   */\n      0x80\n        /* \"#utility.yul\":10341:10346   */\n      dup3\n        /* \"#utility.yul\":10337:10353   */\n      add\n        /* \"#utility.yul\":10331:10354   */\n      mload\n        /* \"#utility.yul\":10367:10424   */\n      tag_208\n        /* \"#utility.yul\":10418:10422   */\n      0xe0\n        /* \"#utility.yul\":10413:10416   */\n      dup6\n        /* \"#utility.yul\":10409:10423   */\n      add\n        /* \"#utility.yul\":10395:10407   */\n      dup3\n        /* \"#utility.yul\":10367:10424   */\n      tag_82\n      jump\t// in\n    tag_208:\n        /* \"#utility.yul\":10272:10434   */\n      pop\n        /* \"#utility.yul\":9361:10441   */\n      pop\n        /* \"#utility.yul\":9239:10441   */\n      pop\n      pop\n      jump\t// out\n        /* \"#utility.yul\":10447:10782   */\n    tag_15:\n        /* \"#utility.yul\":10596:10600   */\n      0x00\n        /* \"#utility.yul\":10634:10637   */\n      0x0100\n        /* \"#utility.yul\":10623:10632   */\n      dup3\n        /* \"#utility.yul\":10619:10638   */\n      add\n        /* \"#utility.yul\":10611:10638   */\n      swap1\n      pop\n        /* \"#utility.yul\":10648:10775   */\n      tag_210\n        /* \"#utility.yul\":10772:10773   */\n      0x00\n        /* \"#utility.yul\":10761:10770   */\n      dup4\n        /* \"#utility.yul\":10757:10774   */\n      add\n        /* \"#utility.yul\":10748:10754   */\n      dup5\n        /* \"#utility.yul\":10648:10775   */\n      tag_83\n      jump\t// in\n    tag_210:\n        /* \"#utility.yul\":10447:10782   */\n      swap3\n      swap2\n      pop\n      pop\n      jump\t// out\n        /* \"#utility.yul\":10788:10865   */\n    tag_84:\n        /* \"#utility.yul\":10825:10832   */\n      0x00\n        /* \"#utility.yul\":10854:10859   */\n      dup2\n        /* \"#utility.yul\":10843:10859   */\n      swap1\n      pop\n        /* \"#utility.yul\":10788:10865   */\n      swap2\n      swap1\n      pop\n      jump\t// out\n        /* \"#utility.yul\":10871:10993   */\n    tag_85:\n        /* \"#utility.yul\":10944:10968   */\n      tag_213\n        /* \"#utility.yul\":10962:10967   */\n      dup2\n        /* \"#utility.yul\":10944:10968   */\n      tag_84\n      jump\t// in\n    tag_213:\n        /* \"#utility.yul\":10937:10942   */\n      dup2\n        /* \"#utility.yul\":10934:10969   */\n      eq\n        /* \"#utility.yul\":10924:10987   */\n      tag_214\n      jumpi\n        /* \"#utility.yul\":10983:10984   */\n      0x00\n        /* \"#utility.yul\":10980:10981   */\n      dup1\n        /* \"#utility.yul\":10973:10985   */\n      revert\n        /* \"#utility.yul\":10924:10987   */\n    tag_214:\n        /* \"#utility.yul\":10871:10993   */\n      pop\n      jump\t// out\n        /* \"#utility.yul\":10999:11138   */\n    tag_86:\n        /* \"#utility.yul\":11045:11050   */\n      0x00\n        /* \"#utility.yul\":11083:11089   */\n      dup2\n        /* \"#utility.yul\":11070:11090   */\n      calldataload\n        /* \"#utility.yul\":11061:11090   */\n      swap1\n      pop\n        /* \"#utility.yul\":11099:11132   */\n      tag_216\n        /* \"#utility.yul\":11126:11131   */\n      dup2\n        /* \"#utility.yul\":11099:11132   */\n      tag_85\n      jump\t// in\n    tag_216:\n        /* \"#utility.yul\":10999:11138   */\n      swap3\n      swap2\n      pop\n      pop\n      jump\t// out\n        /* \"#utility.yul\":11144:12137   */\n    tag_18:\n        /* \"#utility.yul\":11264:11270   */\n      0x00\n        /* \"#utility.yul\":11272:11278   */\n      dup1\n        /* \"#utility.yul\":11280:11286   */\n      0x00\n        /* \"#utility.yul\":11288:11294   */\n      dup1\n        /* \"#utility.yul\":11337:11340   */\n      0x80\n        /* \"#utility.yul\":11325:11334   */\n      dup6\n        /* \"#utility.yul\":11316:11323   */\n      dup8\n        /* \"#utility.yul\":11312:11335   */\n      sub\n        /* \"#utility.yul\":11308:11341   */\n      slt\n        /* \"#utility.yul\":11305:11425   */\n      iszero\n      tag_218\n      jumpi\n        /* \"#utility.yul\":11344:11423   */\n      tag_219\n      tag_52\n      jump\t// in\n    tag_219:\n        /* \"#utility.yul\":11305:11425   */\n    tag_218:\n        /* \"#utility.yul\":11464:11465   */\n      0x00\n        /* \"#utility.yul\":11489:11542   */\n      tag_220\n        /* \"#utility.yul\":11534:11541   */\n      dup8\n        /* \"#utility.yul\":11525:11531   */\n      dup3\n        /* \"#utility.yul\":11514:11523   */\n      dup9\n        /* \"#utility.yul\":11510:11532   */\n      add\n        /* \"#utility.yul\":11489:11542   */\n      tag_57\n      jump\t// in\n    tag_220:\n        /* \"#utility.yul\":11479:11542   */\n      swap5\n      pop\n        /* \"#utility.yul\":11435:11552   */\n      pop\n        /* \"#utility.yul\":11591:11593   */\n      0x20\n        /* \"#utility.yul\":11617:11670   */\n      tag_221\n        /* \"#utility.yul\":11662:11669   */\n      dup8\n        /* \"#utility.yul\":11653:11659   */\n      dup3\n        /* \"#utility.yul\":11642:11651   */\n      dup9\n        /* \"#utility.yul\":11638:11660   */\n      add\n        /* \"#utility.yul\":11617:11670   */\n      tag_57\n      jump\t// in\n    tag_221:\n        /* \"#utility.yul\":11607:11670   */\n      swap4\n      pop\n        /* \"#utility.yul\":11562:11680   */\n      pop\n        /* \"#utility.yul\":11747:11749   */\n      0x40\n        /* \"#utility.yul\":11736:11745   */\n      dup6\n        /* \"#utility.yul\":11732:11750   */\n      add\n        /* \"#utility.yul\":11719:11751   */\n      calldataload\n        /* \"#utility.yul\":11778:11796   */\n      0xffffffffffffffff\n        /* \"#utility.yul\":11770:11776   */\n      dup2\n        /* \"#utility.yul\":11767:11797   */\n      gt\n        /* \"#utility.yul\":11764:11881   */\n      iszero\n      tag_222\n      jumpi\n        /* \"#utility.yul\":11800:11879   */\n      tag_223\n      tag_53\n      jump\t// in\n    tag_223:\n        /* \"#utility.yul\":11764:11881   */\n    tag_222:\n        /* \"#utility.yul\":11905:11992   */\n      tag_224\n        /* \"#utility.yul\":11984:11991   */\n      dup8\n        /* \"#utility.yul\":11975:11981   */\n      dup3\n        /* \"#utility.yul\":11964:11973   */\n      dup9\n        /* \"#utility.yul\":11960:11982   */\n      add\n        /* \"#utility.yul\":11905:11992   */\n      tag_77\n      jump\t// in\n    tag_224:\n        /* \"#utility.yul\":11895:11992   */\n      swap3\n      pop\n        /* \"#utility.yul\":11690:12002   */\n      pop\n        /* \"#utility.yul\":12041:12043   */\n      0x60\n        /* \"#utility.yul\":12067:12120   */\n      tag_225\n        /* \"#utility.yul\":12112:12119   */\n      dup8\n        /* \"#utility.yul\":12103:12109   */\n      dup3\n        /* \"#utility.yul\":12092:12101   */\n      dup9\n        /* \"#utility.yul\":12088:12110   */\n      add\n        /* \"#utility.yul\":12067:12120   */\n      tag_86\n      jump\t// in\n    tag_225:\n        /* \"#utility.yul\":12057:12120   */\n      swap2\n      pop\n        /* \"#utility.yul\":12012:12130   */\n      pop\n        /* \"#utility.yul\":11144:12137   */\n      swap3\n      swap6\n      swap2\n      swap5\n      pop\n      swap3\n      pop\n      jump\t// out\n        /* \"#utility.yul\":12143:12323   */\n    tag_87:\n        /* \"#utility.yul\":12191:12268   */\n      0x4e487b7100000000000000000000000000000000000000000000000000000000\n        /* \"#utility.yul\":12188:12189   */\n      0x00\n        /* \"#utility.yul\":12181:12269   */\n      mstore\n        /* \"#utility.yul\":12288:12292   */\n      0x11\n        /* \"#utility.yul\":12285:12286   */\n      0x04\n        /* \"#utility.yul\":12278:12293   */\n      mstore\n        /* \"#utility.yul\":12312:12316   */\n      0x24\n        /* \"#utility.yul\":12309:12310   */\n      0x00\n        /* \"#utility.yul\":12302:12317   */\n      revert\n        /* \"#utility.yul\":12329:12677   */\n    tag_24:\n        /* \"#utility.yul\":12369:12376   */\n      0x00\n        /* \"#utility.yul\":12392:12412   */\n      tag_228\n        /* \"#utility.yul\":12410:12411   */\n      dup3\n        /* \"#utility.yul\":12392:12412   */\n      tag_58\n      jump\t// in\n    tag_228:\n        /* \"#utility.yul\":12387:12412   */\n      swap2\n      pop\n        /* \"#utility.yul\":12426:12446   */\n      tag_229\n        /* \"#utility.yul\":12444:12445   */\n      dup4\n        /* \"#utility.yul\":12426:12446   */\n      tag_58\n      jump\t// in\n    tag_229:\n        /* \"#utility.yul\":12421:12446   */\n      swap3\n      pop\n        /* \"#utility.yul\":12614:12615   */\n      dup2\n        /* \"#utility.yul\":12546:12612   */\n      0xffffffffffffffffffffffffffffffffffffffffffffffffffffffffffffffff\n        /* \"#utility.yul\":12542:12616   */\n      div\n        /* \"#utility.yul\":12539:12540   */\n      dup4\n        /* \"#utility.yul\":12536:12617   */\n      gt\n        /* \"#utility.yul\":12531:12532   */\n      dup3\n        /* \"#utility.yul\":12524:12533   */\n      iszero\n        /* \"#utility.yul\":12517:12534   */\n      iszero\n        /* \"#utility.yul\":12513:12618   */\n      and\n        /* \"#utility.yul\":12510:12641   */\n      iszero\n      tag_230\n      jumpi\n        /* \"#utility.yul\":12621:12639   */\n      tag_231\n      tag_87\n      jump\t// in\n    tag_231:\n        /* \"#utility.yul\":12510:12641   */\n    tag_230:\n        /* \"#utility.yul\":12669:12670   */\n      dup3\n        /* \"#utility.yul\":12666:12667   */\n      dup3\n        /* \"#utility.yul\":12662:12671   */\n      mul\n        /* \"#utility.yul\":12651:12671   */\n      swap1\n      pop\n        /* \"#utility.yul\":12329:12677   */\n      swap3\n      swap2\n      pop\n      pop\n      jump\t// out\n        /* \"#utility.yul\":12683:12988   */\n    tag_28:\n        /* \"#utility.yul\":12723:12726   */\n      0x00\n        /* \"#utility.yul\":12742:12762   */\n      tag_233\n        /* \"#utility.yul\":12760:12761   */\n      dup3\n        /* \"#utility.yul\":12742:12762   */\n      tag_58\n      jump\t// in\n    tag_233:\n        /* \"#utility.yul\":12737:12762   */\n      swap2\n      pop\n        /* \"#utility.yul\":12776:12796   */\n      tag_234\n        /* \"#utility.yul\":12794:12795   */\n      dup4\n        /* \"#utility.yul\":12776:12796   */\n      tag_58\n      jump\t// in\n    tag_234:\n        /* \"#utility.yul\":12771:12796   */\n      swap3\n      pop\n        /* \"#utility.yul\":12930:12931   */\n      dup3\n        /* \"#utility.yul\":12862:12928   */\n      0xffffffffffffffffffffffffffffffffffffffffffffffffffffffffffffffff\n        /* \"#utility.yul\":12858:12932   */\n      sub\n        /* \"#utility.yul\":12855:12856   */\n      dup3\n        /* \"#utility.yul\":12852:12933   */\n      gt\n        /* \"#utility.yul\":12849:12956   */\n      iszero\n      tag_235\n      jumpi\n        /* \"#utility.yul\":12936:12954   */\n      tag_236\n      tag_87\n      jump\t// in\n    tag_236:\n        /* \"#utility.yul\":12849:12956   */\n    tag_235:\n        /* \"#utility.yul\":12980:12981   */\n      dup3\n        /* \"#utility.yul\":12977:12978   */\n      dup3\n        /* \"#utility.yul\":12973:12982   */\n      add\n        /* \"#utility.yul\":12966:12982   */\n      swap1\n      pop\n        /* \"#utility.yul\":12683:12988   */\n      swap3\n      swap2\n      pop\n      pop\n      jump\t// out\n        /* \"#utility.yul\":12994:13112   */\n    tag_88:\n        /* \"#utility.yul\":13081:13105   */\n      tag_238\n        /* \"#utility.yul\":13099:13104   */\n      dup2\n        /* \"#utility.yul\":13081:13105   */\n      tag_55\n      jump\t// in\n    tag_238:\n        /* \"#utility.yul\":13076:13079   */\n      dup3\n        /* \"#utility.yul\":13069:13106   */\n      mstore\n        /* \"#utility.yul\":12994:13112   */\n      pop\n      pop\n      jump\t// out\n        /* \"#utility.yul\":13118:13241   */\n    tag_89:\n        /* \"#utility.yul\":13194:13200   */\n      0x00\n        /* \"#utility.yul\":13228:13233   */\n      dup2\n        /* \"#utility.yul\":13222:13234   */\n      mload\n        /* \"#utility.yul\":13212:13234   */\n      swap1\n      pop\n        /* \"#utility.yul\":13118:13241   */\n      swap2\n      swap1\n      pop\n      jump\t// out\n        /* \"#utility.yul\":13247:13440   */\n    tag_90:\n        /* \"#utility.yul\":13355:13366   */\n      0x00\n        /* \"#utility.yul\":13389:13395   */\n      dup3\n        /* \"#utility.yul\":13384:13387   */\n      dup3\n        /* \"#utility.yul\":13377:13396   */\n      mstore\n        /* \"#utility.yul\":13429:13433   */\n      0x20\n        /* \"#utility.yul\":13424:13427   */\n      dup3\n        /* \"#utility.yul\":13420:13434   */\n      add\n        /* \"#utility.yul\":13405:13434   */\n      swap1\n      pop\n        /* \"#utility.yul\":13247:13440   */\n      swap3\n      swap2\n      pop\n      pop\n      jump\t// out\n        /* \"#utility.yul\":13446:13587   */\n    tag_91:\n        /* \"#utility.yul\":13522:13526   */\n      0x00\n        /* \"#utility.yul\":13545:13548   */\n      dup2\n        /* \"#utility.yul\":13537:13548   */\n      swap1\n      pop\n        /* \"#utility.yul\":13575:13579   */\n      0x20\n        /* \"#utility.yul\":13570:13573   */\n      dup3\n        /* \"#utility.yul\":13566:13580   */\n      add\n        /* \"#utility.yul\":13558:13580   */\n      swap1\n      pop\n        /* \"#utility.yul\":13446:13587   */\n      swap2\n      swap1\n      pop\n      jump\t// out\n        /* \"#utility.yul\":13593:13691   */\n    tag_92:\n        /* \"#utility.yul\":13644:13650   */\n      0x00\n        /* \"#utility.yul\":13678:13683   */\n      dup2\n        /* \"#utility.yul\":13672:13684   */\n      mload\n        /* \"#utility.yul\":13662:13684   */\n      swap1\n      pop\n        /* \"#utility.yul\":13593:13691   */\n      swap2\n      swap1\n      pop\n      jump\t// out\n        /* \"#utility.yul\":13697:13855   */\n    tag_93:\n        /* \"#utility.yul\":13770:13781   */\n      0x00\n        /* \"#utility.yul\":13804:13810   */\n      dup3\n        /* \"#utility.yul\":13799:13802   */\n      dup3\n        /* \"#utility.yul\":13792:13811   */\n      mstore\n        /* \"#utility.yul\":13844:13848   */\n      0x20\n        /* \"#utility.yul\":13839:13842   */\n      dup3\n        /* \"#utility.yul\":13835:13849   */\n      add\n        /* \"#utility.yul\":13820:13849   */\n      swap1\n      pop\n        /* \"#utility.yul\":13697:13855   */\n      swap3\n      swap2\n      pop\n      pop\n      jump\t// out\n        /* \"#utility.yul\":13861:14168   */\n    tag_94:\n        /* \"#utility.yul\":13929:13930   */\n      0x00\n        /* \"#utility.yul\":13939:14052   */\n    tag_245:\n        /* \"#utility.yul\":13953:13959   */\n      dup4\n        /* \"#utility.yul\":13950:13951   */\n      dup2\n        /* \"#utility.yul\":13947:13960   */\n      lt\n        /* \"#utility.yul\":13939:14052   */\n      iszero\n      tag_247\n      jumpi\n        /* \"#utility.yul\":14038:14039   */\n      dup1\n        /* \"#utility.yul\":14033:14036   */\n      dup3\n        /* \"#utility.yul\":14029:14040   */\n      add\n        /* \"#utility.yul\":14023:14041   */\n      mload\n        /* \"#utility.yul\":14019:14020   */\n      dup2\n        /* \"#utility.yul\":14014:14017   */\n      dup5\n        /* \"#utility.yul\":14010:14021   */\n      add\n        /* \"#utility.yul\":14003:14042   */\n      mstore\n        /* \"#utility.yul\":13975:13977   */\n      0x20\n        /* \"#utility.yul\":13972:13973   */\n      dup2\n        /* \"#utility.yul\":13968:13978   */\n      add\n        /* \"#utility.yul\":13963:13978   */\n      swap1\n      pop\n        /* \"#utility.yul\":13939:14052   */\n      jump(tag_245)\n    tag_247:\n        /* \"#utility.yul\":14070:14076   */\n      dup4\n        /* \"#utility.yul\":14067:14068   */\n      dup2\n        /* \"#utility.yul\":14064:14077   */\n      gt\n        /* \"#utility.yul\":14061:14162   */\n      iszero\n      tag_248\n      jumpi\n        /* \"#utility.yul\":14150:14151   */\n      0x00\n        /* \"#utility.yul\":14141:14147   */\n      dup5\n        /* \"#utility.yul\":14136:14139   */\n      dup5\n        /* \"#utility.yul\":14132:14148   */\n      add\n        /* \"#utility.yul\":14125:14152   */\n      mstore\n        /* \"#utility.yul\":14061:14162   */\n    tag_248:\n        /* \"#utility.yul\":13910:14168   */\n      pop\n        /* \"#utility.yul\":13861:14168   */\n      pop\n      pop\n      pop\n      jump\t// out\n        /* \"#utility.yul\":14174:14514   */\n    tag_95:\n        /* \"#utility.yul\":14250:14253   */\n      0x00\n        /* \"#utility.yul\":14278:14316   */\n      tag_250\n        /* \"#utility.yul\":14310:14315   */\n      dup3\n        /* \"#utility.yul\":14278:14316   */\n      tag_92\n      jump\t// in\n    tag_250:\n        /* \"#utility.yul\":14332:14392   */\n      tag_251\n        /* \"#utility.yul\":14385:14391   */\n      dup2\n        /* \"#utility.yul\":14380:14383   */\n      dup6\n        /* \"#utility.yul\":14332:14392   */\n      tag_93\n      jump\t// in\n    tag_251:\n        /* \"#utility.yul\":14325:14392   */\n      swap4\n      pop\n        /* \"#utility.yul\":14401:14453   */\n      tag_252\n        /* \"#utility.yul\":14446:14452   */\n      dup2\n        /* \"#utility.yul\":14441:14444   */\n      dup6\n        /* \"#utility.yul\":14434:14438   */\n      0x20\n        /* \"#utility.yul\":14427:14432   */\n      dup7\n        /* \"#utility.yul\":14423:14439   */\n      add\n        /* \"#utility.yul\":14401:14453   */\n      tag_94\n      jump\t// in\n    tag_252:\n        /* \"#utility.yul\":14478:14507   */\n      tag_253\n        /* \"#utility.yul\":14500:14506   */\n      dup2\n        /* \"#utility.yul\":14478:14507   */\n      tag_63\n      jump\t// in\n    tag_253:\n        /* \"#utility.yul\":14473:14476   */\n      dup5\n        /* \"#utility.yul\":14469:14508   */\n      add\n        /* \"#utility.yul\":14462:14508   */\n      swap2\n      pop\n        /* \"#utility.yul\":14254:14514   */\n      pop\n        /* \"#utility.yul\":14174:14514   */\n      swap3\n      swap2\n      pop\n      pop\n      jump\t// out\n        /* \"#utility.yul\":14520:14712   */\n    tag_96:\n        /* \"#utility.yul\":14607:14617   */\n      0x00\n        /* \"#utility.yul\":14642:14706   */\n      tag_255\n        /* \"#utility.yul\":14702:14705   */\n      dup4\n        /* \"#utility.yul\":14694:14700   */\n      dup4\n        /* \"#utility.yul\":14642:14706   */\n      tag_95\n      jump\t// in\n    tag_255:\n        /* \"#utility.yul\":14628:14706   */\n      swap1\n      pop\n        /* \"#utility.yul\":14520:14712   */\n      swap3\n      swap2\n      pop\n      pop\n      jump\t// out\n        /* \"#utility.yul\":14718:14840   */\n    tag_97:\n        /* \"#utility.yul\":14797:14801   */\n      0x00\n        /* \"#utility.yul\":14829:14833   */\n      0x20\n        /* \"#utility.yul\":14824:14827   */\n      dup3\n        /* \"#utility.yul\":14820:14834   */\n      add\n        /* \"#utility.yul\":14812:14834   */\n      swap1\n      pop\n        /* \"#utility.yul\":14718:14840   */\n      swap2\n      swap1\n      pop\n      jump\t// out\n        /* \"#utility.yul\":14872:15855   */\n    tag_98:\n        /* \"#utility.yul\":15009:15012   */\n      0x00\n        /* \"#utility.yul\":15038:15101   */\n      tag_258\n        /* \"#utility.yul\":15095:15100   */\n      dup3\n        /* \"#utility.yul\":15038:15101   */\n      tag_89\n      jump\t// in\n    tag_258:\n        /* \"#utility.yul\":15117:15212   */\n      tag_259\n        /* \"#utility.yul\":15205:15211   */\n      dup2\n        /* \"#utility.yul\":15200:15203   */\n      dup6\n        /* \"#utility.yul\":15117:15212   */\n      tag_90\n      jump\t// in\n    tag_259:\n        /* \"#utility.yul\":15110:15212   */\n      swap4\n      pop\n        /* \"#utility.yul\":15238:15241   */\n      dup4\n        /* \"#utility.yul\":15283:15287   */\n      0x20\n        /* \"#utility.yul\":15275:15281   */\n      dup3\n        /* \"#utility.yul\":15271:15288   */\n      mul\n        /* \"#utility.yul\":15266:15269   */\n      dup6\n        /* \"#utility.yul\":15262:15289   */\n      add\n        /* \"#utility.yul\":15313:15378   */\n      tag_260\n        /* \"#utility.yul\":15372:15377   */\n      dup6\n        /* \"#utility.yul\":15313:15378   */\n      tag_91\n      jump\t// in\n    tag_260:\n        /* \"#utility.yul\":15401:15408   */\n      dup1\n        /* \"#utility.yul\":15432:15433   */\n      0x00\n        /* \"#utility.yul\":15417:15810   */\n    tag_261:\n        /* \"#utility.yul\":15442:15448   */\n      dup6\n        /* \"#utility.yul\":15439:15440   */\n      dup2\n        /* \"#utility.yul\":15436:15449   */\n      lt\n        /* \"#utility.yul\":15417:15810   */\n      iszero\n      tag_263\n      jumpi\n        /* \"#utility.yul\":15513:15522   */\n      dup5\n        /* \"#utility.yul\":15507:15511   */\n      dup5\n        /* \"#utility.yul\":15503:15523   */\n      sub\n        /* \"#utility.yul\":15498:15501   */\n      dup10\n        /* \"#utility.yul\":15491:15524   */\n      mstore\n        /* \"#utility.yul\":15564:15570   */\n      dup2\n        /* \"#utility.yul\":15558:15571   */\n      mload\n        /* \"#utility.yul\":15592:15674   */\n      tag_264\n        /* \"#utility.yul\":15669:15673   */\n      dup6\n        /* \"#utility.yul\":15654:15667   */\n      dup3\n        /* \"#utility.yul\":15592:15674   */\n      tag_96\n      jump\t// in\n    tag_264:\n        /* \"#utility.yul\":15584:15674   */\n      swap5\n      pop\n        /* \"#utility.yul\":15697:15766   */\n      tag_265\n        /* \"#utility.yul\":15759:15765   */\n      dup4\n        /* \"#utility.yul\":15697:15766   */\n      tag_97\n      jump\t// in\n    tag_265:\n        /* \"#utility.yul\":15687:15766   */\n      swap3\n      pop\n        /* \"#utility.yul\":15795:15799   */\n      0x20\n        /* \"#utility.yul\":15790:15793   */\n      dup11\n        /* \"#utility.yul\":15786:15800   */\n      add\n        /* \"#utility.yul\":15779:15800   */\n      swap10\n      pop\n        /* \"#utility.yul\":15477:15810   */\n      pop\n        /* \"#utility.yul\":15464:15465   */\n      0x01\n        /* \"#utility.yul\":15461:15462   */\n      dup2\n        /* \"#utility.yul\":15457:15466   */\n      add\n        /* \"#utility.yul\":15452:15466   */\n      swap1\n      pop\n        /* \"#utility.yul\":15417:15810   */\n      jump(tag_261)\n    tag_263:\n        /* \"#utility.yul\":15421:15435   */\n      pop\n        /* \"#utility.yul\":15826:15830   */\n      dup3\n        /* \"#utility.yul\":15819:15830   */\n      swap8\n      pop\n        /* \"#utility.yul\":15846:15849   */\n      dup8\n        /* \"#utility.yul\":15839:15849   */\n      swap6\n      pop\n        /* \"#utility.yul\":15014:15855   */\n      pop\n      pop\n      pop\n      pop\n      pop\n        /* \"#utility.yul\":14872:15855   */\n      swap3\n      swap2\n      pop\n      pop\n      jump\t// out\n        /* \"#utility.yul\":15861:15979   */\n    tag_99:\n        /* \"#utility.yul\":15948:15972   */\n      tag_267\n        /* \"#utility.yul\":15966:15971   */\n      dup2\n        /* \"#utility.yul\":15948:15972   */\n      tag_84\n      jump\t// in\n    tag_267:\n        /* \"#utility.yul\":15943:15946   */\n      dup3\n        /* \"#utility.yul\":15936:15973   */\n      mstore\n        /* \"#utility.yul\":15861:15979   */\n      pop\n      pop\n      jump\t// out\n        /* \"#utility.yul\":15985:16725   */\n    tag_43:\n        /* \"#utility.yul\":16230:16234   */\n      0x00\n        /* \"#utility.yul\":16268:16271   */\n      0x80\n        /* \"#utility.yul\":16257:16266   */\n      dup3\n        /* \"#utility.yul\":16253:16272   */\n      add\n        /* \"#utility.yul\":16245:16272   */\n      swap1\n      pop\n        /* \"#utility.yul\":16282:16353   */\n      tag_269\n        /* \"#utility.yul\":16350:16351   */\n      0x00\n        /* \"#utility.yul\":16339:16348   */\n      dup4\n        /* \"#utility.yul\":16335:16352   */\n      add\n        /* \"#utility.yul\":16326:16332   */\n      dup8\n        /* \"#utility.yul\":16282:16353   */\n      tag_88\n      jump\t// in\n    tag_269:\n        /* \"#utility.yul\":16363:16435   */\n      tag_270\n        /* \"#utility.yul\":16431:16433   */\n      0x20\n        /* \"#utility.yul\":16420:16429   */\n      dup4\n        /* \"#utility.yul\":16416:16434   */\n      add\n        /* \"#utility.yul\":16407:16413   */\n      dup7\n        /* \"#utility.yul\":16363:16435   */\n      tag_88\n      jump\t// in\n    tag_270:\n        /* \"#utility.yul\":16482:16491   */\n      dup2\n        /* \"#utility.yul\":16476:16480   */\n      dup2\n        /* \"#utility.yul\":16472:16492   */\n      sub\n        /* \"#utility.yul\":16467:16469   */\n      0x40\n        /* \"#utility.yul\":16456:16465   */\n      dup4\n        /* \"#utility.yul\":16452:16470   */\n      add\n        /* \"#utility.yul\":16445:16493   */\n      mstore\n        /* \"#utility.yul\":16510:16636   */\n      tag_271\n        /* \"#utility.yul\":16631:16635   */\n      dup2\n        /* \"#utility.yul\":16622:16628   */\n      dup6\n        /* \"#utility.yul\":16510:16636   */\n      tag_98\n      jump\t// in\n    tag_271:\n        /* \"#utility.yul\":16502:16636   */\n      swap1\n      pop\n        /* \"#utility.yul\":16646:16718   */\n      tag_272\n        /* \"#utility.yul\":16714:16716   */\n      0x60\n        /* \"#utility.yul\":16703:16712   */\n      dup4\n        /* \"#utility.yul\":16699:16717   */\n      add\n        /* \"#utility.yul\":16690:16696   */\n      dup5\n        /* \"#utility.yul\":16646:16718   */\n      tag_99\n      jump\t// in\n    tag_272:\n        /* \"#utility.yul\":15985:16725   */\n      swap6\n      swap5\n      pop\n      pop\n      pop\n      pop\n      pop\n      jump\t// out\n\n    auxdata: 0xa2646970667358221220ee72a0dffb2f3ba303797b97954584b5bf426be6e46be0ff885a6df3f20472c364736f6c634300080d0033\n}\n",
				"bytecode": {
					"linkReferences": {},
					"object": "608060405234801561001057600080fd5b50610c1f806100206000396000f3fe608060405234801561001057600080fd5b50600436106100415760003560e01c806342f9d5be146100465780636d4ce63c14610076578063ee4d602014610094575b600080fd5b610060600480360381019061005b91906106bb565b6100c4565b60405161006d91906107a4565b60405180910390f35b61007e6101ac565b60405161008b9190610881565b60405180910390f35b6100ae60048036038101906100a991906108d3565b610284565b6040516100bb91906107a4565b60405180910390f35b6000806100da8986858780519060200120610284565b9050600080600083815260200190815260200160002090506000603c8060188c6101049190610985565b61010e9190610985565b6101189190610985565b4261012391906109df565b90506000603c8060188c6101379190610985565b6101419190610985565b61014b9190610985565b8261015691906109df565b905061016e82846000016102c090919063ffffffff16565b61018481846002016102c090919063ffffffff16565b61019a89846004016102da90919063ffffffff16565b83945050505050979650505050505050565b6101b46102e7565b6000808081526020019081526020016000206040518060a00160405290816000820160405180604001604052908160008201548152602001600182015481525050815260200160028201604051806040016040529081600082015481526020016001820154815250508152602001600482016040518060400160405290816000820154815260200160018201548152505081526020016006820160009054906101000a900460ff161515151581526020016006820160019054906101000a900460ff161515151581525050905090565b60008484848460405160200161029d9493929190610b9d565b6040516020818303038152906040528051906020012060001c9050949350505050565b6103e8816102ce9190610985565b82600001819055505050565b8082600101819055505050565b6040518060a001604052806102fa61032c565b815260200161030761032c565b815260200161031461032c565b81526020016000151581526020016000151581525090565b604051806040016040528060008152602001600081525090565b6000604051905090565b600080fd5b600080fd5b600073ffffffffffffffffffffffffffffffffffffffff82169050919050565b60006103858261035a565b9050919050565b6103958161037a565b81146103a057600080fd5b50565b6000813590506103b28161038c565b92915050565b6000819050919050565b6103cb816103b8565b81146103d657600080fd5b50565b6000813590506103e8816103c2565b92915050565b600080fd5b600080fd5b6000601f19601f8301169050919050565b7f4e487b7100000000000000000000000000000000000000000000000000000000600052604160045260246000fd5b610441826103f8565b810181811067ffffffffffffffff821117156104605761045f610409565b5b80604052505050565b6000610473610346565b905061047f8282610438565b919050565b600067ffffffffffffffff82111561049f5761049e610409565b5b6104a8826103f8565b9050602081019050919050565b82818337600083830152505050565b60006104d76104d284610484565b610469565b9050828152602081018484840111156104f3576104f26103f3565b5b6104fe8482856104b5565b509392505050565b600082601f83011261051b5761051a6103ee565b5b813561052b8482602086016104c4565b91505092915050565b600067ffffffffffffffff82111561054f5761054e610409565b5b602082029050602081019050919050565b600080fd5b600067ffffffffffffffff8211156105805761057f610409565b5b610589826103f8565b9050602081019050919050565b60006105a96105a484610565565b610469565b9050828152602081018484840111156105c5576105c46103f3565b5b6105d08482856104b5565b509392505050565b600082601f8301126105ed576105ec6103ee565b5b81356105fd848260208601610596565b91505092915050565b600061061961061484610534565b610469565b9050808382526020820190506020840283018581111561063c5761063b610560565b5b835b8181101561068357803567ffffffffffffffff811115610661576106606103ee565b5b80860161066e89826105d8565b8552602085019450505060208101905061063e565b5050509392505050565b600082601f8301126106a2576106a16103ee565b5b81356106b2848260208601610606565b91505092915050565b600080600080600080600060e0888a0312156106da576106d9610350565b5b60006106e88a828b016103a3565b97505060206106f98a828b016103d9565b965050604061070a8a828b016103d9565b955050606061071b8a828b016103d9565b945050608061072c8a828b016103a3565b93505060a088013567ffffffffffffffff81111561074d5761074c610355565b5b6107598a828b01610506565b92505060c088013567ffffffffffffffff81111561077a57610779610355565b5b6107868a828b0161068d565b91505092959891949750929550565b61079e816103b8565b82525050565b60006020820190506107b96000830184610795565b92915050565b6107c8816103b8565b82525050565b6040820160008201516107e460008501826107bf565b5060208201516107f760208501826107bf565b50505050565b60008115159050919050565b610812816107fd565b82525050565b6101008201600082015161082f60008501826107ce565b50602082015161084260408501826107ce565b50604082015161085560808501826107ce565b50606082015161086860c0850182610809565b50608082015161087b60e0850182610809565b50505050565b6000610100820190506108976000830184610818565b92915050565b6000819050919050565b6108b08161089d565b81146108bb57600080fd5b50565b6000813590506108cd816108a7565b92915050565b600080600080608085870312156108ed576108ec610350565b5b60006108fb878288016103a3565b945050602061090c878288016103a3565b935050604085013567ffffffffffffffff81111561092d5761092c610355565b5b6109398782880161068d565b925050606061094a878288016108be565b91505092959194509250565b7f4e487b7100000000000000000000000000000000000000000000000000000000600052601160045260246000fd5b6000610990826103b8565b915061099b836103b8565b9250817fffffffffffffffffffffffffffffffffffffffffffffffffffffffffffffffff04831182151516156109d4576109d3610956565b5b828202905092915050565b60006109ea826103b8565b91506109f5836103b8565b9250827fffffffffffffffffffffffffffffffffffffffffffffffffffffffffffffffff03821115610a2a57610a29610956565b5b828201905092915050565b610a3e8161037a565b82525050565b600081519050919050565b600082825260208201905092915050565b6000819050602082019050919050565b600081519050919050565b600082825260208201905092915050565b60005b83811015610aaa578082015181840152602081019050610a8f565b83811115610ab9576000848401525b50505050565b6000610aca82610a70565b610ad48185610a7b565b9350610ae4818560208601610a8c565b610aed816103f8565b840191505092915050565b6000610b048383610abf565b905092915050565b6000602082019050919050565b6000610b2482610a44565b610b2e8185610a4f565b935083602082028501610b4085610a60565b8060005b85811015610b7c5784840389528151610b5d8582610af8565b9450610b6883610b0c565b925060208a01995050600181019050610b44565b50829750879550505050505092915050565b610b978161089d565b82525050565b6000608082019050610bb26000830187610a35565b610bbf6020830186610a35565b8181036040830152610bd18185610b19565b9050610be06060830184610b8e565b9594505050505056fea2646970667358221220ee72a0dffb2f3ba303797b97954584b5bf426be6e46be0ff885a6df3f20472c364736f6c634300080d0033",
					"opcodes": "PUSH1 0x80 PUSH1 0x40 MSTORE CALLVALUE DUP1 ISZERO PUSH2 0x10 JUMPI PUSH1 0x0 DUP1 REVERT JUMPDEST POP PUSH2 0xC1F DUP1 PUSH2 0x20 PUSH1 0x0 CODECOPY PUSH1 0x0 RETURN INVALID PUSH1 0x80 PUSH1 0x40 MSTORE CALLVALUE DUP1 ISZERO PUSH2 0x10 JUMPI PUSH1 0x0 DUP1 REVERT JUMPDEST POP PUSH1 0x4 CALLDATASIZE LT PUSH2 0x41 JUMPI PUSH1 0x0 CALLDATALOAD PUSH1 0xE0 SHR DUP1 PUSH4 0x42F9D5BE EQ PUSH2 0x46 JUMPI DUP1 PUSH4 0x6D4CE63C EQ PUSH2 0x76 JUMPI DUP1 PUSH4 0xEE4D6020 EQ PUSH2 0x94 JUMPI JUMPDEST PUSH1 0x0 DUP1 REVERT JUMPDEST PUSH2 0x60 PUSH1 0x4 DUP1 CALLDATASIZE SUB DUP2 ADD SWAP1 PUSH2 0x5B SWAP2 SWAP1 PUSH2 0x6BB JUMP JUMPDEST PUSH2 0xC4 JUMP JUMPDEST PUSH1 0x40 MLOAD PUSH2 0x6D SWAP2 SWAP1 PUSH2 0x7A4 JUMP JUMPDEST PUSH1 0x40 MLOAD DUP1 SWAP2 SUB SWAP1 RETURN JUMPDEST PUSH2 0x7E PUSH2 0x1AC JUMP JUMPDEST PUSH1 0x40 MLOAD PUSH2 0x8B SWAP2 SWAP1 PUSH2 0x881 JUMP JUMPDEST PUSH1 0x40 MLOAD DUP1 SWAP2 SUB SWAP1 RETURN JUMPDEST PUSH2 0xAE PUSH1 0x4 DUP1 CALLDATASIZE SUB DUP2 ADD SWAP1 PUSH2 0xA9 SWAP2 SWAP1 PUSH2 0x8D3 JUMP JUMPDEST PUSH2 0x284 JUMP JUMPDEST PUSH1 0x40 MLOAD PUSH2 0xBB SWAP2 SWAP1 PUSH2 0x7A4 JUMP JUMPDEST PUSH1 0x40 MLOAD DUP1 SWAP2 SUB SWAP1 RETURN JUMPDEST PUSH1 0x0 DUP1 PUSH2 0xDA DUP10 DUP7 DUP6 DUP8 DUP1 MLOAD SWAP1 PUSH1 0x20 ADD KECCAK256 PUSH2 0x284 JUMP JUMPDEST SWAP1 POP PUSH1 0x0 DUP1 PUSH1 0x0 DUP4 DUP2 MSTORE PUSH1 0x20 ADD SWAP1 DUP2 MSTORE PUSH1 0x20 ADD PUSH1 0x0 KECCAK256 SWAP1 POP PUSH1 0x0 PUSH1 0x3C DUP1 PUSH1 0x18 DUP13 PUSH2 0x104 SWAP2 SWAP1 PUSH2 0x985 JUMP JUMPDEST PUSH2 0x10E SWAP2 SWAP1 PUSH2 0x985 JUMP JUMPDEST PUSH2 0x118 SWAP2 SWAP1 PUSH2 0x985 JUMP JUMPDEST TIMESTAMP PUSH2 0x123 SWAP2 SWAP1 PUSH2 0x9DF JUMP JUMPDEST SWAP1 POP PUSH1 0x0 PUSH1 0x3C DUP1 PUSH1 0x18 DUP13 PUSH2 0x137 SWAP2 SWAP1 PUSH2 0x985 JUMP JUMPDEST PUSH2 0x141 SWAP2 SWAP1 PUSH2 0x985 JUMP JUMPDEST PUSH2 0x14B SWAP2 SWAP1 PUSH2 0x985 JUMP JUMPDEST DUP3 PUSH2 0x156 SWAP2 SWAP1 PUSH2 0x9DF JUMP JUMPDEST SWAP1 POP PUSH2 0x16E DUP3 DUP5 PUSH1 0x0 ADD PUSH2 0x2C0 SWAP1 SWAP2 SWAP1 PUSH4 0xFFFFFFFF AND JUMP JUMPDEST PUSH2 0x184 DUP2 DUP5 PUSH1 0x2 ADD PUSH2 0x2C0 SWAP1 SWAP2 SWAP1 PUSH4 0xFFFFFFFF AND JUMP JUMPDEST PUSH2 0x19A DUP10 DUP5 PUSH1 0x4 ADD PUSH2 0x2DA SWAP1 SWAP2 SWAP1 PUSH4 0xFFFFFFFF AND JUMP JUMPDEST DUP4 SWAP5 POP POP POP POP POP SWAP8 SWAP7 POP POP POP POP POP POP POP JUMP JUMPDEST PUSH2 0x1B4 PUSH2 0x2E7 JUMP JUMPDEST PUSH1 0x0 DUP1 DUP1 DUP2 MSTORE PUSH1 0x20 ADD SWAP1 DUP2 MSTORE PUSH1 0x20 ADD PUSH1 0x0 KECCAK256 PUSH1 0x40 MLOAD DUP1 PUSH1 0xA0 ADD PUSH1 0x40 MSTORE SWAP1 DUP2 PUSH1 0x0 DUP3 ADD PUSH1 0x40 MLOAD DUP1 PUSH1 0x40 ADD PUSH1 0x40 MSTORE SWAP1 DUP2 PUSH1 0x0 DUP3 ADD SLOAD DUP2 MSTORE PUSH1 0x20 ADD PUSH1 0x1 DUP3 ADD SLOAD DUP2 MSTORE POP POP DUP2 MSTORE PUSH1 0x20 ADD PUSH1 0x2 DUP3 ADD PUSH1 0x40 MLOAD DUP1 PUSH1 0x40 ADD PUSH1 0x40 MSTORE SWAP1 DUP2 PUSH1 0x0 DUP3 ADD SLOAD DUP2 MSTORE PUSH1 0x20 ADD PUSH1 0x1 DUP3 ADD SLOAD DUP2 MSTORE POP POP DUP2 MSTORE PUSH1 0x20 ADD PUSH1 0x4 DUP3 ADD PUSH1 0x40 MLOAD DUP1 PUSH1 0x40 ADD PUSH1 0x40 MSTORE SWAP1 DUP2 PUSH1 0x0 DUP3 ADD SLOAD DUP2 MSTORE PUSH1 0x20 ADD PUSH1 0x1 DUP3 ADD SLOAD DUP2 MSTORE POP POP DUP2 MSTORE PUSH1 0x20 ADD PUSH1 0x6 DUP3 ADD PUSH1 0x0 SWAP1 SLOAD SWAP1 PUSH2 0x100 EXP SWAP1 DIV PUSH1 0xFF AND ISZERO ISZERO ISZERO ISZERO DUP2 MSTORE PUSH1 0x20 ADD PUSH1 0x6 DUP3 ADD PUSH1 0x1 SWAP1 SLOAD SWAP1 PUSH2 0x100 EXP SWAP1 DIV PUSH1 0xFF AND ISZERO ISZERO ISZERO ISZERO DUP2 MSTORE POP POP SWAP1 POP SWAP1 JUMP JUMPDEST PUSH1 0x0 DUP5 DUP5 DUP5 DUP5 PUSH1 0x40 MLOAD PUSH1 0x20 ADD PUSH2 0x29D SWAP5 SWAP4 SWAP3 SWAP2 SWAP1 PUSH2 0xB9D JUMP JUMPDEST PUSH1 0x40 MLOAD PUSH1 0x20 DUP2 DUP4 SUB SUB DUP2 MSTORE SWAP1 PUSH1 0x40 MSTORE DUP1 MLOAD SWAP1 PUSH1 0x20 ADD KECCAK256 PUSH1 0x0 SHR SWAP1 POP SWAP5 SWAP4 POP POP POP POP JUMP JUMPDEST PUSH2 0x3E8 DUP2 PUSH2 0x2CE SWAP2 SWAP1 PUSH2 0x985 JUMP JUMPDEST DUP3 PUSH1 0x0 ADD DUP2 SWAP1 SSTORE POP POP POP JUMP JUMPDEST DUP1 DUP3 PUSH1 0x1 ADD DUP2 SWAP1 SSTORE POP POP POP JUMP JUMPDEST PUSH1 0x40 MLOAD DUP1 PUSH1 0xA0 ADD PUSH1 0x40 MSTORE DUP1 PUSH2 0x2FA PUSH2 0x32C JUMP JUMPDEST DUP2 MSTORE PUSH1 0x20 ADD PUSH2 0x307 PUSH2 0x32C JUMP JUMPDEST DUP2 MSTORE PUSH1 0x20 ADD PUSH2 0x314 PUSH2 0x32C JUMP JUMPDEST DUP2 MSTORE PUSH1 0x20 ADD PUSH1 0x0 ISZERO ISZERO DUP2 MSTORE PUSH1 0x20 ADD PUSH1 0x0 ISZERO ISZERO DUP2 MSTORE POP SWAP1 JUMP JUMPDEST PUSH1 0x40 MLOAD DUP1 PUSH1 0x40 ADD PUSH1 0x40 MSTORE DUP1 PUSH1 0x0 DUP2 MSTORE PUSH1 0x20 ADD PUSH1 0x0 DUP2 MSTORE POP SWAP1 JUMP JUMPDEST PUSH1 0x0 PUSH1 0x40 MLOAD SWAP1 POP SWAP1 JUMP JUMPDEST PUSH1 0x0 DUP1 REVERT JUMPDEST PUSH1 0x0 DUP1 REVERT JUMPDEST PUSH1 0x0 PUSH20 0xFFFFFFFFFFFFFFFFFFFFFFFFFFFFFFFFFFFFFFFF DUP3 AND SWAP1 POP SWAP2 SWAP1 POP JUMP JUMPDEST PUSH1 0x0 PUSH2 0x385 DUP3 PUSH2 0x35A JUMP JUMPDEST SWAP1 POP SWAP2 SWAP1 POP JUMP JUMPDEST PUSH2 0x395 DUP2 PUSH2 0x37A JUMP JUMPDEST DUP2 EQ PUSH2 0x3A0 JUMPI PUSH1 0x0 DUP1 REVERT JUMPDEST POP JUMP JUMPDEST PUSH1 0x0 DUP2 CALLDATALOAD SWAP1 POP PUSH2 0x3B2 DUP2 PUSH2 0x38C JUMP JUMPDEST SWAP3 SWAP2 POP POP JUMP JUMPDEST PUSH1 0x0 DUP2 SWAP1 POP SWAP2 SWAP1 POP JUMP JUMPDEST PUSH2 0x3CB DUP2 PUSH2 0x3B8 JUMP JUMPDEST DUP2 EQ PUSH2 0x3D6 JUMPI PUSH1 0x0 DUP1 REVERT JUMPDEST POP JUMP JUMPDEST PUSH1 0x0 DUP2 CALLDATALOAD SWAP1 POP PUSH2 0x3E8 DUP2 PUSH2 0x3C2 JUMP JUMPDEST SWAP3 SWAP2 POP POP JUMP JUMPDEST PUSH1 0x0 DUP1 REVERT JUMPDEST PUSH1 0x0 DUP1 REVERT JUMPDEST PUSH1 0x0 PUSH1 0x1F NOT PUSH1 0x1F DUP4 ADD AND SWAP1 POP SWAP2 SWAP1 POP JUMP JUMPDEST PUSH32 0x4E487B7100000000000000000000000000000000000000000000000000000000 PUSH1 0x0 MSTORE PUSH1 0x41 PUSH1 0x4 MSTORE PUSH1 0x24 PUSH1 0x0 REVERT JUMPDEST PUSH2 0x441 DUP3 PUSH2 0x3F8 JUMP JUMPDEST DUP2 ADD DUP2 DUP2 LT PUSH8 0xFFFFFFFFFFFFFFFF DUP3 GT OR ISZERO PUSH2 0x460 JUMPI PUSH2 0x45F PUSH2 0x409 JUMP JUMPDEST JUMPDEST DUP1 PUSH1 0x40 MSTORE POP POP POP JUMP JUMPDEST PUSH1 0x0 PUSH2 0x473 PUSH2 0x346 JUMP JUMPDEST SWAP1 POP PUSH2 0x47F DUP3 DUP3 PUSH2 0x438 JUMP JUMPDEST SWAP2 SWAP1 POP JUMP JUMPDEST PUSH1 0x0 PUSH8 0xFFFFFFFFFFFFFFFF DUP3 GT ISZERO PUSH2 0x49F JUMPI PUSH2 0x49E PUSH2 0x409 JUMP JUMPDEST JUMPDEST PUSH2 0x4A8 DUP3 PUSH2 0x3F8 JUMP JUMPDEST SWAP1 POP PUSH1 0x20 DUP2 ADD SWAP1 POP SWAP2 SWAP1 POP JUMP JUMPDEST DUP3 DUP2 DUP4 CALLDATACOPY PUSH1 0x0 DUP4 DUP4 ADD MSTORE POP POP POP JUMP JUMPDEST PUSH1 0x0 PUSH2 0x4D7 PUSH2 0x4D2 DUP5 PUSH2 0x484 JUMP JUMPDEST PUSH2 0x469 JUMP JUMPDEST SWAP1 POP DUP3 DUP2 MSTORE PUSH1 0x20 DUP2 ADD DUP5 DUP5 DUP5 ADD GT ISZERO PUSH2 0x4F3 JUMPI PUSH2 0x4F2 PUSH2 0x3F3 JUMP JUMPDEST JUMPDEST PUSH2 0x4FE DUP5 DUP3 DUP6 PUSH2 0x4B5 JUMP JUMPDEST POP SWAP4 SWAP3 POP POP POP JUMP JUMPDEST PUSH1 0x0 DUP3 PUSH1 0x1F DUP4 ADD SLT PUSH2 0x51B JUMPI PUSH2 0x51A PUSH2 0x3EE JUMP JUMPDEST JUMPDEST DUP2 CALLDATALOAD PUSH2 0x52B DUP5 DUP3 PUSH1 0x20 DUP7 ADD PUSH2 0x4C4 JUMP JUMPDEST SWAP2 POP POP SWAP3 SWAP2 POP POP JUMP JUMPDEST PUSH1 0x0 PUSH8 0xFFFFFFFFFFFFFFFF DUP3 GT ISZERO PUSH2 0x54F JUMPI PUSH2 0x54E PUSH2 0x409 JUMP JUMPDEST JUMPDEST PUSH1 0x20 DUP3 MUL SWAP1 POP PUSH1 0x20 DUP2 ADD SWAP1 POP SWAP2 SWAP1 POP JUMP JUMPDEST PUSH1 0x0 DUP1 REVERT JUMPDEST PUSH1 0x0 PUSH8 0xFFFFFFFFFFFFFFFF DUP3 GT ISZERO PUSH2 0x580 JUMPI PUSH2 0x57F PUSH2 0x409 JUMP JUMPDEST JUMPDEST PUSH2 0x589 DUP3 PUSH2 0x3F8 JUMP JUMPDEST SWAP1 POP PUSH1 0x20 DUP2 ADD SWAP1 POP SWAP2 SWAP1 POP JUMP JUMPDEST PUSH1 0x0 PUSH2 0x5A9 PUSH2 0x5A4 DUP5 PUSH2 0x565 JUMP JUMPDEST PUSH2 0x469 JUMP JUMPDEST SWAP1 POP DUP3 DUP2 MSTORE PUSH1 0x20 DUP2 ADD DUP5 DUP5 DUP5 ADD GT ISZERO PUSH2 0x5C5 JUMPI PUSH2 0x5C4 PUSH2 0x3F3 JUMP JUMPDEST JUMPDEST PUSH2 0x5D0 DUP5 DUP3 DUP6 PUSH2 0x4B5 JUMP JUMPDEST POP SWAP4 SWAP3 POP POP POP JUMP JUMPDEST PUSH1 0x0 DUP3 PUSH1 0x1F DUP4 ADD SLT PUSH2 0x5ED JUMPI PUSH2 0x5EC PUSH2 0x3EE JUMP JUMPDEST JUMPDEST DUP2 CALLDATALOAD PUSH2 0x5FD DUP5 DUP3 PUSH1 0x20 DUP7 ADD PUSH2 0x596 JUMP JUMPDEST SWAP2 POP POP SWAP3 SWAP2 POP POP JUMP JUMPDEST PUSH1 0x0 PUSH2 0x619 PUSH2 0x614 DUP5 PUSH2 0x534 JUMP JUMPDEST PUSH2 0x469 JUMP JUMPDEST SWAP1 POP DUP1 DUP4 DUP3 MSTORE PUSH1 0x20 DUP3 ADD SWAP1 POP PUSH1 0x20 DUP5 MUL DUP4 ADD DUP6 DUP2 GT ISZERO PUSH2 0x63C JUMPI PUSH2 0x63B PUSH2 0x560 JUMP JUMPDEST JUMPDEST DUP4 JUMPDEST DUP2 DUP2 LT ISZERO PUSH2 0x683 JUMPI DUP1 CALLDATALOAD PUSH8 0xFFFFFFFFFFFFFFFF DUP2 GT ISZERO PUSH2 0x661 JUMPI PUSH2 0x660 PUSH2 0x3EE JUMP JUMPDEST JUMPDEST DUP1 DUP7 ADD PUSH2 0x66E DUP10 DUP3 PUSH2 0x5D8 JUMP JUMPDEST DUP6 MSTORE PUSH1 0x20 DUP6 ADD SWAP5 POP POP POP PUSH1 0x20 DUP2 ADD SWAP1 POP PUSH2 0x63E JUMP JUMPDEST POP POP POP SWAP4 SWAP3 POP POP POP JUMP JUMPDEST PUSH1 0x0 DUP3 PUSH1 0x1F DUP4 ADD SLT PUSH2 0x6A2 JUMPI PUSH2 0x6A1 PUSH2 0x3EE JUMP JUMPDEST JUMPDEST DUP2 CALLDATALOAD PUSH2 0x6B2 DUP5 DUP3 PUSH1 0x20 DUP7 ADD PUSH2 0x606 JUMP JUMPDEST SWAP2 POP POP SWAP3 SWAP2 POP POP JUMP JUMPDEST PUSH1 0x0 DUP1 PUSH1 0x0 DUP1 PUSH1 0x0 DUP1 PUSH1 0x0 PUSH1 0xE0 DUP9 DUP11 SUB SLT ISZERO PUSH2 0x6DA JUMPI PUSH2 0x6D9 PUSH2 0x350 JUMP JUMPDEST JUMPDEST PUSH1 0x0 PUSH2 0x6E8 DUP11 DUP3 DUP12 ADD PUSH2 0x3A3 JUMP JUMPDEST SWAP8 POP POP PUSH1 0x20 PUSH2 0x6F9 DUP11 DUP3 DUP12 ADD PUSH2 0x3D9 JUMP JUMPDEST SWAP7 POP POP PUSH1 0x40 PUSH2 0x70A DUP11 DUP3 DUP12 ADD PUSH2 0x3D9 JUMP JUMPDEST SWAP6 POP POP PUSH1 0x60 PUSH2 0x71B DUP11 DUP3 DUP12 ADD PUSH2 0x3D9 JUMP JUMPDEST SWAP5 POP POP PUSH1 0x80 PUSH2 0x72C DUP11 DUP3 DUP12 ADD PUSH2 0x3A3 JUMP JUMPDEST SWAP4 POP POP PUSH1 0xA0 DUP9 ADD CALLDATALOAD PUSH8 0xFFFFFFFFFFFFFFFF DUP2 GT ISZERO PUSH2 0x74D JUMPI PUSH2 0x74C PUSH2 0x355 JUMP JUMPDEST JUMPDEST PUSH2 0x759 DUP11 DUP3 DUP12 ADD PUSH2 0x506 JUMP JUMPDEST SWAP3 POP POP PUSH1 0xC0 DUP9 ADD CALLDATALOAD PUSH8 0xFFFFFFFFFFFFFFFF DUP2 GT ISZERO PUSH2 0x77A JUMPI PUSH2 0x779 PUSH2 0x355 JUMP JUMPDEST JUMPDEST PUSH2 0x786 DUP11 DUP3 DUP12 ADD PUSH2 0x68D JUMP JUMPDEST SWAP2 POP POP SWAP3 SWAP6 SWAP9 SWAP2 SWAP5 SWAP8 POP SWAP3 SWAP6 POP JUMP JUMPDEST PUSH2 0x79E DUP2 PUSH2 0x3B8 JUMP JUMPDEST DUP3 MSTORE POP POP JUMP JUMPDEST PUSH1 0x0 PUSH1 0x20 DUP3 ADD SWAP1 POP PUSH2 0x7B9 PUSH1 0x0 DUP4 ADD DUP5 PUSH2 0x795 JUMP JUMPDEST SWAP3 SWAP2 POP POP JUMP JUMPDEST PUSH2 0x7C8 DUP2 PUSH2 0x3B8 JUMP JUMPDEST DUP3 MSTORE POP POP JUMP JUMPDEST PUSH1 0x40 DUP3 ADD PUSH1 0x0 DUP3 ADD MLOAD PUSH2 0x7E4 PUSH1 0x0 DUP6 ADD DUP3 PUSH2 0x7BF JUMP JUMPDEST POP PUSH1 0x20 DUP3 ADD MLOAD PUSH2 0x7F7 PUSH1 0x20 DUP6 ADD DUP3 PUSH2 0x7BF JUMP JUMPDEST POP POP POP POP JUMP JUMPDEST PUSH1 0x0 DUP2 ISZERO ISZERO SWAP1 POP SWAP2 SWAP1 POP JUMP JUMPDEST PUSH2 0x812 DUP2 PUSH2 0x7FD JUMP JUMPDEST DUP3 MSTORE POP POP JUMP JUMPDEST PUSH2 0x100 DUP3 ADD PUSH1 0x0 DUP3 ADD MLOAD PUSH2 0x82F PUSH1 0x0 DUP6 ADD DUP3 PUSH2 0x7CE JUMP JUMPDEST POP PUSH1 0x20 DUP3 ADD MLOAD PUSH2 0x842 PUSH1 0x40 DUP6 ADD DUP3 PUSH2 0x7CE JUMP JUMPDEST POP PUSH1 0x40 DUP3 ADD MLOAD PUSH2 0x855 PUSH1 0x80 DUP6 ADD DUP3 PUSH2 0x7CE JUMP JUMPDEST POP PUSH1 0x60 DUP3 ADD MLOAD PUSH2 0x868 PUSH1 0xC0 DUP6 ADD DUP3 PUSH2 0x809 JUMP JUMPDEST POP PUSH1 0x80 DUP3 ADD MLOAD PUSH2 0x87B PUSH1 0xE0 DUP6 ADD DUP3 PUSH2 0x809 JUMP JUMPDEST POP POP POP POP JUMP JUMPDEST PUSH1 0x0 PUSH2 0x100 DUP3 ADD SWAP1 POP PUSH2 0x897 PUSH1 0x0 DUP4 ADD DUP5 PUSH2 0x818 JUMP JUMPDEST SWAP3 SWAP2 POP POP JUMP JUMPDEST PUSH1 0x0 DUP2 SWAP1 POP SWAP2 SWAP1 POP JUMP JUMPDEST PUSH2 0x8B0 DUP2 PUSH2 0x89D JUMP JUMPDEST DUP2 EQ PUSH2 0x8BB JUMPI PUSH1 0x0 DUP1 REVERT JUMPDEST POP JUMP JUMPDEST PUSH1 0x0 DUP2 CALLDATALOAD SWAP1 POP PUSH2 0x8CD DUP2 PUSH2 0x8A7 JUMP JUMPDEST SWAP3 SWAP2 POP POP JUMP JUMPDEST PUSH1 0x0 DUP1 PUSH1 0x0 DUP1 PUSH1 0x80 DUP6 DUP8 SUB SLT ISZERO PUSH2 0x8ED JUMPI PUSH2 0x8EC PUSH2 0x350 JUMP JUMPDEST JUMPDEST PUSH1 0x0 PUSH2 0x8FB DUP8 DUP3 DUP9 ADD PUSH2 0x3A3 JUMP JUMPDEST SWAP5 POP POP PUSH1 0x20 PUSH2 0x90C DUP8 DUP3 DUP9 ADD PUSH2 0x3A3 JUMP JUMPDEST SWAP4 POP POP PUSH1 0x40 DUP6 ADD CALLDATALOAD PUSH8 0xFFFFFFFFFFFFFFFF DUP2 GT ISZERO PUSH2 0x92D JUMPI PUSH2 0x92C PUSH2 0x355 JUMP JUMPDEST JUMPDEST PUSH2 0x939 DUP8 DUP3 DUP9 ADD PUSH2 0x68D JUMP JUMPDEST SWAP3 POP POP PUSH1 0x60 PUSH2 0x94A DUP8 DUP3 DUP9 ADD PUSH2 0x8BE JUMP JUMPDEST SWAP2 POP POP SWAP3 SWAP6 SWAP2 SWAP5 POP SWAP3 POP JUMP JUMPDEST PUSH32 0x4E487B7100000000000000000000000000000000000000000000000000000000 PUSH1 0x0 MSTORE PUSH1 0x11 PUSH1 0x4 MSTORE PUSH1 0x24 PUSH1 0x0 REVERT JUMPDEST PUSH1 0x0 PUSH2 0x990 DUP3 PUSH2 0x3B8 JUMP JUMPDEST SWAP2 POP PUSH2 0x99B DUP4 PUSH2 0x3B8 JUMP JUMPDEST SWAP3 POP DUP2 PUSH32 0xFFFFFFFFFFFFFFFFFFFFFFFFFFFFFFFFFFFFFFFFFFFFFFFFFFFFFFFFFFFFFFFF DIV DUP4 GT DUP3 ISZERO ISZERO AND ISZERO PUSH2 0x9D4 JUMPI PUSH2 0x9D3 PUSH2 0x956 JUMP JUMPDEST JUMPDEST DUP3 DUP3 MUL SWAP1 POP SWAP3 SWAP2 POP POP JUMP JUMPDEST PUSH1 0x0 PUSH2 0x9EA DUP3 PUSH2 0x3B8 JUMP JUMPDEST SWAP2 POP PUSH2 0x9F5 DUP4 PUSH2 0x3B8 JUMP JUMPDEST SWAP3 POP DUP3 PUSH32 0xFFFFFFFFFFFFFFFFFFFFFFFFFFFFFFFFFFFFFFFFFFFFFFFFFFFFFFFFFFFFFFFF SUB DUP3 GT ISZERO PUSH2 0xA2A JUMPI PUSH2 0xA29 PUSH2 0x956 JUMP JUMPDEST JUMPDEST DUP3 DUP3 ADD SWAP1 POP SWAP3 SWAP2 POP POP JUMP JUMPDEST PUSH2 0xA3E DUP2 PUSH2 0x37A JUMP JUMPDEST DUP3 MSTORE POP POP JUMP JUMPDEST PUSH1 0x0 DUP2 MLOAD SWAP1 POP SWAP2 SWAP1 POP JUMP JUMPDEST PUSH1 0x0 DUP3 DUP3 MSTORE PUSH1 0x20 DUP3 ADD SWAP1 POP SWAP3 SWAP2 POP POP JUMP JUMPDEST PUSH1 0x0 DUP2 SWAP1 POP PUSH1 0x20 DUP3 ADD SWAP1 POP SWAP2 SWAP1 POP JUMP JUMPDEST PUSH1 0x0 DUP2 MLOAD SWAP1 POP SWAP2 SWAP1 POP JUMP JUMPDEST PUSH1 0x0 DUP3 DUP3 MSTORE PUSH1 0x20 DUP3 ADD SWAP1 POP SWAP3 SWAP2 POP POP JUMP JUMPDEST PUSH1 0x0 JUMPDEST DUP4 DUP2 LT ISZERO PUSH2 0xAAA JUMPI DUP1 DUP3 ADD MLOAD DUP2 DUP5 ADD MSTORE PUSH1 0x20 DUP2 ADD SWAP1 POP PUSH2 0xA8F JUMP JUMPDEST DUP4 DUP2 GT ISZERO PUSH2 0xAB9 JUMPI PUSH1 0x0 DUP5 DUP5 ADD MSTORE JUMPDEST POP POP POP POP JUMP JUMPDEST PUSH1 0x0 PUSH2 0xACA DUP3 PUSH2 0xA70 JUMP JUMPDEST PUSH2 0xAD4 DUP2 DUP6 PUSH2 0xA7B JUMP JUMPDEST SWAP4 POP PUSH2 0xAE4 DUP2 DUP6 PUSH1 0x20 DUP7 ADD PUSH2 0xA8C JUMP JUMPDEST PUSH2 0xAED DUP2 PUSH2 0x3F8 JUMP JUMPDEST DUP5 ADD SWAP2 POP POP SWAP3 SWAP2 POP POP JUMP JUMPDEST PUSH1 0x0 PUSH2 0xB04 DUP4 DUP4 PUSH2 0xABF JUMP JUMPDEST SWAP1 POP SWAP3 SWAP2 POP POP JUMP JUMPDEST PUSH1 0x0 PUSH1 0x20 DUP3 ADD SWAP1 POP SWAP2 SWAP1 POP JUMP JUMPDEST PUSH1 0x0 PUSH2 0xB24 DUP3 PUSH2 0xA44 JUMP JUMPDEST PUSH2 0xB2E DUP2 DUP6 PUSH2 0xA4F JUMP JUMPDEST SWAP4 POP DUP4 PUSH1 0x20 DUP3 MUL DUP6 ADD PUSH2 0xB40 DUP6 PUSH2 0xA60 JUMP JUMPDEST DUP1 PUSH1 0x0 JUMPDEST DUP6 DUP2 LT ISZERO PUSH2 0xB7C JUMPI DUP5 DUP5 SUB DUP10 MSTORE DUP2 MLOAD PUSH2 0xB5D DUP6 DUP3 PUSH2 0xAF8 JUMP JUMPDEST SWAP5 POP PUSH2 0xB68 DUP4 PUSH2 0xB0C JUMP JUMPDEST SWAP3 POP PUSH1 0x20 DUP11 ADD SWAP10 POP POP PUSH1 0x1 DUP2 ADD SWAP1 POP PUSH2 0xB44 JUMP JUMPDEST POP DUP3 SWAP8 POP DUP8 SWAP6 POP POP POP POP POP POP SWAP3 SWAP2 POP POP JUMP JUMPDEST PUSH2 0xB97 DUP2 PUSH2 0x89D JUMP JUMPDEST DUP3 MSTORE POP POP JUMP JUMPDEST PUSH1 0x0 PUSH1 0x80 DUP3 ADD SWAP1 POP PUSH2 0xBB2 PUSH1 0x0 DUP4 ADD DUP8 PUSH2 0xA35 JUMP JUMPDEST PUSH2 0xBBF PUSH1 0x20 DUP4 ADD DUP7 PUSH2 0xA35 JUMP JUMPDEST DUP2 DUP2 SUB PUSH1 0x40 DUP4 ADD MSTORE PUSH2 0xBD1 DUP2 DUP6 PUSH2 0xB19 JUMP JUMPDEST SWAP1 POP PUSH2 0xBE0 PUSH1 0x60 DUP4 ADD DUP5 PUSH2 0xB8E JUMP JUMPDEST SWAP6 SWAP5 POP POP POP POP POP JUMP INVALID LOG2 PUSH5 0x6970667358 0x22 SLT KECCAK256 0xEE PUSH19 0xA0DFFB2F3BA303797B97954584B5BF426BE6E4 PUSH12 0xE0FF885A6DF3F20472C36473 PUSH16 0x6C634300080D00330000000000000000 "
				},
				"gasEstimates": {
					"creation": {
						"codeDepositCost": "620600",
						"executionCost": "651",
						"totalCost": "621251"
					},
					"external": {
						"get()": "infinite",
						"hashProposal(address,address,bytes[],bytes32)": "infinite",
						"proposal(address,uint256,uint256,uint256,address,string,bytes[])": "infinite"
					}
				},
				"methodIdentifiers": {
					"get()": "6d4ce63c",
					"hashProposal(address,address,bytes[],bytes32)": "ee4d6020",
					"proposal(address,uint256,uint256,uint256,address,string,bytes[])": "42f9d5be"
				}
			},
			"storageLayout": {
				"storage": [
					{
						"astId": 25,
						"contract": ".workspaces/default_workspace/unMiracle/UMRCmiracle.sol:UMRproposal",
						"label": "_proposals",
						"offset": 0,
						"slot": "0",
						"type": "t_mapping(t_uint256,t_struct(ProposalCore)20_storage)"
					}
				],
				"types": {
					"t_bool": {
						"encoding": "inplace",
						"label": "bool",
						"numberOfBytes": "1"
					},
					"t_mapping(t_uint256,t_struct(ProposalCore)20_storage)": {
						"encoding": "mapping",
						"key": "t_uint256",
						"label": "mapping(uint256 => struct UMRproposal.ProposalCore)",
						"numberOfBytes": "32",
						"value": "t_struct(ProposalCore)20_storage"
					},
					"t_struct(ProposalCore)20_storage": {
						"encoding": "inplace",
						"label": "struct UMRproposal.ProposalCore",
						"members": [
							{
								"astId": 9,
								"contract": ".workspaces/default_workspace/unMiracle/UMRCmiracle.sol:UMRproposal",
								"label": "donationStart",
								"offset": 0,
								"slot": "0",
								"type": "t_struct(SetInfo)165_storage"
							},
							{
								"astId": 12,
								"contract": ".workspaces/default_workspace/unMiracle/UMRCmiracle.sol:UMRproposal",
								"label": "donationEnd",
								"offset": 0,
								"slot": "2",
								"type": "t_struct(SetInfo)165_storage"
							},
							{
								"astId": 15,
								"contract": ".workspaces/default_workspace/unMiracle/UMRCmiracle.sol:UMRproposal",
								"label": "donateMinimum",
								"offset": 0,
								"slot": "4",
								"type": "t_struct(SetInfo)165_storage"
							},
							{
								"astId": 17,
								"contract": ".workspaces/default_workspace/unMiracle/UMRCmiracle.sol:UMRproposal",
								"label": "executed",
								"offset": 0,
								"slot": "6",
								"type": "t_bool"
							},
							{
								"astId": 19,
								"contract": ".workspaces/default_workspace/unMiracle/UMRCmiracle.sol:UMRproposal",
								"label": "canceled",
								"offset": 1,
								"slot": "6",
								"type": "t_bool"
							}
						],
						"numberOfBytes": "224"
					},
					"t_struct(SetInfo)165_storage": {
						"encoding": "inplace",
						"label": "struct Setting.SetInfo",
						"members": [
							{
								"astId": 162,
								"contract": ".workspaces/default_workspace/unMiracle/UMRCmiracle.sol:UMRproposal",
								"label": "deadline",
								"offset": 0,
								"slot": "0",
								"type": "t_uint256"
							},
							{
								"astId": 164,
								"contract": ".workspaces/default_workspace/unMiracle/UMRCmiracle.sol:UMRproposal",
								"label": "amount",
								"offset": 0,
								"slot": "1",
								"type": "t_uint256"
							}
						],
						"numberOfBytes": "64"
					},
					"t_uint256": {
						"encoding": "inplace",
						"label": "uint256",
						"numberOfBytes": "32"
					}
				}
			},
			"userdoc": {
				"kind": "user",
				"methods": {},
				"version": 1
			}
		}
	}
}