{
	".workspaces/default_workspace/unMiracle/test.sol": {
		"test": {
			"abi": [
				{
					"inputs": [],
					"name": "deadline",
					"outputs": [
						{
							"internalType": "uint64",
							"name": "",
							"type": "uint64"
						}
					],
					"stateMutability": "view",
					"type": "function"
				},
				{
					"inputs": [],
					"name": "snapshot",
					"outputs": [
						{
							"internalType": "uint64",
							"name": "",
							"type": "uint64"
						}
					],
					"stateMutability": "view",
					"type": "function"
				},
				{
					"inputs": [],
					"name": "votingDelay",
					"outputs": [
						{
							"internalType": "uint256",
							"name": "",
							"type": "uint256"
						}
					],
					"stateMutability": "pure",
					"type": "function"
				},
				{
					"inputs": [],
					"name": "votingPeriod",
					"outputs": [
						{
							"internalType": "uint256",
							"name": "",
							"type": "uint256"
						}
					],
					"stateMutability": "pure",
					"type": "function"
				}
			],
			"devdoc": {
				"kind": "dev",
				"methods": {},
				"version": 1
			},
			"evm": {
				"assembly": "    /* \".workspaces/default_workspace/unMiracle/test.sol\":170:746  contract test {... */\n  mstore(0x40, 0x80)\n  callvalue\n  dup1\n  iszero\n  tag_1\n  jumpi\n  0x00\n  dup1\n  revert\ntag_1:\n  pop\n  dataSize(sub_0)\n  dup1\n  dataOffset(sub_0)\n  0x00\n  codecopy\n  0x00\n  return\nstop\n\nsub_0: assembly {\n        /* \".workspaces/default_workspace/unMiracle/test.sol\":170:746  contract test {... */\n      mstore(0x40, 0x80)\n      callvalue\n      dup1\n      iszero\n      tag_1\n      jumpi\n      0x00\n      dup1\n      revert\n    tag_1:\n      pop\n      jumpi(tag_2, lt(calldatasize, 0x04))\n      shr(0xe0, calldataload(0x00))\n      dup1\n      0x02a251a3\n      eq\n      tag_3\n      jumpi\n      dup1\n      0x29dcb0cf\n      eq\n      tag_4\n      jumpi\n      dup1\n      0x3932abb1\n      eq\n      tag_5\n      jumpi\n      dup1\n      0x9711715a\n      eq\n      tag_6\n      jumpi\n    tag_2:\n      0x00\n      dup1\n      revert\n        /* \".workspaces/default_workspace/unMiracle/test.sol\":274:365  function votingPeriod() public pure returns(uint256) {... */\n    tag_3:\n      tag_7\n      tag_8\n      jump\t// in\n    tag_7:\n      mload(0x40)\n      tag_9\n      swap2\n      swap1\n      tag_10\n      jump\t// in\n    tag_9:\n      mload(0x40)\n      dup1\n      swap2\n      sub\n      swap1\n      return\n        /* \".workspaces/default_workspace/unMiracle/test.sol\":530:744  function deadline() public view returns(uint64) {... */\n    tag_4:\n      tag_11\n      tag_12\n      jump\t// in\n    tag_11:\n      mload(0x40)\n      tag_13\n      swap2\n      swap1\n      tag_14\n      jump\t// in\n    tag_13:\n      mload(0x40)\n      dup1\n      swap2\n      sub\n      swap1\n      return\n        /* \".workspaces/default_workspace/unMiracle/test.sol\":191:268  function votingDelay() public pure returns(uint256) {... */\n    tag_5:\n      tag_15\n      tag_16\n      jump\t// in\n    tag_15:\n      mload(0x40)\n      tag_17\n      swap2\n      swap1\n      tag_10\n      jump\t// in\n    tag_17:\n      mload(0x40)\n      dup1\n      swap2\n      sub\n      swap1\n      return\n        /* \".workspaces/default_workspace/unMiracle/test.sol\":371:524  function snapshot() public view returns(uint64) {... */\n    tag_6:\n      tag_18\n      tag_19\n      jump\t// in\n    tag_18:\n      mload(0x40)\n      tag_20\n      swap2\n      swap1\n      tag_14\n      jump\t// in\n    tag_20:\n      mload(0x40)\n      dup1\n      swap2\n      sub\n      swap1\n      return\n        /* \".workspaces/default_workspace/unMiracle/test.sol\":274:365  function votingPeriod() public pure returns(uint256) {... */\n    tag_8:\n        /* \".workspaces/default_workspace/unMiracle/test.sol\":318:325  uint256 */\n      0x00\n        /* \".workspaces/default_workspace/unMiracle/test.sol\":344:349  45818 */\n      0xb2fa\n        /* \".workspaces/default_workspace/unMiracle/test.sol\":337:349  return 45818 */\n      swap1\n      pop\n        /* \".workspaces/default_workspace/unMiracle/test.sol\":274:365  function votingPeriod() public pure returns(uint256) {... */\n      swap1\n      jump\t// out\n        /* \".workspaces/default_workspace/unMiracle/test.sol\":530:744  function deadline() public view returns(uint64) {... */\n    tag_12:\n        /* \".workspaces/default_workspace/unMiracle/test.sol\":570:576  uint64 */\n      0x00\n        /* \".workspaces/default_workspace/unMiracle/test.sol\":588:603  uint64 snapshot */\n      dup1\n        /* \".workspaces/default_workspace/unMiracle/test.sol\":636:649  votingDelay() */\n      tag_23\n        /* \".workspaces/default_workspace/unMiracle/test.sol\":636:647  votingDelay */\n      tag_16\n        /* \".workspaces/default_workspace/unMiracle/test.sol\":636:649  votingDelay() */\n      jump\t// in\n    tag_23:\n        /* \".workspaces/default_workspace/unMiracle/test.sol\":613:625  block.number */\n      number\n        /* \".workspaces/default_workspace/unMiracle/test.sol\":606:650  uint64(block.number) + uint64(votingDelay()) */\n      tag_24\n      swap2\n      swap1\n      tag_25\n      jump\t// in\n    tag_24:\n        /* \".workspaces/default_workspace/unMiracle/test.sol\":588:650  uint64 snapshot = uint64(block.number) + uint64(votingDelay()) */\n      swap1\n      pop\n        /* \".workspaces/default_workspace/unMiracle/test.sol\":660:675  uint64 deadline */\n      0x00\n        /* \".workspaces/default_workspace/unMiracle/test.sol\":696:710  votingPeriod() */\n      tag_26\n        /* \".workspaces/default_workspace/unMiracle/test.sol\":696:708  votingPeriod */\n      tag_8\n        /* \".workspaces/default_workspace/unMiracle/test.sol\":696:710  votingPeriod() */\n      jump\t// in\n    tag_26:\n        /* \".workspaces/default_workspace/unMiracle/test.sol\":678:686  snapshot */\n      dup3\n        /* \".workspaces/default_workspace/unMiracle/test.sol\":678:711  snapshot + uint64(votingPeriod()) */\n      tag_27\n      swap2\n      swap1\n      tag_25\n      jump\t// in\n    tag_27:\n        /* \".workspaces/default_workspace/unMiracle/test.sol\":660:711  uint64 deadline = snapshot + uint64(votingPeriod()) */\n      swap1\n      pop\n        /* \".workspaces/default_workspace/unMiracle/test.sol\":729:737  deadline */\n      dup1\n        /* \".workspaces/default_workspace/unMiracle/test.sol\":722:737  return deadline */\n      swap3\n      pop\n      pop\n      pop\n        /* \".workspaces/default_workspace/unMiracle/test.sol\":530:744  function deadline() public view returns(uint64) {... */\n      swap1\n      jump\t// out\n        /* \".workspaces/default_workspace/unMiracle/test.sol\":191:268  function votingDelay() public pure returns(uint256) {... */\n    tag_16:\n        /* \".workspaces/default_workspace/unMiracle/test.sol\":234:241  uint256 */\n      0x00\n        /* \".workspaces/default_workspace/unMiracle/test.sol\":260:261  1 */\n      0x01\n        /* \".workspaces/default_workspace/unMiracle/test.sol\":253:261  return 1 */\n      swap1\n      pop\n        /* \".workspaces/default_workspace/unMiracle/test.sol\":191:268  function votingDelay() public pure returns(uint256) {... */\n      swap1\n      jump\t// out\n        /* \".workspaces/default_workspace/unMiracle/test.sol\":371:524  function snapshot() public view returns(uint64) {... */\n    tag_19:\n        /* \".workspaces/default_workspace/unMiracle/test.sol\":411:417  uint64 */\n      0x00\n        /* \".workspaces/default_workspace/unMiracle/test.sol\":429:444  uint64 snapshot */\n      dup1\n        /* \".workspaces/default_workspace/unMiracle/test.sol\":477:490  votingDelay() */\n      tag_30\n        /* \".workspaces/default_workspace/unMiracle/test.sol\":477:488  votingDelay */\n      tag_16\n        /* \".workspaces/default_workspace/unMiracle/test.sol\":477:490  votingDelay() */\n      jump\t// in\n    tag_30:\n        /* \".workspaces/default_workspace/unMiracle/test.sol\":454:466  block.number */\n      number\n        /* \".workspaces/default_workspace/unMiracle/test.sol\":447:491  uint64(block.number) + uint64(votingDelay()) */\n      tag_31\n      swap2\n      swap1\n      tag_25\n      jump\t// in\n    tag_31:\n        /* \".workspaces/default_workspace/unMiracle/test.sol\":429:491  uint64 snapshot = uint64(block.number) + uint64(votingDelay()) */\n      swap1\n      pop\n        /* \".workspaces/default_workspace/unMiracle/test.sol\":509:517  snapshot */\n      dup1\n        /* \".workspaces/default_workspace/unMiracle/test.sol\":502:517  return snapshot */\n      swap2\n      pop\n      pop\n        /* \".workspaces/default_workspace/unMiracle/test.sol\":371:524  function snapshot() public view returns(uint64) {... */\n      swap1\n      jump\t// out\n        /* \"#utility.yul\":7:125   */\n    tag_33:\n        /* \"#utility.yul\":94:118   */\n      tag_35\n        /* \"#utility.yul\":112:117   */\n      dup2\n        /* \"#utility.yul\":94:118   */\n      tag_36\n      jump\t// in\n    tag_35:\n        /* \"#utility.yul\":89:92   */\n      dup3\n        /* \"#utility.yul\":82:119   */\n      mstore\n        /* \"#utility.yul\":72:125   */\n      pop\n      pop\n      jump\t// out\n        /* \"#utility.yul\":131:246   */\n    tag_37:\n        /* \"#utility.yul\":216:239   */\n      tag_39\n        /* \"#utility.yul\":233:238   */\n      dup2\n        /* \"#utility.yul\":216:239   */\n      tag_40\n      jump\t// in\n    tag_39:\n        /* \"#utility.yul\":211:214   */\n      dup3\n        /* \"#utility.yul\":204:240   */\n      mstore\n        /* \"#utility.yul\":194:246   */\n      pop\n      pop\n      jump\t// out\n        /* \"#utility.yul\":252:474   */\n    tag_10:\n        /* \"#utility.yul\":345:349   */\n      0x00\n        /* \"#utility.yul\":383:385   */\n      0x20\n        /* \"#utility.yul\":372:381   */\n      dup3\n        /* \"#utility.yul\":368:386   */\n      add\n        /* \"#utility.yul\":360:386   */\n      swap1\n      pop\n        /* \"#utility.yul\":396:467   */\n      tag_42\n        /* \"#utility.yul\":464:465   */\n      0x00\n        /* \"#utility.yul\":453:462   */\n      dup4\n        /* \"#utility.yul\":449:466   */\n      add\n        /* \"#utility.yul\":440:446   */\n      dup5\n        /* \"#utility.yul\":396:467   */\n      tag_33\n      jump\t// in\n    tag_42:\n        /* \"#utility.yul\":350:474   */\n      swap3\n      swap2\n      pop\n      pop\n      jump\t// out\n        /* \"#utility.yul\":480:698   */\n    tag_14:\n        /* \"#utility.yul\":571:575   */\n      0x00\n        /* \"#utility.yul\":609:611   */\n      0x20\n        /* \"#utility.yul\":598:607   */\n      dup3\n        /* \"#utility.yul\":594:612   */\n      add\n        /* \"#utility.yul\":586:612   */\n      swap1\n      pop\n        /* \"#utility.yul\":622:691   */\n      tag_44\n        /* \"#utility.yul\":688:689   */\n      0x00\n        /* \"#utility.yul\":677:686   */\n      dup4\n        /* \"#utility.yul\":673:690   */\n      add\n        /* \"#utility.yul\":664:670   */\n      dup5\n        /* \"#utility.yul\":622:691   */\n      tag_37\n      jump\t// in\n    tag_44:\n        /* \"#utility.yul\":576:698   */\n      swap3\n      swap2\n      pop\n      pop\n      jump\t// out\n        /* \"#utility.yul\":704:958   */\n    tag_25:\n        /* \"#utility.yul\":743:746   */\n      0x00\n        /* \"#utility.yul\":762:781   */\n      tag_46\n        /* \"#utility.yul\":779:780   */\n      dup3\n        /* \"#utility.yul\":762:781   */\n      tag_40\n      jump\t// in\n    tag_46:\n        /* \"#utility.yul\":757:781   */\n      swap2\n      pop\n        /* \"#utility.yul\":795:814   */\n      tag_47\n        /* \"#utility.yul\":812:813   */\n      dup4\n        /* \"#utility.yul\":795:814   */\n      tag_40\n      jump\t// in\n    tag_47:\n        /* \"#utility.yul\":790:814   */\n      swap3\n      pop\n        /* \"#utility.yul\":900:901   */\n      dup3\n        /* \"#utility.yul\":880:898   */\n      0xffffffffffffffff\n        /* \"#utility.yul\":876:902   */\n      sub\n        /* \"#utility.yul\":873:874   */\n      dup3\n        /* \"#utility.yul\":870:903   */\n      gt\n        /* \"#utility.yul\":867:869   */\n      iszero\n      tag_48\n      jumpi\n        /* \"#utility.yul\":906:924   */\n      tag_49\n      tag_50\n      jump\t// in\n    tag_49:\n        /* \"#utility.yul\":867:869   */\n    tag_48:\n        /* \"#utility.yul\":950:951   */\n      dup3\n        /* \"#utility.yul\":947:948   */\n      dup3\n        /* \"#utility.yul\":943:952   */\n      add\n        /* \"#utility.yul\":936:952   */\n      swap1\n      pop\n        /* \"#utility.yul\":747:958   */\n      swap3\n      swap2\n      pop\n      pop\n      jump\t// out\n        /* \"#utility.yul\":964:1041   */\n    tag_36:\n        /* \"#utility.yul\":1001:1008   */\n      0x00\n        /* \"#utility.yul\":1030:1035   */\n      dup2\n        /* \"#utility.yul\":1019:1035   */\n      swap1\n      pop\n        /* \"#utility.yul\":1009:1041   */\n      swap2\n      swap1\n      pop\n      jump\t// out\n        /* \"#utility.yul\":1047:1148   */\n    tag_40:\n        /* \"#utility.yul\":1083:1090   */\n      0x00\n        /* \"#utility.yul\":1123:1141   */\n      0xffffffffffffffff\n        /* \"#utility.yul\":1116:1121   */\n      dup3\n        /* \"#utility.yul\":1112:1142   */\n      and\n        /* \"#utility.yul\":1101:1142   */\n      swap1\n      pop\n        /* \"#utility.yul\":1091:1148   */\n      swap2\n      swap1\n      pop\n      jump\t// out\n        /* \"#utility.yul\":1154:1334   */\n    tag_50:\n        /* \"#utility.yul\":1202:1279   */\n      0x4e487b7100000000000000000000000000000000000000000000000000000000\n        /* \"#utility.yul\":1199:1200   */\n      0x00\n        /* \"#utility.yul\":1192:1280   */\n      mstore\n        /* \"#utility.yul\":1299:1303   */\n      0x11\n        /* \"#utility.yul\":1296:1297   */\n      0x04\n        /* \"#utility.yul\":1289:1304   */\n      mstore\n        /* \"#utility.yul\":1323:1327   */\n      0x24\n        /* \"#utility.yul\":1320:1321   */\n      0x00\n        /* \"#utility.yul\":1313:1328   */\n      revert\n\n    auxdata: 0xa26469706673582212200f0c02a2a3fd65aa9be2b73af66c35f9d9da7f55406b16b048757bd061008ec064736f6c63430008040033\n}\n",
				"bytecode": {
					"linkReferences": {},
					"object": "608060405234801561001057600080fd5b50610247806100206000396000f3fe608060405234801561001057600080fd5b506004361061004c5760003560e01c806302a251a31461005157806329dcb0cf1461006f5780633932abb11461008d5780639711715a146100ab575b600080fd5b6100596100c9565b6040516100669190610150565b60405180910390f35b6100776100d3565b604051610084919061016b565b60405180910390f35b61009561010a565b6040516100a29190610150565b60405180910390f35b6100b3610113565b6040516100c0919061016b565b60405180910390f35b600061b2fa905090565b6000806100de61010a565b436100e99190610186565b905060006100f56100c9565b826101009190610186565b9050809250505090565b60006001905090565b60008061011e61010a565b436101299190610186565b90508091505090565b61013b816101c4565b82525050565b61014a816101ce565b82525050565b60006020820190506101656000830184610132565b92915050565b60006020820190506101806000830184610141565b92915050565b6000610191826101ce565b915061019c836101ce565b92508267ffffffffffffffff038211156101b9576101b86101e2565b5b828201905092915050565b6000819050919050565b600067ffffffffffffffff82169050919050565b7f4e487b7100000000000000000000000000000000000000000000000000000000600052601160045260246000fdfea26469706673582212200f0c02a2a3fd65aa9be2b73af66c35f9d9da7f55406b16b048757bd061008ec064736f6c63430008040033",
					"opcodes": "PUSH1 0x80 PUSH1 0x40 MSTORE CALLVALUE DUP1 ISZERO PUSH2 0x10 JUMPI PUSH1 0x0 DUP1 REVERT JUMPDEST POP PUSH2 0x247 DUP1 PUSH2 0x20 PUSH1 0x0 CODECOPY PUSH1 0x0 RETURN INVALID PUSH1 0x80 PUSH1 0x40 MSTORE CALLVALUE DUP1 ISZERO PUSH2 0x10 JUMPI PUSH1 0x0 DUP1 REVERT JUMPDEST POP PUSH1 0x4 CALLDATASIZE LT PUSH2 0x4C JUMPI PUSH1 0x0 CALLDATALOAD PUSH1 0xE0 SHR DUP1 PUSH4 0x2A251A3 EQ PUSH2 0x51 JUMPI DUP1 PUSH4 0x29DCB0CF EQ PUSH2 0x6F JUMPI DUP1 PUSH4 0x3932ABB1 EQ PUSH2 0x8D JUMPI DUP1 PUSH4 0x9711715A EQ PUSH2 0xAB JUMPI JUMPDEST PUSH1 0x0 DUP1 REVERT JUMPDEST PUSH2 0x59 PUSH2 0xC9 JUMP JUMPDEST PUSH1 0x40 MLOAD PUSH2 0x66 SWAP2 SWAP1 PUSH2 0x150 JUMP JUMPDEST PUSH1 0x40 MLOAD DUP1 SWAP2 SUB SWAP1 RETURN JUMPDEST PUSH2 0x77 PUSH2 0xD3 JUMP JUMPDEST PUSH1 0x40 MLOAD PUSH2 0x84 SWAP2 SWAP1 PUSH2 0x16B JUMP JUMPDEST PUSH1 0x40 MLOAD DUP1 SWAP2 SUB SWAP1 RETURN JUMPDEST PUSH2 0x95 PUSH2 0x10A JUMP JUMPDEST PUSH1 0x40 MLOAD PUSH2 0xA2 SWAP2 SWAP1 PUSH2 0x150 JUMP JUMPDEST PUSH1 0x40 MLOAD DUP1 SWAP2 SUB SWAP1 RETURN JUMPDEST PUSH2 0xB3 PUSH2 0x113 JUMP JUMPDEST PUSH1 0x40 MLOAD PUSH2 0xC0 SWAP2 SWAP1 PUSH2 0x16B JUMP JUMPDEST PUSH1 0x40 MLOAD DUP1 SWAP2 SUB SWAP1 RETURN JUMPDEST PUSH1 0x0 PUSH2 0xB2FA SWAP1 POP SWAP1 JUMP JUMPDEST PUSH1 0x0 DUP1 PUSH2 0xDE PUSH2 0x10A JUMP JUMPDEST NUMBER PUSH2 0xE9 SWAP2 SWAP1 PUSH2 0x186 JUMP JUMPDEST SWAP1 POP PUSH1 0x0 PUSH2 0xF5 PUSH2 0xC9 JUMP JUMPDEST DUP3 PUSH2 0x100 SWAP2 SWAP1 PUSH2 0x186 JUMP JUMPDEST SWAP1 POP DUP1 SWAP3 POP POP POP SWAP1 JUMP JUMPDEST PUSH1 0x0 PUSH1 0x1 SWAP1 POP SWAP1 JUMP JUMPDEST PUSH1 0x0 DUP1 PUSH2 0x11E PUSH2 0x10A JUMP JUMPDEST NUMBER PUSH2 0x129 SWAP2 SWAP1 PUSH2 0x186 JUMP JUMPDEST SWAP1 POP DUP1 SWAP2 POP POP SWAP1 JUMP JUMPDEST PUSH2 0x13B DUP2 PUSH2 0x1C4 JUMP JUMPDEST DUP3 MSTORE POP POP JUMP JUMPDEST PUSH2 0x14A DUP2 PUSH2 0x1CE JUMP JUMPDEST DUP3 MSTORE POP POP JUMP JUMPDEST PUSH1 0x0 PUSH1 0x20 DUP3 ADD SWAP1 POP PUSH2 0x165 PUSH1 0x0 DUP4 ADD DUP5 PUSH2 0x132 JUMP JUMPDEST SWAP3 SWAP2 POP POP JUMP JUMPDEST PUSH1 0x0 PUSH1 0x20 DUP3 ADD SWAP1 POP PUSH2 0x180 PUSH1 0x0 DUP4 ADD DUP5 PUSH2 0x141 JUMP JUMPDEST SWAP3 SWAP2 POP POP JUMP JUMPDEST PUSH1 0x0 PUSH2 0x191 DUP3 PUSH2 0x1CE JUMP JUMPDEST SWAP2 POP PUSH2 0x19C DUP4 PUSH2 0x1CE JUMP JUMPDEST SWAP3 POP DUP3 PUSH8 0xFFFFFFFFFFFFFFFF SUB DUP3 GT ISZERO PUSH2 0x1B9 JUMPI PUSH2 0x1B8 PUSH2 0x1E2 JUMP JUMPDEST JUMPDEST DUP3 DUP3 ADD SWAP1 POP SWAP3 SWAP2 POP POP JUMP JUMPDEST PUSH1 0x0 DUP2 SWAP1 POP SWAP2 SWAP1 POP JUMP JUMPDEST PUSH1 0x0 PUSH8 0xFFFFFFFFFFFFFFFF DUP3 AND SWAP1 POP SWAP2 SWAP1 POP JUMP JUMPDEST PUSH32 0x4E487B7100000000000000000000000000000000000000000000000000000000 PUSH1 0x0 MSTORE PUSH1 0x11 PUSH1 0x4 MSTORE PUSH1 0x24 PUSH1 0x0 REVERT INVALID LOG2 PUSH5 0x6970667358 0x22 SLT KECCAK256 0xF 0xC MUL LOG2 LOG3 REVERT PUSH6 0xAA9BE2B73AF6 PUSH13 0x35F9D9DA7F55406B16B048757B 0xD0 PUSH2 0x8E 0xC0 PUSH5 0x736F6C6343 STOP ADDMOD DIV STOP CALLER "
				},
				"gasEstimates": {
					"creation": {
						"codeDepositCost": "116600",
						"executionCost": "165",
						"totalCost": "116765"
					},
					"external": {
						"deadline()": "infinite",
						"snapshot()": "infinite",
						"votingDelay()": "359",
						"votingPeriod()": "315"
					}
				},
				"methodIdentifiers": {
					"deadline()": "29dcb0cf",
					"snapshot()": "9711715a",
					"votingDelay()": "3932abb1",
					"votingPeriod()": "02a251a3"
				}
			},
			"storageLayout": {
				"storage": [],
				"types": null
			},
			"userdoc": {
				"kind": "user",
				"methods": {},
				"version": 1
			}
		}
	}
}