{
	".workspaces/default_workspace/unMiracle/UMRCmiracle.sol": {
		"UMRproposal": {
			"abi": [
				{
					"inputs": [
						{
							"internalType": "address",
							"name": "proposer",
							"type": "address"
						},
						{
							"internalType": "address",
							"name": "destination",
							"type": "address"
						},
						{
							"internalType": "bytes[]",
							"name": "calldatas",
							"type": "bytes[]"
						},
						{
							"internalType": "bytes32",
							"name": "descriptionHash",
							"type": "bytes32"
						}
					],
					"name": "hashProposal",
					"outputs": [
						{
							"internalType": "uint256",
							"name": "",
							"type": "uint256"
						}
					],
					"stateMutability": "pure",
					"type": "function"
				},
				{
					"inputs": [
						{
							"internalType": "address",
							"name": "proposer",
							"type": "address"
						},
						{
							"internalType": "uint256",
							"name": "donateDelay",
							"type": "uint256"
						},
						{
							"internalType": "uint256",
							"name": "donatePeriod",
							"type": "uint256"
						},
						{
							"internalType": "uint256",
							"name": "donateMinimum",
							"type": "uint256"
						},
						{
							"internalType": "address",
							"name": "destination",
							"type": "address"
						},
						{
							"internalType": "string",
							"name": "description",
							"type": "string"
						},
						{
							"internalType": "bytes[]",
							"name": "calldatas",
							"type": "bytes[]"
						}
					],
					"name": "proposal",
					"outputs": [
						{
							"internalType": "uint256",
							"name": "",
							"type": "uint256"
						}
					],
					"stateMutability": "nonpayable",
					"type": "function"
				}
			],
			"devdoc": {
				"kind": "dev",
				"methods": {},
				"version": 1
			},
			"evm": {
				"assembly": "    /* \".workspaces/default_workspace/unMiracle/UMRCmiracle.sol\":109:1621  contract UMRproposal {... */\n  mstore(0x40, 0x80)\n  callvalue\n  dup1\n  iszero\n  tag_1\n  jumpi\n  0x00\n  dup1\n  revert\ntag_1:\n  pop\n  dataSize(sub_0)\n  dup1\n  dataOffset(sub_0)\n  0x00\n  codecopy\n  0x00\n  return\nstop\n\nsub_0: assembly {\n        /* \".workspaces/default_workspace/unMiracle/UMRCmiracle.sol\":109:1621  contract UMRproposal {... */\n      mstore(0x40, 0x80)\n      callvalue\n      dup1\n      iszero\n      tag_1\n      jumpi\n      0x00\n      dup1\n      revert\n    tag_1:\n      pop\n      jumpi(tag_2, lt(calldatasize, 0x04))\n      shr(0xe0, calldataload(0x00))\n      dup1\n      0x42f9d5be\n      eq\n      tag_3\n      jumpi\n      dup1\n      0xee4d6020\n      eq\n      tag_4\n      jumpi\n    tag_2:\n      0x00\n      dup1\n      revert\n        /* \".workspaces/default_workspace/unMiracle/UMRCmiracle.sol\":718:1619  function proposal(... */\n    tag_3:\n      tag_5\n      0x04\n      dup1\n      calldatasize\n      sub\n      dup2\n      add\n      swap1\n      tag_6\n      swap2\n      swap1\n      tag_7\n      jump\t// in\n    tag_6:\n      tag_8\n      jump\t// in\n    tag_5:\n      mload(0x40)\n      tag_9\n      swap2\n      swap1\n      tag_10\n      jump\t// in\n    tag_9:\n      mload(0x40)\n      dup1\n      swap2\n      sub\n      swap1\n      return\n        /* \".workspaces/default_workspace/unMiracle/UMRCmiracle.sol\":428:712  function hashProposal(... */\n    tag_4:\n      tag_11\n      0x04\n      dup1\n      calldatasize\n      sub\n      dup2\n      add\n      swap1\n      tag_12\n      swap2\n      swap1\n      tag_13\n      jump\t// in\n    tag_12:\n      tag_14\n      jump\t// in\n    tag_11:\n      mload(0x40)\n      tag_15\n      swap2\n      swap1\n      tag_10\n      jump\t// in\n    tag_15:\n      mload(0x40)\n      dup1\n      swap2\n      sub\n      swap1\n      return\n        /* \".workspaces/default_workspace/unMiracle/UMRCmiracle.sol\":718:1619  function proposal(... */\n    tag_8:\n        /* \".workspaces/default_workspace/unMiracle/UMRCmiracle.sol\":1111:1118  uint256 */\n      0x00\n        /* \".workspaces/default_workspace/unMiracle/UMRCmiracle.sol\":1130:1148  uint256 proposalId */\n      dup1\n        /* \".workspaces/default_workspace/unMiracle/UMRCmiracle.sol\":1151:1227  hashProposal(proposer,destination, calldatas, keccak256(bytes(description))) */\n      tag_17\n        /* \".workspaces/default_workspace/unMiracle/UMRCmiracle.sol\":1164:1172  proposer */\n      dup10\n        /* \".workspaces/default_workspace/unMiracle/UMRCmiracle.sol\":1173:1184  destination */\n      dup7\n        /* \".workspaces/default_workspace/unMiracle/UMRCmiracle.sol\":1186:1195  calldatas */\n      dup6\n        /* \".workspaces/default_workspace/unMiracle/UMRCmiracle.sol\":1213:1224  description */\n      dup8\n        /* \".workspaces/default_workspace/unMiracle/UMRCmiracle.sol\":1197:1226  keccak256(bytes(description)) */\n      dup1\n      mload\n      swap1\n      0x20\n      add\n      keccak256\n        /* \".workspaces/default_workspace/unMiracle/UMRCmiracle.sol\":1151:1163  hashProposal */\n      tag_14\n        /* \".workspaces/default_workspace/unMiracle/UMRCmiracle.sol\":1151:1227  hashProposal(proposer,destination, calldatas, keccak256(bytes(description))) */\n      jump\t// in\n    tag_17:\n        /* \".workspaces/default_workspace/unMiracle/UMRCmiracle.sol\":1130:1227  uint256 proposalId = hashProposal(proposer,destination, calldatas, keccak256(bytes(description))) */\n      swap1\n      pop\n        /* \".workspaces/default_workspace/unMiracle/UMRCmiracle.sol\":1246:1275  ProposalCore storage proposal */\n      0x00\n        /* \".workspaces/default_workspace/unMiracle/UMRCmiracle.sol\":1278:1288  _proposals */\n      dup1\n        /* \".workspaces/default_workspace/unMiracle/UMRCmiracle.sol\":1278:1300  _proposals[proposalId] */\n      0x00\n        /* \".workspaces/default_workspace/unMiracle/UMRCmiracle.sol\":1289:1299  proposalId */\n      dup4\n        /* \".workspaces/default_workspace/unMiracle/UMRCmiracle.sol\":1278:1300  _proposals[proposalId] */\n      dup2\n      mstore\n      0x20\n      add\n      swap1\n      dup2\n      mstore\n      0x20\n      add\n      0x00\n      keccak256\n        /* \".workspaces/default_workspace/unMiracle/UMRCmiracle.sol\":1246:1300  ProposalCore storage proposal = _proposals[proposalId] */\n      swap1\n      pop\n        /* \".workspaces/default_workspace/unMiracle/UMRCmiracle.sol\":1311:1326  uint64 snapshot */\n      0x00\n        /* \".workspaces/default_workspace/unMiracle/UMRCmiracle.sol\":1359:1370  donateDelay */\n      dup10\n        /* \".workspaces/default_workspace/unMiracle/UMRCmiracle.sol\":1336:1348  block.number */\n      number\n        /* \".workspaces/default_workspace/unMiracle/UMRCmiracle.sol\":1329:1371  uint64(block.number) + uint64(donateDelay) */\n      tag_18\n      swap2\n      swap1\n      tag_19\n      jump\t// in\n    tag_18:\n        /* \".workspaces/default_workspace/unMiracle/UMRCmiracle.sol\":1311:1371  uint64 snapshot = uint64(block.number) + uint64(donateDelay) */\n      swap1\n      pop\n        /* \".workspaces/default_workspace/unMiracle/UMRCmiracle.sol\":1381:1396  uint64 deadline */\n      0x00\n        /* \".workspaces/default_workspace/unMiracle/UMRCmiracle.sol\":1417:1429  donatePeriod */\n      dup10\n        /* \".workspaces/default_workspace/unMiracle/UMRCmiracle.sol\":1399:1407  snapshot */\n      dup3\n        /* \".workspaces/default_workspace/unMiracle/UMRCmiracle.sol\":1399:1430  snapshot + uint64(donatePeriod) */\n      tag_20\n      swap2\n      swap1\n      tag_19\n      jump\t// in\n    tag_20:\n        /* \".workspaces/default_workspace/unMiracle/UMRCmiracle.sol\":1381:1430  uint64 deadline = snapshot + uint64(donatePeriod) */\n      swap1\n      pop\n        /* \".workspaces/default_workspace/unMiracle/UMRCmiracle.sol\":1441:1485  proposal.donationStart.setDeadline(snapshot) */\n      tag_21\n        /* \".workspaces/default_workspace/unMiracle/UMRCmiracle.sol\":1476:1484  snapshot */\n      dup3\n        /* \".workspaces/default_workspace/unMiracle/UMRCmiracle.sol\":1441:1449  proposal */\n      dup5\n        /* \".workspaces/default_workspace/unMiracle/UMRCmiracle.sol\":1441:1463  proposal.donationStart */\n      0x00\n      add\n        /* \".workspaces/default_workspace/unMiracle/UMRCmiracle.sol\":1441:1475  proposal.donationStart.setDeadline */\n      tag_22\n      swap1\n        /* \".workspaces/default_workspace/unMiracle/UMRCmiracle.sol\":1441:1485  proposal.donationStart.setDeadline(snapshot) */\n      swap2\n      swap1\n      0xffffffff\n      and\n      jump\t// in\n    tag_21:\n        /* \".workspaces/default_workspace/unMiracle/UMRCmiracle.sol\":1495:1537  proposal.donationEnd.setDeadline(deadline) */\n      tag_23\n        /* \".workspaces/default_workspace/unMiracle/UMRCmiracle.sol\":1528:1536  deadline */\n      dup2\n        /* \".workspaces/default_workspace/unMiracle/UMRCmiracle.sol\":1495:1503  proposal */\n      dup5\n        /* \".workspaces/default_workspace/unMiracle/UMRCmiracle.sol\":1495:1515  proposal.donationEnd */\n      0x01\n      add\n        /* \".workspaces/default_workspace/unMiracle/UMRCmiracle.sol\":1495:1527  proposal.donationEnd.setDeadline */\n      tag_22\n      swap1\n        /* \".workspaces/default_workspace/unMiracle/UMRCmiracle.sol\":1495:1537  proposal.donationEnd.setDeadline(deadline) */\n      swap2\n      swap1\n      0xffffffff\n      and\n      jump\t// in\n    tag_23:\n        /* \".workspaces/default_workspace/unMiracle/UMRCmiracle.sol\":1572:1585  donateMinimum */\n      dup9\n        /* \".workspaces/default_workspace/unMiracle/UMRCmiracle.sol\":1547:1555  proposal */\n      dup4\n        /* \".workspaces/default_workspace/unMiracle/UMRCmiracle.sol\":1547:1569  proposal.donateMinimum */\n      0x02\n      add\n        /* \".workspaces/default_workspace/unMiracle/UMRCmiracle.sol\":1547:1585  proposal.donateMinimum = donateMinimum */\n      dup2\n      swap1\n      sstore\n      pop\n        /* \".workspaces/default_workspace/unMiracle/UMRCmiracle.sol\":1602:1612  proposalId */\n      dup4\n        /* \".workspaces/default_workspace/unMiracle/UMRCmiracle.sol\":1595:1612  return proposalId */\n      swap5\n      pop\n      pop\n      pop\n      pop\n      pop\n        /* \".workspaces/default_workspace/unMiracle/UMRCmiracle.sol\":718:1619  function proposal(... */\n      swap8\n      swap7\n      pop\n      pop\n      pop\n      pop\n      pop\n      pop\n      pop\n      jump\t// out\n        /* \".workspaces/default_workspace/unMiracle/UMRCmiracle.sol\":428:712  function hashProposal(... */\n    tag_14:\n        /* \".workspaces/default_workspace/unMiracle/UMRCmiracle.sol\":599:606  uint256 */\n      0x00\n        /* \".workspaces/default_workspace/unMiracle/UMRCmiracle.sol\":654:662  proposer */\n      dup5\n        /* \".workspaces/default_workspace/unMiracle/UMRCmiracle.sol\":663:674  destination */\n      dup5\n        /* \".workspaces/default_workspace/unMiracle/UMRCmiracle.sol\":676:685  calldatas */\n      dup5\n        /* \".workspaces/default_workspace/unMiracle/UMRCmiracle.sol\":687:702  descriptionHash */\n      dup5\n        /* \".workspaces/default_workspace/unMiracle/UMRCmiracle.sol\":643:703  abi.encode(proposer,destination, calldatas, descriptionHash) */\n      add(0x20, mload(0x40))\n      tag_25\n      swap5\n      swap4\n      swap3\n      swap2\n      swap1\n      tag_26\n      jump\t// in\n    tag_25:\n      mload(0x40)\n      0x20\n      dup2\n      dup4\n      sub\n      sub\n      dup2\n      mstore\n      swap1\n      0x40\n      mstore\n        /* \".workspaces/default_workspace/unMiracle/UMRCmiracle.sol\":633:704  keccak256(abi.encode(proposer,destination, calldatas, descriptionHash)) */\n      dup1\n      mload\n      swap1\n      0x20\n      add\n      keccak256\n        /* \".workspaces/default_workspace/unMiracle/UMRCmiracle.sol\":625:705  uint256(keccak256(abi.encode(proposer,destination, calldatas, descriptionHash))) */\n      0x00\n      shr\n        /* \".workspaces/default_workspace/unMiracle/UMRCmiracle.sol\":618:705  return uint256(keccak256(abi.encode(proposer,destination, calldatas, descriptionHash))) */\n      swap1\n      pop\n        /* \".workspaces/default_workspace/unMiracle/UMRCmiracle.sol\":428:712  function hashProposal(... */\n      swap5\n      swap4\n      pop\n      pop\n      pop\n      pop\n      jump\t// out\n        /* \"@openzeppelin/contracts/utils/Timers.sol\":1293:1412  function setDeadline(BlockNumber storage timer, uint64 timestamp) internal {... */\n    tag_22:\n        /* \"@openzeppelin/contracts/utils/Timers.sol\":1396:1405  timestamp */\n      dup1\n        /* \"@openzeppelin/contracts/utils/Timers.sol\":1378:1383  timer */\n      dup3\n        /* \"@openzeppelin/contracts/utils/Timers.sol\":1378:1393  timer._deadline */\n      0x00\n      add\n      0x00\n        /* \"@openzeppelin/contracts/utils/Timers.sol\":1378:1405  timer._deadline = timestamp */\n      0x0100\n      exp\n      dup2\n      sload\n      dup2\n      0xffffffffffffffff\n      mul\n      not\n      and\n      swap1\n      dup4\n      0xffffffffffffffff\n      and\n      mul\n      or\n      swap1\n      sstore\n      pop\n        /* \"@openzeppelin/contracts/utils/Timers.sol\":1293:1412  function setDeadline(BlockNumber storage timer, uint64 timestamp) internal {... */\n      pop\n      pop\n      jump\t// out\n        /* \"#utility.yul\":22:842   */\n    tag_29:\n        /* \"#utility.yul\":127:132   */\n      0x00\n        /* \"#utility.yul\":152:242   */\n      tag_31\n        /* \"#utility.yul\":168:241   */\n      tag_32\n        /* \"#utility.yul\":234:240   */\n      dup5\n        /* \"#utility.yul\":168:241   */\n      tag_33\n      jump\t// in\n    tag_32:\n        /* \"#utility.yul\":152:242   */\n      tag_34\n      jump\t// in\n    tag_31:\n        /* \"#utility.yul\":143:242   */\n      swap1\n      pop\n        /* \"#utility.yul\":262:267   */\n      dup1\n        /* \"#utility.yul\":291:297   */\n      dup4\n        /* \"#utility.yul\":284:289   */\n      dup3\n        /* \"#utility.yul\":277:298   */\n      mstore\n        /* \"#utility.yul\":325:329   */\n      0x20\n        /* \"#utility.yul\":318:323   */\n      dup3\n        /* \"#utility.yul\":314:330   */\n      add\n        /* \"#utility.yul\":307:330   */\n      swap1\n      pop\n        /* \"#utility.yul\":351:357   */\n      dup3\n        /* \"#utility.yul\":401:404   */\n      dup6\n        /* \"#utility.yul\":393:397   */\n      0x20\n        /* \"#utility.yul\":385:391   */\n      dup7\n        /* \"#utility.yul\":381:398   */\n      mul\n        /* \"#utility.yul\":376:379   */\n      dup3\n        /* \"#utility.yul\":372:399   */\n      add\n        /* \"#utility.yul\":369:405   */\n      gt\n        /* \"#utility.yul\":366:368   */\n      iszero\n      tag_35\n      jumpi\n        /* \"#utility.yul\":430:431   */\n      0x00\n        /* \"#utility.yul\":427:428   */\n      dup1\n        /* \"#utility.yul\":420:432   */\n      revert\n        /* \"#utility.yul\":366:368   */\n    tag_35:\n        /* \"#utility.yul\":466:467   */\n      0x00\n        /* \"#utility.yul\":451:836   */\n    tag_36:\n        /* \"#utility.yul\":476:482   */\n      dup6\n        /* \"#utility.yul\":473:474   */\n      dup2\n        /* \"#utility.yul\":470:483   */\n      lt\n        /* \"#utility.yul\":451:836   */\n      iszero\n      tag_38\n      jumpi\n        /* \"#utility.yul\":558:561   */\n      dup2\n        /* \"#utility.yul\":545:562   */\n      calldataload\n        /* \"#utility.yul\":594:612   */\n      0xffffffffffffffff\n        /* \"#utility.yul\":581:592   */\n      dup2\n        /* \"#utility.yul\":578:613   */\n      gt\n        /* \"#utility.yul\":575:577   */\n      iszero\n      tag_39\n      jumpi\n        /* \"#utility.yul\":626:627   */\n      0x00\n        /* \"#utility.yul\":623:624   */\n      dup1\n        /* \"#utility.yul\":616:628   */\n      revert\n        /* \"#utility.yul\":575:577   */\n    tag_39:\n        /* \"#utility.yul\":673:684   */\n      dup1\n        /* \"#utility.yul\":665:671   */\n      dup7\n        /* \"#utility.yul\":661:685   */\n      add\n        /* \"#utility.yul\":711:757   */\n      tag_40\n        /* \"#utility.yul\":753:756   */\n      dup10\n        /* \"#utility.yul\":741:751   */\n      dup3\n        /* \"#utility.yul\":711:757   */\n      tag_41\n      jump\t// in\n    tag_40:\n        /* \"#utility.yul\":706:709   */\n      dup6\n        /* \"#utility.yul\":699:758   */\n      mstore\n        /* \"#utility.yul\":787:791   */\n      0x20\n        /* \"#utility.yul\":782:785   */\n      dup6\n        /* \"#utility.yul\":778:792   */\n      add\n        /* \"#utility.yul\":771:792   */\n      swap5\n      pop\n        /* \"#utility.yul\":821:825   */\n      0x20\n        /* \"#utility.yul\":816:819   */\n      dup5\n        /* \"#utility.yul\":812:826   */\n      add\n        /* \"#utility.yul\":805:826   */\n      swap4\n      pop\n        /* \"#utility.yul\":511:836   */\n      pop\n      pop\n        /* \"#utility.yul\":498:499   */\n      0x01\n        /* \"#utility.yul\":495:496   */\n      dup2\n        /* \"#utility.yul\":491:500   */\n      add\n        /* \"#utility.yul\":486:500   */\n      swap1\n      pop\n        /* \"#utility.yul\":451:836   */\n      jump(tag_36)\n    tag_38:\n        /* \"#utility.yul\":455:469   */\n      pop\n        /* \"#utility.yul\":133:842   */\n      pop\n      pop\n      swap4\n      swap3\n      pop\n      pop\n      pop\n      jump\t// out\n        /* \"#utility.yul\":848:1191   */\n    tag_42:\n        /* \"#utility.yul\":925:930   */\n      0x00\n        /* \"#utility.yul\":950:1015   */\n      tag_44\n        /* \"#utility.yul\":966:1014   */\n      tag_45\n        /* \"#utility.yul\":1007:1013   */\n      dup5\n        /* \"#utility.yul\":966:1014   */\n      tag_46\n      jump\t// in\n    tag_45:\n        /* \"#utility.yul\":950:1015   */\n      tag_34\n      jump\t// in\n    tag_44:\n        /* \"#utility.yul\":941:1015   */\n      swap1\n      pop\n        /* \"#utility.yul\":1038:1044   */\n      dup3\n        /* \"#utility.yul\":1031:1036   */\n      dup2\n        /* \"#utility.yul\":1024:1045   */\n      mstore\n        /* \"#utility.yul\":1076:1080   */\n      0x20\n        /* \"#utility.yul\":1069:1074   */\n      dup2\n        /* \"#utility.yul\":1065:1081   */\n      add\n        /* \"#utility.yul\":1114:1117   */\n      dup5\n        /* \"#utility.yul\":1105:1111   */\n      dup5\n        /* \"#utility.yul\":1100:1103   */\n      dup5\n        /* \"#utility.yul\":1096:1112   */\n      add\n        /* \"#utility.yul\":1093:1118   */\n      gt\n        /* \"#utility.yul\":1090:1092   */\n      iszero\n      tag_47\n      jumpi\n        /* \"#utility.yul\":1131:1132   */\n      0x00\n        /* \"#utility.yul\":1128:1129   */\n      dup1\n        /* \"#utility.yul\":1121:1133   */\n      revert\n        /* \"#utility.yul\":1090:1092   */\n    tag_47:\n        /* \"#utility.yul\":1144:1185   */\n      tag_48\n        /* \"#utility.yul\":1178:1184   */\n      dup5\n        /* \"#utility.yul\":1173:1176   */\n      dup3\n        /* \"#utility.yul\":1168:1171   */\n      dup6\n        /* \"#utility.yul\":1144:1185   */\n      tag_49\n      jump\t// in\n    tag_48:\n        /* \"#utility.yul\":931:1191   */\n      pop\n      swap4\n      swap3\n      pop\n      pop\n      pop\n      jump\t// out\n        /* \"#utility.yul\":1197:1542   */\n    tag_50:\n        /* \"#utility.yul\":1275:1280   */\n      0x00\n        /* \"#utility.yul\":1300:1366   */\n      tag_52\n        /* \"#utility.yul\":1316:1365   */\n      tag_53\n        /* \"#utility.yul\":1358:1364   */\n      dup5\n        /* \"#utility.yul\":1316:1365   */\n      tag_54\n      jump\t// in\n    tag_53:\n        /* \"#utility.yul\":1300:1366   */\n      tag_34\n      jump\t// in\n    tag_52:\n        /* \"#utility.yul\":1291:1366   */\n      swap1\n      pop\n        /* \"#utility.yul\":1389:1395   */\n      dup3\n        /* \"#utility.yul\":1382:1387   */\n      dup2\n        /* \"#utility.yul\":1375:1396   */\n      mstore\n        /* \"#utility.yul\":1427:1431   */\n      0x20\n        /* \"#utility.yul\":1420:1425   */\n      dup2\n        /* \"#utility.yul\":1416:1432   */\n      add\n        /* \"#utility.yul\":1465:1468   */\n      dup5\n        /* \"#utility.yul\":1456:1462   */\n      dup5\n        /* \"#utility.yul\":1451:1454   */\n      dup5\n        /* \"#utility.yul\":1447:1463   */\n      add\n        /* \"#utility.yul\":1444:1469   */\n      gt\n        /* \"#utility.yul\":1441:1443   */\n      iszero\n      tag_55\n      jumpi\n        /* \"#utility.yul\":1482:1483   */\n      0x00\n        /* \"#utility.yul\":1479:1480   */\n      dup1\n        /* \"#utility.yul\":1472:1484   */\n      revert\n        /* \"#utility.yul\":1441:1443   */\n    tag_55:\n        /* \"#utility.yul\":1495:1536   */\n      tag_56\n        /* \"#utility.yul\":1529:1535   */\n      dup5\n        /* \"#utility.yul\":1524:1527   */\n      dup3\n        /* \"#utility.yul\":1519:1522   */\n      dup6\n        /* \"#utility.yul\":1495:1536   */\n      tag_49\n      jump\t// in\n    tag_56:\n        /* \"#utility.yul\":1281:1542   */\n      pop\n      swap4\n      swap3\n      pop\n      pop\n      pop\n      jump\t// out\n        /* \"#utility.yul\":1548:1687   */\n    tag_57:\n        /* \"#utility.yul\":1594:1599   */\n      0x00\n        /* \"#utility.yul\":1632:1638   */\n      dup2\n        /* \"#utility.yul\":1619:1639   */\n      calldataload\n        /* \"#utility.yul\":1610:1639   */\n      swap1\n      pop\n        /* \"#utility.yul\":1648:1681   */\n      tag_59\n        /* \"#utility.yul\":1675:1680   */\n      dup2\n        /* \"#utility.yul\":1648:1681   */\n      tag_60\n      jump\t// in\n    tag_59:\n        /* \"#utility.yul\":1600:1687   */\n      swap3\n      swap2\n      pop\n      pop\n      jump\t// out\n        /* \"#utility.yul\":1708:2029   */\n    tag_61:\n        /* \"#utility.yul\":1788:1793   */\n      0x00\n        /* \"#utility.yul\":1837:1840   */\n      dup3\n        /* \"#utility.yul\":1830:1834   */\n      0x1f\n        /* \"#utility.yul\":1822:1828   */\n      dup4\n        /* \"#utility.yul\":1818:1835   */\n      add\n        /* \"#utility.yul\":1814:1841   */\n      slt\n        /* \"#utility.yul\":1804:1806   */\n      tag_63\n      jumpi\n        /* \"#utility.yul\":1855:1856   */\n      0x00\n        /* \"#utility.yul\":1852:1853   */\n      dup1\n        /* \"#utility.yul\":1845:1857   */\n      revert\n        /* \"#utility.yul\":1804:1806   */\n    tag_63:\n        /* \"#utility.yul\":1895:1901   */\n      dup2\n        /* \"#utility.yul\":1882:1902   */\n      calldataload\n        /* \"#utility.yul\":1920:2023   */\n      tag_64\n        /* \"#utility.yul\":2019:2022   */\n      dup5\n        /* \"#utility.yul\":2011:2017   */\n      dup3\n        /* \"#utility.yul\":2004:2008   */\n      0x20\n        /* \"#utility.yul\":1996:2002   */\n      dup7\n        /* \"#utility.yul\":1992:2009   */\n      add\n        /* \"#utility.yul\":1920:2023   */\n      tag_29\n      jump\t// in\n    tag_64:\n        /* \"#utility.yul\":1911:2023   */\n      swap2\n      pop\n        /* \"#utility.yul\":1794:2029   */\n      pop\n      swap3\n      swap2\n      pop\n      pop\n      jump\t// out\n        /* \"#utility.yul\":2035:2174   */\n    tag_65:\n        /* \"#utility.yul\":2081:2086   */\n      0x00\n        /* \"#utility.yul\":2119:2125   */\n      dup2\n        /* \"#utility.yul\":2106:2126   */\n      calldataload\n        /* \"#utility.yul\":2097:2126   */\n      swap1\n      pop\n        /* \"#utility.yul\":2135:2168   */\n      tag_67\n        /* \"#utility.yul\":2162:2167   */\n      dup2\n        /* \"#utility.yul\":2135:2168   */\n      tag_68\n      jump\t// in\n    tag_67:\n        /* \"#utility.yul\":2087:2174   */\n      swap3\n      swap2\n      pop\n      pop\n      jump\t// out\n        /* \"#utility.yul\":2193:2464   */\n    tag_41:\n        /* \"#utility.yul\":2248:2253   */\n      0x00\n        /* \"#utility.yul\":2297:2300   */\n      dup3\n        /* \"#utility.yul\":2290:2294   */\n      0x1f\n        /* \"#utility.yul\":2282:2288   */\n      dup4\n        /* \"#utility.yul\":2278:2295   */\n      add\n        /* \"#utility.yul\":2274:2301   */\n      slt\n        /* \"#utility.yul\":2264:2266   */\n      tag_70\n      jumpi\n        /* \"#utility.yul\":2315:2316   */\n      0x00\n        /* \"#utility.yul\":2312:2313   */\n      dup1\n        /* \"#utility.yul\":2305:2317   */\n      revert\n        /* \"#utility.yul\":2264:2266   */\n    tag_70:\n        /* \"#utility.yul\":2355:2361   */\n      dup2\n        /* \"#utility.yul\":2342:2362   */\n      calldataload\n        /* \"#utility.yul\":2380:2458   */\n      tag_71\n        /* \"#utility.yul\":2454:2457   */\n      dup5\n        /* \"#utility.yul\":2446:2452   */\n      dup3\n        /* \"#utility.yul\":2439:2443   */\n      0x20\n        /* \"#utility.yul\":2431:2437   */\n      dup7\n        /* \"#utility.yul\":2427:2444   */\n      add\n        /* \"#utility.yul\":2380:2458   */\n      tag_42\n      jump\t// in\n    tag_71:\n        /* \"#utility.yul\":2371:2458   */\n      swap2\n      pop\n        /* \"#utility.yul\":2254:2464   */\n      pop\n      swap3\n      swap2\n      pop\n      pop\n      jump\t// out\n        /* \"#utility.yul\":2484:2757   */\n    tag_72:\n        /* \"#utility.yul\":2540:2545   */\n      0x00\n        /* \"#utility.yul\":2589:2592   */\n      dup3\n        /* \"#utility.yul\":2582:2586   */\n      0x1f\n        /* \"#utility.yul\":2574:2580   */\n      dup4\n        /* \"#utility.yul\":2570:2587   */\n      add\n        /* \"#utility.yul\":2566:2593   */\n      slt\n        /* \"#utility.yul\":2556:2558   */\n      tag_74\n      jumpi\n        /* \"#utility.yul\":2607:2608   */\n      0x00\n        /* \"#utility.yul\":2604:2605   */\n      dup1\n        /* \"#utility.yul\":2597:2609   */\n      revert\n        /* \"#utility.yul\":2556:2558   */\n    tag_74:\n        /* \"#utility.yul\":2647:2653   */\n      dup2\n        /* \"#utility.yul\":2634:2654   */\n      calldataload\n        /* \"#utility.yul\":2672:2751   */\n      tag_75\n        /* \"#utility.yul\":2747:2750   */\n      dup5\n        /* \"#utility.yul\":2739:2745   */\n      dup3\n        /* \"#utility.yul\":2732:2736   */\n      0x20\n        /* \"#utility.yul\":2724:2730   */\n      dup7\n        /* \"#utility.yul\":2720:2737   */\n      add\n        /* \"#utility.yul\":2672:2751   */\n      tag_50\n      jump\t// in\n    tag_75:\n        /* \"#utility.yul\":2663:2751   */\n      swap2\n      pop\n        /* \"#utility.yul\":2546:2757   */\n      pop\n      swap3\n      swap2\n      pop\n      pop\n      jump\t// out\n        /* \"#utility.yul\":2763:2902   */\n    tag_76:\n        /* \"#utility.yul\":2809:2814   */\n      0x00\n        /* \"#utility.yul\":2847:2853   */\n      dup2\n        /* \"#utility.yul\":2834:2854   */\n      calldataload\n        /* \"#utility.yul\":2825:2854   */\n      swap1\n      pop\n        /* \"#utility.yul\":2863:2896   */\n      tag_78\n        /* \"#utility.yul\":2890:2895   */\n      dup2\n        /* \"#utility.yul\":2863:2896   */\n      tag_79\n      jump\t// in\n    tag_78:\n        /* \"#utility.yul\":2815:2902   */\n      swap3\n      swap2\n      pop\n      pop\n      jump\t// out\n        /* \"#utility.yul\":2908:3767   */\n    tag_13:\n        /* \"#utility.yul\":3028:3034   */\n      0x00\n        /* \"#utility.yul\":3036:3042   */\n      dup1\n        /* \"#utility.yul\":3044:3050   */\n      0x00\n        /* \"#utility.yul\":3052:3058   */\n      dup1\n        /* \"#utility.yul\":3101:3104   */\n      0x80\n        /* \"#utility.yul\":3089:3098   */\n      dup6\n        /* \"#utility.yul\":3080:3087   */\n      dup8\n        /* \"#utility.yul\":3076:3099   */\n      sub\n        /* \"#utility.yul\":3072:3105   */\n      slt\n        /* \"#utility.yul\":3069:3071   */\n      iszero\n      tag_81\n      jumpi\n        /* \"#utility.yul\":3118:3119   */\n      0x00\n        /* \"#utility.yul\":3115:3116   */\n      dup1\n        /* \"#utility.yul\":3108:3120   */\n      revert\n        /* \"#utility.yul\":3069:3071   */\n    tag_81:\n        /* \"#utility.yul\":3161:3162   */\n      0x00\n        /* \"#utility.yul\":3186:3239   */\n      tag_82\n        /* \"#utility.yul\":3231:3238   */\n      dup8\n        /* \"#utility.yul\":3222:3228   */\n      dup3\n        /* \"#utility.yul\":3211:3220   */\n      dup9\n        /* \"#utility.yul\":3207:3229   */\n      add\n        /* \"#utility.yul\":3186:3239   */\n      tag_57\n      jump\t// in\n    tag_82:\n        /* \"#utility.yul\":3176:3239   */\n      swap5\n      pop\n        /* \"#utility.yul\":3132:3249   */\n      pop\n        /* \"#utility.yul\":3288:3290   */\n      0x20\n        /* \"#utility.yul\":3314:3367   */\n      tag_83\n        /* \"#utility.yul\":3359:3366   */\n      dup8\n        /* \"#utility.yul\":3350:3356   */\n      dup3\n        /* \"#utility.yul\":3339:3348   */\n      dup9\n        /* \"#utility.yul\":3335:3357   */\n      add\n        /* \"#utility.yul\":3314:3367   */\n      tag_57\n      jump\t// in\n    tag_83:\n        /* \"#utility.yul\":3304:3367   */\n      swap4\n      pop\n        /* \"#utility.yul\":3259:3377   */\n      pop\n        /* \"#utility.yul\":3444:3446   */\n      0x40\n        /* \"#utility.yul\":3433:3442   */\n      dup6\n        /* \"#utility.yul\":3429:3447   */\n      add\n        /* \"#utility.yul\":3416:3448   */\n      calldataload\n        /* \"#utility.yul\":3475:3493   */\n      0xffffffffffffffff\n        /* \"#utility.yul\":3467:3473   */\n      dup2\n        /* \"#utility.yul\":3464:3494   */\n      gt\n        /* \"#utility.yul\":3461:3463   */\n      iszero\n      tag_84\n      jumpi\n        /* \"#utility.yul\":3507:3508   */\n      0x00\n        /* \"#utility.yul\":3504:3505   */\n      dup1\n        /* \"#utility.yul\":3497:3509   */\n      revert\n        /* \"#utility.yul\":3461:3463   */\n    tag_84:\n        /* \"#utility.yul\":3535:3622   */\n      tag_85\n        /* \"#utility.yul\":3614:3621   */\n      dup8\n        /* \"#utility.yul\":3605:3611   */\n      dup3\n        /* \"#utility.yul\":3594:3603   */\n      dup9\n        /* \"#utility.yul\":3590:3612   */\n      add\n        /* \"#utility.yul\":3535:3622   */\n      tag_61\n      jump\t// in\n    tag_85:\n        /* \"#utility.yul\":3525:3622   */\n      swap3\n      pop\n        /* \"#utility.yul\":3387:3632   */\n      pop\n        /* \"#utility.yul\":3671:3673   */\n      0x60\n        /* \"#utility.yul\":3697:3750   */\n      tag_86\n        /* \"#utility.yul\":3742:3749   */\n      dup8\n        /* \"#utility.yul\":3733:3739   */\n      dup3\n        /* \"#utility.yul\":3722:3731   */\n      dup9\n        /* \"#utility.yul\":3718:3740   */\n      add\n        /* \"#utility.yul\":3697:3750   */\n      tag_65\n      jump\t// in\n    tag_86:\n        /* \"#utility.yul\":3687:3750   */\n      swap2\n      pop\n        /* \"#utility.yul\":3642:3760   */\n      pop\n        /* \"#utility.yul\":3059:3767   */\n      swap3\n      swap6\n      swap2\n      swap5\n      pop\n      swap3\n      pop\n      jump\t// out\n        /* \"#utility.yul\":3773:5183   */\n    tag_7:\n        /* \"#utility.yul\":3930:3936   */\n      0x00\n        /* \"#utility.yul\":3938:3944   */\n      dup1\n        /* \"#utility.yul\":3946:3952   */\n      0x00\n        /* \"#utility.yul\":3954:3960   */\n      dup1\n        /* \"#utility.yul\":3962:3968   */\n      0x00\n        /* \"#utility.yul\":3970:3976   */\n      dup1\n        /* \"#utility.yul\":3978:3984   */\n      0x00\n        /* \"#utility.yul\":4027:4030   */\n      0xe0\n        /* \"#utility.yul\":4015:4024   */\n      dup9\n        /* \"#utility.yul\":4006:4013   */\n      dup11\n        /* \"#utility.yul\":4002:4025   */\n      sub\n        /* \"#utility.yul\":3998:4031   */\n      slt\n        /* \"#utility.yul\":3995:3997   */\n      iszero\n      tag_88\n      jumpi\n        /* \"#utility.yul\":4044:4045   */\n      0x00\n        /* \"#utility.yul\":4041:4042   */\n      dup1\n        /* \"#utility.yul\":4034:4046   */\n      revert\n        /* \"#utility.yul\":3995:3997   */\n    tag_88:\n        /* \"#utility.yul\":4087:4088   */\n      0x00\n        /* \"#utility.yul\":4112:4165   */\n      tag_89\n        /* \"#utility.yul\":4157:4164   */\n      dup11\n        /* \"#utility.yul\":4148:4154   */\n      dup3\n        /* \"#utility.yul\":4137:4146   */\n      dup12\n        /* \"#utility.yul\":4133:4155   */\n      add\n        /* \"#utility.yul\":4112:4165   */\n      tag_57\n      jump\t// in\n    tag_89:\n        /* \"#utility.yul\":4102:4165   */\n      swap8\n      pop\n        /* \"#utility.yul\":4058:4175   */\n      pop\n        /* \"#utility.yul\":4214:4216   */\n      0x20\n        /* \"#utility.yul\":4240:4293   */\n      tag_90\n        /* \"#utility.yul\":4285:4292   */\n      dup11\n        /* \"#utility.yul\":4276:4282   */\n      dup3\n        /* \"#utility.yul\":4265:4274   */\n      dup12\n        /* \"#utility.yul\":4261:4283   */\n      add\n        /* \"#utility.yul\":4240:4293   */\n      tag_76\n      jump\t// in\n    tag_90:\n        /* \"#utility.yul\":4230:4293   */\n      swap7\n      pop\n        /* \"#utility.yul\":4185:4303   */\n      pop\n        /* \"#utility.yul\":4342:4344   */\n      0x40\n        /* \"#utility.yul\":4368:4421   */\n      tag_91\n        /* \"#utility.yul\":4413:4420   */\n      dup11\n        /* \"#utility.yul\":4404:4410   */\n      dup3\n        /* \"#utility.yul\":4393:4402   */\n      dup12\n        /* \"#utility.yul\":4389:4411   */\n      add\n        /* \"#utility.yul\":4368:4421   */\n      tag_76\n      jump\t// in\n    tag_91:\n        /* \"#utility.yul\":4358:4421   */\n      swap6\n      pop\n        /* \"#utility.yul\":4313:4431   */\n      pop\n        /* \"#utility.yul\":4470:4472   */\n      0x60\n        /* \"#utility.yul\":4496:4549   */\n      tag_92\n        /* \"#utility.yul\":4541:4548   */\n      dup11\n        /* \"#utility.yul\":4532:4538   */\n      dup3\n        /* \"#utility.yul\":4521:4530   */\n      dup12\n        /* \"#utility.yul\":4517:4539   */\n      add\n        /* \"#utility.yul\":4496:4549   */\n      tag_76\n      jump\t// in\n    tag_92:\n        /* \"#utility.yul\":4486:4549   */\n      swap5\n      pop\n        /* \"#utility.yul\":4441:4559   */\n      pop\n        /* \"#utility.yul\":4598:4601   */\n      0x80\n        /* \"#utility.yul\":4625:4678   */\n      tag_93\n        /* \"#utility.yul\":4670:4677   */\n      dup11\n        /* \"#utility.yul\":4661:4667   */\n      dup3\n        /* \"#utility.yul\":4650:4659   */\n      dup12\n        /* \"#utility.yul\":4646:4668   */\n      add\n        /* \"#utility.yul\":4625:4678   */\n      tag_57\n      jump\t// in\n    tag_93:\n        /* \"#utility.yul\":4615:4678   */\n      swap4\n      pop\n        /* \"#utility.yul\":4569:4688   */\n      pop\n        /* \"#utility.yul\":4755:4758   */\n      0xa0\n        /* \"#utility.yul\":4744:4753   */\n      dup9\n        /* \"#utility.yul\":4740:4759   */\n      add\n        /* \"#utility.yul\":4727:4760   */\n      calldataload\n        /* \"#utility.yul\":4787:4805   */\n      0xffffffffffffffff\n        /* \"#utility.yul\":4779:4785   */\n      dup2\n        /* \"#utility.yul\":4776:4806   */\n      gt\n        /* \"#utility.yul\":4773:4775   */\n      iszero\n      tag_94\n      jumpi\n        /* \"#utility.yul\":4819:4820   */\n      0x00\n        /* \"#utility.yul\":4816:4817   */\n      dup1\n        /* \"#utility.yul\":4809:4821   */\n      revert\n        /* \"#utility.yul\":4773:4775   */\n    tag_94:\n        /* \"#utility.yul\":4847:4910   */\n      tag_95\n        /* \"#utility.yul\":4902:4909   */\n      dup11\n        /* \"#utility.yul\":4893:4899   */\n      dup3\n        /* \"#utility.yul\":4882:4891   */\n      dup12\n        /* \"#utility.yul\":4878:4900   */\n      add\n        /* \"#utility.yul\":4847:4910   */\n      tag_72\n      jump\t// in\n    tag_95:\n        /* \"#utility.yul\":4837:4910   */\n      swap3\n      pop\n        /* \"#utility.yul\":4698:4920   */\n      pop\n        /* \"#utility.yul\":4987:4990   */\n      0xc0\n        /* \"#utility.yul\":4976:4985   */\n      dup9\n        /* \"#utility.yul\":4972:4991   */\n      add\n        /* \"#utility.yul\":4959:4992   */\n      calldataload\n        /* \"#utility.yul\":5019:5037   */\n      0xffffffffffffffff\n        /* \"#utility.yul\":5011:5017   */\n      dup2\n        /* \"#utility.yul\":5008:5038   */\n      gt\n        /* \"#utility.yul\":5005:5007   */\n      iszero\n      tag_96\n      jumpi\n        /* \"#utility.yul\":5051:5052   */\n      0x00\n        /* \"#utility.yul\":5048:5049   */\n      dup1\n        /* \"#utility.yul\":5041:5053   */\n      revert\n        /* \"#utility.yul\":5005:5007   */\n    tag_96:\n        /* \"#utility.yul\":5079:5166   */\n      tag_97\n        /* \"#utility.yul\":5158:5165   */\n      dup11\n        /* \"#utility.yul\":5149:5155   */\n      dup3\n        /* \"#utility.yul\":5138:5147   */\n      dup12\n        /* \"#utility.yul\":5134:5156   */\n      add\n        /* \"#utility.yul\":5079:5166   */\n      tag_61\n      jump\t// in\n    tag_97:\n        /* \"#utility.yul\":5069:5166   */\n      swap2\n      pop\n        /* \"#utility.yul\":4930:5176   */\n      pop\n        /* \"#utility.yul\":3985:5183   */\n      swap3\n      swap6\n      swap9\n      swap2\n      swap5\n      swap8\n      pop\n      swap3\n      swap6\n      pop\n      jump\t// out\n        /* \"#utility.yul\":5189:5381   */\n    tag_98:\n        /* \"#utility.yul\":5276:5286   */\n      0x00\n        /* \"#utility.yul\":5311:5375   */\n      tag_100\n        /* \"#utility.yul\":5371:5374   */\n      dup4\n        /* \"#utility.yul\":5363:5369   */\n      dup4\n        /* \"#utility.yul\":5311:5375   */\n      tag_101\n      jump\t// in\n    tag_100:\n        /* \"#utility.yul\":5297:5375   */\n      swap1\n      pop\n        /* \"#utility.yul\":5287:5381   */\n      swap3\n      swap2\n      pop\n      pop\n      jump\t// out\n        /* \"#utility.yul\":5387:5505   */\n    tag_102:\n        /* \"#utility.yul\":5474:5498   */\n      tag_104\n        /* \"#utility.yul\":5492:5497   */\n      dup2\n        /* \"#utility.yul\":5474:5498   */\n      tag_105\n      jump\t// in\n    tag_104:\n        /* \"#utility.yul\":5469:5472   */\n      dup3\n        /* \"#utility.yul\":5462:5499   */\n      mstore\n        /* \"#utility.yul\":5452:5505   */\n      pop\n      pop\n      jump\t// out\n        /* \"#utility.yul\":5537:6520   */\n    tag_106:\n        /* \"#utility.yul\":5674:5677   */\n      0x00\n        /* \"#utility.yul\":5703:5766   */\n      tag_108\n        /* \"#utility.yul\":5760:5765   */\n      dup3\n        /* \"#utility.yul\":5703:5766   */\n      tag_109\n      jump\t// in\n    tag_108:\n        /* \"#utility.yul\":5782:5877   */\n      tag_110\n        /* \"#utility.yul\":5870:5876   */\n      dup2\n        /* \"#utility.yul\":5865:5868   */\n      dup6\n        /* \"#utility.yul\":5782:5877   */\n      tag_111\n      jump\t// in\n    tag_110:\n        /* \"#utility.yul\":5775:5877   */\n      swap4\n      pop\n        /* \"#utility.yul\":5903:5906   */\n      dup4\n        /* \"#utility.yul\":5948:5952   */\n      0x20\n        /* \"#utility.yul\":5940:5946   */\n      dup3\n        /* \"#utility.yul\":5936:5953   */\n      mul\n        /* \"#utility.yul\":5931:5934   */\n      dup6\n        /* \"#utility.yul\":5927:5954   */\n      add\n        /* \"#utility.yul\":5978:6043   */\n      tag_112\n        /* \"#utility.yul\":6037:6042   */\n      dup6\n        /* \"#utility.yul\":5978:6043   */\n      tag_113\n      jump\t// in\n    tag_112:\n        /* \"#utility.yul\":6066:6073   */\n      dup1\n        /* \"#utility.yul\":6097:6098   */\n      0x00\n        /* \"#utility.yul\":6082:6475   */\n    tag_114:\n        /* \"#utility.yul\":6107:6113   */\n      dup6\n        /* \"#utility.yul\":6104:6105   */\n      dup2\n        /* \"#utility.yul\":6101:6114   */\n      lt\n        /* \"#utility.yul\":6082:6475   */\n      iszero\n      tag_116\n      jumpi\n        /* \"#utility.yul\":6178:6187   */\n      dup5\n        /* \"#utility.yul\":6172:6176   */\n      dup5\n        /* \"#utility.yul\":6168:6188   */\n      sub\n        /* \"#utility.yul\":6163:6166   */\n      dup10\n        /* \"#utility.yul\":6156:6189   */\n      mstore\n        /* \"#utility.yul\":6229:6235   */\n      dup2\n        /* \"#utility.yul\":6223:6236   */\n      mload\n        /* \"#utility.yul\":6257:6339   */\n      tag_117\n        /* \"#utility.yul\":6334:6338   */\n      dup6\n        /* \"#utility.yul\":6319:6332   */\n      dup3\n        /* \"#utility.yul\":6257:6339   */\n      tag_98\n      jump\t// in\n    tag_117:\n        /* \"#utility.yul\":6249:6339   */\n      swap5\n      pop\n        /* \"#utility.yul\":6362:6431   */\n      tag_118\n        /* \"#utility.yul\":6424:6430   */\n      dup4\n        /* \"#utility.yul\":6362:6431   */\n      tag_119\n      jump\t// in\n    tag_118:\n        /* \"#utility.yul\":6352:6431   */\n      swap3\n      pop\n        /* \"#utility.yul\":6460:6464   */\n      0x20\n        /* \"#utility.yul\":6455:6458   */\n      dup11\n        /* \"#utility.yul\":6451:6465   */\n      add\n        /* \"#utility.yul\":6444:6465   */\n      swap10\n      pop\n        /* \"#utility.yul\":6142:6475   */\n      pop\n        /* \"#utility.yul\":6129:6130   */\n      0x01\n        /* \"#utility.yul\":6126:6127   */\n      dup2\n        /* \"#utility.yul\":6122:6131   */\n      add\n        /* \"#utility.yul\":6117:6131   */\n      swap1\n      pop\n        /* \"#utility.yul\":6082:6475   */\n      jump(tag_114)\n    tag_116:\n        /* \"#utility.yul\":6086:6100   */\n      pop\n        /* \"#utility.yul\":6491:6495   */\n      dup3\n        /* \"#utility.yul\":6484:6495   */\n      swap8\n      pop\n        /* \"#utility.yul\":6511:6514   */\n      dup8\n        /* \"#utility.yul\":6504:6514   */\n      swap6\n      pop\n        /* \"#utility.yul\":5679:6520   */\n      pop\n      pop\n      pop\n      pop\n      pop\n      swap3\n      swap2\n      pop\n      pop\n      jump\t// out\n        /* \"#utility.yul\":6526:6644   */\n    tag_120:\n        /* \"#utility.yul\":6613:6637   */\n      tag_122\n        /* \"#utility.yul\":6631:6636   */\n      dup2\n        /* \"#utility.yul\":6613:6637   */\n      tag_123\n      jump\t// in\n    tag_122:\n        /* \"#utility.yul\":6608:6611   */\n      dup3\n        /* \"#utility.yul\":6601:6638   */\n      mstore\n        /* \"#utility.yul\":6591:6644   */\n      pop\n      pop\n      jump\t// out\n        /* \"#utility.yul\":6650:6990   */\n    tag_101:\n        /* \"#utility.yul\":6726:6729   */\n      0x00\n        /* \"#utility.yul\":6754:6792   */\n      tag_125\n        /* \"#utility.yul\":6786:6791   */\n      dup3\n        /* \"#utility.yul\":6754:6792   */\n      tag_126\n      jump\t// in\n    tag_125:\n        /* \"#utility.yul\":6808:6868   */\n      tag_127\n        /* \"#utility.yul\":6861:6867   */\n      dup2\n        /* \"#utility.yul\":6856:6859   */\n      dup6\n        /* \"#utility.yul\":6808:6868   */\n      tag_128\n      jump\t// in\n    tag_127:\n        /* \"#utility.yul\":6801:6868   */\n      swap4\n      pop\n        /* \"#utility.yul\":6877:6929   */\n      tag_129\n        /* \"#utility.yul\":6922:6928   */\n      dup2\n        /* \"#utility.yul\":6917:6920   */\n      dup6\n        /* \"#utility.yul\":6910:6914   */\n      0x20\n        /* \"#utility.yul\":6903:6908   */\n      dup7\n        /* \"#utility.yul\":6899:6915   */\n      add\n        /* \"#utility.yul\":6877:6929   */\n      tag_130\n      jump\t// in\n    tag_129:\n        /* \"#utility.yul\":6954:6983   */\n      tag_131\n        /* \"#utility.yul\":6976:6982   */\n      dup2\n        /* \"#utility.yul\":6954:6983   */\n      tag_132\n      jump\t// in\n    tag_131:\n        /* \"#utility.yul\":6949:6952   */\n      dup5\n        /* \"#utility.yul\":6945:6984   */\n      add\n        /* \"#utility.yul\":6938:6984   */\n      swap2\n      pop\n        /* \"#utility.yul\":6730:6990   */\n      pop\n      swap3\n      swap2\n      pop\n      pop\n      jump\t// out\n        /* \"#utility.yul\":6996:7114   */\n    tag_133:\n        /* \"#utility.yul\":7083:7107   */\n      tag_135\n        /* \"#utility.yul\":7101:7106   */\n      dup2\n        /* \"#utility.yul\":7083:7107   */\n      tag_136\n      jump\t// in\n    tag_135:\n        /* \"#utility.yul\":7078:7081   */\n      dup3\n        /* \"#utility.yul\":7071:7108   */\n      mstore\n        /* \"#utility.yul\":7061:7114   */\n      pop\n      pop\n      jump\t// out\n        /* \"#utility.yul\":7120:7860   */\n    tag_26:\n        /* \"#utility.yul\":7365:7369   */\n      0x00\n        /* \"#utility.yul\":7403:7406   */\n      0x80\n        /* \"#utility.yul\":7392:7401   */\n      dup3\n        /* \"#utility.yul\":7388:7407   */\n      add\n        /* \"#utility.yul\":7380:7407   */\n      swap1\n      pop\n        /* \"#utility.yul\":7417:7488   */\n      tag_138\n        /* \"#utility.yul\":7485:7486   */\n      0x00\n        /* \"#utility.yul\":7474:7483   */\n      dup4\n        /* \"#utility.yul\":7470:7487   */\n      add\n        /* \"#utility.yul\":7461:7467   */\n      dup8\n        /* \"#utility.yul\":7417:7488   */\n      tag_102\n      jump\t// in\n    tag_138:\n        /* \"#utility.yul\":7498:7570   */\n      tag_139\n        /* \"#utility.yul\":7566:7568   */\n      0x20\n        /* \"#utility.yul\":7555:7564   */\n      dup4\n        /* \"#utility.yul\":7551:7569   */\n      add\n        /* \"#utility.yul\":7542:7548   */\n      dup7\n        /* \"#utility.yul\":7498:7570   */\n      tag_102\n      jump\t// in\n    tag_139:\n        /* \"#utility.yul\":7617:7626   */\n      dup2\n        /* \"#utility.yul\":7611:7615   */\n      dup2\n        /* \"#utility.yul\":7607:7627   */\n      sub\n        /* \"#utility.yul\":7602:7604   */\n      0x40\n        /* \"#utility.yul\":7591:7600   */\n      dup4\n        /* \"#utility.yul\":7587:7605   */\n      add\n        /* \"#utility.yul\":7580:7628   */\n      mstore\n        /* \"#utility.yul\":7645:7771   */\n      tag_140\n        /* \"#utility.yul\":7766:7770   */\n      dup2\n        /* \"#utility.yul\":7757:7763   */\n      dup6\n        /* \"#utility.yul\":7645:7771   */\n      tag_106\n      jump\t// in\n    tag_140:\n        /* \"#utility.yul\":7637:7771   */\n      swap1\n      pop\n        /* \"#utility.yul\":7781:7853   */\n      tag_141\n        /* \"#utility.yul\":7849:7851   */\n      0x60\n        /* \"#utility.yul\":7838:7847   */\n      dup4\n        /* \"#utility.yul\":7834:7852   */\n      add\n        /* \"#utility.yul\":7825:7831   */\n      dup5\n        /* \"#utility.yul\":7781:7853   */\n      tag_120\n      jump\t// in\n    tag_141:\n        /* \"#utility.yul\":7370:7860   */\n      swap6\n      swap5\n      pop\n      pop\n      pop\n      pop\n      pop\n      jump\t// out\n        /* \"#utility.yul\":7866:8088   */\n    tag_10:\n        /* \"#utility.yul\":7959:7963   */\n      0x00\n        /* \"#utility.yul\":7997:7999   */\n      0x20\n        /* \"#utility.yul\":7986:7995   */\n      dup3\n        /* \"#utility.yul\":7982:8000   */\n      add\n        /* \"#utility.yul\":7974:8000   */\n      swap1\n      pop\n        /* \"#utility.yul\":8010:8081   */\n      tag_143\n        /* \"#utility.yul\":8078:8079   */\n      0x00\n        /* \"#utility.yul\":8067:8076   */\n      dup4\n        /* \"#utility.yul\":8063:8080   */\n      add\n        /* \"#utility.yul\":8054:8060   */\n      dup5\n        /* \"#utility.yul\":8010:8081   */\n      tag_133\n      jump\t// in\n    tag_143:\n        /* \"#utility.yul\":7964:8088   */\n      swap3\n      swap2\n      pop\n      pop\n      jump\t// out\n        /* \"#utility.yul\":8094:8223   */\n    tag_34:\n        /* \"#utility.yul\":8128:8134   */\n      0x00\n        /* \"#utility.yul\":8155:8175   */\n      tag_145\n      tag_146\n      jump\t// in\n    tag_145:\n        /* \"#utility.yul\":8145:8175   */\n      swap1\n      pop\n        /* \"#utility.yul\":8184:8217   */\n      tag_147\n        /* \"#utility.yul\":8212:8216   */\n      dup3\n        /* \"#utility.yul\":8204:8210   */\n      dup3\n        /* \"#utility.yul\":8184:8217   */\n      tag_148\n      jump\t// in\n    tag_147:\n        /* \"#utility.yul\":8135:8223   */\n      swap2\n      swap1\n      pop\n      jump\t// out\n        /* \"#utility.yul\":8229:8304   */\n    tag_146:\n        /* \"#utility.yul\":8262:8268   */\n      0x00\n        /* \"#utility.yul\":8295:8297   */\n      0x40\n        /* \"#utility.yul\":8289:8298   */\n      mload\n        /* \"#utility.yul\":8279:8298   */\n      swap1\n      pop\n        /* \"#utility.yul\":8269:8304   */\n      swap1\n      jump\t// out\n        /* \"#utility.yul\":8310:8630   */\n    tag_33:\n        /* \"#utility.yul\":8396:8400   */\n      0x00\n        /* \"#utility.yul\":8486:8504   */\n      0xffffffffffffffff\n        /* \"#utility.yul\":8478:8484   */\n      dup3\n        /* \"#utility.yul\":8475:8505   */\n      gt\n        /* \"#utility.yul\":8472:8474   */\n      iszero\n      tag_151\n      jumpi\n        /* \"#utility.yul\":8508:8526   */\n      tag_152\n      tag_153\n      jump\t// in\n    tag_152:\n        /* \"#utility.yul\":8472:8474   */\n    tag_151:\n        /* \"#utility.yul\":8558:8562   */\n      0x20\n        /* \"#utility.yul\":8550:8556   */\n      dup3\n        /* \"#utility.yul\":8546:8563   */\n      mul\n        /* \"#utility.yul\":8538:8563   */\n      swap1\n      pop\n        /* \"#utility.yul\":8618:8622   */\n      0x20\n        /* \"#utility.yul\":8612:8616   */\n      dup2\n        /* \"#utility.yul\":8608:8623   */\n      add\n        /* \"#utility.yul\":8600:8623   */\n      swap1\n      pop\n        /* \"#utility.yul\":8401:8630   */\n      swap2\n      swap1\n      pop\n      jump\t// out\n        /* \"#utility.yul\":8636:8943   */\n    tag_46:\n        /* \"#utility.yul\":8697:8701   */\n      0x00\n        /* \"#utility.yul\":8787:8805   */\n      0xffffffffffffffff\n        /* \"#utility.yul\":8779:8785   */\n      dup3\n        /* \"#utility.yul\":8776:8806   */\n      gt\n        /* \"#utility.yul\":8773:8775   */\n      iszero\n      tag_155\n      jumpi\n        /* \"#utility.yul\":8809:8827   */\n      tag_156\n      tag_153\n      jump\t// in\n    tag_156:\n        /* \"#utility.yul\":8773:8775   */\n    tag_155:\n        /* \"#utility.yul\":8847:8876   */\n      tag_157\n        /* \"#utility.yul\":8869:8875   */\n      dup3\n        /* \"#utility.yul\":8847:8876   */\n      tag_132\n      jump\t// in\n    tag_157:\n        /* \"#utility.yul\":8839:8876   */\n      swap1\n      pop\n        /* \"#utility.yul\":8931:8935   */\n      0x20\n        /* \"#utility.yul\":8925:8929   */\n      dup2\n        /* \"#utility.yul\":8921:8936   */\n      add\n        /* \"#utility.yul\":8913:8936   */\n      swap1\n      pop\n        /* \"#utility.yul\":8702:8943   */\n      swap2\n      swap1\n      pop\n      jump\t// out\n        /* \"#utility.yul\":8949:9257   */\n    tag_54:\n        /* \"#utility.yul\":9011:9015   */\n      0x00\n        /* \"#utility.yul\":9101:9119   */\n      0xffffffffffffffff\n        /* \"#utility.yul\":9093:9099   */\n      dup3\n        /* \"#utility.yul\":9090:9120   */\n      gt\n        /* \"#utility.yul\":9087:9089   */\n      iszero\n      tag_159\n      jumpi\n        /* \"#utility.yul\":9123:9141   */\n      tag_160\n      tag_153\n      jump\t// in\n    tag_160:\n        /* \"#utility.yul\":9087:9089   */\n    tag_159:\n        /* \"#utility.yul\":9161:9190   */\n      tag_161\n        /* \"#utility.yul\":9183:9189   */\n      dup3\n        /* \"#utility.yul\":9161:9190   */\n      tag_132\n      jump\t// in\n    tag_161:\n        /* \"#utility.yul\":9153:9190   */\n      swap1\n      pop\n        /* \"#utility.yul\":9245:9249   */\n      0x20\n        /* \"#utility.yul\":9239:9243   */\n      dup2\n        /* \"#utility.yul\":9235:9250   */\n      add\n        /* \"#utility.yul\":9227:9250   */\n      swap1\n      pop\n        /* \"#utility.yul\":9016:9257   */\n      swap2\n      swap1\n      pop\n      jump\t// out\n        /* \"#utility.yul\":9263:9404   */\n    tag_113:\n        /* \"#utility.yul\":9339:9343   */\n      0x00\n        /* \"#utility.yul\":9362:9365   */\n      dup2\n        /* \"#utility.yul\":9354:9365   */\n      swap1\n      pop\n        /* \"#utility.yul\":9392:9396   */\n      0x20\n        /* \"#utility.yul\":9387:9390   */\n      dup3\n        /* \"#utility.yul\":9383:9397   */\n      add\n        /* \"#utility.yul\":9375:9397   */\n      swap1\n      pop\n        /* \"#utility.yul\":9344:9404   */\n      swap2\n      swap1\n      pop\n      jump\t// out\n        /* \"#utility.yul\":9410:9533   */\n    tag_109:\n        /* \"#utility.yul\":9486:9492   */\n      0x00\n        /* \"#utility.yul\":9520:9525   */\n      dup2\n        /* \"#utility.yul\":9514:9526   */\n      mload\n        /* \"#utility.yul\":9504:9526   */\n      swap1\n      pop\n        /* \"#utility.yul\":9493:9533   */\n      swap2\n      swap1\n      pop\n      jump\t// out\n        /* \"#utility.yul\":9539:9637   */\n    tag_126:\n        /* \"#utility.yul\":9590:9596   */\n      0x00\n        /* \"#utility.yul\":9624:9629   */\n      dup2\n        /* \"#utility.yul\":9618:9630   */\n      mload\n        /* \"#utility.yul\":9608:9630   */\n      swap1\n      pop\n        /* \"#utility.yul\":9597:9637   */\n      swap2\n      swap1\n      pop\n      jump\t// out\n        /* \"#utility.yul\":9643:9765   */\n    tag_119:\n        /* \"#utility.yul\":9722:9726   */\n      0x00\n        /* \"#utility.yul\":9754:9758   */\n      0x20\n        /* \"#utility.yul\":9749:9752   */\n      dup3\n        /* \"#utility.yul\":9745:9759   */\n      add\n        /* \"#utility.yul\":9737:9759   */\n      swap1\n      pop\n        /* \"#utility.yul\":9727:9765   */\n      swap2\n      swap1\n      pop\n      jump\t// out\n        /* \"#utility.yul\":9771:9964   */\n    tag_111:\n        /* \"#utility.yul\":9879:9890   */\n      0x00\n        /* \"#utility.yul\":9913:9919   */\n      dup3\n        /* \"#utility.yul\":9908:9911   */\n      dup3\n        /* \"#utility.yul\":9901:9920   */\n      mstore\n        /* \"#utility.yul\":9953:9957   */\n      0x20\n        /* \"#utility.yul\":9948:9951   */\n      dup3\n        /* \"#utility.yul\":9944:9958   */\n      add\n        /* \"#utility.yul\":9929:9958   */\n      swap1\n      pop\n        /* \"#utility.yul\":9891:9964   */\n      swap3\n      swap2\n      pop\n      pop\n      jump\t// out\n        /* \"#utility.yul\":9970:10128   */\n    tag_128:\n        /* \"#utility.yul\":10043:10054   */\n      0x00\n        /* \"#utility.yul\":10077:10083   */\n      dup3\n        /* \"#utility.yul\":10072:10075   */\n      dup3\n        /* \"#utility.yul\":10065:10084   */\n      mstore\n        /* \"#utility.yul\":10117:10121   */\n      0x20\n        /* \"#utility.yul\":10112:10115   */\n      dup3\n        /* \"#utility.yul\":10108:10122   */\n      add\n        /* \"#utility.yul\":10093:10122   */\n      swap1\n      pop\n        /* \"#utility.yul\":10055:10128   */\n      swap3\n      swap2\n      pop\n      pop\n      jump\t// out\n        /* \"#utility.yul\":10134:10388   */\n    tag_19:\n        /* \"#utility.yul\":10173:10176   */\n      0x00\n        /* \"#utility.yul\":10192:10211   */\n      tag_169\n        /* \"#utility.yul\":10209:10210   */\n      dup3\n        /* \"#utility.yul\":10192:10211   */\n      tag_170\n      jump\t// in\n    tag_169:\n        /* \"#utility.yul\":10187:10211   */\n      swap2\n      pop\n        /* \"#utility.yul\":10225:10244   */\n      tag_171\n        /* \"#utility.yul\":10242:10243   */\n      dup4\n        /* \"#utility.yul\":10225:10244   */\n      tag_170\n      jump\t// in\n    tag_171:\n        /* \"#utility.yul\":10220:10244   */\n      swap3\n      pop\n        /* \"#utility.yul\":10330:10331   */\n      dup3\n        /* \"#utility.yul\":10310:10328   */\n      0xffffffffffffffff\n        /* \"#utility.yul\":10306:10332   */\n      sub\n        /* \"#utility.yul\":10303:10304   */\n      dup3\n        /* \"#utility.yul\":10300:10333   */\n      gt\n        /* \"#utility.yul\":10297:10299   */\n      iszero\n      tag_172\n      jumpi\n        /* \"#utility.yul\":10336:10354   */\n      tag_173\n      tag_174\n      jump\t// in\n    tag_173:\n        /* \"#utility.yul\":10297:10299   */\n    tag_172:\n        /* \"#utility.yul\":10380:10381   */\n      dup3\n        /* \"#utility.yul\":10377:10378   */\n      dup3\n        /* \"#utility.yul\":10373:10382   */\n      add\n        /* \"#utility.yul\":10366:10382   */\n      swap1\n      pop\n        /* \"#utility.yul\":10177:10388   */\n      swap3\n      swap2\n      pop\n      pop\n      jump\t// out\n        /* \"#utility.yul\":10394:10490   */\n    tag_105:\n        /* \"#utility.yul\":10431:10438   */\n      0x00\n        /* \"#utility.yul\":10460:10484   */\n      tag_176\n        /* \"#utility.yul\":10478:10483   */\n      dup3\n        /* \"#utility.yul\":10460:10484   */\n      tag_177\n      jump\t// in\n    tag_176:\n        /* \"#utility.yul\":10449:10484   */\n      swap1\n      pop\n        /* \"#utility.yul\":10439:10490   */\n      swap2\n      swap1\n      pop\n      jump\t// out\n        /* \"#utility.yul\":10496:10573   */\n    tag_123:\n        /* \"#utility.yul\":10533:10540   */\n      0x00\n        /* \"#utility.yul\":10562:10567   */\n      dup2\n        /* \"#utility.yul\":10551:10567   */\n      swap1\n      pop\n        /* \"#utility.yul\":10541:10573   */\n      swap2\n      swap1\n      pop\n      jump\t// out\n        /* \"#utility.yul\":10579:10705   */\n    tag_177:\n        /* \"#utility.yul\":10616:10623   */\n      0x00\n        /* \"#utility.yul\":10656:10698   */\n      0xffffffffffffffffffffffffffffffffffffffff\n        /* \"#utility.yul\":10649:10654   */\n      dup3\n        /* \"#utility.yul\":10645:10699   */\n      and\n        /* \"#utility.yul\":10634:10699   */\n      swap1\n      pop\n        /* \"#utility.yul\":10624:10705   */\n      swap2\n      swap1\n      pop\n      jump\t// out\n        /* \"#utility.yul\":10711:10788   */\n    tag_136:\n        /* \"#utility.yul\":10748:10755   */\n      0x00\n        /* \"#utility.yul\":10777:10782   */\n      dup2\n        /* \"#utility.yul\":10766:10782   */\n      swap1\n      pop\n        /* \"#utility.yul\":10756:10788   */\n      swap2\n      swap1\n      pop\n      jump\t// out\n        /* \"#utility.yul\":10794:10895   */\n    tag_170:\n        /* \"#utility.yul\":10830:10837   */\n      0x00\n        /* \"#utility.yul\":10870:10888   */\n      0xffffffffffffffff\n        /* \"#utility.yul\":10863:10868   */\n      dup3\n        /* \"#utility.yul\":10859:10889   */\n      and\n        /* \"#utility.yul\":10848:10889   */\n      swap1\n      pop\n        /* \"#utility.yul\":10838:10895   */\n      swap2\n      swap1\n      pop\n      jump\t// out\n        /* \"#utility.yul\":10901:11055   */\n    tag_49:\n        /* \"#utility.yul\":10985:10991   */\n      dup3\n        /* \"#utility.yul\":10980:10983   */\n      dup2\n        /* \"#utility.yul\":10975:10978   */\n      dup4\n        /* \"#utility.yul\":10962:10992   */\n      calldatacopy\n        /* \"#utility.yul\":11047:11048   */\n      0x00\n        /* \"#utility.yul\":11038:11044   */\n      dup4\n        /* \"#utility.yul\":11033:11036   */\n      dup4\n        /* \"#utility.yul\":11029:11045   */\n      add\n        /* \"#utility.yul\":11022:11049   */\n      mstore\n        /* \"#utility.yul\":10952:11055   */\n      pop\n      pop\n      pop\n      jump\t// out\n        /* \"#utility.yul\":11061:11368   */\n    tag_130:\n        /* \"#utility.yul\":11129:11130   */\n      0x00\n        /* \"#utility.yul\":11139:11252   */\n    tag_184:\n        /* \"#utility.yul\":11153:11159   */\n      dup4\n        /* \"#utility.yul\":11150:11151   */\n      dup2\n        /* \"#utility.yul\":11147:11160   */\n      lt\n        /* \"#utility.yul\":11139:11252   */\n      iszero\n      tag_186\n      jumpi\n        /* \"#utility.yul\":11238:11239   */\n      dup1\n        /* \"#utility.yul\":11233:11236   */\n      dup3\n        /* \"#utility.yul\":11229:11240   */\n      add\n        /* \"#utility.yul\":11223:11241   */\n      mload\n        /* \"#utility.yul\":11219:11220   */\n      dup2\n        /* \"#utility.yul\":11214:11217   */\n      dup5\n        /* \"#utility.yul\":11210:11221   */\n      add\n        /* \"#utility.yul\":11203:11242   */\n      mstore\n        /* \"#utility.yul\":11175:11177   */\n      0x20\n        /* \"#utility.yul\":11172:11173   */\n      dup2\n        /* \"#utility.yul\":11168:11178   */\n      add\n        /* \"#utility.yul\":11163:11178   */\n      swap1\n      pop\n        /* \"#utility.yul\":11139:11252   */\n      jump(tag_184)\n    tag_186:\n        /* \"#utility.yul\":11270:11276   */\n      dup4\n        /* \"#utility.yul\":11267:11268   */\n      dup2\n        /* \"#utility.yul\":11264:11277   */\n      gt\n        /* \"#utility.yul\":11261:11263   */\n      iszero\n      tag_187\n      jumpi\n        /* \"#utility.yul\":11350:11351   */\n      0x00\n        /* \"#utility.yul\":11341:11347   */\n      dup5\n        /* \"#utility.yul\":11336:11339   */\n      dup5\n        /* \"#utility.yul\":11332:11348   */\n      add\n        /* \"#utility.yul\":11325:11352   */\n      mstore\n        /* \"#utility.yul\":11261:11263   */\n    tag_187:\n        /* \"#utility.yul\":11110:11368   */\n      pop\n      pop\n      pop\n      pop\n      jump\t// out\n        /* \"#utility.yul\":11374:11655   */\n    tag_148:\n        /* \"#utility.yul\":11457:11484   */\n      tag_189\n        /* \"#utility.yul\":11479:11483   */\n      dup3\n        /* \"#utility.yul\":11457:11484   */\n      tag_132\n      jump\t// in\n    tag_189:\n        /* \"#utility.yul\":11449:11455   */\n      dup2\n        /* \"#utility.yul\":11445:11485   */\n      add\n        /* \"#utility.yul\":11587:11593   */\n      dup2\n        /* \"#utility.yul\":11575:11585   */\n      dup2\n        /* \"#utility.yul\":11572:11594   */\n      lt\n        /* \"#utility.yul\":11551:11569   */\n      0xffffffffffffffff\n        /* \"#utility.yul\":11539:11549   */\n      dup3\n        /* \"#utility.yul\":11536:11570   */\n      gt\n        /* \"#utility.yul\":11533:11595   */\n      or\n        /* \"#utility.yul\":11530:11532   */\n      iszero\n      tag_190\n      jumpi\n        /* \"#utility.yul\":11598:11616   */\n      tag_191\n      tag_153\n      jump\t// in\n    tag_191:\n        /* \"#utility.yul\":11530:11532   */\n    tag_190:\n        /* \"#utility.yul\":11638:11648   */\n      dup1\n        /* \"#utility.yul\":11634:11636   */\n      0x40\n        /* \"#utility.yul\":11627:11649   */\n      mstore\n        /* \"#utility.yul\":11417:11655   */\n      pop\n      pop\n      pop\n      jump\t// out\n        /* \"#utility.yul\":11661:11841   */\n    tag_174:\n        /* \"#utility.yul\":11709:11786   */\n      0x4e487b7100000000000000000000000000000000000000000000000000000000\n        /* \"#utility.yul\":11706:11707   */\n      0x00\n        /* \"#utility.yul\":11699:11787   */\n      mstore\n        /* \"#utility.yul\":11806:11810   */\n      0x11\n        /* \"#utility.yul\":11803:11804   */\n      0x04\n        /* \"#utility.yul\":11796:11811   */\n      mstore\n        /* \"#utility.yul\":11830:11834   */\n      0x24\n        /* \"#utility.yul\":11827:11828   */\n      0x00\n        /* \"#utility.yul\":11820:11835   */\n      revert\n        /* \"#utility.yul\":11847:12027   */\n    tag_153:\n        /* \"#utility.yul\":11895:11972   */\n      0x4e487b7100000000000000000000000000000000000000000000000000000000\n        /* \"#utility.yul\":11892:11893   */\n      0x00\n        /* \"#utility.yul\":11885:11973   */\n      mstore\n        /* \"#utility.yul\":11992:11996   */\n      0x41\n        /* \"#utility.yul\":11989:11990   */\n      0x04\n        /* \"#utility.yul\":11982:11997   */\n      mstore\n        /* \"#utility.yul\":12016:12020   */\n      0x24\n        /* \"#utility.yul\":12013:12014   */\n      0x00\n        /* \"#utility.yul\":12006:12021   */\n      revert\n        /* \"#utility.yul\":12033:12135   */\n    tag_132:\n        /* \"#utility.yul\":12074:12080   */\n      0x00\n        /* \"#utility.yul\":12125:12127   */\n      0x1f\n        /* \"#utility.yul\":12121:12128   */\n      not\n        /* \"#utility.yul\":12116:12118   */\n      0x1f\n        /* \"#utility.yul\":12109:12114   */\n      dup4\n        /* \"#utility.yul\":12105:12119   */\n      add\n        /* \"#utility.yul\":12101:12129   */\n      and\n        /* \"#utility.yul\":12091:12129   */\n      swap1\n      pop\n        /* \"#utility.yul\":12081:12135   */\n      swap2\n      swap1\n      pop\n      jump\t// out\n        /* \"#utility.yul\":12141:12263   */\n    tag_60:\n        /* \"#utility.yul\":12214:12238   */\n      tag_196\n        /* \"#utility.yul\":12232:12237   */\n      dup2\n        /* \"#utility.yul\":12214:12238   */\n      tag_105\n      jump\t// in\n    tag_196:\n        /* \"#utility.yul\":12207:12212   */\n      dup2\n        /* \"#utility.yul\":12204:12239   */\n      eq\n        /* \"#utility.yul\":12194:12196   */\n      tag_197\n      jumpi\n        /* \"#utility.yul\":12253:12254   */\n      0x00\n        /* \"#utility.yul\":12250:12251   */\n      dup1\n        /* \"#utility.yul\":12243:12255   */\n      revert\n        /* \"#utility.yul\":12194:12196   */\n    tag_197:\n        /* \"#utility.yul\":12184:12263   */\n      pop\n      jump\t// out\n        /* \"#utility.yul\":12269:12391   */\n    tag_68:\n        /* \"#utility.yul\":12342:12366   */\n      tag_199\n        /* \"#utility.yul\":12360:12365   */\n      dup2\n        /* \"#utility.yul\":12342:12366   */\n      tag_123\n      jump\t// in\n    tag_199:\n        /* \"#utility.yul\":12335:12340   */\n      dup2\n        /* \"#utility.yul\":12332:12367   */\n      eq\n        /* \"#utility.yul\":12322:12324   */\n      tag_200\n      jumpi\n        /* \"#utility.yul\":12381:12382   */\n      0x00\n        /* \"#utility.yul\":12378:12379   */\n      dup1\n        /* \"#utility.yul\":12371:12383   */\n      revert\n        /* \"#utility.yul\":12322:12324   */\n    tag_200:\n        /* \"#utility.yul\":12312:12391   */\n      pop\n      jump\t// out\n        /* \"#utility.yul\":12397:12519   */\n    tag_79:\n        /* \"#utility.yul\":12470:12494   */\n      tag_202\n        /* \"#utility.yul\":12488:12493   */\n      dup2\n        /* \"#utility.yul\":12470:12494   */\n      tag_136\n      jump\t// in\n    tag_202:\n        /* \"#utility.yul\":12463:12468   */\n      dup2\n        /* \"#utility.yul\":12460:12495   */\n      eq\n        /* \"#utility.yul\":12450:12452   */\n      tag_203\n      jumpi\n        /* \"#utility.yul\":12509:12510   */\n      0x00\n        /* \"#utility.yul\":12506:12507   */\n      dup1\n        /* \"#utility.yul\":12499:12511   */\n      revert\n        /* \"#utility.yul\":12450:12452   */\n    tag_203:\n        /* \"#utility.yul\":12440:12519   */\n      pop\n      jump\t// out\n\n    auxdata: 0xa264697066735822122040283dfc44a8d2ecbcd2678356700cedb85f20b73c8f9520d4776734a7a6ca3064736f6c63430008040033\n}\n",
				"bytecode": {
					"linkReferences": {},
					"object": "608060405234801561001057600080fd5b506108f6806100206000396000f3fe608060405234801561001057600080fd5b50600436106100365760003560e01c806342f9d5be1461003b578063ee4d60201461006b575b600080fd5b610055600480360381019061005091906103d5565b61009b565b60405161006291906105de565b60405180910390f35b6100856004803603810190610080919061035a565b610130565b60405161009291906105de565b60405180910390f35b6000806100b18986858780519060200120610130565b905060008060008381526020019081526020016000209050600089436100d79190610701565b9050600089826100e79190610701565b90506100ff828460000161016c90919063ffffffff16565b610115818460010161016c90919063ffffffff16565b88836002018190555083945050505050979650505050505050565b6000848484846040516020016101499493929190610592565b6040516020818303038152906040528051906020012060001c9050949350505050565b808260000160006101000a81548167ffffffffffffffff021916908367ffffffffffffffff1602179055505050565b60006101ae6101a98461061e565b6105f9565b905080838252602082019050828560208602820111156101cd57600080fd5b60005b8581101561021757813567ffffffffffffffff8111156101ef57600080fd5b8086016101fc89826102f1565b855260208501945060208401935050506001810190506101d0565b5050509392505050565b600061023461022f8461064a565b6105f9565b90508281526020810184848401111561024c57600080fd5b610257848285610799565b509392505050565b600061027261026d8461067b565b6105f9565b90508281526020810184848401111561028a57600080fd5b610295848285610799565b509392505050565b6000813590506102ac8161087b565b92915050565b600082601f8301126102c357600080fd5b81356102d384826020860161019b565b91505092915050565b6000813590506102eb81610892565b92915050565b600082601f83011261030257600080fd5b8135610312848260208601610221565b91505092915050565b600082601f83011261032c57600080fd5b813561033c84826020860161025f565b91505092915050565b600081359050610354816108a9565b92915050565b6000806000806080858703121561037057600080fd5b600061037e8782880161029d565b945050602061038f8782880161029d565b935050604085013567ffffffffffffffff8111156103ac57600080fd5b6103b8878288016102b2565b92505060606103c9878288016102dc565b91505092959194509250565b600080600080600080600060e0888a0312156103f057600080fd5b60006103fe8a828b0161029d565b975050602061040f8a828b01610345565b96505060406104208a828b01610345565b95505060606104318a828b01610345565b94505060806104428a828b0161029d565b93505060a088013567ffffffffffffffff81111561045f57600080fd5b61046b8a828b0161031b565b92505060c088013567ffffffffffffffff81111561048857600080fd5b6104948a828b016102b2565b91505092959891949750929550565b60006104af838361054a565b905092915050565b6104c08161073f565b82525050565b60006104d1826106bc565b6104db81856106df565b9350836020820285016104ed856106ac565b8060005b85811015610529578484038952815161050a85826104a3565b9450610515836106d2565b925060208a019950506001810190506104f1565b50829750879550505050505092915050565b61054481610751565b82525050565b6000610555826106c7565b61055f81856106f0565b935061056f8185602086016107a8565b6105788161086a565b840191505092915050565b61058c8161077b565b82525050565b60006080820190506105a760008301876104b7565b6105b460208301866104b7565b81810360408301526105c681856104c6565b90506105d5606083018461053b565b95945050505050565b60006020820190506105f36000830184610583565b92915050565b6000610603610614565b905061060f82826107db565b919050565b6000604051905090565b600067ffffffffffffffff8211156106395761063861083b565b5b602082029050602081019050919050565b600067ffffffffffffffff8211156106655761066461083b565b5b61066e8261086a565b9050602081019050919050565b600067ffffffffffffffff8211156106965761069561083b565b5b61069f8261086a565b9050602081019050919050565b6000819050602082019050919050565b600081519050919050565b600081519050919050565b6000602082019050919050565b600082825260208201905092915050565b600082825260208201905092915050565b600061070c82610785565b915061071783610785565b92508267ffffffffffffffff038211156107345761073361080c565b5b828201905092915050565b600061074a8261075b565b9050919050565b6000819050919050565b600073ffffffffffffffffffffffffffffffffffffffff82169050919050565b6000819050919050565b600067ffffffffffffffff82169050919050565b82818337600083830152505050565b60005b838110156107c65780820151818401526020810190506107ab565b838111156107d5576000848401525b50505050565b6107e48261086a565b810181811067ffffffffffffffff821117156108035761080261083b565b5b80604052505050565b7f4e487b7100000000000000000000000000000000000000000000000000000000600052601160045260246000fd5b7f4e487b7100000000000000000000000000000000000000000000000000000000600052604160045260246000fd5b6000601f19601f8301169050919050565b6108848161073f565b811461088f57600080fd5b50565b61089b81610751565b81146108a657600080fd5b50565b6108b28161077b565b81146108bd57600080fd5b5056fea264697066735822122040283dfc44a8d2ecbcd2678356700cedb85f20b73c8f9520d4776734a7a6ca3064736f6c63430008040033",
					"opcodes": "PUSH1 0x80 PUSH1 0x40 MSTORE CALLVALUE DUP1 ISZERO PUSH2 0x10 JUMPI PUSH1 0x0 DUP1 REVERT JUMPDEST POP PUSH2 0x8F6 DUP1 PUSH2 0x20 PUSH1 0x0 CODECOPY PUSH1 0x0 RETURN INVALID PUSH1 0x80 PUSH1 0x40 MSTORE CALLVALUE DUP1 ISZERO PUSH2 0x10 JUMPI PUSH1 0x0 DUP1 REVERT JUMPDEST POP PUSH1 0x4 CALLDATASIZE LT PUSH2 0x36 JUMPI PUSH1 0x0 CALLDATALOAD PUSH1 0xE0 SHR DUP1 PUSH4 0x42F9D5BE EQ PUSH2 0x3B JUMPI DUP1 PUSH4 0xEE4D6020 EQ PUSH2 0x6B JUMPI JUMPDEST PUSH1 0x0 DUP1 REVERT JUMPDEST PUSH2 0x55 PUSH1 0x4 DUP1 CALLDATASIZE SUB DUP2 ADD SWAP1 PUSH2 0x50 SWAP2 SWAP1 PUSH2 0x3D5 JUMP JUMPDEST PUSH2 0x9B JUMP JUMPDEST PUSH1 0x40 MLOAD PUSH2 0x62 SWAP2 SWAP1 PUSH2 0x5DE JUMP JUMPDEST PUSH1 0x40 MLOAD DUP1 SWAP2 SUB SWAP1 RETURN JUMPDEST PUSH2 0x85 PUSH1 0x4 DUP1 CALLDATASIZE SUB DUP2 ADD SWAP1 PUSH2 0x80 SWAP2 SWAP1 PUSH2 0x35A JUMP JUMPDEST PUSH2 0x130 JUMP JUMPDEST PUSH1 0x40 MLOAD PUSH2 0x92 SWAP2 SWAP1 PUSH2 0x5DE JUMP JUMPDEST PUSH1 0x40 MLOAD DUP1 SWAP2 SUB SWAP1 RETURN JUMPDEST PUSH1 0x0 DUP1 PUSH2 0xB1 DUP10 DUP7 DUP6 DUP8 DUP1 MLOAD SWAP1 PUSH1 0x20 ADD KECCAK256 PUSH2 0x130 JUMP JUMPDEST SWAP1 POP PUSH1 0x0 DUP1 PUSH1 0x0 DUP4 DUP2 MSTORE PUSH1 0x20 ADD SWAP1 DUP2 MSTORE PUSH1 0x20 ADD PUSH1 0x0 KECCAK256 SWAP1 POP PUSH1 0x0 DUP10 NUMBER PUSH2 0xD7 SWAP2 SWAP1 PUSH2 0x701 JUMP JUMPDEST SWAP1 POP PUSH1 0x0 DUP10 DUP3 PUSH2 0xE7 SWAP2 SWAP1 PUSH2 0x701 JUMP JUMPDEST SWAP1 POP PUSH2 0xFF DUP3 DUP5 PUSH1 0x0 ADD PUSH2 0x16C SWAP1 SWAP2 SWAP1 PUSH4 0xFFFFFFFF AND JUMP JUMPDEST PUSH2 0x115 DUP2 DUP5 PUSH1 0x1 ADD PUSH2 0x16C SWAP1 SWAP2 SWAP1 PUSH4 0xFFFFFFFF AND JUMP JUMPDEST DUP9 DUP4 PUSH1 0x2 ADD DUP2 SWAP1 SSTORE POP DUP4 SWAP5 POP POP POP POP POP SWAP8 SWAP7 POP POP POP POP POP POP POP JUMP JUMPDEST PUSH1 0x0 DUP5 DUP5 DUP5 DUP5 PUSH1 0x40 MLOAD PUSH1 0x20 ADD PUSH2 0x149 SWAP5 SWAP4 SWAP3 SWAP2 SWAP1 PUSH2 0x592 JUMP JUMPDEST PUSH1 0x40 MLOAD PUSH1 0x20 DUP2 DUP4 SUB SUB DUP2 MSTORE SWAP1 PUSH1 0x40 MSTORE DUP1 MLOAD SWAP1 PUSH1 0x20 ADD KECCAK256 PUSH1 0x0 SHR SWAP1 POP SWAP5 SWAP4 POP POP POP POP JUMP JUMPDEST DUP1 DUP3 PUSH1 0x0 ADD PUSH1 0x0 PUSH2 0x100 EXP DUP2 SLOAD DUP2 PUSH8 0xFFFFFFFFFFFFFFFF MUL NOT AND SWAP1 DUP4 PUSH8 0xFFFFFFFFFFFFFFFF AND MUL OR SWAP1 SSTORE POP POP POP JUMP JUMPDEST PUSH1 0x0 PUSH2 0x1AE PUSH2 0x1A9 DUP5 PUSH2 0x61E JUMP JUMPDEST PUSH2 0x5F9 JUMP JUMPDEST SWAP1 POP DUP1 DUP4 DUP3 MSTORE PUSH1 0x20 DUP3 ADD SWAP1 POP DUP3 DUP6 PUSH1 0x20 DUP7 MUL DUP3 ADD GT ISZERO PUSH2 0x1CD JUMPI PUSH1 0x0 DUP1 REVERT JUMPDEST PUSH1 0x0 JUMPDEST DUP6 DUP2 LT ISZERO PUSH2 0x217 JUMPI DUP2 CALLDATALOAD PUSH8 0xFFFFFFFFFFFFFFFF DUP2 GT ISZERO PUSH2 0x1EF JUMPI PUSH1 0x0 DUP1 REVERT JUMPDEST DUP1 DUP7 ADD PUSH2 0x1FC DUP10 DUP3 PUSH2 0x2F1 JUMP JUMPDEST DUP6 MSTORE PUSH1 0x20 DUP6 ADD SWAP5 POP PUSH1 0x20 DUP5 ADD SWAP4 POP POP POP PUSH1 0x1 DUP2 ADD SWAP1 POP PUSH2 0x1D0 JUMP JUMPDEST POP POP POP SWAP4 SWAP3 POP POP POP JUMP JUMPDEST PUSH1 0x0 PUSH2 0x234 PUSH2 0x22F DUP5 PUSH2 0x64A JUMP JUMPDEST PUSH2 0x5F9 JUMP JUMPDEST SWAP1 POP DUP3 DUP2 MSTORE PUSH1 0x20 DUP2 ADD DUP5 DUP5 DUP5 ADD GT ISZERO PUSH2 0x24C JUMPI PUSH1 0x0 DUP1 REVERT JUMPDEST PUSH2 0x257 DUP5 DUP3 DUP6 PUSH2 0x799 JUMP JUMPDEST POP SWAP4 SWAP3 POP POP POP JUMP JUMPDEST PUSH1 0x0 PUSH2 0x272 PUSH2 0x26D DUP5 PUSH2 0x67B JUMP JUMPDEST PUSH2 0x5F9 JUMP JUMPDEST SWAP1 POP DUP3 DUP2 MSTORE PUSH1 0x20 DUP2 ADD DUP5 DUP5 DUP5 ADD GT ISZERO PUSH2 0x28A JUMPI PUSH1 0x0 DUP1 REVERT JUMPDEST PUSH2 0x295 DUP5 DUP3 DUP6 PUSH2 0x799 JUMP JUMPDEST POP SWAP4 SWAP3 POP POP POP JUMP JUMPDEST PUSH1 0x0 DUP2 CALLDATALOAD SWAP1 POP PUSH2 0x2AC DUP2 PUSH2 0x87B JUMP JUMPDEST SWAP3 SWAP2 POP POP JUMP JUMPDEST PUSH1 0x0 DUP3 PUSH1 0x1F DUP4 ADD SLT PUSH2 0x2C3 JUMPI PUSH1 0x0 DUP1 REVERT JUMPDEST DUP2 CALLDATALOAD PUSH2 0x2D3 DUP5 DUP3 PUSH1 0x20 DUP7 ADD PUSH2 0x19B JUMP JUMPDEST SWAP2 POP POP SWAP3 SWAP2 POP POP JUMP JUMPDEST PUSH1 0x0 DUP2 CALLDATALOAD SWAP1 POP PUSH2 0x2EB DUP2 PUSH2 0x892 JUMP JUMPDEST SWAP3 SWAP2 POP POP JUMP JUMPDEST PUSH1 0x0 DUP3 PUSH1 0x1F DUP4 ADD SLT PUSH2 0x302 JUMPI PUSH1 0x0 DUP1 REVERT JUMPDEST DUP2 CALLDATALOAD PUSH2 0x312 DUP5 DUP3 PUSH1 0x20 DUP7 ADD PUSH2 0x221 JUMP JUMPDEST SWAP2 POP POP SWAP3 SWAP2 POP POP JUMP JUMPDEST PUSH1 0x0 DUP3 PUSH1 0x1F DUP4 ADD SLT PUSH2 0x32C JUMPI PUSH1 0x0 DUP1 REVERT JUMPDEST DUP2 CALLDATALOAD PUSH2 0x33C DUP5 DUP3 PUSH1 0x20 DUP7 ADD PUSH2 0x25F JUMP JUMPDEST SWAP2 POP POP SWAP3 SWAP2 POP POP JUMP JUMPDEST PUSH1 0x0 DUP2 CALLDATALOAD SWAP1 POP PUSH2 0x354 DUP2 PUSH2 0x8A9 JUMP JUMPDEST SWAP3 SWAP2 POP POP JUMP JUMPDEST PUSH1 0x0 DUP1 PUSH1 0x0 DUP1 PUSH1 0x80 DUP6 DUP8 SUB SLT ISZERO PUSH2 0x370 JUMPI PUSH1 0x0 DUP1 REVERT JUMPDEST PUSH1 0x0 PUSH2 0x37E DUP8 DUP3 DUP9 ADD PUSH2 0x29D JUMP JUMPDEST SWAP5 POP POP PUSH1 0x20 PUSH2 0x38F DUP8 DUP3 DUP9 ADD PUSH2 0x29D JUMP JUMPDEST SWAP4 POP POP PUSH1 0x40 DUP6 ADD CALLDATALOAD PUSH8 0xFFFFFFFFFFFFFFFF DUP2 GT ISZERO PUSH2 0x3AC JUMPI PUSH1 0x0 DUP1 REVERT JUMPDEST PUSH2 0x3B8 DUP8 DUP3 DUP9 ADD PUSH2 0x2B2 JUMP JUMPDEST SWAP3 POP POP PUSH1 0x60 PUSH2 0x3C9 DUP8 DUP3 DUP9 ADD PUSH2 0x2DC JUMP JUMPDEST SWAP2 POP POP SWAP3 SWAP6 SWAP2 SWAP5 POP SWAP3 POP JUMP JUMPDEST PUSH1 0x0 DUP1 PUSH1 0x0 DUP1 PUSH1 0x0 DUP1 PUSH1 0x0 PUSH1 0xE0 DUP9 DUP11 SUB SLT ISZERO PUSH2 0x3F0 JUMPI PUSH1 0x0 DUP1 REVERT JUMPDEST PUSH1 0x0 PUSH2 0x3FE DUP11 DUP3 DUP12 ADD PUSH2 0x29D JUMP JUMPDEST SWAP8 POP POP PUSH1 0x20 PUSH2 0x40F DUP11 DUP3 DUP12 ADD PUSH2 0x345 JUMP JUMPDEST SWAP7 POP POP PUSH1 0x40 PUSH2 0x420 DUP11 DUP3 DUP12 ADD PUSH2 0x345 JUMP JUMPDEST SWAP6 POP POP PUSH1 0x60 PUSH2 0x431 DUP11 DUP3 DUP12 ADD PUSH2 0x345 JUMP JUMPDEST SWAP5 POP POP PUSH1 0x80 PUSH2 0x442 DUP11 DUP3 DUP12 ADD PUSH2 0x29D JUMP JUMPDEST SWAP4 POP POP PUSH1 0xA0 DUP9 ADD CALLDATALOAD PUSH8 0xFFFFFFFFFFFFFFFF DUP2 GT ISZERO PUSH2 0x45F JUMPI PUSH1 0x0 DUP1 REVERT JUMPDEST PUSH2 0x46B DUP11 DUP3 DUP12 ADD PUSH2 0x31B JUMP JUMPDEST SWAP3 POP POP PUSH1 0xC0 DUP9 ADD CALLDATALOAD PUSH8 0xFFFFFFFFFFFFFFFF DUP2 GT ISZERO PUSH2 0x488 JUMPI PUSH1 0x0 DUP1 REVERT JUMPDEST PUSH2 0x494 DUP11 DUP3 DUP12 ADD PUSH2 0x2B2 JUMP JUMPDEST SWAP2 POP POP SWAP3 SWAP6 SWAP9 SWAP2 SWAP5 SWAP8 POP SWAP3 SWAP6 POP JUMP JUMPDEST PUSH1 0x0 PUSH2 0x4AF DUP4 DUP4 PUSH2 0x54A JUMP JUMPDEST SWAP1 POP SWAP3 SWAP2 POP POP JUMP JUMPDEST PUSH2 0x4C0 DUP2 PUSH2 0x73F JUMP JUMPDEST DUP3 MSTORE POP POP JUMP JUMPDEST PUSH1 0x0 PUSH2 0x4D1 DUP3 PUSH2 0x6BC JUMP JUMPDEST PUSH2 0x4DB DUP2 DUP6 PUSH2 0x6DF JUMP JUMPDEST SWAP4 POP DUP4 PUSH1 0x20 DUP3 MUL DUP6 ADD PUSH2 0x4ED DUP6 PUSH2 0x6AC JUMP JUMPDEST DUP1 PUSH1 0x0 JUMPDEST DUP6 DUP2 LT ISZERO PUSH2 0x529 JUMPI DUP5 DUP5 SUB DUP10 MSTORE DUP2 MLOAD PUSH2 0x50A DUP6 DUP3 PUSH2 0x4A3 JUMP JUMPDEST SWAP5 POP PUSH2 0x515 DUP4 PUSH2 0x6D2 JUMP JUMPDEST SWAP3 POP PUSH1 0x20 DUP11 ADD SWAP10 POP POP PUSH1 0x1 DUP2 ADD SWAP1 POP PUSH2 0x4F1 JUMP JUMPDEST POP DUP3 SWAP8 POP DUP8 SWAP6 POP POP POP POP POP POP SWAP3 SWAP2 POP POP JUMP JUMPDEST PUSH2 0x544 DUP2 PUSH2 0x751 JUMP JUMPDEST DUP3 MSTORE POP POP JUMP JUMPDEST PUSH1 0x0 PUSH2 0x555 DUP3 PUSH2 0x6C7 JUMP JUMPDEST PUSH2 0x55F DUP2 DUP6 PUSH2 0x6F0 JUMP JUMPDEST SWAP4 POP PUSH2 0x56F DUP2 DUP6 PUSH1 0x20 DUP7 ADD PUSH2 0x7A8 JUMP JUMPDEST PUSH2 0x578 DUP2 PUSH2 0x86A JUMP JUMPDEST DUP5 ADD SWAP2 POP POP SWAP3 SWAP2 POP POP JUMP JUMPDEST PUSH2 0x58C DUP2 PUSH2 0x77B JUMP JUMPDEST DUP3 MSTORE POP POP JUMP JUMPDEST PUSH1 0x0 PUSH1 0x80 DUP3 ADD SWAP1 POP PUSH2 0x5A7 PUSH1 0x0 DUP4 ADD DUP8 PUSH2 0x4B7 JUMP JUMPDEST PUSH2 0x5B4 PUSH1 0x20 DUP4 ADD DUP7 PUSH2 0x4B7 JUMP JUMPDEST DUP2 DUP2 SUB PUSH1 0x40 DUP4 ADD MSTORE PUSH2 0x5C6 DUP2 DUP6 PUSH2 0x4C6 JUMP JUMPDEST SWAP1 POP PUSH2 0x5D5 PUSH1 0x60 DUP4 ADD DUP5 PUSH2 0x53B JUMP JUMPDEST SWAP6 SWAP5 POP POP POP POP POP JUMP JUMPDEST PUSH1 0x0 PUSH1 0x20 DUP3 ADD SWAP1 POP PUSH2 0x5F3 PUSH1 0x0 DUP4 ADD DUP5 PUSH2 0x583 JUMP JUMPDEST SWAP3 SWAP2 POP POP JUMP JUMPDEST PUSH1 0x0 PUSH2 0x603 PUSH2 0x614 JUMP JUMPDEST SWAP1 POP PUSH2 0x60F DUP3 DUP3 PUSH2 0x7DB JUMP JUMPDEST SWAP2 SWAP1 POP JUMP JUMPDEST PUSH1 0x0 PUSH1 0x40 MLOAD SWAP1 POP SWAP1 JUMP JUMPDEST PUSH1 0x0 PUSH8 0xFFFFFFFFFFFFFFFF DUP3 GT ISZERO PUSH2 0x639 JUMPI PUSH2 0x638 PUSH2 0x83B JUMP JUMPDEST JUMPDEST PUSH1 0x20 DUP3 MUL SWAP1 POP PUSH1 0x20 DUP2 ADD SWAP1 POP SWAP2 SWAP1 POP JUMP JUMPDEST PUSH1 0x0 PUSH8 0xFFFFFFFFFFFFFFFF DUP3 GT ISZERO PUSH2 0x665 JUMPI PUSH2 0x664 PUSH2 0x83B JUMP JUMPDEST JUMPDEST PUSH2 0x66E DUP3 PUSH2 0x86A JUMP JUMPDEST SWAP1 POP PUSH1 0x20 DUP2 ADD SWAP1 POP SWAP2 SWAP1 POP JUMP JUMPDEST PUSH1 0x0 PUSH8 0xFFFFFFFFFFFFFFFF DUP3 GT ISZERO PUSH2 0x696 JUMPI PUSH2 0x695 PUSH2 0x83B JUMP JUMPDEST JUMPDEST PUSH2 0x69F DUP3 PUSH2 0x86A JUMP JUMPDEST SWAP1 POP PUSH1 0x20 DUP2 ADD SWAP1 POP SWAP2 SWAP1 POP JUMP JUMPDEST PUSH1 0x0 DUP2 SWAP1 POP PUSH1 0x20 DUP3 ADD SWAP1 POP SWAP2 SWAP1 POP JUMP JUMPDEST PUSH1 0x0 DUP2 MLOAD SWAP1 POP SWAP2 SWAP1 POP JUMP JUMPDEST PUSH1 0x0 DUP2 MLOAD SWAP1 POP SWAP2 SWAP1 POP JUMP JUMPDEST PUSH1 0x0 PUSH1 0x20 DUP3 ADD SWAP1 POP SWAP2 SWAP1 POP JUMP JUMPDEST PUSH1 0x0 DUP3 DUP3 MSTORE PUSH1 0x20 DUP3 ADD SWAP1 POP SWAP3 SWAP2 POP POP JUMP JUMPDEST PUSH1 0x0 DUP3 DUP3 MSTORE PUSH1 0x20 DUP3 ADD SWAP1 POP SWAP3 SWAP2 POP POP JUMP JUMPDEST PUSH1 0x0 PUSH2 0x70C DUP3 PUSH2 0x785 JUMP JUMPDEST SWAP2 POP PUSH2 0x717 DUP4 PUSH2 0x785 JUMP JUMPDEST SWAP3 POP DUP3 PUSH8 0xFFFFFFFFFFFFFFFF SUB DUP3 GT ISZERO PUSH2 0x734 JUMPI PUSH2 0x733 PUSH2 0x80C JUMP JUMPDEST JUMPDEST DUP3 DUP3 ADD SWAP1 POP SWAP3 SWAP2 POP POP JUMP JUMPDEST PUSH1 0x0 PUSH2 0x74A DUP3 PUSH2 0x75B JUMP JUMPDEST SWAP1 POP SWAP2 SWAP1 POP JUMP JUMPDEST PUSH1 0x0 DUP2 SWAP1 POP SWAP2 SWAP1 POP JUMP JUMPDEST PUSH1 0x0 PUSH20 0xFFFFFFFFFFFFFFFFFFFFFFFFFFFFFFFFFFFFFFFF DUP3 AND SWAP1 POP SWAP2 SWAP1 POP JUMP JUMPDEST PUSH1 0x0 DUP2 SWAP1 POP SWAP2 SWAP1 POP JUMP JUMPDEST PUSH1 0x0 PUSH8 0xFFFFFFFFFFFFFFFF DUP3 AND SWAP1 POP SWAP2 SWAP1 POP JUMP JUMPDEST DUP3 DUP2 DUP4 CALLDATACOPY PUSH1 0x0 DUP4 DUP4 ADD MSTORE POP POP POP JUMP JUMPDEST PUSH1 0x0 JUMPDEST DUP4 DUP2 LT ISZERO PUSH2 0x7C6 JUMPI DUP1 DUP3 ADD MLOAD DUP2 DUP5 ADD MSTORE PUSH1 0x20 DUP2 ADD SWAP1 POP PUSH2 0x7AB JUMP JUMPDEST DUP4 DUP2 GT ISZERO PUSH2 0x7D5 JUMPI PUSH1 0x0 DUP5 DUP5 ADD MSTORE JUMPDEST POP POP POP POP JUMP JUMPDEST PUSH2 0x7E4 DUP3 PUSH2 0x86A JUMP JUMPDEST DUP2 ADD DUP2 DUP2 LT PUSH8 0xFFFFFFFFFFFFFFFF DUP3 GT OR ISZERO PUSH2 0x803 JUMPI PUSH2 0x802 PUSH2 0x83B JUMP JUMPDEST JUMPDEST DUP1 PUSH1 0x40 MSTORE POP POP POP JUMP JUMPDEST PUSH32 0x4E487B7100000000000000000000000000000000000000000000000000000000 PUSH1 0x0 MSTORE PUSH1 0x11 PUSH1 0x4 MSTORE PUSH1 0x24 PUSH1 0x0 REVERT JUMPDEST PUSH32 0x4E487B7100000000000000000000000000000000000000000000000000000000 PUSH1 0x0 MSTORE PUSH1 0x41 PUSH1 0x4 MSTORE PUSH1 0x24 PUSH1 0x0 REVERT JUMPDEST PUSH1 0x0 PUSH1 0x1F NOT PUSH1 0x1F DUP4 ADD AND SWAP1 POP SWAP2 SWAP1 POP JUMP JUMPDEST PUSH2 0x884 DUP2 PUSH2 0x73F JUMP JUMPDEST DUP2 EQ PUSH2 0x88F JUMPI PUSH1 0x0 DUP1 REVERT JUMPDEST POP JUMP JUMPDEST PUSH2 0x89B DUP2 PUSH2 0x751 JUMP JUMPDEST DUP2 EQ PUSH2 0x8A6 JUMPI PUSH1 0x0 DUP1 REVERT JUMPDEST POP JUMP JUMPDEST PUSH2 0x8B2 DUP2 PUSH2 0x77B JUMP JUMPDEST DUP2 EQ PUSH2 0x8BD JUMPI PUSH1 0x0 DUP1 REVERT JUMPDEST POP JUMP INVALID LOG2 PUSH5 0x6970667358 0x22 SLT KECCAK256 BLOCKHASH 0x28 RETURNDATASIZE 0xFC DIFFICULTY 0xA8 0xD2 0xEC 0xBC 0xD2 PUSH8 0x8356700CEDB85F20 0xB7 EXTCODECOPY DUP16 SWAP6 KECCAK256 0xD4 PUSH24 0x6734A7A6CA3064736F6C6343000804003300000000000000 "
				},
				"gasEstimates": {
					"creation": {
						"codeDepositCost": "458800",
						"executionCost": "493",
						"totalCost": "459293"
					},
					"external": {
						"hashProposal(address,address,bytes[],bytes32)": "infinite",
						"proposal(address,uint256,uint256,uint256,address,string,bytes[])": "infinite"
					}
				},
				"methodIdentifiers": {
					"hashProposal(address,address,bytes[],bytes32)": "ee4d6020",
					"proposal(address,uint256,uint256,uint256,address,string,bytes[])": "42f9d5be"
				}
			},
			"storageLayout": {
				"storage": [
					{
						"astId": 24,
						"contract": ".workspaces/default_workspace/unMiracle/UMRCmiracle.sol:UMRproposal",
						"label": "_proposals",
						"offset": 0,
						"slot": "0",
						"type": "t_mapping(t_uint256,t_struct(ProposalCore)19_storage)"
					}
				],
				"types": {
					"t_bool": {
						"encoding": "inplace",
						"label": "bool",
						"numberOfBytes": "1"
					},
					"t_mapping(t_uint256,t_struct(ProposalCore)19_storage)": {
						"encoding": "mapping",
						"key": "t_uint256",
						"label": "mapping(uint256 => struct UMRproposal.ProposalCore)",
						"numberOfBytes": "32",
						"value": "t_struct(ProposalCore)19_storage"
					},
					"t_struct(BlockNumber)252_storage": {
						"encoding": "inplace",
						"label": "struct Timers.BlockNumber",
						"members": [
							{
								"astId": 251,
								"contract": ".workspaces/default_workspace/unMiracle/UMRCmiracle.sol:UMRproposal",
								"label": "_deadline",
								"offset": 0,
								"slot": "0",
								"type": "t_uint64"
							}
						],
						"numberOfBytes": "32"
					},
					"t_struct(ProposalCore)19_storage": {
						"encoding": "inplace",
						"label": "struct UMRproposal.ProposalCore",
						"members": [
							{
								"astId": 9,
								"contract": ".workspaces/default_workspace/unMiracle/UMRCmiracle.sol:UMRproposal",
								"label": "donationStart",
								"offset": 0,
								"slot": "0",
								"type": "t_struct(BlockNumber)252_storage"
							},
							{
								"astId": 12,
								"contract": ".workspaces/default_workspace/unMiracle/UMRCmiracle.sol:UMRproposal",
								"label": "donationEnd",
								"offset": 0,
								"slot": "1",
								"type": "t_struct(BlockNumber)252_storage"
							},
							{
								"astId": 14,
								"contract": ".workspaces/default_workspace/unMiracle/UMRCmiracle.sol:UMRproposal",
								"label": "donateMinimum",
								"offset": 0,
								"slot": "2",
								"type": "t_uint256"
							},
							{
								"astId": 16,
								"contract": ".workspaces/default_workspace/unMiracle/UMRCmiracle.sol:UMRproposal",
								"label": "executed",
								"offset": 0,
								"slot": "3",
								"type": "t_bool"
							},
							{
								"astId": 18,
								"contract": ".workspaces/default_workspace/unMiracle/UMRCmiracle.sol:UMRproposal",
								"label": "canceled",
								"offset": 1,
								"slot": "3",
								"type": "t_bool"
							}
						],
						"numberOfBytes": "128"
					},
					"t_uint256": {
						"encoding": "inplace",
						"label": "uint256",
						"numberOfBytes": "32"
					},
					"t_uint64": {
						"encoding": "inplace",
						"label": "uint64",
						"numberOfBytes": "8"
					}
				}
			},
			"userdoc": {
				"kind": "user",
				"methods": {},
				"version": 1
			}
		}
	}
}