{
	".workspaces/default_workspace/unMiracle/test.sol": {
		"test": {
			"abi": [
				{
					"inputs": [
						{
							"internalType": "bytes",
							"name": "data",
							"type": "bytes"
						}
					],
					"name": "abiDecode",
					"outputs": [
						{
							"internalType": "uint256",
							"name": "_str1",
							"type": "uint256"
						},
						{
							"internalType": "uint256",
							"name": "_number",
							"type": "uint256"
						},
						{
							"internalType": "uint256",
							"name": "_str2",
							"type": "uint256"
						}
					],
					"stateMutability": "nonpayable",
					"type": "function"
				},
				{
					"inputs": [],
					"name": "abiEncode",
					"outputs": [
						{
							"internalType": "bytes",
							"name": "",
							"type": "bytes"
						}
					],
					"stateMutability": "nonpayable",
					"type": "function"
				},
				{
					"inputs": [],
					"name": "deadline",
					"outputs": [
						{
							"internalType": "uint64",
							"name": "",
							"type": "uint64"
						}
					],
					"stateMutability": "view",
					"type": "function"
				},
				{
					"inputs": [],
					"name": "keccak256test",
					"outputs": [
						{
							"internalType": "bytes",
							"name": "",
							"type": "bytes"
						}
					],
					"stateMutability": "nonpayable",
					"type": "function"
				},
				{
					"inputs": [],
					"name": "snapshot",
					"outputs": [
						{
							"internalType": "uint64",
							"name": "",
							"type": "uint64"
						}
					],
					"stateMutability": "view",
					"type": "function"
				},
				{
					"inputs": [],
					"name": "structTest",
					"outputs": [
						{
							"components": [
								{
									"internalType": "string",
									"name": "name",
									"type": "string"
								},
								{
									"internalType": "uint256",
									"name": "num",
									"type": "uint256"
								}
							],
							"internalType": "struct test.testS",
							"name": "",
							"type": "tuple"
						}
					],
					"stateMutability": "nonpayable",
					"type": "function"
				},
				{
					"inputs": [],
					"name": "votingDelay",
					"outputs": [
						{
							"internalType": "uint256",
							"name": "",
							"type": "uint256"
						}
					],
					"stateMutability": "pure",
					"type": "function"
				},
				{
					"inputs": [],
					"name": "votingPeriod",
					"outputs": [
						{
							"internalType": "uint256",
							"name": "",
							"type": "uint256"
						}
					],
					"stateMutability": "pure",
					"type": "function"
				}
			],
			"devdoc": {
				"kind": "dev",
				"methods": {},
				"version": 1
			},
			"evm": {
				"assembly": "    /* \".workspaces/default_workspace/unMiracle/test.sol\":170:1552  contract test {... */\n  mstore(0x40, 0x80)\n  callvalue\n  dup1\n  iszero\n  tag_1\n  jumpi\n  0x00\n  dup1\n  revert\ntag_1:\n  pop\n  dataSize(sub_0)\n  dup1\n  dataOffset(sub_0)\n  0x00\n  codecopy\n  0x00\n  return\nstop\n\nsub_0: assembly {\n        /* \".workspaces/default_workspace/unMiracle/test.sol\":170:1552  contract test {... */\n      mstore(0x40, 0x80)\n      callvalue\n      dup1\n      iszero\n      tag_1\n      jumpi\n      0x00\n      dup1\n      revert\n    tag_1:\n      pop\n      jumpi(tag_2, lt(calldatasize, 0x04))\n      shr(0xe0, calldataload(0x00))\n      dup1\n      0x6097e7a3\n      gt\n      tag_11\n      jumpi\n      dup1\n      0x6097e7a3\n      eq\n      tag_7\n      jumpi\n      dup1\n      0x8c492a76\n      eq\n      tag_8\n      jumpi\n      dup1\n      0x9711715a\n      eq\n      tag_9\n      jumpi\n      dup1\n      0xba753e73\n      eq\n      tag_10\n      jumpi\n      jump(tag_2)\n    tag_11:\n      dup1\n      0x02a251a3\n      eq\n      tag_3\n      jumpi\n      dup1\n      0x29dcb0cf\n      eq\n      tag_4\n      jumpi\n      dup1\n      0x3932abb1\n      eq\n      tag_5\n      jumpi\n      dup1\n      0x416bdc52\n      eq\n      tag_6\n      jumpi\n    tag_2:\n      0x00\n      dup1\n      revert\n        /* \".workspaces/default_workspace/unMiracle/test.sol\":1080:1171  function votingPeriod() public pure returns(uint256) {... */\n    tag_3:\n      tag_12\n      tag_13\n      jump\t// in\n    tag_12:\n      mload(0x40)\n      tag_14\n      swap2\n      swap1\n      tag_15\n      jump\t// in\n    tag_14:\n      mload(0x40)\n      dup1\n      swap2\n      sub\n      swap1\n      return\n        /* \".workspaces/default_workspace/unMiracle/test.sol\":1336:1550  function deadline() public view returns(uint64) {... */\n    tag_4:\n      tag_16\n      tag_17\n      jump\t// in\n    tag_16:\n      mload(0x40)\n      tag_18\n      swap2\n      swap1\n      tag_19\n      jump\t// in\n    tag_18:\n      mload(0x40)\n      dup1\n      swap2\n      sub\n      swap1\n      return\n        /* \".workspaces/default_workspace/unMiracle/test.sol\":997:1074  function votingDelay() public pure returns(uint256) {... */\n    tag_5:\n      tag_20\n      tag_21\n      jump\t// in\n    tag_20:\n      mload(0x40)\n      tag_22\n      swap2\n      swap1\n      tag_15\n      jump\t// in\n    tag_22:\n      mload(0x40)\n      dup1\n      swap2\n      sub\n      swap1\n      return\n        /* \".workspaces/default_workspace/unMiracle/test.sol\":808:990  function abiDecode(bytes memory data) public returns(uint _str1, uint _number, uint _str2) {... */\n    tag_6:\n      tag_23\n      0x04\n      dup1\n      calldatasize\n      sub\n      dup2\n      add\n      swap1\n      tag_24\n      swap2\n      swap1\n      tag_25\n      jump\t// in\n    tag_24:\n      tag_26\n      jump\t// in\n    tag_23:\n      mload(0x40)\n      tag_27\n      swap4\n      swap3\n      swap2\n      swap1\n      tag_28\n      jump\t// in\n    tag_27:\n      mload(0x40)\n      dup1\n      swap2\n      sub\n      swap1\n      return\n        /* \".workspaces/default_workspace/unMiracle/test.sol\":705:803  function abiEncode() public returns(bytes memory) {... */\n    tag_7:\n      tag_29\n      tag_30\n      jump\t// in\n    tag_29:\n      mload(0x40)\n      tag_31\n      swap2\n      swap1\n      tag_32\n      jump\t// in\n    tag_31:\n      mload(0x40)\n      dup1\n      swap2\n      sub\n      swap1\n      return\n        /* \".workspaces/default_workspace/unMiracle/test.sol\":435:699  function keccak256test() public returns(bytes memory) {... */\n    tag_8:\n      tag_33\n      tag_34\n      jump\t// in\n    tag_33:\n      mload(0x40)\n      tag_35\n      swap2\n      swap1\n      tag_32\n      jump\t// in\n    tag_35:\n      mload(0x40)\n      dup1\n      swap2\n      sub\n      swap1\n      return\n        /* \".workspaces/default_workspace/unMiracle/test.sol\":1177:1330  function snapshot() public view returns(uint64) {... */\n    tag_9:\n      tag_36\n      tag_37\n      jump\t// in\n    tag_36:\n      mload(0x40)\n      tag_38\n      swap2\n      swap1\n      tag_19\n      jump\t// in\n    tag_38:\n      mload(0x40)\n      dup1\n      swap2\n      sub\n      swap1\n      return\n        /* \".workspaces/default_workspace/unMiracle/test.sol\":304:429  function structTest() public returns(testS memory) {... */\n    tag_10:\n      tag_39\n      tag_40\n      jump\t// in\n    tag_39:\n      mload(0x40)\n      tag_41\n      swap2\n      swap1\n      tag_42\n      jump\t// in\n    tag_41:\n      mload(0x40)\n      dup1\n      swap2\n      sub\n      swap1\n      return\n        /* \".workspaces/default_workspace/unMiracle/test.sol\":1080:1171  function votingPeriod() public pure returns(uint256) {... */\n    tag_13:\n        /* \".workspaces/default_workspace/unMiracle/test.sol\":1124:1131  uint256 */\n      0x00\n        /* \".workspaces/default_workspace/unMiracle/test.sol\":1150:1155  45818 */\n      0xb2fa\n        /* \".workspaces/default_workspace/unMiracle/test.sol\":1143:1155  return 45818 */\n      swap1\n      pop\n        /* \".workspaces/default_workspace/unMiracle/test.sol\":1080:1171  function votingPeriod() public pure returns(uint256) {... */\n      swap1\n      jump\t// out\n        /* \".workspaces/default_workspace/unMiracle/test.sol\":1336:1550  function deadline() public view returns(uint64) {... */\n    tag_17:\n        /* \".workspaces/default_workspace/unMiracle/test.sol\":1376:1382  uint64 */\n      0x00\n        /* \".workspaces/default_workspace/unMiracle/test.sol\":1394:1409  uint64 snapshot */\n      dup1\n        /* \".workspaces/default_workspace/unMiracle/test.sol\":1442:1455  votingDelay() */\n      tag_45\n        /* \".workspaces/default_workspace/unMiracle/test.sol\":1442:1453  votingDelay */\n      tag_21\n        /* \".workspaces/default_workspace/unMiracle/test.sol\":1442:1455  votingDelay() */\n      jump\t// in\n    tag_45:\n        /* \".workspaces/default_workspace/unMiracle/test.sol\":1419:1431  block.number */\n      number\n        /* \".workspaces/default_workspace/unMiracle/test.sol\":1412:1456  uint64(block.number) + uint64(votingDelay()) */\n      tag_46\n      swap2\n      swap1\n      tag_47\n      jump\t// in\n    tag_46:\n        /* \".workspaces/default_workspace/unMiracle/test.sol\":1394:1456  uint64 snapshot = uint64(block.number) + uint64(votingDelay()) */\n      swap1\n      pop\n        /* \".workspaces/default_workspace/unMiracle/test.sol\":1466:1481  uint64 deadline */\n      0x00\n        /* \".workspaces/default_workspace/unMiracle/test.sol\":1502:1516  votingPeriod() */\n      tag_48\n        /* \".workspaces/default_workspace/unMiracle/test.sol\":1502:1514  votingPeriod */\n      tag_13\n        /* \".workspaces/default_workspace/unMiracle/test.sol\":1502:1516  votingPeriod() */\n      jump\t// in\n    tag_48:\n        /* \".workspaces/default_workspace/unMiracle/test.sol\":1484:1492  snapshot */\n      dup3\n        /* \".workspaces/default_workspace/unMiracle/test.sol\":1484:1517  snapshot + uint64(votingPeriod()) */\n      tag_49\n      swap2\n      swap1\n      tag_47\n      jump\t// in\n    tag_49:\n        /* \".workspaces/default_workspace/unMiracle/test.sol\":1466:1517  uint64 deadline = snapshot + uint64(votingPeriod()) */\n      swap1\n      pop\n        /* \".workspaces/default_workspace/unMiracle/test.sol\":1535:1543  deadline */\n      dup1\n        /* \".workspaces/default_workspace/unMiracle/test.sol\":1528:1543  return deadline */\n      swap3\n      pop\n      pop\n      pop\n        /* \".workspaces/default_workspace/unMiracle/test.sol\":1336:1550  function deadline() public view returns(uint64) {... */\n      swap1\n      jump\t// out\n        /* \".workspaces/default_workspace/unMiracle/test.sol\":997:1074  function votingDelay() public pure returns(uint256) {... */\n    tag_21:\n        /* \".workspaces/default_workspace/unMiracle/test.sol\":1040:1047  uint256 */\n      0x00\n        /* \".workspaces/default_workspace/unMiracle/test.sol\":1066:1067  1 */\n      0x01\n        /* \".workspaces/default_workspace/unMiracle/test.sol\":1059:1067  return 1 */\n      swap1\n      pop\n        /* \".workspaces/default_workspace/unMiracle/test.sol\":997:1074  function votingDelay() public pure returns(uint256) {... */\n      swap1\n      jump\t// out\n        /* \".workspaces/default_workspace/unMiracle/test.sol\":808:990  function abiDecode(bytes memory data) public returns(uint _str1, uint _number, uint _str2) {... */\n    tag_26:\n        /* \".workspaces/default_workspace/unMiracle/test.sol\":861:871  uint _str1 */\n      0x00\n        /* \".workspaces/default_workspace/unMiracle/test.sol\":873:885  uint _number */\n      dup1\n        /* \".workspaces/default_workspace/unMiracle/test.sol\":887:897  uint _str2 */\n      0x00\n        /* \".workspaces/default_workspace/unMiracle/test.sol\":946:950  data */\n      dup4\n        /* \".workspaces/default_workspace/unMiracle/test.sol\":935:971  abi.decode(data, (uint, uint, uint)) */\n      dup1\n      0x20\n      add\n      swap1\n      mload\n      dup2\n      add\n      swap1\n      tag_52\n      swap2\n      swap1\n      tag_53\n      jump\t// in\n    tag_52:\n        /* \".workspaces/default_workspace/unMiracle/test.sol\":909:971  (_str1, _number, _str2) = abi.decode(data, (uint, uint, uint)) */\n      dup1\n      swap4\n      pop\n      dup2\n      swap5\n      pop\n      dup3\n      swap6\n      pop\n      pop\n      pop\n      pop\n        /* \".workspaces/default_workspace/unMiracle/test.sol\":808:990  function abiDecode(bytes memory data) public returns(uint _str1, uint _number, uint _str2) {... */\n      swap2\n      swap4\n      swap1\n      swap3\n      pop\n      jump\t// out\n        /* \".workspaces/default_workspace/unMiracle/test.sol\":705:803  function abiEncode() public returns(bytes memory) {... */\n    tag_30:\n        /* \".workspaces/default_workspace/unMiracle/test.sol\":741:753  bytes memory */\n      0x60\n        /* \".workspaces/default_workspace/unMiracle/test.sol\":783:784  1 */\n      0x01\n        /* \".workspaces/default_workspace/unMiracle/test.sol\":785:790  45804 */\n      0xb2ec\n        /* \".workspaces/default_workspace/unMiracle/test.sol\":791:795  5000 */\n      0x1388\n        /* \".workspaces/default_workspace/unMiracle/test.sol\":772:796  abi.encode(1,45804,5000) */\n      add(0x20, mload(0x40))\n      tag_55\n      swap4\n      swap3\n      swap2\n      swap1\n      tag_56\n      jump\t// in\n    tag_55:\n      mload(0x40)\n      0x20\n      dup2\n      dup4\n      sub\n      sub\n      dup2\n      mstore\n      swap1\n      0x40\n      mstore\n        /* \".workspaces/default_workspace/unMiracle/test.sol\":765:796  return abi.encode(1,45804,5000) */\n      swap1\n      pop\n        /* \".workspaces/default_workspace/unMiracle/test.sol\":705:803  function abiEncode() public returns(bytes memory) {... */\n      swap1\n      jump\t// out\n        /* \".workspaces/default_workspace/unMiracle/test.sol\":435:699  function keccak256test() public returns(bytes memory) {... */\n    tag_34:\n        /* \".workspaces/default_workspace/unMiracle/test.sol\":475:487  bytes memory */\n      0x60\n        /* \".workspaces/default_workspace/unMiracle/test.sol\":679:680  1 */\n      0x01\n        /* \".workspaces/default_workspace/unMiracle/test.sol\":681:686  45804 */\n      0xb2ec\n        /* \".workspaces/default_workspace/unMiracle/test.sol\":687:691  5000 */\n      0x1388\n        /* \".workspaces/default_workspace/unMiracle/test.sol\":668:692  abi.encode(1,45804,5000) */\n      add(0x20, mload(0x40))\n      tag_58\n      swap4\n      swap3\n      swap2\n      swap1\n      tag_56\n      jump\t// in\n    tag_58:\n      mload(0x40)\n      0x20\n      dup2\n      dup4\n      sub\n      sub\n      dup2\n      mstore\n      swap1\n      0x40\n      mstore\n        /* \".workspaces/default_workspace/unMiracle/test.sol\":660:692  return  abi.encode(1,45804,5000) */\n      swap1\n      pop\n        /* \".workspaces/default_workspace/unMiracle/test.sol\":435:699  function keccak256test() public returns(bytes memory) {... */\n      swap1\n      jump\t// out\n        /* \".workspaces/default_workspace/unMiracle/test.sol\":1177:1330  function snapshot() public view returns(uint64) {... */\n    tag_37:\n        /* \".workspaces/default_workspace/unMiracle/test.sol\":1217:1223  uint64 */\n      0x00\n        /* \".workspaces/default_workspace/unMiracle/test.sol\":1235:1250  uint64 snapshot */\n      dup1\n        /* \".workspaces/default_workspace/unMiracle/test.sol\":1283:1296  votingDelay() */\n      tag_60\n        /* \".workspaces/default_workspace/unMiracle/test.sol\":1283:1294  votingDelay */\n      tag_21\n        /* \".workspaces/default_workspace/unMiracle/test.sol\":1283:1296  votingDelay() */\n      jump\t// in\n    tag_60:\n        /* \".workspaces/default_workspace/unMiracle/test.sol\":1260:1272  block.number */\n      number\n        /* \".workspaces/default_workspace/unMiracle/test.sol\":1253:1297  uint64(block.number) + uint64(votingDelay()) */\n      tag_61\n      swap2\n      swap1\n      tag_47\n      jump\t// in\n    tag_61:\n        /* \".workspaces/default_workspace/unMiracle/test.sol\":1235:1297  uint64 snapshot = uint64(block.number) + uint64(votingDelay()) */\n      swap1\n      pop\n        /* \".workspaces/default_workspace/unMiracle/test.sol\":1315:1323  snapshot */\n      dup1\n        /* \".workspaces/default_workspace/unMiracle/test.sol\":1308:1323  return snapshot */\n      swap2\n      pop\n      pop\n        /* \".workspaces/default_workspace/unMiracle/test.sol\":1177:1330  function snapshot() public view returns(uint64) {... */\n      swap1\n      jump\t// out\n        /* \".workspaces/default_workspace/unMiracle/test.sol\":304:429  function structTest() public returns(testS memory) {... */\n    tag_40:\n        /* \".workspaces/default_workspace/unMiracle/test.sol\":341:353  testS memory */\n      tag_62\n      tag_63\n      jump\t// in\n    tag_62:\n        /* \".workspaces/default_workspace/unMiracle/test.sol\":365:380  testS storage t */\n      0x00\n        /* \".workspaces/default_workspace/unMiracle/test.sol\":383:389  _testS */\n      dup1\n        /* \".workspaces/default_workspace/unMiracle/test.sol\":383:394  _testS[123] */\n      0x00\n        /* \".workspaces/default_workspace/unMiracle/test.sol\":390:393  123 */\n      0x7b\n        /* \".workspaces/default_workspace/unMiracle/test.sol\":383:394  _testS[123] */\n      dup2\n      mstore\n      0x20\n      add\n      swap1\n      dup2\n      mstore\n      0x20\n      add\n      0x00\n      keccak256\n        /* \".workspaces/default_workspace/unMiracle/test.sol\":365:394  testS storage t = _testS[123] */\n      swap1\n      pop\n        /* \".workspaces/default_workspace/unMiracle/test.sol\":411:417  _testS */\n      0x00\n        /* \".workspaces/default_workspace/unMiracle/test.sol\":411:422  _testS[123] */\n      dup1\n        /* \".workspaces/default_workspace/unMiracle/test.sol\":418:421  123 */\n      0x7b\n        /* \".workspaces/default_workspace/unMiracle/test.sol\":411:422  _testS[123] */\n      dup2\n      mstore\n      0x20\n      add\n      swap1\n      dup2\n      mstore\n      0x20\n      add\n      0x00\n      keccak256\n        /* \".workspaces/default_workspace/unMiracle/test.sol\":404:422  return _testS[123] */\n      mload(0x40)\n      dup1\n      0x40\n      add\n      0x40\n      mstore\n      swap1\n      dup2\n      0x00\n      dup3\n      add\n      dup1\n      sload\n      tag_65\n      swap1\n      tag_66\n      jump\t// in\n    tag_65:\n      dup1\n      0x1f\n      add\n      0x20\n      dup1\n      swap2\n      div\n      mul\n      0x20\n      add\n      mload(0x40)\n      swap1\n      dup2\n      add\n      0x40\n      mstore\n      dup1\n      swap3\n      swap2\n      swap1\n      dup2\n      dup2\n      mstore\n      0x20\n      add\n      dup3\n      dup1\n      sload\n      tag_67\n      swap1\n      tag_66\n      jump\t// in\n    tag_67:\n      dup1\n      iszero\n      tag_68\n      jumpi\n      dup1\n      0x1f\n      lt\n      tag_69\n      jumpi\n      0x0100\n      dup1\n      dup4\n      sload\n      div\n      mul\n      dup4\n      mstore\n      swap2\n      0x20\n      add\n      swap2\n      jump(tag_68)\n    tag_69:\n      dup3\n      add\n      swap2\n      swap1\n      0x00\n      mstore\n      keccak256(0x00, 0x20)\n      swap1\n    tag_70:\n      dup2\n      sload\n      dup2\n      mstore\n      swap1\n      0x01\n      add\n      swap1\n      0x20\n      add\n      dup1\n      dup4\n      gt\n      tag_70\n      jumpi\n      dup3\n      swap1\n      sub\n      0x1f\n      and\n      dup3\n      add\n      swap2\n    tag_68:\n      pop\n      pop\n      pop\n      pop\n      pop\n      dup2\n      mstore\n      0x20\n      add\n      0x01\n      dup3\n      add\n      sload\n      dup2\n      mstore\n      pop\n      pop\n      swap2\n      pop\n      pop\n        /* \".workspaces/default_workspace/unMiracle/test.sol\":304:429  function structTest() public returns(testS memory) {... */\n      swap1\n      jump\t// out\n    tag_63:\n      mload(0x40)\n      dup1\n      0x40\n      add\n      0x40\n      mstore\n      dup1\n      0x60\n      dup2\n      mstore\n      0x20\n      add\n      0x00\n      dup2\n      mstore\n      pop\n      swap1\n      jump\t// out\n        /* \"#utility.yul\":7:350   */\n    tag_72:\n        /* \"#utility.yul\":84:89   */\n      0x00\n        /* \"#utility.yul\":109:174   */\n      tag_74\n        /* \"#utility.yul\":125:173   */\n      tag_75\n        /* \"#utility.yul\":166:172   */\n      dup5\n        /* \"#utility.yul\":125:173   */\n      tag_76\n      jump\t// in\n    tag_75:\n        /* \"#utility.yul\":109:174   */\n      tag_77\n      jump\t// in\n    tag_74:\n        /* \"#utility.yul\":100:174   */\n      swap1\n      pop\n        /* \"#utility.yul\":197:203   */\n      dup3\n        /* \"#utility.yul\":190:195   */\n      dup2\n        /* \"#utility.yul\":183:204   */\n      mstore\n        /* \"#utility.yul\":235:239   */\n      0x20\n        /* \"#utility.yul\":228:233   */\n      dup2\n        /* \"#utility.yul\":224:240   */\n      add\n        /* \"#utility.yul\":273:276   */\n      dup5\n        /* \"#utility.yul\":264:270   */\n      dup5\n        /* \"#utility.yul\":259:262   */\n      dup5\n        /* \"#utility.yul\":255:271   */\n      add\n        /* \"#utility.yul\":252:277   */\n      gt\n        /* \"#utility.yul\":249:251   */\n      iszero\n      tag_78\n      jumpi\n        /* \"#utility.yul\":290:291   */\n      0x00\n        /* \"#utility.yul\":287:288   */\n      dup1\n        /* \"#utility.yul\":280:292   */\n      revert\n        /* \"#utility.yul\":249:251   */\n    tag_78:\n        /* \"#utility.yul\":303:344   */\n      tag_79\n        /* \"#utility.yul\":337:343   */\n      dup5\n        /* \"#utility.yul\":332:335   */\n      dup3\n        /* \"#utility.yul\":327:330   */\n      dup6\n        /* \"#utility.yul\":303:344   */\n      tag_80\n      jump\t// in\n    tag_79:\n        /* \"#utility.yul\":90:350   */\n      pop\n      swap4\n      swap3\n      pop\n      pop\n      pop\n      jump\t// out\n        /* \"#utility.yul\":369:640   */\n    tag_81:\n        /* \"#utility.yul\":424:429   */\n      0x00\n        /* \"#utility.yul\":473:476   */\n      dup3\n        /* \"#utility.yul\":466:470   */\n      0x1f\n        /* \"#utility.yul\":458:464   */\n      dup4\n        /* \"#utility.yul\":454:471   */\n      add\n        /* \"#utility.yul\":450:477   */\n      slt\n        /* \"#utility.yul\":440:442   */\n      tag_83\n      jumpi\n        /* \"#utility.yul\":491:492   */\n      0x00\n        /* \"#utility.yul\":488:489   */\n      dup1\n        /* \"#utility.yul\":481:493   */\n      revert\n        /* \"#utility.yul\":440:442   */\n    tag_83:\n        /* \"#utility.yul\":531:537   */\n      dup2\n        /* \"#utility.yul\":518:538   */\n      calldataload\n        /* \"#utility.yul\":556:634   */\n      tag_84\n        /* \"#utility.yul\":630:633   */\n      dup5\n        /* \"#utility.yul\":622:628   */\n      dup3\n        /* \"#utility.yul\":615:619   */\n      0x20\n        /* \"#utility.yul\":607:613   */\n      dup7\n        /* \"#utility.yul\":603:620   */\n      add\n        /* \"#utility.yul\":556:634   */\n      tag_72\n      jump\t// in\n    tag_84:\n        /* \"#utility.yul\":547:634   */\n      swap2\n      pop\n        /* \"#utility.yul\":430:640   */\n      pop\n      swap3\n      swap2\n      pop\n      pop\n      jump\t// out\n        /* \"#utility.yul\":646:789   */\n    tag_85:\n        /* \"#utility.yul\":703:708   */\n      0x00\n        /* \"#utility.yul\":734:740   */\n      dup2\n        /* \"#utility.yul\":728:741   */\n      mload\n        /* \"#utility.yul\":719:741   */\n      swap1\n      pop\n        /* \"#utility.yul\":750:783   */\n      tag_87\n        /* \"#utility.yul\":777:782   */\n      dup2\n        /* \"#utility.yul\":750:783   */\n      tag_88\n      jump\t// in\n    tag_87:\n        /* \"#utility.yul\":709:789   */\n      swap3\n      swap2\n      pop\n      pop\n      jump\t// out\n        /* \"#utility.yul\":795:1168   */\n    tag_25:\n        /* \"#utility.yul\":863:869   */\n      0x00\n        /* \"#utility.yul\":912:914   */\n      0x20\n        /* \"#utility.yul\":900:909   */\n      dup3\n        /* \"#utility.yul\":891:898   */\n      dup5\n        /* \"#utility.yul\":887:910   */\n      sub\n        /* \"#utility.yul\":883:915   */\n      slt\n        /* \"#utility.yul\":880:882   */\n      iszero\n      tag_90\n      jumpi\n        /* \"#utility.yul\":928:929   */\n      0x00\n        /* \"#utility.yul\":925:926   */\n      dup1\n        /* \"#utility.yul\":918:930   */\n      revert\n        /* \"#utility.yul\":880:882   */\n    tag_90:\n        /* \"#utility.yul\":999:1000   */\n      0x00\n        /* \"#utility.yul\":988:997   */\n      dup3\n        /* \"#utility.yul\":984:1001   */\n      add\n        /* \"#utility.yul\":971:1002   */\n      calldataload\n        /* \"#utility.yul\":1029:1047   */\n      0xffffffffffffffff\n        /* \"#utility.yul\":1021:1027   */\n      dup2\n        /* \"#utility.yul\":1018:1048   */\n      gt\n        /* \"#utility.yul\":1015:1017   */\n      iszero\n      tag_91\n      jumpi\n        /* \"#utility.yul\":1061:1062   */\n      0x00\n        /* \"#utility.yul\":1058:1059   */\n      dup1\n        /* \"#utility.yul\":1051:1063   */\n      revert\n        /* \"#utility.yul\":1015:1017   */\n    tag_91:\n        /* \"#utility.yul\":1089:1151   */\n      tag_92\n        /* \"#utility.yul\":1143:1150   */\n      dup5\n        /* \"#utility.yul\":1134:1140   */\n      dup3\n        /* \"#utility.yul\":1123:1132   */\n      dup6\n        /* \"#utility.yul\":1119:1141   */\n      add\n        /* \"#utility.yul\":1089:1151   */\n      tag_81\n      jump\t// in\n    tag_92:\n        /* \"#utility.yul\":1079:1151   */\n      swap2\n      pop\n        /* \"#utility.yul\":942:1161   */\n      pop\n        /* \"#utility.yul\":870:1168   */\n      swap3\n      swap2\n      pop\n      pop\n      jump\t// out\n        /* \"#utility.yul\":1174:1770   */\n    tag_53:\n        /* \"#utility.yul\":1262:1268   */\n      0x00\n        /* \"#utility.yul\":1270:1276   */\n      dup1\n        /* \"#utility.yul\":1278:1284   */\n      0x00\n        /* \"#utility.yul\":1327:1329   */\n      0x60\n        /* \"#utility.yul\":1315:1324   */\n      dup5\n        /* \"#utility.yul\":1306:1313   */\n      dup7\n        /* \"#utility.yul\":1302:1325   */\n      sub\n        /* \"#utility.yul\":1298:1330   */\n      slt\n        /* \"#utility.yul\":1295:1297   */\n      iszero\n      tag_94\n      jumpi\n        /* \"#utility.yul\":1343:1344   */\n      0x00\n        /* \"#utility.yul\":1340:1341   */\n      dup1\n        /* \"#utility.yul\":1333:1345   */\n      revert\n        /* \"#utility.yul\":1295:1297   */\n    tag_94:\n        /* \"#utility.yul\":1386:1387   */\n      0x00\n        /* \"#utility.yul\":1411:1475   */\n      tag_95\n        /* \"#utility.yul\":1467:1474   */\n      dup7\n        /* \"#utility.yul\":1458:1464   */\n      dup3\n        /* \"#utility.yul\":1447:1456   */\n      dup8\n        /* \"#utility.yul\":1443:1465   */\n      add\n        /* \"#utility.yul\":1411:1475   */\n      tag_85\n      jump\t// in\n    tag_95:\n        /* \"#utility.yul\":1401:1475   */\n      swap4\n      pop\n        /* \"#utility.yul\":1357:1485   */\n      pop\n        /* \"#utility.yul\":1524:1526   */\n      0x20\n        /* \"#utility.yul\":1550:1614   */\n      tag_96\n        /* \"#utility.yul\":1606:1613   */\n      dup7\n        /* \"#utility.yul\":1597:1603   */\n      dup3\n        /* \"#utility.yul\":1586:1595   */\n      dup8\n        /* \"#utility.yul\":1582:1604   */\n      add\n        /* \"#utility.yul\":1550:1614   */\n      tag_85\n      jump\t// in\n    tag_96:\n        /* \"#utility.yul\":1540:1614   */\n      swap3\n      pop\n        /* \"#utility.yul\":1495:1624   */\n      pop\n        /* \"#utility.yul\":1663:1665   */\n      0x40\n        /* \"#utility.yul\":1689:1753   */\n      tag_97\n        /* \"#utility.yul\":1745:1752   */\n      dup7\n        /* \"#utility.yul\":1736:1742   */\n      dup3\n        /* \"#utility.yul\":1725:1734   */\n      dup8\n        /* \"#utility.yul\":1721:1743   */\n      add\n        /* \"#utility.yul\":1689:1753   */\n      tag_85\n      jump\t// in\n    tag_97:\n        /* \"#utility.yul\":1679:1753   */\n      swap2\n      pop\n        /* \"#utility.yul\":1634:1763   */\n      pop\n        /* \"#utility.yul\":1285:1770   */\n      swap3\n      pop\n      swap3\n      pop\n      swap3\n      jump\t// out\n        /* \"#utility.yul\":1776:2136   */\n    tag_98:\n        /* \"#utility.yul\":1862:1865   */\n      0x00\n        /* \"#utility.yul\":1890:1928   */\n      tag_100\n        /* \"#utility.yul\":1922:1927   */\n      dup3\n        /* \"#utility.yul\":1890:1928   */\n      tag_101\n      jump\t// in\n    tag_100:\n        /* \"#utility.yul\":1944:2014   */\n      tag_102\n        /* \"#utility.yul\":2007:2013   */\n      dup2\n        /* \"#utility.yul\":2002:2005   */\n      dup6\n        /* \"#utility.yul\":1944:2014   */\n      tag_103\n      jump\t// in\n    tag_102:\n        /* \"#utility.yul\":1937:2014   */\n      swap4\n      pop\n        /* \"#utility.yul\":2023:2075   */\n      tag_104\n        /* \"#utility.yul\":2068:2074   */\n      dup2\n        /* \"#utility.yul\":2063:2066   */\n      dup6\n        /* \"#utility.yul\":2056:2060   */\n      0x20\n        /* \"#utility.yul\":2049:2054   */\n      dup7\n        /* \"#utility.yul\":2045:2061   */\n      add\n        /* \"#utility.yul\":2023:2075   */\n      tag_105\n      jump\t// in\n    tag_104:\n        /* \"#utility.yul\":2100:2129   */\n      tag_106\n        /* \"#utility.yul\":2122:2128   */\n      dup2\n        /* \"#utility.yul\":2100:2129   */\n      tag_107\n      jump\t// in\n    tag_106:\n        /* \"#utility.yul\":2095:2098   */\n      dup5\n        /* \"#utility.yul\":2091:2130   */\n      add\n        /* \"#utility.yul\":2084:2130   */\n      swap2\n      pop\n        /* \"#utility.yul\":1866:2136   */\n      pop\n      swap3\n      swap2\n      pop\n      pop\n      jump\t// out\n        /* \"#utility.yul\":2142:2285   */\n    tag_108:\n        /* \"#utility.yul\":2235:2278   */\n      tag_110\n        /* \"#utility.yul\":2272:2277   */\n      dup2\n        /* \"#utility.yul\":2235:2278   */\n      tag_111\n      jump\t// in\n    tag_110:\n        /* \"#utility.yul\":2230:2233   */\n      dup3\n        /* \"#utility.yul\":2223:2279   */\n      mstore\n        /* \"#utility.yul\":2213:2285   */\n      pop\n      pop\n      jump\t// out\n        /* \"#utility.yul\":2291:2444   */\n    tag_112:\n        /* \"#utility.yul\":2389:2437   */\n      tag_114\n        /* \"#utility.yul\":2431:2436   */\n      dup2\n        /* \"#utility.yul\":2389:2437   */\n      tag_115\n      jump\t// in\n    tag_114:\n        /* \"#utility.yul\":2384:2387   */\n      dup3\n        /* \"#utility.yul\":2377:2438   */\n      mstore\n        /* \"#utility.yul\":2367:2444   */\n      pop\n      pop\n      jump\t// out\n        /* \"#utility.yul\":2450:2601   */\n    tag_116:\n        /* \"#utility.yul\":2547:2594   */\n      tag_118\n        /* \"#utility.yul\":2588:2593   */\n      dup2\n        /* \"#utility.yul\":2547:2594   */\n      tag_119\n      jump\t// in\n    tag_118:\n        /* \"#utility.yul\":2542:2545   */\n      dup3\n        /* \"#utility.yul\":2535:2595   */\n      mstore\n        /* \"#utility.yul\":2525:2601   */\n      pop\n      pop\n      jump\t// out\n        /* \"#utility.yul\":2607:2951   */\n    tag_120:\n        /* \"#utility.yul\":2685:2688   */\n      0x00\n        /* \"#utility.yul\":2713:2752   */\n      tag_122\n        /* \"#utility.yul\":2746:2751   */\n      dup3\n        /* \"#utility.yul\":2713:2752   */\n      tag_123\n      jump\t// in\n    tag_122:\n        /* \"#utility.yul\":2768:2829   */\n      tag_124\n        /* \"#utility.yul\":2822:2828   */\n      dup2\n        /* \"#utility.yul\":2817:2820   */\n      dup6\n        /* \"#utility.yul\":2768:2829   */\n      tag_125\n      jump\t// in\n    tag_124:\n        /* \"#utility.yul\":2761:2829   */\n      swap4\n      pop\n        /* \"#utility.yul\":2838:2890   */\n      tag_126\n        /* \"#utility.yul\":2883:2889   */\n      dup2\n        /* \"#utility.yul\":2878:2881   */\n      dup6\n        /* \"#utility.yul\":2871:2875   */\n      0x20\n        /* \"#utility.yul\":2864:2869   */\n      dup7\n        /* \"#utility.yul\":2860:2876   */\n      add\n        /* \"#utility.yul\":2838:2890   */\n      tag_105\n      jump\t// in\n    tag_126:\n        /* \"#utility.yul\":2915:2944   */\n      tag_127\n        /* \"#utility.yul\":2937:2943   */\n      dup2\n        /* \"#utility.yul\":2915:2944   */\n      tag_107\n      jump\t// in\n    tag_127:\n        /* \"#utility.yul\":2910:2913   */\n      dup5\n        /* \"#utility.yul\":2906:2945   */\n      add\n        /* \"#utility.yul\":2899:2945   */\n      swap2\n      pop\n        /* \"#utility.yul\":2689:2951   */\n      pop\n      swap3\n      swap2\n      pop\n      pop\n      jump\t// out\n        /* \"#utility.yul\":3003:3598   */\n    tag_128:\n        /* \"#utility.yul\":3112:3115   */\n      0x00\n        /* \"#utility.yul\":3148:3152   */\n      0x40\n        /* \"#utility.yul\":3143:3146   */\n      dup4\n        /* \"#utility.yul\":3139:3153   */\n      add\n        /* \"#utility.yul\":3235:3239   */\n      0x00\n        /* \"#utility.yul\":3228:3233   */\n      dup4\n        /* \"#utility.yul\":3224:3240   */\n      add\n        /* \"#utility.yul\":3218:3241   */\n      mload\n        /* \"#utility.yul\":3288:3291   */\n      dup5\n        /* \"#utility.yul\":3282:3286   */\n      dup3\n        /* \"#utility.yul\":3278:3292   */\n      sub\n        /* \"#utility.yul\":3271:3275   */\n      0x00\n        /* \"#utility.yul\":3266:3269   */\n      dup7\n        /* \"#utility.yul\":3262:3276   */\n      add\n        /* \"#utility.yul\":3255:3293   */\n      mstore\n        /* \"#utility.yul\":3314:3387   */\n      tag_130\n        /* \"#utility.yul\":3382:3386   */\n      dup3\n        /* \"#utility.yul\":3368:3380   */\n      dup3\n        /* \"#utility.yul\":3314:3387   */\n      tag_120\n      jump\t// in\n    tag_130:\n        /* \"#utility.yul\":3306:3387   */\n      swap2\n      pop\n        /* \"#utility.yul\":3163:3398   */\n      pop\n        /* \"#utility.yul\":3479:3483   */\n      0x20\n        /* \"#utility.yul\":3472:3477   */\n      dup4\n        /* \"#utility.yul\":3468:3484   */\n      add\n        /* \"#utility.yul\":3462:3485   */\n      mload\n        /* \"#utility.yul\":3498:3561   */\n      tag_131\n        /* \"#utility.yul\":3555:3559   */\n      0x20\n        /* \"#utility.yul\":3550:3553   */\n      dup7\n        /* \"#utility.yul\":3546:3560   */\n      add\n        /* \"#utility.yul\":3532:3544   */\n      dup3\n        /* \"#utility.yul\":3498:3561   */\n      tag_132\n      jump\t// in\n    tag_131:\n        /* \"#utility.yul\":3408:3571   */\n      pop\n        /* \"#utility.yul\":3588:3592   */\n      dup1\n        /* \"#utility.yul\":3581:3592   */\n      swap2\n      pop\n        /* \"#utility.yul\":3117:3598   */\n      pop\n      swap3\n      swap2\n      pop\n      pop\n      jump\t// out\n        /* \"#utility.yul\":3604:3712   */\n    tag_132:\n        /* \"#utility.yul\":3681:3705   */\n      tag_134\n        /* \"#utility.yul\":3699:3704   */\n      dup2\n        /* \"#utility.yul\":3681:3705   */\n      tag_135\n      jump\t// in\n    tag_134:\n        /* \"#utility.yul\":3676:3679   */\n      dup3\n        /* \"#utility.yul\":3669:3706   */\n      mstore\n        /* \"#utility.yul\":3659:3712   */\n      pop\n      pop\n      jump\t// out\n        /* \"#utility.yul\":3718:3836   */\n    tag_136:\n        /* \"#utility.yul\":3805:3829   */\n      tag_138\n        /* \"#utility.yul\":3823:3828   */\n      dup2\n        /* \"#utility.yul\":3805:3829   */\n      tag_135\n      jump\t// in\n    tag_138:\n        /* \"#utility.yul\":3800:3803   */\n      dup3\n        /* \"#utility.yul\":3793:3830   */\n      mstore\n        /* \"#utility.yul\":3783:3836   */\n      pop\n      pop\n      jump\t// out\n        /* \"#utility.yul\":3842:3957   */\n    tag_139:\n        /* \"#utility.yul\":3927:3950   */\n      tag_141\n        /* \"#utility.yul\":3944:3949   */\n      dup2\n        /* \"#utility.yul\":3927:3950   */\n      tag_142\n      jump\t// in\n    tag_141:\n        /* \"#utility.yul\":3922:3925   */\n      dup3\n        /* \"#utility.yul\":3915:3951   */\n      mstore\n        /* \"#utility.yul\":3905:3957   */\n      pop\n      pop\n      jump\t// out\n        /* \"#utility.yul\":3963:4272   */\n    tag_32:\n        /* \"#utility.yul\":4074:4078   */\n      0x00\n        /* \"#utility.yul\":4112:4114   */\n      0x20\n        /* \"#utility.yul\":4101:4110   */\n      dup3\n        /* \"#utility.yul\":4097:4115   */\n      add\n        /* \"#utility.yul\":4089:4115   */\n      swap1\n      pop\n        /* \"#utility.yul\":4161:4170   */\n      dup2\n        /* \"#utility.yul\":4155:4159   */\n      dup2\n        /* \"#utility.yul\":4151:4171   */\n      sub\n        /* \"#utility.yul\":4147:4148   */\n      0x00\n        /* \"#utility.yul\":4136:4145   */\n      dup4\n        /* \"#utility.yul\":4132:4149   */\n      add\n        /* \"#utility.yul\":4125:4172   */\n      mstore\n        /* \"#utility.yul\":4189:4265   */\n      tag_144\n        /* \"#utility.yul\":4260:4264   */\n      dup2\n        /* \"#utility.yul\":4251:4257   */\n      dup5\n        /* \"#utility.yul\":4189:4265   */\n      tag_98\n      jump\t// in\n    tag_144:\n        /* \"#utility.yul\":4181:4265   */\n      swap1\n      pop\n        /* \"#utility.yul\":4079:4272   */\n      swap3\n      swap2\n      pop\n      pop\n      jump\t// out\n        /* \"#utility.yul\":4278:4774   */\n    tag_56:\n        /* \"#utility.yul\":4454:4458   */\n      0x00\n        /* \"#utility.yul\":4492:4494   */\n      0x60\n        /* \"#utility.yul\":4481:4490   */\n      dup3\n        /* \"#utility.yul\":4477:4495   */\n      add\n        /* \"#utility.yul\":4469:4495   */\n      swap1\n      pop\n        /* \"#utility.yul\":4505:4582   */\n      tag_146\n        /* \"#utility.yul\":4579:4580   */\n      0x00\n        /* \"#utility.yul\":4568:4577   */\n      dup4\n        /* \"#utility.yul\":4564:4581   */\n      add\n        /* \"#utility.yul\":4555:4561   */\n      dup7\n        /* \"#utility.yul\":4505:4582   */\n      tag_108\n      jump\t// in\n    tag_146:\n        /* \"#utility.yul\":4592:4675   */\n      tag_147\n        /* \"#utility.yul\":4671:4673   */\n      0x20\n        /* \"#utility.yul\":4660:4669   */\n      dup4\n        /* \"#utility.yul\":4656:4674   */\n      add\n        /* \"#utility.yul\":4647:4653   */\n      dup6\n        /* \"#utility.yul\":4592:4675   */\n      tag_112\n      jump\t// in\n    tag_147:\n        /* \"#utility.yul\":4685:4767   */\n      tag_148\n        /* \"#utility.yul\":4763:4765   */\n      0x40\n        /* \"#utility.yul\":4752:4761   */\n      dup4\n        /* \"#utility.yul\":4748:4766   */\n      add\n        /* \"#utility.yul\":4739:4745   */\n      dup5\n        /* \"#utility.yul\":4685:4767   */\n      tag_116\n      jump\t// in\n    tag_148:\n        /* \"#utility.yul\":4459:4774   */\n      swap5\n      swap4\n      pop\n      pop\n      pop\n      pop\n      jump\t// out\n        /* \"#utility.yul\":4780:5133   */\n    tag_42:\n        /* \"#utility.yul\":4913:4917   */\n      0x00\n        /* \"#utility.yul\":4951:4953   */\n      0x20\n        /* \"#utility.yul\":4940:4949   */\n      dup3\n        /* \"#utility.yul\":4936:4954   */\n      add\n        /* \"#utility.yul\":4928:4954   */\n      swap1\n      pop\n        /* \"#utility.yul\":5000:5009   */\n      dup2\n        /* \"#utility.yul\":4994:4998   */\n      dup2\n        /* \"#utility.yul\":4990:5010   */\n      sub\n        /* \"#utility.yul\":4986:4987   */\n      0x00\n        /* \"#utility.yul\":4975:4984   */\n      dup4\n        /* \"#utility.yul\":4971:4988   */\n      add\n        /* \"#utility.yul\":4964:5011   */\n      mstore\n        /* \"#utility.yul\":5028:5126   */\n      tag_150\n        /* \"#utility.yul\":5121:5125   */\n      dup2\n        /* \"#utility.yul\":5112:5118   */\n      dup5\n        /* \"#utility.yul\":5028:5126   */\n      tag_128\n      jump\t// in\n    tag_150:\n        /* \"#utility.yul\":5020:5126   */\n      swap1\n      pop\n        /* \"#utility.yul\":4918:5133   */\n      swap3\n      swap2\n      pop\n      pop\n      jump\t// out\n        /* \"#utility.yul\":5139:5361   */\n    tag_15:\n        /* \"#utility.yul\":5232:5236   */\n      0x00\n        /* \"#utility.yul\":5270:5272   */\n      0x20\n        /* \"#utility.yul\":5259:5268   */\n      dup3\n        /* \"#utility.yul\":5255:5273   */\n      add\n        /* \"#utility.yul\":5247:5273   */\n      swap1\n      pop\n        /* \"#utility.yul\":5283:5354   */\n      tag_152\n        /* \"#utility.yul\":5351:5352   */\n      0x00\n        /* \"#utility.yul\":5340:5349   */\n      dup4\n        /* \"#utility.yul\":5336:5353   */\n      add\n        /* \"#utility.yul\":5327:5333   */\n      dup5\n        /* \"#utility.yul\":5283:5354   */\n      tag_136\n      jump\t// in\n    tag_152:\n        /* \"#utility.yul\":5237:5361   */\n      swap3\n      swap2\n      pop\n      pop\n      jump\t// out\n        /* \"#utility.yul\":5367:5809   */\n    tag_28:\n        /* \"#utility.yul\":5516:5520   */\n      0x00\n        /* \"#utility.yul\":5554:5556   */\n      0x60\n        /* \"#utility.yul\":5543:5552   */\n      dup3\n        /* \"#utility.yul\":5539:5557   */\n      add\n        /* \"#utility.yul\":5531:5557   */\n      swap1\n      pop\n        /* \"#utility.yul\":5567:5638   */\n      tag_154\n        /* \"#utility.yul\":5635:5636   */\n      0x00\n        /* \"#utility.yul\":5624:5633   */\n      dup4\n        /* \"#utility.yul\":5620:5637   */\n      add\n        /* \"#utility.yul\":5611:5617   */\n      dup7\n        /* \"#utility.yul\":5567:5638   */\n      tag_136\n      jump\t// in\n    tag_154:\n        /* \"#utility.yul\":5648:5720   */\n      tag_155\n        /* \"#utility.yul\":5716:5718   */\n      0x20\n        /* \"#utility.yul\":5705:5714   */\n      dup4\n        /* \"#utility.yul\":5701:5719   */\n      add\n        /* \"#utility.yul\":5692:5698   */\n      dup6\n        /* \"#utility.yul\":5648:5720   */\n      tag_136\n      jump\t// in\n    tag_155:\n        /* \"#utility.yul\":5730:5802   */\n      tag_156\n        /* \"#utility.yul\":5798:5800   */\n      0x40\n        /* \"#utility.yul\":5787:5796   */\n      dup4\n        /* \"#utility.yul\":5783:5801   */\n      add\n        /* \"#utility.yul\":5774:5780   */\n      dup5\n        /* \"#utility.yul\":5730:5802   */\n      tag_136\n      jump\t// in\n    tag_156:\n        /* \"#utility.yul\":5521:5809   */\n      swap5\n      swap4\n      pop\n      pop\n      pop\n      pop\n      jump\t// out\n        /* \"#utility.yul\":5815:6033   */\n    tag_19:\n        /* \"#utility.yul\":5906:5910   */\n      0x00\n        /* \"#utility.yul\":5944:5946   */\n      0x20\n        /* \"#utility.yul\":5933:5942   */\n      dup3\n        /* \"#utility.yul\":5929:5947   */\n      add\n        /* \"#utility.yul\":5921:5947   */\n      swap1\n      pop\n        /* \"#utility.yul\":5957:6026   */\n      tag_158\n        /* \"#utility.yul\":6023:6024   */\n      0x00\n        /* \"#utility.yul\":6012:6021   */\n      dup4\n        /* \"#utility.yul\":6008:6025   */\n      add\n        /* \"#utility.yul\":5999:6005   */\n      dup5\n        /* \"#utility.yul\":5957:6026   */\n      tag_139\n      jump\t// in\n    tag_158:\n        /* \"#utility.yul\":5911:6033   */\n      swap3\n      swap2\n      pop\n      pop\n      jump\t// out\n        /* \"#utility.yul\":6039:6168   */\n    tag_77:\n        /* \"#utility.yul\":6073:6079   */\n      0x00\n        /* \"#utility.yul\":6100:6120   */\n      tag_160\n      tag_161\n      jump\t// in\n    tag_160:\n        /* \"#utility.yul\":6090:6120   */\n      swap1\n      pop\n        /* \"#utility.yul\":6129:6162   */\n      tag_162\n        /* \"#utility.yul\":6157:6161   */\n      dup3\n        /* \"#utility.yul\":6149:6155   */\n      dup3\n        /* \"#utility.yul\":6129:6162   */\n      tag_163\n      jump\t// in\n    tag_162:\n        /* \"#utility.yul\":6080:6168   */\n      swap2\n      swap1\n      pop\n      jump\t// out\n        /* \"#utility.yul\":6174:6249   */\n    tag_161:\n        /* \"#utility.yul\":6207:6213   */\n      0x00\n        /* \"#utility.yul\":6240:6242   */\n      0x40\n        /* \"#utility.yul\":6234:6243   */\n      mload\n        /* \"#utility.yul\":6224:6243   */\n      swap1\n      pop\n        /* \"#utility.yul\":6214:6249   */\n      swap1\n      jump\t// out\n        /* \"#utility.yul\":6255:6562   */\n    tag_76:\n        /* \"#utility.yul\":6316:6320   */\n      0x00\n        /* \"#utility.yul\":6406:6424   */\n      0xffffffffffffffff\n        /* \"#utility.yul\":6398:6404   */\n      dup3\n        /* \"#utility.yul\":6395:6425   */\n      gt\n        /* \"#utility.yul\":6392:6394   */\n      iszero\n      tag_166\n      jumpi\n        /* \"#utility.yul\":6428:6446   */\n      tag_167\n      tag_168\n      jump\t// in\n    tag_167:\n        /* \"#utility.yul\":6392:6394   */\n    tag_166:\n        /* \"#utility.yul\":6466:6495   */\n      tag_169\n        /* \"#utility.yul\":6488:6494   */\n      dup3\n        /* \"#utility.yul\":6466:6495   */\n      tag_107\n      jump\t// in\n    tag_169:\n        /* \"#utility.yul\":6458:6495   */\n      swap1\n      pop\n        /* \"#utility.yul\":6550:6554   */\n      0x20\n        /* \"#utility.yul\":6544:6548   */\n      dup2\n        /* \"#utility.yul\":6540:6555   */\n      add\n        /* \"#utility.yul\":6532:6555   */\n      swap1\n      pop\n        /* \"#utility.yul\":6321:6562   */\n      swap2\n      swap1\n      pop\n      jump\t// out\n        /* \"#utility.yul\":6568:6666   */\n    tag_101:\n        /* \"#utility.yul\":6619:6625   */\n      0x00\n        /* \"#utility.yul\":6653:6658   */\n      dup2\n        /* \"#utility.yul\":6647:6659   */\n      mload\n        /* \"#utility.yul\":6637:6659   */\n      swap1\n      pop\n        /* \"#utility.yul\":6626:6666   */\n      swap2\n      swap1\n      pop\n      jump\t// out\n        /* \"#utility.yul\":6672:6771   */\n    tag_123:\n        /* \"#utility.yul\":6724:6730   */\n      0x00\n        /* \"#utility.yul\":6758:6763   */\n      dup2\n        /* \"#utility.yul\":6752:6764   */\n      mload\n        /* \"#utility.yul\":6742:6764   */\n      swap1\n      pop\n        /* \"#utility.yul\":6731:6771   */\n      swap2\n      swap1\n      pop\n      jump\t// out\n        /* \"#utility.yul\":6777:6945   */\n    tag_103:\n        /* \"#utility.yul\":6860:6871   */\n      0x00\n        /* \"#utility.yul\":6894:6900   */\n      dup3\n        /* \"#utility.yul\":6889:6892   */\n      dup3\n        /* \"#utility.yul\":6882:6901   */\n      mstore\n        /* \"#utility.yul\":6934:6938   */\n      0x20\n        /* \"#utility.yul\":6929:6932   */\n      dup3\n        /* \"#utility.yul\":6925:6939   */\n      add\n        /* \"#utility.yul\":6910:6939   */\n      swap1\n      pop\n        /* \"#utility.yul\":6872:6945   */\n      swap3\n      swap2\n      pop\n      pop\n      jump\t// out\n        /* \"#utility.yul\":6951:7110   */\n    tag_125:\n        /* \"#utility.yul\":7025:7036   */\n      0x00\n        /* \"#utility.yul\":7059:7065   */\n      dup3\n        /* \"#utility.yul\":7054:7057   */\n      dup3\n        /* \"#utility.yul\":7047:7066   */\n      mstore\n        /* \"#utility.yul\":7099:7103   */\n      0x20\n        /* \"#utility.yul\":7094:7097   */\n      dup3\n        /* \"#utility.yul\":7090:7104   */\n      add\n        /* \"#utility.yul\":7075:7104   */\n      swap1\n      pop\n        /* \"#utility.yul\":7037:7110   */\n      swap3\n      swap2\n      pop\n      pop\n      jump\t// out\n        /* \"#utility.yul\":7116:7370   */\n    tag_47:\n        /* \"#utility.yul\":7155:7158   */\n      0x00\n        /* \"#utility.yul\":7174:7193   */\n      tag_175\n        /* \"#utility.yul\":7191:7192   */\n      dup3\n        /* \"#utility.yul\":7174:7193   */\n      tag_142\n      jump\t// in\n    tag_175:\n        /* \"#utility.yul\":7169:7193   */\n      swap2\n      pop\n        /* \"#utility.yul\":7207:7226   */\n      tag_176\n        /* \"#utility.yul\":7224:7225   */\n      dup4\n        /* \"#utility.yul\":7207:7226   */\n      tag_142\n      jump\t// in\n    tag_176:\n        /* \"#utility.yul\":7202:7226   */\n      swap3\n      pop\n        /* \"#utility.yul\":7312:7313   */\n      dup3\n        /* \"#utility.yul\":7292:7310   */\n      0xffffffffffffffff\n        /* \"#utility.yul\":7288:7314   */\n      sub\n        /* \"#utility.yul\":7285:7286   */\n      dup3\n        /* \"#utility.yul\":7282:7315   */\n      gt\n        /* \"#utility.yul\":7279:7281   */\n      iszero\n      tag_177\n      jumpi\n        /* \"#utility.yul\":7318:7336   */\n      tag_178\n      tag_179\n      jump\t// in\n    tag_178:\n        /* \"#utility.yul\":7279:7281   */\n    tag_177:\n        /* \"#utility.yul\":7362:7363   */\n      dup3\n        /* \"#utility.yul\":7359:7360   */\n      dup3\n        /* \"#utility.yul\":7355:7364   */\n      add\n        /* \"#utility.yul\":7348:7364   */\n      swap1\n      pop\n        /* \"#utility.yul\":7159:7370   */\n      swap3\n      swap2\n      pop\n      pop\n      jump\t// out\n        /* \"#utility.yul\":7376:7465   */\n    tag_180:\n        /* \"#utility.yul\":7412:7419   */\n      0x00\n        /* \"#utility.yul\":7452:7458   */\n      0xffff\n        /* \"#utility.yul\":7445:7450   */\n      dup3\n        /* \"#utility.yul\":7441:7459   */\n      and\n        /* \"#utility.yul\":7430:7459   */\n      swap1\n      pop\n        /* \"#utility.yul\":7420:7465   */\n      swap2\n      swap1\n      pop\n      jump\t// out\n        /* \"#utility.yul\":7471:7548   */\n    tag_135:\n        /* \"#utility.yul\":7508:7515   */\n      0x00\n        /* \"#utility.yul\":7537:7542   */\n      dup2\n        /* \"#utility.yul\":7526:7542   */\n      swap1\n      pop\n        /* \"#utility.yul\":7516:7548   */\n      swap2\n      swap1\n      pop\n      jump\t// out\n        /* \"#utility.yul\":7554:7655   */\n    tag_142:\n        /* \"#utility.yul\":7590:7597   */\n      0x00\n        /* \"#utility.yul\":7630:7648   */\n      0xffffffffffffffff\n        /* \"#utility.yul\":7623:7628   */\n      dup3\n        /* \"#utility.yul\":7619:7649   */\n      and\n        /* \"#utility.yul\":7608:7649   */\n      swap1\n      pop\n        /* \"#utility.yul\":7598:7655   */\n      swap2\n      swap1\n      pop\n      jump\t// out\n        /* \"#utility.yul\":7661:7747   */\n    tag_184:\n        /* \"#utility.yul\":7696:7703   */\n      0x00\n        /* \"#utility.yul\":7736:7740   */\n      0xff\n        /* \"#utility.yul\":7729:7734   */\n      dup3\n        /* \"#utility.yul\":7725:7741   */\n      and\n        /* \"#utility.yul\":7714:7741   */\n      swap1\n      pop\n        /* \"#utility.yul\":7704:7747   */\n      swap2\n      swap1\n      pop\n      jump\t// out\n        /* \"#utility.yul\":7753:7870   */\n    tag_111:\n        /* \"#utility.yul\":7809:7818   */\n      0x00\n        /* \"#utility.yul\":7842:7864   */\n      tag_187\n        /* \"#utility.yul\":7858:7863   */\n      dup3\n        /* \"#utility.yul\":7842:7864   */\n      tag_184\n      jump\t// in\n    tag_187:\n        /* \"#utility.yul\":7829:7864   */\n      swap1\n      pop\n        /* \"#utility.yul\":7819:7870   */\n      swap2\n      swap1\n      pop\n      jump\t// out\n        /* \"#utility.yul\":7876:7999   */\n    tag_115:\n        /* \"#utility.yul\":7937:7946   */\n      0x00\n        /* \"#utility.yul\":7970:7993   */\n      tag_189\n        /* \"#utility.yul\":7987:7992   */\n      dup3\n        /* \"#utility.yul\":7970:7993   */\n      tag_180\n      jump\t// in\n    tag_189:\n        /* \"#utility.yul\":7957:7993   */\n      swap1\n      pop\n        /* \"#utility.yul\":7947:7999   */\n      swap2\n      swap1\n      pop\n      jump\t// out\n        /* \"#utility.yul\":8005:8127   */\n    tag_119:\n        /* \"#utility.yul\":8065:8074   */\n      0x00\n        /* \"#utility.yul\":8098:8121   */\n      tag_191\n        /* \"#utility.yul\":8115:8120   */\n      dup3\n        /* \"#utility.yul\":8098:8121   */\n      tag_180\n      jump\t// in\n    tag_191:\n        /* \"#utility.yul\":8085:8121   */\n      swap1\n      pop\n        /* \"#utility.yul\":8075:8127   */\n      swap2\n      swap1\n      pop\n      jump\t// out\n        /* \"#utility.yul\":8133:8287   */\n    tag_80:\n        /* \"#utility.yul\":8217:8223   */\n      dup3\n        /* \"#utility.yul\":8212:8215   */\n      dup2\n        /* \"#utility.yul\":8207:8210   */\n      dup4\n        /* \"#utility.yul\":8194:8224   */\n      calldatacopy\n        /* \"#utility.yul\":8279:8280   */\n      0x00\n        /* \"#utility.yul\":8270:8276   */\n      dup4\n        /* \"#utility.yul\":8265:8268   */\n      dup4\n        /* \"#utility.yul\":8261:8277   */\n      add\n        /* \"#utility.yul\":8254:8281   */\n      mstore\n        /* \"#utility.yul\":8184:8287   */\n      pop\n      pop\n      pop\n      jump\t// out\n        /* \"#utility.yul\":8293:8600   */\n    tag_105:\n        /* \"#utility.yul\":8361:8362   */\n      0x00\n        /* \"#utility.yul\":8371:8484   */\n    tag_194:\n        /* \"#utility.yul\":8385:8391   */\n      dup4\n        /* \"#utility.yul\":8382:8383   */\n      dup2\n        /* \"#utility.yul\":8379:8392   */\n      lt\n        /* \"#utility.yul\":8371:8484   */\n      iszero\n      tag_196\n      jumpi\n        /* \"#utility.yul\":8470:8471   */\n      dup1\n        /* \"#utility.yul\":8465:8468   */\n      dup3\n        /* \"#utility.yul\":8461:8472   */\n      add\n        /* \"#utility.yul\":8455:8473   */\n      mload\n        /* \"#utility.yul\":8451:8452   */\n      dup2\n        /* \"#utility.yul\":8446:8449   */\n      dup5\n        /* \"#utility.yul\":8442:8453   */\n      add\n        /* \"#utility.yul\":8435:8474   */\n      mstore\n        /* \"#utility.yul\":8407:8409   */\n      0x20\n        /* \"#utility.yul\":8404:8405   */\n      dup2\n        /* \"#utility.yul\":8400:8410   */\n      add\n        /* \"#utility.yul\":8395:8410   */\n      swap1\n      pop\n        /* \"#utility.yul\":8371:8484   */\n      jump(tag_194)\n    tag_196:\n        /* \"#utility.yul\":8502:8508   */\n      dup4\n        /* \"#utility.yul\":8499:8500   */\n      dup2\n        /* \"#utility.yul\":8496:8509   */\n      gt\n        /* \"#utility.yul\":8493:8495   */\n      iszero\n      tag_197\n      jumpi\n        /* \"#utility.yul\":8582:8583   */\n      0x00\n        /* \"#utility.yul\":8573:8579   */\n      dup5\n        /* \"#utility.yul\":8568:8571   */\n      dup5\n        /* \"#utility.yul\":8564:8580   */\n      add\n        /* \"#utility.yul\":8557:8584   */\n      mstore\n        /* \"#utility.yul\":8493:8495   */\n    tag_197:\n        /* \"#utility.yul\":8342:8600   */\n      pop\n      pop\n      pop\n      pop\n      jump\t// out\n        /* \"#utility.yul\":8606:8926   */\n    tag_66:\n        /* \"#utility.yul\":8650:8656   */\n      0x00\n        /* \"#utility.yul\":8687:8688   */\n      0x02\n        /* \"#utility.yul\":8681:8685   */\n      dup3\n        /* \"#utility.yul\":8677:8689   */\n      div\n        /* \"#utility.yul\":8667:8689   */\n      swap1\n      pop\n        /* \"#utility.yul\":8734:8735   */\n      0x01\n        /* \"#utility.yul\":8728:8732   */\n      dup3\n        /* \"#utility.yul\":8724:8736   */\n      and\n        /* \"#utility.yul\":8755:8773   */\n      dup1\n        /* \"#utility.yul\":8745:8747   */\n      tag_199\n      jumpi\n        /* \"#utility.yul\":8811:8815   */\n      0x7f\n        /* \"#utility.yul\":8803:8809   */\n      dup3\n        /* \"#utility.yul\":8799:8816   */\n      and\n        /* \"#utility.yul\":8789:8816   */\n      swap2\n      pop\n        /* \"#utility.yul\":8745:8747   */\n    tag_199:\n        /* \"#utility.yul\":8873:8875   */\n      0x20\n        /* \"#utility.yul\":8865:8871   */\n      dup3\n        /* \"#utility.yul\":8862:8876   */\n      lt\n        /* \"#utility.yul\":8842:8860   */\n      dup2\n        /* \"#utility.yul\":8839:8877   */\n      eq\n        /* \"#utility.yul\":8836:8838   */\n      iszero\n      tag_200\n      jumpi\n        /* \"#utility.yul\":8892:8910   */\n      tag_201\n      tag_202\n      jump\t// in\n    tag_201:\n        /* \"#utility.yul\":8836:8838   */\n    tag_200:\n        /* \"#utility.yul\":8657:8926   */\n      pop\n      swap2\n      swap1\n      pop\n      jump\t// out\n        /* \"#utility.yul\":8932:9213   */\n    tag_163:\n        /* \"#utility.yul\":9015:9042   */\n      tag_204\n        /* \"#utility.yul\":9037:9041   */\n      dup3\n        /* \"#utility.yul\":9015:9042   */\n      tag_107\n      jump\t// in\n    tag_204:\n        /* \"#utility.yul\":9007:9013   */\n      dup2\n        /* \"#utility.yul\":9003:9043   */\n      add\n        /* \"#utility.yul\":9145:9151   */\n      dup2\n        /* \"#utility.yul\":9133:9143   */\n      dup2\n        /* \"#utility.yul\":9130:9152   */\n      lt\n        /* \"#utility.yul\":9109:9127   */\n      0xffffffffffffffff\n        /* \"#utility.yul\":9097:9107   */\n      dup3\n        /* \"#utility.yul\":9094:9128   */\n      gt\n        /* \"#utility.yul\":9091:9153   */\n      or\n        /* \"#utility.yul\":9088:9090   */\n      iszero\n      tag_205\n      jumpi\n        /* \"#utility.yul\":9156:9174   */\n      tag_206\n      tag_168\n      jump\t// in\n    tag_206:\n        /* \"#utility.yul\":9088:9090   */\n    tag_205:\n        /* \"#utility.yul\":9196:9206   */\n      dup1\n        /* \"#utility.yul\":9192:9194   */\n      0x40\n        /* \"#utility.yul\":9185:9207   */\n      mstore\n        /* \"#utility.yul\":8975:9213   */\n      pop\n      pop\n      pop\n      jump\t// out\n        /* \"#utility.yul\":9219:9399   */\n    tag_179:\n        /* \"#utility.yul\":9267:9344   */\n      0x4e487b7100000000000000000000000000000000000000000000000000000000\n        /* \"#utility.yul\":9264:9265   */\n      0x00\n        /* \"#utility.yul\":9257:9345   */\n      mstore\n        /* \"#utility.yul\":9364:9368   */\n      0x11\n        /* \"#utility.yul\":9361:9362   */\n      0x04\n        /* \"#utility.yul\":9354:9369   */\n      mstore\n        /* \"#utility.yul\":9388:9392   */\n      0x24\n        /* \"#utility.yul\":9385:9386   */\n      0x00\n        /* \"#utility.yul\":9378:9393   */\n      revert\n        /* \"#utility.yul\":9405:9585   */\n    tag_202:\n        /* \"#utility.yul\":9453:9530   */\n      0x4e487b7100000000000000000000000000000000000000000000000000000000\n        /* \"#utility.yul\":9450:9451   */\n      0x00\n        /* \"#utility.yul\":9443:9531   */\n      mstore\n        /* \"#utility.yul\":9550:9554   */\n      0x22\n        /* \"#utility.yul\":9547:9548   */\n      0x04\n        /* \"#utility.yul\":9540:9555   */\n      mstore\n        /* \"#utility.yul\":9574:9578   */\n      0x24\n        /* \"#utility.yul\":9571:9572   */\n      0x00\n        /* \"#utility.yul\":9564:9579   */\n      revert\n        /* \"#utility.yul\":9591:9771   */\n    tag_168:\n        /* \"#utility.yul\":9639:9716   */\n      0x4e487b7100000000000000000000000000000000000000000000000000000000\n        /* \"#utility.yul\":9636:9637   */\n      0x00\n        /* \"#utility.yul\":9629:9717   */\n      mstore\n        /* \"#utility.yul\":9736:9740   */\n      0x41\n        /* \"#utility.yul\":9733:9734   */\n      0x04\n        /* \"#utility.yul\":9726:9741   */\n      mstore\n        /* \"#utility.yul\":9760:9764   */\n      0x24\n        /* \"#utility.yul\":9757:9758   */\n      0x00\n        /* \"#utility.yul\":9750:9765   */\n      revert\n        /* \"#utility.yul\":9777:9879   */\n    tag_107:\n        /* \"#utility.yul\":9818:9824   */\n      0x00\n        /* \"#utility.yul\":9869:9871   */\n      0x1f\n        /* \"#utility.yul\":9865:9872   */\n      not\n        /* \"#utility.yul\":9860:9862   */\n      0x1f\n        /* \"#utility.yul\":9853:9858   */\n      dup4\n        /* \"#utility.yul\":9849:9863   */\n      add\n        /* \"#utility.yul\":9845:9873   */\n      and\n        /* \"#utility.yul\":9835:9873   */\n      swap1\n      pop\n        /* \"#utility.yul\":9825:9879   */\n      swap2\n      swap1\n      pop\n      jump\t// out\n        /* \"#utility.yul\":9885:10007   */\n    tag_88:\n        /* \"#utility.yul\":9958:9982   */\n      tag_212\n        /* \"#utility.yul\":9976:9981   */\n      dup2\n        /* \"#utility.yul\":9958:9982   */\n      tag_135\n      jump\t// in\n    tag_212:\n        /* \"#utility.yul\":9951:9956   */\n      dup2\n        /* \"#utility.yul\":9948:9983   */\n      eq\n        /* \"#utility.yul\":9938:9940   */\n      tag_213\n      jumpi\n        /* \"#utility.yul\":9997:9998   */\n      0x00\n        /* \"#utility.yul\":9994:9995   */\n      dup1\n        /* \"#utility.yul\":9987:9999   */\n      revert\n        /* \"#utility.yul\":9938:9940   */\n    tag_213:\n        /* \"#utility.yul\":9928:10007   */\n      pop\n      jump\t// out\n\n    auxdata: 0xa2646970667358221220e96666f7d05fcd99fc0c0d4c9b7329f04955ec546d2d7c927bb74dfe32e7dc5b64736f6c63430008040033\n}\n",
				"bytecode": {
					"linkReferences": {},
					"object": "608060405234801561001057600080fd5b50610948806100206000396000f3fe608060405234801561001057600080fd5b50600436106100885760003560e01c80636097e7a31161005b5780636097e7a3146101195780638c492a76146101375780639711715a14610155578063ba753e731461017357610088565b806302a251a31461008d57806329dcb0cf146100ab5780633932abb1146100c9578063416bdc52146100e7575b600080fd5b610095610191565b6040516100a29190610610565b60405180910390f35b6100b361019b565b6040516100c09190610662565b60405180910390f35b6100d16101d2565b6040516100de9190610610565b60405180910390f35b61010160048036038101906100fc91906103fc565b6101db565b6040516101109392919061062b565b60405180910390f35b610121610207565b60405161012e9190610595565b60405180910390f35b61013f610237565b60405161014c9190610595565b60405180910390f35b61015d610267565b60405161016a9190610662565b60405180910390f35b61017b610286565b60405161018891906105ee565b60405180910390f35b600061b2fa905090565b6000806101a66101d2565b436101b1919061070b565b905060006101bd610191565b826101c8919061070b565b9050809250505090565b60006001905090565b6000806000838060200190518101906101f4919061043d565b8093508194508295505050509193909250565b6060600161b2ec611388604051602001610223939291906105b7565b604051602081830303815290604052905090565b6060600161b2ec611388604051602001610253939291906105b7565b604051602081830303815290604052905090565b6000806102726101d2565b4361027d919061070b565b90508091505090565b61028e610365565b6000806000607b81526020019081526020016000209050600080607b81526020019081526020016000206040518060400160405290816000820180546102d3906107fa565b80601f01602080910402602001604051908101604052809291908181526020018280546102ff906107fa565b801561034c5780601f106103215761010080835404028352916020019161034c565b820191906000526020600020905b81548152906001019060200180831161032f57829003601f168201915b5050505050815260200160018201548152505091505090565b604051806040016040528060608152602001600081525090565b600061039261038d846106a2565b61067d565b9050828152602081018484840111156103aa57600080fd5b6103b58482856107b8565b509392505050565b600082601f8301126103ce57600080fd5b81356103de84826020860161037f565b91505092915050565b6000815190506103f6816108fb565b92915050565b60006020828403121561040e57600080fd5b600082013567ffffffffffffffff81111561042857600080fd5b610434848285016103bd565b91505092915050565b60008060006060848603121561045257600080fd5b6000610460868287016103e7565b9350506020610471868287016103e7565b9250506040610482868287016103e7565b9150509250925092565b6000610497826106d3565b6104a181856106e9565b93506104b18185602086016107c7565b6104ba816108ea565b840191505092915050565b6104ce81610782565b82525050565b6104dd81610794565b82525050565b6104ec816107a6565b82525050565b60006104fd826106de565b61050781856106fa565b93506105178185602086016107c7565b610520816108ea565b840191505092915050565b6000604083016000830151848203600086015261054882826104f2565b915050602083015161055d6020860182610568565b508091505092915050565b61057181610757565b82525050565b61058081610757565b82525050565b61058f81610761565b82525050565b600060208201905081810360008301526105af818461048c565b905092915050565b60006060820190506105cc60008301866104c5565b6105d960208301856104d4565b6105e660408301846104e3565b949350505050565b60006020820190508181036000830152610608818461052b565b905092915050565b60006020820190506106256000830184610577565b92915050565b60006060820190506106406000830186610577565b61064d6020830185610577565b61065a6040830184610577565b949350505050565b60006020820190506106776000830184610586565b92915050565b6000610687610698565b9050610693828261082c565b919050565b6000604051905090565b600067ffffffffffffffff8211156106bd576106bc6108bb565b5b6106c6826108ea565b9050602081019050919050565b600081519050919050565b600081519050919050565b600082825260208201905092915050565b600082825260208201905092915050565b600061071682610761565b915061072183610761565b92508267ffffffffffffffff0382111561073e5761073d61085d565b5b828201905092915050565b600061ffff82169050919050565b6000819050919050565b600067ffffffffffffffff82169050919050565b600060ff82169050919050565b600061078d82610775565b9050919050565b600061079f82610749565b9050919050565b60006107b182610749565b9050919050565b82818337600083830152505050565b60005b838110156107e55780820151818401526020810190506107ca565b838111156107f4576000848401525b50505050565b6000600282049050600182168061081257607f821691505b602082108114156108265761082561088c565b5b50919050565b610835826108ea565b810181811067ffffffffffffffff82111715610854576108536108bb565b5b80604052505050565b7f4e487b7100000000000000000000000000000000000000000000000000000000600052601160045260246000fd5b7f4e487b7100000000000000000000000000000000000000000000000000000000600052602260045260246000fd5b7f4e487b7100000000000000000000000000000000000000000000000000000000600052604160045260246000fd5b6000601f19601f8301169050919050565b61090481610757565b811461090f57600080fd5b5056fea2646970667358221220e96666f7d05fcd99fc0c0d4c9b7329f04955ec546d2d7c927bb74dfe32e7dc5b64736f6c63430008040033",
					"opcodes": "PUSH1 0x80 PUSH1 0x40 MSTORE CALLVALUE DUP1 ISZERO PUSH2 0x10 JUMPI PUSH1 0x0 DUP1 REVERT JUMPDEST POP PUSH2 0x948 DUP1 PUSH2 0x20 PUSH1 0x0 CODECOPY PUSH1 0x0 RETURN INVALID PUSH1 0x80 PUSH1 0x40 MSTORE CALLVALUE DUP1 ISZERO PUSH2 0x10 JUMPI PUSH1 0x0 DUP1 REVERT JUMPDEST POP PUSH1 0x4 CALLDATASIZE LT PUSH2 0x88 JUMPI PUSH1 0x0 CALLDATALOAD PUSH1 0xE0 SHR DUP1 PUSH4 0x6097E7A3 GT PUSH2 0x5B JUMPI DUP1 PUSH4 0x6097E7A3 EQ PUSH2 0x119 JUMPI DUP1 PUSH4 0x8C492A76 EQ PUSH2 0x137 JUMPI DUP1 PUSH4 0x9711715A EQ PUSH2 0x155 JUMPI DUP1 PUSH4 0xBA753E73 EQ PUSH2 0x173 JUMPI PUSH2 0x88 JUMP JUMPDEST DUP1 PUSH4 0x2A251A3 EQ PUSH2 0x8D JUMPI DUP1 PUSH4 0x29DCB0CF EQ PUSH2 0xAB JUMPI DUP1 PUSH4 0x3932ABB1 EQ PUSH2 0xC9 JUMPI DUP1 PUSH4 0x416BDC52 EQ PUSH2 0xE7 JUMPI JUMPDEST PUSH1 0x0 DUP1 REVERT JUMPDEST PUSH2 0x95 PUSH2 0x191 JUMP JUMPDEST PUSH1 0x40 MLOAD PUSH2 0xA2 SWAP2 SWAP1 PUSH2 0x610 JUMP JUMPDEST PUSH1 0x40 MLOAD DUP1 SWAP2 SUB SWAP1 RETURN JUMPDEST PUSH2 0xB3 PUSH2 0x19B JUMP JUMPDEST PUSH1 0x40 MLOAD PUSH2 0xC0 SWAP2 SWAP1 PUSH2 0x662 JUMP JUMPDEST PUSH1 0x40 MLOAD DUP1 SWAP2 SUB SWAP1 RETURN JUMPDEST PUSH2 0xD1 PUSH2 0x1D2 JUMP JUMPDEST PUSH1 0x40 MLOAD PUSH2 0xDE SWAP2 SWAP1 PUSH2 0x610 JUMP JUMPDEST PUSH1 0x40 MLOAD DUP1 SWAP2 SUB SWAP1 RETURN JUMPDEST PUSH2 0x101 PUSH1 0x4 DUP1 CALLDATASIZE SUB DUP2 ADD SWAP1 PUSH2 0xFC SWAP2 SWAP1 PUSH2 0x3FC JUMP JUMPDEST PUSH2 0x1DB JUMP JUMPDEST PUSH1 0x40 MLOAD PUSH2 0x110 SWAP4 SWAP3 SWAP2 SWAP1 PUSH2 0x62B JUMP JUMPDEST PUSH1 0x40 MLOAD DUP1 SWAP2 SUB SWAP1 RETURN JUMPDEST PUSH2 0x121 PUSH2 0x207 JUMP JUMPDEST PUSH1 0x40 MLOAD PUSH2 0x12E SWAP2 SWAP1 PUSH2 0x595 JUMP JUMPDEST PUSH1 0x40 MLOAD DUP1 SWAP2 SUB SWAP1 RETURN JUMPDEST PUSH2 0x13F PUSH2 0x237 JUMP JUMPDEST PUSH1 0x40 MLOAD PUSH2 0x14C SWAP2 SWAP1 PUSH2 0x595 JUMP JUMPDEST PUSH1 0x40 MLOAD DUP1 SWAP2 SUB SWAP1 RETURN JUMPDEST PUSH2 0x15D PUSH2 0x267 JUMP JUMPDEST PUSH1 0x40 MLOAD PUSH2 0x16A SWAP2 SWAP1 PUSH2 0x662 JUMP JUMPDEST PUSH1 0x40 MLOAD DUP1 SWAP2 SUB SWAP1 RETURN JUMPDEST PUSH2 0x17B PUSH2 0x286 JUMP JUMPDEST PUSH1 0x40 MLOAD PUSH2 0x188 SWAP2 SWAP1 PUSH2 0x5EE JUMP JUMPDEST PUSH1 0x40 MLOAD DUP1 SWAP2 SUB SWAP1 RETURN JUMPDEST PUSH1 0x0 PUSH2 0xB2FA SWAP1 POP SWAP1 JUMP JUMPDEST PUSH1 0x0 DUP1 PUSH2 0x1A6 PUSH2 0x1D2 JUMP JUMPDEST NUMBER PUSH2 0x1B1 SWAP2 SWAP1 PUSH2 0x70B JUMP JUMPDEST SWAP1 POP PUSH1 0x0 PUSH2 0x1BD PUSH2 0x191 JUMP JUMPDEST DUP3 PUSH2 0x1C8 SWAP2 SWAP1 PUSH2 0x70B JUMP JUMPDEST SWAP1 POP DUP1 SWAP3 POP POP POP SWAP1 JUMP JUMPDEST PUSH1 0x0 PUSH1 0x1 SWAP1 POP SWAP1 JUMP JUMPDEST PUSH1 0x0 DUP1 PUSH1 0x0 DUP4 DUP1 PUSH1 0x20 ADD SWAP1 MLOAD DUP2 ADD SWAP1 PUSH2 0x1F4 SWAP2 SWAP1 PUSH2 0x43D JUMP JUMPDEST DUP1 SWAP4 POP DUP2 SWAP5 POP DUP3 SWAP6 POP POP POP POP SWAP2 SWAP4 SWAP1 SWAP3 POP JUMP JUMPDEST PUSH1 0x60 PUSH1 0x1 PUSH2 0xB2EC PUSH2 0x1388 PUSH1 0x40 MLOAD PUSH1 0x20 ADD PUSH2 0x223 SWAP4 SWAP3 SWAP2 SWAP1 PUSH2 0x5B7 JUMP JUMPDEST PUSH1 0x40 MLOAD PUSH1 0x20 DUP2 DUP4 SUB SUB DUP2 MSTORE SWAP1 PUSH1 0x40 MSTORE SWAP1 POP SWAP1 JUMP JUMPDEST PUSH1 0x60 PUSH1 0x1 PUSH2 0xB2EC PUSH2 0x1388 PUSH1 0x40 MLOAD PUSH1 0x20 ADD PUSH2 0x253 SWAP4 SWAP3 SWAP2 SWAP1 PUSH2 0x5B7 JUMP JUMPDEST PUSH1 0x40 MLOAD PUSH1 0x20 DUP2 DUP4 SUB SUB DUP2 MSTORE SWAP1 PUSH1 0x40 MSTORE SWAP1 POP SWAP1 JUMP JUMPDEST PUSH1 0x0 DUP1 PUSH2 0x272 PUSH2 0x1D2 JUMP JUMPDEST NUMBER PUSH2 0x27D SWAP2 SWAP1 PUSH2 0x70B JUMP JUMPDEST SWAP1 POP DUP1 SWAP2 POP POP SWAP1 JUMP JUMPDEST PUSH2 0x28E PUSH2 0x365 JUMP JUMPDEST PUSH1 0x0 DUP1 PUSH1 0x0 PUSH1 0x7B DUP2 MSTORE PUSH1 0x20 ADD SWAP1 DUP2 MSTORE PUSH1 0x20 ADD PUSH1 0x0 KECCAK256 SWAP1 POP PUSH1 0x0 DUP1 PUSH1 0x7B DUP2 MSTORE PUSH1 0x20 ADD SWAP1 DUP2 MSTORE PUSH1 0x20 ADD PUSH1 0x0 KECCAK256 PUSH1 0x40 MLOAD DUP1 PUSH1 0x40 ADD PUSH1 0x40 MSTORE SWAP1 DUP2 PUSH1 0x0 DUP3 ADD DUP1 SLOAD PUSH2 0x2D3 SWAP1 PUSH2 0x7FA JUMP JUMPDEST DUP1 PUSH1 0x1F ADD PUSH1 0x20 DUP1 SWAP2 DIV MUL PUSH1 0x20 ADD PUSH1 0x40 MLOAD SWAP1 DUP2 ADD PUSH1 0x40 MSTORE DUP1 SWAP3 SWAP2 SWAP1 DUP2 DUP2 MSTORE PUSH1 0x20 ADD DUP3 DUP1 SLOAD PUSH2 0x2FF SWAP1 PUSH2 0x7FA JUMP JUMPDEST DUP1 ISZERO PUSH2 0x34C JUMPI DUP1 PUSH1 0x1F LT PUSH2 0x321 JUMPI PUSH2 0x100 DUP1 DUP4 SLOAD DIV MUL DUP4 MSTORE SWAP2 PUSH1 0x20 ADD SWAP2 PUSH2 0x34C JUMP JUMPDEST DUP3 ADD SWAP2 SWAP1 PUSH1 0x0 MSTORE PUSH1 0x20 PUSH1 0x0 KECCAK256 SWAP1 JUMPDEST DUP2 SLOAD DUP2 MSTORE SWAP1 PUSH1 0x1 ADD SWAP1 PUSH1 0x20 ADD DUP1 DUP4 GT PUSH2 0x32F JUMPI DUP3 SWAP1 SUB PUSH1 0x1F AND DUP3 ADD SWAP2 JUMPDEST POP POP POP POP POP DUP2 MSTORE PUSH1 0x20 ADD PUSH1 0x1 DUP3 ADD SLOAD DUP2 MSTORE POP POP SWAP2 POP POP SWAP1 JUMP JUMPDEST PUSH1 0x40 MLOAD DUP1 PUSH1 0x40 ADD PUSH1 0x40 MSTORE DUP1 PUSH1 0x60 DUP2 MSTORE PUSH1 0x20 ADD PUSH1 0x0 DUP2 MSTORE POP SWAP1 JUMP JUMPDEST PUSH1 0x0 PUSH2 0x392 PUSH2 0x38D DUP5 PUSH2 0x6A2 JUMP JUMPDEST PUSH2 0x67D JUMP JUMPDEST SWAP1 POP DUP3 DUP2 MSTORE PUSH1 0x20 DUP2 ADD DUP5 DUP5 DUP5 ADD GT ISZERO PUSH2 0x3AA JUMPI PUSH1 0x0 DUP1 REVERT JUMPDEST PUSH2 0x3B5 DUP5 DUP3 DUP6 PUSH2 0x7B8 JUMP JUMPDEST POP SWAP4 SWAP3 POP POP POP JUMP JUMPDEST PUSH1 0x0 DUP3 PUSH1 0x1F DUP4 ADD SLT PUSH2 0x3CE JUMPI PUSH1 0x0 DUP1 REVERT JUMPDEST DUP2 CALLDATALOAD PUSH2 0x3DE DUP5 DUP3 PUSH1 0x20 DUP7 ADD PUSH2 0x37F JUMP JUMPDEST SWAP2 POP POP SWAP3 SWAP2 POP POP JUMP JUMPDEST PUSH1 0x0 DUP2 MLOAD SWAP1 POP PUSH2 0x3F6 DUP2 PUSH2 0x8FB JUMP JUMPDEST SWAP3 SWAP2 POP POP JUMP JUMPDEST PUSH1 0x0 PUSH1 0x20 DUP3 DUP5 SUB SLT ISZERO PUSH2 0x40E JUMPI PUSH1 0x0 DUP1 REVERT JUMPDEST PUSH1 0x0 DUP3 ADD CALLDATALOAD PUSH8 0xFFFFFFFFFFFFFFFF DUP2 GT ISZERO PUSH2 0x428 JUMPI PUSH1 0x0 DUP1 REVERT JUMPDEST PUSH2 0x434 DUP5 DUP3 DUP6 ADD PUSH2 0x3BD JUMP JUMPDEST SWAP2 POP POP SWAP3 SWAP2 POP POP JUMP JUMPDEST PUSH1 0x0 DUP1 PUSH1 0x0 PUSH1 0x60 DUP5 DUP7 SUB SLT ISZERO PUSH2 0x452 JUMPI PUSH1 0x0 DUP1 REVERT JUMPDEST PUSH1 0x0 PUSH2 0x460 DUP7 DUP3 DUP8 ADD PUSH2 0x3E7 JUMP JUMPDEST SWAP4 POP POP PUSH1 0x20 PUSH2 0x471 DUP7 DUP3 DUP8 ADD PUSH2 0x3E7 JUMP JUMPDEST SWAP3 POP POP PUSH1 0x40 PUSH2 0x482 DUP7 DUP3 DUP8 ADD PUSH2 0x3E7 JUMP JUMPDEST SWAP2 POP POP SWAP3 POP SWAP3 POP SWAP3 JUMP JUMPDEST PUSH1 0x0 PUSH2 0x497 DUP3 PUSH2 0x6D3 JUMP JUMPDEST PUSH2 0x4A1 DUP2 DUP6 PUSH2 0x6E9 JUMP JUMPDEST SWAP4 POP PUSH2 0x4B1 DUP2 DUP6 PUSH1 0x20 DUP7 ADD PUSH2 0x7C7 JUMP JUMPDEST PUSH2 0x4BA DUP2 PUSH2 0x8EA JUMP JUMPDEST DUP5 ADD SWAP2 POP POP SWAP3 SWAP2 POP POP JUMP JUMPDEST PUSH2 0x4CE DUP2 PUSH2 0x782 JUMP JUMPDEST DUP3 MSTORE POP POP JUMP JUMPDEST PUSH2 0x4DD DUP2 PUSH2 0x794 JUMP JUMPDEST DUP3 MSTORE POP POP JUMP JUMPDEST PUSH2 0x4EC DUP2 PUSH2 0x7A6 JUMP JUMPDEST DUP3 MSTORE POP POP JUMP JUMPDEST PUSH1 0x0 PUSH2 0x4FD DUP3 PUSH2 0x6DE JUMP JUMPDEST PUSH2 0x507 DUP2 DUP6 PUSH2 0x6FA JUMP JUMPDEST SWAP4 POP PUSH2 0x517 DUP2 DUP6 PUSH1 0x20 DUP7 ADD PUSH2 0x7C7 JUMP JUMPDEST PUSH2 0x520 DUP2 PUSH2 0x8EA JUMP JUMPDEST DUP5 ADD SWAP2 POP POP SWAP3 SWAP2 POP POP JUMP JUMPDEST PUSH1 0x0 PUSH1 0x40 DUP4 ADD PUSH1 0x0 DUP4 ADD MLOAD DUP5 DUP3 SUB PUSH1 0x0 DUP7 ADD MSTORE PUSH2 0x548 DUP3 DUP3 PUSH2 0x4F2 JUMP JUMPDEST SWAP2 POP POP PUSH1 0x20 DUP4 ADD MLOAD PUSH2 0x55D PUSH1 0x20 DUP7 ADD DUP3 PUSH2 0x568 JUMP JUMPDEST POP DUP1 SWAP2 POP POP SWAP3 SWAP2 POP POP JUMP JUMPDEST PUSH2 0x571 DUP2 PUSH2 0x757 JUMP JUMPDEST DUP3 MSTORE POP POP JUMP JUMPDEST PUSH2 0x580 DUP2 PUSH2 0x757 JUMP JUMPDEST DUP3 MSTORE POP POP JUMP JUMPDEST PUSH2 0x58F DUP2 PUSH2 0x761 JUMP JUMPDEST DUP3 MSTORE POP POP JUMP JUMPDEST PUSH1 0x0 PUSH1 0x20 DUP3 ADD SWAP1 POP DUP2 DUP2 SUB PUSH1 0x0 DUP4 ADD MSTORE PUSH2 0x5AF DUP2 DUP5 PUSH2 0x48C JUMP JUMPDEST SWAP1 POP SWAP3 SWAP2 POP POP JUMP JUMPDEST PUSH1 0x0 PUSH1 0x60 DUP3 ADD SWAP1 POP PUSH2 0x5CC PUSH1 0x0 DUP4 ADD DUP7 PUSH2 0x4C5 JUMP JUMPDEST PUSH2 0x5D9 PUSH1 0x20 DUP4 ADD DUP6 PUSH2 0x4D4 JUMP JUMPDEST PUSH2 0x5E6 PUSH1 0x40 DUP4 ADD DUP5 PUSH2 0x4E3 JUMP JUMPDEST SWAP5 SWAP4 POP POP POP POP JUMP JUMPDEST PUSH1 0x0 PUSH1 0x20 DUP3 ADD SWAP1 POP DUP2 DUP2 SUB PUSH1 0x0 DUP4 ADD MSTORE PUSH2 0x608 DUP2 DUP5 PUSH2 0x52B JUMP JUMPDEST SWAP1 POP SWAP3 SWAP2 POP POP JUMP JUMPDEST PUSH1 0x0 PUSH1 0x20 DUP3 ADD SWAP1 POP PUSH2 0x625 PUSH1 0x0 DUP4 ADD DUP5 PUSH2 0x577 JUMP JUMPDEST SWAP3 SWAP2 POP POP JUMP JUMPDEST PUSH1 0x0 PUSH1 0x60 DUP3 ADD SWAP1 POP PUSH2 0x640 PUSH1 0x0 DUP4 ADD DUP7 PUSH2 0x577 JUMP JUMPDEST PUSH2 0x64D PUSH1 0x20 DUP4 ADD DUP6 PUSH2 0x577 JUMP JUMPDEST PUSH2 0x65A PUSH1 0x40 DUP4 ADD DUP5 PUSH2 0x577 JUMP JUMPDEST SWAP5 SWAP4 POP POP POP POP JUMP JUMPDEST PUSH1 0x0 PUSH1 0x20 DUP3 ADD SWAP1 POP PUSH2 0x677 PUSH1 0x0 DUP4 ADD DUP5 PUSH2 0x586 JUMP JUMPDEST SWAP3 SWAP2 POP POP JUMP JUMPDEST PUSH1 0x0 PUSH2 0x687 PUSH2 0x698 JUMP JUMPDEST SWAP1 POP PUSH2 0x693 DUP3 DUP3 PUSH2 0x82C JUMP JUMPDEST SWAP2 SWAP1 POP JUMP JUMPDEST PUSH1 0x0 PUSH1 0x40 MLOAD SWAP1 POP SWAP1 JUMP JUMPDEST PUSH1 0x0 PUSH8 0xFFFFFFFFFFFFFFFF DUP3 GT ISZERO PUSH2 0x6BD JUMPI PUSH2 0x6BC PUSH2 0x8BB JUMP JUMPDEST JUMPDEST PUSH2 0x6C6 DUP3 PUSH2 0x8EA JUMP JUMPDEST SWAP1 POP PUSH1 0x20 DUP2 ADD SWAP1 POP SWAP2 SWAP1 POP JUMP JUMPDEST PUSH1 0x0 DUP2 MLOAD SWAP1 POP SWAP2 SWAP1 POP JUMP JUMPDEST PUSH1 0x0 DUP2 MLOAD SWAP1 POP SWAP2 SWAP1 POP JUMP JUMPDEST PUSH1 0x0 DUP3 DUP3 MSTORE PUSH1 0x20 DUP3 ADD SWAP1 POP SWAP3 SWAP2 POP POP JUMP JUMPDEST PUSH1 0x0 DUP3 DUP3 MSTORE PUSH1 0x20 DUP3 ADD SWAP1 POP SWAP3 SWAP2 POP POP JUMP JUMPDEST PUSH1 0x0 PUSH2 0x716 DUP3 PUSH2 0x761 JUMP JUMPDEST SWAP2 POP PUSH2 0x721 DUP4 PUSH2 0x761 JUMP JUMPDEST SWAP3 POP DUP3 PUSH8 0xFFFFFFFFFFFFFFFF SUB DUP3 GT ISZERO PUSH2 0x73E JUMPI PUSH2 0x73D PUSH2 0x85D JUMP JUMPDEST JUMPDEST DUP3 DUP3 ADD SWAP1 POP SWAP3 SWAP2 POP POP JUMP JUMPDEST PUSH1 0x0 PUSH2 0xFFFF DUP3 AND SWAP1 POP SWAP2 SWAP1 POP JUMP JUMPDEST PUSH1 0x0 DUP2 SWAP1 POP SWAP2 SWAP1 POP JUMP JUMPDEST PUSH1 0x0 PUSH8 0xFFFFFFFFFFFFFFFF DUP3 AND SWAP1 POP SWAP2 SWAP1 POP JUMP JUMPDEST PUSH1 0x0 PUSH1 0xFF DUP3 AND SWAP1 POP SWAP2 SWAP1 POP JUMP JUMPDEST PUSH1 0x0 PUSH2 0x78D DUP3 PUSH2 0x775 JUMP JUMPDEST SWAP1 POP SWAP2 SWAP1 POP JUMP JUMPDEST PUSH1 0x0 PUSH2 0x79F DUP3 PUSH2 0x749 JUMP JUMPDEST SWAP1 POP SWAP2 SWAP1 POP JUMP JUMPDEST PUSH1 0x0 PUSH2 0x7B1 DUP3 PUSH2 0x749 JUMP JUMPDEST SWAP1 POP SWAP2 SWAP1 POP JUMP JUMPDEST DUP3 DUP2 DUP4 CALLDATACOPY PUSH1 0x0 DUP4 DUP4 ADD MSTORE POP POP POP JUMP JUMPDEST PUSH1 0x0 JUMPDEST DUP4 DUP2 LT ISZERO PUSH2 0x7E5 JUMPI DUP1 DUP3 ADD MLOAD DUP2 DUP5 ADD MSTORE PUSH1 0x20 DUP2 ADD SWAP1 POP PUSH2 0x7CA JUMP JUMPDEST DUP4 DUP2 GT ISZERO PUSH2 0x7F4 JUMPI PUSH1 0x0 DUP5 DUP5 ADD MSTORE JUMPDEST POP POP POP POP JUMP JUMPDEST PUSH1 0x0 PUSH1 0x2 DUP3 DIV SWAP1 POP PUSH1 0x1 DUP3 AND DUP1 PUSH2 0x812 JUMPI PUSH1 0x7F DUP3 AND SWAP2 POP JUMPDEST PUSH1 0x20 DUP3 LT DUP2 EQ ISZERO PUSH2 0x826 JUMPI PUSH2 0x825 PUSH2 0x88C JUMP JUMPDEST JUMPDEST POP SWAP2 SWAP1 POP JUMP JUMPDEST PUSH2 0x835 DUP3 PUSH2 0x8EA JUMP JUMPDEST DUP2 ADD DUP2 DUP2 LT PUSH8 0xFFFFFFFFFFFFFFFF DUP3 GT OR ISZERO PUSH2 0x854 JUMPI PUSH2 0x853 PUSH2 0x8BB JUMP JUMPDEST JUMPDEST DUP1 PUSH1 0x40 MSTORE POP POP POP JUMP JUMPDEST PUSH32 0x4E487B7100000000000000000000000000000000000000000000000000000000 PUSH1 0x0 MSTORE PUSH1 0x11 PUSH1 0x4 MSTORE PUSH1 0x24 PUSH1 0x0 REVERT JUMPDEST PUSH32 0x4E487B7100000000000000000000000000000000000000000000000000000000 PUSH1 0x0 MSTORE PUSH1 0x22 PUSH1 0x4 MSTORE PUSH1 0x24 PUSH1 0x0 REVERT JUMPDEST PUSH32 0x4E487B7100000000000000000000000000000000000000000000000000000000 PUSH1 0x0 MSTORE PUSH1 0x41 PUSH1 0x4 MSTORE PUSH1 0x24 PUSH1 0x0 REVERT JUMPDEST PUSH1 0x0 PUSH1 0x1F NOT PUSH1 0x1F DUP4 ADD AND SWAP1 POP SWAP2 SWAP1 POP JUMP JUMPDEST PUSH2 0x904 DUP2 PUSH2 0x757 JUMP JUMPDEST DUP2 EQ PUSH2 0x90F JUMPI PUSH1 0x0 DUP1 REVERT JUMPDEST POP JUMP INVALID LOG2 PUSH5 0x6970667358 0x22 SLT KECCAK256 0xE9 PUSH7 0x66F7D05FCD99FC 0xC 0xD 0x4C SWAP12 PUSH20 0x29F04955EC546D2D7C927BB74DFE32E7DC5B6473 PUSH16 0x6C634300080400330000000000000000 "
				},
				"gasEstimates": {
					"creation": {
						"codeDepositCost": "475200",
						"executionCost": "511",
						"totalCost": "475711"
					},
					"external": {
						"abiDecode(bytes)": "infinite",
						"abiEncode()": "infinite",
						"deadline()": "infinite",
						"keccak256test()": "infinite",
						"snapshot()": "infinite",
						"structTest()": "infinite",
						"votingDelay()": "382",
						"votingPeriod()": "338"
					}
				},
				"methodIdentifiers": {
					"abiDecode(bytes)": "416bdc52",
					"abiEncode()": "6097e7a3",
					"deadline()": "29dcb0cf",
					"keccak256test()": "8c492a76",
					"snapshot()": "9711715a",
					"structTest()": "ba753e73",
					"votingDelay()": "3932abb1",
					"votingPeriod()": "02a251a3"
				}
			},
			"storageLayout": {
				"storage": [
					{
						"astId": 12,
						"contract": ".workspaces/default_workspace/unMiracle/test.sol:test",
						"label": "_testS",
						"offset": 0,
						"slot": "0",
						"type": "t_mapping(t_uint256,t_struct(testS)7_storage)"
					}
				],
				"types": {
					"t_mapping(t_uint256,t_struct(testS)7_storage)": {
						"encoding": "mapping",
						"key": "t_uint256",
						"label": "mapping(uint256 => struct test.testS)",
						"numberOfBytes": "32",
						"value": "t_struct(testS)7_storage"
					},
					"t_string_storage": {
						"encoding": "bytes",
						"label": "string",
						"numberOfBytes": "32"
					},
					"t_struct(testS)7_storage": {
						"encoding": "inplace",
						"label": "struct test.testS",
						"members": [
							{
								"astId": 4,
								"contract": ".workspaces/default_workspace/unMiracle/test.sol:test",
								"label": "name",
								"offset": 0,
								"slot": "0",
								"type": "t_string_storage"
							},
							{
								"astId": 6,
								"contract": ".workspaces/default_workspace/unMiracle/test.sol:test",
								"label": "num",
								"offset": 0,
								"slot": "1",
								"type": "t_uint256"
							}
						],
						"numberOfBytes": "64"
					},
					"t_uint256": {
						"encoding": "inplace",
						"label": "uint256",
						"numberOfBytes": "32"
					}
				}
			},
			"userdoc": {
				"kind": "user",
				"methods": {},
				"version": 1
			}
		}
	}
}