{
	".workspaces/default_workspace/unMiracle/UMRproposal.sol": {
		"UMRproposal": {
			"abi": [
				{
					"inputs": [
						{
							"internalType": "address",
							"name": "proposer",
							"type": "address"
						},
						{
							"internalType": "address",
							"name": "destination",
							"type": "address"
						},
						{
							"internalType": "bytes[]",
							"name": "calldatas",
							"type": "bytes[]"
						},
						{
							"internalType": "bytes32",
							"name": "descriptionHash",
							"type": "bytes32"
						}
					],
					"name": "hashProposal",
					"outputs": [
						{
							"internalType": "uint256",
							"name": "",
							"type": "uint256"
						}
					],
					"stateMutability": "pure",
					"type": "function"
				},
				{
					"inputs": [
						{
							"internalType": "uint256",
							"name": "donateDelay",
							"type": "uint256"
						},
						{
							"internalType": "uint256",
							"name": "donatePeriod",
							"type": "uint256"
						},
						{
							"internalType": "uint256",
							"name": "donateMinimum",
							"type": "uint256"
						},
						{
							"internalType": "address",
							"name": "destination",
							"type": "address"
						},
						{
							"internalType": "string",
							"name": "description",
							"type": "string"
						},
						{
							"internalType": "bytes[]",
							"name": "calldatas",
							"type": "bytes[]"
						}
					],
					"name": "proposal",
					"outputs": [
						{
							"internalType": "uint256",
							"name": "",
							"type": "uint256"
						}
					],
					"stateMutability": "nonpayable",
					"type": "function"
				},
				{
					"inputs": [
						{
							"internalType": "uint256",
							"name": "proposalId",
							"type": "uint256"
						}
					],
					"name": "proposalDeadline",
					"outputs": [
						{
							"internalType": "uint256",
							"name": "",
							"type": "uint256"
						}
					],
					"stateMutability": "view",
					"type": "function"
				},
				{
					"inputs": [
						{
							"internalType": "uint256",
							"name": "proposalId",
							"type": "uint256"
						}
					],
					"name": "proposalDonateMinimum",
					"outputs": [
						{
							"internalType": "uint256",
							"name": "",
							"type": "uint256"
						}
					],
					"stateMutability": "view",
					"type": "function"
				},
				{
					"inputs": [
						{
							"internalType": "uint256",
							"name": "proposalId",
							"type": "uint256"
						}
					],
					"name": "proposalSnapshot",
					"outputs": [
						{
							"internalType": "uint256",
							"name": "",
							"type": "uint256"
						}
					],
					"stateMutability": "view",
					"type": "function"
				},
				{
					"inputs": [
						{
							"internalType": "uint256",
							"name": "proposalId",
							"type": "uint256"
						}
					],
					"name": "state",
					"outputs": [
						{
							"internalType": "enum IUMRcore.ProposalState",
							"name": "",
							"type": "uint8"
						}
					],
					"stateMutability": "view",
					"type": "function"
				}
			],
			"devdoc": {
				"kind": "dev",
				"methods": {},
				"version": 1
			},
			"evm": {
				"assembly": "    /* \".workspaces/default_workspace/unMiracle/UMRproposal.sol\":113:3353  contract UMRproposal is IUMRcore{... */\n  mstore(0x40, 0x80)\n  callvalue\n  dup1\n  iszero\n  tag_1\n  jumpi\n  0x00\n  dup1\n  revert\ntag_1:\n  pop\n  dataSize(sub_0)\n  dup1\n  dataOffset(sub_0)\n  0x00\n  codecopy\n  0x00\n  return\nstop\n\nsub_0: assembly {\n        /* \".workspaces/default_workspace/unMiracle/UMRproposal.sol\":113:3353  contract UMRproposal is IUMRcore{... */\n      mstore(0x40, 0x80)\n      callvalue\n      dup1\n      iszero\n      tag_1\n      jumpi\n      0x00\n      dup1\n      revert\n    tag_1:\n      pop\n      jumpi(tag_2, lt(calldatasize, 0x04))\n      shr(0xe0, calldataload(0x00))\n      dup1\n      0x2d63f693\n      eq\n      tag_3\n      jumpi\n      dup1\n      0x3e4f49e6\n      eq\n      tag_4\n      jumpi\n      dup1\n      0x8c0e09f5\n      eq\n      tag_5\n      jumpi\n      dup1\n      0xc01f9e37\n      eq\n      tag_6\n      jumpi\n      dup1\n      0xee4d6020\n      eq\n      tag_7\n      jumpi\n      dup1\n      0xf68deaf9\n      eq\n      tag_8\n      jumpi\n    tag_2:\n      0x00\n      dup1\n      revert\n        /* \".workspaces/default_workspace/unMiracle/UMRproposal.sol\":2802:2960  function proposalSnapshot(uint256 proposalId) public view virtual returns (uint256) {... */\n    tag_3:\n      tag_9\n      0x04\n      dup1\n      calldatasize\n      sub\n      dup2\n      add\n      swap1\n      tag_10\n      swap2\n      swap1\n      tag_11\n      jump\t// in\n    tag_10:\n      tag_12\n      jump\t// in\n    tag_9:\n      mload(0x40)\n      tag_13\n      swap2\n      swap1\n      tag_14\n      jump\t// in\n    tag_13:\n      mload(0x40)\n      dup1\n      swap2\n      sub\n      swap1\n      return\n        /* \".workspaces/default_workspace/unMiracle/UMRproposal.sol\":444:1239  function state(uint256 proposalId) public view returns (ProposalState) {... */\n    tag_4:\n      tag_15\n      0x04\n      dup1\n      calldatasize\n      sub\n      dup2\n      add\n      swap1\n      tag_16\n      swap2\n      swap1\n      tag_11\n      jump\t// in\n    tag_16:\n      tag_17\n      jump\t// in\n    tag_15:\n      mload(0x40)\n      tag_18\n      swap2\n      swap1\n      tag_19\n      jump\t// in\n    tag_18:\n      mload(0x40)\n      dup1\n      swap2\n      sub\n      swap1\n      return\n        /* \".workspaces/default_workspace/unMiracle/UMRproposal.sol\":1628:2764  function proposal(... */\n    tag_5:\n      tag_20\n      0x04\n      dup1\n      calldatasize\n      sub\n      dup2\n      add\n      swap1\n      tag_21\n      swap2\n      swap1\n      tag_22\n      jump\t// in\n    tag_21:\n      tag_23\n      jump\t// in\n    tag_20:\n      mload(0x40)\n      tag_24\n      swap2\n      swap1\n      tag_14\n      jump\t// in\n    tag_24:\n      mload(0x40)\n      dup1\n      swap2\n      sub\n      swap1\n      return\n        /* \".workspaces/default_workspace/unMiracle/UMRproposal.sol\":2997:3153  function proposalDeadline(uint256 proposalId) public view virtual returns (uint256) {... */\n    tag_6:\n      tag_25\n      0x04\n      dup1\n      calldatasize\n      sub\n      dup2\n      add\n      swap1\n      tag_26\n      swap2\n      swap1\n      tag_11\n      jump\t// in\n    tag_26:\n      tag_27\n      jump\t// in\n    tag_25:\n      mload(0x40)\n      tag_28\n      swap2\n      swap1\n      tag_14\n      jump\t// in\n    tag_28:\n      mload(0x40)\n      dup1\n      swap2\n      sub\n      swap1\n      return\n        /* \".workspaces/default_workspace/unMiracle/UMRproposal.sol\":1246:1622  function hashProposal(... */\n    tag_7:\n      tag_29\n      0x04\n      dup1\n      calldatasize\n      sub\n      dup2\n      add\n      swap1\n      tag_30\n      swap2\n      swap1\n      tag_31\n      jump\t// in\n    tag_30:\n      tag_32\n      jump\t// in\n    tag_29:\n      mload(0x40)\n      tag_33\n      swap2\n      swap1\n      tag_14\n      jump\t// in\n    tag_33:\n      mload(0x40)\n      dup1\n      swap2\n      sub\n      swap1\n      return\n        /* \".workspaces/default_workspace/unMiracle/UMRproposal.sol\":3190:3351  function proposalDonateMinimum(uint256 proposalId) public view virtual returns (uint256) {... */\n    tag_8:\n      tag_34\n      0x04\n      dup1\n      calldatasize\n      sub\n      dup2\n      add\n      swap1\n      tag_35\n      swap2\n      swap1\n      tag_11\n      jump\t// in\n    tag_35:\n      tag_36\n      jump\t// in\n    tag_34:\n      mload(0x40)\n      tag_37\n      swap2\n      swap1\n      tag_14\n      jump\t// in\n    tag_37:\n      mload(0x40)\n      dup1\n      swap2\n      sub\n      swap1\n      return\n        /* \".workspaces/default_workspace/unMiracle/UMRproposal.sol\":2802:2960  function proposalSnapshot(uint256 proposalId) public view virtual returns (uint256) {... */\n    tag_12:\n        /* \".workspaces/default_workspace/unMiracle/UMRproposal.sol\":2877:2884  uint256 */\n      0x00\n        /* \".workspaces/default_workspace/unMiracle/UMRproposal.sol\":2903:2953  _proposals[proposalId].donationStart.getDeadline() */\n      tag_39\n        /* \".workspaces/default_workspace/unMiracle/UMRproposal.sol\":2903:2913  _proposals */\n      0x00\n        /* \".workspaces/default_workspace/unMiracle/UMRproposal.sol\":2903:2925  _proposals[proposalId] */\n      dup1\n        /* \".workspaces/default_workspace/unMiracle/UMRproposal.sol\":2914:2924  proposalId */\n      dup5\n        /* \".workspaces/default_workspace/unMiracle/UMRproposal.sol\":2903:2925  _proposals[proposalId] */\n      dup2\n      mstore\n      0x20\n      add\n      swap1\n      dup2\n      mstore\n      0x20\n      add\n      0x00\n      keccak256\n        /* \".workspaces/default_workspace/unMiracle/UMRproposal.sol\":2903:2939  _proposals[proposalId].donationStart */\n      0x00\n      add\n        /* \".workspaces/default_workspace/unMiracle/UMRproposal.sol\":2903:2951  _proposals[proposalId].donationStart.getDeadline */\n      mload(0x40)\n      dup1\n      0x40\n      add\n      0x40\n      mstore\n      swap1\n      dup2\n      0x00\n      dup3\n      add\n      sload\n      dup2\n      mstore\n      0x20\n      add\n      0x01\n      dup3\n      add\n      sload\n      dup2\n      mstore\n      pop\n      pop\n      tag_40\n        /* \".workspaces/default_workspace/unMiracle/UMRproposal.sol\":2903:2953  _proposals[proposalId].donationStart.getDeadline() */\n      jump\t// in\n    tag_39:\n        /* \".workspaces/default_workspace/unMiracle/UMRproposal.sol\":2896:2953  return _proposals[proposalId].donationStart.getDeadline() */\n      swap1\n      pop\n        /* \".workspaces/default_workspace/unMiracle/UMRproposal.sol\":2802:2960  function proposalSnapshot(uint256 proposalId) public view virtual returns (uint256) {... */\n      swap2\n      swap1\n      pop\n      jump\t// out\n        /* \".workspaces/default_workspace/unMiracle/UMRproposal.sol\":444:1239  function state(uint256 proposalId) public view returns (ProposalState) {... */\n    tag_17:\n        /* \".workspaces/default_workspace/unMiracle/UMRproposal.sol\":500:513  ProposalState */\n      0x00\n        /* \".workspaces/default_workspace/unMiracle/UMRproposal.sol\":525:554  ProposalCore storage proposal */\n      dup1\n        /* \".workspaces/default_workspace/unMiracle/UMRproposal.sol\":557:567  _proposals */\n      0x00\n        /* \".workspaces/default_workspace/unMiracle/UMRproposal.sol\":557:579  _proposals[proposalId] */\n      dup1\n        /* \".workspaces/default_workspace/unMiracle/UMRproposal.sol\":568:578  proposalId */\n      dup5\n        /* \".workspaces/default_workspace/unMiracle/UMRproposal.sol\":557:579  _proposals[proposalId] */\n      dup2\n      mstore\n      0x20\n      add\n      swap1\n      dup2\n      mstore\n      0x20\n      add\n      0x00\n      keccak256\n        /* \".workspaces/default_workspace/unMiracle/UMRproposal.sol\":525:579  ProposalCore storage proposal = _proposals[proposalId] */\n      swap1\n      pop\n        /* \".workspaces/default_workspace/unMiracle/UMRproposal.sol\":658:666  proposal */\n      dup1\n        /* \".workspaces/default_workspace/unMiracle/UMRproposal.sol\":658:675  proposal.executed */\n      0x06\n      add\n      0x00\n      swap1\n      sload\n      swap1\n      0x0100\n      exp\n      swap1\n      div\n      0xff\n      and\n        /* \".workspaces/default_workspace/unMiracle/UMRproposal.sol\":654:731  if (proposal.executed) {... */\n      iszero\n      tag_42\n      jumpi\n        /* \".workspaces/default_workspace/unMiracle/UMRproposal.sol\":698:720  ProposalState.Executed */\n      0x07\n        /* \".workspaces/default_workspace/unMiracle/UMRproposal.sol\":691:720  return ProposalState.Executed */\n      swap2\n      pop\n      pop\n      jump(tag_41)\n        /* \".workspaces/default_workspace/unMiracle/UMRproposal.sol\":654:731  if (proposal.executed) {... */\n    tag_42:\n        /* \".workspaces/default_workspace/unMiracle/UMRproposal.sol\":785:793  proposal */\n      dup1\n        /* \".workspaces/default_workspace/unMiracle/UMRproposal.sol\":785:802  proposal.canceled */\n      0x06\n      add\n      0x01\n      swap1\n      sload\n      swap1\n      0x0100\n      exp\n      swap1\n      div\n      0xff\n      and\n        /* \".workspaces/default_workspace/unMiracle/UMRproposal.sol\":781:858  if (proposal.canceled) {... */\n      iszero\n      tag_43\n      jumpi\n        /* \".workspaces/default_workspace/unMiracle/UMRproposal.sol\":825:847  ProposalState.Canceled */\n      0x02\n        /* \".workspaces/default_workspace/unMiracle/UMRproposal.sol\":818:847  return ProposalState.Canceled */\n      swap2\n      pop\n      pop\n      jump(tag_41)\n        /* \".workspaces/default_workspace/unMiracle/UMRproposal.sol\":781:858  if (proposal.canceled) {... */\n    tag_43:\n        /* \".workspaces/default_workspace/unMiracle/UMRproposal.sol\":868:884  uint256 snapshot */\n      0x00\n        /* \".workspaces/default_workspace/unMiracle/UMRproposal.sol\":887:915  proposalSnapshot(proposalId) */\n      tag_44\n        /* \".workspaces/default_workspace/unMiracle/UMRproposal.sol\":904:914  proposalId */\n      dup5\n        /* \".workspaces/default_workspace/unMiracle/UMRproposal.sol\":887:903  proposalSnapshot */\n      tag_12\n        /* \".workspaces/default_workspace/unMiracle/UMRproposal.sol\":887:915  proposalSnapshot(proposalId) */\n      jump\t// in\n    tag_44:\n        /* \".workspaces/default_workspace/unMiracle/UMRproposal.sol\":868:915  uint256 snapshot = proposalSnapshot(proposalId) */\n      swap1\n      pop\n        /* \".workspaces/default_workspace/unMiracle/UMRproposal.sol\":981:996  block.timestamp */\n      timestamp\n        /* \".workspaces/default_workspace/unMiracle/UMRproposal.sol\":969:977  snapshot */\n      dup2\n        /* \".workspaces/default_workspace/unMiracle/UMRproposal.sol\":969:996  snapshot >= block.timestamp */\n      lt\n        /* \".workspaces/default_workspace/unMiracle/UMRproposal.sol\":965:1051  if (snapshot >= block.timestamp) {... */\n      tag_45\n      jumpi\n        /* \".workspaces/default_workspace/unMiracle/UMRproposal.sol\":1019:1040  ProposalState.Pending */\n      0x00\n        /* \".workspaces/default_workspace/unMiracle/UMRproposal.sol\":1012:1040  return ProposalState.Pending */\n      swap3\n      pop\n      pop\n      pop\n      jump(tag_41)\n        /* \".workspaces/default_workspace/unMiracle/UMRproposal.sol\":965:1051  if (snapshot >= block.timestamp) {... */\n    tag_45:\n        /* \".workspaces/default_workspace/unMiracle/UMRproposal.sol\":1061:1077  uint256 deadline */\n      0x00\n        /* \".workspaces/default_workspace/unMiracle/UMRproposal.sol\":1080:1108  proposalDeadline(proposalId) */\n      tag_46\n        /* \".workspaces/default_workspace/unMiracle/UMRproposal.sol\":1097:1107  proposalId */\n      dup6\n        /* \".workspaces/default_workspace/unMiracle/UMRproposal.sol\":1080:1096  proposalDeadline */\n      tag_27\n        /* \".workspaces/default_workspace/unMiracle/UMRproposal.sol\":1080:1108  proposalDeadline(proposalId) */\n      jump\t// in\n    tag_46:\n        /* \".workspaces/default_workspace/unMiracle/UMRproposal.sol\":1061:1108  uint256 deadline = proposalDeadline(proposalId) */\n      swap1\n      pop\n        /* \".workspaces/default_workspace/unMiracle/UMRproposal.sol\":1164:1179  block.timestamp */\n      timestamp\n        /* \".workspaces/default_workspace/unMiracle/UMRproposal.sol\":1152:1160  deadline */\n      dup2\n        /* \".workspaces/default_workspace/unMiracle/UMRproposal.sol\":1152:1179  deadline >= block.timestamp */\n      lt\n        /* \".workspaces/default_workspace/unMiracle/UMRproposal.sol\":1148:1233  if (deadline >= block.timestamp) {... */\n      tag_47\n      jumpi\n        /* \".workspaces/default_workspace/unMiracle/UMRproposal.sol\":1202:1222  ProposalState.Active */\n      0x01\n        /* \".workspaces/default_workspace/unMiracle/UMRproposal.sol\":1195:1222  return ProposalState.Active */\n      swap4\n      pop\n      pop\n      pop\n      pop\n      jump(tag_41)\n        /* \".workspaces/default_workspace/unMiracle/UMRproposal.sol\":1148:1233  if (deadline >= block.timestamp) {... */\n    tag_47:\n        /* \".workspaces/default_workspace/unMiracle/UMRproposal.sol\":515:1239  {... */\n      pop\n      pop\n      pop\n        /* \".workspaces/default_workspace/unMiracle/UMRproposal.sol\":444:1239  function state(uint256 proposalId) public view returns (ProposalState) {... */\n    tag_41:\n      swap2\n      swap1\n      pop\n      jump\t// out\n        /* \".workspaces/default_workspace/unMiracle/UMRproposal.sol\":1628:2764  function proposal(... */\n    tag_23:\n        /* \".workspaces/default_workspace/unMiracle/UMRproposal.sol\":2028:2035  uint256 */\n      0x00\n        /* \".workspaces/default_workspace/unMiracle/UMRproposal.sol\":2077:2093  address proposer */\n      dup1\n        /* \".workspaces/default_workspace/unMiracle/UMRproposal.sol\":2096:2106  msg.sender */\n      caller\n        /* \".workspaces/default_workspace/unMiracle/UMRproposal.sol\":2077:2106  address proposer = msg.sender */\n      swap1\n      pop\n        /* \".workspaces/default_workspace/unMiracle/UMRproposal.sol\":2149:2167  uint256 proposalId */\n      0x00\n        /* \".workspaces/default_workspace/unMiracle/UMRproposal.sol\":2170:2246  hashProposal(proposer,destination, calldatas, keccak256(bytes(description))) */\n      tag_49\n        /* \".workspaces/default_workspace/unMiracle/UMRproposal.sol\":2183:2191  proposer */\n      dup3\n        /* \".workspaces/default_workspace/unMiracle/UMRproposal.sol\":2192:2203  destination */\n      dup8\n        /* \".workspaces/default_workspace/unMiracle/UMRproposal.sol\":2205:2214  calldatas */\n      dup7\n        /* \".workspaces/default_workspace/unMiracle/UMRproposal.sol\":2232:2243  description */\n      dup9\n        /* \".workspaces/default_workspace/unMiracle/UMRproposal.sol\":2216:2245  keccak256(bytes(description)) */\n      dup1\n      mload\n      swap1\n      0x20\n      add\n      keccak256\n        /* \".workspaces/default_workspace/unMiracle/UMRproposal.sol\":2170:2182  hashProposal */\n      tag_32\n        /* \".workspaces/default_workspace/unMiracle/UMRproposal.sol\":2170:2246  hashProposal(proposer,destination, calldatas, keccak256(bytes(description))) */\n      jump\t// in\n    tag_49:\n        /* \".workspaces/default_workspace/unMiracle/UMRproposal.sol\":2149:2246  uint256 proposalId = hashProposal(proposer,destination, calldatas, keccak256(bytes(description))) */\n      swap1\n      pop\n        /* \".workspaces/default_workspace/unMiracle/UMRproposal.sol\":2289:2318  ProposalCore storage proposal */\n      0x00\n        /* \".workspaces/default_workspace/unMiracle/UMRproposal.sol\":2321:2331  _proposals */\n      dup1\n        /* \".workspaces/default_workspace/unMiracle/UMRproposal.sol\":2321:2343  _proposals[proposalId] */\n      0x00\n        /* \".workspaces/default_workspace/unMiracle/UMRproposal.sol\":2332:2342  proposalId */\n      dup4\n        /* \".workspaces/default_workspace/unMiracle/UMRproposal.sol\":2321:2343  _proposals[proposalId] */\n      dup2\n      mstore\n      0x20\n      add\n      swap1\n      dup2\n      mstore\n      0x20\n      add\n      0x00\n      keccak256\n        /* \".workspaces/default_workspace/unMiracle/UMRproposal.sol\":2289:2343  ProposalCore storage proposal = _proposals[proposalId] */\n      swap1\n      pop\n        /* \".workspaces/default_workspace/unMiracle/UMRproposal.sol\":2386:2402  uint256 snapshot */\n      0x00\n        /* \".workspaces/default_workspace/unMiracle/UMRproposal.sol\":2442:2444  60 */\n      0x3c\n        /* \".workspaces/default_workspace/unMiracle/UMRproposal.sol\":2439:2441  60 */\n      dup1\n        /* \".workspaces/default_workspace/unMiracle/UMRproposal.sol\":2436:2438  24 */\n      0x18\n        /* \".workspaces/default_workspace/unMiracle/UMRproposal.sol\":2424:2435  donateDelay */\n      dup14\n        /* \".workspaces/default_workspace/unMiracle/UMRproposal.sol\":2424:2438  donateDelay*24 */\n      tag_50\n      swap2\n      swap1\n      tag_51\n      jump\t// in\n    tag_50:\n        /* \".workspaces/default_workspace/unMiracle/UMRproposal.sol\":2424:2441  donateDelay*24*60 */\n      tag_52\n      swap2\n      swap1\n      tag_51\n      jump\t// in\n    tag_52:\n        /* \".workspaces/default_workspace/unMiracle/UMRproposal.sol\":2424:2444  donateDelay*24*60*60 */\n      tag_53\n      swap2\n      swap1\n      tag_51\n      jump\t// in\n    tag_53:\n        /* \".workspaces/default_workspace/unMiracle/UMRproposal.sol\":2406:2421  block.timestamp */\n      timestamp\n        /* \".workspaces/default_workspace/unMiracle/UMRproposal.sol\":2406:2444  block.timestamp + donateDelay*24*60*60 */\n      tag_54\n      swap2\n      swap1\n      tag_55\n      jump\t// in\n    tag_54:\n        /* \".workspaces/default_workspace/unMiracle/UMRproposal.sol\":2386:2444  uint256 snapshot =  block.timestamp + donateDelay*24*60*60 */\n      swap1\n      pop\n        /* \".workspaces/default_workspace/unMiracle/UMRproposal.sol\":2486:2502  uint256 deadline */\n      0x00\n        /* \".workspaces/default_workspace/unMiracle/UMRproposal.sol\":2535:2537  60 */\n      0x3c\n        /* \".workspaces/default_workspace/unMiracle/UMRproposal.sol\":2532:2534  60 */\n      dup1\n        /* \".workspaces/default_workspace/unMiracle/UMRproposal.sol\":2529:2531  24 */\n      0x18\n        /* \".workspaces/default_workspace/unMiracle/UMRproposal.sol\":2516:2528  donatePeriod */\n      dup14\n        /* \".workspaces/default_workspace/unMiracle/UMRproposal.sol\":2516:2531  donatePeriod*24 */\n      tag_56\n      swap2\n      swap1\n      tag_51\n      jump\t// in\n    tag_56:\n        /* \".workspaces/default_workspace/unMiracle/UMRproposal.sol\":2516:2534  donatePeriod*24*60 */\n      tag_57\n      swap2\n      swap1\n      tag_51\n      jump\t// in\n    tag_57:\n        /* \".workspaces/default_workspace/unMiracle/UMRproposal.sol\":2516:2537  donatePeriod*24*60*60 */\n      tag_58\n      swap2\n      swap1\n      tag_51\n      jump\t// in\n    tag_58:\n        /* \".workspaces/default_workspace/unMiracle/UMRproposal.sol\":2505:2513  snapshot */\n      dup3\n        /* \".workspaces/default_workspace/unMiracle/UMRproposal.sol\":2505:2537  snapshot + donatePeriod*24*60*60 */\n      tag_59\n      swap2\n      swap1\n      tag_55\n      jump\t// in\n    tag_59:\n        /* \".workspaces/default_workspace/unMiracle/UMRproposal.sol\":2486:2537  uint256 deadline = snapshot + donatePeriod*24*60*60 */\n      swap1\n      pop\n        /* \".workspaces/default_workspace/unMiracle/UMRproposal.sol\":2576:2620  proposal.donationStart.setDeadline(snapshot) */\n      tag_60\n        /* \".workspaces/default_workspace/unMiracle/UMRproposal.sol\":2611:2619  snapshot */\n      dup3\n        /* \".workspaces/default_workspace/unMiracle/UMRproposal.sol\":2576:2584  proposal */\n      dup5\n        /* \".workspaces/default_workspace/unMiracle/UMRproposal.sol\":2576:2598  proposal.donationStart */\n      0x00\n      add\n        /* \".workspaces/default_workspace/unMiracle/UMRproposal.sol\":2576:2610  proposal.donationStart.setDeadline */\n      tag_61\n      swap1\n        /* \".workspaces/default_workspace/unMiracle/UMRproposal.sol\":2576:2620  proposal.donationStart.setDeadline(snapshot) */\n      swap2\n      swap1\n      0xffffffff\n      and\n      jump\t// in\n    tag_60:\n        /* \".workspaces/default_workspace/unMiracle/UMRproposal.sol\":2630:2672  proposal.donationEnd.setDeadline(deadline) */\n      tag_62\n        /* \".workspaces/default_workspace/unMiracle/UMRproposal.sol\":2663:2671  deadline */\n      dup2\n        /* \".workspaces/default_workspace/unMiracle/UMRproposal.sol\":2630:2638  proposal */\n      dup5\n        /* \".workspaces/default_workspace/unMiracle/UMRproposal.sol\":2630:2650  proposal.donationEnd */\n      0x02\n      add\n        /* \".workspaces/default_workspace/unMiracle/UMRproposal.sol\":2630:2662  proposal.donationEnd.setDeadline */\n      tag_61\n      swap1\n        /* \".workspaces/default_workspace/unMiracle/UMRproposal.sol\":2630:2672  proposal.donationEnd.setDeadline(deadline) */\n      swap2\n      swap1\n      0xffffffff\n      and\n      jump\t// in\n    tag_62:\n        /* \".workspaces/default_workspace/unMiracle/UMRproposal.sol\":2682:2729  proposal.donateMinimum.setAmount(donateMinimum) */\n      tag_63\n        /* \".workspaces/default_workspace/unMiracle/UMRproposal.sol\":2715:2728  donateMinimum */\n      dup11\n        /* \".workspaces/default_workspace/unMiracle/UMRproposal.sol\":2682:2690  proposal */\n      dup5\n        /* \".workspaces/default_workspace/unMiracle/UMRproposal.sol\":2682:2704  proposal.donateMinimum */\n      0x04\n      add\n        /* \".workspaces/default_workspace/unMiracle/UMRproposal.sol\":2682:2714  proposal.donateMinimum.setAmount */\n      tag_64\n      swap1\n        /* \".workspaces/default_workspace/unMiracle/UMRproposal.sol\":2682:2729  proposal.donateMinimum.setAmount(donateMinimum) */\n      swap2\n      swap1\n      0xffffffff\n      and\n      jump\t// in\n    tag_63:\n        /* \".workspaces/default_workspace/unMiracle/UMRproposal.sol\":2747:2757  proposalId */\n      dup4\n        /* \".workspaces/default_workspace/unMiracle/UMRproposal.sol\":2740:2757  return proposalId */\n      swap6\n      pop\n      pop\n      pop\n      pop\n      pop\n      pop\n        /* \".workspaces/default_workspace/unMiracle/UMRproposal.sol\":1628:2764  function proposal(... */\n      swap7\n      swap6\n      pop\n      pop\n      pop\n      pop\n      pop\n      pop\n      jump\t// out\n        /* \".workspaces/default_workspace/unMiracle/UMRproposal.sol\":2997:3153  function proposalDeadline(uint256 proposalId) public view virtual returns (uint256) {... */\n    tag_27:\n        /* \".workspaces/default_workspace/unMiracle/UMRproposal.sol\":3072:3079  uint256 */\n      0x00\n        /* \".workspaces/default_workspace/unMiracle/UMRproposal.sol\":3098:3146  _proposals[proposalId].donationEnd.getDeadline() */\n      tag_66\n        /* \".workspaces/default_workspace/unMiracle/UMRproposal.sol\":3098:3108  _proposals */\n      0x00\n        /* \".workspaces/default_workspace/unMiracle/UMRproposal.sol\":3098:3120  _proposals[proposalId] */\n      dup1\n        /* \".workspaces/default_workspace/unMiracle/UMRproposal.sol\":3109:3119  proposalId */\n      dup5\n        /* \".workspaces/default_workspace/unMiracle/UMRproposal.sol\":3098:3120  _proposals[proposalId] */\n      dup2\n      mstore\n      0x20\n      add\n      swap1\n      dup2\n      mstore\n      0x20\n      add\n      0x00\n      keccak256\n        /* \".workspaces/default_workspace/unMiracle/UMRproposal.sol\":3098:3132  _proposals[proposalId].donationEnd */\n      0x02\n      add\n        /* \".workspaces/default_workspace/unMiracle/UMRproposal.sol\":3098:3144  _proposals[proposalId].donationEnd.getDeadline */\n      mload(0x40)\n      dup1\n      0x40\n      add\n      0x40\n      mstore\n      swap1\n      dup2\n      0x00\n      dup3\n      add\n      sload\n      dup2\n      mstore\n      0x20\n      add\n      0x01\n      dup3\n      add\n      sload\n      dup2\n      mstore\n      pop\n      pop\n      tag_40\n        /* \".workspaces/default_workspace/unMiracle/UMRproposal.sol\":3098:3146  _proposals[proposalId].donationEnd.getDeadline() */\n      jump\t// in\n    tag_66:\n        /* \".workspaces/default_workspace/unMiracle/UMRproposal.sol\":3091:3146  return _proposals[proposalId].donationEnd.getDeadline() */\n      swap1\n      pop\n        /* \".workspaces/default_workspace/unMiracle/UMRproposal.sol\":2997:3153  function proposalDeadline(uint256 proposalId) public view virtual returns (uint256) {... */\n      swap2\n      swap1\n      pop\n      jump\t// out\n        /* \".workspaces/default_workspace/unMiracle/UMRproposal.sol\":1246:1622  function hashProposal(... */\n    tag_32:\n        /* \".workspaces/default_workspace/unMiracle/UMRproposal.sol\":1509:1516  uint256 */\n      0x00\n        /* \".workspaces/default_workspace/unMiracle/UMRproposal.sol\":1564:1572  proposer */\n      dup5\n        /* \".workspaces/default_workspace/unMiracle/UMRproposal.sol\":1573:1584  destination */\n      dup5\n        /* \".workspaces/default_workspace/unMiracle/UMRproposal.sol\":1586:1595  calldatas */\n      dup5\n        /* \".workspaces/default_workspace/unMiracle/UMRproposal.sol\":1597:1612  descriptionHash */\n      dup5\n        /* \".workspaces/default_workspace/unMiracle/UMRproposal.sol\":1553:1613  abi.encode(proposer,destination, calldatas, descriptionHash) */\n      add(0x20, mload(0x40))\n      tag_68\n      swap5\n      swap4\n      swap3\n      swap2\n      swap1\n      tag_69\n      jump\t// in\n    tag_68:\n      mload(0x40)\n      0x20\n      dup2\n      dup4\n      sub\n      sub\n      dup2\n      mstore\n      swap1\n      0x40\n      mstore\n        /* \".workspaces/default_workspace/unMiracle/UMRproposal.sol\":1543:1614  keccak256(abi.encode(proposer,destination, calldatas, descriptionHash)) */\n      dup1\n      mload\n      swap1\n      0x20\n      add\n      keccak256\n        /* \".workspaces/default_workspace/unMiracle/UMRproposal.sol\":1535:1615  uint256(keccak256(abi.encode(proposer,destination, calldatas, descriptionHash))) */\n      0x00\n      shr\n        /* \".workspaces/default_workspace/unMiracle/UMRproposal.sol\":1528:1615  return uint256(keccak256(abi.encode(proposer,destination, calldatas, descriptionHash))) */\n      swap1\n      pop\n        /* \".workspaces/default_workspace/unMiracle/UMRproposal.sol\":1246:1622  function hashProposal(... */\n      swap5\n      swap4\n      pop\n      pop\n      pop\n      pop\n      jump\t// out\n        /* \".workspaces/default_workspace/unMiracle/UMRproposal.sol\":3190:3351  function proposalDonateMinimum(uint256 proposalId) public view virtual returns (uint256) {... */\n    tag_36:\n        /* \".workspaces/default_workspace/unMiracle/UMRproposal.sol\":3270:3277  uint256 */\n      0x00\n        /* \".workspaces/default_workspace/unMiracle/UMRproposal.sol\":3296:3344  _proposals[proposalId].donateMinimum.getAmount() */\n      tag_71\n        /* \".workspaces/default_workspace/unMiracle/UMRproposal.sol\":3296:3306  _proposals */\n      0x00\n        /* \".workspaces/default_workspace/unMiracle/UMRproposal.sol\":3296:3318  _proposals[proposalId] */\n      dup1\n        /* \".workspaces/default_workspace/unMiracle/UMRproposal.sol\":3307:3317  proposalId */\n      dup5\n        /* \".workspaces/default_workspace/unMiracle/UMRproposal.sol\":3296:3318  _proposals[proposalId] */\n      dup2\n      mstore\n      0x20\n      add\n      swap1\n      dup2\n      mstore\n      0x20\n      add\n      0x00\n      keccak256\n        /* \".workspaces/default_workspace/unMiracle/UMRproposal.sol\":3296:3332  _proposals[proposalId].donateMinimum */\n      0x04\n      add\n        /* \".workspaces/default_workspace/unMiracle/UMRproposal.sol\":3296:3342  _proposals[proposalId].donateMinimum.getAmount */\n      mload(0x40)\n      dup1\n      0x40\n      add\n      0x40\n      mstore\n      swap1\n      dup2\n      0x00\n      dup3\n      add\n      sload\n      dup2\n      mstore\n      0x20\n      add\n      0x01\n      dup3\n      add\n      sload\n      dup2\n      mstore\n      pop\n      pop\n      tag_72\n        /* \".workspaces/default_workspace/unMiracle/UMRproposal.sol\":3296:3344  _proposals[proposalId].donateMinimum.getAmount() */\n      jump\t// in\n    tag_71:\n        /* \".workspaces/default_workspace/unMiracle/UMRproposal.sol\":3289:3344  return _proposals[proposalId].donateMinimum.getAmount() */\n      swap1\n      pop\n        /* \".workspaces/default_workspace/unMiracle/UMRproposal.sol\":3190:3351  function proposalDonateMinimum(uint256 proposalId) public view virtual returns (uint256) {... */\n      swap2\n      swap1\n      pop\n      jump\t// out\n        /* \".workspaces/default_workspace/unMiracle/utils/setting.sol\":354:464  function getDeadline(SetInfo memory info) internal pure returns(uint256) {... */\n    tag_40:\n        /* \".workspaces/default_workspace/unMiracle/utils/setting.sol\":418:425  uint256 */\n      0x00\n        /* \".workspaces/default_workspace/unMiracle/utils/setting.sol\":444:448  info */\n      dup2\n        /* \".workspaces/default_workspace/unMiracle/utils/setting.sol\":444:457  info.deadline */\n      0x00\n      add\n      mload\n        /* \".workspaces/default_workspace/unMiracle/utils/setting.sol\":437:457  return info.deadline */\n      swap1\n      pop\n        /* \".workspaces/default_workspace/unMiracle/utils/setting.sol\":354:464  function getDeadline(SetInfo memory info) internal pure returns(uint256) {... */\n      swap2\n      swap1\n      pop\n      jump\t// out\n        /* \".workspaces/default_workspace/unMiracle/utils/setting.sol\":228:348  function setDeadline(SetInfo storage info, uint256 timestamp) internal {... */\n    tag_61:\n        /* \".workspaces/default_workspace/unMiracle/utils/setting.sol\":337:341  1000 */\n      0x03e8\n        /* \".workspaces/default_workspace/unMiracle/utils/setting.sol\":325:334  timestamp */\n      dup2\n        /* \".workspaces/default_workspace/unMiracle/utils/setting.sol\":325:341  timestamp * 1000 */\n      tag_75\n      swap2\n      swap1\n      tag_51\n      jump\t// in\n    tag_75:\n        /* \".workspaces/default_workspace/unMiracle/utils/setting.sol\":309:313  info */\n      dup3\n        /* \".workspaces/default_workspace/unMiracle/utils/setting.sol\":309:322  info.deadline */\n      0x00\n      add\n        /* \".workspaces/default_workspace/unMiracle/utils/setting.sol\":309:341  info.deadline = timestamp * 1000 */\n      dup2\n      swap1\n      sstore\n      pop\n        /* \".workspaces/default_workspace/unMiracle/utils/setting.sol\":228:348  function setDeadline(SetInfo storage info, uint256 timestamp) internal {... */\n      pop\n      pop\n      jump\t// out\n        /* \".workspaces/default_workspace/unMiracle/utils/setting.sol\":470:573  function setAmount(SetInfo storage info, uint256 amount) internal {... */\n    tag_64:\n        /* \".workspaces/default_workspace/unMiracle/utils/setting.sol\":560:566  amount */\n      dup1\n        /* \".workspaces/default_workspace/unMiracle/utils/setting.sol\":546:550  info */\n      dup3\n        /* \".workspaces/default_workspace/unMiracle/utils/setting.sol\":546:557  info.amount */\n      0x01\n      add\n        /* \".workspaces/default_workspace/unMiracle/utils/setting.sol\":546:566  info.amount = amount */\n      dup2\n      swap1\n      sstore\n      pop\n        /* \".workspaces/default_workspace/unMiracle/utils/setting.sol\":470:573  function setAmount(SetInfo storage info, uint256 amount) internal {... */\n      pop\n      pop\n      jump\t// out\n        /* \".workspaces/default_workspace/unMiracle/utils/setting.sol\":579:685  function getAmount(SetInfo memory info) internal pure returns(uint256) {... */\n    tag_72:\n        /* \".workspaces/default_workspace/unMiracle/utils/setting.sol\":641:648  uint256 */\n      0x00\n        /* \".workspaces/default_workspace/unMiracle/utils/setting.sol\":667:671  info */\n      dup2\n        /* \".workspaces/default_workspace/unMiracle/utils/setting.sol\":667:678  info.amount */\n      0x20\n      add\n      mload\n        /* \".workspaces/default_workspace/unMiracle/utils/setting.sol\":660:678  return info.amount */\n      swap1\n      pop\n        /* \".workspaces/default_workspace/unMiracle/utils/setting.sol\":579:685  function getAmount(SetInfo memory info) internal pure returns(uint256) {... */\n      swap2\n      swap1\n      pop\n      jump\t// out\n        /* \"#utility.yul\":7:82   */\n    tag_78:\n        /* \"#utility.yul\":40:46   */\n      0x00\n        /* \"#utility.yul\":73:75   */\n      0x40\n        /* \"#utility.yul\":67:76   */\n      mload\n        /* \"#utility.yul\":57:76   */\n      swap1\n      pop\n        /* \"#utility.yul\":7:82   */\n      swap1\n      jump\t// out\n        /* \"#utility.yul\":88:205   */\n    tag_79:\n        /* \"#utility.yul\":197:198   */\n      0x00\n        /* \"#utility.yul\":194:195   */\n      dup1\n        /* \"#utility.yul\":187:199   */\n      revert\n        /* \"#utility.yul\":211:328   */\n    tag_80:\n        /* \"#utility.yul\":320:321   */\n      0x00\n        /* \"#utility.yul\":317:318   */\n      dup1\n        /* \"#utility.yul\":310:322   */\n      revert\n        /* \"#utility.yul\":334:411   */\n    tag_81:\n        /* \"#utility.yul\":371:378   */\n      0x00\n        /* \"#utility.yul\":400:405   */\n      dup2\n        /* \"#utility.yul\":389:405   */\n      swap1\n      pop\n        /* \"#utility.yul\":334:411   */\n      swap2\n      swap1\n      pop\n      jump\t// out\n        /* \"#utility.yul\":417:539   */\n    tag_82:\n        /* \"#utility.yul\":490:514   */\n      tag_133\n        /* \"#utility.yul\":508:513   */\n      dup2\n        /* \"#utility.yul\":490:514   */\n      tag_81\n      jump\t// in\n    tag_133:\n        /* \"#utility.yul\":483:488   */\n      dup2\n        /* \"#utility.yul\":480:515   */\n      eq\n        /* \"#utility.yul\":470:533   */\n      tag_134\n      jumpi\n        /* \"#utility.yul\":529:530   */\n      0x00\n        /* \"#utility.yul\":526:527   */\n      dup1\n        /* \"#utility.yul\":519:531   */\n      revert\n        /* \"#utility.yul\":470:533   */\n    tag_134:\n        /* \"#utility.yul\":417:539   */\n      pop\n      jump\t// out\n        /* \"#utility.yul\":545:684   */\n    tag_83:\n        /* \"#utility.yul\":591:596   */\n      0x00\n        /* \"#utility.yul\":629:635   */\n      dup2\n        /* \"#utility.yul\":616:636   */\n      calldataload\n        /* \"#utility.yul\":607:636   */\n      swap1\n      pop\n        /* \"#utility.yul\":645:678   */\n      tag_136\n        /* \"#utility.yul\":672:677   */\n      dup2\n        /* \"#utility.yul\":645:678   */\n      tag_82\n      jump\t// in\n    tag_136:\n        /* \"#utility.yul\":545:684   */\n      swap3\n      swap2\n      pop\n      pop\n      jump\t// out\n        /* \"#utility.yul\":690:1019   */\n    tag_11:\n        /* \"#utility.yul\":749:755   */\n      0x00\n        /* \"#utility.yul\":798:800   */\n      0x20\n        /* \"#utility.yul\":786:795   */\n      dup3\n        /* \"#utility.yul\":777:784   */\n      dup5\n        /* \"#utility.yul\":773:796   */\n      sub\n        /* \"#utility.yul\":769:801   */\n      slt\n        /* \"#utility.yul\":766:885   */\n      iszero\n      tag_138\n      jumpi\n        /* \"#utility.yul\":804:883   */\n      tag_139\n      tag_79\n      jump\t// in\n    tag_139:\n        /* \"#utility.yul\":766:885   */\n    tag_138:\n        /* \"#utility.yul\":924:925   */\n      0x00\n        /* \"#utility.yul\":949:1002   */\n      tag_140\n        /* \"#utility.yul\":994:1001   */\n      dup5\n        /* \"#utility.yul\":985:991   */\n      dup3\n        /* \"#utility.yul\":974:983   */\n      dup6\n        /* \"#utility.yul\":970:992   */\n      add\n        /* \"#utility.yul\":949:1002   */\n      tag_83\n      jump\t// in\n    tag_140:\n        /* \"#utility.yul\":939:1002   */\n      swap2\n      pop\n        /* \"#utility.yul\":895:1012   */\n      pop\n        /* \"#utility.yul\":690:1019   */\n      swap3\n      swap2\n      pop\n      pop\n      jump\t// out\n        /* \"#utility.yul\":1025:1143   */\n    tag_84:\n        /* \"#utility.yul\":1112:1136   */\n      tag_142\n        /* \"#utility.yul\":1130:1135   */\n      dup2\n        /* \"#utility.yul\":1112:1136   */\n      tag_81\n      jump\t// in\n    tag_142:\n        /* \"#utility.yul\":1107:1110   */\n      dup3\n        /* \"#utility.yul\":1100:1137   */\n      mstore\n        /* \"#utility.yul\":1025:1143   */\n      pop\n      pop\n      jump\t// out\n        /* \"#utility.yul\":1149:1371   */\n    tag_14:\n        /* \"#utility.yul\":1242:1246   */\n      0x00\n        /* \"#utility.yul\":1280:1282   */\n      0x20\n        /* \"#utility.yul\":1269:1278   */\n      dup3\n        /* \"#utility.yul\":1265:1283   */\n      add\n        /* \"#utility.yul\":1257:1283   */\n      swap1\n      pop\n        /* \"#utility.yul\":1293:1364   */\n      tag_144\n        /* \"#utility.yul\":1361:1362   */\n      0x00\n        /* \"#utility.yul\":1350:1359   */\n      dup4\n        /* \"#utility.yul\":1346:1363   */\n      add\n        /* \"#utility.yul\":1337:1343   */\n      dup5\n        /* \"#utility.yul\":1293:1364   */\n      tag_84\n      jump\t// in\n    tag_144:\n        /* \"#utility.yul\":1149:1371   */\n      swap3\n      swap2\n      pop\n      pop\n      jump\t// out\n        /* \"#utility.yul\":1377:1557   */\n    tag_85:\n        /* \"#utility.yul\":1425:1502   */\n      0x4e487b7100000000000000000000000000000000000000000000000000000000\n        /* \"#utility.yul\":1422:1423   */\n      0x00\n        /* \"#utility.yul\":1415:1503   */\n      mstore\n        /* \"#utility.yul\":1522:1526   */\n      0x21\n        /* \"#utility.yul\":1519:1520   */\n      0x04\n        /* \"#utility.yul\":1512:1527   */\n      mstore\n        /* \"#utility.yul\":1546:1550   */\n      0x24\n        /* \"#utility.yul\":1543:1544   */\n      0x00\n        /* \"#utility.yul\":1536:1551   */\n      revert\n        /* \"#utility.yul\":1563:1684   */\n    tag_86:\n        /* \"#utility.yul\":1652:1653   */\n      0x08\n        /* \"#utility.yul\":1645:1650   */\n      dup2\n        /* \"#utility.yul\":1642:1654   */\n      lt\n        /* \"#utility.yul\":1632:1678   */\n      tag_147\n      jumpi\n        /* \"#utility.yul\":1658:1676   */\n      tag_148\n      tag_85\n      jump\t// in\n    tag_148:\n        /* \"#utility.yul\":1632:1678   */\n    tag_147:\n        /* \"#utility.yul\":1563:1684   */\n      pop\n      jump\t// out\n        /* \"#utility.yul\":1690:1833   */\n    tag_87:\n        /* \"#utility.yul\":1743:1750   */\n      0x00\n        /* \"#utility.yul\":1772:1777   */\n      dup2\n        /* \"#utility.yul\":1761:1777   */\n      swap1\n      pop\n        /* \"#utility.yul\":1778:1827   */\n      tag_150\n        /* \"#utility.yul\":1821:1826   */\n      dup3\n        /* \"#utility.yul\":1778:1827   */\n      tag_86\n      jump\t// in\n    tag_150:\n        /* \"#utility.yul\":1690:1833   */\n      swap2\n      swap1\n      pop\n      jump\t// out\n        /* \"#utility.yul\":1839:1982   */\n    tag_88:\n        /* \"#utility.yul\":1903:1912   */\n      0x00\n        /* \"#utility.yul\":1936:1976   */\n      tag_152\n        /* \"#utility.yul\":1970:1975   */\n      dup3\n        /* \"#utility.yul\":1936:1976   */\n      tag_87\n      jump\t// in\n    tag_152:\n        /* \"#utility.yul\":1923:1976   */\n      swap1\n      pop\n        /* \"#utility.yul\":1839:1982   */\n      swap2\n      swap1\n      pop\n      jump\t// out\n        /* \"#utility.yul\":1988:2147   */\n    tag_89:\n        /* \"#utility.yul\":2089:2140   */\n      tag_154\n        /* \"#utility.yul\":2134:2139   */\n      dup2\n        /* \"#utility.yul\":2089:2140   */\n      tag_88\n      jump\t// in\n    tag_154:\n        /* \"#utility.yul\":2084:2087   */\n      dup3\n        /* \"#utility.yul\":2077:2141   */\n      mstore\n        /* \"#utility.yul\":1988:2147   */\n      pop\n      pop\n      jump\t// out\n        /* \"#utility.yul\":2153:2403   */\n    tag_19:\n        /* \"#utility.yul\":2260:2264   */\n      0x00\n        /* \"#utility.yul\":2298:2300   */\n      0x20\n        /* \"#utility.yul\":2287:2296   */\n      dup3\n        /* \"#utility.yul\":2283:2301   */\n      add\n        /* \"#utility.yul\":2275:2301   */\n      swap1\n      pop\n        /* \"#utility.yul\":2311:2396   */\n      tag_156\n        /* \"#utility.yul\":2393:2394   */\n      0x00\n        /* \"#utility.yul\":2382:2391   */\n      dup4\n        /* \"#utility.yul\":2378:2395   */\n      add\n        /* \"#utility.yul\":2369:2375   */\n      dup5\n        /* \"#utility.yul\":2311:2396   */\n      tag_89\n      jump\t// in\n    tag_156:\n        /* \"#utility.yul\":2153:2403   */\n      swap3\n      swap2\n      pop\n      pop\n      jump\t// out\n        /* \"#utility.yul\":2409:2535   */\n    tag_90:\n        /* \"#utility.yul\":2446:2453   */\n      0x00\n        /* \"#utility.yul\":2486:2528   */\n      0xffffffffffffffffffffffffffffffffffffffff\n        /* \"#utility.yul\":2479:2484   */\n      dup3\n        /* \"#utility.yul\":2475:2529   */\n      and\n        /* \"#utility.yul\":2464:2529   */\n      swap1\n      pop\n        /* \"#utility.yul\":2409:2535   */\n      swap2\n      swap1\n      pop\n      jump\t// out\n        /* \"#utility.yul\":2541:2637   */\n    tag_91:\n        /* \"#utility.yul\":2578:2585   */\n      0x00\n        /* \"#utility.yul\":2607:2631   */\n      tag_159\n        /* \"#utility.yul\":2625:2630   */\n      dup3\n        /* \"#utility.yul\":2607:2631   */\n      tag_90\n      jump\t// in\n    tag_159:\n        /* \"#utility.yul\":2596:2631   */\n      swap1\n      pop\n        /* \"#utility.yul\":2541:2637   */\n      swap2\n      swap1\n      pop\n      jump\t// out\n        /* \"#utility.yul\":2643:2765   */\n    tag_92:\n        /* \"#utility.yul\":2716:2740   */\n      tag_161\n        /* \"#utility.yul\":2734:2739   */\n      dup2\n        /* \"#utility.yul\":2716:2740   */\n      tag_91\n      jump\t// in\n    tag_161:\n        /* \"#utility.yul\":2709:2714   */\n      dup2\n        /* \"#utility.yul\":2706:2741   */\n      eq\n        /* \"#utility.yul\":2696:2759   */\n      tag_162\n      jumpi\n        /* \"#utility.yul\":2755:2756   */\n      0x00\n        /* \"#utility.yul\":2752:2753   */\n      dup1\n        /* \"#utility.yul\":2745:2757   */\n      revert\n        /* \"#utility.yul\":2696:2759   */\n    tag_162:\n        /* \"#utility.yul\":2643:2765   */\n      pop\n      jump\t// out\n        /* \"#utility.yul\":2771:2910   */\n    tag_93:\n        /* \"#utility.yul\":2817:2822   */\n      0x00\n        /* \"#utility.yul\":2855:2861   */\n      dup2\n        /* \"#utility.yul\":2842:2862   */\n      calldataload\n        /* \"#utility.yul\":2833:2862   */\n      swap1\n      pop\n        /* \"#utility.yul\":2871:2904   */\n      tag_164\n        /* \"#utility.yul\":2898:2903   */\n      dup2\n        /* \"#utility.yul\":2871:2904   */\n      tag_92\n      jump\t// in\n    tag_164:\n        /* \"#utility.yul\":2771:2910   */\n      swap3\n      swap2\n      pop\n      pop\n      jump\t// out\n        /* \"#utility.yul\":2916:3033   */\n    tag_94:\n        /* \"#utility.yul\":3025:3026   */\n      0x00\n        /* \"#utility.yul\":3022:3023   */\n      dup1\n        /* \"#utility.yul\":3015:3027   */\n      revert\n        /* \"#utility.yul\":3039:3156   */\n    tag_95:\n        /* \"#utility.yul\":3148:3149   */\n      0x00\n        /* \"#utility.yul\":3145:3146   */\n      dup1\n        /* \"#utility.yul\":3138:3150   */\n      revert\n        /* \"#utility.yul\":3162:3264   */\n    tag_96:\n        /* \"#utility.yul\":3203:3209   */\n      0x00\n        /* \"#utility.yul\":3254:3256   */\n      0x1f\n        /* \"#utility.yul\":3250:3257   */\n      not\n        /* \"#utility.yul\":3245:3247   */\n      0x1f\n        /* \"#utility.yul\":3238:3243   */\n      dup4\n        /* \"#utility.yul\":3234:3248   */\n      add\n        /* \"#utility.yul\":3230:3258   */\n      and\n        /* \"#utility.yul\":3220:3258   */\n      swap1\n      pop\n        /* \"#utility.yul\":3162:3264   */\n      swap2\n      swap1\n      pop\n      jump\t// out\n        /* \"#utility.yul\":3270:3450   */\n    tag_97:\n        /* \"#utility.yul\":3318:3395   */\n      0x4e487b7100000000000000000000000000000000000000000000000000000000\n        /* \"#utility.yul\":3315:3316   */\n      0x00\n        /* \"#utility.yul\":3308:3396   */\n      mstore\n        /* \"#utility.yul\":3415:3419   */\n      0x41\n        /* \"#utility.yul\":3412:3413   */\n      0x04\n        /* \"#utility.yul\":3405:3420   */\n      mstore\n        /* \"#utility.yul\":3439:3443   */\n      0x24\n        /* \"#utility.yul\":3436:3437   */\n      0x00\n        /* \"#utility.yul\":3429:3444   */\n      revert\n        /* \"#utility.yul\":3456:3737   */\n    tag_98:\n        /* \"#utility.yul\":3539:3566   */\n      tag_170\n        /* \"#utility.yul\":3561:3565   */\n      dup3\n        /* \"#utility.yul\":3539:3566   */\n      tag_96\n      jump\t// in\n    tag_170:\n        /* \"#utility.yul\":3531:3537   */\n      dup2\n        /* \"#utility.yul\":3527:3567   */\n      add\n        /* \"#utility.yul\":3669:3675   */\n      dup2\n        /* \"#utility.yul\":3657:3667   */\n      dup2\n        /* \"#utility.yul\":3654:3676   */\n      lt\n        /* \"#utility.yul\":3633:3651   */\n      0xffffffffffffffff\n        /* \"#utility.yul\":3621:3631   */\n      dup3\n        /* \"#utility.yul\":3618:3652   */\n      gt\n        /* \"#utility.yul\":3615:3677   */\n      or\n        /* \"#utility.yul\":3612:3700   */\n      iszero\n      tag_171\n      jumpi\n        /* \"#utility.yul\":3680:3698   */\n      tag_172\n      tag_97\n      jump\t// in\n    tag_172:\n        /* \"#utility.yul\":3612:3700   */\n    tag_171:\n        /* \"#utility.yul\":3720:3730   */\n      dup1\n        /* \"#utility.yul\":3716:3718   */\n      0x40\n        /* \"#utility.yul\":3709:3731   */\n      mstore\n        /* \"#utility.yul\":3499:3737   */\n      pop\n        /* \"#utility.yul\":3456:3737   */\n      pop\n      pop\n      jump\t// out\n        /* \"#utility.yul\":3743:3872   */\n    tag_99:\n        /* \"#utility.yul\":3777:3783   */\n      0x00\n        /* \"#utility.yul\":3804:3824   */\n      tag_174\n      tag_78\n      jump\t// in\n    tag_174:\n        /* \"#utility.yul\":3794:3824   */\n      swap1\n      pop\n        /* \"#utility.yul\":3833:3866   */\n      tag_175\n        /* \"#utility.yul\":3861:3865   */\n      dup3\n        /* \"#utility.yul\":3853:3859   */\n      dup3\n        /* \"#utility.yul\":3833:3866   */\n      tag_98\n      jump\t// in\n    tag_175:\n        /* \"#utility.yul\":3743:3872   */\n      swap2\n      swap1\n      pop\n      jump\t// out\n        /* \"#utility.yul\":3878:4186   */\n    tag_100:\n        /* \"#utility.yul\":3940:3944   */\n      0x00\n        /* \"#utility.yul\":4030:4048   */\n      0xffffffffffffffff\n        /* \"#utility.yul\":4022:4028   */\n      dup3\n        /* \"#utility.yul\":4019:4049   */\n      gt\n        /* \"#utility.yul\":4016:4072   */\n      iszero\n      tag_177\n      jumpi\n        /* \"#utility.yul\":4052:4070   */\n      tag_178\n      tag_97\n      jump\t// in\n    tag_178:\n        /* \"#utility.yul\":4016:4072   */\n    tag_177:\n        /* \"#utility.yul\":4090:4119   */\n      tag_179\n        /* \"#utility.yul\":4112:4118   */\n      dup3\n        /* \"#utility.yul\":4090:4119   */\n      tag_96\n      jump\t// in\n    tag_179:\n        /* \"#utility.yul\":4082:4119   */\n      swap1\n      pop\n        /* \"#utility.yul\":4174:4178   */\n      0x20\n        /* \"#utility.yul\":4168:4172   */\n      dup2\n        /* \"#utility.yul\":4164:4179   */\n      add\n        /* \"#utility.yul\":4156:4179   */\n      swap1\n      pop\n        /* \"#utility.yul\":3878:4186   */\n      swap2\n      swap1\n      pop\n      jump\t// out\n        /* \"#utility.yul\":4192:4346   */\n    tag_101:\n        /* \"#utility.yul\":4276:4282   */\n      dup3\n        /* \"#utility.yul\":4271:4274   */\n      dup2\n        /* \"#utility.yul\":4266:4269   */\n      dup4\n        /* \"#utility.yul\":4253:4283   */\n      calldatacopy\n        /* \"#utility.yul\":4338:4339   */\n      0x00\n        /* \"#utility.yul\":4329:4335   */\n      dup4\n        /* \"#utility.yul\":4324:4327   */\n      dup4\n        /* \"#utility.yul\":4320:4336   */\n      add\n        /* \"#utility.yul\":4313:4340   */\n      mstore\n        /* \"#utility.yul\":4192:4346   */\n      pop\n      pop\n      pop\n      jump\t// out\n        /* \"#utility.yul\":4352:4764   */\n    tag_102:\n        /* \"#utility.yul\":4430:4435   */\n      0x00\n        /* \"#utility.yul\":4455:4521   */\n      tag_182\n        /* \"#utility.yul\":4471:4520   */\n      tag_183\n        /* \"#utility.yul\":4513:4519   */\n      dup5\n        /* \"#utility.yul\":4471:4520   */\n      tag_100\n      jump\t// in\n    tag_183:\n        /* \"#utility.yul\":4455:4521   */\n      tag_99\n      jump\t// in\n    tag_182:\n        /* \"#utility.yul\":4446:4521   */\n      swap1\n      pop\n        /* \"#utility.yul\":4544:4550   */\n      dup3\n        /* \"#utility.yul\":4537:4542   */\n      dup2\n        /* \"#utility.yul\":4530:4551   */\n      mstore\n        /* \"#utility.yul\":4582:4586   */\n      0x20\n        /* \"#utility.yul\":4575:4580   */\n      dup2\n        /* \"#utility.yul\":4571:4587   */\n      add\n        /* \"#utility.yul\":4620:4623   */\n      dup5\n        /* \"#utility.yul\":4611:4617   */\n      dup5\n        /* \"#utility.yul\":4606:4609   */\n      dup5\n        /* \"#utility.yul\":4602:4618   */\n      add\n        /* \"#utility.yul\":4599:4624   */\n      gt\n        /* \"#utility.yul\":4596:4708   */\n      iszero\n      tag_184\n      jumpi\n        /* \"#utility.yul\":4627:4706   */\n      tag_185\n      tag_95\n      jump\t// in\n    tag_185:\n        /* \"#utility.yul\":4596:4708   */\n    tag_184:\n        /* \"#utility.yul\":4717:4758   */\n      tag_186\n        /* \"#utility.yul\":4751:4757   */\n      dup5\n        /* \"#utility.yul\":4746:4749   */\n      dup3\n        /* \"#utility.yul\":4741:4744   */\n      dup6\n        /* \"#utility.yul\":4717:4758   */\n      tag_101\n      jump\t// in\n    tag_186:\n        /* \"#utility.yul\":4436:4764   */\n      pop\n        /* \"#utility.yul\":4352:4764   */\n      swap4\n      swap3\n      pop\n      pop\n      pop\n      jump\t// out\n        /* \"#utility.yul\":4784:5124   */\n    tag_103:\n        /* \"#utility.yul\":4840:4845   */\n      0x00\n        /* \"#utility.yul\":4889:4892   */\n      dup3\n        /* \"#utility.yul\":4882:4886   */\n      0x1f\n        /* \"#utility.yul\":4874:4880   */\n      dup4\n        /* \"#utility.yul\":4870:4887   */\n      add\n        /* \"#utility.yul\":4866:4893   */\n      slt\n        /* \"#utility.yul\":4856:4978   */\n      tag_188\n      jumpi\n        /* \"#utility.yul\":4897:4976   */\n      tag_189\n      tag_94\n      jump\t// in\n    tag_189:\n        /* \"#utility.yul\":4856:4978   */\n    tag_188:\n        /* \"#utility.yul\":5014:5020   */\n      dup2\n        /* \"#utility.yul\":5001:5021   */\n      calldataload\n        /* \"#utility.yul\":5039:5118   */\n      tag_190\n        /* \"#utility.yul\":5114:5117   */\n      dup5\n        /* \"#utility.yul\":5106:5112   */\n      dup3\n        /* \"#utility.yul\":5099:5103   */\n      0x20\n        /* \"#utility.yul\":5091:5097   */\n      dup7\n        /* \"#utility.yul\":5087:5104   */\n      add\n        /* \"#utility.yul\":5039:5118   */\n      tag_102\n      jump\t// in\n    tag_190:\n        /* \"#utility.yul\":5030:5118   */\n      swap2\n      pop\n        /* \"#utility.yul\":4846:5124   */\n      pop\n        /* \"#utility.yul\":4784:5124   */\n      swap3\n      swap2\n      pop\n      pop\n      jump\t// out\n        /* \"#utility.yul\":5130:5450   */\n    tag_104:\n        /* \"#utility.yul\":5216:5220   */\n      0x00\n        /* \"#utility.yul\":5306:5324   */\n      0xffffffffffffffff\n        /* \"#utility.yul\":5298:5304   */\n      dup3\n        /* \"#utility.yul\":5295:5325   */\n      gt\n        /* \"#utility.yul\":5292:5348   */\n      iszero\n      tag_192\n      jumpi\n        /* \"#utility.yul\":5328:5346   */\n      tag_193\n      tag_97\n      jump\t// in\n    tag_193:\n        /* \"#utility.yul\":5292:5348   */\n    tag_192:\n        /* \"#utility.yul\":5378:5382   */\n      0x20\n        /* \"#utility.yul\":5370:5376   */\n      dup3\n        /* \"#utility.yul\":5366:5383   */\n      mul\n        /* \"#utility.yul\":5358:5383   */\n      swap1\n      pop\n        /* \"#utility.yul\":5438:5442   */\n      0x20\n        /* \"#utility.yul\":5432:5436   */\n      dup2\n        /* \"#utility.yul\":5428:5443   */\n      add\n        /* \"#utility.yul\":5420:5443   */\n      swap1\n      pop\n        /* \"#utility.yul\":5130:5450   */\n      swap2\n      swap1\n      pop\n      jump\t// out\n        /* \"#utility.yul\":5456:5573   */\n    tag_105:\n        /* \"#utility.yul\":5565:5566   */\n      0x00\n        /* \"#utility.yul\":5562:5563   */\n      dup1\n        /* \"#utility.yul\":5555:5567   */\n      revert\n        /* \"#utility.yul\":5579:5886   */\n    tag_106:\n        /* \"#utility.yul\":5640:5644   */\n      0x00\n        /* \"#utility.yul\":5730:5748   */\n      0xffffffffffffffff\n        /* \"#utility.yul\":5722:5728   */\n      dup3\n        /* \"#utility.yul\":5719:5749   */\n      gt\n        /* \"#utility.yul\":5716:5772   */\n      iszero\n      tag_196\n      jumpi\n        /* \"#utility.yul\":5752:5770   */\n      tag_197\n      tag_97\n      jump\t// in\n    tag_197:\n        /* \"#utility.yul\":5716:5772   */\n    tag_196:\n        /* \"#utility.yul\":5790:5819   */\n      tag_198\n        /* \"#utility.yul\":5812:5818   */\n      dup3\n        /* \"#utility.yul\":5790:5819   */\n      tag_96\n      jump\t// in\n    tag_198:\n        /* \"#utility.yul\":5782:5819   */\n      swap1\n      pop\n        /* \"#utility.yul\":5874:5878   */\n      0x20\n        /* \"#utility.yul\":5868:5872   */\n      dup2\n        /* \"#utility.yul\":5864:5879   */\n      add\n        /* \"#utility.yul\":5856:5879   */\n      swap1\n      pop\n        /* \"#utility.yul\":5579:5886   */\n      swap2\n      swap1\n      pop\n      jump\t// out\n        /* \"#utility.yul\":5892:6302   */\n    tag_107:\n        /* \"#utility.yul\":5969:5974   */\n      0x00\n        /* \"#utility.yul\":5994:6059   */\n      tag_200\n        /* \"#utility.yul\":6010:6058   */\n      tag_201\n        /* \"#utility.yul\":6051:6057   */\n      dup5\n        /* \"#utility.yul\":6010:6058   */\n      tag_106\n      jump\t// in\n    tag_201:\n        /* \"#utility.yul\":5994:6059   */\n      tag_99\n      jump\t// in\n    tag_200:\n        /* \"#utility.yul\":5985:6059   */\n      swap1\n      pop\n        /* \"#utility.yul\":6082:6088   */\n      dup3\n        /* \"#utility.yul\":6075:6080   */\n      dup2\n        /* \"#utility.yul\":6068:6089   */\n      mstore\n        /* \"#utility.yul\":6120:6124   */\n      0x20\n        /* \"#utility.yul\":6113:6118   */\n      dup2\n        /* \"#utility.yul\":6109:6125   */\n      add\n        /* \"#utility.yul\":6158:6161   */\n      dup5\n        /* \"#utility.yul\":6149:6155   */\n      dup5\n        /* \"#utility.yul\":6144:6147   */\n      dup5\n        /* \"#utility.yul\":6140:6156   */\n      add\n        /* \"#utility.yul\":6137:6162   */\n      gt\n        /* \"#utility.yul\":6134:6246   */\n      iszero\n      tag_202\n      jumpi\n        /* \"#utility.yul\":6165:6244   */\n      tag_203\n      tag_95\n      jump\t// in\n    tag_203:\n        /* \"#utility.yul\":6134:6246   */\n    tag_202:\n        /* \"#utility.yul\":6255:6296   */\n      tag_204\n        /* \"#utility.yul\":6289:6295   */\n      dup5\n        /* \"#utility.yul\":6284:6287   */\n      dup3\n        /* \"#utility.yul\":6279:6282   */\n      dup6\n        /* \"#utility.yul\":6255:6296   */\n      tag_101\n      jump\t// in\n    tag_204:\n        /* \"#utility.yul\":5975:6302   */\n      pop\n        /* \"#utility.yul\":5892:6302   */\n      swap4\n      swap3\n      pop\n      pop\n      pop\n      jump\t// out\n        /* \"#utility.yul\":6321:6659   */\n    tag_108:\n        /* \"#utility.yul\":6376:6381   */\n      0x00\n        /* \"#utility.yul\":6425:6428   */\n      dup3\n        /* \"#utility.yul\":6418:6422   */\n      0x1f\n        /* \"#utility.yul\":6410:6416   */\n      dup4\n        /* \"#utility.yul\":6406:6423   */\n      add\n        /* \"#utility.yul\":6402:6429   */\n      slt\n        /* \"#utility.yul\":6392:6514   */\n      tag_206\n      jumpi\n        /* \"#utility.yul\":6433:6512   */\n      tag_207\n      tag_94\n      jump\t// in\n    tag_207:\n        /* \"#utility.yul\":6392:6514   */\n    tag_206:\n        /* \"#utility.yul\":6550:6556   */\n      dup2\n        /* \"#utility.yul\":6537:6557   */\n      calldataload\n        /* \"#utility.yul\":6575:6653   */\n      tag_208\n        /* \"#utility.yul\":6649:6652   */\n      dup5\n        /* \"#utility.yul\":6641:6647   */\n      dup3\n        /* \"#utility.yul\":6634:6638   */\n      0x20\n        /* \"#utility.yul\":6626:6632   */\n      dup7\n        /* \"#utility.yul\":6622:6639   */\n      add\n        /* \"#utility.yul\":6575:6653   */\n      tag_107\n      jump\t// in\n    tag_208:\n        /* \"#utility.yul\":6566:6653   */\n      swap2\n      pop\n        /* \"#utility.yul\":6382:6659   */\n      pop\n        /* \"#utility.yul\":6321:6659   */\n      swap3\n      swap2\n      pop\n      pop\n      jump\t// out\n        /* \"#utility.yul\":6680:7622   */\n    tag_109:\n        /* \"#utility.yul\":6785:6790   */\n      0x00\n        /* \"#utility.yul\":6810:6900   */\n      tag_210\n        /* \"#utility.yul\":6826:6899   */\n      tag_211\n        /* \"#utility.yul\":6892:6898   */\n      dup5\n        /* \"#utility.yul\":6826:6899   */\n      tag_104\n      jump\t// in\n    tag_211:\n        /* \"#utility.yul\":6810:6900   */\n      tag_99\n      jump\t// in\n    tag_210:\n        /* \"#utility.yul\":6801:6900   */\n      swap1\n      pop\n        /* \"#utility.yul\":6920:6925   */\n      dup1\n        /* \"#utility.yul\":6949:6955   */\n      dup4\n        /* \"#utility.yul\":6942:6947   */\n      dup3\n        /* \"#utility.yul\":6935:6956   */\n      mstore\n        /* \"#utility.yul\":6983:6987   */\n      0x20\n        /* \"#utility.yul\":6976:6981   */\n      dup3\n        /* \"#utility.yul\":6972:6988   */\n      add\n        /* \"#utility.yul\":6965:6988   */\n      swap1\n      pop\n        /* \"#utility.yul\":7036:7040   */\n      0x20\n        /* \"#utility.yul\":7028:7034   */\n      dup5\n        /* \"#utility.yul\":7024:7041   */\n      mul\n        /* \"#utility.yul\":7016:7022   */\n      dup4\n        /* \"#utility.yul\":7012:7042   */\n      add\n        /* \"#utility.yul\":7065:7068   */\n      dup6\n        /* \"#utility.yul\":7057:7063   */\n      dup2\n        /* \"#utility.yul\":7054:7069   */\n      gt\n        /* \"#utility.yul\":7051:7173   */\n      iszero\n      tag_212\n      jumpi\n        /* \"#utility.yul\":7084:7163   */\n      tag_213\n      tag_105\n      jump\t// in\n    tag_213:\n        /* \"#utility.yul\":7051:7173   */\n    tag_212:\n        /* \"#utility.yul\":7199:7205   */\n      dup4\n        /* \"#utility.yul\":7182:7616   */\n    tag_214:\n        /* \"#utility.yul\":7216:7222   */\n      dup2\n        /* \"#utility.yul\":7211:7214   */\n      dup2\n        /* \"#utility.yul\":7208:7223   */\n      lt\n        /* \"#utility.yul\":7182:7616   */\n      iszero\n      tag_216\n      jumpi\n        /* \"#utility.yul\":7305:7308   */\n      dup1\n        /* \"#utility.yul\":7292:7309   */\n      calldataload\n        /* \"#utility.yul\":7341:7359   */\n      0xffffffffffffffff\n        /* \"#utility.yul\":7328:7339   */\n      dup2\n        /* \"#utility.yul\":7325:7360   */\n      gt\n        /* \"#utility.yul\":7322:7444   */\n      iszero\n      tag_217\n      jumpi\n        /* \"#utility.yul\":7363:7442   */\n      tag_218\n      tag_94\n      jump\t// in\n    tag_218:\n        /* \"#utility.yul\":7322:7444   */\n    tag_217:\n        /* \"#utility.yul\":7487:7498   */\n      dup1\n        /* \"#utility.yul\":7479:7485   */\n      dup7\n        /* \"#utility.yul\":7475:7499   */\n      add\n        /* \"#utility.yul\":7525:7571   */\n      tag_219\n        /* \"#utility.yul\":7567:7570   */\n      dup10\n        /* \"#utility.yul\":7555:7565   */\n      dup3\n        /* \"#utility.yul\":7525:7571   */\n      tag_108\n      jump\t// in\n    tag_219:\n        /* \"#utility.yul\":7520:7523   */\n      dup6\n        /* \"#utility.yul\":7513:7572   */\n      mstore\n        /* \"#utility.yul\":7601:7605   */\n      0x20\n        /* \"#utility.yul\":7596:7599   */\n      dup6\n        /* \"#utility.yul\":7592:7606   */\n      add\n        /* \"#utility.yul\":7585:7606   */\n      swap5\n      pop\n        /* \"#utility.yul\":7258:7616   */\n      pop\n      pop\n        /* \"#utility.yul\":7242:7246   */\n      0x20\n        /* \"#utility.yul\":7237:7240   */\n      dup2\n        /* \"#utility.yul\":7233:7247   */\n      add\n        /* \"#utility.yul\":7226:7247   */\n      swap1\n      pop\n        /* \"#utility.yul\":7182:7616   */\n      jump(tag_214)\n    tag_216:\n        /* \"#utility.yul\":7186:7207   */\n      pop\n        /* \"#utility.yul\":6791:7622   */\n      pop\n      pop\n        /* \"#utility.yul\":6680:7622   */\n      swap4\n      swap3\n      pop\n      pop\n      pop\n      jump\t// out\n        /* \"#utility.yul\":7643:8031   */\n    tag_110:\n        /* \"#utility.yul\":7723:7728   */\n      0x00\n        /* \"#utility.yul\":7772:7775   */\n      dup3\n        /* \"#utility.yul\":7765:7769   */\n      0x1f\n        /* \"#utility.yul\":7757:7763   */\n      dup4\n        /* \"#utility.yul\":7753:7770   */\n      add\n        /* \"#utility.yul\":7749:7776   */\n      slt\n        /* \"#utility.yul\":7739:7861   */\n      tag_221\n      jumpi\n        /* \"#utility.yul\":7780:7859   */\n      tag_222\n      tag_94\n      jump\t// in\n    tag_222:\n        /* \"#utility.yul\":7739:7861   */\n    tag_221:\n        /* \"#utility.yul\":7897:7903   */\n      dup2\n        /* \"#utility.yul\":7884:7904   */\n      calldataload\n        /* \"#utility.yul\":7922:8025   */\n      tag_223\n        /* \"#utility.yul\":8021:8024   */\n      dup5\n        /* \"#utility.yul\":8013:8019   */\n      dup3\n        /* \"#utility.yul\":8006:8010   */\n      0x20\n        /* \"#utility.yul\":7998:8004   */\n      dup7\n        /* \"#utility.yul\":7994:8011   */\n      add\n        /* \"#utility.yul\":7922:8025   */\n      tag_109\n      jump\t// in\n    tag_223:\n        /* \"#utility.yul\":7913:8025   */\n      swap2\n      pop\n        /* \"#utility.yul\":7729:8031   */\n      pop\n        /* \"#utility.yul\":7643:8031   */\n      swap3\n      swap2\n      pop\n      pop\n      jump\t// out\n        /* \"#utility.yul\":8037:9502   */\n    tag_22:\n        /* \"#utility.yul\":8185:8191   */\n      0x00\n        /* \"#utility.yul\":8193:8199   */\n      dup1\n        /* \"#utility.yul\":8201:8207   */\n      0x00\n        /* \"#utility.yul\":8209:8215   */\n      dup1\n        /* \"#utility.yul\":8217:8223   */\n      0x00\n        /* \"#utility.yul\":8225:8231   */\n      dup1\n        /* \"#utility.yul\":8274:8277   */\n      0xc0\n        /* \"#utility.yul\":8262:8271   */\n      dup8\n        /* \"#utility.yul\":8253:8260   */\n      dup10\n        /* \"#utility.yul\":8249:8272   */\n      sub\n        /* \"#utility.yul\":8245:8278   */\n      slt\n        /* \"#utility.yul\":8242:8362   */\n      iszero\n      tag_225\n      jumpi\n        /* \"#utility.yul\":8281:8360   */\n      tag_226\n      tag_79\n      jump\t// in\n    tag_226:\n        /* \"#utility.yul\":8242:8362   */\n    tag_225:\n        /* \"#utility.yul\":8401:8402   */\n      0x00\n        /* \"#utility.yul\":8426:8479   */\n      tag_227\n        /* \"#utility.yul\":8471:8478   */\n      dup10\n        /* \"#utility.yul\":8462:8468   */\n      dup3\n        /* \"#utility.yul\":8451:8460   */\n      dup11\n        /* \"#utility.yul\":8447:8469   */\n      add\n        /* \"#utility.yul\":8426:8479   */\n      tag_83\n      jump\t// in\n    tag_227:\n        /* \"#utility.yul\":8416:8479   */\n      swap7\n      pop\n        /* \"#utility.yul\":8372:8489   */\n      pop\n        /* \"#utility.yul\":8528:8530   */\n      0x20\n        /* \"#utility.yul\":8554:8607   */\n      tag_228\n        /* \"#utility.yul\":8599:8606   */\n      dup10\n        /* \"#utility.yul\":8590:8596   */\n      dup3\n        /* \"#utility.yul\":8579:8588   */\n      dup11\n        /* \"#utility.yul\":8575:8597   */\n      add\n        /* \"#utility.yul\":8554:8607   */\n      tag_83\n      jump\t// in\n    tag_228:\n        /* \"#utility.yul\":8544:8607   */\n      swap6\n      pop\n        /* \"#utility.yul\":8499:8617   */\n      pop\n        /* \"#utility.yul\":8656:8658   */\n      0x40\n        /* \"#utility.yul\":8682:8735   */\n      tag_229\n        /* \"#utility.yul\":8727:8734   */\n      dup10\n        /* \"#utility.yul\":8718:8724   */\n      dup3\n        /* \"#utility.yul\":8707:8716   */\n      dup11\n        /* \"#utility.yul\":8703:8725   */\n      add\n        /* \"#utility.yul\":8682:8735   */\n      tag_83\n      jump\t// in\n    tag_229:\n        /* \"#utility.yul\":8672:8735   */\n      swap5\n      pop\n        /* \"#utility.yul\":8627:8745   */\n      pop\n        /* \"#utility.yul\":8784:8786   */\n      0x60\n        /* \"#utility.yul\":8810:8863   */\n      tag_230\n        /* \"#utility.yul\":8855:8862   */\n      dup10\n        /* \"#utility.yul\":8846:8852   */\n      dup3\n        /* \"#utility.yul\":8835:8844   */\n      dup11\n        /* \"#utility.yul\":8831:8853   */\n      add\n        /* \"#utility.yul\":8810:8863   */\n      tag_93\n      jump\t// in\n    tag_230:\n        /* \"#utility.yul\":8800:8863   */\n      swap4\n      pop\n        /* \"#utility.yul\":8755:8873   */\n      pop\n        /* \"#utility.yul\":8940:8943   */\n      0x80\n        /* \"#utility.yul\":8929:8938   */\n      dup8\n        /* \"#utility.yul\":8925:8944   */\n      add\n        /* \"#utility.yul\":8912:8945   */\n      calldataload\n        /* \"#utility.yul\":8972:8990   */\n      0xffffffffffffffff\n        /* \"#utility.yul\":8964:8970   */\n      dup2\n        /* \"#utility.yul\":8961:8991   */\n      gt\n        /* \"#utility.yul\":8958:9075   */\n      iszero\n      tag_231\n      jumpi\n        /* \"#utility.yul\":8994:9073   */\n      tag_232\n      tag_80\n      jump\t// in\n    tag_232:\n        /* \"#utility.yul\":8958:9075   */\n    tag_231:\n        /* \"#utility.yul\":9099:9162   */\n      tag_233\n        /* \"#utility.yul\":9154:9161   */\n      dup10\n        /* \"#utility.yul\":9145:9151   */\n      dup3\n        /* \"#utility.yul\":9134:9143   */\n      dup11\n        /* \"#utility.yul\":9130:9152   */\n      add\n        /* \"#utility.yul\":9099:9162   */\n      tag_103\n      jump\t// in\n    tag_233:\n        /* \"#utility.yul\":9089:9162   */\n      swap3\n      pop\n        /* \"#utility.yul\":8883:9172   */\n      pop\n        /* \"#utility.yul\":9239:9242   */\n      0xa0\n        /* \"#utility.yul\":9228:9237   */\n      dup8\n        /* \"#utility.yul\":9224:9243   */\n      add\n        /* \"#utility.yul\":9211:9244   */\n      calldataload\n        /* \"#utility.yul\":9271:9289   */\n      0xffffffffffffffff\n        /* \"#utility.yul\":9263:9269   */\n      dup2\n        /* \"#utility.yul\":9260:9290   */\n      gt\n        /* \"#utility.yul\":9257:9374   */\n      iszero\n      tag_234\n      jumpi\n        /* \"#utility.yul\":9293:9372   */\n      tag_235\n      tag_80\n      jump\t// in\n    tag_235:\n        /* \"#utility.yul\":9257:9374   */\n    tag_234:\n        /* \"#utility.yul\":9398:9485   */\n      tag_236\n        /* \"#utility.yul\":9477:9484   */\n      dup10\n        /* \"#utility.yul\":9468:9474   */\n      dup3\n        /* \"#utility.yul\":9457:9466   */\n      dup11\n        /* \"#utility.yul\":9453:9475   */\n      add\n        /* \"#utility.yul\":9398:9485   */\n      tag_110\n      jump\t// in\n    tag_236:\n        /* \"#utility.yul\":9388:9485   */\n      swap2\n      pop\n        /* \"#utility.yul\":9182:9495   */\n      pop\n        /* \"#utility.yul\":8037:9502   */\n      swap3\n      swap6\n      pop\n      swap3\n      swap6\n      pop\n      swap3\n      swap6\n      jump\t// out\n        /* \"#utility.yul\":9508:9585   */\n    tag_111:\n        /* \"#utility.yul\":9545:9552   */\n      0x00\n        /* \"#utility.yul\":9574:9579   */\n      dup2\n        /* \"#utility.yul\":9563:9579   */\n      swap1\n      pop\n        /* \"#utility.yul\":9508:9585   */\n      swap2\n      swap1\n      pop\n      jump\t// out\n        /* \"#utility.yul\":9591:9713   */\n    tag_112:\n        /* \"#utility.yul\":9664:9688   */\n      tag_239\n        /* \"#utility.yul\":9682:9687   */\n      dup2\n        /* \"#utility.yul\":9664:9688   */\n      tag_111\n      jump\t// in\n    tag_239:\n        /* \"#utility.yul\":9657:9662   */\n      dup2\n        /* \"#utility.yul\":9654:9689   */\n      eq\n        /* \"#utility.yul\":9644:9707   */\n      tag_240\n      jumpi\n        /* \"#utility.yul\":9703:9704   */\n      0x00\n        /* \"#utility.yul\":9700:9701   */\n      dup1\n        /* \"#utility.yul\":9693:9705   */\n      revert\n        /* \"#utility.yul\":9644:9707   */\n    tag_240:\n        /* \"#utility.yul\":9591:9713   */\n      pop\n      jump\t// out\n        /* \"#utility.yul\":9719:9858   */\n    tag_113:\n        /* \"#utility.yul\":9765:9770   */\n      0x00\n        /* \"#utility.yul\":9803:9809   */\n      dup2\n        /* \"#utility.yul\":9790:9810   */\n      calldataload\n        /* \"#utility.yul\":9781:9810   */\n      swap1\n      pop\n        /* \"#utility.yul\":9819:9852   */\n      tag_242\n        /* \"#utility.yul\":9846:9851   */\n      dup2\n        /* \"#utility.yul\":9819:9852   */\n      tag_112\n      jump\t// in\n    tag_242:\n        /* \"#utility.yul\":9719:9858   */\n      swap3\n      swap2\n      pop\n      pop\n      jump\t// out\n        /* \"#utility.yul\":9864:10857   */\n    tag_31:\n        /* \"#utility.yul\":9984:9990   */\n      0x00\n        /* \"#utility.yul\":9992:9998   */\n      dup1\n        /* \"#utility.yul\":10000:10006   */\n      0x00\n        /* \"#utility.yul\":10008:10014   */\n      dup1\n        /* \"#utility.yul\":10057:10060   */\n      0x80\n        /* \"#utility.yul\":10045:10054   */\n      dup6\n        /* \"#utility.yul\":10036:10043   */\n      dup8\n        /* \"#utility.yul\":10032:10055   */\n      sub\n        /* \"#utility.yul\":10028:10061   */\n      slt\n        /* \"#utility.yul\":10025:10145   */\n      iszero\n      tag_244\n      jumpi\n        /* \"#utility.yul\":10064:10143   */\n      tag_245\n      tag_79\n      jump\t// in\n    tag_245:\n        /* \"#utility.yul\":10025:10145   */\n    tag_244:\n        /* \"#utility.yul\":10184:10185   */\n      0x00\n        /* \"#utility.yul\":10209:10262   */\n      tag_246\n        /* \"#utility.yul\":10254:10261   */\n      dup8\n        /* \"#utility.yul\":10245:10251   */\n      dup3\n        /* \"#utility.yul\":10234:10243   */\n      dup9\n        /* \"#utility.yul\":10230:10252   */\n      add\n        /* \"#utility.yul\":10209:10262   */\n      tag_93\n      jump\t// in\n    tag_246:\n        /* \"#utility.yul\":10199:10262   */\n      swap5\n      pop\n        /* \"#utility.yul\":10155:10272   */\n      pop\n        /* \"#utility.yul\":10311:10313   */\n      0x20\n        /* \"#utility.yul\":10337:10390   */\n      tag_247\n        /* \"#utility.yul\":10382:10389   */\n      dup8\n        /* \"#utility.yul\":10373:10379   */\n      dup3\n        /* \"#utility.yul\":10362:10371   */\n      dup9\n        /* \"#utility.yul\":10358:10380   */\n      add\n        /* \"#utility.yul\":10337:10390   */\n      tag_93\n      jump\t// in\n    tag_247:\n        /* \"#utility.yul\":10327:10390   */\n      swap4\n      pop\n        /* \"#utility.yul\":10282:10400   */\n      pop\n        /* \"#utility.yul\":10467:10469   */\n      0x40\n        /* \"#utility.yul\":10456:10465   */\n      dup6\n        /* \"#utility.yul\":10452:10470   */\n      add\n        /* \"#utility.yul\":10439:10471   */\n      calldataload\n        /* \"#utility.yul\":10498:10516   */\n      0xffffffffffffffff\n        /* \"#utility.yul\":10490:10496   */\n      dup2\n        /* \"#utility.yul\":10487:10517   */\n      gt\n        /* \"#utility.yul\":10484:10601   */\n      iszero\n      tag_248\n      jumpi\n        /* \"#utility.yul\":10520:10599   */\n      tag_249\n      tag_80\n      jump\t// in\n    tag_249:\n        /* \"#utility.yul\":10484:10601   */\n    tag_248:\n        /* \"#utility.yul\":10625:10712   */\n      tag_250\n        /* \"#utility.yul\":10704:10711   */\n      dup8\n        /* \"#utility.yul\":10695:10701   */\n      dup3\n        /* \"#utility.yul\":10684:10693   */\n      dup9\n        /* \"#utility.yul\":10680:10702   */\n      add\n        /* \"#utility.yul\":10625:10712   */\n      tag_110\n      jump\t// in\n    tag_250:\n        /* \"#utility.yul\":10615:10712   */\n      swap3\n      pop\n        /* \"#utility.yul\":10410:10722   */\n      pop\n        /* \"#utility.yul\":10761:10763   */\n      0x60\n        /* \"#utility.yul\":10787:10840   */\n      tag_251\n        /* \"#utility.yul\":10832:10839   */\n      dup8\n        /* \"#utility.yul\":10823:10829   */\n      dup3\n        /* \"#utility.yul\":10812:10821   */\n      dup9\n        /* \"#utility.yul\":10808:10830   */\n      add\n        /* \"#utility.yul\":10787:10840   */\n      tag_113\n      jump\t// in\n    tag_251:\n        /* \"#utility.yul\":10777:10840   */\n      swap2\n      pop\n        /* \"#utility.yul\":10732:10850   */\n      pop\n        /* \"#utility.yul\":9864:10857   */\n      swap3\n      swap6\n      swap2\n      swap5\n      pop\n      swap3\n      pop\n      jump\t// out\n        /* \"#utility.yul\":10863:11043   */\n    tag_114:\n        /* \"#utility.yul\":10911:10988   */\n      0x4e487b7100000000000000000000000000000000000000000000000000000000\n        /* \"#utility.yul\":10908:10909   */\n      0x00\n        /* \"#utility.yul\":10901:10989   */\n      mstore\n        /* \"#utility.yul\":11008:11012   */\n      0x11\n        /* \"#utility.yul\":11005:11006   */\n      0x04\n        /* \"#utility.yul\":10998:11013   */\n      mstore\n        /* \"#utility.yul\":11032:11036   */\n      0x24\n        /* \"#utility.yul\":11029:11030   */\n      0x00\n        /* \"#utility.yul\":11022:11037   */\n      revert\n        /* \"#utility.yul\":11049:11397   */\n    tag_51:\n        /* \"#utility.yul\":11089:11096   */\n      0x00\n        /* \"#utility.yul\":11112:11132   */\n      tag_254\n        /* \"#utility.yul\":11130:11131   */\n      dup3\n        /* \"#utility.yul\":11112:11132   */\n      tag_81\n      jump\t// in\n    tag_254:\n        /* \"#utility.yul\":11107:11132   */\n      swap2\n      pop\n        /* \"#utility.yul\":11146:11166   */\n      tag_255\n        /* \"#utility.yul\":11164:11165   */\n      dup4\n        /* \"#utility.yul\":11146:11166   */\n      tag_81\n      jump\t// in\n    tag_255:\n        /* \"#utility.yul\":11141:11166   */\n      swap3\n      pop\n        /* \"#utility.yul\":11334:11335   */\n      dup2\n        /* \"#utility.yul\":11266:11332   */\n      0xffffffffffffffffffffffffffffffffffffffffffffffffffffffffffffffff\n        /* \"#utility.yul\":11262:11336   */\n      div\n        /* \"#utility.yul\":11259:11260   */\n      dup4\n        /* \"#utility.yul\":11256:11337   */\n      gt\n        /* \"#utility.yul\":11251:11252   */\n      dup3\n        /* \"#utility.yul\":11244:11253   */\n      iszero\n        /* \"#utility.yul\":11237:11254   */\n      iszero\n        /* \"#utility.yul\":11233:11338   */\n      and\n        /* \"#utility.yul\":11230:11361   */\n      iszero\n      tag_256\n      jumpi\n        /* \"#utility.yul\":11341:11359   */\n      tag_257\n      tag_114\n      jump\t// in\n    tag_257:\n        /* \"#utility.yul\":11230:11361   */\n    tag_256:\n        /* \"#utility.yul\":11389:11390   */\n      dup3\n        /* \"#utility.yul\":11386:11387   */\n      dup3\n        /* \"#utility.yul\":11382:11391   */\n      mul\n        /* \"#utility.yul\":11371:11391   */\n      swap1\n      pop\n        /* \"#utility.yul\":11049:11397   */\n      swap3\n      swap2\n      pop\n      pop\n      jump\t// out\n        /* \"#utility.yul\":11403:11708   */\n    tag_55:\n        /* \"#utility.yul\":11443:11446   */\n      0x00\n        /* \"#utility.yul\":11462:11482   */\n      tag_259\n        /* \"#utility.yul\":11480:11481   */\n      dup3\n        /* \"#utility.yul\":11462:11482   */\n      tag_81\n      jump\t// in\n    tag_259:\n        /* \"#utility.yul\":11457:11482   */\n      swap2\n      pop\n        /* \"#utility.yul\":11496:11516   */\n      tag_260\n        /* \"#utility.yul\":11514:11515   */\n      dup4\n        /* \"#utility.yul\":11496:11516   */\n      tag_81\n      jump\t// in\n    tag_260:\n        /* \"#utility.yul\":11491:11516   */\n      swap3\n      pop\n        /* \"#utility.yul\":11650:11651   */\n      dup3\n        /* \"#utility.yul\":11582:11648   */\n      0xffffffffffffffffffffffffffffffffffffffffffffffffffffffffffffffff\n        /* \"#utility.yul\":11578:11652   */\n      sub\n        /* \"#utility.yul\":11575:11576   */\n      dup3\n        /* \"#utility.yul\":11572:11653   */\n      gt\n        /* \"#utility.yul\":11569:11676   */\n      iszero\n      tag_261\n      jumpi\n        /* \"#utility.yul\":11656:11674   */\n      tag_262\n      tag_114\n      jump\t// in\n    tag_262:\n        /* \"#utility.yul\":11569:11676   */\n    tag_261:\n        /* \"#utility.yul\":11700:11701   */\n      dup3\n        /* \"#utility.yul\":11697:11698   */\n      dup3\n        /* \"#utility.yul\":11693:11702   */\n      add\n        /* \"#utility.yul\":11686:11702   */\n      swap1\n      pop\n        /* \"#utility.yul\":11403:11708   */\n      swap3\n      swap2\n      pop\n      pop\n      jump\t// out\n        /* \"#utility.yul\":11714:11832   */\n    tag_115:\n        /* \"#utility.yul\":11801:11825   */\n      tag_264\n        /* \"#utility.yul\":11819:11824   */\n      dup2\n        /* \"#utility.yul\":11801:11825   */\n      tag_91\n      jump\t// in\n    tag_264:\n        /* \"#utility.yul\":11796:11799   */\n      dup3\n        /* \"#utility.yul\":11789:11826   */\n      mstore\n        /* \"#utility.yul\":11714:11832   */\n      pop\n      pop\n      jump\t// out\n        /* \"#utility.yul\":11838:11961   */\n    tag_116:\n        /* \"#utility.yul\":11914:11920   */\n      0x00\n        /* \"#utility.yul\":11948:11953   */\n      dup2\n        /* \"#utility.yul\":11942:11954   */\n      mload\n        /* \"#utility.yul\":11932:11954   */\n      swap1\n      pop\n        /* \"#utility.yul\":11838:11961   */\n      swap2\n      swap1\n      pop\n      jump\t// out\n        /* \"#utility.yul\":11967:12160   */\n    tag_117:\n        /* \"#utility.yul\":12075:12086   */\n      0x00\n        /* \"#utility.yul\":12109:12115   */\n      dup3\n        /* \"#utility.yul\":12104:12107   */\n      dup3\n        /* \"#utility.yul\":12097:12116   */\n      mstore\n        /* \"#utility.yul\":12149:12153   */\n      0x20\n        /* \"#utility.yul\":12144:12147   */\n      dup3\n        /* \"#utility.yul\":12140:12154   */\n      add\n        /* \"#utility.yul\":12125:12154   */\n      swap1\n      pop\n        /* \"#utility.yul\":11967:12160   */\n      swap3\n      swap2\n      pop\n      pop\n      jump\t// out\n        /* \"#utility.yul\":12166:12307   */\n    tag_118:\n        /* \"#utility.yul\":12242:12246   */\n      0x00\n        /* \"#utility.yul\":12265:12268   */\n      dup2\n        /* \"#utility.yul\":12257:12268   */\n      swap1\n      pop\n        /* \"#utility.yul\":12295:12299   */\n      0x20\n        /* \"#utility.yul\":12290:12293   */\n      dup3\n        /* \"#utility.yul\":12286:12300   */\n      add\n        /* \"#utility.yul\":12278:12300   */\n      swap1\n      pop\n        /* \"#utility.yul\":12166:12307   */\n      swap2\n      swap1\n      pop\n      jump\t// out\n        /* \"#utility.yul\":12313:12411   */\n    tag_119:\n        /* \"#utility.yul\":12364:12370   */\n      0x00\n        /* \"#utility.yul\":12398:12403   */\n      dup2\n        /* \"#utility.yul\":12392:12404   */\n      mload\n        /* \"#utility.yul\":12382:12404   */\n      swap1\n      pop\n        /* \"#utility.yul\":12313:12411   */\n      swap2\n      swap1\n      pop\n      jump\t// out\n        /* \"#utility.yul\":12417:12575   */\n    tag_120:\n        /* \"#utility.yul\":12490:12501   */\n      0x00\n        /* \"#utility.yul\":12524:12530   */\n      dup3\n        /* \"#utility.yul\":12519:12522   */\n      dup3\n        /* \"#utility.yul\":12512:12531   */\n      mstore\n        /* \"#utility.yul\":12564:12568   */\n      0x20\n        /* \"#utility.yul\":12559:12562   */\n      dup3\n        /* \"#utility.yul\":12555:12569   */\n      add\n        /* \"#utility.yul\":12540:12569   */\n      swap1\n      pop\n        /* \"#utility.yul\":12417:12575   */\n      swap3\n      swap2\n      pop\n      pop\n      jump\t// out\n        /* \"#utility.yul\":12581:12888   */\n    tag_121:\n        /* \"#utility.yul\":12649:12650   */\n      0x00\n        /* \"#utility.yul\":12659:12772   */\n    tag_271:\n        /* \"#utility.yul\":12673:12679   */\n      dup4\n        /* \"#utility.yul\":12670:12671   */\n      dup2\n        /* \"#utility.yul\":12667:12680   */\n      lt\n        /* \"#utility.yul\":12659:12772   */\n      iszero\n      tag_273\n      jumpi\n        /* \"#utility.yul\":12758:12759   */\n      dup1\n        /* \"#utility.yul\":12753:12756   */\n      dup3\n        /* \"#utility.yul\":12749:12760   */\n      add\n        /* \"#utility.yul\":12743:12761   */\n      mload\n        /* \"#utility.yul\":12739:12740   */\n      dup2\n        /* \"#utility.yul\":12734:12737   */\n      dup5\n        /* \"#utility.yul\":12730:12741   */\n      add\n        /* \"#utility.yul\":12723:12762   */\n      mstore\n        /* \"#utility.yul\":12695:12697   */\n      0x20\n        /* \"#utility.yul\":12692:12693   */\n      dup2\n        /* \"#utility.yul\":12688:12698   */\n      add\n        /* \"#utility.yul\":12683:12698   */\n      swap1\n      pop\n        /* \"#utility.yul\":12659:12772   */\n      jump(tag_271)\n    tag_273:\n        /* \"#utility.yul\":12790:12796   */\n      dup4\n        /* \"#utility.yul\":12787:12788   */\n      dup2\n        /* \"#utility.yul\":12784:12797   */\n      gt\n        /* \"#utility.yul\":12781:12882   */\n      iszero\n      tag_274\n      jumpi\n        /* \"#utility.yul\":12870:12871   */\n      0x00\n        /* \"#utility.yul\":12861:12867   */\n      dup5\n        /* \"#utility.yul\":12856:12859   */\n      dup5\n        /* \"#utility.yul\":12852:12868   */\n      add\n        /* \"#utility.yul\":12845:12872   */\n      mstore\n        /* \"#utility.yul\":12781:12882   */\n    tag_274:\n        /* \"#utility.yul\":12630:12888   */\n      pop\n        /* \"#utility.yul\":12581:12888   */\n      pop\n      pop\n      pop\n      jump\t// out\n        /* \"#utility.yul\":12894:13234   */\n    tag_122:\n        /* \"#utility.yul\":12970:12973   */\n      0x00\n        /* \"#utility.yul\":12998:13036   */\n      tag_276\n        /* \"#utility.yul\":13030:13035   */\n      dup3\n        /* \"#utility.yul\":12998:13036   */\n      tag_119\n      jump\t// in\n    tag_276:\n        /* \"#utility.yul\":13052:13112   */\n      tag_277\n        /* \"#utility.yul\":13105:13111   */\n      dup2\n        /* \"#utility.yul\":13100:13103   */\n      dup6\n        /* \"#utility.yul\":13052:13112   */\n      tag_120\n      jump\t// in\n    tag_277:\n        /* \"#utility.yul\":13045:13112   */\n      swap4\n      pop\n        /* \"#utility.yul\":13121:13173   */\n      tag_278\n        /* \"#utility.yul\":13166:13172   */\n      dup2\n        /* \"#utility.yul\":13161:13164   */\n      dup6\n        /* \"#utility.yul\":13154:13158   */\n      0x20\n        /* \"#utility.yul\":13147:13152   */\n      dup7\n        /* \"#utility.yul\":13143:13159   */\n      add\n        /* \"#utility.yul\":13121:13173   */\n      tag_121\n      jump\t// in\n    tag_278:\n        /* \"#utility.yul\":13198:13227   */\n      tag_279\n        /* \"#utility.yul\":13220:13226   */\n      dup2\n        /* \"#utility.yul\":13198:13227   */\n      tag_96\n      jump\t// in\n    tag_279:\n        /* \"#utility.yul\":13193:13196   */\n      dup5\n        /* \"#utility.yul\":13189:13228   */\n      add\n        /* \"#utility.yul\":13182:13228   */\n      swap2\n      pop\n        /* \"#utility.yul\":12974:13234   */\n      pop\n        /* \"#utility.yul\":12894:13234   */\n      swap3\n      swap2\n      pop\n      pop\n      jump\t// out\n        /* \"#utility.yul\":13240:13432   */\n    tag_123:\n        /* \"#utility.yul\":13327:13337   */\n      0x00\n        /* \"#utility.yul\":13362:13426   */\n      tag_281\n        /* \"#utility.yul\":13422:13425   */\n      dup4\n        /* \"#utility.yul\":13414:13420   */\n      dup4\n        /* \"#utility.yul\":13362:13426   */\n      tag_122\n      jump\t// in\n    tag_281:\n        /* \"#utility.yul\":13348:13426   */\n      swap1\n      pop\n        /* \"#utility.yul\":13240:13432   */\n      swap3\n      swap2\n      pop\n      pop\n      jump\t// out\n        /* \"#utility.yul\":13438:13560   */\n    tag_124:\n        /* \"#utility.yul\":13517:13521   */\n      0x00\n        /* \"#utility.yul\":13549:13553   */\n      0x20\n        /* \"#utility.yul\":13544:13547   */\n      dup3\n        /* \"#utility.yul\":13540:13554   */\n      add\n        /* \"#utility.yul\":13532:13554   */\n      swap1\n      pop\n        /* \"#utility.yul\":13438:13560   */\n      swap2\n      swap1\n      pop\n      jump\t// out\n        /* \"#utility.yul\":13592:14575   */\n    tag_125:\n        /* \"#utility.yul\":13729:13732   */\n      0x00\n        /* \"#utility.yul\":13758:13821   */\n      tag_284\n        /* \"#utility.yul\":13815:13820   */\n      dup3\n        /* \"#utility.yul\":13758:13821   */\n      tag_116\n      jump\t// in\n    tag_284:\n        /* \"#utility.yul\":13837:13932   */\n      tag_285\n        /* \"#utility.yul\":13925:13931   */\n      dup2\n        /* \"#utility.yul\":13920:13923   */\n      dup6\n        /* \"#utility.yul\":13837:13932   */\n      tag_117\n      jump\t// in\n    tag_285:\n        /* \"#utility.yul\":13830:13932   */\n      swap4\n      pop\n        /* \"#utility.yul\":13958:13961   */\n      dup4\n        /* \"#utility.yul\":14003:14007   */\n      0x20\n        /* \"#utility.yul\":13995:14001   */\n      dup3\n        /* \"#utility.yul\":13991:14008   */\n      mul\n        /* \"#utility.yul\":13986:13989   */\n      dup6\n        /* \"#utility.yul\":13982:14009   */\n      add\n        /* \"#utility.yul\":14033:14098   */\n      tag_286\n        /* \"#utility.yul\":14092:14097   */\n      dup6\n        /* \"#utility.yul\":14033:14098   */\n      tag_118\n      jump\t// in\n    tag_286:\n        /* \"#utility.yul\":14121:14128   */\n      dup1\n        /* \"#utility.yul\":14152:14153   */\n      0x00\n        /* \"#utility.yul\":14137:14530   */\n    tag_287:\n        /* \"#utility.yul\":14162:14168   */\n      dup6\n        /* \"#utility.yul\":14159:14160   */\n      dup2\n        /* \"#utility.yul\":14156:14169   */\n      lt\n        /* \"#utility.yul\":14137:14530   */\n      iszero\n      tag_289\n      jumpi\n        /* \"#utility.yul\":14233:14242   */\n      dup5\n        /* \"#utility.yul\":14227:14231   */\n      dup5\n        /* \"#utility.yul\":14223:14243   */\n      sub\n        /* \"#utility.yul\":14218:14221   */\n      dup10\n        /* \"#utility.yul\":14211:14244   */\n      mstore\n        /* \"#utility.yul\":14284:14290   */\n      dup2\n        /* \"#utility.yul\":14278:14291   */\n      mload\n        /* \"#utility.yul\":14312:14394   */\n      tag_290\n        /* \"#utility.yul\":14389:14393   */\n      dup6\n        /* \"#utility.yul\":14374:14387   */\n      dup3\n        /* \"#utility.yul\":14312:14394   */\n      tag_123\n      jump\t// in\n    tag_290:\n        /* \"#utility.yul\":14304:14394   */\n      swap5\n      pop\n        /* \"#utility.yul\":14417:14486   */\n      tag_291\n        /* \"#utility.yul\":14479:14485   */\n      dup4\n        /* \"#utility.yul\":14417:14486   */\n      tag_124\n      jump\t// in\n    tag_291:\n        /* \"#utility.yul\":14407:14486   */\n      swap3\n      pop\n        /* \"#utility.yul\":14515:14519   */\n      0x20\n        /* \"#utility.yul\":14510:14513   */\n      dup11\n        /* \"#utility.yul\":14506:14520   */\n      add\n        /* \"#utility.yul\":14499:14520   */\n      swap10\n      pop\n        /* \"#utility.yul\":14197:14530   */\n      pop\n        /* \"#utility.yul\":14184:14185   */\n      0x01\n        /* \"#utility.yul\":14181:14182   */\n      dup2\n        /* \"#utility.yul\":14177:14186   */\n      add\n        /* \"#utility.yul\":14172:14186   */\n      swap1\n      pop\n        /* \"#utility.yul\":14137:14530   */\n      jump(tag_287)\n    tag_289:\n        /* \"#utility.yul\":14141:14155   */\n      pop\n        /* \"#utility.yul\":14546:14550   */\n      dup3\n        /* \"#utility.yul\":14539:14550   */\n      swap8\n      pop\n        /* \"#utility.yul\":14566:14569   */\n      dup8\n        /* \"#utility.yul\":14559:14569   */\n      swap6\n      pop\n        /* \"#utility.yul\":13734:14575   */\n      pop\n      pop\n      pop\n      pop\n      pop\n        /* \"#utility.yul\":13592:14575   */\n      swap3\n      swap2\n      pop\n      pop\n      jump\t// out\n        /* \"#utility.yul\":14581:14699   */\n    tag_126:\n        /* \"#utility.yul\":14668:14692   */\n      tag_293\n        /* \"#utility.yul\":14686:14691   */\n      dup2\n        /* \"#utility.yul\":14668:14692   */\n      tag_111\n      jump\t// in\n    tag_293:\n        /* \"#utility.yul\":14663:14666   */\n      dup3\n        /* \"#utility.yul\":14656:14693   */\n      mstore\n        /* \"#utility.yul\":14581:14699   */\n      pop\n      pop\n      jump\t// out\n        /* \"#utility.yul\":14705:15445   */\n    tag_69:\n        /* \"#utility.yul\":14950:14954   */\n      0x00\n        /* \"#utility.yul\":14988:14991   */\n      0x80\n        /* \"#utility.yul\":14977:14986   */\n      dup3\n        /* \"#utility.yul\":14973:14992   */\n      add\n        /* \"#utility.yul\":14965:14992   */\n      swap1\n      pop\n        /* \"#utility.yul\":15002:15073   */\n      tag_295\n        /* \"#utility.yul\":15070:15071   */\n      0x00\n        /* \"#utility.yul\":15059:15068   */\n      dup4\n        /* \"#utility.yul\":15055:15072   */\n      add\n        /* \"#utility.yul\":15046:15052   */\n      dup8\n        /* \"#utility.yul\":15002:15073   */\n      tag_115\n      jump\t// in\n    tag_295:\n        /* \"#utility.yul\":15083:15155   */\n      tag_296\n        /* \"#utility.yul\":15151:15153   */\n      0x20\n        /* \"#utility.yul\":15140:15149   */\n      dup4\n        /* \"#utility.yul\":15136:15154   */\n      add\n        /* \"#utility.yul\":15127:15133   */\n      dup7\n        /* \"#utility.yul\":15083:15155   */\n      tag_115\n      jump\t// in\n    tag_296:\n        /* \"#utility.yul\":15202:15211   */\n      dup2\n        /* \"#utility.yul\":15196:15200   */\n      dup2\n        /* \"#utility.yul\":15192:15212   */\n      sub\n        /* \"#utility.yul\":15187:15189   */\n      0x40\n        /* \"#utility.yul\":15176:15185   */\n      dup4\n        /* \"#utility.yul\":15172:15190   */\n      add\n        /* \"#utility.yul\":15165:15213   */\n      mstore\n        /* \"#utility.yul\":15230:15356   */\n      tag_297\n        /* \"#utility.yul\":15351:15355   */\n      dup2\n        /* \"#utility.yul\":15342:15348   */\n      dup6\n        /* \"#utility.yul\":15230:15356   */\n      tag_125\n      jump\t// in\n    tag_297:\n        /* \"#utility.yul\":15222:15356   */\n      swap1\n      pop\n        /* \"#utility.yul\":15366:15438   */\n      tag_298\n        /* \"#utility.yul\":15434:15436   */\n      0x60\n        /* \"#utility.yul\":15423:15432   */\n      dup4\n        /* \"#utility.yul\":15419:15437   */\n      add\n        /* \"#utility.yul\":15410:15416   */\n      dup5\n        /* \"#utility.yul\":15366:15438   */\n      tag_126\n      jump\t// in\n    tag_298:\n        /* \"#utility.yul\":14705:15445   */\n      swap6\n      swap5\n      pop\n      pop\n      pop\n      pop\n      pop\n      jump\t// out\n\n    auxdata: 0xa26469706673582212207eaec51041a9abf99bb0172dd476b776322fa44de369878e541b58a34da6d68364736f6c634300080d0033\n}\n",
				"bytecode": {
					"linkReferences": {},
					"object": "608060405234801561001057600080fd5b50610d08806100206000396000f3fe608060405234801561001057600080fd5b50600436106100625760003560e01c80632d63f693146100675780633e4f49e6146100975780638c0e09f5146100c7578063c01f9e37146100f7578063ee4d602014610127578063f68deaf914610157575b600080fd5b610081600480360381019061007c91906104ad565b610187565b60405161008e91906104e9565b60405180910390f35b6100b160048036038101906100ac91906104ad565b6101cc565b6040516100be919061057b565b60405180910390f35b6100e160048036038101906100dc91906108c1565b61026d565b6040516100ee91906104e9565b60405180910390f35b610111600480360381019061010c91906104ad565b61035a565b60405161011e91906104e9565b60405180910390f35b610141600480360381019061013c91906109bc565b61039f565b60405161014e91906104e9565b60405180910390f35b610171600480360381019061016c91906104ad565b6103db565b60405161017e91906104e9565b60405180910390f35b60006101c560008084815260200190815260200160002060000160405180604001604052908160008201548152602001600182015481525050610420565b9050919050565b60008060008084815260200190815260200160002090508060060160009054906101000a900460ff1615610204576007915050610268565b8060060160019054906101000a900460ff1615610225576002915050610268565b600061023084610187565b905042811061024457600092505050610268565b600061024f8561035a565b90504281106102645760019350505050610268565b5050505b919050565b6000803390506000610288828786888051906020012061039f565b9050600080600083815260200190815260200160002090506000603c8060188d6102b29190610a6e565b6102bc9190610a6e565b6102c69190610a6e565b426102d19190610ac8565b90506000603c8060188d6102e59190610a6e565b6102ef9190610a6e565b6102f99190610a6e565b826103049190610ac8565b905061031c828460000161042e90919063ffffffff16565b610332818460020161042e90919063ffffffff16565b6103488a8460040161044890919063ffffffff16565b83955050505050509695505050505050565b600061039860008084815260200190815260200160002060020160405180604001604052908160008201548152602001600182015481525050610420565b9050919050565b6000848484846040516020016103b89493929190610c86565b6040516020818303038152906040528051906020012060001c9050949350505050565b600061041960008084815260200190815260200160002060040160405180604001604052908160008201548152602001600182015481525050610455565b9050919050565b600081600001519050919050565b6103e88161043c9190610a6e565b82600001819055505050565b8082600101819055505050565b600081602001519050919050565b6000604051905090565b600080fd5b600080fd5b6000819050919050565b61048a81610477565b811461049557600080fd5b50565b6000813590506104a781610481565b92915050565b6000602082840312156104c3576104c261046d565b5b60006104d184828501610498565b91505092915050565b6104e381610477565b82525050565b60006020820190506104fe60008301846104da565b92915050565b7f4e487b7100000000000000000000000000000000000000000000000000000000600052602160045260246000fd5b6008811061054457610543610504565b5b50565b600081905061055582610533565b919050565b600061056582610547565b9050919050565b6105758161055a565b82525050565b6000602082019050610590600083018461056c565b92915050565b600073ffffffffffffffffffffffffffffffffffffffff82169050919050565b60006105c182610596565b9050919050565b6105d1816105b6565b81146105dc57600080fd5b50565b6000813590506105ee816105c8565b92915050565b600080fd5b600080fd5b6000601f19601f8301169050919050565b7f4e487b7100000000000000000000000000000000000000000000000000000000600052604160045260246000fd5b610647826105fe565b810181811067ffffffffffffffff821117156106665761066561060f565b5b80604052505050565b6000610679610463565b9050610685828261063e565b919050565b600067ffffffffffffffff8211156106a5576106a461060f565b5b6106ae826105fe565b9050602081019050919050565b82818337600083830152505050565b60006106dd6106d88461068a565b61066f565b9050828152602081018484840111156106f9576106f86105f9565b5b6107048482856106bb565b509392505050565b600082601f830112610721576107206105f4565b5b81356107318482602086016106ca565b91505092915050565b600067ffffffffffffffff8211156107555761075461060f565b5b602082029050602081019050919050565b600080fd5b600067ffffffffffffffff8211156107865761078561060f565b5b61078f826105fe565b9050602081019050919050565b60006107af6107aa8461076b565b61066f565b9050828152602081018484840111156107cb576107ca6105f9565b5b6107d68482856106bb565b509392505050565b600082601f8301126107f3576107f26105f4565b5b813561080384826020860161079c565b91505092915050565b600061081f61081a8461073a565b61066f565b9050808382526020820190506020840283018581111561084257610841610766565b5b835b8181101561088957803567ffffffffffffffff811115610867576108666105f4565b5b80860161087489826107de565b85526020850194505050602081019050610844565b5050509392505050565b600082601f8301126108a8576108a76105f4565b5b81356108b884826020860161080c565b91505092915050565b60008060008060008060c087890312156108de576108dd61046d565b5b60006108ec89828a01610498565b96505060206108fd89828a01610498565b955050604061090e89828a01610498565b945050606061091f89828a016105df565b935050608087013567ffffffffffffffff8111156109405761093f610472565b5b61094c89828a0161070c565b92505060a087013567ffffffffffffffff81111561096d5761096c610472565b5b61097989828a01610893565b9150509295509295509295565b6000819050919050565b61099981610986565b81146109a457600080fd5b50565b6000813590506109b681610990565b92915050565b600080600080608085870312156109d6576109d561046d565b5b60006109e4878288016105df565b94505060206109f5878288016105df565b935050604085013567ffffffffffffffff811115610a1657610a15610472565b5b610a2287828801610893565b9250506060610a33878288016109a7565b91505092959194509250565b7f4e487b7100000000000000000000000000000000000000000000000000000000600052601160045260246000fd5b6000610a7982610477565b9150610a8483610477565b9250817fffffffffffffffffffffffffffffffffffffffffffffffffffffffffffffffff0483118215151615610abd57610abc610a3f565b5b828202905092915050565b6000610ad382610477565b9150610ade83610477565b9250827fffffffffffffffffffffffffffffffffffffffffffffffffffffffffffffffff03821115610b1357610b12610a3f565b5b828201905092915050565b610b27816105b6565b82525050565b600081519050919050565b600082825260208201905092915050565b6000819050602082019050919050565b600081519050919050565b600082825260208201905092915050565b60005b83811015610b93578082015181840152602081019050610b78565b83811115610ba2576000848401525b50505050565b6000610bb382610b59565b610bbd8185610b64565b9350610bcd818560208601610b75565b610bd6816105fe565b840191505092915050565b6000610bed8383610ba8565b905092915050565b6000602082019050919050565b6000610c0d82610b2d565b610c178185610b38565b935083602082028501610c2985610b49565b8060005b85811015610c655784840389528151610c468582610be1565b9450610c5183610bf5565b925060208a01995050600181019050610c2d565b50829750879550505050505092915050565b610c8081610986565b82525050565b6000608082019050610c9b6000830187610b1e565b610ca86020830186610b1e565b8181036040830152610cba8185610c02565b9050610cc96060830184610c77565b9594505050505056fea26469706673582212207eaec51041a9abf99bb0172dd476b776322fa44de369878e541b58a34da6d68364736f6c634300080d0033",
					"opcodes": "PUSH1 0x80 PUSH1 0x40 MSTORE CALLVALUE DUP1 ISZERO PUSH2 0x10 JUMPI PUSH1 0x0 DUP1 REVERT JUMPDEST POP PUSH2 0xD08 DUP1 PUSH2 0x20 PUSH1 0x0 CODECOPY PUSH1 0x0 RETURN INVALID PUSH1 0x80 PUSH1 0x40 MSTORE CALLVALUE DUP1 ISZERO PUSH2 0x10 JUMPI PUSH1 0x0 DUP1 REVERT JUMPDEST POP PUSH1 0x4 CALLDATASIZE LT PUSH2 0x62 JUMPI PUSH1 0x0 CALLDATALOAD PUSH1 0xE0 SHR DUP1 PUSH4 0x2D63F693 EQ PUSH2 0x67 JUMPI DUP1 PUSH4 0x3E4F49E6 EQ PUSH2 0x97 JUMPI DUP1 PUSH4 0x8C0E09F5 EQ PUSH2 0xC7 JUMPI DUP1 PUSH4 0xC01F9E37 EQ PUSH2 0xF7 JUMPI DUP1 PUSH4 0xEE4D6020 EQ PUSH2 0x127 JUMPI DUP1 PUSH4 0xF68DEAF9 EQ PUSH2 0x157 JUMPI JUMPDEST PUSH1 0x0 DUP1 REVERT JUMPDEST PUSH2 0x81 PUSH1 0x4 DUP1 CALLDATASIZE SUB DUP2 ADD SWAP1 PUSH2 0x7C SWAP2 SWAP1 PUSH2 0x4AD JUMP JUMPDEST PUSH2 0x187 JUMP JUMPDEST PUSH1 0x40 MLOAD PUSH2 0x8E SWAP2 SWAP1 PUSH2 0x4E9 JUMP JUMPDEST PUSH1 0x40 MLOAD DUP1 SWAP2 SUB SWAP1 RETURN JUMPDEST PUSH2 0xB1 PUSH1 0x4 DUP1 CALLDATASIZE SUB DUP2 ADD SWAP1 PUSH2 0xAC SWAP2 SWAP1 PUSH2 0x4AD JUMP JUMPDEST PUSH2 0x1CC JUMP JUMPDEST PUSH1 0x40 MLOAD PUSH2 0xBE SWAP2 SWAP1 PUSH2 0x57B JUMP JUMPDEST PUSH1 0x40 MLOAD DUP1 SWAP2 SUB SWAP1 RETURN JUMPDEST PUSH2 0xE1 PUSH1 0x4 DUP1 CALLDATASIZE SUB DUP2 ADD SWAP1 PUSH2 0xDC SWAP2 SWAP1 PUSH2 0x8C1 JUMP JUMPDEST PUSH2 0x26D JUMP JUMPDEST PUSH1 0x40 MLOAD PUSH2 0xEE SWAP2 SWAP1 PUSH2 0x4E9 JUMP JUMPDEST PUSH1 0x40 MLOAD DUP1 SWAP2 SUB SWAP1 RETURN JUMPDEST PUSH2 0x111 PUSH1 0x4 DUP1 CALLDATASIZE SUB DUP2 ADD SWAP1 PUSH2 0x10C SWAP2 SWAP1 PUSH2 0x4AD JUMP JUMPDEST PUSH2 0x35A JUMP JUMPDEST PUSH1 0x40 MLOAD PUSH2 0x11E SWAP2 SWAP1 PUSH2 0x4E9 JUMP JUMPDEST PUSH1 0x40 MLOAD DUP1 SWAP2 SUB SWAP1 RETURN JUMPDEST PUSH2 0x141 PUSH1 0x4 DUP1 CALLDATASIZE SUB DUP2 ADD SWAP1 PUSH2 0x13C SWAP2 SWAP1 PUSH2 0x9BC JUMP JUMPDEST PUSH2 0x39F JUMP JUMPDEST PUSH1 0x40 MLOAD PUSH2 0x14E SWAP2 SWAP1 PUSH2 0x4E9 JUMP JUMPDEST PUSH1 0x40 MLOAD DUP1 SWAP2 SUB SWAP1 RETURN JUMPDEST PUSH2 0x171 PUSH1 0x4 DUP1 CALLDATASIZE SUB DUP2 ADD SWAP1 PUSH2 0x16C SWAP2 SWAP1 PUSH2 0x4AD JUMP JUMPDEST PUSH2 0x3DB JUMP JUMPDEST PUSH1 0x40 MLOAD PUSH2 0x17E SWAP2 SWAP1 PUSH2 0x4E9 JUMP JUMPDEST PUSH1 0x40 MLOAD DUP1 SWAP2 SUB SWAP1 RETURN JUMPDEST PUSH1 0x0 PUSH2 0x1C5 PUSH1 0x0 DUP1 DUP5 DUP2 MSTORE PUSH1 0x20 ADD SWAP1 DUP2 MSTORE PUSH1 0x20 ADD PUSH1 0x0 KECCAK256 PUSH1 0x0 ADD PUSH1 0x40 MLOAD DUP1 PUSH1 0x40 ADD PUSH1 0x40 MSTORE SWAP1 DUP2 PUSH1 0x0 DUP3 ADD SLOAD DUP2 MSTORE PUSH1 0x20 ADD PUSH1 0x1 DUP3 ADD SLOAD DUP2 MSTORE POP POP PUSH2 0x420 JUMP JUMPDEST SWAP1 POP SWAP2 SWAP1 POP JUMP JUMPDEST PUSH1 0x0 DUP1 PUSH1 0x0 DUP1 DUP5 DUP2 MSTORE PUSH1 0x20 ADD SWAP1 DUP2 MSTORE PUSH1 0x20 ADD PUSH1 0x0 KECCAK256 SWAP1 POP DUP1 PUSH1 0x6 ADD PUSH1 0x0 SWAP1 SLOAD SWAP1 PUSH2 0x100 EXP SWAP1 DIV PUSH1 0xFF AND ISZERO PUSH2 0x204 JUMPI PUSH1 0x7 SWAP2 POP POP PUSH2 0x268 JUMP JUMPDEST DUP1 PUSH1 0x6 ADD PUSH1 0x1 SWAP1 SLOAD SWAP1 PUSH2 0x100 EXP SWAP1 DIV PUSH1 0xFF AND ISZERO PUSH2 0x225 JUMPI PUSH1 0x2 SWAP2 POP POP PUSH2 0x268 JUMP JUMPDEST PUSH1 0x0 PUSH2 0x230 DUP5 PUSH2 0x187 JUMP JUMPDEST SWAP1 POP TIMESTAMP DUP2 LT PUSH2 0x244 JUMPI PUSH1 0x0 SWAP3 POP POP POP PUSH2 0x268 JUMP JUMPDEST PUSH1 0x0 PUSH2 0x24F DUP6 PUSH2 0x35A JUMP JUMPDEST SWAP1 POP TIMESTAMP DUP2 LT PUSH2 0x264 JUMPI PUSH1 0x1 SWAP4 POP POP POP POP PUSH2 0x268 JUMP JUMPDEST POP POP POP JUMPDEST SWAP2 SWAP1 POP JUMP JUMPDEST PUSH1 0x0 DUP1 CALLER SWAP1 POP PUSH1 0x0 PUSH2 0x288 DUP3 DUP8 DUP7 DUP9 DUP1 MLOAD SWAP1 PUSH1 0x20 ADD KECCAK256 PUSH2 0x39F JUMP JUMPDEST SWAP1 POP PUSH1 0x0 DUP1 PUSH1 0x0 DUP4 DUP2 MSTORE PUSH1 0x20 ADD SWAP1 DUP2 MSTORE PUSH1 0x20 ADD PUSH1 0x0 KECCAK256 SWAP1 POP PUSH1 0x0 PUSH1 0x3C DUP1 PUSH1 0x18 DUP14 PUSH2 0x2B2 SWAP2 SWAP1 PUSH2 0xA6E JUMP JUMPDEST PUSH2 0x2BC SWAP2 SWAP1 PUSH2 0xA6E JUMP JUMPDEST PUSH2 0x2C6 SWAP2 SWAP1 PUSH2 0xA6E JUMP JUMPDEST TIMESTAMP PUSH2 0x2D1 SWAP2 SWAP1 PUSH2 0xAC8 JUMP JUMPDEST SWAP1 POP PUSH1 0x0 PUSH1 0x3C DUP1 PUSH1 0x18 DUP14 PUSH2 0x2E5 SWAP2 SWAP1 PUSH2 0xA6E JUMP JUMPDEST PUSH2 0x2EF SWAP2 SWAP1 PUSH2 0xA6E JUMP JUMPDEST PUSH2 0x2F9 SWAP2 SWAP1 PUSH2 0xA6E JUMP JUMPDEST DUP3 PUSH2 0x304 SWAP2 SWAP1 PUSH2 0xAC8 JUMP JUMPDEST SWAP1 POP PUSH2 0x31C DUP3 DUP5 PUSH1 0x0 ADD PUSH2 0x42E SWAP1 SWAP2 SWAP1 PUSH4 0xFFFFFFFF AND JUMP JUMPDEST PUSH2 0x332 DUP2 DUP5 PUSH1 0x2 ADD PUSH2 0x42E SWAP1 SWAP2 SWAP1 PUSH4 0xFFFFFFFF AND JUMP JUMPDEST PUSH2 0x348 DUP11 DUP5 PUSH1 0x4 ADD PUSH2 0x448 SWAP1 SWAP2 SWAP1 PUSH4 0xFFFFFFFF AND JUMP JUMPDEST DUP4 SWAP6 POP POP POP POP POP POP SWAP7 SWAP6 POP POP POP POP POP POP JUMP JUMPDEST PUSH1 0x0 PUSH2 0x398 PUSH1 0x0 DUP1 DUP5 DUP2 MSTORE PUSH1 0x20 ADD SWAP1 DUP2 MSTORE PUSH1 0x20 ADD PUSH1 0x0 KECCAK256 PUSH1 0x2 ADD PUSH1 0x40 MLOAD DUP1 PUSH1 0x40 ADD PUSH1 0x40 MSTORE SWAP1 DUP2 PUSH1 0x0 DUP3 ADD SLOAD DUP2 MSTORE PUSH1 0x20 ADD PUSH1 0x1 DUP3 ADD SLOAD DUP2 MSTORE POP POP PUSH2 0x420 JUMP JUMPDEST SWAP1 POP SWAP2 SWAP1 POP JUMP JUMPDEST PUSH1 0x0 DUP5 DUP5 DUP5 DUP5 PUSH1 0x40 MLOAD PUSH1 0x20 ADD PUSH2 0x3B8 SWAP5 SWAP4 SWAP3 SWAP2 SWAP1 PUSH2 0xC86 JUMP JUMPDEST PUSH1 0x40 MLOAD PUSH1 0x20 DUP2 DUP4 SUB SUB DUP2 MSTORE SWAP1 PUSH1 0x40 MSTORE DUP1 MLOAD SWAP1 PUSH1 0x20 ADD KECCAK256 PUSH1 0x0 SHR SWAP1 POP SWAP5 SWAP4 POP POP POP POP JUMP JUMPDEST PUSH1 0x0 PUSH2 0x419 PUSH1 0x0 DUP1 DUP5 DUP2 MSTORE PUSH1 0x20 ADD SWAP1 DUP2 MSTORE PUSH1 0x20 ADD PUSH1 0x0 KECCAK256 PUSH1 0x4 ADD PUSH1 0x40 MLOAD DUP1 PUSH1 0x40 ADD PUSH1 0x40 MSTORE SWAP1 DUP2 PUSH1 0x0 DUP3 ADD SLOAD DUP2 MSTORE PUSH1 0x20 ADD PUSH1 0x1 DUP3 ADD SLOAD DUP2 MSTORE POP POP PUSH2 0x455 JUMP JUMPDEST SWAP1 POP SWAP2 SWAP1 POP JUMP JUMPDEST PUSH1 0x0 DUP2 PUSH1 0x0 ADD MLOAD SWAP1 POP SWAP2 SWAP1 POP JUMP JUMPDEST PUSH2 0x3E8 DUP2 PUSH2 0x43C SWAP2 SWAP1 PUSH2 0xA6E JUMP JUMPDEST DUP3 PUSH1 0x0 ADD DUP2 SWAP1 SSTORE POP POP POP JUMP JUMPDEST DUP1 DUP3 PUSH1 0x1 ADD DUP2 SWAP1 SSTORE POP POP POP JUMP JUMPDEST PUSH1 0x0 DUP2 PUSH1 0x20 ADD MLOAD SWAP1 POP SWAP2 SWAP1 POP JUMP JUMPDEST PUSH1 0x0 PUSH1 0x40 MLOAD SWAP1 POP SWAP1 JUMP JUMPDEST PUSH1 0x0 DUP1 REVERT JUMPDEST PUSH1 0x0 DUP1 REVERT JUMPDEST PUSH1 0x0 DUP2 SWAP1 POP SWAP2 SWAP1 POP JUMP JUMPDEST PUSH2 0x48A DUP2 PUSH2 0x477 JUMP JUMPDEST DUP2 EQ PUSH2 0x495 JUMPI PUSH1 0x0 DUP1 REVERT JUMPDEST POP JUMP JUMPDEST PUSH1 0x0 DUP2 CALLDATALOAD SWAP1 POP PUSH2 0x4A7 DUP2 PUSH2 0x481 JUMP JUMPDEST SWAP3 SWAP2 POP POP JUMP JUMPDEST PUSH1 0x0 PUSH1 0x20 DUP3 DUP5 SUB SLT ISZERO PUSH2 0x4C3 JUMPI PUSH2 0x4C2 PUSH2 0x46D JUMP JUMPDEST JUMPDEST PUSH1 0x0 PUSH2 0x4D1 DUP5 DUP3 DUP6 ADD PUSH2 0x498 JUMP JUMPDEST SWAP2 POP POP SWAP3 SWAP2 POP POP JUMP JUMPDEST PUSH2 0x4E3 DUP2 PUSH2 0x477 JUMP JUMPDEST DUP3 MSTORE POP POP JUMP JUMPDEST PUSH1 0x0 PUSH1 0x20 DUP3 ADD SWAP1 POP PUSH2 0x4FE PUSH1 0x0 DUP4 ADD DUP5 PUSH2 0x4DA JUMP JUMPDEST SWAP3 SWAP2 POP POP JUMP JUMPDEST PUSH32 0x4E487B7100000000000000000000000000000000000000000000000000000000 PUSH1 0x0 MSTORE PUSH1 0x21 PUSH1 0x4 MSTORE PUSH1 0x24 PUSH1 0x0 REVERT JUMPDEST PUSH1 0x8 DUP2 LT PUSH2 0x544 JUMPI PUSH2 0x543 PUSH2 0x504 JUMP JUMPDEST JUMPDEST POP JUMP JUMPDEST PUSH1 0x0 DUP2 SWAP1 POP PUSH2 0x555 DUP3 PUSH2 0x533 JUMP JUMPDEST SWAP2 SWAP1 POP JUMP JUMPDEST PUSH1 0x0 PUSH2 0x565 DUP3 PUSH2 0x547 JUMP JUMPDEST SWAP1 POP SWAP2 SWAP1 POP JUMP JUMPDEST PUSH2 0x575 DUP2 PUSH2 0x55A JUMP JUMPDEST DUP3 MSTORE POP POP JUMP JUMPDEST PUSH1 0x0 PUSH1 0x20 DUP3 ADD SWAP1 POP PUSH2 0x590 PUSH1 0x0 DUP4 ADD DUP5 PUSH2 0x56C JUMP JUMPDEST SWAP3 SWAP2 POP POP JUMP JUMPDEST PUSH1 0x0 PUSH20 0xFFFFFFFFFFFFFFFFFFFFFFFFFFFFFFFFFFFFFFFF DUP3 AND SWAP1 POP SWAP2 SWAP1 POP JUMP JUMPDEST PUSH1 0x0 PUSH2 0x5C1 DUP3 PUSH2 0x596 JUMP JUMPDEST SWAP1 POP SWAP2 SWAP1 POP JUMP JUMPDEST PUSH2 0x5D1 DUP2 PUSH2 0x5B6 JUMP JUMPDEST DUP2 EQ PUSH2 0x5DC JUMPI PUSH1 0x0 DUP1 REVERT JUMPDEST POP JUMP JUMPDEST PUSH1 0x0 DUP2 CALLDATALOAD SWAP1 POP PUSH2 0x5EE DUP2 PUSH2 0x5C8 JUMP JUMPDEST SWAP3 SWAP2 POP POP JUMP JUMPDEST PUSH1 0x0 DUP1 REVERT JUMPDEST PUSH1 0x0 DUP1 REVERT JUMPDEST PUSH1 0x0 PUSH1 0x1F NOT PUSH1 0x1F DUP4 ADD AND SWAP1 POP SWAP2 SWAP1 POP JUMP JUMPDEST PUSH32 0x4E487B7100000000000000000000000000000000000000000000000000000000 PUSH1 0x0 MSTORE PUSH1 0x41 PUSH1 0x4 MSTORE PUSH1 0x24 PUSH1 0x0 REVERT JUMPDEST PUSH2 0x647 DUP3 PUSH2 0x5FE JUMP JUMPDEST DUP2 ADD DUP2 DUP2 LT PUSH8 0xFFFFFFFFFFFFFFFF DUP3 GT OR ISZERO PUSH2 0x666 JUMPI PUSH2 0x665 PUSH2 0x60F JUMP JUMPDEST JUMPDEST DUP1 PUSH1 0x40 MSTORE POP POP POP JUMP JUMPDEST PUSH1 0x0 PUSH2 0x679 PUSH2 0x463 JUMP JUMPDEST SWAP1 POP PUSH2 0x685 DUP3 DUP3 PUSH2 0x63E JUMP JUMPDEST SWAP2 SWAP1 POP JUMP JUMPDEST PUSH1 0x0 PUSH8 0xFFFFFFFFFFFFFFFF DUP3 GT ISZERO PUSH2 0x6A5 JUMPI PUSH2 0x6A4 PUSH2 0x60F JUMP JUMPDEST JUMPDEST PUSH2 0x6AE DUP3 PUSH2 0x5FE JUMP JUMPDEST SWAP1 POP PUSH1 0x20 DUP2 ADD SWAP1 POP SWAP2 SWAP1 POP JUMP JUMPDEST DUP3 DUP2 DUP4 CALLDATACOPY PUSH1 0x0 DUP4 DUP4 ADD MSTORE POP POP POP JUMP JUMPDEST PUSH1 0x0 PUSH2 0x6DD PUSH2 0x6D8 DUP5 PUSH2 0x68A JUMP JUMPDEST PUSH2 0x66F JUMP JUMPDEST SWAP1 POP DUP3 DUP2 MSTORE PUSH1 0x20 DUP2 ADD DUP5 DUP5 DUP5 ADD GT ISZERO PUSH2 0x6F9 JUMPI PUSH2 0x6F8 PUSH2 0x5F9 JUMP JUMPDEST JUMPDEST PUSH2 0x704 DUP5 DUP3 DUP6 PUSH2 0x6BB JUMP JUMPDEST POP SWAP4 SWAP3 POP POP POP JUMP JUMPDEST PUSH1 0x0 DUP3 PUSH1 0x1F DUP4 ADD SLT PUSH2 0x721 JUMPI PUSH2 0x720 PUSH2 0x5F4 JUMP JUMPDEST JUMPDEST DUP2 CALLDATALOAD PUSH2 0x731 DUP5 DUP3 PUSH1 0x20 DUP7 ADD PUSH2 0x6CA JUMP JUMPDEST SWAP2 POP POP SWAP3 SWAP2 POP POP JUMP JUMPDEST PUSH1 0x0 PUSH8 0xFFFFFFFFFFFFFFFF DUP3 GT ISZERO PUSH2 0x755 JUMPI PUSH2 0x754 PUSH2 0x60F JUMP JUMPDEST JUMPDEST PUSH1 0x20 DUP3 MUL SWAP1 POP PUSH1 0x20 DUP2 ADD SWAP1 POP SWAP2 SWAP1 POP JUMP JUMPDEST PUSH1 0x0 DUP1 REVERT JUMPDEST PUSH1 0x0 PUSH8 0xFFFFFFFFFFFFFFFF DUP3 GT ISZERO PUSH2 0x786 JUMPI PUSH2 0x785 PUSH2 0x60F JUMP JUMPDEST JUMPDEST PUSH2 0x78F DUP3 PUSH2 0x5FE JUMP JUMPDEST SWAP1 POP PUSH1 0x20 DUP2 ADD SWAP1 POP SWAP2 SWAP1 POP JUMP JUMPDEST PUSH1 0x0 PUSH2 0x7AF PUSH2 0x7AA DUP5 PUSH2 0x76B JUMP JUMPDEST PUSH2 0x66F JUMP JUMPDEST SWAP1 POP DUP3 DUP2 MSTORE PUSH1 0x20 DUP2 ADD DUP5 DUP5 DUP5 ADD GT ISZERO PUSH2 0x7CB JUMPI PUSH2 0x7CA PUSH2 0x5F9 JUMP JUMPDEST JUMPDEST PUSH2 0x7D6 DUP5 DUP3 DUP6 PUSH2 0x6BB JUMP JUMPDEST POP SWAP4 SWAP3 POP POP POP JUMP JUMPDEST PUSH1 0x0 DUP3 PUSH1 0x1F DUP4 ADD SLT PUSH2 0x7F3 JUMPI PUSH2 0x7F2 PUSH2 0x5F4 JUMP JUMPDEST JUMPDEST DUP2 CALLDATALOAD PUSH2 0x803 DUP5 DUP3 PUSH1 0x20 DUP7 ADD PUSH2 0x79C JUMP JUMPDEST SWAP2 POP POP SWAP3 SWAP2 POP POP JUMP JUMPDEST PUSH1 0x0 PUSH2 0x81F PUSH2 0x81A DUP5 PUSH2 0x73A JUMP JUMPDEST PUSH2 0x66F JUMP JUMPDEST SWAP1 POP DUP1 DUP4 DUP3 MSTORE PUSH1 0x20 DUP3 ADD SWAP1 POP PUSH1 0x20 DUP5 MUL DUP4 ADD DUP6 DUP2 GT ISZERO PUSH2 0x842 JUMPI PUSH2 0x841 PUSH2 0x766 JUMP JUMPDEST JUMPDEST DUP4 JUMPDEST DUP2 DUP2 LT ISZERO PUSH2 0x889 JUMPI DUP1 CALLDATALOAD PUSH8 0xFFFFFFFFFFFFFFFF DUP2 GT ISZERO PUSH2 0x867 JUMPI PUSH2 0x866 PUSH2 0x5F4 JUMP JUMPDEST JUMPDEST DUP1 DUP7 ADD PUSH2 0x874 DUP10 DUP3 PUSH2 0x7DE JUMP JUMPDEST DUP6 MSTORE PUSH1 0x20 DUP6 ADD SWAP5 POP POP POP PUSH1 0x20 DUP2 ADD SWAP1 POP PUSH2 0x844 JUMP JUMPDEST POP POP POP SWAP4 SWAP3 POP POP POP JUMP JUMPDEST PUSH1 0x0 DUP3 PUSH1 0x1F DUP4 ADD SLT PUSH2 0x8A8 JUMPI PUSH2 0x8A7 PUSH2 0x5F4 JUMP JUMPDEST JUMPDEST DUP2 CALLDATALOAD PUSH2 0x8B8 DUP5 DUP3 PUSH1 0x20 DUP7 ADD PUSH2 0x80C JUMP JUMPDEST SWAP2 POP POP SWAP3 SWAP2 POP POP JUMP JUMPDEST PUSH1 0x0 DUP1 PUSH1 0x0 DUP1 PUSH1 0x0 DUP1 PUSH1 0xC0 DUP8 DUP10 SUB SLT ISZERO PUSH2 0x8DE JUMPI PUSH2 0x8DD PUSH2 0x46D JUMP JUMPDEST JUMPDEST PUSH1 0x0 PUSH2 0x8EC DUP10 DUP3 DUP11 ADD PUSH2 0x498 JUMP JUMPDEST SWAP7 POP POP PUSH1 0x20 PUSH2 0x8FD DUP10 DUP3 DUP11 ADD PUSH2 0x498 JUMP JUMPDEST SWAP6 POP POP PUSH1 0x40 PUSH2 0x90E DUP10 DUP3 DUP11 ADD PUSH2 0x498 JUMP JUMPDEST SWAP5 POP POP PUSH1 0x60 PUSH2 0x91F DUP10 DUP3 DUP11 ADD PUSH2 0x5DF JUMP JUMPDEST SWAP4 POP POP PUSH1 0x80 DUP8 ADD CALLDATALOAD PUSH8 0xFFFFFFFFFFFFFFFF DUP2 GT ISZERO PUSH2 0x940 JUMPI PUSH2 0x93F PUSH2 0x472 JUMP JUMPDEST JUMPDEST PUSH2 0x94C DUP10 DUP3 DUP11 ADD PUSH2 0x70C JUMP JUMPDEST SWAP3 POP POP PUSH1 0xA0 DUP8 ADD CALLDATALOAD PUSH8 0xFFFFFFFFFFFFFFFF DUP2 GT ISZERO PUSH2 0x96D JUMPI PUSH2 0x96C PUSH2 0x472 JUMP JUMPDEST JUMPDEST PUSH2 0x979 DUP10 DUP3 DUP11 ADD PUSH2 0x893 JUMP JUMPDEST SWAP2 POP POP SWAP3 SWAP6 POP SWAP3 SWAP6 POP SWAP3 SWAP6 JUMP JUMPDEST PUSH1 0x0 DUP2 SWAP1 POP SWAP2 SWAP1 POP JUMP JUMPDEST PUSH2 0x999 DUP2 PUSH2 0x986 JUMP JUMPDEST DUP2 EQ PUSH2 0x9A4 JUMPI PUSH1 0x0 DUP1 REVERT JUMPDEST POP JUMP JUMPDEST PUSH1 0x0 DUP2 CALLDATALOAD SWAP1 POP PUSH2 0x9B6 DUP2 PUSH2 0x990 JUMP JUMPDEST SWAP3 SWAP2 POP POP JUMP JUMPDEST PUSH1 0x0 DUP1 PUSH1 0x0 DUP1 PUSH1 0x80 DUP6 DUP8 SUB SLT ISZERO PUSH2 0x9D6 JUMPI PUSH2 0x9D5 PUSH2 0x46D JUMP JUMPDEST JUMPDEST PUSH1 0x0 PUSH2 0x9E4 DUP8 DUP3 DUP9 ADD PUSH2 0x5DF JUMP JUMPDEST SWAP5 POP POP PUSH1 0x20 PUSH2 0x9F5 DUP8 DUP3 DUP9 ADD PUSH2 0x5DF JUMP JUMPDEST SWAP4 POP POP PUSH1 0x40 DUP6 ADD CALLDATALOAD PUSH8 0xFFFFFFFFFFFFFFFF DUP2 GT ISZERO PUSH2 0xA16 JUMPI PUSH2 0xA15 PUSH2 0x472 JUMP JUMPDEST JUMPDEST PUSH2 0xA22 DUP8 DUP3 DUP9 ADD PUSH2 0x893 JUMP JUMPDEST SWAP3 POP POP PUSH1 0x60 PUSH2 0xA33 DUP8 DUP3 DUP9 ADD PUSH2 0x9A7 JUMP JUMPDEST SWAP2 POP POP SWAP3 SWAP6 SWAP2 SWAP5 POP SWAP3 POP JUMP JUMPDEST PUSH32 0x4E487B7100000000000000000000000000000000000000000000000000000000 PUSH1 0x0 MSTORE PUSH1 0x11 PUSH1 0x4 MSTORE PUSH1 0x24 PUSH1 0x0 REVERT JUMPDEST PUSH1 0x0 PUSH2 0xA79 DUP3 PUSH2 0x477 JUMP JUMPDEST SWAP2 POP PUSH2 0xA84 DUP4 PUSH2 0x477 JUMP JUMPDEST SWAP3 POP DUP2 PUSH32 0xFFFFFFFFFFFFFFFFFFFFFFFFFFFFFFFFFFFFFFFFFFFFFFFFFFFFFFFFFFFFFFFF DIV DUP4 GT DUP3 ISZERO ISZERO AND ISZERO PUSH2 0xABD JUMPI PUSH2 0xABC PUSH2 0xA3F JUMP JUMPDEST JUMPDEST DUP3 DUP3 MUL SWAP1 POP SWAP3 SWAP2 POP POP JUMP JUMPDEST PUSH1 0x0 PUSH2 0xAD3 DUP3 PUSH2 0x477 JUMP JUMPDEST SWAP2 POP PUSH2 0xADE DUP4 PUSH2 0x477 JUMP JUMPDEST SWAP3 POP DUP3 PUSH32 0xFFFFFFFFFFFFFFFFFFFFFFFFFFFFFFFFFFFFFFFFFFFFFFFFFFFFFFFFFFFFFFFF SUB DUP3 GT ISZERO PUSH2 0xB13 JUMPI PUSH2 0xB12 PUSH2 0xA3F JUMP JUMPDEST JUMPDEST DUP3 DUP3 ADD SWAP1 POP SWAP3 SWAP2 POP POP JUMP JUMPDEST PUSH2 0xB27 DUP2 PUSH2 0x5B6 JUMP JUMPDEST DUP3 MSTORE POP POP JUMP JUMPDEST PUSH1 0x0 DUP2 MLOAD SWAP1 POP SWAP2 SWAP1 POP JUMP JUMPDEST PUSH1 0x0 DUP3 DUP3 MSTORE PUSH1 0x20 DUP3 ADD SWAP1 POP SWAP3 SWAP2 POP POP JUMP JUMPDEST PUSH1 0x0 DUP2 SWAP1 POP PUSH1 0x20 DUP3 ADD SWAP1 POP SWAP2 SWAP1 POP JUMP JUMPDEST PUSH1 0x0 DUP2 MLOAD SWAP1 POP SWAP2 SWAP1 POP JUMP JUMPDEST PUSH1 0x0 DUP3 DUP3 MSTORE PUSH1 0x20 DUP3 ADD SWAP1 POP SWAP3 SWAP2 POP POP JUMP JUMPDEST PUSH1 0x0 JUMPDEST DUP4 DUP2 LT ISZERO PUSH2 0xB93 JUMPI DUP1 DUP3 ADD MLOAD DUP2 DUP5 ADD MSTORE PUSH1 0x20 DUP2 ADD SWAP1 POP PUSH2 0xB78 JUMP JUMPDEST DUP4 DUP2 GT ISZERO PUSH2 0xBA2 JUMPI PUSH1 0x0 DUP5 DUP5 ADD MSTORE JUMPDEST POP POP POP POP JUMP JUMPDEST PUSH1 0x0 PUSH2 0xBB3 DUP3 PUSH2 0xB59 JUMP JUMPDEST PUSH2 0xBBD DUP2 DUP6 PUSH2 0xB64 JUMP JUMPDEST SWAP4 POP PUSH2 0xBCD DUP2 DUP6 PUSH1 0x20 DUP7 ADD PUSH2 0xB75 JUMP JUMPDEST PUSH2 0xBD6 DUP2 PUSH2 0x5FE JUMP JUMPDEST DUP5 ADD SWAP2 POP POP SWAP3 SWAP2 POP POP JUMP JUMPDEST PUSH1 0x0 PUSH2 0xBED DUP4 DUP4 PUSH2 0xBA8 JUMP JUMPDEST SWAP1 POP SWAP3 SWAP2 POP POP JUMP JUMPDEST PUSH1 0x0 PUSH1 0x20 DUP3 ADD SWAP1 POP SWAP2 SWAP1 POP JUMP JUMPDEST PUSH1 0x0 PUSH2 0xC0D DUP3 PUSH2 0xB2D JUMP JUMPDEST PUSH2 0xC17 DUP2 DUP6 PUSH2 0xB38 JUMP JUMPDEST SWAP4 POP DUP4 PUSH1 0x20 DUP3 MUL DUP6 ADD PUSH2 0xC29 DUP6 PUSH2 0xB49 JUMP JUMPDEST DUP1 PUSH1 0x0 JUMPDEST DUP6 DUP2 LT ISZERO PUSH2 0xC65 JUMPI DUP5 DUP5 SUB DUP10 MSTORE DUP2 MLOAD PUSH2 0xC46 DUP6 DUP3 PUSH2 0xBE1 JUMP JUMPDEST SWAP5 POP PUSH2 0xC51 DUP4 PUSH2 0xBF5 JUMP JUMPDEST SWAP3 POP PUSH1 0x20 DUP11 ADD SWAP10 POP POP PUSH1 0x1 DUP2 ADD SWAP1 POP PUSH2 0xC2D JUMP JUMPDEST POP DUP3 SWAP8 POP DUP8 SWAP6 POP POP POP POP POP POP SWAP3 SWAP2 POP POP JUMP JUMPDEST PUSH2 0xC80 DUP2 PUSH2 0x986 JUMP JUMPDEST DUP3 MSTORE POP POP JUMP JUMPDEST PUSH1 0x0 PUSH1 0x80 DUP3 ADD SWAP1 POP PUSH2 0xC9B PUSH1 0x0 DUP4 ADD DUP8 PUSH2 0xB1E JUMP JUMPDEST PUSH2 0xCA8 PUSH1 0x20 DUP4 ADD DUP7 PUSH2 0xB1E JUMP JUMPDEST DUP2 DUP2 SUB PUSH1 0x40 DUP4 ADD MSTORE PUSH2 0xCBA DUP2 DUP6 PUSH2 0xC02 JUMP JUMPDEST SWAP1 POP PUSH2 0xCC9 PUSH1 0x60 DUP4 ADD DUP5 PUSH2 0xC77 JUMP JUMPDEST SWAP6 SWAP5 POP POP POP POP POP JUMP INVALID LOG2 PUSH5 0x6970667358 0x22 SLT KECCAK256 PUSH31 0xAEC51041A9ABF99BB0172DD476B776322FA44DE369878E541B58A34DA6D683 PUSH5 0x736F6C6343 STOP ADDMOD 0xD STOP CALLER "
				},
				"gasEstimates": {
					"creation": {
						"codeDepositCost": "667200",
						"executionCost": "702",
						"totalCost": "667902"
					},
					"external": {
						"hashProposal(address,address,bytes[],bytes32)": "infinite",
						"proposal(uint256,uint256,uint256,address,string,bytes[])": "infinite",
						"proposalDeadline(uint256)": "infinite",
						"proposalDonateMinimum(uint256)": "infinite",
						"proposalSnapshot(uint256)": "infinite",
						"state(uint256)": "infinite"
					}
				},
				"methodIdentifiers": {
					"hashProposal(address,address,bytes[],bytes32)": "ee4d6020",
					"proposal(uint256,uint256,uint256,address,string,bytes[])": "8c0e09f5",
					"proposalDeadline(uint256)": "c01f9e37",
					"proposalDonateMinimum(uint256)": "f68deaf9",
					"proposalSnapshot(uint256)": "2d63f693",
					"state(uint256)": "3e4f49e6"
				}
			},
			"storageLayout": {
				"storage": [
					{
						"astId": 40,
						"contract": ".workspaces/default_workspace/unMiracle/UMRproposal.sol:UMRproposal",
						"label": "_proposals",
						"offset": 0,
						"slot": "0",
						"type": "t_mapping(t_uint256,t_struct(ProposalCore)35_storage)"
					}
				],
				"types": {
					"t_bool": {
						"encoding": "inplace",
						"label": "bool",
						"numberOfBytes": "1"
					},
					"t_mapping(t_uint256,t_struct(ProposalCore)35_storage)": {
						"encoding": "mapping",
						"key": "t_uint256",
						"label": "mapping(uint256 => struct UMRproposal.ProposalCore)",
						"numberOfBytes": "32",
						"value": "t_struct(ProposalCore)35_storage"
					},
					"t_struct(ProposalCore)35_storage": {
						"encoding": "inplace",
						"label": "struct UMRproposal.ProposalCore",
						"members": [
							{
								"astId": 24,
								"contract": ".workspaces/default_workspace/unMiracle/UMRproposal.sol:UMRproposal",
								"label": "donationStart",
								"offset": 0,
								"slot": "0",
								"type": "t_struct(SetInfo)277_storage"
							},
							{
								"astId": 27,
								"contract": ".workspaces/default_workspace/unMiracle/UMRproposal.sol:UMRproposal",
								"label": "donationEnd",
								"offset": 0,
								"slot": "2",
								"type": "t_struct(SetInfo)277_storage"
							},
							{
								"astId": 30,
								"contract": ".workspaces/default_workspace/unMiracle/UMRproposal.sol:UMRproposal",
								"label": "donateMinimum",
								"offset": 0,
								"slot": "4",
								"type": "t_struct(SetInfo)277_storage"
							},
							{
								"astId": 32,
								"contract": ".workspaces/default_workspace/unMiracle/UMRproposal.sol:UMRproposal",
								"label": "executed",
								"offset": 0,
								"slot": "6",
								"type": "t_bool"
							},
							{
								"astId": 34,
								"contract": ".workspaces/default_workspace/unMiracle/UMRproposal.sol:UMRproposal",
								"label": "canceled",
								"offset": 1,
								"slot": "6",
								"type": "t_bool"
							}
						],
						"numberOfBytes": "224"
					},
					"t_struct(SetInfo)277_storage": {
						"encoding": "inplace",
						"label": "struct Setting.SetInfo",
						"members": [
							{
								"astId": 274,
								"contract": ".workspaces/default_workspace/unMiracle/UMRproposal.sol:UMRproposal",
								"label": "deadline",
								"offset": 0,
								"slot": "0",
								"type": "t_uint256"
							},
							{
								"astId": 276,
								"contract": ".workspaces/default_workspace/unMiracle/UMRproposal.sol:UMRproposal",
								"label": "amount",
								"offset": 0,
								"slot": "1",
								"type": "t_uint256"
							}
						],
						"numberOfBytes": "64"
					},
					"t_uint256": {
						"encoding": "inplace",
						"label": "uint256",
						"numberOfBytes": "32"
					}
				}
			},
			"userdoc": {
				"kind": "user",
				"methods": {},
				"version": 1
			}
		}
	}
}