{
	".workspaces/default_workspace/unMiracle/test.sol": {
		"test": {
			"abi": [
				{
					"inputs": [
						{
							"internalType": "bytes",
							"name": "data",
							"type": "bytes"
						}
					],
					"name": "abiDecode",
					"outputs": [
						{
							"internalType": "uint256",
							"name": "_str1",
							"type": "uint256"
						},
						{
							"internalType": "uint256",
							"name": "_number",
							"type": "uint256"
						},
						{
							"internalType": "uint256",
							"name": "_str2",
							"type": "uint256"
						}
					],
					"stateMutability": "nonpayable",
					"type": "function"
				},
				{
					"inputs": [],
					"name": "abiEncode",
					"outputs": [
						{
							"internalType": "bytes",
							"name": "",
							"type": "bytes"
						}
					],
					"stateMutability": "nonpayable",
					"type": "function"
				},
				{
					"inputs": [],
					"name": "deadline",
					"outputs": [
						{
							"internalType": "uint64",
							"name": "",
							"type": "uint64"
						}
					],
					"stateMutability": "view",
					"type": "function"
				},
				{
					"inputs": [],
					"name": "keccak256test",
					"outputs": [
						{
							"internalType": "bytes",
							"name": "",
							"type": "bytes"
						}
					],
					"stateMutability": "nonpayable",
					"type": "function"
				},
				{
					"inputs": [],
					"name": "snapshot",
					"outputs": [
						{
							"internalType": "uint64",
							"name": "",
							"type": "uint64"
						}
					],
					"stateMutability": "view",
					"type": "function"
				},
				{
					"inputs": [],
					"name": "votingDelay",
					"outputs": [
						{
							"internalType": "uint256",
							"name": "",
							"type": "uint256"
						}
					],
					"stateMutability": "pure",
					"type": "function"
				},
				{
					"inputs": [],
					"name": "votingPeriod",
					"outputs": [
						{
							"internalType": "uint256",
							"name": "",
							"type": "uint256"
						}
					],
					"stateMutability": "pure",
					"type": "function"
				}
			],
			"devdoc": {
				"kind": "dev",
				"methods": {},
				"version": 1
			},
			"evm": {
				"assembly": "    /* \".workspaces/default_workspace/unMiracle/test.sol\":170:1309  contract test {... */\n  mstore(0x40, 0x80)\n  callvalue\n  dup1\n  iszero\n  tag_1\n  jumpi\n  0x00\n  dup1\n  revert\ntag_1:\n  pop\n  dataSize(sub_0)\n  dup1\n  dataOffset(sub_0)\n  0x00\n  codecopy\n  0x00\n  return\nstop\n\nsub_0: assembly {\n        /* \".workspaces/default_workspace/unMiracle/test.sol\":170:1309  contract test {... */\n      mstore(0x40, 0x80)\n      callvalue\n      dup1\n      iszero\n      tag_1\n      jumpi\n      0x00\n      dup1\n      revert\n    tag_1:\n      pop\n      jumpi(tag_2, lt(calldatasize, 0x04))\n      shr(0xe0, calldataload(0x00))\n      dup1\n      0x416bdc52\n      gt\n      tag_10\n      jumpi\n      dup1\n      0x416bdc52\n      eq\n      tag_6\n      jumpi\n      dup1\n      0x6097e7a3\n      eq\n      tag_7\n      jumpi\n      dup1\n      0x8c492a76\n      eq\n      tag_8\n      jumpi\n      dup1\n      0x9711715a\n      eq\n      tag_9\n      jumpi\n      jump(tag_2)\n    tag_10:\n      dup1\n      0x02a251a3\n      eq\n      tag_3\n      jumpi\n      dup1\n      0x29dcb0cf\n      eq\n      tag_4\n      jumpi\n      dup1\n      0x3932abb1\n      eq\n      tag_5\n      jumpi\n    tag_2:\n      0x00\n      dup1\n      revert\n        /* \".workspaces/default_workspace/unMiracle/test.sol\":837:928  function votingPeriod() public pure returns(uint256) {... */\n    tag_3:\n      tag_11\n      tag_12\n      jump\t// in\n    tag_11:\n      mload(0x40)\n      tag_13\n      swap2\n      swap1\n      tag_14\n      jump\t// in\n    tag_13:\n      mload(0x40)\n      dup1\n      swap2\n      sub\n      swap1\n      return\n        /* \".workspaces/default_workspace/unMiracle/test.sol\":1093:1307  function deadline() public view returns(uint64) {... */\n    tag_4:\n      tag_15\n      tag_16\n      jump\t// in\n    tag_15:\n      mload(0x40)\n      tag_17\n      swap2\n      swap1\n      tag_18\n      jump\t// in\n    tag_17:\n      mload(0x40)\n      dup1\n      swap2\n      sub\n      swap1\n      return\n        /* \".workspaces/default_workspace/unMiracle/test.sol\":754:831  function votingDelay() public pure returns(uint256) {... */\n    tag_5:\n      tag_19\n      tag_20\n      jump\t// in\n    tag_19:\n      mload(0x40)\n      tag_21\n      swap2\n      swap1\n      tag_14\n      jump\t// in\n    tag_21:\n      mload(0x40)\n      dup1\n      swap2\n      sub\n      swap1\n      return\n        /* \".workspaces/default_workspace/unMiracle/test.sol\":565:747  function abiDecode(bytes memory data) public returns(uint _str1, uint _number, uint _str2) {... */\n    tag_6:\n      tag_22\n      0x04\n      dup1\n      calldatasize\n      sub\n      dup2\n      add\n      swap1\n      tag_23\n      swap2\n      swap1\n      tag_24\n      jump\t// in\n    tag_23:\n      tag_25\n      jump\t// in\n    tag_22:\n      mload(0x40)\n      tag_26\n      swap4\n      swap3\n      swap2\n      swap1\n      tag_27\n      jump\t// in\n    tag_26:\n      mload(0x40)\n      dup1\n      swap2\n      sub\n      swap1\n      return\n        /* \".workspaces/default_workspace/unMiracle/test.sol\":462:560  function abiEncode() public returns(bytes memory) {... */\n    tag_7:\n      tag_28\n      tag_29\n      jump\t// in\n    tag_28:\n      mload(0x40)\n      tag_30\n      swap2\n      swap1\n      tag_31\n      jump\t// in\n    tag_30:\n      mload(0x40)\n      dup1\n      swap2\n      sub\n      swap1\n      return\n        /* \".workspaces/default_workspace/unMiracle/test.sol\":192:456  function keccak256test() public returns(bytes memory) {... */\n    tag_8:\n      tag_32\n      tag_33\n      jump\t// in\n    tag_32:\n      mload(0x40)\n      tag_34\n      swap2\n      swap1\n      tag_31\n      jump\t// in\n    tag_34:\n      mload(0x40)\n      dup1\n      swap2\n      sub\n      swap1\n      return\n        /* \".workspaces/default_workspace/unMiracle/test.sol\":934:1087  function snapshot() public view returns(uint64) {... */\n    tag_9:\n      tag_35\n      tag_36\n      jump\t// in\n    tag_35:\n      mload(0x40)\n      tag_37\n      swap2\n      swap1\n      tag_18\n      jump\t// in\n    tag_37:\n      mload(0x40)\n      dup1\n      swap2\n      sub\n      swap1\n      return\n        /* \".workspaces/default_workspace/unMiracle/test.sol\":837:928  function votingPeriod() public pure returns(uint256) {... */\n    tag_12:\n        /* \".workspaces/default_workspace/unMiracle/test.sol\":881:888  uint256 */\n      0x00\n        /* \".workspaces/default_workspace/unMiracle/test.sol\":907:912  45818 */\n      0xb2fa\n        /* \".workspaces/default_workspace/unMiracle/test.sol\":900:912  return 45818 */\n      swap1\n      pop\n        /* \".workspaces/default_workspace/unMiracle/test.sol\":837:928  function votingPeriod() public pure returns(uint256) {... */\n      swap1\n      jump\t// out\n        /* \".workspaces/default_workspace/unMiracle/test.sol\":1093:1307  function deadline() public view returns(uint64) {... */\n    tag_16:\n        /* \".workspaces/default_workspace/unMiracle/test.sol\":1133:1139  uint64 */\n      0x00\n        /* \".workspaces/default_workspace/unMiracle/test.sol\":1151:1166  uint64 snapshot */\n      dup1\n        /* \".workspaces/default_workspace/unMiracle/test.sol\":1199:1212  votingDelay() */\n      tag_40\n        /* \".workspaces/default_workspace/unMiracle/test.sol\":1199:1210  votingDelay */\n      tag_20\n        /* \".workspaces/default_workspace/unMiracle/test.sol\":1199:1212  votingDelay() */\n      jump\t// in\n    tag_40:\n        /* \".workspaces/default_workspace/unMiracle/test.sol\":1176:1188  block.number */\n      number\n        /* \".workspaces/default_workspace/unMiracle/test.sol\":1169:1213  uint64(block.number) + uint64(votingDelay()) */\n      tag_41\n      swap2\n      swap1\n      tag_42\n      jump\t// in\n    tag_41:\n        /* \".workspaces/default_workspace/unMiracle/test.sol\":1151:1213  uint64 snapshot = uint64(block.number) + uint64(votingDelay()) */\n      swap1\n      pop\n        /* \".workspaces/default_workspace/unMiracle/test.sol\":1223:1238  uint64 deadline */\n      0x00\n        /* \".workspaces/default_workspace/unMiracle/test.sol\":1259:1273  votingPeriod() */\n      tag_43\n        /* \".workspaces/default_workspace/unMiracle/test.sol\":1259:1271  votingPeriod */\n      tag_12\n        /* \".workspaces/default_workspace/unMiracle/test.sol\":1259:1273  votingPeriod() */\n      jump\t// in\n    tag_43:\n        /* \".workspaces/default_workspace/unMiracle/test.sol\":1241:1249  snapshot */\n      dup3\n        /* \".workspaces/default_workspace/unMiracle/test.sol\":1241:1274  snapshot + uint64(votingPeriod()) */\n      tag_44\n      swap2\n      swap1\n      tag_42\n      jump\t// in\n    tag_44:\n        /* \".workspaces/default_workspace/unMiracle/test.sol\":1223:1274  uint64 deadline = snapshot + uint64(votingPeriod()) */\n      swap1\n      pop\n        /* \".workspaces/default_workspace/unMiracle/test.sol\":1292:1300  deadline */\n      dup1\n        /* \".workspaces/default_workspace/unMiracle/test.sol\":1285:1300  return deadline */\n      swap3\n      pop\n      pop\n      pop\n        /* \".workspaces/default_workspace/unMiracle/test.sol\":1093:1307  function deadline() public view returns(uint64) {... */\n      swap1\n      jump\t// out\n        /* \".workspaces/default_workspace/unMiracle/test.sol\":754:831  function votingDelay() public pure returns(uint256) {... */\n    tag_20:\n        /* \".workspaces/default_workspace/unMiracle/test.sol\":797:804  uint256 */\n      0x00\n        /* \".workspaces/default_workspace/unMiracle/test.sol\":823:824  1 */\n      0x01\n        /* \".workspaces/default_workspace/unMiracle/test.sol\":816:824  return 1 */\n      swap1\n      pop\n        /* \".workspaces/default_workspace/unMiracle/test.sol\":754:831  function votingDelay() public pure returns(uint256) {... */\n      swap1\n      jump\t// out\n        /* \".workspaces/default_workspace/unMiracle/test.sol\":565:747  function abiDecode(bytes memory data) public returns(uint _str1, uint _number, uint _str2) {... */\n    tag_25:\n        /* \".workspaces/default_workspace/unMiracle/test.sol\":618:628  uint _str1 */\n      0x00\n        /* \".workspaces/default_workspace/unMiracle/test.sol\":630:642  uint _number */\n      dup1\n        /* \".workspaces/default_workspace/unMiracle/test.sol\":644:654  uint _str2 */\n      0x00\n        /* \".workspaces/default_workspace/unMiracle/test.sol\":703:707  data */\n      dup4\n        /* \".workspaces/default_workspace/unMiracle/test.sol\":692:728  abi.decode(data, (uint, uint, uint)) */\n      dup1\n      0x20\n      add\n      swap1\n      mload\n      dup2\n      add\n      swap1\n      tag_47\n      swap2\n      swap1\n      tag_48\n      jump\t// in\n    tag_47:\n        /* \".workspaces/default_workspace/unMiracle/test.sol\":666:728  (_str1, _number, _str2) = abi.decode(data, (uint, uint, uint)) */\n      dup1\n      swap4\n      pop\n      dup2\n      swap5\n      pop\n      dup3\n      swap6\n      pop\n      pop\n      pop\n      pop\n        /* \".workspaces/default_workspace/unMiracle/test.sol\":565:747  function abiDecode(bytes memory data) public returns(uint _str1, uint _number, uint _str2) {... */\n      swap2\n      swap4\n      swap1\n      swap3\n      pop\n      jump\t// out\n        /* \".workspaces/default_workspace/unMiracle/test.sol\":462:560  function abiEncode() public returns(bytes memory) {... */\n    tag_29:\n        /* \".workspaces/default_workspace/unMiracle/test.sol\":498:510  bytes memory */\n      0x60\n        /* \".workspaces/default_workspace/unMiracle/test.sol\":540:541  1 */\n      0x01\n        /* \".workspaces/default_workspace/unMiracle/test.sol\":542:547  45804 */\n      0xb2ec\n        /* \".workspaces/default_workspace/unMiracle/test.sol\":548:552  5000 */\n      0x1388\n        /* \".workspaces/default_workspace/unMiracle/test.sol\":529:553  abi.encode(1,45804,5000) */\n      add(0x20, mload(0x40))\n      tag_50\n      swap4\n      swap3\n      swap2\n      swap1\n      tag_51\n      jump\t// in\n    tag_50:\n      mload(0x40)\n      0x20\n      dup2\n      dup4\n      sub\n      sub\n      dup2\n      mstore\n      swap1\n      0x40\n      mstore\n        /* \".workspaces/default_workspace/unMiracle/test.sol\":522:553  return abi.encode(1,45804,5000) */\n      swap1\n      pop\n        /* \".workspaces/default_workspace/unMiracle/test.sol\":462:560  function abiEncode() public returns(bytes memory) {... */\n      swap1\n      jump\t// out\n        /* \".workspaces/default_workspace/unMiracle/test.sol\":192:456  function keccak256test() public returns(bytes memory) {... */\n    tag_33:\n        /* \".workspaces/default_workspace/unMiracle/test.sol\":232:244  bytes memory */\n      0x60\n        /* \".workspaces/default_workspace/unMiracle/test.sol\":436:437  1 */\n      0x01\n        /* \".workspaces/default_workspace/unMiracle/test.sol\":438:443  45804 */\n      0xb2ec\n        /* \".workspaces/default_workspace/unMiracle/test.sol\":444:448  5000 */\n      0x1388\n        /* \".workspaces/default_workspace/unMiracle/test.sol\":425:449  abi.encode(1,45804,5000) */\n      add(0x20, mload(0x40))\n      tag_53\n      swap4\n      swap3\n      swap2\n      swap1\n      tag_51\n      jump\t// in\n    tag_53:\n      mload(0x40)\n      0x20\n      dup2\n      dup4\n      sub\n      sub\n      dup2\n      mstore\n      swap1\n      0x40\n      mstore\n        /* \".workspaces/default_workspace/unMiracle/test.sol\":417:449  return  abi.encode(1,45804,5000) */\n      swap1\n      pop\n        /* \".workspaces/default_workspace/unMiracle/test.sol\":192:456  function keccak256test() public returns(bytes memory) {... */\n      swap1\n      jump\t// out\n        /* \".workspaces/default_workspace/unMiracle/test.sol\":934:1087  function snapshot() public view returns(uint64) {... */\n    tag_36:\n        /* \".workspaces/default_workspace/unMiracle/test.sol\":974:980  uint64 */\n      0x00\n        /* \".workspaces/default_workspace/unMiracle/test.sol\":992:1007  uint64 snapshot */\n      dup1\n        /* \".workspaces/default_workspace/unMiracle/test.sol\":1040:1053  votingDelay() */\n      tag_55\n        /* \".workspaces/default_workspace/unMiracle/test.sol\":1040:1051  votingDelay */\n      tag_20\n        /* \".workspaces/default_workspace/unMiracle/test.sol\":1040:1053  votingDelay() */\n      jump\t// in\n    tag_55:\n        /* \".workspaces/default_workspace/unMiracle/test.sol\":1017:1029  block.number */\n      number\n        /* \".workspaces/default_workspace/unMiracle/test.sol\":1010:1054  uint64(block.number) + uint64(votingDelay()) */\n      tag_56\n      swap2\n      swap1\n      tag_42\n      jump\t// in\n    tag_56:\n        /* \".workspaces/default_workspace/unMiracle/test.sol\":992:1054  uint64 snapshot = uint64(block.number) + uint64(votingDelay()) */\n      swap1\n      pop\n        /* \".workspaces/default_workspace/unMiracle/test.sol\":1072:1080  snapshot */\n      dup1\n        /* \".workspaces/default_workspace/unMiracle/test.sol\":1065:1080  return snapshot */\n      swap2\n      pop\n      pop\n        /* \".workspaces/default_workspace/unMiracle/test.sol\":934:1087  function snapshot() public view returns(uint64) {... */\n      swap1\n      jump\t// out\n        /* \"#utility.yul\":7:350   */\n    tag_58:\n        /* \"#utility.yul\":84:89   */\n      0x00\n        /* \"#utility.yul\":109:174   */\n      tag_60\n        /* \"#utility.yul\":125:173   */\n      tag_61\n        /* \"#utility.yul\":166:172   */\n      dup5\n        /* \"#utility.yul\":125:173   */\n      tag_62\n      jump\t// in\n    tag_61:\n        /* \"#utility.yul\":109:174   */\n      tag_63\n      jump\t// in\n    tag_60:\n        /* \"#utility.yul\":100:174   */\n      swap1\n      pop\n        /* \"#utility.yul\":197:203   */\n      dup3\n        /* \"#utility.yul\":190:195   */\n      dup2\n        /* \"#utility.yul\":183:204   */\n      mstore\n        /* \"#utility.yul\":235:239   */\n      0x20\n        /* \"#utility.yul\":228:233   */\n      dup2\n        /* \"#utility.yul\":224:240   */\n      add\n        /* \"#utility.yul\":273:276   */\n      dup5\n        /* \"#utility.yul\":264:270   */\n      dup5\n        /* \"#utility.yul\":259:262   */\n      dup5\n        /* \"#utility.yul\":255:271   */\n      add\n        /* \"#utility.yul\":252:277   */\n      gt\n        /* \"#utility.yul\":249:251   */\n      iszero\n      tag_64\n      jumpi\n        /* \"#utility.yul\":290:291   */\n      0x00\n        /* \"#utility.yul\":287:288   */\n      dup1\n        /* \"#utility.yul\":280:292   */\n      revert\n        /* \"#utility.yul\":249:251   */\n    tag_64:\n        /* \"#utility.yul\":303:344   */\n      tag_65\n        /* \"#utility.yul\":337:343   */\n      dup5\n        /* \"#utility.yul\":332:335   */\n      dup3\n        /* \"#utility.yul\":327:330   */\n      dup6\n        /* \"#utility.yul\":303:344   */\n      tag_66\n      jump\t// in\n    tag_65:\n        /* \"#utility.yul\":90:350   */\n      pop\n      swap4\n      swap3\n      pop\n      pop\n      pop\n      jump\t// out\n        /* \"#utility.yul\":369:640   */\n    tag_67:\n        /* \"#utility.yul\":424:429   */\n      0x00\n        /* \"#utility.yul\":473:476   */\n      dup3\n        /* \"#utility.yul\":466:470   */\n      0x1f\n        /* \"#utility.yul\":458:464   */\n      dup4\n        /* \"#utility.yul\":454:471   */\n      add\n        /* \"#utility.yul\":450:477   */\n      slt\n        /* \"#utility.yul\":440:442   */\n      tag_69\n      jumpi\n        /* \"#utility.yul\":491:492   */\n      0x00\n        /* \"#utility.yul\":488:489   */\n      dup1\n        /* \"#utility.yul\":481:493   */\n      revert\n        /* \"#utility.yul\":440:442   */\n    tag_69:\n        /* \"#utility.yul\":531:537   */\n      dup2\n        /* \"#utility.yul\":518:538   */\n      calldataload\n        /* \"#utility.yul\":556:634   */\n      tag_70\n        /* \"#utility.yul\":630:633   */\n      dup5\n        /* \"#utility.yul\":622:628   */\n      dup3\n        /* \"#utility.yul\":615:619   */\n      0x20\n        /* \"#utility.yul\":607:613   */\n      dup7\n        /* \"#utility.yul\":603:620   */\n      add\n        /* \"#utility.yul\":556:634   */\n      tag_58\n      jump\t// in\n    tag_70:\n        /* \"#utility.yul\":547:634   */\n      swap2\n      pop\n        /* \"#utility.yul\":430:640   */\n      pop\n      swap3\n      swap2\n      pop\n      pop\n      jump\t// out\n        /* \"#utility.yul\":646:789   */\n    tag_71:\n        /* \"#utility.yul\":703:708   */\n      0x00\n        /* \"#utility.yul\":734:740   */\n      dup2\n        /* \"#utility.yul\":728:741   */\n      mload\n        /* \"#utility.yul\":719:741   */\n      swap1\n      pop\n        /* \"#utility.yul\":750:783   */\n      tag_73\n        /* \"#utility.yul\":777:782   */\n      dup2\n        /* \"#utility.yul\":750:783   */\n      tag_74\n      jump\t// in\n    tag_73:\n        /* \"#utility.yul\":709:789   */\n      swap3\n      swap2\n      pop\n      pop\n      jump\t// out\n        /* \"#utility.yul\":795:1168   */\n    tag_24:\n        /* \"#utility.yul\":863:869   */\n      0x00\n        /* \"#utility.yul\":912:914   */\n      0x20\n        /* \"#utility.yul\":900:909   */\n      dup3\n        /* \"#utility.yul\":891:898   */\n      dup5\n        /* \"#utility.yul\":887:910   */\n      sub\n        /* \"#utility.yul\":883:915   */\n      slt\n        /* \"#utility.yul\":880:882   */\n      iszero\n      tag_76\n      jumpi\n        /* \"#utility.yul\":928:929   */\n      0x00\n        /* \"#utility.yul\":925:926   */\n      dup1\n        /* \"#utility.yul\":918:930   */\n      revert\n        /* \"#utility.yul\":880:882   */\n    tag_76:\n        /* \"#utility.yul\":999:1000   */\n      0x00\n        /* \"#utility.yul\":988:997   */\n      dup3\n        /* \"#utility.yul\":984:1001   */\n      add\n        /* \"#utility.yul\":971:1002   */\n      calldataload\n        /* \"#utility.yul\":1029:1047   */\n      0xffffffffffffffff\n        /* \"#utility.yul\":1021:1027   */\n      dup2\n        /* \"#utility.yul\":1018:1048   */\n      gt\n        /* \"#utility.yul\":1015:1017   */\n      iszero\n      tag_77\n      jumpi\n        /* \"#utility.yul\":1061:1062   */\n      0x00\n        /* \"#utility.yul\":1058:1059   */\n      dup1\n        /* \"#utility.yul\":1051:1063   */\n      revert\n        /* \"#utility.yul\":1015:1017   */\n    tag_77:\n        /* \"#utility.yul\":1089:1151   */\n      tag_78\n        /* \"#utility.yul\":1143:1150   */\n      dup5\n        /* \"#utility.yul\":1134:1140   */\n      dup3\n        /* \"#utility.yul\":1123:1132   */\n      dup6\n        /* \"#utility.yul\":1119:1141   */\n      add\n        /* \"#utility.yul\":1089:1151   */\n      tag_67\n      jump\t// in\n    tag_78:\n        /* \"#utility.yul\":1079:1151   */\n      swap2\n      pop\n        /* \"#utility.yul\":942:1161   */\n      pop\n        /* \"#utility.yul\":870:1168   */\n      swap3\n      swap2\n      pop\n      pop\n      jump\t// out\n        /* \"#utility.yul\":1174:1770   */\n    tag_48:\n        /* \"#utility.yul\":1262:1268   */\n      0x00\n        /* \"#utility.yul\":1270:1276   */\n      dup1\n        /* \"#utility.yul\":1278:1284   */\n      0x00\n        /* \"#utility.yul\":1327:1329   */\n      0x60\n        /* \"#utility.yul\":1315:1324   */\n      dup5\n        /* \"#utility.yul\":1306:1313   */\n      dup7\n        /* \"#utility.yul\":1302:1325   */\n      sub\n        /* \"#utility.yul\":1298:1330   */\n      slt\n        /* \"#utility.yul\":1295:1297   */\n      iszero\n      tag_80\n      jumpi\n        /* \"#utility.yul\":1343:1344   */\n      0x00\n        /* \"#utility.yul\":1340:1341   */\n      dup1\n        /* \"#utility.yul\":1333:1345   */\n      revert\n        /* \"#utility.yul\":1295:1297   */\n    tag_80:\n        /* \"#utility.yul\":1386:1387   */\n      0x00\n        /* \"#utility.yul\":1411:1475   */\n      tag_81\n        /* \"#utility.yul\":1467:1474   */\n      dup7\n        /* \"#utility.yul\":1458:1464   */\n      dup3\n        /* \"#utility.yul\":1447:1456   */\n      dup8\n        /* \"#utility.yul\":1443:1465   */\n      add\n        /* \"#utility.yul\":1411:1475   */\n      tag_71\n      jump\t// in\n    tag_81:\n        /* \"#utility.yul\":1401:1475   */\n      swap4\n      pop\n        /* \"#utility.yul\":1357:1485   */\n      pop\n        /* \"#utility.yul\":1524:1526   */\n      0x20\n        /* \"#utility.yul\":1550:1614   */\n      tag_82\n        /* \"#utility.yul\":1606:1613   */\n      dup7\n        /* \"#utility.yul\":1597:1603   */\n      dup3\n        /* \"#utility.yul\":1586:1595   */\n      dup8\n        /* \"#utility.yul\":1582:1604   */\n      add\n        /* \"#utility.yul\":1550:1614   */\n      tag_71\n      jump\t// in\n    tag_82:\n        /* \"#utility.yul\":1540:1614   */\n      swap3\n      pop\n        /* \"#utility.yul\":1495:1624   */\n      pop\n        /* \"#utility.yul\":1663:1665   */\n      0x40\n        /* \"#utility.yul\":1689:1753   */\n      tag_83\n        /* \"#utility.yul\":1745:1752   */\n      dup7\n        /* \"#utility.yul\":1736:1742   */\n      dup3\n        /* \"#utility.yul\":1725:1734   */\n      dup8\n        /* \"#utility.yul\":1721:1743   */\n      add\n        /* \"#utility.yul\":1689:1753   */\n      tag_71\n      jump\t// in\n    tag_83:\n        /* \"#utility.yul\":1679:1753   */\n      swap2\n      pop\n        /* \"#utility.yul\":1634:1763   */\n      pop\n        /* \"#utility.yul\":1285:1770   */\n      swap3\n      pop\n      swap3\n      pop\n      swap3\n      jump\t// out\n        /* \"#utility.yul\":1776:2136   */\n    tag_84:\n        /* \"#utility.yul\":1862:1865   */\n      0x00\n        /* \"#utility.yul\":1890:1928   */\n      tag_86\n        /* \"#utility.yul\":1922:1927   */\n      dup3\n        /* \"#utility.yul\":1890:1928   */\n      tag_87\n      jump\t// in\n    tag_86:\n        /* \"#utility.yul\":1944:2014   */\n      tag_88\n        /* \"#utility.yul\":2007:2013   */\n      dup2\n        /* \"#utility.yul\":2002:2005   */\n      dup6\n        /* \"#utility.yul\":1944:2014   */\n      tag_89\n      jump\t// in\n    tag_88:\n        /* \"#utility.yul\":1937:2014   */\n      swap4\n      pop\n        /* \"#utility.yul\":2023:2075   */\n      tag_90\n        /* \"#utility.yul\":2068:2074   */\n      dup2\n        /* \"#utility.yul\":2063:2066   */\n      dup6\n        /* \"#utility.yul\":2056:2060   */\n      0x20\n        /* \"#utility.yul\":2049:2054   */\n      dup7\n        /* \"#utility.yul\":2045:2061   */\n      add\n        /* \"#utility.yul\":2023:2075   */\n      tag_91\n      jump\t// in\n    tag_90:\n        /* \"#utility.yul\":2100:2129   */\n      tag_92\n        /* \"#utility.yul\":2122:2128   */\n      dup2\n        /* \"#utility.yul\":2100:2129   */\n      tag_93\n      jump\t// in\n    tag_92:\n        /* \"#utility.yul\":2095:2098   */\n      dup5\n        /* \"#utility.yul\":2091:2130   */\n      add\n        /* \"#utility.yul\":2084:2130   */\n      swap2\n      pop\n        /* \"#utility.yul\":1866:2136   */\n      pop\n      swap3\n      swap2\n      pop\n      pop\n      jump\t// out\n        /* \"#utility.yul\":2142:2285   */\n    tag_94:\n        /* \"#utility.yul\":2235:2278   */\n      tag_96\n        /* \"#utility.yul\":2272:2277   */\n      dup2\n        /* \"#utility.yul\":2235:2278   */\n      tag_97\n      jump\t// in\n    tag_96:\n        /* \"#utility.yul\":2230:2233   */\n      dup3\n        /* \"#utility.yul\":2223:2279   */\n      mstore\n        /* \"#utility.yul\":2213:2285   */\n      pop\n      pop\n      jump\t// out\n        /* \"#utility.yul\":2291:2444   */\n    tag_98:\n        /* \"#utility.yul\":2389:2437   */\n      tag_100\n        /* \"#utility.yul\":2431:2436   */\n      dup2\n        /* \"#utility.yul\":2389:2437   */\n      tag_101\n      jump\t// in\n    tag_100:\n        /* \"#utility.yul\":2384:2387   */\n      dup3\n        /* \"#utility.yul\":2377:2438   */\n      mstore\n        /* \"#utility.yul\":2367:2444   */\n      pop\n      pop\n      jump\t// out\n        /* \"#utility.yul\":2450:2601   */\n    tag_102:\n        /* \"#utility.yul\":2547:2594   */\n      tag_104\n        /* \"#utility.yul\":2588:2593   */\n      dup2\n        /* \"#utility.yul\":2547:2594   */\n      tag_105\n      jump\t// in\n    tag_104:\n        /* \"#utility.yul\":2542:2545   */\n      dup3\n        /* \"#utility.yul\":2535:2595   */\n      mstore\n        /* \"#utility.yul\":2525:2601   */\n      pop\n      pop\n      jump\t// out\n        /* \"#utility.yul\":2607:2725   */\n    tag_106:\n        /* \"#utility.yul\":2694:2718   */\n      tag_108\n        /* \"#utility.yul\":2712:2717   */\n      dup2\n        /* \"#utility.yul\":2694:2718   */\n      tag_109\n      jump\t// in\n    tag_108:\n        /* \"#utility.yul\":2689:2692   */\n      dup3\n        /* \"#utility.yul\":2682:2719   */\n      mstore\n        /* \"#utility.yul\":2672:2725   */\n      pop\n      pop\n      jump\t// out\n        /* \"#utility.yul\":2731:2846   */\n    tag_110:\n        /* \"#utility.yul\":2816:2839   */\n      tag_112\n        /* \"#utility.yul\":2833:2838   */\n      dup2\n        /* \"#utility.yul\":2816:2839   */\n      tag_113\n      jump\t// in\n    tag_112:\n        /* \"#utility.yul\":2811:2814   */\n      dup3\n        /* \"#utility.yul\":2804:2840   */\n      mstore\n        /* \"#utility.yul\":2794:2846   */\n      pop\n      pop\n      jump\t// out\n        /* \"#utility.yul\":2852:3161   */\n    tag_31:\n        /* \"#utility.yul\":2963:2967   */\n      0x00\n        /* \"#utility.yul\":3001:3003   */\n      0x20\n        /* \"#utility.yul\":2990:2999   */\n      dup3\n        /* \"#utility.yul\":2986:3004   */\n      add\n        /* \"#utility.yul\":2978:3004   */\n      swap1\n      pop\n        /* \"#utility.yul\":3050:3059   */\n      dup2\n        /* \"#utility.yul\":3044:3048   */\n      dup2\n        /* \"#utility.yul\":3040:3060   */\n      sub\n        /* \"#utility.yul\":3036:3037   */\n      0x00\n        /* \"#utility.yul\":3025:3034   */\n      dup4\n        /* \"#utility.yul\":3021:3038   */\n      add\n        /* \"#utility.yul\":3014:3061   */\n      mstore\n        /* \"#utility.yul\":3078:3154   */\n      tag_115\n        /* \"#utility.yul\":3149:3153   */\n      dup2\n        /* \"#utility.yul\":3140:3146   */\n      dup5\n        /* \"#utility.yul\":3078:3154   */\n      tag_84\n      jump\t// in\n    tag_115:\n        /* \"#utility.yul\":3070:3154   */\n      swap1\n      pop\n        /* \"#utility.yul\":2968:3161   */\n      swap3\n      swap2\n      pop\n      pop\n      jump\t// out\n        /* \"#utility.yul\":3167:3663   */\n    tag_51:\n        /* \"#utility.yul\":3343:3347   */\n      0x00\n        /* \"#utility.yul\":3381:3383   */\n      0x60\n        /* \"#utility.yul\":3370:3379   */\n      dup3\n        /* \"#utility.yul\":3366:3384   */\n      add\n        /* \"#utility.yul\":3358:3384   */\n      swap1\n      pop\n        /* \"#utility.yul\":3394:3471   */\n      tag_117\n        /* \"#utility.yul\":3468:3469   */\n      0x00\n        /* \"#utility.yul\":3457:3466   */\n      dup4\n        /* \"#utility.yul\":3453:3470   */\n      add\n        /* \"#utility.yul\":3444:3450   */\n      dup7\n        /* \"#utility.yul\":3394:3471   */\n      tag_94\n      jump\t// in\n    tag_117:\n        /* \"#utility.yul\":3481:3564   */\n      tag_118\n        /* \"#utility.yul\":3560:3562   */\n      0x20\n        /* \"#utility.yul\":3549:3558   */\n      dup4\n        /* \"#utility.yul\":3545:3563   */\n      add\n        /* \"#utility.yul\":3536:3542   */\n      dup6\n        /* \"#utility.yul\":3481:3564   */\n      tag_98\n      jump\t// in\n    tag_118:\n        /* \"#utility.yul\":3574:3656   */\n      tag_119\n        /* \"#utility.yul\":3652:3654   */\n      0x40\n        /* \"#utility.yul\":3641:3650   */\n      dup4\n        /* \"#utility.yul\":3637:3655   */\n      add\n        /* \"#utility.yul\":3628:3634   */\n      dup5\n        /* \"#utility.yul\":3574:3656   */\n      tag_102\n      jump\t// in\n    tag_119:\n        /* \"#utility.yul\":3348:3663   */\n      swap5\n      swap4\n      pop\n      pop\n      pop\n      pop\n      jump\t// out\n        /* \"#utility.yul\":3669:3891   */\n    tag_14:\n        /* \"#utility.yul\":3762:3766   */\n      0x00\n        /* \"#utility.yul\":3800:3802   */\n      0x20\n        /* \"#utility.yul\":3789:3798   */\n      dup3\n        /* \"#utility.yul\":3785:3803   */\n      add\n        /* \"#utility.yul\":3777:3803   */\n      swap1\n      pop\n        /* \"#utility.yul\":3813:3884   */\n      tag_121\n        /* \"#utility.yul\":3881:3882   */\n      0x00\n        /* \"#utility.yul\":3870:3879   */\n      dup4\n        /* \"#utility.yul\":3866:3883   */\n      add\n        /* \"#utility.yul\":3857:3863   */\n      dup5\n        /* \"#utility.yul\":3813:3884   */\n      tag_106\n      jump\t// in\n    tag_121:\n        /* \"#utility.yul\":3767:3891   */\n      swap3\n      swap2\n      pop\n      pop\n      jump\t// out\n        /* \"#utility.yul\":3897:4339   */\n    tag_27:\n        /* \"#utility.yul\":4046:4050   */\n      0x00\n        /* \"#utility.yul\":4084:4086   */\n      0x60\n        /* \"#utility.yul\":4073:4082   */\n      dup3\n        /* \"#utility.yul\":4069:4087   */\n      add\n        /* \"#utility.yul\":4061:4087   */\n      swap1\n      pop\n        /* \"#utility.yul\":4097:4168   */\n      tag_123\n        /* \"#utility.yul\":4165:4166   */\n      0x00\n        /* \"#utility.yul\":4154:4163   */\n      dup4\n        /* \"#utility.yul\":4150:4167   */\n      add\n        /* \"#utility.yul\":4141:4147   */\n      dup7\n        /* \"#utility.yul\":4097:4168   */\n      tag_106\n      jump\t// in\n    tag_123:\n        /* \"#utility.yul\":4178:4250   */\n      tag_124\n        /* \"#utility.yul\":4246:4248   */\n      0x20\n        /* \"#utility.yul\":4235:4244   */\n      dup4\n        /* \"#utility.yul\":4231:4249   */\n      add\n        /* \"#utility.yul\":4222:4228   */\n      dup6\n        /* \"#utility.yul\":4178:4250   */\n      tag_106\n      jump\t// in\n    tag_124:\n        /* \"#utility.yul\":4260:4332   */\n      tag_125\n        /* \"#utility.yul\":4328:4330   */\n      0x40\n        /* \"#utility.yul\":4317:4326   */\n      dup4\n        /* \"#utility.yul\":4313:4331   */\n      add\n        /* \"#utility.yul\":4304:4310   */\n      dup5\n        /* \"#utility.yul\":4260:4332   */\n      tag_106\n      jump\t// in\n    tag_125:\n        /* \"#utility.yul\":4051:4339   */\n      swap5\n      swap4\n      pop\n      pop\n      pop\n      pop\n      jump\t// out\n        /* \"#utility.yul\":4345:4563   */\n    tag_18:\n        /* \"#utility.yul\":4436:4440   */\n      0x00\n        /* \"#utility.yul\":4474:4476   */\n      0x20\n        /* \"#utility.yul\":4463:4472   */\n      dup3\n        /* \"#utility.yul\":4459:4477   */\n      add\n        /* \"#utility.yul\":4451:4477   */\n      swap1\n      pop\n        /* \"#utility.yul\":4487:4556   */\n      tag_127\n        /* \"#utility.yul\":4553:4554   */\n      0x00\n        /* \"#utility.yul\":4542:4551   */\n      dup4\n        /* \"#utility.yul\":4538:4555   */\n      add\n        /* \"#utility.yul\":4529:4535   */\n      dup5\n        /* \"#utility.yul\":4487:4556   */\n      tag_110\n      jump\t// in\n    tag_127:\n        /* \"#utility.yul\":4441:4563   */\n      swap3\n      swap2\n      pop\n      pop\n      jump\t// out\n        /* \"#utility.yul\":4569:4698   */\n    tag_63:\n        /* \"#utility.yul\":4603:4609   */\n      0x00\n        /* \"#utility.yul\":4630:4650   */\n      tag_129\n      tag_130\n      jump\t// in\n    tag_129:\n        /* \"#utility.yul\":4620:4650   */\n      swap1\n      pop\n        /* \"#utility.yul\":4659:4692   */\n      tag_131\n        /* \"#utility.yul\":4687:4691   */\n      dup3\n        /* \"#utility.yul\":4679:4685   */\n      dup3\n        /* \"#utility.yul\":4659:4692   */\n      tag_132\n      jump\t// in\n    tag_131:\n        /* \"#utility.yul\":4610:4698   */\n      swap2\n      swap1\n      pop\n      jump\t// out\n        /* \"#utility.yul\":4704:4779   */\n    tag_130:\n        /* \"#utility.yul\":4737:4743   */\n      0x00\n        /* \"#utility.yul\":4770:4772   */\n      0x40\n        /* \"#utility.yul\":4764:4773   */\n      mload\n        /* \"#utility.yul\":4754:4773   */\n      swap1\n      pop\n        /* \"#utility.yul\":4744:4779   */\n      swap1\n      jump\t// out\n        /* \"#utility.yul\":4785:5092   */\n    tag_62:\n        /* \"#utility.yul\":4846:4850   */\n      0x00\n        /* \"#utility.yul\":4936:4954   */\n      0xffffffffffffffff\n        /* \"#utility.yul\":4928:4934   */\n      dup3\n        /* \"#utility.yul\":4925:4955   */\n      gt\n        /* \"#utility.yul\":4922:4924   */\n      iszero\n      tag_135\n      jumpi\n        /* \"#utility.yul\":4958:4976   */\n      tag_136\n      tag_137\n      jump\t// in\n    tag_136:\n        /* \"#utility.yul\":4922:4924   */\n    tag_135:\n        /* \"#utility.yul\":4996:5025   */\n      tag_138\n        /* \"#utility.yul\":5018:5024   */\n      dup3\n        /* \"#utility.yul\":4996:5025   */\n      tag_93\n      jump\t// in\n    tag_138:\n        /* \"#utility.yul\":4988:5025   */\n      swap1\n      pop\n        /* \"#utility.yul\":5080:5084   */\n      0x20\n        /* \"#utility.yul\":5074:5078   */\n      dup2\n        /* \"#utility.yul\":5070:5085   */\n      add\n        /* \"#utility.yul\":5062:5085   */\n      swap1\n      pop\n        /* \"#utility.yul\":4851:5092   */\n      swap2\n      swap1\n      pop\n      jump\t// out\n        /* \"#utility.yul\":5098:5196   */\n    tag_87:\n        /* \"#utility.yul\":5149:5155   */\n      0x00\n        /* \"#utility.yul\":5183:5188   */\n      dup2\n        /* \"#utility.yul\":5177:5189   */\n      mload\n        /* \"#utility.yul\":5167:5189   */\n      swap1\n      pop\n        /* \"#utility.yul\":5156:5196   */\n      swap2\n      swap1\n      pop\n      jump\t// out\n        /* \"#utility.yul\":5202:5370   */\n    tag_89:\n        /* \"#utility.yul\":5285:5296   */\n      0x00\n        /* \"#utility.yul\":5319:5325   */\n      dup3\n        /* \"#utility.yul\":5314:5317   */\n      dup3\n        /* \"#utility.yul\":5307:5326   */\n      mstore\n        /* \"#utility.yul\":5359:5363   */\n      0x20\n        /* \"#utility.yul\":5354:5357   */\n      dup3\n        /* \"#utility.yul\":5350:5364   */\n      add\n        /* \"#utility.yul\":5335:5364   */\n      swap1\n      pop\n        /* \"#utility.yul\":5297:5370   */\n      swap3\n      swap2\n      pop\n      pop\n      jump\t// out\n        /* \"#utility.yul\":5376:5630   */\n    tag_42:\n        /* \"#utility.yul\":5415:5418   */\n      0x00\n        /* \"#utility.yul\":5434:5453   */\n      tag_142\n        /* \"#utility.yul\":5451:5452   */\n      dup3\n        /* \"#utility.yul\":5434:5453   */\n      tag_113\n      jump\t// in\n    tag_142:\n        /* \"#utility.yul\":5429:5453   */\n      swap2\n      pop\n        /* \"#utility.yul\":5467:5486   */\n      tag_143\n        /* \"#utility.yul\":5484:5485   */\n      dup4\n        /* \"#utility.yul\":5467:5486   */\n      tag_113\n      jump\t// in\n    tag_143:\n        /* \"#utility.yul\":5462:5486   */\n      swap3\n      pop\n        /* \"#utility.yul\":5572:5573   */\n      dup3\n        /* \"#utility.yul\":5552:5570   */\n      0xffffffffffffffff\n        /* \"#utility.yul\":5548:5574   */\n      sub\n        /* \"#utility.yul\":5545:5546   */\n      dup3\n        /* \"#utility.yul\":5542:5575   */\n      gt\n        /* \"#utility.yul\":5539:5541   */\n      iszero\n      tag_144\n      jumpi\n        /* \"#utility.yul\":5578:5596   */\n      tag_145\n      tag_146\n      jump\t// in\n    tag_145:\n        /* \"#utility.yul\":5539:5541   */\n    tag_144:\n        /* \"#utility.yul\":5622:5623   */\n      dup3\n        /* \"#utility.yul\":5619:5620   */\n      dup3\n        /* \"#utility.yul\":5615:5624   */\n      add\n        /* \"#utility.yul\":5608:5624   */\n      swap1\n      pop\n        /* \"#utility.yul\":5419:5630   */\n      swap3\n      swap2\n      pop\n      pop\n      jump\t// out\n        /* \"#utility.yul\":5636:5725   */\n    tag_147:\n        /* \"#utility.yul\":5672:5679   */\n      0x00\n        /* \"#utility.yul\":5712:5718   */\n      0xffff\n        /* \"#utility.yul\":5705:5710   */\n      dup3\n        /* \"#utility.yul\":5701:5719   */\n      and\n        /* \"#utility.yul\":5690:5719   */\n      swap1\n      pop\n        /* \"#utility.yul\":5680:5725   */\n      swap2\n      swap1\n      pop\n      jump\t// out\n        /* \"#utility.yul\":5731:5808   */\n    tag_109:\n        /* \"#utility.yul\":5768:5775   */\n      0x00\n        /* \"#utility.yul\":5797:5802   */\n      dup2\n        /* \"#utility.yul\":5786:5802   */\n      swap1\n      pop\n        /* \"#utility.yul\":5776:5808   */\n      swap2\n      swap1\n      pop\n      jump\t// out\n        /* \"#utility.yul\":5814:5915   */\n    tag_113:\n        /* \"#utility.yul\":5850:5857   */\n      0x00\n        /* \"#utility.yul\":5890:5908   */\n      0xffffffffffffffff\n        /* \"#utility.yul\":5883:5888   */\n      dup3\n        /* \"#utility.yul\":5879:5909   */\n      and\n        /* \"#utility.yul\":5868:5909   */\n      swap1\n      pop\n        /* \"#utility.yul\":5858:5915   */\n      swap2\n      swap1\n      pop\n      jump\t// out\n        /* \"#utility.yul\":5921:6007   */\n    tag_151:\n        /* \"#utility.yul\":5956:5963   */\n      0x00\n        /* \"#utility.yul\":5996:6000   */\n      0xff\n        /* \"#utility.yul\":5989:5994   */\n      dup3\n        /* \"#utility.yul\":5985:6001   */\n      and\n        /* \"#utility.yul\":5974:6001   */\n      swap1\n      pop\n        /* \"#utility.yul\":5964:6007   */\n      swap2\n      swap1\n      pop\n      jump\t// out\n        /* \"#utility.yul\":6013:6130   */\n    tag_97:\n        /* \"#utility.yul\":6069:6078   */\n      0x00\n        /* \"#utility.yul\":6102:6124   */\n      tag_154\n        /* \"#utility.yul\":6118:6123   */\n      dup3\n        /* \"#utility.yul\":6102:6124   */\n      tag_151\n      jump\t// in\n    tag_154:\n        /* \"#utility.yul\":6089:6124   */\n      swap1\n      pop\n        /* \"#utility.yul\":6079:6130   */\n      swap2\n      swap1\n      pop\n      jump\t// out\n        /* \"#utility.yul\":6136:6259   */\n    tag_101:\n        /* \"#utility.yul\":6197:6206   */\n      0x00\n        /* \"#utility.yul\":6230:6253   */\n      tag_156\n        /* \"#utility.yul\":6247:6252   */\n      dup3\n        /* \"#utility.yul\":6230:6253   */\n      tag_147\n      jump\t// in\n    tag_156:\n        /* \"#utility.yul\":6217:6253   */\n      swap1\n      pop\n        /* \"#utility.yul\":6207:6259   */\n      swap2\n      swap1\n      pop\n      jump\t// out\n        /* \"#utility.yul\":6265:6387   */\n    tag_105:\n        /* \"#utility.yul\":6325:6334   */\n      0x00\n        /* \"#utility.yul\":6358:6381   */\n      tag_158\n        /* \"#utility.yul\":6375:6380   */\n      dup3\n        /* \"#utility.yul\":6358:6381   */\n      tag_147\n      jump\t// in\n    tag_158:\n        /* \"#utility.yul\":6345:6381   */\n      swap1\n      pop\n        /* \"#utility.yul\":6335:6387   */\n      swap2\n      swap1\n      pop\n      jump\t// out\n        /* \"#utility.yul\":6393:6547   */\n    tag_66:\n        /* \"#utility.yul\":6477:6483   */\n      dup3\n        /* \"#utility.yul\":6472:6475   */\n      dup2\n        /* \"#utility.yul\":6467:6470   */\n      dup4\n        /* \"#utility.yul\":6454:6484   */\n      calldatacopy\n        /* \"#utility.yul\":6539:6540   */\n      0x00\n        /* \"#utility.yul\":6530:6536   */\n      dup4\n        /* \"#utility.yul\":6525:6528   */\n      dup4\n        /* \"#utility.yul\":6521:6537   */\n      add\n        /* \"#utility.yul\":6514:6541   */\n      mstore\n        /* \"#utility.yul\":6444:6547   */\n      pop\n      pop\n      pop\n      jump\t// out\n        /* \"#utility.yul\":6553:6860   */\n    tag_91:\n        /* \"#utility.yul\":6621:6622   */\n      0x00\n        /* \"#utility.yul\":6631:6744   */\n    tag_161:\n        /* \"#utility.yul\":6645:6651   */\n      dup4\n        /* \"#utility.yul\":6642:6643   */\n      dup2\n        /* \"#utility.yul\":6639:6652   */\n      lt\n        /* \"#utility.yul\":6631:6744   */\n      iszero\n      tag_163\n      jumpi\n        /* \"#utility.yul\":6730:6731   */\n      dup1\n        /* \"#utility.yul\":6725:6728   */\n      dup3\n        /* \"#utility.yul\":6721:6732   */\n      add\n        /* \"#utility.yul\":6715:6733   */\n      mload\n        /* \"#utility.yul\":6711:6712   */\n      dup2\n        /* \"#utility.yul\":6706:6709   */\n      dup5\n        /* \"#utility.yul\":6702:6713   */\n      add\n        /* \"#utility.yul\":6695:6734   */\n      mstore\n        /* \"#utility.yul\":6667:6669   */\n      0x20\n        /* \"#utility.yul\":6664:6665   */\n      dup2\n        /* \"#utility.yul\":6660:6670   */\n      add\n        /* \"#utility.yul\":6655:6670   */\n      swap1\n      pop\n        /* \"#utility.yul\":6631:6744   */\n      jump(tag_161)\n    tag_163:\n        /* \"#utility.yul\":6762:6768   */\n      dup4\n        /* \"#utility.yul\":6759:6760   */\n      dup2\n        /* \"#utility.yul\":6756:6769   */\n      gt\n        /* \"#utility.yul\":6753:6755   */\n      iszero\n      tag_164\n      jumpi\n        /* \"#utility.yul\":6842:6843   */\n      0x00\n        /* \"#utility.yul\":6833:6839   */\n      dup5\n        /* \"#utility.yul\":6828:6831   */\n      dup5\n        /* \"#utility.yul\":6824:6840   */\n      add\n        /* \"#utility.yul\":6817:6844   */\n      mstore\n        /* \"#utility.yul\":6753:6755   */\n    tag_164:\n        /* \"#utility.yul\":6602:6860   */\n      pop\n      pop\n      pop\n      pop\n      jump\t// out\n        /* \"#utility.yul\":6866:7147   */\n    tag_132:\n        /* \"#utility.yul\":6949:6976   */\n      tag_166\n        /* \"#utility.yul\":6971:6975   */\n      dup3\n        /* \"#utility.yul\":6949:6976   */\n      tag_93\n      jump\t// in\n    tag_166:\n        /* \"#utility.yul\":6941:6947   */\n      dup2\n        /* \"#utility.yul\":6937:6977   */\n      add\n        /* \"#utility.yul\":7079:7085   */\n      dup2\n        /* \"#utility.yul\":7067:7077   */\n      dup2\n        /* \"#utility.yul\":7064:7086   */\n      lt\n        /* \"#utility.yul\":7043:7061   */\n      0xffffffffffffffff\n        /* \"#utility.yul\":7031:7041   */\n      dup3\n        /* \"#utility.yul\":7028:7062   */\n      gt\n        /* \"#utility.yul\":7025:7087   */\n      or\n        /* \"#utility.yul\":7022:7024   */\n      iszero\n      tag_167\n      jumpi\n        /* \"#utility.yul\":7090:7108   */\n      tag_168\n      tag_137\n      jump\t// in\n    tag_168:\n        /* \"#utility.yul\":7022:7024   */\n    tag_167:\n        /* \"#utility.yul\":7130:7140   */\n      dup1\n        /* \"#utility.yul\":7126:7128   */\n      0x40\n        /* \"#utility.yul\":7119:7141   */\n      mstore\n        /* \"#utility.yul\":6909:7147   */\n      pop\n      pop\n      pop\n      jump\t// out\n        /* \"#utility.yul\":7153:7333   */\n    tag_146:\n        /* \"#utility.yul\":7201:7278   */\n      0x4e487b7100000000000000000000000000000000000000000000000000000000\n        /* \"#utility.yul\":7198:7199   */\n      0x00\n        /* \"#utility.yul\":7191:7279   */\n      mstore\n        /* \"#utility.yul\":7298:7302   */\n      0x11\n        /* \"#utility.yul\":7295:7296   */\n      0x04\n        /* \"#utility.yul\":7288:7303   */\n      mstore\n        /* \"#utility.yul\":7322:7326   */\n      0x24\n        /* \"#utility.yul\":7319:7320   */\n      0x00\n        /* \"#utility.yul\":7312:7327   */\n      revert\n        /* \"#utility.yul\":7339:7519   */\n    tag_137:\n        /* \"#utility.yul\":7387:7464   */\n      0x4e487b7100000000000000000000000000000000000000000000000000000000\n        /* \"#utility.yul\":7384:7385   */\n      0x00\n        /* \"#utility.yul\":7377:7465   */\n      mstore\n        /* \"#utility.yul\":7484:7488   */\n      0x41\n        /* \"#utility.yul\":7481:7482   */\n      0x04\n        /* \"#utility.yul\":7474:7489   */\n      mstore\n        /* \"#utility.yul\":7508:7512   */\n      0x24\n        /* \"#utility.yul\":7505:7506   */\n      0x00\n        /* \"#utility.yul\":7498:7513   */\n      revert\n        /* \"#utility.yul\":7525:7627   */\n    tag_93:\n        /* \"#utility.yul\":7566:7572   */\n      0x00\n        /* \"#utility.yul\":7617:7619   */\n      0x1f\n        /* \"#utility.yul\":7613:7620   */\n      not\n        /* \"#utility.yul\":7608:7610   */\n      0x1f\n        /* \"#utility.yul\":7601:7606   */\n      dup4\n        /* \"#utility.yul\":7597:7611   */\n      add\n        /* \"#utility.yul\":7593:7621   */\n      and\n        /* \"#utility.yul\":7583:7621   */\n      swap1\n      pop\n        /* \"#utility.yul\":7573:7627   */\n      swap2\n      swap1\n      pop\n      jump\t// out\n        /* \"#utility.yul\":7633:7755   */\n    tag_74:\n        /* \"#utility.yul\":7706:7730   */\n      tag_173\n        /* \"#utility.yul\":7724:7729   */\n      dup2\n        /* \"#utility.yul\":7706:7730   */\n      tag_109\n      jump\t// in\n    tag_173:\n        /* \"#utility.yul\":7699:7704   */\n      dup2\n        /* \"#utility.yul\":7696:7731   */\n      eq\n        /* \"#utility.yul\":7686:7688   */\n      tag_174\n      jumpi\n        /* \"#utility.yul\":7745:7746   */\n      0x00\n        /* \"#utility.yul\":7742:7743   */\n      dup1\n        /* \"#utility.yul\":7735:7747   */\n      revert\n        /* \"#utility.yul\":7686:7688   */\n    tag_174:\n        /* \"#utility.yul\":7676:7755   */\n      pop\n      jump\t// out\n\n    auxdata: 0xa26469706673582212206b29e89bb975de26a765875daf6ac0324da2927cde9f0758b772a097a8168e9a64736f6c63430008040033\n}\n",
				"bytecode": {
					"linkReferences": {},
					"object": "608060405234801561001057600080fd5b50610702806100206000396000f3fe608060405234801561001057600080fd5b506004361061007d5760003560e01c8063416bdc521161005b578063416bdc52146100dc5780636097e7a31461010e5780638c492a761461012c5780639711715a1461014a5761007d565b806302a251a31461008257806329dcb0cf146100a05780633932abb1146100be575b600080fd5b61008a610168565b6040516100979190610447565b60405180910390f35b6100a8610172565b6040516100b59190610499565b60405180910390f35b6100c66101a9565b6040516100d39190610447565b60405180910390f35b6100f660048036038101906100f191906102da565b6101b2565b60405161010593929190610462565b60405180910390f35b6101166101de565b60405161012391906103ee565b60405180910390f35b61013461020e565b60405161014191906103ee565b60405180910390f35b61015261023e565b60405161015f9190610499565b60405180910390f35b600061b2fa905090565b60008061017d6101a9565b436101889190610526565b90506000610194610168565b8261019f9190610526565b9050809250505090565b60006001905090565b6000806000838060200190518101906101cb919061031b565b8093508194508295505050509193909250565b6060600161b2ec6113886040516020016101fa93929190610410565b604051602081830303815290604052905090565b6060600161b2ec61138860405160200161022a93929190610410565b604051602081830303815290604052905090565b6000806102496101a9565b436102549190610526565b90508091505090565b600061027061026b846104d9565b6104b4565b90508281526020810184848401111561028857600080fd5b6102938482856105d3565b509392505050565b600082601f8301126102ac57600080fd5b81356102bc84826020860161025d565b91505092915050565b6000815190506102d4816106b5565b92915050565b6000602082840312156102ec57600080fd5b600082013567ffffffffffffffff81111561030657600080fd5b6103128482850161029b565b91505092915050565b60008060006060848603121561033057600080fd5b600061033e868287016102c5565b935050602061034f868287016102c5565b9250506040610360868287016102c5565b9150509250925092565b60006103758261050a565b61037f8185610515565b935061038f8185602086016105e2565b610398816106a4565b840191505092915050565b6103ac8161059d565b82525050565b6103bb816105af565b82525050565b6103ca816105c1565b82525050565b6103d981610572565b82525050565b6103e88161057c565b82525050565b60006020820190508181036000830152610408818461036a565b905092915050565b600060608201905061042560008301866103a3565b61043260208301856103b2565b61043f60408301846103c1565b949350505050565b600060208201905061045c60008301846103d0565b92915050565b600060608201905061047760008301866103d0565b61048460208301856103d0565b61049160408301846103d0565b949350505050565b60006020820190506104ae60008301846103df565b92915050565b60006104be6104cf565b90506104ca8282610615565b919050565b6000604051905090565b600067ffffffffffffffff8211156104f4576104f3610675565b5b6104fd826106a4565b9050602081019050919050565b600081519050919050565b600082825260208201905092915050565b60006105318261057c565b915061053c8361057c565b92508267ffffffffffffffff0382111561055957610558610646565b5b828201905092915050565b600061ffff82169050919050565b6000819050919050565b600067ffffffffffffffff82169050919050565b600060ff82169050919050565b60006105a882610590565b9050919050565b60006105ba82610564565b9050919050565b60006105cc82610564565b9050919050565b82818337600083830152505050565b60005b838110156106005780820151818401526020810190506105e5565b8381111561060f576000848401525b50505050565b61061e826106a4565b810181811067ffffffffffffffff8211171561063d5761063c610675565b5b80604052505050565b7f4e487b7100000000000000000000000000000000000000000000000000000000600052601160045260246000fd5b7f4e487b7100000000000000000000000000000000000000000000000000000000600052604160045260246000fd5b6000601f19601f8301169050919050565b6106be81610572565b81146106c957600080fd5b5056fea26469706673582212206b29e89bb975de26a765875daf6ac0324da2927cde9f0758b772a097a8168e9a64736f6c63430008040033",
					"opcodes": "PUSH1 0x80 PUSH1 0x40 MSTORE CALLVALUE DUP1 ISZERO PUSH2 0x10 JUMPI PUSH1 0x0 DUP1 REVERT JUMPDEST POP PUSH2 0x702 DUP1 PUSH2 0x20 PUSH1 0x0 CODECOPY PUSH1 0x0 RETURN INVALID PUSH1 0x80 PUSH1 0x40 MSTORE CALLVALUE DUP1 ISZERO PUSH2 0x10 JUMPI PUSH1 0x0 DUP1 REVERT JUMPDEST POP PUSH1 0x4 CALLDATASIZE LT PUSH2 0x7D JUMPI PUSH1 0x0 CALLDATALOAD PUSH1 0xE0 SHR DUP1 PUSH4 0x416BDC52 GT PUSH2 0x5B JUMPI DUP1 PUSH4 0x416BDC52 EQ PUSH2 0xDC JUMPI DUP1 PUSH4 0x6097E7A3 EQ PUSH2 0x10E JUMPI DUP1 PUSH4 0x8C492A76 EQ PUSH2 0x12C JUMPI DUP1 PUSH4 0x9711715A EQ PUSH2 0x14A JUMPI PUSH2 0x7D JUMP JUMPDEST DUP1 PUSH4 0x2A251A3 EQ PUSH2 0x82 JUMPI DUP1 PUSH4 0x29DCB0CF EQ PUSH2 0xA0 JUMPI DUP1 PUSH4 0x3932ABB1 EQ PUSH2 0xBE JUMPI JUMPDEST PUSH1 0x0 DUP1 REVERT JUMPDEST PUSH2 0x8A PUSH2 0x168 JUMP JUMPDEST PUSH1 0x40 MLOAD PUSH2 0x97 SWAP2 SWAP1 PUSH2 0x447 JUMP JUMPDEST PUSH1 0x40 MLOAD DUP1 SWAP2 SUB SWAP1 RETURN JUMPDEST PUSH2 0xA8 PUSH2 0x172 JUMP JUMPDEST PUSH1 0x40 MLOAD PUSH2 0xB5 SWAP2 SWAP1 PUSH2 0x499 JUMP JUMPDEST PUSH1 0x40 MLOAD DUP1 SWAP2 SUB SWAP1 RETURN JUMPDEST PUSH2 0xC6 PUSH2 0x1A9 JUMP JUMPDEST PUSH1 0x40 MLOAD PUSH2 0xD3 SWAP2 SWAP1 PUSH2 0x447 JUMP JUMPDEST PUSH1 0x40 MLOAD DUP1 SWAP2 SUB SWAP1 RETURN JUMPDEST PUSH2 0xF6 PUSH1 0x4 DUP1 CALLDATASIZE SUB DUP2 ADD SWAP1 PUSH2 0xF1 SWAP2 SWAP1 PUSH2 0x2DA JUMP JUMPDEST PUSH2 0x1B2 JUMP JUMPDEST PUSH1 0x40 MLOAD PUSH2 0x105 SWAP4 SWAP3 SWAP2 SWAP1 PUSH2 0x462 JUMP JUMPDEST PUSH1 0x40 MLOAD DUP1 SWAP2 SUB SWAP1 RETURN JUMPDEST PUSH2 0x116 PUSH2 0x1DE JUMP JUMPDEST PUSH1 0x40 MLOAD PUSH2 0x123 SWAP2 SWAP1 PUSH2 0x3EE JUMP JUMPDEST PUSH1 0x40 MLOAD DUP1 SWAP2 SUB SWAP1 RETURN JUMPDEST PUSH2 0x134 PUSH2 0x20E JUMP JUMPDEST PUSH1 0x40 MLOAD PUSH2 0x141 SWAP2 SWAP1 PUSH2 0x3EE JUMP JUMPDEST PUSH1 0x40 MLOAD DUP1 SWAP2 SUB SWAP1 RETURN JUMPDEST PUSH2 0x152 PUSH2 0x23E JUMP JUMPDEST PUSH1 0x40 MLOAD PUSH2 0x15F SWAP2 SWAP1 PUSH2 0x499 JUMP JUMPDEST PUSH1 0x40 MLOAD DUP1 SWAP2 SUB SWAP1 RETURN JUMPDEST PUSH1 0x0 PUSH2 0xB2FA SWAP1 POP SWAP1 JUMP JUMPDEST PUSH1 0x0 DUP1 PUSH2 0x17D PUSH2 0x1A9 JUMP JUMPDEST NUMBER PUSH2 0x188 SWAP2 SWAP1 PUSH2 0x526 JUMP JUMPDEST SWAP1 POP PUSH1 0x0 PUSH2 0x194 PUSH2 0x168 JUMP JUMPDEST DUP3 PUSH2 0x19F SWAP2 SWAP1 PUSH2 0x526 JUMP JUMPDEST SWAP1 POP DUP1 SWAP3 POP POP POP SWAP1 JUMP JUMPDEST PUSH1 0x0 PUSH1 0x1 SWAP1 POP SWAP1 JUMP JUMPDEST PUSH1 0x0 DUP1 PUSH1 0x0 DUP4 DUP1 PUSH1 0x20 ADD SWAP1 MLOAD DUP2 ADD SWAP1 PUSH2 0x1CB SWAP2 SWAP1 PUSH2 0x31B JUMP JUMPDEST DUP1 SWAP4 POP DUP2 SWAP5 POP DUP3 SWAP6 POP POP POP POP SWAP2 SWAP4 SWAP1 SWAP3 POP JUMP JUMPDEST PUSH1 0x60 PUSH1 0x1 PUSH2 0xB2EC PUSH2 0x1388 PUSH1 0x40 MLOAD PUSH1 0x20 ADD PUSH2 0x1FA SWAP4 SWAP3 SWAP2 SWAP1 PUSH2 0x410 JUMP JUMPDEST PUSH1 0x40 MLOAD PUSH1 0x20 DUP2 DUP4 SUB SUB DUP2 MSTORE SWAP1 PUSH1 0x40 MSTORE SWAP1 POP SWAP1 JUMP JUMPDEST PUSH1 0x60 PUSH1 0x1 PUSH2 0xB2EC PUSH2 0x1388 PUSH1 0x40 MLOAD PUSH1 0x20 ADD PUSH2 0x22A SWAP4 SWAP3 SWAP2 SWAP1 PUSH2 0x410 JUMP JUMPDEST PUSH1 0x40 MLOAD PUSH1 0x20 DUP2 DUP4 SUB SUB DUP2 MSTORE SWAP1 PUSH1 0x40 MSTORE SWAP1 POP SWAP1 JUMP JUMPDEST PUSH1 0x0 DUP1 PUSH2 0x249 PUSH2 0x1A9 JUMP JUMPDEST NUMBER PUSH2 0x254 SWAP2 SWAP1 PUSH2 0x526 JUMP JUMPDEST SWAP1 POP DUP1 SWAP2 POP POP SWAP1 JUMP JUMPDEST PUSH1 0x0 PUSH2 0x270 PUSH2 0x26B DUP5 PUSH2 0x4D9 JUMP JUMPDEST PUSH2 0x4B4 JUMP JUMPDEST SWAP1 POP DUP3 DUP2 MSTORE PUSH1 0x20 DUP2 ADD DUP5 DUP5 DUP5 ADD GT ISZERO PUSH2 0x288 JUMPI PUSH1 0x0 DUP1 REVERT JUMPDEST PUSH2 0x293 DUP5 DUP3 DUP6 PUSH2 0x5D3 JUMP JUMPDEST POP SWAP4 SWAP3 POP POP POP JUMP JUMPDEST PUSH1 0x0 DUP3 PUSH1 0x1F DUP4 ADD SLT PUSH2 0x2AC JUMPI PUSH1 0x0 DUP1 REVERT JUMPDEST DUP2 CALLDATALOAD PUSH2 0x2BC DUP5 DUP3 PUSH1 0x20 DUP7 ADD PUSH2 0x25D JUMP JUMPDEST SWAP2 POP POP SWAP3 SWAP2 POP POP JUMP JUMPDEST PUSH1 0x0 DUP2 MLOAD SWAP1 POP PUSH2 0x2D4 DUP2 PUSH2 0x6B5 JUMP JUMPDEST SWAP3 SWAP2 POP POP JUMP JUMPDEST PUSH1 0x0 PUSH1 0x20 DUP3 DUP5 SUB SLT ISZERO PUSH2 0x2EC JUMPI PUSH1 0x0 DUP1 REVERT JUMPDEST PUSH1 0x0 DUP3 ADD CALLDATALOAD PUSH8 0xFFFFFFFFFFFFFFFF DUP2 GT ISZERO PUSH2 0x306 JUMPI PUSH1 0x0 DUP1 REVERT JUMPDEST PUSH2 0x312 DUP5 DUP3 DUP6 ADD PUSH2 0x29B JUMP JUMPDEST SWAP2 POP POP SWAP3 SWAP2 POP POP JUMP JUMPDEST PUSH1 0x0 DUP1 PUSH1 0x0 PUSH1 0x60 DUP5 DUP7 SUB SLT ISZERO PUSH2 0x330 JUMPI PUSH1 0x0 DUP1 REVERT JUMPDEST PUSH1 0x0 PUSH2 0x33E DUP7 DUP3 DUP8 ADD PUSH2 0x2C5 JUMP JUMPDEST SWAP4 POP POP PUSH1 0x20 PUSH2 0x34F DUP7 DUP3 DUP8 ADD PUSH2 0x2C5 JUMP JUMPDEST SWAP3 POP POP PUSH1 0x40 PUSH2 0x360 DUP7 DUP3 DUP8 ADD PUSH2 0x2C5 JUMP JUMPDEST SWAP2 POP POP SWAP3 POP SWAP3 POP SWAP3 JUMP JUMPDEST PUSH1 0x0 PUSH2 0x375 DUP3 PUSH2 0x50A JUMP JUMPDEST PUSH2 0x37F DUP2 DUP6 PUSH2 0x515 JUMP JUMPDEST SWAP4 POP PUSH2 0x38F DUP2 DUP6 PUSH1 0x20 DUP7 ADD PUSH2 0x5E2 JUMP JUMPDEST PUSH2 0x398 DUP2 PUSH2 0x6A4 JUMP JUMPDEST DUP5 ADD SWAP2 POP POP SWAP3 SWAP2 POP POP JUMP JUMPDEST PUSH2 0x3AC DUP2 PUSH2 0x59D JUMP JUMPDEST DUP3 MSTORE POP POP JUMP JUMPDEST PUSH2 0x3BB DUP2 PUSH2 0x5AF JUMP JUMPDEST DUP3 MSTORE POP POP JUMP JUMPDEST PUSH2 0x3CA DUP2 PUSH2 0x5C1 JUMP JUMPDEST DUP3 MSTORE POP POP JUMP JUMPDEST PUSH2 0x3D9 DUP2 PUSH2 0x572 JUMP JUMPDEST DUP3 MSTORE POP POP JUMP JUMPDEST PUSH2 0x3E8 DUP2 PUSH2 0x57C JUMP JUMPDEST DUP3 MSTORE POP POP JUMP JUMPDEST PUSH1 0x0 PUSH1 0x20 DUP3 ADD SWAP1 POP DUP2 DUP2 SUB PUSH1 0x0 DUP4 ADD MSTORE PUSH2 0x408 DUP2 DUP5 PUSH2 0x36A JUMP JUMPDEST SWAP1 POP SWAP3 SWAP2 POP POP JUMP JUMPDEST PUSH1 0x0 PUSH1 0x60 DUP3 ADD SWAP1 POP PUSH2 0x425 PUSH1 0x0 DUP4 ADD DUP7 PUSH2 0x3A3 JUMP JUMPDEST PUSH2 0x432 PUSH1 0x20 DUP4 ADD DUP6 PUSH2 0x3B2 JUMP JUMPDEST PUSH2 0x43F PUSH1 0x40 DUP4 ADD DUP5 PUSH2 0x3C1 JUMP JUMPDEST SWAP5 SWAP4 POP POP POP POP JUMP JUMPDEST PUSH1 0x0 PUSH1 0x20 DUP3 ADD SWAP1 POP PUSH2 0x45C PUSH1 0x0 DUP4 ADD DUP5 PUSH2 0x3D0 JUMP JUMPDEST SWAP3 SWAP2 POP POP JUMP JUMPDEST PUSH1 0x0 PUSH1 0x60 DUP3 ADD SWAP1 POP PUSH2 0x477 PUSH1 0x0 DUP4 ADD DUP7 PUSH2 0x3D0 JUMP JUMPDEST PUSH2 0x484 PUSH1 0x20 DUP4 ADD DUP6 PUSH2 0x3D0 JUMP JUMPDEST PUSH2 0x491 PUSH1 0x40 DUP4 ADD DUP5 PUSH2 0x3D0 JUMP JUMPDEST SWAP5 SWAP4 POP POP POP POP JUMP JUMPDEST PUSH1 0x0 PUSH1 0x20 DUP3 ADD SWAP1 POP PUSH2 0x4AE PUSH1 0x0 DUP4 ADD DUP5 PUSH2 0x3DF JUMP JUMPDEST SWAP3 SWAP2 POP POP JUMP JUMPDEST PUSH1 0x0 PUSH2 0x4BE PUSH2 0x4CF JUMP JUMPDEST SWAP1 POP PUSH2 0x4CA DUP3 DUP3 PUSH2 0x615 JUMP JUMPDEST SWAP2 SWAP1 POP JUMP JUMPDEST PUSH1 0x0 PUSH1 0x40 MLOAD SWAP1 POP SWAP1 JUMP JUMPDEST PUSH1 0x0 PUSH8 0xFFFFFFFFFFFFFFFF DUP3 GT ISZERO PUSH2 0x4F4 JUMPI PUSH2 0x4F3 PUSH2 0x675 JUMP JUMPDEST JUMPDEST PUSH2 0x4FD DUP3 PUSH2 0x6A4 JUMP JUMPDEST SWAP1 POP PUSH1 0x20 DUP2 ADD SWAP1 POP SWAP2 SWAP1 POP JUMP JUMPDEST PUSH1 0x0 DUP2 MLOAD SWAP1 POP SWAP2 SWAP1 POP JUMP JUMPDEST PUSH1 0x0 DUP3 DUP3 MSTORE PUSH1 0x20 DUP3 ADD SWAP1 POP SWAP3 SWAP2 POP POP JUMP JUMPDEST PUSH1 0x0 PUSH2 0x531 DUP3 PUSH2 0x57C JUMP JUMPDEST SWAP2 POP PUSH2 0x53C DUP4 PUSH2 0x57C JUMP JUMPDEST SWAP3 POP DUP3 PUSH8 0xFFFFFFFFFFFFFFFF SUB DUP3 GT ISZERO PUSH2 0x559 JUMPI PUSH2 0x558 PUSH2 0x646 JUMP JUMPDEST JUMPDEST DUP3 DUP3 ADD SWAP1 POP SWAP3 SWAP2 POP POP JUMP JUMPDEST PUSH1 0x0 PUSH2 0xFFFF DUP3 AND SWAP1 POP SWAP2 SWAP1 POP JUMP JUMPDEST PUSH1 0x0 DUP2 SWAP1 POP SWAP2 SWAP1 POP JUMP JUMPDEST PUSH1 0x0 PUSH8 0xFFFFFFFFFFFFFFFF DUP3 AND SWAP1 POP SWAP2 SWAP1 POP JUMP JUMPDEST PUSH1 0x0 PUSH1 0xFF DUP3 AND SWAP1 POP SWAP2 SWAP1 POP JUMP JUMPDEST PUSH1 0x0 PUSH2 0x5A8 DUP3 PUSH2 0x590 JUMP JUMPDEST SWAP1 POP SWAP2 SWAP1 POP JUMP JUMPDEST PUSH1 0x0 PUSH2 0x5BA DUP3 PUSH2 0x564 JUMP JUMPDEST SWAP1 POP SWAP2 SWAP1 POP JUMP JUMPDEST PUSH1 0x0 PUSH2 0x5CC DUP3 PUSH2 0x564 JUMP JUMPDEST SWAP1 POP SWAP2 SWAP1 POP JUMP JUMPDEST DUP3 DUP2 DUP4 CALLDATACOPY PUSH1 0x0 DUP4 DUP4 ADD MSTORE POP POP POP JUMP JUMPDEST PUSH1 0x0 JUMPDEST DUP4 DUP2 LT ISZERO PUSH2 0x600 JUMPI DUP1 DUP3 ADD MLOAD DUP2 DUP5 ADD MSTORE PUSH1 0x20 DUP2 ADD SWAP1 POP PUSH2 0x5E5 JUMP JUMPDEST DUP4 DUP2 GT ISZERO PUSH2 0x60F JUMPI PUSH1 0x0 DUP5 DUP5 ADD MSTORE JUMPDEST POP POP POP POP JUMP JUMPDEST PUSH2 0x61E DUP3 PUSH2 0x6A4 JUMP JUMPDEST DUP2 ADD DUP2 DUP2 LT PUSH8 0xFFFFFFFFFFFFFFFF DUP3 GT OR ISZERO PUSH2 0x63D JUMPI PUSH2 0x63C PUSH2 0x675 JUMP JUMPDEST JUMPDEST DUP1 PUSH1 0x40 MSTORE POP POP POP JUMP JUMPDEST PUSH32 0x4E487B7100000000000000000000000000000000000000000000000000000000 PUSH1 0x0 MSTORE PUSH1 0x11 PUSH1 0x4 MSTORE PUSH1 0x24 PUSH1 0x0 REVERT JUMPDEST PUSH32 0x4E487B7100000000000000000000000000000000000000000000000000000000 PUSH1 0x0 MSTORE PUSH1 0x41 PUSH1 0x4 MSTORE PUSH1 0x24 PUSH1 0x0 REVERT JUMPDEST PUSH1 0x0 PUSH1 0x1F NOT PUSH1 0x1F DUP4 ADD AND SWAP1 POP SWAP2 SWAP1 POP JUMP JUMPDEST PUSH2 0x6BE DUP2 PUSH2 0x572 JUMP JUMPDEST DUP2 EQ PUSH2 0x6C9 JUMPI PUSH1 0x0 DUP1 REVERT JUMPDEST POP JUMP INVALID LOG2 PUSH5 0x6970667358 0x22 SLT KECCAK256 PUSH12 0x29E89BB975DE26A765875DAF PUSH11 0xC0324DA2927CDE9F0758B7 PUSH19 0xA097A8168E9A64736F6C634300080400330000 "
				},
				"gasEstimates": {
					"creation": {
						"codeDepositCost": "358800",
						"executionCost": "399",
						"totalCost": "359199"
					},
					"external": {
						"abiDecode(bytes)": "infinite",
						"abiEncode()": "infinite",
						"deadline()": "infinite",
						"keccak256test()": "infinite",
						"snapshot()": "infinite",
						"votingDelay()": "382",
						"votingPeriod()": "338"
					}
				},
				"methodIdentifiers": {
					"abiDecode(bytes)": "416bdc52",
					"abiEncode()": "6097e7a3",
					"deadline()": "29dcb0cf",
					"keccak256test()": "8c492a76",
					"snapshot()": "9711715a",
					"votingDelay()": "3932abb1",
					"votingPeriod()": "02a251a3"
				}
			},
			"storageLayout": {
				"storage": [],
				"types": null
			},
			"userdoc": {
				"kind": "user",
				"methods": {},
				"version": 1
			}
		}
	}
}