{
	".workspaces/default_workspace/unMiracle/UMRproposal.sol": {
		"UMRproposal": {
			"abi": [
				{
					"inputs": [
						{
							"internalType": "address[]",
							"name": "destination",
							"type": "address[]"
						},
						{
							"internalType": "bytes[]",
							"name": "calldatas",
							"type": "bytes[]"
						},
						{
							"internalType": "string",
							"name": "description",
							"type": "string"
						}
					],
					"name": "execute",
					"outputs": [
						{
							"internalType": "uint256",
							"name": "",
							"type": "uint256"
						}
					],
					"stateMutability": "payable",
					"type": "function"
				},
				{
					"inputs": [
						{
							"internalType": "uint256",
							"name": "proposalId",
							"type": "uint256"
						}
					],
					"name": "getCurrentAmount",
					"outputs": [
						{
							"internalType": "uint256",
							"name": "",
							"type": "uint256"
						}
					],
					"stateMutability": "view",
					"type": "function"
				},
				{
					"inputs": [
						{
							"internalType": "address[]",
							"name": "destination",
							"type": "address[]"
						},
						{
							"internalType": "bytes[]",
							"name": "calldatas",
							"type": "bytes[]"
						},
						{
							"internalType": "bytes32",
							"name": "descriptionHash",
							"type": "bytes32"
						}
					],
					"name": "hashProposal",
					"outputs": [
						{
							"internalType": "uint256",
							"name": "",
							"type": "uint256"
						}
					],
					"stateMutability": "pure",
					"type": "function"
				},
				{
					"inputs": [
						{
							"internalType": "uint256",
							"name": "donateDelay",
							"type": "uint256"
						},
						{
							"internalType": "uint256",
							"name": "donatePeriod",
							"type": "uint256"
						},
						{
							"internalType": "uint256",
							"name": "donateMinimum",
							"type": "uint256"
						},
						{
							"internalType": "address[]",
							"name": "destination",
							"type": "address[]"
						},
						{
							"internalType": "bytes[]",
							"name": "calldatas",
							"type": "bytes[]"
						},
						{
							"internalType": "string",
							"name": "description",
							"type": "string"
						}
					],
					"name": "proposal",
					"outputs": [
						{
							"internalType": "uint256",
							"name": "",
							"type": "uint256"
						}
					],
					"stateMutability": "nonpayable",
					"type": "function"
				},
				{
					"inputs": [
						{
							"internalType": "uint256",
							"name": "proposalId",
							"type": "uint256"
						}
					],
					"name": "proposalDeadline",
					"outputs": [
						{
							"internalType": "uint256",
							"name": "",
							"type": "uint256"
						}
					],
					"stateMutability": "view",
					"type": "function"
				},
				{
					"inputs": [
						{
							"internalType": "uint256",
							"name": "proposalId",
							"type": "uint256"
						}
					],
					"name": "proposalDonateMinimum",
					"outputs": [
						{
							"internalType": "uint256",
							"name": "",
							"type": "uint256"
						}
					],
					"stateMutability": "view",
					"type": "function"
				},
				{
					"inputs": [
						{
							"internalType": "uint256",
							"name": "proposalId",
							"type": "uint256"
						}
					],
					"name": "proposalSnapshot",
					"outputs": [
						{
							"internalType": "uint256",
							"name": "",
							"type": "uint256"
						}
					],
					"stateMutability": "view",
					"type": "function"
				},
				{
					"inputs": [
						{
							"internalType": "uint256",
							"name": "proposalId",
							"type": "uint256"
						},
						{
							"internalType": "uint256",
							"name": "amount",
							"type": "uint256"
						}
					],
					"name": "setCurrentAmount",
					"outputs": [],
					"stateMutability": "nonpayable",
					"type": "function"
				},
				{
					"inputs": [
						{
							"internalType": "uint256",
							"name": "proposalId",
							"type": "uint256"
						}
					],
					"name": "state",
					"outputs": [
						{
							"internalType": "enum IUMRcore.ProposalState",
							"name": "",
							"type": "uint8"
						}
					],
					"stateMutability": "view",
					"type": "function"
				}
			],
			"devdoc": {
				"kind": "dev",
				"methods": {},
				"version": 1
			},
			"evm": {
				"assembly": "    /* \".workspaces/default_workspace/unMiracle/UMRproposal.sol\":113:5572  contract UMRproposal is IUMRcore{... */\n  mstore(0x40, 0x80)\n  callvalue\n  dup1\n  iszero\n  tag_1\n  jumpi\n  0x00\n  dup1\n  revert\ntag_1:\n  pop\n  dataSize(sub_0)\n  dup1\n  dataOffset(sub_0)\n  0x00\n  codecopy\n  0x00\n  return\nstop\n\nsub_0: assembly {\n        /* \".workspaces/default_workspace/unMiracle/UMRproposal.sol\":113:5572  contract UMRproposal is IUMRcore{... */\n      mstore(0x40, 0x80)\n      jumpi(tag_1, lt(calldatasize, 0x04))\n      shr(0xe0, calldataload(0x00))\n      dup1\n      0xb50f1f8f\n      gt\n      tag_11\n      jumpi\n      dup1\n      0xb50f1f8f\n      eq\n      tag_6\n      jumpi\n      dup1\n      0xc01f9e37\n      eq\n      tag_7\n      jumpi\n      dup1\n      0xdf6b65de\n      eq\n      tag_8\n      jumpi\n      dup1\n      0xeb9094a2\n      eq\n      tag_9\n      jumpi\n      dup1\n      0xf68deaf9\n      eq\n      tag_10\n      jumpi\n      jump(tag_1)\n    tag_11:\n      dup1\n      0x11864146\n      eq\n      tag_2\n      jumpi\n      dup1\n      0x2d63f693\n      eq\n      tag_3\n      jumpi\n      dup1\n      0x3e4f49e6\n      eq\n      tag_4\n      jumpi\n      dup1\n      0x56e78dc3\n      eq\n      tag_5\n      jumpi\n    tag_1:\n      0x00\n      dup1\n      revert\n        /* \".workspaces/default_workspace/unMiracle/UMRproposal.sol\":4001:4950  function execute(... */\n    tag_2:\n      tag_12\n      0x04\n      dup1\n      calldatasize\n      sub\n      dup2\n      add\n      swap1\n      tag_13\n      swap2\n      swap1\n      tag_14\n      jump\t// in\n    tag_13:\n      tag_15\n      jump\t// in\n    tag_12:\n      mload(0x40)\n      tag_16\n      swap2\n      swap1\n      tag_17\n      jump\t// in\n    tag_16:\n      mload(0x40)\n      dup1\n      swap2\n      sub\n      swap1\n      return\n        /* \".workspaces/default_workspace/unMiracle/UMRproposal.sol\":2893:3051  function proposalSnapshot(uint256 proposalId) public view virtual returns (uint256) {... */\n    tag_3:\n      callvalue\n      dup1\n      iszero\n      tag_18\n      jumpi\n      0x00\n      dup1\n      revert\n    tag_18:\n      pop\n      tag_19\n      0x04\n      dup1\n      calldatasize\n      sub\n      dup2\n      add\n      swap1\n      tag_20\n      swap2\n      swap1\n      tag_21\n      jump\t// in\n    tag_20:\n      tag_22\n      jump\t// in\n    tag_19:\n      mload(0x40)\n      tag_23\n      swap2\n      swap1\n      tag_17\n      jump\t// in\n    tag_23:\n      mload(0x40)\n      dup1\n      swap2\n      sub\n      swap1\n      return\n        /* \".workspaces/default_workspace/unMiracle/UMRproposal.sol\":476:1331  function state(uint256 proposalId) public view returns (ProposalState) {... */\n    tag_4:\n      callvalue\n      dup1\n      iszero\n      tag_24\n      jumpi\n      0x00\n      dup1\n      revert\n    tag_24:\n      pop\n      tag_25\n      0x04\n      dup1\n      calldatasize\n      sub\n      dup2\n      add\n      swap1\n      tag_26\n      swap2\n      swap1\n      tag_21\n      jump\t// in\n    tag_26:\n      tag_27\n      jump\t// in\n    tag_25:\n      mload(0x40)\n      tag_28\n      swap2\n      swap1\n      tag_29\n      jump\t// in\n    tag_28:\n      mload(0x40)\n      dup1\n      swap2\n      sub\n      swap1\n      return\n        /* \".workspaces/default_workspace/unMiracle/UMRproposal.sol\":3839:3995  function getCurrentAmount(uint256 proposalId) public view virtual returns (uint256) {... */\n    tag_5:\n      callvalue\n      dup1\n      iszero\n      tag_30\n      jumpi\n      0x00\n      dup1\n      revert\n    tag_30:\n      pop\n      tag_31\n      0x04\n      dup1\n      calldatasize\n      sub\n      dup2\n      add\n      swap1\n      tag_32\n      swap2\n      swap1\n      tag_21\n      jump\t// in\n    tag_32:\n      tag_33\n      jump\t// in\n    tag_31:\n      mload(0x40)\n      tag_34\n      swap2\n      swap1\n      tag_17\n      jump\t// in\n    tag_34:\n      mload(0x40)\n      dup1\n      swap2\n      sub\n      swap1\n      return\n        /* \".workspaces/default_workspace/unMiracle/UMRproposal.sol\":1338:1675  function hashProposal(... */\n    tag_6:\n      callvalue\n      dup1\n      iszero\n      tag_35\n      jumpi\n      0x00\n      dup1\n      revert\n    tag_35:\n      pop\n      tag_36\n      0x04\n      dup1\n      calldatasize\n      sub\n      dup2\n      add\n      swap1\n      tag_37\n      swap2\n      swap1\n      tag_38\n      jump\t// in\n    tag_37:\n      tag_39\n      jump\t// in\n    tag_36:\n      mload(0x40)\n      tag_40\n      swap2\n      swap1\n      tag_17\n      jump\t// in\n    tag_40:\n      mload(0x40)\n      dup1\n      swap2\n      sub\n      swap1\n      return\n        /* \".workspaces/default_workspace/unMiracle/UMRproposal.sol\":3088:3244  function proposalDeadline(uint256 proposalId) public view virtual returns (uint256) {... */\n    tag_7:\n      callvalue\n      dup1\n      iszero\n      tag_41\n      jumpi\n      0x00\n      dup1\n      revert\n    tag_41:\n      pop\n      tag_42\n      0x04\n      dup1\n      calldatasize\n      sub\n      dup2\n      add\n      swap1\n      tag_43\n      swap2\n      swap1\n      tag_21\n      jump\t// in\n    tag_43:\n      tag_44\n      jump\t// in\n    tag_42:\n      mload(0x40)\n      tag_45\n      swap2\n      swap1\n      tag_17\n      jump\t// in\n    tag_45:\n      mload(0x40)\n      dup1\n      swap2\n      sub\n      swap1\n      return\n        /* \".workspaces/default_workspace/unMiracle/UMRproposal.sol\":1681:2855  function proposal(... */\n    tag_8:\n      callvalue\n      dup1\n      iszero\n      tag_46\n      jumpi\n      0x00\n      dup1\n      revert\n    tag_46:\n      pop\n      tag_47\n      0x04\n      dup1\n      calldatasize\n      sub\n      dup2\n      add\n      swap1\n      tag_48\n      swap2\n      swap1\n      tag_49\n      jump\t// in\n    tag_48:\n      tag_50\n      jump\t// in\n    tag_47:\n      mload(0x40)\n      tag_51\n      swap2\n      swap1\n      tag_17\n      jump\t// in\n    tag_51:\n      mload(0x40)\n      dup1\n      swap2\n      sub\n      swap1\n      return\n        /* \".workspaces/default_workspace/unMiracle/UMRproposal.sol\":3645:3792  function setCurrentAmount(uint256 proposalId,uint256 amount) public virtual {... */\n    tag_9:\n      callvalue\n      dup1\n      iszero\n      tag_52\n      jumpi\n      0x00\n      dup1\n      revert\n    tag_52:\n      pop\n      tag_53\n      0x04\n      dup1\n      calldatasize\n      sub\n      dup2\n      add\n      swap1\n      tag_54\n      swap2\n      swap1\n      tag_55\n      jump\t// in\n    tag_54:\n      tag_56\n      jump\t// in\n    tag_53:\n      stop\n        /* \".workspaces/default_workspace/unMiracle/UMRproposal.sol\":3295:3456  function proposalDonateMinimum(uint256 proposalId) public view virtual returns (uint256) {... */\n    tag_10:\n      callvalue\n      dup1\n      iszero\n      tag_57\n      jumpi\n      0x00\n      dup1\n      revert\n    tag_57:\n      pop\n      tag_58\n      0x04\n      dup1\n      calldatasize\n      sub\n      dup2\n      add\n      swap1\n      tag_59\n      swap2\n      swap1\n      tag_21\n      jump\t// in\n    tag_59:\n      tag_60\n      jump\t// in\n    tag_58:\n      mload(0x40)\n      tag_61\n      swap2\n      swap1\n      tag_17\n      jump\t// in\n    tag_61:\n      mload(0x40)\n      dup1\n      swap2\n      sub\n      swap1\n      return\n        /* \".workspaces/default_workspace/unMiracle/UMRproposal.sol\":4001:4950  function execute(... */\n    tag_15:\n        /* \".workspaces/default_workspace/unMiracle/UMRproposal.sol\":4252:4259  uint256 */\n      0x00\n        /* \".workspaces/default_workspace/unMiracle/UMRproposal.sol\":4320:4338  uint256 proposalId */\n      dup1\n        /* \".workspaces/default_workspace/unMiracle/UMRproposal.sol\":4341:4408  hashProposal(destination, calldatas, keccak256(bytes(description))) */\n      tag_63\n        /* \".workspaces/default_workspace/unMiracle/UMRproposal.sol\":4354:4365  destination */\n      dup6\n        /* \".workspaces/default_workspace/unMiracle/UMRproposal.sol\":4367:4376  calldatas */\n      dup6\n        /* \".workspaces/default_workspace/unMiracle/UMRproposal.sol\":4394:4405  description */\n      dup6\n        /* \".workspaces/default_workspace/unMiracle/UMRproposal.sol\":4378:4407  keccak256(bytes(description)) */\n      dup1\n      mload\n      swap1\n      0x20\n      add\n      keccak256\n        /* \".workspaces/default_workspace/unMiracle/UMRproposal.sol\":4341:4353  hashProposal */\n      tag_39\n        /* \".workspaces/default_workspace/unMiracle/UMRproposal.sol\":4341:4408  hashProposal(destination, calldatas, keccak256(bytes(description))) */\n      jump\t// in\n    tag_63:\n        /* \".workspaces/default_workspace/unMiracle/UMRproposal.sol\":4320:4408  uint256 proposalId = hashProposal(destination, calldatas, keccak256(bytes(description))) */\n      swap1\n      pop\n        /* \".workspaces/default_workspace/unMiracle/UMRproposal.sol\":4423:4443  ProposalState status */\n      0x00\n        /* \".workspaces/default_workspace/unMiracle/UMRproposal.sol\":4446:4463  state(proposalId) */\n      tag_64\n        /* \".workspaces/default_workspace/unMiracle/UMRproposal.sol\":4452:4462  proposalId */\n      dup3\n        /* \".workspaces/default_workspace/unMiracle/UMRproposal.sol\":4446:4451  state */\n      tag_27\n        /* \".workspaces/default_workspace/unMiracle/UMRproposal.sol\":4446:4463  state(proposalId) */\n      jump\t// in\n    tag_64:\n        /* \".workspaces/default_workspace/unMiracle/UMRproposal.sol\":4423:4463  ProposalState status = state(proposalId) */\n      swap1\n      pop\n        /* \".workspaces/default_workspace/unMiracle/UMRproposal.sol\":4477:4506  ProposalCore storage proposal */\n      0x00\n        /* \".workspaces/default_workspace/unMiracle/UMRproposal.sol\":4509:4519  _proposals */\n      dup1\n        /* \".workspaces/default_workspace/unMiracle/UMRproposal.sol\":4509:4531  _proposals[proposalId] */\n      0x00\n        /* \".workspaces/default_workspace/unMiracle/UMRproposal.sol\":4520:4530  proposalId */\n      dup5\n        /* \".workspaces/default_workspace/unMiracle/UMRproposal.sol\":4509:4531  _proposals[proposalId] */\n      dup2\n      mstore\n      0x20\n      add\n      swap1\n      dup2\n      mstore\n      0x20\n      add\n      0x00\n      keccak256\n        /* \".workspaces/default_workspace/unMiracle/UMRproposal.sol\":4477:4531  ProposalCore storage proposal = _proposals[proposalId] */\n      swap1\n      pop\n        /* \".workspaces/default_workspace/unMiracle/UMRproposal.sol\":4576:4599  ProposalState.Succeeded */\n      0x03\n        /* \".workspaces/default_workspace/unMiracle/UMRproposal.sol\":4566:4599  status == ProposalState.Succeeded */\n      0x05\n      dup2\n      gt\n      iszero\n      tag_65\n      jumpi\n      tag_66\n      tag_67\n      jump\t// in\n    tag_66:\n    tag_65:\n        /* \".workspaces/default_workspace/unMiracle/UMRproposal.sol\":4566:4572  status */\n      dup3\n        /* \".workspaces/default_workspace/unMiracle/UMRproposal.sol\":4566:4599  status == ProposalState.Succeeded */\n      0x05\n      dup2\n      gt\n      iszero\n      tag_68\n      jumpi\n      tag_69\n      tag_67\n      jump\t// in\n    tag_69:\n    tag_68:\n      eq\n        /* \".workspaces/default_workspace/unMiracle/UMRproposal.sol\":4545:4662  require(... */\n      tag_70\n      jumpi\n      mload(0x40)\n      0x08c379a000000000000000000000000000000000000000000000000000000000\n      dup2\n      mstore\n      0x04\n      add\n      tag_71\n      swap1\n      tag_72\n      jump\t// in\n    tag_71:\n      mload(0x40)\n      dup1\n      swap2\n      sub\n      swap1\n      revert\n    tag_70:\n        /* \".workspaces/default_workspace/unMiracle/UMRproposal.sol\":4775:4789  uint256 values */\n      0x00\n        /* \".workspaces/default_workspace/unMiracle/UMRproposal.sol\":4792:4820  getCurrentAmount(proposalId) */\n      tag_73\n        /* \".workspaces/default_workspace/unMiracle/UMRproposal.sol\":4809:4819  proposalId */\n      dup5\n        /* \".workspaces/default_workspace/unMiracle/UMRproposal.sol\":4792:4808  getCurrentAmount */\n      tag_33\n        /* \".workspaces/default_workspace/unMiracle/UMRproposal.sol\":4792:4820  getCurrentAmount(proposalId) */\n      jump\t// in\n    tag_73:\n        /* \".workspaces/default_workspace/unMiracle/UMRproposal.sol\":4775:4820  uint256 values = getCurrentAmount(proposalId) */\n      swap1\n      pop\n        /* \".workspaces/default_workspace/unMiracle/UMRproposal.sol\":4868:4872  true */\n      0x01\n        /* \".workspaces/default_workspace/unMiracle/UMRproposal.sol\":4834:4844  _proposals */\n      0x00\n        /* \".workspaces/default_workspace/unMiracle/UMRproposal.sol\":4834:4856  _proposals[proposalId] */\n      dup1\n        /* \".workspaces/default_workspace/unMiracle/UMRproposal.sol\":4845:4855  proposalId */\n      dup7\n        /* \".workspaces/default_workspace/unMiracle/UMRproposal.sol\":4834:4856  _proposals[proposalId] */\n      dup2\n      mstore\n      0x20\n      add\n      swap1\n      dup2\n      mstore\n      0x20\n      add\n      0x00\n      keccak256\n        /* \".workspaces/default_workspace/unMiracle/UMRproposal.sol\":4834:4865  _proposals[proposalId].executed */\n      0x0c\n      add\n      0x00\n        /* \".workspaces/default_workspace/unMiracle/UMRproposal.sol\":4834:4872  _proposals[proposalId].executed = true */\n      0x0100\n      exp\n      dup2\n      sload\n      dup2\n      0xff\n      mul\n      not\n      and\n      swap1\n      dup4\n      iszero\n      iszero\n      mul\n      or\n      swap1\n      sstore\n      pop\n        /* \".workspaces/default_workspace/unMiracle/UMRproposal.sol\":4887:4939  _execute(proposalId, destination, values, calldatas) */\n      tag_74\n        /* \".workspaces/default_workspace/unMiracle/UMRproposal.sol\":4896:4906  proposalId */\n      dup5\n        /* \".workspaces/default_workspace/unMiracle/UMRproposal.sol\":4908:4919  destination */\n      dup10\n        /* \".workspaces/default_workspace/unMiracle/UMRproposal.sol\":4921:4927  values */\n      dup4\n        /* \".workspaces/default_workspace/unMiracle/UMRproposal.sol\":4929:4938  calldatas */\n      dup11\n        /* \".workspaces/default_workspace/unMiracle/UMRproposal.sol\":4887:4895  _execute */\n      tag_75\n        /* \".workspaces/default_workspace/unMiracle/UMRproposal.sol\":4887:4939  _execute(proposalId, destination, values, calldatas) */\n      jump\t// in\n    tag_74:\n        /* \".workspaces/default_workspace/unMiracle/UMRproposal.sol\":4261:4950  {... */\n      pop\n      pop\n      pop\n      pop\n        /* \".workspaces/default_workspace/unMiracle/UMRproposal.sol\":4001:4950  function execute(... */\n      swap4\n      swap3\n      pop\n      pop\n      pop\n      jump\t// out\n        /* \".workspaces/default_workspace/unMiracle/UMRproposal.sol\":2893:3051  function proposalSnapshot(uint256 proposalId) public view virtual returns (uint256) {... */\n    tag_22:\n        /* \".workspaces/default_workspace/unMiracle/UMRproposal.sol\":2968:2975  uint256 */\n      0x00\n        /* \".workspaces/default_workspace/unMiracle/UMRproposal.sol\":2994:3044  _proposals[proposalId].donationStart.getDeadline() */\n      tag_77\n        /* \".workspaces/default_workspace/unMiracle/UMRproposal.sol\":2994:3004  _proposals */\n      0x00\n        /* \".workspaces/default_workspace/unMiracle/UMRproposal.sol\":2994:3016  _proposals[proposalId] */\n      dup1\n        /* \".workspaces/default_workspace/unMiracle/UMRproposal.sol\":3005:3015  proposalId */\n      dup5\n        /* \".workspaces/default_workspace/unMiracle/UMRproposal.sol\":2994:3016  _proposals[proposalId] */\n      dup2\n      mstore\n      0x20\n      add\n      swap1\n      dup2\n      mstore\n      0x20\n      add\n      0x00\n      keccak256\n        /* \".workspaces/default_workspace/unMiracle/UMRproposal.sol\":2994:3030  _proposals[proposalId].donationStart */\n      0x00\n      add\n        /* \".workspaces/default_workspace/unMiracle/UMRproposal.sol\":2994:3042  _proposals[proposalId].donationStart.getDeadline */\n      mload(0x40)\n      dup1\n      0x60\n      add\n      0x40\n      mstore\n      swap1\n      dup2\n      0x00\n      dup3\n      add\n      sload\n      dup2\n      mstore\n      0x20\n      add\n      0x01\n      dup3\n      add\n      sload\n      dup2\n      mstore\n      0x20\n      add\n      0x02\n      dup3\n      add\n      sload\n      dup2\n      mstore\n      pop\n      pop\n      tag_78\n        /* \".workspaces/default_workspace/unMiracle/UMRproposal.sol\":2994:3044  _proposals[proposalId].donationStart.getDeadline() */\n      jump\t// in\n    tag_77:\n        /* \".workspaces/default_workspace/unMiracle/UMRproposal.sol\":2987:3044  return _proposals[proposalId].donationStart.getDeadline() */\n      swap1\n      pop\n        /* \".workspaces/default_workspace/unMiracle/UMRproposal.sol\":2893:3051  function proposalSnapshot(uint256 proposalId) public view virtual returns (uint256) {... */\n      swap2\n      swap1\n      pop\n      jump\t// out\n        /* \".workspaces/default_workspace/unMiracle/UMRproposal.sol\":476:1331  function state(uint256 proposalId) public view returns (ProposalState) {... */\n    tag_27:\n        /* \".workspaces/default_workspace/unMiracle/UMRproposal.sol\":532:545  ProposalState */\n      0x00\n        /* \".workspaces/default_workspace/unMiracle/UMRproposal.sol\":557:586  ProposalCore storage proposal */\n      dup1\n        /* \".workspaces/default_workspace/unMiracle/UMRproposal.sol\":589:599  _proposals */\n      0x00\n        /* \".workspaces/default_workspace/unMiracle/UMRproposal.sol\":589:611  _proposals[proposalId] */\n      dup1\n        /* \".workspaces/default_workspace/unMiracle/UMRproposal.sol\":600:610  proposalId */\n      dup5\n        /* \".workspaces/default_workspace/unMiracle/UMRproposal.sol\":589:611  _proposals[proposalId] */\n      dup2\n      mstore\n      0x20\n      add\n      swap1\n      dup2\n      mstore\n      0x20\n      add\n      0x00\n      keccak256\n        /* \".workspaces/default_workspace/unMiracle/UMRproposal.sol\":557:611  ProposalCore storage proposal = _proposals[proposalId] */\n      swap1\n      pop\n        /* \".workspaces/default_workspace/unMiracle/UMRproposal.sol\":690:698  proposal */\n      dup1\n        /* \".workspaces/default_workspace/unMiracle/UMRproposal.sol\":690:707  proposal.executed */\n      0x0c\n      add\n      0x00\n      swap1\n      sload\n      swap1\n      0x0100\n      exp\n      swap1\n      div\n      0xff\n      and\n        /* \".workspaces/default_workspace/unMiracle/UMRproposal.sol\":686:763  if (proposal.executed) {... */\n      iszero\n      tag_80\n      jumpi\n        /* \".workspaces/default_workspace/unMiracle/UMRproposal.sol\":730:752  ProposalState.Executed */\n      0x05\n        /* \".workspaces/default_workspace/unMiracle/UMRproposal.sol\":723:752  return ProposalState.Executed */\n      swap2\n      pop\n      pop\n      jump(tag_79)\n        /* \".workspaces/default_workspace/unMiracle/UMRproposal.sol\":686:763  if (proposal.executed) {... */\n    tag_80:\n        /* \".workspaces/default_workspace/unMiracle/UMRproposal.sol\":817:825  proposal */\n      dup1\n        /* \".workspaces/default_workspace/unMiracle/UMRproposal.sol\":817:834  proposal.canceled */\n      0x0c\n      add\n      0x01\n      swap1\n      sload\n      swap1\n      0x0100\n      exp\n      swap1\n      div\n      0xff\n      and\n        /* \".workspaces/default_workspace/unMiracle/UMRproposal.sol\":813:890  if (proposal.canceled) {... */\n      iszero\n      tag_81\n      jumpi\n        /* \".workspaces/default_workspace/unMiracle/UMRproposal.sol\":857:879  ProposalState.Canceled */\n      0x02\n        /* \".workspaces/default_workspace/unMiracle/UMRproposal.sol\":850:879  return ProposalState.Canceled */\n      swap2\n      pop\n      pop\n      jump(tag_79)\n        /* \".workspaces/default_workspace/unMiracle/UMRproposal.sol\":813:890  if (proposal.canceled) {... */\n    tag_81:\n        /* \".workspaces/default_workspace/unMiracle/UMRproposal.sol\":900:916  uint256 snapshot */\n      0x00\n        /* \".workspaces/default_workspace/unMiracle/UMRproposal.sol\":919:947  proposalSnapshot(proposalId) */\n      tag_82\n        /* \".workspaces/default_workspace/unMiracle/UMRproposal.sol\":936:946  proposalId */\n      dup5\n        /* \".workspaces/default_workspace/unMiracle/UMRproposal.sol\":919:935  proposalSnapshot */\n      tag_22\n        /* \".workspaces/default_workspace/unMiracle/UMRproposal.sol\":919:947  proposalSnapshot(proposalId) */\n      jump\t// in\n    tag_82:\n        /* \".workspaces/default_workspace/unMiracle/UMRproposal.sol\":900:947  uint256 snapshot = proposalSnapshot(proposalId) */\n      swap1\n      pop\n        /* \".workspaces/default_workspace/unMiracle/UMRproposal.sol\":1013:1028  block.timestamp */\n      timestamp\n        /* \".workspaces/default_workspace/unMiracle/UMRproposal.sol\":1001:1009  snapshot */\n      dup2\n        /* \".workspaces/default_workspace/unMiracle/UMRproposal.sol\":1001:1028  snapshot >= block.timestamp */\n      lt\n        /* \".workspaces/default_workspace/unMiracle/UMRproposal.sol\":997:1083  if (snapshot >= block.timestamp) {... */\n      tag_83\n      jumpi\n        /* \".workspaces/default_workspace/unMiracle/UMRproposal.sol\":1051:1072  ProposalState.Pending */\n      0x00\n        /* \".workspaces/default_workspace/unMiracle/UMRproposal.sol\":1044:1072  return ProposalState.Pending */\n      swap3\n      pop\n      pop\n      pop\n      jump(tag_79)\n        /* \".workspaces/default_workspace/unMiracle/UMRproposal.sol\":997:1083  if (snapshot >= block.timestamp) {... */\n    tag_83:\n        /* \".workspaces/default_workspace/unMiracle/UMRproposal.sol\":1093:1109  uint256 deadline */\n      0x00\n        /* \".workspaces/default_workspace/unMiracle/UMRproposal.sol\":1112:1140  proposalDeadline(proposalId) */\n      tag_84\n        /* \".workspaces/default_workspace/unMiracle/UMRproposal.sol\":1129:1139  proposalId */\n      dup6\n        /* \".workspaces/default_workspace/unMiracle/UMRproposal.sol\":1112:1128  proposalDeadline */\n      tag_44\n        /* \".workspaces/default_workspace/unMiracle/UMRproposal.sol\":1112:1140  proposalDeadline(proposalId) */\n      jump\t// in\n    tag_84:\n        /* \".workspaces/default_workspace/unMiracle/UMRproposal.sol\":1093:1140  uint256 deadline = proposalDeadline(proposalId) */\n      swap1\n      pop\n        /* \".workspaces/default_workspace/unMiracle/UMRproposal.sol\":1196:1211  block.timestamp */\n      timestamp\n        /* \".workspaces/default_workspace/unMiracle/UMRproposal.sol\":1184:1192  deadline */\n      dup2\n        /* \".workspaces/default_workspace/unMiracle/UMRproposal.sol\":1184:1211  deadline >= block.timestamp */\n      lt\n        /* \".workspaces/default_workspace/unMiracle/UMRproposal.sol\":1180:1265  if (deadline >= block.timestamp) {... */\n      tag_85\n      jumpi\n        /* \".workspaces/default_workspace/unMiracle/UMRproposal.sol\":1234:1254  ProposalState.Active */\n      0x01\n        /* \".workspaces/default_workspace/unMiracle/UMRproposal.sol\":1227:1254  return ProposalState.Active */\n      swap4\n      pop\n      pop\n      pop\n      pop\n      jump(tag_79)\n        /* \".workspaces/default_workspace/unMiracle/UMRproposal.sol\":1180:1265  if (deadline >= block.timestamp) {... */\n    tag_85:\n        /* \".workspaces/default_workspace/unMiracle/UMRproposal.sol\":1301:1324  ProposalState.Succeeded */\n      0x03\n        /* \".workspaces/default_workspace/unMiracle/UMRproposal.sol\":1294:1324  return ProposalState.Succeeded */\n      swap4\n      pop\n      pop\n      pop\n      pop\n        /* \".workspaces/default_workspace/unMiracle/UMRproposal.sol\":476:1331  function state(uint256 proposalId) public view returns (ProposalState) {... */\n    tag_79:\n      swap2\n      swap1\n      pop\n      jump\t// out\n        /* \".workspaces/default_workspace/unMiracle/UMRproposal.sol\":3839:3995  function getCurrentAmount(uint256 proposalId) public view virtual returns (uint256) {... */\n    tag_33:\n        /* \".workspaces/default_workspace/unMiracle/UMRproposal.sol\":3914:3921  uint256 */\n      0x00\n        /* \".workspaces/default_workspace/unMiracle/UMRproposal.sol\":3940:3988  _proposals[proposalId].donate.getCurrentAmount() */\n      tag_87\n        /* \".workspaces/default_workspace/unMiracle/UMRproposal.sol\":3940:3950  _proposals */\n      0x00\n        /* \".workspaces/default_workspace/unMiracle/UMRproposal.sol\":3940:3962  _proposals[proposalId] */\n      dup1\n        /* \".workspaces/default_workspace/unMiracle/UMRproposal.sol\":3951:3961  proposalId */\n      dup5\n        /* \".workspaces/default_workspace/unMiracle/UMRproposal.sol\":3940:3962  _proposals[proposalId] */\n      dup2\n      mstore\n      0x20\n      add\n      swap1\n      dup2\n      mstore\n      0x20\n      add\n      0x00\n      keccak256\n        /* \".workspaces/default_workspace/unMiracle/UMRproposal.sol\":3940:3969  _proposals[proposalId].donate */\n      0x09\n      add\n        /* \".workspaces/default_workspace/unMiracle/UMRproposal.sol\":3940:3986  _proposals[proposalId].donate.getCurrentAmount */\n      mload(0x40)\n      dup1\n      0x60\n      add\n      0x40\n      mstore\n      swap1\n      dup2\n      0x00\n      dup3\n      add\n      sload\n      dup2\n      mstore\n      0x20\n      add\n      0x01\n      dup3\n      add\n      sload\n      dup2\n      mstore\n      0x20\n      add\n      0x02\n      dup3\n      add\n      sload\n      dup2\n      mstore\n      pop\n      pop\n      tag_88\n        /* \".workspaces/default_workspace/unMiracle/UMRproposal.sol\":3940:3988  _proposals[proposalId].donate.getCurrentAmount() */\n      jump\t// in\n    tag_87:\n        /* \".workspaces/default_workspace/unMiracle/UMRproposal.sol\":3933:3988  return _proposals[proposalId].donate.getCurrentAmount() */\n      swap1\n      pop\n        /* \".workspaces/default_workspace/unMiracle/UMRproposal.sol\":3839:3995  function getCurrentAmount(uint256 proposalId) public view virtual returns (uint256) {... */\n      swap2\n      swap1\n      pop\n      jump\t// out\n        /* \".workspaces/default_workspace/unMiracle/UMRproposal.sol\":1338:1675  function hashProposal(... */\n    tag_39:\n        /* \".workspaces/default_workspace/unMiracle/UMRproposal.sol\":1571:1578  uint256 */\n      0x00\n        /* \".workspaces/default_workspace/unMiracle/UMRproposal.sol\":1626:1637  destination */\n      dup4\n        /* \".workspaces/default_workspace/unMiracle/UMRproposal.sol\":1639:1648  calldatas */\n      dup4\n        /* \".workspaces/default_workspace/unMiracle/UMRproposal.sol\":1650:1665  descriptionHash */\n      dup4\n        /* \".workspaces/default_workspace/unMiracle/UMRproposal.sol\":1615:1666  abi.encode(destination, calldatas, descriptionHash) */\n      add(0x20, mload(0x40))\n      tag_90\n      swap4\n      swap3\n      swap2\n      swap1\n      tag_91\n      jump\t// in\n    tag_90:\n      mload(0x40)\n      0x20\n      dup2\n      dup4\n      sub\n      sub\n      dup2\n      mstore\n      swap1\n      0x40\n      mstore\n        /* \".workspaces/default_workspace/unMiracle/UMRproposal.sol\":1605:1667  keccak256(abi.encode(destination, calldatas, descriptionHash)) */\n      dup1\n      mload\n      swap1\n      0x20\n      add\n      keccak256\n        /* \".workspaces/default_workspace/unMiracle/UMRproposal.sol\":1597:1668  uint256(keccak256(abi.encode(destination, calldatas, descriptionHash))) */\n      0x00\n      shr\n        /* \".workspaces/default_workspace/unMiracle/UMRproposal.sol\":1590:1668  return uint256(keccak256(abi.encode(destination, calldatas, descriptionHash))) */\n      swap1\n      pop\n        /* \".workspaces/default_workspace/unMiracle/UMRproposal.sol\":1338:1675  function hashProposal(... */\n      swap4\n      swap3\n      pop\n      pop\n      pop\n      jump\t// out\n        /* \".workspaces/default_workspace/unMiracle/UMRproposal.sol\":3088:3244  function proposalDeadline(uint256 proposalId) public view virtual returns (uint256) {... */\n    tag_44:\n        /* \".workspaces/default_workspace/unMiracle/UMRproposal.sol\":3163:3170  uint256 */\n      0x00\n        /* \".workspaces/default_workspace/unMiracle/UMRproposal.sol\":3189:3237  _proposals[proposalId].donationEnd.getDeadline() */\n      tag_93\n        /* \".workspaces/default_workspace/unMiracle/UMRproposal.sol\":3189:3199  _proposals */\n      0x00\n        /* \".workspaces/default_workspace/unMiracle/UMRproposal.sol\":3189:3211  _proposals[proposalId] */\n      dup1\n        /* \".workspaces/default_workspace/unMiracle/UMRproposal.sol\":3200:3210  proposalId */\n      dup5\n        /* \".workspaces/default_workspace/unMiracle/UMRproposal.sol\":3189:3211  _proposals[proposalId] */\n      dup2\n      mstore\n      0x20\n      add\n      swap1\n      dup2\n      mstore\n      0x20\n      add\n      0x00\n      keccak256\n        /* \".workspaces/default_workspace/unMiracle/UMRproposal.sol\":3189:3223  _proposals[proposalId].donationEnd */\n      0x03\n      add\n        /* \".workspaces/default_workspace/unMiracle/UMRproposal.sol\":3189:3235  _proposals[proposalId].donationEnd.getDeadline */\n      mload(0x40)\n      dup1\n      0x60\n      add\n      0x40\n      mstore\n      swap1\n      dup2\n      0x00\n      dup3\n      add\n      sload\n      dup2\n      mstore\n      0x20\n      add\n      0x01\n      dup3\n      add\n      sload\n      dup2\n      mstore\n      0x20\n      add\n      0x02\n      dup3\n      add\n      sload\n      dup2\n      mstore\n      pop\n      pop\n      tag_78\n        /* \".workspaces/default_workspace/unMiracle/UMRproposal.sol\":3189:3237  _proposals[proposalId].donationEnd.getDeadline() */\n      jump\t// in\n    tag_93:\n        /* \".workspaces/default_workspace/unMiracle/UMRproposal.sol\":3182:3237  return _proposals[proposalId].donationEnd.getDeadline() */\n      swap1\n      pop\n        /* \".workspaces/default_workspace/unMiracle/UMRproposal.sol\":3088:3244  function proposalDeadline(uint256 proposalId) public view virtual returns (uint256) {... */\n      swap2\n      swap1\n      pop\n      jump\t// out\n        /* \".workspaces/default_workspace/unMiracle/UMRproposal.sol\":1681:2855  function proposal(... */\n    tag_50:\n        /* \".workspaces/default_workspace/unMiracle/UMRproposal.sol\":2090:2097  uint256 */\n      0x00\n        /* \".workspaces/default_workspace/unMiracle/UMRproposal.sol\":2214:2232  uint256 proposalId */\n      dup1\n        /* \".workspaces/default_workspace/unMiracle/UMRproposal.sol\":2235:2302  hashProposal(destination, calldatas, keccak256(bytes(description))) */\n      tag_95\n        /* \".workspaces/default_workspace/unMiracle/UMRproposal.sol\":2248:2259  destination */\n      dup6\n        /* \".workspaces/default_workspace/unMiracle/UMRproposal.sol\":2261:2270  calldatas */\n      dup6\n        /* \".workspaces/default_workspace/unMiracle/UMRproposal.sol\":2288:2299  description */\n      dup6\n        /* \".workspaces/default_workspace/unMiracle/UMRproposal.sol\":2272:2301  keccak256(bytes(description)) */\n      dup1\n      mload\n      swap1\n      0x20\n      add\n      keccak256\n        /* \".workspaces/default_workspace/unMiracle/UMRproposal.sol\":2235:2247  hashProposal */\n      tag_39\n        /* \".workspaces/default_workspace/unMiracle/UMRproposal.sol\":2235:2302  hashProposal(destination, calldatas, keccak256(bytes(description))) */\n      jump\t// in\n    tag_95:\n        /* \".workspaces/default_workspace/unMiracle/UMRproposal.sol\":2214:2302  uint256 proposalId = hashProposal(destination, calldatas, keccak256(bytes(description))) */\n      swap1\n      pop\n        /* \".workspaces/default_workspace/unMiracle/UMRproposal.sol\":2380:2409  ProposalCore storage proposal */\n      0x00\n        /* \".workspaces/default_workspace/unMiracle/UMRproposal.sol\":2412:2422  _proposals */\n      dup1\n        /* \".workspaces/default_workspace/unMiracle/UMRproposal.sol\":2412:2434  _proposals[proposalId] */\n      0x00\n        /* \".workspaces/default_workspace/unMiracle/UMRproposal.sol\":2423:2433  proposalId */\n      dup4\n        /* \".workspaces/default_workspace/unMiracle/UMRproposal.sol\":2412:2434  _proposals[proposalId] */\n      dup2\n      mstore\n      0x20\n      add\n      swap1\n      dup2\n      mstore\n      0x20\n      add\n      0x00\n      keccak256\n        /* \".workspaces/default_workspace/unMiracle/UMRproposal.sol\":2380:2434  ProposalCore storage proposal = _proposals[proposalId] */\n      swap1\n      pop\n        /* \".workspaces/default_workspace/unMiracle/UMRproposal.sol\":2477:2493  uint256 snapshot */\n      0x00\n        /* \".workspaces/default_workspace/unMiracle/UMRproposal.sol\":2533:2535  60 */\n      0x3c\n        /* \".workspaces/default_workspace/unMiracle/UMRproposal.sol\":2530:2532  60 */\n      dup1\n        /* \".workspaces/default_workspace/unMiracle/UMRproposal.sol\":2527:2529  24 */\n      0x18\n        /* \".workspaces/default_workspace/unMiracle/UMRproposal.sol\":2515:2526  donateDelay */\n      dup13\n        /* \".workspaces/default_workspace/unMiracle/UMRproposal.sol\":2515:2529  donateDelay*24 */\n      tag_96\n      swap2\n      swap1\n      tag_97\n      jump\t// in\n    tag_96:\n        /* \".workspaces/default_workspace/unMiracle/UMRproposal.sol\":2515:2532  donateDelay*24*60 */\n      tag_98\n      swap2\n      swap1\n      tag_97\n      jump\t// in\n    tag_98:\n        /* \".workspaces/default_workspace/unMiracle/UMRproposal.sol\":2515:2535  donateDelay*24*60*60 */\n      tag_99\n      swap2\n      swap1\n      tag_97\n      jump\t// in\n    tag_99:\n        /* \".workspaces/default_workspace/unMiracle/UMRproposal.sol\":2497:2512  block.timestamp */\n      timestamp\n        /* \".workspaces/default_workspace/unMiracle/UMRproposal.sol\":2497:2535  block.timestamp + donateDelay*24*60*60 */\n      tag_100\n      swap2\n      swap1\n      tag_101\n      jump\t// in\n    tag_100:\n        /* \".workspaces/default_workspace/unMiracle/UMRproposal.sol\":2477:2535  uint256 snapshot =  block.timestamp + donateDelay*24*60*60 */\n      swap1\n      pop\n        /* \".workspaces/default_workspace/unMiracle/UMRproposal.sol\":2577:2593  uint256 deadline */\n      0x00\n        /* \".workspaces/default_workspace/unMiracle/UMRproposal.sol\":2626:2628  60 */\n      0x3c\n        /* \".workspaces/default_workspace/unMiracle/UMRproposal.sol\":2623:2625  60 */\n      dup1\n        /* \".workspaces/default_workspace/unMiracle/UMRproposal.sol\":2620:2622  24 */\n      0x18\n        /* \".workspaces/default_workspace/unMiracle/UMRproposal.sol\":2607:2619  donatePeriod */\n      dup13\n        /* \".workspaces/default_workspace/unMiracle/UMRproposal.sol\":2607:2622  donatePeriod*24 */\n      tag_102\n      swap2\n      swap1\n      tag_97\n      jump\t// in\n    tag_102:\n        /* \".workspaces/default_workspace/unMiracle/UMRproposal.sol\":2607:2625  donatePeriod*24*60 */\n      tag_103\n      swap2\n      swap1\n      tag_97\n      jump\t// in\n    tag_103:\n        /* \".workspaces/default_workspace/unMiracle/UMRproposal.sol\":2607:2628  donatePeriod*24*60*60 */\n      tag_104\n      swap2\n      swap1\n      tag_97\n      jump\t// in\n    tag_104:\n        /* \".workspaces/default_workspace/unMiracle/UMRproposal.sol\":2596:2604  snapshot */\n      dup3\n        /* \".workspaces/default_workspace/unMiracle/UMRproposal.sol\":2596:2628  snapshot + donatePeriod*24*60*60 */\n      tag_105\n      swap2\n      swap1\n      tag_101\n      jump\t// in\n    tag_105:\n        /* \".workspaces/default_workspace/unMiracle/UMRproposal.sol\":2577:2628  uint256 deadline = snapshot + donatePeriod*24*60*60 */\n      swap1\n      pop\n        /* \".workspaces/default_workspace/unMiracle/UMRproposal.sol\":2667:2711  proposal.donationStart.setDeadline(snapshot) */\n      tag_106\n        /* \".workspaces/default_workspace/unMiracle/UMRproposal.sol\":2702:2710  snapshot */\n      dup3\n        /* \".workspaces/default_workspace/unMiracle/UMRproposal.sol\":2667:2675  proposal */\n      dup5\n        /* \".workspaces/default_workspace/unMiracle/UMRproposal.sol\":2667:2689  proposal.donationStart */\n      0x00\n      add\n        /* \".workspaces/default_workspace/unMiracle/UMRproposal.sol\":2667:2701  proposal.donationStart.setDeadline */\n      tag_107\n      swap1\n        /* \".workspaces/default_workspace/unMiracle/UMRproposal.sol\":2667:2711  proposal.donationStart.setDeadline(snapshot) */\n      swap2\n      swap1\n      0xffffffff\n      and\n      jump\t// in\n    tag_106:\n        /* \".workspaces/default_workspace/unMiracle/UMRproposal.sol\":2721:2763  proposal.donationEnd.setDeadline(deadline) */\n      tag_108\n        /* \".workspaces/default_workspace/unMiracle/UMRproposal.sol\":2754:2762  deadline */\n      dup2\n        /* \".workspaces/default_workspace/unMiracle/UMRproposal.sol\":2721:2729  proposal */\n      dup5\n        /* \".workspaces/default_workspace/unMiracle/UMRproposal.sol\":2721:2741  proposal.donationEnd */\n      0x03\n      add\n        /* \".workspaces/default_workspace/unMiracle/UMRproposal.sol\":2721:2753  proposal.donationEnd.setDeadline */\n      tag_107\n      swap1\n        /* \".workspaces/default_workspace/unMiracle/UMRproposal.sol\":2721:2763  proposal.donationEnd.setDeadline(deadline) */\n      swap2\n      swap1\n      0xffffffff\n      and\n      jump\t// in\n    tag_108:\n        /* \".workspaces/default_workspace/unMiracle/UMRproposal.sol\":2773:2820  proposal.donateMinimum.setAmount(donateMinimum) */\n      tag_109\n        /* \".workspaces/default_workspace/unMiracle/UMRproposal.sol\":2806:2819  donateMinimum */\n      dup10\n        /* \".workspaces/default_workspace/unMiracle/UMRproposal.sol\":2773:2781  proposal */\n      dup5\n        /* \".workspaces/default_workspace/unMiracle/UMRproposal.sol\":2773:2795  proposal.donateMinimum */\n      0x06\n      add\n        /* \".workspaces/default_workspace/unMiracle/UMRproposal.sol\":2773:2805  proposal.donateMinimum.setAmount */\n      tag_110\n      swap1\n        /* \".workspaces/default_workspace/unMiracle/UMRproposal.sol\":2773:2820  proposal.donateMinimum.setAmount(donateMinimum) */\n      swap2\n      swap1\n      0xffffffff\n      and\n      jump\t// in\n    tag_109:\n        /* \".workspaces/default_workspace/unMiracle/UMRproposal.sol\":2838:2848  proposalId */\n      dup4\n        /* \".workspaces/default_workspace/unMiracle/UMRproposal.sol\":2831:2848  return proposalId */\n      swap5\n      pop\n      pop\n      pop\n      pop\n      pop\n        /* \".workspaces/default_workspace/unMiracle/UMRproposal.sol\":1681:2855  function proposal(... */\n      swap7\n      swap6\n      pop\n      pop\n      pop\n      pop\n      pop\n      pop\n      jump\t// out\n        /* \".workspaces/default_workspace/unMiracle/UMRproposal.sol\":3645:3792  function setCurrentAmount(uint256 proposalId,uint256 amount) public virtual {... */\n    tag_56:\n        /* \".workspaces/default_workspace/unMiracle/UMRproposal.sol\":3731:3785  _proposals[proposalId].donate.setCurrentAmount(amount) */\n      tag_112\n        /* \".workspaces/default_workspace/unMiracle/UMRproposal.sol\":3778:3784  amount */\n      dup2\n        /* \".workspaces/default_workspace/unMiracle/UMRproposal.sol\":3731:3741  _proposals */\n      0x00\n        /* \".workspaces/default_workspace/unMiracle/UMRproposal.sol\":3731:3753  _proposals[proposalId] */\n      dup1\n        /* \".workspaces/default_workspace/unMiracle/UMRproposal.sol\":3742:3752  proposalId */\n      dup6\n        /* \".workspaces/default_workspace/unMiracle/UMRproposal.sol\":3731:3753  _proposals[proposalId] */\n      dup2\n      mstore\n      0x20\n      add\n      swap1\n      dup2\n      mstore\n      0x20\n      add\n      0x00\n      keccak256\n        /* \".workspaces/default_workspace/unMiracle/UMRproposal.sol\":3731:3760  _proposals[proposalId].donate */\n      0x09\n      add\n        /* \".workspaces/default_workspace/unMiracle/UMRproposal.sol\":3731:3777  _proposals[proposalId].donate.setCurrentAmount */\n      tag_113\n      swap1\n        /* \".workspaces/default_workspace/unMiracle/UMRproposal.sol\":3731:3785  _proposals[proposalId].donate.setCurrentAmount(amount) */\n      swap2\n      swap1\n      0xffffffff\n      and\n      jump\t// in\n    tag_112:\n        /* \".workspaces/default_workspace/unMiracle/UMRproposal.sol\":3645:3792  function setCurrentAmount(uint256 proposalId,uint256 amount) public virtual {... */\n      pop\n      pop\n      jump\t// out\n        /* \".workspaces/default_workspace/unMiracle/UMRproposal.sol\":3295:3456  function proposalDonateMinimum(uint256 proposalId) public view virtual returns (uint256) {... */\n    tag_60:\n        /* \".workspaces/default_workspace/unMiracle/UMRproposal.sol\":3375:3382  uint256 */\n      0x00\n        /* \".workspaces/default_workspace/unMiracle/UMRproposal.sol\":3401:3449  _proposals[proposalId].donateMinimum.getAmount() */\n      tag_115\n        /* \".workspaces/default_workspace/unMiracle/UMRproposal.sol\":3401:3411  _proposals */\n      0x00\n        /* \".workspaces/default_workspace/unMiracle/UMRproposal.sol\":3401:3423  _proposals[proposalId] */\n      dup1\n        /* \".workspaces/default_workspace/unMiracle/UMRproposal.sol\":3412:3422  proposalId */\n      dup5\n        /* \".workspaces/default_workspace/unMiracle/UMRproposal.sol\":3401:3423  _proposals[proposalId] */\n      dup2\n      mstore\n      0x20\n      add\n      swap1\n      dup2\n      mstore\n      0x20\n      add\n      0x00\n      keccak256\n        /* \".workspaces/default_workspace/unMiracle/UMRproposal.sol\":3401:3437  _proposals[proposalId].donateMinimum */\n      0x06\n      add\n        /* \".workspaces/default_workspace/unMiracle/UMRproposal.sol\":3401:3447  _proposals[proposalId].donateMinimum.getAmount */\n      mload(0x40)\n      dup1\n      0x60\n      add\n      0x40\n      mstore\n      swap1\n      dup2\n      0x00\n      dup3\n      add\n      sload\n      dup2\n      mstore\n      0x20\n      add\n      0x01\n      dup3\n      add\n      sload\n      dup2\n      mstore\n      0x20\n      add\n      0x02\n      dup3\n      add\n      sload\n      dup2\n      mstore\n      pop\n      pop\n      tag_116\n        /* \".workspaces/default_workspace/unMiracle/UMRproposal.sol\":3401:3449  _proposals[proposalId].donateMinimum.getAmount() */\n      jump\t// in\n    tag_115:\n        /* \".workspaces/default_workspace/unMiracle/UMRproposal.sol\":3394:3449  return _proposals[proposalId].donateMinimum.getAmount() */\n      swap1\n      pop\n        /* \".workspaces/default_workspace/unMiracle/UMRproposal.sol\":3295:3456  function proposalDonateMinimum(uint256 proposalId) public view virtual returns (uint256) {... */\n      swap2\n      swap1\n      pop\n      jump\t// out\n        /* \".workspaces/default_workspace/unMiracle/UMRproposal.sol\":4956:5570  function _execute(... */\n    tag_75:\n        /* \".workspaces/default_workspace/unMiracle/UMRproposal.sol\":5240:5266  string memory errorMessage */\n      0x00\n        /* \".workspaces/default_workspace/unMiracle/UMRproposal.sol\":5240:5310  string memory errorMessage = \"Governor: call reverted without message\" */\n      mload(0x40)\n      dup1\n      0x60\n      add\n      0x40\n      mstore\n      dup1\n      0x27\n      dup2\n      mstore\n      0x20\n      add\n      data_60bfcc3776c91812db2df5ee8e14efc111acb8df47a38be82f94cf8f4bc73336\n      0x27\n      swap2\n      codecopy\n      swap1\n      pop\n        /* \".workspaces/default_workspace/unMiracle/UMRproposal.sol\":5325:5334  uint256 i */\n      0x00\n        /* \".workspaces/default_workspace/unMiracle/UMRproposal.sol\":5320:5564  for (uint256 i = 0; i < destination.length; ++i) {... */\n    tag_118:\n        /* \".workspaces/default_workspace/unMiracle/UMRproposal.sol\":5344:5355  destination */\n      dup5\n        /* \".workspaces/default_workspace/unMiracle/UMRproposal.sol\":5344:5362  destination.length */\n      mload\n        /* \".workspaces/default_workspace/unMiracle/UMRproposal.sol\":5340:5341  i */\n      dup2\n        /* \".workspaces/default_workspace/unMiracle/UMRproposal.sol\":5340:5362  i < destination.length */\n      lt\n        /* \".workspaces/default_workspace/unMiracle/UMRproposal.sol\":5320:5564  for (uint256 i = 0; i < destination.length; ++i) {... */\n      iszero\n      tag_119\n      jumpi\n        /* \".workspaces/default_workspace/unMiracle/UMRproposal.sol\":5384:5396  bool success */\n      0x00\n        /* \".workspaces/default_workspace/unMiracle/UMRproposal.sol\":5398:5421  bytes memory returndata */\n      dup1\n        /* \".workspaces/default_workspace/unMiracle/UMRproposal.sol\":5425:5436  destination */\n      dup7\n        /* \".workspaces/default_workspace/unMiracle/UMRproposal.sol\":5437:5438  i */\n      dup4\n        /* \".workspaces/default_workspace/unMiracle/UMRproposal.sol\":5425:5439  destination[i] */\n      dup2\n      mload\n      dup2\n      lt\n      tag_121\n      jumpi\n      tag_122\n      tag_123\n      jump\t// in\n    tag_122:\n    tag_121:\n      0x20\n      mul\n      0x20\n      add\n      add\n      mload\n        /* \".workspaces/default_workspace/unMiracle/UMRproposal.sol\":5425:5444  destination[i].call */\n      0xffffffffffffffffffffffffffffffffffffffff\n      and\n        /* \".workspaces/default_workspace/unMiracle/UMRproposal.sol\":5461:5462  i */\n      dup4\n        /* \".workspaces/default_workspace/unMiracle/UMRproposal.sol\":5452:5458  values */\n      dup8\n        /* \".workspaces/default_workspace/unMiracle/UMRproposal.sol\":5452:5462  values / i */\n      tag_124\n      swap2\n      swap1\n      tag_125\n      jump\t// in\n    tag_124:\n        /* \".workspaces/default_workspace/unMiracle/UMRproposal.sol\":5464:5473  calldatas */\n      dup7\n        /* \".workspaces/default_workspace/unMiracle/UMRproposal.sol\":5474:5475  i */\n      dup6\n        /* \".workspaces/default_workspace/unMiracle/UMRproposal.sol\":5464:5476  calldatas[i] */\n      dup2\n      mload\n      dup2\n      lt\n      tag_126\n      jumpi\n      tag_127\n      tag_123\n      jump\t// in\n    tag_127:\n    tag_126:\n      0x20\n      mul\n      0x20\n      add\n      add\n      mload\n        /* \".workspaces/default_workspace/unMiracle/UMRproposal.sol\":5425:5477  destination[i].call{value: values / i}(calldatas[i]) */\n      mload(0x40)\n      tag_128\n      swap2\n      swap1\n      tag_129\n      jump\t// in\n    tag_128:\n      0x00\n      mload(0x40)\n      dup1\n      dup4\n      sub\n      dup2\n      dup6\n      dup8\n      gas\n      call\n      swap3\n      pop\n      pop\n      pop\n      returndatasize\n      dup1\n      0x00\n      dup2\n      eq\n      tag_132\n      jumpi\n      mload(0x40)\n      swap2\n      pop\n      and(add(returndatasize, 0x3f), not(0x1f))\n      dup3\n      add\n      0x40\n      mstore\n      returndatasize\n      dup3\n      mstore\n      returndatasize\n      0x00\n      0x20\n      dup5\n      add\n      returndatacopy\n      jump(tag_131)\n    tag_132:\n      0x60\n      swap2\n      pop\n    tag_131:\n      pop\n        /* \".workspaces/default_workspace/unMiracle/UMRproposal.sol\":5383:5477  (bool success, bytes memory returndata) = destination[i].call{value: values / i}(calldatas[i]) */\n      swap2\n      pop\n      swap2\n      pop\n        /* \".workspaces/default_workspace/unMiracle/UMRproposal.sol\":5369:5564  {... */\n      pop\n      pop\n        /* \".workspaces/default_workspace/unMiracle/UMRproposal.sol\":5364:5367  ++i */\n      dup1\n      tag_133\n      swap1\n      tag_134\n      jump\t// in\n    tag_133:\n      swap1\n      pop\n        /* \".workspaces/default_workspace/unMiracle/UMRproposal.sol\":5320:5564  for (uint256 i = 0; i < destination.length; ++i) {... */\n      jump(tag_118)\n    tag_119:\n      pop\n        /* \".workspaces/default_workspace/unMiracle/UMRproposal.sol\":5230:5570  {... */\n      pop\n        /* \".workspaces/default_workspace/unMiracle/UMRproposal.sol\":4956:5570  function _execute(... */\n      pop\n      pop\n      pop\n      pop\n      jump\t// out\n        /* \".workspaces/default_workspace/unMiracle/utils/setting.sol\":385:495  function getDeadline(SetInfo memory info) internal pure returns(uint256) {... */\n    tag_78:\n        /* \".workspaces/default_workspace/unMiracle/utils/setting.sol\":449:456  uint256 */\n      0x00\n        /* \".workspaces/default_workspace/unMiracle/utils/setting.sol\":475:479  info */\n      dup2\n        /* \".workspaces/default_workspace/unMiracle/utils/setting.sol\":475:488  info.deadline */\n      0x00\n      add\n      mload\n        /* \".workspaces/default_workspace/unMiracle/utils/setting.sol\":468:488  return info.deadline */\n      swap1\n      pop\n        /* \".workspaces/default_workspace/unMiracle/utils/setting.sol\":385:495  function getDeadline(SetInfo memory info) internal pure returns(uint256) {... */\n      swap2\n      swap1\n      pop\n      jump\t// out\n        /* \".workspaces/default_workspace/unMiracle/utils/setting.sol\":852:965  function getCurrentAmount(SetInfo memory info) internal pure returns(uint256) {... */\n    tag_88:\n        /* \".workspaces/default_workspace/unMiracle/utils/setting.sol\":921:928  uint256 */\n      0x00\n        /* \".workspaces/default_workspace/unMiracle/utils/setting.sol\":947:951  info */\n      dup2\n        /* \".workspaces/default_workspace/unMiracle/utils/setting.sol\":947:958  info.amount */\n      0x20\n      add\n      mload\n        /* \".workspaces/default_workspace/unMiracle/utils/setting.sol\":940:958  return info.amount */\n      swap1\n      pop\n        /* \".workspaces/default_workspace/unMiracle/utils/setting.sol\":852:965  function getCurrentAmount(SetInfo memory info) internal pure returns(uint256) {... */\n      swap2\n      swap1\n      pop\n      jump\t// out\n        /* \".workspaces/default_workspace/unMiracle/utils/setting.sol\":259:379  function setDeadline(SetInfo storage info, uint256 timestamp) internal {... */\n    tag_107:\n        /* \".workspaces/default_workspace/unMiracle/utils/setting.sol\":368:372  1000 */\n      0x03e8\n        /* \".workspaces/default_workspace/unMiracle/utils/setting.sol\":356:365  timestamp */\n      dup2\n        /* \".workspaces/default_workspace/unMiracle/utils/setting.sol\":356:372  timestamp * 1000 */\n      tag_138\n      swap2\n      swap1\n      tag_97\n      jump\t// in\n    tag_138:\n        /* \".workspaces/default_workspace/unMiracle/utils/setting.sol\":340:344  info */\n      dup3\n        /* \".workspaces/default_workspace/unMiracle/utils/setting.sol\":340:353  info.deadline */\n      0x00\n      add\n        /* \".workspaces/default_workspace/unMiracle/utils/setting.sol\":340:372  info.deadline = timestamp * 1000 */\n      dup2\n      swap1\n      sstore\n      pop\n        /* \".workspaces/default_workspace/unMiracle/utils/setting.sol\":259:379  function setDeadline(SetInfo storage info, uint256 timestamp) internal {... */\n      pop\n      pop\n      jump\t// out\n        /* \".workspaces/default_workspace/unMiracle/utils/setting.sol\":501:604  function setAmount(SetInfo storage info, uint256 amount) internal {... */\n    tag_110:\n        /* \".workspaces/default_workspace/unMiracle/utils/setting.sol\":591:597  amount */\n      dup1\n        /* \".workspaces/default_workspace/unMiracle/utils/setting.sol\":577:581  info */\n      dup3\n        /* \".workspaces/default_workspace/unMiracle/utils/setting.sol\":577:588  info.amount */\n      0x01\n      add\n        /* \".workspaces/default_workspace/unMiracle/utils/setting.sol\":577:597  info.amount = amount */\n      dup2\n      swap1\n      sstore\n      pop\n        /* \".workspaces/default_workspace/unMiracle/utils/setting.sol\":501:604  function setAmount(SetInfo storage info, uint256 amount) internal {... */\n      pop\n      pop\n      jump\t// out\n        /* \".workspaces/default_workspace/unMiracle/utils/setting.sol\":722:846  function setCurrentAmount(SetInfo storage info, uint256 amount) internal {... */\n    tag_113:\n        /* \".workspaces/default_workspace/unMiracle/utils/setting.sol\":833:839  amount */\n      dup1\n        /* \".workspaces/default_workspace/unMiracle/utils/setting.sol\":819:823  info */\n      dup3\n        /* \".workspaces/default_workspace/unMiracle/utils/setting.sol\":819:830  info.amount */\n      0x01\n      add\n      sload\n        /* \".workspaces/default_workspace/unMiracle/utils/setting.sol\":819:839  info.amount + amount */\n      tag_141\n      swap2\n      swap1\n      tag_101\n      jump\t// in\n    tag_141:\n        /* \".workspaces/default_workspace/unMiracle/utils/setting.sol\":805:809  info */\n      dup3\n        /* \".workspaces/default_workspace/unMiracle/utils/setting.sol\":805:816  info.amount */\n      0x01\n      add\n        /* \".workspaces/default_workspace/unMiracle/utils/setting.sol\":805:839  info.amount = info.amount + amount */\n      dup2\n      swap1\n      sstore\n      pop\n        /* \".workspaces/default_workspace/unMiracle/utils/setting.sol\":722:846  function setCurrentAmount(SetInfo storage info, uint256 amount) internal {... */\n      pop\n      pop\n      jump\t// out\n        /* \".workspaces/default_workspace/unMiracle/utils/setting.sol\":610:716  function getAmount(SetInfo memory info) internal pure returns(uint256) {... */\n    tag_116:\n        /* \".workspaces/default_workspace/unMiracle/utils/setting.sol\":672:679  uint256 */\n      0x00\n        /* \".workspaces/default_workspace/unMiracle/utils/setting.sol\":698:702  info */\n      dup2\n        /* \".workspaces/default_workspace/unMiracle/utils/setting.sol\":698:709  info.amount */\n      0x20\n      add\n      mload\n        /* \".workspaces/default_workspace/unMiracle/utils/setting.sol\":691:709  return info.amount */\n      swap1\n      pop\n        /* \".workspaces/default_workspace/unMiracle/utils/setting.sol\":610:716  function getAmount(SetInfo memory info) internal pure returns(uint256) {... */\n      swap2\n      swap1\n      pop\n      jump\t// out\n        /* \"#utility.yul\":7:82   */\n    tag_143:\n        /* \"#utility.yul\":40:46   */\n      0x00\n        /* \"#utility.yul\":73:75   */\n      0x40\n        /* \"#utility.yul\":67:76   */\n      mload\n        /* \"#utility.yul\":57:76   */\n      swap1\n      pop\n        /* \"#utility.yul\":7:82   */\n      swap1\n      jump\t// out\n        /* \"#utility.yul\":88:205   */\n    tag_144:\n        /* \"#utility.yul\":197:198   */\n      0x00\n        /* \"#utility.yul\":194:195   */\n      dup1\n        /* \"#utility.yul\":187:199   */\n      revert\n        /* \"#utility.yul\":211:328   */\n    tag_145:\n        /* \"#utility.yul\":320:321   */\n      0x00\n        /* \"#utility.yul\":317:318   */\n      dup1\n        /* \"#utility.yul\":310:322   */\n      revert\n        /* \"#utility.yul\":334:451   */\n    tag_146:\n        /* \"#utility.yul\":443:444   */\n      0x00\n        /* \"#utility.yul\":440:441   */\n      dup1\n        /* \"#utility.yul\":433:445   */\n      revert\n        /* \"#utility.yul\":457:559   */\n    tag_147:\n        /* \"#utility.yul\":498:504   */\n      0x00\n        /* \"#utility.yul\":549:551   */\n      0x1f\n        /* \"#utility.yul\":545:552   */\n      not\n        /* \"#utility.yul\":540:542   */\n      0x1f\n        /* \"#utility.yul\":533:538   */\n      dup4\n        /* \"#utility.yul\":529:543   */\n      add\n        /* \"#utility.yul\":525:553   */\n      and\n        /* \"#utility.yul\":515:553   */\n      swap1\n      pop\n        /* \"#utility.yul\":457:559   */\n      swap2\n      swap1\n      pop\n      jump\t// out\n        /* \"#utility.yul\":565:745   */\n    tag_148:\n        /* \"#utility.yul\":613:690   */\n      0x4e487b7100000000000000000000000000000000000000000000000000000000\n        /* \"#utility.yul\":610:611   */\n      0x00\n        /* \"#utility.yul\":603:691   */\n      mstore\n        /* \"#utility.yul\":710:714   */\n      0x41\n        /* \"#utility.yul\":707:708   */\n      0x04\n        /* \"#utility.yul\":700:715   */\n      mstore\n        /* \"#utility.yul\":734:738   */\n      0x24\n        /* \"#utility.yul\":731:732   */\n      0x00\n        /* \"#utility.yul\":724:739   */\n      revert\n        /* \"#utility.yul\":751:1032   */\n    tag_149:\n        /* \"#utility.yul\":834:861   */\n      tag_214\n        /* \"#utility.yul\":856:860   */\n      dup3\n        /* \"#utility.yul\":834:861   */\n      tag_147\n      jump\t// in\n    tag_214:\n        /* \"#utility.yul\":826:832   */\n      dup2\n        /* \"#utility.yul\":822:862   */\n      add\n        /* \"#utility.yul\":964:970   */\n      dup2\n        /* \"#utility.yul\":952:962   */\n      dup2\n        /* \"#utility.yul\":949:971   */\n      lt\n        /* \"#utility.yul\":928:946   */\n      0xffffffffffffffff\n        /* \"#utility.yul\":916:926   */\n      dup3\n        /* \"#utility.yul\":913:947   */\n      gt\n        /* \"#utility.yul\":910:972   */\n      or\n        /* \"#utility.yul\":907:995   */\n      iszero\n      tag_215\n      jumpi\n        /* \"#utility.yul\":975:993   */\n      tag_216\n      tag_148\n      jump\t// in\n    tag_216:\n        /* \"#utility.yul\":907:995   */\n    tag_215:\n        /* \"#utility.yul\":1015:1025   */\n      dup1\n        /* \"#utility.yul\":1011:1013   */\n      0x40\n        /* \"#utility.yul\":1004:1026   */\n      mstore\n        /* \"#utility.yul\":794:1032   */\n      pop\n        /* \"#utility.yul\":751:1032   */\n      pop\n      pop\n      jump\t// out\n        /* \"#utility.yul\":1038:1167   */\n    tag_150:\n        /* \"#utility.yul\":1072:1078   */\n      0x00\n        /* \"#utility.yul\":1099:1119   */\n      tag_218\n      tag_143\n      jump\t// in\n    tag_218:\n        /* \"#utility.yul\":1089:1119   */\n      swap1\n      pop\n        /* \"#utility.yul\":1128:1161   */\n      tag_219\n        /* \"#utility.yul\":1156:1160   */\n      dup3\n        /* \"#utility.yul\":1148:1154   */\n      dup3\n        /* \"#utility.yul\":1128:1161   */\n      tag_149\n      jump\t// in\n    tag_219:\n        /* \"#utility.yul\":1038:1167   */\n      swap2\n      swap1\n      pop\n      jump\t// out\n        /* \"#utility.yul\":1173:1484   */\n    tag_151:\n        /* \"#utility.yul\":1250:1254   */\n      0x00\n        /* \"#utility.yul\":1340:1358   */\n      0xffffffffffffffff\n        /* \"#utility.yul\":1332:1338   */\n      dup3\n        /* \"#utility.yul\":1329:1359   */\n      gt\n        /* \"#utility.yul\":1326:1382   */\n      iszero\n      tag_221\n      jumpi\n        /* \"#utility.yul\":1362:1380   */\n      tag_222\n      tag_148\n      jump\t// in\n    tag_222:\n        /* \"#utility.yul\":1326:1382   */\n    tag_221:\n        /* \"#utility.yul\":1412:1416   */\n      0x20\n        /* \"#utility.yul\":1404:1410   */\n      dup3\n        /* \"#utility.yul\":1400:1417   */\n      mul\n        /* \"#utility.yul\":1392:1417   */\n      swap1\n      pop\n        /* \"#utility.yul\":1472:1476   */\n      0x20\n        /* \"#utility.yul\":1466:1470   */\n      dup2\n        /* \"#utility.yul\":1462:1477   */\n      add\n        /* \"#utility.yul\":1454:1477   */\n      swap1\n      pop\n        /* \"#utility.yul\":1173:1484   */\n      swap2\n      swap1\n      pop\n      jump\t// out\n        /* \"#utility.yul\":1490:1607   */\n    tag_152:\n        /* \"#utility.yul\":1599:1600   */\n      0x00\n        /* \"#utility.yul\":1596:1597   */\n      dup1\n        /* \"#utility.yul\":1589:1601   */\n      revert\n        /* \"#utility.yul\":1613:1739   */\n    tag_153:\n        /* \"#utility.yul\":1650:1657   */\n      0x00\n        /* \"#utility.yul\":1690:1732   */\n      0xffffffffffffffffffffffffffffffffffffffff\n        /* \"#utility.yul\":1683:1688   */\n      dup3\n        /* \"#utility.yul\":1679:1733   */\n      and\n        /* \"#utility.yul\":1668:1733   */\n      swap1\n      pop\n        /* \"#utility.yul\":1613:1739   */\n      swap2\n      swap1\n      pop\n      jump\t// out\n        /* \"#utility.yul\":1745:1841   */\n    tag_154:\n        /* \"#utility.yul\":1782:1789   */\n      0x00\n        /* \"#utility.yul\":1811:1835   */\n      tag_226\n        /* \"#utility.yul\":1829:1834   */\n      dup3\n        /* \"#utility.yul\":1811:1835   */\n      tag_153\n      jump\t// in\n    tag_226:\n        /* \"#utility.yul\":1800:1835   */\n      swap1\n      pop\n        /* \"#utility.yul\":1745:1841   */\n      swap2\n      swap1\n      pop\n      jump\t// out\n        /* \"#utility.yul\":1847:1969   */\n    tag_155:\n        /* \"#utility.yul\":1920:1944   */\n      tag_228\n        /* \"#utility.yul\":1938:1943   */\n      dup2\n        /* \"#utility.yul\":1920:1944   */\n      tag_154\n      jump\t// in\n    tag_228:\n        /* \"#utility.yul\":1913:1918   */\n      dup2\n        /* \"#utility.yul\":1910:1945   */\n      eq\n        /* \"#utility.yul\":1900:1963   */\n      tag_229\n      jumpi\n        /* \"#utility.yul\":1959:1960   */\n      0x00\n        /* \"#utility.yul\":1956:1957   */\n      dup1\n        /* \"#utility.yul\":1949:1961   */\n      revert\n        /* \"#utility.yul\":1900:1963   */\n    tag_229:\n        /* \"#utility.yul\":1847:1969   */\n      pop\n      jump\t// out\n        /* \"#utility.yul\":1975:2114   */\n    tag_156:\n        /* \"#utility.yul\":2021:2026   */\n      0x00\n        /* \"#utility.yul\":2059:2065   */\n      dup2\n        /* \"#utility.yul\":2046:2066   */\n      calldataload\n        /* \"#utility.yul\":2037:2066   */\n      swap1\n      pop\n        /* \"#utility.yul\":2075:2108   */\n      tag_231\n        /* \"#utility.yul\":2102:2107   */\n      dup2\n        /* \"#utility.yul\":2075:2108   */\n      tag_155\n      jump\t// in\n    tag_231:\n        /* \"#utility.yul\":1975:2114   */\n      swap3\n      swap2\n      pop\n      pop\n      jump\t// out\n        /* \"#utility.yul\":2137:2847   */\n    tag_157:\n        /* \"#utility.yul\":2233:2238   */\n      0x00\n        /* \"#utility.yul\":2258:2339   */\n      tag_233\n        /* \"#utility.yul\":2274:2338   */\n      tag_234\n        /* \"#utility.yul\":2331:2337   */\n      dup5\n        /* \"#utility.yul\":2274:2338   */\n      tag_151\n      jump\t// in\n    tag_234:\n        /* \"#utility.yul\":2258:2339   */\n      tag_150\n      jump\t// in\n    tag_233:\n        /* \"#utility.yul\":2249:2339   */\n      swap1\n      pop\n        /* \"#utility.yul\":2359:2364   */\n      dup1\n        /* \"#utility.yul\":2388:2394   */\n      dup4\n        /* \"#utility.yul\":2381:2386   */\n      dup3\n        /* \"#utility.yul\":2374:2395   */\n      mstore\n        /* \"#utility.yul\":2422:2426   */\n      0x20\n        /* \"#utility.yul\":2415:2420   */\n      dup3\n        /* \"#utility.yul\":2411:2427   */\n      add\n        /* \"#utility.yul\":2404:2427   */\n      swap1\n      pop\n        /* \"#utility.yul\":2475:2479   */\n      0x20\n        /* \"#utility.yul\":2467:2473   */\n      dup5\n        /* \"#utility.yul\":2463:2480   */\n      mul\n        /* \"#utility.yul\":2455:2461   */\n      dup4\n        /* \"#utility.yul\":2451:2481   */\n      add\n        /* \"#utility.yul\":2504:2507   */\n      dup6\n        /* \"#utility.yul\":2496:2502   */\n      dup2\n        /* \"#utility.yul\":2493:2508   */\n      gt\n        /* \"#utility.yul\":2490:2612   */\n      iszero\n      tag_235\n      jumpi\n        /* \"#utility.yul\":2523:2602   */\n      tag_236\n      tag_152\n      jump\t// in\n    tag_236:\n        /* \"#utility.yul\":2490:2612   */\n    tag_235:\n        /* \"#utility.yul\":2638:2644   */\n      dup4\n        /* \"#utility.yul\":2621:2841   */\n    tag_237:\n        /* \"#utility.yul\":2655:2661   */\n      dup2\n        /* \"#utility.yul\":2650:2653   */\n      dup2\n        /* \"#utility.yul\":2647:2662   */\n      lt\n        /* \"#utility.yul\":2621:2841   */\n      iszero\n      tag_239\n      jumpi\n        /* \"#utility.yul\":2730:2733   */\n      dup1\n        /* \"#utility.yul\":2759:2796   */\n      tag_240\n        /* \"#utility.yul\":2792:2795   */\n      dup9\n        /* \"#utility.yul\":2780:2790   */\n      dup3\n        /* \"#utility.yul\":2759:2796   */\n      tag_156\n      jump\t// in\n    tag_240:\n        /* \"#utility.yul\":2754:2757   */\n      dup5\n        /* \"#utility.yul\":2747:2797   */\n      mstore\n        /* \"#utility.yul\":2826:2830   */\n      0x20\n        /* \"#utility.yul\":2821:2824   */\n      dup5\n        /* \"#utility.yul\":2817:2831   */\n      add\n        /* \"#utility.yul\":2810:2831   */\n      swap4\n      pop\n        /* \"#utility.yul\":2697:2841   */\n      pop\n        /* \"#utility.yul\":2681:2685   */\n      0x20\n        /* \"#utility.yul\":2676:2679   */\n      dup2\n        /* \"#utility.yul\":2672:2686   */\n      add\n        /* \"#utility.yul\":2665:2686   */\n      swap1\n      pop\n        /* \"#utility.yul\":2621:2841   */\n      jump(tag_237)\n    tag_239:\n        /* \"#utility.yul\":2625:2646   */\n      pop\n        /* \"#utility.yul\":2239:2847   */\n      pop\n      pop\n        /* \"#utility.yul\":2137:2847   */\n      swap4\n      swap3\n      pop\n      pop\n      pop\n      jump\t// out\n        /* \"#utility.yul\":2870:3240   */\n    tag_158:\n        /* \"#utility.yul\":2941:2946   */\n      0x00\n        /* \"#utility.yul\":2990:2993   */\n      dup3\n        /* \"#utility.yul\":2983:2987   */\n      0x1f\n        /* \"#utility.yul\":2975:2981   */\n      dup4\n        /* \"#utility.yul\":2971:2988   */\n      add\n        /* \"#utility.yul\":2967:2994   */\n      slt\n        /* \"#utility.yul\":2957:3079   */\n      tag_242\n      jumpi\n        /* \"#utility.yul\":2998:3077   */\n      tag_243\n      tag_146\n      jump\t// in\n    tag_243:\n        /* \"#utility.yul\":2957:3079   */\n    tag_242:\n        /* \"#utility.yul\":3115:3121   */\n      dup2\n        /* \"#utility.yul\":3102:3122   */\n      calldataload\n        /* \"#utility.yul\":3140:3234   */\n      tag_244\n        /* \"#utility.yul\":3230:3233   */\n      dup5\n        /* \"#utility.yul\":3222:3228   */\n      dup3\n        /* \"#utility.yul\":3215:3219   */\n      0x20\n        /* \"#utility.yul\":3207:3213   */\n      dup7\n        /* \"#utility.yul\":3203:3220   */\n      add\n        /* \"#utility.yul\":3140:3234   */\n      tag_157\n      jump\t// in\n    tag_244:\n        /* \"#utility.yul\":3131:3234   */\n      swap2\n      pop\n        /* \"#utility.yul\":2947:3240   */\n      pop\n        /* \"#utility.yul\":2870:3240   */\n      swap3\n      swap2\n      pop\n      pop\n      jump\t// out\n        /* \"#utility.yul\":3246:3566   */\n    tag_159:\n        /* \"#utility.yul\":3332:3336   */\n      0x00\n        /* \"#utility.yul\":3422:3440   */\n      0xffffffffffffffff\n        /* \"#utility.yul\":3414:3420   */\n      dup3\n        /* \"#utility.yul\":3411:3441   */\n      gt\n        /* \"#utility.yul\":3408:3464   */\n      iszero\n      tag_246\n      jumpi\n        /* \"#utility.yul\":3444:3462   */\n      tag_247\n      tag_148\n      jump\t// in\n    tag_247:\n        /* \"#utility.yul\":3408:3464   */\n    tag_246:\n        /* \"#utility.yul\":3494:3498   */\n      0x20\n        /* \"#utility.yul\":3486:3492   */\n      dup3\n        /* \"#utility.yul\":3482:3499   */\n      mul\n        /* \"#utility.yul\":3474:3499   */\n      swap1\n      pop\n        /* \"#utility.yul\":3554:3558   */\n      0x20\n        /* \"#utility.yul\":3548:3552   */\n      dup2\n        /* \"#utility.yul\":3544:3559   */\n      add\n        /* \"#utility.yul\":3536:3559   */\n      swap1\n      pop\n        /* \"#utility.yul\":3246:3566   */\n      swap2\n      swap1\n      pop\n      jump\t// out\n        /* \"#utility.yul\":3572:3689   */\n    tag_160:\n        /* \"#utility.yul\":3681:3682   */\n      0x00\n        /* \"#utility.yul\":3678:3679   */\n      dup1\n        /* \"#utility.yul\":3671:3683   */\n      revert\n        /* \"#utility.yul\":3695:4002   */\n    tag_161:\n        /* \"#utility.yul\":3756:3760   */\n      0x00\n        /* \"#utility.yul\":3846:3864   */\n      0xffffffffffffffff\n        /* \"#utility.yul\":3838:3844   */\n      dup3\n        /* \"#utility.yul\":3835:3865   */\n      gt\n        /* \"#utility.yul\":3832:3888   */\n      iszero\n      tag_250\n      jumpi\n        /* \"#utility.yul\":3868:3886   */\n      tag_251\n      tag_148\n      jump\t// in\n    tag_251:\n        /* \"#utility.yul\":3832:3888   */\n    tag_250:\n        /* \"#utility.yul\":3906:3935   */\n      tag_252\n        /* \"#utility.yul\":3928:3934   */\n      dup3\n        /* \"#utility.yul\":3906:3935   */\n      tag_147\n      jump\t// in\n    tag_252:\n        /* \"#utility.yul\":3898:3935   */\n      swap1\n      pop\n        /* \"#utility.yul\":3990:3994   */\n      0x20\n        /* \"#utility.yul\":3984:3988   */\n      dup2\n        /* \"#utility.yul\":3980:3995   */\n      add\n        /* \"#utility.yul\":3972:3995   */\n      swap1\n      pop\n        /* \"#utility.yul\":3695:4002   */\n      swap2\n      swap1\n      pop\n      jump\t// out\n        /* \"#utility.yul\":4008:4162   */\n    tag_162:\n        /* \"#utility.yul\":4092:4098   */\n      dup3\n        /* \"#utility.yul\":4087:4090   */\n      dup2\n        /* \"#utility.yul\":4082:4085   */\n      dup4\n        /* \"#utility.yul\":4069:4099   */\n      calldatacopy\n        /* \"#utility.yul\":4154:4155   */\n      0x00\n        /* \"#utility.yul\":4145:4151   */\n      dup4\n        /* \"#utility.yul\":4140:4143   */\n      dup4\n        /* \"#utility.yul\":4136:4152   */\n      add\n        /* \"#utility.yul\":4129:4156   */\n      mstore\n        /* \"#utility.yul\":4008:4162   */\n      pop\n      pop\n      pop\n      jump\t// out\n        /* \"#utility.yul\":4168:4578   */\n    tag_163:\n        /* \"#utility.yul\":4245:4250   */\n      0x00\n        /* \"#utility.yul\":4270:4335   */\n      tag_255\n        /* \"#utility.yul\":4286:4334   */\n      tag_256\n        /* \"#utility.yul\":4327:4333   */\n      dup5\n        /* \"#utility.yul\":4286:4334   */\n      tag_161\n      jump\t// in\n    tag_256:\n        /* \"#utility.yul\":4270:4335   */\n      tag_150\n      jump\t// in\n    tag_255:\n        /* \"#utility.yul\":4261:4335   */\n      swap1\n      pop\n        /* \"#utility.yul\":4358:4364   */\n      dup3\n        /* \"#utility.yul\":4351:4356   */\n      dup2\n        /* \"#utility.yul\":4344:4365   */\n      mstore\n        /* \"#utility.yul\":4396:4400   */\n      0x20\n        /* \"#utility.yul\":4389:4394   */\n      dup2\n        /* \"#utility.yul\":4385:4401   */\n      add\n        /* \"#utility.yul\":4434:4437   */\n      dup5\n        /* \"#utility.yul\":4425:4431   */\n      dup5\n        /* \"#utility.yul\":4420:4423   */\n      dup5\n        /* \"#utility.yul\":4416:4432   */\n      add\n        /* \"#utility.yul\":4413:4438   */\n      gt\n        /* \"#utility.yul\":4410:4522   */\n      iszero\n      tag_257\n      jumpi\n        /* \"#utility.yul\":4441:4520   */\n      tag_258\n      tag_160\n      jump\t// in\n    tag_258:\n        /* \"#utility.yul\":4410:4522   */\n    tag_257:\n        /* \"#utility.yul\":4531:4572   */\n      tag_259\n        /* \"#utility.yul\":4565:4571   */\n      dup5\n        /* \"#utility.yul\":4560:4563   */\n      dup3\n        /* \"#utility.yul\":4555:4558   */\n      dup6\n        /* \"#utility.yul\":4531:4572   */\n      tag_162\n      jump\t// in\n    tag_259:\n        /* \"#utility.yul\":4251:4578   */\n      pop\n        /* \"#utility.yul\":4168:4578   */\n      swap4\n      swap3\n      pop\n      pop\n      pop\n      jump\t// out\n        /* \"#utility.yul\":4597:4935   */\n    tag_164:\n        /* \"#utility.yul\":4652:4657   */\n      0x00\n        /* \"#utility.yul\":4701:4704   */\n      dup3\n        /* \"#utility.yul\":4694:4698   */\n      0x1f\n        /* \"#utility.yul\":4686:4692   */\n      dup4\n        /* \"#utility.yul\":4682:4699   */\n      add\n        /* \"#utility.yul\":4678:4705   */\n      slt\n        /* \"#utility.yul\":4668:4790   */\n      tag_261\n      jumpi\n        /* \"#utility.yul\":4709:4788   */\n      tag_262\n      tag_146\n      jump\t// in\n    tag_262:\n        /* \"#utility.yul\":4668:4790   */\n    tag_261:\n        /* \"#utility.yul\":4826:4832   */\n      dup2\n        /* \"#utility.yul\":4813:4833   */\n      calldataload\n        /* \"#utility.yul\":4851:4929   */\n      tag_263\n        /* \"#utility.yul\":4925:4928   */\n      dup5\n        /* \"#utility.yul\":4917:4923   */\n      dup3\n        /* \"#utility.yul\":4910:4914   */\n      0x20\n        /* \"#utility.yul\":4902:4908   */\n      dup7\n        /* \"#utility.yul\":4898:4915   */\n      add\n        /* \"#utility.yul\":4851:4929   */\n      tag_163\n      jump\t// in\n    tag_263:\n        /* \"#utility.yul\":4842:4929   */\n      swap2\n      pop\n        /* \"#utility.yul\":4658:4935   */\n      pop\n        /* \"#utility.yul\":4597:4935   */\n      swap3\n      swap2\n      pop\n      pop\n      jump\t// out\n        /* \"#utility.yul\":4956:5898   */\n    tag_165:\n        /* \"#utility.yul\":5061:5066   */\n      0x00\n        /* \"#utility.yul\":5086:5176   */\n      tag_265\n        /* \"#utility.yul\":5102:5175   */\n      tag_266\n        /* \"#utility.yul\":5168:5174   */\n      dup5\n        /* \"#utility.yul\":5102:5175   */\n      tag_159\n      jump\t// in\n    tag_266:\n        /* \"#utility.yul\":5086:5176   */\n      tag_150\n      jump\t// in\n    tag_265:\n        /* \"#utility.yul\":5077:5176   */\n      swap1\n      pop\n        /* \"#utility.yul\":5196:5201   */\n      dup1\n        /* \"#utility.yul\":5225:5231   */\n      dup4\n        /* \"#utility.yul\":5218:5223   */\n      dup3\n        /* \"#utility.yul\":5211:5232   */\n      mstore\n        /* \"#utility.yul\":5259:5263   */\n      0x20\n        /* \"#utility.yul\":5252:5257   */\n      dup3\n        /* \"#utility.yul\":5248:5264   */\n      add\n        /* \"#utility.yul\":5241:5264   */\n      swap1\n      pop\n        /* \"#utility.yul\":5312:5316   */\n      0x20\n        /* \"#utility.yul\":5304:5310   */\n      dup5\n        /* \"#utility.yul\":5300:5317   */\n      mul\n        /* \"#utility.yul\":5292:5298   */\n      dup4\n        /* \"#utility.yul\":5288:5318   */\n      add\n        /* \"#utility.yul\":5341:5344   */\n      dup6\n        /* \"#utility.yul\":5333:5339   */\n      dup2\n        /* \"#utility.yul\":5330:5345   */\n      gt\n        /* \"#utility.yul\":5327:5449   */\n      iszero\n      tag_267\n      jumpi\n        /* \"#utility.yul\":5360:5439   */\n      tag_268\n      tag_152\n      jump\t// in\n    tag_268:\n        /* \"#utility.yul\":5327:5449   */\n    tag_267:\n        /* \"#utility.yul\":5475:5481   */\n      dup4\n        /* \"#utility.yul\":5458:5892   */\n    tag_269:\n        /* \"#utility.yul\":5492:5498   */\n      dup2\n        /* \"#utility.yul\":5487:5490   */\n      dup2\n        /* \"#utility.yul\":5484:5499   */\n      lt\n        /* \"#utility.yul\":5458:5892   */\n      iszero\n      tag_271\n      jumpi\n        /* \"#utility.yul\":5581:5584   */\n      dup1\n        /* \"#utility.yul\":5568:5585   */\n      calldataload\n        /* \"#utility.yul\":5617:5635   */\n      0xffffffffffffffff\n        /* \"#utility.yul\":5604:5615   */\n      dup2\n        /* \"#utility.yul\":5601:5636   */\n      gt\n        /* \"#utility.yul\":5598:5720   */\n      iszero\n      tag_272\n      jumpi\n        /* \"#utility.yul\":5639:5718   */\n      tag_273\n      tag_146\n      jump\t// in\n    tag_273:\n        /* \"#utility.yul\":5598:5720   */\n    tag_272:\n        /* \"#utility.yul\":5763:5774   */\n      dup1\n        /* \"#utility.yul\":5755:5761   */\n      dup7\n        /* \"#utility.yul\":5751:5775   */\n      add\n        /* \"#utility.yul\":5801:5847   */\n      tag_274\n        /* \"#utility.yul\":5843:5846   */\n      dup10\n        /* \"#utility.yul\":5831:5841   */\n      dup3\n        /* \"#utility.yul\":5801:5847   */\n      tag_164\n      jump\t// in\n    tag_274:\n        /* \"#utility.yul\":5796:5799   */\n      dup6\n        /* \"#utility.yul\":5789:5848   */\n      mstore\n        /* \"#utility.yul\":5877:5881   */\n      0x20\n        /* \"#utility.yul\":5872:5875   */\n      dup6\n        /* \"#utility.yul\":5868:5882   */\n      add\n        /* \"#utility.yul\":5861:5882   */\n      swap5\n      pop\n        /* \"#utility.yul\":5534:5892   */\n      pop\n      pop\n        /* \"#utility.yul\":5518:5522   */\n      0x20\n        /* \"#utility.yul\":5513:5516   */\n      dup2\n        /* \"#utility.yul\":5509:5523   */\n      add\n        /* \"#utility.yul\":5502:5523   */\n      swap1\n      pop\n        /* \"#utility.yul\":5458:5892   */\n      jump(tag_269)\n    tag_271:\n        /* \"#utility.yul\":5462:5483   */\n      pop\n        /* \"#utility.yul\":5067:5898   */\n      pop\n      pop\n        /* \"#utility.yul\":4956:5898   */\n      swap4\n      swap3\n      pop\n      pop\n      pop\n      jump\t// out\n        /* \"#utility.yul\":5919:6307   */\n    tag_166:\n        /* \"#utility.yul\":5999:6004   */\n      0x00\n        /* \"#utility.yul\":6048:6051   */\n      dup3\n        /* \"#utility.yul\":6041:6045   */\n      0x1f\n        /* \"#utility.yul\":6033:6039   */\n      dup4\n        /* \"#utility.yul\":6029:6046   */\n      add\n        /* \"#utility.yul\":6025:6052   */\n      slt\n        /* \"#utility.yul\":6015:6137   */\n      tag_276\n      jumpi\n        /* \"#utility.yul\":6056:6135   */\n      tag_277\n      tag_146\n      jump\t// in\n    tag_277:\n        /* \"#utility.yul\":6015:6137   */\n    tag_276:\n        /* \"#utility.yul\":6173:6179   */\n      dup2\n        /* \"#utility.yul\":6160:6180   */\n      calldataload\n        /* \"#utility.yul\":6198:6301   */\n      tag_278\n        /* \"#utility.yul\":6297:6300   */\n      dup5\n        /* \"#utility.yul\":6289:6295   */\n      dup3\n        /* \"#utility.yul\":6282:6286   */\n      0x20\n        /* \"#utility.yul\":6274:6280   */\n      dup7\n        /* \"#utility.yul\":6270:6287   */\n      add\n        /* \"#utility.yul\":6198:6301   */\n      tag_165\n      jump\t// in\n    tag_278:\n        /* \"#utility.yul\":6189:6301   */\n      swap2\n      pop\n        /* \"#utility.yul\":6005:6307   */\n      pop\n        /* \"#utility.yul\":5919:6307   */\n      swap3\n      swap2\n      pop\n      pop\n      jump\t// out\n        /* \"#utility.yul\":6313:6621   */\n    tag_167:\n        /* \"#utility.yul\":6375:6379   */\n      0x00\n        /* \"#utility.yul\":6465:6483   */\n      0xffffffffffffffff\n        /* \"#utility.yul\":6457:6463   */\n      dup3\n        /* \"#utility.yul\":6454:6484   */\n      gt\n        /* \"#utility.yul\":6451:6507   */\n      iszero\n      tag_280\n      jumpi\n        /* \"#utility.yul\":6487:6505   */\n      tag_281\n      tag_148\n      jump\t// in\n    tag_281:\n        /* \"#utility.yul\":6451:6507   */\n    tag_280:\n        /* \"#utility.yul\":6525:6554   */\n      tag_282\n        /* \"#utility.yul\":6547:6553   */\n      dup3\n        /* \"#utility.yul\":6525:6554   */\n      tag_147\n      jump\t// in\n    tag_282:\n        /* \"#utility.yul\":6517:6554   */\n      swap1\n      pop\n        /* \"#utility.yul\":6609:6613   */\n      0x20\n        /* \"#utility.yul\":6603:6607   */\n      dup2\n        /* \"#utility.yul\":6599:6614   */\n      add\n        /* \"#utility.yul\":6591:6614   */\n      swap1\n      pop\n        /* \"#utility.yul\":6313:6621   */\n      swap2\n      swap1\n      pop\n      jump\t// out\n        /* \"#utility.yul\":6627:7039   */\n    tag_168:\n        /* \"#utility.yul\":6705:6710   */\n      0x00\n        /* \"#utility.yul\":6730:6796   */\n      tag_284\n        /* \"#utility.yul\":6746:6795   */\n      tag_285\n        /* \"#utility.yul\":6788:6794   */\n      dup5\n        /* \"#utility.yul\":6746:6795   */\n      tag_167\n      jump\t// in\n    tag_285:\n        /* \"#utility.yul\":6730:6796   */\n      tag_150\n      jump\t// in\n    tag_284:\n        /* \"#utility.yul\":6721:6796   */\n      swap1\n      pop\n        /* \"#utility.yul\":6819:6825   */\n      dup3\n        /* \"#utility.yul\":6812:6817   */\n      dup2\n        /* \"#utility.yul\":6805:6826   */\n      mstore\n        /* \"#utility.yul\":6857:6861   */\n      0x20\n        /* \"#utility.yul\":6850:6855   */\n      dup2\n        /* \"#utility.yul\":6846:6862   */\n      add\n        /* \"#utility.yul\":6895:6898   */\n      dup5\n        /* \"#utility.yul\":6886:6892   */\n      dup5\n        /* \"#utility.yul\":6881:6884   */\n      dup5\n        /* \"#utility.yul\":6877:6893   */\n      add\n        /* \"#utility.yul\":6874:6899   */\n      gt\n        /* \"#utility.yul\":6871:6983   */\n      iszero\n      tag_286\n      jumpi\n        /* \"#utility.yul\":6902:6981   */\n      tag_287\n      tag_160\n      jump\t// in\n    tag_287:\n        /* \"#utility.yul\":6871:6983   */\n    tag_286:\n        /* \"#utility.yul\":6992:7033   */\n      tag_288\n        /* \"#utility.yul\":7026:7032   */\n      dup5\n        /* \"#utility.yul\":7021:7024   */\n      dup3\n        /* \"#utility.yul\":7016:7019   */\n      dup6\n        /* \"#utility.yul\":6992:7033   */\n      tag_162\n      jump\t// in\n    tag_288:\n        /* \"#utility.yul\":6711:7039   */\n      pop\n        /* \"#utility.yul\":6627:7039   */\n      swap4\n      swap3\n      pop\n      pop\n      pop\n      jump\t// out\n        /* \"#utility.yul\":7059:7399   */\n    tag_169:\n        /* \"#utility.yul\":7115:7120   */\n      0x00\n        /* \"#utility.yul\":7164:7167   */\n      dup3\n        /* \"#utility.yul\":7157:7161   */\n      0x1f\n        /* \"#utility.yul\":7149:7155   */\n      dup4\n        /* \"#utility.yul\":7145:7162   */\n      add\n        /* \"#utility.yul\":7141:7168   */\n      slt\n        /* \"#utility.yul\":7131:7253   */\n      tag_290\n      jumpi\n        /* \"#utility.yul\":7172:7251   */\n      tag_291\n      tag_146\n      jump\t// in\n    tag_291:\n        /* \"#utility.yul\":7131:7253   */\n    tag_290:\n        /* \"#utility.yul\":7289:7295   */\n      dup2\n        /* \"#utility.yul\":7276:7296   */\n      calldataload\n        /* \"#utility.yul\":7314:7393   */\n      tag_292\n        /* \"#utility.yul\":7389:7392   */\n      dup5\n        /* \"#utility.yul\":7381:7387   */\n      dup3\n        /* \"#utility.yul\":7374:7378   */\n      0x20\n        /* \"#utility.yul\":7366:7372   */\n      dup7\n        /* \"#utility.yul\":7362:7379   */\n      add\n        /* \"#utility.yul\":7314:7393   */\n      tag_168\n      jump\t// in\n    tag_292:\n        /* \"#utility.yul\":7305:7393   */\n      swap2\n      pop\n        /* \"#utility.yul\":7121:7399   */\n      pop\n        /* \"#utility.yul\":7059:7399   */\n      swap3\n      swap2\n      pop\n      pop\n      jump\t// out\n        /* \"#utility.yul\":7405:8642   */\n    tag_14:\n        /* \"#utility.yul\":7551:7557   */\n      0x00\n        /* \"#utility.yul\":7559:7565   */\n      dup1\n        /* \"#utility.yul\":7567:7573   */\n      0x00\n        /* \"#utility.yul\":7616:7618   */\n      0x60\n        /* \"#utility.yul\":7604:7613   */\n      dup5\n        /* \"#utility.yul\":7595:7602   */\n      dup7\n        /* \"#utility.yul\":7591:7614   */\n      sub\n        /* \"#utility.yul\":7587:7619   */\n      slt\n        /* \"#utility.yul\":7584:7703   */\n      iszero\n      tag_294\n      jumpi\n        /* \"#utility.yul\":7622:7701   */\n      tag_295\n      tag_144\n      jump\t// in\n    tag_295:\n        /* \"#utility.yul\":7584:7703   */\n    tag_294:\n        /* \"#utility.yul\":7770:7771   */\n      0x00\n        /* \"#utility.yul\":7759:7768   */\n      dup5\n        /* \"#utility.yul\":7755:7772   */\n      add\n        /* \"#utility.yul\":7742:7773   */\n      calldataload\n        /* \"#utility.yul\":7800:7818   */\n      0xffffffffffffffff\n        /* \"#utility.yul\":7792:7798   */\n      dup2\n        /* \"#utility.yul\":7789:7819   */\n      gt\n        /* \"#utility.yul\":7786:7903   */\n      iszero\n      tag_296\n      jumpi\n        /* \"#utility.yul\":7822:7901   */\n      tag_297\n      tag_145\n      jump\t// in\n    tag_297:\n        /* \"#utility.yul\":7786:7903   */\n    tag_296:\n        /* \"#utility.yul\":7927:8005   */\n      tag_298\n        /* \"#utility.yul\":7997:8004   */\n      dup7\n        /* \"#utility.yul\":7988:7994   */\n      dup3\n        /* \"#utility.yul\":7977:7986   */\n      dup8\n        /* \"#utility.yul\":7973:7995   */\n      add\n        /* \"#utility.yul\":7927:8005   */\n      tag_158\n      jump\t// in\n    tag_298:\n        /* \"#utility.yul\":7917:8005   */\n      swap4\n      pop\n        /* \"#utility.yul\":7713:8015   */\n      pop\n        /* \"#utility.yul\":8082:8084   */\n      0x20\n        /* \"#utility.yul\":8071:8080   */\n      dup5\n        /* \"#utility.yul\":8067:8085   */\n      add\n        /* \"#utility.yul\":8054:8086   */\n      calldataload\n        /* \"#utility.yul\":8113:8131   */\n      0xffffffffffffffff\n        /* \"#utility.yul\":8105:8111   */\n      dup2\n        /* \"#utility.yul\":8102:8132   */\n      gt\n        /* \"#utility.yul\":8099:8216   */\n      iszero\n      tag_299\n      jumpi\n        /* \"#utility.yul\":8135:8214   */\n      tag_300\n      tag_145\n      jump\t// in\n    tag_300:\n        /* \"#utility.yul\":8099:8216   */\n    tag_299:\n        /* \"#utility.yul\":8240:8327   */\n      tag_301\n        /* \"#utility.yul\":8319:8326   */\n      dup7\n        /* \"#utility.yul\":8310:8316   */\n      dup3\n        /* \"#utility.yul\":8299:8308   */\n      dup8\n        /* \"#utility.yul\":8295:8317   */\n      add\n        /* \"#utility.yul\":8240:8327   */\n      tag_166\n      jump\t// in\n    tag_301:\n        /* \"#utility.yul\":8230:8327   */\n      swap3\n      pop\n        /* \"#utility.yul\":8025:8337   */\n      pop\n        /* \"#utility.yul\":8404:8406   */\n      0x40\n        /* \"#utility.yul\":8393:8402   */\n      dup5\n        /* \"#utility.yul\":8389:8407   */\n      add\n        /* \"#utility.yul\":8376:8408   */\n      calldataload\n        /* \"#utility.yul\":8435:8453   */\n      0xffffffffffffffff\n        /* \"#utility.yul\":8427:8433   */\n      dup2\n        /* \"#utility.yul\":8424:8454   */\n      gt\n        /* \"#utility.yul\":8421:8538   */\n      iszero\n      tag_302\n      jumpi\n        /* \"#utility.yul\":8457:8536   */\n      tag_303\n      tag_145\n      jump\t// in\n    tag_303:\n        /* \"#utility.yul\":8421:8538   */\n    tag_302:\n        /* \"#utility.yul\":8562:8625   */\n      tag_304\n        /* \"#utility.yul\":8617:8624   */\n      dup7\n        /* \"#utility.yul\":8608:8614   */\n      dup3\n        /* \"#utility.yul\":8597:8606   */\n      dup8\n        /* \"#utility.yul\":8593:8615   */\n      add\n        /* \"#utility.yul\":8562:8625   */\n      tag_169\n      jump\t// in\n    tag_304:\n        /* \"#utility.yul\":8552:8625   */\n      swap2\n      pop\n        /* \"#utility.yul\":8347:8635   */\n      pop\n        /* \"#utility.yul\":7405:8642   */\n      swap3\n      pop\n      swap3\n      pop\n      swap3\n      jump\t// out\n        /* \"#utility.yul\":8648:8725   */\n    tag_170:\n        /* \"#utility.yul\":8685:8692   */\n      0x00\n        /* \"#utility.yul\":8714:8719   */\n      dup2\n        /* \"#utility.yul\":8703:8719   */\n      swap1\n      pop\n        /* \"#utility.yul\":8648:8725   */\n      swap2\n      swap1\n      pop\n      jump\t// out\n        /* \"#utility.yul\":8731:8849   */\n    tag_171:\n        /* \"#utility.yul\":8818:8842   */\n      tag_307\n        /* \"#utility.yul\":8836:8841   */\n      dup2\n        /* \"#utility.yul\":8818:8842   */\n      tag_170\n      jump\t// in\n    tag_307:\n        /* \"#utility.yul\":8813:8816   */\n      dup3\n        /* \"#utility.yul\":8806:8843   */\n      mstore\n        /* \"#utility.yul\":8731:8849   */\n      pop\n      pop\n      jump\t// out\n        /* \"#utility.yul\":8855:9077   */\n    tag_17:\n        /* \"#utility.yul\":8948:8952   */\n      0x00\n        /* \"#utility.yul\":8986:8988   */\n      0x20\n        /* \"#utility.yul\":8975:8984   */\n      dup3\n        /* \"#utility.yul\":8971:8989   */\n      add\n        /* \"#utility.yul\":8963:8989   */\n      swap1\n      pop\n        /* \"#utility.yul\":8999:9070   */\n      tag_309\n        /* \"#utility.yul\":9067:9068   */\n      0x00\n        /* \"#utility.yul\":9056:9065   */\n      dup4\n        /* \"#utility.yul\":9052:9069   */\n      add\n        /* \"#utility.yul\":9043:9049   */\n      dup5\n        /* \"#utility.yul\":8999:9070   */\n      tag_171\n      jump\t// in\n    tag_309:\n        /* \"#utility.yul\":8855:9077   */\n      swap3\n      swap2\n      pop\n      pop\n      jump\t// out\n        /* \"#utility.yul\":9083:9205   */\n    tag_172:\n        /* \"#utility.yul\":9156:9180   */\n      tag_311\n        /* \"#utility.yul\":9174:9179   */\n      dup2\n        /* \"#utility.yul\":9156:9180   */\n      tag_170\n      jump\t// in\n    tag_311:\n        /* \"#utility.yul\":9149:9154   */\n      dup2\n        /* \"#utility.yul\":9146:9181   */\n      eq\n        /* \"#utility.yul\":9136:9199   */\n      tag_312\n      jumpi\n        /* \"#utility.yul\":9195:9196   */\n      0x00\n        /* \"#utility.yul\":9192:9193   */\n      dup1\n        /* \"#utility.yul\":9185:9197   */\n      revert\n        /* \"#utility.yul\":9136:9199   */\n    tag_312:\n        /* \"#utility.yul\":9083:9205   */\n      pop\n      jump\t// out\n        /* \"#utility.yul\":9211:9350   */\n    tag_173:\n        /* \"#utility.yul\":9257:9262   */\n      0x00\n        /* \"#utility.yul\":9295:9301   */\n      dup2\n        /* \"#utility.yul\":9282:9302   */\n      calldataload\n        /* \"#utility.yul\":9273:9302   */\n      swap1\n      pop\n        /* \"#utility.yul\":9311:9344   */\n      tag_314\n        /* \"#utility.yul\":9338:9343   */\n      dup2\n        /* \"#utility.yul\":9311:9344   */\n      tag_172\n      jump\t// in\n    tag_314:\n        /* \"#utility.yul\":9211:9350   */\n      swap3\n      swap2\n      pop\n      pop\n      jump\t// out\n        /* \"#utility.yul\":9356:9685   */\n    tag_21:\n        /* \"#utility.yul\":9415:9421   */\n      0x00\n        /* \"#utility.yul\":9464:9466   */\n      0x20\n        /* \"#utility.yul\":9452:9461   */\n      dup3\n        /* \"#utility.yul\":9443:9450   */\n      dup5\n        /* \"#utility.yul\":9439:9462   */\n      sub\n        /* \"#utility.yul\":9435:9467   */\n      slt\n        /* \"#utility.yul\":9432:9551   */\n      iszero\n      tag_316\n      jumpi\n        /* \"#utility.yul\":9470:9549   */\n      tag_317\n      tag_144\n      jump\t// in\n    tag_317:\n        /* \"#utility.yul\":9432:9551   */\n    tag_316:\n        /* \"#utility.yul\":9590:9591   */\n      0x00\n        /* \"#utility.yul\":9615:9668   */\n      tag_318\n        /* \"#utility.yul\":9660:9667   */\n      dup5\n        /* \"#utility.yul\":9651:9657   */\n      dup3\n        /* \"#utility.yul\":9640:9649   */\n      dup6\n        /* \"#utility.yul\":9636:9658   */\n      add\n        /* \"#utility.yul\":9615:9668   */\n      tag_173\n      jump\t// in\n    tag_318:\n        /* \"#utility.yul\":9605:9668   */\n      swap2\n      pop\n        /* \"#utility.yul\":9561:9678   */\n      pop\n        /* \"#utility.yul\":9356:9685   */\n      swap3\n      swap2\n      pop\n      pop\n      jump\t// out\n        /* \"#utility.yul\":9691:9871   */\n    tag_67:\n        /* \"#utility.yul\":9739:9816   */\n      0x4e487b7100000000000000000000000000000000000000000000000000000000\n        /* \"#utility.yul\":9736:9737   */\n      0x00\n        /* \"#utility.yul\":9729:9817   */\n      mstore\n        /* \"#utility.yul\":9836:9840   */\n      0x21\n        /* \"#utility.yul\":9833:9834   */\n      0x04\n        /* \"#utility.yul\":9826:9841   */\n      mstore\n        /* \"#utility.yul\":9860:9864   */\n      0x24\n        /* \"#utility.yul\":9857:9858   */\n      0x00\n        /* \"#utility.yul\":9850:9865   */\n      revert\n        /* \"#utility.yul\":9877:9997   */\n    tag_174:\n        /* \"#utility.yul\":9965:9966   */\n      0x06\n        /* \"#utility.yul\":9958:9963   */\n      dup2\n        /* \"#utility.yul\":9955:9967   */\n      lt\n        /* \"#utility.yul\":9945:9991   */\n      tag_321\n      jumpi\n        /* \"#utility.yul\":9971:9989   */\n      tag_322\n      tag_67\n      jump\t// in\n    tag_322:\n        /* \"#utility.yul\":9945:9991   */\n    tag_321:\n        /* \"#utility.yul\":9877:9997   */\n      pop\n      jump\t// out\n        /* \"#utility.yul\":10003:10144   */\n    tag_175:\n        /* \"#utility.yul\":10055:10062   */\n      0x00\n        /* \"#utility.yul\":10084:10089   */\n      dup2\n        /* \"#utility.yul\":10073:10089   */\n      swap1\n      pop\n        /* \"#utility.yul\":10090:10138   */\n      tag_324\n        /* \"#utility.yul\":10132:10137   */\n      dup3\n        /* \"#utility.yul\":10090:10138   */\n      tag_174\n      jump\t// in\n    tag_324:\n        /* \"#utility.yul\":10003:10144   */\n      swap2\n      swap1\n      pop\n      jump\t// out\n        /* \"#utility.yul\":10150:10291   */\n    tag_176:\n        /* \"#utility.yul\":10213:10222   */\n      0x00\n        /* \"#utility.yul\":10246:10285   */\n      tag_326\n        /* \"#utility.yul\":10279:10284   */\n      dup3\n        /* \"#utility.yul\":10246:10285   */\n      tag_175\n      jump\t// in\n    tag_326:\n        /* \"#utility.yul\":10233:10285   */\n      swap1\n      pop\n        /* \"#utility.yul\":10150:10291   */\n      swap2\n      swap1\n      pop\n      jump\t// out\n        /* \"#utility.yul\":10297:10454   */\n    tag_177:\n        /* \"#utility.yul\":10397:10447   */\n      tag_328\n        /* \"#utility.yul\":10441:10446   */\n      dup2\n        /* \"#utility.yul\":10397:10447   */\n      tag_176\n      jump\t// in\n    tag_328:\n        /* \"#utility.yul\":10392:10395   */\n      dup3\n        /* \"#utility.yul\":10385:10448   */\n      mstore\n        /* \"#utility.yul\":10297:10454   */\n      pop\n      pop\n      jump\t// out\n        /* \"#utility.yul\":10460:10708   */\n    tag_29:\n        /* \"#utility.yul\":10566:10570   */\n      0x00\n        /* \"#utility.yul\":10604:10606   */\n      0x20\n        /* \"#utility.yul\":10593:10602   */\n      dup3\n        /* \"#utility.yul\":10589:10607   */\n      add\n        /* \"#utility.yul\":10581:10607   */\n      swap1\n      pop\n        /* \"#utility.yul\":10617:10701   */\n      tag_330\n        /* \"#utility.yul\":10698:10699   */\n      0x00\n        /* \"#utility.yul\":10687:10696   */\n      dup4\n        /* \"#utility.yul\":10683:10700   */\n      add\n        /* \"#utility.yul\":10674:10680   */\n      dup5\n        /* \"#utility.yul\":10617:10701   */\n      tag_177\n      jump\t// in\n    tag_330:\n        /* \"#utility.yul\":10460:10708   */\n      swap3\n      swap2\n      pop\n      pop\n      jump\t// out\n        /* \"#utility.yul\":10714:10791   */\n    tag_178:\n        /* \"#utility.yul\":10751:10758   */\n      0x00\n        /* \"#utility.yul\":10780:10785   */\n      dup2\n        /* \"#utility.yul\":10769:10785   */\n      swap1\n      pop\n        /* \"#utility.yul\":10714:10791   */\n      swap2\n      swap1\n      pop\n      jump\t// out\n        /* \"#utility.yul\":10797:10919   */\n    tag_179:\n        /* \"#utility.yul\":10870:10894   */\n      tag_333\n        /* \"#utility.yul\":10888:10893   */\n      dup2\n        /* \"#utility.yul\":10870:10894   */\n      tag_178\n      jump\t// in\n    tag_333:\n        /* \"#utility.yul\":10863:10868   */\n      dup2\n        /* \"#utility.yul\":10860:10895   */\n      eq\n        /* \"#utility.yul\":10850:10913   */\n      tag_334\n      jumpi\n        /* \"#utility.yul\":10909:10910   */\n      0x00\n        /* \"#utility.yul\":10906:10907   */\n      dup1\n        /* \"#utility.yul\":10899:10911   */\n      revert\n        /* \"#utility.yul\":10850:10913   */\n    tag_334:\n        /* \"#utility.yul\":10797:10919   */\n      pop\n      jump\t// out\n        /* \"#utility.yul\":10925:11064   */\n    tag_180:\n        /* \"#utility.yul\":10971:10976   */\n      0x00\n        /* \"#utility.yul\":11009:11015   */\n      dup2\n        /* \"#utility.yul\":10996:11016   */\n      calldataload\n        /* \"#utility.yul\":10987:11016   */\n      swap1\n      pop\n        /* \"#utility.yul\":11025:11058   */\n      tag_336\n        /* \"#utility.yul\":11052:11057   */\n      dup2\n        /* \"#utility.yul\":11025:11058   */\n      tag_179\n      jump\t// in\n    tag_336:\n        /* \"#utility.yul\":10925:11064   */\n      swap3\n      swap2\n      pop\n      pop\n      jump\t// out\n        /* \"#utility.yul\":11070:12127   */\n    tag_38:\n        /* \"#utility.yul\":11206:11212   */\n      0x00\n        /* \"#utility.yul\":11214:11220   */\n      dup1\n        /* \"#utility.yul\":11222:11228   */\n      0x00\n        /* \"#utility.yul\":11271:11273   */\n      0x60\n        /* \"#utility.yul\":11259:11268   */\n      dup5\n        /* \"#utility.yul\":11250:11257   */\n      dup7\n        /* \"#utility.yul\":11246:11269   */\n      sub\n        /* \"#utility.yul\":11242:11274   */\n      slt\n        /* \"#utility.yul\":11239:11358   */\n      iszero\n      tag_338\n      jumpi\n        /* \"#utility.yul\":11277:11356   */\n      tag_339\n      tag_144\n      jump\t// in\n    tag_339:\n        /* \"#utility.yul\":11239:11358   */\n    tag_338:\n        /* \"#utility.yul\":11425:11426   */\n      0x00\n        /* \"#utility.yul\":11414:11423   */\n      dup5\n        /* \"#utility.yul\":11410:11427   */\n      add\n        /* \"#utility.yul\":11397:11428   */\n      calldataload\n        /* \"#utility.yul\":11455:11473   */\n      0xffffffffffffffff\n        /* \"#utility.yul\":11447:11453   */\n      dup2\n        /* \"#utility.yul\":11444:11474   */\n      gt\n        /* \"#utility.yul\":11441:11558   */\n      iszero\n      tag_340\n      jumpi\n        /* \"#utility.yul\":11477:11556   */\n      tag_341\n      tag_145\n      jump\t// in\n    tag_341:\n        /* \"#utility.yul\":11441:11558   */\n    tag_340:\n        /* \"#utility.yul\":11582:11660   */\n      tag_342\n        /* \"#utility.yul\":11652:11659   */\n      dup7\n        /* \"#utility.yul\":11643:11649   */\n      dup3\n        /* \"#utility.yul\":11632:11641   */\n      dup8\n        /* \"#utility.yul\":11628:11650   */\n      add\n        /* \"#utility.yul\":11582:11660   */\n      tag_158\n      jump\t// in\n    tag_342:\n        /* \"#utility.yul\":11572:11660   */\n      swap4\n      pop\n        /* \"#utility.yul\":11368:11670   */\n      pop\n        /* \"#utility.yul\":11737:11739   */\n      0x20\n        /* \"#utility.yul\":11726:11735   */\n      dup5\n        /* \"#utility.yul\":11722:11740   */\n      add\n        /* \"#utility.yul\":11709:11741   */\n      calldataload\n        /* \"#utility.yul\":11768:11786   */\n      0xffffffffffffffff\n        /* \"#utility.yul\":11760:11766   */\n      dup2\n        /* \"#utility.yul\":11757:11787   */\n      gt\n        /* \"#utility.yul\":11754:11871   */\n      iszero\n      tag_343\n      jumpi\n        /* \"#utility.yul\":11790:11869   */\n      tag_344\n      tag_145\n      jump\t// in\n    tag_344:\n        /* \"#utility.yul\":11754:11871   */\n    tag_343:\n        /* \"#utility.yul\":11895:11982   */\n      tag_345\n        /* \"#utility.yul\":11974:11981   */\n      dup7\n        /* \"#utility.yul\":11965:11971   */\n      dup3\n        /* \"#utility.yul\":11954:11963   */\n      dup8\n        /* \"#utility.yul\":11950:11972   */\n      add\n        /* \"#utility.yul\":11895:11982   */\n      tag_166\n      jump\t// in\n    tag_345:\n        /* \"#utility.yul\":11885:11982   */\n      swap3\n      pop\n        /* \"#utility.yul\":11680:11992   */\n      pop\n        /* \"#utility.yul\":12031:12033   */\n      0x40\n        /* \"#utility.yul\":12057:12110   */\n      tag_346\n        /* \"#utility.yul\":12102:12109   */\n      dup7\n        /* \"#utility.yul\":12093:12099   */\n      dup3\n        /* \"#utility.yul\":12082:12091   */\n      dup8\n        /* \"#utility.yul\":12078:12100   */\n      add\n        /* \"#utility.yul\":12057:12110   */\n      tag_180\n      jump\t// in\n    tag_346:\n        /* \"#utility.yul\":12047:12110   */\n      swap2\n      pop\n        /* \"#utility.yul\":12002:12120   */\n      pop\n        /* \"#utility.yul\":11070:12127   */\n      swap3\n      pop\n      swap3\n      pop\n      swap3\n      jump\t// out\n        /* \"#utility.yul\":12133:13808   */\n    tag_49:\n        /* \"#utility.yul\":12306:12312   */\n      0x00\n        /* \"#utility.yul\":12314:12320   */\n      dup1\n        /* \"#utility.yul\":12322:12328   */\n      0x00\n        /* \"#utility.yul\":12330:12336   */\n      dup1\n        /* \"#utility.yul\":12338:12344   */\n      0x00\n        /* \"#utility.yul\":12346:12352   */\n      dup1\n        /* \"#utility.yul\":12395:12398   */\n      0xc0\n        /* \"#utility.yul\":12383:12392   */\n      dup8\n        /* \"#utility.yul\":12374:12381   */\n      dup10\n        /* \"#utility.yul\":12370:12393   */\n      sub\n        /* \"#utility.yul\":12366:12399   */\n      slt\n        /* \"#utility.yul\":12363:12483   */\n      iszero\n      tag_348\n      jumpi\n        /* \"#utility.yul\":12402:12481   */\n      tag_349\n      tag_144\n      jump\t// in\n    tag_349:\n        /* \"#utility.yul\":12363:12483   */\n    tag_348:\n        /* \"#utility.yul\":12522:12523   */\n      0x00\n        /* \"#utility.yul\":12547:12600   */\n      tag_350\n        /* \"#utility.yul\":12592:12599   */\n      dup10\n        /* \"#utility.yul\":12583:12589   */\n      dup3\n        /* \"#utility.yul\":12572:12581   */\n      dup11\n        /* \"#utility.yul\":12568:12590   */\n      add\n        /* \"#utility.yul\":12547:12600   */\n      tag_173\n      jump\t// in\n    tag_350:\n        /* \"#utility.yul\":12537:12600   */\n      swap7\n      pop\n        /* \"#utility.yul\":12493:12610   */\n      pop\n        /* \"#utility.yul\":12649:12651   */\n      0x20\n        /* \"#utility.yul\":12675:12728   */\n      tag_351\n        /* \"#utility.yul\":12720:12727   */\n      dup10\n        /* \"#utility.yul\":12711:12717   */\n      dup3\n        /* \"#utility.yul\":12700:12709   */\n      dup11\n        /* \"#utility.yul\":12696:12718   */\n      add\n        /* \"#utility.yul\":12675:12728   */\n      tag_173\n      jump\t// in\n    tag_351:\n        /* \"#utility.yul\":12665:12728   */\n      swap6\n      pop\n        /* \"#utility.yul\":12620:12738   */\n      pop\n        /* \"#utility.yul\":12777:12779   */\n      0x40\n        /* \"#utility.yul\":12803:12856   */\n      tag_352\n        /* \"#utility.yul\":12848:12855   */\n      dup10\n        /* \"#utility.yul\":12839:12845   */\n      dup3\n        /* \"#utility.yul\":12828:12837   */\n      dup11\n        /* \"#utility.yul\":12824:12846   */\n      add\n        /* \"#utility.yul\":12803:12856   */\n      tag_173\n      jump\t// in\n    tag_352:\n        /* \"#utility.yul\":12793:12856   */\n      swap5\n      pop\n        /* \"#utility.yul\":12748:12866   */\n      pop\n        /* \"#utility.yul\":12933:12935   */\n      0x60\n        /* \"#utility.yul\":12922:12931   */\n      dup8\n        /* \"#utility.yul\":12918:12936   */\n      add\n        /* \"#utility.yul\":12905:12937   */\n      calldataload\n        /* \"#utility.yul\":12964:12982   */\n      0xffffffffffffffff\n        /* \"#utility.yul\":12956:12962   */\n      dup2\n        /* \"#utility.yul\":12953:12983   */\n      gt\n        /* \"#utility.yul\":12950:13067   */\n      iszero\n      tag_353\n      jumpi\n        /* \"#utility.yul\":12986:13065   */\n      tag_354\n      tag_145\n      jump\t// in\n    tag_354:\n        /* \"#utility.yul\":12950:13067   */\n    tag_353:\n        /* \"#utility.yul\":13091:13169   */\n      tag_355\n        /* \"#utility.yul\":13161:13168   */\n      dup10\n        /* \"#utility.yul\":13152:13158   */\n      dup3\n        /* \"#utility.yul\":13141:13150   */\n      dup11\n        /* \"#utility.yul\":13137:13159   */\n      add\n        /* \"#utility.yul\":13091:13169   */\n      tag_158\n      jump\t// in\n    tag_355:\n        /* \"#utility.yul\":13081:13169   */\n      swap4\n      pop\n        /* \"#utility.yul\":12876:13179   */\n      pop\n        /* \"#utility.yul\":13246:13249   */\n      0x80\n        /* \"#utility.yul\":13235:13244   */\n      dup8\n        /* \"#utility.yul\":13231:13250   */\n      add\n        /* \"#utility.yul\":13218:13251   */\n      calldataload\n        /* \"#utility.yul\":13278:13296   */\n      0xffffffffffffffff\n        /* \"#utility.yul\":13270:13276   */\n      dup2\n        /* \"#utility.yul\":13267:13297   */\n      gt\n        /* \"#utility.yul\":13264:13381   */\n      iszero\n      tag_356\n      jumpi\n        /* \"#utility.yul\":13300:13379   */\n      tag_357\n      tag_145\n      jump\t// in\n    tag_357:\n        /* \"#utility.yul\":13264:13381   */\n    tag_356:\n        /* \"#utility.yul\":13405:13492   */\n      tag_358\n        /* \"#utility.yul\":13484:13491   */\n      dup10\n        /* \"#utility.yul\":13475:13481   */\n      dup3\n        /* \"#utility.yul\":13464:13473   */\n      dup11\n        /* \"#utility.yul\":13460:13482   */\n      add\n        /* \"#utility.yul\":13405:13492   */\n      tag_166\n      jump\t// in\n    tag_358:\n        /* \"#utility.yul\":13395:13492   */\n      swap3\n      pop\n        /* \"#utility.yul\":13189:13502   */\n      pop\n        /* \"#utility.yul\":13569:13572   */\n      0xa0\n        /* \"#utility.yul\":13558:13567   */\n      dup8\n        /* \"#utility.yul\":13554:13573   */\n      add\n        /* \"#utility.yul\":13541:13574   */\n      calldataload\n        /* \"#utility.yul\":13601:13619   */\n      0xffffffffffffffff\n        /* \"#utility.yul\":13593:13599   */\n      dup2\n        /* \"#utility.yul\":13590:13620   */\n      gt\n        /* \"#utility.yul\":13587:13704   */\n      iszero\n      tag_359\n      jumpi\n        /* \"#utility.yul\":13623:13702   */\n      tag_360\n      tag_145\n      jump\t// in\n    tag_360:\n        /* \"#utility.yul\":13587:13704   */\n    tag_359:\n        /* \"#utility.yul\":13728:13791   */\n      tag_361\n        /* \"#utility.yul\":13783:13790   */\n      dup10\n        /* \"#utility.yul\":13774:13780   */\n      dup3\n        /* \"#utility.yul\":13763:13772   */\n      dup11\n        /* \"#utility.yul\":13759:13781   */\n      add\n        /* \"#utility.yul\":13728:13791   */\n      tag_169\n      jump\t// in\n    tag_361:\n        /* \"#utility.yul\":13718:13791   */\n      swap2\n      pop\n        /* \"#utility.yul\":13512:13801   */\n      pop\n        /* \"#utility.yul\":12133:13808   */\n      swap3\n      swap6\n      pop\n      swap3\n      swap6\n      pop\n      swap3\n      swap6\n      jump\t// out\n        /* \"#utility.yul\":13814:14288   */\n    tag_55:\n        /* \"#utility.yul\":13882:13888   */\n      0x00\n        /* \"#utility.yul\":13890:13896   */\n      dup1\n        /* \"#utility.yul\":13939:13941   */\n      0x40\n        /* \"#utility.yul\":13927:13936   */\n      dup4\n        /* \"#utility.yul\":13918:13925   */\n      dup6\n        /* \"#utility.yul\":13914:13937   */\n      sub\n        /* \"#utility.yul\":13910:13942   */\n      slt\n        /* \"#utility.yul\":13907:14026   */\n      iszero\n      tag_363\n      jumpi\n        /* \"#utility.yul\":13945:14024   */\n      tag_364\n      tag_144\n      jump\t// in\n    tag_364:\n        /* \"#utility.yul\":13907:14026   */\n    tag_363:\n        /* \"#utility.yul\":14065:14066   */\n      0x00\n        /* \"#utility.yul\":14090:14143   */\n      tag_365\n        /* \"#utility.yul\":14135:14142   */\n      dup6\n        /* \"#utility.yul\":14126:14132   */\n      dup3\n        /* \"#utility.yul\":14115:14124   */\n      dup7\n        /* \"#utility.yul\":14111:14133   */\n      add\n        /* \"#utility.yul\":14090:14143   */\n      tag_173\n      jump\t// in\n    tag_365:\n        /* \"#utility.yul\":14080:14143   */\n      swap3\n      pop\n        /* \"#utility.yul\":14036:14153   */\n      pop\n        /* \"#utility.yul\":14192:14194   */\n      0x20\n        /* \"#utility.yul\":14218:14271   */\n      tag_366\n        /* \"#utility.yul\":14263:14270   */\n      dup6\n        /* \"#utility.yul\":14254:14260   */\n      dup3\n        /* \"#utility.yul\":14243:14252   */\n      dup7\n        /* \"#utility.yul\":14239:14261   */\n      add\n        /* \"#utility.yul\":14218:14271   */\n      tag_173\n      jump\t// in\n    tag_366:\n        /* \"#utility.yul\":14208:14271   */\n      swap2\n      pop\n        /* \"#utility.yul\":14163:14281   */\n      pop\n        /* \"#utility.yul\":13814:14288   */\n      swap3\n      pop\n      swap3\n      swap1\n      pop\n      jump\t// out\n        /* \"#utility.yul\":14294:14463   */\n    tag_181:\n        /* \"#utility.yul\":14378:14389   */\n      0x00\n        /* \"#utility.yul\":14412:14418   */\n      dup3\n        /* \"#utility.yul\":14407:14410   */\n      dup3\n        /* \"#utility.yul\":14400:14419   */\n      mstore\n        /* \"#utility.yul\":14452:14456   */\n      0x20\n        /* \"#utility.yul\":14447:14450   */\n      dup3\n        /* \"#utility.yul\":14443:14457   */\n      add\n        /* \"#utility.yul\":14428:14457   */\n      swap1\n      pop\n        /* \"#utility.yul\":14294:14463   */\n      swap3\n      swap2\n      pop\n      pop\n      jump\t// out\n        /* \"#utility.yul\":14469:14689   */\n    tag_182:\n        /* \"#utility.yul\":14609:14643   */\n      0x476f7665726e6f723a2070726f706f73616c206e6f7420737563636573736675\n        /* \"#utility.yul\":14605:14606   */\n      0x00\n        /* \"#utility.yul\":14597:14603   */\n      dup3\n        /* \"#utility.yul\":14593:14607   */\n      add\n        /* \"#utility.yul\":14586:14644   */\n      mstore\n        /* \"#utility.yul\":14678:14681   */\n      0x6c00000000000000000000000000000000000000000000000000000000000000\n        /* \"#utility.yul\":14673:14675   */\n      0x20\n        /* \"#utility.yul\":14665:14671   */\n      dup3\n        /* \"#utility.yul\":14661:14676   */\n      add\n        /* \"#utility.yul\":14654:14682   */\n      mstore\n        /* \"#utility.yul\":14469:14689   */\n      pop\n      jump\t// out\n        /* \"#utility.yul\":14695:15061   */\n    tag_183:\n        /* \"#utility.yul\":14837:14840   */\n      0x00\n        /* \"#utility.yul\":14858:14925   */\n      tag_370\n        /* \"#utility.yul\":14922:14924   */\n      0x21\n        /* \"#utility.yul\":14917:14920   */\n      dup4\n        /* \"#utility.yul\":14858:14925   */\n      tag_181\n      jump\t// in\n    tag_370:\n        /* \"#utility.yul\":14851:14925   */\n      swap2\n      pop\n        /* \"#utility.yul\":14934:15027   */\n      tag_371\n        /* \"#utility.yul\":15023:15026   */\n      dup3\n        /* \"#utility.yul\":14934:15027   */\n      tag_182\n      jump\t// in\n    tag_371:\n        /* \"#utility.yul\":15052:15054   */\n      0x40\n        /* \"#utility.yul\":15047:15050   */\n      dup3\n        /* \"#utility.yul\":15043:15055   */\n      add\n        /* \"#utility.yul\":15036:15055   */\n      swap1\n      pop\n        /* \"#utility.yul\":14695:15061   */\n      swap2\n      swap1\n      pop\n      jump\t// out\n        /* \"#utility.yul\":15067:15486   */\n    tag_72:\n        /* \"#utility.yul\":15233:15237   */\n      0x00\n        /* \"#utility.yul\":15271:15273   */\n      0x20\n        /* \"#utility.yul\":15260:15269   */\n      dup3\n        /* \"#utility.yul\":15256:15274   */\n      add\n        /* \"#utility.yul\":15248:15274   */\n      swap1\n      pop\n        /* \"#utility.yul\":15320:15329   */\n      dup2\n        /* \"#utility.yul\":15314:15318   */\n      dup2\n        /* \"#utility.yul\":15310:15330   */\n      sub\n        /* \"#utility.yul\":15306:15307   */\n      0x00\n        /* \"#utility.yul\":15295:15304   */\n      dup4\n        /* \"#utility.yul\":15291:15308   */\n      add\n        /* \"#utility.yul\":15284:15331   */\n      mstore\n        /* \"#utility.yul\":15348:15479   */\n      tag_373\n        /* \"#utility.yul\":15474:15478   */\n      dup2\n        /* \"#utility.yul\":15348:15479   */\n      tag_183\n      jump\t// in\n    tag_373:\n        /* \"#utility.yul\":15340:15479   */\n      swap1\n      pop\n        /* \"#utility.yul\":15067:15486   */\n      swap2\n      swap1\n      pop\n      jump\t// out\n        /* \"#utility.yul\":15492:15606   */\n    tag_184:\n        /* \"#utility.yul\":15559:15565   */\n      0x00\n        /* \"#utility.yul\":15593:15598   */\n      dup2\n        /* \"#utility.yul\":15587:15599   */\n      mload\n        /* \"#utility.yul\":15577:15599   */\n      swap1\n      pop\n        /* \"#utility.yul\":15492:15606   */\n      swap2\n      swap1\n      pop\n      jump\t// out\n        /* \"#utility.yul\":15612:15796   */\n    tag_185:\n        /* \"#utility.yul\":15711:15722   */\n      0x00\n        /* \"#utility.yul\":15745:15751   */\n      dup3\n        /* \"#utility.yul\":15740:15743   */\n      dup3\n        /* \"#utility.yul\":15733:15752   */\n      mstore\n        /* \"#utility.yul\":15785:15789   */\n      0x20\n        /* \"#utility.yul\":15780:15783   */\n      dup3\n        /* \"#utility.yul\":15776:15790   */\n      add\n        /* \"#utility.yul\":15761:15790   */\n      swap1\n      pop\n        /* \"#utility.yul\":15612:15796   */\n      swap3\n      swap2\n      pop\n      pop\n      jump\t// out\n        /* \"#utility.yul\":15802:15934   */\n    tag_186:\n        /* \"#utility.yul\":15869:15873   */\n      0x00\n        /* \"#utility.yul\":15892:15895   */\n      dup2\n        /* \"#utility.yul\":15884:15895   */\n      swap1\n      pop\n        /* \"#utility.yul\":15922:15926   */\n      0x20\n        /* \"#utility.yul\":15917:15920   */\n      dup3\n        /* \"#utility.yul\":15913:15927   */\n      add\n        /* \"#utility.yul\":15905:15927   */\n      swap1\n      pop\n        /* \"#utility.yul\":15802:15934   */\n      swap2\n      swap1\n      pop\n      jump\t// out\n        /* \"#utility.yul\":15940:16048   */\n    tag_187:\n        /* \"#utility.yul\":16017:16041   */\n      tag_378\n        /* \"#utility.yul\":16035:16040   */\n      dup2\n        /* \"#utility.yul\":16017:16041   */\n      tag_154\n      jump\t// in\n    tag_378:\n        /* \"#utility.yul\":16012:16015   */\n      dup3\n        /* \"#utility.yul\":16005:16042   */\n      mstore\n        /* \"#utility.yul\":15940:16048   */\n      pop\n      pop\n      jump\t// out\n        /* \"#utility.yul\":16054:16233   */\n    tag_188:\n        /* \"#utility.yul\":16123:16133   */\n      0x00\n        /* \"#utility.yul\":16144:16190   */\n      tag_380\n        /* \"#utility.yul\":16186:16189   */\n      dup4\n        /* \"#utility.yul\":16178:16184   */\n      dup4\n        /* \"#utility.yul\":16144:16190   */\n      tag_187\n      jump\t// in\n    tag_380:\n        /* \"#utility.yul\":16222:16226   */\n      0x20\n        /* \"#utility.yul\":16217:16220   */\n      dup4\n        /* \"#utility.yul\":16213:16227   */\n      add\n        /* \"#utility.yul\":16199:16227   */\n      swap1\n      pop\n        /* \"#utility.yul\":16054:16233   */\n      swap3\n      swap2\n      pop\n      pop\n      jump\t// out\n        /* \"#utility.yul\":16239:16352   */\n    tag_189:\n        /* \"#utility.yul\":16309:16313   */\n      0x00\n        /* \"#utility.yul\":16341:16345   */\n      0x20\n        /* \"#utility.yul\":16336:16339   */\n      dup3\n        /* \"#utility.yul\":16332:16346   */\n      add\n        /* \"#utility.yul\":16324:16346   */\n      swap1\n      pop\n        /* \"#utility.yul\":16239:16352   */\n      swap2\n      swap1\n      pop\n      jump\t// out\n        /* \"#utility.yul\":16388:17120   */\n    tag_190:\n        /* \"#utility.yul\":16507:16510   */\n      0x00\n        /* \"#utility.yul\":16536:16590   */\n      tag_383\n        /* \"#utility.yul\":16584:16589   */\n      dup3\n        /* \"#utility.yul\":16536:16590   */\n      tag_184\n      jump\t// in\n    tag_383:\n        /* \"#utility.yul\":16606:16692   */\n      tag_384\n        /* \"#utility.yul\":16685:16691   */\n      dup2\n        /* \"#utility.yul\":16680:16683   */\n      dup6\n        /* \"#utility.yul\":16606:16692   */\n      tag_185\n      jump\t// in\n    tag_384:\n        /* \"#utility.yul\":16599:16692   */\n      swap4\n      pop\n        /* \"#utility.yul\":16716:16772   */\n      tag_385\n        /* \"#utility.yul\":16766:16771   */\n      dup4\n        /* \"#utility.yul\":16716:16772   */\n      tag_186\n      jump\t// in\n    tag_385:\n        /* \"#utility.yul\":16795:16802   */\n      dup1\n        /* \"#utility.yul\":16826:16827   */\n      0x00\n        /* \"#utility.yul\":16811:17095   */\n    tag_386:\n        /* \"#utility.yul\":16836:16842   */\n      dup4\n        /* \"#utility.yul\":16833:16834   */\n      dup2\n        /* \"#utility.yul\":16830:16843   */\n      lt\n        /* \"#utility.yul\":16811:17095   */\n      iszero\n      tag_388\n      jumpi\n        /* \"#utility.yul\":16912:16918   */\n      dup2\n        /* \"#utility.yul\":16906:16919   */\n      mload\n        /* \"#utility.yul\":16939:17002   */\n      tag_389\n        /* \"#utility.yul\":16998:17001   */\n      dup9\n        /* \"#utility.yul\":16983:16996   */\n      dup3\n        /* \"#utility.yul\":16939:17002   */\n      tag_188\n      jump\t// in\n    tag_389:\n        /* \"#utility.yul\":16932:17002   */\n      swap8\n      pop\n        /* \"#utility.yul\":17025:17085   */\n      tag_390\n        /* \"#utility.yul\":17078:17084   */\n      dup4\n        /* \"#utility.yul\":17025:17085   */\n      tag_189\n      jump\t// in\n    tag_390:\n        /* \"#utility.yul\":17015:17085   */\n      swap3\n      pop\n        /* \"#utility.yul\":16871:17095   */\n      pop\n        /* \"#utility.yul\":16858:16859   */\n      0x01\n        /* \"#utility.yul\":16855:16856   */\n      dup2\n        /* \"#utility.yul\":16851:16860   */\n      add\n        /* \"#utility.yul\":16846:16860   */\n      swap1\n      pop\n        /* \"#utility.yul\":16811:17095   */\n      jump(tag_386)\n    tag_388:\n        /* \"#utility.yul\":16815:16829   */\n      pop\n        /* \"#utility.yul\":17111:17114   */\n      dup6\n        /* \"#utility.yul\":17104:17114   */\n      swap4\n      pop\n        /* \"#utility.yul\":16512:17120   */\n      pop\n      pop\n      pop\n        /* \"#utility.yul\":16388:17120   */\n      swap3\n      swap2\n      pop\n      pop\n      jump\t// out\n        /* \"#utility.yul\":17126:17249   */\n    tag_191:\n        /* \"#utility.yul\":17202:17208   */\n      0x00\n        /* \"#utility.yul\":17236:17241   */\n      dup2\n        /* \"#utility.yul\":17230:17242   */\n      mload\n        /* \"#utility.yul\":17220:17242   */\n      swap1\n      pop\n        /* \"#utility.yul\":17126:17249   */\n      swap2\n      swap1\n      pop\n      jump\t// out\n        /* \"#utility.yul\":17255:17448   */\n    tag_192:\n        /* \"#utility.yul\":17363:17374   */\n      0x00\n        /* \"#utility.yul\":17397:17403   */\n      dup3\n        /* \"#utility.yul\":17392:17395   */\n      dup3\n        /* \"#utility.yul\":17385:17404   */\n      mstore\n        /* \"#utility.yul\":17437:17441   */\n      0x20\n        /* \"#utility.yul\":17432:17435   */\n      dup3\n        /* \"#utility.yul\":17428:17442   */\n      add\n        /* \"#utility.yul\":17413:17442   */\n      swap1\n      pop\n        /* \"#utility.yul\":17255:17448   */\n      swap3\n      swap2\n      pop\n      pop\n      jump\t// out\n        /* \"#utility.yul\":17454:17595   */\n    tag_193:\n        /* \"#utility.yul\":17530:17534   */\n      0x00\n        /* \"#utility.yul\":17553:17556   */\n      dup2\n        /* \"#utility.yul\":17545:17556   */\n      swap1\n      pop\n        /* \"#utility.yul\":17583:17587   */\n      0x20\n        /* \"#utility.yul\":17578:17581   */\n      dup3\n        /* \"#utility.yul\":17574:17588   */\n      add\n        /* \"#utility.yul\":17566:17588   */\n      swap1\n      pop\n        /* \"#utility.yul\":17454:17595   */\n      swap2\n      swap1\n      pop\n      jump\t// out\n        /* \"#utility.yul\":17601:17699   */\n    tag_194:\n        /* \"#utility.yul\":17652:17658   */\n      0x00\n        /* \"#utility.yul\":17686:17691   */\n      dup2\n        /* \"#utility.yul\":17680:17692   */\n      mload\n        /* \"#utility.yul\":17670:17692   */\n      swap1\n      pop\n        /* \"#utility.yul\":17601:17699   */\n      swap2\n      swap1\n      pop\n      jump\t// out\n        /* \"#utility.yul\":17705:17863   */\n    tag_195:\n        /* \"#utility.yul\":17778:17789   */\n      0x00\n        /* \"#utility.yul\":17812:17818   */\n      dup3\n        /* \"#utility.yul\":17807:17810   */\n      dup3\n        /* \"#utility.yul\":17800:17819   */\n      mstore\n        /* \"#utility.yul\":17852:17856   */\n      0x20\n        /* \"#utility.yul\":17847:17850   */\n      dup3\n        /* \"#utility.yul\":17843:17857   */\n      add\n        /* \"#utility.yul\":17828:17857   */\n      swap1\n      pop\n        /* \"#utility.yul\":17705:17863   */\n      swap3\n      swap2\n      pop\n      pop\n      jump\t// out\n        /* \"#utility.yul\":17869:18176   */\n    tag_196:\n        /* \"#utility.yul\":17937:17938   */\n      0x00\n        /* \"#utility.yul\":17947:18060   */\n    tag_397:\n        /* \"#utility.yul\":17961:17967   */\n      dup4\n        /* \"#utility.yul\":17958:17959   */\n      dup2\n        /* \"#utility.yul\":17955:17968   */\n      lt\n        /* \"#utility.yul\":17947:18060   */\n      iszero\n      tag_399\n      jumpi\n        /* \"#utility.yul\":18046:18047   */\n      dup1\n        /* \"#utility.yul\":18041:18044   */\n      dup3\n        /* \"#utility.yul\":18037:18048   */\n      add\n        /* \"#utility.yul\":18031:18049   */\n      mload\n        /* \"#utility.yul\":18027:18028   */\n      dup2\n        /* \"#utility.yul\":18022:18025   */\n      dup5\n        /* \"#utility.yul\":18018:18029   */\n      add\n        /* \"#utility.yul\":18011:18050   */\n      mstore\n        /* \"#utility.yul\":17983:17985   */\n      0x20\n        /* \"#utility.yul\":17980:17981   */\n      dup2\n        /* \"#utility.yul\":17976:17986   */\n      add\n        /* \"#utility.yul\":17971:17986   */\n      swap1\n      pop\n        /* \"#utility.yul\":17947:18060   */\n      jump(tag_397)\n    tag_399:\n        /* \"#utility.yul\":18078:18084   */\n      dup4\n        /* \"#utility.yul\":18075:18076   */\n      dup2\n        /* \"#utility.yul\":18072:18085   */\n      gt\n        /* \"#utility.yul\":18069:18170   */\n      iszero\n      tag_400\n      jumpi\n        /* \"#utility.yul\":18158:18159   */\n      0x00\n        /* \"#utility.yul\":18149:18155   */\n      dup5\n        /* \"#utility.yul\":18144:18147   */\n      dup5\n        /* \"#utility.yul\":18140:18156   */\n      add\n        /* \"#utility.yul\":18133:18160   */\n      mstore\n        /* \"#utility.yul\":18069:18170   */\n    tag_400:\n        /* \"#utility.yul\":17918:18176   */\n      pop\n        /* \"#utility.yul\":17869:18176   */\n      pop\n      pop\n      pop\n      jump\t// out\n        /* \"#utility.yul\":18182:18522   */\n    tag_197:\n        /* \"#utility.yul\":18258:18261   */\n      0x00\n        /* \"#utility.yul\":18286:18324   */\n      tag_402\n        /* \"#utility.yul\":18318:18323   */\n      dup3\n        /* \"#utility.yul\":18286:18324   */\n      tag_194\n      jump\t// in\n    tag_402:\n        /* \"#utility.yul\":18340:18400   */\n      tag_403\n        /* \"#utility.yul\":18393:18399   */\n      dup2\n        /* \"#utility.yul\":18388:18391   */\n      dup6\n        /* \"#utility.yul\":18340:18400   */\n      tag_195\n      jump\t// in\n    tag_403:\n        /* \"#utility.yul\":18333:18400   */\n      swap4\n      pop\n        /* \"#utility.yul\":18409:18461   */\n      tag_404\n        /* \"#utility.yul\":18454:18460   */\n      dup2\n        /* \"#utility.yul\":18449:18452   */\n      dup6\n        /* \"#utility.yul\":18442:18446   */\n      0x20\n        /* \"#utility.yul\":18435:18440   */\n      dup7\n        /* \"#utility.yul\":18431:18447   */\n      add\n        /* \"#utility.yul\":18409:18461   */\n      tag_196\n      jump\t// in\n    tag_404:\n        /* \"#utility.yul\":18486:18515   */\n      tag_405\n        /* \"#utility.yul\":18508:18514   */\n      dup2\n        /* \"#utility.yul\":18486:18515   */\n      tag_147\n      jump\t// in\n    tag_405:\n        /* \"#utility.yul\":18481:18484   */\n      dup5\n        /* \"#utility.yul\":18477:18516   */\n      add\n        /* \"#utility.yul\":18470:18516   */\n      swap2\n      pop\n        /* \"#utility.yul\":18262:18522   */\n      pop\n        /* \"#utility.yul\":18182:18522   */\n      swap3\n      swap2\n      pop\n      pop\n      jump\t// out\n        /* \"#utility.yul\":18528:18720   */\n    tag_198:\n        /* \"#utility.yul\":18615:18625   */\n      0x00\n        /* \"#utility.yul\":18650:18714   */\n      tag_407\n        /* \"#utility.yul\":18710:18713   */\n      dup4\n        /* \"#utility.yul\":18702:18708   */\n      dup4\n        /* \"#utility.yul\":18650:18714   */\n      tag_197\n      jump\t// in\n    tag_407:\n        /* \"#utility.yul\":18636:18714   */\n      swap1\n      pop\n        /* \"#utility.yul\":18528:18720   */\n      swap3\n      swap2\n      pop\n      pop\n      jump\t// out\n        /* \"#utility.yul\":18726:18848   */\n    tag_199:\n        /* \"#utility.yul\":18805:18809   */\n      0x00\n        /* \"#utility.yul\":18837:18841   */\n      0x20\n        /* \"#utility.yul\":18832:18835   */\n      dup3\n        /* \"#utility.yul\":18828:18842   */\n      add\n        /* \"#utility.yul\":18820:18842   */\n      swap1\n      pop\n        /* \"#utility.yul\":18726:18848   */\n      swap2\n      swap1\n      pop\n      jump\t// out\n        /* \"#utility.yul\":18880:19863   */\n    tag_200:\n        /* \"#utility.yul\":19017:19020   */\n      0x00\n        /* \"#utility.yul\":19046:19109   */\n      tag_410\n        /* \"#utility.yul\":19103:19108   */\n      dup3\n        /* \"#utility.yul\":19046:19109   */\n      tag_191\n      jump\t// in\n    tag_410:\n        /* \"#utility.yul\":19125:19220   */\n      tag_411\n        /* \"#utility.yul\":19213:19219   */\n      dup2\n        /* \"#utility.yul\":19208:19211   */\n      dup6\n        /* \"#utility.yul\":19125:19220   */\n      tag_192\n      jump\t// in\n    tag_411:\n        /* \"#utility.yul\":19118:19220   */\n      swap4\n      pop\n        /* \"#utility.yul\":19246:19249   */\n      dup4\n        /* \"#utility.yul\":19291:19295   */\n      0x20\n        /* \"#utility.yul\":19283:19289   */\n      dup3\n        /* \"#utility.yul\":19279:19296   */\n      mul\n        /* \"#utility.yul\":19274:19277   */\n      dup6\n        /* \"#utility.yul\":19270:19297   */\n      add\n        /* \"#utility.yul\":19321:19386   */\n      tag_412\n        /* \"#utility.yul\":19380:19385   */\n      dup6\n        /* \"#utility.yul\":19321:19386   */\n      tag_193\n      jump\t// in\n    tag_412:\n        /* \"#utility.yul\":19409:19416   */\n      dup1\n        /* \"#utility.yul\":19440:19441   */\n      0x00\n        /* \"#utility.yul\":19425:19818   */\n    tag_413:\n        /* \"#utility.yul\":19450:19456   */\n      dup6\n        /* \"#utility.yul\":19447:19448   */\n      dup2\n        /* \"#utility.yul\":19444:19457   */\n      lt\n        /* \"#utility.yul\":19425:19818   */\n      iszero\n      tag_415\n      jumpi\n        /* \"#utility.yul\":19521:19530   */\n      dup5\n        /* \"#utility.yul\":19515:19519   */\n      dup5\n        /* \"#utility.yul\":19511:19531   */\n      sub\n        /* \"#utility.yul\":19506:19509   */\n      dup10\n        /* \"#utility.yul\":19499:19532   */\n      mstore\n        /* \"#utility.yul\":19572:19578   */\n      dup2\n        /* \"#utility.yul\":19566:19579   */\n      mload\n        /* \"#utility.yul\":19600:19682   */\n      tag_416\n        /* \"#utility.yul\":19677:19681   */\n      dup6\n        /* \"#utility.yul\":19662:19675   */\n      dup3\n        /* \"#utility.yul\":19600:19682   */\n      tag_198\n      jump\t// in\n    tag_416:\n        /* \"#utility.yul\":19592:19682   */\n      swap5\n      pop\n        /* \"#utility.yul\":19705:19774   */\n      tag_417\n        /* \"#utility.yul\":19767:19773   */\n      dup4\n        /* \"#utility.yul\":19705:19774   */\n      tag_199\n      jump\t// in\n    tag_417:\n        /* \"#utility.yul\":19695:19774   */\n      swap3\n      pop\n        /* \"#utility.yul\":19803:19807   */\n      0x20\n        /* \"#utility.yul\":19798:19801   */\n      dup11\n        /* \"#utility.yul\":19794:19808   */\n      add\n        /* \"#utility.yul\":19787:19808   */\n      swap10\n      pop\n        /* \"#utility.yul\":19485:19818   */\n      pop\n        /* \"#utility.yul\":19472:19473   */\n      0x01\n        /* \"#utility.yul\":19469:19470   */\n      dup2\n        /* \"#utility.yul\":19465:19474   */\n      add\n        /* \"#utility.yul\":19460:19474   */\n      swap1\n      pop\n        /* \"#utility.yul\":19425:19818   */\n      jump(tag_413)\n    tag_415:\n        /* \"#utility.yul\":19429:19443   */\n      pop\n        /* \"#utility.yul\":19834:19838   */\n      dup3\n        /* \"#utility.yul\":19827:19838   */\n      swap8\n      pop\n        /* \"#utility.yul\":19854:19857   */\n      dup8\n        /* \"#utility.yul\":19847:19857   */\n      swap6\n      pop\n        /* \"#utility.yul\":19022:19863   */\n      pop\n      pop\n      pop\n      pop\n      pop\n        /* \"#utility.yul\":18880:19863   */\n      swap3\n      swap2\n      pop\n      pop\n      jump\t// out\n        /* \"#utility.yul\":19869:19987   */\n    tag_201:\n        /* \"#utility.yul\":19956:19980   */\n      tag_419\n        /* \"#utility.yul\":19974:19979   */\n      dup2\n        /* \"#utility.yul\":19956:19980   */\n      tag_178\n      jump\t// in\n    tag_419:\n        /* \"#utility.yul\":19951:19954   */\n      dup3\n        /* \"#utility.yul\":19944:19981   */\n      mstore\n        /* \"#utility.yul\":19869:19987   */\n      pop\n      pop\n      jump\t// out\n        /* \"#utility.yul\":19993:20773   */\n    tag_91:\n        /* \"#utility.yul\":20260:20264   */\n      0x00\n        /* \"#utility.yul\":20298:20300   */\n      0x60\n        /* \"#utility.yul\":20287:20296   */\n      dup3\n        /* \"#utility.yul\":20283:20301   */\n      add\n        /* \"#utility.yul\":20275:20301   */\n      swap1\n      pop\n        /* \"#utility.yul\":20347:20356   */\n      dup2\n        /* \"#utility.yul\":20341:20345   */\n      dup2\n        /* \"#utility.yul\":20337:20357   */\n      sub\n        /* \"#utility.yul\":20333:20334   */\n      0x00\n        /* \"#utility.yul\":20322:20331   */\n      dup4\n        /* \"#utility.yul\":20318:20335   */\n      add\n        /* \"#utility.yul\":20311:20358   */\n      mstore\n        /* \"#utility.yul\":20375:20483   */\n      tag_421\n        /* \"#utility.yul\":20478:20482   */\n      dup2\n        /* \"#utility.yul\":20469:20475   */\n      dup7\n        /* \"#utility.yul\":20375:20483   */\n      tag_190\n      jump\t// in\n    tag_421:\n        /* \"#utility.yul\":20367:20483   */\n      swap1\n      pop\n        /* \"#utility.yul\":20530:20539   */\n      dup2\n        /* \"#utility.yul\":20524:20528   */\n      dup2\n        /* \"#utility.yul\":20520:20540   */\n      sub\n        /* \"#utility.yul\":20515:20517   */\n      0x20\n        /* \"#utility.yul\":20504:20513   */\n      dup4\n        /* \"#utility.yul\":20500:20518   */\n      add\n        /* \"#utility.yul\":20493:20541   */\n      mstore\n        /* \"#utility.yul\":20558:20684   */\n      tag_422\n        /* \"#utility.yul\":20679:20683   */\n      dup2\n        /* \"#utility.yul\":20670:20676   */\n      dup6\n        /* \"#utility.yul\":20558:20684   */\n      tag_200\n      jump\t// in\n    tag_422:\n        /* \"#utility.yul\":20550:20684   */\n      swap1\n      pop\n        /* \"#utility.yul\":20694:20766   */\n      tag_423\n        /* \"#utility.yul\":20762:20764   */\n      0x40\n        /* \"#utility.yul\":20751:20760   */\n      dup4\n        /* \"#utility.yul\":20747:20765   */\n      add\n        /* \"#utility.yul\":20738:20744   */\n      dup5\n        /* \"#utility.yul\":20694:20766   */\n      tag_201\n      jump\t// in\n    tag_423:\n        /* \"#utility.yul\":19993:20773   */\n      swap5\n      swap4\n      pop\n      pop\n      pop\n      pop\n      jump\t// out\n        /* \"#utility.yul\":20779:20959   */\n    tag_202:\n        /* \"#utility.yul\":20827:20904   */\n      0x4e487b7100000000000000000000000000000000000000000000000000000000\n        /* \"#utility.yul\":20824:20825   */\n      0x00\n        /* \"#utility.yul\":20817:20905   */\n      mstore\n        /* \"#utility.yul\":20924:20928   */\n      0x11\n        /* \"#utility.yul\":20921:20922   */\n      0x04\n        /* \"#utility.yul\":20914:20929   */\n      mstore\n        /* \"#utility.yul\":20948:20952   */\n      0x24\n        /* \"#utility.yul\":20945:20946   */\n      0x00\n        /* \"#utility.yul\":20938:20953   */\n      revert\n        /* \"#utility.yul\":20965:21313   */\n    tag_97:\n        /* \"#utility.yul\":21005:21012   */\n      0x00\n        /* \"#utility.yul\":21028:21048   */\n      tag_426\n        /* \"#utility.yul\":21046:21047   */\n      dup3\n        /* \"#utility.yul\":21028:21048   */\n      tag_170\n      jump\t// in\n    tag_426:\n        /* \"#utility.yul\":21023:21048   */\n      swap2\n      pop\n        /* \"#utility.yul\":21062:21082   */\n      tag_427\n        /* \"#utility.yul\":21080:21081   */\n      dup4\n        /* \"#utility.yul\":21062:21082   */\n      tag_170\n      jump\t// in\n    tag_427:\n        /* \"#utility.yul\":21057:21082   */\n      swap3\n      pop\n        /* \"#utility.yul\":21250:21251   */\n      dup2\n        /* \"#utility.yul\":21182:21248   */\n      0xffffffffffffffffffffffffffffffffffffffffffffffffffffffffffffffff\n        /* \"#utility.yul\":21178:21252   */\n      div\n        /* \"#utility.yul\":21175:21176   */\n      dup4\n        /* \"#utility.yul\":21172:21253   */\n      gt\n        /* \"#utility.yul\":21167:21168   */\n      dup3\n        /* \"#utility.yul\":21160:21169   */\n      iszero\n        /* \"#utility.yul\":21153:21170   */\n      iszero\n        /* \"#utility.yul\":21149:21254   */\n      and\n        /* \"#utility.yul\":21146:21277   */\n      iszero\n      tag_428\n      jumpi\n        /* \"#utility.yul\":21257:21275   */\n      tag_429\n      tag_202\n      jump\t// in\n    tag_429:\n        /* \"#utility.yul\":21146:21277   */\n    tag_428:\n        /* \"#utility.yul\":21305:21306   */\n      dup3\n        /* \"#utility.yul\":21302:21303   */\n      dup3\n        /* \"#utility.yul\":21298:21307   */\n      mul\n        /* \"#utility.yul\":21287:21307   */\n      swap1\n      pop\n        /* \"#utility.yul\":20965:21313   */\n      swap3\n      swap2\n      pop\n      pop\n      jump\t// out\n        /* \"#utility.yul\":21319:21624   */\n    tag_101:\n        /* \"#utility.yul\":21359:21362   */\n      0x00\n        /* \"#utility.yul\":21378:21398   */\n      tag_431\n        /* \"#utility.yul\":21396:21397   */\n      dup3\n        /* \"#utility.yul\":21378:21398   */\n      tag_170\n      jump\t// in\n    tag_431:\n        /* \"#utility.yul\":21373:21398   */\n      swap2\n      pop\n        /* \"#utility.yul\":21412:21432   */\n      tag_432\n        /* \"#utility.yul\":21430:21431   */\n      dup4\n        /* \"#utility.yul\":21412:21432   */\n      tag_170\n      jump\t// in\n    tag_432:\n        /* \"#utility.yul\":21407:21432   */\n      swap3\n      pop\n        /* \"#utility.yul\":21566:21567   */\n      dup3\n        /* \"#utility.yul\":21498:21564   */\n      0xffffffffffffffffffffffffffffffffffffffffffffffffffffffffffffffff\n        /* \"#utility.yul\":21494:21568   */\n      sub\n        /* \"#utility.yul\":21491:21492   */\n      dup3\n        /* \"#utility.yul\":21488:21569   */\n      gt\n        /* \"#utility.yul\":21485:21592   */\n      iszero\n      tag_433\n      jumpi\n        /* \"#utility.yul\":21572:21590   */\n      tag_434\n      tag_202\n      jump\t// in\n    tag_434:\n        /* \"#utility.yul\":21485:21592   */\n    tag_433:\n        /* \"#utility.yul\":21616:21617   */\n      dup3\n        /* \"#utility.yul\":21613:21614   */\n      dup3\n        /* \"#utility.yul\":21609:21618   */\n      add\n        /* \"#utility.yul\":21602:21618   */\n      swap1\n      pop\n        /* \"#utility.yul\":21319:21624   */\n      swap3\n      swap2\n      pop\n      pop\n      jump\t// out\n        /* \"#utility.yul\":21630:21810   */\n    tag_123:\n        /* \"#utility.yul\":21678:21755   */\n      0x4e487b7100000000000000000000000000000000000000000000000000000000\n        /* \"#utility.yul\":21675:21676   */\n      0x00\n        /* \"#utility.yul\":21668:21756   */\n      mstore\n        /* \"#utility.yul\":21775:21779   */\n      0x32\n        /* \"#utility.yul\":21772:21773   */\n      0x04\n        /* \"#utility.yul\":21765:21780   */\n      mstore\n        /* \"#utility.yul\":21799:21803   */\n      0x24\n        /* \"#utility.yul\":21796:21797   */\n      0x00\n        /* \"#utility.yul\":21789:21804   */\n      revert\n        /* \"#utility.yul\":21816:21996   */\n    tag_203:\n        /* \"#utility.yul\":21864:21941   */\n      0x4e487b7100000000000000000000000000000000000000000000000000000000\n        /* \"#utility.yul\":21861:21862   */\n      0x00\n        /* \"#utility.yul\":21854:21942   */\n      mstore\n        /* \"#utility.yul\":21961:21965   */\n      0x12\n        /* \"#utility.yul\":21958:21959   */\n      0x04\n        /* \"#utility.yul\":21951:21966   */\n      mstore\n        /* \"#utility.yul\":21985:21989   */\n      0x24\n        /* \"#utility.yul\":21982:21983   */\n      0x00\n        /* \"#utility.yul\":21975:21990   */\n      revert\n        /* \"#utility.yul\":22002:22187   */\n    tag_125:\n        /* \"#utility.yul\":22042:22043   */\n      0x00\n        /* \"#utility.yul\":22059:22079   */\n      tag_438\n        /* \"#utility.yul\":22077:22078   */\n      dup3\n        /* \"#utility.yul\":22059:22079   */\n      tag_170\n      jump\t// in\n    tag_438:\n        /* \"#utility.yul\":22054:22079   */\n      swap2\n      pop\n        /* \"#utility.yul\":22093:22113   */\n      tag_439\n        /* \"#utility.yul\":22111:22112   */\n      dup4\n        /* \"#utility.yul\":22093:22113   */\n      tag_170\n      jump\t// in\n    tag_439:\n        /* \"#utility.yul\":22088:22113   */\n      swap3\n      pop\n        /* \"#utility.yul\":22132:22133   */\n      dup3\n        /* \"#utility.yul\":22122:22157   */\n      tag_440\n      jumpi\n        /* \"#utility.yul\":22137:22155   */\n      tag_441\n      tag_203\n      jump\t// in\n    tag_441:\n        /* \"#utility.yul\":22122:22157   */\n    tag_440:\n        /* \"#utility.yul\":22179:22180   */\n      dup3\n        /* \"#utility.yul\":22176:22177   */\n      dup3\n        /* \"#utility.yul\":22172:22181   */\n      div\n        /* \"#utility.yul\":22167:22181   */\n      swap1\n      pop\n        /* \"#utility.yul\":22002:22187   */\n      swap3\n      swap2\n      pop\n      pop\n      jump\t// out\n        /* \"#utility.yul\":22193:22340   */\n    tag_204:\n        /* \"#utility.yul\":22294:22305   */\n      0x00\n        /* \"#utility.yul\":22331:22334   */\n      dup2\n        /* \"#utility.yul\":22316:22334   */\n      swap1\n      pop\n        /* \"#utility.yul\":22193:22340   */\n      swap3\n      swap2\n      pop\n      pop\n      jump\t// out\n        /* \"#utility.yul\":22346:22719   */\n    tag_205:\n        /* \"#utility.yul\":22450:22453   */\n      0x00\n        /* \"#utility.yul\":22478:22516   */\n      tag_444\n        /* \"#utility.yul\":22510:22515   */\n      dup3\n        /* \"#utility.yul\":22478:22516   */\n      tag_194\n      jump\t// in\n    tag_444:\n        /* \"#utility.yul\":22532:22620   */\n      tag_445\n        /* \"#utility.yul\":22613:22619   */\n      dup2\n        /* \"#utility.yul\":22608:22611   */\n      dup6\n        /* \"#utility.yul\":22532:22620   */\n      tag_204\n      jump\t// in\n    tag_445:\n        /* \"#utility.yul\":22525:22620   */\n      swap4\n      pop\n        /* \"#utility.yul\":22629:22681   */\n      tag_446\n        /* \"#utility.yul\":22674:22680   */\n      dup2\n        /* \"#utility.yul\":22669:22672   */\n      dup6\n        /* \"#utility.yul\":22662:22666   */\n      0x20\n        /* \"#utility.yul\":22655:22660   */\n      dup7\n        /* \"#utility.yul\":22651:22667   */\n      add\n        /* \"#utility.yul\":22629:22681   */\n      tag_196\n      jump\t// in\n    tag_446:\n        /* \"#utility.yul\":22706:22712   */\n      dup1\n        /* \"#utility.yul\":22701:22704   */\n      dup5\n        /* \"#utility.yul\":22697:22713   */\n      add\n        /* \"#utility.yul\":22690:22713   */\n      swap2\n      pop\n        /* \"#utility.yul\":22454:22719   */\n      pop\n        /* \"#utility.yul\":22346:22719   */\n      swap3\n      swap2\n      pop\n      pop\n      jump\t// out\n        /* \"#utility.yul\":22725:22996   */\n    tag_129:\n        /* \"#utility.yul\":22855:22858   */\n      0x00\n        /* \"#utility.yul\":22877:22970   */\n      tag_448\n        /* \"#utility.yul\":22966:22969   */\n      dup3\n        /* \"#utility.yul\":22957:22963   */\n      dup5\n        /* \"#utility.yul\":22877:22970   */\n      tag_205\n      jump\t// in\n    tag_448:\n        /* \"#utility.yul\":22870:22970   */\n      swap2\n      pop\n        /* \"#utility.yul\":22987:22990   */\n      dup2\n        /* \"#utility.yul\":22980:22990   */\n      swap1\n      pop\n        /* \"#utility.yul\":22725:22996   */\n      swap3\n      swap2\n      pop\n      pop\n      jump\t// out\n        /* \"#utility.yul\":23002:23235   */\n    tag_134:\n        /* \"#utility.yul\":23041:23044   */\n      0x00\n        /* \"#utility.yul\":23064:23088   */\n      tag_450\n        /* \"#utility.yul\":23082:23087   */\n      dup3\n        /* \"#utility.yul\":23064:23088   */\n      tag_170\n      jump\t// in\n    tag_450:\n        /* \"#utility.yul\":23055:23088   */\n      swap2\n      pop\n        /* \"#utility.yul\":23110:23176   */\n      0xffffffffffffffffffffffffffffffffffffffffffffffffffffffffffffffff\n        /* \"#utility.yul\":23103:23108   */\n      dup3\n        /* \"#utility.yul\":23100:23177   */\n      sub\n        /* \"#utility.yul\":23097:23200   */\n      tag_451\n      jumpi\n        /* \"#utility.yul\":23180:23198   */\n      tag_452\n      tag_202\n      jump\t// in\n    tag_452:\n        /* \"#utility.yul\":23097:23200   */\n    tag_451:\n        /* \"#utility.yul\":23227:23228   */\n      0x01\n        /* \"#utility.yul\":23220:23225   */\n      dup3\n        /* \"#utility.yul\":23216:23229   */\n      add\n        /* \"#utility.yul\":23209:23229   */\n      swap1\n      pop\n        /* \"#utility.yul\":23002:23235   */\n      swap2\n      swap1\n      pop\n      jump\t// out\n    stop\n    data_60bfcc3776c91812db2df5ee8e14efc111acb8df47a38be82f94cf8f4bc73336 476f7665726e6f723a2063616c6c20726576657274656420776974686f7574206d657373616765\n\n    auxdata: 0xa26469706673582212207993e70ed131f9ed8f698d0f7ee0c5a0928746806523f15fea8015b7c099bf5364736f6c634300080d0033\n}\n",
				"bytecode": {
					"linkReferences": {},
					"object": "608060405234801561001057600080fd5b5061151c806100206000396000f3fe6080604052600436106100865760003560e01c8063b50f1f8f11610059578063b50f1f8f14610172578063c01f9e37146101af578063df6b65de146101ec578063eb9094a214610229578063f68deaf91461025257610086565b8063118641461461008b5780632d63f693146100bb5780633e4f49e6146100f857806356e78dc314610135575b600080fd5b6100a560048036038101906100a09190610c0f565b61028f565b6040516100b29190610ccf565b60405180910390f35b3480156100c757600080fd5b506100e260048036038101906100dd9190610d16565b610382565b6040516100ef9190610ccf565b60405180910390f35b34801561010457600080fd5b5061011f600480360381019061011a9190610d16565b6103d1565b60405161012c9190610dba565b60405180910390f35b34801561014157600080fd5b5061015c60048036038101906101579190610d16565b610476565b6040516101699190610ccf565b60405180910390f35b34801561017e57600080fd5b5061019960048036038101906101949190610e0b565b6104c5565b6040516101a69190610ccf565b60405180910390f35b3480156101bb57600080fd5b506101d660048036038101906101d19190610d16565b6104fe565b6040516101e39190610ccf565b60405180910390f35b3480156101f857600080fd5b50610213600480360381019061020e9190610e96565b61054d565b6040516102209190610ccf565b60405180910390f35b34801561023557600080fd5b50610250600480360381019061024b9190610f77565b610633565b005b34801561025e57600080fd5b5061027960048036038101906102749190610d16565b61065e565b6040516102869190610ccf565b60405180910390f35b6000806102a4858585805190602001206104c5565b905060006102b1826103d1565b905060008060008481526020019081526020016000209050600360058111156102dd576102dc610d43565b5b8260058111156102f0576102ef610d43565b5b14610330576040517f08c379a00000000000000000000000000000000000000000000000000000000081526004016103279061103a565b60405180910390fd5b600061033b84610476565b90506001600080868152602001908152602001600020600c0160006101000a81548160ff0219169083151502179055506103778489838a6106ad565b505050509392505050565b60006103ca60008084815260200190815260200160002060000160405180606001604052908160008201548152602001600182015481526020016002820154815250506107a0565b9050919050565b600080600080848152602001908152602001600020905080600c0160009054906101000a900460ff1615610409576005915050610471565b80600c0160019054906101000a900460ff161561042a576002915050610471565b600061043584610382565b905042811061044957600092505050610471565b6000610454856104fe565b90504281106104695760019350505050610471565b600393505050505b919050565b60006104be60008084815260200190815260200160002060090160405180606001604052908160008201548152602001600182015481526020016002820154815250506107ae565b9050919050565b60008383836040516020016104dc93929190611271565b6040516020818303038152906040528051906020012060001c90509392505050565b600061054660008084815260200190815260200160002060030160405180606001604052908160008201548152602001600182015481526020016002820154815250506107a0565b9050919050565b600080610562858585805190602001206104c5565b9050600080600083815260200190815260200160002090506000603c8060188c61058c91906112e5565b61059691906112e5565b6105a091906112e5565b426105ab919061133f565b90506000603c8060188c6105bf91906112e5565b6105c991906112e5565b6105d391906112e5565b826105de919061133f565b90506105f682846000016107bc90919063ffffffff16565b61060c81846003016107bc90919063ffffffff16565b61062289846006016107d690919063ffffffff16565b839450505050509695505050505050565b61065a816000808581526020019081526020016000206009016107e390919063ffffffff16565b5050565b60006106a660008084815260200190815260200160002060060160405180606001604052908160008201548152602001600182015481526020016002820154815250506107ff565b9050919050565b60006040518060600160405280602781526020016114c060279139905060005b8451811015610798576000808683815181106106ec576106eb611395565b5b602002602001015173ffffffffffffffffffffffffffffffffffffffff16838761071691906113f3565b86858151811061072957610728611395565b5b602002602001015160405161073e9190611460565b60006040518083038185875af1925050503d806000811461077b576040519150601f19603f3d011682016040523d82523d6000602084013e610780565b606091505b509150915050508061079190611477565b90506106cd565b505050505050565b600081600001519050919050565b600081602001519050919050565b6103e8816107ca91906112e5565b82600001819055505050565b8082600101819055505050565b8082600101546107f3919061133f565b82600101819055505050565b600081602001519050919050565b6000604051905090565b600080fd5b600080fd5b600080fd5b6000601f19601f8301169050919050565b7f4e487b7100000000000000000000000000000000000000000000000000000000600052604160045260246000fd5b61086f82610826565b810181811067ffffffffffffffff8211171561088e5761088d610837565b5b80604052505050565b60006108a161080d565b90506108ad8282610866565b919050565b600067ffffffffffffffff8211156108cd576108cc610837565b5b602082029050602081019050919050565b600080fd5b600073ffffffffffffffffffffffffffffffffffffffff82169050919050565b600061090e826108e3565b9050919050565b61091e81610903565b811461092957600080fd5b50565b60008135905061093b81610915565b92915050565b600061095461094f846108b2565b610897565b90508083825260208201905060208402830185811115610977576109766108de565b5b835b818110156109a0578061098c888261092c565b845260208401935050602081019050610979565b5050509392505050565b600082601f8301126109bf576109be610821565b5b81356109cf848260208601610941565b91505092915050565b600067ffffffffffffffff8211156109f3576109f2610837565b5b602082029050602081019050919050565b600080fd5b600067ffffffffffffffff821115610a2457610a23610837565b5b610a2d82610826565b9050602081019050919050565b82818337600083830152505050565b6000610a5c610a5784610a09565b610897565b905082815260208101848484011115610a7857610a77610a04565b5b610a83848285610a3a565b509392505050565b600082601f830112610aa057610a9f610821565b5b8135610ab0848260208601610a49565b91505092915050565b6000610acc610ac7846109d8565b610897565b90508083825260208201905060208402830185811115610aef57610aee6108de565b5b835b81811015610b3657803567ffffffffffffffff811115610b1457610b13610821565b5b808601610b218982610a8b565b85526020850194505050602081019050610af1565b5050509392505050565b600082601f830112610b5557610b54610821565b5b8135610b65848260208601610ab9565b91505092915050565b600067ffffffffffffffff821115610b8957610b88610837565b5b610b9282610826565b9050602081019050919050565b6000610bb2610bad84610b6e565b610897565b905082815260208101848484011115610bce57610bcd610a04565b5b610bd9848285610a3a565b509392505050565b600082601f830112610bf657610bf5610821565b5b8135610c06848260208601610b9f565b91505092915050565b600080600060608486031215610c2857610c27610817565b5b600084013567ffffffffffffffff811115610c4657610c4561081c565b5b610c52868287016109aa565b935050602084013567ffffffffffffffff811115610c7357610c7261081c565b5b610c7f86828701610b40565b925050604084013567ffffffffffffffff811115610ca057610c9f61081c565b5b610cac86828701610be1565b9150509250925092565b6000819050919050565b610cc981610cb6565b82525050565b6000602082019050610ce46000830184610cc0565b92915050565b610cf381610cb6565b8114610cfe57600080fd5b50565b600081359050610d1081610cea565b92915050565b600060208284031215610d2c57610d2b610817565b5b6000610d3a84828501610d01565b91505092915050565b7f4e487b7100000000000000000000000000000000000000000000000000000000600052602160045260246000fd5b60068110610d8357610d82610d43565b5b50565b6000819050610d9482610d72565b919050565b6000610da482610d86565b9050919050565b610db481610d99565b82525050565b6000602082019050610dcf6000830184610dab565b92915050565b6000819050919050565b610de881610dd5565b8114610df357600080fd5b50565b600081359050610e0581610ddf565b92915050565b600080600060608486031215610e2457610e23610817565b5b600084013567ffffffffffffffff811115610e4257610e4161081c565b5b610e4e868287016109aa565b935050602084013567ffffffffffffffff811115610e6f57610e6e61081c565b5b610e7b86828701610b40565b9250506040610e8c86828701610df6565b9150509250925092565b60008060008060008060c08789031215610eb357610eb2610817565b5b6000610ec189828a01610d01565b9650506020610ed289828a01610d01565b9550506040610ee389828a01610d01565b945050606087013567ffffffffffffffff811115610f0457610f0361081c565b5b610f1089828a016109aa565b935050608087013567ffffffffffffffff811115610f3157610f3061081c565b5b610f3d89828a01610b40565b92505060a087013567ffffffffffffffff811115610f5e57610f5d61081c565b5b610f6a89828a01610be1565b9150509295509295509295565b60008060408385031215610f8e57610f8d610817565b5b6000610f9c85828601610d01565b9250506020610fad85828601610d01565b9150509250929050565b600082825260208201905092915050565b7f476f7665726e6f723a2070726f706f73616c206e6f742073756363657373667560008201527f6c00000000000000000000000000000000000000000000000000000000000000602082015250565b6000611024602183610fb7565b915061102f82610fc8565b604082019050919050565b6000602082019050818103600083015261105381611017565b9050919050565b600081519050919050565b600082825260208201905092915050565b6000819050602082019050919050565b61108f81610903565b82525050565b60006110a18383611086565b60208301905092915050565b6000602082019050919050565b60006110c58261105a565b6110cf8185611065565b93506110da83611076565b8060005b8381101561110b5781516110f28882611095565b97506110fd836110ad565b9250506001810190506110de565b5085935050505092915050565b600081519050919050565b600082825260208201905092915050565b6000819050602082019050919050565b600081519050919050565b600082825260208201905092915050565b60005b8381101561117e578082015181840152602081019050611163565b8381111561118d576000848401525b50505050565b600061119e82611144565b6111a8818561114f565b93506111b8818560208601611160565b6111c181610826565b840191505092915050565b60006111d88383611193565b905092915050565b6000602082019050919050565b60006111f882611118565b6112028185611123565b93508360208202850161121485611134565b8060005b85811015611250578484038952815161123185826111cc565b945061123c836111e0565b925060208a01995050600181019050611218565b50829750879550505050505092915050565b61126b81610dd5565b82525050565b6000606082019050818103600083015261128b81866110ba565b9050818103602083015261129f81856111ed565b90506112ae6040830184611262565b949350505050565b7f4e487b7100000000000000000000000000000000000000000000000000000000600052601160045260246000fd5b60006112f082610cb6565b91506112fb83610cb6565b9250817fffffffffffffffffffffffffffffffffffffffffffffffffffffffffffffffff0483118215151615611334576113336112b6565b5b828202905092915050565b600061134a82610cb6565b915061135583610cb6565b9250827fffffffffffffffffffffffffffffffffffffffffffffffffffffffffffffffff0382111561138a576113896112b6565b5b828201905092915050565b7f4e487b7100000000000000000000000000000000000000000000000000000000600052603260045260246000fd5b7f4e487b7100000000000000000000000000000000000000000000000000000000600052601260045260246000fd5b60006113fe82610cb6565b915061140983610cb6565b925082611419576114186113c4565b5b828204905092915050565b600081905092915050565b600061143a82611144565b6114448185611424565b9350611454818560208601611160565b80840191505092915050565b600061146c828461142f565b915081905092915050565b600061148282610cb6565b91507fffffffffffffffffffffffffffffffffffffffffffffffffffffffffffffffff82036114b4576114b36112b6565b5b60018201905091905056fe476f7665726e6f723a2063616c6c20726576657274656420776974686f7574206d657373616765a26469706673582212207993e70ed131f9ed8f698d0f7ee0c5a0928746806523f15fea8015b7c099bf5364736f6c634300080d0033",
					"opcodes": "PUSH1 0x80 PUSH1 0x40 MSTORE CALLVALUE DUP1 ISZERO PUSH2 0x10 JUMPI PUSH1 0x0 DUP1 REVERT JUMPDEST POP PUSH2 0x151C DUP1 PUSH2 0x20 PUSH1 0x0 CODECOPY PUSH1 0x0 RETURN INVALID PUSH1 0x80 PUSH1 0x40 MSTORE PUSH1 0x4 CALLDATASIZE LT PUSH2 0x86 JUMPI PUSH1 0x0 CALLDATALOAD PUSH1 0xE0 SHR DUP1 PUSH4 0xB50F1F8F GT PUSH2 0x59 JUMPI DUP1 PUSH4 0xB50F1F8F EQ PUSH2 0x172 JUMPI DUP1 PUSH4 0xC01F9E37 EQ PUSH2 0x1AF JUMPI DUP1 PUSH4 0xDF6B65DE EQ PUSH2 0x1EC JUMPI DUP1 PUSH4 0xEB9094A2 EQ PUSH2 0x229 JUMPI DUP1 PUSH4 0xF68DEAF9 EQ PUSH2 0x252 JUMPI PUSH2 0x86 JUMP JUMPDEST DUP1 PUSH4 0x11864146 EQ PUSH2 0x8B JUMPI DUP1 PUSH4 0x2D63F693 EQ PUSH2 0xBB JUMPI DUP1 PUSH4 0x3E4F49E6 EQ PUSH2 0xF8 JUMPI DUP1 PUSH4 0x56E78DC3 EQ PUSH2 0x135 JUMPI JUMPDEST PUSH1 0x0 DUP1 REVERT JUMPDEST PUSH2 0xA5 PUSH1 0x4 DUP1 CALLDATASIZE SUB DUP2 ADD SWAP1 PUSH2 0xA0 SWAP2 SWAP1 PUSH2 0xC0F JUMP JUMPDEST PUSH2 0x28F JUMP JUMPDEST PUSH1 0x40 MLOAD PUSH2 0xB2 SWAP2 SWAP1 PUSH2 0xCCF JUMP JUMPDEST PUSH1 0x40 MLOAD DUP1 SWAP2 SUB SWAP1 RETURN JUMPDEST CALLVALUE DUP1 ISZERO PUSH2 0xC7 JUMPI PUSH1 0x0 DUP1 REVERT JUMPDEST POP PUSH2 0xE2 PUSH1 0x4 DUP1 CALLDATASIZE SUB DUP2 ADD SWAP1 PUSH2 0xDD SWAP2 SWAP1 PUSH2 0xD16 JUMP JUMPDEST PUSH2 0x382 JUMP JUMPDEST PUSH1 0x40 MLOAD PUSH2 0xEF SWAP2 SWAP1 PUSH2 0xCCF JUMP JUMPDEST PUSH1 0x40 MLOAD DUP1 SWAP2 SUB SWAP1 RETURN JUMPDEST CALLVALUE DUP1 ISZERO PUSH2 0x104 JUMPI PUSH1 0x0 DUP1 REVERT JUMPDEST POP PUSH2 0x11F PUSH1 0x4 DUP1 CALLDATASIZE SUB DUP2 ADD SWAP1 PUSH2 0x11A SWAP2 SWAP1 PUSH2 0xD16 JUMP JUMPDEST PUSH2 0x3D1 JUMP JUMPDEST PUSH1 0x40 MLOAD PUSH2 0x12C SWAP2 SWAP1 PUSH2 0xDBA JUMP JUMPDEST PUSH1 0x40 MLOAD DUP1 SWAP2 SUB SWAP1 RETURN JUMPDEST CALLVALUE DUP1 ISZERO PUSH2 0x141 JUMPI PUSH1 0x0 DUP1 REVERT JUMPDEST POP PUSH2 0x15C PUSH1 0x4 DUP1 CALLDATASIZE SUB DUP2 ADD SWAP1 PUSH2 0x157 SWAP2 SWAP1 PUSH2 0xD16 JUMP JUMPDEST PUSH2 0x476 JUMP JUMPDEST PUSH1 0x40 MLOAD PUSH2 0x169 SWAP2 SWAP1 PUSH2 0xCCF JUMP JUMPDEST PUSH1 0x40 MLOAD DUP1 SWAP2 SUB SWAP1 RETURN JUMPDEST CALLVALUE DUP1 ISZERO PUSH2 0x17E JUMPI PUSH1 0x0 DUP1 REVERT JUMPDEST POP PUSH2 0x199 PUSH1 0x4 DUP1 CALLDATASIZE SUB DUP2 ADD SWAP1 PUSH2 0x194 SWAP2 SWAP1 PUSH2 0xE0B JUMP JUMPDEST PUSH2 0x4C5 JUMP JUMPDEST PUSH1 0x40 MLOAD PUSH2 0x1A6 SWAP2 SWAP1 PUSH2 0xCCF JUMP JUMPDEST PUSH1 0x40 MLOAD DUP1 SWAP2 SUB SWAP1 RETURN JUMPDEST CALLVALUE DUP1 ISZERO PUSH2 0x1BB JUMPI PUSH1 0x0 DUP1 REVERT JUMPDEST POP PUSH2 0x1D6 PUSH1 0x4 DUP1 CALLDATASIZE SUB DUP2 ADD SWAP1 PUSH2 0x1D1 SWAP2 SWAP1 PUSH2 0xD16 JUMP JUMPDEST PUSH2 0x4FE JUMP JUMPDEST PUSH1 0x40 MLOAD PUSH2 0x1E3 SWAP2 SWAP1 PUSH2 0xCCF JUMP JUMPDEST PUSH1 0x40 MLOAD DUP1 SWAP2 SUB SWAP1 RETURN JUMPDEST CALLVALUE DUP1 ISZERO PUSH2 0x1F8 JUMPI PUSH1 0x0 DUP1 REVERT JUMPDEST POP PUSH2 0x213 PUSH1 0x4 DUP1 CALLDATASIZE SUB DUP2 ADD SWAP1 PUSH2 0x20E SWAP2 SWAP1 PUSH2 0xE96 JUMP JUMPDEST PUSH2 0x54D JUMP JUMPDEST PUSH1 0x40 MLOAD PUSH2 0x220 SWAP2 SWAP1 PUSH2 0xCCF JUMP JUMPDEST PUSH1 0x40 MLOAD DUP1 SWAP2 SUB SWAP1 RETURN JUMPDEST CALLVALUE DUP1 ISZERO PUSH2 0x235 JUMPI PUSH1 0x0 DUP1 REVERT JUMPDEST POP PUSH2 0x250 PUSH1 0x4 DUP1 CALLDATASIZE SUB DUP2 ADD SWAP1 PUSH2 0x24B SWAP2 SWAP1 PUSH2 0xF77 JUMP JUMPDEST PUSH2 0x633 JUMP JUMPDEST STOP JUMPDEST CALLVALUE DUP1 ISZERO PUSH2 0x25E JUMPI PUSH1 0x0 DUP1 REVERT JUMPDEST POP PUSH2 0x279 PUSH1 0x4 DUP1 CALLDATASIZE SUB DUP2 ADD SWAP1 PUSH2 0x274 SWAP2 SWAP1 PUSH2 0xD16 JUMP JUMPDEST PUSH2 0x65E JUMP JUMPDEST PUSH1 0x40 MLOAD PUSH2 0x286 SWAP2 SWAP1 PUSH2 0xCCF JUMP JUMPDEST PUSH1 0x40 MLOAD DUP1 SWAP2 SUB SWAP1 RETURN JUMPDEST PUSH1 0x0 DUP1 PUSH2 0x2A4 DUP6 DUP6 DUP6 DUP1 MLOAD SWAP1 PUSH1 0x20 ADD KECCAK256 PUSH2 0x4C5 JUMP JUMPDEST SWAP1 POP PUSH1 0x0 PUSH2 0x2B1 DUP3 PUSH2 0x3D1 JUMP JUMPDEST SWAP1 POP PUSH1 0x0 DUP1 PUSH1 0x0 DUP5 DUP2 MSTORE PUSH1 0x20 ADD SWAP1 DUP2 MSTORE PUSH1 0x20 ADD PUSH1 0x0 KECCAK256 SWAP1 POP PUSH1 0x3 PUSH1 0x5 DUP2 GT ISZERO PUSH2 0x2DD JUMPI PUSH2 0x2DC PUSH2 0xD43 JUMP JUMPDEST JUMPDEST DUP3 PUSH1 0x5 DUP2 GT ISZERO PUSH2 0x2F0 JUMPI PUSH2 0x2EF PUSH2 0xD43 JUMP JUMPDEST JUMPDEST EQ PUSH2 0x330 JUMPI PUSH1 0x40 MLOAD PUSH32 0x8C379A000000000000000000000000000000000000000000000000000000000 DUP2 MSTORE PUSH1 0x4 ADD PUSH2 0x327 SWAP1 PUSH2 0x103A JUMP JUMPDEST PUSH1 0x40 MLOAD DUP1 SWAP2 SUB SWAP1 REVERT JUMPDEST PUSH1 0x0 PUSH2 0x33B DUP5 PUSH2 0x476 JUMP JUMPDEST SWAP1 POP PUSH1 0x1 PUSH1 0x0 DUP1 DUP7 DUP2 MSTORE PUSH1 0x20 ADD SWAP1 DUP2 MSTORE PUSH1 0x20 ADD PUSH1 0x0 KECCAK256 PUSH1 0xC ADD PUSH1 0x0 PUSH2 0x100 EXP DUP2 SLOAD DUP2 PUSH1 0xFF MUL NOT AND SWAP1 DUP4 ISZERO ISZERO MUL OR SWAP1 SSTORE POP PUSH2 0x377 DUP5 DUP10 DUP4 DUP11 PUSH2 0x6AD JUMP JUMPDEST POP POP POP POP SWAP4 SWAP3 POP POP POP JUMP JUMPDEST PUSH1 0x0 PUSH2 0x3CA PUSH1 0x0 DUP1 DUP5 DUP2 MSTORE PUSH1 0x20 ADD SWAP1 DUP2 MSTORE PUSH1 0x20 ADD PUSH1 0x0 KECCAK256 PUSH1 0x0 ADD PUSH1 0x40 MLOAD DUP1 PUSH1 0x60 ADD PUSH1 0x40 MSTORE SWAP1 DUP2 PUSH1 0x0 DUP3 ADD SLOAD DUP2 MSTORE PUSH1 0x20 ADD PUSH1 0x1 DUP3 ADD SLOAD DUP2 MSTORE PUSH1 0x20 ADD PUSH1 0x2 DUP3 ADD SLOAD DUP2 MSTORE POP POP PUSH2 0x7A0 JUMP JUMPDEST SWAP1 POP SWAP2 SWAP1 POP JUMP JUMPDEST PUSH1 0x0 DUP1 PUSH1 0x0 DUP1 DUP5 DUP2 MSTORE PUSH1 0x20 ADD SWAP1 DUP2 MSTORE PUSH1 0x20 ADD PUSH1 0x0 KECCAK256 SWAP1 POP DUP1 PUSH1 0xC ADD PUSH1 0x0 SWAP1 SLOAD SWAP1 PUSH2 0x100 EXP SWAP1 DIV PUSH1 0xFF AND ISZERO PUSH2 0x409 JUMPI PUSH1 0x5 SWAP2 POP POP PUSH2 0x471 JUMP JUMPDEST DUP1 PUSH1 0xC ADD PUSH1 0x1 SWAP1 SLOAD SWAP1 PUSH2 0x100 EXP SWAP1 DIV PUSH1 0xFF AND ISZERO PUSH2 0x42A JUMPI PUSH1 0x2 SWAP2 POP POP PUSH2 0x471 JUMP JUMPDEST PUSH1 0x0 PUSH2 0x435 DUP5 PUSH2 0x382 JUMP JUMPDEST SWAP1 POP TIMESTAMP DUP2 LT PUSH2 0x449 JUMPI PUSH1 0x0 SWAP3 POP POP POP PUSH2 0x471 JUMP JUMPDEST PUSH1 0x0 PUSH2 0x454 DUP6 PUSH2 0x4FE JUMP JUMPDEST SWAP1 POP TIMESTAMP DUP2 LT PUSH2 0x469 JUMPI PUSH1 0x1 SWAP4 POP POP POP POP PUSH2 0x471 JUMP JUMPDEST PUSH1 0x3 SWAP4 POP POP POP POP JUMPDEST SWAP2 SWAP1 POP JUMP JUMPDEST PUSH1 0x0 PUSH2 0x4BE PUSH1 0x0 DUP1 DUP5 DUP2 MSTORE PUSH1 0x20 ADD SWAP1 DUP2 MSTORE PUSH1 0x20 ADD PUSH1 0x0 KECCAK256 PUSH1 0x9 ADD PUSH1 0x40 MLOAD DUP1 PUSH1 0x60 ADD PUSH1 0x40 MSTORE SWAP1 DUP2 PUSH1 0x0 DUP3 ADD SLOAD DUP2 MSTORE PUSH1 0x20 ADD PUSH1 0x1 DUP3 ADD SLOAD DUP2 MSTORE PUSH1 0x20 ADD PUSH1 0x2 DUP3 ADD SLOAD DUP2 MSTORE POP POP PUSH2 0x7AE JUMP JUMPDEST SWAP1 POP SWAP2 SWAP1 POP JUMP JUMPDEST PUSH1 0x0 DUP4 DUP4 DUP4 PUSH1 0x40 MLOAD PUSH1 0x20 ADD PUSH2 0x4DC SWAP4 SWAP3 SWAP2 SWAP1 PUSH2 0x1271 JUMP JUMPDEST PUSH1 0x40 MLOAD PUSH1 0x20 DUP2 DUP4 SUB SUB DUP2 MSTORE SWAP1 PUSH1 0x40 MSTORE DUP1 MLOAD SWAP1 PUSH1 0x20 ADD KECCAK256 PUSH1 0x0 SHR SWAP1 POP SWAP4 SWAP3 POP POP POP JUMP JUMPDEST PUSH1 0x0 PUSH2 0x546 PUSH1 0x0 DUP1 DUP5 DUP2 MSTORE PUSH1 0x20 ADD SWAP1 DUP2 MSTORE PUSH1 0x20 ADD PUSH1 0x0 KECCAK256 PUSH1 0x3 ADD PUSH1 0x40 MLOAD DUP1 PUSH1 0x60 ADD PUSH1 0x40 MSTORE SWAP1 DUP2 PUSH1 0x0 DUP3 ADD SLOAD DUP2 MSTORE PUSH1 0x20 ADD PUSH1 0x1 DUP3 ADD SLOAD DUP2 MSTORE PUSH1 0x20 ADD PUSH1 0x2 DUP3 ADD SLOAD DUP2 MSTORE POP POP PUSH2 0x7A0 JUMP JUMPDEST SWAP1 POP SWAP2 SWAP1 POP JUMP JUMPDEST PUSH1 0x0 DUP1 PUSH2 0x562 DUP6 DUP6 DUP6 DUP1 MLOAD SWAP1 PUSH1 0x20 ADD KECCAK256 PUSH2 0x4C5 JUMP JUMPDEST SWAP1 POP PUSH1 0x0 DUP1 PUSH1 0x0 DUP4 DUP2 MSTORE PUSH1 0x20 ADD SWAP1 DUP2 MSTORE PUSH1 0x20 ADD PUSH1 0x0 KECCAK256 SWAP1 POP PUSH1 0x0 PUSH1 0x3C DUP1 PUSH1 0x18 DUP13 PUSH2 0x58C SWAP2 SWAP1 PUSH2 0x12E5 JUMP JUMPDEST PUSH2 0x596 SWAP2 SWAP1 PUSH2 0x12E5 JUMP JUMPDEST PUSH2 0x5A0 SWAP2 SWAP1 PUSH2 0x12E5 JUMP JUMPDEST TIMESTAMP PUSH2 0x5AB SWAP2 SWAP1 PUSH2 0x133F JUMP JUMPDEST SWAP1 POP PUSH1 0x0 PUSH1 0x3C DUP1 PUSH1 0x18 DUP13 PUSH2 0x5BF SWAP2 SWAP1 PUSH2 0x12E5 JUMP JUMPDEST PUSH2 0x5C9 SWAP2 SWAP1 PUSH2 0x12E5 JUMP JUMPDEST PUSH2 0x5D3 SWAP2 SWAP1 PUSH2 0x12E5 JUMP JUMPDEST DUP3 PUSH2 0x5DE SWAP2 SWAP1 PUSH2 0x133F JUMP JUMPDEST SWAP1 POP PUSH2 0x5F6 DUP3 DUP5 PUSH1 0x0 ADD PUSH2 0x7BC SWAP1 SWAP2 SWAP1 PUSH4 0xFFFFFFFF AND JUMP JUMPDEST PUSH2 0x60C DUP2 DUP5 PUSH1 0x3 ADD PUSH2 0x7BC SWAP1 SWAP2 SWAP1 PUSH4 0xFFFFFFFF AND JUMP JUMPDEST PUSH2 0x622 DUP10 DUP5 PUSH1 0x6 ADD PUSH2 0x7D6 SWAP1 SWAP2 SWAP1 PUSH4 0xFFFFFFFF AND JUMP JUMPDEST DUP4 SWAP5 POP POP POP POP POP SWAP7 SWAP6 POP POP POP POP POP POP JUMP JUMPDEST PUSH2 0x65A DUP2 PUSH1 0x0 DUP1 DUP6 DUP2 MSTORE PUSH1 0x20 ADD SWAP1 DUP2 MSTORE PUSH1 0x20 ADD PUSH1 0x0 KECCAK256 PUSH1 0x9 ADD PUSH2 0x7E3 SWAP1 SWAP2 SWAP1 PUSH4 0xFFFFFFFF AND JUMP JUMPDEST POP POP JUMP JUMPDEST PUSH1 0x0 PUSH2 0x6A6 PUSH1 0x0 DUP1 DUP5 DUP2 MSTORE PUSH1 0x20 ADD SWAP1 DUP2 MSTORE PUSH1 0x20 ADD PUSH1 0x0 KECCAK256 PUSH1 0x6 ADD PUSH1 0x40 MLOAD DUP1 PUSH1 0x60 ADD PUSH1 0x40 MSTORE SWAP1 DUP2 PUSH1 0x0 DUP3 ADD SLOAD DUP2 MSTORE PUSH1 0x20 ADD PUSH1 0x1 DUP3 ADD SLOAD DUP2 MSTORE PUSH1 0x20 ADD PUSH1 0x2 DUP3 ADD SLOAD DUP2 MSTORE POP POP PUSH2 0x7FF JUMP JUMPDEST SWAP1 POP SWAP2 SWAP1 POP JUMP JUMPDEST PUSH1 0x0 PUSH1 0x40 MLOAD DUP1 PUSH1 0x60 ADD PUSH1 0x40 MSTORE DUP1 PUSH1 0x27 DUP2 MSTORE PUSH1 0x20 ADD PUSH2 0x14C0 PUSH1 0x27 SWAP2 CODECOPY SWAP1 POP PUSH1 0x0 JUMPDEST DUP5 MLOAD DUP2 LT ISZERO PUSH2 0x798 JUMPI PUSH1 0x0 DUP1 DUP7 DUP4 DUP2 MLOAD DUP2 LT PUSH2 0x6EC JUMPI PUSH2 0x6EB PUSH2 0x1395 JUMP JUMPDEST JUMPDEST PUSH1 0x20 MUL PUSH1 0x20 ADD ADD MLOAD PUSH20 0xFFFFFFFFFFFFFFFFFFFFFFFFFFFFFFFFFFFFFFFF AND DUP4 DUP8 PUSH2 0x716 SWAP2 SWAP1 PUSH2 0x13F3 JUMP JUMPDEST DUP7 DUP6 DUP2 MLOAD DUP2 LT PUSH2 0x729 JUMPI PUSH2 0x728 PUSH2 0x1395 JUMP JUMPDEST JUMPDEST PUSH1 0x20 MUL PUSH1 0x20 ADD ADD MLOAD PUSH1 0x40 MLOAD PUSH2 0x73E SWAP2 SWAP1 PUSH2 0x1460 JUMP JUMPDEST PUSH1 0x0 PUSH1 0x40 MLOAD DUP1 DUP4 SUB DUP2 DUP6 DUP8 GAS CALL SWAP3 POP POP POP RETURNDATASIZE DUP1 PUSH1 0x0 DUP2 EQ PUSH2 0x77B JUMPI PUSH1 0x40 MLOAD SWAP2 POP PUSH1 0x1F NOT PUSH1 0x3F RETURNDATASIZE ADD AND DUP3 ADD PUSH1 0x40 MSTORE RETURNDATASIZE DUP3 MSTORE RETURNDATASIZE PUSH1 0x0 PUSH1 0x20 DUP5 ADD RETURNDATACOPY PUSH2 0x780 JUMP JUMPDEST PUSH1 0x60 SWAP2 POP JUMPDEST POP SWAP2 POP SWAP2 POP POP POP DUP1 PUSH2 0x791 SWAP1 PUSH2 0x1477 JUMP JUMPDEST SWAP1 POP PUSH2 0x6CD JUMP JUMPDEST POP POP POP POP POP POP JUMP JUMPDEST PUSH1 0x0 DUP2 PUSH1 0x0 ADD MLOAD SWAP1 POP SWAP2 SWAP1 POP JUMP JUMPDEST PUSH1 0x0 DUP2 PUSH1 0x20 ADD MLOAD SWAP1 POP SWAP2 SWAP1 POP JUMP JUMPDEST PUSH2 0x3E8 DUP2 PUSH2 0x7CA SWAP2 SWAP1 PUSH2 0x12E5 JUMP JUMPDEST DUP3 PUSH1 0x0 ADD DUP2 SWAP1 SSTORE POP POP POP JUMP JUMPDEST DUP1 DUP3 PUSH1 0x1 ADD DUP2 SWAP1 SSTORE POP POP POP JUMP JUMPDEST DUP1 DUP3 PUSH1 0x1 ADD SLOAD PUSH2 0x7F3 SWAP2 SWAP1 PUSH2 0x133F JUMP JUMPDEST DUP3 PUSH1 0x1 ADD DUP2 SWAP1 SSTORE POP POP POP JUMP JUMPDEST PUSH1 0x0 DUP2 PUSH1 0x20 ADD MLOAD SWAP1 POP SWAP2 SWAP1 POP JUMP JUMPDEST PUSH1 0x0 PUSH1 0x40 MLOAD SWAP1 POP SWAP1 JUMP JUMPDEST PUSH1 0x0 DUP1 REVERT JUMPDEST PUSH1 0x0 DUP1 REVERT JUMPDEST PUSH1 0x0 DUP1 REVERT JUMPDEST PUSH1 0x0 PUSH1 0x1F NOT PUSH1 0x1F DUP4 ADD AND SWAP1 POP SWAP2 SWAP1 POP JUMP JUMPDEST PUSH32 0x4E487B7100000000000000000000000000000000000000000000000000000000 PUSH1 0x0 MSTORE PUSH1 0x41 PUSH1 0x4 MSTORE PUSH1 0x24 PUSH1 0x0 REVERT JUMPDEST PUSH2 0x86F DUP3 PUSH2 0x826 JUMP JUMPDEST DUP2 ADD DUP2 DUP2 LT PUSH8 0xFFFFFFFFFFFFFFFF DUP3 GT OR ISZERO PUSH2 0x88E JUMPI PUSH2 0x88D PUSH2 0x837 JUMP JUMPDEST JUMPDEST DUP1 PUSH1 0x40 MSTORE POP POP POP JUMP JUMPDEST PUSH1 0x0 PUSH2 0x8A1 PUSH2 0x80D JUMP JUMPDEST SWAP1 POP PUSH2 0x8AD DUP3 DUP3 PUSH2 0x866 JUMP JUMPDEST SWAP2 SWAP1 POP JUMP JUMPDEST PUSH1 0x0 PUSH8 0xFFFFFFFFFFFFFFFF DUP3 GT ISZERO PUSH2 0x8CD JUMPI PUSH2 0x8CC PUSH2 0x837 JUMP JUMPDEST JUMPDEST PUSH1 0x20 DUP3 MUL SWAP1 POP PUSH1 0x20 DUP2 ADD SWAP1 POP SWAP2 SWAP1 POP JUMP JUMPDEST PUSH1 0x0 DUP1 REVERT JUMPDEST PUSH1 0x0 PUSH20 0xFFFFFFFFFFFFFFFFFFFFFFFFFFFFFFFFFFFFFFFF DUP3 AND SWAP1 POP SWAP2 SWAP1 POP JUMP JUMPDEST PUSH1 0x0 PUSH2 0x90E DUP3 PUSH2 0x8E3 JUMP JUMPDEST SWAP1 POP SWAP2 SWAP1 POP JUMP JUMPDEST PUSH2 0x91E DUP2 PUSH2 0x903 JUMP JUMPDEST DUP2 EQ PUSH2 0x929 JUMPI PUSH1 0x0 DUP1 REVERT JUMPDEST POP JUMP JUMPDEST PUSH1 0x0 DUP2 CALLDATALOAD SWAP1 POP PUSH2 0x93B DUP2 PUSH2 0x915 JUMP JUMPDEST SWAP3 SWAP2 POP POP JUMP JUMPDEST PUSH1 0x0 PUSH2 0x954 PUSH2 0x94F DUP5 PUSH2 0x8B2 JUMP JUMPDEST PUSH2 0x897 JUMP JUMPDEST SWAP1 POP DUP1 DUP4 DUP3 MSTORE PUSH1 0x20 DUP3 ADD SWAP1 POP PUSH1 0x20 DUP5 MUL DUP4 ADD DUP6 DUP2 GT ISZERO PUSH2 0x977 JUMPI PUSH2 0x976 PUSH2 0x8DE JUMP JUMPDEST JUMPDEST DUP4 JUMPDEST DUP2 DUP2 LT ISZERO PUSH2 0x9A0 JUMPI DUP1 PUSH2 0x98C DUP9 DUP3 PUSH2 0x92C JUMP JUMPDEST DUP5 MSTORE PUSH1 0x20 DUP5 ADD SWAP4 POP POP PUSH1 0x20 DUP2 ADD SWAP1 POP PUSH2 0x979 JUMP JUMPDEST POP POP POP SWAP4 SWAP3 POP POP POP JUMP JUMPDEST PUSH1 0x0 DUP3 PUSH1 0x1F DUP4 ADD SLT PUSH2 0x9BF JUMPI PUSH2 0x9BE PUSH2 0x821 JUMP JUMPDEST JUMPDEST DUP2 CALLDATALOAD PUSH2 0x9CF DUP5 DUP3 PUSH1 0x20 DUP7 ADD PUSH2 0x941 JUMP JUMPDEST SWAP2 POP POP SWAP3 SWAP2 POP POP JUMP JUMPDEST PUSH1 0x0 PUSH8 0xFFFFFFFFFFFFFFFF DUP3 GT ISZERO PUSH2 0x9F3 JUMPI PUSH2 0x9F2 PUSH2 0x837 JUMP JUMPDEST JUMPDEST PUSH1 0x20 DUP3 MUL SWAP1 POP PUSH1 0x20 DUP2 ADD SWAP1 POP SWAP2 SWAP1 POP JUMP JUMPDEST PUSH1 0x0 DUP1 REVERT JUMPDEST PUSH1 0x0 PUSH8 0xFFFFFFFFFFFFFFFF DUP3 GT ISZERO PUSH2 0xA24 JUMPI PUSH2 0xA23 PUSH2 0x837 JUMP JUMPDEST JUMPDEST PUSH2 0xA2D DUP3 PUSH2 0x826 JUMP JUMPDEST SWAP1 POP PUSH1 0x20 DUP2 ADD SWAP1 POP SWAP2 SWAP1 POP JUMP JUMPDEST DUP3 DUP2 DUP4 CALLDATACOPY PUSH1 0x0 DUP4 DUP4 ADD MSTORE POP POP POP JUMP JUMPDEST PUSH1 0x0 PUSH2 0xA5C PUSH2 0xA57 DUP5 PUSH2 0xA09 JUMP JUMPDEST PUSH2 0x897 JUMP JUMPDEST SWAP1 POP DUP3 DUP2 MSTORE PUSH1 0x20 DUP2 ADD DUP5 DUP5 DUP5 ADD GT ISZERO PUSH2 0xA78 JUMPI PUSH2 0xA77 PUSH2 0xA04 JUMP JUMPDEST JUMPDEST PUSH2 0xA83 DUP5 DUP3 DUP6 PUSH2 0xA3A JUMP JUMPDEST POP SWAP4 SWAP3 POP POP POP JUMP JUMPDEST PUSH1 0x0 DUP3 PUSH1 0x1F DUP4 ADD SLT PUSH2 0xAA0 JUMPI PUSH2 0xA9F PUSH2 0x821 JUMP JUMPDEST JUMPDEST DUP2 CALLDATALOAD PUSH2 0xAB0 DUP5 DUP3 PUSH1 0x20 DUP7 ADD PUSH2 0xA49 JUMP JUMPDEST SWAP2 POP POP SWAP3 SWAP2 POP POP JUMP JUMPDEST PUSH1 0x0 PUSH2 0xACC PUSH2 0xAC7 DUP5 PUSH2 0x9D8 JUMP JUMPDEST PUSH2 0x897 JUMP JUMPDEST SWAP1 POP DUP1 DUP4 DUP3 MSTORE PUSH1 0x20 DUP3 ADD SWAP1 POP PUSH1 0x20 DUP5 MUL DUP4 ADD DUP6 DUP2 GT ISZERO PUSH2 0xAEF JUMPI PUSH2 0xAEE PUSH2 0x8DE JUMP JUMPDEST JUMPDEST DUP4 JUMPDEST DUP2 DUP2 LT ISZERO PUSH2 0xB36 JUMPI DUP1 CALLDATALOAD PUSH8 0xFFFFFFFFFFFFFFFF DUP2 GT ISZERO PUSH2 0xB14 JUMPI PUSH2 0xB13 PUSH2 0x821 JUMP JUMPDEST JUMPDEST DUP1 DUP7 ADD PUSH2 0xB21 DUP10 DUP3 PUSH2 0xA8B JUMP JUMPDEST DUP6 MSTORE PUSH1 0x20 DUP6 ADD SWAP5 POP POP POP PUSH1 0x20 DUP2 ADD SWAP1 POP PUSH2 0xAF1 JUMP JUMPDEST POP POP POP SWAP4 SWAP3 POP POP POP JUMP JUMPDEST PUSH1 0x0 DUP3 PUSH1 0x1F DUP4 ADD SLT PUSH2 0xB55 JUMPI PUSH2 0xB54 PUSH2 0x821 JUMP JUMPDEST JUMPDEST DUP2 CALLDATALOAD PUSH2 0xB65 DUP5 DUP3 PUSH1 0x20 DUP7 ADD PUSH2 0xAB9 JUMP JUMPDEST SWAP2 POP POP SWAP3 SWAP2 POP POP JUMP JUMPDEST PUSH1 0x0 PUSH8 0xFFFFFFFFFFFFFFFF DUP3 GT ISZERO PUSH2 0xB89 JUMPI PUSH2 0xB88 PUSH2 0x837 JUMP JUMPDEST JUMPDEST PUSH2 0xB92 DUP3 PUSH2 0x826 JUMP JUMPDEST SWAP1 POP PUSH1 0x20 DUP2 ADD SWAP1 POP SWAP2 SWAP1 POP JUMP JUMPDEST PUSH1 0x0 PUSH2 0xBB2 PUSH2 0xBAD DUP5 PUSH2 0xB6E JUMP JUMPDEST PUSH2 0x897 JUMP JUMPDEST SWAP1 POP DUP3 DUP2 MSTORE PUSH1 0x20 DUP2 ADD DUP5 DUP5 DUP5 ADD GT ISZERO PUSH2 0xBCE JUMPI PUSH2 0xBCD PUSH2 0xA04 JUMP JUMPDEST JUMPDEST PUSH2 0xBD9 DUP5 DUP3 DUP6 PUSH2 0xA3A JUMP JUMPDEST POP SWAP4 SWAP3 POP POP POP JUMP JUMPDEST PUSH1 0x0 DUP3 PUSH1 0x1F DUP4 ADD SLT PUSH2 0xBF6 JUMPI PUSH2 0xBF5 PUSH2 0x821 JUMP JUMPDEST JUMPDEST DUP2 CALLDATALOAD PUSH2 0xC06 DUP5 DUP3 PUSH1 0x20 DUP7 ADD PUSH2 0xB9F JUMP JUMPDEST SWAP2 POP POP SWAP3 SWAP2 POP POP JUMP JUMPDEST PUSH1 0x0 DUP1 PUSH1 0x0 PUSH1 0x60 DUP5 DUP7 SUB SLT ISZERO PUSH2 0xC28 JUMPI PUSH2 0xC27 PUSH2 0x817 JUMP JUMPDEST JUMPDEST PUSH1 0x0 DUP5 ADD CALLDATALOAD PUSH8 0xFFFFFFFFFFFFFFFF DUP2 GT ISZERO PUSH2 0xC46 JUMPI PUSH2 0xC45 PUSH2 0x81C JUMP JUMPDEST JUMPDEST PUSH2 0xC52 DUP7 DUP3 DUP8 ADD PUSH2 0x9AA JUMP JUMPDEST SWAP4 POP POP PUSH1 0x20 DUP5 ADD CALLDATALOAD PUSH8 0xFFFFFFFFFFFFFFFF DUP2 GT ISZERO PUSH2 0xC73 JUMPI PUSH2 0xC72 PUSH2 0x81C JUMP JUMPDEST JUMPDEST PUSH2 0xC7F DUP7 DUP3 DUP8 ADD PUSH2 0xB40 JUMP JUMPDEST SWAP3 POP POP PUSH1 0x40 DUP5 ADD CALLDATALOAD PUSH8 0xFFFFFFFFFFFFFFFF DUP2 GT ISZERO PUSH2 0xCA0 JUMPI PUSH2 0xC9F PUSH2 0x81C JUMP JUMPDEST JUMPDEST PUSH2 0xCAC DUP7 DUP3 DUP8 ADD PUSH2 0xBE1 JUMP JUMPDEST SWAP2 POP POP SWAP3 POP SWAP3 POP SWAP3 JUMP JUMPDEST PUSH1 0x0 DUP2 SWAP1 POP SWAP2 SWAP1 POP JUMP JUMPDEST PUSH2 0xCC9 DUP2 PUSH2 0xCB6 JUMP JUMPDEST DUP3 MSTORE POP POP JUMP JUMPDEST PUSH1 0x0 PUSH1 0x20 DUP3 ADD SWAP1 POP PUSH2 0xCE4 PUSH1 0x0 DUP4 ADD DUP5 PUSH2 0xCC0 JUMP JUMPDEST SWAP3 SWAP2 POP POP JUMP JUMPDEST PUSH2 0xCF3 DUP2 PUSH2 0xCB6 JUMP JUMPDEST DUP2 EQ PUSH2 0xCFE JUMPI PUSH1 0x0 DUP1 REVERT JUMPDEST POP JUMP JUMPDEST PUSH1 0x0 DUP2 CALLDATALOAD SWAP1 POP PUSH2 0xD10 DUP2 PUSH2 0xCEA JUMP JUMPDEST SWAP3 SWAP2 POP POP JUMP JUMPDEST PUSH1 0x0 PUSH1 0x20 DUP3 DUP5 SUB SLT ISZERO PUSH2 0xD2C JUMPI PUSH2 0xD2B PUSH2 0x817 JUMP JUMPDEST JUMPDEST PUSH1 0x0 PUSH2 0xD3A DUP5 DUP3 DUP6 ADD PUSH2 0xD01 JUMP JUMPDEST SWAP2 POP POP SWAP3 SWAP2 POP POP JUMP JUMPDEST PUSH32 0x4E487B7100000000000000000000000000000000000000000000000000000000 PUSH1 0x0 MSTORE PUSH1 0x21 PUSH1 0x4 MSTORE PUSH1 0x24 PUSH1 0x0 REVERT JUMPDEST PUSH1 0x6 DUP2 LT PUSH2 0xD83 JUMPI PUSH2 0xD82 PUSH2 0xD43 JUMP JUMPDEST JUMPDEST POP JUMP JUMPDEST PUSH1 0x0 DUP2 SWAP1 POP PUSH2 0xD94 DUP3 PUSH2 0xD72 JUMP JUMPDEST SWAP2 SWAP1 POP JUMP JUMPDEST PUSH1 0x0 PUSH2 0xDA4 DUP3 PUSH2 0xD86 JUMP JUMPDEST SWAP1 POP SWAP2 SWAP1 POP JUMP JUMPDEST PUSH2 0xDB4 DUP2 PUSH2 0xD99 JUMP JUMPDEST DUP3 MSTORE POP POP JUMP JUMPDEST PUSH1 0x0 PUSH1 0x20 DUP3 ADD SWAP1 POP PUSH2 0xDCF PUSH1 0x0 DUP4 ADD DUP5 PUSH2 0xDAB JUMP JUMPDEST SWAP3 SWAP2 POP POP JUMP JUMPDEST PUSH1 0x0 DUP2 SWAP1 POP SWAP2 SWAP1 POP JUMP JUMPDEST PUSH2 0xDE8 DUP2 PUSH2 0xDD5 JUMP JUMPDEST DUP2 EQ PUSH2 0xDF3 JUMPI PUSH1 0x0 DUP1 REVERT JUMPDEST POP JUMP JUMPDEST PUSH1 0x0 DUP2 CALLDATALOAD SWAP1 POP PUSH2 0xE05 DUP2 PUSH2 0xDDF JUMP JUMPDEST SWAP3 SWAP2 POP POP JUMP JUMPDEST PUSH1 0x0 DUP1 PUSH1 0x0 PUSH1 0x60 DUP5 DUP7 SUB SLT ISZERO PUSH2 0xE24 JUMPI PUSH2 0xE23 PUSH2 0x817 JUMP JUMPDEST JUMPDEST PUSH1 0x0 DUP5 ADD CALLDATALOAD PUSH8 0xFFFFFFFFFFFFFFFF DUP2 GT ISZERO PUSH2 0xE42 JUMPI PUSH2 0xE41 PUSH2 0x81C JUMP JUMPDEST JUMPDEST PUSH2 0xE4E DUP7 DUP3 DUP8 ADD PUSH2 0x9AA JUMP JUMPDEST SWAP4 POP POP PUSH1 0x20 DUP5 ADD CALLDATALOAD PUSH8 0xFFFFFFFFFFFFFFFF DUP2 GT ISZERO PUSH2 0xE6F JUMPI PUSH2 0xE6E PUSH2 0x81C JUMP JUMPDEST JUMPDEST PUSH2 0xE7B DUP7 DUP3 DUP8 ADD PUSH2 0xB40 JUMP JUMPDEST SWAP3 POP POP PUSH1 0x40 PUSH2 0xE8C DUP7 DUP3 DUP8 ADD PUSH2 0xDF6 JUMP JUMPDEST SWAP2 POP POP SWAP3 POP SWAP3 POP SWAP3 JUMP JUMPDEST PUSH1 0x0 DUP1 PUSH1 0x0 DUP1 PUSH1 0x0 DUP1 PUSH1 0xC0 DUP8 DUP10 SUB SLT ISZERO PUSH2 0xEB3 JUMPI PUSH2 0xEB2 PUSH2 0x817 JUMP JUMPDEST JUMPDEST PUSH1 0x0 PUSH2 0xEC1 DUP10 DUP3 DUP11 ADD PUSH2 0xD01 JUMP JUMPDEST SWAP7 POP POP PUSH1 0x20 PUSH2 0xED2 DUP10 DUP3 DUP11 ADD PUSH2 0xD01 JUMP JUMPDEST SWAP6 POP POP PUSH1 0x40 PUSH2 0xEE3 DUP10 DUP3 DUP11 ADD PUSH2 0xD01 JUMP JUMPDEST SWAP5 POP POP PUSH1 0x60 DUP8 ADD CALLDATALOAD PUSH8 0xFFFFFFFFFFFFFFFF DUP2 GT ISZERO PUSH2 0xF04 JUMPI PUSH2 0xF03 PUSH2 0x81C JUMP JUMPDEST JUMPDEST PUSH2 0xF10 DUP10 DUP3 DUP11 ADD PUSH2 0x9AA JUMP JUMPDEST SWAP4 POP POP PUSH1 0x80 DUP8 ADD CALLDATALOAD PUSH8 0xFFFFFFFFFFFFFFFF DUP2 GT ISZERO PUSH2 0xF31 JUMPI PUSH2 0xF30 PUSH2 0x81C JUMP JUMPDEST JUMPDEST PUSH2 0xF3D DUP10 DUP3 DUP11 ADD PUSH2 0xB40 JUMP JUMPDEST SWAP3 POP POP PUSH1 0xA0 DUP8 ADD CALLDATALOAD PUSH8 0xFFFFFFFFFFFFFFFF DUP2 GT ISZERO PUSH2 0xF5E JUMPI PUSH2 0xF5D PUSH2 0x81C JUMP JUMPDEST JUMPDEST PUSH2 0xF6A DUP10 DUP3 DUP11 ADD PUSH2 0xBE1 JUMP JUMPDEST SWAP2 POP POP SWAP3 SWAP6 POP SWAP3 SWAP6 POP SWAP3 SWAP6 JUMP JUMPDEST PUSH1 0x0 DUP1 PUSH1 0x40 DUP4 DUP6 SUB SLT ISZERO PUSH2 0xF8E JUMPI PUSH2 0xF8D PUSH2 0x817 JUMP JUMPDEST JUMPDEST PUSH1 0x0 PUSH2 0xF9C DUP6 DUP3 DUP7 ADD PUSH2 0xD01 JUMP JUMPDEST SWAP3 POP POP PUSH1 0x20 PUSH2 0xFAD DUP6 DUP3 DUP7 ADD PUSH2 0xD01 JUMP JUMPDEST SWAP2 POP POP SWAP3 POP SWAP3 SWAP1 POP JUMP JUMPDEST PUSH1 0x0 DUP3 DUP3 MSTORE PUSH1 0x20 DUP3 ADD SWAP1 POP SWAP3 SWAP2 POP POP JUMP JUMPDEST PUSH32 0x476F7665726E6F723A2070726F706F73616C206E6F7420737563636573736675 PUSH1 0x0 DUP3 ADD MSTORE PUSH32 0x6C00000000000000000000000000000000000000000000000000000000000000 PUSH1 0x20 DUP3 ADD MSTORE POP JUMP JUMPDEST PUSH1 0x0 PUSH2 0x1024 PUSH1 0x21 DUP4 PUSH2 0xFB7 JUMP JUMPDEST SWAP2 POP PUSH2 0x102F DUP3 PUSH2 0xFC8 JUMP JUMPDEST PUSH1 0x40 DUP3 ADD SWAP1 POP SWAP2 SWAP1 POP JUMP JUMPDEST PUSH1 0x0 PUSH1 0x20 DUP3 ADD SWAP1 POP DUP2 DUP2 SUB PUSH1 0x0 DUP4 ADD MSTORE PUSH2 0x1053 DUP2 PUSH2 0x1017 JUMP JUMPDEST SWAP1 POP SWAP2 SWAP1 POP JUMP JUMPDEST PUSH1 0x0 DUP2 MLOAD SWAP1 POP SWAP2 SWAP1 POP JUMP JUMPDEST PUSH1 0x0 DUP3 DUP3 MSTORE PUSH1 0x20 DUP3 ADD SWAP1 POP SWAP3 SWAP2 POP POP JUMP JUMPDEST PUSH1 0x0 DUP2 SWAP1 POP PUSH1 0x20 DUP3 ADD SWAP1 POP SWAP2 SWAP1 POP JUMP JUMPDEST PUSH2 0x108F DUP2 PUSH2 0x903 JUMP JUMPDEST DUP3 MSTORE POP POP JUMP JUMPDEST PUSH1 0x0 PUSH2 0x10A1 DUP4 DUP4 PUSH2 0x1086 JUMP JUMPDEST PUSH1 0x20 DUP4 ADD SWAP1 POP SWAP3 SWAP2 POP POP JUMP JUMPDEST PUSH1 0x0 PUSH1 0x20 DUP3 ADD SWAP1 POP SWAP2 SWAP1 POP JUMP JUMPDEST PUSH1 0x0 PUSH2 0x10C5 DUP3 PUSH2 0x105A JUMP JUMPDEST PUSH2 0x10CF DUP2 DUP6 PUSH2 0x1065 JUMP JUMPDEST SWAP4 POP PUSH2 0x10DA DUP4 PUSH2 0x1076 JUMP JUMPDEST DUP1 PUSH1 0x0 JUMPDEST DUP4 DUP2 LT ISZERO PUSH2 0x110B JUMPI DUP2 MLOAD PUSH2 0x10F2 DUP9 DUP3 PUSH2 0x1095 JUMP JUMPDEST SWAP8 POP PUSH2 0x10FD DUP4 PUSH2 0x10AD JUMP JUMPDEST SWAP3 POP POP PUSH1 0x1 DUP2 ADD SWAP1 POP PUSH2 0x10DE JUMP JUMPDEST POP DUP6 SWAP4 POP POP POP POP SWAP3 SWAP2 POP POP JUMP JUMPDEST PUSH1 0x0 DUP2 MLOAD SWAP1 POP SWAP2 SWAP1 POP JUMP JUMPDEST PUSH1 0x0 DUP3 DUP3 MSTORE PUSH1 0x20 DUP3 ADD SWAP1 POP SWAP3 SWAP2 POP POP JUMP JUMPDEST PUSH1 0x0 DUP2 SWAP1 POP PUSH1 0x20 DUP3 ADD SWAP1 POP SWAP2 SWAP1 POP JUMP JUMPDEST PUSH1 0x0 DUP2 MLOAD SWAP1 POP SWAP2 SWAP1 POP JUMP JUMPDEST PUSH1 0x0 DUP3 DUP3 MSTORE PUSH1 0x20 DUP3 ADD SWAP1 POP SWAP3 SWAP2 POP POP JUMP JUMPDEST PUSH1 0x0 JUMPDEST DUP4 DUP2 LT ISZERO PUSH2 0x117E JUMPI DUP1 DUP3 ADD MLOAD DUP2 DUP5 ADD MSTORE PUSH1 0x20 DUP2 ADD SWAP1 POP PUSH2 0x1163 JUMP JUMPDEST DUP4 DUP2 GT ISZERO PUSH2 0x118D JUMPI PUSH1 0x0 DUP5 DUP5 ADD MSTORE JUMPDEST POP POP POP POP JUMP JUMPDEST PUSH1 0x0 PUSH2 0x119E DUP3 PUSH2 0x1144 JUMP JUMPDEST PUSH2 0x11A8 DUP2 DUP6 PUSH2 0x114F JUMP JUMPDEST SWAP4 POP PUSH2 0x11B8 DUP2 DUP6 PUSH1 0x20 DUP7 ADD PUSH2 0x1160 JUMP JUMPDEST PUSH2 0x11C1 DUP2 PUSH2 0x826 JUMP JUMPDEST DUP5 ADD SWAP2 POP POP SWAP3 SWAP2 POP POP JUMP JUMPDEST PUSH1 0x0 PUSH2 0x11D8 DUP4 DUP4 PUSH2 0x1193 JUMP JUMPDEST SWAP1 POP SWAP3 SWAP2 POP POP JUMP JUMPDEST PUSH1 0x0 PUSH1 0x20 DUP3 ADD SWAP1 POP SWAP2 SWAP1 POP JUMP JUMPDEST PUSH1 0x0 PUSH2 0x11F8 DUP3 PUSH2 0x1118 JUMP JUMPDEST PUSH2 0x1202 DUP2 DUP6 PUSH2 0x1123 JUMP JUMPDEST SWAP4 POP DUP4 PUSH1 0x20 DUP3 MUL DUP6 ADD PUSH2 0x1214 DUP6 PUSH2 0x1134 JUMP JUMPDEST DUP1 PUSH1 0x0 JUMPDEST DUP6 DUP2 LT ISZERO PUSH2 0x1250 JUMPI DUP5 DUP5 SUB DUP10 MSTORE DUP2 MLOAD PUSH2 0x1231 DUP6 DUP3 PUSH2 0x11CC JUMP JUMPDEST SWAP5 POP PUSH2 0x123C DUP4 PUSH2 0x11E0 JUMP JUMPDEST SWAP3 POP PUSH1 0x20 DUP11 ADD SWAP10 POP POP PUSH1 0x1 DUP2 ADD SWAP1 POP PUSH2 0x1218 JUMP JUMPDEST POP DUP3 SWAP8 POP DUP8 SWAP6 POP POP POP POP POP POP SWAP3 SWAP2 POP POP JUMP JUMPDEST PUSH2 0x126B DUP2 PUSH2 0xDD5 JUMP JUMPDEST DUP3 MSTORE POP POP JUMP JUMPDEST PUSH1 0x0 PUSH1 0x60 DUP3 ADD SWAP1 POP DUP2 DUP2 SUB PUSH1 0x0 DUP4 ADD MSTORE PUSH2 0x128B DUP2 DUP7 PUSH2 0x10BA JUMP JUMPDEST SWAP1 POP DUP2 DUP2 SUB PUSH1 0x20 DUP4 ADD MSTORE PUSH2 0x129F DUP2 DUP6 PUSH2 0x11ED JUMP JUMPDEST SWAP1 POP PUSH2 0x12AE PUSH1 0x40 DUP4 ADD DUP5 PUSH2 0x1262 JUMP JUMPDEST SWAP5 SWAP4 POP POP POP POP JUMP JUMPDEST PUSH32 0x4E487B7100000000000000000000000000000000000000000000000000000000 PUSH1 0x0 MSTORE PUSH1 0x11 PUSH1 0x4 MSTORE PUSH1 0x24 PUSH1 0x0 REVERT JUMPDEST PUSH1 0x0 PUSH2 0x12F0 DUP3 PUSH2 0xCB6 JUMP JUMPDEST SWAP2 POP PUSH2 0x12FB DUP4 PUSH2 0xCB6 JUMP JUMPDEST SWAP3 POP DUP2 PUSH32 0xFFFFFFFFFFFFFFFFFFFFFFFFFFFFFFFFFFFFFFFFFFFFFFFFFFFFFFFFFFFFFFFF DIV DUP4 GT DUP3 ISZERO ISZERO AND ISZERO PUSH2 0x1334 JUMPI PUSH2 0x1333 PUSH2 0x12B6 JUMP JUMPDEST JUMPDEST DUP3 DUP3 MUL SWAP1 POP SWAP3 SWAP2 POP POP JUMP JUMPDEST PUSH1 0x0 PUSH2 0x134A DUP3 PUSH2 0xCB6 JUMP JUMPDEST SWAP2 POP PUSH2 0x1355 DUP4 PUSH2 0xCB6 JUMP JUMPDEST SWAP3 POP DUP3 PUSH32 0xFFFFFFFFFFFFFFFFFFFFFFFFFFFFFFFFFFFFFFFFFFFFFFFFFFFFFFFFFFFFFFFF SUB DUP3 GT ISZERO PUSH2 0x138A JUMPI PUSH2 0x1389 PUSH2 0x12B6 JUMP JUMPDEST JUMPDEST DUP3 DUP3 ADD SWAP1 POP SWAP3 SWAP2 POP POP JUMP JUMPDEST PUSH32 0x4E487B7100000000000000000000000000000000000000000000000000000000 PUSH1 0x0 MSTORE PUSH1 0x32 PUSH1 0x4 MSTORE PUSH1 0x24 PUSH1 0x0 REVERT JUMPDEST PUSH32 0x4E487B7100000000000000000000000000000000000000000000000000000000 PUSH1 0x0 MSTORE PUSH1 0x12 PUSH1 0x4 MSTORE PUSH1 0x24 PUSH1 0x0 REVERT JUMPDEST PUSH1 0x0 PUSH2 0x13FE DUP3 PUSH2 0xCB6 JUMP JUMPDEST SWAP2 POP PUSH2 0x1409 DUP4 PUSH2 0xCB6 JUMP JUMPDEST SWAP3 POP DUP3 PUSH2 0x1419 JUMPI PUSH2 0x1418 PUSH2 0x13C4 JUMP JUMPDEST JUMPDEST DUP3 DUP3 DIV SWAP1 POP SWAP3 SWAP2 POP POP JUMP JUMPDEST PUSH1 0x0 DUP2 SWAP1 POP SWAP3 SWAP2 POP POP JUMP JUMPDEST PUSH1 0x0 PUSH2 0x143A DUP3 PUSH2 0x1144 JUMP JUMPDEST PUSH2 0x1444 DUP2 DUP6 PUSH2 0x1424 JUMP JUMPDEST SWAP4 POP PUSH2 0x1454 DUP2 DUP6 PUSH1 0x20 DUP7 ADD PUSH2 0x1160 JUMP JUMPDEST DUP1 DUP5 ADD SWAP2 POP POP SWAP3 SWAP2 POP POP JUMP JUMPDEST PUSH1 0x0 PUSH2 0x146C DUP3 DUP5 PUSH2 0x142F JUMP JUMPDEST SWAP2 POP DUP2 SWAP1 POP SWAP3 SWAP2 POP POP JUMP JUMPDEST PUSH1 0x0 PUSH2 0x1482 DUP3 PUSH2 0xCB6 JUMP JUMPDEST SWAP2 POP PUSH32 0xFFFFFFFFFFFFFFFFFFFFFFFFFFFFFFFFFFFFFFFFFFFFFFFFFFFFFFFFFFFFFFFF DUP3 SUB PUSH2 0x14B4 JUMPI PUSH2 0x14B3 PUSH2 0x12B6 JUMP JUMPDEST JUMPDEST PUSH1 0x1 DUP3 ADD SWAP1 POP SWAP2 SWAP1 POP JUMP INVALID SELFBALANCE PUSH16 0x7665726E6F723A2063616C6C20726576 PUSH6 0x727465642077 PUSH10 0x74686F7574206D657373 PUSH2 0x6765 LOG2 PUSH5 0x6970667358 0x22 SLT KECCAK256 PUSH26 0x93E70ED131F9ED8F698D0F7EE0C5A0928746806523F15FEA8015 0xB7 0xC0 SWAP10 0xBF MSTORE8 PUSH5 0x736F6C6343 STOP ADDMOD 0xD STOP CALLER "
				},
				"gasEstimates": {
					"creation": {
						"codeDepositCost": "1080800",
						"executionCost": "1120",
						"totalCost": "1081920"
					},
					"external": {
						"execute(address[],bytes[],string)": "infinite",
						"getCurrentAmount(uint256)": "infinite",
						"hashProposal(address[],bytes[],bytes32)": "infinite",
						"proposal(uint256,uint256,uint256,address[],bytes[],string)": "infinite",
						"proposalDeadline(uint256)": "infinite",
						"proposalDonateMinimum(uint256)": "infinite",
						"proposalSnapshot(uint256)": "infinite",
						"setCurrentAmount(uint256,uint256)": "infinite",
						"state(uint256)": "infinite"
					},
					"internal": {
						"_execute(uint256,address[] memory,uint256,bytes memory[] memory)": "infinite"
					}
				},
				"methodIdentifiers": {
					"execute(address[],bytes[],string)": "11864146",
					"getCurrentAmount(uint256)": "56e78dc3",
					"hashProposal(address[],bytes[],bytes32)": "b50f1f8f",
					"proposal(uint256,uint256,uint256,address[],bytes[],string)": "df6b65de",
					"proposalDeadline(uint256)": "c01f9e37",
					"proposalDonateMinimum(uint256)": "f68deaf9",
					"proposalSnapshot(uint256)": "2d63f693",
					"setCurrentAmount(uint256,uint256)": "eb9094a2",
					"state(uint256)": "3e4f49e6"
				}
			},
			"storageLayout": {
				"storage": [
					{
						"astId": 41,
						"contract": ".workspaces/default_workspace/unMiracle/UMRproposal.sol:UMRproposal",
						"label": "_proposals",
						"offset": 0,
						"slot": "0",
						"type": "t_mapping(t_uint256,t_struct(ProposalCore)36_storage)"
					}
				],
				"types": {
					"t_bool": {
						"encoding": "inplace",
						"label": "bool",
						"numberOfBytes": "1"
					},
					"t_mapping(t_uint256,t_struct(ProposalCore)36_storage)": {
						"encoding": "mapping",
						"key": "t_uint256",
						"label": "mapping(uint256 => struct UMRproposal.ProposalCore)",
						"numberOfBytes": "32",
						"value": "t_struct(ProposalCore)36_storage"
					},
					"t_struct(ProposalCore)36_storage": {
						"encoding": "inplace",
						"label": "struct UMRproposal.ProposalCore",
						"members": [
							{
								"astId": 22,
								"contract": ".workspaces/default_workspace/unMiracle/UMRproposal.sol:UMRproposal",
								"label": "donationStart",
								"offset": 0,
								"slot": "0",
								"type": "t_struct(SetInfo)424_storage"
							},
							{
								"astId": 25,
								"contract": ".workspaces/default_workspace/unMiracle/UMRproposal.sol:UMRproposal",
								"label": "donationEnd",
								"offset": 0,
								"slot": "3",
								"type": "t_struct(SetInfo)424_storage"
							},
							{
								"astId": 28,
								"contract": ".workspaces/default_workspace/unMiracle/UMRproposal.sol:UMRproposal",
								"label": "donateMinimum",
								"offset": 0,
								"slot": "6",
								"type": "t_struct(SetInfo)424_storage"
							},
							{
								"astId": 31,
								"contract": ".workspaces/default_workspace/unMiracle/UMRproposal.sol:UMRproposal",
								"label": "donate",
								"offset": 0,
								"slot": "9",
								"type": "t_struct(SetInfo)424_storage"
							},
							{
								"astId": 33,
								"contract": ".workspaces/default_workspace/unMiracle/UMRproposal.sol:UMRproposal",
								"label": "executed",
								"offset": 0,
								"slot": "12",
								"type": "t_bool"
							},
							{
								"astId": 35,
								"contract": ".workspaces/default_workspace/unMiracle/UMRproposal.sol:UMRproposal",
								"label": "canceled",
								"offset": 1,
								"slot": "12",
								"type": "t_bool"
							}
						],
						"numberOfBytes": "416"
					},
					"t_struct(SetInfo)424_storage": {
						"encoding": "inplace",
						"label": "struct Setting.SetInfo",
						"members": [
							{
								"astId": 419,
								"contract": ".workspaces/default_workspace/unMiracle/UMRproposal.sol:UMRproposal",
								"label": "deadline",
								"offset": 0,
								"slot": "0",
								"type": "t_uint256"
							},
							{
								"astId": 421,
								"contract": ".workspaces/default_workspace/unMiracle/UMRproposal.sol:UMRproposal",
								"label": "amount",
								"offset": 0,
								"slot": "1",
								"type": "t_uint256"
							},
							{
								"astId": 423,
								"contract": ".workspaces/default_workspace/unMiracle/UMRproposal.sol:UMRproposal",
								"label": "currentAmount",
								"offset": 0,
								"slot": "2",
								"type": "t_uint256"
							}
						],
						"numberOfBytes": "96"
					},
					"t_uint256": {
						"encoding": "inplace",
						"label": "uint256",
						"numberOfBytes": "32"
					}
				}
			},
			"userdoc": {
				"kind": "user",
				"methods": {},
				"version": 1
			}
		}
	}
}