{
	".workspaces/default_workspace/unMiracle/UMRproposal.sol": {
		"UMRproposal": {
			"abi": [
				{
					"inputs": [
						{
							"internalType": "address",
							"name": "destination",
							"type": "address"
						},
						{
							"internalType": "string",
							"name": "description",
							"type": "string"
						},
						{
							"internalType": "bytes[]",
							"name": "calldatas",
							"type": "bytes[]"
						}
					],
					"name": "execute",
					"outputs": [
						{
							"internalType": "uint256",
							"name": "",
							"type": "uint256"
						}
					],
					"stateMutability": "payable",
					"type": "function"
				},
				{
					"inputs": [
						{
							"internalType": "address",
							"name": "destination",
							"type": "address"
						},
						{
							"internalType": "bytes[]",
							"name": "calldatas",
							"type": "bytes[]"
						},
						{
							"internalType": "bytes32",
							"name": "descriptionHash",
							"type": "bytes32"
						}
					],
					"name": "hashProposal",
					"outputs": [
						{
							"internalType": "uint256",
							"name": "",
							"type": "uint256"
						}
					],
					"stateMutability": "pure",
					"type": "function"
				},
				{
					"inputs": [
						{
							"internalType": "uint256",
							"name": "donateDelay",
							"type": "uint256"
						},
						{
							"internalType": "uint256",
							"name": "donatePeriod",
							"type": "uint256"
						},
						{
							"internalType": "uint256",
							"name": "donateMinimum",
							"type": "uint256"
						},
						{
							"internalType": "address",
							"name": "destination",
							"type": "address"
						},
						{
							"internalType": "string",
							"name": "description",
							"type": "string"
						},
						{
							"internalType": "bytes[]",
							"name": "calldatas",
							"type": "bytes[]"
						}
					],
					"name": "proposal",
					"outputs": [
						{
							"internalType": "uint256",
							"name": "",
							"type": "uint256"
						}
					],
					"stateMutability": "nonpayable",
					"type": "function"
				},
				{
					"inputs": [
						{
							"internalType": "uint256",
							"name": "proposalId",
							"type": "uint256"
						}
					],
					"name": "proposalDeadline",
					"outputs": [
						{
							"internalType": "uint256",
							"name": "",
							"type": "uint256"
						}
					],
					"stateMutability": "view",
					"type": "function"
				},
				{
					"inputs": [
						{
							"internalType": "uint256",
							"name": "proposalId",
							"type": "uint256"
						}
					],
					"name": "proposalDonateMinimum",
					"outputs": [
						{
							"internalType": "uint256",
							"name": "",
							"type": "uint256"
						}
					],
					"stateMutability": "view",
					"type": "function"
				},
				{
					"inputs": [
						{
							"internalType": "uint256",
							"name": "proposalId",
							"type": "uint256"
						}
					],
					"name": "proposalSnapshot",
					"outputs": [
						{
							"internalType": "uint256",
							"name": "",
							"type": "uint256"
						}
					],
					"stateMutability": "view",
					"type": "function"
				},
				{
					"inputs": [
						{
							"internalType": "uint256",
							"name": "proposalId",
							"type": "uint256"
						}
					],
					"name": "state",
					"outputs": [
						{
							"internalType": "enum IUMRcore.ProposalState",
							"name": "",
							"type": "uint8"
						}
					],
					"stateMutability": "view",
					"type": "function"
				}
			],
			"devdoc": {
				"kind": "dev",
				"methods": {},
				"version": 1
			},
			"evm": {
				"assembly": "    /* \".workspaces/default_workspace/unMiracle/UMRproposal.sol\":113:3714  contract UMRproposal is IUMRcore{... */\n  mstore(0x40, 0x80)\n  callvalue\n  dup1\n  iszero\n  tag_1\n  jumpi\n  0x00\n  dup1\n  revert\ntag_1:\n  pop\n  dataSize(sub_0)\n  dup1\n  dataOffset(sub_0)\n  0x00\n  codecopy\n  0x00\n  return\nstop\n\nsub_0: assembly {\n        /* \".workspaces/default_workspace/unMiracle/UMRproposal.sol\":113:3714  contract UMRproposal is IUMRcore{... */\n      mstore(0x40, 0x80)\n      jumpi(tag_1, lt(calldatasize, 0x04))\n      shr(0xe0, calldataload(0x00))\n      dup1\n      0x8c4461b3\n      gt\n      tag_9\n      jumpi\n      dup1\n      0x8c4461b3\n      eq\n      tag_5\n      jumpi\n      dup1\n      0xa627e447\n      eq\n      tag_6\n      jumpi\n      dup1\n      0xc01f9e37\n      eq\n      tag_7\n      jumpi\n      dup1\n      0xf68deaf9\n      eq\n      tag_8\n      jumpi\n      jump(tag_1)\n    tag_9:\n      dup1\n      0x2d63f693\n      eq\n      tag_2\n      jumpi\n      dup1\n      0x3e4f49e6\n      eq\n      tag_3\n      jumpi\n      dup1\n      0x8c0e09f5\n      eq\n      tag_4\n      jumpi\n    tag_1:\n      0x00\n      dup1\n      revert\n        /* \".workspaces/default_workspace/unMiracle/UMRproposal.sol\":2748:2906  function proposalSnapshot(uint256 proposalId) public view virtual returns (uint256) {... */\n    tag_2:\n      callvalue\n      dup1\n      iszero\n      tag_10\n      jumpi\n      0x00\n      dup1\n      revert\n    tag_10:\n      pop\n      tag_11\n      0x04\n      dup1\n      calldatasize\n      sub\n      dup2\n      add\n      swap1\n      tag_12\n      swap2\n      swap1\n      tag_13\n      jump\t// in\n    tag_12:\n      tag_14\n      jump\t// in\n    tag_11:\n      mload(0x40)\n      tag_15\n      swap2\n      swap1\n      tag_16\n      jump\t// in\n    tag_15:\n      mload(0x40)\n      dup1\n      swap2\n      sub\n      swap1\n      return\n        /* \".workspaces/default_workspace/unMiracle/UMRproposal.sol\":444:1239  function state(uint256 proposalId) public view returns (ProposalState) {... */\n    tag_3:\n      callvalue\n      dup1\n      iszero\n      tag_17\n      jumpi\n      0x00\n      dup1\n      revert\n    tag_17:\n      pop\n      tag_18\n      0x04\n      dup1\n      calldatasize\n      sub\n      dup2\n      add\n      swap1\n      tag_19\n      swap2\n      swap1\n      tag_13\n      jump\t// in\n    tag_19:\n      tag_20\n      jump\t// in\n    tag_18:\n      mload(0x40)\n      tag_21\n      swap2\n      swap1\n      tag_22\n      jump\t// in\n    tag_21:\n      mload(0x40)\n      dup1\n      swap2\n      sub\n      swap1\n      return\n        /* \".workspaces/default_workspace/unMiracle/UMRproposal.sol\":1580:2710  function proposal(... */\n    tag_4:\n      callvalue\n      dup1\n      iszero\n      tag_23\n      jumpi\n      0x00\n      dup1\n      revert\n    tag_23:\n      pop\n      tag_24\n      0x04\n      dup1\n      calldatasize\n      sub\n      dup2\n      add\n      swap1\n      tag_25\n      swap2\n      swap1\n      tag_26\n      jump\t// in\n    tag_25:\n      tag_27\n      jump\t// in\n    tag_24:\n      mload(0x40)\n      tag_28\n      swap2\n      swap1\n      tag_16\n      jump\t// in\n    tag_28:\n      mload(0x40)\n      dup1\n      swap2\n      sub\n      swap1\n      return\n        /* \".workspaces/default_workspace/unMiracle/UMRproposal.sol\":1246:1574  function hashProposal(... */\n    tag_5:\n      callvalue\n      dup1\n      iszero\n      tag_29\n      jumpi\n      0x00\n      dup1\n      revert\n    tag_29:\n      pop\n      tag_30\n      0x04\n      dup1\n      calldatasize\n      sub\n      dup2\n      add\n      swap1\n      tag_31\n      swap2\n      swap1\n      tag_32\n      jump\t// in\n    tag_31:\n      tag_33\n      jump\t// in\n    tag_30:\n      mload(0x40)\n      tag_34\n      swap2\n      swap1\n      tag_16\n      jump\t// in\n    tag_34:\n      mload(0x40)\n      dup1\n      swap2\n      sub\n      swap1\n      return\n        /* \".workspaces/default_workspace/unMiracle/UMRproposal.sol\":3303:3712  function execute(... */\n    tag_6:\n      tag_35\n      0x04\n      dup1\n      calldatasize\n      sub\n      dup2\n      add\n      swap1\n      tag_36\n      swap2\n      swap1\n      tag_37\n      jump\t// in\n    tag_36:\n      tag_38\n      jump\t// in\n    tag_35:\n      mload(0x40)\n      tag_39\n      swap2\n      swap1\n      tag_16\n      jump\t// in\n    tag_39:\n      mload(0x40)\n      dup1\n      swap2\n      sub\n      swap1\n      return\n        /* \".workspaces/default_workspace/unMiracle/UMRproposal.sol\":2943:3099  function proposalDeadline(uint256 proposalId) public view virtual returns (uint256) {... */\n    tag_7:\n      callvalue\n      dup1\n      iszero\n      tag_40\n      jumpi\n      0x00\n      dup1\n      revert\n    tag_40:\n      pop\n      tag_41\n      0x04\n      dup1\n      calldatasize\n      sub\n      dup2\n      add\n      swap1\n      tag_42\n      swap2\n      swap1\n      tag_13\n      jump\t// in\n    tag_42:\n      tag_43\n      jump\t// in\n    tag_41:\n      mload(0x40)\n      tag_44\n      swap2\n      swap1\n      tag_16\n      jump\t// in\n    tag_44:\n      mload(0x40)\n      dup1\n      swap2\n      sub\n      swap1\n      return\n        /* \".workspaces/default_workspace/unMiracle/UMRproposal.sol\":3136:3297  function proposalDonateMinimum(uint256 proposalId) public view virtual returns (uint256) {... */\n    tag_8:\n      callvalue\n      dup1\n      iszero\n      tag_45\n      jumpi\n      0x00\n      dup1\n      revert\n    tag_45:\n      pop\n      tag_46\n      0x04\n      dup1\n      calldatasize\n      sub\n      dup2\n      add\n      swap1\n      tag_47\n      swap2\n      swap1\n      tag_13\n      jump\t// in\n    tag_47:\n      tag_48\n      jump\t// in\n    tag_46:\n      mload(0x40)\n      tag_49\n      swap2\n      swap1\n      tag_16\n      jump\t// in\n    tag_49:\n      mload(0x40)\n      dup1\n      swap2\n      sub\n      swap1\n      return\n        /* \".workspaces/default_workspace/unMiracle/UMRproposal.sol\":2748:2906  function proposalSnapshot(uint256 proposalId) public view virtual returns (uint256) {... */\n    tag_14:\n        /* \".workspaces/default_workspace/unMiracle/UMRproposal.sol\":2823:2830  uint256 */\n      0x00\n        /* \".workspaces/default_workspace/unMiracle/UMRproposal.sol\":2849:2899  _proposals[proposalId].donationStart.getDeadline() */\n      tag_51\n        /* \".workspaces/default_workspace/unMiracle/UMRproposal.sol\":2849:2859  _proposals */\n      0x00\n        /* \".workspaces/default_workspace/unMiracle/UMRproposal.sol\":2849:2871  _proposals[proposalId] */\n      dup1\n        /* \".workspaces/default_workspace/unMiracle/UMRproposal.sol\":2860:2870  proposalId */\n      dup5\n        /* \".workspaces/default_workspace/unMiracle/UMRproposal.sol\":2849:2871  _proposals[proposalId] */\n      dup2\n      mstore\n      0x20\n      add\n      swap1\n      dup2\n      mstore\n      0x20\n      add\n      0x00\n      keccak256\n        /* \".workspaces/default_workspace/unMiracle/UMRproposal.sol\":2849:2885  _proposals[proposalId].donationStart */\n      0x00\n      add\n        /* \".workspaces/default_workspace/unMiracle/UMRproposal.sol\":2849:2897  _proposals[proposalId].donationStart.getDeadline */\n      mload(0x40)\n      dup1\n      0x40\n      add\n      0x40\n      mstore\n      swap1\n      dup2\n      0x00\n      dup3\n      add\n      sload\n      dup2\n      mstore\n      0x20\n      add\n      0x01\n      dup3\n      add\n      sload\n      dup2\n      mstore\n      pop\n      pop\n      tag_52\n        /* \".workspaces/default_workspace/unMiracle/UMRproposal.sol\":2849:2899  _proposals[proposalId].donationStart.getDeadline() */\n      jump\t// in\n    tag_51:\n        /* \".workspaces/default_workspace/unMiracle/UMRproposal.sol\":2842:2899  return _proposals[proposalId].donationStart.getDeadline() */\n      swap1\n      pop\n        /* \".workspaces/default_workspace/unMiracle/UMRproposal.sol\":2748:2906  function proposalSnapshot(uint256 proposalId) public view virtual returns (uint256) {... */\n      swap2\n      swap1\n      pop\n      jump\t// out\n        /* \".workspaces/default_workspace/unMiracle/UMRproposal.sol\":444:1239  function state(uint256 proposalId) public view returns (ProposalState) {... */\n    tag_20:\n        /* \".workspaces/default_workspace/unMiracle/UMRproposal.sol\":500:513  ProposalState */\n      0x00\n        /* \".workspaces/default_workspace/unMiracle/UMRproposal.sol\":525:554  ProposalCore storage proposal */\n      dup1\n        /* \".workspaces/default_workspace/unMiracle/UMRproposal.sol\":557:567  _proposals */\n      0x00\n        /* \".workspaces/default_workspace/unMiracle/UMRproposal.sol\":557:579  _proposals[proposalId] */\n      dup1\n        /* \".workspaces/default_workspace/unMiracle/UMRproposal.sol\":568:578  proposalId */\n      dup5\n        /* \".workspaces/default_workspace/unMiracle/UMRproposal.sol\":557:579  _proposals[proposalId] */\n      dup2\n      mstore\n      0x20\n      add\n      swap1\n      dup2\n      mstore\n      0x20\n      add\n      0x00\n      keccak256\n        /* \".workspaces/default_workspace/unMiracle/UMRproposal.sol\":525:579  ProposalCore storage proposal = _proposals[proposalId] */\n      swap1\n      pop\n        /* \".workspaces/default_workspace/unMiracle/UMRproposal.sol\":658:666  proposal */\n      dup1\n        /* \".workspaces/default_workspace/unMiracle/UMRproposal.sol\":658:675  proposal.executed */\n      0x06\n      add\n      0x00\n      swap1\n      sload\n      swap1\n      0x0100\n      exp\n      swap1\n      div\n      0xff\n      and\n        /* \".workspaces/default_workspace/unMiracle/UMRproposal.sol\":654:731  if (proposal.executed) {... */\n      iszero\n      tag_54\n      jumpi\n        /* \".workspaces/default_workspace/unMiracle/UMRproposal.sol\":698:720  ProposalState.Executed */\n      0x07\n        /* \".workspaces/default_workspace/unMiracle/UMRproposal.sol\":691:720  return ProposalState.Executed */\n      swap2\n      pop\n      pop\n      jump(tag_53)\n        /* \".workspaces/default_workspace/unMiracle/UMRproposal.sol\":654:731  if (proposal.executed) {... */\n    tag_54:\n        /* \".workspaces/default_workspace/unMiracle/UMRproposal.sol\":785:793  proposal */\n      dup1\n        /* \".workspaces/default_workspace/unMiracle/UMRproposal.sol\":785:802  proposal.canceled */\n      0x06\n      add\n      0x01\n      swap1\n      sload\n      swap1\n      0x0100\n      exp\n      swap1\n      div\n      0xff\n      and\n        /* \".workspaces/default_workspace/unMiracle/UMRproposal.sol\":781:858  if (proposal.canceled) {... */\n      iszero\n      tag_55\n      jumpi\n        /* \".workspaces/default_workspace/unMiracle/UMRproposal.sol\":825:847  ProposalState.Canceled */\n      0x02\n        /* \".workspaces/default_workspace/unMiracle/UMRproposal.sol\":818:847  return ProposalState.Canceled */\n      swap2\n      pop\n      pop\n      jump(tag_53)\n        /* \".workspaces/default_workspace/unMiracle/UMRproposal.sol\":781:858  if (proposal.canceled) {... */\n    tag_55:\n        /* \".workspaces/default_workspace/unMiracle/UMRproposal.sol\":868:884  uint256 snapshot */\n      0x00\n        /* \".workspaces/default_workspace/unMiracle/UMRproposal.sol\":887:915  proposalSnapshot(proposalId) */\n      tag_56\n        /* \".workspaces/default_workspace/unMiracle/UMRproposal.sol\":904:914  proposalId */\n      dup5\n        /* \".workspaces/default_workspace/unMiracle/UMRproposal.sol\":887:903  proposalSnapshot */\n      tag_14\n        /* \".workspaces/default_workspace/unMiracle/UMRproposal.sol\":887:915  proposalSnapshot(proposalId) */\n      jump\t// in\n    tag_56:\n        /* \".workspaces/default_workspace/unMiracle/UMRproposal.sol\":868:915  uint256 snapshot = proposalSnapshot(proposalId) */\n      swap1\n      pop\n        /* \".workspaces/default_workspace/unMiracle/UMRproposal.sol\":981:996  block.timestamp */\n      timestamp\n        /* \".workspaces/default_workspace/unMiracle/UMRproposal.sol\":969:977  snapshot */\n      dup2\n        /* \".workspaces/default_workspace/unMiracle/UMRproposal.sol\":969:996  snapshot >= block.timestamp */\n      lt\n        /* \".workspaces/default_workspace/unMiracle/UMRproposal.sol\":965:1051  if (snapshot >= block.timestamp) {... */\n      tag_57\n      jumpi\n        /* \".workspaces/default_workspace/unMiracle/UMRproposal.sol\":1019:1040  ProposalState.Pending */\n      0x00\n        /* \".workspaces/default_workspace/unMiracle/UMRproposal.sol\":1012:1040  return ProposalState.Pending */\n      swap3\n      pop\n      pop\n      pop\n      jump(tag_53)\n        /* \".workspaces/default_workspace/unMiracle/UMRproposal.sol\":965:1051  if (snapshot >= block.timestamp) {... */\n    tag_57:\n        /* \".workspaces/default_workspace/unMiracle/UMRproposal.sol\":1061:1077  uint256 deadline */\n      0x00\n        /* \".workspaces/default_workspace/unMiracle/UMRproposal.sol\":1080:1108  proposalDeadline(proposalId) */\n      tag_58\n        /* \".workspaces/default_workspace/unMiracle/UMRproposal.sol\":1097:1107  proposalId */\n      dup6\n        /* \".workspaces/default_workspace/unMiracle/UMRproposal.sol\":1080:1096  proposalDeadline */\n      tag_43\n        /* \".workspaces/default_workspace/unMiracle/UMRproposal.sol\":1080:1108  proposalDeadline(proposalId) */\n      jump\t// in\n    tag_58:\n        /* \".workspaces/default_workspace/unMiracle/UMRproposal.sol\":1061:1108  uint256 deadline = proposalDeadline(proposalId) */\n      swap1\n      pop\n        /* \".workspaces/default_workspace/unMiracle/UMRproposal.sol\":1164:1179  block.timestamp */\n      timestamp\n        /* \".workspaces/default_workspace/unMiracle/UMRproposal.sol\":1152:1160  deadline */\n      dup2\n        /* \".workspaces/default_workspace/unMiracle/UMRproposal.sol\":1152:1179  deadline >= block.timestamp */\n      lt\n        /* \".workspaces/default_workspace/unMiracle/UMRproposal.sol\":1148:1233  if (deadline >= block.timestamp) {... */\n      tag_59\n      jumpi\n        /* \".workspaces/default_workspace/unMiracle/UMRproposal.sol\":1202:1222  ProposalState.Active */\n      0x01\n        /* \".workspaces/default_workspace/unMiracle/UMRproposal.sol\":1195:1222  return ProposalState.Active */\n      swap4\n      pop\n      pop\n      pop\n      pop\n      jump(tag_53)\n        /* \".workspaces/default_workspace/unMiracle/UMRproposal.sol\":1148:1233  if (deadline >= block.timestamp) {... */\n    tag_59:\n        /* \".workspaces/default_workspace/unMiracle/UMRproposal.sol\":515:1239  {... */\n      pop\n      pop\n      pop\n        /* \".workspaces/default_workspace/unMiracle/UMRproposal.sol\":444:1239  function state(uint256 proposalId) public view returns (ProposalState) {... */\n    tag_53:\n      swap2\n      swap1\n      pop\n      jump\t// out\n        /* \".workspaces/default_workspace/unMiracle/UMRproposal.sol\":1580:2710  function proposal(... */\n    tag_27:\n        /* \".workspaces/default_workspace/unMiracle/UMRproposal.sol\":1980:1987  uint256 */\n      0x00\n        /* \".workspaces/default_workspace/unMiracle/UMRproposal.sol\":2104:2122  uint256 proposalId */\n      dup1\n        /* \".workspaces/default_workspace/unMiracle/UMRproposal.sol\":2125:2192  hashProposal(destination, calldatas, keccak256(bytes(description))) */\n      tag_61\n        /* \".workspaces/default_workspace/unMiracle/UMRproposal.sol\":2138:2149  destination */\n      dup6\n        /* \".workspaces/default_workspace/unMiracle/UMRproposal.sol\":2151:2160  calldatas */\n      dup5\n        /* \".workspaces/default_workspace/unMiracle/UMRproposal.sol\":2178:2189  description */\n      dup7\n        /* \".workspaces/default_workspace/unMiracle/UMRproposal.sol\":2162:2191  keccak256(bytes(description)) */\n      dup1\n      mload\n      swap1\n      0x20\n      add\n      keccak256\n        /* \".workspaces/default_workspace/unMiracle/UMRproposal.sol\":2125:2137  hashProposal */\n      tag_33\n        /* \".workspaces/default_workspace/unMiracle/UMRproposal.sol\":2125:2192  hashProposal(destination, calldatas, keccak256(bytes(description))) */\n      jump\t// in\n    tag_61:\n        /* \".workspaces/default_workspace/unMiracle/UMRproposal.sol\":2104:2192  uint256 proposalId = hashProposal(destination, calldatas, keccak256(bytes(description))) */\n      swap1\n      pop\n        /* \".workspaces/default_workspace/unMiracle/UMRproposal.sol\":2235:2264  ProposalCore storage proposal */\n      0x00\n        /* \".workspaces/default_workspace/unMiracle/UMRproposal.sol\":2267:2277  _proposals */\n      dup1\n        /* \".workspaces/default_workspace/unMiracle/UMRproposal.sol\":2267:2289  _proposals[proposalId] */\n      0x00\n        /* \".workspaces/default_workspace/unMiracle/UMRproposal.sol\":2278:2288  proposalId */\n      dup4\n        /* \".workspaces/default_workspace/unMiracle/UMRproposal.sol\":2267:2289  _proposals[proposalId] */\n      dup2\n      mstore\n      0x20\n      add\n      swap1\n      dup2\n      mstore\n      0x20\n      add\n      0x00\n      keccak256\n        /* \".workspaces/default_workspace/unMiracle/UMRproposal.sol\":2235:2289  ProposalCore storage proposal = _proposals[proposalId] */\n      swap1\n      pop\n        /* \".workspaces/default_workspace/unMiracle/UMRproposal.sol\":2332:2348  uint256 snapshot */\n      0x00\n        /* \".workspaces/default_workspace/unMiracle/UMRproposal.sol\":2388:2390  60 */\n      0x3c\n        /* \".workspaces/default_workspace/unMiracle/UMRproposal.sol\":2385:2387  60 */\n      dup1\n        /* \".workspaces/default_workspace/unMiracle/UMRproposal.sol\":2382:2384  24 */\n      0x18\n        /* \".workspaces/default_workspace/unMiracle/UMRproposal.sol\":2370:2381  donateDelay */\n      dup13\n        /* \".workspaces/default_workspace/unMiracle/UMRproposal.sol\":2370:2384  donateDelay*24 */\n      tag_62\n      swap2\n      swap1\n      tag_63\n      jump\t// in\n    tag_62:\n        /* \".workspaces/default_workspace/unMiracle/UMRproposal.sol\":2370:2387  donateDelay*24*60 */\n      tag_64\n      swap2\n      swap1\n      tag_63\n      jump\t// in\n    tag_64:\n        /* \".workspaces/default_workspace/unMiracle/UMRproposal.sol\":2370:2390  donateDelay*24*60*60 */\n      tag_65\n      swap2\n      swap1\n      tag_63\n      jump\t// in\n    tag_65:\n        /* \".workspaces/default_workspace/unMiracle/UMRproposal.sol\":2352:2367  block.timestamp */\n      timestamp\n        /* \".workspaces/default_workspace/unMiracle/UMRproposal.sol\":2352:2390  block.timestamp + donateDelay*24*60*60 */\n      tag_66\n      swap2\n      swap1\n      tag_67\n      jump\t// in\n    tag_66:\n        /* \".workspaces/default_workspace/unMiracle/UMRproposal.sol\":2332:2390  uint256 snapshot =  block.timestamp + donateDelay*24*60*60 */\n      swap1\n      pop\n        /* \".workspaces/default_workspace/unMiracle/UMRproposal.sol\":2432:2448  uint256 deadline */\n      0x00\n        /* \".workspaces/default_workspace/unMiracle/UMRproposal.sol\":2481:2483  60 */\n      0x3c\n        /* \".workspaces/default_workspace/unMiracle/UMRproposal.sol\":2478:2480  60 */\n      dup1\n        /* \".workspaces/default_workspace/unMiracle/UMRproposal.sol\":2475:2477  24 */\n      0x18\n        /* \".workspaces/default_workspace/unMiracle/UMRproposal.sol\":2462:2474  donatePeriod */\n      dup13\n        /* \".workspaces/default_workspace/unMiracle/UMRproposal.sol\":2462:2477  donatePeriod*24 */\n      tag_68\n      swap2\n      swap1\n      tag_63\n      jump\t// in\n    tag_68:\n        /* \".workspaces/default_workspace/unMiracle/UMRproposal.sol\":2462:2480  donatePeriod*24*60 */\n      tag_69\n      swap2\n      swap1\n      tag_63\n      jump\t// in\n    tag_69:\n        /* \".workspaces/default_workspace/unMiracle/UMRproposal.sol\":2462:2483  donatePeriod*24*60*60 */\n      tag_70\n      swap2\n      swap1\n      tag_63\n      jump\t// in\n    tag_70:\n        /* \".workspaces/default_workspace/unMiracle/UMRproposal.sol\":2451:2459  snapshot */\n      dup3\n        /* \".workspaces/default_workspace/unMiracle/UMRproposal.sol\":2451:2483  snapshot + donatePeriod*24*60*60 */\n      tag_71\n      swap2\n      swap1\n      tag_67\n      jump\t// in\n    tag_71:\n        /* \".workspaces/default_workspace/unMiracle/UMRproposal.sol\":2432:2483  uint256 deadline = snapshot + donatePeriod*24*60*60 */\n      swap1\n      pop\n        /* \".workspaces/default_workspace/unMiracle/UMRproposal.sol\":2522:2566  proposal.donationStart.setDeadline(snapshot) */\n      tag_72\n        /* \".workspaces/default_workspace/unMiracle/UMRproposal.sol\":2557:2565  snapshot */\n      dup3\n        /* \".workspaces/default_workspace/unMiracle/UMRproposal.sol\":2522:2530  proposal */\n      dup5\n        /* \".workspaces/default_workspace/unMiracle/UMRproposal.sol\":2522:2544  proposal.donationStart */\n      0x00\n      add\n        /* \".workspaces/default_workspace/unMiracle/UMRproposal.sol\":2522:2556  proposal.donationStart.setDeadline */\n      tag_73\n      swap1\n        /* \".workspaces/default_workspace/unMiracle/UMRproposal.sol\":2522:2566  proposal.donationStart.setDeadline(snapshot) */\n      swap2\n      swap1\n      0xffffffff\n      and\n      jump\t// in\n    tag_72:\n        /* \".workspaces/default_workspace/unMiracle/UMRproposal.sol\":2576:2618  proposal.donationEnd.setDeadline(deadline) */\n      tag_74\n        /* \".workspaces/default_workspace/unMiracle/UMRproposal.sol\":2609:2617  deadline */\n      dup2\n        /* \".workspaces/default_workspace/unMiracle/UMRproposal.sol\":2576:2584  proposal */\n      dup5\n        /* \".workspaces/default_workspace/unMiracle/UMRproposal.sol\":2576:2596  proposal.donationEnd */\n      0x02\n      add\n        /* \".workspaces/default_workspace/unMiracle/UMRproposal.sol\":2576:2608  proposal.donationEnd.setDeadline */\n      tag_73\n      swap1\n        /* \".workspaces/default_workspace/unMiracle/UMRproposal.sol\":2576:2618  proposal.donationEnd.setDeadline(deadline) */\n      swap2\n      swap1\n      0xffffffff\n      and\n      jump\t// in\n    tag_74:\n        /* \".workspaces/default_workspace/unMiracle/UMRproposal.sol\":2628:2675  proposal.donateMinimum.setAmount(donateMinimum) */\n      tag_75\n        /* \".workspaces/default_workspace/unMiracle/UMRproposal.sol\":2661:2674  donateMinimum */\n      dup10\n        /* \".workspaces/default_workspace/unMiracle/UMRproposal.sol\":2628:2636  proposal */\n      dup5\n        /* \".workspaces/default_workspace/unMiracle/UMRproposal.sol\":2628:2650  proposal.donateMinimum */\n      0x04\n      add\n        /* \".workspaces/default_workspace/unMiracle/UMRproposal.sol\":2628:2660  proposal.donateMinimum.setAmount */\n      tag_76\n      swap1\n        /* \".workspaces/default_workspace/unMiracle/UMRproposal.sol\":2628:2675  proposal.donateMinimum.setAmount(donateMinimum) */\n      swap2\n      swap1\n      0xffffffff\n      and\n      jump\t// in\n    tag_75:\n        /* \".workspaces/default_workspace/unMiracle/UMRproposal.sol\":2693:2703  proposalId */\n      dup4\n        /* \".workspaces/default_workspace/unMiracle/UMRproposal.sol\":2686:2703  return proposalId */\n      swap5\n      pop\n      pop\n      pop\n      pop\n      pop\n        /* \".workspaces/default_workspace/unMiracle/UMRproposal.sol\":1580:2710  function proposal(... */\n      swap7\n      swap6\n      pop\n      pop\n      pop\n      pop\n      pop\n      pop\n      jump\t// out\n        /* \".workspaces/default_workspace/unMiracle/UMRproposal.sol\":1246:1574  function hashProposal(... */\n    tag_33:\n        /* \".workspaces/default_workspace/unMiracle/UMRproposal.sol\":1470:1477  uint256 */\n      0x00\n        /* \".workspaces/default_workspace/unMiracle/UMRproposal.sol\":1525:1536  destination */\n      dup4\n        /* \".workspaces/default_workspace/unMiracle/UMRproposal.sol\":1538:1547  calldatas */\n      dup4\n        /* \".workspaces/default_workspace/unMiracle/UMRproposal.sol\":1549:1564  descriptionHash */\n      dup4\n        /* \".workspaces/default_workspace/unMiracle/UMRproposal.sol\":1514:1565  abi.encode(destination, calldatas, descriptionHash) */\n      add(0x20, mload(0x40))\n      tag_78\n      swap4\n      swap3\n      swap2\n      swap1\n      tag_79\n      jump\t// in\n    tag_78:\n      mload(0x40)\n      0x20\n      dup2\n      dup4\n      sub\n      sub\n      dup2\n      mstore\n      swap1\n      0x40\n      mstore\n        /* \".workspaces/default_workspace/unMiracle/UMRproposal.sol\":1504:1566  keccak256(abi.encode(destination, calldatas, descriptionHash)) */\n      dup1\n      mload\n      swap1\n      0x20\n      add\n      keccak256\n        /* \".workspaces/default_workspace/unMiracle/UMRproposal.sol\":1496:1567  uint256(keccak256(abi.encode(destination, calldatas, descriptionHash))) */\n      0x00\n      shr\n        /* \".workspaces/default_workspace/unMiracle/UMRproposal.sol\":1489:1567  return uint256(keccak256(abi.encode(destination, calldatas, descriptionHash))) */\n      swap1\n      pop\n        /* \".workspaces/default_workspace/unMiracle/UMRproposal.sol\":1246:1574  function hashProposal(... */\n      swap4\n      swap3\n      pop\n      pop\n      pop\n      jump\t// out\n        /* \".workspaces/default_workspace/unMiracle/UMRproposal.sol\":3303:3712  function execute(... */\n    tag_38:\n        /* \".workspaces/default_workspace/unMiracle/UMRproposal.sol\":3545:3552  uint256 */\n      0x00\n        /* \".workspaces/default_workspace/unMiracle/UMRproposal.sol\":3613:3631  uint256 proposalId */\n      dup1\n        /* \".workspaces/default_workspace/unMiracle/UMRproposal.sol\":3634:3701  hashProposal(destination, calldatas, keccak256(bytes(description))) */\n      tag_81\n        /* \".workspaces/default_workspace/unMiracle/UMRproposal.sol\":3647:3658  destination */\n      dup6\n        /* \".workspaces/default_workspace/unMiracle/UMRproposal.sol\":3660:3669  calldatas */\n      dup5\n        /* \".workspaces/default_workspace/unMiracle/UMRproposal.sol\":3687:3698  description */\n      dup7\n        /* \".workspaces/default_workspace/unMiracle/UMRproposal.sol\":3671:3700  keccak256(bytes(description)) */\n      dup1\n      mload\n      swap1\n      0x20\n      add\n      keccak256\n        /* \".workspaces/default_workspace/unMiracle/UMRproposal.sol\":3634:3646  hashProposal */\n      tag_33\n        /* \".workspaces/default_workspace/unMiracle/UMRproposal.sol\":3634:3701  hashProposal(destination, calldatas, keccak256(bytes(description))) */\n      jump\t// in\n    tag_81:\n        /* \".workspaces/default_workspace/unMiracle/UMRproposal.sol\":3613:3701  uint256 proposalId = hashProposal(destination, calldatas, keccak256(bytes(description))) */\n      swap1\n      pop\n        /* \".workspaces/default_workspace/unMiracle/UMRproposal.sol\":3554:3712  {... */\n      pop\n        /* \".workspaces/default_workspace/unMiracle/UMRproposal.sol\":3303:3712  function execute(... */\n      swap4\n      swap3\n      pop\n      pop\n      pop\n      jump\t// out\n        /* \".workspaces/default_workspace/unMiracle/UMRproposal.sol\":2943:3099  function proposalDeadline(uint256 proposalId) public view virtual returns (uint256) {... */\n    tag_43:\n        /* \".workspaces/default_workspace/unMiracle/UMRproposal.sol\":3018:3025  uint256 */\n      0x00\n        /* \".workspaces/default_workspace/unMiracle/UMRproposal.sol\":3044:3092  _proposals[proposalId].donationEnd.getDeadline() */\n      tag_83\n        /* \".workspaces/default_workspace/unMiracle/UMRproposal.sol\":3044:3054  _proposals */\n      0x00\n        /* \".workspaces/default_workspace/unMiracle/UMRproposal.sol\":3044:3066  _proposals[proposalId] */\n      dup1\n        /* \".workspaces/default_workspace/unMiracle/UMRproposal.sol\":3055:3065  proposalId */\n      dup5\n        /* \".workspaces/default_workspace/unMiracle/UMRproposal.sol\":3044:3066  _proposals[proposalId] */\n      dup2\n      mstore\n      0x20\n      add\n      swap1\n      dup2\n      mstore\n      0x20\n      add\n      0x00\n      keccak256\n        /* \".workspaces/default_workspace/unMiracle/UMRproposal.sol\":3044:3078  _proposals[proposalId].donationEnd */\n      0x02\n      add\n        /* \".workspaces/default_workspace/unMiracle/UMRproposal.sol\":3044:3090  _proposals[proposalId].donationEnd.getDeadline */\n      mload(0x40)\n      dup1\n      0x40\n      add\n      0x40\n      mstore\n      swap1\n      dup2\n      0x00\n      dup3\n      add\n      sload\n      dup2\n      mstore\n      0x20\n      add\n      0x01\n      dup3\n      add\n      sload\n      dup2\n      mstore\n      pop\n      pop\n      tag_52\n        /* \".workspaces/default_workspace/unMiracle/UMRproposal.sol\":3044:3092  _proposals[proposalId].donationEnd.getDeadline() */\n      jump\t// in\n    tag_83:\n        /* \".workspaces/default_workspace/unMiracle/UMRproposal.sol\":3037:3092  return _proposals[proposalId].donationEnd.getDeadline() */\n      swap1\n      pop\n        /* \".workspaces/default_workspace/unMiracle/UMRproposal.sol\":2943:3099  function proposalDeadline(uint256 proposalId) public view virtual returns (uint256) {... */\n      swap2\n      swap1\n      pop\n      jump\t// out\n        /* \".workspaces/default_workspace/unMiracle/UMRproposal.sol\":3136:3297  function proposalDonateMinimum(uint256 proposalId) public view virtual returns (uint256) {... */\n    tag_48:\n        /* \".workspaces/default_workspace/unMiracle/UMRproposal.sol\":3216:3223  uint256 */\n      0x00\n        /* \".workspaces/default_workspace/unMiracle/UMRproposal.sol\":3242:3290  _proposals[proposalId].donateMinimum.getAmount() */\n      tag_85\n        /* \".workspaces/default_workspace/unMiracle/UMRproposal.sol\":3242:3252  _proposals */\n      0x00\n        /* \".workspaces/default_workspace/unMiracle/UMRproposal.sol\":3242:3264  _proposals[proposalId] */\n      dup1\n        /* \".workspaces/default_workspace/unMiracle/UMRproposal.sol\":3253:3263  proposalId */\n      dup5\n        /* \".workspaces/default_workspace/unMiracle/UMRproposal.sol\":3242:3264  _proposals[proposalId] */\n      dup2\n      mstore\n      0x20\n      add\n      swap1\n      dup2\n      mstore\n      0x20\n      add\n      0x00\n      keccak256\n        /* \".workspaces/default_workspace/unMiracle/UMRproposal.sol\":3242:3278  _proposals[proposalId].donateMinimum */\n      0x04\n      add\n        /* \".workspaces/default_workspace/unMiracle/UMRproposal.sol\":3242:3288  _proposals[proposalId].donateMinimum.getAmount */\n      mload(0x40)\n      dup1\n      0x40\n      add\n      0x40\n      mstore\n      swap1\n      dup2\n      0x00\n      dup3\n      add\n      sload\n      dup2\n      mstore\n      0x20\n      add\n      0x01\n      dup3\n      add\n      sload\n      dup2\n      mstore\n      pop\n      pop\n      tag_86\n        /* \".workspaces/default_workspace/unMiracle/UMRproposal.sol\":3242:3290  _proposals[proposalId].donateMinimum.getAmount() */\n      jump\t// in\n    tag_85:\n        /* \".workspaces/default_workspace/unMiracle/UMRproposal.sol\":3235:3290  return _proposals[proposalId].donateMinimum.getAmount() */\n      swap1\n      pop\n        /* \".workspaces/default_workspace/unMiracle/UMRproposal.sol\":3136:3297  function proposalDonateMinimum(uint256 proposalId) public view virtual returns (uint256) {... */\n      swap2\n      swap1\n      pop\n      jump\t// out\n        /* \".workspaces/default_workspace/unMiracle/utils/setting.sol\":354:464  function getDeadline(SetInfo memory info) internal pure returns(uint256) {... */\n    tag_52:\n        /* \".workspaces/default_workspace/unMiracle/utils/setting.sol\":418:425  uint256 */\n      0x00\n        /* \".workspaces/default_workspace/unMiracle/utils/setting.sol\":444:448  info */\n      dup2\n        /* \".workspaces/default_workspace/unMiracle/utils/setting.sol\":444:457  info.deadline */\n      0x00\n      add\n      mload\n        /* \".workspaces/default_workspace/unMiracle/utils/setting.sol\":437:457  return info.deadline */\n      swap1\n      pop\n        /* \".workspaces/default_workspace/unMiracle/utils/setting.sol\":354:464  function getDeadline(SetInfo memory info) internal pure returns(uint256) {... */\n      swap2\n      swap1\n      pop\n      jump\t// out\n        /* \".workspaces/default_workspace/unMiracle/utils/setting.sol\":228:348  function setDeadline(SetInfo storage info, uint256 timestamp) internal {... */\n    tag_73:\n        /* \".workspaces/default_workspace/unMiracle/utils/setting.sol\":337:341  1000 */\n      0x03e8\n        /* \".workspaces/default_workspace/unMiracle/utils/setting.sol\":325:334  timestamp */\n      dup2\n        /* \".workspaces/default_workspace/unMiracle/utils/setting.sol\":325:341  timestamp * 1000 */\n      tag_89\n      swap2\n      swap1\n      tag_63\n      jump\t// in\n    tag_89:\n        /* \".workspaces/default_workspace/unMiracle/utils/setting.sol\":309:313  info */\n      dup3\n        /* \".workspaces/default_workspace/unMiracle/utils/setting.sol\":309:322  info.deadline */\n      0x00\n      add\n        /* \".workspaces/default_workspace/unMiracle/utils/setting.sol\":309:341  info.deadline = timestamp * 1000 */\n      dup2\n      swap1\n      sstore\n      pop\n        /* \".workspaces/default_workspace/unMiracle/utils/setting.sol\":228:348  function setDeadline(SetInfo storage info, uint256 timestamp) internal {... */\n      pop\n      pop\n      jump\t// out\n        /* \".workspaces/default_workspace/unMiracle/utils/setting.sol\":470:573  function setAmount(SetInfo storage info, uint256 amount) internal {... */\n    tag_76:\n        /* \".workspaces/default_workspace/unMiracle/utils/setting.sol\":560:566  amount */\n      dup1\n        /* \".workspaces/default_workspace/unMiracle/utils/setting.sol\":546:550  info */\n      dup3\n        /* \".workspaces/default_workspace/unMiracle/utils/setting.sol\":546:557  info.amount */\n      0x01\n      add\n        /* \".workspaces/default_workspace/unMiracle/utils/setting.sol\":546:566  info.amount = amount */\n      dup2\n      swap1\n      sstore\n      pop\n        /* \".workspaces/default_workspace/unMiracle/utils/setting.sol\":470:573  function setAmount(SetInfo storage info, uint256 amount) internal {... */\n      pop\n      pop\n      jump\t// out\n        /* \".workspaces/default_workspace/unMiracle/utils/setting.sol\":579:685  function getAmount(SetInfo memory info) internal pure returns(uint256) {... */\n    tag_86:\n        /* \".workspaces/default_workspace/unMiracle/utils/setting.sol\":641:648  uint256 */\n      0x00\n        /* \".workspaces/default_workspace/unMiracle/utils/setting.sol\":667:671  info */\n      dup2\n        /* \".workspaces/default_workspace/unMiracle/utils/setting.sol\":667:678  info.amount */\n      0x20\n      add\n      mload\n        /* \".workspaces/default_workspace/unMiracle/utils/setting.sol\":660:678  return info.amount */\n      swap1\n      pop\n        /* \".workspaces/default_workspace/unMiracle/utils/setting.sol\":579:685  function getAmount(SetInfo memory info) internal pure returns(uint256) {... */\n      swap2\n      swap1\n      pop\n      jump\t// out\n        /* \"#utility.yul\":7:82   */\n    tag_92:\n        /* \"#utility.yul\":40:46   */\n      0x00\n        /* \"#utility.yul\":73:75   */\n      0x40\n        /* \"#utility.yul\":67:76   */\n      mload\n        /* \"#utility.yul\":57:76   */\n      swap1\n      pop\n        /* \"#utility.yul\":7:82   */\n      swap1\n      jump\t// out\n        /* \"#utility.yul\":88:205   */\n    tag_93:\n        /* \"#utility.yul\":197:198   */\n      0x00\n        /* \"#utility.yul\":194:195   */\n      dup1\n        /* \"#utility.yul\":187:199   */\n      revert\n        /* \"#utility.yul\":211:328   */\n    tag_94:\n        /* \"#utility.yul\":320:321   */\n      0x00\n        /* \"#utility.yul\":317:318   */\n      dup1\n        /* \"#utility.yul\":310:322   */\n      revert\n        /* \"#utility.yul\":334:411   */\n    tag_95:\n        /* \"#utility.yul\":371:378   */\n      0x00\n        /* \"#utility.yul\":400:405   */\n      dup2\n        /* \"#utility.yul\":389:405   */\n      swap1\n      pop\n        /* \"#utility.yul\":334:411   */\n      swap2\n      swap1\n      pop\n      jump\t// out\n        /* \"#utility.yul\":417:539   */\n    tag_96:\n        /* \"#utility.yul\":490:514   */\n      tag_147\n        /* \"#utility.yul\":508:513   */\n      dup2\n        /* \"#utility.yul\":490:514   */\n      tag_95\n      jump\t// in\n    tag_147:\n        /* \"#utility.yul\":483:488   */\n      dup2\n        /* \"#utility.yul\":480:515   */\n      eq\n        /* \"#utility.yul\":470:533   */\n      tag_148\n      jumpi\n        /* \"#utility.yul\":529:530   */\n      0x00\n        /* \"#utility.yul\":526:527   */\n      dup1\n        /* \"#utility.yul\":519:531   */\n      revert\n        /* \"#utility.yul\":470:533   */\n    tag_148:\n        /* \"#utility.yul\":417:539   */\n      pop\n      jump\t// out\n        /* \"#utility.yul\":545:684   */\n    tag_97:\n        /* \"#utility.yul\":591:596   */\n      0x00\n        /* \"#utility.yul\":629:635   */\n      dup2\n        /* \"#utility.yul\":616:636   */\n      calldataload\n        /* \"#utility.yul\":607:636   */\n      swap1\n      pop\n        /* \"#utility.yul\":645:678   */\n      tag_150\n        /* \"#utility.yul\":672:677   */\n      dup2\n        /* \"#utility.yul\":645:678   */\n      tag_96\n      jump\t// in\n    tag_150:\n        /* \"#utility.yul\":545:684   */\n      swap3\n      swap2\n      pop\n      pop\n      jump\t// out\n        /* \"#utility.yul\":690:1019   */\n    tag_13:\n        /* \"#utility.yul\":749:755   */\n      0x00\n        /* \"#utility.yul\":798:800   */\n      0x20\n        /* \"#utility.yul\":786:795   */\n      dup3\n        /* \"#utility.yul\":777:784   */\n      dup5\n        /* \"#utility.yul\":773:796   */\n      sub\n        /* \"#utility.yul\":769:801   */\n      slt\n        /* \"#utility.yul\":766:885   */\n      iszero\n      tag_152\n      jumpi\n        /* \"#utility.yul\":804:883   */\n      tag_153\n      tag_93\n      jump\t// in\n    tag_153:\n        /* \"#utility.yul\":766:885   */\n    tag_152:\n        /* \"#utility.yul\":924:925   */\n      0x00\n        /* \"#utility.yul\":949:1002   */\n      tag_154\n        /* \"#utility.yul\":994:1001   */\n      dup5\n        /* \"#utility.yul\":985:991   */\n      dup3\n        /* \"#utility.yul\":974:983   */\n      dup6\n        /* \"#utility.yul\":970:992   */\n      add\n        /* \"#utility.yul\":949:1002   */\n      tag_97\n      jump\t// in\n    tag_154:\n        /* \"#utility.yul\":939:1002   */\n      swap2\n      pop\n        /* \"#utility.yul\":895:1012   */\n      pop\n        /* \"#utility.yul\":690:1019   */\n      swap3\n      swap2\n      pop\n      pop\n      jump\t// out\n        /* \"#utility.yul\":1025:1143   */\n    tag_98:\n        /* \"#utility.yul\":1112:1136   */\n      tag_156\n        /* \"#utility.yul\":1130:1135   */\n      dup2\n        /* \"#utility.yul\":1112:1136   */\n      tag_95\n      jump\t// in\n    tag_156:\n        /* \"#utility.yul\":1107:1110   */\n      dup3\n        /* \"#utility.yul\":1100:1137   */\n      mstore\n        /* \"#utility.yul\":1025:1143   */\n      pop\n      pop\n      jump\t// out\n        /* \"#utility.yul\":1149:1371   */\n    tag_16:\n        /* \"#utility.yul\":1242:1246   */\n      0x00\n        /* \"#utility.yul\":1280:1282   */\n      0x20\n        /* \"#utility.yul\":1269:1278   */\n      dup3\n        /* \"#utility.yul\":1265:1283   */\n      add\n        /* \"#utility.yul\":1257:1283   */\n      swap1\n      pop\n        /* \"#utility.yul\":1293:1364   */\n      tag_158\n        /* \"#utility.yul\":1361:1362   */\n      0x00\n        /* \"#utility.yul\":1350:1359   */\n      dup4\n        /* \"#utility.yul\":1346:1363   */\n      add\n        /* \"#utility.yul\":1337:1343   */\n      dup5\n        /* \"#utility.yul\":1293:1364   */\n      tag_98\n      jump\t// in\n    tag_158:\n        /* \"#utility.yul\":1149:1371   */\n      swap3\n      swap2\n      pop\n      pop\n      jump\t// out\n        /* \"#utility.yul\":1377:1557   */\n    tag_99:\n        /* \"#utility.yul\":1425:1502   */\n      0x4e487b7100000000000000000000000000000000000000000000000000000000\n        /* \"#utility.yul\":1422:1423   */\n      0x00\n        /* \"#utility.yul\":1415:1503   */\n      mstore\n        /* \"#utility.yul\":1522:1526   */\n      0x21\n        /* \"#utility.yul\":1519:1520   */\n      0x04\n        /* \"#utility.yul\":1512:1527   */\n      mstore\n        /* \"#utility.yul\":1546:1550   */\n      0x24\n        /* \"#utility.yul\":1543:1544   */\n      0x00\n        /* \"#utility.yul\":1536:1551   */\n      revert\n        /* \"#utility.yul\":1563:1684   */\n    tag_100:\n        /* \"#utility.yul\":1652:1653   */\n      0x08\n        /* \"#utility.yul\":1645:1650   */\n      dup2\n        /* \"#utility.yul\":1642:1654   */\n      lt\n        /* \"#utility.yul\":1632:1678   */\n      tag_161\n      jumpi\n        /* \"#utility.yul\":1658:1676   */\n      tag_162\n      tag_99\n      jump\t// in\n    tag_162:\n        /* \"#utility.yul\":1632:1678   */\n    tag_161:\n        /* \"#utility.yul\":1563:1684   */\n      pop\n      jump\t// out\n        /* \"#utility.yul\":1690:1833   */\n    tag_101:\n        /* \"#utility.yul\":1743:1750   */\n      0x00\n        /* \"#utility.yul\":1772:1777   */\n      dup2\n        /* \"#utility.yul\":1761:1777   */\n      swap1\n      pop\n        /* \"#utility.yul\":1778:1827   */\n      tag_164\n        /* \"#utility.yul\":1821:1826   */\n      dup3\n        /* \"#utility.yul\":1778:1827   */\n      tag_100\n      jump\t// in\n    tag_164:\n        /* \"#utility.yul\":1690:1833   */\n      swap2\n      swap1\n      pop\n      jump\t// out\n        /* \"#utility.yul\":1839:1982   */\n    tag_102:\n        /* \"#utility.yul\":1903:1912   */\n      0x00\n        /* \"#utility.yul\":1936:1976   */\n      tag_166\n        /* \"#utility.yul\":1970:1975   */\n      dup3\n        /* \"#utility.yul\":1936:1976   */\n      tag_101\n      jump\t// in\n    tag_166:\n        /* \"#utility.yul\":1923:1976   */\n      swap1\n      pop\n        /* \"#utility.yul\":1839:1982   */\n      swap2\n      swap1\n      pop\n      jump\t// out\n        /* \"#utility.yul\":1988:2147   */\n    tag_103:\n        /* \"#utility.yul\":2089:2140   */\n      tag_168\n        /* \"#utility.yul\":2134:2139   */\n      dup2\n        /* \"#utility.yul\":2089:2140   */\n      tag_102\n      jump\t// in\n    tag_168:\n        /* \"#utility.yul\":2084:2087   */\n      dup3\n        /* \"#utility.yul\":2077:2141   */\n      mstore\n        /* \"#utility.yul\":1988:2147   */\n      pop\n      pop\n      jump\t// out\n        /* \"#utility.yul\":2153:2403   */\n    tag_22:\n        /* \"#utility.yul\":2260:2264   */\n      0x00\n        /* \"#utility.yul\":2298:2300   */\n      0x20\n        /* \"#utility.yul\":2287:2296   */\n      dup3\n        /* \"#utility.yul\":2283:2301   */\n      add\n        /* \"#utility.yul\":2275:2301   */\n      swap1\n      pop\n        /* \"#utility.yul\":2311:2396   */\n      tag_170\n        /* \"#utility.yul\":2393:2394   */\n      0x00\n        /* \"#utility.yul\":2382:2391   */\n      dup4\n        /* \"#utility.yul\":2378:2395   */\n      add\n        /* \"#utility.yul\":2369:2375   */\n      dup5\n        /* \"#utility.yul\":2311:2396   */\n      tag_103\n      jump\t// in\n    tag_170:\n        /* \"#utility.yul\":2153:2403   */\n      swap3\n      swap2\n      pop\n      pop\n      jump\t// out\n        /* \"#utility.yul\":2409:2535   */\n    tag_104:\n        /* \"#utility.yul\":2446:2453   */\n      0x00\n        /* \"#utility.yul\":2486:2528   */\n      0xffffffffffffffffffffffffffffffffffffffff\n        /* \"#utility.yul\":2479:2484   */\n      dup3\n        /* \"#utility.yul\":2475:2529   */\n      and\n        /* \"#utility.yul\":2464:2529   */\n      swap1\n      pop\n        /* \"#utility.yul\":2409:2535   */\n      swap2\n      swap1\n      pop\n      jump\t// out\n        /* \"#utility.yul\":2541:2637   */\n    tag_105:\n        /* \"#utility.yul\":2578:2585   */\n      0x00\n        /* \"#utility.yul\":2607:2631   */\n      tag_173\n        /* \"#utility.yul\":2625:2630   */\n      dup3\n        /* \"#utility.yul\":2607:2631   */\n      tag_104\n      jump\t// in\n    tag_173:\n        /* \"#utility.yul\":2596:2631   */\n      swap1\n      pop\n        /* \"#utility.yul\":2541:2637   */\n      swap2\n      swap1\n      pop\n      jump\t// out\n        /* \"#utility.yul\":2643:2765   */\n    tag_106:\n        /* \"#utility.yul\":2716:2740   */\n      tag_175\n        /* \"#utility.yul\":2734:2739   */\n      dup2\n        /* \"#utility.yul\":2716:2740   */\n      tag_105\n      jump\t// in\n    tag_175:\n        /* \"#utility.yul\":2709:2714   */\n      dup2\n        /* \"#utility.yul\":2706:2741   */\n      eq\n        /* \"#utility.yul\":2696:2759   */\n      tag_176\n      jumpi\n        /* \"#utility.yul\":2755:2756   */\n      0x00\n        /* \"#utility.yul\":2752:2753   */\n      dup1\n        /* \"#utility.yul\":2745:2757   */\n      revert\n        /* \"#utility.yul\":2696:2759   */\n    tag_176:\n        /* \"#utility.yul\":2643:2765   */\n      pop\n      jump\t// out\n        /* \"#utility.yul\":2771:2910   */\n    tag_107:\n        /* \"#utility.yul\":2817:2822   */\n      0x00\n        /* \"#utility.yul\":2855:2861   */\n      dup2\n        /* \"#utility.yul\":2842:2862   */\n      calldataload\n        /* \"#utility.yul\":2833:2862   */\n      swap1\n      pop\n        /* \"#utility.yul\":2871:2904   */\n      tag_178\n        /* \"#utility.yul\":2898:2903   */\n      dup2\n        /* \"#utility.yul\":2871:2904   */\n      tag_106\n      jump\t// in\n    tag_178:\n        /* \"#utility.yul\":2771:2910   */\n      swap3\n      swap2\n      pop\n      pop\n      jump\t// out\n        /* \"#utility.yul\":2916:3033   */\n    tag_108:\n        /* \"#utility.yul\":3025:3026   */\n      0x00\n        /* \"#utility.yul\":3022:3023   */\n      dup1\n        /* \"#utility.yul\":3015:3027   */\n      revert\n        /* \"#utility.yul\":3039:3156   */\n    tag_109:\n        /* \"#utility.yul\":3148:3149   */\n      0x00\n        /* \"#utility.yul\":3145:3146   */\n      dup1\n        /* \"#utility.yul\":3138:3150   */\n      revert\n        /* \"#utility.yul\":3162:3264   */\n    tag_110:\n        /* \"#utility.yul\":3203:3209   */\n      0x00\n        /* \"#utility.yul\":3254:3256   */\n      0x1f\n        /* \"#utility.yul\":3250:3257   */\n      not\n        /* \"#utility.yul\":3245:3247   */\n      0x1f\n        /* \"#utility.yul\":3238:3243   */\n      dup4\n        /* \"#utility.yul\":3234:3248   */\n      add\n        /* \"#utility.yul\":3230:3258   */\n      and\n        /* \"#utility.yul\":3220:3258   */\n      swap1\n      pop\n        /* \"#utility.yul\":3162:3264   */\n      swap2\n      swap1\n      pop\n      jump\t// out\n        /* \"#utility.yul\":3270:3450   */\n    tag_111:\n        /* \"#utility.yul\":3318:3395   */\n      0x4e487b7100000000000000000000000000000000000000000000000000000000\n        /* \"#utility.yul\":3315:3316   */\n      0x00\n        /* \"#utility.yul\":3308:3396   */\n      mstore\n        /* \"#utility.yul\":3415:3419   */\n      0x41\n        /* \"#utility.yul\":3412:3413   */\n      0x04\n        /* \"#utility.yul\":3405:3420   */\n      mstore\n        /* \"#utility.yul\":3439:3443   */\n      0x24\n        /* \"#utility.yul\":3436:3437   */\n      0x00\n        /* \"#utility.yul\":3429:3444   */\n      revert\n        /* \"#utility.yul\":3456:3737   */\n    tag_112:\n        /* \"#utility.yul\":3539:3566   */\n      tag_184\n        /* \"#utility.yul\":3561:3565   */\n      dup3\n        /* \"#utility.yul\":3539:3566   */\n      tag_110\n      jump\t// in\n    tag_184:\n        /* \"#utility.yul\":3531:3537   */\n      dup2\n        /* \"#utility.yul\":3527:3567   */\n      add\n        /* \"#utility.yul\":3669:3675   */\n      dup2\n        /* \"#utility.yul\":3657:3667   */\n      dup2\n        /* \"#utility.yul\":3654:3676   */\n      lt\n        /* \"#utility.yul\":3633:3651   */\n      0xffffffffffffffff\n        /* \"#utility.yul\":3621:3631   */\n      dup3\n        /* \"#utility.yul\":3618:3652   */\n      gt\n        /* \"#utility.yul\":3615:3677   */\n      or\n        /* \"#utility.yul\":3612:3700   */\n      iszero\n      tag_185\n      jumpi\n        /* \"#utility.yul\":3680:3698   */\n      tag_186\n      tag_111\n      jump\t// in\n    tag_186:\n        /* \"#utility.yul\":3612:3700   */\n    tag_185:\n        /* \"#utility.yul\":3720:3730   */\n      dup1\n        /* \"#utility.yul\":3716:3718   */\n      0x40\n        /* \"#utility.yul\":3709:3731   */\n      mstore\n        /* \"#utility.yul\":3499:3737   */\n      pop\n        /* \"#utility.yul\":3456:3737   */\n      pop\n      pop\n      jump\t// out\n        /* \"#utility.yul\":3743:3872   */\n    tag_113:\n        /* \"#utility.yul\":3777:3783   */\n      0x00\n        /* \"#utility.yul\":3804:3824   */\n      tag_188\n      tag_92\n      jump\t// in\n    tag_188:\n        /* \"#utility.yul\":3794:3824   */\n      swap1\n      pop\n        /* \"#utility.yul\":3833:3866   */\n      tag_189\n        /* \"#utility.yul\":3861:3865   */\n      dup3\n        /* \"#utility.yul\":3853:3859   */\n      dup3\n        /* \"#utility.yul\":3833:3866   */\n      tag_112\n      jump\t// in\n    tag_189:\n        /* \"#utility.yul\":3743:3872   */\n      swap2\n      swap1\n      pop\n      jump\t// out\n        /* \"#utility.yul\":3878:4186   */\n    tag_114:\n        /* \"#utility.yul\":3940:3944   */\n      0x00\n        /* \"#utility.yul\":4030:4048   */\n      0xffffffffffffffff\n        /* \"#utility.yul\":4022:4028   */\n      dup3\n        /* \"#utility.yul\":4019:4049   */\n      gt\n        /* \"#utility.yul\":4016:4072   */\n      iszero\n      tag_191\n      jumpi\n        /* \"#utility.yul\":4052:4070   */\n      tag_192\n      tag_111\n      jump\t// in\n    tag_192:\n        /* \"#utility.yul\":4016:4072   */\n    tag_191:\n        /* \"#utility.yul\":4090:4119   */\n      tag_193\n        /* \"#utility.yul\":4112:4118   */\n      dup3\n        /* \"#utility.yul\":4090:4119   */\n      tag_110\n      jump\t// in\n    tag_193:\n        /* \"#utility.yul\":4082:4119   */\n      swap1\n      pop\n        /* \"#utility.yul\":4174:4178   */\n      0x20\n        /* \"#utility.yul\":4168:4172   */\n      dup2\n        /* \"#utility.yul\":4164:4179   */\n      add\n        /* \"#utility.yul\":4156:4179   */\n      swap1\n      pop\n        /* \"#utility.yul\":3878:4186   */\n      swap2\n      swap1\n      pop\n      jump\t// out\n        /* \"#utility.yul\":4192:4346   */\n    tag_115:\n        /* \"#utility.yul\":4276:4282   */\n      dup3\n        /* \"#utility.yul\":4271:4274   */\n      dup2\n        /* \"#utility.yul\":4266:4269   */\n      dup4\n        /* \"#utility.yul\":4253:4283   */\n      calldatacopy\n        /* \"#utility.yul\":4338:4339   */\n      0x00\n        /* \"#utility.yul\":4329:4335   */\n      dup4\n        /* \"#utility.yul\":4324:4327   */\n      dup4\n        /* \"#utility.yul\":4320:4336   */\n      add\n        /* \"#utility.yul\":4313:4340   */\n      mstore\n        /* \"#utility.yul\":4192:4346   */\n      pop\n      pop\n      pop\n      jump\t// out\n        /* \"#utility.yul\":4352:4764   */\n    tag_116:\n        /* \"#utility.yul\":4430:4435   */\n      0x00\n        /* \"#utility.yul\":4455:4521   */\n      tag_196\n        /* \"#utility.yul\":4471:4520   */\n      tag_197\n        /* \"#utility.yul\":4513:4519   */\n      dup5\n        /* \"#utility.yul\":4471:4520   */\n      tag_114\n      jump\t// in\n    tag_197:\n        /* \"#utility.yul\":4455:4521   */\n      tag_113\n      jump\t// in\n    tag_196:\n        /* \"#utility.yul\":4446:4521   */\n      swap1\n      pop\n        /* \"#utility.yul\":4544:4550   */\n      dup3\n        /* \"#utility.yul\":4537:4542   */\n      dup2\n        /* \"#utility.yul\":4530:4551   */\n      mstore\n        /* \"#utility.yul\":4582:4586   */\n      0x20\n        /* \"#utility.yul\":4575:4580   */\n      dup2\n        /* \"#utility.yul\":4571:4587   */\n      add\n        /* \"#utility.yul\":4620:4623   */\n      dup5\n        /* \"#utility.yul\":4611:4617   */\n      dup5\n        /* \"#utility.yul\":4606:4609   */\n      dup5\n        /* \"#utility.yul\":4602:4618   */\n      add\n        /* \"#utility.yul\":4599:4624   */\n      gt\n        /* \"#utility.yul\":4596:4708   */\n      iszero\n      tag_198\n      jumpi\n        /* \"#utility.yul\":4627:4706   */\n      tag_199\n      tag_109\n      jump\t// in\n    tag_199:\n        /* \"#utility.yul\":4596:4708   */\n    tag_198:\n        /* \"#utility.yul\":4717:4758   */\n      tag_200\n        /* \"#utility.yul\":4751:4757   */\n      dup5\n        /* \"#utility.yul\":4746:4749   */\n      dup3\n        /* \"#utility.yul\":4741:4744   */\n      dup6\n        /* \"#utility.yul\":4717:4758   */\n      tag_115\n      jump\t// in\n    tag_200:\n        /* \"#utility.yul\":4436:4764   */\n      pop\n        /* \"#utility.yul\":4352:4764   */\n      swap4\n      swap3\n      pop\n      pop\n      pop\n      jump\t// out\n        /* \"#utility.yul\":4784:5124   */\n    tag_117:\n        /* \"#utility.yul\":4840:4845   */\n      0x00\n        /* \"#utility.yul\":4889:4892   */\n      dup3\n        /* \"#utility.yul\":4882:4886   */\n      0x1f\n        /* \"#utility.yul\":4874:4880   */\n      dup4\n        /* \"#utility.yul\":4870:4887   */\n      add\n        /* \"#utility.yul\":4866:4893   */\n      slt\n        /* \"#utility.yul\":4856:4978   */\n      tag_202\n      jumpi\n        /* \"#utility.yul\":4897:4976   */\n      tag_203\n      tag_108\n      jump\t// in\n    tag_203:\n        /* \"#utility.yul\":4856:4978   */\n    tag_202:\n        /* \"#utility.yul\":5014:5020   */\n      dup2\n        /* \"#utility.yul\":5001:5021   */\n      calldataload\n        /* \"#utility.yul\":5039:5118   */\n      tag_204\n        /* \"#utility.yul\":5114:5117   */\n      dup5\n        /* \"#utility.yul\":5106:5112   */\n      dup3\n        /* \"#utility.yul\":5099:5103   */\n      0x20\n        /* \"#utility.yul\":5091:5097   */\n      dup7\n        /* \"#utility.yul\":5087:5104   */\n      add\n        /* \"#utility.yul\":5039:5118   */\n      tag_116\n      jump\t// in\n    tag_204:\n        /* \"#utility.yul\":5030:5118   */\n      swap2\n      pop\n        /* \"#utility.yul\":4846:5124   */\n      pop\n        /* \"#utility.yul\":4784:5124   */\n      swap3\n      swap2\n      pop\n      pop\n      jump\t// out\n        /* \"#utility.yul\":5130:5450   */\n    tag_118:\n        /* \"#utility.yul\":5216:5220   */\n      0x00\n        /* \"#utility.yul\":5306:5324   */\n      0xffffffffffffffff\n        /* \"#utility.yul\":5298:5304   */\n      dup3\n        /* \"#utility.yul\":5295:5325   */\n      gt\n        /* \"#utility.yul\":5292:5348   */\n      iszero\n      tag_206\n      jumpi\n        /* \"#utility.yul\":5328:5346   */\n      tag_207\n      tag_111\n      jump\t// in\n    tag_207:\n        /* \"#utility.yul\":5292:5348   */\n    tag_206:\n        /* \"#utility.yul\":5378:5382   */\n      0x20\n        /* \"#utility.yul\":5370:5376   */\n      dup3\n        /* \"#utility.yul\":5366:5383   */\n      mul\n        /* \"#utility.yul\":5358:5383   */\n      swap1\n      pop\n        /* \"#utility.yul\":5438:5442   */\n      0x20\n        /* \"#utility.yul\":5432:5436   */\n      dup2\n        /* \"#utility.yul\":5428:5443   */\n      add\n        /* \"#utility.yul\":5420:5443   */\n      swap1\n      pop\n        /* \"#utility.yul\":5130:5450   */\n      swap2\n      swap1\n      pop\n      jump\t// out\n        /* \"#utility.yul\":5456:5573   */\n    tag_119:\n        /* \"#utility.yul\":5565:5566   */\n      0x00\n        /* \"#utility.yul\":5562:5563   */\n      dup1\n        /* \"#utility.yul\":5555:5567   */\n      revert\n        /* \"#utility.yul\":5579:5886   */\n    tag_120:\n        /* \"#utility.yul\":5640:5644   */\n      0x00\n        /* \"#utility.yul\":5730:5748   */\n      0xffffffffffffffff\n        /* \"#utility.yul\":5722:5728   */\n      dup3\n        /* \"#utility.yul\":5719:5749   */\n      gt\n        /* \"#utility.yul\":5716:5772   */\n      iszero\n      tag_210\n      jumpi\n        /* \"#utility.yul\":5752:5770   */\n      tag_211\n      tag_111\n      jump\t// in\n    tag_211:\n        /* \"#utility.yul\":5716:5772   */\n    tag_210:\n        /* \"#utility.yul\":5790:5819   */\n      tag_212\n        /* \"#utility.yul\":5812:5818   */\n      dup3\n        /* \"#utility.yul\":5790:5819   */\n      tag_110\n      jump\t// in\n    tag_212:\n        /* \"#utility.yul\":5782:5819   */\n      swap1\n      pop\n        /* \"#utility.yul\":5874:5878   */\n      0x20\n        /* \"#utility.yul\":5868:5872   */\n      dup2\n        /* \"#utility.yul\":5864:5879   */\n      add\n        /* \"#utility.yul\":5856:5879   */\n      swap1\n      pop\n        /* \"#utility.yul\":5579:5886   */\n      swap2\n      swap1\n      pop\n      jump\t// out\n        /* \"#utility.yul\":5892:6302   */\n    tag_121:\n        /* \"#utility.yul\":5969:5974   */\n      0x00\n        /* \"#utility.yul\":5994:6059   */\n      tag_214\n        /* \"#utility.yul\":6010:6058   */\n      tag_215\n        /* \"#utility.yul\":6051:6057   */\n      dup5\n        /* \"#utility.yul\":6010:6058   */\n      tag_120\n      jump\t// in\n    tag_215:\n        /* \"#utility.yul\":5994:6059   */\n      tag_113\n      jump\t// in\n    tag_214:\n        /* \"#utility.yul\":5985:6059   */\n      swap1\n      pop\n        /* \"#utility.yul\":6082:6088   */\n      dup3\n        /* \"#utility.yul\":6075:6080   */\n      dup2\n        /* \"#utility.yul\":6068:6089   */\n      mstore\n        /* \"#utility.yul\":6120:6124   */\n      0x20\n        /* \"#utility.yul\":6113:6118   */\n      dup2\n        /* \"#utility.yul\":6109:6125   */\n      add\n        /* \"#utility.yul\":6158:6161   */\n      dup5\n        /* \"#utility.yul\":6149:6155   */\n      dup5\n        /* \"#utility.yul\":6144:6147   */\n      dup5\n        /* \"#utility.yul\":6140:6156   */\n      add\n        /* \"#utility.yul\":6137:6162   */\n      gt\n        /* \"#utility.yul\":6134:6246   */\n      iszero\n      tag_216\n      jumpi\n        /* \"#utility.yul\":6165:6244   */\n      tag_217\n      tag_109\n      jump\t// in\n    tag_217:\n        /* \"#utility.yul\":6134:6246   */\n    tag_216:\n        /* \"#utility.yul\":6255:6296   */\n      tag_218\n        /* \"#utility.yul\":6289:6295   */\n      dup5\n        /* \"#utility.yul\":6284:6287   */\n      dup3\n        /* \"#utility.yul\":6279:6282   */\n      dup6\n        /* \"#utility.yul\":6255:6296   */\n      tag_115\n      jump\t// in\n    tag_218:\n        /* \"#utility.yul\":5975:6302   */\n      pop\n        /* \"#utility.yul\":5892:6302   */\n      swap4\n      swap3\n      pop\n      pop\n      pop\n      jump\t// out\n        /* \"#utility.yul\":6321:6659   */\n    tag_122:\n        /* \"#utility.yul\":6376:6381   */\n      0x00\n        /* \"#utility.yul\":6425:6428   */\n      dup3\n        /* \"#utility.yul\":6418:6422   */\n      0x1f\n        /* \"#utility.yul\":6410:6416   */\n      dup4\n        /* \"#utility.yul\":6406:6423   */\n      add\n        /* \"#utility.yul\":6402:6429   */\n      slt\n        /* \"#utility.yul\":6392:6514   */\n      tag_220\n      jumpi\n        /* \"#utility.yul\":6433:6512   */\n      tag_221\n      tag_108\n      jump\t// in\n    tag_221:\n        /* \"#utility.yul\":6392:6514   */\n    tag_220:\n        /* \"#utility.yul\":6550:6556   */\n      dup2\n        /* \"#utility.yul\":6537:6557   */\n      calldataload\n        /* \"#utility.yul\":6575:6653   */\n      tag_222\n        /* \"#utility.yul\":6649:6652   */\n      dup5\n        /* \"#utility.yul\":6641:6647   */\n      dup3\n        /* \"#utility.yul\":6634:6638   */\n      0x20\n        /* \"#utility.yul\":6626:6632   */\n      dup7\n        /* \"#utility.yul\":6622:6639   */\n      add\n        /* \"#utility.yul\":6575:6653   */\n      tag_121\n      jump\t// in\n    tag_222:\n        /* \"#utility.yul\":6566:6653   */\n      swap2\n      pop\n        /* \"#utility.yul\":6382:6659   */\n      pop\n        /* \"#utility.yul\":6321:6659   */\n      swap3\n      swap2\n      pop\n      pop\n      jump\t// out\n        /* \"#utility.yul\":6680:7622   */\n    tag_123:\n        /* \"#utility.yul\":6785:6790   */\n      0x00\n        /* \"#utility.yul\":6810:6900   */\n      tag_224\n        /* \"#utility.yul\":6826:6899   */\n      tag_225\n        /* \"#utility.yul\":6892:6898   */\n      dup5\n        /* \"#utility.yul\":6826:6899   */\n      tag_118\n      jump\t// in\n    tag_225:\n        /* \"#utility.yul\":6810:6900   */\n      tag_113\n      jump\t// in\n    tag_224:\n        /* \"#utility.yul\":6801:6900   */\n      swap1\n      pop\n        /* \"#utility.yul\":6920:6925   */\n      dup1\n        /* \"#utility.yul\":6949:6955   */\n      dup4\n        /* \"#utility.yul\":6942:6947   */\n      dup3\n        /* \"#utility.yul\":6935:6956   */\n      mstore\n        /* \"#utility.yul\":6983:6987   */\n      0x20\n        /* \"#utility.yul\":6976:6981   */\n      dup3\n        /* \"#utility.yul\":6972:6988   */\n      add\n        /* \"#utility.yul\":6965:6988   */\n      swap1\n      pop\n        /* \"#utility.yul\":7036:7040   */\n      0x20\n        /* \"#utility.yul\":7028:7034   */\n      dup5\n        /* \"#utility.yul\":7024:7041   */\n      mul\n        /* \"#utility.yul\":7016:7022   */\n      dup4\n        /* \"#utility.yul\":7012:7042   */\n      add\n        /* \"#utility.yul\":7065:7068   */\n      dup6\n        /* \"#utility.yul\":7057:7063   */\n      dup2\n        /* \"#utility.yul\":7054:7069   */\n      gt\n        /* \"#utility.yul\":7051:7173   */\n      iszero\n      tag_226\n      jumpi\n        /* \"#utility.yul\":7084:7163   */\n      tag_227\n      tag_119\n      jump\t// in\n    tag_227:\n        /* \"#utility.yul\":7051:7173   */\n    tag_226:\n        /* \"#utility.yul\":7199:7205   */\n      dup4\n        /* \"#utility.yul\":7182:7616   */\n    tag_228:\n        /* \"#utility.yul\":7216:7222   */\n      dup2\n        /* \"#utility.yul\":7211:7214   */\n      dup2\n        /* \"#utility.yul\":7208:7223   */\n      lt\n        /* \"#utility.yul\":7182:7616   */\n      iszero\n      tag_230\n      jumpi\n        /* \"#utility.yul\":7305:7308   */\n      dup1\n        /* \"#utility.yul\":7292:7309   */\n      calldataload\n        /* \"#utility.yul\":7341:7359   */\n      0xffffffffffffffff\n        /* \"#utility.yul\":7328:7339   */\n      dup2\n        /* \"#utility.yul\":7325:7360   */\n      gt\n        /* \"#utility.yul\":7322:7444   */\n      iszero\n      tag_231\n      jumpi\n        /* \"#utility.yul\":7363:7442   */\n      tag_232\n      tag_108\n      jump\t// in\n    tag_232:\n        /* \"#utility.yul\":7322:7444   */\n    tag_231:\n        /* \"#utility.yul\":7487:7498   */\n      dup1\n        /* \"#utility.yul\":7479:7485   */\n      dup7\n        /* \"#utility.yul\":7475:7499   */\n      add\n        /* \"#utility.yul\":7525:7571   */\n      tag_233\n        /* \"#utility.yul\":7567:7570   */\n      dup10\n        /* \"#utility.yul\":7555:7565   */\n      dup3\n        /* \"#utility.yul\":7525:7571   */\n      tag_122\n      jump\t// in\n    tag_233:\n        /* \"#utility.yul\":7520:7523   */\n      dup6\n        /* \"#utility.yul\":7513:7572   */\n      mstore\n        /* \"#utility.yul\":7601:7605   */\n      0x20\n        /* \"#utility.yul\":7596:7599   */\n      dup6\n        /* \"#utility.yul\":7592:7606   */\n      add\n        /* \"#utility.yul\":7585:7606   */\n      swap5\n      pop\n        /* \"#utility.yul\":7258:7616   */\n      pop\n      pop\n        /* \"#utility.yul\":7242:7246   */\n      0x20\n        /* \"#utility.yul\":7237:7240   */\n      dup2\n        /* \"#utility.yul\":7233:7247   */\n      add\n        /* \"#utility.yul\":7226:7247   */\n      swap1\n      pop\n        /* \"#utility.yul\":7182:7616   */\n      jump(tag_228)\n    tag_230:\n        /* \"#utility.yul\":7186:7207   */\n      pop\n        /* \"#utility.yul\":6791:7622   */\n      pop\n      pop\n        /* \"#utility.yul\":6680:7622   */\n      swap4\n      swap3\n      pop\n      pop\n      pop\n      jump\t// out\n        /* \"#utility.yul\":7643:8031   */\n    tag_124:\n        /* \"#utility.yul\":7723:7728   */\n      0x00\n        /* \"#utility.yul\":7772:7775   */\n      dup3\n        /* \"#utility.yul\":7765:7769   */\n      0x1f\n        /* \"#utility.yul\":7757:7763   */\n      dup4\n        /* \"#utility.yul\":7753:7770   */\n      add\n        /* \"#utility.yul\":7749:7776   */\n      slt\n        /* \"#utility.yul\":7739:7861   */\n      tag_235\n      jumpi\n        /* \"#utility.yul\":7780:7859   */\n      tag_236\n      tag_108\n      jump\t// in\n    tag_236:\n        /* \"#utility.yul\":7739:7861   */\n    tag_235:\n        /* \"#utility.yul\":7897:7903   */\n      dup2\n        /* \"#utility.yul\":7884:7904   */\n      calldataload\n        /* \"#utility.yul\":7922:8025   */\n      tag_237\n        /* \"#utility.yul\":8021:8024   */\n      dup5\n        /* \"#utility.yul\":8013:8019   */\n      dup3\n        /* \"#utility.yul\":8006:8010   */\n      0x20\n        /* \"#utility.yul\":7998:8004   */\n      dup7\n        /* \"#utility.yul\":7994:8011   */\n      add\n        /* \"#utility.yul\":7922:8025   */\n      tag_123\n      jump\t// in\n    tag_237:\n        /* \"#utility.yul\":7913:8025   */\n      swap2\n      pop\n        /* \"#utility.yul\":7729:8031   */\n      pop\n        /* \"#utility.yul\":7643:8031   */\n      swap3\n      swap2\n      pop\n      pop\n      jump\t// out\n        /* \"#utility.yul\":8037:9502   */\n    tag_26:\n        /* \"#utility.yul\":8185:8191   */\n      0x00\n        /* \"#utility.yul\":8193:8199   */\n      dup1\n        /* \"#utility.yul\":8201:8207   */\n      0x00\n        /* \"#utility.yul\":8209:8215   */\n      dup1\n        /* \"#utility.yul\":8217:8223   */\n      0x00\n        /* \"#utility.yul\":8225:8231   */\n      dup1\n        /* \"#utility.yul\":8274:8277   */\n      0xc0\n        /* \"#utility.yul\":8262:8271   */\n      dup8\n        /* \"#utility.yul\":8253:8260   */\n      dup10\n        /* \"#utility.yul\":8249:8272   */\n      sub\n        /* \"#utility.yul\":8245:8278   */\n      slt\n        /* \"#utility.yul\":8242:8362   */\n      iszero\n      tag_239\n      jumpi\n        /* \"#utility.yul\":8281:8360   */\n      tag_240\n      tag_93\n      jump\t// in\n    tag_240:\n        /* \"#utility.yul\":8242:8362   */\n    tag_239:\n        /* \"#utility.yul\":8401:8402   */\n      0x00\n        /* \"#utility.yul\":8426:8479   */\n      tag_241\n        /* \"#utility.yul\":8471:8478   */\n      dup10\n        /* \"#utility.yul\":8462:8468   */\n      dup3\n        /* \"#utility.yul\":8451:8460   */\n      dup11\n        /* \"#utility.yul\":8447:8469   */\n      add\n        /* \"#utility.yul\":8426:8479   */\n      tag_97\n      jump\t// in\n    tag_241:\n        /* \"#utility.yul\":8416:8479   */\n      swap7\n      pop\n        /* \"#utility.yul\":8372:8489   */\n      pop\n        /* \"#utility.yul\":8528:8530   */\n      0x20\n        /* \"#utility.yul\":8554:8607   */\n      tag_242\n        /* \"#utility.yul\":8599:8606   */\n      dup10\n        /* \"#utility.yul\":8590:8596   */\n      dup3\n        /* \"#utility.yul\":8579:8588   */\n      dup11\n        /* \"#utility.yul\":8575:8597   */\n      add\n        /* \"#utility.yul\":8554:8607   */\n      tag_97\n      jump\t// in\n    tag_242:\n        /* \"#utility.yul\":8544:8607   */\n      swap6\n      pop\n        /* \"#utility.yul\":8499:8617   */\n      pop\n        /* \"#utility.yul\":8656:8658   */\n      0x40\n        /* \"#utility.yul\":8682:8735   */\n      tag_243\n        /* \"#utility.yul\":8727:8734   */\n      dup10\n        /* \"#utility.yul\":8718:8724   */\n      dup3\n        /* \"#utility.yul\":8707:8716   */\n      dup11\n        /* \"#utility.yul\":8703:8725   */\n      add\n        /* \"#utility.yul\":8682:8735   */\n      tag_97\n      jump\t// in\n    tag_243:\n        /* \"#utility.yul\":8672:8735   */\n      swap5\n      pop\n        /* \"#utility.yul\":8627:8745   */\n      pop\n        /* \"#utility.yul\":8784:8786   */\n      0x60\n        /* \"#utility.yul\":8810:8863   */\n      tag_244\n        /* \"#utility.yul\":8855:8862   */\n      dup10\n        /* \"#utility.yul\":8846:8852   */\n      dup3\n        /* \"#utility.yul\":8835:8844   */\n      dup11\n        /* \"#utility.yul\":8831:8853   */\n      add\n        /* \"#utility.yul\":8810:8863   */\n      tag_107\n      jump\t// in\n    tag_244:\n        /* \"#utility.yul\":8800:8863   */\n      swap4\n      pop\n        /* \"#utility.yul\":8755:8873   */\n      pop\n        /* \"#utility.yul\":8940:8943   */\n      0x80\n        /* \"#utility.yul\":8929:8938   */\n      dup8\n        /* \"#utility.yul\":8925:8944   */\n      add\n        /* \"#utility.yul\":8912:8945   */\n      calldataload\n        /* \"#utility.yul\":8972:8990   */\n      0xffffffffffffffff\n        /* \"#utility.yul\":8964:8970   */\n      dup2\n        /* \"#utility.yul\":8961:8991   */\n      gt\n        /* \"#utility.yul\":8958:9075   */\n      iszero\n      tag_245\n      jumpi\n        /* \"#utility.yul\":8994:9073   */\n      tag_246\n      tag_94\n      jump\t// in\n    tag_246:\n        /* \"#utility.yul\":8958:9075   */\n    tag_245:\n        /* \"#utility.yul\":9099:9162   */\n      tag_247\n        /* \"#utility.yul\":9154:9161   */\n      dup10\n        /* \"#utility.yul\":9145:9151   */\n      dup3\n        /* \"#utility.yul\":9134:9143   */\n      dup11\n        /* \"#utility.yul\":9130:9152   */\n      add\n        /* \"#utility.yul\":9099:9162   */\n      tag_117\n      jump\t// in\n    tag_247:\n        /* \"#utility.yul\":9089:9162   */\n      swap3\n      pop\n        /* \"#utility.yul\":8883:9172   */\n      pop\n        /* \"#utility.yul\":9239:9242   */\n      0xa0\n        /* \"#utility.yul\":9228:9237   */\n      dup8\n        /* \"#utility.yul\":9224:9243   */\n      add\n        /* \"#utility.yul\":9211:9244   */\n      calldataload\n        /* \"#utility.yul\":9271:9289   */\n      0xffffffffffffffff\n        /* \"#utility.yul\":9263:9269   */\n      dup2\n        /* \"#utility.yul\":9260:9290   */\n      gt\n        /* \"#utility.yul\":9257:9374   */\n      iszero\n      tag_248\n      jumpi\n        /* \"#utility.yul\":9293:9372   */\n      tag_249\n      tag_94\n      jump\t// in\n    tag_249:\n        /* \"#utility.yul\":9257:9374   */\n    tag_248:\n        /* \"#utility.yul\":9398:9485   */\n      tag_250\n        /* \"#utility.yul\":9477:9484   */\n      dup10\n        /* \"#utility.yul\":9468:9474   */\n      dup3\n        /* \"#utility.yul\":9457:9466   */\n      dup11\n        /* \"#utility.yul\":9453:9475   */\n      add\n        /* \"#utility.yul\":9398:9485   */\n      tag_124\n      jump\t// in\n    tag_250:\n        /* \"#utility.yul\":9388:9485   */\n      swap2\n      pop\n        /* \"#utility.yul\":9182:9495   */\n      pop\n        /* \"#utility.yul\":8037:9502   */\n      swap3\n      swap6\n      pop\n      swap3\n      swap6\n      pop\n      swap3\n      swap6\n      jump\t// out\n        /* \"#utility.yul\":9508:9585   */\n    tag_125:\n        /* \"#utility.yul\":9545:9552   */\n      0x00\n        /* \"#utility.yul\":9574:9579   */\n      dup2\n        /* \"#utility.yul\":9563:9579   */\n      swap1\n      pop\n        /* \"#utility.yul\":9508:9585   */\n      swap2\n      swap1\n      pop\n      jump\t// out\n        /* \"#utility.yul\":9591:9713   */\n    tag_126:\n        /* \"#utility.yul\":9664:9688   */\n      tag_253\n        /* \"#utility.yul\":9682:9687   */\n      dup2\n        /* \"#utility.yul\":9664:9688   */\n      tag_125\n      jump\t// in\n    tag_253:\n        /* \"#utility.yul\":9657:9662   */\n      dup2\n        /* \"#utility.yul\":9654:9689   */\n      eq\n        /* \"#utility.yul\":9644:9707   */\n      tag_254\n      jumpi\n        /* \"#utility.yul\":9703:9704   */\n      0x00\n        /* \"#utility.yul\":9700:9701   */\n      dup1\n        /* \"#utility.yul\":9693:9705   */\n      revert\n        /* \"#utility.yul\":9644:9707   */\n    tag_254:\n        /* \"#utility.yul\":9591:9713   */\n      pop\n      jump\t// out\n        /* \"#utility.yul\":9719:9858   */\n    tag_127:\n        /* \"#utility.yul\":9765:9770   */\n      0x00\n        /* \"#utility.yul\":9803:9809   */\n      dup2\n        /* \"#utility.yul\":9790:9810   */\n      calldataload\n        /* \"#utility.yul\":9781:9810   */\n      swap1\n      pop\n        /* \"#utility.yul\":9819:9852   */\n      tag_256\n        /* \"#utility.yul\":9846:9851   */\n      dup2\n        /* \"#utility.yul\":9819:9852   */\n      tag_126\n      jump\t// in\n    tag_256:\n        /* \"#utility.yul\":9719:9858   */\n      swap3\n      swap2\n      pop\n      pop\n      jump\t// out\n        /* \"#utility.yul\":9864:10711   */\n    tag_32:\n        /* \"#utility.yul\":9975:9981   */\n      0x00\n        /* \"#utility.yul\":9983:9989   */\n      dup1\n        /* \"#utility.yul\":9991:9997   */\n      0x00\n        /* \"#utility.yul\":10040:10042   */\n      0x60\n        /* \"#utility.yul\":10028:10037   */\n      dup5\n        /* \"#utility.yul\":10019:10026   */\n      dup7\n        /* \"#utility.yul\":10015:10038   */\n      sub\n        /* \"#utility.yul\":10011:10043   */\n      slt\n        /* \"#utility.yul\":10008:10127   */\n      iszero\n      tag_258\n      jumpi\n        /* \"#utility.yul\":10046:10125   */\n      tag_259\n      tag_93\n      jump\t// in\n    tag_259:\n        /* \"#utility.yul\":10008:10127   */\n    tag_258:\n        /* \"#utility.yul\":10166:10167   */\n      0x00\n        /* \"#utility.yul\":10191:10244   */\n      tag_260\n        /* \"#utility.yul\":10236:10243   */\n      dup7\n        /* \"#utility.yul\":10227:10233   */\n      dup3\n        /* \"#utility.yul\":10216:10225   */\n      dup8\n        /* \"#utility.yul\":10212:10234   */\n      add\n        /* \"#utility.yul\":10191:10244   */\n      tag_107\n      jump\t// in\n    tag_260:\n        /* \"#utility.yul\":10181:10244   */\n      swap4\n      pop\n        /* \"#utility.yul\":10137:10254   */\n      pop\n        /* \"#utility.yul\":10321:10323   */\n      0x20\n        /* \"#utility.yul\":10310:10319   */\n      dup5\n        /* \"#utility.yul\":10306:10324   */\n      add\n        /* \"#utility.yul\":10293:10325   */\n      calldataload\n        /* \"#utility.yul\":10352:10370   */\n      0xffffffffffffffff\n        /* \"#utility.yul\":10344:10350   */\n      dup2\n        /* \"#utility.yul\":10341:10371   */\n      gt\n        /* \"#utility.yul\":10338:10455   */\n      iszero\n      tag_261\n      jumpi\n        /* \"#utility.yul\":10374:10453   */\n      tag_262\n      tag_94\n      jump\t// in\n    tag_262:\n        /* \"#utility.yul\":10338:10455   */\n    tag_261:\n        /* \"#utility.yul\":10479:10566   */\n      tag_263\n        /* \"#utility.yul\":10558:10565   */\n      dup7\n        /* \"#utility.yul\":10549:10555   */\n      dup3\n        /* \"#utility.yul\":10538:10547   */\n      dup8\n        /* \"#utility.yul\":10534:10556   */\n      add\n        /* \"#utility.yul\":10479:10566   */\n      tag_124\n      jump\t// in\n    tag_263:\n        /* \"#utility.yul\":10469:10566   */\n      swap3\n      pop\n        /* \"#utility.yul\":10264:10576   */\n      pop\n        /* \"#utility.yul\":10615:10617   */\n      0x40\n        /* \"#utility.yul\":10641:10694   */\n      tag_264\n        /* \"#utility.yul\":10686:10693   */\n      dup7\n        /* \"#utility.yul\":10677:10683   */\n      dup3\n        /* \"#utility.yul\":10666:10675   */\n      dup8\n        /* \"#utility.yul\":10662:10684   */\n      add\n        /* \"#utility.yul\":10641:10694   */\n      tag_127\n      jump\t// in\n    tag_264:\n        /* \"#utility.yul\":10631:10694   */\n      swap2\n      pop\n        /* \"#utility.yul\":10586:10704   */\n      pop\n        /* \"#utility.yul\":9864:10711   */\n      swap3\n      pop\n      swap3\n      pop\n      swap3\n      jump\t// out\n        /* \"#utility.yul\":10717:11744   */\n    tag_37:\n        /* \"#utility.yul\":10838:10844   */\n      0x00\n        /* \"#utility.yul\":10846:10852   */\n      dup1\n        /* \"#utility.yul\":10854:10860   */\n      0x00\n        /* \"#utility.yul\":10903:10905   */\n      0x60\n        /* \"#utility.yul\":10891:10900   */\n      dup5\n        /* \"#utility.yul\":10882:10889   */\n      dup7\n        /* \"#utility.yul\":10878:10901   */\n      sub\n        /* \"#utility.yul\":10874:10906   */\n      slt\n        /* \"#utility.yul\":10871:10990   */\n      iszero\n      tag_266\n      jumpi\n        /* \"#utility.yul\":10909:10988   */\n      tag_267\n      tag_93\n      jump\t// in\n    tag_267:\n        /* \"#utility.yul\":10871:10990   */\n    tag_266:\n        /* \"#utility.yul\":11029:11030   */\n      0x00\n        /* \"#utility.yul\":11054:11107   */\n      tag_268\n        /* \"#utility.yul\":11099:11106   */\n      dup7\n        /* \"#utility.yul\":11090:11096   */\n      dup3\n        /* \"#utility.yul\":11079:11088   */\n      dup8\n        /* \"#utility.yul\":11075:11097   */\n      add\n        /* \"#utility.yul\":11054:11107   */\n      tag_107\n      jump\t// in\n    tag_268:\n        /* \"#utility.yul\":11044:11107   */\n      swap4\n      pop\n        /* \"#utility.yul\":11000:11117   */\n      pop\n        /* \"#utility.yul\":11184:11186   */\n      0x20\n        /* \"#utility.yul\":11173:11182   */\n      dup5\n        /* \"#utility.yul\":11169:11187   */\n      add\n        /* \"#utility.yul\":11156:11188   */\n      calldataload\n        /* \"#utility.yul\":11215:11233   */\n      0xffffffffffffffff\n        /* \"#utility.yul\":11207:11213   */\n      dup2\n        /* \"#utility.yul\":11204:11234   */\n      gt\n        /* \"#utility.yul\":11201:11318   */\n      iszero\n      tag_269\n      jumpi\n        /* \"#utility.yul\":11237:11316   */\n      tag_270\n      tag_94\n      jump\t// in\n    tag_270:\n        /* \"#utility.yul\":11201:11318   */\n    tag_269:\n        /* \"#utility.yul\":11342:11405   */\n      tag_271\n        /* \"#utility.yul\":11397:11404   */\n      dup7\n        /* \"#utility.yul\":11388:11394   */\n      dup3\n        /* \"#utility.yul\":11377:11386   */\n      dup8\n        /* \"#utility.yul\":11373:11395   */\n      add\n        /* \"#utility.yul\":11342:11405   */\n      tag_117\n      jump\t// in\n    tag_271:\n        /* \"#utility.yul\":11332:11405   */\n      swap3\n      pop\n        /* \"#utility.yul\":11127:11415   */\n      pop\n        /* \"#utility.yul\":11482:11484   */\n      0x40\n        /* \"#utility.yul\":11471:11480   */\n      dup5\n        /* \"#utility.yul\":11467:11485   */\n      add\n        /* \"#utility.yul\":11454:11486   */\n      calldataload\n        /* \"#utility.yul\":11513:11531   */\n      0xffffffffffffffff\n        /* \"#utility.yul\":11505:11511   */\n      dup2\n        /* \"#utility.yul\":11502:11532   */\n      gt\n        /* \"#utility.yul\":11499:11616   */\n      iszero\n      tag_272\n      jumpi\n        /* \"#utility.yul\":11535:11614   */\n      tag_273\n      tag_94\n      jump\t// in\n    tag_273:\n        /* \"#utility.yul\":11499:11616   */\n    tag_272:\n        /* \"#utility.yul\":11640:11727   */\n      tag_274\n        /* \"#utility.yul\":11719:11726   */\n      dup7\n        /* \"#utility.yul\":11710:11716   */\n      dup3\n        /* \"#utility.yul\":11699:11708   */\n      dup8\n        /* \"#utility.yul\":11695:11717   */\n      add\n        /* \"#utility.yul\":11640:11727   */\n      tag_124\n      jump\t// in\n    tag_274:\n        /* \"#utility.yul\":11630:11727   */\n      swap2\n      pop\n        /* \"#utility.yul\":11425:11737   */\n      pop\n        /* \"#utility.yul\":10717:11744   */\n      swap3\n      pop\n      swap3\n      pop\n      swap3\n      jump\t// out\n        /* \"#utility.yul\":11750:11930   */\n    tag_128:\n        /* \"#utility.yul\":11798:11875   */\n      0x4e487b7100000000000000000000000000000000000000000000000000000000\n        /* \"#utility.yul\":11795:11796   */\n      0x00\n        /* \"#utility.yul\":11788:11876   */\n      mstore\n        /* \"#utility.yul\":11895:11899   */\n      0x11\n        /* \"#utility.yul\":11892:11893   */\n      0x04\n        /* \"#utility.yul\":11885:11900   */\n      mstore\n        /* \"#utility.yul\":11919:11923   */\n      0x24\n        /* \"#utility.yul\":11916:11917   */\n      0x00\n        /* \"#utility.yul\":11909:11924   */\n      revert\n        /* \"#utility.yul\":11936:12284   */\n    tag_63:\n        /* \"#utility.yul\":11976:11983   */\n      0x00\n        /* \"#utility.yul\":11999:12019   */\n      tag_277\n        /* \"#utility.yul\":12017:12018   */\n      dup3\n        /* \"#utility.yul\":11999:12019   */\n      tag_95\n      jump\t// in\n    tag_277:\n        /* \"#utility.yul\":11994:12019   */\n      swap2\n      pop\n        /* \"#utility.yul\":12033:12053   */\n      tag_278\n        /* \"#utility.yul\":12051:12052   */\n      dup4\n        /* \"#utility.yul\":12033:12053   */\n      tag_95\n      jump\t// in\n    tag_278:\n        /* \"#utility.yul\":12028:12053   */\n      swap3\n      pop\n        /* \"#utility.yul\":12221:12222   */\n      dup2\n        /* \"#utility.yul\":12153:12219   */\n      0xffffffffffffffffffffffffffffffffffffffffffffffffffffffffffffffff\n        /* \"#utility.yul\":12149:12223   */\n      div\n        /* \"#utility.yul\":12146:12147   */\n      dup4\n        /* \"#utility.yul\":12143:12224   */\n      gt\n        /* \"#utility.yul\":12138:12139   */\n      dup3\n        /* \"#utility.yul\":12131:12140   */\n      iszero\n        /* \"#utility.yul\":12124:12141   */\n      iszero\n        /* \"#utility.yul\":12120:12225   */\n      and\n        /* \"#utility.yul\":12117:12248   */\n      iszero\n      tag_279\n      jumpi\n        /* \"#utility.yul\":12228:12246   */\n      tag_280\n      tag_128\n      jump\t// in\n    tag_280:\n        /* \"#utility.yul\":12117:12248   */\n    tag_279:\n        /* \"#utility.yul\":12276:12277   */\n      dup3\n        /* \"#utility.yul\":12273:12274   */\n      dup3\n        /* \"#utility.yul\":12269:12278   */\n      mul\n        /* \"#utility.yul\":12258:12278   */\n      swap1\n      pop\n        /* \"#utility.yul\":11936:12284   */\n      swap3\n      swap2\n      pop\n      pop\n      jump\t// out\n        /* \"#utility.yul\":12290:12595   */\n    tag_67:\n        /* \"#utility.yul\":12330:12333   */\n      0x00\n        /* \"#utility.yul\":12349:12369   */\n      tag_282\n        /* \"#utility.yul\":12367:12368   */\n      dup3\n        /* \"#utility.yul\":12349:12369   */\n      tag_95\n      jump\t// in\n    tag_282:\n        /* \"#utility.yul\":12344:12369   */\n      swap2\n      pop\n        /* \"#utility.yul\":12383:12403   */\n      tag_283\n        /* \"#utility.yul\":12401:12402   */\n      dup4\n        /* \"#utility.yul\":12383:12403   */\n      tag_95\n      jump\t// in\n    tag_283:\n        /* \"#utility.yul\":12378:12403   */\n      swap3\n      pop\n        /* \"#utility.yul\":12537:12538   */\n      dup3\n        /* \"#utility.yul\":12469:12535   */\n      0xffffffffffffffffffffffffffffffffffffffffffffffffffffffffffffffff\n        /* \"#utility.yul\":12465:12539   */\n      sub\n        /* \"#utility.yul\":12462:12463   */\n      dup3\n        /* \"#utility.yul\":12459:12540   */\n      gt\n        /* \"#utility.yul\":12456:12563   */\n      iszero\n      tag_284\n      jumpi\n        /* \"#utility.yul\":12543:12561   */\n      tag_285\n      tag_128\n      jump\t// in\n    tag_285:\n        /* \"#utility.yul\":12456:12563   */\n    tag_284:\n        /* \"#utility.yul\":12587:12588   */\n      dup3\n        /* \"#utility.yul\":12584:12585   */\n      dup3\n        /* \"#utility.yul\":12580:12589   */\n      add\n        /* \"#utility.yul\":12573:12589   */\n      swap1\n      pop\n        /* \"#utility.yul\":12290:12595   */\n      swap3\n      swap2\n      pop\n      pop\n      jump\t// out\n        /* \"#utility.yul\":12601:12719   */\n    tag_129:\n        /* \"#utility.yul\":12688:12712   */\n      tag_287\n        /* \"#utility.yul\":12706:12711   */\n      dup2\n        /* \"#utility.yul\":12688:12712   */\n      tag_105\n      jump\t// in\n    tag_287:\n        /* \"#utility.yul\":12683:12686   */\n      dup3\n        /* \"#utility.yul\":12676:12713   */\n      mstore\n        /* \"#utility.yul\":12601:12719   */\n      pop\n      pop\n      jump\t// out\n        /* \"#utility.yul\":12725:12848   */\n    tag_130:\n        /* \"#utility.yul\":12801:12807   */\n      0x00\n        /* \"#utility.yul\":12835:12840   */\n      dup2\n        /* \"#utility.yul\":12829:12841   */\n      mload\n        /* \"#utility.yul\":12819:12841   */\n      swap1\n      pop\n        /* \"#utility.yul\":12725:12848   */\n      swap2\n      swap1\n      pop\n      jump\t// out\n        /* \"#utility.yul\":12854:13047   */\n    tag_131:\n        /* \"#utility.yul\":12962:12973   */\n      0x00\n        /* \"#utility.yul\":12996:13002   */\n      dup3\n        /* \"#utility.yul\":12991:12994   */\n      dup3\n        /* \"#utility.yul\":12984:13003   */\n      mstore\n        /* \"#utility.yul\":13036:13040   */\n      0x20\n        /* \"#utility.yul\":13031:13034   */\n      dup3\n        /* \"#utility.yul\":13027:13041   */\n      add\n        /* \"#utility.yul\":13012:13041   */\n      swap1\n      pop\n        /* \"#utility.yul\":12854:13047   */\n      swap3\n      swap2\n      pop\n      pop\n      jump\t// out\n        /* \"#utility.yul\":13053:13194   */\n    tag_132:\n        /* \"#utility.yul\":13129:13133   */\n      0x00\n        /* \"#utility.yul\":13152:13155   */\n      dup2\n        /* \"#utility.yul\":13144:13155   */\n      swap1\n      pop\n        /* \"#utility.yul\":13182:13186   */\n      0x20\n        /* \"#utility.yul\":13177:13180   */\n      dup3\n        /* \"#utility.yul\":13173:13187   */\n      add\n        /* \"#utility.yul\":13165:13187   */\n      swap1\n      pop\n        /* \"#utility.yul\":13053:13194   */\n      swap2\n      swap1\n      pop\n      jump\t// out\n        /* \"#utility.yul\":13200:13298   */\n    tag_133:\n        /* \"#utility.yul\":13251:13257   */\n      0x00\n        /* \"#utility.yul\":13285:13290   */\n      dup2\n        /* \"#utility.yul\":13279:13291   */\n      mload\n        /* \"#utility.yul\":13269:13291   */\n      swap1\n      pop\n        /* \"#utility.yul\":13200:13298   */\n      swap2\n      swap1\n      pop\n      jump\t// out\n        /* \"#utility.yul\":13304:13462   */\n    tag_134:\n        /* \"#utility.yul\":13377:13388   */\n      0x00\n        /* \"#utility.yul\":13411:13417   */\n      dup3\n        /* \"#utility.yul\":13406:13409   */\n      dup3\n        /* \"#utility.yul\":13399:13418   */\n      mstore\n        /* \"#utility.yul\":13451:13455   */\n      0x20\n        /* \"#utility.yul\":13446:13449   */\n      dup3\n        /* \"#utility.yul\":13442:13456   */\n      add\n        /* \"#utility.yul\":13427:13456   */\n      swap1\n      pop\n        /* \"#utility.yul\":13304:13462   */\n      swap3\n      swap2\n      pop\n      pop\n      jump\t// out\n        /* \"#utility.yul\":13468:13775   */\n    tag_135:\n        /* \"#utility.yul\":13536:13537   */\n      0x00\n        /* \"#utility.yul\":13546:13659   */\n    tag_294:\n        /* \"#utility.yul\":13560:13566   */\n      dup4\n        /* \"#utility.yul\":13557:13558   */\n      dup2\n        /* \"#utility.yul\":13554:13567   */\n      lt\n        /* \"#utility.yul\":13546:13659   */\n      iszero\n      tag_296\n      jumpi\n        /* \"#utility.yul\":13645:13646   */\n      dup1\n        /* \"#utility.yul\":13640:13643   */\n      dup3\n        /* \"#utility.yul\":13636:13647   */\n      add\n        /* \"#utility.yul\":13630:13648   */\n      mload\n        /* \"#utility.yul\":13626:13627   */\n      dup2\n        /* \"#utility.yul\":13621:13624   */\n      dup5\n        /* \"#utility.yul\":13617:13628   */\n      add\n        /* \"#utility.yul\":13610:13649   */\n      mstore\n        /* \"#utility.yul\":13582:13584   */\n      0x20\n        /* \"#utility.yul\":13579:13580   */\n      dup2\n        /* \"#utility.yul\":13575:13585   */\n      add\n        /* \"#utility.yul\":13570:13585   */\n      swap1\n      pop\n        /* \"#utility.yul\":13546:13659   */\n      jump(tag_294)\n    tag_296:\n        /* \"#utility.yul\":13677:13683   */\n      dup4\n        /* \"#utility.yul\":13674:13675   */\n      dup2\n        /* \"#utility.yul\":13671:13684   */\n      gt\n        /* \"#utility.yul\":13668:13769   */\n      iszero\n      tag_297\n      jumpi\n        /* \"#utility.yul\":13757:13758   */\n      0x00\n        /* \"#utility.yul\":13748:13754   */\n      dup5\n        /* \"#utility.yul\":13743:13746   */\n      dup5\n        /* \"#utility.yul\":13739:13755   */\n      add\n        /* \"#utility.yul\":13732:13759   */\n      mstore\n        /* \"#utility.yul\":13668:13769   */\n    tag_297:\n        /* \"#utility.yul\":13517:13775   */\n      pop\n        /* \"#utility.yul\":13468:13775   */\n      pop\n      pop\n      pop\n      jump\t// out\n        /* \"#utility.yul\":13781:14121   */\n    tag_136:\n        /* \"#utility.yul\":13857:13860   */\n      0x00\n        /* \"#utility.yul\":13885:13923   */\n      tag_299\n        /* \"#utility.yul\":13917:13922   */\n      dup3\n        /* \"#utility.yul\":13885:13923   */\n      tag_133\n      jump\t// in\n    tag_299:\n        /* \"#utility.yul\":13939:13999   */\n      tag_300\n        /* \"#utility.yul\":13992:13998   */\n      dup2\n        /* \"#utility.yul\":13987:13990   */\n      dup6\n        /* \"#utility.yul\":13939:13999   */\n      tag_134\n      jump\t// in\n    tag_300:\n        /* \"#utility.yul\":13932:13999   */\n      swap4\n      pop\n        /* \"#utility.yul\":14008:14060   */\n      tag_301\n        /* \"#utility.yul\":14053:14059   */\n      dup2\n        /* \"#utility.yul\":14048:14051   */\n      dup6\n        /* \"#utility.yul\":14041:14045   */\n      0x20\n        /* \"#utility.yul\":14034:14039   */\n      dup7\n        /* \"#utility.yul\":14030:14046   */\n      add\n        /* \"#utility.yul\":14008:14060   */\n      tag_135\n      jump\t// in\n    tag_301:\n        /* \"#utility.yul\":14085:14114   */\n      tag_302\n        /* \"#utility.yul\":14107:14113   */\n      dup2\n        /* \"#utility.yul\":14085:14114   */\n      tag_110\n      jump\t// in\n    tag_302:\n        /* \"#utility.yul\":14080:14083   */\n      dup5\n        /* \"#utility.yul\":14076:14115   */\n      add\n        /* \"#utility.yul\":14069:14115   */\n      swap2\n      pop\n        /* \"#utility.yul\":13861:14121   */\n      pop\n        /* \"#utility.yul\":13781:14121   */\n      swap3\n      swap2\n      pop\n      pop\n      jump\t// out\n        /* \"#utility.yul\":14127:14319   */\n    tag_137:\n        /* \"#utility.yul\":14214:14224   */\n      0x00\n        /* \"#utility.yul\":14249:14313   */\n      tag_304\n        /* \"#utility.yul\":14309:14312   */\n      dup4\n        /* \"#utility.yul\":14301:14307   */\n      dup4\n        /* \"#utility.yul\":14249:14313   */\n      tag_136\n      jump\t// in\n    tag_304:\n        /* \"#utility.yul\":14235:14313   */\n      swap1\n      pop\n        /* \"#utility.yul\":14127:14319   */\n      swap3\n      swap2\n      pop\n      pop\n      jump\t// out\n        /* \"#utility.yul\":14325:14447   */\n    tag_138:\n        /* \"#utility.yul\":14404:14408   */\n      0x00\n        /* \"#utility.yul\":14436:14440   */\n      0x20\n        /* \"#utility.yul\":14431:14434   */\n      dup3\n        /* \"#utility.yul\":14427:14441   */\n      add\n        /* \"#utility.yul\":14419:14441   */\n      swap1\n      pop\n        /* \"#utility.yul\":14325:14447   */\n      swap2\n      swap1\n      pop\n      jump\t// out\n        /* \"#utility.yul\":14479:15462   */\n    tag_139:\n        /* \"#utility.yul\":14616:14619   */\n      0x00\n        /* \"#utility.yul\":14645:14708   */\n      tag_307\n        /* \"#utility.yul\":14702:14707   */\n      dup3\n        /* \"#utility.yul\":14645:14708   */\n      tag_130\n      jump\t// in\n    tag_307:\n        /* \"#utility.yul\":14724:14819   */\n      tag_308\n        /* \"#utility.yul\":14812:14818   */\n      dup2\n        /* \"#utility.yul\":14807:14810   */\n      dup6\n        /* \"#utility.yul\":14724:14819   */\n      tag_131\n      jump\t// in\n    tag_308:\n        /* \"#utility.yul\":14717:14819   */\n      swap4\n      pop\n        /* \"#utility.yul\":14845:14848   */\n      dup4\n        /* \"#utility.yul\":14890:14894   */\n      0x20\n        /* \"#utility.yul\":14882:14888   */\n      dup3\n        /* \"#utility.yul\":14878:14895   */\n      mul\n        /* \"#utility.yul\":14873:14876   */\n      dup6\n        /* \"#utility.yul\":14869:14896   */\n      add\n        /* \"#utility.yul\":14920:14985   */\n      tag_309\n        /* \"#utility.yul\":14979:14984   */\n      dup6\n        /* \"#utility.yul\":14920:14985   */\n      tag_132\n      jump\t// in\n    tag_309:\n        /* \"#utility.yul\":15008:15015   */\n      dup1\n        /* \"#utility.yul\":15039:15040   */\n      0x00\n        /* \"#utility.yul\":15024:15417   */\n    tag_310:\n        /* \"#utility.yul\":15049:15055   */\n      dup6\n        /* \"#utility.yul\":15046:15047   */\n      dup2\n        /* \"#utility.yul\":15043:15056   */\n      lt\n        /* \"#utility.yul\":15024:15417   */\n      iszero\n      tag_312\n      jumpi\n        /* \"#utility.yul\":15120:15129   */\n      dup5\n        /* \"#utility.yul\":15114:15118   */\n      dup5\n        /* \"#utility.yul\":15110:15130   */\n      sub\n        /* \"#utility.yul\":15105:15108   */\n      dup10\n        /* \"#utility.yul\":15098:15131   */\n      mstore\n        /* \"#utility.yul\":15171:15177   */\n      dup2\n        /* \"#utility.yul\":15165:15178   */\n      mload\n        /* \"#utility.yul\":15199:15281   */\n      tag_313\n        /* \"#utility.yul\":15276:15280   */\n      dup6\n        /* \"#utility.yul\":15261:15274   */\n      dup3\n        /* \"#utility.yul\":15199:15281   */\n      tag_137\n      jump\t// in\n    tag_313:\n        /* \"#utility.yul\":15191:15281   */\n      swap5\n      pop\n        /* \"#utility.yul\":15304:15373   */\n      tag_314\n        /* \"#utility.yul\":15366:15372   */\n      dup4\n        /* \"#utility.yul\":15304:15373   */\n      tag_138\n      jump\t// in\n    tag_314:\n        /* \"#utility.yul\":15294:15373   */\n      swap3\n      pop\n        /* \"#utility.yul\":15402:15406   */\n      0x20\n        /* \"#utility.yul\":15397:15400   */\n      dup11\n        /* \"#utility.yul\":15393:15407   */\n      add\n        /* \"#utility.yul\":15386:15407   */\n      swap10\n      pop\n        /* \"#utility.yul\":15084:15417   */\n      pop\n        /* \"#utility.yul\":15071:15072   */\n      0x01\n        /* \"#utility.yul\":15068:15069   */\n      dup2\n        /* \"#utility.yul\":15064:15073   */\n      add\n        /* \"#utility.yul\":15059:15073   */\n      swap1\n      pop\n        /* \"#utility.yul\":15024:15417   */\n      jump(tag_310)\n    tag_312:\n        /* \"#utility.yul\":15028:15042   */\n      pop\n        /* \"#utility.yul\":15433:15437   */\n      dup3\n        /* \"#utility.yul\":15426:15437   */\n      swap8\n      pop\n        /* \"#utility.yul\":15453:15456   */\n      dup8\n        /* \"#utility.yul\":15446:15456   */\n      swap6\n      pop\n        /* \"#utility.yul\":14621:15462   */\n      pop\n      pop\n      pop\n      pop\n      pop\n        /* \"#utility.yul\":14479:15462   */\n      swap3\n      swap2\n      pop\n      pop\n      jump\t// out\n        /* \"#utility.yul\":15468:15586   */\n    tag_140:\n        /* \"#utility.yul\":15555:15579   */\n      tag_316\n        /* \"#utility.yul\":15573:15578   */\n      dup2\n        /* \"#utility.yul\":15555:15579   */\n      tag_125\n      jump\t// in\n    tag_316:\n        /* \"#utility.yul\":15550:15553   */\n      dup3\n        /* \"#utility.yul\":15543:15580   */\n      mstore\n        /* \"#utility.yul\":15468:15586   */\n      pop\n      pop\n      jump\t// out\n        /* \"#utility.yul\":15592:16221   */\n    tag_79:\n        /* \"#utility.yul\":15809:15813   */\n      0x00\n        /* \"#utility.yul\":15847:15849   */\n      0x60\n        /* \"#utility.yul\":15836:15845   */\n      dup3\n        /* \"#utility.yul\":15832:15850   */\n      add\n        /* \"#utility.yul\":15824:15850   */\n      swap1\n      pop\n        /* \"#utility.yul\":15860:15931   */\n      tag_318\n        /* \"#utility.yul\":15928:15929   */\n      0x00\n        /* \"#utility.yul\":15917:15926   */\n      dup4\n        /* \"#utility.yul\":15913:15930   */\n      add\n        /* \"#utility.yul\":15904:15910   */\n      dup7\n        /* \"#utility.yul\":15860:15931   */\n      tag_129\n      jump\t// in\n    tag_318:\n        /* \"#utility.yul\":15978:15987   */\n      dup2\n        /* \"#utility.yul\":15972:15976   */\n      dup2\n        /* \"#utility.yul\":15968:15988   */\n      sub\n        /* \"#utility.yul\":15963:15965   */\n      0x20\n        /* \"#utility.yul\":15952:15961   */\n      dup4\n        /* \"#utility.yul\":15948:15966   */\n      add\n        /* \"#utility.yul\":15941:15989   */\n      mstore\n        /* \"#utility.yul\":16006:16132   */\n      tag_319\n        /* \"#utility.yul\":16127:16131   */\n      dup2\n        /* \"#utility.yul\":16118:16124   */\n      dup6\n        /* \"#utility.yul\":16006:16132   */\n      tag_139\n      jump\t// in\n    tag_319:\n        /* \"#utility.yul\":15998:16132   */\n      swap1\n      pop\n        /* \"#utility.yul\":16142:16214   */\n      tag_320\n        /* \"#utility.yul\":16210:16212   */\n      0x40\n        /* \"#utility.yul\":16199:16208   */\n      dup4\n        /* \"#utility.yul\":16195:16213   */\n      add\n        /* \"#utility.yul\":16186:16192   */\n      dup5\n        /* \"#utility.yul\":16142:16214   */\n      tag_140\n      jump\t// in\n    tag_320:\n        /* \"#utility.yul\":15592:16221   */\n      swap5\n      swap4\n      pop\n      pop\n      pop\n      pop\n      jump\t// out\n\n    auxdata: 0xa2646970667358221220aad51f33a10989cccf99113737fdc89a64dfb5fa498c5491589e0ad95bc262d464736f6c634300080d0033\n}\n",
				"bytecode": {
					"linkReferences": {},
					"object": "608060405234801561001057600080fd5b50610e12806100206000396000f3fe6080604052600436106100705760003560e01c80638c4461b31161004e5780638c4461b31461012c578063a627e44714610169578063c01f9e3714610199578063f68deaf9146101d657610070565b80632d63f693146100755780633e4f49e6146100b25780638c0e09f5146100ef575b600080fd5b34801561008157600080fd5b5061009c6004803603810190610097919061054e565b610213565b6040516100a9919061058a565b60405180910390f35b3480156100be57600080fd5b506100d960048036038101906100d4919061054e565b610258565b6040516100e6919061061c565b60405180910390f35b3480156100fb57600080fd5b5061011660048036038101906101119190610962565b6102f9565b604051610123919061058a565b60405180910390f35b34801561013857600080fd5b50610153600480360381019061014e9190610a5d565b6103df565b604051610160919061058a565b60405180910390f35b610183600480360381019061017e9190610acc565b610418565b604051610190919061058a565b60405180910390f35b3480156101a557600080fd5b506101c060048036038101906101bb919061054e565b610437565b6040516101cd919061058a565b60405180910390f35b3480156101e257600080fd5b506101fd60048036038101906101f8919061054e565b61047c565b60405161020a919061058a565b60405180910390f35b6000610251600080848152602001908152602001600020600001604051806040016040529081600082015481526020016001820154815250506104c1565b9050919050565b60008060008084815260200190815260200160002090508060060160009054906101000a900460ff16156102905760079150506102f4565b8060060160019054906101000a900460ff16156102b15760029150506102f4565b60006102bc84610213565b90504281106102d0576000925050506102f4565b60006102db85610437565b90504281106102f057600193505050506102f4565b5050505b919050565b60008061030e858486805190602001206103df565b9050600080600083815260200190815260200160002090506000603c8060188c6103389190610b86565b6103429190610b86565b61034c9190610b86565b426103579190610be0565b90506000603c8060188c61036b9190610b86565b6103759190610b86565b61037f9190610b86565b8261038a9190610be0565b90506103a282846000016104cf90919063ffffffff16565b6103b881846002016104cf90919063ffffffff16565b6103ce89846004016104e990919063ffffffff16565b839450505050509695505050505050565b60008383836040516020016103f693929190610d9e565b6040516020818303038152906040528051906020012060001c90509392505050565b60008061042d858486805190602001206103df565b9050509392505050565b6000610475600080848152602001908152602001600020600201604051806040016040529081600082015481526020016001820154815250506104c1565b9050919050565b60006104ba600080848152602001908152602001600020600401604051806040016040529081600082015481526020016001820154815250506104f6565b9050919050565b600081600001519050919050565b6103e8816104dd9190610b86565b82600001819055505050565b8082600101819055505050565b600081602001519050919050565b6000604051905090565b600080fd5b600080fd5b6000819050919050565b61052b81610518565b811461053657600080fd5b50565b60008135905061054881610522565b92915050565b6000602082840312156105645761056361050e565b5b600061057284828501610539565b91505092915050565b61058481610518565b82525050565b600060208201905061059f600083018461057b565b92915050565b7f4e487b7100000000000000000000000000000000000000000000000000000000600052602160045260246000fd5b600881106105e5576105e46105a5565b5b50565b60008190506105f6826105d4565b919050565b6000610606826105e8565b9050919050565b610616816105fb565b82525050565b6000602082019050610631600083018461060d565b92915050565b600073ffffffffffffffffffffffffffffffffffffffff82169050919050565b600061066282610637565b9050919050565b61067281610657565b811461067d57600080fd5b50565b60008135905061068f81610669565b92915050565b600080fd5b600080fd5b6000601f19601f8301169050919050565b7f4e487b7100000000000000000000000000000000000000000000000000000000600052604160045260246000fd5b6106e88261069f565b810181811067ffffffffffffffff82111715610707576107066106b0565b5b80604052505050565b600061071a610504565b905061072682826106df565b919050565b600067ffffffffffffffff821115610746576107456106b0565b5b61074f8261069f565b9050602081019050919050565b82818337600083830152505050565b600061077e6107798461072b565b610710565b90508281526020810184848401111561079a5761079961069a565b5b6107a584828561075c565b509392505050565b600082601f8301126107c2576107c1610695565b5b81356107d284826020860161076b565b91505092915050565b600067ffffffffffffffff8211156107f6576107f56106b0565b5b602082029050602081019050919050565b600080fd5b600067ffffffffffffffff821115610827576108266106b0565b5b6108308261069f565b9050602081019050919050565b600061085061084b8461080c565b610710565b90508281526020810184848401111561086c5761086b61069a565b5b61087784828561075c565b509392505050565b600082601f83011261089457610893610695565b5b81356108a484826020860161083d565b91505092915050565b60006108c06108bb846107db565b610710565b905080838252602082019050602084028301858111156108e3576108e2610807565b5b835b8181101561092a57803567ffffffffffffffff81111561090857610907610695565b5b808601610915898261087f565b855260208501945050506020810190506108e5565b5050509392505050565b600082601f83011261094957610948610695565b5b81356109598482602086016108ad565b91505092915050565b60008060008060008060c0878903121561097f5761097e61050e565b5b600061098d89828a01610539565b965050602061099e89828a01610539565b95505060406109af89828a01610539565b94505060606109c089828a01610680565b935050608087013567ffffffffffffffff8111156109e1576109e0610513565b5b6109ed89828a016107ad565b92505060a087013567ffffffffffffffff811115610a0e57610a0d610513565b5b610a1a89828a01610934565b9150509295509295509295565b6000819050919050565b610a3a81610a27565b8114610a4557600080fd5b50565b600081359050610a5781610a31565b92915050565b600080600060608486031215610a7657610a7561050e565b5b6000610a8486828701610680565b935050602084013567ffffffffffffffff811115610aa557610aa4610513565b5b610ab186828701610934565b9250506040610ac286828701610a48565b9150509250925092565b600080600060608486031215610ae557610ae461050e565b5b6000610af386828701610680565b935050602084013567ffffffffffffffff811115610b1457610b13610513565b5b610b20868287016107ad565b925050604084013567ffffffffffffffff811115610b4157610b40610513565b5b610b4d86828701610934565b9150509250925092565b7f4e487b7100000000000000000000000000000000000000000000000000000000600052601160045260246000fd5b6000610b9182610518565b9150610b9c83610518565b9250817fffffffffffffffffffffffffffffffffffffffffffffffffffffffffffffffff0483118215151615610bd557610bd4610b57565b5b828202905092915050565b6000610beb82610518565b9150610bf683610518565b9250827fffffffffffffffffffffffffffffffffffffffffffffffffffffffffffffffff03821115610c2b57610c2a610b57565b5b828201905092915050565b610c3f81610657565b82525050565b600081519050919050565b600082825260208201905092915050565b6000819050602082019050919050565b600081519050919050565b600082825260208201905092915050565b60005b83811015610cab578082015181840152602081019050610c90565b83811115610cba576000848401525b50505050565b6000610ccb82610c71565b610cd58185610c7c565b9350610ce5818560208601610c8d565b610cee8161069f565b840191505092915050565b6000610d058383610cc0565b905092915050565b6000602082019050919050565b6000610d2582610c45565b610d2f8185610c50565b935083602082028501610d4185610c61565b8060005b85811015610d7d5784840389528151610d5e8582610cf9565b9450610d6983610d0d565b925060208a01995050600181019050610d45565b50829750879550505050505092915050565b610d9881610a27565b82525050565b6000606082019050610db36000830186610c36565b8181036020830152610dc58185610d1a565b9050610dd46040830184610d8f565b94935050505056fea2646970667358221220aad51f33a10989cccf99113737fdc89a64dfb5fa498c5491589e0ad95bc262d464736f6c634300080d0033",
					"opcodes": "PUSH1 0x80 PUSH1 0x40 MSTORE CALLVALUE DUP1 ISZERO PUSH2 0x10 JUMPI PUSH1 0x0 DUP1 REVERT JUMPDEST POP PUSH2 0xE12 DUP1 PUSH2 0x20 PUSH1 0x0 CODECOPY PUSH1 0x0 RETURN INVALID PUSH1 0x80 PUSH1 0x40 MSTORE PUSH1 0x4 CALLDATASIZE LT PUSH2 0x70 JUMPI PUSH1 0x0 CALLDATALOAD PUSH1 0xE0 SHR DUP1 PUSH4 0x8C4461B3 GT PUSH2 0x4E JUMPI DUP1 PUSH4 0x8C4461B3 EQ PUSH2 0x12C JUMPI DUP1 PUSH4 0xA627E447 EQ PUSH2 0x169 JUMPI DUP1 PUSH4 0xC01F9E37 EQ PUSH2 0x199 JUMPI DUP1 PUSH4 0xF68DEAF9 EQ PUSH2 0x1D6 JUMPI PUSH2 0x70 JUMP JUMPDEST DUP1 PUSH4 0x2D63F693 EQ PUSH2 0x75 JUMPI DUP1 PUSH4 0x3E4F49E6 EQ PUSH2 0xB2 JUMPI DUP1 PUSH4 0x8C0E09F5 EQ PUSH2 0xEF JUMPI JUMPDEST PUSH1 0x0 DUP1 REVERT JUMPDEST CALLVALUE DUP1 ISZERO PUSH2 0x81 JUMPI PUSH1 0x0 DUP1 REVERT JUMPDEST POP PUSH2 0x9C PUSH1 0x4 DUP1 CALLDATASIZE SUB DUP2 ADD SWAP1 PUSH2 0x97 SWAP2 SWAP1 PUSH2 0x54E JUMP JUMPDEST PUSH2 0x213 JUMP JUMPDEST PUSH1 0x40 MLOAD PUSH2 0xA9 SWAP2 SWAP1 PUSH2 0x58A JUMP JUMPDEST PUSH1 0x40 MLOAD DUP1 SWAP2 SUB SWAP1 RETURN JUMPDEST CALLVALUE DUP1 ISZERO PUSH2 0xBE JUMPI PUSH1 0x0 DUP1 REVERT JUMPDEST POP PUSH2 0xD9 PUSH1 0x4 DUP1 CALLDATASIZE SUB DUP2 ADD SWAP1 PUSH2 0xD4 SWAP2 SWAP1 PUSH2 0x54E JUMP JUMPDEST PUSH2 0x258 JUMP JUMPDEST PUSH1 0x40 MLOAD PUSH2 0xE6 SWAP2 SWAP1 PUSH2 0x61C JUMP JUMPDEST PUSH1 0x40 MLOAD DUP1 SWAP2 SUB SWAP1 RETURN JUMPDEST CALLVALUE DUP1 ISZERO PUSH2 0xFB JUMPI PUSH1 0x0 DUP1 REVERT JUMPDEST POP PUSH2 0x116 PUSH1 0x4 DUP1 CALLDATASIZE SUB DUP2 ADD SWAP1 PUSH2 0x111 SWAP2 SWAP1 PUSH2 0x962 JUMP JUMPDEST PUSH2 0x2F9 JUMP JUMPDEST PUSH1 0x40 MLOAD PUSH2 0x123 SWAP2 SWAP1 PUSH2 0x58A JUMP JUMPDEST PUSH1 0x40 MLOAD DUP1 SWAP2 SUB SWAP1 RETURN JUMPDEST CALLVALUE DUP1 ISZERO PUSH2 0x138 JUMPI PUSH1 0x0 DUP1 REVERT JUMPDEST POP PUSH2 0x153 PUSH1 0x4 DUP1 CALLDATASIZE SUB DUP2 ADD SWAP1 PUSH2 0x14E SWAP2 SWAP1 PUSH2 0xA5D JUMP JUMPDEST PUSH2 0x3DF JUMP JUMPDEST PUSH1 0x40 MLOAD PUSH2 0x160 SWAP2 SWAP1 PUSH2 0x58A JUMP JUMPDEST PUSH1 0x40 MLOAD DUP1 SWAP2 SUB SWAP1 RETURN JUMPDEST PUSH2 0x183 PUSH1 0x4 DUP1 CALLDATASIZE SUB DUP2 ADD SWAP1 PUSH2 0x17E SWAP2 SWAP1 PUSH2 0xACC JUMP JUMPDEST PUSH2 0x418 JUMP JUMPDEST PUSH1 0x40 MLOAD PUSH2 0x190 SWAP2 SWAP1 PUSH2 0x58A JUMP JUMPDEST PUSH1 0x40 MLOAD DUP1 SWAP2 SUB SWAP1 RETURN JUMPDEST CALLVALUE DUP1 ISZERO PUSH2 0x1A5 JUMPI PUSH1 0x0 DUP1 REVERT JUMPDEST POP PUSH2 0x1C0 PUSH1 0x4 DUP1 CALLDATASIZE SUB DUP2 ADD SWAP1 PUSH2 0x1BB SWAP2 SWAP1 PUSH2 0x54E JUMP JUMPDEST PUSH2 0x437 JUMP JUMPDEST PUSH1 0x40 MLOAD PUSH2 0x1CD SWAP2 SWAP1 PUSH2 0x58A JUMP JUMPDEST PUSH1 0x40 MLOAD DUP1 SWAP2 SUB SWAP1 RETURN JUMPDEST CALLVALUE DUP1 ISZERO PUSH2 0x1E2 JUMPI PUSH1 0x0 DUP1 REVERT JUMPDEST POP PUSH2 0x1FD PUSH1 0x4 DUP1 CALLDATASIZE SUB DUP2 ADD SWAP1 PUSH2 0x1F8 SWAP2 SWAP1 PUSH2 0x54E JUMP JUMPDEST PUSH2 0x47C JUMP JUMPDEST PUSH1 0x40 MLOAD PUSH2 0x20A SWAP2 SWAP1 PUSH2 0x58A JUMP JUMPDEST PUSH1 0x40 MLOAD DUP1 SWAP2 SUB SWAP1 RETURN JUMPDEST PUSH1 0x0 PUSH2 0x251 PUSH1 0x0 DUP1 DUP5 DUP2 MSTORE PUSH1 0x20 ADD SWAP1 DUP2 MSTORE PUSH1 0x20 ADD PUSH1 0x0 KECCAK256 PUSH1 0x0 ADD PUSH1 0x40 MLOAD DUP1 PUSH1 0x40 ADD PUSH1 0x40 MSTORE SWAP1 DUP2 PUSH1 0x0 DUP3 ADD SLOAD DUP2 MSTORE PUSH1 0x20 ADD PUSH1 0x1 DUP3 ADD SLOAD DUP2 MSTORE POP POP PUSH2 0x4C1 JUMP JUMPDEST SWAP1 POP SWAP2 SWAP1 POP JUMP JUMPDEST PUSH1 0x0 DUP1 PUSH1 0x0 DUP1 DUP5 DUP2 MSTORE PUSH1 0x20 ADD SWAP1 DUP2 MSTORE PUSH1 0x20 ADD PUSH1 0x0 KECCAK256 SWAP1 POP DUP1 PUSH1 0x6 ADD PUSH1 0x0 SWAP1 SLOAD SWAP1 PUSH2 0x100 EXP SWAP1 DIV PUSH1 0xFF AND ISZERO PUSH2 0x290 JUMPI PUSH1 0x7 SWAP2 POP POP PUSH2 0x2F4 JUMP JUMPDEST DUP1 PUSH1 0x6 ADD PUSH1 0x1 SWAP1 SLOAD SWAP1 PUSH2 0x100 EXP SWAP1 DIV PUSH1 0xFF AND ISZERO PUSH2 0x2B1 JUMPI PUSH1 0x2 SWAP2 POP POP PUSH2 0x2F4 JUMP JUMPDEST PUSH1 0x0 PUSH2 0x2BC DUP5 PUSH2 0x213 JUMP JUMPDEST SWAP1 POP TIMESTAMP DUP2 LT PUSH2 0x2D0 JUMPI PUSH1 0x0 SWAP3 POP POP POP PUSH2 0x2F4 JUMP JUMPDEST PUSH1 0x0 PUSH2 0x2DB DUP6 PUSH2 0x437 JUMP JUMPDEST SWAP1 POP TIMESTAMP DUP2 LT PUSH2 0x2F0 JUMPI PUSH1 0x1 SWAP4 POP POP POP POP PUSH2 0x2F4 JUMP JUMPDEST POP POP POP JUMPDEST SWAP2 SWAP1 POP JUMP JUMPDEST PUSH1 0x0 DUP1 PUSH2 0x30E DUP6 DUP5 DUP7 DUP1 MLOAD SWAP1 PUSH1 0x20 ADD KECCAK256 PUSH2 0x3DF JUMP JUMPDEST SWAP1 POP PUSH1 0x0 DUP1 PUSH1 0x0 DUP4 DUP2 MSTORE PUSH1 0x20 ADD SWAP1 DUP2 MSTORE PUSH1 0x20 ADD PUSH1 0x0 KECCAK256 SWAP1 POP PUSH1 0x0 PUSH1 0x3C DUP1 PUSH1 0x18 DUP13 PUSH2 0x338 SWAP2 SWAP1 PUSH2 0xB86 JUMP JUMPDEST PUSH2 0x342 SWAP2 SWAP1 PUSH2 0xB86 JUMP JUMPDEST PUSH2 0x34C SWAP2 SWAP1 PUSH2 0xB86 JUMP JUMPDEST TIMESTAMP PUSH2 0x357 SWAP2 SWAP1 PUSH2 0xBE0 JUMP JUMPDEST SWAP1 POP PUSH1 0x0 PUSH1 0x3C DUP1 PUSH1 0x18 DUP13 PUSH2 0x36B SWAP2 SWAP1 PUSH2 0xB86 JUMP JUMPDEST PUSH2 0x375 SWAP2 SWAP1 PUSH2 0xB86 JUMP JUMPDEST PUSH2 0x37F SWAP2 SWAP1 PUSH2 0xB86 JUMP JUMPDEST DUP3 PUSH2 0x38A SWAP2 SWAP1 PUSH2 0xBE0 JUMP JUMPDEST SWAP1 POP PUSH2 0x3A2 DUP3 DUP5 PUSH1 0x0 ADD PUSH2 0x4CF SWAP1 SWAP2 SWAP1 PUSH4 0xFFFFFFFF AND JUMP JUMPDEST PUSH2 0x3B8 DUP2 DUP5 PUSH1 0x2 ADD PUSH2 0x4CF SWAP1 SWAP2 SWAP1 PUSH4 0xFFFFFFFF AND JUMP JUMPDEST PUSH2 0x3CE DUP10 DUP5 PUSH1 0x4 ADD PUSH2 0x4E9 SWAP1 SWAP2 SWAP1 PUSH4 0xFFFFFFFF AND JUMP JUMPDEST DUP4 SWAP5 POP POP POP POP POP SWAP7 SWAP6 POP POP POP POP POP POP JUMP JUMPDEST PUSH1 0x0 DUP4 DUP4 DUP4 PUSH1 0x40 MLOAD PUSH1 0x20 ADD PUSH2 0x3F6 SWAP4 SWAP3 SWAP2 SWAP1 PUSH2 0xD9E JUMP JUMPDEST PUSH1 0x40 MLOAD PUSH1 0x20 DUP2 DUP4 SUB SUB DUP2 MSTORE SWAP1 PUSH1 0x40 MSTORE DUP1 MLOAD SWAP1 PUSH1 0x20 ADD KECCAK256 PUSH1 0x0 SHR SWAP1 POP SWAP4 SWAP3 POP POP POP JUMP JUMPDEST PUSH1 0x0 DUP1 PUSH2 0x42D DUP6 DUP5 DUP7 DUP1 MLOAD SWAP1 PUSH1 0x20 ADD KECCAK256 PUSH2 0x3DF JUMP JUMPDEST SWAP1 POP POP SWAP4 SWAP3 POP POP POP JUMP JUMPDEST PUSH1 0x0 PUSH2 0x475 PUSH1 0x0 DUP1 DUP5 DUP2 MSTORE PUSH1 0x20 ADD SWAP1 DUP2 MSTORE PUSH1 0x20 ADD PUSH1 0x0 KECCAK256 PUSH1 0x2 ADD PUSH1 0x40 MLOAD DUP1 PUSH1 0x40 ADD PUSH1 0x40 MSTORE SWAP1 DUP2 PUSH1 0x0 DUP3 ADD SLOAD DUP2 MSTORE PUSH1 0x20 ADD PUSH1 0x1 DUP3 ADD SLOAD DUP2 MSTORE POP POP PUSH2 0x4C1 JUMP JUMPDEST SWAP1 POP SWAP2 SWAP1 POP JUMP JUMPDEST PUSH1 0x0 PUSH2 0x4BA PUSH1 0x0 DUP1 DUP5 DUP2 MSTORE PUSH1 0x20 ADD SWAP1 DUP2 MSTORE PUSH1 0x20 ADD PUSH1 0x0 KECCAK256 PUSH1 0x4 ADD PUSH1 0x40 MLOAD DUP1 PUSH1 0x40 ADD PUSH1 0x40 MSTORE SWAP1 DUP2 PUSH1 0x0 DUP3 ADD SLOAD DUP2 MSTORE PUSH1 0x20 ADD PUSH1 0x1 DUP3 ADD SLOAD DUP2 MSTORE POP POP PUSH2 0x4F6 JUMP JUMPDEST SWAP1 POP SWAP2 SWAP1 POP JUMP JUMPDEST PUSH1 0x0 DUP2 PUSH1 0x0 ADD MLOAD SWAP1 POP SWAP2 SWAP1 POP JUMP JUMPDEST PUSH2 0x3E8 DUP2 PUSH2 0x4DD SWAP2 SWAP1 PUSH2 0xB86 JUMP JUMPDEST DUP3 PUSH1 0x0 ADD DUP2 SWAP1 SSTORE POP POP POP JUMP JUMPDEST DUP1 DUP3 PUSH1 0x1 ADD DUP2 SWAP1 SSTORE POP POP POP JUMP JUMPDEST PUSH1 0x0 DUP2 PUSH1 0x20 ADD MLOAD SWAP1 POP SWAP2 SWAP1 POP JUMP JUMPDEST PUSH1 0x0 PUSH1 0x40 MLOAD SWAP1 POP SWAP1 JUMP JUMPDEST PUSH1 0x0 DUP1 REVERT JUMPDEST PUSH1 0x0 DUP1 REVERT JUMPDEST PUSH1 0x0 DUP2 SWAP1 POP SWAP2 SWAP1 POP JUMP JUMPDEST PUSH2 0x52B DUP2 PUSH2 0x518 JUMP JUMPDEST DUP2 EQ PUSH2 0x536 JUMPI PUSH1 0x0 DUP1 REVERT JUMPDEST POP JUMP JUMPDEST PUSH1 0x0 DUP2 CALLDATALOAD SWAP1 POP PUSH2 0x548 DUP2 PUSH2 0x522 JUMP JUMPDEST SWAP3 SWAP2 POP POP JUMP JUMPDEST PUSH1 0x0 PUSH1 0x20 DUP3 DUP5 SUB SLT ISZERO PUSH2 0x564 JUMPI PUSH2 0x563 PUSH2 0x50E JUMP JUMPDEST JUMPDEST PUSH1 0x0 PUSH2 0x572 DUP5 DUP3 DUP6 ADD PUSH2 0x539 JUMP JUMPDEST SWAP2 POP POP SWAP3 SWAP2 POP POP JUMP JUMPDEST PUSH2 0x584 DUP2 PUSH2 0x518 JUMP JUMPDEST DUP3 MSTORE POP POP JUMP JUMPDEST PUSH1 0x0 PUSH1 0x20 DUP3 ADD SWAP1 POP PUSH2 0x59F PUSH1 0x0 DUP4 ADD DUP5 PUSH2 0x57B JUMP JUMPDEST SWAP3 SWAP2 POP POP JUMP JUMPDEST PUSH32 0x4E487B7100000000000000000000000000000000000000000000000000000000 PUSH1 0x0 MSTORE PUSH1 0x21 PUSH1 0x4 MSTORE PUSH1 0x24 PUSH1 0x0 REVERT JUMPDEST PUSH1 0x8 DUP2 LT PUSH2 0x5E5 JUMPI PUSH2 0x5E4 PUSH2 0x5A5 JUMP JUMPDEST JUMPDEST POP JUMP JUMPDEST PUSH1 0x0 DUP2 SWAP1 POP PUSH2 0x5F6 DUP3 PUSH2 0x5D4 JUMP JUMPDEST SWAP2 SWAP1 POP JUMP JUMPDEST PUSH1 0x0 PUSH2 0x606 DUP3 PUSH2 0x5E8 JUMP JUMPDEST SWAP1 POP SWAP2 SWAP1 POP JUMP JUMPDEST PUSH2 0x616 DUP2 PUSH2 0x5FB JUMP JUMPDEST DUP3 MSTORE POP POP JUMP JUMPDEST PUSH1 0x0 PUSH1 0x20 DUP3 ADD SWAP1 POP PUSH2 0x631 PUSH1 0x0 DUP4 ADD DUP5 PUSH2 0x60D JUMP JUMPDEST SWAP3 SWAP2 POP POP JUMP JUMPDEST PUSH1 0x0 PUSH20 0xFFFFFFFFFFFFFFFFFFFFFFFFFFFFFFFFFFFFFFFF DUP3 AND SWAP1 POP SWAP2 SWAP1 POP JUMP JUMPDEST PUSH1 0x0 PUSH2 0x662 DUP3 PUSH2 0x637 JUMP JUMPDEST SWAP1 POP SWAP2 SWAP1 POP JUMP JUMPDEST PUSH2 0x672 DUP2 PUSH2 0x657 JUMP JUMPDEST DUP2 EQ PUSH2 0x67D JUMPI PUSH1 0x0 DUP1 REVERT JUMPDEST POP JUMP JUMPDEST PUSH1 0x0 DUP2 CALLDATALOAD SWAP1 POP PUSH2 0x68F DUP2 PUSH2 0x669 JUMP JUMPDEST SWAP3 SWAP2 POP POP JUMP JUMPDEST PUSH1 0x0 DUP1 REVERT JUMPDEST PUSH1 0x0 DUP1 REVERT JUMPDEST PUSH1 0x0 PUSH1 0x1F NOT PUSH1 0x1F DUP4 ADD AND SWAP1 POP SWAP2 SWAP1 POP JUMP JUMPDEST PUSH32 0x4E487B7100000000000000000000000000000000000000000000000000000000 PUSH1 0x0 MSTORE PUSH1 0x41 PUSH1 0x4 MSTORE PUSH1 0x24 PUSH1 0x0 REVERT JUMPDEST PUSH2 0x6E8 DUP3 PUSH2 0x69F JUMP JUMPDEST DUP2 ADD DUP2 DUP2 LT PUSH8 0xFFFFFFFFFFFFFFFF DUP3 GT OR ISZERO PUSH2 0x707 JUMPI PUSH2 0x706 PUSH2 0x6B0 JUMP JUMPDEST JUMPDEST DUP1 PUSH1 0x40 MSTORE POP POP POP JUMP JUMPDEST PUSH1 0x0 PUSH2 0x71A PUSH2 0x504 JUMP JUMPDEST SWAP1 POP PUSH2 0x726 DUP3 DUP3 PUSH2 0x6DF JUMP JUMPDEST SWAP2 SWAP1 POP JUMP JUMPDEST PUSH1 0x0 PUSH8 0xFFFFFFFFFFFFFFFF DUP3 GT ISZERO PUSH2 0x746 JUMPI PUSH2 0x745 PUSH2 0x6B0 JUMP JUMPDEST JUMPDEST PUSH2 0x74F DUP3 PUSH2 0x69F JUMP JUMPDEST SWAP1 POP PUSH1 0x20 DUP2 ADD SWAP1 POP SWAP2 SWAP1 POP JUMP JUMPDEST DUP3 DUP2 DUP4 CALLDATACOPY PUSH1 0x0 DUP4 DUP4 ADD MSTORE POP POP POP JUMP JUMPDEST PUSH1 0x0 PUSH2 0x77E PUSH2 0x779 DUP5 PUSH2 0x72B JUMP JUMPDEST PUSH2 0x710 JUMP JUMPDEST SWAP1 POP DUP3 DUP2 MSTORE PUSH1 0x20 DUP2 ADD DUP5 DUP5 DUP5 ADD GT ISZERO PUSH2 0x79A JUMPI PUSH2 0x799 PUSH2 0x69A JUMP JUMPDEST JUMPDEST PUSH2 0x7A5 DUP5 DUP3 DUP6 PUSH2 0x75C JUMP JUMPDEST POP SWAP4 SWAP3 POP POP POP JUMP JUMPDEST PUSH1 0x0 DUP3 PUSH1 0x1F DUP4 ADD SLT PUSH2 0x7C2 JUMPI PUSH2 0x7C1 PUSH2 0x695 JUMP JUMPDEST JUMPDEST DUP2 CALLDATALOAD PUSH2 0x7D2 DUP5 DUP3 PUSH1 0x20 DUP7 ADD PUSH2 0x76B JUMP JUMPDEST SWAP2 POP POP SWAP3 SWAP2 POP POP JUMP JUMPDEST PUSH1 0x0 PUSH8 0xFFFFFFFFFFFFFFFF DUP3 GT ISZERO PUSH2 0x7F6 JUMPI PUSH2 0x7F5 PUSH2 0x6B0 JUMP JUMPDEST JUMPDEST PUSH1 0x20 DUP3 MUL SWAP1 POP PUSH1 0x20 DUP2 ADD SWAP1 POP SWAP2 SWAP1 POP JUMP JUMPDEST PUSH1 0x0 DUP1 REVERT JUMPDEST PUSH1 0x0 PUSH8 0xFFFFFFFFFFFFFFFF DUP3 GT ISZERO PUSH2 0x827 JUMPI PUSH2 0x826 PUSH2 0x6B0 JUMP JUMPDEST JUMPDEST PUSH2 0x830 DUP3 PUSH2 0x69F JUMP JUMPDEST SWAP1 POP PUSH1 0x20 DUP2 ADD SWAP1 POP SWAP2 SWAP1 POP JUMP JUMPDEST PUSH1 0x0 PUSH2 0x850 PUSH2 0x84B DUP5 PUSH2 0x80C JUMP JUMPDEST PUSH2 0x710 JUMP JUMPDEST SWAP1 POP DUP3 DUP2 MSTORE PUSH1 0x20 DUP2 ADD DUP5 DUP5 DUP5 ADD GT ISZERO PUSH2 0x86C JUMPI PUSH2 0x86B PUSH2 0x69A JUMP JUMPDEST JUMPDEST PUSH2 0x877 DUP5 DUP3 DUP6 PUSH2 0x75C JUMP JUMPDEST POP SWAP4 SWAP3 POP POP POP JUMP JUMPDEST PUSH1 0x0 DUP3 PUSH1 0x1F DUP4 ADD SLT PUSH2 0x894 JUMPI PUSH2 0x893 PUSH2 0x695 JUMP JUMPDEST JUMPDEST DUP2 CALLDATALOAD PUSH2 0x8A4 DUP5 DUP3 PUSH1 0x20 DUP7 ADD PUSH2 0x83D JUMP JUMPDEST SWAP2 POP POP SWAP3 SWAP2 POP POP JUMP JUMPDEST PUSH1 0x0 PUSH2 0x8C0 PUSH2 0x8BB DUP5 PUSH2 0x7DB JUMP JUMPDEST PUSH2 0x710 JUMP JUMPDEST SWAP1 POP DUP1 DUP4 DUP3 MSTORE PUSH1 0x20 DUP3 ADD SWAP1 POP PUSH1 0x20 DUP5 MUL DUP4 ADD DUP6 DUP2 GT ISZERO PUSH2 0x8E3 JUMPI PUSH2 0x8E2 PUSH2 0x807 JUMP JUMPDEST JUMPDEST DUP4 JUMPDEST DUP2 DUP2 LT ISZERO PUSH2 0x92A JUMPI DUP1 CALLDATALOAD PUSH8 0xFFFFFFFFFFFFFFFF DUP2 GT ISZERO PUSH2 0x908 JUMPI PUSH2 0x907 PUSH2 0x695 JUMP JUMPDEST JUMPDEST DUP1 DUP7 ADD PUSH2 0x915 DUP10 DUP3 PUSH2 0x87F JUMP JUMPDEST DUP6 MSTORE PUSH1 0x20 DUP6 ADD SWAP5 POP POP POP PUSH1 0x20 DUP2 ADD SWAP1 POP PUSH2 0x8E5 JUMP JUMPDEST POP POP POP SWAP4 SWAP3 POP POP POP JUMP JUMPDEST PUSH1 0x0 DUP3 PUSH1 0x1F DUP4 ADD SLT PUSH2 0x949 JUMPI PUSH2 0x948 PUSH2 0x695 JUMP JUMPDEST JUMPDEST DUP2 CALLDATALOAD PUSH2 0x959 DUP5 DUP3 PUSH1 0x20 DUP7 ADD PUSH2 0x8AD JUMP JUMPDEST SWAP2 POP POP SWAP3 SWAP2 POP POP JUMP JUMPDEST PUSH1 0x0 DUP1 PUSH1 0x0 DUP1 PUSH1 0x0 DUP1 PUSH1 0xC0 DUP8 DUP10 SUB SLT ISZERO PUSH2 0x97F JUMPI PUSH2 0x97E PUSH2 0x50E JUMP JUMPDEST JUMPDEST PUSH1 0x0 PUSH2 0x98D DUP10 DUP3 DUP11 ADD PUSH2 0x539 JUMP JUMPDEST SWAP7 POP POP PUSH1 0x20 PUSH2 0x99E DUP10 DUP3 DUP11 ADD PUSH2 0x539 JUMP JUMPDEST SWAP6 POP POP PUSH1 0x40 PUSH2 0x9AF DUP10 DUP3 DUP11 ADD PUSH2 0x539 JUMP JUMPDEST SWAP5 POP POP PUSH1 0x60 PUSH2 0x9C0 DUP10 DUP3 DUP11 ADD PUSH2 0x680 JUMP JUMPDEST SWAP4 POP POP PUSH1 0x80 DUP8 ADD CALLDATALOAD PUSH8 0xFFFFFFFFFFFFFFFF DUP2 GT ISZERO PUSH2 0x9E1 JUMPI PUSH2 0x9E0 PUSH2 0x513 JUMP JUMPDEST JUMPDEST PUSH2 0x9ED DUP10 DUP3 DUP11 ADD PUSH2 0x7AD JUMP JUMPDEST SWAP3 POP POP PUSH1 0xA0 DUP8 ADD CALLDATALOAD PUSH8 0xFFFFFFFFFFFFFFFF DUP2 GT ISZERO PUSH2 0xA0E JUMPI PUSH2 0xA0D PUSH2 0x513 JUMP JUMPDEST JUMPDEST PUSH2 0xA1A DUP10 DUP3 DUP11 ADD PUSH2 0x934 JUMP JUMPDEST SWAP2 POP POP SWAP3 SWAP6 POP SWAP3 SWAP6 POP SWAP3 SWAP6 JUMP JUMPDEST PUSH1 0x0 DUP2 SWAP1 POP SWAP2 SWAP1 POP JUMP JUMPDEST PUSH2 0xA3A DUP2 PUSH2 0xA27 JUMP JUMPDEST DUP2 EQ PUSH2 0xA45 JUMPI PUSH1 0x0 DUP1 REVERT JUMPDEST POP JUMP JUMPDEST PUSH1 0x0 DUP2 CALLDATALOAD SWAP1 POP PUSH2 0xA57 DUP2 PUSH2 0xA31 JUMP JUMPDEST SWAP3 SWAP2 POP POP JUMP JUMPDEST PUSH1 0x0 DUP1 PUSH1 0x0 PUSH1 0x60 DUP5 DUP7 SUB SLT ISZERO PUSH2 0xA76 JUMPI PUSH2 0xA75 PUSH2 0x50E JUMP JUMPDEST JUMPDEST PUSH1 0x0 PUSH2 0xA84 DUP7 DUP3 DUP8 ADD PUSH2 0x680 JUMP JUMPDEST SWAP4 POP POP PUSH1 0x20 DUP5 ADD CALLDATALOAD PUSH8 0xFFFFFFFFFFFFFFFF DUP2 GT ISZERO PUSH2 0xAA5 JUMPI PUSH2 0xAA4 PUSH2 0x513 JUMP JUMPDEST JUMPDEST PUSH2 0xAB1 DUP7 DUP3 DUP8 ADD PUSH2 0x934 JUMP JUMPDEST SWAP3 POP POP PUSH1 0x40 PUSH2 0xAC2 DUP7 DUP3 DUP8 ADD PUSH2 0xA48 JUMP JUMPDEST SWAP2 POP POP SWAP3 POP SWAP3 POP SWAP3 JUMP JUMPDEST PUSH1 0x0 DUP1 PUSH1 0x0 PUSH1 0x60 DUP5 DUP7 SUB SLT ISZERO PUSH2 0xAE5 JUMPI PUSH2 0xAE4 PUSH2 0x50E JUMP JUMPDEST JUMPDEST PUSH1 0x0 PUSH2 0xAF3 DUP7 DUP3 DUP8 ADD PUSH2 0x680 JUMP JUMPDEST SWAP4 POP POP PUSH1 0x20 DUP5 ADD CALLDATALOAD PUSH8 0xFFFFFFFFFFFFFFFF DUP2 GT ISZERO PUSH2 0xB14 JUMPI PUSH2 0xB13 PUSH2 0x513 JUMP JUMPDEST JUMPDEST PUSH2 0xB20 DUP7 DUP3 DUP8 ADD PUSH2 0x7AD JUMP JUMPDEST SWAP3 POP POP PUSH1 0x40 DUP5 ADD CALLDATALOAD PUSH8 0xFFFFFFFFFFFFFFFF DUP2 GT ISZERO PUSH2 0xB41 JUMPI PUSH2 0xB40 PUSH2 0x513 JUMP JUMPDEST JUMPDEST PUSH2 0xB4D DUP7 DUP3 DUP8 ADD PUSH2 0x934 JUMP JUMPDEST SWAP2 POP POP SWAP3 POP SWAP3 POP SWAP3 JUMP JUMPDEST PUSH32 0x4E487B7100000000000000000000000000000000000000000000000000000000 PUSH1 0x0 MSTORE PUSH1 0x11 PUSH1 0x4 MSTORE PUSH1 0x24 PUSH1 0x0 REVERT JUMPDEST PUSH1 0x0 PUSH2 0xB91 DUP3 PUSH2 0x518 JUMP JUMPDEST SWAP2 POP PUSH2 0xB9C DUP4 PUSH2 0x518 JUMP JUMPDEST SWAP3 POP DUP2 PUSH32 0xFFFFFFFFFFFFFFFFFFFFFFFFFFFFFFFFFFFFFFFFFFFFFFFFFFFFFFFFFFFFFFFF DIV DUP4 GT DUP3 ISZERO ISZERO AND ISZERO PUSH2 0xBD5 JUMPI PUSH2 0xBD4 PUSH2 0xB57 JUMP JUMPDEST JUMPDEST DUP3 DUP3 MUL SWAP1 POP SWAP3 SWAP2 POP POP JUMP JUMPDEST PUSH1 0x0 PUSH2 0xBEB DUP3 PUSH2 0x518 JUMP JUMPDEST SWAP2 POP PUSH2 0xBF6 DUP4 PUSH2 0x518 JUMP JUMPDEST SWAP3 POP DUP3 PUSH32 0xFFFFFFFFFFFFFFFFFFFFFFFFFFFFFFFFFFFFFFFFFFFFFFFFFFFFFFFFFFFFFFFF SUB DUP3 GT ISZERO PUSH2 0xC2B JUMPI PUSH2 0xC2A PUSH2 0xB57 JUMP JUMPDEST JUMPDEST DUP3 DUP3 ADD SWAP1 POP SWAP3 SWAP2 POP POP JUMP JUMPDEST PUSH2 0xC3F DUP2 PUSH2 0x657 JUMP JUMPDEST DUP3 MSTORE POP POP JUMP JUMPDEST PUSH1 0x0 DUP2 MLOAD SWAP1 POP SWAP2 SWAP1 POP JUMP JUMPDEST PUSH1 0x0 DUP3 DUP3 MSTORE PUSH1 0x20 DUP3 ADD SWAP1 POP SWAP3 SWAP2 POP POP JUMP JUMPDEST PUSH1 0x0 DUP2 SWAP1 POP PUSH1 0x20 DUP3 ADD SWAP1 POP SWAP2 SWAP1 POP JUMP JUMPDEST PUSH1 0x0 DUP2 MLOAD SWAP1 POP SWAP2 SWAP1 POP JUMP JUMPDEST PUSH1 0x0 DUP3 DUP3 MSTORE PUSH1 0x20 DUP3 ADD SWAP1 POP SWAP3 SWAP2 POP POP JUMP JUMPDEST PUSH1 0x0 JUMPDEST DUP4 DUP2 LT ISZERO PUSH2 0xCAB JUMPI DUP1 DUP3 ADD MLOAD DUP2 DUP5 ADD MSTORE PUSH1 0x20 DUP2 ADD SWAP1 POP PUSH2 0xC90 JUMP JUMPDEST DUP4 DUP2 GT ISZERO PUSH2 0xCBA JUMPI PUSH1 0x0 DUP5 DUP5 ADD MSTORE JUMPDEST POP POP POP POP JUMP JUMPDEST PUSH1 0x0 PUSH2 0xCCB DUP3 PUSH2 0xC71 JUMP JUMPDEST PUSH2 0xCD5 DUP2 DUP6 PUSH2 0xC7C JUMP JUMPDEST SWAP4 POP PUSH2 0xCE5 DUP2 DUP6 PUSH1 0x20 DUP7 ADD PUSH2 0xC8D JUMP JUMPDEST PUSH2 0xCEE DUP2 PUSH2 0x69F JUMP JUMPDEST DUP5 ADD SWAP2 POP POP SWAP3 SWAP2 POP POP JUMP JUMPDEST PUSH1 0x0 PUSH2 0xD05 DUP4 DUP4 PUSH2 0xCC0 JUMP JUMPDEST SWAP1 POP SWAP3 SWAP2 POP POP JUMP JUMPDEST PUSH1 0x0 PUSH1 0x20 DUP3 ADD SWAP1 POP SWAP2 SWAP1 POP JUMP JUMPDEST PUSH1 0x0 PUSH2 0xD25 DUP3 PUSH2 0xC45 JUMP JUMPDEST PUSH2 0xD2F DUP2 DUP6 PUSH2 0xC50 JUMP JUMPDEST SWAP4 POP DUP4 PUSH1 0x20 DUP3 MUL DUP6 ADD PUSH2 0xD41 DUP6 PUSH2 0xC61 JUMP JUMPDEST DUP1 PUSH1 0x0 JUMPDEST DUP6 DUP2 LT ISZERO PUSH2 0xD7D JUMPI DUP5 DUP5 SUB DUP10 MSTORE DUP2 MLOAD PUSH2 0xD5E DUP6 DUP3 PUSH2 0xCF9 JUMP JUMPDEST SWAP5 POP PUSH2 0xD69 DUP4 PUSH2 0xD0D JUMP JUMPDEST SWAP3 POP PUSH1 0x20 DUP11 ADD SWAP10 POP POP PUSH1 0x1 DUP2 ADD SWAP1 POP PUSH2 0xD45 JUMP JUMPDEST POP DUP3 SWAP8 POP DUP8 SWAP6 POP POP POP POP POP POP SWAP3 SWAP2 POP POP JUMP JUMPDEST PUSH2 0xD98 DUP2 PUSH2 0xA27 JUMP JUMPDEST DUP3 MSTORE POP POP JUMP JUMPDEST PUSH1 0x0 PUSH1 0x60 DUP3 ADD SWAP1 POP PUSH2 0xDB3 PUSH1 0x0 DUP4 ADD DUP7 PUSH2 0xC36 JUMP JUMPDEST DUP2 DUP2 SUB PUSH1 0x20 DUP4 ADD MSTORE PUSH2 0xDC5 DUP2 DUP6 PUSH2 0xD1A JUMP JUMPDEST SWAP1 POP PUSH2 0xDD4 PUSH1 0x40 DUP4 ADD DUP5 PUSH2 0xD8F JUMP JUMPDEST SWAP5 SWAP4 POP POP POP POP JUMP INVALID LOG2 PUSH5 0x6970667358 0x22 SLT KECCAK256 0xAA 0xD5 0x1F CALLER LOG1 MULMOD DUP10 0xCC 0xCF SWAP10 GT CALLDATACOPY CALLDATACOPY REVERT 0xC8 SWAP11 PUSH5 0xDFB5FA498C SLOAD SWAP2 PC SWAP15 EXP 0xD9 JUMPDEST 0xC2 PUSH3 0xD46473 PUSH16 0x6C634300080D00330000000000000000 "
				},
				"gasEstimates": {
					"creation": {
						"codeDepositCost": "720400",
						"executionCost": "753",
						"totalCost": "721153"
					},
					"external": {
						"execute(address,string,bytes[])": "infinite",
						"hashProposal(address,bytes[],bytes32)": "infinite",
						"proposal(uint256,uint256,uint256,address,string,bytes[])": "infinite",
						"proposalDeadline(uint256)": "infinite",
						"proposalDonateMinimum(uint256)": "infinite",
						"proposalSnapshot(uint256)": "infinite",
						"state(uint256)": "infinite"
					}
				},
				"methodIdentifiers": {
					"execute(address,string,bytes[])": "a627e447",
					"hashProposal(address,bytes[],bytes32)": "8c4461b3",
					"proposal(uint256,uint256,uint256,address,string,bytes[])": "8c0e09f5",
					"proposalDeadline(uint256)": "c01f9e37",
					"proposalDonateMinimum(uint256)": "f68deaf9",
					"proposalSnapshot(uint256)": "2d63f693",
					"state(uint256)": "3e4f49e6"
				}
			},
			"storageLayout": {
				"storage": [
					{
						"astId": 40,
						"contract": ".workspaces/default_workspace/unMiracle/UMRproposal.sol:UMRproposal",
						"label": "_proposals",
						"offset": 0,
						"slot": "0",
						"type": "t_mapping(t_uint256,t_struct(ProposalCore)35_storage)"
					}
				],
				"types": {
					"t_bool": {
						"encoding": "inplace",
						"label": "bool",
						"numberOfBytes": "1"
					},
					"t_mapping(t_uint256,t_struct(ProposalCore)35_storage)": {
						"encoding": "mapping",
						"key": "t_uint256",
						"label": "mapping(uint256 => struct UMRproposal.ProposalCore)",
						"numberOfBytes": "32",
						"value": "t_struct(ProposalCore)35_storage"
					},
					"t_struct(ProposalCore)35_storage": {
						"encoding": "inplace",
						"label": "struct UMRproposal.ProposalCore",
						"members": [
							{
								"astId": 24,
								"contract": ".workspaces/default_workspace/unMiracle/UMRproposal.sol:UMRproposal",
								"label": "donationStart",
								"offset": 0,
								"slot": "0",
								"type": "t_struct(SetInfo)294_storage"
							},
							{
								"astId": 27,
								"contract": ".workspaces/default_workspace/unMiracle/UMRproposal.sol:UMRproposal",
								"label": "donationEnd",
								"offset": 0,
								"slot": "2",
								"type": "t_struct(SetInfo)294_storage"
							},
							{
								"astId": 30,
								"contract": ".workspaces/default_workspace/unMiracle/UMRproposal.sol:UMRproposal",
								"label": "donateMinimum",
								"offset": 0,
								"slot": "4",
								"type": "t_struct(SetInfo)294_storage"
							},
							{
								"astId": 32,
								"contract": ".workspaces/default_workspace/unMiracle/UMRproposal.sol:UMRproposal",
								"label": "executed",
								"offset": 0,
								"slot": "6",
								"type": "t_bool"
							},
							{
								"astId": 34,
								"contract": ".workspaces/default_workspace/unMiracle/UMRproposal.sol:UMRproposal",
								"label": "canceled",
								"offset": 1,
								"slot": "6",
								"type": "t_bool"
							}
						],
						"numberOfBytes": "224"
					},
					"t_struct(SetInfo)294_storage": {
						"encoding": "inplace",
						"label": "struct Setting.SetInfo",
						"members": [
							{
								"astId": 291,
								"contract": ".workspaces/default_workspace/unMiracle/UMRproposal.sol:UMRproposal",
								"label": "deadline",
								"offset": 0,
								"slot": "0",
								"type": "t_uint256"
							},
							{
								"astId": 293,
								"contract": ".workspaces/default_workspace/unMiracle/UMRproposal.sol:UMRproposal",
								"label": "amount",
								"offset": 0,
								"slot": "1",
								"type": "t_uint256"
							}
						],
						"numberOfBytes": "64"
					},
					"t_uint256": {
						"encoding": "inplace",
						"label": "uint256",
						"numberOfBytes": "32"
					}
				}
			},
			"userdoc": {
				"kind": "user",
				"methods": {},
				"version": 1
			}
		}
	}
}