{
	".workspaces/default_workspace/unMiracle/test.sol": {
		"test": {
			"abi": [
				{
					"inputs": [
						{
							"internalType": "bytes",
							"name": "data",
							"type": "bytes"
						}
					],
					"name": "abiDecode",
					"outputs": [
						{
							"internalType": "uint256",
							"name": "_str1",
							"type": "uint256"
						},
						{
							"internalType": "uint256",
							"name": "_number",
							"type": "uint256"
						},
						{
							"internalType": "uint256",
							"name": "_str2",
							"type": "uint256"
						}
					],
					"stateMutability": "nonpayable",
					"type": "function"
				},
				{
					"inputs": [],
					"name": "abiEncode",
					"outputs": [
						{
							"internalType": "bytes",
							"name": "",
							"type": "bytes"
						}
					],
					"stateMutability": "nonpayable",
					"type": "function"
				},
				{
					"inputs": [],
					"name": "deadline",
					"outputs": [
						{
							"internalType": "uint64",
							"name": "",
							"type": "uint64"
						}
					],
					"stateMutability": "view",
					"type": "function"
				},
				{
					"inputs": [],
					"name": "keccak256test",
					"outputs": [
						{
							"internalType": "bytes",
							"name": "",
							"type": "bytes"
						}
					],
					"stateMutability": "nonpayable",
					"type": "function"
				},
				{
					"inputs": [],
					"name": "name",
					"outputs": [
						{
							"internalType": "string",
							"name": "",
							"type": "string"
						}
					],
					"stateMutability": "nonpayable",
					"type": "function"
				},
				{
					"inputs": [],
					"name": "snapshot",
					"outputs": [
						{
							"internalType": "uint64",
							"name": "",
							"type": "uint64"
						}
					],
					"stateMutability": "view",
					"type": "function"
				},
				{
					"inputs": [],
					"name": "time",
					"outputs": [
						{
							"internalType": "uint256",
							"name": "",
							"type": "uint256"
						}
					],
					"stateMutability": "nonpayable",
					"type": "function"
				},
				{
					"inputs": [],
					"name": "votingDelay",
					"outputs": [
						{
							"internalType": "uint256",
							"name": "",
							"type": "uint256"
						}
					],
					"stateMutability": "pure",
					"type": "function"
				},
				{
					"inputs": [],
					"name": "votingPeriod",
					"outputs": [
						{
							"internalType": "uint256",
							"name": "",
							"type": "uint256"
						}
					],
					"stateMutability": "pure",
					"type": "function"
				}
			],
			"devdoc": {
				"kind": "dev",
				"methods": {},
				"version": 1
			},
			"evm": {
				"assembly": "    /* \".workspaces/default_workspace/unMiracle/test.sol\":167:1798  contract test {... */\n  mstore(0x40, 0x80)\n  callvalue\n  dup1\n  iszero\n  tag_1\n  jumpi\n  0x00\n  dup1\n  revert\ntag_1:\n  pop\n  dataSize(sub_0)\n  dup1\n  dataOffset(sub_0)\n  0x00\n  codecopy\n  0x00\n  return\nstop\n\nsub_0: assembly {\n        /* \".workspaces/default_workspace/unMiracle/test.sol\":167:1798  contract test {... */\n      mstore(0x40, 0x80)\n      callvalue\n      dup1\n      iszero\n      tag_1\n      jumpi\n      0x00\n      dup1\n      revert\n    tag_1:\n      pop\n      jumpi(tag_2, lt(calldatasize, 0x04))\n      shr(0xe0, calldataload(0x00))\n      dup1\n      0x3932abb1\n      gt\n      tag_12\n      jumpi\n      dup1\n      0x3932abb1\n      eq\n      tag_7\n      jumpi\n      dup1\n      0x416bdc52\n      eq\n      tag_8\n      jumpi\n      dup1\n      0x6097e7a3\n      eq\n      tag_9\n      jumpi\n      dup1\n      0x8c492a76\n      eq\n      tag_10\n      jumpi\n      dup1\n      0x9711715a\n      eq\n      tag_11\n      jumpi\n      jump(tag_2)\n    tag_12:\n      dup1\n      0x02a251a3\n      eq\n      tag_3\n      jumpi\n      dup1\n      0x06fdde03\n      eq\n      tag_4\n      jumpi\n      dup1\n      0x16ada547\n      eq\n      tag_5\n      jumpi\n      dup1\n      0x29dcb0cf\n      eq\n      tag_6\n      jumpi\n    tag_2:\n      0x00\n      dup1\n      revert\n        /* \".workspaces/default_workspace/unMiracle/test.sol\":1326:1417  function votingPeriod() public pure returns(uint256) {... */\n    tag_3:\n      tag_13\n      tag_14\n      jump\t// in\n    tag_13:\n      mload(0x40)\n      tag_15\n      swap2\n      swap1\n      tag_16\n      jump\t// in\n    tag_15:\n      mload(0x40)\n      dup1\n      swap2\n      sub\n      swap1\n      return\n        /* \".workspaces/default_workspace/unMiracle/test.sol\":423:503  function name() public returns(string memory) {... */\n    tag_4:\n      tag_17\n      tag_18\n      jump\t// in\n    tag_17:\n      mload(0x40)\n      tag_19\n      swap2\n      swap1\n      tag_20\n      jump\t// in\n    tag_19:\n      mload(0x40)\n      dup1\n      swap2\n      sub\n      swap1\n      return\n        /* \".workspaces/default_workspace/unMiracle/test.sol\":301:417  function time() public returns(uint256){... */\n    tag_5:\n      tag_21\n      tag_22\n      jump\t// in\n    tag_21:\n      mload(0x40)\n      tag_23\n      swap2\n      swap1\n      tag_16\n      jump\t// in\n    tag_23:\n      mload(0x40)\n      dup1\n      swap2\n      sub\n      swap1\n      return\n        /* \".workspaces/default_workspace/unMiracle/test.sol\":1582:1796  function deadline() public view returns(uint64) {... */\n    tag_6:\n      tag_24\n      tag_25\n      jump\t// in\n    tag_24:\n      mload(0x40)\n      tag_26\n      swap2\n      swap1\n      tag_27\n      jump\t// in\n    tag_26:\n      mload(0x40)\n      dup1\n      swap2\n      sub\n      swap1\n      return\n        /* \".workspaces/default_workspace/unMiracle/test.sol\":1243:1320  function votingDelay() public pure returns(uint256) {... */\n    tag_7:\n      tag_28\n      tag_29\n      jump\t// in\n    tag_28:\n      mload(0x40)\n      tag_30\n      swap2\n      swap1\n      tag_16\n      jump\t// in\n    tag_30:\n      mload(0x40)\n      dup1\n      swap2\n      sub\n      swap1\n      return\n        /* \".workspaces/default_workspace/unMiracle/test.sol\":1054:1236  function abiDecode(bytes memory data) public returns(uint _str1, uint _number, uint _str2) {... */\n    tag_8:\n      tag_31\n      0x04\n      dup1\n      calldatasize\n      sub\n      dup2\n      add\n      swap1\n      tag_32\n      swap2\n      swap1\n      tag_33\n      jump\t// in\n    tag_32:\n      tag_34\n      jump\t// in\n    tag_31:\n      mload(0x40)\n      tag_35\n      swap4\n      swap3\n      swap2\n      swap1\n      tag_36\n      jump\t// in\n    tag_35:\n      mload(0x40)\n      dup1\n      swap2\n      sub\n      swap1\n      return\n        /* \".workspaces/default_workspace/unMiracle/test.sol\":951:1049  function abiEncode() public returns(bytes memory) {... */\n    tag_9:\n      tag_37\n      tag_38\n      jump\t// in\n    tag_37:\n      mload(0x40)\n      tag_39\n      swap2\n      swap1\n      tag_40\n      jump\t// in\n    tag_39:\n      mload(0x40)\n      dup1\n      swap2\n      sub\n      swap1\n      return\n        /* \".workspaces/default_workspace/unMiracle/test.sol\":681:945  function keccak256test() public returns(bytes memory) {... */\n    tag_10:\n      tag_41\n      tag_42\n      jump\t// in\n    tag_41:\n      mload(0x40)\n      tag_43\n      swap2\n      swap1\n      tag_40\n      jump\t// in\n    tag_43:\n      mload(0x40)\n      dup1\n      swap2\n      sub\n      swap1\n      return\n        /* \".workspaces/default_workspace/unMiracle/test.sol\":1423:1576  function snapshot() public view returns(uint64) {... */\n    tag_11:\n      tag_44\n      tag_45\n      jump\t// in\n    tag_44:\n      mload(0x40)\n      tag_46\n      swap2\n      swap1\n      tag_27\n      jump\t// in\n    tag_46:\n      mload(0x40)\n      dup1\n      swap2\n      sub\n      swap1\n      return\n        /* \".workspaces/default_workspace/unMiracle/test.sol\":1326:1417  function votingPeriod() public pure returns(uint256) {... */\n    tag_14:\n        /* \".workspaces/default_workspace/unMiracle/test.sol\":1370:1377  uint256 */\n      0x00\n        /* \".workspaces/default_workspace/unMiracle/test.sol\":1396:1401  45818 */\n      0xb2fa\n        /* \".workspaces/default_workspace/unMiracle/test.sol\":1389:1401  return 45818 */\n      swap1\n      pop\n        /* \".workspaces/default_workspace/unMiracle/test.sol\":1326:1417  function votingPeriod() public pure returns(uint256) {... */\n      swap1\n      jump\t// out\n        /* \".workspaces/default_workspace/unMiracle/test.sol\":423:503  function name() public returns(string memory) {... */\n    tag_18:\n        /* \".workspaces/default_workspace/unMiracle/test.sol\":454:467  string memory */\n      0x60\n        /* \".workspaces/default_workspace/unMiracle/test.sol\":479:496  return 'wonhyeok' */\n      mload(0x40)\n      dup1\n      0x40\n      add\n      0x40\n      mstore\n      dup1\n      0x08\n      dup2\n      mstore\n      0x20\n      add\n      0x776f6e6879656f6b000000000000000000000000000000000000000000000000\n      dup2\n      mstore\n      pop\n      swap1\n      pop\n        /* \".workspaces/default_workspace/unMiracle/test.sol\":423:503  function name() public returns(string memory) {... */\n      swap1\n      jump\t// out\n        /* \".workspaces/default_workspace/unMiracle/test.sol\":301:417  function time() public returns(uint256){... */\n    tag_22:\n        /* \".workspaces/default_workspace/unMiracle/test.sol\":332:339  uint256 */\n      0x00\n        /* \".workspaces/default_workspace/unMiracle/test.sol\":350:360  uint256 re */\n      dup1\n        /* \".workspaces/default_workspace/unMiracle/test.sol\":381:391  5*24*60*60 */\n      0x069780\n        /* \".workspaces/default_workspace/unMiracle/test.sol\":363:378  block.timestamp */\n      timestamp\n        /* \".workspaces/default_workspace/unMiracle/test.sol\":363:391  block.timestamp + 5*24*60*60 */\n      tag_50\n      swap2\n      swap1\n      tag_51\n      jump\t// in\n    tag_50:\n        /* \".workspaces/default_workspace/unMiracle/test.sol\":350:391  uint256 re = block.timestamp + 5*24*60*60 */\n      swap1\n      pop\n        /* \".workspaces/default_workspace/unMiracle/test.sol\":408:410  re */\n      dup1\n        /* \".workspaces/default_workspace/unMiracle/test.sol\":401:410  return re */\n      swap2\n      pop\n      pop\n        /* \".workspaces/default_workspace/unMiracle/test.sol\":301:417  function time() public returns(uint256){... */\n      swap1\n      jump\t// out\n        /* \".workspaces/default_workspace/unMiracle/test.sol\":1582:1796  function deadline() public view returns(uint64) {... */\n    tag_25:\n        /* \".workspaces/default_workspace/unMiracle/test.sol\":1622:1628  uint64 */\n      0x00\n        /* \".workspaces/default_workspace/unMiracle/test.sol\":1640:1655  uint64 snapshot */\n      dup1\n        /* \".workspaces/default_workspace/unMiracle/test.sol\":1688:1701  votingDelay() */\n      tag_53\n        /* \".workspaces/default_workspace/unMiracle/test.sol\":1688:1699  votingDelay */\n      tag_29\n        /* \".workspaces/default_workspace/unMiracle/test.sol\":1688:1701  votingDelay() */\n      jump\t// in\n    tag_53:\n        /* \".workspaces/default_workspace/unMiracle/test.sol\":1665:1677  block.number */\n      number\n        /* \".workspaces/default_workspace/unMiracle/test.sol\":1658:1702  uint64(block.number) + uint64(votingDelay()) */\n      tag_54\n      swap2\n      swap1\n      tag_55\n      jump\t// in\n    tag_54:\n        /* \".workspaces/default_workspace/unMiracle/test.sol\":1640:1702  uint64 snapshot = uint64(block.number) + uint64(votingDelay()) */\n      swap1\n      pop\n        /* \".workspaces/default_workspace/unMiracle/test.sol\":1712:1727  uint64 deadline */\n      0x00\n        /* \".workspaces/default_workspace/unMiracle/test.sol\":1748:1762  votingPeriod() */\n      tag_56\n        /* \".workspaces/default_workspace/unMiracle/test.sol\":1748:1760  votingPeriod */\n      tag_14\n        /* \".workspaces/default_workspace/unMiracle/test.sol\":1748:1762  votingPeriod() */\n      jump\t// in\n    tag_56:\n        /* \".workspaces/default_workspace/unMiracle/test.sol\":1730:1738  snapshot */\n      dup3\n        /* \".workspaces/default_workspace/unMiracle/test.sol\":1730:1763  snapshot + uint64(votingPeriod()) */\n      tag_57\n      swap2\n      swap1\n      tag_55\n      jump\t// in\n    tag_57:\n        /* \".workspaces/default_workspace/unMiracle/test.sol\":1712:1763  uint64 deadline = snapshot + uint64(votingPeriod()) */\n      swap1\n      pop\n        /* \".workspaces/default_workspace/unMiracle/test.sol\":1781:1789  deadline */\n      dup1\n        /* \".workspaces/default_workspace/unMiracle/test.sol\":1774:1789  return deadline */\n      swap3\n      pop\n      pop\n      pop\n        /* \".workspaces/default_workspace/unMiracle/test.sol\":1582:1796  function deadline() public view returns(uint64) {... */\n      swap1\n      jump\t// out\n        /* \".workspaces/default_workspace/unMiracle/test.sol\":1243:1320  function votingDelay() public pure returns(uint256) {... */\n    tag_29:\n        /* \".workspaces/default_workspace/unMiracle/test.sol\":1286:1293  uint256 */\n      0x00\n        /* \".workspaces/default_workspace/unMiracle/test.sol\":1312:1313  1 */\n      0x01\n        /* \".workspaces/default_workspace/unMiracle/test.sol\":1305:1313  return 1 */\n      swap1\n      pop\n        /* \".workspaces/default_workspace/unMiracle/test.sol\":1243:1320  function votingDelay() public pure returns(uint256) {... */\n      swap1\n      jump\t// out\n        /* \".workspaces/default_workspace/unMiracle/test.sol\":1054:1236  function abiDecode(bytes memory data) public returns(uint _str1, uint _number, uint _str2) {... */\n    tag_34:\n        /* \".workspaces/default_workspace/unMiracle/test.sol\":1107:1117  uint _str1 */\n      0x00\n        /* \".workspaces/default_workspace/unMiracle/test.sol\":1119:1131  uint _number */\n      dup1\n        /* \".workspaces/default_workspace/unMiracle/test.sol\":1133:1143  uint _str2 */\n      0x00\n        /* \".workspaces/default_workspace/unMiracle/test.sol\":1192:1196  data */\n      dup4\n        /* \".workspaces/default_workspace/unMiracle/test.sol\":1181:1217  abi.decode(data, (uint, uint, uint)) */\n      dup1\n      0x20\n      add\n      swap1\n      mload\n      dup2\n      add\n      swap1\n      tag_60\n      swap2\n      swap1\n      tag_61\n      jump\t// in\n    tag_60:\n        /* \".workspaces/default_workspace/unMiracle/test.sol\":1155:1217  (_str1, _number, _str2) = abi.decode(data, (uint, uint, uint)) */\n      dup1\n      swap4\n      pop\n      dup2\n      swap5\n      pop\n      dup3\n      swap6\n      pop\n      pop\n      pop\n      pop\n        /* \".workspaces/default_workspace/unMiracle/test.sol\":1054:1236  function abiDecode(bytes memory data) public returns(uint _str1, uint _number, uint _str2) {... */\n      swap2\n      swap4\n      swap1\n      swap3\n      pop\n      jump\t// out\n        /* \".workspaces/default_workspace/unMiracle/test.sol\":951:1049  function abiEncode() public returns(bytes memory) {... */\n    tag_38:\n        /* \".workspaces/default_workspace/unMiracle/test.sol\":987:999  bytes memory */\n      0x60\n        /* \".workspaces/default_workspace/unMiracle/test.sol\":1029:1030  1 */\n      0x01\n        /* \".workspaces/default_workspace/unMiracle/test.sol\":1031:1036  45804 */\n      0xb2ec\n        /* \".workspaces/default_workspace/unMiracle/test.sol\":1037:1041  5000 */\n      0x1388\n        /* \".workspaces/default_workspace/unMiracle/test.sol\":1018:1042  abi.encode(1,45804,5000) */\n      add(0x20, mload(0x40))\n      tag_63\n      swap4\n      swap3\n      swap2\n      swap1\n      tag_64\n      jump\t// in\n    tag_63:\n      mload(0x40)\n      0x20\n      dup2\n      dup4\n      sub\n      sub\n      dup2\n      mstore\n      swap1\n      0x40\n      mstore\n        /* \".workspaces/default_workspace/unMiracle/test.sol\":1011:1042  return abi.encode(1,45804,5000) */\n      swap1\n      pop\n        /* \".workspaces/default_workspace/unMiracle/test.sol\":951:1049  function abiEncode() public returns(bytes memory) {... */\n      swap1\n      jump\t// out\n        /* \".workspaces/default_workspace/unMiracle/test.sol\":681:945  function keccak256test() public returns(bytes memory) {... */\n    tag_42:\n        /* \".workspaces/default_workspace/unMiracle/test.sol\":721:733  bytes memory */\n      0x60\n        /* \".workspaces/default_workspace/unMiracle/test.sol\":925:926  1 */\n      0x01\n        /* \".workspaces/default_workspace/unMiracle/test.sol\":927:932  45804 */\n      0xb2ec\n        /* \".workspaces/default_workspace/unMiracle/test.sol\":933:937  5000 */\n      0x1388\n        /* \".workspaces/default_workspace/unMiracle/test.sol\":914:938  abi.encode(1,45804,5000) */\n      add(0x20, mload(0x40))\n      tag_66\n      swap4\n      swap3\n      swap2\n      swap1\n      tag_64\n      jump\t// in\n    tag_66:\n      mload(0x40)\n      0x20\n      dup2\n      dup4\n      sub\n      sub\n      dup2\n      mstore\n      swap1\n      0x40\n      mstore\n        /* \".workspaces/default_workspace/unMiracle/test.sol\":906:938  return  abi.encode(1,45804,5000) */\n      swap1\n      pop\n        /* \".workspaces/default_workspace/unMiracle/test.sol\":681:945  function keccak256test() public returns(bytes memory) {... */\n      swap1\n      jump\t// out\n        /* \".workspaces/default_workspace/unMiracle/test.sol\":1423:1576  function snapshot() public view returns(uint64) {... */\n    tag_45:\n        /* \".workspaces/default_workspace/unMiracle/test.sol\":1463:1469  uint64 */\n      0x00\n        /* \".workspaces/default_workspace/unMiracle/test.sol\":1481:1496  uint64 snapshot */\n      dup1\n        /* \".workspaces/default_workspace/unMiracle/test.sol\":1529:1542  votingDelay() */\n      tag_68\n        /* \".workspaces/default_workspace/unMiracle/test.sol\":1529:1540  votingDelay */\n      tag_29\n        /* \".workspaces/default_workspace/unMiracle/test.sol\":1529:1542  votingDelay() */\n      jump\t// in\n    tag_68:\n        /* \".workspaces/default_workspace/unMiracle/test.sol\":1506:1518  block.number */\n      number\n        /* \".workspaces/default_workspace/unMiracle/test.sol\":1499:1543  uint64(block.number) + uint64(votingDelay()) */\n      tag_69\n      swap2\n      swap1\n      tag_55\n      jump\t// in\n    tag_69:\n        /* \".workspaces/default_workspace/unMiracle/test.sol\":1481:1543  uint64 snapshot = uint64(block.number) + uint64(votingDelay()) */\n      swap1\n      pop\n        /* \".workspaces/default_workspace/unMiracle/test.sol\":1561:1569  snapshot */\n      dup1\n        /* \".workspaces/default_workspace/unMiracle/test.sol\":1554:1569  return snapshot */\n      swap2\n      pop\n      pop\n        /* \".workspaces/default_workspace/unMiracle/test.sol\":1423:1576  function snapshot() public view returns(uint64) {... */\n      swap1\n      jump\t// out\n        /* \"#utility.yul\":7:84   */\n    tag_70:\n        /* \"#utility.yul\":44:51   */\n      0x00\n        /* \"#utility.yul\":73:78   */\n      dup2\n        /* \"#utility.yul\":62:78   */\n      swap1\n      pop\n        /* \"#utility.yul\":7:84   */\n      swap2\n      swap1\n      pop\n      jump\t// out\n        /* \"#utility.yul\":90:208   */\n    tag_71:\n        /* \"#utility.yul\":177:201   */\n      tag_112\n        /* \"#utility.yul\":195:200   */\n      dup2\n        /* \"#utility.yul\":177:201   */\n      tag_70\n      jump\t// in\n    tag_112:\n        /* \"#utility.yul\":172:175   */\n      dup3\n        /* \"#utility.yul\":165:202   */\n      mstore\n        /* \"#utility.yul\":90:208   */\n      pop\n      pop\n      jump\t// out\n        /* \"#utility.yul\":214:436   */\n    tag_16:\n        /* \"#utility.yul\":307:311   */\n      0x00\n        /* \"#utility.yul\":345:347   */\n      0x20\n        /* \"#utility.yul\":334:343   */\n      dup3\n        /* \"#utility.yul\":330:348   */\n      add\n        /* \"#utility.yul\":322:348   */\n      swap1\n      pop\n        /* \"#utility.yul\":358:429   */\n      tag_114\n        /* \"#utility.yul\":426:427   */\n      0x00\n        /* \"#utility.yul\":415:424   */\n      dup4\n        /* \"#utility.yul\":411:428   */\n      add\n        /* \"#utility.yul\":402:408   */\n      dup5\n        /* \"#utility.yul\":358:429   */\n      tag_71\n      jump\t// in\n    tag_114:\n        /* \"#utility.yul\":214:436   */\n      swap3\n      swap2\n      pop\n      pop\n      jump\t// out\n        /* \"#utility.yul\":442:541   */\n    tag_72:\n        /* \"#utility.yul\":494:500   */\n      0x00\n        /* \"#utility.yul\":528:533   */\n      dup2\n        /* \"#utility.yul\":522:534   */\n      mload\n        /* \"#utility.yul\":512:534   */\n      swap1\n      pop\n        /* \"#utility.yul\":442:541   */\n      swap2\n      swap1\n      pop\n      jump\t// out\n        /* \"#utility.yul\":547:716   */\n    tag_73:\n        /* \"#utility.yul\":631:642   */\n      0x00\n        /* \"#utility.yul\":665:671   */\n      dup3\n        /* \"#utility.yul\":660:663   */\n      dup3\n        /* \"#utility.yul\":653:672   */\n      mstore\n        /* \"#utility.yul\":705:709   */\n      0x20\n        /* \"#utility.yul\":700:703   */\n      dup3\n        /* \"#utility.yul\":696:710   */\n      add\n        /* \"#utility.yul\":681:710   */\n      swap1\n      pop\n        /* \"#utility.yul\":547:716   */\n      swap3\n      swap2\n      pop\n      pop\n      jump\t// out\n        /* \"#utility.yul\":722:1029   */\n    tag_74:\n        /* \"#utility.yul\":790:791   */\n      0x00\n        /* \"#utility.yul\":800:913   */\n    tag_118:\n        /* \"#utility.yul\":814:820   */\n      dup4\n        /* \"#utility.yul\":811:812   */\n      dup2\n        /* \"#utility.yul\":808:821   */\n      lt\n        /* \"#utility.yul\":800:913   */\n      iszero\n      tag_120\n      jumpi\n        /* \"#utility.yul\":899:900   */\n      dup1\n        /* \"#utility.yul\":894:897   */\n      dup3\n        /* \"#utility.yul\":890:901   */\n      add\n        /* \"#utility.yul\":884:902   */\n      mload\n        /* \"#utility.yul\":880:881   */\n      dup2\n        /* \"#utility.yul\":875:878   */\n      dup5\n        /* \"#utility.yul\":871:882   */\n      add\n        /* \"#utility.yul\":864:903   */\n      mstore\n        /* \"#utility.yul\":836:838   */\n      0x20\n        /* \"#utility.yul\":833:834   */\n      dup2\n        /* \"#utility.yul\":829:839   */\n      add\n        /* \"#utility.yul\":824:839   */\n      swap1\n      pop\n        /* \"#utility.yul\":800:913   */\n      jump(tag_118)\n    tag_120:\n        /* \"#utility.yul\":931:937   */\n      dup4\n        /* \"#utility.yul\":928:929   */\n      dup2\n        /* \"#utility.yul\":925:938   */\n      gt\n        /* \"#utility.yul\":922:1023   */\n      iszero\n      tag_121\n      jumpi\n        /* \"#utility.yul\":1011:1012   */\n      0x00\n        /* \"#utility.yul\":1002:1008   */\n      dup5\n        /* \"#utility.yul\":997:1000   */\n      dup5\n        /* \"#utility.yul\":993:1009   */\n      add\n        /* \"#utility.yul\":986:1013   */\n      mstore\n        /* \"#utility.yul\":922:1023   */\n    tag_121:\n        /* \"#utility.yul\":771:1029   */\n      pop\n        /* \"#utility.yul\":722:1029   */\n      pop\n      pop\n      pop\n      jump\t// out\n        /* \"#utility.yul\":1035:1137   */\n    tag_75:\n        /* \"#utility.yul\":1076:1082   */\n      0x00\n        /* \"#utility.yul\":1127:1129   */\n      0x1f\n        /* \"#utility.yul\":1123:1130   */\n      not\n        /* \"#utility.yul\":1118:1120   */\n      0x1f\n        /* \"#utility.yul\":1111:1116   */\n      dup4\n        /* \"#utility.yul\":1107:1121   */\n      add\n        /* \"#utility.yul\":1103:1131   */\n      and\n        /* \"#utility.yul\":1093:1131   */\n      swap1\n      pop\n        /* \"#utility.yul\":1035:1137   */\n      swap2\n      swap1\n      pop\n      jump\t// out\n        /* \"#utility.yul\":1143:1507   */\n    tag_76:\n        /* \"#utility.yul\":1231:1234   */\n      0x00\n        /* \"#utility.yul\":1259:1298   */\n      tag_124\n        /* \"#utility.yul\":1292:1297   */\n      dup3\n        /* \"#utility.yul\":1259:1298   */\n      tag_72\n      jump\t// in\n    tag_124:\n        /* \"#utility.yul\":1314:1385   */\n      tag_125\n        /* \"#utility.yul\":1378:1384   */\n      dup2\n        /* \"#utility.yul\":1373:1376   */\n      dup6\n        /* \"#utility.yul\":1314:1385   */\n      tag_73\n      jump\t// in\n    tag_125:\n        /* \"#utility.yul\":1307:1385   */\n      swap4\n      pop\n        /* \"#utility.yul\":1394:1446   */\n      tag_126\n        /* \"#utility.yul\":1439:1445   */\n      dup2\n        /* \"#utility.yul\":1434:1437   */\n      dup6\n        /* \"#utility.yul\":1427:1431   */\n      0x20\n        /* \"#utility.yul\":1420:1425   */\n      dup7\n        /* \"#utility.yul\":1416:1432   */\n      add\n        /* \"#utility.yul\":1394:1446   */\n      tag_74\n      jump\t// in\n    tag_126:\n        /* \"#utility.yul\":1471:1500   */\n      tag_127\n        /* \"#utility.yul\":1493:1499   */\n      dup2\n        /* \"#utility.yul\":1471:1500   */\n      tag_75\n      jump\t// in\n    tag_127:\n        /* \"#utility.yul\":1466:1469   */\n      dup5\n        /* \"#utility.yul\":1462:1501   */\n      add\n        /* \"#utility.yul\":1455:1501   */\n      swap2\n      pop\n        /* \"#utility.yul\":1235:1507   */\n      pop\n        /* \"#utility.yul\":1143:1507   */\n      swap3\n      swap2\n      pop\n      pop\n      jump\t// out\n        /* \"#utility.yul\":1513:1826   */\n    tag_20:\n        /* \"#utility.yul\":1626:1630   */\n      0x00\n        /* \"#utility.yul\":1664:1666   */\n      0x20\n        /* \"#utility.yul\":1653:1662   */\n      dup3\n        /* \"#utility.yul\":1649:1667   */\n      add\n        /* \"#utility.yul\":1641:1667   */\n      swap1\n      pop\n        /* \"#utility.yul\":1713:1722   */\n      dup2\n        /* \"#utility.yul\":1707:1711   */\n      dup2\n        /* \"#utility.yul\":1703:1723   */\n      sub\n        /* \"#utility.yul\":1699:1700   */\n      0x00\n        /* \"#utility.yul\":1688:1697   */\n      dup4\n        /* \"#utility.yul\":1684:1701   */\n      add\n        /* \"#utility.yul\":1677:1724   */\n      mstore\n        /* \"#utility.yul\":1741:1819   */\n      tag_129\n        /* \"#utility.yul\":1814:1818   */\n      dup2\n        /* \"#utility.yul\":1805:1811   */\n      dup5\n        /* \"#utility.yul\":1741:1819   */\n      tag_76\n      jump\t// in\n    tag_129:\n        /* \"#utility.yul\":1733:1819   */\n      swap1\n      pop\n        /* \"#utility.yul\":1513:1826   */\n      swap3\n      swap2\n      pop\n      pop\n      jump\t// out\n        /* \"#utility.yul\":1832:1933   */\n    tag_77:\n        /* \"#utility.yul\":1868:1875   */\n      0x00\n        /* \"#utility.yul\":1908:1926   */\n      0xffffffffffffffff\n        /* \"#utility.yul\":1901:1906   */\n      dup3\n        /* \"#utility.yul\":1897:1927   */\n      and\n        /* \"#utility.yul\":1886:1927   */\n      swap1\n      pop\n        /* \"#utility.yul\":1832:1933   */\n      swap2\n      swap1\n      pop\n      jump\t// out\n        /* \"#utility.yul\":1939:2054   */\n    tag_78:\n        /* \"#utility.yul\":2024:2047   */\n      tag_132\n        /* \"#utility.yul\":2041:2046   */\n      dup2\n        /* \"#utility.yul\":2024:2047   */\n      tag_77\n      jump\t// in\n    tag_132:\n        /* \"#utility.yul\":2019:2022   */\n      dup3\n        /* \"#utility.yul\":2012:2048   */\n      mstore\n        /* \"#utility.yul\":1939:2054   */\n      pop\n      pop\n      jump\t// out\n        /* \"#utility.yul\":2060:2278   */\n    tag_27:\n        /* \"#utility.yul\":2151:2155   */\n      0x00\n        /* \"#utility.yul\":2189:2191   */\n      0x20\n        /* \"#utility.yul\":2178:2187   */\n      dup3\n        /* \"#utility.yul\":2174:2192   */\n      add\n        /* \"#utility.yul\":2166:2192   */\n      swap1\n      pop\n        /* \"#utility.yul\":2202:2271   */\n      tag_134\n        /* \"#utility.yul\":2268:2269   */\n      0x00\n        /* \"#utility.yul\":2257:2266   */\n      dup4\n        /* \"#utility.yul\":2253:2270   */\n      add\n        /* \"#utility.yul\":2244:2250   */\n      dup5\n        /* \"#utility.yul\":2202:2271   */\n      tag_78\n      jump\t// in\n    tag_134:\n        /* \"#utility.yul\":2060:2278   */\n      swap3\n      swap2\n      pop\n      pop\n      jump\t// out\n        /* \"#utility.yul\":2284:2359   */\n    tag_79:\n        /* \"#utility.yul\":2317:2323   */\n      0x00\n        /* \"#utility.yul\":2350:2352   */\n      0x40\n        /* \"#utility.yul\":2344:2353   */\n      mload\n        /* \"#utility.yul\":2334:2353   */\n      swap1\n      pop\n        /* \"#utility.yul\":2284:2359   */\n      swap1\n      jump\t// out\n        /* \"#utility.yul\":2365:2482   */\n    tag_80:\n        /* \"#utility.yul\":2474:2475   */\n      0x00\n        /* \"#utility.yul\":2471:2472   */\n      dup1\n        /* \"#utility.yul\":2464:2476   */\n      revert\n        /* \"#utility.yul\":2488:2605   */\n    tag_81:\n        /* \"#utility.yul\":2597:2598   */\n      0x00\n        /* \"#utility.yul\":2594:2595   */\n      dup1\n        /* \"#utility.yul\":2587:2599   */\n      revert\n        /* \"#utility.yul\":2611:2728   */\n    tag_82:\n        /* \"#utility.yul\":2720:2721   */\n      0x00\n        /* \"#utility.yul\":2717:2718   */\n      dup1\n        /* \"#utility.yul\":2710:2722   */\n      revert\n        /* \"#utility.yul\":2734:2851   */\n    tag_83:\n        /* \"#utility.yul\":2843:2844   */\n      0x00\n        /* \"#utility.yul\":2840:2841   */\n      dup1\n        /* \"#utility.yul\":2833:2845   */\n      revert\n        /* \"#utility.yul\":2857:3037   */\n    tag_84:\n        /* \"#utility.yul\":2905:2982   */\n      0x4e487b7100000000000000000000000000000000000000000000000000000000\n        /* \"#utility.yul\":2902:2903   */\n      0x00\n        /* \"#utility.yul\":2895:2983   */\n      mstore\n        /* \"#utility.yul\":3002:3006   */\n      0x41\n        /* \"#utility.yul\":2999:3000   */\n      0x04\n        /* \"#utility.yul\":2992:3007   */\n      mstore\n        /* \"#utility.yul\":3026:3030   */\n      0x24\n        /* \"#utility.yul\":3023:3024   */\n      0x00\n        /* \"#utility.yul\":3016:3031   */\n      revert\n        /* \"#utility.yul\":3043:3324   */\n    tag_85:\n        /* \"#utility.yul\":3126:3153   */\n      tag_142\n        /* \"#utility.yul\":3148:3152   */\n      dup3\n        /* \"#utility.yul\":3126:3153   */\n      tag_75\n      jump\t// in\n    tag_142:\n        /* \"#utility.yul\":3118:3124   */\n      dup2\n        /* \"#utility.yul\":3114:3154   */\n      add\n        /* \"#utility.yul\":3256:3262   */\n      dup2\n        /* \"#utility.yul\":3244:3254   */\n      dup2\n        /* \"#utility.yul\":3241:3263   */\n      lt\n        /* \"#utility.yul\":3220:3238   */\n      0xffffffffffffffff\n        /* \"#utility.yul\":3208:3218   */\n      dup3\n        /* \"#utility.yul\":3205:3239   */\n      gt\n        /* \"#utility.yul\":3202:3264   */\n      or\n        /* \"#utility.yul\":3199:3287   */\n      iszero\n      tag_143\n      jumpi\n        /* \"#utility.yul\":3267:3285   */\n      tag_144\n      tag_84\n      jump\t// in\n    tag_144:\n        /* \"#utility.yul\":3199:3287   */\n    tag_143:\n        /* \"#utility.yul\":3307:3317   */\n      dup1\n        /* \"#utility.yul\":3303:3305   */\n      0x40\n        /* \"#utility.yul\":3296:3318   */\n      mstore\n        /* \"#utility.yul\":3086:3324   */\n      pop\n        /* \"#utility.yul\":3043:3324   */\n      pop\n      pop\n      jump\t// out\n        /* \"#utility.yul\":3330:3459   */\n    tag_86:\n        /* \"#utility.yul\":3364:3370   */\n      0x00\n        /* \"#utility.yul\":3391:3411   */\n      tag_146\n      tag_79\n      jump\t// in\n    tag_146:\n        /* \"#utility.yul\":3381:3411   */\n      swap1\n      pop\n        /* \"#utility.yul\":3420:3453   */\n      tag_147\n        /* \"#utility.yul\":3448:3452   */\n      dup3\n        /* \"#utility.yul\":3440:3446   */\n      dup3\n        /* \"#utility.yul\":3420:3453   */\n      tag_85\n      jump\t// in\n    tag_147:\n        /* \"#utility.yul\":3330:3459   */\n      swap2\n      swap1\n      pop\n      jump\t// out\n        /* \"#utility.yul\":3465:3772   */\n    tag_87:\n        /* \"#utility.yul\":3526:3530   */\n      0x00\n        /* \"#utility.yul\":3616:3634   */\n      0xffffffffffffffff\n        /* \"#utility.yul\":3608:3614   */\n      dup3\n        /* \"#utility.yul\":3605:3635   */\n      gt\n        /* \"#utility.yul\":3602:3658   */\n      iszero\n      tag_149\n      jumpi\n        /* \"#utility.yul\":3638:3656   */\n      tag_150\n      tag_84\n      jump\t// in\n    tag_150:\n        /* \"#utility.yul\":3602:3658   */\n    tag_149:\n        /* \"#utility.yul\":3676:3705   */\n      tag_151\n        /* \"#utility.yul\":3698:3704   */\n      dup3\n        /* \"#utility.yul\":3676:3705   */\n      tag_75\n      jump\t// in\n    tag_151:\n        /* \"#utility.yul\":3668:3705   */\n      swap1\n      pop\n        /* \"#utility.yul\":3760:3764   */\n      0x20\n        /* \"#utility.yul\":3754:3758   */\n      dup2\n        /* \"#utility.yul\":3750:3765   */\n      add\n        /* \"#utility.yul\":3742:3765   */\n      swap1\n      pop\n        /* \"#utility.yul\":3465:3772   */\n      swap2\n      swap1\n      pop\n      jump\t// out\n        /* \"#utility.yul\":3778:3932   */\n    tag_88:\n        /* \"#utility.yul\":3862:3868   */\n      dup3\n        /* \"#utility.yul\":3857:3860   */\n      dup2\n        /* \"#utility.yul\":3852:3855   */\n      dup4\n        /* \"#utility.yul\":3839:3869   */\n      calldatacopy\n        /* \"#utility.yul\":3924:3925   */\n      0x00\n        /* \"#utility.yul\":3915:3921   */\n      dup4\n        /* \"#utility.yul\":3910:3913   */\n      dup4\n        /* \"#utility.yul\":3906:3922   */\n      add\n        /* \"#utility.yul\":3899:3926   */\n      mstore\n        /* \"#utility.yul\":3778:3932   */\n      pop\n      pop\n      pop\n      jump\t// out\n        /* \"#utility.yul\":3938:4348   */\n    tag_89:\n        /* \"#utility.yul\":4015:4020   */\n      0x00\n        /* \"#utility.yul\":4040:4105   */\n      tag_154\n        /* \"#utility.yul\":4056:4104   */\n      tag_155\n        /* \"#utility.yul\":4097:4103   */\n      dup5\n        /* \"#utility.yul\":4056:4104   */\n      tag_87\n      jump\t// in\n    tag_155:\n        /* \"#utility.yul\":4040:4105   */\n      tag_86\n      jump\t// in\n    tag_154:\n        /* \"#utility.yul\":4031:4105   */\n      swap1\n      pop\n        /* \"#utility.yul\":4128:4134   */\n      dup3\n        /* \"#utility.yul\":4121:4126   */\n      dup2\n        /* \"#utility.yul\":4114:4135   */\n      mstore\n        /* \"#utility.yul\":4166:4170   */\n      0x20\n        /* \"#utility.yul\":4159:4164   */\n      dup2\n        /* \"#utility.yul\":4155:4171   */\n      add\n        /* \"#utility.yul\":4204:4207   */\n      dup5\n        /* \"#utility.yul\":4195:4201   */\n      dup5\n        /* \"#utility.yul\":4190:4193   */\n      dup5\n        /* \"#utility.yul\":4186:4202   */\n      add\n        /* \"#utility.yul\":4183:4208   */\n      gt\n        /* \"#utility.yul\":4180:4292   */\n      iszero\n      tag_156\n      jumpi\n        /* \"#utility.yul\":4211:4290   */\n      tag_157\n      tag_83\n      jump\t// in\n    tag_157:\n        /* \"#utility.yul\":4180:4292   */\n    tag_156:\n        /* \"#utility.yul\":4301:4342   */\n      tag_158\n        /* \"#utility.yul\":4335:4341   */\n      dup5\n        /* \"#utility.yul\":4330:4333   */\n      dup3\n        /* \"#utility.yul\":4325:4328   */\n      dup6\n        /* \"#utility.yul\":4301:4342   */\n      tag_88\n      jump\t// in\n    tag_158:\n        /* \"#utility.yul\":4021:4348   */\n      pop\n        /* \"#utility.yul\":3938:4348   */\n      swap4\n      swap3\n      pop\n      pop\n      pop\n      jump\t// out\n        /* \"#utility.yul\":4367:4705   */\n    tag_90:\n        /* \"#utility.yul\":4422:4427   */\n      0x00\n        /* \"#utility.yul\":4471:4474   */\n      dup3\n        /* \"#utility.yul\":4464:4468   */\n      0x1f\n        /* \"#utility.yul\":4456:4462   */\n      dup4\n        /* \"#utility.yul\":4452:4469   */\n      add\n        /* \"#utility.yul\":4448:4475   */\n      slt\n        /* \"#utility.yul\":4438:4560   */\n      tag_160\n      jumpi\n        /* \"#utility.yul\":4479:4558   */\n      tag_161\n      tag_82\n      jump\t// in\n    tag_161:\n        /* \"#utility.yul\":4438:4560   */\n    tag_160:\n        /* \"#utility.yul\":4596:4602   */\n      dup2\n        /* \"#utility.yul\":4583:4603   */\n      calldataload\n        /* \"#utility.yul\":4621:4699   */\n      tag_162\n        /* \"#utility.yul\":4695:4698   */\n      dup5\n        /* \"#utility.yul\":4687:4693   */\n      dup3\n        /* \"#utility.yul\":4680:4684   */\n      0x20\n        /* \"#utility.yul\":4672:4678   */\n      dup7\n        /* \"#utility.yul\":4668:4685   */\n      add\n        /* \"#utility.yul\":4621:4699   */\n      tag_89\n      jump\t// in\n    tag_162:\n        /* \"#utility.yul\":4612:4699   */\n      swap2\n      pop\n        /* \"#utility.yul\":4428:4705   */\n      pop\n        /* \"#utility.yul\":4367:4705   */\n      swap3\n      swap2\n      pop\n      pop\n      jump\t// out\n        /* \"#utility.yul\":4711:5218   */\n    tag_33:\n        /* \"#utility.yul\":4779:4785   */\n      0x00\n        /* \"#utility.yul\":4828:4830   */\n      0x20\n        /* \"#utility.yul\":4816:4825   */\n      dup3\n        /* \"#utility.yul\":4807:4814   */\n      dup5\n        /* \"#utility.yul\":4803:4826   */\n      sub\n        /* \"#utility.yul\":4799:4831   */\n      slt\n        /* \"#utility.yul\":4796:4915   */\n      iszero\n      tag_164\n      jumpi\n        /* \"#utility.yul\":4834:4913   */\n      tag_165\n      tag_80\n      jump\t// in\n    tag_165:\n        /* \"#utility.yul\":4796:4915   */\n    tag_164:\n        /* \"#utility.yul\":4982:4983   */\n      0x00\n        /* \"#utility.yul\":4971:4980   */\n      dup3\n        /* \"#utility.yul\":4967:4984   */\n      add\n        /* \"#utility.yul\":4954:4985   */\n      calldataload\n        /* \"#utility.yul\":5012:5030   */\n      0xffffffffffffffff\n        /* \"#utility.yul\":5004:5010   */\n      dup2\n        /* \"#utility.yul\":5001:5031   */\n      gt\n        /* \"#utility.yul\":4998:5115   */\n      iszero\n      tag_166\n      jumpi\n        /* \"#utility.yul\":5034:5113   */\n      tag_167\n      tag_81\n      jump\t// in\n    tag_167:\n        /* \"#utility.yul\":4998:5115   */\n    tag_166:\n        /* \"#utility.yul\":5139:5201   */\n      tag_168\n        /* \"#utility.yul\":5193:5200   */\n      dup5\n        /* \"#utility.yul\":5184:5190   */\n      dup3\n        /* \"#utility.yul\":5173:5182   */\n      dup6\n        /* \"#utility.yul\":5169:5191   */\n      add\n        /* \"#utility.yul\":5139:5201   */\n      tag_90\n      jump\t// in\n    tag_168:\n        /* \"#utility.yul\":5129:5201   */\n      swap2\n      pop\n        /* \"#utility.yul\":4925:5211   */\n      pop\n        /* \"#utility.yul\":4711:5218   */\n      swap3\n      swap2\n      pop\n      pop\n      jump\t// out\n        /* \"#utility.yul\":5224:5666   */\n    tag_36:\n        /* \"#utility.yul\":5373:5377   */\n      0x00\n        /* \"#utility.yul\":5411:5413   */\n      0x60\n        /* \"#utility.yul\":5400:5409   */\n      dup3\n        /* \"#utility.yul\":5396:5414   */\n      add\n        /* \"#utility.yul\":5388:5414   */\n      swap1\n      pop\n        /* \"#utility.yul\":5424:5495   */\n      tag_170\n        /* \"#utility.yul\":5492:5493   */\n      0x00\n        /* \"#utility.yul\":5481:5490   */\n      dup4\n        /* \"#utility.yul\":5477:5494   */\n      add\n        /* \"#utility.yul\":5468:5474   */\n      dup7\n        /* \"#utility.yul\":5424:5495   */\n      tag_71\n      jump\t// in\n    tag_170:\n        /* \"#utility.yul\":5505:5577   */\n      tag_171\n        /* \"#utility.yul\":5573:5575   */\n      0x20\n        /* \"#utility.yul\":5562:5571   */\n      dup4\n        /* \"#utility.yul\":5558:5576   */\n      add\n        /* \"#utility.yul\":5549:5555   */\n      dup6\n        /* \"#utility.yul\":5505:5577   */\n      tag_71\n      jump\t// in\n    tag_171:\n        /* \"#utility.yul\":5587:5659   */\n      tag_172\n        /* \"#utility.yul\":5655:5657   */\n      0x40\n        /* \"#utility.yul\":5644:5653   */\n      dup4\n        /* \"#utility.yul\":5640:5658   */\n      add\n        /* \"#utility.yul\":5631:5637   */\n      dup5\n        /* \"#utility.yul\":5587:5659   */\n      tag_71\n      jump\t// in\n    tag_172:\n        /* \"#utility.yul\":5224:5666   */\n      swap5\n      swap4\n      pop\n      pop\n      pop\n      pop\n      jump\t// out\n        /* \"#utility.yul\":5672:5770   */\n    tag_91:\n        /* \"#utility.yul\":5723:5729   */\n      0x00\n        /* \"#utility.yul\":5757:5762   */\n      dup2\n        /* \"#utility.yul\":5751:5763   */\n      mload\n        /* \"#utility.yul\":5741:5763   */\n      swap1\n      pop\n        /* \"#utility.yul\":5672:5770   */\n      swap2\n      swap1\n      pop\n      jump\t// out\n        /* \"#utility.yul\":5776:5944   */\n    tag_92:\n        /* \"#utility.yul\":5859:5870   */\n      0x00\n        /* \"#utility.yul\":5893:5899   */\n      dup3\n        /* \"#utility.yul\":5888:5891   */\n      dup3\n        /* \"#utility.yul\":5881:5900   */\n      mstore\n        /* \"#utility.yul\":5933:5937   */\n      0x20\n        /* \"#utility.yul\":5928:5931   */\n      dup3\n        /* \"#utility.yul\":5924:5938   */\n      add\n        /* \"#utility.yul\":5909:5938   */\n      swap1\n      pop\n        /* \"#utility.yul\":5776:5944   */\n      swap3\n      swap2\n      pop\n      pop\n      jump\t// out\n        /* \"#utility.yul\":5950:6310   */\n    tag_93:\n        /* \"#utility.yul\":6036:6039   */\n      0x00\n        /* \"#utility.yul\":6064:6102   */\n      tag_176\n        /* \"#utility.yul\":6096:6101   */\n      dup3\n        /* \"#utility.yul\":6064:6102   */\n      tag_91\n      jump\t// in\n    tag_176:\n        /* \"#utility.yul\":6118:6188   */\n      tag_177\n        /* \"#utility.yul\":6181:6187   */\n      dup2\n        /* \"#utility.yul\":6176:6179   */\n      dup6\n        /* \"#utility.yul\":6118:6188   */\n      tag_92\n      jump\t// in\n    tag_177:\n        /* \"#utility.yul\":6111:6188   */\n      swap4\n      pop\n        /* \"#utility.yul\":6197:6249   */\n      tag_178\n        /* \"#utility.yul\":6242:6248   */\n      dup2\n        /* \"#utility.yul\":6237:6240   */\n      dup6\n        /* \"#utility.yul\":6230:6234   */\n      0x20\n        /* \"#utility.yul\":6223:6228   */\n      dup7\n        /* \"#utility.yul\":6219:6235   */\n      add\n        /* \"#utility.yul\":6197:6249   */\n      tag_74\n      jump\t// in\n    tag_178:\n        /* \"#utility.yul\":6274:6303   */\n      tag_179\n        /* \"#utility.yul\":6296:6302   */\n      dup2\n        /* \"#utility.yul\":6274:6303   */\n      tag_75\n      jump\t// in\n    tag_179:\n        /* \"#utility.yul\":6269:6272   */\n      dup5\n        /* \"#utility.yul\":6265:6304   */\n      add\n        /* \"#utility.yul\":6258:6304   */\n      swap2\n      pop\n        /* \"#utility.yul\":6040:6310   */\n      pop\n        /* \"#utility.yul\":5950:6310   */\n      swap3\n      swap2\n      pop\n      pop\n      jump\t// out\n        /* \"#utility.yul\":6316:6625   */\n    tag_40:\n        /* \"#utility.yul\":6427:6431   */\n      0x00\n        /* \"#utility.yul\":6465:6467   */\n      0x20\n        /* \"#utility.yul\":6454:6463   */\n      dup3\n        /* \"#utility.yul\":6450:6468   */\n      add\n        /* \"#utility.yul\":6442:6468   */\n      swap1\n      pop\n        /* \"#utility.yul\":6514:6523   */\n      dup2\n        /* \"#utility.yul\":6508:6512   */\n      dup2\n        /* \"#utility.yul\":6504:6524   */\n      sub\n        /* \"#utility.yul\":6500:6501   */\n      0x00\n        /* \"#utility.yul\":6489:6498   */\n      dup4\n        /* \"#utility.yul\":6485:6502   */\n      add\n        /* \"#utility.yul\":6478:6525   */\n      mstore\n        /* \"#utility.yul\":6542:6618   */\n      tag_181\n        /* \"#utility.yul\":6613:6617   */\n      dup2\n        /* \"#utility.yul\":6604:6610   */\n      dup5\n        /* \"#utility.yul\":6542:6618   */\n      tag_93\n      jump\t// in\n    tag_181:\n        /* \"#utility.yul\":6534:6618   */\n      swap1\n      pop\n        /* \"#utility.yul\":6316:6625   */\n      swap3\n      swap2\n      pop\n      pop\n      jump\t// out\n        /* \"#utility.yul\":6631:6811   */\n    tag_94:\n        /* \"#utility.yul\":6679:6756   */\n      0x4e487b7100000000000000000000000000000000000000000000000000000000\n        /* \"#utility.yul\":6676:6677   */\n      0x00\n        /* \"#utility.yul\":6669:6757   */\n      mstore\n        /* \"#utility.yul\":6776:6780   */\n      0x11\n        /* \"#utility.yul\":6773:6774   */\n      0x04\n        /* \"#utility.yul\":6766:6781   */\n      mstore\n        /* \"#utility.yul\":6800:6804   */\n      0x24\n        /* \"#utility.yul\":6797:6798   */\n      0x00\n        /* \"#utility.yul\":6790:6805   */\n      revert\n        /* \"#utility.yul\":6817:7122   */\n    tag_51:\n        /* \"#utility.yul\":6857:6860   */\n      0x00\n        /* \"#utility.yul\":6876:6896   */\n      tag_184\n        /* \"#utility.yul\":6894:6895   */\n      dup3\n        /* \"#utility.yul\":6876:6896   */\n      tag_70\n      jump\t// in\n    tag_184:\n        /* \"#utility.yul\":6871:6896   */\n      swap2\n      pop\n        /* \"#utility.yul\":6910:6930   */\n      tag_185\n        /* \"#utility.yul\":6928:6929   */\n      dup4\n        /* \"#utility.yul\":6910:6930   */\n      tag_70\n      jump\t// in\n    tag_185:\n        /* \"#utility.yul\":6905:6930   */\n      swap3\n      pop\n        /* \"#utility.yul\":7064:7065   */\n      dup3\n        /* \"#utility.yul\":6996:7062   */\n      0xffffffffffffffffffffffffffffffffffffffffffffffffffffffffffffffff\n        /* \"#utility.yul\":6992:7066   */\n      sub\n        /* \"#utility.yul\":6989:6990   */\n      dup3\n        /* \"#utility.yul\":6986:7067   */\n      gt\n        /* \"#utility.yul\":6983:7090   */\n      iszero\n      tag_186\n      jumpi\n        /* \"#utility.yul\":7070:7088   */\n      tag_187\n      tag_94\n      jump\t// in\n    tag_187:\n        /* \"#utility.yul\":6983:7090   */\n    tag_186:\n        /* \"#utility.yul\":7114:7115   */\n      dup3\n        /* \"#utility.yul\":7111:7112   */\n      dup3\n        /* \"#utility.yul\":7107:7116   */\n      add\n        /* \"#utility.yul\":7100:7116   */\n      swap1\n      pop\n        /* \"#utility.yul\":6817:7122   */\n      swap3\n      swap2\n      pop\n      pop\n      jump\t// out\n        /* \"#utility.yul\":7128:7382   */\n    tag_55:\n        /* \"#utility.yul\":7167:7170   */\n      0x00\n        /* \"#utility.yul\":7186:7205   */\n      tag_189\n        /* \"#utility.yul\":7203:7204   */\n      dup3\n        /* \"#utility.yul\":7186:7205   */\n      tag_77\n      jump\t// in\n    tag_189:\n        /* \"#utility.yul\":7181:7205   */\n      swap2\n      pop\n        /* \"#utility.yul\":7219:7238   */\n      tag_190\n        /* \"#utility.yul\":7236:7237   */\n      dup4\n        /* \"#utility.yul\":7219:7238   */\n      tag_77\n      jump\t// in\n    tag_190:\n        /* \"#utility.yul\":7214:7238   */\n      swap3\n      pop\n        /* \"#utility.yul\":7324:7325   */\n      dup3\n        /* \"#utility.yul\":7304:7322   */\n      0xffffffffffffffff\n        /* \"#utility.yul\":7300:7326   */\n      sub\n        /* \"#utility.yul\":7297:7298   */\n      dup3\n        /* \"#utility.yul\":7294:7327   */\n      gt\n        /* \"#utility.yul\":7291:7350   */\n      iszero\n      tag_191\n      jumpi\n        /* \"#utility.yul\":7330:7348   */\n      tag_192\n      tag_94\n      jump\t// in\n    tag_192:\n        /* \"#utility.yul\":7291:7350   */\n    tag_191:\n        /* \"#utility.yul\":7374:7375   */\n      dup3\n        /* \"#utility.yul\":7371:7372   */\n      dup3\n        /* \"#utility.yul\":7367:7376   */\n      add\n        /* \"#utility.yul\":7360:7376   */\n      swap1\n      pop\n        /* \"#utility.yul\":7128:7382   */\n      swap3\n      swap2\n      pop\n      pop\n      jump\t// out\n        /* \"#utility.yul\":7388:7510   */\n    tag_95:\n        /* \"#utility.yul\":7461:7485   */\n      tag_194\n        /* \"#utility.yul\":7479:7484   */\n      dup2\n        /* \"#utility.yul\":7461:7485   */\n      tag_70\n      jump\t// in\n    tag_194:\n        /* \"#utility.yul\":7454:7459   */\n      dup2\n        /* \"#utility.yul\":7451:7486   */\n      eq\n        /* \"#utility.yul\":7441:7504   */\n      tag_195\n      jumpi\n        /* \"#utility.yul\":7500:7501   */\n      0x00\n        /* \"#utility.yul\":7497:7498   */\n      dup1\n        /* \"#utility.yul\":7490:7502   */\n      revert\n        /* \"#utility.yul\":7441:7504   */\n    tag_195:\n        /* \"#utility.yul\":7388:7510   */\n      pop\n      jump\t// out\n        /* \"#utility.yul\":7516:7659   */\n    tag_96:\n        /* \"#utility.yul\":7573:7578   */\n      0x00\n        /* \"#utility.yul\":7604:7610   */\n      dup2\n        /* \"#utility.yul\":7598:7611   */\n      mload\n        /* \"#utility.yul\":7589:7611   */\n      swap1\n      pop\n        /* \"#utility.yul\":7620:7653   */\n      tag_197\n        /* \"#utility.yul\":7647:7652   */\n      dup2\n        /* \"#utility.yul\":7620:7653   */\n      tag_95\n      jump\t// in\n    tag_197:\n        /* \"#utility.yul\":7516:7659   */\n      swap3\n      swap2\n      pop\n      pop\n      jump\t// out\n        /* \"#utility.yul\":7665:8328   */\n    tag_61:\n        /* \"#utility.yul\":7753:7759   */\n      0x00\n        /* \"#utility.yul\":7761:7767   */\n      dup1\n        /* \"#utility.yul\":7769:7775   */\n      0x00\n        /* \"#utility.yul\":7818:7820   */\n      0x60\n        /* \"#utility.yul\":7806:7815   */\n      dup5\n        /* \"#utility.yul\":7797:7804   */\n      dup7\n        /* \"#utility.yul\":7793:7816   */\n      sub\n        /* \"#utility.yul\":7789:7821   */\n      slt\n        /* \"#utility.yul\":7786:7905   */\n      iszero\n      tag_199\n      jumpi\n        /* \"#utility.yul\":7824:7903   */\n      tag_200\n      tag_80\n      jump\t// in\n    tag_200:\n        /* \"#utility.yul\":7786:7905   */\n    tag_199:\n        /* \"#utility.yul\":7944:7945   */\n      0x00\n        /* \"#utility.yul\":7969:8033   */\n      tag_201\n        /* \"#utility.yul\":8025:8032   */\n      dup7\n        /* \"#utility.yul\":8016:8022   */\n      dup3\n        /* \"#utility.yul\":8005:8014   */\n      dup8\n        /* \"#utility.yul\":8001:8023   */\n      add\n        /* \"#utility.yul\":7969:8033   */\n      tag_96\n      jump\t// in\n    tag_201:\n        /* \"#utility.yul\":7959:8033   */\n      swap4\n      pop\n        /* \"#utility.yul\":7915:8043   */\n      pop\n        /* \"#utility.yul\":8082:8084   */\n      0x20\n        /* \"#utility.yul\":8108:8172   */\n      tag_202\n        /* \"#utility.yul\":8164:8171   */\n      dup7\n        /* \"#utility.yul\":8155:8161   */\n      dup3\n        /* \"#utility.yul\":8144:8153   */\n      dup8\n        /* \"#utility.yul\":8140:8162   */\n      add\n        /* \"#utility.yul\":8108:8172   */\n      tag_96\n      jump\t// in\n    tag_202:\n        /* \"#utility.yul\":8098:8172   */\n      swap3\n      pop\n        /* \"#utility.yul\":8053:8182   */\n      pop\n        /* \"#utility.yul\":8221:8223   */\n      0x40\n        /* \"#utility.yul\":8247:8311   */\n      tag_203\n        /* \"#utility.yul\":8303:8310   */\n      dup7\n        /* \"#utility.yul\":8294:8300   */\n      dup3\n        /* \"#utility.yul\":8283:8292   */\n      dup8\n        /* \"#utility.yul\":8279:8301   */\n      add\n        /* \"#utility.yul\":8247:8311   */\n      tag_96\n      jump\t// in\n    tag_203:\n        /* \"#utility.yul\":8237:8311   */\n      swap2\n      pop\n        /* \"#utility.yul\":8192:8321   */\n      pop\n        /* \"#utility.yul\":7665:8328   */\n      swap3\n      pop\n      swap3\n      pop\n      swap3\n      jump\t// out\n        /* \"#utility.yul\":8334:8419   */\n    tag_97:\n        /* \"#utility.yul\":8379:8386   */\n      0x00\n        /* \"#utility.yul\":8408:8413   */\n      dup2\n        /* \"#utility.yul\":8397:8413   */\n      swap1\n      pop\n        /* \"#utility.yul\":8334:8419   */\n      swap2\n      swap1\n      pop\n      jump\t// out\n        /* \"#utility.yul\":8425:8511   */\n    tag_98:\n        /* \"#utility.yul\":8460:8467   */\n      0x00\n        /* \"#utility.yul\":8500:8504   */\n      0xff\n        /* \"#utility.yul\":8493:8498   */\n      dup3\n        /* \"#utility.yul\":8489:8505   */\n      and\n        /* \"#utility.yul\":8478:8505   */\n      swap1\n      pop\n        /* \"#utility.yul\":8425:8511   */\n      swap2\n      swap1\n      pop\n      jump\t// out\n        /* \"#utility.yul\":8517:8577   */\n    tag_99:\n        /* \"#utility.yul\":8545:8548   */\n      0x00\n        /* \"#utility.yul\":8566:8571   */\n      dup2\n        /* \"#utility.yul\":8559:8571   */\n      swap1\n      pop\n        /* \"#utility.yul\":8517:8577   */\n      swap2\n      swap1\n      pop\n      jump\t// out\n        /* \"#utility.yul\":8583:8737   */\n    tag_100:\n        /* \"#utility.yul\":8639:8648   */\n      0x00\n        /* \"#utility.yul\":8672:8731   */\n      tag_208\n        /* \"#utility.yul\":8688:8730   */\n      tag_209\n        /* \"#utility.yul\":8697:8729   */\n      tag_210\n        /* \"#utility.yul\":8723:8728   */\n      dup5\n        /* \"#utility.yul\":8697:8729   */\n      tag_97\n      jump\t// in\n    tag_210:\n        /* \"#utility.yul\":8688:8730   */\n      tag_99\n      jump\t// in\n    tag_209:\n        /* \"#utility.yul\":8672:8731   */\n      tag_98\n      jump\t// in\n    tag_208:\n        /* \"#utility.yul\":8659:8731   */\n      swap1\n      pop\n        /* \"#utility.yul\":8583:8737   */\n      swap2\n      swap1\n      pop\n      jump\t// out\n        /* \"#utility.yul\":8743:8886   */\n    tag_101:\n        /* \"#utility.yul\":8836:8879   */\n      tag_212\n        /* \"#utility.yul\":8873:8878   */\n      dup2\n        /* \"#utility.yul\":8836:8879   */\n      tag_100\n      jump\t// in\n    tag_212:\n        /* \"#utility.yul\":8831:8834   */\n      dup3\n        /* \"#utility.yul\":8824:8880   */\n      mstore\n        /* \"#utility.yul\":8743:8886   */\n      pop\n      pop\n      jump\t// out\n        /* \"#utility.yul\":8892:8981   */\n    tag_102:\n        /* \"#utility.yul\":8941:8948   */\n      0x00\n        /* \"#utility.yul\":8970:8975   */\n      dup2\n        /* \"#utility.yul\":8959:8975   */\n      swap1\n      pop\n        /* \"#utility.yul\":8892:8981   */\n      swap2\n      swap1\n      pop\n      jump\t// out\n        /* \"#utility.yul\":8987:9076   */\n    tag_103:\n        /* \"#utility.yul\":9023:9030   */\n      0x00\n        /* \"#utility.yul\":9063:9069   */\n      0xffff\n        /* \"#utility.yul\":9056:9061   */\n      dup3\n        /* \"#utility.yul\":9052:9070   */\n      and\n        /* \"#utility.yul\":9041:9070   */\n      swap1\n      pop\n        /* \"#utility.yul\":8987:9076   */\n      swap2\n      swap1\n      pop\n      jump\t// out\n        /* \"#utility.yul\":9082:9246   */\n    tag_104:\n        /* \"#utility.yul\":9143:9152   */\n      0x00\n        /* \"#utility.yul\":9176:9240   */\n      tag_216\n        /* \"#utility.yul\":9193:9239   */\n      tag_217\n        /* \"#utility.yul\":9202:9238   */\n      tag_218\n        /* \"#utility.yul\":9232:9237   */\n      dup5\n        /* \"#utility.yul\":9202:9238   */\n      tag_102\n      jump\t// in\n    tag_218:\n        /* \"#utility.yul\":9193:9239   */\n      tag_99\n      jump\t// in\n    tag_217:\n        /* \"#utility.yul\":9176:9240   */\n      tag_103\n      jump\t// in\n    tag_216:\n        /* \"#utility.yul\":9163:9240   */\n      swap1\n      pop\n        /* \"#utility.yul\":9082:9246   */\n      swap2\n      swap1\n      pop\n      jump\t// out\n        /* \"#utility.yul\":9252:9405   */\n    tag_105:\n        /* \"#utility.yul\":9350:9398   */\n      tag_220\n        /* \"#utility.yul\":9392:9397   */\n      dup2\n        /* \"#utility.yul\":9350:9398   */\n      tag_104\n      jump\t// in\n    tag_220:\n        /* \"#utility.yul\":9345:9348   */\n      dup3\n        /* \"#utility.yul\":9338:9399   */\n      mstore\n        /* \"#utility.yul\":9252:9405   */\n      pop\n      pop\n      jump\t// out\n        /* \"#utility.yul\":9411:9499   */\n    tag_106:\n        /* \"#utility.yul\":9459:9466   */\n      0x00\n        /* \"#utility.yul\":9488:9493   */\n      dup2\n        /* \"#utility.yul\":9477:9493   */\n      swap1\n      pop\n        /* \"#utility.yul\":9411:9499   */\n      swap2\n      swap1\n      pop\n      jump\t// out\n        /* \"#utility.yul\":9505:9667   */\n    tag_107:\n        /* \"#utility.yul\":9565:9574   */\n      0x00\n        /* \"#utility.yul\":9598:9661   */\n      tag_223\n        /* \"#utility.yul\":9615:9660   */\n      tag_224\n        /* \"#utility.yul\":9624:9659   */\n      tag_225\n        /* \"#utility.yul\":9653:9658   */\n      dup5\n        /* \"#utility.yul\":9624:9659   */\n      tag_106\n      jump\t// in\n    tag_225:\n        /* \"#utility.yul\":9615:9660   */\n      tag_99\n      jump\t// in\n    tag_224:\n        /* \"#utility.yul\":9598:9661   */\n      tag_103\n      jump\t// in\n    tag_223:\n        /* \"#utility.yul\":9585:9661   */\n      swap1\n      pop\n        /* \"#utility.yul\":9505:9667   */\n      swap2\n      swap1\n      pop\n      jump\t// out\n        /* \"#utility.yul\":9673:9824   */\n    tag_108:\n        /* \"#utility.yul\":9770:9817   */\n      tag_227\n        /* \"#utility.yul\":9811:9816   */\n      dup2\n        /* \"#utility.yul\":9770:9817   */\n      tag_107\n      jump\t// in\n    tag_227:\n        /* \"#utility.yul\":9765:9768   */\n      dup3\n        /* \"#utility.yul\":9758:9818   */\n      mstore\n        /* \"#utility.yul\":9673:9824   */\n      pop\n      pop\n      jump\t// out\n        /* \"#utility.yul\":9830:10326   */\n    tag_64:\n        /* \"#utility.yul\":10006:10010   */\n      0x00\n        /* \"#utility.yul\":10044:10046   */\n      0x60\n        /* \"#utility.yul\":10033:10042   */\n      dup3\n        /* \"#utility.yul\":10029:10047   */\n      add\n        /* \"#utility.yul\":10021:10047   */\n      swap1\n      pop\n        /* \"#utility.yul\":10057:10134   */\n      tag_229\n        /* \"#utility.yul\":10131:10132   */\n      0x00\n        /* \"#utility.yul\":10120:10129   */\n      dup4\n        /* \"#utility.yul\":10116:10133   */\n      add\n        /* \"#utility.yul\":10107:10113   */\n      dup7\n        /* \"#utility.yul\":10057:10134   */\n      tag_101\n      jump\t// in\n    tag_229:\n        /* \"#utility.yul\":10144:10227   */\n      tag_230\n        /* \"#utility.yul\":10223:10225   */\n      0x20\n        /* \"#utility.yul\":10212:10221   */\n      dup4\n        /* \"#utility.yul\":10208:10226   */\n      add\n        /* \"#utility.yul\":10199:10205   */\n      dup6\n        /* \"#utility.yul\":10144:10227   */\n      tag_105\n      jump\t// in\n    tag_230:\n        /* \"#utility.yul\":10237:10319   */\n      tag_231\n        /* \"#utility.yul\":10315:10317   */\n      0x40\n        /* \"#utility.yul\":10304:10313   */\n      dup4\n        /* \"#utility.yul\":10300:10318   */\n      add\n        /* \"#utility.yul\":10291:10297   */\n      dup5\n        /* \"#utility.yul\":10237:10319   */\n      tag_108\n      jump\t// in\n    tag_231:\n        /* \"#utility.yul\":9830:10326   */\n      swap5\n      swap4\n      pop\n      pop\n      pop\n      pop\n      jump\t// out\n\n    auxdata: 0xa26469706673582212202907959c88d6dd71779e13aab007bc0be57b92a387b5f26a17609743071e7b5d64736f6c634300080d0033\n}\n",
				"bytecode": {
					"linkReferences": {},
					"object": "608060405234801561001057600080fd5b506108f9806100206000396000f3fe608060405234801561001057600080fd5b50600436106100935760003560e01c80633932abb1116100665780633932abb114610110578063416bdc521461012e5780636097e7a3146101605780638c492a761461017e5780639711715a1461019c57610093565b806302a251a31461009857806306fdde03146100b657806316ada547146100d457806329dcb0cf146100f2575b600080fd5b6100a06101ba565b6040516100ad9190610320565b60405180910390f35b6100be6101c4565b6040516100cb91906103d4565b60405180910390f35b6100dc610201565b6040516100e99190610320565b60405180910390f35b6100fa61021c565b6040516101079190610419565b60405180910390f35b610118610253565b6040516101259190610320565b60405180910390f35b6101486004803603810190610143919061057d565b61025c565b604051610157939291906105c6565b60405180910390f35b610168610288565b6040516101759190610652565b60405180910390f35b6101866102b8565b6040516101939190610652565b60405180910390f35b6101a46102e8565b6040516101b19190610419565b60405180910390f35b600061b2fa905090565b60606040518060400160405280600881526020017f776f6e6879656f6b000000000000000000000000000000000000000000000000815250905090565b600080620697804261021391906106a3565b90508091505090565b600080610227610253565b4361023291906106f9565b9050600061023e6101ba565b8261024991906106f9565b9050809250505090565b60006001905090565b6000806000838060200190518101906102759190610763565b8093508194508295505050509193909250565b6060600161b2ec6113886040516020016102a49392919061088c565b604051602081830303815290604052905090565b6060600161b2ec6113886040516020016102d49392919061088c565b604051602081830303815290604052905090565b6000806102f3610253565b436102fe91906106f9565b90508091505090565b6000819050919050565b61031a81610307565b82525050565b60006020820190506103356000830184610311565b92915050565b600081519050919050565b600082825260208201905092915050565b60005b8381101561037557808201518184015260208101905061035a565b83811115610384576000848401525b50505050565b6000601f19601f8301169050919050565b60006103a68261033b565b6103b08185610346565b93506103c0818560208601610357565b6103c98161038a565b840191505092915050565b600060208201905081810360008301526103ee818461039b565b905092915050565b600067ffffffffffffffff82169050919050565b610413816103f6565b82525050565b600060208201905061042e600083018461040a565b92915050565b6000604051905090565b600080fd5b600080fd5b600080fd5b600080fd5b7f4e487b7100000000000000000000000000000000000000000000000000000000600052604160045260246000fd5b61048a8261038a565b810181811067ffffffffffffffff821117156104a9576104a8610452565b5b80604052505050565b60006104bc610434565b90506104c88282610481565b919050565b600067ffffffffffffffff8211156104e8576104e7610452565b5b6104f18261038a565b9050602081019050919050565b82818337600083830152505050565b600061052061051b846104cd565b6104b2565b90508281526020810184848401111561053c5761053b61044d565b5b6105478482856104fe565b509392505050565b600082601f83011261056457610563610448565b5b813561057484826020860161050d565b91505092915050565b6000602082840312156105935761059261043e565b5b600082013567ffffffffffffffff8111156105b1576105b0610443565b5b6105bd8482850161054f565b91505092915050565b60006060820190506105db6000830186610311565b6105e86020830185610311565b6105f56040830184610311565b949350505050565b600081519050919050565b600082825260208201905092915050565b6000610624826105fd565b61062e8185610608565b935061063e818560208601610357565b6106478161038a565b840191505092915050565b6000602082019050818103600083015261066c8184610619565b905092915050565b7f4e487b7100000000000000000000000000000000000000000000000000000000600052601160045260246000fd5b60006106ae82610307565b91506106b983610307565b9250827fffffffffffffffffffffffffffffffffffffffffffffffffffffffffffffffff038211156106ee576106ed610674565b5b828201905092915050565b6000610704826103f6565b915061070f836103f6565b92508267ffffffffffffffff0382111561072c5761072b610674565b5b828201905092915050565b61074081610307565b811461074b57600080fd5b50565b60008151905061075d81610737565b92915050565b60008060006060848603121561077c5761077b61043e565b5b600061078a8682870161074e565b935050602061079b8682870161074e565b92505060406107ac8682870161074e565b9150509250925092565b6000819050919050565b600060ff82169050919050565b6000819050919050565b60006107f26107ed6107e8846107b6565b6107cd565b6107c0565b9050919050565b610802816107d7565b82525050565b6000819050919050565b600061ffff82169050919050565b600061083b61083661083184610808565b6107cd565b610812565b9050919050565b61084b81610820565b82525050565b6000819050919050565b600061087661087161086c84610851565b6107cd565b610812565b9050919050565b6108868161085b565b82525050565b60006060820190506108a160008301866107f9565b6108ae6020830185610842565b6108bb604083018461087d565b94935050505056fea26469706673582212202907959c88d6dd71779e13aab007bc0be57b92a387b5f26a17609743071e7b5d64736f6c634300080d0033",
					"opcodes": "PUSH1 0x80 PUSH1 0x40 MSTORE CALLVALUE DUP1 ISZERO PUSH2 0x10 JUMPI PUSH1 0x0 DUP1 REVERT JUMPDEST POP PUSH2 0x8F9 DUP1 PUSH2 0x20 PUSH1 0x0 CODECOPY PUSH1 0x0 RETURN INVALID PUSH1 0x80 PUSH1 0x40 MSTORE CALLVALUE DUP1 ISZERO PUSH2 0x10 JUMPI PUSH1 0x0 DUP1 REVERT JUMPDEST POP PUSH1 0x4 CALLDATASIZE LT PUSH2 0x93 JUMPI PUSH1 0x0 CALLDATALOAD PUSH1 0xE0 SHR DUP1 PUSH4 0x3932ABB1 GT PUSH2 0x66 JUMPI DUP1 PUSH4 0x3932ABB1 EQ PUSH2 0x110 JUMPI DUP1 PUSH4 0x416BDC52 EQ PUSH2 0x12E JUMPI DUP1 PUSH4 0x6097E7A3 EQ PUSH2 0x160 JUMPI DUP1 PUSH4 0x8C492A76 EQ PUSH2 0x17E JUMPI DUP1 PUSH4 0x9711715A EQ PUSH2 0x19C JUMPI PUSH2 0x93 JUMP JUMPDEST DUP1 PUSH4 0x2A251A3 EQ PUSH2 0x98 JUMPI DUP1 PUSH4 0x6FDDE03 EQ PUSH2 0xB6 JUMPI DUP1 PUSH4 0x16ADA547 EQ PUSH2 0xD4 JUMPI DUP1 PUSH4 0x29DCB0CF EQ PUSH2 0xF2 JUMPI JUMPDEST PUSH1 0x0 DUP1 REVERT JUMPDEST PUSH2 0xA0 PUSH2 0x1BA JUMP JUMPDEST PUSH1 0x40 MLOAD PUSH2 0xAD SWAP2 SWAP1 PUSH2 0x320 JUMP JUMPDEST PUSH1 0x40 MLOAD DUP1 SWAP2 SUB SWAP1 RETURN JUMPDEST PUSH2 0xBE PUSH2 0x1C4 JUMP JUMPDEST PUSH1 0x40 MLOAD PUSH2 0xCB SWAP2 SWAP1 PUSH2 0x3D4 JUMP JUMPDEST PUSH1 0x40 MLOAD DUP1 SWAP2 SUB SWAP1 RETURN JUMPDEST PUSH2 0xDC PUSH2 0x201 JUMP JUMPDEST PUSH1 0x40 MLOAD PUSH2 0xE9 SWAP2 SWAP1 PUSH2 0x320 JUMP JUMPDEST PUSH1 0x40 MLOAD DUP1 SWAP2 SUB SWAP1 RETURN JUMPDEST PUSH2 0xFA PUSH2 0x21C JUMP JUMPDEST PUSH1 0x40 MLOAD PUSH2 0x107 SWAP2 SWAP1 PUSH2 0x419 JUMP JUMPDEST PUSH1 0x40 MLOAD DUP1 SWAP2 SUB SWAP1 RETURN JUMPDEST PUSH2 0x118 PUSH2 0x253 JUMP JUMPDEST PUSH1 0x40 MLOAD PUSH2 0x125 SWAP2 SWAP1 PUSH2 0x320 JUMP JUMPDEST PUSH1 0x40 MLOAD DUP1 SWAP2 SUB SWAP1 RETURN JUMPDEST PUSH2 0x148 PUSH1 0x4 DUP1 CALLDATASIZE SUB DUP2 ADD SWAP1 PUSH2 0x143 SWAP2 SWAP1 PUSH2 0x57D JUMP JUMPDEST PUSH2 0x25C JUMP JUMPDEST PUSH1 0x40 MLOAD PUSH2 0x157 SWAP4 SWAP3 SWAP2 SWAP1 PUSH2 0x5C6 JUMP JUMPDEST PUSH1 0x40 MLOAD DUP1 SWAP2 SUB SWAP1 RETURN JUMPDEST PUSH2 0x168 PUSH2 0x288 JUMP JUMPDEST PUSH1 0x40 MLOAD PUSH2 0x175 SWAP2 SWAP1 PUSH2 0x652 JUMP JUMPDEST PUSH1 0x40 MLOAD DUP1 SWAP2 SUB SWAP1 RETURN JUMPDEST PUSH2 0x186 PUSH2 0x2B8 JUMP JUMPDEST PUSH1 0x40 MLOAD PUSH2 0x193 SWAP2 SWAP1 PUSH2 0x652 JUMP JUMPDEST PUSH1 0x40 MLOAD DUP1 SWAP2 SUB SWAP1 RETURN JUMPDEST PUSH2 0x1A4 PUSH2 0x2E8 JUMP JUMPDEST PUSH1 0x40 MLOAD PUSH2 0x1B1 SWAP2 SWAP1 PUSH2 0x419 JUMP JUMPDEST PUSH1 0x40 MLOAD DUP1 SWAP2 SUB SWAP1 RETURN JUMPDEST PUSH1 0x0 PUSH2 0xB2FA SWAP1 POP SWAP1 JUMP JUMPDEST PUSH1 0x60 PUSH1 0x40 MLOAD DUP1 PUSH1 0x40 ADD PUSH1 0x40 MSTORE DUP1 PUSH1 0x8 DUP2 MSTORE PUSH1 0x20 ADD PUSH32 0x776F6E6879656F6B000000000000000000000000000000000000000000000000 DUP2 MSTORE POP SWAP1 POP SWAP1 JUMP JUMPDEST PUSH1 0x0 DUP1 PUSH3 0x69780 TIMESTAMP PUSH2 0x213 SWAP2 SWAP1 PUSH2 0x6A3 JUMP JUMPDEST SWAP1 POP DUP1 SWAP2 POP POP SWAP1 JUMP JUMPDEST PUSH1 0x0 DUP1 PUSH2 0x227 PUSH2 0x253 JUMP JUMPDEST NUMBER PUSH2 0x232 SWAP2 SWAP1 PUSH2 0x6F9 JUMP JUMPDEST SWAP1 POP PUSH1 0x0 PUSH2 0x23E PUSH2 0x1BA JUMP JUMPDEST DUP3 PUSH2 0x249 SWAP2 SWAP1 PUSH2 0x6F9 JUMP JUMPDEST SWAP1 POP DUP1 SWAP3 POP POP POP SWAP1 JUMP JUMPDEST PUSH1 0x0 PUSH1 0x1 SWAP1 POP SWAP1 JUMP JUMPDEST PUSH1 0x0 DUP1 PUSH1 0x0 DUP4 DUP1 PUSH1 0x20 ADD SWAP1 MLOAD DUP2 ADD SWAP1 PUSH2 0x275 SWAP2 SWAP1 PUSH2 0x763 JUMP JUMPDEST DUP1 SWAP4 POP DUP2 SWAP5 POP DUP3 SWAP6 POP POP POP POP SWAP2 SWAP4 SWAP1 SWAP3 POP JUMP JUMPDEST PUSH1 0x60 PUSH1 0x1 PUSH2 0xB2EC PUSH2 0x1388 PUSH1 0x40 MLOAD PUSH1 0x20 ADD PUSH2 0x2A4 SWAP4 SWAP3 SWAP2 SWAP1 PUSH2 0x88C JUMP JUMPDEST PUSH1 0x40 MLOAD PUSH1 0x20 DUP2 DUP4 SUB SUB DUP2 MSTORE SWAP1 PUSH1 0x40 MSTORE SWAP1 POP SWAP1 JUMP JUMPDEST PUSH1 0x60 PUSH1 0x1 PUSH2 0xB2EC PUSH2 0x1388 PUSH1 0x40 MLOAD PUSH1 0x20 ADD PUSH2 0x2D4 SWAP4 SWAP3 SWAP2 SWAP1 PUSH2 0x88C JUMP JUMPDEST PUSH1 0x40 MLOAD PUSH1 0x20 DUP2 DUP4 SUB SUB DUP2 MSTORE SWAP1 PUSH1 0x40 MSTORE SWAP1 POP SWAP1 JUMP JUMPDEST PUSH1 0x0 DUP1 PUSH2 0x2F3 PUSH2 0x253 JUMP JUMPDEST NUMBER PUSH2 0x2FE SWAP2 SWAP1 PUSH2 0x6F9 JUMP JUMPDEST SWAP1 POP DUP1 SWAP2 POP POP SWAP1 JUMP JUMPDEST PUSH1 0x0 DUP2 SWAP1 POP SWAP2 SWAP1 POP JUMP JUMPDEST PUSH2 0x31A DUP2 PUSH2 0x307 JUMP JUMPDEST DUP3 MSTORE POP POP JUMP JUMPDEST PUSH1 0x0 PUSH1 0x20 DUP3 ADD SWAP1 POP PUSH2 0x335 PUSH1 0x0 DUP4 ADD DUP5 PUSH2 0x311 JUMP JUMPDEST SWAP3 SWAP2 POP POP JUMP JUMPDEST PUSH1 0x0 DUP2 MLOAD SWAP1 POP SWAP2 SWAP1 POP JUMP JUMPDEST PUSH1 0x0 DUP3 DUP3 MSTORE PUSH1 0x20 DUP3 ADD SWAP1 POP SWAP3 SWAP2 POP POP JUMP JUMPDEST PUSH1 0x0 JUMPDEST DUP4 DUP2 LT ISZERO PUSH2 0x375 JUMPI DUP1 DUP3 ADD MLOAD DUP2 DUP5 ADD MSTORE PUSH1 0x20 DUP2 ADD SWAP1 POP PUSH2 0x35A JUMP JUMPDEST DUP4 DUP2 GT ISZERO PUSH2 0x384 JUMPI PUSH1 0x0 DUP5 DUP5 ADD MSTORE JUMPDEST POP POP POP POP JUMP JUMPDEST PUSH1 0x0 PUSH1 0x1F NOT PUSH1 0x1F DUP4 ADD AND SWAP1 POP SWAP2 SWAP1 POP JUMP JUMPDEST PUSH1 0x0 PUSH2 0x3A6 DUP3 PUSH2 0x33B JUMP JUMPDEST PUSH2 0x3B0 DUP2 DUP6 PUSH2 0x346 JUMP JUMPDEST SWAP4 POP PUSH2 0x3C0 DUP2 DUP6 PUSH1 0x20 DUP7 ADD PUSH2 0x357 JUMP JUMPDEST PUSH2 0x3C9 DUP2 PUSH2 0x38A JUMP JUMPDEST DUP5 ADD SWAP2 POP POP SWAP3 SWAP2 POP POP JUMP JUMPDEST PUSH1 0x0 PUSH1 0x20 DUP3 ADD SWAP1 POP DUP2 DUP2 SUB PUSH1 0x0 DUP4 ADD MSTORE PUSH2 0x3EE DUP2 DUP5 PUSH2 0x39B JUMP JUMPDEST SWAP1 POP SWAP3 SWAP2 POP POP JUMP JUMPDEST PUSH1 0x0 PUSH8 0xFFFFFFFFFFFFFFFF DUP3 AND SWAP1 POP SWAP2 SWAP1 POP JUMP JUMPDEST PUSH2 0x413 DUP2 PUSH2 0x3F6 JUMP JUMPDEST DUP3 MSTORE POP POP JUMP JUMPDEST PUSH1 0x0 PUSH1 0x20 DUP3 ADD SWAP1 POP PUSH2 0x42E PUSH1 0x0 DUP4 ADD DUP5 PUSH2 0x40A JUMP JUMPDEST SWAP3 SWAP2 POP POP JUMP JUMPDEST PUSH1 0x0 PUSH1 0x40 MLOAD SWAP1 POP SWAP1 JUMP JUMPDEST PUSH1 0x0 DUP1 REVERT JUMPDEST PUSH1 0x0 DUP1 REVERT JUMPDEST PUSH1 0x0 DUP1 REVERT JUMPDEST PUSH1 0x0 DUP1 REVERT JUMPDEST PUSH32 0x4E487B7100000000000000000000000000000000000000000000000000000000 PUSH1 0x0 MSTORE PUSH1 0x41 PUSH1 0x4 MSTORE PUSH1 0x24 PUSH1 0x0 REVERT JUMPDEST PUSH2 0x48A DUP3 PUSH2 0x38A JUMP JUMPDEST DUP2 ADD DUP2 DUP2 LT PUSH8 0xFFFFFFFFFFFFFFFF DUP3 GT OR ISZERO PUSH2 0x4A9 JUMPI PUSH2 0x4A8 PUSH2 0x452 JUMP JUMPDEST JUMPDEST DUP1 PUSH1 0x40 MSTORE POP POP POP JUMP JUMPDEST PUSH1 0x0 PUSH2 0x4BC PUSH2 0x434 JUMP JUMPDEST SWAP1 POP PUSH2 0x4C8 DUP3 DUP3 PUSH2 0x481 JUMP JUMPDEST SWAP2 SWAP1 POP JUMP JUMPDEST PUSH1 0x0 PUSH8 0xFFFFFFFFFFFFFFFF DUP3 GT ISZERO PUSH2 0x4E8 JUMPI PUSH2 0x4E7 PUSH2 0x452 JUMP JUMPDEST JUMPDEST PUSH2 0x4F1 DUP3 PUSH2 0x38A JUMP JUMPDEST SWAP1 POP PUSH1 0x20 DUP2 ADD SWAP1 POP SWAP2 SWAP1 POP JUMP JUMPDEST DUP3 DUP2 DUP4 CALLDATACOPY PUSH1 0x0 DUP4 DUP4 ADD MSTORE POP POP POP JUMP JUMPDEST PUSH1 0x0 PUSH2 0x520 PUSH2 0x51B DUP5 PUSH2 0x4CD JUMP JUMPDEST PUSH2 0x4B2 JUMP JUMPDEST SWAP1 POP DUP3 DUP2 MSTORE PUSH1 0x20 DUP2 ADD DUP5 DUP5 DUP5 ADD GT ISZERO PUSH2 0x53C JUMPI PUSH2 0x53B PUSH2 0x44D JUMP JUMPDEST JUMPDEST PUSH2 0x547 DUP5 DUP3 DUP6 PUSH2 0x4FE JUMP JUMPDEST POP SWAP4 SWAP3 POP POP POP JUMP JUMPDEST PUSH1 0x0 DUP3 PUSH1 0x1F DUP4 ADD SLT PUSH2 0x564 JUMPI PUSH2 0x563 PUSH2 0x448 JUMP JUMPDEST JUMPDEST DUP2 CALLDATALOAD PUSH2 0x574 DUP5 DUP3 PUSH1 0x20 DUP7 ADD PUSH2 0x50D JUMP JUMPDEST SWAP2 POP POP SWAP3 SWAP2 POP POP JUMP JUMPDEST PUSH1 0x0 PUSH1 0x20 DUP3 DUP5 SUB SLT ISZERO PUSH2 0x593 JUMPI PUSH2 0x592 PUSH2 0x43E JUMP JUMPDEST JUMPDEST PUSH1 0x0 DUP3 ADD CALLDATALOAD PUSH8 0xFFFFFFFFFFFFFFFF DUP2 GT ISZERO PUSH2 0x5B1 JUMPI PUSH2 0x5B0 PUSH2 0x443 JUMP JUMPDEST JUMPDEST PUSH2 0x5BD DUP5 DUP3 DUP6 ADD PUSH2 0x54F JUMP JUMPDEST SWAP2 POP POP SWAP3 SWAP2 POP POP JUMP JUMPDEST PUSH1 0x0 PUSH1 0x60 DUP3 ADD SWAP1 POP PUSH2 0x5DB PUSH1 0x0 DUP4 ADD DUP7 PUSH2 0x311 JUMP JUMPDEST PUSH2 0x5E8 PUSH1 0x20 DUP4 ADD DUP6 PUSH2 0x311 JUMP JUMPDEST PUSH2 0x5F5 PUSH1 0x40 DUP4 ADD DUP5 PUSH2 0x311 JUMP JUMPDEST SWAP5 SWAP4 POP POP POP POP JUMP JUMPDEST PUSH1 0x0 DUP2 MLOAD SWAP1 POP SWAP2 SWAP1 POP JUMP JUMPDEST PUSH1 0x0 DUP3 DUP3 MSTORE PUSH1 0x20 DUP3 ADD SWAP1 POP SWAP3 SWAP2 POP POP JUMP JUMPDEST PUSH1 0x0 PUSH2 0x624 DUP3 PUSH2 0x5FD JUMP JUMPDEST PUSH2 0x62E DUP2 DUP6 PUSH2 0x608 JUMP JUMPDEST SWAP4 POP PUSH2 0x63E DUP2 DUP6 PUSH1 0x20 DUP7 ADD PUSH2 0x357 JUMP JUMPDEST PUSH2 0x647 DUP2 PUSH2 0x38A JUMP JUMPDEST DUP5 ADD SWAP2 POP POP SWAP3 SWAP2 POP POP JUMP JUMPDEST PUSH1 0x0 PUSH1 0x20 DUP3 ADD SWAP1 POP DUP2 DUP2 SUB PUSH1 0x0 DUP4 ADD MSTORE PUSH2 0x66C DUP2 DUP5 PUSH2 0x619 JUMP JUMPDEST SWAP1 POP SWAP3 SWAP2 POP POP JUMP JUMPDEST PUSH32 0x4E487B7100000000000000000000000000000000000000000000000000000000 PUSH1 0x0 MSTORE PUSH1 0x11 PUSH1 0x4 MSTORE PUSH1 0x24 PUSH1 0x0 REVERT JUMPDEST PUSH1 0x0 PUSH2 0x6AE DUP3 PUSH2 0x307 JUMP JUMPDEST SWAP2 POP PUSH2 0x6B9 DUP4 PUSH2 0x307 JUMP JUMPDEST SWAP3 POP DUP3 PUSH32 0xFFFFFFFFFFFFFFFFFFFFFFFFFFFFFFFFFFFFFFFFFFFFFFFFFFFFFFFFFFFFFFFF SUB DUP3 GT ISZERO PUSH2 0x6EE JUMPI PUSH2 0x6ED PUSH2 0x674 JUMP JUMPDEST JUMPDEST DUP3 DUP3 ADD SWAP1 POP SWAP3 SWAP2 POP POP JUMP JUMPDEST PUSH1 0x0 PUSH2 0x704 DUP3 PUSH2 0x3F6 JUMP JUMPDEST SWAP2 POP PUSH2 0x70F DUP4 PUSH2 0x3F6 JUMP JUMPDEST SWAP3 POP DUP3 PUSH8 0xFFFFFFFFFFFFFFFF SUB DUP3 GT ISZERO PUSH2 0x72C JUMPI PUSH2 0x72B PUSH2 0x674 JUMP JUMPDEST JUMPDEST DUP3 DUP3 ADD SWAP1 POP SWAP3 SWAP2 POP POP JUMP JUMPDEST PUSH2 0x740 DUP2 PUSH2 0x307 JUMP JUMPDEST DUP2 EQ PUSH2 0x74B JUMPI PUSH1 0x0 DUP1 REVERT JUMPDEST POP JUMP JUMPDEST PUSH1 0x0 DUP2 MLOAD SWAP1 POP PUSH2 0x75D DUP2 PUSH2 0x737 JUMP JUMPDEST SWAP3 SWAP2 POP POP JUMP JUMPDEST PUSH1 0x0 DUP1 PUSH1 0x0 PUSH1 0x60 DUP5 DUP7 SUB SLT ISZERO PUSH2 0x77C JUMPI PUSH2 0x77B PUSH2 0x43E JUMP JUMPDEST JUMPDEST PUSH1 0x0 PUSH2 0x78A DUP7 DUP3 DUP8 ADD PUSH2 0x74E JUMP JUMPDEST SWAP4 POP POP PUSH1 0x20 PUSH2 0x79B DUP7 DUP3 DUP8 ADD PUSH2 0x74E JUMP JUMPDEST SWAP3 POP POP PUSH1 0x40 PUSH2 0x7AC DUP7 DUP3 DUP8 ADD PUSH2 0x74E JUMP JUMPDEST SWAP2 POP POP SWAP3 POP SWAP3 POP SWAP3 JUMP JUMPDEST PUSH1 0x0 DUP2 SWAP1 POP SWAP2 SWAP1 POP JUMP JUMPDEST PUSH1 0x0 PUSH1 0xFF DUP3 AND SWAP1 POP SWAP2 SWAP1 POP JUMP JUMPDEST PUSH1 0x0 DUP2 SWAP1 POP SWAP2 SWAP1 POP JUMP JUMPDEST PUSH1 0x0 PUSH2 0x7F2 PUSH2 0x7ED PUSH2 0x7E8 DUP5 PUSH2 0x7B6 JUMP JUMPDEST PUSH2 0x7CD JUMP JUMPDEST PUSH2 0x7C0 JUMP JUMPDEST SWAP1 POP SWAP2 SWAP1 POP JUMP JUMPDEST PUSH2 0x802 DUP2 PUSH2 0x7D7 JUMP JUMPDEST DUP3 MSTORE POP POP JUMP JUMPDEST PUSH1 0x0 DUP2 SWAP1 POP SWAP2 SWAP1 POP JUMP JUMPDEST PUSH1 0x0 PUSH2 0xFFFF DUP3 AND SWAP1 POP SWAP2 SWAP1 POP JUMP JUMPDEST PUSH1 0x0 PUSH2 0x83B PUSH2 0x836 PUSH2 0x831 DUP5 PUSH2 0x808 JUMP JUMPDEST PUSH2 0x7CD JUMP JUMPDEST PUSH2 0x812 JUMP JUMPDEST SWAP1 POP SWAP2 SWAP1 POP JUMP JUMPDEST PUSH2 0x84B DUP2 PUSH2 0x820 JUMP JUMPDEST DUP3 MSTORE POP POP JUMP JUMPDEST PUSH1 0x0 DUP2 SWAP1 POP SWAP2 SWAP1 POP JUMP JUMPDEST PUSH1 0x0 PUSH2 0x876 PUSH2 0x871 PUSH2 0x86C DUP5 PUSH2 0x851 JUMP JUMPDEST PUSH2 0x7CD JUMP JUMPDEST PUSH2 0x812 JUMP JUMPDEST SWAP1 POP SWAP2 SWAP1 POP JUMP JUMPDEST PUSH2 0x886 DUP2 PUSH2 0x85B JUMP JUMPDEST DUP3 MSTORE POP POP JUMP JUMPDEST PUSH1 0x0 PUSH1 0x60 DUP3 ADD SWAP1 POP PUSH2 0x8A1 PUSH1 0x0 DUP4 ADD DUP7 PUSH2 0x7F9 JUMP JUMPDEST PUSH2 0x8AE PUSH1 0x20 DUP4 ADD DUP6 PUSH2 0x842 JUMP JUMPDEST PUSH2 0x8BB PUSH1 0x40 DUP4 ADD DUP5 PUSH2 0x87D JUMP JUMPDEST SWAP5 SWAP4 POP POP POP POP JUMP INVALID LOG2 PUSH5 0x6970667358 0x22 SLT KECCAK256 0x29 SMOD SWAP6 SWAP13 DUP9 0xD6 0xDD PUSH18 0x779E13AAB007BC0BE57B92A387B5F26A1760 SWAP8 NUMBER SMOD 0x1E PUSH28 0x5D64736F6C634300080D003300000000000000000000000000000000 "
				},
				"gasEstimates": {
					"creation": {
						"codeDepositCost": "459400",
						"executionCost": "493",
						"totalCost": "459893"
					},
					"external": {
						"abiDecode(bytes)": "infinite",
						"abiEncode()": "infinite",
						"deadline()": "infinite",
						"keccak256test()": "infinite",
						"name()": "infinite",
						"snapshot()": "infinite",
						"time()": "infinite",
						"votingDelay()": "337",
						"votingPeriod()": "338"
					}
				},
				"methodIdentifiers": {
					"abiDecode(bytes)": "416bdc52",
					"abiEncode()": "6097e7a3",
					"deadline()": "29dcb0cf",
					"keccak256test()": "8c492a76",
					"name()": "06fdde03",
					"snapshot()": "9711715a",
					"time()": "16ada547",
					"votingDelay()": "3932abb1",
					"votingPeriod()": "02a251a3"
				}
			},
			"storageLayout": {
				"storage": [
					{
						"astId": 13,
						"contract": ".workspaces/default_workspace/unMiracle/test.sol:test",
						"label": "_testS",
						"offset": 0,
						"slot": "0",
						"type": "t_mapping(t_uint256,t_struct(testS)8_storage)"
					}
				],
				"types": {
					"t_mapping(t_uint256,t_struct(testS)8_storage)": {
						"encoding": "mapping",
						"key": "t_uint256",
						"label": "mapping(uint256 => struct test.testS)",
						"numberOfBytes": "32",
						"value": "t_struct(testS)8_storage"
					},
					"t_string_storage": {
						"encoding": "bytes",
						"label": "string",
						"numberOfBytes": "32"
					},
					"t_struct(testS)8_storage": {
						"encoding": "inplace",
						"label": "struct test.testS",
						"members": [
							{
								"astId": 5,
								"contract": ".workspaces/default_workspace/unMiracle/test.sol:test",
								"label": "name",
								"offset": 0,
								"slot": "0",
								"type": "t_string_storage"
							},
							{
								"astId": 7,
								"contract": ".workspaces/default_workspace/unMiracle/test.sol:test",
								"label": "num",
								"offset": 0,
								"slot": "1",
								"type": "t_uint256"
							}
						],
						"numberOfBytes": "64"
					},
					"t_uint256": {
						"encoding": "inplace",
						"label": "uint256",
						"numberOfBytes": "32"
					}
				}
			},
			"userdoc": {
				"kind": "user",
				"methods": {},
				"version": 1
			}
		}
	}
}