{
	".workspaces/default_workspace/unMiracle/UMRCmiracle.sol": {
		"UMRproposal": {
			"abi": [
				{
					"inputs": [
						{
							"internalType": "address",
							"name": "proposer",
							"type": "address"
						},
						{
							"internalType": "address",
							"name": "destination",
							"type": "address"
						},
						{
							"internalType": "bytes[]",
							"name": "calldatas",
							"type": "bytes[]"
						},
						{
							"internalType": "bytes32",
							"name": "descriptionHash",
							"type": "bytes32"
						}
					],
					"name": "hashProposal",
					"outputs": [
						{
							"internalType": "uint256",
							"name": "",
							"type": "uint256"
						}
					],
					"stateMutability": "pure",
					"type": "function"
				},
				{
					"inputs": [
						{
							"internalType": "address",
							"name": "proposer",
							"type": "address"
						},
						{
							"internalType": "uint256",
							"name": "donateDelay",
							"type": "uint256"
						},
						{
							"internalType": "uint256",
							"name": "donatePeriod",
							"type": "uint256"
						},
						{
							"internalType": "uint256",
							"name": "donateMinimum",
							"type": "uint256"
						},
						{
							"internalType": "address",
							"name": "destination",
							"type": "address"
						},
						{
							"internalType": "string",
							"name": "description",
							"type": "string"
						},
						{
							"internalType": "bytes[]",
							"name": "calldatas",
							"type": "bytes[]"
						}
					],
					"name": "proposal",
					"outputs": [
						{
							"internalType": "uint256",
							"name": "",
							"type": "uint256"
						}
					],
					"stateMutability": "nonpayable",
					"type": "function"
				}
			],
			"devdoc": {
				"kind": "dev",
				"methods": {},
				"version": 1
			},
			"evm": {
				"assembly": "    /* \".workspaces/default_workspace/unMiracle/UMRCmiracle.sol\":85:1679  contract UMRproposal {... */\n  mstore(0x40, 0x80)\n  callvalue\n  dup1\n  iszero\n  tag_1\n  jumpi\n  0x00\n  dup1\n  revert\ntag_1:\n  pop\n  dataSize(sub_0)\n  dup1\n  dataOffset(sub_0)\n  0x00\n  codecopy\n  0x00\n  return\nstop\n\nsub_0: assembly {\n        /* \".workspaces/default_workspace/unMiracle/UMRCmiracle.sol\":85:1679  contract UMRproposal {... */\n      mstore(0x40, 0x80)\n      callvalue\n      dup1\n      iszero\n      tag_1\n      jumpi\n      0x00\n      dup1\n      revert\n    tag_1:\n      pop\n      jumpi(tag_2, lt(calldatasize, 0x04))\n      shr(0xe0, calldataload(0x00))\n      dup1\n      0x42f9d5be\n      eq\n      tag_3\n      jumpi\n      dup1\n      0xee4d6020\n      eq\n      tag_4\n      jumpi\n    tag_2:\n      0x00\n      dup1\n      revert\n        /* \".workspaces/default_workspace/unMiracle/UMRCmiracle.sol\":680:1677  function proposal(... */\n    tag_3:\n      tag_5\n      0x04\n      dup1\n      calldatasize\n      sub\n      dup2\n      add\n      swap1\n      tag_6\n      swap2\n      swap1\n      tag_7\n      jump\t// in\n    tag_6:\n      tag_8\n      jump\t// in\n    tag_5:\n      mload(0x40)\n      tag_9\n      swap2\n      swap1\n      tag_10\n      jump\t// in\n    tag_9:\n      mload(0x40)\n      dup1\n      swap2\n      sub\n      swap1\n      return\n        /* \".workspaces/default_workspace/unMiracle/UMRCmiracle.sol\":390:674  function hashProposal(... */\n    tag_4:\n      tag_11\n      0x04\n      dup1\n      calldatasize\n      sub\n      dup2\n      add\n      swap1\n      tag_12\n      swap2\n      swap1\n      tag_13\n      jump\t// in\n    tag_12:\n      tag_14\n      jump\t// in\n    tag_11:\n      mload(0x40)\n      tag_15\n      swap2\n      swap1\n      tag_10\n      jump\t// in\n    tag_15:\n      mload(0x40)\n      dup1\n      swap2\n      sub\n      swap1\n      return\n        /* \".workspaces/default_workspace/unMiracle/UMRCmiracle.sol\":680:1677  function proposal(... */\n    tag_8:\n        /* \".workspaces/default_workspace/unMiracle/UMRCmiracle.sol\":1136:1143  uint256 */\n      0x00\n        /* \".workspaces/default_workspace/unMiracle/UMRCmiracle.sol\":1187:1205  uint256 proposalId */\n      dup1\n        /* \".workspaces/default_workspace/unMiracle/UMRCmiracle.sol\":1208:1284  hashProposal(proposer,destination, calldatas, keccak256(bytes(description))) */\n      tag_17\n        /* \".workspaces/default_workspace/unMiracle/UMRCmiracle.sol\":1221:1229  proposer */\n      dup10\n        /* \".workspaces/default_workspace/unMiracle/UMRCmiracle.sol\":1230:1241  destination */\n      dup7\n        /* \".workspaces/default_workspace/unMiracle/UMRCmiracle.sol\":1243:1252  calldatas */\n      dup6\n        /* \".workspaces/default_workspace/unMiracle/UMRCmiracle.sol\":1270:1281  description */\n      dup8\n        /* \".workspaces/default_workspace/unMiracle/UMRCmiracle.sol\":1254:1283  keccak256(bytes(description)) */\n      dup1\n      mload\n      swap1\n      0x20\n      add\n      keccak256\n        /* \".workspaces/default_workspace/unMiracle/UMRCmiracle.sol\":1208:1220  hashProposal */\n      tag_14\n        /* \".workspaces/default_workspace/unMiracle/UMRCmiracle.sol\":1208:1284  hashProposal(proposer,destination, calldatas, keccak256(bytes(description))) */\n      jump\t// in\n    tag_17:\n        /* \".workspaces/default_workspace/unMiracle/UMRCmiracle.sol\":1187:1284  uint256 proposalId = hashProposal(proposer,destination, calldatas, keccak256(bytes(description))) */\n      swap1\n      pop\n        /* \".workspaces/default_workspace/unMiracle/UMRCmiracle.sol\":1303:1332  ProposalCore storage proposal */\n      0x00\n        /* \".workspaces/default_workspace/unMiracle/UMRCmiracle.sol\":1335:1345  _proposals */\n      dup1\n        /* \".workspaces/default_workspace/unMiracle/UMRCmiracle.sol\":1335:1357  _proposals[proposalId] */\n      0x00\n        /* \".workspaces/default_workspace/unMiracle/UMRCmiracle.sol\":1346:1356  proposalId */\n      dup4\n        /* \".workspaces/default_workspace/unMiracle/UMRCmiracle.sol\":1335:1357  _proposals[proposalId] */\n      dup2\n      mstore\n      0x20\n      add\n      swap1\n      dup2\n      mstore\n      0x20\n      add\n      0x00\n      keccak256\n        /* \".workspaces/default_workspace/unMiracle/UMRCmiracle.sol\":1303:1357  ProposalCore storage proposal = _proposals[proposalId] */\n      swap1\n      pop\n        /* \".workspaces/default_workspace/unMiracle/UMRCmiracle.sol\":1368:1384  uint256 snapshot */\n      0x00\n        /* \".workspaces/default_workspace/unMiracle/UMRCmiracle.sol\":1424:1426  60 */\n      0x3c\n        /* \".workspaces/default_workspace/unMiracle/UMRCmiracle.sol\":1421:1423  60 */\n      dup1\n        /* \".workspaces/default_workspace/unMiracle/UMRCmiracle.sol\":1418:1420  24 */\n      0x18\n        /* \".workspaces/default_workspace/unMiracle/UMRCmiracle.sol\":1406:1417  donateDelay */\n      dup13\n        /* \".workspaces/default_workspace/unMiracle/UMRCmiracle.sol\":1406:1420  donateDelay*24 */\n      tag_18\n      swap2\n      swap1\n      tag_19\n      jump\t// in\n    tag_18:\n        /* \".workspaces/default_workspace/unMiracle/UMRCmiracle.sol\":1406:1423  donateDelay*24*60 */\n      tag_20\n      swap2\n      swap1\n      tag_19\n      jump\t// in\n    tag_20:\n        /* \".workspaces/default_workspace/unMiracle/UMRCmiracle.sol\":1406:1426  donateDelay*24*60*60 */\n      tag_21\n      swap2\n      swap1\n      tag_19\n      jump\t// in\n    tag_21:\n        /* \".workspaces/default_workspace/unMiracle/UMRCmiracle.sol\":1388:1403  block.timestamp */\n      timestamp\n        /* \".workspaces/default_workspace/unMiracle/UMRCmiracle.sol\":1388:1426  block.timestamp + donateDelay*24*60*60 */\n      tag_22\n      swap2\n      swap1\n      tag_23\n      jump\t// in\n    tag_22:\n        /* \".workspaces/default_workspace/unMiracle/UMRCmiracle.sol\":1368:1426  uint256 snapshot =  block.timestamp + donateDelay*24*60*60 */\n      swap1\n      pop\n        /* \".workspaces/default_workspace/unMiracle/UMRCmiracle.sol\":1436:1452  uint256 deadline */\n      0x00\n        /* \".workspaces/default_workspace/unMiracle/UMRCmiracle.sol\":1485:1487  60 */\n      0x3c\n        /* \".workspaces/default_workspace/unMiracle/UMRCmiracle.sol\":1482:1484  60 */\n      dup1\n        /* \".workspaces/default_workspace/unMiracle/UMRCmiracle.sol\":1479:1481  24 */\n      0x18\n        /* \".workspaces/default_workspace/unMiracle/UMRCmiracle.sol\":1466:1478  donatePeriod */\n      dup13\n        /* \".workspaces/default_workspace/unMiracle/UMRCmiracle.sol\":1466:1481  donatePeriod*24 */\n      tag_24\n      swap2\n      swap1\n      tag_19\n      jump\t// in\n    tag_24:\n        /* \".workspaces/default_workspace/unMiracle/UMRCmiracle.sol\":1466:1484  donatePeriod*24*60 */\n      tag_25\n      swap2\n      swap1\n      tag_19\n      jump\t// in\n    tag_25:\n        /* \".workspaces/default_workspace/unMiracle/UMRCmiracle.sol\":1466:1487  donatePeriod*24*60*60 */\n      tag_26\n      swap2\n      swap1\n      tag_19\n      jump\t// in\n    tag_26:\n        /* \".workspaces/default_workspace/unMiracle/UMRCmiracle.sol\":1455:1463  snapshot */\n      dup3\n        /* \".workspaces/default_workspace/unMiracle/UMRCmiracle.sol\":1455:1487  snapshot + donatePeriod*24*60*60 */\n      tag_27\n      swap2\n      swap1\n      tag_23\n      jump\t// in\n    tag_27:\n        /* \".workspaces/default_workspace/unMiracle/UMRCmiracle.sol\":1436:1487  uint256 deadline = snapshot + donatePeriod*24*60*60 */\n      swap1\n      pop\n        /* \".workspaces/default_workspace/unMiracle/UMRCmiracle.sol\":1498:1542  proposal.donationStart.setDeadline(snapshot) */\n      tag_28\n        /* \".workspaces/default_workspace/unMiracle/UMRCmiracle.sol\":1533:1541  snapshot */\n      dup3\n        /* \".workspaces/default_workspace/unMiracle/UMRCmiracle.sol\":1498:1506  proposal */\n      dup5\n        /* \".workspaces/default_workspace/unMiracle/UMRCmiracle.sol\":1498:1520  proposal.donationStart */\n      0x00\n      add\n        /* \".workspaces/default_workspace/unMiracle/UMRCmiracle.sol\":1498:1532  proposal.donationStart.setDeadline */\n      tag_29\n      swap1\n        /* \".workspaces/default_workspace/unMiracle/UMRCmiracle.sol\":1498:1542  proposal.donationStart.setDeadline(snapshot) */\n      swap2\n      swap1\n      0xffffffff\n      and\n      jump\t// in\n    tag_28:\n        /* \".workspaces/default_workspace/unMiracle/UMRCmiracle.sol\":1552:1594  proposal.donationEnd.setDeadline(deadline) */\n      tag_30\n        /* \".workspaces/default_workspace/unMiracle/UMRCmiracle.sol\":1585:1593  deadline */\n      dup2\n        /* \".workspaces/default_workspace/unMiracle/UMRCmiracle.sol\":1552:1560  proposal */\n      dup5\n        /* \".workspaces/default_workspace/unMiracle/UMRCmiracle.sol\":1552:1572  proposal.donationEnd */\n      0x01\n      add\n        /* \".workspaces/default_workspace/unMiracle/UMRCmiracle.sol\":1552:1584  proposal.donationEnd.setDeadline */\n      tag_29\n      swap1\n        /* \".workspaces/default_workspace/unMiracle/UMRCmiracle.sol\":1552:1594  proposal.donationEnd.setDeadline(deadline) */\n      swap2\n      swap1\n      0xffffffff\n      and\n      jump\t// in\n    tag_30:\n        /* \".workspaces/default_workspace/unMiracle/UMRCmiracle.sol\":1629:1642  donateMinimum */\n      dup9\n        /* \".workspaces/default_workspace/unMiracle/UMRCmiracle.sol\":1604:1612  proposal */\n      dup4\n        /* \".workspaces/default_workspace/unMiracle/UMRCmiracle.sol\":1604:1626  proposal.donateMinimum */\n      0x02\n      add\n        /* \".workspaces/default_workspace/unMiracle/UMRCmiracle.sol\":1604:1642  proposal.donateMinimum = donateMinimum */\n      dup2\n      swap1\n      sstore\n      pop\n        /* \".workspaces/default_workspace/unMiracle/UMRCmiracle.sol\":1660:1670  proposalId */\n      dup4\n        /* \".workspaces/default_workspace/unMiracle/UMRCmiracle.sol\":1653:1670  return proposalId */\n      swap5\n      pop\n      pop\n      pop\n      pop\n      pop\n        /* \".workspaces/default_workspace/unMiracle/UMRCmiracle.sol\":680:1677  function proposal(... */\n      swap8\n      swap7\n      pop\n      pop\n      pop\n      pop\n      pop\n      pop\n      pop\n      jump\t// out\n        /* \".workspaces/default_workspace/unMiracle/UMRCmiracle.sol\":390:674  function hashProposal(... */\n    tag_14:\n        /* \".workspaces/default_workspace/unMiracle/UMRCmiracle.sol\":561:568  uint256 */\n      0x00\n        /* \".workspaces/default_workspace/unMiracle/UMRCmiracle.sol\":616:624  proposer */\n      dup5\n        /* \".workspaces/default_workspace/unMiracle/UMRCmiracle.sol\":625:636  destination */\n      dup5\n        /* \".workspaces/default_workspace/unMiracle/UMRCmiracle.sol\":638:647  calldatas */\n      dup5\n        /* \".workspaces/default_workspace/unMiracle/UMRCmiracle.sol\":649:664  descriptionHash */\n      dup5\n        /* \".workspaces/default_workspace/unMiracle/UMRCmiracle.sol\":605:665  abi.encode(proposer,destination, calldatas, descriptionHash) */\n      add(0x20, mload(0x40))\n      tag_32\n      swap5\n      swap4\n      swap3\n      swap2\n      swap1\n      tag_33\n      jump\t// in\n    tag_32:\n      mload(0x40)\n      0x20\n      dup2\n      dup4\n      sub\n      sub\n      dup2\n      mstore\n      swap1\n      0x40\n      mstore\n        /* \".workspaces/default_workspace/unMiracle/UMRCmiracle.sol\":595:666  keccak256(abi.encode(proposer,destination, calldatas, descriptionHash)) */\n      dup1\n      mload\n      swap1\n      0x20\n      add\n      keccak256\n        /* \".workspaces/default_workspace/unMiracle/UMRCmiracle.sol\":587:667  uint256(keccak256(abi.encode(proposer,destination, calldatas, descriptionHash))) */\n      0x00\n      shr\n        /* \".workspaces/default_workspace/unMiracle/UMRCmiracle.sol\":580:667  return uint256(keccak256(abi.encode(proposer,destination, calldatas, descriptionHash))) */\n      swap1\n      pop\n        /* \".workspaces/default_workspace/unMiracle/UMRCmiracle.sol\":390:674  function hashProposal(... */\n      swap5\n      swap4\n      pop\n      pop\n      pop\n      pop\n      jump\t// out\n        /* \".workspaces/default_workspace/unMiracle/utils/time.sol\":320:435  function setDeadline(Timestamp storage time, uint256 timestamp) internal {... */\n    tag_29:\n        /* \".workspaces/default_workspace/unMiracle/utils/time.sol\":419:428  timestamp */\n      dup1\n        /* \".workspaces/default_workspace/unMiracle/utils/time.sol\":403:407  time */\n      dup3\n        /* \".workspaces/default_workspace/unMiracle/utils/time.sol\":403:416  time.deadline */\n      0x00\n      add\n        /* \".workspaces/default_workspace/unMiracle/utils/time.sol\":403:428  time.deadline = timestamp */\n      dup2\n      swap1\n      sstore\n      pop\n        /* \".workspaces/default_workspace/unMiracle/utils/time.sol\":320:435  function setDeadline(Timestamp storage time, uint256 timestamp) internal {... */\n      pop\n      pop\n      jump\t// out\n        /* \"#utility.yul\":7:82   */\n    tag_35:\n        /* \"#utility.yul\":40:46   */\n      0x00\n        /* \"#utility.yul\":73:75   */\n      0x40\n        /* \"#utility.yul\":67:76   */\n      mload\n        /* \"#utility.yul\":57:76   */\n      swap1\n      pop\n        /* \"#utility.yul\":7:82   */\n      swap1\n      jump\t// out\n        /* \"#utility.yul\":88:205   */\n    tag_36:\n        /* \"#utility.yul\":197:198   */\n      0x00\n        /* \"#utility.yul\":194:195   */\n      dup1\n        /* \"#utility.yul\":187:199   */\n      revert\n        /* \"#utility.yul\":211:328   */\n    tag_37:\n        /* \"#utility.yul\":320:321   */\n      0x00\n        /* \"#utility.yul\":317:318   */\n      dup1\n        /* \"#utility.yul\":310:322   */\n      revert\n        /* \"#utility.yul\":334:460   */\n    tag_38:\n        /* \"#utility.yul\":371:378   */\n      0x00\n        /* \"#utility.yul\":411:453   */\n      0xffffffffffffffffffffffffffffffffffffffff\n        /* \"#utility.yul\":404:409   */\n      dup3\n        /* \"#utility.yul\":400:454   */\n      and\n        /* \"#utility.yul\":389:454   */\n      swap1\n      pop\n        /* \"#utility.yul\":334:460   */\n      swap2\n      swap1\n      pop\n      jump\t// out\n        /* \"#utility.yul\":466:562   */\n    tag_39:\n        /* \"#utility.yul\":503:510   */\n      0x00\n        /* \"#utility.yul\":532:556   */\n      tag_85\n        /* \"#utility.yul\":550:555   */\n      dup3\n        /* \"#utility.yul\":532:556   */\n      tag_38\n      jump\t// in\n    tag_85:\n        /* \"#utility.yul\":521:556   */\n      swap1\n      pop\n        /* \"#utility.yul\":466:562   */\n      swap2\n      swap1\n      pop\n      jump\t// out\n        /* \"#utility.yul\":568:690   */\n    tag_40:\n        /* \"#utility.yul\":641:665   */\n      tag_87\n        /* \"#utility.yul\":659:664   */\n      dup2\n        /* \"#utility.yul\":641:665   */\n      tag_39\n      jump\t// in\n    tag_87:\n        /* \"#utility.yul\":634:639   */\n      dup2\n        /* \"#utility.yul\":631:666   */\n      eq\n        /* \"#utility.yul\":621:684   */\n      tag_88\n      jumpi\n        /* \"#utility.yul\":680:681   */\n      0x00\n        /* \"#utility.yul\":677:678   */\n      dup1\n        /* \"#utility.yul\":670:682   */\n      revert\n        /* \"#utility.yul\":621:684   */\n    tag_88:\n        /* \"#utility.yul\":568:690   */\n      pop\n      jump\t// out\n        /* \"#utility.yul\":696:835   */\n    tag_41:\n        /* \"#utility.yul\":742:747   */\n      0x00\n        /* \"#utility.yul\":780:786   */\n      dup2\n        /* \"#utility.yul\":767:787   */\n      calldataload\n        /* \"#utility.yul\":758:787   */\n      swap1\n      pop\n        /* \"#utility.yul\":796:829   */\n      tag_90\n        /* \"#utility.yul\":823:828   */\n      dup2\n        /* \"#utility.yul\":796:829   */\n      tag_40\n      jump\t// in\n    tag_90:\n        /* \"#utility.yul\":696:835   */\n      swap3\n      swap2\n      pop\n      pop\n      jump\t// out\n        /* \"#utility.yul\":841:918   */\n    tag_42:\n        /* \"#utility.yul\":878:885   */\n      0x00\n        /* \"#utility.yul\":907:912   */\n      dup2\n        /* \"#utility.yul\":896:912   */\n      swap1\n      pop\n        /* \"#utility.yul\":841:918   */\n      swap2\n      swap1\n      pop\n      jump\t// out\n        /* \"#utility.yul\":924:1046   */\n    tag_43:\n        /* \"#utility.yul\":997:1021   */\n      tag_93\n        /* \"#utility.yul\":1015:1020   */\n      dup2\n        /* \"#utility.yul\":997:1021   */\n      tag_42\n      jump\t// in\n    tag_93:\n        /* \"#utility.yul\":990:995   */\n      dup2\n        /* \"#utility.yul\":987:1022   */\n      eq\n        /* \"#utility.yul\":977:1040   */\n      tag_94\n      jumpi\n        /* \"#utility.yul\":1036:1037   */\n      0x00\n        /* \"#utility.yul\":1033:1034   */\n      dup1\n        /* \"#utility.yul\":1026:1038   */\n      revert\n        /* \"#utility.yul\":977:1040   */\n    tag_94:\n        /* \"#utility.yul\":924:1046   */\n      pop\n      jump\t// out\n        /* \"#utility.yul\":1052:1191   */\n    tag_44:\n        /* \"#utility.yul\":1098:1103   */\n      0x00\n        /* \"#utility.yul\":1136:1142   */\n      dup2\n        /* \"#utility.yul\":1123:1143   */\n      calldataload\n        /* \"#utility.yul\":1114:1143   */\n      swap1\n      pop\n        /* \"#utility.yul\":1152:1185   */\n      tag_96\n        /* \"#utility.yul\":1179:1184   */\n      dup2\n        /* \"#utility.yul\":1152:1185   */\n      tag_43\n      jump\t// in\n    tag_96:\n        /* \"#utility.yul\":1052:1191   */\n      swap3\n      swap2\n      pop\n      pop\n      jump\t// out\n        /* \"#utility.yul\":1197:1314   */\n    tag_45:\n        /* \"#utility.yul\":1306:1307   */\n      0x00\n        /* \"#utility.yul\":1303:1304   */\n      dup1\n        /* \"#utility.yul\":1296:1308   */\n      revert\n        /* \"#utility.yul\":1320:1437   */\n    tag_46:\n        /* \"#utility.yul\":1429:1430   */\n      0x00\n        /* \"#utility.yul\":1426:1427   */\n      dup1\n        /* \"#utility.yul\":1419:1431   */\n      revert\n        /* \"#utility.yul\":1443:1545   */\n    tag_47:\n        /* \"#utility.yul\":1484:1490   */\n      0x00\n        /* \"#utility.yul\":1535:1537   */\n      0x1f\n        /* \"#utility.yul\":1531:1538   */\n      not\n        /* \"#utility.yul\":1526:1528   */\n      0x1f\n        /* \"#utility.yul\":1519:1524   */\n      dup4\n        /* \"#utility.yul\":1515:1529   */\n      add\n        /* \"#utility.yul\":1511:1539   */\n      and\n        /* \"#utility.yul\":1501:1539   */\n      swap1\n      pop\n        /* \"#utility.yul\":1443:1545   */\n      swap2\n      swap1\n      pop\n      jump\t// out\n        /* \"#utility.yul\":1551:1731   */\n    tag_48:\n        /* \"#utility.yul\":1599:1676   */\n      0x4e487b7100000000000000000000000000000000000000000000000000000000\n        /* \"#utility.yul\":1596:1597   */\n      0x00\n        /* \"#utility.yul\":1589:1677   */\n      mstore\n        /* \"#utility.yul\":1696:1700   */\n      0x41\n        /* \"#utility.yul\":1693:1694   */\n      0x04\n        /* \"#utility.yul\":1686:1701   */\n      mstore\n        /* \"#utility.yul\":1720:1724   */\n      0x24\n        /* \"#utility.yul\":1717:1718   */\n      0x00\n        /* \"#utility.yul\":1710:1725   */\n      revert\n        /* \"#utility.yul\":1737:2018   */\n    tag_49:\n        /* \"#utility.yul\":1820:1847   */\n      tag_102\n        /* \"#utility.yul\":1842:1846   */\n      dup3\n        /* \"#utility.yul\":1820:1847   */\n      tag_47\n      jump\t// in\n    tag_102:\n        /* \"#utility.yul\":1812:1818   */\n      dup2\n        /* \"#utility.yul\":1808:1848   */\n      add\n        /* \"#utility.yul\":1950:1956   */\n      dup2\n        /* \"#utility.yul\":1938:1948   */\n      dup2\n        /* \"#utility.yul\":1935:1957   */\n      lt\n        /* \"#utility.yul\":1914:1932   */\n      0xffffffffffffffff\n        /* \"#utility.yul\":1902:1912   */\n      dup3\n        /* \"#utility.yul\":1899:1933   */\n      gt\n        /* \"#utility.yul\":1896:1958   */\n      or\n        /* \"#utility.yul\":1893:1981   */\n      iszero\n      tag_103\n      jumpi\n        /* \"#utility.yul\":1961:1979   */\n      tag_104\n      tag_48\n      jump\t// in\n    tag_104:\n        /* \"#utility.yul\":1893:1981   */\n    tag_103:\n        /* \"#utility.yul\":2001:2011   */\n      dup1\n        /* \"#utility.yul\":1997:1999   */\n      0x40\n        /* \"#utility.yul\":1990:2012   */\n      mstore\n        /* \"#utility.yul\":1780:2018   */\n      pop\n        /* \"#utility.yul\":1737:2018   */\n      pop\n      pop\n      jump\t// out\n        /* \"#utility.yul\":2024:2153   */\n    tag_50:\n        /* \"#utility.yul\":2058:2064   */\n      0x00\n        /* \"#utility.yul\":2085:2105   */\n      tag_106\n      tag_35\n      jump\t// in\n    tag_106:\n        /* \"#utility.yul\":2075:2105   */\n      swap1\n      pop\n        /* \"#utility.yul\":2114:2147   */\n      tag_107\n        /* \"#utility.yul\":2142:2146   */\n      dup3\n        /* \"#utility.yul\":2134:2140   */\n      dup3\n        /* \"#utility.yul\":2114:2147   */\n      tag_49\n      jump\t// in\n    tag_107:\n        /* \"#utility.yul\":2024:2153   */\n      swap2\n      swap1\n      pop\n      jump\t// out\n        /* \"#utility.yul\":2159:2467   */\n    tag_51:\n        /* \"#utility.yul\":2221:2225   */\n      0x00\n        /* \"#utility.yul\":2311:2329   */\n      0xffffffffffffffff\n        /* \"#utility.yul\":2303:2309   */\n      dup3\n        /* \"#utility.yul\":2300:2330   */\n      gt\n        /* \"#utility.yul\":2297:2353   */\n      iszero\n      tag_109\n      jumpi\n        /* \"#utility.yul\":2333:2351   */\n      tag_110\n      tag_48\n      jump\t// in\n    tag_110:\n        /* \"#utility.yul\":2297:2353   */\n    tag_109:\n        /* \"#utility.yul\":2371:2400   */\n      tag_111\n        /* \"#utility.yul\":2393:2399   */\n      dup3\n        /* \"#utility.yul\":2371:2400   */\n      tag_47\n      jump\t// in\n    tag_111:\n        /* \"#utility.yul\":2363:2400   */\n      swap1\n      pop\n        /* \"#utility.yul\":2455:2459   */\n      0x20\n        /* \"#utility.yul\":2449:2453   */\n      dup2\n        /* \"#utility.yul\":2445:2460   */\n      add\n        /* \"#utility.yul\":2437:2460   */\n      swap1\n      pop\n        /* \"#utility.yul\":2159:2467   */\n      swap2\n      swap1\n      pop\n      jump\t// out\n        /* \"#utility.yul\":2473:2627   */\n    tag_52:\n        /* \"#utility.yul\":2557:2563   */\n      dup3\n        /* \"#utility.yul\":2552:2555   */\n      dup2\n        /* \"#utility.yul\":2547:2550   */\n      dup4\n        /* \"#utility.yul\":2534:2564   */\n      calldatacopy\n        /* \"#utility.yul\":2619:2620   */\n      0x00\n        /* \"#utility.yul\":2610:2616   */\n      dup4\n        /* \"#utility.yul\":2605:2608   */\n      dup4\n        /* \"#utility.yul\":2601:2617   */\n      add\n        /* \"#utility.yul\":2594:2621   */\n      mstore\n        /* \"#utility.yul\":2473:2627   */\n      pop\n      pop\n      pop\n      jump\t// out\n        /* \"#utility.yul\":2633:3045   */\n    tag_53:\n        /* \"#utility.yul\":2711:2716   */\n      0x00\n        /* \"#utility.yul\":2736:2802   */\n      tag_114\n        /* \"#utility.yul\":2752:2801   */\n      tag_115\n        /* \"#utility.yul\":2794:2800   */\n      dup5\n        /* \"#utility.yul\":2752:2801   */\n      tag_51\n      jump\t// in\n    tag_115:\n        /* \"#utility.yul\":2736:2802   */\n      tag_50\n      jump\t// in\n    tag_114:\n        /* \"#utility.yul\":2727:2802   */\n      swap1\n      pop\n        /* \"#utility.yul\":2825:2831   */\n      dup3\n        /* \"#utility.yul\":2818:2823   */\n      dup2\n        /* \"#utility.yul\":2811:2832   */\n      mstore\n        /* \"#utility.yul\":2863:2867   */\n      0x20\n        /* \"#utility.yul\":2856:2861   */\n      dup2\n        /* \"#utility.yul\":2852:2868   */\n      add\n        /* \"#utility.yul\":2901:2904   */\n      dup5\n        /* \"#utility.yul\":2892:2898   */\n      dup5\n        /* \"#utility.yul\":2887:2890   */\n      dup5\n        /* \"#utility.yul\":2883:2899   */\n      add\n        /* \"#utility.yul\":2880:2905   */\n      gt\n        /* \"#utility.yul\":2877:2989   */\n      iszero\n      tag_116\n      jumpi\n        /* \"#utility.yul\":2908:2987   */\n      tag_117\n      tag_46\n      jump\t// in\n    tag_117:\n        /* \"#utility.yul\":2877:2989   */\n    tag_116:\n        /* \"#utility.yul\":2998:3039   */\n      tag_118\n        /* \"#utility.yul\":3032:3038   */\n      dup5\n        /* \"#utility.yul\":3027:3030   */\n      dup3\n        /* \"#utility.yul\":3022:3025   */\n      dup6\n        /* \"#utility.yul\":2998:3039   */\n      tag_52\n      jump\t// in\n    tag_118:\n        /* \"#utility.yul\":2717:3045   */\n      pop\n        /* \"#utility.yul\":2633:3045   */\n      swap4\n      swap3\n      pop\n      pop\n      pop\n      jump\t// out\n        /* \"#utility.yul\":3065:3405   */\n    tag_54:\n        /* \"#utility.yul\":3121:3126   */\n      0x00\n        /* \"#utility.yul\":3170:3173   */\n      dup3\n        /* \"#utility.yul\":3163:3167   */\n      0x1f\n        /* \"#utility.yul\":3155:3161   */\n      dup4\n        /* \"#utility.yul\":3151:3168   */\n      add\n        /* \"#utility.yul\":3147:3174   */\n      slt\n        /* \"#utility.yul\":3137:3259   */\n      tag_120\n      jumpi\n        /* \"#utility.yul\":3178:3257   */\n      tag_121\n      tag_45\n      jump\t// in\n    tag_121:\n        /* \"#utility.yul\":3137:3259   */\n    tag_120:\n        /* \"#utility.yul\":3295:3301   */\n      dup2\n        /* \"#utility.yul\":3282:3302   */\n      calldataload\n        /* \"#utility.yul\":3320:3399   */\n      tag_122\n        /* \"#utility.yul\":3395:3398   */\n      dup5\n        /* \"#utility.yul\":3387:3393   */\n      dup3\n        /* \"#utility.yul\":3380:3384   */\n      0x20\n        /* \"#utility.yul\":3372:3378   */\n      dup7\n        /* \"#utility.yul\":3368:3385   */\n      add\n        /* \"#utility.yul\":3320:3399   */\n      tag_53\n      jump\t// in\n    tag_122:\n        /* \"#utility.yul\":3311:3399   */\n      swap2\n      pop\n        /* \"#utility.yul\":3127:3405   */\n      pop\n        /* \"#utility.yul\":3065:3405   */\n      swap3\n      swap2\n      pop\n      pop\n      jump\t// out\n        /* \"#utility.yul\":3411:3731   */\n    tag_55:\n        /* \"#utility.yul\":3497:3501   */\n      0x00\n        /* \"#utility.yul\":3587:3605   */\n      0xffffffffffffffff\n        /* \"#utility.yul\":3579:3585   */\n      dup3\n        /* \"#utility.yul\":3576:3606   */\n      gt\n        /* \"#utility.yul\":3573:3629   */\n      iszero\n      tag_124\n      jumpi\n        /* \"#utility.yul\":3609:3627   */\n      tag_125\n      tag_48\n      jump\t// in\n    tag_125:\n        /* \"#utility.yul\":3573:3629   */\n    tag_124:\n        /* \"#utility.yul\":3659:3663   */\n      0x20\n        /* \"#utility.yul\":3651:3657   */\n      dup3\n        /* \"#utility.yul\":3647:3664   */\n      mul\n        /* \"#utility.yul\":3639:3664   */\n      swap1\n      pop\n        /* \"#utility.yul\":3719:3723   */\n      0x20\n        /* \"#utility.yul\":3713:3717   */\n      dup2\n        /* \"#utility.yul\":3709:3724   */\n      add\n        /* \"#utility.yul\":3701:3724   */\n      swap1\n      pop\n        /* \"#utility.yul\":3411:3731   */\n      swap2\n      swap1\n      pop\n      jump\t// out\n        /* \"#utility.yul\":3737:3854   */\n    tag_56:\n        /* \"#utility.yul\":3846:3847   */\n      0x00\n        /* \"#utility.yul\":3843:3844   */\n      dup1\n        /* \"#utility.yul\":3836:3848   */\n      revert\n        /* \"#utility.yul\":3860:4167   */\n    tag_57:\n        /* \"#utility.yul\":3921:3925   */\n      0x00\n        /* \"#utility.yul\":4011:4029   */\n      0xffffffffffffffff\n        /* \"#utility.yul\":4003:4009   */\n      dup3\n        /* \"#utility.yul\":4000:4030   */\n      gt\n        /* \"#utility.yul\":3997:4053   */\n      iszero\n      tag_128\n      jumpi\n        /* \"#utility.yul\":4033:4051   */\n      tag_129\n      tag_48\n      jump\t// in\n    tag_129:\n        /* \"#utility.yul\":3997:4053   */\n    tag_128:\n        /* \"#utility.yul\":4071:4100   */\n      tag_130\n        /* \"#utility.yul\":4093:4099   */\n      dup3\n        /* \"#utility.yul\":4071:4100   */\n      tag_47\n      jump\t// in\n    tag_130:\n        /* \"#utility.yul\":4063:4100   */\n      swap1\n      pop\n        /* \"#utility.yul\":4155:4159   */\n      0x20\n        /* \"#utility.yul\":4149:4153   */\n      dup2\n        /* \"#utility.yul\":4145:4160   */\n      add\n        /* \"#utility.yul\":4137:4160   */\n      swap1\n      pop\n        /* \"#utility.yul\":3860:4167   */\n      swap2\n      swap1\n      pop\n      jump\t// out\n        /* \"#utility.yul\":4173:4583   */\n    tag_58:\n        /* \"#utility.yul\":4250:4255   */\n      0x00\n        /* \"#utility.yul\":4275:4340   */\n      tag_132\n        /* \"#utility.yul\":4291:4339   */\n      tag_133\n        /* \"#utility.yul\":4332:4338   */\n      dup5\n        /* \"#utility.yul\":4291:4339   */\n      tag_57\n      jump\t// in\n    tag_133:\n        /* \"#utility.yul\":4275:4340   */\n      tag_50\n      jump\t// in\n    tag_132:\n        /* \"#utility.yul\":4266:4340   */\n      swap1\n      pop\n        /* \"#utility.yul\":4363:4369   */\n      dup3\n        /* \"#utility.yul\":4356:4361   */\n      dup2\n        /* \"#utility.yul\":4349:4370   */\n      mstore\n        /* \"#utility.yul\":4401:4405   */\n      0x20\n        /* \"#utility.yul\":4394:4399   */\n      dup2\n        /* \"#utility.yul\":4390:4406   */\n      add\n        /* \"#utility.yul\":4439:4442   */\n      dup5\n        /* \"#utility.yul\":4430:4436   */\n      dup5\n        /* \"#utility.yul\":4425:4428   */\n      dup5\n        /* \"#utility.yul\":4421:4437   */\n      add\n        /* \"#utility.yul\":4418:4443   */\n      gt\n        /* \"#utility.yul\":4415:4527   */\n      iszero\n      tag_134\n      jumpi\n        /* \"#utility.yul\":4446:4525   */\n      tag_135\n      tag_46\n      jump\t// in\n    tag_135:\n        /* \"#utility.yul\":4415:4527   */\n    tag_134:\n        /* \"#utility.yul\":4536:4577   */\n      tag_136\n        /* \"#utility.yul\":4570:4576   */\n      dup5\n        /* \"#utility.yul\":4565:4568   */\n      dup3\n        /* \"#utility.yul\":4560:4563   */\n      dup6\n        /* \"#utility.yul\":4536:4577   */\n      tag_52\n      jump\t// in\n    tag_136:\n        /* \"#utility.yul\":4256:4583   */\n      pop\n        /* \"#utility.yul\":4173:4583   */\n      swap4\n      swap3\n      pop\n      pop\n      pop\n      jump\t// out\n        /* \"#utility.yul\":4602:4940   */\n    tag_59:\n        /* \"#utility.yul\":4657:4662   */\n      0x00\n        /* \"#utility.yul\":4706:4709   */\n      dup3\n        /* \"#utility.yul\":4699:4703   */\n      0x1f\n        /* \"#utility.yul\":4691:4697   */\n      dup4\n        /* \"#utility.yul\":4687:4704   */\n      add\n        /* \"#utility.yul\":4683:4710   */\n      slt\n        /* \"#utility.yul\":4673:4795   */\n      tag_138\n      jumpi\n        /* \"#utility.yul\":4714:4793   */\n      tag_139\n      tag_45\n      jump\t// in\n    tag_139:\n        /* \"#utility.yul\":4673:4795   */\n    tag_138:\n        /* \"#utility.yul\":4831:4837   */\n      dup2\n        /* \"#utility.yul\":4818:4838   */\n      calldataload\n        /* \"#utility.yul\":4856:4934   */\n      tag_140\n        /* \"#utility.yul\":4930:4933   */\n      dup5\n        /* \"#utility.yul\":4922:4928   */\n      dup3\n        /* \"#utility.yul\":4915:4919   */\n      0x20\n        /* \"#utility.yul\":4907:4913   */\n      dup7\n        /* \"#utility.yul\":4903:4920   */\n      add\n        /* \"#utility.yul\":4856:4934   */\n      tag_58\n      jump\t// in\n    tag_140:\n        /* \"#utility.yul\":4847:4934   */\n      swap2\n      pop\n        /* \"#utility.yul\":4663:4940   */\n      pop\n        /* \"#utility.yul\":4602:4940   */\n      swap3\n      swap2\n      pop\n      pop\n      jump\t// out\n        /* \"#utility.yul\":4961:5903   */\n    tag_60:\n        /* \"#utility.yul\":5066:5071   */\n      0x00\n        /* \"#utility.yul\":5091:5181   */\n      tag_142\n        /* \"#utility.yul\":5107:5180   */\n      tag_143\n        /* \"#utility.yul\":5173:5179   */\n      dup5\n        /* \"#utility.yul\":5107:5180   */\n      tag_55\n      jump\t// in\n    tag_143:\n        /* \"#utility.yul\":5091:5181   */\n      tag_50\n      jump\t// in\n    tag_142:\n        /* \"#utility.yul\":5082:5181   */\n      swap1\n      pop\n        /* \"#utility.yul\":5201:5206   */\n      dup1\n        /* \"#utility.yul\":5230:5236   */\n      dup4\n        /* \"#utility.yul\":5223:5228   */\n      dup3\n        /* \"#utility.yul\":5216:5237   */\n      mstore\n        /* \"#utility.yul\":5264:5268   */\n      0x20\n        /* \"#utility.yul\":5257:5262   */\n      dup3\n        /* \"#utility.yul\":5253:5269   */\n      add\n        /* \"#utility.yul\":5246:5269   */\n      swap1\n      pop\n        /* \"#utility.yul\":5317:5321   */\n      0x20\n        /* \"#utility.yul\":5309:5315   */\n      dup5\n        /* \"#utility.yul\":5305:5322   */\n      mul\n        /* \"#utility.yul\":5297:5303   */\n      dup4\n        /* \"#utility.yul\":5293:5323   */\n      add\n        /* \"#utility.yul\":5346:5349   */\n      dup6\n        /* \"#utility.yul\":5338:5344   */\n      dup2\n        /* \"#utility.yul\":5335:5350   */\n      gt\n        /* \"#utility.yul\":5332:5454   */\n      iszero\n      tag_144\n      jumpi\n        /* \"#utility.yul\":5365:5444   */\n      tag_145\n      tag_56\n      jump\t// in\n    tag_145:\n        /* \"#utility.yul\":5332:5454   */\n    tag_144:\n        /* \"#utility.yul\":5480:5486   */\n      dup4\n        /* \"#utility.yul\":5463:5897   */\n    tag_146:\n        /* \"#utility.yul\":5497:5503   */\n      dup2\n        /* \"#utility.yul\":5492:5495   */\n      dup2\n        /* \"#utility.yul\":5489:5504   */\n      lt\n        /* \"#utility.yul\":5463:5897   */\n      iszero\n      tag_148\n      jumpi\n        /* \"#utility.yul\":5586:5589   */\n      dup1\n        /* \"#utility.yul\":5573:5590   */\n      calldataload\n        /* \"#utility.yul\":5622:5640   */\n      0xffffffffffffffff\n        /* \"#utility.yul\":5609:5620   */\n      dup2\n        /* \"#utility.yul\":5606:5641   */\n      gt\n        /* \"#utility.yul\":5603:5725   */\n      iszero\n      tag_149\n      jumpi\n        /* \"#utility.yul\":5644:5723   */\n      tag_150\n      tag_45\n      jump\t// in\n    tag_150:\n        /* \"#utility.yul\":5603:5725   */\n    tag_149:\n        /* \"#utility.yul\":5768:5779   */\n      dup1\n        /* \"#utility.yul\":5760:5766   */\n      dup7\n        /* \"#utility.yul\":5756:5780   */\n      add\n        /* \"#utility.yul\":5806:5852   */\n      tag_151\n        /* \"#utility.yul\":5848:5851   */\n      dup10\n        /* \"#utility.yul\":5836:5846   */\n      dup3\n        /* \"#utility.yul\":5806:5852   */\n      tag_59\n      jump\t// in\n    tag_151:\n        /* \"#utility.yul\":5801:5804   */\n      dup6\n        /* \"#utility.yul\":5794:5853   */\n      mstore\n        /* \"#utility.yul\":5882:5886   */\n      0x20\n        /* \"#utility.yul\":5877:5880   */\n      dup6\n        /* \"#utility.yul\":5873:5887   */\n      add\n        /* \"#utility.yul\":5866:5887   */\n      swap5\n      pop\n        /* \"#utility.yul\":5539:5897   */\n      pop\n      pop\n        /* \"#utility.yul\":5523:5527   */\n      0x20\n        /* \"#utility.yul\":5518:5521   */\n      dup2\n        /* \"#utility.yul\":5514:5528   */\n      add\n        /* \"#utility.yul\":5507:5528   */\n      swap1\n      pop\n        /* \"#utility.yul\":5463:5897   */\n      jump(tag_146)\n    tag_148:\n        /* \"#utility.yul\":5467:5488   */\n      pop\n        /* \"#utility.yul\":5072:5903   */\n      pop\n      pop\n        /* \"#utility.yul\":4961:5903   */\n      swap4\n      swap3\n      pop\n      pop\n      pop\n      jump\t// out\n        /* \"#utility.yul\":5924:6312   */\n    tag_61:\n        /* \"#utility.yul\":6004:6009   */\n      0x00\n        /* \"#utility.yul\":6053:6056   */\n      dup3\n        /* \"#utility.yul\":6046:6050   */\n      0x1f\n        /* \"#utility.yul\":6038:6044   */\n      dup4\n        /* \"#utility.yul\":6034:6051   */\n      add\n        /* \"#utility.yul\":6030:6057   */\n      slt\n        /* \"#utility.yul\":6020:6142   */\n      tag_153\n      jumpi\n        /* \"#utility.yul\":6061:6140   */\n      tag_154\n      tag_45\n      jump\t// in\n    tag_154:\n        /* \"#utility.yul\":6020:6142   */\n    tag_153:\n        /* \"#utility.yul\":6178:6184   */\n      dup2\n        /* \"#utility.yul\":6165:6185   */\n      calldataload\n        /* \"#utility.yul\":6203:6306   */\n      tag_155\n        /* \"#utility.yul\":6302:6305   */\n      dup5\n        /* \"#utility.yul\":6294:6300   */\n      dup3\n        /* \"#utility.yul\":6287:6291   */\n      0x20\n        /* \"#utility.yul\":6279:6285   */\n      dup7\n        /* \"#utility.yul\":6275:6292   */\n      add\n        /* \"#utility.yul\":6203:6306   */\n      tag_60\n      jump\t// in\n    tag_155:\n        /* \"#utility.yul\":6194:6306   */\n      swap2\n      pop\n        /* \"#utility.yul\":6010:6312   */\n      pop\n        /* \"#utility.yul\":5924:6312   */\n      swap3\n      swap2\n      pop\n      pop\n      jump\t// out\n        /* \"#utility.yul\":6318:7929   */\n    tag_7:\n        /* \"#utility.yul\":6475:6481   */\n      0x00\n        /* \"#utility.yul\":6483:6489   */\n      dup1\n        /* \"#utility.yul\":6491:6497   */\n      0x00\n        /* \"#utility.yul\":6499:6505   */\n      dup1\n        /* \"#utility.yul\":6507:6513   */\n      0x00\n        /* \"#utility.yul\":6515:6521   */\n      dup1\n        /* \"#utility.yul\":6523:6529   */\n      0x00\n        /* \"#utility.yul\":6572:6575   */\n      0xe0\n        /* \"#utility.yul\":6560:6569   */\n      dup9\n        /* \"#utility.yul\":6551:6558   */\n      dup11\n        /* \"#utility.yul\":6547:6570   */\n      sub\n        /* \"#utility.yul\":6543:6576   */\n      slt\n        /* \"#utility.yul\":6540:6660   */\n      iszero\n      tag_157\n      jumpi\n        /* \"#utility.yul\":6579:6658   */\n      tag_158\n      tag_36\n      jump\t// in\n    tag_158:\n        /* \"#utility.yul\":6540:6660   */\n    tag_157:\n        /* \"#utility.yul\":6699:6700   */\n      0x00\n        /* \"#utility.yul\":6724:6777   */\n      tag_159\n        /* \"#utility.yul\":6769:6776   */\n      dup11\n        /* \"#utility.yul\":6760:6766   */\n      dup3\n        /* \"#utility.yul\":6749:6758   */\n      dup12\n        /* \"#utility.yul\":6745:6767   */\n      add\n        /* \"#utility.yul\":6724:6777   */\n      tag_41\n      jump\t// in\n    tag_159:\n        /* \"#utility.yul\":6714:6777   */\n      swap8\n      pop\n        /* \"#utility.yul\":6670:6787   */\n      pop\n        /* \"#utility.yul\":6826:6828   */\n      0x20\n        /* \"#utility.yul\":6852:6905   */\n      tag_160\n        /* \"#utility.yul\":6897:6904   */\n      dup11\n        /* \"#utility.yul\":6888:6894   */\n      dup3\n        /* \"#utility.yul\":6877:6886   */\n      dup12\n        /* \"#utility.yul\":6873:6895   */\n      add\n        /* \"#utility.yul\":6852:6905   */\n      tag_44\n      jump\t// in\n    tag_160:\n        /* \"#utility.yul\":6842:6905   */\n      swap7\n      pop\n        /* \"#utility.yul\":6797:6915   */\n      pop\n        /* \"#utility.yul\":6954:6956   */\n      0x40\n        /* \"#utility.yul\":6980:7033   */\n      tag_161\n        /* \"#utility.yul\":7025:7032   */\n      dup11\n        /* \"#utility.yul\":7016:7022   */\n      dup3\n        /* \"#utility.yul\":7005:7014   */\n      dup12\n        /* \"#utility.yul\":7001:7023   */\n      add\n        /* \"#utility.yul\":6980:7033   */\n      tag_44\n      jump\t// in\n    tag_161:\n        /* \"#utility.yul\":6970:7033   */\n      swap6\n      pop\n        /* \"#utility.yul\":6925:7043   */\n      pop\n        /* \"#utility.yul\":7082:7084   */\n      0x60\n        /* \"#utility.yul\":7108:7161   */\n      tag_162\n        /* \"#utility.yul\":7153:7160   */\n      dup11\n        /* \"#utility.yul\":7144:7150   */\n      dup3\n        /* \"#utility.yul\":7133:7142   */\n      dup12\n        /* \"#utility.yul\":7129:7151   */\n      add\n        /* \"#utility.yul\":7108:7161   */\n      tag_44\n      jump\t// in\n    tag_162:\n        /* \"#utility.yul\":7098:7161   */\n      swap5\n      pop\n        /* \"#utility.yul\":7053:7171   */\n      pop\n        /* \"#utility.yul\":7210:7213   */\n      0x80\n        /* \"#utility.yul\":7237:7290   */\n      tag_163\n        /* \"#utility.yul\":7282:7289   */\n      dup11\n        /* \"#utility.yul\":7273:7279   */\n      dup3\n        /* \"#utility.yul\":7262:7271   */\n      dup12\n        /* \"#utility.yul\":7258:7280   */\n      add\n        /* \"#utility.yul\":7237:7290   */\n      tag_41\n      jump\t// in\n    tag_163:\n        /* \"#utility.yul\":7227:7290   */\n      swap4\n      pop\n        /* \"#utility.yul\":7181:7300   */\n      pop\n        /* \"#utility.yul\":7367:7370   */\n      0xa0\n        /* \"#utility.yul\":7356:7365   */\n      dup9\n        /* \"#utility.yul\":7352:7371   */\n      add\n        /* \"#utility.yul\":7339:7372   */\n      calldataload\n        /* \"#utility.yul\":7399:7417   */\n      0xffffffffffffffff\n        /* \"#utility.yul\":7391:7397   */\n      dup2\n        /* \"#utility.yul\":7388:7418   */\n      gt\n        /* \"#utility.yul\":7385:7502   */\n      iszero\n      tag_164\n      jumpi\n        /* \"#utility.yul\":7421:7500   */\n      tag_165\n      tag_37\n      jump\t// in\n    tag_165:\n        /* \"#utility.yul\":7385:7502   */\n    tag_164:\n        /* \"#utility.yul\":7526:7589   */\n      tag_166\n        /* \"#utility.yul\":7581:7588   */\n      dup11\n        /* \"#utility.yul\":7572:7578   */\n      dup3\n        /* \"#utility.yul\":7561:7570   */\n      dup12\n        /* \"#utility.yul\":7557:7579   */\n      add\n        /* \"#utility.yul\":7526:7589   */\n      tag_54\n      jump\t// in\n    tag_166:\n        /* \"#utility.yul\":7516:7589   */\n      swap3\n      pop\n        /* \"#utility.yul\":7310:7599   */\n      pop\n        /* \"#utility.yul\":7666:7669   */\n      0xc0\n        /* \"#utility.yul\":7655:7664   */\n      dup9\n        /* \"#utility.yul\":7651:7670   */\n      add\n        /* \"#utility.yul\":7638:7671   */\n      calldataload\n        /* \"#utility.yul\":7698:7716   */\n      0xffffffffffffffff\n        /* \"#utility.yul\":7690:7696   */\n      dup2\n        /* \"#utility.yul\":7687:7717   */\n      gt\n        /* \"#utility.yul\":7684:7801   */\n      iszero\n      tag_167\n      jumpi\n        /* \"#utility.yul\":7720:7799   */\n      tag_168\n      tag_37\n      jump\t// in\n    tag_168:\n        /* \"#utility.yul\":7684:7801   */\n    tag_167:\n        /* \"#utility.yul\":7825:7912   */\n      tag_169\n        /* \"#utility.yul\":7904:7911   */\n      dup11\n        /* \"#utility.yul\":7895:7901   */\n      dup3\n        /* \"#utility.yul\":7884:7893   */\n      dup12\n        /* \"#utility.yul\":7880:7902   */\n      add\n        /* \"#utility.yul\":7825:7912   */\n      tag_61\n      jump\t// in\n    tag_169:\n        /* \"#utility.yul\":7815:7912   */\n      swap2\n      pop\n        /* \"#utility.yul\":7609:7922   */\n      pop\n        /* \"#utility.yul\":6318:7929   */\n      swap3\n      swap6\n      swap9\n      swap2\n      swap5\n      swap8\n      pop\n      swap3\n      swap6\n      pop\n      jump\t// out\n        /* \"#utility.yul\":7935:8053   */\n    tag_62:\n        /* \"#utility.yul\":8022:8046   */\n      tag_171\n        /* \"#utility.yul\":8040:8045   */\n      dup2\n        /* \"#utility.yul\":8022:8046   */\n      tag_42\n      jump\t// in\n    tag_171:\n        /* \"#utility.yul\":8017:8020   */\n      dup3\n        /* \"#utility.yul\":8010:8047   */\n      mstore\n        /* \"#utility.yul\":7935:8053   */\n      pop\n      pop\n      jump\t// out\n        /* \"#utility.yul\":8059:8281   */\n    tag_10:\n        /* \"#utility.yul\":8152:8156   */\n      0x00\n        /* \"#utility.yul\":8190:8192   */\n      0x20\n        /* \"#utility.yul\":8179:8188   */\n      dup3\n        /* \"#utility.yul\":8175:8193   */\n      add\n        /* \"#utility.yul\":8167:8193   */\n      swap1\n      pop\n        /* \"#utility.yul\":8203:8274   */\n      tag_173\n        /* \"#utility.yul\":8271:8272   */\n      0x00\n        /* \"#utility.yul\":8260:8269   */\n      dup4\n        /* \"#utility.yul\":8256:8273   */\n      add\n        /* \"#utility.yul\":8247:8253   */\n      dup5\n        /* \"#utility.yul\":8203:8274   */\n      tag_62\n      jump\t// in\n    tag_173:\n        /* \"#utility.yul\":8059:8281   */\n      swap3\n      swap2\n      pop\n      pop\n      jump\t// out\n        /* \"#utility.yul\":8287:8364   */\n    tag_63:\n        /* \"#utility.yul\":8324:8331   */\n      0x00\n        /* \"#utility.yul\":8353:8358   */\n      dup2\n        /* \"#utility.yul\":8342:8358   */\n      swap1\n      pop\n        /* \"#utility.yul\":8287:8364   */\n      swap2\n      swap1\n      pop\n      jump\t// out\n        /* \"#utility.yul\":8370:8492   */\n    tag_64:\n        /* \"#utility.yul\":8443:8467   */\n      tag_176\n        /* \"#utility.yul\":8461:8466   */\n      dup2\n        /* \"#utility.yul\":8443:8467   */\n      tag_63\n      jump\t// in\n    tag_176:\n        /* \"#utility.yul\":8436:8441   */\n      dup2\n        /* \"#utility.yul\":8433:8468   */\n      eq\n        /* \"#utility.yul\":8423:8486   */\n      tag_177\n      jumpi\n        /* \"#utility.yul\":8482:8483   */\n      0x00\n        /* \"#utility.yul\":8479:8480   */\n      dup1\n        /* \"#utility.yul\":8472:8484   */\n      revert\n        /* \"#utility.yul\":8423:8486   */\n    tag_177:\n        /* \"#utility.yul\":8370:8492   */\n      pop\n      jump\t// out\n        /* \"#utility.yul\":8498:8637   */\n    tag_65:\n        /* \"#utility.yul\":8544:8549   */\n      0x00\n        /* \"#utility.yul\":8582:8588   */\n      dup2\n        /* \"#utility.yul\":8569:8589   */\n      calldataload\n        /* \"#utility.yul\":8560:8589   */\n      swap1\n      pop\n        /* \"#utility.yul\":8598:8631   */\n      tag_179\n        /* \"#utility.yul\":8625:8630   */\n      dup2\n        /* \"#utility.yul\":8598:8631   */\n      tag_64\n      jump\t// in\n    tag_179:\n        /* \"#utility.yul\":8498:8637   */\n      swap3\n      swap2\n      pop\n      pop\n      jump\t// out\n        /* \"#utility.yul\":8643:9636   */\n    tag_13:\n        /* \"#utility.yul\":8763:8769   */\n      0x00\n        /* \"#utility.yul\":8771:8777   */\n      dup1\n        /* \"#utility.yul\":8779:8785   */\n      0x00\n        /* \"#utility.yul\":8787:8793   */\n      dup1\n        /* \"#utility.yul\":8836:8839   */\n      0x80\n        /* \"#utility.yul\":8824:8833   */\n      dup6\n        /* \"#utility.yul\":8815:8822   */\n      dup8\n        /* \"#utility.yul\":8811:8834   */\n      sub\n        /* \"#utility.yul\":8807:8840   */\n      slt\n        /* \"#utility.yul\":8804:8924   */\n      iszero\n      tag_181\n      jumpi\n        /* \"#utility.yul\":8843:8922   */\n      tag_182\n      tag_36\n      jump\t// in\n    tag_182:\n        /* \"#utility.yul\":8804:8924   */\n    tag_181:\n        /* \"#utility.yul\":8963:8964   */\n      0x00\n        /* \"#utility.yul\":8988:9041   */\n      tag_183\n        /* \"#utility.yul\":9033:9040   */\n      dup8\n        /* \"#utility.yul\":9024:9030   */\n      dup3\n        /* \"#utility.yul\":9013:9022   */\n      dup9\n        /* \"#utility.yul\":9009:9031   */\n      add\n        /* \"#utility.yul\":8988:9041   */\n      tag_41\n      jump\t// in\n    tag_183:\n        /* \"#utility.yul\":8978:9041   */\n      swap5\n      pop\n        /* \"#utility.yul\":8934:9051   */\n      pop\n        /* \"#utility.yul\":9090:9092   */\n      0x20\n        /* \"#utility.yul\":9116:9169   */\n      tag_184\n        /* \"#utility.yul\":9161:9168   */\n      dup8\n        /* \"#utility.yul\":9152:9158   */\n      dup3\n        /* \"#utility.yul\":9141:9150   */\n      dup9\n        /* \"#utility.yul\":9137:9159   */\n      add\n        /* \"#utility.yul\":9116:9169   */\n      tag_41\n      jump\t// in\n    tag_184:\n        /* \"#utility.yul\":9106:9169   */\n      swap4\n      pop\n        /* \"#utility.yul\":9061:9179   */\n      pop\n        /* \"#utility.yul\":9246:9248   */\n      0x40\n        /* \"#utility.yul\":9235:9244   */\n      dup6\n        /* \"#utility.yul\":9231:9249   */\n      add\n        /* \"#utility.yul\":9218:9250   */\n      calldataload\n        /* \"#utility.yul\":9277:9295   */\n      0xffffffffffffffff\n        /* \"#utility.yul\":9269:9275   */\n      dup2\n        /* \"#utility.yul\":9266:9296   */\n      gt\n        /* \"#utility.yul\":9263:9380   */\n      iszero\n      tag_185\n      jumpi\n        /* \"#utility.yul\":9299:9378   */\n      tag_186\n      tag_37\n      jump\t// in\n    tag_186:\n        /* \"#utility.yul\":9263:9380   */\n    tag_185:\n        /* \"#utility.yul\":9404:9491   */\n      tag_187\n        /* \"#utility.yul\":9483:9490   */\n      dup8\n        /* \"#utility.yul\":9474:9480   */\n      dup3\n        /* \"#utility.yul\":9463:9472   */\n      dup9\n        /* \"#utility.yul\":9459:9481   */\n      add\n        /* \"#utility.yul\":9404:9491   */\n      tag_61\n      jump\t// in\n    tag_187:\n        /* \"#utility.yul\":9394:9491   */\n      swap3\n      pop\n        /* \"#utility.yul\":9189:9501   */\n      pop\n        /* \"#utility.yul\":9540:9542   */\n      0x60\n        /* \"#utility.yul\":9566:9619   */\n      tag_188\n        /* \"#utility.yul\":9611:9618   */\n      dup8\n        /* \"#utility.yul\":9602:9608   */\n      dup3\n        /* \"#utility.yul\":9591:9600   */\n      dup9\n        /* \"#utility.yul\":9587:9609   */\n      add\n        /* \"#utility.yul\":9566:9619   */\n      tag_65\n      jump\t// in\n    tag_188:\n        /* \"#utility.yul\":9556:9619   */\n      swap2\n      pop\n        /* \"#utility.yul\":9511:9629   */\n      pop\n        /* \"#utility.yul\":8643:9636   */\n      swap3\n      swap6\n      swap2\n      swap5\n      pop\n      swap3\n      pop\n      jump\t// out\n        /* \"#utility.yul\":9642:9822   */\n    tag_66:\n        /* \"#utility.yul\":9690:9767   */\n      0x4e487b7100000000000000000000000000000000000000000000000000000000\n        /* \"#utility.yul\":9687:9688   */\n      0x00\n        /* \"#utility.yul\":9680:9768   */\n      mstore\n        /* \"#utility.yul\":9787:9791   */\n      0x11\n        /* \"#utility.yul\":9784:9785   */\n      0x04\n        /* \"#utility.yul\":9777:9792   */\n      mstore\n        /* \"#utility.yul\":9811:9815   */\n      0x24\n        /* \"#utility.yul\":9808:9809   */\n      0x00\n        /* \"#utility.yul\":9801:9816   */\n      revert\n        /* \"#utility.yul\":9828:10176   */\n    tag_19:\n        /* \"#utility.yul\":9868:9875   */\n      0x00\n        /* \"#utility.yul\":9891:9911   */\n      tag_191\n        /* \"#utility.yul\":9909:9910   */\n      dup3\n        /* \"#utility.yul\":9891:9911   */\n      tag_42\n      jump\t// in\n    tag_191:\n        /* \"#utility.yul\":9886:9911   */\n      swap2\n      pop\n        /* \"#utility.yul\":9925:9945   */\n      tag_192\n        /* \"#utility.yul\":9943:9944   */\n      dup4\n        /* \"#utility.yul\":9925:9945   */\n      tag_42\n      jump\t// in\n    tag_192:\n        /* \"#utility.yul\":9920:9945   */\n      swap3\n      pop\n        /* \"#utility.yul\":10113:10114   */\n      dup2\n        /* \"#utility.yul\":10045:10111   */\n      0xffffffffffffffffffffffffffffffffffffffffffffffffffffffffffffffff\n        /* \"#utility.yul\":10041:10115   */\n      div\n        /* \"#utility.yul\":10038:10039   */\n      dup4\n        /* \"#utility.yul\":10035:10116   */\n      gt\n        /* \"#utility.yul\":10030:10031   */\n      dup3\n        /* \"#utility.yul\":10023:10032   */\n      iszero\n        /* \"#utility.yul\":10016:10033   */\n      iszero\n        /* \"#utility.yul\":10012:10117   */\n      and\n        /* \"#utility.yul\":10009:10140   */\n      iszero\n      tag_193\n      jumpi\n        /* \"#utility.yul\":10120:10138   */\n      tag_194\n      tag_66\n      jump\t// in\n    tag_194:\n        /* \"#utility.yul\":10009:10140   */\n    tag_193:\n        /* \"#utility.yul\":10168:10169   */\n      dup3\n        /* \"#utility.yul\":10165:10166   */\n      dup3\n        /* \"#utility.yul\":10161:10170   */\n      mul\n        /* \"#utility.yul\":10150:10170   */\n      swap1\n      pop\n        /* \"#utility.yul\":9828:10176   */\n      swap3\n      swap2\n      pop\n      pop\n      jump\t// out\n        /* \"#utility.yul\":10182:10487   */\n    tag_23:\n        /* \"#utility.yul\":10222:10225   */\n      0x00\n        /* \"#utility.yul\":10241:10261   */\n      tag_196\n        /* \"#utility.yul\":10259:10260   */\n      dup3\n        /* \"#utility.yul\":10241:10261   */\n      tag_42\n      jump\t// in\n    tag_196:\n        /* \"#utility.yul\":10236:10261   */\n      swap2\n      pop\n        /* \"#utility.yul\":10275:10295   */\n      tag_197\n        /* \"#utility.yul\":10293:10294   */\n      dup4\n        /* \"#utility.yul\":10275:10295   */\n      tag_42\n      jump\t// in\n    tag_197:\n        /* \"#utility.yul\":10270:10295   */\n      swap3\n      pop\n        /* \"#utility.yul\":10429:10430   */\n      dup3\n        /* \"#utility.yul\":10361:10427   */\n      0xffffffffffffffffffffffffffffffffffffffffffffffffffffffffffffffff\n        /* \"#utility.yul\":10357:10431   */\n      sub\n        /* \"#utility.yul\":10354:10355   */\n      dup3\n        /* \"#utility.yul\":10351:10432   */\n      gt\n        /* \"#utility.yul\":10348:10455   */\n      iszero\n      tag_198\n      jumpi\n        /* \"#utility.yul\":10435:10453   */\n      tag_199\n      tag_66\n      jump\t// in\n    tag_199:\n        /* \"#utility.yul\":10348:10455   */\n    tag_198:\n        /* \"#utility.yul\":10479:10480   */\n      dup3\n        /* \"#utility.yul\":10476:10477   */\n      dup3\n        /* \"#utility.yul\":10472:10481   */\n      add\n        /* \"#utility.yul\":10465:10481   */\n      swap1\n      pop\n        /* \"#utility.yul\":10182:10487   */\n      swap3\n      swap2\n      pop\n      pop\n      jump\t// out\n        /* \"#utility.yul\":10493:10611   */\n    tag_67:\n        /* \"#utility.yul\":10580:10604   */\n      tag_201\n        /* \"#utility.yul\":10598:10603   */\n      dup2\n        /* \"#utility.yul\":10580:10604   */\n      tag_39\n      jump\t// in\n    tag_201:\n        /* \"#utility.yul\":10575:10578   */\n      dup3\n        /* \"#utility.yul\":10568:10605   */\n      mstore\n        /* \"#utility.yul\":10493:10611   */\n      pop\n      pop\n      jump\t// out\n        /* \"#utility.yul\":10617:10740   */\n    tag_68:\n        /* \"#utility.yul\":10693:10699   */\n      0x00\n        /* \"#utility.yul\":10727:10732   */\n      dup2\n        /* \"#utility.yul\":10721:10733   */\n      mload\n        /* \"#utility.yul\":10711:10733   */\n      swap1\n      pop\n        /* \"#utility.yul\":10617:10740   */\n      swap2\n      swap1\n      pop\n      jump\t// out\n        /* \"#utility.yul\":10746:10939   */\n    tag_69:\n        /* \"#utility.yul\":10854:10865   */\n      0x00\n        /* \"#utility.yul\":10888:10894   */\n      dup3\n        /* \"#utility.yul\":10883:10886   */\n      dup3\n        /* \"#utility.yul\":10876:10895   */\n      mstore\n        /* \"#utility.yul\":10928:10932   */\n      0x20\n        /* \"#utility.yul\":10923:10926   */\n      dup3\n        /* \"#utility.yul\":10919:10933   */\n      add\n        /* \"#utility.yul\":10904:10933   */\n      swap1\n      pop\n        /* \"#utility.yul\":10746:10939   */\n      swap3\n      swap2\n      pop\n      pop\n      jump\t// out\n        /* \"#utility.yul\":10945:11086   */\n    tag_70:\n        /* \"#utility.yul\":11021:11025   */\n      0x00\n        /* \"#utility.yul\":11044:11047   */\n      dup2\n        /* \"#utility.yul\":11036:11047   */\n      swap1\n      pop\n        /* \"#utility.yul\":11074:11078   */\n      0x20\n        /* \"#utility.yul\":11069:11072   */\n      dup3\n        /* \"#utility.yul\":11065:11079   */\n      add\n        /* \"#utility.yul\":11057:11079   */\n      swap1\n      pop\n        /* \"#utility.yul\":10945:11086   */\n      swap2\n      swap1\n      pop\n      jump\t// out\n        /* \"#utility.yul\":11092:11190   */\n    tag_71:\n        /* \"#utility.yul\":11143:11149   */\n      0x00\n        /* \"#utility.yul\":11177:11182   */\n      dup2\n        /* \"#utility.yul\":11171:11183   */\n      mload\n        /* \"#utility.yul\":11161:11183   */\n      swap1\n      pop\n        /* \"#utility.yul\":11092:11190   */\n      swap2\n      swap1\n      pop\n      jump\t// out\n        /* \"#utility.yul\":11196:11354   */\n    tag_72:\n        /* \"#utility.yul\":11269:11280   */\n      0x00\n        /* \"#utility.yul\":11303:11309   */\n      dup3\n        /* \"#utility.yul\":11298:11301   */\n      dup3\n        /* \"#utility.yul\":11291:11310   */\n      mstore\n        /* \"#utility.yul\":11343:11347   */\n      0x20\n        /* \"#utility.yul\":11338:11341   */\n      dup3\n        /* \"#utility.yul\":11334:11348   */\n      add\n        /* \"#utility.yul\":11319:11348   */\n      swap1\n      pop\n        /* \"#utility.yul\":11196:11354   */\n      swap3\n      swap2\n      pop\n      pop\n      jump\t// out\n        /* \"#utility.yul\":11360:11667   */\n    tag_73:\n        /* \"#utility.yul\":11428:11429   */\n      0x00\n        /* \"#utility.yul\":11438:11551   */\n    tag_208:\n        /* \"#utility.yul\":11452:11458   */\n      dup4\n        /* \"#utility.yul\":11449:11450   */\n      dup2\n        /* \"#utility.yul\":11446:11459   */\n      lt\n        /* \"#utility.yul\":11438:11551   */\n      iszero\n      tag_210\n      jumpi\n        /* \"#utility.yul\":11537:11538   */\n      dup1\n        /* \"#utility.yul\":11532:11535   */\n      dup3\n        /* \"#utility.yul\":11528:11539   */\n      add\n        /* \"#utility.yul\":11522:11540   */\n      mload\n        /* \"#utility.yul\":11518:11519   */\n      dup2\n        /* \"#utility.yul\":11513:11516   */\n      dup5\n        /* \"#utility.yul\":11509:11520   */\n      add\n        /* \"#utility.yul\":11502:11541   */\n      mstore\n        /* \"#utility.yul\":11474:11476   */\n      0x20\n        /* \"#utility.yul\":11471:11472   */\n      dup2\n        /* \"#utility.yul\":11467:11477   */\n      add\n        /* \"#utility.yul\":11462:11477   */\n      swap1\n      pop\n        /* \"#utility.yul\":11438:11551   */\n      jump(tag_208)\n    tag_210:\n        /* \"#utility.yul\":11569:11575   */\n      dup4\n        /* \"#utility.yul\":11566:11567   */\n      dup2\n        /* \"#utility.yul\":11563:11576   */\n      gt\n        /* \"#utility.yul\":11560:11661   */\n      iszero\n      tag_211\n      jumpi\n        /* \"#utility.yul\":11649:11650   */\n      0x00\n        /* \"#utility.yul\":11640:11646   */\n      dup5\n        /* \"#utility.yul\":11635:11638   */\n      dup5\n        /* \"#utility.yul\":11631:11647   */\n      add\n        /* \"#utility.yul\":11624:11651   */\n      mstore\n        /* \"#utility.yul\":11560:11661   */\n    tag_211:\n        /* \"#utility.yul\":11409:11667   */\n      pop\n        /* \"#utility.yul\":11360:11667   */\n      pop\n      pop\n      pop\n      jump\t// out\n        /* \"#utility.yul\":11673:12013   */\n    tag_74:\n        /* \"#utility.yul\":11749:11752   */\n      0x00\n        /* \"#utility.yul\":11777:11815   */\n      tag_213\n        /* \"#utility.yul\":11809:11814   */\n      dup3\n        /* \"#utility.yul\":11777:11815   */\n      tag_71\n      jump\t// in\n    tag_213:\n        /* \"#utility.yul\":11831:11891   */\n      tag_214\n        /* \"#utility.yul\":11884:11890   */\n      dup2\n        /* \"#utility.yul\":11879:11882   */\n      dup6\n        /* \"#utility.yul\":11831:11891   */\n      tag_72\n      jump\t// in\n    tag_214:\n        /* \"#utility.yul\":11824:11891   */\n      swap4\n      pop\n        /* \"#utility.yul\":11900:11952   */\n      tag_215\n        /* \"#utility.yul\":11945:11951   */\n      dup2\n        /* \"#utility.yul\":11940:11943   */\n      dup6\n        /* \"#utility.yul\":11933:11937   */\n      0x20\n        /* \"#utility.yul\":11926:11931   */\n      dup7\n        /* \"#utility.yul\":11922:11938   */\n      add\n        /* \"#utility.yul\":11900:11952   */\n      tag_73\n      jump\t// in\n    tag_215:\n        /* \"#utility.yul\":11977:12006   */\n      tag_216\n        /* \"#utility.yul\":11999:12005   */\n      dup2\n        /* \"#utility.yul\":11977:12006   */\n      tag_47\n      jump\t// in\n    tag_216:\n        /* \"#utility.yul\":11972:11975   */\n      dup5\n        /* \"#utility.yul\":11968:12007   */\n      add\n        /* \"#utility.yul\":11961:12007   */\n      swap2\n      pop\n        /* \"#utility.yul\":11753:12013   */\n      pop\n        /* \"#utility.yul\":11673:12013   */\n      swap3\n      swap2\n      pop\n      pop\n      jump\t// out\n        /* \"#utility.yul\":12019:12211   */\n    tag_75:\n        /* \"#utility.yul\":12106:12116   */\n      0x00\n        /* \"#utility.yul\":12141:12205   */\n      tag_218\n        /* \"#utility.yul\":12201:12204   */\n      dup4\n        /* \"#utility.yul\":12193:12199   */\n      dup4\n        /* \"#utility.yul\":12141:12205   */\n      tag_74\n      jump\t// in\n    tag_218:\n        /* \"#utility.yul\":12127:12205   */\n      swap1\n      pop\n        /* \"#utility.yul\":12019:12211   */\n      swap3\n      swap2\n      pop\n      pop\n      jump\t// out\n        /* \"#utility.yul\":12217:12339   */\n    tag_76:\n        /* \"#utility.yul\":12296:12300   */\n      0x00\n        /* \"#utility.yul\":12328:12332   */\n      0x20\n        /* \"#utility.yul\":12323:12326   */\n      dup3\n        /* \"#utility.yul\":12319:12333   */\n      add\n        /* \"#utility.yul\":12311:12333   */\n      swap1\n      pop\n        /* \"#utility.yul\":12217:12339   */\n      swap2\n      swap1\n      pop\n      jump\t// out\n        /* \"#utility.yul\":12371:13354   */\n    tag_77:\n        /* \"#utility.yul\":12508:12511   */\n      0x00\n        /* \"#utility.yul\":12537:12600   */\n      tag_221\n        /* \"#utility.yul\":12594:12599   */\n      dup3\n        /* \"#utility.yul\":12537:12600   */\n      tag_68\n      jump\t// in\n    tag_221:\n        /* \"#utility.yul\":12616:12711   */\n      tag_222\n        /* \"#utility.yul\":12704:12710   */\n      dup2\n        /* \"#utility.yul\":12699:12702   */\n      dup6\n        /* \"#utility.yul\":12616:12711   */\n      tag_69\n      jump\t// in\n    tag_222:\n        /* \"#utility.yul\":12609:12711   */\n      swap4\n      pop\n        /* \"#utility.yul\":12737:12740   */\n      dup4\n        /* \"#utility.yul\":12782:12786   */\n      0x20\n        /* \"#utility.yul\":12774:12780   */\n      dup3\n        /* \"#utility.yul\":12770:12787   */\n      mul\n        /* \"#utility.yul\":12765:12768   */\n      dup6\n        /* \"#utility.yul\":12761:12788   */\n      add\n        /* \"#utility.yul\":12812:12877   */\n      tag_223\n        /* \"#utility.yul\":12871:12876   */\n      dup6\n        /* \"#utility.yul\":12812:12877   */\n      tag_70\n      jump\t// in\n    tag_223:\n        /* \"#utility.yul\":12900:12907   */\n      dup1\n        /* \"#utility.yul\":12931:12932   */\n      0x00\n        /* \"#utility.yul\":12916:13309   */\n    tag_224:\n        /* \"#utility.yul\":12941:12947   */\n      dup6\n        /* \"#utility.yul\":12938:12939   */\n      dup2\n        /* \"#utility.yul\":12935:12948   */\n      lt\n        /* \"#utility.yul\":12916:13309   */\n      iszero\n      tag_226\n      jumpi\n        /* \"#utility.yul\":13012:13021   */\n      dup5\n        /* \"#utility.yul\":13006:13010   */\n      dup5\n        /* \"#utility.yul\":13002:13022   */\n      sub\n        /* \"#utility.yul\":12997:13000   */\n      dup10\n        /* \"#utility.yul\":12990:13023   */\n      mstore\n        /* \"#utility.yul\":13063:13069   */\n      dup2\n        /* \"#utility.yul\":13057:13070   */\n      mload\n        /* \"#utility.yul\":13091:13173   */\n      tag_227\n        /* \"#utility.yul\":13168:13172   */\n      dup6\n        /* \"#utility.yul\":13153:13166   */\n      dup3\n        /* \"#utility.yul\":13091:13173   */\n      tag_75\n      jump\t// in\n    tag_227:\n        /* \"#utility.yul\":13083:13173   */\n      swap5\n      pop\n        /* \"#utility.yul\":13196:13265   */\n      tag_228\n        /* \"#utility.yul\":13258:13264   */\n      dup4\n        /* \"#utility.yul\":13196:13265   */\n      tag_76\n      jump\t// in\n    tag_228:\n        /* \"#utility.yul\":13186:13265   */\n      swap3\n      pop\n        /* \"#utility.yul\":13294:13298   */\n      0x20\n        /* \"#utility.yul\":13289:13292   */\n      dup11\n        /* \"#utility.yul\":13285:13299   */\n      add\n        /* \"#utility.yul\":13278:13299   */\n      swap10\n      pop\n        /* \"#utility.yul\":12976:13309   */\n      pop\n        /* \"#utility.yul\":12963:12964   */\n      0x01\n        /* \"#utility.yul\":12960:12961   */\n      dup2\n        /* \"#utility.yul\":12956:12965   */\n      add\n        /* \"#utility.yul\":12951:12965   */\n      swap1\n      pop\n        /* \"#utility.yul\":12916:13309   */\n      jump(tag_224)\n    tag_226:\n        /* \"#utility.yul\":12920:12934   */\n      pop\n        /* \"#utility.yul\":13325:13329   */\n      dup3\n        /* \"#utility.yul\":13318:13329   */\n      swap8\n      pop\n        /* \"#utility.yul\":13345:13348   */\n      dup8\n        /* \"#utility.yul\":13338:13348   */\n      swap6\n      pop\n        /* \"#utility.yul\":12513:13354   */\n      pop\n      pop\n      pop\n      pop\n      pop\n        /* \"#utility.yul\":12371:13354   */\n      swap3\n      swap2\n      pop\n      pop\n      jump\t// out\n        /* \"#utility.yul\":13360:13478   */\n    tag_78:\n        /* \"#utility.yul\":13447:13471   */\n      tag_230\n        /* \"#utility.yul\":13465:13470   */\n      dup2\n        /* \"#utility.yul\":13447:13471   */\n      tag_63\n      jump\t// in\n    tag_230:\n        /* \"#utility.yul\":13442:13445   */\n      dup3\n        /* \"#utility.yul\":13435:13472   */\n      mstore\n        /* \"#utility.yul\":13360:13478   */\n      pop\n      pop\n      jump\t// out\n        /* \"#utility.yul\":13484:14224   */\n    tag_33:\n        /* \"#utility.yul\":13729:13733   */\n      0x00\n        /* \"#utility.yul\":13767:13770   */\n      0x80\n        /* \"#utility.yul\":13756:13765   */\n      dup3\n        /* \"#utility.yul\":13752:13771   */\n      add\n        /* \"#utility.yul\":13744:13771   */\n      swap1\n      pop\n        /* \"#utility.yul\":13781:13852   */\n      tag_232\n        /* \"#utility.yul\":13849:13850   */\n      0x00\n        /* \"#utility.yul\":13838:13847   */\n      dup4\n        /* \"#utility.yul\":13834:13851   */\n      add\n        /* \"#utility.yul\":13825:13831   */\n      dup8\n        /* \"#utility.yul\":13781:13852   */\n      tag_67\n      jump\t// in\n    tag_232:\n        /* \"#utility.yul\":13862:13934   */\n      tag_233\n        /* \"#utility.yul\":13930:13932   */\n      0x20\n        /* \"#utility.yul\":13919:13928   */\n      dup4\n        /* \"#utility.yul\":13915:13933   */\n      add\n        /* \"#utility.yul\":13906:13912   */\n      dup7\n        /* \"#utility.yul\":13862:13934   */\n      tag_67\n      jump\t// in\n    tag_233:\n        /* \"#utility.yul\":13981:13990   */\n      dup2\n        /* \"#utility.yul\":13975:13979   */\n      dup2\n        /* \"#utility.yul\":13971:13991   */\n      sub\n        /* \"#utility.yul\":13966:13968   */\n      0x40\n        /* \"#utility.yul\":13955:13964   */\n      dup4\n        /* \"#utility.yul\":13951:13969   */\n      add\n        /* \"#utility.yul\":13944:13992   */\n      mstore\n        /* \"#utility.yul\":14009:14135   */\n      tag_234\n        /* \"#utility.yul\":14130:14134   */\n      dup2\n        /* \"#utility.yul\":14121:14127   */\n      dup6\n        /* \"#utility.yul\":14009:14135   */\n      tag_77\n      jump\t// in\n    tag_234:\n        /* \"#utility.yul\":14001:14135   */\n      swap1\n      pop\n        /* \"#utility.yul\":14145:14217   */\n      tag_235\n        /* \"#utility.yul\":14213:14215   */\n      0x60\n        /* \"#utility.yul\":14202:14211   */\n      dup4\n        /* \"#utility.yul\":14198:14216   */\n      add\n        /* \"#utility.yul\":14189:14195   */\n      dup5\n        /* \"#utility.yul\":14145:14217   */\n      tag_78\n      jump\t// in\n    tag_235:\n        /* \"#utility.yul\":13484:14224   */\n      swap6\n      swap5\n      pop\n      pop\n      pop\n      pop\n      pop\n      jump\t// out\n\n    auxdata: 0xa2646970667358221220b4b8ae57cba2888139162561a63a6b9ce6b79d50a7848417acce1333a48af81d64736f6c634300080d0033\n}\n",
				"bytecode": {
					"linkReferences": {},
					"object": "608060405234801561001057600080fd5b506109ba806100206000396000f3fe608060405234801561001057600080fd5b50600436106100365760003560e01c806342f9d5be1461003b578063ee4d60201461006b575b600080fd5b61005560048036038101906100509190610534565b61009b565b604051610062919061061d565b60405180910390f35b6100856004803603810190610080919061066e565b610176565b604051610092919061061d565b60405180910390f35b6000806100b18986858780519060200120610176565b9050600080600083815260200190815260200160002090506000603c8060188c6100db9190610720565b6100e59190610720565b6100ef9190610720565b426100fa919061077a565b90506000603c8060188c61010e9190610720565b6101189190610720565b6101229190610720565b8261012d919061077a565b905061014582846000016101b290919063ffffffff16565b61015b81846001016101b290919063ffffffff16565b88836002018190555083945050505050979650505050505050565b60008484848460405160200161018f9493929190610938565b6040516020818303038152906040528051906020012060001c9050949350505050565b8082600001819055505050565b6000604051905090565b600080fd5b600080fd5b600073ffffffffffffffffffffffffffffffffffffffff82169050919050565b60006101fe826101d3565b9050919050565b61020e816101f3565b811461021957600080fd5b50565b60008135905061022b81610205565b92915050565b6000819050919050565b61024481610231565b811461024f57600080fd5b50565b6000813590506102618161023b565b92915050565b600080fd5b600080fd5b6000601f19601f8301169050919050565b7f4e487b7100000000000000000000000000000000000000000000000000000000600052604160045260246000fd5b6102ba82610271565b810181811067ffffffffffffffff821117156102d9576102d8610282565b5b80604052505050565b60006102ec6101bf565b90506102f882826102b1565b919050565b600067ffffffffffffffff82111561031857610317610282565b5b61032182610271565b9050602081019050919050565b82818337600083830152505050565b600061035061034b846102fd565b6102e2565b90508281526020810184848401111561036c5761036b61026c565b5b61037784828561032e565b509392505050565b600082601f83011261039457610393610267565b5b81356103a484826020860161033d565b91505092915050565b600067ffffffffffffffff8211156103c8576103c7610282565b5b602082029050602081019050919050565b600080fd5b600067ffffffffffffffff8211156103f9576103f8610282565b5b61040282610271565b9050602081019050919050565b600061042261041d846103de565b6102e2565b90508281526020810184848401111561043e5761043d61026c565b5b61044984828561032e565b509392505050565b600082601f83011261046657610465610267565b5b813561047684826020860161040f565b91505092915050565b600061049261048d846103ad565b6102e2565b905080838252602082019050602084028301858111156104b5576104b46103d9565b5b835b818110156104fc57803567ffffffffffffffff8111156104da576104d9610267565b5b8086016104e78982610451565b855260208501945050506020810190506104b7565b5050509392505050565b600082601f83011261051b5761051a610267565b5b813561052b84826020860161047f565b91505092915050565b600080600080600080600060e0888a031215610553576105526101c9565b5b60006105618a828b0161021c565b97505060206105728a828b01610252565b96505060406105838a828b01610252565b95505060606105948a828b01610252565b94505060806105a58a828b0161021c565b93505060a088013567ffffffffffffffff8111156105c6576105c56101ce565b5b6105d28a828b0161037f565b92505060c088013567ffffffffffffffff8111156105f3576105f26101ce565b5b6105ff8a828b01610506565b91505092959891949750929550565b61061781610231565b82525050565b6000602082019050610632600083018461060e565b92915050565b6000819050919050565b61064b81610638565b811461065657600080fd5b50565b60008135905061066881610642565b92915050565b60008060008060808587031215610688576106876101c9565b5b60006106968782880161021c565b94505060206106a78782880161021c565b935050604085013567ffffffffffffffff8111156106c8576106c76101ce565b5b6106d487828801610506565b92505060606106e587828801610659565b91505092959194509250565b7f4e487b7100000000000000000000000000000000000000000000000000000000600052601160045260246000fd5b600061072b82610231565b915061073683610231565b9250817fffffffffffffffffffffffffffffffffffffffffffffffffffffffffffffffff048311821515161561076f5761076e6106f1565b5b828202905092915050565b600061078582610231565b915061079083610231565b9250827fffffffffffffffffffffffffffffffffffffffffffffffffffffffffffffffff038211156107c5576107c46106f1565b5b828201905092915050565b6107d9816101f3565b82525050565b600081519050919050565b600082825260208201905092915050565b6000819050602082019050919050565b600081519050919050565b600082825260208201905092915050565b60005b8381101561084557808201518184015260208101905061082a565b83811115610854576000848401525b50505050565b60006108658261080b565b61086f8185610816565b935061087f818560208601610827565b61088881610271565b840191505092915050565b600061089f838361085a565b905092915050565b6000602082019050919050565b60006108bf826107df565b6108c981856107ea565b9350836020820285016108db856107fb565b8060005b8581101561091757848403895281516108f88582610893565b9450610903836108a7565b925060208a019950506001810190506108df565b50829750879550505050505092915050565b61093281610638565b82525050565b600060808201905061094d60008301876107d0565b61095a60208301866107d0565b818103604083015261096c81856108b4565b905061097b6060830184610929565b9594505050505056fea2646970667358221220b4b8ae57cba2888139162561a63a6b9ce6b79d50a7848417acce1333a48af81d64736f6c634300080d0033",
					"opcodes": "PUSH1 0x80 PUSH1 0x40 MSTORE CALLVALUE DUP1 ISZERO PUSH2 0x10 JUMPI PUSH1 0x0 DUP1 REVERT JUMPDEST POP PUSH2 0x9BA DUP1 PUSH2 0x20 PUSH1 0x0 CODECOPY PUSH1 0x0 RETURN INVALID PUSH1 0x80 PUSH1 0x40 MSTORE CALLVALUE DUP1 ISZERO PUSH2 0x10 JUMPI PUSH1 0x0 DUP1 REVERT JUMPDEST POP PUSH1 0x4 CALLDATASIZE LT PUSH2 0x36 JUMPI PUSH1 0x0 CALLDATALOAD PUSH1 0xE0 SHR DUP1 PUSH4 0x42F9D5BE EQ PUSH2 0x3B JUMPI DUP1 PUSH4 0xEE4D6020 EQ PUSH2 0x6B JUMPI JUMPDEST PUSH1 0x0 DUP1 REVERT JUMPDEST PUSH2 0x55 PUSH1 0x4 DUP1 CALLDATASIZE SUB DUP2 ADD SWAP1 PUSH2 0x50 SWAP2 SWAP1 PUSH2 0x534 JUMP JUMPDEST PUSH2 0x9B JUMP JUMPDEST PUSH1 0x40 MLOAD PUSH2 0x62 SWAP2 SWAP1 PUSH2 0x61D JUMP JUMPDEST PUSH1 0x40 MLOAD DUP1 SWAP2 SUB SWAP1 RETURN JUMPDEST PUSH2 0x85 PUSH1 0x4 DUP1 CALLDATASIZE SUB DUP2 ADD SWAP1 PUSH2 0x80 SWAP2 SWAP1 PUSH2 0x66E JUMP JUMPDEST PUSH2 0x176 JUMP JUMPDEST PUSH1 0x40 MLOAD PUSH2 0x92 SWAP2 SWAP1 PUSH2 0x61D JUMP JUMPDEST PUSH1 0x40 MLOAD DUP1 SWAP2 SUB SWAP1 RETURN JUMPDEST PUSH1 0x0 DUP1 PUSH2 0xB1 DUP10 DUP7 DUP6 DUP8 DUP1 MLOAD SWAP1 PUSH1 0x20 ADD KECCAK256 PUSH2 0x176 JUMP JUMPDEST SWAP1 POP PUSH1 0x0 DUP1 PUSH1 0x0 DUP4 DUP2 MSTORE PUSH1 0x20 ADD SWAP1 DUP2 MSTORE PUSH1 0x20 ADD PUSH1 0x0 KECCAK256 SWAP1 POP PUSH1 0x0 PUSH1 0x3C DUP1 PUSH1 0x18 DUP13 PUSH2 0xDB SWAP2 SWAP1 PUSH2 0x720 JUMP JUMPDEST PUSH2 0xE5 SWAP2 SWAP1 PUSH2 0x720 JUMP JUMPDEST PUSH2 0xEF SWAP2 SWAP1 PUSH2 0x720 JUMP JUMPDEST TIMESTAMP PUSH2 0xFA SWAP2 SWAP1 PUSH2 0x77A JUMP JUMPDEST SWAP1 POP PUSH1 0x0 PUSH1 0x3C DUP1 PUSH1 0x18 DUP13 PUSH2 0x10E SWAP2 SWAP1 PUSH2 0x720 JUMP JUMPDEST PUSH2 0x118 SWAP2 SWAP1 PUSH2 0x720 JUMP JUMPDEST PUSH2 0x122 SWAP2 SWAP1 PUSH2 0x720 JUMP JUMPDEST DUP3 PUSH2 0x12D SWAP2 SWAP1 PUSH2 0x77A JUMP JUMPDEST SWAP1 POP PUSH2 0x145 DUP3 DUP5 PUSH1 0x0 ADD PUSH2 0x1B2 SWAP1 SWAP2 SWAP1 PUSH4 0xFFFFFFFF AND JUMP JUMPDEST PUSH2 0x15B DUP2 DUP5 PUSH1 0x1 ADD PUSH2 0x1B2 SWAP1 SWAP2 SWAP1 PUSH4 0xFFFFFFFF AND JUMP JUMPDEST DUP9 DUP4 PUSH1 0x2 ADD DUP2 SWAP1 SSTORE POP DUP4 SWAP5 POP POP POP POP POP SWAP8 SWAP7 POP POP POP POP POP POP POP JUMP JUMPDEST PUSH1 0x0 DUP5 DUP5 DUP5 DUP5 PUSH1 0x40 MLOAD PUSH1 0x20 ADD PUSH2 0x18F SWAP5 SWAP4 SWAP3 SWAP2 SWAP1 PUSH2 0x938 JUMP JUMPDEST PUSH1 0x40 MLOAD PUSH1 0x20 DUP2 DUP4 SUB SUB DUP2 MSTORE SWAP1 PUSH1 0x40 MSTORE DUP1 MLOAD SWAP1 PUSH1 0x20 ADD KECCAK256 PUSH1 0x0 SHR SWAP1 POP SWAP5 SWAP4 POP POP POP POP JUMP JUMPDEST DUP1 DUP3 PUSH1 0x0 ADD DUP2 SWAP1 SSTORE POP POP POP JUMP JUMPDEST PUSH1 0x0 PUSH1 0x40 MLOAD SWAP1 POP SWAP1 JUMP JUMPDEST PUSH1 0x0 DUP1 REVERT JUMPDEST PUSH1 0x0 DUP1 REVERT JUMPDEST PUSH1 0x0 PUSH20 0xFFFFFFFFFFFFFFFFFFFFFFFFFFFFFFFFFFFFFFFF DUP3 AND SWAP1 POP SWAP2 SWAP1 POP JUMP JUMPDEST PUSH1 0x0 PUSH2 0x1FE DUP3 PUSH2 0x1D3 JUMP JUMPDEST SWAP1 POP SWAP2 SWAP1 POP JUMP JUMPDEST PUSH2 0x20E DUP2 PUSH2 0x1F3 JUMP JUMPDEST DUP2 EQ PUSH2 0x219 JUMPI PUSH1 0x0 DUP1 REVERT JUMPDEST POP JUMP JUMPDEST PUSH1 0x0 DUP2 CALLDATALOAD SWAP1 POP PUSH2 0x22B DUP2 PUSH2 0x205 JUMP JUMPDEST SWAP3 SWAP2 POP POP JUMP JUMPDEST PUSH1 0x0 DUP2 SWAP1 POP SWAP2 SWAP1 POP JUMP JUMPDEST PUSH2 0x244 DUP2 PUSH2 0x231 JUMP JUMPDEST DUP2 EQ PUSH2 0x24F JUMPI PUSH1 0x0 DUP1 REVERT JUMPDEST POP JUMP JUMPDEST PUSH1 0x0 DUP2 CALLDATALOAD SWAP1 POP PUSH2 0x261 DUP2 PUSH2 0x23B JUMP JUMPDEST SWAP3 SWAP2 POP POP JUMP JUMPDEST PUSH1 0x0 DUP1 REVERT JUMPDEST PUSH1 0x0 DUP1 REVERT JUMPDEST PUSH1 0x0 PUSH1 0x1F NOT PUSH1 0x1F DUP4 ADD AND SWAP1 POP SWAP2 SWAP1 POP JUMP JUMPDEST PUSH32 0x4E487B7100000000000000000000000000000000000000000000000000000000 PUSH1 0x0 MSTORE PUSH1 0x41 PUSH1 0x4 MSTORE PUSH1 0x24 PUSH1 0x0 REVERT JUMPDEST PUSH2 0x2BA DUP3 PUSH2 0x271 JUMP JUMPDEST DUP2 ADD DUP2 DUP2 LT PUSH8 0xFFFFFFFFFFFFFFFF DUP3 GT OR ISZERO PUSH2 0x2D9 JUMPI PUSH2 0x2D8 PUSH2 0x282 JUMP JUMPDEST JUMPDEST DUP1 PUSH1 0x40 MSTORE POP POP POP JUMP JUMPDEST PUSH1 0x0 PUSH2 0x2EC PUSH2 0x1BF JUMP JUMPDEST SWAP1 POP PUSH2 0x2F8 DUP3 DUP3 PUSH2 0x2B1 JUMP JUMPDEST SWAP2 SWAP1 POP JUMP JUMPDEST PUSH1 0x0 PUSH8 0xFFFFFFFFFFFFFFFF DUP3 GT ISZERO PUSH2 0x318 JUMPI PUSH2 0x317 PUSH2 0x282 JUMP JUMPDEST JUMPDEST PUSH2 0x321 DUP3 PUSH2 0x271 JUMP JUMPDEST SWAP1 POP PUSH1 0x20 DUP2 ADD SWAP1 POP SWAP2 SWAP1 POP JUMP JUMPDEST DUP3 DUP2 DUP4 CALLDATACOPY PUSH1 0x0 DUP4 DUP4 ADD MSTORE POP POP POP JUMP JUMPDEST PUSH1 0x0 PUSH2 0x350 PUSH2 0x34B DUP5 PUSH2 0x2FD JUMP JUMPDEST PUSH2 0x2E2 JUMP JUMPDEST SWAP1 POP DUP3 DUP2 MSTORE PUSH1 0x20 DUP2 ADD DUP5 DUP5 DUP5 ADD GT ISZERO PUSH2 0x36C JUMPI PUSH2 0x36B PUSH2 0x26C JUMP JUMPDEST JUMPDEST PUSH2 0x377 DUP5 DUP3 DUP6 PUSH2 0x32E JUMP JUMPDEST POP SWAP4 SWAP3 POP POP POP JUMP JUMPDEST PUSH1 0x0 DUP3 PUSH1 0x1F DUP4 ADD SLT PUSH2 0x394 JUMPI PUSH2 0x393 PUSH2 0x267 JUMP JUMPDEST JUMPDEST DUP2 CALLDATALOAD PUSH2 0x3A4 DUP5 DUP3 PUSH1 0x20 DUP7 ADD PUSH2 0x33D JUMP JUMPDEST SWAP2 POP POP SWAP3 SWAP2 POP POP JUMP JUMPDEST PUSH1 0x0 PUSH8 0xFFFFFFFFFFFFFFFF DUP3 GT ISZERO PUSH2 0x3C8 JUMPI PUSH2 0x3C7 PUSH2 0x282 JUMP JUMPDEST JUMPDEST PUSH1 0x20 DUP3 MUL SWAP1 POP PUSH1 0x20 DUP2 ADD SWAP1 POP SWAP2 SWAP1 POP JUMP JUMPDEST PUSH1 0x0 DUP1 REVERT JUMPDEST PUSH1 0x0 PUSH8 0xFFFFFFFFFFFFFFFF DUP3 GT ISZERO PUSH2 0x3F9 JUMPI PUSH2 0x3F8 PUSH2 0x282 JUMP JUMPDEST JUMPDEST PUSH2 0x402 DUP3 PUSH2 0x271 JUMP JUMPDEST SWAP1 POP PUSH1 0x20 DUP2 ADD SWAP1 POP SWAP2 SWAP1 POP JUMP JUMPDEST PUSH1 0x0 PUSH2 0x422 PUSH2 0x41D DUP5 PUSH2 0x3DE JUMP JUMPDEST PUSH2 0x2E2 JUMP JUMPDEST SWAP1 POP DUP3 DUP2 MSTORE PUSH1 0x20 DUP2 ADD DUP5 DUP5 DUP5 ADD GT ISZERO PUSH2 0x43E JUMPI PUSH2 0x43D PUSH2 0x26C JUMP JUMPDEST JUMPDEST PUSH2 0x449 DUP5 DUP3 DUP6 PUSH2 0x32E JUMP JUMPDEST POP SWAP4 SWAP3 POP POP POP JUMP JUMPDEST PUSH1 0x0 DUP3 PUSH1 0x1F DUP4 ADD SLT PUSH2 0x466 JUMPI PUSH2 0x465 PUSH2 0x267 JUMP JUMPDEST JUMPDEST DUP2 CALLDATALOAD PUSH2 0x476 DUP5 DUP3 PUSH1 0x20 DUP7 ADD PUSH2 0x40F JUMP JUMPDEST SWAP2 POP POP SWAP3 SWAP2 POP POP JUMP JUMPDEST PUSH1 0x0 PUSH2 0x492 PUSH2 0x48D DUP5 PUSH2 0x3AD JUMP JUMPDEST PUSH2 0x2E2 JUMP JUMPDEST SWAP1 POP DUP1 DUP4 DUP3 MSTORE PUSH1 0x20 DUP3 ADD SWAP1 POP PUSH1 0x20 DUP5 MUL DUP4 ADD DUP6 DUP2 GT ISZERO PUSH2 0x4B5 JUMPI PUSH2 0x4B4 PUSH2 0x3D9 JUMP JUMPDEST JUMPDEST DUP4 JUMPDEST DUP2 DUP2 LT ISZERO PUSH2 0x4FC JUMPI DUP1 CALLDATALOAD PUSH8 0xFFFFFFFFFFFFFFFF DUP2 GT ISZERO PUSH2 0x4DA JUMPI PUSH2 0x4D9 PUSH2 0x267 JUMP JUMPDEST JUMPDEST DUP1 DUP7 ADD PUSH2 0x4E7 DUP10 DUP3 PUSH2 0x451 JUMP JUMPDEST DUP6 MSTORE PUSH1 0x20 DUP6 ADD SWAP5 POP POP POP PUSH1 0x20 DUP2 ADD SWAP1 POP PUSH2 0x4B7 JUMP JUMPDEST POP POP POP SWAP4 SWAP3 POP POP POP JUMP JUMPDEST PUSH1 0x0 DUP3 PUSH1 0x1F DUP4 ADD SLT PUSH2 0x51B JUMPI PUSH2 0x51A PUSH2 0x267 JUMP JUMPDEST JUMPDEST DUP2 CALLDATALOAD PUSH2 0x52B DUP5 DUP3 PUSH1 0x20 DUP7 ADD PUSH2 0x47F JUMP JUMPDEST SWAP2 POP POP SWAP3 SWAP2 POP POP JUMP JUMPDEST PUSH1 0x0 DUP1 PUSH1 0x0 DUP1 PUSH1 0x0 DUP1 PUSH1 0x0 PUSH1 0xE0 DUP9 DUP11 SUB SLT ISZERO PUSH2 0x553 JUMPI PUSH2 0x552 PUSH2 0x1C9 JUMP JUMPDEST JUMPDEST PUSH1 0x0 PUSH2 0x561 DUP11 DUP3 DUP12 ADD PUSH2 0x21C JUMP JUMPDEST SWAP8 POP POP PUSH1 0x20 PUSH2 0x572 DUP11 DUP3 DUP12 ADD PUSH2 0x252 JUMP JUMPDEST SWAP7 POP POP PUSH1 0x40 PUSH2 0x583 DUP11 DUP3 DUP12 ADD PUSH2 0x252 JUMP JUMPDEST SWAP6 POP POP PUSH1 0x60 PUSH2 0x594 DUP11 DUP3 DUP12 ADD PUSH2 0x252 JUMP JUMPDEST SWAP5 POP POP PUSH1 0x80 PUSH2 0x5A5 DUP11 DUP3 DUP12 ADD PUSH2 0x21C JUMP JUMPDEST SWAP4 POP POP PUSH1 0xA0 DUP9 ADD CALLDATALOAD PUSH8 0xFFFFFFFFFFFFFFFF DUP2 GT ISZERO PUSH2 0x5C6 JUMPI PUSH2 0x5C5 PUSH2 0x1CE JUMP JUMPDEST JUMPDEST PUSH2 0x5D2 DUP11 DUP3 DUP12 ADD PUSH2 0x37F JUMP JUMPDEST SWAP3 POP POP PUSH1 0xC0 DUP9 ADD CALLDATALOAD PUSH8 0xFFFFFFFFFFFFFFFF DUP2 GT ISZERO PUSH2 0x5F3 JUMPI PUSH2 0x5F2 PUSH2 0x1CE JUMP JUMPDEST JUMPDEST PUSH2 0x5FF DUP11 DUP3 DUP12 ADD PUSH2 0x506 JUMP JUMPDEST SWAP2 POP POP SWAP3 SWAP6 SWAP9 SWAP2 SWAP5 SWAP8 POP SWAP3 SWAP6 POP JUMP JUMPDEST PUSH2 0x617 DUP2 PUSH2 0x231 JUMP JUMPDEST DUP3 MSTORE POP POP JUMP JUMPDEST PUSH1 0x0 PUSH1 0x20 DUP3 ADD SWAP1 POP PUSH2 0x632 PUSH1 0x0 DUP4 ADD DUP5 PUSH2 0x60E JUMP JUMPDEST SWAP3 SWAP2 POP POP JUMP JUMPDEST PUSH1 0x0 DUP2 SWAP1 POP SWAP2 SWAP1 POP JUMP JUMPDEST PUSH2 0x64B DUP2 PUSH2 0x638 JUMP JUMPDEST DUP2 EQ PUSH2 0x656 JUMPI PUSH1 0x0 DUP1 REVERT JUMPDEST POP JUMP JUMPDEST PUSH1 0x0 DUP2 CALLDATALOAD SWAP1 POP PUSH2 0x668 DUP2 PUSH2 0x642 JUMP JUMPDEST SWAP3 SWAP2 POP POP JUMP JUMPDEST PUSH1 0x0 DUP1 PUSH1 0x0 DUP1 PUSH1 0x80 DUP6 DUP8 SUB SLT ISZERO PUSH2 0x688 JUMPI PUSH2 0x687 PUSH2 0x1C9 JUMP JUMPDEST JUMPDEST PUSH1 0x0 PUSH2 0x696 DUP8 DUP3 DUP9 ADD PUSH2 0x21C JUMP JUMPDEST SWAP5 POP POP PUSH1 0x20 PUSH2 0x6A7 DUP8 DUP3 DUP9 ADD PUSH2 0x21C JUMP JUMPDEST SWAP4 POP POP PUSH1 0x40 DUP6 ADD CALLDATALOAD PUSH8 0xFFFFFFFFFFFFFFFF DUP2 GT ISZERO PUSH2 0x6C8 JUMPI PUSH2 0x6C7 PUSH2 0x1CE JUMP JUMPDEST JUMPDEST PUSH2 0x6D4 DUP8 DUP3 DUP9 ADD PUSH2 0x506 JUMP JUMPDEST SWAP3 POP POP PUSH1 0x60 PUSH2 0x6E5 DUP8 DUP3 DUP9 ADD PUSH2 0x659 JUMP JUMPDEST SWAP2 POP POP SWAP3 SWAP6 SWAP2 SWAP5 POP SWAP3 POP JUMP JUMPDEST PUSH32 0x4E487B7100000000000000000000000000000000000000000000000000000000 PUSH1 0x0 MSTORE PUSH1 0x11 PUSH1 0x4 MSTORE PUSH1 0x24 PUSH1 0x0 REVERT JUMPDEST PUSH1 0x0 PUSH2 0x72B DUP3 PUSH2 0x231 JUMP JUMPDEST SWAP2 POP PUSH2 0x736 DUP4 PUSH2 0x231 JUMP JUMPDEST SWAP3 POP DUP2 PUSH32 0xFFFFFFFFFFFFFFFFFFFFFFFFFFFFFFFFFFFFFFFFFFFFFFFFFFFFFFFFFFFFFFFF DIV DUP4 GT DUP3 ISZERO ISZERO AND ISZERO PUSH2 0x76F JUMPI PUSH2 0x76E PUSH2 0x6F1 JUMP JUMPDEST JUMPDEST DUP3 DUP3 MUL SWAP1 POP SWAP3 SWAP2 POP POP JUMP JUMPDEST PUSH1 0x0 PUSH2 0x785 DUP3 PUSH2 0x231 JUMP JUMPDEST SWAP2 POP PUSH2 0x790 DUP4 PUSH2 0x231 JUMP JUMPDEST SWAP3 POP DUP3 PUSH32 0xFFFFFFFFFFFFFFFFFFFFFFFFFFFFFFFFFFFFFFFFFFFFFFFFFFFFFFFFFFFFFFFF SUB DUP3 GT ISZERO PUSH2 0x7C5 JUMPI PUSH2 0x7C4 PUSH2 0x6F1 JUMP JUMPDEST JUMPDEST DUP3 DUP3 ADD SWAP1 POP SWAP3 SWAP2 POP POP JUMP JUMPDEST PUSH2 0x7D9 DUP2 PUSH2 0x1F3 JUMP JUMPDEST DUP3 MSTORE POP POP JUMP JUMPDEST PUSH1 0x0 DUP2 MLOAD SWAP1 POP SWAP2 SWAP1 POP JUMP JUMPDEST PUSH1 0x0 DUP3 DUP3 MSTORE PUSH1 0x20 DUP3 ADD SWAP1 POP SWAP3 SWAP2 POP POP JUMP JUMPDEST PUSH1 0x0 DUP2 SWAP1 POP PUSH1 0x20 DUP3 ADD SWAP1 POP SWAP2 SWAP1 POP JUMP JUMPDEST PUSH1 0x0 DUP2 MLOAD SWAP1 POP SWAP2 SWAP1 POP JUMP JUMPDEST PUSH1 0x0 DUP3 DUP3 MSTORE PUSH1 0x20 DUP3 ADD SWAP1 POP SWAP3 SWAP2 POP POP JUMP JUMPDEST PUSH1 0x0 JUMPDEST DUP4 DUP2 LT ISZERO PUSH2 0x845 JUMPI DUP1 DUP3 ADD MLOAD DUP2 DUP5 ADD MSTORE PUSH1 0x20 DUP2 ADD SWAP1 POP PUSH2 0x82A JUMP JUMPDEST DUP4 DUP2 GT ISZERO PUSH2 0x854 JUMPI PUSH1 0x0 DUP5 DUP5 ADD MSTORE JUMPDEST POP POP POP POP JUMP JUMPDEST PUSH1 0x0 PUSH2 0x865 DUP3 PUSH2 0x80B JUMP JUMPDEST PUSH2 0x86F DUP2 DUP6 PUSH2 0x816 JUMP JUMPDEST SWAP4 POP PUSH2 0x87F DUP2 DUP6 PUSH1 0x20 DUP7 ADD PUSH2 0x827 JUMP JUMPDEST PUSH2 0x888 DUP2 PUSH2 0x271 JUMP JUMPDEST DUP5 ADD SWAP2 POP POP SWAP3 SWAP2 POP POP JUMP JUMPDEST PUSH1 0x0 PUSH2 0x89F DUP4 DUP4 PUSH2 0x85A JUMP JUMPDEST SWAP1 POP SWAP3 SWAP2 POP POP JUMP JUMPDEST PUSH1 0x0 PUSH1 0x20 DUP3 ADD SWAP1 POP SWAP2 SWAP1 POP JUMP JUMPDEST PUSH1 0x0 PUSH2 0x8BF DUP3 PUSH2 0x7DF JUMP JUMPDEST PUSH2 0x8C9 DUP2 DUP6 PUSH2 0x7EA JUMP JUMPDEST SWAP4 POP DUP4 PUSH1 0x20 DUP3 MUL DUP6 ADD PUSH2 0x8DB DUP6 PUSH2 0x7FB JUMP JUMPDEST DUP1 PUSH1 0x0 JUMPDEST DUP6 DUP2 LT ISZERO PUSH2 0x917 JUMPI DUP5 DUP5 SUB DUP10 MSTORE DUP2 MLOAD PUSH2 0x8F8 DUP6 DUP3 PUSH2 0x893 JUMP JUMPDEST SWAP5 POP PUSH2 0x903 DUP4 PUSH2 0x8A7 JUMP JUMPDEST SWAP3 POP PUSH1 0x20 DUP11 ADD SWAP10 POP POP PUSH1 0x1 DUP2 ADD SWAP1 POP PUSH2 0x8DF JUMP JUMPDEST POP DUP3 SWAP8 POP DUP8 SWAP6 POP POP POP POP POP POP SWAP3 SWAP2 POP POP JUMP JUMPDEST PUSH2 0x932 DUP2 PUSH2 0x638 JUMP JUMPDEST DUP3 MSTORE POP POP JUMP JUMPDEST PUSH1 0x0 PUSH1 0x80 DUP3 ADD SWAP1 POP PUSH2 0x94D PUSH1 0x0 DUP4 ADD DUP8 PUSH2 0x7D0 JUMP JUMPDEST PUSH2 0x95A PUSH1 0x20 DUP4 ADD DUP7 PUSH2 0x7D0 JUMP JUMPDEST DUP2 DUP2 SUB PUSH1 0x40 DUP4 ADD MSTORE PUSH2 0x96C DUP2 DUP6 PUSH2 0x8B4 JUMP JUMPDEST SWAP1 POP PUSH2 0x97B PUSH1 0x60 DUP4 ADD DUP5 PUSH2 0x929 JUMP JUMPDEST SWAP6 SWAP5 POP POP POP POP POP JUMP INVALID LOG2 PUSH5 0x6970667358 0x22 SLT KECCAK256 0xB4 0xB8 0xAE JUMPI 0xCB LOG2 DUP9 DUP2 CODECOPY AND 0x25 PUSH2 0xA63A PUSH12 0x9CE6B79D50A7848417ACCE13 CALLER LOG4 DUP11 0xF8 SAR PUSH5 0x736F6C6343 STOP ADDMOD 0xD STOP CALLER "
				},
				"gasEstimates": {
					"creation": {
						"codeDepositCost": "498000",
						"executionCost": "530",
						"totalCost": "498530"
					},
					"external": {
						"hashProposal(address,address,bytes[],bytes32)": "infinite",
						"proposal(address,uint256,uint256,uint256,address,string,bytes[])": "infinite"
					}
				},
				"methodIdentifiers": {
					"hashProposal(address,address,bytes[],bytes32)": "ee4d6020",
					"proposal(address,uint256,uint256,uint256,address,string,bytes[])": "42f9d5be"
				}
			},
			"storageLayout": {
				"storage": [
					{
						"astId": 24,
						"contract": ".workspaces/default_workspace/unMiracle/UMRCmiracle.sol:UMRproposal",
						"label": "_proposals",
						"offset": 0,
						"slot": "0",
						"type": "t_mapping(t_uint256,t_struct(ProposalCore)19_storage)"
					}
				],
				"types": {
					"t_bool": {
						"encoding": "inplace",
						"label": "bool",
						"numberOfBytes": "1"
					},
					"t_mapping(t_uint256,t_struct(ProposalCore)19_storage)": {
						"encoding": "mapping",
						"key": "t_uint256",
						"label": "mapping(uint256 => struct UMRproposal.ProposalCore)",
						"numberOfBytes": "32",
						"value": "t_struct(ProposalCore)19_storage"
					},
					"t_struct(ProposalCore)19_storage": {
						"encoding": "inplace",
						"label": "struct UMRproposal.ProposalCore",
						"members": [
							{
								"astId": 9,
								"contract": ".workspaces/default_workspace/unMiracle/UMRCmiracle.sol:UMRproposal",
								"label": "donationStart",
								"offset": 0,
								"slot": "0",
								"type": "t_struct(Timestamp)149_storage"
							},
							{
								"astId": 12,
								"contract": ".workspaces/default_workspace/unMiracle/UMRCmiracle.sol:UMRproposal",
								"label": "donationEnd",
								"offset": 0,
								"slot": "1",
								"type": "t_struct(Timestamp)149_storage"
							},
							{
								"astId": 14,
								"contract": ".workspaces/default_workspace/unMiracle/UMRCmiracle.sol:UMRproposal",
								"label": "donateMinimum",
								"offset": 0,
								"slot": "2",
								"type": "t_uint256"
							},
							{
								"astId": 16,
								"contract": ".workspaces/default_workspace/unMiracle/UMRCmiracle.sol:UMRproposal",
								"label": "executed",
								"offset": 0,
								"slot": "3",
								"type": "t_bool"
							},
							{
								"astId": 18,
								"contract": ".workspaces/default_workspace/unMiracle/UMRCmiracle.sol:UMRproposal",
								"label": "canceled",
								"offset": 1,
								"slot": "3",
								"type": "t_bool"
							}
						],
						"numberOfBytes": "128"
					},
					"t_struct(Timestamp)149_storage": {
						"encoding": "inplace",
						"label": "struct Time.Timestamp",
						"members": [
							{
								"astId": 148,
								"contract": ".workspaces/default_workspace/unMiracle/UMRCmiracle.sol:UMRproposal",
								"label": "deadline",
								"offset": 0,
								"slot": "0",
								"type": "t_uint256"
							}
						],
						"numberOfBytes": "32"
					},
					"t_uint256": {
						"encoding": "inplace",
						"label": "uint256",
						"numberOfBytes": "32"
					}
				}
			},
			"userdoc": {
				"kind": "user",
				"methods": {},
				"version": 1
			}
		}
	}
}