{
	".workspaces/default_workspace/unMiracle/test.sol": {
		"test": {
			"abi": [
				{
					"inputs": [],
					"name": "_executor",
					"outputs": [
						{
							"internalType": "address",
							"name": "",
							"type": "address"
						}
					],
					"stateMutability": "view",
					"type": "function"
				},
				{
					"inputs": [
						{
							"internalType": "bytes",
							"name": "data",
							"type": "bytes"
						}
					],
					"name": "abiDecode",
					"outputs": [
						{
							"internalType": "uint256",
							"name": "_str1",
							"type": "uint256"
						},
						{
							"internalType": "uint256",
							"name": "_number",
							"type": "uint256"
						},
						{
							"internalType": "uint256",
							"name": "_str2",
							"type": "uint256"
						}
					],
					"stateMutability": "nonpayable",
					"type": "function"
				},
				{
					"inputs": [],
					"name": "abiEncode",
					"outputs": [
						{
							"internalType": "bytes",
							"name": "",
							"type": "bytes"
						}
					],
					"stateMutability": "nonpayable",
					"type": "function"
				},
				{
					"inputs": [],
					"name": "deadline",
					"outputs": [
						{
							"internalType": "uint64",
							"name": "",
							"type": "uint64"
						}
					],
					"stateMutability": "view",
					"type": "function"
				},
				{
					"inputs": [],
					"name": "keccak256test",
					"outputs": [
						{
							"internalType": "bytes",
							"name": "",
							"type": "bytes"
						}
					],
					"stateMutability": "nonpayable",
					"type": "function"
				},
				{
					"inputs": [],
					"name": "name",
					"outputs": [
						{
							"internalType": "string",
							"name": "",
							"type": "string"
						}
					],
					"stateMutability": "nonpayable",
					"type": "function"
				},
				{
					"inputs": [],
					"name": "num",
					"outputs": [
						{
							"internalType": "uint256",
							"name": "",
							"type": "uint256"
						}
					],
					"stateMutability": "view",
					"type": "function"
				},
				{
					"inputs": [],
					"name": "snapshot",
					"outputs": [
						{
							"internalType": "uint64",
							"name": "",
							"type": "uint64"
						}
					],
					"stateMutability": "view",
					"type": "function"
				},
				{
					"inputs": [],
					"name": "time",
					"outputs": [
						{
							"internalType": "uint256",
							"name": "",
							"type": "uint256"
						}
					],
					"stateMutability": "nonpayable",
					"type": "function"
				},
				{
					"inputs": [],
					"name": "votingDelay",
					"outputs": [
						{
							"internalType": "uint256",
							"name": "",
							"type": "uint256"
						}
					],
					"stateMutability": "pure",
					"type": "function"
				},
				{
					"inputs": [],
					"name": "votingPeriod",
					"outputs": [
						{
							"internalType": "uint256",
							"name": "",
							"type": "uint256"
						}
					],
					"stateMutability": "pure",
					"type": "function"
				}
			],
			"devdoc": {
				"kind": "dev",
				"methods": {},
				"version": 1
			},
			"evm": {
				"assembly": "    /* \".workspaces/default_workspace/unMiracle/test.sol\":167:2051  contract test {... */\n  mstore(0x40, 0x80)\n  callvalue\n  dup1\n  iszero\n  tag_1\n  jumpi\n  0x00\n  dup1\n  revert\ntag_1:\n  pop\n  dataSize(sub_0)\n  dup1\n  dataOffset(sub_0)\n  0x00\n  codecopy\n  0x00\n  return\nstop\n\nsub_0: assembly {\n        /* \".workspaces/default_workspace/unMiracle/test.sol\":167:2051  contract test {... */\n      mstore(0x40, 0x80)\n      callvalue\n      dup1\n      iszero\n      tag_1\n      jumpi\n      0x00\n      dup1\n      revert\n    tag_1:\n      pop\n      jumpi(tag_2, lt(calldatasize, 0x04))\n      shr(0xe0, calldataload(0x00))\n      dup1\n      0x416bdc52\n      gt\n      tag_14\n      jumpi\n      dup1\n      0x416bdc52\n      eq\n      tag_8\n      jumpi\n      dup1\n      0x4e70b1dc\n      eq\n      tag_9\n      jumpi\n      dup1\n      0x6097e7a3\n      eq\n      tag_10\n      jumpi\n      dup1\n      0x8c492a76\n      eq\n      tag_11\n      jumpi\n      dup1\n      0x9711715a\n      eq\n      tag_12\n      jumpi\n      dup1\n      0xfb1a746f\n      eq\n      tag_13\n      jumpi\n      jump(tag_2)\n    tag_14:\n      dup1\n      0x02a251a3\n      eq\n      tag_3\n      jumpi\n      dup1\n      0x06fdde03\n      eq\n      tag_4\n      jumpi\n      dup1\n      0x16ada547\n      eq\n      tag_5\n      jumpi\n      dup1\n      0x29dcb0cf\n      eq\n      tag_6\n      jumpi\n      dup1\n      0x3932abb1\n      eq\n      tag_7\n      jumpi\n    tag_2:\n      0x00\n      dup1\n      revert\n        /* \".workspaces/default_workspace/unMiracle/test.sol\":1579:1670  function votingPeriod() public pure returns(uint256) {... */\n    tag_3:\n      tag_15\n      tag_16\n      jump\t// in\n    tag_15:\n      mload(0x40)\n      tag_17\n      swap2\n      swap1\n      tag_18\n      jump\t// in\n    tag_17:\n      mload(0x40)\n      dup1\n      swap2\n      sub\n      swap1\n      return\n        /* \".workspaces/default_workspace/unMiracle/test.sol\":676:756  function name() public returns(string memory) {... */\n    tag_4:\n      tag_19\n      tag_20\n      jump\t// in\n    tag_19:\n      mload(0x40)\n      tag_21\n      swap2\n      swap1\n      tag_22\n      jump\t// in\n    tag_21:\n      mload(0x40)\n      dup1\n      swap2\n      sub\n      swap1\n      return\n        /* \".workspaces/default_workspace/unMiracle/test.sol\":554:670  function time() public returns(uint256){... */\n    tag_5:\n      tag_23\n      tag_24\n      jump\t// in\n    tag_23:\n      mload(0x40)\n      tag_25\n      swap2\n      swap1\n      tag_18\n      jump\t// in\n    tag_25:\n      mload(0x40)\n      dup1\n      swap2\n      sub\n      swap1\n      return\n        /* \".workspaces/default_workspace/unMiracle/test.sol\":1835:2049  function deadline() public view returns(uint64) {... */\n    tag_6:\n      tag_26\n      tag_27\n      jump\t// in\n    tag_26:\n      mload(0x40)\n      tag_28\n      swap2\n      swap1\n      tag_29\n      jump\t// in\n    tag_28:\n      mload(0x40)\n      dup1\n      swap2\n      sub\n      swap1\n      return\n        /* \".workspaces/default_workspace/unMiracle/test.sol\":1496:1573  function votingDelay() public pure returns(uint256) {... */\n    tag_7:\n      tag_30\n      tag_31\n      jump\t// in\n    tag_30:\n      mload(0x40)\n      tag_32\n      swap2\n      swap1\n      tag_18\n      jump\t// in\n    tag_32:\n      mload(0x40)\n      dup1\n      swap2\n      sub\n      swap1\n      return\n        /* \".workspaces/default_workspace/unMiracle/test.sol\":1307:1489  function abiDecode(bytes memory data) public returns(uint _str1, uint _number, uint _str2) {... */\n    tag_8:\n      tag_33\n      0x04\n      dup1\n      calldatasize\n      sub\n      dup2\n      add\n      swap1\n      tag_34\n      swap2\n      swap1\n      tag_35\n      jump\t// in\n    tag_34:\n      tag_36\n      jump\t// in\n    tag_33:\n      mload(0x40)\n      tag_37\n      swap4\n      swap3\n      swap2\n      swap1\n      tag_38\n      jump\t// in\n    tag_37:\n      mload(0x40)\n      dup1\n      swap2\n      sub\n      swap1\n      return\n        /* \".workspaces/default_workspace/unMiracle/test.sol\":302:454  function num() public view returns(uint256) {... */\n    tag_9:\n      tag_39\n      tag_40\n      jump\t// in\n    tag_39:\n      mload(0x40)\n      tag_41\n      swap2\n      swap1\n      tag_18\n      jump\t// in\n    tag_41:\n      mload(0x40)\n      dup1\n      swap2\n      sub\n      swap1\n      return\n        /* \".workspaces/default_workspace/unMiracle/test.sol\":1204:1302  function abiEncode() public returns(bytes memory) {... */\n    tag_10:\n      tag_42\n      tag_43\n      jump\t// in\n    tag_42:\n      mload(0x40)\n      tag_44\n      swap2\n      swap1\n      tag_45\n      jump\t// in\n    tag_44:\n      mload(0x40)\n      dup1\n      swap2\n      sub\n      swap1\n      return\n        /* \".workspaces/default_workspace/unMiracle/test.sol\":934:1198  function keccak256test() public returns(bytes memory) {... */\n    tag_11:\n      tag_46\n      tag_47\n      jump\t// in\n    tag_46:\n      mload(0x40)\n      tag_48\n      swap2\n      swap1\n      tag_45\n      jump\t// in\n    tag_48:\n      mload(0x40)\n      dup1\n      swap2\n      sub\n      swap1\n      return\n        /* \".workspaces/default_workspace/unMiracle/test.sol\":1676:1829  function snapshot() public view returns(uint64) {... */\n    tag_12:\n      tag_49\n      tag_50\n      jump\t// in\n    tag_49:\n      mload(0x40)\n      tag_51\n      swap2\n      swap1\n      tag_29\n      jump\t// in\n    tag_51:\n      mload(0x40)\n      dup1\n      swap2\n      sub\n      swap1\n      return\n        /* \".workspaces/default_workspace/unMiracle/test.sol\":460:548  function _executor() public view returns (address) {... */\n    tag_13:\n      tag_52\n      tag_53\n      jump\t// in\n    tag_52:\n      mload(0x40)\n      tag_54\n      swap2\n      swap1\n      tag_55\n      jump\t// in\n    tag_54:\n      mload(0x40)\n      dup1\n      swap2\n      sub\n      swap1\n      return\n        /* \".workspaces/default_workspace/unMiracle/test.sol\":1579:1670  function votingPeriod() public pure returns(uint256) {... */\n    tag_16:\n        /* \".workspaces/default_workspace/unMiracle/test.sol\":1623:1630  uint256 */\n      0x00\n        /* \".workspaces/default_workspace/unMiracle/test.sol\":1649:1654  45818 */\n      0xb2fa\n        /* \".workspaces/default_workspace/unMiracle/test.sol\":1642:1654  return 45818 */\n      swap1\n      pop\n        /* \".workspaces/default_workspace/unMiracle/test.sol\":1579:1670  function votingPeriod() public pure returns(uint256) {... */\n      swap1\n      jump\t// out\n        /* \".workspaces/default_workspace/unMiracle/test.sol\":676:756  function name() public returns(string memory) {... */\n    tag_20:\n        /* \".workspaces/default_workspace/unMiracle/test.sol\":707:720  string memory */\n      0x60\n        /* \".workspaces/default_workspace/unMiracle/test.sol\":732:749  return 'wonhyeok' */\n      mload(0x40)\n      dup1\n      0x40\n      add\n      0x40\n      mstore\n      dup1\n      0x08\n      dup2\n      mstore\n      0x20\n      add\n      0x776f6e6879656f6b000000000000000000000000000000000000000000000000\n      dup2\n      mstore\n      pop\n      swap1\n      pop\n        /* \".workspaces/default_workspace/unMiracle/test.sol\":676:756  function name() public returns(string memory) {... */\n      swap1\n      jump\t// out\n        /* \".workspaces/default_workspace/unMiracle/test.sol\":554:670  function time() public returns(uint256){... */\n    tag_24:\n        /* \".workspaces/default_workspace/unMiracle/test.sol\":585:592  uint256 */\n      0x00\n        /* \".workspaces/default_workspace/unMiracle/test.sol\":603:613  uint256 re */\n      dup1\n        /* \".workspaces/default_workspace/unMiracle/test.sol\":634:644  5*24*60*60 */\n      0x069780\n        /* \".workspaces/default_workspace/unMiracle/test.sol\":616:631  block.timestamp */\n      timestamp\n        /* \".workspaces/default_workspace/unMiracle/test.sol\":616:644  block.timestamp + 5*24*60*60 */\n      tag_59\n      swap2\n      swap1\n      tag_60\n      jump\t// in\n    tag_59:\n        /* \".workspaces/default_workspace/unMiracle/test.sol\":603:644  uint256 re = block.timestamp + 5*24*60*60 */\n      swap1\n      pop\n        /* \".workspaces/default_workspace/unMiracle/test.sol\":661:663  re */\n      dup1\n        /* \".workspaces/default_workspace/unMiracle/test.sol\":654:663  return re */\n      swap2\n      pop\n      pop\n        /* \".workspaces/default_workspace/unMiracle/test.sol\":554:670  function time() public returns(uint256){... */\n      swap1\n      jump\t// out\n        /* \".workspaces/default_workspace/unMiracle/test.sol\":1835:2049  function deadline() public view returns(uint64) {... */\n    tag_27:\n        /* \".workspaces/default_workspace/unMiracle/test.sol\":1875:1881  uint64 */\n      0x00\n        /* \".workspaces/default_workspace/unMiracle/test.sol\":1893:1908  uint64 snapshot */\n      dup1\n        /* \".workspaces/default_workspace/unMiracle/test.sol\":1941:1954  votingDelay() */\n      tag_62\n        /* \".workspaces/default_workspace/unMiracle/test.sol\":1941:1952  votingDelay */\n      tag_31\n        /* \".workspaces/default_workspace/unMiracle/test.sol\":1941:1954  votingDelay() */\n      jump\t// in\n    tag_62:\n        /* \".workspaces/default_workspace/unMiracle/test.sol\":1918:1930  block.number */\n      number\n        /* \".workspaces/default_workspace/unMiracle/test.sol\":1911:1955  uint64(block.number) + uint64(votingDelay()) */\n      tag_63\n      swap2\n      swap1\n      tag_64\n      jump\t// in\n    tag_63:\n        /* \".workspaces/default_workspace/unMiracle/test.sol\":1893:1955  uint64 snapshot = uint64(block.number) + uint64(votingDelay()) */\n      swap1\n      pop\n        /* \".workspaces/default_workspace/unMiracle/test.sol\":1965:1980  uint64 deadline */\n      0x00\n        /* \".workspaces/default_workspace/unMiracle/test.sol\":2001:2015  votingPeriod() */\n      tag_65\n        /* \".workspaces/default_workspace/unMiracle/test.sol\":2001:2013  votingPeriod */\n      tag_16\n        /* \".workspaces/default_workspace/unMiracle/test.sol\":2001:2015  votingPeriod() */\n      jump\t// in\n    tag_65:\n        /* \".workspaces/default_workspace/unMiracle/test.sol\":1983:1991  snapshot */\n      dup3\n        /* \".workspaces/default_workspace/unMiracle/test.sol\":1983:2016  snapshot + uint64(votingPeriod()) */\n      tag_66\n      swap2\n      swap1\n      tag_64\n      jump\t// in\n    tag_66:\n        /* \".workspaces/default_workspace/unMiracle/test.sol\":1965:2016  uint64 deadline = snapshot + uint64(votingPeriod()) */\n      swap1\n      pop\n        /* \".workspaces/default_workspace/unMiracle/test.sol\":2034:2042  deadline */\n      dup1\n        /* \".workspaces/default_workspace/unMiracle/test.sol\":2027:2042  return deadline */\n      swap3\n      pop\n      pop\n      pop\n        /* \".workspaces/default_workspace/unMiracle/test.sol\":1835:2049  function deadline() public view returns(uint64) {... */\n      swap1\n      jump\t// out\n        /* \".workspaces/default_workspace/unMiracle/test.sol\":1496:1573  function votingDelay() public pure returns(uint256) {... */\n    tag_31:\n        /* \".workspaces/default_workspace/unMiracle/test.sol\":1539:1546  uint256 */\n      0x00\n        /* \".workspaces/default_workspace/unMiracle/test.sol\":1565:1566  1 */\n      0x01\n        /* \".workspaces/default_workspace/unMiracle/test.sol\":1558:1566  return 1 */\n      swap1\n      pop\n        /* \".workspaces/default_workspace/unMiracle/test.sol\":1496:1573  function votingDelay() public pure returns(uint256) {... */\n      swap1\n      jump\t// out\n        /* \".workspaces/default_workspace/unMiracle/test.sol\":1307:1489  function abiDecode(bytes memory data) public returns(uint _str1, uint _number, uint _str2) {... */\n    tag_36:\n        /* \".workspaces/default_workspace/unMiracle/test.sol\":1360:1370  uint _str1 */\n      0x00\n        /* \".workspaces/default_workspace/unMiracle/test.sol\":1372:1384  uint _number */\n      dup1\n        /* \".workspaces/default_workspace/unMiracle/test.sol\":1386:1396  uint _str2 */\n      0x00\n        /* \".workspaces/default_workspace/unMiracle/test.sol\":1445:1449  data */\n      dup4\n        /* \".workspaces/default_workspace/unMiracle/test.sol\":1434:1470  abi.decode(data, (uint, uint, uint)) */\n      dup1\n      0x20\n      add\n      swap1\n      mload\n      dup2\n      add\n      swap1\n      tag_69\n      swap2\n      swap1\n      tag_70\n      jump\t// in\n    tag_69:\n        /* \".workspaces/default_workspace/unMiracle/test.sol\":1408:1470  (_str1, _number, _str2) = abi.decode(data, (uint, uint, uint)) */\n      dup1\n      swap4\n      pop\n      dup2\n      swap5\n      pop\n      dup3\n      swap6\n      pop\n      pop\n      pop\n      pop\n        /* \".workspaces/default_workspace/unMiracle/test.sol\":1307:1489  function abiDecode(bytes memory data) public returns(uint _str1, uint _number, uint _str2) {... */\n      swap2\n      swap4\n      swap1\n      swap3\n      pop\n      jump\t// out\n        /* \".workspaces/default_workspace/unMiracle/test.sol\":302:454  function num() public view returns(uint256) {... */\n    tag_40:\n        /* \".workspaces/default_workspace/unMiracle/test.sol\":337:344  uint256 */\n      0x00\n        /* \".workspaces/default_workspace/unMiracle/test.sol\":356:367  uint result */\n      dup1\n        /* \".workspaces/default_workspace/unMiracle/test.sol\":370:378  1* 10^18 */\n      0x18\n        /* \".workspaces/default_workspace/unMiracle/test.sol\":356:378  uint result = 1* 10^18 */\n      swap1\n      pop\n        /* \".workspaces/default_workspace/unMiracle/test.sol\":441:447  result */\n      dup1\n        /* \".workspaces/default_workspace/unMiracle/test.sol\":434:447  return result */\n      swap2\n      pop\n      pop\n        /* \".workspaces/default_workspace/unMiracle/test.sol\":302:454  function num() public view returns(uint256) {... */\n      swap1\n      jump\t// out\n        /* \".workspaces/default_workspace/unMiracle/test.sol\":1204:1302  function abiEncode() public returns(bytes memory) {... */\n    tag_43:\n        /* \".workspaces/default_workspace/unMiracle/test.sol\":1240:1252  bytes memory */\n      0x60\n        /* \".workspaces/default_workspace/unMiracle/test.sol\":1282:1283  1 */\n      0x01\n        /* \".workspaces/default_workspace/unMiracle/test.sol\":1284:1289  45804 */\n      0xb2ec\n        /* \".workspaces/default_workspace/unMiracle/test.sol\":1290:1294  5000 */\n      0x1388\n        /* \".workspaces/default_workspace/unMiracle/test.sol\":1271:1295  abi.encode(1,45804,5000) */\n      add(0x20, mload(0x40))\n      tag_73\n      swap4\n      swap3\n      swap2\n      swap1\n      tag_74\n      jump\t// in\n    tag_73:\n      mload(0x40)\n      0x20\n      dup2\n      dup4\n      sub\n      sub\n      dup2\n      mstore\n      swap1\n      0x40\n      mstore\n        /* \".workspaces/default_workspace/unMiracle/test.sol\":1264:1295  return abi.encode(1,45804,5000) */\n      swap1\n      pop\n        /* \".workspaces/default_workspace/unMiracle/test.sol\":1204:1302  function abiEncode() public returns(bytes memory) {... */\n      swap1\n      jump\t// out\n        /* \".workspaces/default_workspace/unMiracle/test.sol\":934:1198  function keccak256test() public returns(bytes memory) {... */\n    tag_47:\n        /* \".workspaces/default_workspace/unMiracle/test.sol\":974:986  bytes memory */\n      0x60\n        /* \".workspaces/default_workspace/unMiracle/test.sol\":1178:1179  1 */\n      0x01\n        /* \".workspaces/default_workspace/unMiracle/test.sol\":1180:1185  45804 */\n      0xb2ec\n        /* \".workspaces/default_workspace/unMiracle/test.sol\":1186:1190  5000 */\n      0x1388\n        /* \".workspaces/default_workspace/unMiracle/test.sol\":1167:1191  abi.encode(1,45804,5000) */\n      add(0x20, mload(0x40))\n      tag_76\n      swap4\n      swap3\n      swap2\n      swap1\n      tag_74\n      jump\t// in\n    tag_76:\n      mload(0x40)\n      0x20\n      dup2\n      dup4\n      sub\n      sub\n      dup2\n      mstore\n      swap1\n      0x40\n      mstore\n        /* \".workspaces/default_workspace/unMiracle/test.sol\":1159:1191  return  abi.encode(1,45804,5000) */\n      swap1\n      pop\n        /* \".workspaces/default_workspace/unMiracle/test.sol\":934:1198  function keccak256test() public returns(bytes memory) {... */\n      swap1\n      jump\t// out\n        /* \".workspaces/default_workspace/unMiracle/test.sol\":1676:1829  function snapshot() public view returns(uint64) {... */\n    tag_50:\n        /* \".workspaces/default_workspace/unMiracle/test.sol\":1716:1722  uint64 */\n      0x00\n        /* \".workspaces/default_workspace/unMiracle/test.sol\":1734:1749  uint64 snapshot */\n      dup1\n        /* \".workspaces/default_workspace/unMiracle/test.sol\":1782:1795  votingDelay() */\n      tag_78\n        /* \".workspaces/default_workspace/unMiracle/test.sol\":1782:1793  votingDelay */\n      tag_31\n        /* \".workspaces/default_workspace/unMiracle/test.sol\":1782:1795  votingDelay() */\n      jump\t// in\n    tag_78:\n        /* \".workspaces/default_workspace/unMiracle/test.sol\":1759:1771  block.number */\n      number\n        /* \".workspaces/default_workspace/unMiracle/test.sol\":1752:1796  uint64(block.number) + uint64(votingDelay()) */\n      tag_79\n      swap2\n      swap1\n      tag_64\n      jump\t// in\n    tag_79:\n        /* \".workspaces/default_workspace/unMiracle/test.sol\":1734:1796  uint64 snapshot = uint64(block.number) + uint64(votingDelay()) */\n      swap1\n      pop\n        /* \".workspaces/default_workspace/unMiracle/test.sol\":1814:1822  snapshot */\n      dup1\n        /* \".workspaces/default_workspace/unMiracle/test.sol\":1807:1822  return snapshot */\n      swap2\n      pop\n      pop\n        /* \".workspaces/default_workspace/unMiracle/test.sol\":1676:1829  function snapshot() public view returns(uint64) {... */\n      swap1\n      jump\t// out\n        /* \".workspaces/default_workspace/unMiracle/test.sol\":460:548  function _executor() public view returns (address) {... */\n    tag_53:\n        /* \".workspaces/default_workspace/unMiracle/test.sol\":502:509  address */\n      0x00\n        /* \".workspaces/default_workspace/unMiracle/test.sol\":536:540  this */\n      address\n        /* \".workspaces/default_workspace/unMiracle/test.sol\":521:541  return address(this) */\n      swap1\n      pop\n        /* \".workspaces/default_workspace/unMiracle/test.sol\":460:548  function _executor() public view returns (address) {... */\n      swap1\n      jump\t// out\n        /* \"#utility.yul\":7:84   */\n    tag_81:\n        /* \"#utility.yul\":44:51   */\n      0x00\n        /* \"#utility.yul\":73:78   */\n      dup2\n        /* \"#utility.yul\":62:78   */\n      swap1\n      pop\n        /* \"#utility.yul\":7:84   */\n      swap2\n      swap1\n      pop\n      jump\t// out\n        /* \"#utility.yul\":90:208   */\n    tag_82:\n        /* \"#utility.yul\":177:201   */\n      tag_126\n        /* \"#utility.yul\":195:200   */\n      dup2\n        /* \"#utility.yul\":177:201   */\n      tag_81\n      jump\t// in\n    tag_126:\n        /* \"#utility.yul\":172:175   */\n      dup3\n        /* \"#utility.yul\":165:202   */\n      mstore\n        /* \"#utility.yul\":90:208   */\n      pop\n      pop\n      jump\t// out\n        /* \"#utility.yul\":214:436   */\n    tag_18:\n        /* \"#utility.yul\":307:311   */\n      0x00\n        /* \"#utility.yul\":345:347   */\n      0x20\n        /* \"#utility.yul\":334:343   */\n      dup3\n        /* \"#utility.yul\":330:348   */\n      add\n        /* \"#utility.yul\":322:348   */\n      swap1\n      pop\n        /* \"#utility.yul\":358:429   */\n      tag_128\n        /* \"#utility.yul\":426:427   */\n      0x00\n        /* \"#utility.yul\":415:424   */\n      dup4\n        /* \"#utility.yul\":411:428   */\n      add\n        /* \"#utility.yul\":402:408   */\n      dup5\n        /* \"#utility.yul\":358:429   */\n      tag_82\n      jump\t// in\n    tag_128:\n        /* \"#utility.yul\":214:436   */\n      swap3\n      swap2\n      pop\n      pop\n      jump\t// out\n        /* \"#utility.yul\":442:541   */\n    tag_83:\n        /* \"#utility.yul\":494:500   */\n      0x00\n        /* \"#utility.yul\":528:533   */\n      dup2\n        /* \"#utility.yul\":522:534   */\n      mload\n        /* \"#utility.yul\":512:534   */\n      swap1\n      pop\n        /* \"#utility.yul\":442:541   */\n      swap2\n      swap1\n      pop\n      jump\t// out\n        /* \"#utility.yul\":547:716   */\n    tag_84:\n        /* \"#utility.yul\":631:642   */\n      0x00\n        /* \"#utility.yul\":665:671   */\n      dup3\n        /* \"#utility.yul\":660:663   */\n      dup3\n        /* \"#utility.yul\":653:672   */\n      mstore\n        /* \"#utility.yul\":705:709   */\n      0x20\n        /* \"#utility.yul\":700:703   */\n      dup3\n        /* \"#utility.yul\":696:710   */\n      add\n        /* \"#utility.yul\":681:710   */\n      swap1\n      pop\n        /* \"#utility.yul\":547:716   */\n      swap3\n      swap2\n      pop\n      pop\n      jump\t// out\n        /* \"#utility.yul\":722:1029   */\n    tag_85:\n        /* \"#utility.yul\":790:791   */\n      0x00\n        /* \"#utility.yul\":800:913   */\n    tag_132:\n        /* \"#utility.yul\":814:820   */\n      dup4\n        /* \"#utility.yul\":811:812   */\n      dup2\n        /* \"#utility.yul\":808:821   */\n      lt\n        /* \"#utility.yul\":800:913   */\n      iszero\n      tag_134\n      jumpi\n        /* \"#utility.yul\":899:900   */\n      dup1\n        /* \"#utility.yul\":894:897   */\n      dup3\n        /* \"#utility.yul\":890:901   */\n      add\n        /* \"#utility.yul\":884:902   */\n      mload\n        /* \"#utility.yul\":880:881   */\n      dup2\n        /* \"#utility.yul\":875:878   */\n      dup5\n        /* \"#utility.yul\":871:882   */\n      add\n        /* \"#utility.yul\":864:903   */\n      mstore\n        /* \"#utility.yul\":836:838   */\n      0x20\n        /* \"#utility.yul\":833:834   */\n      dup2\n        /* \"#utility.yul\":829:839   */\n      add\n        /* \"#utility.yul\":824:839   */\n      swap1\n      pop\n        /* \"#utility.yul\":800:913   */\n      jump(tag_132)\n    tag_134:\n        /* \"#utility.yul\":931:937   */\n      dup4\n        /* \"#utility.yul\":928:929   */\n      dup2\n        /* \"#utility.yul\":925:938   */\n      gt\n        /* \"#utility.yul\":922:1023   */\n      iszero\n      tag_135\n      jumpi\n        /* \"#utility.yul\":1011:1012   */\n      0x00\n        /* \"#utility.yul\":1002:1008   */\n      dup5\n        /* \"#utility.yul\":997:1000   */\n      dup5\n        /* \"#utility.yul\":993:1009   */\n      add\n        /* \"#utility.yul\":986:1013   */\n      mstore\n        /* \"#utility.yul\":922:1023   */\n    tag_135:\n        /* \"#utility.yul\":771:1029   */\n      pop\n        /* \"#utility.yul\":722:1029   */\n      pop\n      pop\n      pop\n      jump\t// out\n        /* \"#utility.yul\":1035:1137   */\n    tag_86:\n        /* \"#utility.yul\":1076:1082   */\n      0x00\n        /* \"#utility.yul\":1127:1129   */\n      0x1f\n        /* \"#utility.yul\":1123:1130   */\n      not\n        /* \"#utility.yul\":1118:1120   */\n      0x1f\n        /* \"#utility.yul\":1111:1116   */\n      dup4\n        /* \"#utility.yul\":1107:1121   */\n      add\n        /* \"#utility.yul\":1103:1131   */\n      and\n        /* \"#utility.yul\":1093:1131   */\n      swap1\n      pop\n        /* \"#utility.yul\":1035:1137   */\n      swap2\n      swap1\n      pop\n      jump\t// out\n        /* \"#utility.yul\":1143:1507   */\n    tag_87:\n        /* \"#utility.yul\":1231:1234   */\n      0x00\n        /* \"#utility.yul\":1259:1298   */\n      tag_138\n        /* \"#utility.yul\":1292:1297   */\n      dup3\n        /* \"#utility.yul\":1259:1298   */\n      tag_83\n      jump\t// in\n    tag_138:\n        /* \"#utility.yul\":1314:1385   */\n      tag_139\n        /* \"#utility.yul\":1378:1384   */\n      dup2\n        /* \"#utility.yul\":1373:1376   */\n      dup6\n        /* \"#utility.yul\":1314:1385   */\n      tag_84\n      jump\t// in\n    tag_139:\n        /* \"#utility.yul\":1307:1385   */\n      swap4\n      pop\n        /* \"#utility.yul\":1394:1446   */\n      tag_140\n        /* \"#utility.yul\":1439:1445   */\n      dup2\n        /* \"#utility.yul\":1434:1437   */\n      dup6\n        /* \"#utility.yul\":1427:1431   */\n      0x20\n        /* \"#utility.yul\":1420:1425   */\n      dup7\n        /* \"#utility.yul\":1416:1432   */\n      add\n        /* \"#utility.yul\":1394:1446   */\n      tag_85\n      jump\t// in\n    tag_140:\n        /* \"#utility.yul\":1471:1500   */\n      tag_141\n        /* \"#utility.yul\":1493:1499   */\n      dup2\n        /* \"#utility.yul\":1471:1500   */\n      tag_86\n      jump\t// in\n    tag_141:\n        /* \"#utility.yul\":1466:1469   */\n      dup5\n        /* \"#utility.yul\":1462:1501   */\n      add\n        /* \"#utility.yul\":1455:1501   */\n      swap2\n      pop\n        /* \"#utility.yul\":1235:1507   */\n      pop\n        /* \"#utility.yul\":1143:1507   */\n      swap3\n      swap2\n      pop\n      pop\n      jump\t// out\n        /* \"#utility.yul\":1513:1826   */\n    tag_22:\n        /* \"#utility.yul\":1626:1630   */\n      0x00\n        /* \"#utility.yul\":1664:1666   */\n      0x20\n        /* \"#utility.yul\":1653:1662   */\n      dup3\n        /* \"#utility.yul\":1649:1667   */\n      add\n        /* \"#utility.yul\":1641:1667   */\n      swap1\n      pop\n        /* \"#utility.yul\":1713:1722   */\n      dup2\n        /* \"#utility.yul\":1707:1711   */\n      dup2\n        /* \"#utility.yul\":1703:1723   */\n      sub\n        /* \"#utility.yul\":1699:1700   */\n      0x00\n        /* \"#utility.yul\":1688:1697   */\n      dup4\n        /* \"#utility.yul\":1684:1701   */\n      add\n        /* \"#utility.yul\":1677:1724   */\n      mstore\n        /* \"#utility.yul\":1741:1819   */\n      tag_143\n        /* \"#utility.yul\":1814:1818   */\n      dup2\n        /* \"#utility.yul\":1805:1811   */\n      dup5\n        /* \"#utility.yul\":1741:1819   */\n      tag_87\n      jump\t// in\n    tag_143:\n        /* \"#utility.yul\":1733:1819   */\n      swap1\n      pop\n        /* \"#utility.yul\":1513:1826   */\n      swap3\n      swap2\n      pop\n      pop\n      jump\t// out\n        /* \"#utility.yul\":1832:1933   */\n    tag_88:\n        /* \"#utility.yul\":1868:1875   */\n      0x00\n        /* \"#utility.yul\":1908:1926   */\n      0xffffffffffffffff\n        /* \"#utility.yul\":1901:1906   */\n      dup3\n        /* \"#utility.yul\":1897:1927   */\n      and\n        /* \"#utility.yul\":1886:1927   */\n      swap1\n      pop\n        /* \"#utility.yul\":1832:1933   */\n      swap2\n      swap1\n      pop\n      jump\t// out\n        /* \"#utility.yul\":1939:2054   */\n    tag_89:\n        /* \"#utility.yul\":2024:2047   */\n      tag_146\n        /* \"#utility.yul\":2041:2046   */\n      dup2\n        /* \"#utility.yul\":2024:2047   */\n      tag_88\n      jump\t// in\n    tag_146:\n        /* \"#utility.yul\":2019:2022   */\n      dup3\n        /* \"#utility.yul\":2012:2048   */\n      mstore\n        /* \"#utility.yul\":1939:2054   */\n      pop\n      pop\n      jump\t// out\n        /* \"#utility.yul\":2060:2278   */\n    tag_29:\n        /* \"#utility.yul\":2151:2155   */\n      0x00\n        /* \"#utility.yul\":2189:2191   */\n      0x20\n        /* \"#utility.yul\":2178:2187   */\n      dup3\n        /* \"#utility.yul\":2174:2192   */\n      add\n        /* \"#utility.yul\":2166:2192   */\n      swap1\n      pop\n        /* \"#utility.yul\":2202:2271   */\n      tag_148\n        /* \"#utility.yul\":2268:2269   */\n      0x00\n        /* \"#utility.yul\":2257:2266   */\n      dup4\n        /* \"#utility.yul\":2253:2270   */\n      add\n        /* \"#utility.yul\":2244:2250   */\n      dup5\n        /* \"#utility.yul\":2202:2271   */\n      tag_89\n      jump\t// in\n    tag_148:\n        /* \"#utility.yul\":2060:2278   */\n      swap3\n      swap2\n      pop\n      pop\n      jump\t// out\n        /* \"#utility.yul\":2284:2359   */\n    tag_90:\n        /* \"#utility.yul\":2317:2323   */\n      0x00\n        /* \"#utility.yul\":2350:2352   */\n      0x40\n        /* \"#utility.yul\":2344:2353   */\n      mload\n        /* \"#utility.yul\":2334:2353   */\n      swap1\n      pop\n        /* \"#utility.yul\":2284:2359   */\n      swap1\n      jump\t// out\n        /* \"#utility.yul\":2365:2482   */\n    tag_91:\n        /* \"#utility.yul\":2474:2475   */\n      0x00\n        /* \"#utility.yul\":2471:2472   */\n      dup1\n        /* \"#utility.yul\":2464:2476   */\n      revert\n        /* \"#utility.yul\":2488:2605   */\n    tag_92:\n        /* \"#utility.yul\":2597:2598   */\n      0x00\n        /* \"#utility.yul\":2594:2595   */\n      dup1\n        /* \"#utility.yul\":2587:2599   */\n      revert\n        /* \"#utility.yul\":2611:2728   */\n    tag_93:\n        /* \"#utility.yul\":2720:2721   */\n      0x00\n        /* \"#utility.yul\":2717:2718   */\n      dup1\n        /* \"#utility.yul\":2710:2722   */\n      revert\n        /* \"#utility.yul\":2734:2851   */\n    tag_94:\n        /* \"#utility.yul\":2843:2844   */\n      0x00\n        /* \"#utility.yul\":2840:2841   */\n      dup1\n        /* \"#utility.yul\":2833:2845   */\n      revert\n        /* \"#utility.yul\":2857:3037   */\n    tag_95:\n        /* \"#utility.yul\":2905:2982   */\n      0x4e487b7100000000000000000000000000000000000000000000000000000000\n        /* \"#utility.yul\":2902:2903   */\n      0x00\n        /* \"#utility.yul\":2895:2983   */\n      mstore\n        /* \"#utility.yul\":3002:3006   */\n      0x41\n        /* \"#utility.yul\":2999:3000   */\n      0x04\n        /* \"#utility.yul\":2992:3007   */\n      mstore\n        /* \"#utility.yul\":3026:3030   */\n      0x24\n        /* \"#utility.yul\":3023:3024   */\n      0x00\n        /* \"#utility.yul\":3016:3031   */\n      revert\n        /* \"#utility.yul\":3043:3324   */\n    tag_96:\n        /* \"#utility.yul\":3126:3153   */\n      tag_156\n        /* \"#utility.yul\":3148:3152   */\n      dup3\n        /* \"#utility.yul\":3126:3153   */\n      tag_86\n      jump\t// in\n    tag_156:\n        /* \"#utility.yul\":3118:3124   */\n      dup2\n        /* \"#utility.yul\":3114:3154   */\n      add\n        /* \"#utility.yul\":3256:3262   */\n      dup2\n        /* \"#utility.yul\":3244:3254   */\n      dup2\n        /* \"#utility.yul\":3241:3263   */\n      lt\n        /* \"#utility.yul\":3220:3238   */\n      0xffffffffffffffff\n        /* \"#utility.yul\":3208:3218   */\n      dup3\n        /* \"#utility.yul\":3205:3239   */\n      gt\n        /* \"#utility.yul\":3202:3264   */\n      or\n        /* \"#utility.yul\":3199:3287   */\n      iszero\n      tag_157\n      jumpi\n        /* \"#utility.yul\":3267:3285   */\n      tag_158\n      tag_95\n      jump\t// in\n    tag_158:\n        /* \"#utility.yul\":3199:3287   */\n    tag_157:\n        /* \"#utility.yul\":3307:3317   */\n      dup1\n        /* \"#utility.yul\":3303:3305   */\n      0x40\n        /* \"#utility.yul\":3296:3318   */\n      mstore\n        /* \"#utility.yul\":3086:3324   */\n      pop\n        /* \"#utility.yul\":3043:3324   */\n      pop\n      pop\n      jump\t// out\n        /* \"#utility.yul\":3330:3459   */\n    tag_97:\n        /* \"#utility.yul\":3364:3370   */\n      0x00\n        /* \"#utility.yul\":3391:3411   */\n      tag_160\n      tag_90\n      jump\t// in\n    tag_160:\n        /* \"#utility.yul\":3381:3411   */\n      swap1\n      pop\n        /* \"#utility.yul\":3420:3453   */\n      tag_161\n        /* \"#utility.yul\":3448:3452   */\n      dup3\n        /* \"#utility.yul\":3440:3446   */\n      dup3\n        /* \"#utility.yul\":3420:3453   */\n      tag_96\n      jump\t// in\n    tag_161:\n        /* \"#utility.yul\":3330:3459   */\n      swap2\n      swap1\n      pop\n      jump\t// out\n        /* \"#utility.yul\":3465:3772   */\n    tag_98:\n        /* \"#utility.yul\":3526:3530   */\n      0x00\n        /* \"#utility.yul\":3616:3634   */\n      0xffffffffffffffff\n        /* \"#utility.yul\":3608:3614   */\n      dup3\n        /* \"#utility.yul\":3605:3635   */\n      gt\n        /* \"#utility.yul\":3602:3658   */\n      iszero\n      tag_163\n      jumpi\n        /* \"#utility.yul\":3638:3656   */\n      tag_164\n      tag_95\n      jump\t// in\n    tag_164:\n        /* \"#utility.yul\":3602:3658   */\n    tag_163:\n        /* \"#utility.yul\":3676:3705   */\n      tag_165\n        /* \"#utility.yul\":3698:3704   */\n      dup3\n        /* \"#utility.yul\":3676:3705   */\n      tag_86\n      jump\t// in\n    tag_165:\n        /* \"#utility.yul\":3668:3705   */\n      swap1\n      pop\n        /* \"#utility.yul\":3760:3764   */\n      0x20\n        /* \"#utility.yul\":3754:3758   */\n      dup2\n        /* \"#utility.yul\":3750:3765   */\n      add\n        /* \"#utility.yul\":3742:3765   */\n      swap1\n      pop\n        /* \"#utility.yul\":3465:3772   */\n      swap2\n      swap1\n      pop\n      jump\t// out\n        /* \"#utility.yul\":3778:3932   */\n    tag_99:\n        /* \"#utility.yul\":3862:3868   */\n      dup3\n        /* \"#utility.yul\":3857:3860   */\n      dup2\n        /* \"#utility.yul\":3852:3855   */\n      dup4\n        /* \"#utility.yul\":3839:3869   */\n      calldatacopy\n        /* \"#utility.yul\":3924:3925   */\n      0x00\n        /* \"#utility.yul\":3915:3921   */\n      dup4\n        /* \"#utility.yul\":3910:3913   */\n      dup4\n        /* \"#utility.yul\":3906:3922   */\n      add\n        /* \"#utility.yul\":3899:3926   */\n      mstore\n        /* \"#utility.yul\":3778:3932   */\n      pop\n      pop\n      pop\n      jump\t// out\n        /* \"#utility.yul\":3938:4348   */\n    tag_100:\n        /* \"#utility.yul\":4015:4020   */\n      0x00\n        /* \"#utility.yul\":4040:4105   */\n      tag_168\n        /* \"#utility.yul\":4056:4104   */\n      tag_169\n        /* \"#utility.yul\":4097:4103   */\n      dup5\n        /* \"#utility.yul\":4056:4104   */\n      tag_98\n      jump\t// in\n    tag_169:\n        /* \"#utility.yul\":4040:4105   */\n      tag_97\n      jump\t// in\n    tag_168:\n        /* \"#utility.yul\":4031:4105   */\n      swap1\n      pop\n        /* \"#utility.yul\":4128:4134   */\n      dup3\n        /* \"#utility.yul\":4121:4126   */\n      dup2\n        /* \"#utility.yul\":4114:4135   */\n      mstore\n        /* \"#utility.yul\":4166:4170   */\n      0x20\n        /* \"#utility.yul\":4159:4164   */\n      dup2\n        /* \"#utility.yul\":4155:4171   */\n      add\n        /* \"#utility.yul\":4204:4207   */\n      dup5\n        /* \"#utility.yul\":4195:4201   */\n      dup5\n        /* \"#utility.yul\":4190:4193   */\n      dup5\n        /* \"#utility.yul\":4186:4202   */\n      add\n        /* \"#utility.yul\":4183:4208   */\n      gt\n        /* \"#utility.yul\":4180:4292   */\n      iszero\n      tag_170\n      jumpi\n        /* \"#utility.yul\":4211:4290   */\n      tag_171\n      tag_94\n      jump\t// in\n    tag_171:\n        /* \"#utility.yul\":4180:4292   */\n    tag_170:\n        /* \"#utility.yul\":4301:4342   */\n      tag_172\n        /* \"#utility.yul\":4335:4341   */\n      dup5\n        /* \"#utility.yul\":4330:4333   */\n      dup3\n        /* \"#utility.yul\":4325:4328   */\n      dup6\n        /* \"#utility.yul\":4301:4342   */\n      tag_99\n      jump\t// in\n    tag_172:\n        /* \"#utility.yul\":4021:4348   */\n      pop\n        /* \"#utility.yul\":3938:4348   */\n      swap4\n      swap3\n      pop\n      pop\n      pop\n      jump\t// out\n        /* \"#utility.yul\":4367:4705   */\n    tag_101:\n        /* \"#utility.yul\":4422:4427   */\n      0x00\n        /* \"#utility.yul\":4471:4474   */\n      dup3\n        /* \"#utility.yul\":4464:4468   */\n      0x1f\n        /* \"#utility.yul\":4456:4462   */\n      dup4\n        /* \"#utility.yul\":4452:4469   */\n      add\n        /* \"#utility.yul\":4448:4475   */\n      slt\n        /* \"#utility.yul\":4438:4560   */\n      tag_174\n      jumpi\n        /* \"#utility.yul\":4479:4558   */\n      tag_175\n      tag_93\n      jump\t// in\n    tag_175:\n        /* \"#utility.yul\":4438:4560   */\n    tag_174:\n        /* \"#utility.yul\":4596:4602   */\n      dup2\n        /* \"#utility.yul\":4583:4603   */\n      calldataload\n        /* \"#utility.yul\":4621:4699   */\n      tag_176\n        /* \"#utility.yul\":4695:4698   */\n      dup5\n        /* \"#utility.yul\":4687:4693   */\n      dup3\n        /* \"#utility.yul\":4680:4684   */\n      0x20\n        /* \"#utility.yul\":4672:4678   */\n      dup7\n        /* \"#utility.yul\":4668:4685   */\n      add\n        /* \"#utility.yul\":4621:4699   */\n      tag_100\n      jump\t// in\n    tag_176:\n        /* \"#utility.yul\":4612:4699   */\n      swap2\n      pop\n        /* \"#utility.yul\":4428:4705   */\n      pop\n        /* \"#utility.yul\":4367:4705   */\n      swap3\n      swap2\n      pop\n      pop\n      jump\t// out\n        /* \"#utility.yul\":4711:5218   */\n    tag_35:\n        /* \"#utility.yul\":4779:4785   */\n      0x00\n        /* \"#utility.yul\":4828:4830   */\n      0x20\n        /* \"#utility.yul\":4816:4825   */\n      dup3\n        /* \"#utility.yul\":4807:4814   */\n      dup5\n        /* \"#utility.yul\":4803:4826   */\n      sub\n        /* \"#utility.yul\":4799:4831   */\n      slt\n        /* \"#utility.yul\":4796:4915   */\n      iszero\n      tag_178\n      jumpi\n        /* \"#utility.yul\":4834:4913   */\n      tag_179\n      tag_91\n      jump\t// in\n    tag_179:\n        /* \"#utility.yul\":4796:4915   */\n    tag_178:\n        /* \"#utility.yul\":4982:4983   */\n      0x00\n        /* \"#utility.yul\":4971:4980   */\n      dup3\n        /* \"#utility.yul\":4967:4984   */\n      add\n        /* \"#utility.yul\":4954:4985   */\n      calldataload\n        /* \"#utility.yul\":5012:5030   */\n      0xffffffffffffffff\n        /* \"#utility.yul\":5004:5010   */\n      dup2\n        /* \"#utility.yul\":5001:5031   */\n      gt\n        /* \"#utility.yul\":4998:5115   */\n      iszero\n      tag_180\n      jumpi\n        /* \"#utility.yul\":5034:5113   */\n      tag_181\n      tag_92\n      jump\t// in\n    tag_181:\n        /* \"#utility.yul\":4998:5115   */\n    tag_180:\n        /* \"#utility.yul\":5139:5201   */\n      tag_182\n        /* \"#utility.yul\":5193:5200   */\n      dup5\n        /* \"#utility.yul\":5184:5190   */\n      dup3\n        /* \"#utility.yul\":5173:5182   */\n      dup6\n        /* \"#utility.yul\":5169:5191   */\n      add\n        /* \"#utility.yul\":5139:5201   */\n      tag_101\n      jump\t// in\n    tag_182:\n        /* \"#utility.yul\":5129:5201   */\n      swap2\n      pop\n        /* \"#utility.yul\":4925:5211   */\n      pop\n        /* \"#utility.yul\":4711:5218   */\n      swap3\n      swap2\n      pop\n      pop\n      jump\t// out\n        /* \"#utility.yul\":5224:5666   */\n    tag_38:\n        /* \"#utility.yul\":5373:5377   */\n      0x00\n        /* \"#utility.yul\":5411:5413   */\n      0x60\n        /* \"#utility.yul\":5400:5409   */\n      dup3\n        /* \"#utility.yul\":5396:5414   */\n      add\n        /* \"#utility.yul\":5388:5414   */\n      swap1\n      pop\n        /* \"#utility.yul\":5424:5495   */\n      tag_184\n        /* \"#utility.yul\":5492:5493   */\n      0x00\n        /* \"#utility.yul\":5481:5490   */\n      dup4\n        /* \"#utility.yul\":5477:5494   */\n      add\n        /* \"#utility.yul\":5468:5474   */\n      dup7\n        /* \"#utility.yul\":5424:5495   */\n      tag_82\n      jump\t// in\n    tag_184:\n        /* \"#utility.yul\":5505:5577   */\n      tag_185\n        /* \"#utility.yul\":5573:5575   */\n      0x20\n        /* \"#utility.yul\":5562:5571   */\n      dup4\n        /* \"#utility.yul\":5558:5576   */\n      add\n        /* \"#utility.yul\":5549:5555   */\n      dup6\n        /* \"#utility.yul\":5505:5577   */\n      tag_82\n      jump\t// in\n    tag_185:\n        /* \"#utility.yul\":5587:5659   */\n      tag_186\n        /* \"#utility.yul\":5655:5657   */\n      0x40\n        /* \"#utility.yul\":5644:5653   */\n      dup4\n        /* \"#utility.yul\":5640:5658   */\n      add\n        /* \"#utility.yul\":5631:5637   */\n      dup5\n        /* \"#utility.yul\":5587:5659   */\n      tag_82\n      jump\t// in\n    tag_186:\n        /* \"#utility.yul\":5224:5666   */\n      swap5\n      swap4\n      pop\n      pop\n      pop\n      pop\n      jump\t// out\n        /* \"#utility.yul\":5672:5770   */\n    tag_102:\n        /* \"#utility.yul\":5723:5729   */\n      0x00\n        /* \"#utility.yul\":5757:5762   */\n      dup2\n        /* \"#utility.yul\":5751:5763   */\n      mload\n        /* \"#utility.yul\":5741:5763   */\n      swap1\n      pop\n        /* \"#utility.yul\":5672:5770   */\n      swap2\n      swap1\n      pop\n      jump\t// out\n        /* \"#utility.yul\":5776:5944   */\n    tag_103:\n        /* \"#utility.yul\":5859:5870   */\n      0x00\n        /* \"#utility.yul\":5893:5899   */\n      dup3\n        /* \"#utility.yul\":5888:5891   */\n      dup3\n        /* \"#utility.yul\":5881:5900   */\n      mstore\n        /* \"#utility.yul\":5933:5937   */\n      0x20\n        /* \"#utility.yul\":5928:5931   */\n      dup3\n        /* \"#utility.yul\":5924:5938   */\n      add\n        /* \"#utility.yul\":5909:5938   */\n      swap1\n      pop\n        /* \"#utility.yul\":5776:5944   */\n      swap3\n      swap2\n      pop\n      pop\n      jump\t// out\n        /* \"#utility.yul\":5950:6310   */\n    tag_104:\n        /* \"#utility.yul\":6036:6039   */\n      0x00\n        /* \"#utility.yul\":6064:6102   */\n      tag_190\n        /* \"#utility.yul\":6096:6101   */\n      dup3\n        /* \"#utility.yul\":6064:6102   */\n      tag_102\n      jump\t// in\n    tag_190:\n        /* \"#utility.yul\":6118:6188   */\n      tag_191\n        /* \"#utility.yul\":6181:6187   */\n      dup2\n        /* \"#utility.yul\":6176:6179   */\n      dup6\n        /* \"#utility.yul\":6118:6188   */\n      tag_103\n      jump\t// in\n    tag_191:\n        /* \"#utility.yul\":6111:6188   */\n      swap4\n      pop\n        /* \"#utility.yul\":6197:6249   */\n      tag_192\n        /* \"#utility.yul\":6242:6248   */\n      dup2\n        /* \"#utility.yul\":6237:6240   */\n      dup6\n        /* \"#utility.yul\":6230:6234   */\n      0x20\n        /* \"#utility.yul\":6223:6228   */\n      dup7\n        /* \"#utility.yul\":6219:6235   */\n      add\n        /* \"#utility.yul\":6197:6249   */\n      tag_85\n      jump\t// in\n    tag_192:\n        /* \"#utility.yul\":6274:6303   */\n      tag_193\n        /* \"#utility.yul\":6296:6302   */\n      dup2\n        /* \"#utility.yul\":6274:6303   */\n      tag_86\n      jump\t// in\n    tag_193:\n        /* \"#utility.yul\":6269:6272   */\n      dup5\n        /* \"#utility.yul\":6265:6304   */\n      add\n        /* \"#utility.yul\":6258:6304   */\n      swap2\n      pop\n        /* \"#utility.yul\":6040:6310   */\n      pop\n        /* \"#utility.yul\":5950:6310   */\n      swap3\n      swap2\n      pop\n      pop\n      jump\t// out\n        /* \"#utility.yul\":6316:6625   */\n    tag_45:\n        /* \"#utility.yul\":6427:6431   */\n      0x00\n        /* \"#utility.yul\":6465:6467   */\n      0x20\n        /* \"#utility.yul\":6454:6463   */\n      dup3\n        /* \"#utility.yul\":6450:6468   */\n      add\n        /* \"#utility.yul\":6442:6468   */\n      swap1\n      pop\n        /* \"#utility.yul\":6514:6523   */\n      dup2\n        /* \"#utility.yul\":6508:6512   */\n      dup2\n        /* \"#utility.yul\":6504:6524   */\n      sub\n        /* \"#utility.yul\":6500:6501   */\n      0x00\n        /* \"#utility.yul\":6489:6498   */\n      dup4\n        /* \"#utility.yul\":6485:6502   */\n      add\n        /* \"#utility.yul\":6478:6525   */\n      mstore\n        /* \"#utility.yul\":6542:6618   */\n      tag_195\n        /* \"#utility.yul\":6613:6617   */\n      dup2\n        /* \"#utility.yul\":6604:6610   */\n      dup5\n        /* \"#utility.yul\":6542:6618   */\n      tag_104\n      jump\t// in\n    tag_195:\n        /* \"#utility.yul\":6534:6618   */\n      swap1\n      pop\n        /* \"#utility.yul\":6316:6625   */\n      swap3\n      swap2\n      pop\n      pop\n      jump\t// out\n        /* \"#utility.yul\":6631:6757   */\n    tag_105:\n        /* \"#utility.yul\":6668:6675   */\n      0x00\n        /* \"#utility.yul\":6708:6750   */\n      0xffffffffffffffffffffffffffffffffffffffff\n        /* \"#utility.yul\":6701:6706   */\n      dup3\n        /* \"#utility.yul\":6697:6751   */\n      and\n        /* \"#utility.yul\":6686:6751   */\n      swap1\n      pop\n        /* \"#utility.yul\":6631:6757   */\n      swap2\n      swap1\n      pop\n      jump\t// out\n        /* \"#utility.yul\":6763:6859   */\n    tag_106:\n        /* \"#utility.yul\":6800:6807   */\n      0x00\n        /* \"#utility.yul\":6829:6853   */\n      tag_198\n        /* \"#utility.yul\":6847:6852   */\n      dup3\n        /* \"#utility.yul\":6829:6853   */\n      tag_105\n      jump\t// in\n    tag_198:\n        /* \"#utility.yul\":6818:6853   */\n      swap1\n      pop\n        /* \"#utility.yul\":6763:6859   */\n      swap2\n      swap1\n      pop\n      jump\t// out\n        /* \"#utility.yul\":6865:6983   */\n    tag_107:\n        /* \"#utility.yul\":6952:6976   */\n      tag_200\n        /* \"#utility.yul\":6970:6975   */\n      dup2\n        /* \"#utility.yul\":6952:6976   */\n      tag_106\n      jump\t// in\n    tag_200:\n        /* \"#utility.yul\":6947:6950   */\n      dup3\n        /* \"#utility.yul\":6940:6977   */\n      mstore\n        /* \"#utility.yul\":6865:6983   */\n      pop\n      pop\n      jump\t// out\n        /* \"#utility.yul\":6989:7211   */\n    tag_55:\n        /* \"#utility.yul\":7082:7086   */\n      0x00\n        /* \"#utility.yul\":7120:7122   */\n      0x20\n        /* \"#utility.yul\":7109:7118   */\n      dup3\n        /* \"#utility.yul\":7105:7123   */\n      add\n        /* \"#utility.yul\":7097:7123   */\n      swap1\n      pop\n        /* \"#utility.yul\":7133:7204   */\n      tag_202\n        /* \"#utility.yul\":7201:7202   */\n      0x00\n        /* \"#utility.yul\":7190:7199   */\n      dup4\n        /* \"#utility.yul\":7186:7203   */\n      add\n        /* \"#utility.yul\":7177:7183   */\n      dup5\n        /* \"#utility.yul\":7133:7204   */\n      tag_107\n      jump\t// in\n    tag_202:\n        /* \"#utility.yul\":6989:7211   */\n      swap3\n      swap2\n      pop\n      pop\n      jump\t// out\n        /* \"#utility.yul\":7217:7397   */\n    tag_108:\n        /* \"#utility.yul\":7265:7342   */\n      0x4e487b7100000000000000000000000000000000000000000000000000000000\n        /* \"#utility.yul\":7262:7263   */\n      0x00\n        /* \"#utility.yul\":7255:7343   */\n      mstore\n        /* \"#utility.yul\":7362:7366   */\n      0x11\n        /* \"#utility.yul\":7359:7360   */\n      0x04\n        /* \"#utility.yul\":7352:7367   */\n      mstore\n        /* \"#utility.yul\":7386:7390   */\n      0x24\n        /* \"#utility.yul\":7383:7384   */\n      0x00\n        /* \"#utility.yul\":7376:7391   */\n      revert\n        /* \"#utility.yul\":7403:7708   */\n    tag_60:\n        /* \"#utility.yul\":7443:7446   */\n      0x00\n        /* \"#utility.yul\":7462:7482   */\n      tag_205\n        /* \"#utility.yul\":7480:7481   */\n      dup3\n        /* \"#utility.yul\":7462:7482   */\n      tag_81\n      jump\t// in\n    tag_205:\n        /* \"#utility.yul\":7457:7482   */\n      swap2\n      pop\n        /* \"#utility.yul\":7496:7516   */\n      tag_206\n        /* \"#utility.yul\":7514:7515   */\n      dup4\n        /* \"#utility.yul\":7496:7516   */\n      tag_81\n      jump\t// in\n    tag_206:\n        /* \"#utility.yul\":7491:7516   */\n      swap3\n      pop\n        /* \"#utility.yul\":7650:7651   */\n      dup3\n        /* \"#utility.yul\":7582:7648   */\n      0xffffffffffffffffffffffffffffffffffffffffffffffffffffffffffffffff\n        /* \"#utility.yul\":7578:7652   */\n      sub\n        /* \"#utility.yul\":7575:7576   */\n      dup3\n        /* \"#utility.yul\":7572:7653   */\n      gt\n        /* \"#utility.yul\":7569:7676   */\n      iszero\n      tag_207\n      jumpi\n        /* \"#utility.yul\":7656:7674   */\n      tag_208\n      tag_108\n      jump\t// in\n    tag_208:\n        /* \"#utility.yul\":7569:7676   */\n    tag_207:\n        /* \"#utility.yul\":7700:7701   */\n      dup3\n        /* \"#utility.yul\":7697:7698   */\n      dup3\n        /* \"#utility.yul\":7693:7702   */\n      add\n        /* \"#utility.yul\":7686:7702   */\n      swap1\n      pop\n        /* \"#utility.yul\":7403:7708   */\n      swap3\n      swap2\n      pop\n      pop\n      jump\t// out\n        /* \"#utility.yul\":7714:7968   */\n    tag_64:\n        /* \"#utility.yul\":7753:7756   */\n      0x00\n        /* \"#utility.yul\":7772:7791   */\n      tag_210\n        /* \"#utility.yul\":7789:7790   */\n      dup3\n        /* \"#utility.yul\":7772:7791   */\n      tag_88\n      jump\t// in\n    tag_210:\n        /* \"#utility.yul\":7767:7791   */\n      swap2\n      pop\n        /* \"#utility.yul\":7805:7824   */\n      tag_211\n        /* \"#utility.yul\":7822:7823   */\n      dup4\n        /* \"#utility.yul\":7805:7824   */\n      tag_88\n      jump\t// in\n    tag_211:\n        /* \"#utility.yul\":7800:7824   */\n      swap3\n      pop\n        /* \"#utility.yul\":7910:7911   */\n      dup3\n        /* \"#utility.yul\":7890:7908   */\n      0xffffffffffffffff\n        /* \"#utility.yul\":7886:7912   */\n      sub\n        /* \"#utility.yul\":7883:7884   */\n      dup3\n        /* \"#utility.yul\":7880:7913   */\n      gt\n        /* \"#utility.yul\":7877:7936   */\n      iszero\n      tag_212\n      jumpi\n        /* \"#utility.yul\":7916:7934   */\n      tag_213\n      tag_108\n      jump\t// in\n    tag_213:\n        /* \"#utility.yul\":7877:7936   */\n    tag_212:\n        /* \"#utility.yul\":7960:7961   */\n      dup3\n        /* \"#utility.yul\":7957:7958   */\n      dup3\n        /* \"#utility.yul\":7953:7962   */\n      add\n        /* \"#utility.yul\":7946:7962   */\n      swap1\n      pop\n        /* \"#utility.yul\":7714:7968   */\n      swap3\n      swap2\n      pop\n      pop\n      jump\t// out\n        /* \"#utility.yul\":7974:8096   */\n    tag_109:\n        /* \"#utility.yul\":8047:8071   */\n      tag_215\n        /* \"#utility.yul\":8065:8070   */\n      dup2\n        /* \"#utility.yul\":8047:8071   */\n      tag_81\n      jump\t// in\n    tag_215:\n        /* \"#utility.yul\":8040:8045   */\n      dup2\n        /* \"#utility.yul\":8037:8072   */\n      eq\n        /* \"#utility.yul\":8027:8090   */\n      tag_216\n      jumpi\n        /* \"#utility.yul\":8086:8087   */\n      0x00\n        /* \"#utility.yul\":8083:8084   */\n      dup1\n        /* \"#utility.yul\":8076:8088   */\n      revert\n        /* \"#utility.yul\":8027:8090   */\n    tag_216:\n        /* \"#utility.yul\":7974:8096   */\n      pop\n      jump\t// out\n        /* \"#utility.yul\":8102:8245   */\n    tag_110:\n        /* \"#utility.yul\":8159:8164   */\n      0x00\n        /* \"#utility.yul\":8190:8196   */\n      dup2\n        /* \"#utility.yul\":8184:8197   */\n      mload\n        /* \"#utility.yul\":8175:8197   */\n      swap1\n      pop\n        /* \"#utility.yul\":8206:8239   */\n      tag_218\n        /* \"#utility.yul\":8233:8238   */\n      dup2\n        /* \"#utility.yul\":8206:8239   */\n      tag_109\n      jump\t// in\n    tag_218:\n        /* \"#utility.yul\":8102:8245   */\n      swap3\n      swap2\n      pop\n      pop\n      jump\t// out\n        /* \"#utility.yul\":8251:8914   */\n    tag_70:\n        /* \"#utility.yul\":8339:8345   */\n      0x00\n        /* \"#utility.yul\":8347:8353   */\n      dup1\n        /* \"#utility.yul\":8355:8361   */\n      0x00\n        /* \"#utility.yul\":8404:8406   */\n      0x60\n        /* \"#utility.yul\":8392:8401   */\n      dup5\n        /* \"#utility.yul\":8383:8390   */\n      dup7\n        /* \"#utility.yul\":8379:8402   */\n      sub\n        /* \"#utility.yul\":8375:8407   */\n      slt\n        /* \"#utility.yul\":8372:8491   */\n      iszero\n      tag_220\n      jumpi\n        /* \"#utility.yul\":8410:8489   */\n      tag_221\n      tag_91\n      jump\t// in\n    tag_221:\n        /* \"#utility.yul\":8372:8491   */\n    tag_220:\n        /* \"#utility.yul\":8530:8531   */\n      0x00\n        /* \"#utility.yul\":8555:8619   */\n      tag_222\n        /* \"#utility.yul\":8611:8618   */\n      dup7\n        /* \"#utility.yul\":8602:8608   */\n      dup3\n        /* \"#utility.yul\":8591:8600   */\n      dup8\n        /* \"#utility.yul\":8587:8609   */\n      add\n        /* \"#utility.yul\":8555:8619   */\n      tag_110\n      jump\t// in\n    tag_222:\n        /* \"#utility.yul\":8545:8619   */\n      swap4\n      pop\n        /* \"#utility.yul\":8501:8629   */\n      pop\n        /* \"#utility.yul\":8668:8670   */\n      0x20\n        /* \"#utility.yul\":8694:8758   */\n      tag_223\n        /* \"#utility.yul\":8750:8757   */\n      dup7\n        /* \"#utility.yul\":8741:8747   */\n      dup3\n        /* \"#utility.yul\":8730:8739   */\n      dup8\n        /* \"#utility.yul\":8726:8748   */\n      add\n        /* \"#utility.yul\":8694:8758   */\n      tag_110\n      jump\t// in\n    tag_223:\n        /* \"#utility.yul\":8684:8758   */\n      swap3\n      pop\n        /* \"#utility.yul\":8639:8768   */\n      pop\n        /* \"#utility.yul\":8807:8809   */\n      0x40\n        /* \"#utility.yul\":8833:8897   */\n      tag_224\n        /* \"#utility.yul\":8889:8896   */\n      dup7\n        /* \"#utility.yul\":8880:8886   */\n      dup3\n        /* \"#utility.yul\":8869:8878   */\n      dup8\n        /* \"#utility.yul\":8865:8887   */\n      add\n        /* \"#utility.yul\":8833:8897   */\n      tag_110\n      jump\t// in\n    tag_224:\n        /* \"#utility.yul\":8823:8897   */\n      swap2\n      pop\n        /* \"#utility.yul\":8778:8907   */\n      pop\n        /* \"#utility.yul\":8251:8914   */\n      swap3\n      pop\n      swap3\n      pop\n      swap3\n      jump\t// out\n        /* \"#utility.yul\":8920:9005   */\n    tag_111:\n        /* \"#utility.yul\":8965:8972   */\n      0x00\n        /* \"#utility.yul\":8994:8999   */\n      dup2\n        /* \"#utility.yul\":8983:8999   */\n      swap1\n      pop\n        /* \"#utility.yul\":8920:9005   */\n      swap2\n      swap1\n      pop\n      jump\t// out\n        /* \"#utility.yul\":9011:9097   */\n    tag_112:\n        /* \"#utility.yul\":9046:9053   */\n      0x00\n        /* \"#utility.yul\":9086:9090   */\n      0xff\n        /* \"#utility.yul\":9079:9084   */\n      dup3\n        /* \"#utility.yul\":9075:9091   */\n      and\n        /* \"#utility.yul\":9064:9091   */\n      swap1\n      pop\n        /* \"#utility.yul\":9011:9097   */\n      swap2\n      swap1\n      pop\n      jump\t// out\n        /* \"#utility.yul\":9103:9163   */\n    tag_113:\n        /* \"#utility.yul\":9131:9134   */\n      0x00\n        /* \"#utility.yul\":9152:9157   */\n      dup2\n        /* \"#utility.yul\":9145:9157   */\n      swap1\n      pop\n        /* \"#utility.yul\":9103:9163   */\n      swap2\n      swap1\n      pop\n      jump\t// out\n        /* \"#utility.yul\":9169:9323   */\n    tag_114:\n        /* \"#utility.yul\":9225:9234   */\n      0x00\n        /* \"#utility.yul\":9258:9317   */\n      tag_229\n        /* \"#utility.yul\":9274:9316   */\n      tag_230\n        /* \"#utility.yul\":9283:9315   */\n      tag_231\n        /* \"#utility.yul\":9309:9314   */\n      dup5\n        /* \"#utility.yul\":9283:9315   */\n      tag_111\n      jump\t// in\n    tag_231:\n        /* \"#utility.yul\":9274:9316   */\n      tag_113\n      jump\t// in\n    tag_230:\n        /* \"#utility.yul\":9258:9317   */\n      tag_112\n      jump\t// in\n    tag_229:\n        /* \"#utility.yul\":9245:9317   */\n      swap1\n      pop\n        /* \"#utility.yul\":9169:9323   */\n      swap2\n      swap1\n      pop\n      jump\t// out\n        /* \"#utility.yul\":9329:9472   */\n    tag_115:\n        /* \"#utility.yul\":9422:9465   */\n      tag_233\n        /* \"#utility.yul\":9459:9464   */\n      dup2\n        /* \"#utility.yul\":9422:9465   */\n      tag_114\n      jump\t// in\n    tag_233:\n        /* \"#utility.yul\":9417:9420   */\n      dup3\n        /* \"#utility.yul\":9410:9466   */\n      mstore\n        /* \"#utility.yul\":9329:9472   */\n      pop\n      pop\n      jump\t// out\n        /* \"#utility.yul\":9478:9567   */\n    tag_116:\n        /* \"#utility.yul\":9527:9534   */\n      0x00\n        /* \"#utility.yul\":9556:9561   */\n      dup2\n        /* \"#utility.yul\":9545:9561   */\n      swap1\n      pop\n        /* \"#utility.yul\":9478:9567   */\n      swap2\n      swap1\n      pop\n      jump\t// out\n        /* \"#utility.yul\":9573:9662   */\n    tag_117:\n        /* \"#utility.yul\":9609:9616   */\n      0x00\n        /* \"#utility.yul\":9649:9655   */\n      0xffff\n        /* \"#utility.yul\":9642:9647   */\n      dup3\n        /* \"#utility.yul\":9638:9656   */\n      and\n        /* \"#utility.yul\":9627:9656   */\n      swap1\n      pop\n        /* \"#utility.yul\":9573:9662   */\n      swap2\n      swap1\n      pop\n      jump\t// out\n        /* \"#utility.yul\":9668:9832   */\n    tag_118:\n        /* \"#utility.yul\":9729:9738   */\n      0x00\n        /* \"#utility.yul\":9762:9826   */\n      tag_237\n        /* \"#utility.yul\":9779:9825   */\n      tag_238\n        /* \"#utility.yul\":9788:9824   */\n      tag_239\n        /* \"#utility.yul\":9818:9823   */\n      dup5\n        /* \"#utility.yul\":9788:9824   */\n      tag_116\n      jump\t// in\n    tag_239:\n        /* \"#utility.yul\":9779:9825   */\n      tag_113\n      jump\t// in\n    tag_238:\n        /* \"#utility.yul\":9762:9826   */\n      tag_117\n      jump\t// in\n    tag_237:\n        /* \"#utility.yul\":9749:9826   */\n      swap1\n      pop\n        /* \"#utility.yul\":9668:9832   */\n      swap2\n      swap1\n      pop\n      jump\t// out\n        /* \"#utility.yul\":9838:9991   */\n    tag_119:\n        /* \"#utility.yul\":9936:9984   */\n      tag_241\n        /* \"#utility.yul\":9978:9983   */\n      dup2\n        /* \"#utility.yul\":9936:9984   */\n      tag_118\n      jump\t// in\n    tag_241:\n        /* \"#utility.yul\":9931:9934   */\n      dup3\n        /* \"#utility.yul\":9924:9985   */\n      mstore\n        /* \"#utility.yul\":9838:9991   */\n      pop\n      pop\n      jump\t// out\n        /* \"#utility.yul\":9997:10085   */\n    tag_120:\n        /* \"#utility.yul\":10045:10052   */\n      0x00\n        /* \"#utility.yul\":10074:10079   */\n      dup2\n        /* \"#utility.yul\":10063:10079   */\n      swap1\n      pop\n        /* \"#utility.yul\":9997:10085   */\n      swap2\n      swap1\n      pop\n      jump\t// out\n        /* \"#utility.yul\":10091:10253   */\n    tag_121:\n        /* \"#utility.yul\":10151:10160   */\n      0x00\n        /* \"#utility.yul\":10184:10247   */\n      tag_244\n        /* \"#utility.yul\":10201:10246   */\n      tag_245\n        /* \"#utility.yul\":10210:10245   */\n      tag_246\n        /* \"#utility.yul\":10239:10244   */\n      dup5\n        /* \"#utility.yul\":10210:10245   */\n      tag_120\n      jump\t// in\n    tag_246:\n        /* \"#utility.yul\":10201:10246   */\n      tag_113\n      jump\t// in\n    tag_245:\n        /* \"#utility.yul\":10184:10247   */\n      tag_117\n      jump\t// in\n    tag_244:\n        /* \"#utility.yul\":10171:10247   */\n      swap1\n      pop\n        /* \"#utility.yul\":10091:10253   */\n      swap2\n      swap1\n      pop\n      jump\t// out\n        /* \"#utility.yul\":10259:10410   */\n    tag_122:\n        /* \"#utility.yul\":10356:10403   */\n      tag_248\n        /* \"#utility.yul\":10397:10402   */\n      dup2\n        /* \"#utility.yul\":10356:10403   */\n      tag_121\n      jump\t// in\n    tag_248:\n        /* \"#utility.yul\":10351:10354   */\n      dup3\n        /* \"#utility.yul\":10344:10404   */\n      mstore\n        /* \"#utility.yul\":10259:10410   */\n      pop\n      pop\n      jump\t// out\n        /* \"#utility.yul\":10416:10912   */\n    tag_74:\n        /* \"#utility.yul\":10592:10596   */\n      0x00\n        /* \"#utility.yul\":10630:10632   */\n      0x60\n        /* \"#utility.yul\":10619:10628   */\n      dup3\n        /* \"#utility.yul\":10615:10633   */\n      add\n        /* \"#utility.yul\":10607:10633   */\n      swap1\n      pop\n        /* \"#utility.yul\":10643:10720   */\n      tag_250\n        /* \"#utility.yul\":10717:10718   */\n      0x00\n        /* \"#utility.yul\":10706:10715   */\n      dup4\n        /* \"#utility.yul\":10702:10719   */\n      add\n        /* \"#utility.yul\":10693:10699   */\n      dup7\n        /* \"#utility.yul\":10643:10720   */\n      tag_115\n      jump\t// in\n    tag_250:\n        /* \"#utility.yul\":10730:10813   */\n      tag_251\n        /* \"#utility.yul\":10809:10811   */\n      0x20\n        /* \"#utility.yul\":10798:10807   */\n      dup4\n        /* \"#utility.yul\":10794:10812   */\n      add\n        /* \"#utility.yul\":10785:10791   */\n      dup6\n        /* \"#utility.yul\":10730:10813   */\n      tag_119\n      jump\t// in\n    tag_251:\n        /* \"#utility.yul\":10823:10905   */\n      tag_252\n        /* \"#utility.yul\":10901:10903   */\n      0x40\n        /* \"#utility.yul\":10890:10899   */\n      dup4\n        /* \"#utility.yul\":10886:10904   */\n      add\n        /* \"#utility.yul\":10877:10883   */\n      dup5\n        /* \"#utility.yul\":10823:10905   */\n      tag_122\n      jump\t// in\n    tag_252:\n        /* \"#utility.yul\":10416:10912   */\n      swap5\n      swap4\n      pop\n      pop\n      pop\n      pop\n      jump\t// out\n\n    auxdata: 0xa264697066735822122046253ba0c94526f3dac85fa83bed11d794138b0384fba60fb7ceaf23bb0e0d7064736f6c634300080d0033\n}\n",
				"bytecode": {
					"linkReferences": {},
					"object": "608060405234801561001057600080fd5b506109bd806100206000396000f3fe608060405234801561001057600080fd5b50600436106100a95760003560e01c8063416bdc5211610071578063416bdc52146101445780634e70b1dc146101765780636097e7a3146101945780638c492a76146101b25780639711715a146101d0578063fb1a746f146101ee576100a9565b806302a251a3146100ae57806306fdde03146100cc57806316ada547146100ea57806329dcb0cf146101085780633932abb114610126575b600080fd5b6100b661020c565b6040516100c39190610388565b60405180910390f35b6100d4610216565b6040516100e1919061043c565b60405180910390f35b6100f2610253565b6040516100ff9190610388565b60405180910390f35b61011061026e565b60405161011d9190610481565b60405180910390f35b61012e6102a5565b60405161013b9190610388565b60405180910390f35b61015e600480360381019061015991906105e5565b6102ae565b60405161016d9392919061062e565b60405180910390f35b61017e6102da565b60405161018b9190610388565b60405180910390f35b61019c6102e8565b6040516101a991906106ba565b60405180910390f35b6101ba610318565b6040516101c791906106ba565b60405180910390f35b6101d8610348565b6040516101e59190610481565b60405180910390f35b6101f6610367565b604051610203919061071d565b60405180910390f35b600061b2fa905090565b60606040518060400160405280600881526020017f776f6e6879656f6b000000000000000000000000000000000000000000000000815250905090565b60008062069780426102659190610767565b90508091505090565b6000806102796102a5565b4361028491906107bd565b9050600061029061020c565b8261029b91906107bd565b9050809250505090565b60006001905090565b6000806000838060200190518101906102c79190610827565b8093508194508295505050509193909250565b600080601890508091505090565b6060600161b2ec61138860405160200161030493929190610950565b604051602081830303815290604052905090565b6060600161b2ec61138860405160200161033493929190610950565b604051602081830303815290604052905090565b6000806103536102a5565b4361035e91906107bd565b90508091505090565b600030905090565b6000819050919050565b6103828161036f565b82525050565b600060208201905061039d6000830184610379565b92915050565b600081519050919050565b600082825260208201905092915050565b60005b838110156103dd5780820151818401526020810190506103c2565b838111156103ec576000848401525b50505050565b6000601f19601f8301169050919050565b600061040e826103a3565b61041881856103ae565b93506104288185602086016103bf565b610431816103f2565b840191505092915050565b600060208201905081810360008301526104568184610403565b905092915050565b600067ffffffffffffffff82169050919050565b61047b8161045e565b82525050565b60006020820190506104966000830184610472565b92915050565b6000604051905090565b600080fd5b600080fd5b600080fd5b600080fd5b7f4e487b7100000000000000000000000000000000000000000000000000000000600052604160045260246000fd5b6104f2826103f2565b810181811067ffffffffffffffff82111715610511576105106104ba565b5b80604052505050565b600061052461049c565b905061053082826104e9565b919050565b600067ffffffffffffffff8211156105505761054f6104ba565b5b610559826103f2565b9050602081019050919050565b82818337600083830152505050565b600061058861058384610535565b61051a565b9050828152602081018484840111156105a4576105a36104b5565b5b6105af848285610566565b509392505050565b600082601f8301126105cc576105cb6104b0565b5b81356105dc848260208601610575565b91505092915050565b6000602082840312156105fb576105fa6104a6565b5b600082013567ffffffffffffffff811115610619576106186104ab565b5b610625848285016105b7565b91505092915050565b60006060820190506106436000830186610379565b6106506020830185610379565b61065d6040830184610379565b949350505050565b600081519050919050565b600082825260208201905092915050565b600061068c82610665565b6106968185610670565b93506106a68185602086016103bf565b6106af816103f2565b840191505092915050565b600060208201905081810360008301526106d48184610681565b905092915050565b600073ffffffffffffffffffffffffffffffffffffffff82169050919050565b6000610707826106dc565b9050919050565b610717816106fc565b82525050565b6000602082019050610732600083018461070e565b92915050565b7f4e487b7100000000000000000000000000000000000000000000000000000000600052601160045260246000fd5b60006107728261036f565b915061077d8361036f565b9250827fffffffffffffffffffffffffffffffffffffffffffffffffffffffffffffffff038211156107b2576107b1610738565b5b828201905092915050565b60006107c88261045e565b91506107d38361045e565b92508267ffffffffffffffff038211156107f0576107ef610738565b5b828201905092915050565b6108048161036f565b811461080f57600080fd5b50565b600081519050610821816107fb565b92915050565b6000806000606084860312156108405761083f6104a6565b5b600061084e86828701610812565b935050602061085f86828701610812565b925050604061087086828701610812565b9150509250925092565b6000819050919050565b600060ff82169050919050565b6000819050919050565b60006108b66108b16108ac8461087a565b610891565b610884565b9050919050565b6108c68161089b565b82525050565b6000819050919050565b600061ffff82169050919050565b60006108ff6108fa6108f5846108cc565b610891565b6108d6565b9050919050565b61090f816108e4565b82525050565b6000819050919050565b600061093a61093561093084610915565b610891565b6108d6565b9050919050565b61094a8161091f565b82525050565b600060608201905061096560008301866108bd565b6109726020830185610906565b61097f6040830184610941565b94935050505056fea264697066735822122046253ba0c94526f3dac85fa83bed11d794138b0384fba60fb7ceaf23bb0e0d7064736f6c634300080d0033",
					"opcodes": "PUSH1 0x80 PUSH1 0x40 MSTORE CALLVALUE DUP1 ISZERO PUSH2 0x10 JUMPI PUSH1 0x0 DUP1 REVERT JUMPDEST POP PUSH2 0x9BD DUP1 PUSH2 0x20 PUSH1 0x0 CODECOPY PUSH1 0x0 RETURN INVALID PUSH1 0x80 PUSH1 0x40 MSTORE CALLVALUE DUP1 ISZERO PUSH2 0x10 JUMPI PUSH1 0x0 DUP1 REVERT JUMPDEST POP PUSH1 0x4 CALLDATASIZE LT PUSH2 0xA9 JUMPI PUSH1 0x0 CALLDATALOAD PUSH1 0xE0 SHR DUP1 PUSH4 0x416BDC52 GT PUSH2 0x71 JUMPI DUP1 PUSH4 0x416BDC52 EQ PUSH2 0x144 JUMPI DUP1 PUSH4 0x4E70B1DC EQ PUSH2 0x176 JUMPI DUP1 PUSH4 0x6097E7A3 EQ PUSH2 0x194 JUMPI DUP1 PUSH4 0x8C492A76 EQ PUSH2 0x1B2 JUMPI DUP1 PUSH4 0x9711715A EQ PUSH2 0x1D0 JUMPI DUP1 PUSH4 0xFB1A746F EQ PUSH2 0x1EE JUMPI PUSH2 0xA9 JUMP JUMPDEST DUP1 PUSH4 0x2A251A3 EQ PUSH2 0xAE JUMPI DUP1 PUSH4 0x6FDDE03 EQ PUSH2 0xCC JUMPI DUP1 PUSH4 0x16ADA547 EQ PUSH2 0xEA JUMPI DUP1 PUSH4 0x29DCB0CF EQ PUSH2 0x108 JUMPI DUP1 PUSH4 0x3932ABB1 EQ PUSH2 0x126 JUMPI JUMPDEST PUSH1 0x0 DUP1 REVERT JUMPDEST PUSH2 0xB6 PUSH2 0x20C JUMP JUMPDEST PUSH1 0x40 MLOAD PUSH2 0xC3 SWAP2 SWAP1 PUSH2 0x388 JUMP JUMPDEST PUSH1 0x40 MLOAD DUP1 SWAP2 SUB SWAP1 RETURN JUMPDEST PUSH2 0xD4 PUSH2 0x216 JUMP JUMPDEST PUSH1 0x40 MLOAD PUSH2 0xE1 SWAP2 SWAP1 PUSH2 0x43C JUMP JUMPDEST PUSH1 0x40 MLOAD DUP1 SWAP2 SUB SWAP1 RETURN JUMPDEST PUSH2 0xF2 PUSH2 0x253 JUMP JUMPDEST PUSH1 0x40 MLOAD PUSH2 0xFF SWAP2 SWAP1 PUSH2 0x388 JUMP JUMPDEST PUSH1 0x40 MLOAD DUP1 SWAP2 SUB SWAP1 RETURN JUMPDEST PUSH2 0x110 PUSH2 0x26E JUMP JUMPDEST PUSH1 0x40 MLOAD PUSH2 0x11D SWAP2 SWAP1 PUSH2 0x481 JUMP JUMPDEST PUSH1 0x40 MLOAD DUP1 SWAP2 SUB SWAP1 RETURN JUMPDEST PUSH2 0x12E PUSH2 0x2A5 JUMP JUMPDEST PUSH1 0x40 MLOAD PUSH2 0x13B SWAP2 SWAP1 PUSH2 0x388 JUMP JUMPDEST PUSH1 0x40 MLOAD DUP1 SWAP2 SUB SWAP1 RETURN JUMPDEST PUSH2 0x15E PUSH1 0x4 DUP1 CALLDATASIZE SUB DUP2 ADD SWAP1 PUSH2 0x159 SWAP2 SWAP1 PUSH2 0x5E5 JUMP JUMPDEST PUSH2 0x2AE JUMP JUMPDEST PUSH1 0x40 MLOAD PUSH2 0x16D SWAP4 SWAP3 SWAP2 SWAP1 PUSH2 0x62E JUMP JUMPDEST PUSH1 0x40 MLOAD DUP1 SWAP2 SUB SWAP1 RETURN JUMPDEST PUSH2 0x17E PUSH2 0x2DA JUMP JUMPDEST PUSH1 0x40 MLOAD PUSH2 0x18B SWAP2 SWAP1 PUSH2 0x388 JUMP JUMPDEST PUSH1 0x40 MLOAD DUP1 SWAP2 SUB SWAP1 RETURN JUMPDEST PUSH2 0x19C PUSH2 0x2E8 JUMP JUMPDEST PUSH1 0x40 MLOAD PUSH2 0x1A9 SWAP2 SWAP1 PUSH2 0x6BA JUMP JUMPDEST PUSH1 0x40 MLOAD DUP1 SWAP2 SUB SWAP1 RETURN JUMPDEST PUSH2 0x1BA PUSH2 0x318 JUMP JUMPDEST PUSH1 0x40 MLOAD PUSH2 0x1C7 SWAP2 SWAP1 PUSH2 0x6BA JUMP JUMPDEST PUSH1 0x40 MLOAD DUP1 SWAP2 SUB SWAP1 RETURN JUMPDEST PUSH2 0x1D8 PUSH2 0x348 JUMP JUMPDEST PUSH1 0x40 MLOAD PUSH2 0x1E5 SWAP2 SWAP1 PUSH2 0x481 JUMP JUMPDEST PUSH1 0x40 MLOAD DUP1 SWAP2 SUB SWAP1 RETURN JUMPDEST PUSH2 0x1F6 PUSH2 0x367 JUMP JUMPDEST PUSH1 0x40 MLOAD PUSH2 0x203 SWAP2 SWAP1 PUSH2 0x71D JUMP JUMPDEST PUSH1 0x40 MLOAD DUP1 SWAP2 SUB SWAP1 RETURN JUMPDEST PUSH1 0x0 PUSH2 0xB2FA SWAP1 POP SWAP1 JUMP JUMPDEST PUSH1 0x60 PUSH1 0x40 MLOAD DUP1 PUSH1 0x40 ADD PUSH1 0x40 MSTORE DUP1 PUSH1 0x8 DUP2 MSTORE PUSH1 0x20 ADD PUSH32 0x776F6E6879656F6B000000000000000000000000000000000000000000000000 DUP2 MSTORE POP SWAP1 POP SWAP1 JUMP JUMPDEST PUSH1 0x0 DUP1 PUSH3 0x69780 TIMESTAMP PUSH2 0x265 SWAP2 SWAP1 PUSH2 0x767 JUMP JUMPDEST SWAP1 POP DUP1 SWAP2 POP POP SWAP1 JUMP JUMPDEST PUSH1 0x0 DUP1 PUSH2 0x279 PUSH2 0x2A5 JUMP JUMPDEST NUMBER PUSH2 0x284 SWAP2 SWAP1 PUSH2 0x7BD JUMP JUMPDEST SWAP1 POP PUSH1 0x0 PUSH2 0x290 PUSH2 0x20C JUMP JUMPDEST DUP3 PUSH2 0x29B SWAP2 SWAP1 PUSH2 0x7BD JUMP JUMPDEST SWAP1 POP DUP1 SWAP3 POP POP POP SWAP1 JUMP JUMPDEST PUSH1 0x0 PUSH1 0x1 SWAP1 POP SWAP1 JUMP JUMPDEST PUSH1 0x0 DUP1 PUSH1 0x0 DUP4 DUP1 PUSH1 0x20 ADD SWAP1 MLOAD DUP2 ADD SWAP1 PUSH2 0x2C7 SWAP2 SWAP1 PUSH2 0x827 JUMP JUMPDEST DUP1 SWAP4 POP DUP2 SWAP5 POP DUP3 SWAP6 POP POP POP POP SWAP2 SWAP4 SWAP1 SWAP3 POP JUMP JUMPDEST PUSH1 0x0 DUP1 PUSH1 0x18 SWAP1 POP DUP1 SWAP2 POP POP SWAP1 JUMP JUMPDEST PUSH1 0x60 PUSH1 0x1 PUSH2 0xB2EC PUSH2 0x1388 PUSH1 0x40 MLOAD PUSH1 0x20 ADD PUSH2 0x304 SWAP4 SWAP3 SWAP2 SWAP1 PUSH2 0x950 JUMP JUMPDEST PUSH1 0x40 MLOAD PUSH1 0x20 DUP2 DUP4 SUB SUB DUP2 MSTORE SWAP1 PUSH1 0x40 MSTORE SWAP1 POP SWAP1 JUMP JUMPDEST PUSH1 0x60 PUSH1 0x1 PUSH2 0xB2EC PUSH2 0x1388 PUSH1 0x40 MLOAD PUSH1 0x20 ADD PUSH2 0x334 SWAP4 SWAP3 SWAP2 SWAP1 PUSH2 0x950 JUMP JUMPDEST PUSH1 0x40 MLOAD PUSH1 0x20 DUP2 DUP4 SUB SUB DUP2 MSTORE SWAP1 PUSH1 0x40 MSTORE SWAP1 POP SWAP1 JUMP JUMPDEST PUSH1 0x0 DUP1 PUSH2 0x353 PUSH2 0x2A5 JUMP JUMPDEST NUMBER PUSH2 0x35E SWAP2 SWAP1 PUSH2 0x7BD JUMP JUMPDEST SWAP1 POP DUP1 SWAP2 POP POP SWAP1 JUMP JUMPDEST PUSH1 0x0 ADDRESS SWAP1 POP SWAP1 JUMP JUMPDEST PUSH1 0x0 DUP2 SWAP1 POP SWAP2 SWAP1 POP JUMP JUMPDEST PUSH2 0x382 DUP2 PUSH2 0x36F JUMP JUMPDEST DUP3 MSTORE POP POP JUMP JUMPDEST PUSH1 0x0 PUSH1 0x20 DUP3 ADD SWAP1 POP PUSH2 0x39D PUSH1 0x0 DUP4 ADD DUP5 PUSH2 0x379 JUMP JUMPDEST SWAP3 SWAP2 POP POP JUMP JUMPDEST PUSH1 0x0 DUP2 MLOAD SWAP1 POP SWAP2 SWAP1 POP JUMP JUMPDEST PUSH1 0x0 DUP3 DUP3 MSTORE PUSH1 0x20 DUP3 ADD SWAP1 POP SWAP3 SWAP2 POP POP JUMP JUMPDEST PUSH1 0x0 JUMPDEST DUP4 DUP2 LT ISZERO PUSH2 0x3DD JUMPI DUP1 DUP3 ADD MLOAD DUP2 DUP5 ADD MSTORE PUSH1 0x20 DUP2 ADD SWAP1 POP PUSH2 0x3C2 JUMP JUMPDEST DUP4 DUP2 GT ISZERO PUSH2 0x3EC JUMPI PUSH1 0x0 DUP5 DUP5 ADD MSTORE JUMPDEST POP POP POP POP JUMP JUMPDEST PUSH1 0x0 PUSH1 0x1F NOT PUSH1 0x1F DUP4 ADD AND SWAP1 POP SWAP2 SWAP1 POP JUMP JUMPDEST PUSH1 0x0 PUSH2 0x40E DUP3 PUSH2 0x3A3 JUMP JUMPDEST PUSH2 0x418 DUP2 DUP6 PUSH2 0x3AE JUMP JUMPDEST SWAP4 POP PUSH2 0x428 DUP2 DUP6 PUSH1 0x20 DUP7 ADD PUSH2 0x3BF JUMP JUMPDEST PUSH2 0x431 DUP2 PUSH2 0x3F2 JUMP JUMPDEST DUP5 ADD SWAP2 POP POP SWAP3 SWAP2 POP POP JUMP JUMPDEST PUSH1 0x0 PUSH1 0x20 DUP3 ADD SWAP1 POP DUP2 DUP2 SUB PUSH1 0x0 DUP4 ADD MSTORE PUSH2 0x456 DUP2 DUP5 PUSH2 0x403 JUMP JUMPDEST SWAP1 POP SWAP3 SWAP2 POP POP JUMP JUMPDEST PUSH1 0x0 PUSH8 0xFFFFFFFFFFFFFFFF DUP3 AND SWAP1 POP SWAP2 SWAP1 POP JUMP JUMPDEST PUSH2 0x47B DUP2 PUSH2 0x45E JUMP JUMPDEST DUP3 MSTORE POP POP JUMP JUMPDEST PUSH1 0x0 PUSH1 0x20 DUP3 ADD SWAP1 POP PUSH2 0x496 PUSH1 0x0 DUP4 ADD DUP5 PUSH2 0x472 JUMP JUMPDEST SWAP3 SWAP2 POP POP JUMP JUMPDEST PUSH1 0x0 PUSH1 0x40 MLOAD SWAP1 POP SWAP1 JUMP JUMPDEST PUSH1 0x0 DUP1 REVERT JUMPDEST PUSH1 0x0 DUP1 REVERT JUMPDEST PUSH1 0x0 DUP1 REVERT JUMPDEST PUSH1 0x0 DUP1 REVERT JUMPDEST PUSH32 0x4E487B7100000000000000000000000000000000000000000000000000000000 PUSH1 0x0 MSTORE PUSH1 0x41 PUSH1 0x4 MSTORE PUSH1 0x24 PUSH1 0x0 REVERT JUMPDEST PUSH2 0x4F2 DUP3 PUSH2 0x3F2 JUMP JUMPDEST DUP2 ADD DUP2 DUP2 LT PUSH8 0xFFFFFFFFFFFFFFFF DUP3 GT OR ISZERO PUSH2 0x511 JUMPI PUSH2 0x510 PUSH2 0x4BA JUMP JUMPDEST JUMPDEST DUP1 PUSH1 0x40 MSTORE POP POP POP JUMP JUMPDEST PUSH1 0x0 PUSH2 0x524 PUSH2 0x49C JUMP JUMPDEST SWAP1 POP PUSH2 0x530 DUP3 DUP3 PUSH2 0x4E9 JUMP JUMPDEST SWAP2 SWAP1 POP JUMP JUMPDEST PUSH1 0x0 PUSH8 0xFFFFFFFFFFFFFFFF DUP3 GT ISZERO PUSH2 0x550 JUMPI PUSH2 0x54F PUSH2 0x4BA JUMP JUMPDEST JUMPDEST PUSH2 0x559 DUP3 PUSH2 0x3F2 JUMP JUMPDEST SWAP1 POP PUSH1 0x20 DUP2 ADD SWAP1 POP SWAP2 SWAP1 POP JUMP JUMPDEST DUP3 DUP2 DUP4 CALLDATACOPY PUSH1 0x0 DUP4 DUP4 ADD MSTORE POP POP POP JUMP JUMPDEST PUSH1 0x0 PUSH2 0x588 PUSH2 0x583 DUP5 PUSH2 0x535 JUMP JUMPDEST PUSH2 0x51A JUMP JUMPDEST SWAP1 POP DUP3 DUP2 MSTORE PUSH1 0x20 DUP2 ADD DUP5 DUP5 DUP5 ADD GT ISZERO PUSH2 0x5A4 JUMPI PUSH2 0x5A3 PUSH2 0x4B5 JUMP JUMPDEST JUMPDEST PUSH2 0x5AF DUP5 DUP3 DUP6 PUSH2 0x566 JUMP JUMPDEST POP SWAP4 SWAP3 POP POP POP JUMP JUMPDEST PUSH1 0x0 DUP3 PUSH1 0x1F DUP4 ADD SLT PUSH2 0x5CC JUMPI PUSH2 0x5CB PUSH2 0x4B0 JUMP JUMPDEST JUMPDEST DUP2 CALLDATALOAD PUSH2 0x5DC DUP5 DUP3 PUSH1 0x20 DUP7 ADD PUSH2 0x575 JUMP JUMPDEST SWAP2 POP POP SWAP3 SWAP2 POP POP JUMP JUMPDEST PUSH1 0x0 PUSH1 0x20 DUP3 DUP5 SUB SLT ISZERO PUSH2 0x5FB JUMPI PUSH2 0x5FA PUSH2 0x4A6 JUMP JUMPDEST JUMPDEST PUSH1 0x0 DUP3 ADD CALLDATALOAD PUSH8 0xFFFFFFFFFFFFFFFF DUP2 GT ISZERO PUSH2 0x619 JUMPI PUSH2 0x618 PUSH2 0x4AB JUMP JUMPDEST JUMPDEST PUSH2 0x625 DUP5 DUP3 DUP6 ADD PUSH2 0x5B7 JUMP JUMPDEST SWAP2 POP POP SWAP3 SWAP2 POP POP JUMP JUMPDEST PUSH1 0x0 PUSH1 0x60 DUP3 ADD SWAP1 POP PUSH2 0x643 PUSH1 0x0 DUP4 ADD DUP7 PUSH2 0x379 JUMP JUMPDEST PUSH2 0x650 PUSH1 0x20 DUP4 ADD DUP6 PUSH2 0x379 JUMP JUMPDEST PUSH2 0x65D PUSH1 0x40 DUP4 ADD DUP5 PUSH2 0x379 JUMP JUMPDEST SWAP5 SWAP4 POP POP POP POP JUMP JUMPDEST PUSH1 0x0 DUP2 MLOAD SWAP1 POP SWAP2 SWAP1 POP JUMP JUMPDEST PUSH1 0x0 DUP3 DUP3 MSTORE PUSH1 0x20 DUP3 ADD SWAP1 POP SWAP3 SWAP2 POP POP JUMP JUMPDEST PUSH1 0x0 PUSH2 0x68C DUP3 PUSH2 0x665 JUMP JUMPDEST PUSH2 0x696 DUP2 DUP6 PUSH2 0x670 JUMP JUMPDEST SWAP4 POP PUSH2 0x6A6 DUP2 DUP6 PUSH1 0x20 DUP7 ADD PUSH2 0x3BF JUMP JUMPDEST PUSH2 0x6AF DUP2 PUSH2 0x3F2 JUMP JUMPDEST DUP5 ADD SWAP2 POP POP SWAP3 SWAP2 POP POP JUMP JUMPDEST PUSH1 0x0 PUSH1 0x20 DUP3 ADD SWAP1 POP DUP2 DUP2 SUB PUSH1 0x0 DUP4 ADD MSTORE PUSH2 0x6D4 DUP2 DUP5 PUSH2 0x681 JUMP JUMPDEST SWAP1 POP SWAP3 SWAP2 POP POP JUMP JUMPDEST PUSH1 0x0 PUSH20 0xFFFFFFFFFFFFFFFFFFFFFFFFFFFFFFFFFFFFFFFF DUP3 AND SWAP1 POP SWAP2 SWAP1 POP JUMP JUMPDEST PUSH1 0x0 PUSH2 0x707 DUP3 PUSH2 0x6DC JUMP JUMPDEST SWAP1 POP SWAP2 SWAP1 POP JUMP JUMPDEST PUSH2 0x717 DUP2 PUSH2 0x6FC JUMP JUMPDEST DUP3 MSTORE POP POP JUMP JUMPDEST PUSH1 0x0 PUSH1 0x20 DUP3 ADD SWAP1 POP PUSH2 0x732 PUSH1 0x0 DUP4 ADD DUP5 PUSH2 0x70E JUMP JUMPDEST SWAP3 SWAP2 POP POP JUMP JUMPDEST PUSH32 0x4E487B7100000000000000000000000000000000000000000000000000000000 PUSH1 0x0 MSTORE PUSH1 0x11 PUSH1 0x4 MSTORE PUSH1 0x24 PUSH1 0x0 REVERT JUMPDEST PUSH1 0x0 PUSH2 0x772 DUP3 PUSH2 0x36F JUMP JUMPDEST SWAP2 POP PUSH2 0x77D DUP4 PUSH2 0x36F JUMP JUMPDEST SWAP3 POP DUP3 PUSH32 0xFFFFFFFFFFFFFFFFFFFFFFFFFFFFFFFFFFFFFFFFFFFFFFFFFFFFFFFFFFFFFFFF SUB DUP3 GT ISZERO PUSH2 0x7B2 JUMPI PUSH2 0x7B1 PUSH2 0x738 JUMP JUMPDEST JUMPDEST DUP3 DUP3 ADD SWAP1 POP SWAP3 SWAP2 POP POP JUMP JUMPDEST PUSH1 0x0 PUSH2 0x7C8 DUP3 PUSH2 0x45E JUMP JUMPDEST SWAP2 POP PUSH2 0x7D3 DUP4 PUSH2 0x45E JUMP JUMPDEST SWAP3 POP DUP3 PUSH8 0xFFFFFFFFFFFFFFFF SUB DUP3 GT ISZERO PUSH2 0x7F0 JUMPI PUSH2 0x7EF PUSH2 0x738 JUMP JUMPDEST JUMPDEST DUP3 DUP3 ADD SWAP1 POP SWAP3 SWAP2 POP POP JUMP JUMPDEST PUSH2 0x804 DUP2 PUSH2 0x36F JUMP JUMPDEST DUP2 EQ PUSH2 0x80F JUMPI PUSH1 0x0 DUP1 REVERT JUMPDEST POP JUMP JUMPDEST PUSH1 0x0 DUP2 MLOAD SWAP1 POP PUSH2 0x821 DUP2 PUSH2 0x7FB JUMP JUMPDEST SWAP3 SWAP2 POP POP JUMP JUMPDEST PUSH1 0x0 DUP1 PUSH1 0x0 PUSH1 0x60 DUP5 DUP7 SUB SLT ISZERO PUSH2 0x840 JUMPI PUSH2 0x83F PUSH2 0x4A6 JUMP JUMPDEST JUMPDEST PUSH1 0x0 PUSH2 0x84E DUP7 DUP3 DUP8 ADD PUSH2 0x812 JUMP JUMPDEST SWAP4 POP POP PUSH1 0x20 PUSH2 0x85F DUP7 DUP3 DUP8 ADD PUSH2 0x812 JUMP JUMPDEST SWAP3 POP POP PUSH1 0x40 PUSH2 0x870 DUP7 DUP3 DUP8 ADD PUSH2 0x812 JUMP JUMPDEST SWAP2 POP POP SWAP3 POP SWAP3 POP SWAP3 JUMP JUMPDEST PUSH1 0x0 DUP2 SWAP1 POP SWAP2 SWAP1 POP JUMP JUMPDEST PUSH1 0x0 PUSH1 0xFF DUP3 AND SWAP1 POP SWAP2 SWAP1 POP JUMP JUMPDEST PUSH1 0x0 DUP2 SWAP1 POP SWAP2 SWAP1 POP JUMP JUMPDEST PUSH1 0x0 PUSH2 0x8B6 PUSH2 0x8B1 PUSH2 0x8AC DUP5 PUSH2 0x87A JUMP JUMPDEST PUSH2 0x891 JUMP JUMPDEST PUSH2 0x884 JUMP JUMPDEST SWAP1 POP SWAP2 SWAP1 POP JUMP JUMPDEST PUSH2 0x8C6 DUP2 PUSH2 0x89B JUMP JUMPDEST DUP3 MSTORE POP POP JUMP JUMPDEST PUSH1 0x0 DUP2 SWAP1 POP SWAP2 SWAP1 POP JUMP JUMPDEST PUSH1 0x0 PUSH2 0xFFFF DUP3 AND SWAP1 POP SWAP2 SWAP1 POP JUMP JUMPDEST PUSH1 0x0 PUSH2 0x8FF PUSH2 0x8FA PUSH2 0x8F5 DUP5 PUSH2 0x8CC JUMP JUMPDEST PUSH2 0x891 JUMP JUMPDEST PUSH2 0x8D6 JUMP JUMPDEST SWAP1 POP SWAP2 SWAP1 POP JUMP JUMPDEST PUSH2 0x90F DUP2 PUSH2 0x8E4 JUMP JUMPDEST DUP3 MSTORE POP POP JUMP JUMPDEST PUSH1 0x0 DUP2 SWAP1 POP SWAP2 SWAP1 POP JUMP JUMPDEST PUSH1 0x0 PUSH2 0x93A PUSH2 0x935 PUSH2 0x930 DUP5 PUSH2 0x915 JUMP JUMPDEST PUSH2 0x891 JUMP JUMPDEST PUSH2 0x8D6 JUMP JUMPDEST SWAP1 POP SWAP2 SWAP1 POP JUMP JUMPDEST PUSH2 0x94A DUP2 PUSH2 0x91F JUMP JUMPDEST DUP3 MSTORE POP POP JUMP JUMPDEST PUSH1 0x0 PUSH1 0x60 DUP3 ADD SWAP1 POP PUSH2 0x965 PUSH1 0x0 DUP4 ADD DUP7 PUSH2 0x8BD JUMP JUMPDEST PUSH2 0x972 PUSH1 0x20 DUP4 ADD DUP6 PUSH2 0x906 JUMP JUMPDEST PUSH2 0x97F PUSH1 0x40 DUP4 ADD DUP5 PUSH2 0x941 JUMP JUMPDEST SWAP5 SWAP4 POP POP POP POP JUMP INVALID LOG2 PUSH5 0x6970667358 0x22 SLT KECCAK256 CHAINID 0x25 EXTCODESIZE LOG0 0xC9 GASLIMIT 0x26 RETURN 0xDA 0xC8 0x5F 0xA8 EXTCODESIZE 0xED GT 0xD7 SWAP5 SGT DUP12 SUB DUP5 0xFB 0xA6 0xF 0xB7 0xCE 0xAF 0x23 0xBB 0xE 0xD PUSH17 0x64736F6C634300080D0033000000000000 "
				},
				"gasEstimates": {
					"creation": {
						"codeDepositCost": "498600",
						"executionCost": "530",
						"totalCost": "499130"
					},
					"external": {
						"_executor()": "495",
						"abiDecode(bytes)": "infinite",
						"abiEncode()": "infinite",
						"deadline()": "infinite",
						"keccak256test()": "infinite",
						"name()": "infinite",
						"num()": "372",
						"snapshot()": "infinite",
						"time()": "infinite",
						"votingDelay()": "426",
						"votingPeriod()": "338"
					}
				},
				"methodIdentifiers": {
					"_executor()": "fb1a746f",
					"abiDecode(bytes)": "416bdc52",
					"abiEncode()": "6097e7a3",
					"deadline()": "29dcb0cf",
					"keccak256test()": "8c492a76",
					"name()": "06fdde03",
					"num()": "4e70b1dc",
					"snapshot()": "9711715a",
					"time()": "16ada547",
					"votingDelay()": "3932abb1",
					"votingPeriod()": "02a251a3"
				}
			},
			"storageLayout": {
				"storage": [
					{
						"astId": 13,
						"contract": ".workspaces/default_workspace/unMiracle/test.sol:test",
						"label": "_testS",
						"offset": 0,
						"slot": "0",
						"type": "t_mapping(t_uint256,t_struct(testS)8_storage)"
					}
				],
				"types": {
					"t_mapping(t_uint256,t_struct(testS)8_storage)": {
						"encoding": "mapping",
						"key": "t_uint256",
						"label": "mapping(uint256 => struct test.testS)",
						"numberOfBytes": "32",
						"value": "t_struct(testS)8_storage"
					},
					"t_string_storage": {
						"encoding": "bytes",
						"label": "string",
						"numberOfBytes": "32"
					},
					"t_struct(testS)8_storage": {
						"encoding": "inplace",
						"label": "struct test.testS",
						"members": [
							{
								"astId": 5,
								"contract": ".workspaces/default_workspace/unMiracle/test.sol:test",
								"label": "name",
								"offset": 0,
								"slot": "0",
								"type": "t_string_storage"
							},
							{
								"astId": 7,
								"contract": ".workspaces/default_workspace/unMiracle/test.sol:test",
								"label": "num",
								"offset": 0,
								"slot": "1",
								"type": "t_uint256"
							}
						],
						"numberOfBytes": "64"
					},
					"t_uint256": {
						"encoding": "inplace",
						"label": "uint256",
						"numberOfBytes": "32"
					}
				}
			},
			"userdoc": {
				"kind": "user",
				"methods": {},
				"version": 1
			}
		}
	}
}