{
	".workspaces/default_workspace/unMiracle/test.sol": {
		"test": {
			"abi": [
				{
					"inputs": [],
					"name": "deadline",
					"outputs": [
						{
							"internalType": "uint64",
							"name": "",
							"type": "uint64"
						}
					],
					"stateMutability": "view",
					"type": "function"
				},
				{
					"inputs": [],
					"name": "keccak256test",
					"outputs": [
						{
							"internalType": "string",
							"name": "",
							"type": "string"
						}
					],
					"stateMutability": "nonpayable",
					"type": "function"
				},
				{
					"inputs": [],
					"name": "snapshot",
					"outputs": [
						{
							"internalType": "uint64",
							"name": "",
							"type": "uint64"
						}
					],
					"stateMutability": "view",
					"type": "function"
				},
				{
					"inputs": [],
					"name": "votingDelay",
					"outputs": [
						{
							"internalType": "uint256",
							"name": "",
							"type": "uint256"
						}
					],
					"stateMutability": "pure",
					"type": "function"
				},
				{
					"inputs": [],
					"name": "votingPeriod",
					"outputs": [
						{
							"internalType": "uint256",
							"name": "",
							"type": "uint256"
						}
					],
					"stateMutability": "pure",
					"type": "function"
				}
			],
			"devdoc": {
				"kind": "dev",
				"methods": {},
				"version": 1
			},
			"evm": {
				"assembly": "    /* \".workspaces/default_workspace/unMiracle/test.sol\":170:1034  contract test {... */\n  mstore(0x40, 0x80)\n  callvalue\n  dup1\n  iszero\n  tag_1\n  jumpi\n  0x00\n  dup1\n  revert\ntag_1:\n  pop\n  dataSize(sub_0)\n  dup1\n  dataOffset(sub_0)\n  0x00\n  codecopy\n  0x00\n  return\nstop\n\nsub_0: assembly {\n        /* \".workspaces/default_workspace/unMiracle/test.sol\":170:1034  contract test {... */\n      mstore(0x40, 0x80)\n      callvalue\n      dup1\n      iszero\n      tag_1\n      jumpi\n      0x00\n      dup1\n      revert\n    tag_1:\n      pop\n      jumpi(tag_2, lt(calldatasize, 0x04))\n      shr(0xe0, calldataload(0x00))\n      dup1\n      0x02a251a3\n      eq\n      tag_3\n      jumpi\n      dup1\n      0x29dcb0cf\n      eq\n      tag_4\n      jumpi\n      dup1\n      0x3932abb1\n      eq\n      tag_5\n      jumpi\n      dup1\n      0x8c492a76\n      eq\n      tag_6\n      jumpi\n      dup1\n      0x9711715a\n      eq\n      tag_7\n      jumpi\n    tag_2:\n      0x00\n      dup1\n      revert\n        /* \".workspaces/default_workspace/unMiracle/test.sol\":562:653  function votingPeriod() public pure returns(uint256) {... */\n    tag_3:\n      tag_8\n      tag_9\n      jump\t// in\n    tag_8:\n      mload(0x40)\n      tag_10\n      swap2\n      swap1\n      tag_11\n      jump\t// in\n    tag_10:\n      mload(0x40)\n      dup1\n      swap2\n      sub\n      swap1\n      return\n        /* \".workspaces/default_workspace/unMiracle/test.sol\":818:1032  function deadline() public view returns(uint64) {... */\n    tag_4:\n      tag_12\n      tag_13\n      jump\t// in\n    tag_12:\n      mload(0x40)\n      tag_14\n      swap2\n      swap1\n      tag_15\n      jump\t// in\n    tag_14:\n      mload(0x40)\n      dup1\n      swap2\n      sub\n      swap1\n      return\n        /* \".workspaces/default_workspace/unMiracle/test.sol\":479:556  function votingDelay() public pure returns(uint256) {... */\n    tag_5:\n      tag_16\n      tag_17\n      jump\t// in\n    tag_16:\n      mload(0x40)\n      tag_18\n      swap2\n      swap1\n      tag_11\n      jump\t// in\n    tag_18:\n      mload(0x40)\n      dup1\n      swap2\n      sub\n      swap1\n      return\n        /* \".workspaces/default_workspace/unMiracle/test.sol\":192:472  function keccak256test() public returns(string memory) {... */\n    tag_6:\n      tag_19\n      tag_20\n      jump\t// in\n    tag_19:\n      mload(0x40)\n      tag_21\n      swap2\n      swap1\n      tag_22\n      jump\t// in\n    tag_21:\n      mload(0x40)\n      dup1\n      swap2\n      sub\n      swap1\n      return\n        /* \".workspaces/default_workspace/unMiracle/test.sol\":659:812  function snapshot() public view returns(uint64) {... */\n    tag_7:\n      tag_23\n      tag_24\n      jump\t// in\n    tag_23:\n      mload(0x40)\n      tag_25\n      swap2\n      swap1\n      tag_15\n      jump\t// in\n    tag_25:\n      mload(0x40)\n      dup1\n      swap2\n      sub\n      swap1\n      return\n        /* \".workspaces/default_workspace/unMiracle/test.sol\":562:653  function votingPeriod() public pure returns(uint256) {... */\n    tag_9:\n        /* \".workspaces/default_workspace/unMiracle/test.sol\":606:613  uint256 */\n      0x00\n        /* \".workspaces/default_workspace/unMiracle/test.sol\":632:637  45818 */\n      0xb2fa\n        /* \".workspaces/default_workspace/unMiracle/test.sol\":625:637  return 45818 */\n      swap1\n      pop\n        /* \".workspaces/default_workspace/unMiracle/test.sol\":562:653  function votingPeriod() public pure returns(uint256) {... */\n      swap1\n      jump\t// out\n        /* \".workspaces/default_workspace/unMiracle/test.sol\":818:1032  function deadline() public view returns(uint64) {... */\n    tag_13:\n        /* \".workspaces/default_workspace/unMiracle/test.sol\":858:864  uint64 */\n      0x00\n        /* \".workspaces/default_workspace/unMiracle/test.sol\":876:891  uint64 snapshot */\n      dup1\n        /* \".workspaces/default_workspace/unMiracle/test.sol\":924:937  votingDelay() */\n      tag_28\n        /* \".workspaces/default_workspace/unMiracle/test.sol\":924:935  votingDelay */\n      tag_17\n        /* \".workspaces/default_workspace/unMiracle/test.sol\":924:937  votingDelay() */\n      jump\t// in\n    tag_28:\n        /* \".workspaces/default_workspace/unMiracle/test.sol\":901:913  block.number */\n      number\n        /* \".workspaces/default_workspace/unMiracle/test.sol\":894:938  uint64(block.number) + uint64(votingDelay()) */\n      tag_29\n      swap2\n      swap1\n      tag_30\n      jump\t// in\n    tag_29:\n        /* \".workspaces/default_workspace/unMiracle/test.sol\":876:938  uint64 snapshot = uint64(block.number) + uint64(votingDelay()) */\n      swap1\n      pop\n        /* \".workspaces/default_workspace/unMiracle/test.sol\":948:963  uint64 deadline */\n      0x00\n        /* \".workspaces/default_workspace/unMiracle/test.sol\":984:998  votingPeriod() */\n      tag_31\n        /* \".workspaces/default_workspace/unMiracle/test.sol\":984:996  votingPeriod */\n      tag_9\n        /* \".workspaces/default_workspace/unMiracle/test.sol\":984:998  votingPeriod() */\n      jump\t// in\n    tag_31:\n        /* \".workspaces/default_workspace/unMiracle/test.sol\":966:974  snapshot */\n      dup3\n        /* \".workspaces/default_workspace/unMiracle/test.sol\":966:999  snapshot + uint64(votingPeriod()) */\n      tag_32\n      swap2\n      swap1\n      tag_30\n      jump\t// in\n    tag_32:\n        /* \".workspaces/default_workspace/unMiracle/test.sol\":948:999  uint64 deadline = snapshot + uint64(votingPeriod()) */\n      swap1\n      pop\n        /* \".workspaces/default_workspace/unMiracle/test.sol\":1017:1025  deadline */\n      dup1\n        /* \".workspaces/default_workspace/unMiracle/test.sol\":1010:1025  return deadline */\n      swap3\n      pop\n      pop\n      pop\n        /* \".workspaces/default_workspace/unMiracle/test.sol\":818:1032  function deadline() public view returns(uint64) {... */\n      swap1\n      jump\t// out\n        /* \".workspaces/default_workspace/unMiracle/test.sol\":479:556  function votingDelay() public pure returns(uint256) {... */\n    tag_17:\n        /* \".workspaces/default_workspace/unMiracle/test.sol\":522:529  uint256 */\n      0x00\n        /* \".workspaces/default_workspace/unMiracle/test.sol\":548:549  1 */\n      0x01\n        /* \".workspaces/default_workspace/unMiracle/test.sol\":541:549  return 1 */\n      swap1\n      pop\n        /* \".workspaces/default_workspace/unMiracle/test.sol\":479:556  function votingDelay() public pure returns(uint256) {... */\n      swap1\n      jump\t// out\n        /* \".workspaces/default_workspace/unMiracle/test.sol\":192:472  function keccak256test() public returns(string memory) {... */\n    tag_20:\n        /* \".workspaces/default_workspace/unMiracle/test.sol\":232:245  string memory */\n      0x60\n        /* \".workspaces/default_workspace/unMiracle/test.sol\":331:464  abi.encode([msg.sender],[0], [\"0xec9ec573cf97ad1c270be71ac1de3b382790cb346036130c7d7ff844bf8f4974\"], keccak256(bytes(\"description\"))) */\n      mload(0x40)\n      dup1\n      0x20\n      add\n      0x40\n      mstore\n      dup1\n        /* \".workspaces/default_workspace/unMiracle/test.sol\":343:353  msg.sender */\n      caller\n        /* \".workspaces/default_workspace/unMiracle/test.sol\":331:464  abi.encode([msg.sender],[0], [\"0xec9ec573cf97ad1c270be71ac1de3b382790cb346036130c7d7ff844bf8f4974\"], keccak256(bytes(\"description\"))) */\n      0xffffffffffffffffffffffffffffffffffffffff\n      and\n      0xffffffffffffffffffffffffffffffffffffffff\n      and\n      dup2\n      mstore\n      pop\n      mload(0x40)\n      dup1\n      0x20\n      add\n      0x40\n      mstore\n      dup1\n        /* \".workspaces/default_workspace/unMiracle/test.sol\":356:357  0 */\n      0x00\n        /* \".workspaces/default_workspace/unMiracle/test.sol\":331:464  abi.encode([msg.sender],[0], [\"0xec9ec573cf97ad1c270be71ac1de3b382790cb346036130c7d7ff844bf8f4974\"], keccak256(bytes(\"description\"))) */\n      0xff\n      and\n      dup2\n      mstore\n      pop\n      mload(0x40)\n      dup1\n      0x20\n      add\n      0x40\n      mstore\n      dup1\n      mload(0x40)\n      dup1\n      0x80\n      add\n      0x40\n      mstore\n      dup1\n      0x42\n      dup2\n      mstore\n      0x20\n      add\n      data_a428f9fec05421f4dc16bec28fa8b467c785cdc730e37b87e7ea236e0f5ce1fa\n      0x42\n      swap2\n      codecopy\n      dup2\n      mstore\n      pop\n        /* \".workspaces/default_workspace/unMiracle/test.sol\":442:462  bytes(\"description\") */\n      mload(0x40)\n      dup1\n      0x40\n      add\n      0x40\n      mstore\n      dup1\n      0x0b\n      dup2\n      mstore\n      0x20\n      add\n      0x6465736372697074696f6e000000000000000000000000000000000000000000\n      dup2\n      mstore\n      pop\n        /* \".workspaces/default_workspace/unMiracle/test.sol\":432:463  keccak256(bytes(\"description\")) */\n      dup1\n      mload\n      swap1\n      0x20\n      add\n      keccak256\n        /* \".workspaces/default_workspace/unMiracle/test.sol\":331:464  abi.encode([msg.sender],[0], [\"0xec9ec573cf97ad1c270be71ac1de3b382790cb346036130c7d7ff844bf8f4974\"], keccak256(bytes(\"description\"))) */\n      add(0x20, mload(0x40))\n      tag_35\n      swap5\n      swap4\n      swap3\n      swap2\n      swap1\n      tag_36\n      jump\t// in\n    tag_35:\n      mload(0x40)\n      0x20\n      dup2\n      dup4\n      sub\n      sub\n      dup2\n      mstore\n      swap1\n      0x40\n      mstore\n        /* \".workspaces/default_workspace/unMiracle/test.sol\":317:465  return string(abi.encode([msg.sender],[0], [\"0xec9ec573cf97ad1c270be71ac1de3b382790cb346036130c7d7ff844bf8f4974\"], keccak256(bytes(\"description\")))) */\n      swap1\n      pop\n        /* \".workspaces/default_workspace/unMiracle/test.sol\":192:472  function keccak256test() public returns(string memory) {... */\n      swap1\n      jump\t// out\n        /* \".workspaces/default_workspace/unMiracle/test.sol\":659:812  function snapshot() public view returns(uint64) {... */\n    tag_24:\n        /* \".workspaces/default_workspace/unMiracle/test.sol\":699:705  uint64 */\n      0x00\n        /* \".workspaces/default_workspace/unMiracle/test.sol\":717:732  uint64 snapshot */\n      dup1\n        /* \".workspaces/default_workspace/unMiracle/test.sol\":765:778  votingDelay() */\n      tag_38\n        /* \".workspaces/default_workspace/unMiracle/test.sol\":765:776  votingDelay */\n      tag_17\n        /* \".workspaces/default_workspace/unMiracle/test.sol\":765:778  votingDelay() */\n      jump\t// in\n    tag_38:\n        /* \".workspaces/default_workspace/unMiracle/test.sol\":742:754  block.number */\n      number\n        /* \".workspaces/default_workspace/unMiracle/test.sol\":735:779  uint64(block.number) + uint64(votingDelay()) */\n      tag_39\n      swap2\n      swap1\n      tag_30\n      jump\t// in\n    tag_39:\n        /* \".workspaces/default_workspace/unMiracle/test.sol\":717:779  uint64 snapshot = uint64(block.number) + uint64(votingDelay()) */\n      swap1\n      pop\n        /* \".workspaces/default_workspace/unMiracle/test.sol\":797:805  snapshot */\n      dup1\n        /* \".workspaces/default_workspace/unMiracle/test.sol\":790:805  return snapshot */\n      swap2\n      pop\n      pop\n        /* \".workspaces/default_workspace/unMiracle/test.sol\":659:812  function snapshot() public view returns(uint64) {... */\n      swap1\n      jump\t// out\n        /* \"#utility.yul\":7:186   */\n    tag_41:\n        /* \"#utility.yul\":76:86   */\n      0x00\n        /* \"#utility.yul\":97:143   */\n      tag_43\n        /* \"#utility.yul\":139:142   */\n      dup4\n        /* \"#utility.yul\":131:137   */\n      dup4\n        /* \"#utility.yul\":97:143   */\n      tag_44\n      jump\t// in\n    tag_43:\n        /* \"#utility.yul\":175:179   */\n      0x20\n        /* \"#utility.yul\":170:173   */\n      dup4\n        /* \"#utility.yul\":166:180   */\n      add\n        /* \"#utility.yul\":152:180   */\n      swap1\n      pop\n        /* \"#utility.yul\":87:186   */\n      swap3\n      swap2\n      pop\n      pop\n      jump\t// out\n        /* \"#utility.yul\":192:388   */\n    tag_45:\n        /* \"#utility.yul\":281:291   */\n      0x00\n        /* \"#utility.yul\":316:382   */\n      tag_47\n        /* \"#utility.yul\":378:381   */\n      dup4\n        /* \"#utility.yul\":370:376   */\n      dup4\n        /* \"#utility.yul\":316:382   */\n      tag_48\n      jump\t// in\n    tag_47:\n        /* \"#utility.yul\":302:382   */\n      swap1\n      pop\n        /* \"#utility.yul\":292:388   */\n      swap3\n      swap2\n      pop\n      pop\n      jump\t// out\n        /* \"#utility.yul\":394:565   */\n    tag_49:\n        /* \"#utility.yul\":459:469   */\n      0x00\n        /* \"#utility.yul\":480:522   */\n      tag_51\n        /* \"#utility.yul\":518:521   */\n      dup4\n        /* \"#utility.yul\":510:516   */\n      dup4\n        /* \"#utility.yul\":480:522   */\n      tag_52\n      jump\t// in\n    tag_51:\n        /* \"#utility.yul\":554:558   */\n      0x20\n        /* \"#utility.yul\":549:552   */\n      dup4\n        /* \"#utility.yul\":545:559   */\n      add\n        /* \"#utility.yul\":531:559   */\n      swap1\n      pop\n        /* \"#utility.yul\":470:565   */\n      swap3\n      swap2\n      pop\n      pop\n      jump\t// out\n        /* \"#utility.yul\":571:679   */\n    tag_44:\n        /* \"#utility.yul\":648:672   */\n      tag_54\n        /* \"#utility.yul\":666:671   */\n      dup2\n        /* \"#utility.yul\":648:672   */\n      tag_55\n      jump\t// in\n    tag_54:\n        /* \"#utility.yul\":643:646   */\n      dup3\n        /* \"#utility.yul\":636:673   */\n      mstore\n        /* \"#utility.yul\":626:679   */\n      pop\n      pop\n      jump\t// out\n        /* \"#utility.yul\":717:1411   */\n    tag_56:\n        /* \"#utility.yul\":853:905   */\n      tag_58\n        /* \"#utility.yul\":899:904   */\n      dup2\n        /* \"#utility.yul\":853:905   */\n      tag_59\n      jump\t// in\n    tag_58:\n        /* \"#utility.yul\":921:1005   */\n      tag_60\n        /* \"#utility.yul\":998:1004   */\n      dup2\n        /* \"#utility.yul\":993:996   */\n      dup5\n        /* \"#utility.yul\":921:1005   */\n      tag_61\n      jump\t// in\n    tag_60:\n        /* \"#utility.yul\":914:1005   */\n      swap3\n      pop\n        /* \"#utility.yul\":1029:1083   */\n      tag_62\n        /* \"#utility.yul\":1077:1082   */\n      dup3\n        /* \"#utility.yul\":1029:1083   */\n      tag_63\n      jump\t// in\n    tag_62:\n        /* \"#utility.yul\":1106:1113   */\n      dup1\n        /* \"#utility.yul\":1137:1138   */\n      0x00\n        /* \"#utility.yul\":1122:1404   */\n    tag_64:\n        /* \"#utility.yul\":1147:1153   */\n      dup4\n        /* \"#utility.yul\":1144:1145   */\n      dup2\n        /* \"#utility.yul\":1141:1154   */\n      lt\n        /* \"#utility.yul\":1122:1404   */\n      iszero\n      tag_66\n      jumpi\n        /* \"#utility.yul\":1223:1229   */\n      dup2\n        /* \"#utility.yul\":1217:1230   */\n      mload\n        /* \"#utility.yul\":1250:1313   */\n      tag_67\n        /* \"#utility.yul\":1309:1312   */\n      dup8\n        /* \"#utility.yul\":1294:1307   */\n      dup3\n        /* \"#utility.yul\":1250:1313   */\n      tag_41\n      jump\t// in\n    tag_67:\n        /* \"#utility.yul\":1243:1313   */\n      swap7\n      pop\n        /* \"#utility.yul\":1336:1394   */\n      tag_68\n        /* \"#utility.yul\":1387:1393   */\n      dup4\n        /* \"#utility.yul\":1336:1394   */\n      tag_69\n      jump\t// in\n    tag_68:\n        /* \"#utility.yul\":1326:1394   */\n      swap3\n      pop\n        /* \"#utility.yul\":1182:1404   */\n      pop\n        /* \"#utility.yul\":1169:1170   */\n      0x01\n        /* \"#utility.yul\":1166:1167   */\n      dup2\n        /* \"#utility.yul\":1162:1171   */\n      add\n        /* \"#utility.yul\":1157:1171   */\n      swap1\n      pop\n        /* \"#utility.yul\":1122:1404   */\n      jump(tag_64)\n    tag_66:\n        /* \"#utility.yul\":1126:1140   */\n      pop\n        /* \"#utility.yul\":829:1411   */\n      pop\n      pop\n      pop\n      pop\n      pop\n      jump\t// out\n        /* \"#utility.yul\":1447:2426   */\n    tag_70:\n        /* \"#utility.yul\":1582:1585   */\n      0x00\n        /* \"#utility.yul\":1611:1673   */\n      tag_72\n        /* \"#utility.yul\":1667:1672   */\n      dup3\n        /* \"#utility.yul\":1611:1673   */\n      tag_73\n      jump\t// in\n    tag_72:\n        /* \"#utility.yul\":1689:1783   */\n      tag_74\n        /* \"#utility.yul\":1776:1782   */\n      dup2\n        /* \"#utility.yul\":1771:1774   */\n      dup6\n        /* \"#utility.yul\":1689:1783   */\n      tag_75\n      jump\t// in\n    tag_74:\n        /* \"#utility.yul\":1682:1783   */\n      swap4\n      pop\n        /* \"#utility.yul\":1809:1812   */\n      dup4\n        /* \"#utility.yul\":1854:1858   */\n      0x20\n        /* \"#utility.yul\":1846:1852   */\n      dup3\n        /* \"#utility.yul\":1842:1859   */\n      mul\n        /* \"#utility.yul\":1837:1840   */\n      dup6\n        /* \"#utility.yul\":1833:1860   */\n      add\n        /* \"#utility.yul\":1884:1948   */\n      tag_76\n        /* \"#utility.yul\":1942:1947   */\n      dup6\n        /* \"#utility.yul\":1884:1948   */\n      tag_77\n      jump\t// in\n    tag_76:\n        /* \"#utility.yul\":1971:1978   */\n      dup1\n        /* \"#utility.yul\":2002:2003   */\n      0x00\n        /* \"#utility.yul\":1987:2381   */\n    tag_78:\n        /* \"#utility.yul\":2012:2018   */\n      dup6\n        /* \"#utility.yul\":2009:2010   */\n      dup2\n        /* \"#utility.yul\":2006:2019   */\n      lt\n        /* \"#utility.yul\":1987:2381   */\n      iszero\n      tag_80\n      jumpi\n        /* \"#utility.yul\":2083:2092   */\n      dup5\n        /* \"#utility.yul\":2077:2081   */\n      dup5\n        /* \"#utility.yul\":2073:2093   */\n      sub\n        /* \"#utility.yul\":2068:2071   */\n      dup10\n        /* \"#utility.yul\":2061:2094   */\n      mstore\n        /* \"#utility.yul\":2134:2140   */\n      dup2\n        /* \"#utility.yul\":2128:2141   */\n      mload\n        /* \"#utility.yul\":2162:2246   */\n      tag_81\n        /* \"#utility.yul\":2241:2245   */\n      dup6\n        /* \"#utility.yul\":2226:2239   */\n      dup3\n        /* \"#utility.yul\":2162:2246   */\n      tag_45\n      jump\t// in\n    tag_81:\n        /* \"#utility.yul\":2154:2246   */\n      swap5\n      pop\n        /* \"#utility.yul\":2269:2337   */\n      tag_82\n        /* \"#utility.yul\":2330:2336   */\n      dup4\n        /* \"#utility.yul\":2269:2337   */\n      tag_83\n      jump\t// in\n    tag_82:\n        /* \"#utility.yul\":2259:2337   */\n      swap3\n      pop\n        /* \"#utility.yul\":2366:2370   */\n      0x20\n        /* \"#utility.yul\":2361:2364   */\n      dup11\n        /* \"#utility.yul\":2357:2371   */\n      add\n        /* \"#utility.yul\":2350:2371   */\n      swap10\n      pop\n        /* \"#utility.yul\":2047:2381   */\n      pop\n        /* \"#utility.yul\":2034:2035   */\n      0x01\n        /* \"#utility.yul\":2031:2032   */\n      dup2\n        /* \"#utility.yul\":2027:2036   */\n      add\n        /* \"#utility.yul\":2022:2036   */\n      swap1\n      pop\n        /* \"#utility.yul\":1987:2381   */\n      jump(tag_78)\n    tag_80:\n        /* \"#utility.yul\":1991:2005   */\n      pop\n        /* \"#utility.yul\":2397:2401   */\n      dup3\n        /* \"#utility.yul\":2390:2401   */\n      swap8\n      pop\n        /* \"#utility.yul\":2417:2420   */\n      dup8\n        /* \"#utility.yul\":2410:2420   */\n      swap6\n      pop\n        /* \"#utility.yul\":1587:2426   */\n      pop\n      pop\n      pop\n      pop\n      pop\n      swap3\n      swap2\n      pop\n      pop\n      jump\t// out\n        /* \"#utility.yul\":2460:3138   */\n    tag_84:\n        /* \"#utility.yul\":2592:2642   */\n      tag_86\n        /* \"#utility.yul\":2636:2641   */\n      dup2\n        /* \"#utility.yul\":2592:2642   */\n      tag_87\n      jump\t// in\n    tag_86:\n        /* \"#utility.yul\":2658:2740   */\n      tag_88\n        /* \"#utility.yul\":2733:2739   */\n      dup2\n        /* \"#utility.yul\":2728:2731   */\n      dup5\n        /* \"#utility.yul\":2658:2740   */\n      tag_89\n      jump\t// in\n    tag_88:\n        /* \"#utility.yul\":2651:2740   */\n      swap3\n      pop\n        /* \"#utility.yul\":2764:2816   */\n      tag_90\n        /* \"#utility.yul\":2810:2815   */\n      dup3\n        /* \"#utility.yul\":2764:2816   */\n      tag_91\n      jump\t// in\n    tag_90:\n        /* \"#utility.yul\":2839:2846   */\n      dup1\n        /* \"#utility.yul\":2870:2871   */\n      0x00\n        /* \"#utility.yul\":2855:3131   */\n    tag_92:\n        /* \"#utility.yul\":2880:2886   */\n      dup4\n        /* \"#utility.yul\":2877:2878   */\n      dup2\n        /* \"#utility.yul\":2874:2887   */\n      lt\n        /* \"#utility.yul\":2855:3131   */\n      iszero\n      tag_94\n      jumpi\n        /* \"#utility.yul\":2956:2962   */\n      dup2\n        /* \"#utility.yul\":2950:2963   */\n      mload\n        /* \"#utility.yul\":2983:3042   */\n      tag_95\n        /* \"#utility.yul\":3038:3041   */\n      dup8\n        /* \"#utility.yul\":3023:3036   */\n      dup3\n        /* \"#utility.yul\":2983:3042   */\n      tag_49\n      jump\t// in\n    tag_95:\n        /* \"#utility.yul\":2976:3042   */\n      swap7\n      pop\n        /* \"#utility.yul\":3065:3121   */\n      tag_96\n        /* \"#utility.yul\":3114:3120   */\n      dup4\n        /* \"#utility.yul\":3065:3121   */\n      tag_97\n      jump\t// in\n    tag_96:\n        /* \"#utility.yul\":3055:3121   */\n      swap3\n      pop\n        /* \"#utility.yul\":2915:3131   */\n      pop\n        /* \"#utility.yul\":2902:2903   */\n      0x01\n        /* \"#utility.yul\":2899:2900   */\n      dup2\n        /* \"#utility.yul\":2895:2904   */\n      add\n        /* \"#utility.yul\":2890:2904   */\n      swap1\n      pop\n        /* \"#utility.yul\":2855:3131   */\n      jump(tag_92)\n    tag_94:\n        /* \"#utility.yul\":2859:2873   */\n      pop\n        /* \"#utility.yul\":2568:3138   */\n      pop\n      pop\n      pop\n      pop\n      pop\n      jump\t// out\n        /* \"#utility.yul\":3144:3262   */\n    tag_98:\n        /* \"#utility.yul\":3231:3255   */\n      tag_100\n        /* \"#utility.yul\":3249:3254   */\n      dup2\n        /* \"#utility.yul\":3231:3255   */\n      tag_101\n      jump\t// in\n    tag_100:\n        /* \"#utility.yul\":3226:3229   */\n      dup3\n        /* \"#utility.yul\":3219:3256   */\n      mstore\n        /* \"#utility.yul\":3209:3262   */\n      pop\n      pop\n      jump\t// out\n        /* \"#utility.yul\":3268:3612   */\n    tag_48:\n        /* \"#utility.yul\":3346:3349   */\n      0x00\n        /* \"#utility.yul\":3374:3413   */\n      tag_103\n        /* \"#utility.yul\":3407:3412   */\n      dup3\n        /* \"#utility.yul\":3374:3413   */\n      tag_104\n      jump\t// in\n    tag_103:\n        /* \"#utility.yul\":3429:3490   */\n      tag_105\n        /* \"#utility.yul\":3483:3489   */\n      dup2\n        /* \"#utility.yul\":3478:3481   */\n      dup6\n        /* \"#utility.yul\":3429:3490   */\n      tag_106\n      jump\t// in\n    tag_105:\n        /* \"#utility.yul\":3422:3490   */\n      swap4\n      pop\n        /* \"#utility.yul\":3499:3551   */\n      tag_107\n        /* \"#utility.yul\":3544:3550   */\n      dup2\n        /* \"#utility.yul\":3539:3542   */\n      dup6\n        /* \"#utility.yul\":3532:3536   */\n      0x20\n        /* \"#utility.yul\":3525:3530   */\n      dup7\n        /* \"#utility.yul\":3521:3537   */\n      add\n        /* \"#utility.yul\":3499:3551   */\n      tag_108\n      jump\t// in\n    tag_107:\n        /* \"#utility.yul\":3576:3605   */\n      tag_109\n        /* \"#utility.yul\":3598:3604   */\n      dup2\n        /* \"#utility.yul\":3576:3605   */\n      tag_110\n      jump\t// in\n    tag_109:\n        /* \"#utility.yul\":3571:3574   */\n      dup5\n        /* \"#utility.yul\":3567:3606   */\n      add\n        /* \"#utility.yul\":3560:3606   */\n      swap2\n      pop\n        /* \"#utility.yul\":3350:3612   */\n      pop\n      swap3\n      swap2\n      pop\n      pop\n      jump\t// out\n        /* \"#utility.yul\":3618:3982   */\n    tag_111:\n        /* \"#utility.yul\":3706:3709   */\n      0x00\n        /* \"#utility.yul\":3734:3773   */\n      tag_113\n        /* \"#utility.yul\":3767:3772   */\n      dup3\n        /* \"#utility.yul\":3734:3773   */\n      tag_104\n      jump\t// in\n    tag_113:\n        /* \"#utility.yul\":3789:3860   */\n      tag_114\n        /* \"#utility.yul\":3853:3859   */\n      dup2\n        /* \"#utility.yul\":3848:3851   */\n      dup6\n        /* \"#utility.yul\":3789:3860   */\n      tag_115\n      jump\t// in\n    tag_114:\n        /* \"#utility.yul\":3782:3860   */\n      swap4\n      pop\n        /* \"#utility.yul\":3869:3921   */\n      tag_116\n        /* \"#utility.yul\":3914:3920   */\n      dup2\n        /* \"#utility.yul\":3909:3912   */\n      dup6\n        /* \"#utility.yul\":3902:3906   */\n      0x20\n        /* \"#utility.yul\":3895:3900   */\n      dup7\n        /* \"#utility.yul\":3891:3907   */\n      add\n        /* \"#utility.yul\":3869:3921   */\n      tag_108\n      jump\t// in\n    tag_116:\n        /* \"#utility.yul\":3946:3975   */\n      tag_117\n        /* \"#utility.yul\":3968:3974   */\n      dup2\n        /* \"#utility.yul\":3946:3975   */\n      tag_110\n      jump\t// in\n    tag_117:\n        /* \"#utility.yul\":3941:3944   */\n      dup5\n        /* \"#utility.yul\":3937:3976   */\n      add\n        /* \"#utility.yul\":3930:3976   */\n      swap2\n      pop\n        /* \"#utility.yul\":3710:3982   */\n      pop\n      swap3\n      swap2\n      pop\n      pop\n      jump\t// out\n        /* \"#utility.yul\":3988:4106   */\n    tag_118:\n        /* \"#utility.yul\":4075:4099   */\n      tag_120\n        /* \"#utility.yul\":4093:4098   */\n      dup2\n        /* \"#utility.yul\":4075:4099   */\n      tag_121\n      jump\t// in\n    tag_120:\n        /* \"#utility.yul\":4070:4073   */\n      dup3\n        /* \"#utility.yul\":4063:4100   */\n      mstore\n        /* \"#utility.yul\":4053:4106   */\n      pop\n      pop\n      jump\t// out\n        /* \"#utility.yul\":4112:4227   */\n    tag_122:\n        /* \"#utility.yul\":4197:4220   */\n      tag_124\n        /* \"#utility.yul\":4214:4219   */\n      dup2\n        /* \"#utility.yul\":4197:4220   */\n      tag_125\n      jump\t// in\n    tag_124:\n        /* \"#utility.yul\":4192:4195   */\n      dup3\n        /* \"#utility.yul\":4185:4221   */\n      mstore\n        /* \"#utility.yul\":4175:4227   */\n      pop\n      pop\n      jump\t// out\n        /* \"#utility.yul\":4233:4335   */\n    tag_52:\n        /* \"#utility.yul\":4306:4328   */\n      tag_127\n        /* \"#utility.yul\":4322:4327   */\n      dup2\n        /* \"#utility.yul\":4306:4328   */\n      tag_128\n      jump\t// in\n    tag_127:\n        /* \"#utility.yul\":4301:4304   */\n      dup3\n        /* \"#utility.yul\":4294:4329   */\n      mstore\n        /* \"#utility.yul\":4284:4335   */\n      pop\n      pop\n      jump\t// out\n        /* \"#utility.yul\":4341:5253   */\n    tag_36:\n        /* \"#utility.yul\":4672:4676   */\n      0x00\n        /* \"#utility.yul\":4710:4713   */\n      0x80\n        /* \"#utility.yul\":4699:4708   */\n      dup3\n        /* \"#utility.yul\":4695:4714   */\n      add\n        /* \"#utility.yul\":4687:4714   */\n      swap1\n      pop\n        /* \"#utility.yul\":4724:4841   */\n      tag_130\n        /* \"#utility.yul\":4838:4839   */\n      0x00\n        /* \"#utility.yul\":4827:4836   */\n      dup4\n        /* \"#utility.yul\":4823:4840   */\n      add\n        /* \"#utility.yul\":4814:4820   */\n      dup8\n        /* \"#utility.yul\":4724:4841   */\n      tag_56\n      jump\t// in\n    tag_130:\n        /* \"#utility.yul\":4851:4965   */\n      tag_131\n        /* \"#utility.yul\":4961:4963   */\n      0x20\n        /* \"#utility.yul\":4950:4959   */\n      dup4\n        /* \"#utility.yul\":4946:4964   */\n      add\n        /* \"#utility.yul\":4937:4943   */\n      dup7\n        /* \"#utility.yul\":4851:4965   */\n      tag_84\n      jump\t// in\n    tag_131:\n        /* \"#utility.yul\":5012:5021   */\n      dup2\n        /* \"#utility.yul\":5006:5010   */\n      dup2\n        /* \"#utility.yul\":5002:5022   */\n      sub\n        /* \"#utility.yul\":4997:4999   */\n      0x40\n        /* \"#utility.yul\":4986:4995   */\n      dup4\n        /* \"#utility.yul\":4982:5000   */\n      add\n        /* \"#utility.yul\":4975:5023   */\n      mstore\n        /* \"#utility.yul\":5040:5164   */\n      tag_132\n        /* \"#utility.yul\":5159:5163   */\n      dup2\n        /* \"#utility.yul\":5150:5156   */\n      dup6\n        /* \"#utility.yul\":5040:5164   */\n      tag_70\n      jump\t// in\n    tag_132:\n        /* \"#utility.yul\":5032:5164   */\n      swap1\n      pop\n        /* \"#utility.yul\":5174:5246   */\n      tag_133\n        /* \"#utility.yul\":5242:5244   */\n      0x60\n        /* \"#utility.yul\":5231:5240   */\n      dup4\n        /* \"#utility.yul\":5227:5245   */\n      add\n        /* \"#utility.yul\":5218:5224   */\n      dup5\n        /* \"#utility.yul\":5174:5246   */\n      tag_98\n      jump\t// in\n    tag_133:\n        /* \"#utility.yul\":4677:5253   */\n      swap6\n      swap5\n      pop\n      pop\n      pop\n      pop\n      pop\n      jump\t// out\n        /* \"#utility.yul\":5259:5572   */\n    tag_22:\n        /* \"#utility.yul\":5372:5376   */\n      0x00\n        /* \"#utility.yul\":5410:5412   */\n      0x20\n        /* \"#utility.yul\":5399:5408   */\n      dup3\n        /* \"#utility.yul\":5395:5413   */\n      add\n        /* \"#utility.yul\":5387:5413   */\n      swap1\n      pop\n        /* \"#utility.yul\":5459:5468   */\n      dup2\n        /* \"#utility.yul\":5453:5457   */\n      dup2\n        /* \"#utility.yul\":5449:5469   */\n      sub\n        /* \"#utility.yul\":5445:5446   */\n      0x00\n        /* \"#utility.yul\":5434:5443   */\n      dup4\n        /* \"#utility.yul\":5430:5447   */\n      add\n        /* \"#utility.yul\":5423:5470   */\n      mstore\n        /* \"#utility.yul\":5487:5565   */\n      tag_135\n        /* \"#utility.yul\":5560:5564   */\n      dup2\n        /* \"#utility.yul\":5551:5557   */\n      dup5\n        /* \"#utility.yul\":5487:5565   */\n      tag_111\n      jump\t// in\n    tag_135:\n        /* \"#utility.yul\":5479:5565   */\n      swap1\n      pop\n        /* \"#utility.yul\":5377:5572   */\n      swap3\n      swap2\n      pop\n      pop\n      jump\t// out\n        /* \"#utility.yul\":5578:5800   */\n    tag_11:\n        /* \"#utility.yul\":5671:5675   */\n      0x00\n        /* \"#utility.yul\":5709:5711   */\n      0x20\n        /* \"#utility.yul\":5698:5707   */\n      dup3\n        /* \"#utility.yul\":5694:5712   */\n      add\n        /* \"#utility.yul\":5686:5712   */\n      swap1\n      pop\n        /* \"#utility.yul\":5722:5793   */\n      tag_137\n        /* \"#utility.yul\":5790:5791   */\n      0x00\n        /* \"#utility.yul\":5779:5788   */\n      dup4\n        /* \"#utility.yul\":5775:5792   */\n      add\n        /* \"#utility.yul\":5766:5772   */\n      dup5\n        /* \"#utility.yul\":5722:5793   */\n      tag_118\n      jump\t// in\n    tag_137:\n        /* \"#utility.yul\":5676:5800   */\n      swap3\n      swap2\n      pop\n      pop\n      jump\t// out\n        /* \"#utility.yul\":5806:6024   */\n    tag_15:\n        /* \"#utility.yul\":5897:5901   */\n      0x00\n        /* \"#utility.yul\":5935:5937   */\n      0x20\n        /* \"#utility.yul\":5924:5933   */\n      dup3\n        /* \"#utility.yul\":5920:5938   */\n      add\n        /* \"#utility.yul\":5912:5938   */\n      swap1\n      pop\n        /* \"#utility.yul\":5948:6017   */\n      tag_139\n        /* \"#utility.yul\":6014:6015   */\n      0x00\n        /* \"#utility.yul\":6003:6012   */\n      dup4\n        /* \"#utility.yul\":5999:6016   */\n      add\n        /* \"#utility.yul\":5990:5996   */\n      dup5\n        /* \"#utility.yul\":5948:6017   */\n      tag_122\n      jump\t// in\n    tag_139:\n        /* \"#utility.yul\":5902:6024   */\n      swap3\n      swap2\n      pop\n      pop\n      jump\t// out\n        /* \"#utility.yul\":6030:6128   */\n    tag_63:\n        /* \"#utility.yul\":6095:6099   */\n      0x00\n        /* \"#utility.yul\":6118:6121   */\n      dup2\n        /* \"#utility.yul\":6110:6121   */\n      swap1\n      pop\n        /* \"#utility.yul\":6100:6128   */\n      swap2\n      swap1\n      pop\n      jump\t// out\n        /* \"#utility.yul\":6134:6242   */\n    tag_77:\n        /* \"#utility.yul\":6209:6213   */\n      0x00\n        /* \"#utility.yul\":6232:6235   */\n      dup2\n        /* \"#utility.yul\":6224:6235   */\n      swap1\n      pop\n        /* \"#utility.yul\":6214:6242   */\n      swap2\n      swap1\n      pop\n      jump\t// out\n        /* \"#utility.yul\":6248:6344   */\n    tag_91:\n        /* \"#utility.yul\":6311:6315   */\n      0x00\n        /* \"#utility.yul\":6334:6337   */\n      dup2\n        /* \"#utility.yul\":6326:6337   */\n      swap1\n      pop\n        /* \"#utility.yul\":6316:6344   */\n      swap2\n      swap1\n      pop\n      jump\t// out\n        /* \"#utility.yul\":6350:6454   */\n    tag_59:\n        /* \"#utility.yul\":6415:6421   */\n      0x00\n        /* \"#utility.yul\":6443:6447   */\n      0x01\n        /* \"#utility.yul\":6433:6447   */\n      swap1\n      pop\n        /* \"#utility.yul\":6422:6454   */\n      swap2\n      swap1\n      pop\n      jump\t// out\n        /* \"#utility.yul\":6460:6574   */\n    tag_73:\n        /* \"#utility.yul\":6535:6541   */\n      0x00\n        /* \"#utility.yul\":6563:6567   */\n      0x01\n        /* \"#utility.yul\":6553:6567   */\n      swap1\n      pop\n        /* \"#utility.yul\":6542:6574   */\n      swap2\n      swap1\n      pop\n      jump\t// out\n        /* \"#utility.yul\":6580:6682   */\n    tag_87:\n        /* \"#utility.yul\":6643:6649   */\n      0x00\n        /* \"#utility.yul\":6671:6675   */\n      0x01\n        /* \"#utility.yul\":6661:6675   */\n      swap1\n      pop\n        /* \"#utility.yul\":6650:6682   */\n      swap2\n      swap1\n      pop\n      jump\t// out\n        /* \"#utility.yul\":6688:6787   */\n    tag_104:\n        /* \"#utility.yul\":6740:6746   */\n      0x00\n        /* \"#utility.yul\":6774:6779   */\n      dup2\n        /* \"#utility.yul\":6768:6780   */\n      mload\n        /* \"#utility.yul\":6758:6780   */\n      swap1\n      pop\n        /* \"#utility.yul\":6747:6787   */\n      swap2\n      swap1\n      pop\n      jump\t// out\n        /* \"#utility.yul\":6793:6904   */\n    tag_69:\n        /* \"#utility.yul\":6861:6865   */\n      0x00\n        /* \"#utility.yul\":6893:6897   */\n      0x20\n        /* \"#utility.yul\":6888:6891   */\n      dup3\n        /* \"#utility.yul\":6884:6898   */\n      add\n        /* \"#utility.yul\":6876:6898   */\n      swap1\n      pop\n        /* \"#utility.yul\":6866:6904   */\n      swap2\n      swap1\n      pop\n      jump\t// out\n        /* \"#utility.yul\":6910:7031   */\n    tag_83:\n        /* \"#utility.yul\":6988:6992   */\n      0x00\n        /* \"#utility.yul\":7020:7024   */\n      0x20\n        /* \"#utility.yul\":7015:7018   */\n      dup3\n        /* \"#utility.yul\":7011:7025   */\n      add\n        /* \"#utility.yul\":7003:7025   */\n      swap1\n      pop\n        /* \"#utility.yul\":6993:7031   */\n      swap2\n      swap1\n      pop\n      jump\t// out\n        /* \"#utility.yul\":7037:7146   */\n    tag_97:\n        /* \"#utility.yul\":7103:7107   */\n      0x00\n        /* \"#utility.yul\":7135:7139   */\n      0x20\n        /* \"#utility.yul\":7130:7133   */\n      dup3\n        /* \"#utility.yul\":7126:7140   */\n      add\n        /* \"#utility.yul\":7118:7140   */\n      swap1\n      pop\n        /* \"#utility.yul\":7108:7146   */\n      swap2\n      swap1\n      pop\n      jump\t// out\n        /* \"#utility.yul\":7152:7295   */\n    tag_61:\n        /* \"#utility.yul\":7249:7260   */\n      0x00\n        /* \"#utility.yul\":7286:7289   */\n      dup2\n        /* \"#utility.yul\":7271:7289   */\n      swap1\n      pop\n        /* \"#utility.yul\":7261:7295   */\n      swap3\n      swap2\n      pop\n      pop\n      jump\t// out\n        /* \"#utility.yul\":7301:7454   */\n    tag_75:\n        /* \"#utility.yul\":7408:7419   */\n      0x00\n        /* \"#utility.yul\":7445:7448   */\n      dup2\n        /* \"#utility.yul\":7430:7448   */\n      swap1\n      pop\n        /* \"#utility.yul\":7420:7454   */\n      swap3\n      swap2\n      pop\n      pop\n      jump\t// out\n        /* \"#utility.yul\":7460:7601   */\n    tag_89:\n        /* \"#utility.yul\":7555:7566   */\n      0x00\n        /* \"#utility.yul\":7592:7595   */\n      dup2\n        /* \"#utility.yul\":7577:7595   */\n      swap1\n      pop\n        /* \"#utility.yul\":7567:7601   */\n      swap3\n      swap2\n      pop\n      pop\n      jump\t// out\n        /* \"#utility.yul\":7607:7766   */\n    tag_106:\n        /* \"#utility.yul\":7681:7692   */\n      0x00\n        /* \"#utility.yul\":7715:7721   */\n      dup3\n        /* \"#utility.yul\":7710:7713   */\n      dup3\n        /* \"#utility.yul\":7703:7722   */\n      mstore\n        /* \"#utility.yul\":7755:7759   */\n      0x20\n        /* \"#utility.yul\":7750:7753   */\n      dup3\n        /* \"#utility.yul\":7746:7760   */\n      add\n        /* \"#utility.yul\":7731:7760   */\n      swap1\n      pop\n        /* \"#utility.yul\":7693:7766   */\n      swap3\n      swap2\n      pop\n      pop\n      jump\t// out\n        /* \"#utility.yul\":7772:7941   */\n    tag_115:\n        /* \"#utility.yul\":7856:7867   */\n      0x00\n        /* \"#utility.yul\":7890:7896   */\n      dup3\n        /* \"#utility.yul\":7885:7888   */\n      dup3\n        /* \"#utility.yul\":7878:7897   */\n      mstore\n        /* \"#utility.yul\":7930:7934   */\n      0x20\n        /* \"#utility.yul\":7925:7928   */\n      dup3\n        /* \"#utility.yul\":7921:7935   */\n      add\n        /* \"#utility.yul\":7906:7935   */\n      swap1\n      pop\n        /* \"#utility.yul\":7868:7941   */\n      swap3\n      swap2\n      pop\n      pop\n      jump\t// out\n        /* \"#utility.yul\":7947:8201   */\n    tag_30:\n        /* \"#utility.yul\":7986:7989   */\n      0x00\n        /* \"#utility.yul\":8005:8024   */\n      tag_156\n        /* \"#utility.yul\":8022:8023   */\n      dup3\n        /* \"#utility.yul\":8005:8024   */\n      tag_125\n      jump\t// in\n    tag_156:\n        /* \"#utility.yul\":8000:8024   */\n      swap2\n      pop\n        /* \"#utility.yul\":8038:8057   */\n      tag_157\n        /* \"#utility.yul\":8055:8056   */\n      dup4\n        /* \"#utility.yul\":8038:8057   */\n      tag_125\n      jump\t// in\n    tag_157:\n        /* \"#utility.yul\":8033:8057   */\n      swap3\n      pop\n        /* \"#utility.yul\":8143:8144   */\n      dup3\n        /* \"#utility.yul\":8123:8141   */\n      0xffffffffffffffff\n        /* \"#utility.yul\":8119:8145   */\n      sub\n        /* \"#utility.yul\":8116:8117   */\n      dup3\n        /* \"#utility.yul\":8113:8146   */\n      gt\n        /* \"#utility.yul\":8110:8112   */\n      iszero\n      tag_158\n      jumpi\n        /* \"#utility.yul\":8149:8167   */\n      tag_159\n      tag_160\n      jump\t// in\n    tag_159:\n        /* \"#utility.yul\":8110:8112   */\n    tag_158:\n        /* \"#utility.yul\":8193:8194   */\n      dup3\n        /* \"#utility.yul\":8190:8191   */\n      dup3\n        /* \"#utility.yul\":8186:8195   */\n      add\n        /* \"#utility.yul\":8179:8195   */\n      swap1\n      pop\n        /* \"#utility.yul\":7990:8201   */\n      swap3\n      swap2\n      pop\n      pop\n      jump\t// out\n        /* \"#utility.yul\":8207:8303   */\n    tag_55:\n        /* \"#utility.yul\":8244:8251   */\n      0x00\n        /* \"#utility.yul\":8273:8297   */\n      tag_162\n        /* \"#utility.yul\":8291:8296   */\n      dup3\n        /* \"#utility.yul\":8273:8297   */\n      tag_163\n      jump\t// in\n    tag_162:\n        /* \"#utility.yul\":8262:8297   */\n      swap1\n      pop\n        /* \"#utility.yul\":8252:8303   */\n      swap2\n      swap1\n      pop\n      jump\t// out\n        /* \"#utility.yul\":8309:8386   */\n    tag_101:\n        /* \"#utility.yul\":8346:8353   */\n      0x00\n        /* \"#utility.yul\":8375:8380   */\n      dup2\n        /* \"#utility.yul\":8364:8380   */\n      swap1\n      pop\n        /* \"#utility.yul\":8354:8386   */\n      swap2\n      swap1\n      pop\n      jump\t// out\n        /* \"#utility.yul\":8392:8518   */\n    tag_163:\n        /* \"#utility.yul\":8429:8436   */\n      0x00\n        /* \"#utility.yul\":8469:8511   */\n      0xffffffffffffffffffffffffffffffffffffffff\n        /* \"#utility.yul\":8462:8467   */\n      dup3\n        /* \"#utility.yul\":8458:8512   */\n      and\n        /* \"#utility.yul\":8447:8512   */\n      swap1\n      pop\n        /* \"#utility.yul\":8437:8518   */\n      swap2\n      swap1\n      pop\n      jump\t// out\n        /* \"#utility.yul\":8524:8601   */\n    tag_121:\n        /* \"#utility.yul\":8561:8568   */\n      0x00\n        /* \"#utility.yul\":8590:8595   */\n      dup2\n        /* \"#utility.yul\":8579:8595   */\n      swap1\n      pop\n        /* \"#utility.yul\":8569:8601   */\n      swap2\n      swap1\n      pop\n      jump\t// out\n        /* \"#utility.yul\":8607:8708   */\n    tag_125:\n        /* \"#utility.yul\":8643:8650   */\n      0x00\n        /* \"#utility.yul\":8683:8701   */\n      0xffffffffffffffff\n        /* \"#utility.yul\":8676:8681   */\n      dup3\n        /* \"#utility.yul\":8672:8702   */\n      and\n        /* \"#utility.yul\":8661:8702   */\n      swap1\n      pop\n        /* \"#utility.yul\":8651:8708   */\n      swap2\n      swap1\n      pop\n      jump\t// out\n        /* \"#utility.yul\":8714:8800   */\n    tag_128:\n        /* \"#utility.yul\":8749:8756   */\n      0x00\n        /* \"#utility.yul\":8789:8793   */\n      0xff\n        /* \"#utility.yul\":8782:8787   */\n      dup3\n        /* \"#utility.yul\":8778:8794   */\n      and\n        /* \"#utility.yul\":8767:8794   */\n      swap1\n      pop\n        /* \"#utility.yul\":8757:8800   */\n      swap2\n      swap1\n      pop\n      jump\t// out\n        /* \"#utility.yul\":8806:9113   */\n    tag_108:\n        /* \"#utility.yul\":8874:8875   */\n      0x00\n        /* \"#utility.yul\":8884:8997   */\n    tag_170:\n        /* \"#utility.yul\":8898:8904   */\n      dup4\n        /* \"#utility.yul\":8895:8896   */\n      dup2\n        /* \"#utility.yul\":8892:8905   */\n      lt\n        /* \"#utility.yul\":8884:8997   */\n      iszero\n      tag_172\n      jumpi\n        /* \"#utility.yul\":8983:8984   */\n      dup1\n        /* \"#utility.yul\":8978:8981   */\n      dup3\n        /* \"#utility.yul\":8974:8985   */\n      add\n        /* \"#utility.yul\":8968:8986   */\n      mload\n        /* \"#utility.yul\":8964:8965   */\n      dup2\n        /* \"#utility.yul\":8959:8962   */\n      dup5\n        /* \"#utility.yul\":8955:8966   */\n      add\n        /* \"#utility.yul\":8948:8987   */\n      mstore\n        /* \"#utility.yul\":8920:8922   */\n      0x20\n        /* \"#utility.yul\":8917:8918   */\n      dup2\n        /* \"#utility.yul\":8913:8923   */\n      add\n        /* \"#utility.yul\":8908:8923   */\n      swap1\n      pop\n        /* \"#utility.yul\":8884:8997   */\n      jump(tag_170)\n    tag_172:\n        /* \"#utility.yul\":9015:9021   */\n      dup4\n        /* \"#utility.yul\":9012:9013   */\n      dup2\n        /* \"#utility.yul\":9009:9022   */\n      gt\n        /* \"#utility.yul\":9006:9008   */\n      iszero\n      tag_173\n      jumpi\n        /* \"#utility.yul\":9095:9096   */\n      0x00\n        /* \"#utility.yul\":9086:9092   */\n      dup5\n        /* \"#utility.yul\":9081:9084   */\n      dup5\n        /* \"#utility.yul\":9077:9093   */\n      add\n        /* \"#utility.yul\":9070:9097   */\n      mstore\n        /* \"#utility.yul\":9006:9008   */\n    tag_173:\n        /* \"#utility.yul\":8855:9113   */\n      pop\n      pop\n      pop\n      pop\n      jump\t// out\n        /* \"#utility.yul\":9119:9299   */\n    tag_160:\n        /* \"#utility.yul\":9167:9244   */\n      0x4e487b7100000000000000000000000000000000000000000000000000000000\n        /* \"#utility.yul\":9164:9165   */\n      0x00\n        /* \"#utility.yul\":9157:9245   */\n      mstore\n        /* \"#utility.yul\":9264:9268   */\n      0x11\n        /* \"#utility.yul\":9261:9262   */\n      0x04\n        /* \"#utility.yul\":9254:9269   */\n      mstore\n        /* \"#utility.yul\":9288:9292   */\n      0x24\n        /* \"#utility.yul\":9285:9286   */\n      0x00\n        /* \"#utility.yul\":9278:9293   */\n      revert\n        /* \"#utility.yul\":9305:9407   */\n    tag_110:\n        /* \"#utility.yul\":9346:9352   */\n      0x00\n        /* \"#utility.yul\":9397:9399   */\n      0x1f\n        /* \"#utility.yul\":9393:9400   */\n      not\n        /* \"#utility.yul\":9388:9390   */\n      0x1f\n        /* \"#utility.yul\":9381:9386   */\n      dup4\n        /* \"#utility.yul\":9377:9391   */\n      add\n        /* \"#utility.yul\":9373:9401   */\n      and\n        /* \"#utility.yul\":9363:9401   */\n      swap1\n      pop\n        /* \"#utility.yul\":9353:9407   */\n      swap2\n      swap1\n      pop\n      jump\t// out\n    stop\n    data_a428f9fec05421f4dc16bec28fa8b467c785cdc730e37b87e7ea236e0f5ce1fa 307865633965633537336366393761643163323730626537316163316465336233383237393063623334363033363133306337643766663834346266386634393734\n\n    auxdata: 0xa26469706673582212201e20444b3eb5a4dd23e8f80acf1689dd44ce9f83edb6bff023f239facb5babc464736f6c63430008040033\n}\n",
				"bytecode": {
					"linkReferences": {},
					"object": "608060405234801561001057600080fd5b50610742806100206000396000f3fe608060405234801561001057600080fd5b50600436106100575760003560e01c806302a251a31461005c57806329dcb0cf1461007a5780633932abb1146100985780638c492a76146100b65780639711715a146100d4575b600080fd5b6100646100f2565b60405161007191906104c8565b60405180910390f35b6100826100fc565b60405161008f91906104e3565b60405180910390f35b6100a0610133565b6040516100ad91906104c8565b60405180910390f35b6100be61013c565b6040516100cb91906104a6565b60405180910390f35b6100dc610217565b6040516100e991906104e3565b60405180910390f35b600061b2fa905090565b600080610107610133565b4361011291906105b2565b9050600061011e6100f2565b8261012991906105b2565b9050809250505090565b60006001905090565b606060405180602001604052803373ffffffffffffffffffffffffffffffffffffffff1673ffffffffffffffffffffffffffffffffffffffff168152506040518060200160405280600060ff1681525060405180602001604052806040518060800160405280604281526020016106cb604291398152506040518060400160405280600b81526020017f6465736372697074696f6e00000000000000000000000000000000000000000081525080519060200120604051602001610203949392919061045a565b604051602081830303815290604052905090565b600080610222610133565b4361022d91906105b2565b90508091505090565b6000610242838361027a565b60208301905092915050565b600061025a83836103bb565b905092915050565b600061026e838361044b565b60208301905092915050565b610283816105f0565b82525050565b6102928161051c565b61029c818461056f565b92506102a7826104fe565b8060005b838110156102d85781516102bf8782610236565b96506102ca83610548565b9250506001810190506102ab565b505050505050565b60006102eb82610527565b6102f5818561057a565b93508360208202850161030785610508565b8060005b858110156103435784840389528151610324858261024e565b945061032f83610555565b925060208a0199505060018101905061030b565b50829750879550505050505092915050565b61035e81610532565b6103688184610585565b925061037382610512565b8060005b838110156103a457815161038b8782610262565b965061039683610562565b925050600181019050610377565b505050505050565b6103b581610602565b82525050565b60006103c68261053d565b6103d08185610590565b93506103e0818560208601610657565b6103e9816106b9565b840191505092915050565b60006103ff8261053d565b61040981856105a1565b9350610419818560208601610657565b610422816106b9565b840191505092915050565b6104368161062c565b82525050565b61044581610636565b82525050565b6104548161064a565b82525050565b600060808201905061046f6000830187610289565b61047c6020830186610355565b818103604083015261048e81856102e0565b905061049d60608301846103ac565b95945050505050565b600060208201905081810360008301526104c081846103f4565b905092915050565b60006020820190506104dd600083018461042d565b92915050565b60006020820190506104f8600083018461043c565b92915050565b6000819050919050565b6000819050919050565b6000819050919050565b600060019050919050565b600060019050919050565b600060019050919050565b600081519050919050565b6000602082019050919050565b6000602082019050919050565b6000602082019050919050565b600081905092915050565b600081905092915050565b600081905092915050565b600082825260208201905092915050565b600082825260208201905092915050565b60006105bd82610636565b91506105c883610636565b92508267ffffffffffffffff038211156105e5576105e461068a565b5b828201905092915050565b60006105fb8261060c565b9050919050565b6000819050919050565b600073ffffffffffffffffffffffffffffffffffffffff82169050919050565b6000819050919050565b600067ffffffffffffffff82169050919050565b600060ff82169050919050565b60005b8381101561067557808201518184015260208101905061065a565b83811115610684576000848401525b50505050565b7f4e487b7100000000000000000000000000000000000000000000000000000000600052601160045260246000fd5b6000601f19601f830116905091905056fe307865633965633537336366393761643163323730626537316163316465336233383237393063623334363033363133306337643766663834346266386634393734a26469706673582212201e20444b3eb5a4dd23e8f80acf1689dd44ce9f83edb6bff023f239facb5babc464736f6c63430008040033",
					"opcodes": "PUSH1 0x80 PUSH1 0x40 MSTORE CALLVALUE DUP1 ISZERO PUSH2 0x10 JUMPI PUSH1 0x0 DUP1 REVERT JUMPDEST POP PUSH2 0x742 DUP1 PUSH2 0x20 PUSH1 0x0 CODECOPY PUSH1 0x0 RETURN INVALID PUSH1 0x80 PUSH1 0x40 MSTORE CALLVALUE DUP1 ISZERO PUSH2 0x10 JUMPI PUSH1 0x0 DUP1 REVERT JUMPDEST POP PUSH1 0x4 CALLDATASIZE LT PUSH2 0x57 JUMPI PUSH1 0x0 CALLDATALOAD PUSH1 0xE0 SHR DUP1 PUSH4 0x2A251A3 EQ PUSH2 0x5C JUMPI DUP1 PUSH4 0x29DCB0CF EQ PUSH2 0x7A JUMPI DUP1 PUSH4 0x3932ABB1 EQ PUSH2 0x98 JUMPI DUP1 PUSH4 0x8C492A76 EQ PUSH2 0xB6 JUMPI DUP1 PUSH4 0x9711715A EQ PUSH2 0xD4 JUMPI JUMPDEST PUSH1 0x0 DUP1 REVERT JUMPDEST PUSH2 0x64 PUSH2 0xF2 JUMP JUMPDEST PUSH1 0x40 MLOAD PUSH2 0x71 SWAP2 SWAP1 PUSH2 0x4C8 JUMP JUMPDEST PUSH1 0x40 MLOAD DUP1 SWAP2 SUB SWAP1 RETURN JUMPDEST PUSH2 0x82 PUSH2 0xFC JUMP JUMPDEST PUSH1 0x40 MLOAD PUSH2 0x8F SWAP2 SWAP1 PUSH2 0x4E3 JUMP JUMPDEST PUSH1 0x40 MLOAD DUP1 SWAP2 SUB SWAP1 RETURN JUMPDEST PUSH2 0xA0 PUSH2 0x133 JUMP JUMPDEST PUSH1 0x40 MLOAD PUSH2 0xAD SWAP2 SWAP1 PUSH2 0x4C8 JUMP JUMPDEST PUSH1 0x40 MLOAD DUP1 SWAP2 SUB SWAP1 RETURN JUMPDEST PUSH2 0xBE PUSH2 0x13C JUMP JUMPDEST PUSH1 0x40 MLOAD PUSH2 0xCB SWAP2 SWAP1 PUSH2 0x4A6 JUMP JUMPDEST PUSH1 0x40 MLOAD DUP1 SWAP2 SUB SWAP1 RETURN JUMPDEST PUSH2 0xDC PUSH2 0x217 JUMP JUMPDEST PUSH1 0x40 MLOAD PUSH2 0xE9 SWAP2 SWAP1 PUSH2 0x4E3 JUMP JUMPDEST PUSH1 0x40 MLOAD DUP1 SWAP2 SUB SWAP1 RETURN JUMPDEST PUSH1 0x0 PUSH2 0xB2FA SWAP1 POP SWAP1 JUMP JUMPDEST PUSH1 0x0 DUP1 PUSH2 0x107 PUSH2 0x133 JUMP JUMPDEST NUMBER PUSH2 0x112 SWAP2 SWAP1 PUSH2 0x5B2 JUMP JUMPDEST SWAP1 POP PUSH1 0x0 PUSH2 0x11E PUSH2 0xF2 JUMP JUMPDEST DUP3 PUSH2 0x129 SWAP2 SWAP1 PUSH2 0x5B2 JUMP JUMPDEST SWAP1 POP DUP1 SWAP3 POP POP POP SWAP1 JUMP JUMPDEST PUSH1 0x0 PUSH1 0x1 SWAP1 POP SWAP1 JUMP JUMPDEST PUSH1 0x60 PUSH1 0x40 MLOAD DUP1 PUSH1 0x20 ADD PUSH1 0x40 MSTORE DUP1 CALLER PUSH20 0xFFFFFFFFFFFFFFFFFFFFFFFFFFFFFFFFFFFFFFFF AND PUSH20 0xFFFFFFFFFFFFFFFFFFFFFFFFFFFFFFFFFFFFFFFF AND DUP2 MSTORE POP PUSH1 0x40 MLOAD DUP1 PUSH1 0x20 ADD PUSH1 0x40 MSTORE DUP1 PUSH1 0x0 PUSH1 0xFF AND DUP2 MSTORE POP PUSH1 0x40 MLOAD DUP1 PUSH1 0x20 ADD PUSH1 0x40 MSTORE DUP1 PUSH1 0x40 MLOAD DUP1 PUSH1 0x80 ADD PUSH1 0x40 MSTORE DUP1 PUSH1 0x42 DUP2 MSTORE PUSH1 0x20 ADD PUSH2 0x6CB PUSH1 0x42 SWAP2 CODECOPY DUP2 MSTORE POP PUSH1 0x40 MLOAD DUP1 PUSH1 0x40 ADD PUSH1 0x40 MSTORE DUP1 PUSH1 0xB DUP2 MSTORE PUSH1 0x20 ADD PUSH32 0x6465736372697074696F6E000000000000000000000000000000000000000000 DUP2 MSTORE POP DUP1 MLOAD SWAP1 PUSH1 0x20 ADD KECCAK256 PUSH1 0x40 MLOAD PUSH1 0x20 ADD PUSH2 0x203 SWAP5 SWAP4 SWAP3 SWAP2 SWAP1 PUSH2 0x45A JUMP JUMPDEST PUSH1 0x40 MLOAD PUSH1 0x20 DUP2 DUP4 SUB SUB DUP2 MSTORE SWAP1 PUSH1 0x40 MSTORE SWAP1 POP SWAP1 JUMP JUMPDEST PUSH1 0x0 DUP1 PUSH2 0x222 PUSH2 0x133 JUMP JUMPDEST NUMBER PUSH2 0x22D SWAP2 SWAP1 PUSH2 0x5B2 JUMP JUMPDEST SWAP1 POP DUP1 SWAP2 POP POP SWAP1 JUMP JUMPDEST PUSH1 0x0 PUSH2 0x242 DUP4 DUP4 PUSH2 0x27A JUMP JUMPDEST PUSH1 0x20 DUP4 ADD SWAP1 POP SWAP3 SWAP2 POP POP JUMP JUMPDEST PUSH1 0x0 PUSH2 0x25A DUP4 DUP4 PUSH2 0x3BB JUMP JUMPDEST SWAP1 POP SWAP3 SWAP2 POP POP JUMP JUMPDEST PUSH1 0x0 PUSH2 0x26E DUP4 DUP4 PUSH2 0x44B JUMP JUMPDEST PUSH1 0x20 DUP4 ADD SWAP1 POP SWAP3 SWAP2 POP POP JUMP JUMPDEST PUSH2 0x283 DUP2 PUSH2 0x5F0 JUMP JUMPDEST DUP3 MSTORE POP POP JUMP JUMPDEST PUSH2 0x292 DUP2 PUSH2 0x51C JUMP JUMPDEST PUSH2 0x29C DUP2 DUP5 PUSH2 0x56F JUMP JUMPDEST SWAP3 POP PUSH2 0x2A7 DUP3 PUSH2 0x4FE JUMP JUMPDEST DUP1 PUSH1 0x0 JUMPDEST DUP4 DUP2 LT ISZERO PUSH2 0x2D8 JUMPI DUP2 MLOAD PUSH2 0x2BF DUP8 DUP3 PUSH2 0x236 JUMP JUMPDEST SWAP7 POP PUSH2 0x2CA DUP4 PUSH2 0x548 JUMP JUMPDEST SWAP3 POP POP PUSH1 0x1 DUP2 ADD SWAP1 POP PUSH2 0x2AB JUMP JUMPDEST POP POP POP POP POP POP JUMP JUMPDEST PUSH1 0x0 PUSH2 0x2EB DUP3 PUSH2 0x527 JUMP JUMPDEST PUSH2 0x2F5 DUP2 DUP6 PUSH2 0x57A JUMP JUMPDEST SWAP4 POP DUP4 PUSH1 0x20 DUP3 MUL DUP6 ADD PUSH2 0x307 DUP6 PUSH2 0x508 JUMP JUMPDEST DUP1 PUSH1 0x0 JUMPDEST DUP6 DUP2 LT ISZERO PUSH2 0x343 JUMPI DUP5 DUP5 SUB DUP10 MSTORE DUP2 MLOAD PUSH2 0x324 DUP6 DUP3 PUSH2 0x24E JUMP JUMPDEST SWAP5 POP PUSH2 0x32F DUP4 PUSH2 0x555 JUMP JUMPDEST SWAP3 POP PUSH1 0x20 DUP11 ADD SWAP10 POP POP PUSH1 0x1 DUP2 ADD SWAP1 POP PUSH2 0x30B JUMP JUMPDEST POP DUP3 SWAP8 POP DUP8 SWAP6 POP POP POP POP POP POP SWAP3 SWAP2 POP POP JUMP JUMPDEST PUSH2 0x35E DUP2 PUSH2 0x532 JUMP JUMPDEST PUSH2 0x368 DUP2 DUP5 PUSH2 0x585 JUMP JUMPDEST SWAP3 POP PUSH2 0x373 DUP3 PUSH2 0x512 JUMP JUMPDEST DUP1 PUSH1 0x0 JUMPDEST DUP4 DUP2 LT ISZERO PUSH2 0x3A4 JUMPI DUP2 MLOAD PUSH2 0x38B DUP8 DUP3 PUSH2 0x262 JUMP JUMPDEST SWAP7 POP PUSH2 0x396 DUP4 PUSH2 0x562 JUMP JUMPDEST SWAP3 POP POP PUSH1 0x1 DUP2 ADD SWAP1 POP PUSH2 0x377 JUMP JUMPDEST POP POP POP POP POP POP JUMP JUMPDEST PUSH2 0x3B5 DUP2 PUSH2 0x602 JUMP JUMPDEST DUP3 MSTORE POP POP JUMP JUMPDEST PUSH1 0x0 PUSH2 0x3C6 DUP3 PUSH2 0x53D JUMP JUMPDEST PUSH2 0x3D0 DUP2 DUP6 PUSH2 0x590 JUMP JUMPDEST SWAP4 POP PUSH2 0x3E0 DUP2 DUP6 PUSH1 0x20 DUP7 ADD PUSH2 0x657 JUMP JUMPDEST PUSH2 0x3E9 DUP2 PUSH2 0x6B9 JUMP JUMPDEST DUP5 ADD SWAP2 POP POP SWAP3 SWAP2 POP POP JUMP JUMPDEST PUSH1 0x0 PUSH2 0x3FF DUP3 PUSH2 0x53D JUMP JUMPDEST PUSH2 0x409 DUP2 DUP6 PUSH2 0x5A1 JUMP JUMPDEST SWAP4 POP PUSH2 0x419 DUP2 DUP6 PUSH1 0x20 DUP7 ADD PUSH2 0x657 JUMP JUMPDEST PUSH2 0x422 DUP2 PUSH2 0x6B9 JUMP JUMPDEST DUP5 ADD SWAP2 POP POP SWAP3 SWAP2 POP POP JUMP JUMPDEST PUSH2 0x436 DUP2 PUSH2 0x62C JUMP JUMPDEST DUP3 MSTORE POP POP JUMP JUMPDEST PUSH2 0x445 DUP2 PUSH2 0x636 JUMP JUMPDEST DUP3 MSTORE POP POP JUMP JUMPDEST PUSH2 0x454 DUP2 PUSH2 0x64A JUMP JUMPDEST DUP3 MSTORE POP POP JUMP JUMPDEST PUSH1 0x0 PUSH1 0x80 DUP3 ADD SWAP1 POP PUSH2 0x46F PUSH1 0x0 DUP4 ADD DUP8 PUSH2 0x289 JUMP JUMPDEST PUSH2 0x47C PUSH1 0x20 DUP4 ADD DUP7 PUSH2 0x355 JUMP JUMPDEST DUP2 DUP2 SUB PUSH1 0x40 DUP4 ADD MSTORE PUSH2 0x48E DUP2 DUP6 PUSH2 0x2E0 JUMP JUMPDEST SWAP1 POP PUSH2 0x49D PUSH1 0x60 DUP4 ADD DUP5 PUSH2 0x3AC JUMP JUMPDEST SWAP6 SWAP5 POP POP POP POP POP JUMP JUMPDEST PUSH1 0x0 PUSH1 0x20 DUP3 ADD SWAP1 POP DUP2 DUP2 SUB PUSH1 0x0 DUP4 ADD MSTORE PUSH2 0x4C0 DUP2 DUP5 PUSH2 0x3F4 JUMP JUMPDEST SWAP1 POP SWAP3 SWAP2 POP POP JUMP JUMPDEST PUSH1 0x0 PUSH1 0x20 DUP3 ADD SWAP1 POP PUSH2 0x4DD PUSH1 0x0 DUP4 ADD DUP5 PUSH2 0x42D JUMP JUMPDEST SWAP3 SWAP2 POP POP JUMP JUMPDEST PUSH1 0x0 PUSH1 0x20 DUP3 ADD SWAP1 POP PUSH2 0x4F8 PUSH1 0x0 DUP4 ADD DUP5 PUSH2 0x43C JUMP JUMPDEST SWAP3 SWAP2 POP POP JUMP JUMPDEST PUSH1 0x0 DUP2 SWAP1 POP SWAP2 SWAP1 POP JUMP JUMPDEST PUSH1 0x0 DUP2 SWAP1 POP SWAP2 SWAP1 POP JUMP JUMPDEST PUSH1 0x0 DUP2 SWAP1 POP SWAP2 SWAP1 POP JUMP JUMPDEST PUSH1 0x0 PUSH1 0x1 SWAP1 POP SWAP2 SWAP1 POP JUMP JUMPDEST PUSH1 0x0 PUSH1 0x1 SWAP1 POP SWAP2 SWAP1 POP JUMP JUMPDEST PUSH1 0x0 PUSH1 0x1 SWAP1 POP SWAP2 SWAP1 POP JUMP JUMPDEST PUSH1 0x0 DUP2 MLOAD SWAP1 POP SWAP2 SWAP1 POP JUMP JUMPDEST PUSH1 0x0 PUSH1 0x20 DUP3 ADD SWAP1 POP SWAP2 SWAP1 POP JUMP JUMPDEST PUSH1 0x0 PUSH1 0x20 DUP3 ADD SWAP1 POP SWAP2 SWAP1 POP JUMP JUMPDEST PUSH1 0x0 PUSH1 0x20 DUP3 ADD SWAP1 POP SWAP2 SWAP1 POP JUMP JUMPDEST PUSH1 0x0 DUP2 SWAP1 POP SWAP3 SWAP2 POP POP JUMP JUMPDEST PUSH1 0x0 DUP2 SWAP1 POP SWAP3 SWAP2 POP POP JUMP JUMPDEST PUSH1 0x0 DUP2 SWAP1 POP SWAP3 SWAP2 POP POP JUMP JUMPDEST PUSH1 0x0 DUP3 DUP3 MSTORE PUSH1 0x20 DUP3 ADD SWAP1 POP SWAP3 SWAP2 POP POP JUMP JUMPDEST PUSH1 0x0 DUP3 DUP3 MSTORE PUSH1 0x20 DUP3 ADD SWAP1 POP SWAP3 SWAP2 POP POP JUMP JUMPDEST PUSH1 0x0 PUSH2 0x5BD DUP3 PUSH2 0x636 JUMP JUMPDEST SWAP2 POP PUSH2 0x5C8 DUP4 PUSH2 0x636 JUMP JUMPDEST SWAP3 POP DUP3 PUSH8 0xFFFFFFFFFFFFFFFF SUB DUP3 GT ISZERO PUSH2 0x5E5 JUMPI PUSH2 0x5E4 PUSH2 0x68A JUMP JUMPDEST JUMPDEST DUP3 DUP3 ADD SWAP1 POP SWAP3 SWAP2 POP POP JUMP JUMPDEST PUSH1 0x0 PUSH2 0x5FB DUP3 PUSH2 0x60C JUMP JUMPDEST SWAP1 POP SWAP2 SWAP1 POP JUMP JUMPDEST PUSH1 0x0 DUP2 SWAP1 POP SWAP2 SWAP1 POP JUMP JUMPDEST PUSH1 0x0 PUSH20 0xFFFFFFFFFFFFFFFFFFFFFFFFFFFFFFFFFFFFFFFF DUP3 AND SWAP1 POP SWAP2 SWAP1 POP JUMP JUMPDEST PUSH1 0x0 DUP2 SWAP1 POP SWAP2 SWAP1 POP JUMP JUMPDEST PUSH1 0x0 PUSH8 0xFFFFFFFFFFFFFFFF DUP3 AND SWAP1 POP SWAP2 SWAP1 POP JUMP JUMPDEST PUSH1 0x0 PUSH1 0xFF DUP3 AND SWAP1 POP SWAP2 SWAP1 POP JUMP JUMPDEST PUSH1 0x0 JUMPDEST DUP4 DUP2 LT ISZERO PUSH2 0x675 JUMPI DUP1 DUP3 ADD MLOAD DUP2 DUP5 ADD MSTORE PUSH1 0x20 DUP2 ADD SWAP1 POP PUSH2 0x65A JUMP JUMPDEST DUP4 DUP2 GT ISZERO PUSH2 0x684 JUMPI PUSH1 0x0 DUP5 DUP5 ADD MSTORE JUMPDEST POP POP POP POP JUMP JUMPDEST PUSH32 0x4E487B7100000000000000000000000000000000000000000000000000000000 PUSH1 0x0 MSTORE PUSH1 0x11 PUSH1 0x4 MSTORE PUSH1 0x24 PUSH1 0x0 REVERT JUMPDEST PUSH1 0x0 PUSH1 0x1F NOT PUSH1 0x1F DUP4 ADD AND SWAP1 POP SWAP2 SWAP1 POP JUMP INVALID ADDRESS PUSH25 0x65633965633537336366393761643163323730626537316163 BALANCE PUSH5 0x6533623338 ORIGIN CALLDATACOPY CODECOPY ADDRESS PUSH4 0x62333436 ADDRESS CALLER CALLDATASIZE BALANCE CALLER ADDRESS PUSH4 0x37643766 PUSH7 0x38343462663866 CALLVALUE CODECOPY CALLDATACOPY CALLVALUE LOG2 PUSH5 0x6970667358 0x22 SLT KECCAK256 0x1E KECCAK256 DIFFICULTY 0x4B RETURNDATACOPY 0xB5 LOG4 0xDD 0x23 0xE8 0xF8 EXP 0xCF AND DUP10 0xDD DIFFICULTY 0xCE SWAP16 DUP4 0xED 0xB6 0xBF CREATE 0x23 CALLCODE CODECOPY STATICCALL 0xCB JUMPDEST 0xAB 0xC4 PUSH5 0x736F6C6343 STOP ADDMOD DIV STOP CALLER "
				},
				"gasEstimates": {
					"creation": {
						"codeDepositCost": "371600",
						"executionCost": "411",
						"totalCost": "372011"
					},
					"external": {
						"deadline()": "infinite",
						"keccak256test()": "infinite",
						"snapshot()": "infinite",
						"votingDelay()": "359",
						"votingPeriod()": "315"
					}
				},
				"methodIdentifiers": {
					"deadline()": "29dcb0cf",
					"keccak256test()": "8c492a76",
					"snapshot()": "9711715a",
					"votingDelay()": "3932abb1",
					"votingPeriod()": "02a251a3"
				}
			},
			"storageLayout": {
				"storage": [],
				"types": null
			},
			"userdoc": {
				"kind": "user",
				"methods": {},
				"version": 1
			}
		}
	}
}