{
	".workspaces/default_workspace/unMiracle/test.sol": {
		"test": {
			"abi": [
				{
					"inputs": [
						{
							"internalType": "bytes",
							"name": "data",
							"type": "bytes"
						}
					],
					"name": "abiDecode",
					"outputs": [
						{
							"internalType": "string",
							"name": "_str1",
							"type": "string"
						},
						{
							"internalType": "uint256",
							"name": "_number",
							"type": "uint256"
						},
						{
							"internalType": "string",
							"name": "_str2",
							"type": "string"
						}
					],
					"stateMutability": "nonpayable",
					"type": "function"
				},
				{
					"inputs": [],
					"name": "abiEncode",
					"outputs": [
						{
							"internalType": "bytes",
							"name": "",
							"type": "bytes"
						}
					],
					"stateMutability": "nonpayable",
					"type": "function"
				},
				{
					"inputs": [],
					"name": "deadline",
					"outputs": [
						{
							"internalType": "uint64",
							"name": "",
							"type": "uint64"
						}
					],
					"stateMutability": "view",
					"type": "function"
				},
				{
					"inputs": [],
					"name": "keccak256test",
					"outputs": [
						{
							"internalType": "bytes",
							"name": "",
							"type": "bytes"
						}
					],
					"stateMutability": "nonpayable",
					"type": "function"
				},
				{
					"inputs": [],
					"name": "snapshot",
					"outputs": [
						{
							"internalType": "uint64",
							"name": "",
							"type": "uint64"
						}
					],
					"stateMutability": "view",
					"type": "function"
				},
				{
					"inputs": [],
					"name": "votingDelay",
					"outputs": [
						{
							"internalType": "uint256",
							"name": "",
							"type": "uint256"
						}
					],
					"stateMutability": "pure",
					"type": "function"
				},
				{
					"inputs": [],
					"name": "votingPeriod",
					"outputs": [
						{
							"internalType": "uint256",
							"name": "",
							"type": "uint256"
						}
					],
					"stateMutability": "pure",
					"type": "function"
				}
			],
			"devdoc": {
				"kind": "dev",
				"methods": {},
				"version": 1
			},
			"evm": {
				"assembly": "    /* \".workspaces/default_workspace/unMiracle/test.sol\":170:1331  contract test {... */\n  mstore(0x40, 0x80)\n  callvalue\n  dup1\n  iszero\n  tag_1\n  jumpi\n  0x00\n  dup1\n  revert\ntag_1:\n  pop\n  dataSize(sub_0)\n  dup1\n  dataOffset(sub_0)\n  0x00\n  codecopy\n  0x00\n  return\nstop\n\nsub_0: assembly {\n        /* \".workspaces/default_workspace/unMiracle/test.sol\":170:1331  contract test {... */\n      mstore(0x40, 0x80)\n      callvalue\n      dup1\n      iszero\n      tag_1\n      jumpi\n      0x00\n      dup1\n      revert\n    tag_1:\n      pop\n      jumpi(tag_2, lt(calldatasize, 0x04))\n      shr(0xe0, calldataload(0x00))\n      dup1\n      0x416bdc52\n      gt\n      tag_10\n      jumpi\n      dup1\n      0x416bdc52\n      eq\n      tag_6\n      jumpi\n      dup1\n      0x6097e7a3\n      eq\n      tag_7\n      jumpi\n      dup1\n      0x8c492a76\n      eq\n      tag_8\n      jumpi\n      dup1\n      0x9711715a\n      eq\n      tag_9\n      jumpi\n      jump(tag_2)\n    tag_10:\n      dup1\n      0x02a251a3\n      eq\n      tag_3\n      jumpi\n      dup1\n      0x29dcb0cf\n      eq\n      tag_4\n      jumpi\n      dup1\n      0x3932abb1\n      eq\n      tag_5\n      jumpi\n    tag_2:\n      0x00\n      dup1\n      revert\n        /* \".workspaces/default_workspace/unMiracle/test.sol\":859:950  function votingPeriod() public pure returns(uint256) {... */\n    tag_3:\n      tag_11\n      tag_12\n      jump\t// in\n    tag_11:\n      mload(0x40)\n      tag_13\n      swap2\n      swap1\n      tag_14\n      jump\t// in\n    tag_13:\n      mload(0x40)\n      dup1\n      swap2\n      sub\n      swap1\n      return\n        /* \".workspaces/default_workspace/unMiracle/test.sol\":1115:1329  function deadline() public view returns(uint64) {... */\n    tag_4:\n      tag_15\n      tag_16\n      jump\t// in\n    tag_15:\n      mload(0x40)\n      tag_17\n      swap2\n      swap1\n      tag_18\n      jump\t// in\n    tag_17:\n      mload(0x40)\n      dup1\n      swap2\n      sub\n      swap1\n      return\n        /* \".workspaces/default_workspace/unMiracle/test.sol\":776:853  function votingDelay() public pure returns(uint256) {... */\n    tag_5:\n      tag_19\n      tag_20\n      jump\t// in\n    tag_19:\n      mload(0x40)\n      tag_21\n      swap2\n      swap1\n      tag_14\n      jump\t// in\n    tag_21:\n      mload(0x40)\n      dup1\n      swap2\n      sub\n      swap1\n      return\n        /* \".workspaces/default_workspace/unMiracle/test.sol\":565:769  function abiDecode(bytes memory data) public returns(string memory _str1, uint _number, string memory _str2) {... */\n    tag_6:\n      tag_22\n      0x04\n      dup1\n      calldatasize\n      sub\n      dup2\n      add\n      swap1\n      tag_23\n      swap2\n      swap1\n      tag_24\n      jump\t// in\n    tag_23:\n      tag_25\n      jump\t// in\n    tag_22:\n      mload(0x40)\n      tag_26\n      swap4\n      swap3\n      swap2\n      swap1\n      tag_27\n      jump\t// in\n    tag_26:\n      mload(0x40)\n      dup1\n      swap2\n      sub\n      swap1\n      return\n        /* \".workspaces/default_workspace/unMiracle/test.sol\":462:560  function abiEncode() public returns(bytes memory) {... */\n    tag_7:\n      tag_28\n      tag_29\n      jump\t// in\n    tag_28:\n      mload(0x40)\n      tag_30\n      swap2\n      swap1\n      tag_31\n      jump\t// in\n    tag_30:\n      mload(0x40)\n      dup1\n      swap2\n      sub\n      swap1\n      return\n        /* \".workspaces/default_workspace/unMiracle/test.sol\":192:456  function keccak256test() public returns(bytes memory) {... */\n    tag_8:\n      tag_32\n      tag_33\n      jump\t// in\n    tag_32:\n      mload(0x40)\n      tag_34\n      swap2\n      swap1\n      tag_31\n      jump\t// in\n    tag_34:\n      mload(0x40)\n      dup1\n      swap2\n      sub\n      swap1\n      return\n        /* \".workspaces/default_workspace/unMiracle/test.sol\":956:1109  function snapshot() public view returns(uint64) {... */\n    tag_9:\n      tag_35\n      tag_36\n      jump\t// in\n    tag_35:\n      mload(0x40)\n      tag_37\n      swap2\n      swap1\n      tag_18\n      jump\t// in\n    tag_37:\n      mload(0x40)\n      dup1\n      swap2\n      sub\n      swap1\n      return\n        /* \".workspaces/default_workspace/unMiracle/test.sol\":859:950  function votingPeriod() public pure returns(uint256) {... */\n    tag_12:\n        /* \".workspaces/default_workspace/unMiracle/test.sol\":903:910  uint256 */\n      0x00\n        /* \".workspaces/default_workspace/unMiracle/test.sol\":929:934  45818 */\n      0xb2fa\n        /* \".workspaces/default_workspace/unMiracle/test.sol\":922:934  return 45818 */\n      swap1\n      pop\n        /* \".workspaces/default_workspace/unMiracle/test.sol\":859:950  function votingPeriod() public pure returns(uint256) {... */\n      swap1\n      jump\t// out\n        /* \".workspaces/default_workspace/unMiracle/test.sol\":1115:1329  function deadline() public view returns(uint64) {... */\n    tag_16:\n        /* \".workspaces/default_workspace/unMiracle/test.sol\":1155:1161  uint64 */\n      0x00\n        /* \".workspaces/default_workspace/unMiracle/test.sol\":1173:1188  uint64 snapshot */\n      dup1\n        /* \".workspaces/default_workspace/unMiracle/test.sol\":1221:1234  votingDelay() */\n      tag_40\n        /* \".workspaces/default_workspace/unMiracle/test.sol\":1221:1232  votingDelay */\n      tag_20\n        /* \".workspaces/default_workspace/unMiracle/test.sol\":1221:1234  votingDelay() */\n      jump\t// in\n    tag_40:\n        /* \".workspaces/default_workspace/unMiracle/test.sol\":1198:1210  block.number */\n      number\n        /* \".workspaces/default_workspace/unMiracle/test.sol\":1191:1235  uint64(block.number) + uint64(votingDelay()) */\n      tag_41\n      swap2\n      swap1\n      tag_42\n      jump\t// in\n    tag_41:\n        /* \".workspaces/default_workspace/unMiracle/test.sol\":1173:1235  uint64 snapshot = uint64(block.number) + uint64(votingDelay()) */\n      swap1\n      pop\n        /* \".workspaces/default_workspace/unMiracle/test.sol\":1245:1260  uint64 deadline */\n      0x00\n        /* \".workspaces/default_workspace/unMiracle/test.sol\":1281:1295  votingPeriod() */\n      tag_43\n        /* \".workspaces/default_workspace/unMiracle/test.sol\":1281:1293  votingPeriod */\n      tag_12\n        /* \".workspaces/default_workspace/unMiracle/test.sol\":1281:1295  votingPeriod() */\n      jump\t// in\n    tag_43:\n        /* \".workspaces/default_workspace/unMiracle/test.sol\":1263:1271  snapshot */\n      dup3\n        /* \".workspaces/default_workspace/unMiracle/test.sol\":1263:1296  snapshot + uint64(votingPeriod()) */\n      tag_44\n      swap2\n      swap1\n      tag_42\n      jump\t// in\n    tag_44:\n        /* \".workspaces/default_workspace/unMiracle/test.sol\":1245:1296  uint64 deadline = snapshot + uint64(votingPeriod()) */\n      swap1\n      pop\n        /* \".workspaces/default_workspace/unMiracle/test.sol\":1314:1322  deadline */\n      dup1\n        /* \".workspaces/default_workspace/unMiracle/test.sol\":1307:1322  return deadline */\n      swap3\n      pop\n      pop\n      pop\n        /* \".workspaces/default_workspace/unMiracle/test.sol\":1115:1329  function deadline() public view returns(uint64) {... */\n      swap1\n      jump\t// out\n        /* \".workspaces/default_workspace/unMiracle/test.sol\":776:853  function votingDelay() public pure returns(uint256) {... */\n    tag_20:\n        /* \".workspaces/default_workspace/unMiracle/test.sol\":819:826  uint256 */\n      0x00\n        /* \".workspaces/default_workspace/unMiracle/test.sol\":845:846  1 */\n      0x01\n        /* \".workspaces/default_workspace/unMiracle/test.sol\":838:846  return 1 */\n      swap1\n      pop\n        /* \".workspaces/default_workspace/unMiracle/test.sol\":776:853  function votingDelay() public pure returns(uint256) {... */\n      swap1\n      jump\t// out\n        /* \".workspaces/default_workspace/unMiracle/test.sol\":565:769  function abiDecode(bytes memory data) public returns(string memory _str1, uint _number, string memory _str2) {... */\n    tag_25:\n        /* \".workspaces/default_workspace/unMiracle/test.sol\":618:637  string memory _str1 */\n      0x60\n        /* \".workspaces/default_workspace/unMiracle/test.sol\":639:651  uint _number */\n      0x00\n        /* \".workspaces/default_workspace/unMiracle/test.sol\":653:672  string memory _str2 */\n      0x60\n        /* \".workspaces/default_workspace/unMiracle/test.sol\":721:725  data */\n      dup4\n        /* \".workspaces/default_workspace/unMiracle/test.sol\":710:750  abi.decode(data, (string, uint, string)) */\n      dup1\n      0x20\n      add\n      swap1\n      mload\n      dup2\n      add\n      swap1\n      tag_47\n      swap2\n      swap1\n      tag_48\n      jump\t// in\n    tag_47:\n        /* \".workspaces/default_workspace/unMiracle/test.sol\":684:750  (_str1, _number, _str2) = abi.decode(data, (string, uint, string)) */\n      dup1\n      swap4\n      pop\n      dup2\n      swap5\n      pop\n      dup3\n      swap6\n      pop\n      pop\n      pop\n      pop\n        /* \".workspaces/default_workspace/unMiracle/test.sol\":565:769  function abiDecode(bytes memory data) public returns(string memory _str1, uint _number, string memory _str2) {... */\n      swap2\n      swap4\n      swap1\n      swap3\n      pop\n      jump\t// out\n        /* \".workspaces/default_workspace/unMiracle/test.sol\":462:560  function abiEncode() public returns(bytes memory) {... */\n    tag_29:\n        /* \".workspaces/default_workspace/unMiracle/test.sol\":498:510  bytes memory */\n      0x60\n        /* \".workspaces/default_workspace/unMiracle/test.sol\":540:541  1 */\n      0x01\n        /* \".workspaces/default_workspace/unMiracle/test.sol\":542:547  45804 */\n      0xb2ec\n        /* \".workspaces/default_workspace/unMiracle/test.sol\":548:552  5000 */\n      0x1388\n        /* \".workspaces/default_workspace/unMiracle/test.sol\":529:553  abi.encode(1,45804,5000) */\n      add(0x20, mload(0x40))\n      tag_50\n      swap4\n      swap3\n      swap2\n      swap1\n      tag_51\n      jump\t// in\n    tag_50:\n      mload(0x40)\n      0x20\n      dup2\n      dup4\n      sub\n      sub\n      dup2\n      mstore\n      swap1\n      0x40\n      mstore\n        /* \".workspaces/default_workspace/unMiracle/test.sol\":522:553  return abi.encode(1,45804,5000) */\n      swap1\n      pop\n        /* \".workspaces/default_workspace/unMiracle/test.sol\":462:560  function abiEncode() public returns(bytes memory) {... */\n      swap1\n      jump\t// out\n        /* \".workspaces/default_workspace/unMiracle/test.sol\":192:456  function keccak256test() public returns(bytes memory) {... */\n    tag_33:\n        /* \".workspaces/default_workspace/unMiracle/test.sol\":232:244  bytes memory */\n      0x60\n        /* \".workspaces/default_workspace/unMiracle/test.sol\":436:437  1 */\n      0x01\n        /* \".workspaces/default_workspace/unMiracle/test.sol\":438:443  45804 */\n      0xb2ec\n        /* \".workspaces/default_workspace/unMiracle/test.sol\":444:448  5000 */\n      0x1388\n        /* \".workspaces/default_workspace/unMiracle/test.sol\":425:449  abi.encode(1,45804,5000) */\n      add(0x20, mload(0x40))\n      tag_53\n      swap4\n      swap3\n      swap2\n      swap1\n      tag_51\n      jump\t// in\n    tag_53:\n      mload(0x40)\n      0x20\n      dup2\n      dup4\n      sub\n      sub\n      dup2\n      mstore\n      swap1\n      0x40\n      mstore\n        /* \".workspaces/default_workspace/unMiracle/test.sol\":417:449  return  abi.encode(1,45804,5000) */\n      swap1\n      pop\n        /* \".workspaces/default_workspace/unMiracle/test.sol\":192:456  function keccak256test() public returns(bytes memory) {... */\n      swap1\n      jump\t// out\n        /* \".workspaces/default_workspace/unMiracle/test.sol\":956:1109  function snapshot() public view returns(uint64) {... */\n    tag_36:\n        /* \".workspaces/default_workspace/unMiracle/test.sol\":996:1002  uint64 */\n      0x00\n        /* \".workspaces/default_workspace/unMiracle/test.sol\":1014:1029  uint64 snapshot */\n      dup1\n        /* \".workspaces/default_workspace/unMiracle/test.sol\":1062:1075  votingDelay() */\n      tag_55\n        /* \".workspaces/default_workspace/unMiracle/test.sol\":1062:1073  votingDelay */\n      tag_20\n        /* \".workspaces/default_workspace/unMiracle/test.sol\":1062:1075  votingDelay() */\n      jump\t// in\n    tag_55:\n        /* \".workspaces/default_workspace/unMiracle/test.sol\":1039:1051  block.number */\n      number\n        /* \".workspaces/default_workspace/unMiracle/test.sol\":1032:1076  uint64(block.number) + uint64(votingDelay()) */\n      tag_56\n      swap2\n      swap1\n      tag_42\n      jump\t// in\n    tag_56:\n        /* \".workspaces/default_workspace/unMiracle/test.sol\":1014:1076  uint64 snapshot = uint64(block.number) + uint64(votingDelay()) */\n      swap1\n      pop\n        /* \".workspaces/default_workspace/unMiracle/test.sol\":1094:1102  snapshot */\n      dup1\n        /* \".workspaces/default_workspace/unMiracle/test.sol\":1087:1102  return snapshot */\n      swap2\n      pop\n      pop\n        /* \".workspaces/default_workspace/unMiracle/test.sol\":956:1109  function snapshot() public view returns(uint64) {... */\n      swap1\n      jump\t// out\n        /* \"#utility.yul\":7:350   */\n    tag_58:\n        /* \"#utility.yul\":84:89   */\n      0x00\n        /* \"#utility.yul\":109:174   */\n      tag_60\n        /* \"#utility.yul\":125:173   */\n      tag_61\n        /* \"#utility.yul\":166:172   */\n      dup5\n        /* \"#utility.yul\":125:173   */\n      tag_62\n      jump\t// in\n    tag_61:\n        /* \"#utility.yul\":109:174   */\n      tag_63\n      jump\t// in\n    tag_60:\n        /* \"#utility.yul\":100:174   */\n      swap1\n      pop\n        /* \"#utility.yul\":197:203   */\n      dup3\n        /* \"#utility.yul\":190:195   */\n      dup2\n        /* \"#utility.yul\":183:204   */\n      mstore\n        /* \"#utility.yul\":235:239   */\n      0x20\n        /* \"#utility.yul\":228:233   */\n      dup2\n        /* \"#utility.yul\":224:240   */\n      add\n        /* \"#utility.yul\":273:276   */\n      dup5\n        /* \"#utility.yul\":264:270   */\n      dup5\n        /* \"#utility.yul\":259:262   */\n      dup5\n        /* \"#utility.yul\":255:271   */\n      add\n        /* \"#utility.yul\":252:277   */\n      gt\n        /* \"#utility.yul\":249:251   */\n      iszero\n      tag_64\n      jumpi\n        /* \"#utility.yul\":290:291   */\n      0x00\n        /* \"#utility.yul\":287:288   */\n      dup1\n        /* \"#utility.yul\":280:292   */\n      revert\n        /* \"#utility.yul\":249:251   */\n    tag_64:\n        /* \"#utility.yul\":303:344   */\n      tag_65\n        /* \"#utility.yul\":337:343   */\n      dup5\n        /* \"#utility.yul\":332:335   */\n      dup3\n        /* \"#utility.yul\":327:330   */\n      dup6\n        /* \"#utility.yul\":303:344   */\n      tag_66\n      jump\t// in\n    tag_65:\n        /* \"#utility.yul\":90:350   */\n      pop\n      swap4\n      swap3\n      pop\n      pop\n      pop\n      jump\t// out\n        /* \"#utility.yul\":356:710   */\n    tag_67:\n        /* \"#utility.yul\":445:450   */\n      0x00\n        /* \"#utility.yul\":470:536   */\n      tag_69\n        /* \"#utility.yul\":486:535   */\n      tag_70\n        /* \"#utility.yul\":528:534   */\n      dup5\n        /* \"#utility.yul\":486:535   */\n      tag_71\n      jump\t// in\n    tag_70:\n        /* \"#utility.yul\":470:536   */\n      tag_63\n      jump\t// in\n    tag_69:\n        /* \"#utility.yul\":461:536   */\n      swap1\n      pop\n        /* \"#utility.yul\":559:565   */\n      dup3\n        /* \"#utility.yul\":552:557   */\n      dup2\n        /* \"#utility.yul\":545:566   */\n      mstore\n        /* \"#utility.yul\":597:601   */\n      0x20\n        /* \"#utility.yul\":590:595   */\n      dup2\n        /* \"#utility.yul\":586:602   */\n      add\n        /* \"#utility.yul\":635:638   */\n      dup5\n        /* \"#utility.yul\":626:632   */\n      dup5\n        /* \"#utility.yul\":621:624   */\n      dup5\n        /* \"#utility.yul\":617:633   */\n      add\n        /* \"#utility.yul\":614:639   */\n      gt\n        /* \"#utility.yul\":611:613   */\n      iszero\n      tag_72\n      jumpi\n        /* \"#utility.yul\":652:653   */\n      0x00\n        /* \"#utility.yul\":649:650   */\n      dup1\n        /* \"#utility.yul\":642:654   */\n      revert\n        /* \"#utility.yul\":611:613   */\n    tag_72:\n        /* \"#utility.yul\":665:704   */\n      tag_73\n        /* \"#utility.yul\":697:703   */\n      dup5\n        /* \"#utility.yul\":692:695   */\n      dup3\n        /* \"#utility.yul\":687:690   */\n      dup6\n        /* \"#utility.yul\":665:704   */\n      tag_74\n      jump\t// in\n    tag_73:\n        /* \"#utility.yul\":451:710   */\n      pop\n      swap4\n      swap3\n      pop\n      pop\n      pop\n      jump\t// out\n        /* \"#utility.yul\":729:1000   */\n    tag_75:\n        /* \"#utility.yul\":784:789   */\n      0x00\n        /* \"#utility.yul\":833:836   */\n      dup3\n        /* \"#utility.yul\":826:830   */\n      0x1f\n        /* \"#utility.yul\":818:824   */\n      dup4\n        /* \"#utility.yul\":814:831   */\n      add\n        /* \"#utility.yul\":810:837   */\n      slt\n        /* \"#utility.yul\":800:802   */\n      tag_77\n      jumpi\n        /* \"#utility.yul\":851:852   */\n      0x00\n        /* \"#utility.yul\":848:849   */\n      dup1\n        /* \"#utility.yul\":841:853   */\n      revert\n        /* \"#utility.yul\":800:802   */\n    tag_77:\n        /* \"#utility.yul\":891:897   */\n      dup2\n        /* \"#utility.yul\":878:898   */\n      calldataload\n        /* \"#utility.yul\":916:994   */\n      tag_78\n        /* \"#utility.yul\":990:993   */\n      dup5\n        /* \"#utility.yul\":982:988   */\n      dup3\n        /* \"#utility.yul\":975:979   */\n      0x20\n        /* \"#utility.yul\":967:973   */\n      dup7\n        /* \"#utility.yul\":963:980   */\n      add\n        /* \"#utility.yul\":916:994   */\n      tag_58\n      jump\t// in\n    tag_78:\n        /* \"#utility.yul\":907:994   */\n      swap2\n      pop\n        /* \"#utility.yul\":790:1000   */\n      pop\n      swap3\n      swap2\n      pop\n      pop\n      jump\t// out\n        /* \"#utility.yul\":1020:1308   */\n    tag_79:\n        /* \"#utility.yul\":1087:1092   */\n      0x00\n        /* \"#utility.yul\":1136:1139   */\n      dup3\n        /* \"#utility.yul\":1129:1133   */\n      0x1f\n        /* \"#utility.yul\":1121:1127   */\n      dup4\n        /* \"#utility.yul\":1117:1134   */\n      add\n        /* \"#utility.yul\":1113:1140   */\n      slt\n        /* \"#utility.yul\":1103:1105   */\n      tag_81\n      jumpi\n        /* \"#utility.yul\":1154:1155   */\n      0x00\n        /* \"#utility.yul\":1151:1152   */\n      dup1\n        /* \"#utility.yul\":1144:1156   */\n      revert\n        /* \"#utility.yul\":1103:1105   */\n    tag_81:\n        /* \"#utility.yul\":1187:1193   */\n      dup2\n        /* \"#utility.yul\":1181:1194   */\n      mload\n        /* \"#utility.yul\":1212:1302   */\n      tag_82\n        /* \"#utility.yul\":1298:1301   */\n      dup5\n        /* \"#utility.yul\":1290:1296   */\n      dup3\n        /* \"#utility.yul\":1283:1287   */\n      0x20\n        /* \"#utility.yul\":1275:1281   */\n      dup7\n        /* \"#utility.yul\":1271:1288   */\n      add\n        /* \"#utility.yul\":1212:1302   */\n      tag_67\n      jump\t// in\n    tag_82:\n        /* \"#utility.yul\":1203:1302   */\n      swap2\n      pop\n        /* \"#utility.yul\":1093:1308   */\n      pop\n      swap3\n      swap2\n      pop\n      pop\n      jump\t// out\n        /* \"#utility.yul\":1314:1457   */\n    tag_83:\n        /* \"#utility.yul\":1371:1376   */\n      0x00\n        /* \"#utility.yul\":1402:1408   */\n      dup2\n        /* \"#utility.yul\":1396:1409   */\n      mload\n        /* \"#utility.yul\":1387:1409   */\n      swap1\n      pop\n        /* \"#utility.yul\":1418:1451   */\n      tag_85\n        /* \"#utility.yul\":1445:1450   */\n      dup2\n        /* \"#utility.yul\":1418:1451   */\n      tag_86\n      jump\t// in\n    tag_85:\n        /* \"#utility.yul\":1377:1457   */\n      swap3\n      swap2\n      pop\n      pop\n      jump\t// out\n        /* \"#utility.yul\":1463:1836   */\n    tag_24:\n        /* \"#utility.yul\":1531:1537   */\n      0x00\n        /* \"#utility.yul\":1580:1582   */\n      0x20\n        /* \"#utility.yul\":1568:1577   */\n      dup3\n        /* \"#utility.yul\":1559:1566   */\n      dup5\n        /* \"#utility.yul\":1555:1578   */\n      sub\n        /* \"#utility.yul\":1551:1583   */\n      slt\n        /* \"#utility.yul\":1548:1550   */\n      iszero\n      tag_88\n      jumpi\n        /* \"#utility.yul\":1596:1597   */\n      0x00\n        /* \"#utility.yul\":1593:1594   */\n      dup1\n        /* \"#utility.yul\":1586:1598   */\n      revert\n        /* \"#utility.yul\":1548:1550   */\n    tag_88:\n        /* \"#utility.yul\":1667:1668   */\n      0x00\n        /* \"#utility.yul\":1656:1665   */\n      dup3\n        /* \"#utility.yul\":1652:1669   */\n      add\n        /* \"#utility.yul\":1639:1670   */\n      calldataload\n        /* \"#utility.yul\":1697:1715   */\n      0xffffffffffffffff\n        /* \"#utility.yul\":1689:1695   */\n      dup2\n        /* \"#utility.yul\":1686:1716   */\n      gt\n        /* \"#utility.yul\":1683:1685   */\n      iszero\n      tag_89\n      jumpi\n        /* \"#utility.yul\":1729:1730   */\n      0x00\n        /* \"#utility.yul\":1726:1727   */\n      dup1\n        /* \"#utility.yul\":1719:1731   */\n      revert\n        /* \"#utility.yul\":1683:1685   */\n    tag_89:\n        /* \"#utility.yul\":1757:1819   */\n      tag_90\n        /* \"#utility.yul\":1811:1818   */\n      dup5\n        /* \"#utility.yul\":1802:1808   */\n      dup3\n        /* \"#utility.yul\":1791:1800   */\n      dup6\n        /* \"#utility.yul\":1787:1809   */\n      add\n        /* \"#utility.yul\":1757:1819   */\n      tag_75\n      jump\t// in\n    tag_90:\n        /* \"#utility.yul\":1747:1819   */\n      swap2\n      pop\n        /* \"#utility.yul\":1610:1829   */\n      pop\n        /* \"#utility.yul\":1538:1836   */\n      swap3\n      swap2\n      pop\n      pop\n      jump\t// out\n        /* \"#utility.yul\":1842:2650   */\n    tag_48:\n        /* \"#utility.yul\":1950:1956   */\n      0x00\n        /* \"#utility.yul\":1958:1964   */\n      dup1\n        /* \"#utility.yul\":1966:1972   */\n      0x00\n        /* \"#utility.yul\":2015:2017   */\n      0x60\n        /* \"#utility.yul\":2003:2012   */\n      dup5\n        /* \"#utility.yul\":1994:2001   */\n      dup7\n        /* \"#utility.yul\":1990:2013   */\n      sub\n        /* \"#utility.yul\":1986:2018   */\n      slt\n        /* \"#utility.yul\":1983:1985   */\n      iszero\n      tag_92\n      jumpi\n        /* \"#utility.yul\":2031:2032   */\n      0x00\n        /* \"#utility.yul\":2028:2029   */\n      dup1\n        /* \"#utility.yul\":2021:2033   */\n      revert\n        /* \"#utility.yul\":1983:1985   */\n    tag_92:\n        /* \"#utility.yul\":2095:2096   */\n      0x00\n        /* \"#utility.yul\":2084:2093   */\n      dup5\n        /* \"#utility.yul\":2080:2097   */\n      add\n        /* \"#utility.yul\":2074:2098   */\n      mload\n        /* \"#utility.yul\":2125:2143   */\n      0xffffffffffffffff\n        /* \"#utility.yul\":2117:2123   */\n      dup2\n        /* \"#utility.yul\":2114:2144   */\n      gt\n        /* \"#utility.yul\":2111:2113   */\n      iszero\n      tag_93\n      jumpi\n        /* \"#utility.yul\":2157:2158   */\n      0x00\n        /* \"#utility.yul\":2154:2155   */\n      dup1\n        /* \"#utility.yul\":2147:2159   */\n      revert\n        /* \"#utility.yul\":2111:2113   */\n    tag_93:\n        /* \"#utility.yul\":2185:2259   */\n      tag_94\n        /* \"#utility.yul\":2251:2258   */\n      dup7\n        /* \"#utility.yul\":2242:2248   */\n      dup3\n        /* \"#utility.yul\":2231:2240   */\n      dup8\n        /* \"#utility.yul\":2227:2249   */\n      add\n        /* \"#utility.yul\":2185:2259   */\n      tag_79\n      jump\t// in\n    tag_94:\n        /* \"#utility.yul\":2175:2259   */\n      swap4\n      pop\n        /* \"#utility.yul\":2045:2269   */\n      pop\n        /* \"#utility.yul\":2308:2310   */\n      0x20\n        /* \"#utility.yul\":2334:2398   */\n      tag_95\n        /* \"#utility.yul\":2390:2397   */\n      dup7\n        /* \"#utility.yul\":2381:2387   */\n      dup3\n        /* \"#utility.yul\":2370:2379   */\n      dup8\n        /* \"#utility.yul\":2366:2388   */\n      add\n        /* \"#utility.yul\":2334:2398   */\n      tag_83\n      jump\t// in\n    tag_95:\n        /* \"#utility.yul\":2324:2398   */\n      swap3\n      pop\n        /* \"#utility.yul\":2279:2408   */\n      pop\n        /* \"#utility.yul\":2468:2470   */\n      0x40\n        /* \"#utility.yul\":2457:2466   */\n      dup5\n        /* \"#utility.yul\":2453:2471   */\n      add\n        /* \"#utility.yul\":2447:2472   */\n      mload\n        /* \"#utility.yul\":2499:2517   */\n      0xffffffffffffffff\n        /* \"#utility.yul\":2491:2497   */\n      dup2\n        /* \"#utility.yul\":2488:2518   */\n      gt\n        /* \"#utility.yul\":2485:2487   */\n      iszero\n      tag_96\n      jumpi\n        /* \"#utility.yul\":2531:2532   */\n      0x00\n        /* \"#utility.yul\":2528:2529   */\n      dup1\n        /* \"#utility.yul\":2521:2533   */\n      revert\n        /* \"#utility.yul\":2485:2487   */\n    tag_96:\n        /* \"#utility.yul\":2559:2633   */\n      tag_97\n        /* \"#utility.yul\":2625:2632   */\n      dup7\n        /* \"#utility.yul\":2616:2622   */\n      dup3\n        /* \"#utility.yul\":2605:2614   */\n      dup8\n        /* \"#utility.yul\":2601:2623   */\n      add\n        /* \"#utility.yul\":2559:2633   */\n      tag_79\n      jump\t// in\n    tag_97:\n        /* \"#utility.yul\":2549:2633   */\n      swap2\n      pop\n        /* \"#utility.yul\":2418:2643   */\n      pop\n        /* \"#utility.yul\":1973:2650   */\n      swap3\n      pop\n      swap3\n      pop\n      swap3\n      jump\t// out\n        /* \"#utility.yul\":2656:3016   */\n    tag_98:\n        /* \"#utility.yul\":2742:2745   */\n      0x00\n        /* \"#utility.yul\":2770:2808   */\n      tag_100\n        /* \"#utility.yul\":2802:2807   */\n      dup3\n        /* \"#utility.yul\":2770:2808   */\n      tag_101\n      jump\t// in\n    tag_100:\n        /* \"#utility.yul\":2824:2894   */\n      tag_102\n        /* \"#utility.yul\":2887:2893   */\n      dup2\n        /* \"#utility.yul\":2882:2885   */\n      dup6\n        /* \"#utility.yul\":2824:2894   */\n      tag_103\n      jump\t// in\n    tag_102:\n        /* \"#utility.yul\":2817:2894   */\n      swap4\n      pop\n        /* \"#utility.yul\":2903:2955   */\n      tag_104\n        /* \"#utility.yul\":2948:2954   */\n      dup2\n        /* \"#utility.yul\":2943:2946   */\n      dup6\n        /* \"#utility.yul\":2936:2940   */\n      0x20\n        /* \"#utility.yul\":2929:2934   */\n      dup7\n        /* \"#utility.yul\":2925:2941   */\n      add\n        /* \"#utility.yul\":2903:2955   */\n      tag_74\n      jump\t// in\n    tag_104:\n        /* \"#utility.yul\":2980:3009   */\n      tag_105\n        /* \"#utility.yul\":3002:3008   */\n      dup2\n        /* \"#utility.yul\":2980:3009   */\n      tag_106\n      jump\t// in\n    tag_105:\n        /* \"#utility.yul\":2975:2978   */\n      dup5\n        /* \"#utility.yul\":2971:3010   */\n      add\n        /* \"#utility.yul\":2964:3010   */\n      swap2\n      pop\n        /* \"#utility.yul\":2746:3016   */\n      pop\n      swap3\n      swap2\n      pop\n      pop\n      jump\t// out\n        /* \"#utility.yul\":3022:3165   */\n    tag_107:\n        /* \"#utility.yul\":3115:3158   */\n      tag_109\n        /* \"#utility.yul\":3152:3157   */\n      dup2\n        /* \"#utility.yul\":3115:3158   */\n      tag_110\n      jump\t// in\n    tag_109:\n        /* \"#utility.yul\":3110:3113   */\n      dup3\n        /* \"#utility.yul\":3103:3159   */\n      mstore\n        /* \"#utility.yul\":3093:3165   */\n      pop\n      pop\n      jump\t// out\n        /* \"#utility.yul\":3171:3324   */\n    tag_111:\n        /* \"#utility.yul\":3269:3317   */\n      tag_113\n        /* \"#utility.yul\":3311:3316   */\n      dup2\n        /* \"#utility.yul\":3269:3317   */\n      tag_114\n      jump\t// in\n    tag_113:\n        /* \"#utility.yul\":3264:3267   */\n      dup3\n        /* \"#utility.yul\":3257:3318   */\n      mstore\n        /* \"#utility.yul\":3247:3324   */\n      pop\n      pop\n      jump\t// out\n        /* \"#utility.yul\":3330:3481   */\n    tag_115:\n        /* \"#utility.yul\":3427:3474   */\n      tag_117\n        /* \"#utility.yul\":3468:3473   */\n      dup2\n        /* \"#utility.yul\":3427:3474   */\n      tag_118\n      jump\t// in\n    tag_117:\n        /* \"#utility.yul\":3422:3425   */\n      dup3\n        /* \"#utility.yul\":3415:3475   */\n      mstore\n        /* \"#utility.yul\":3405:3481   */\n      pop\n      pop\n      jump\t// out\n        /* \"#utility.yul\":3487:3851   */\n    tag_119:\n        /* \"#utility.yul\":3575:3578   */\n      0x00\n        /* \"#utility.yul\":3603:3642   */\n      tag_121\n        /* \"#utility.yul\":3636:3641   */\n      dup3\n        /* \"#utility.yul\":3603:3642   */\n      tag_122\n      jump\t// in\n    tag_121:\n        /* \"#utility.yul\":3658:3729   */\n      tag_123\n        /* \"#utility.yul\":3722:3728   */\n      dup2\n        /* \"#utility.yul\":3717:3720   */\n      dup6\n        /* \"#utility.yul\":3658:3729   */\n      tag_124\n      jump\t// in\n    tag_123:\n        /* \"#utility.yul\":3651:3729   */\n      swap4\n      pop\n        /* \"#utility.yul\":3738:3790   */\n      tag_125\n        /* \"#utility.yul\":3783:3789   */\n      dup2\n        /* \"#utility.yul\":3778:3781   */\n      dup6\n        /* \"#utility.yul\":3771:3775   */\n      0x20\n        /* \"#utility.yul\":3764:3769   */\n      dup7\n        /* \"#utility.yul\":3760:3776   */\n      add\n        /* \"#utility.yul\":3738:3790   */\n      tag_74\n      jump\t// in\n    tag_125:\n        /* \"#utility.yul\":3815:3844   */\n      tag_126\n        /* \"#utility.yul\":3837:3843   */\n      dup2\n        /* \"#utility.yul\":3815:3844   */\n      tag_106\n      jump\t// in\n    tag_126:\n        /* \"#utility.yul\":3810:3813   */\n      dup5\n        /* \"#utility.yul\":3806:3845   */\n      add\n        /* \"#utility.yul\":3799:3845   */\n      swap2\n      pop\n        /* \"#utility.yul\":3579:3851   */\n      pop\n      swap3\n      swap2\n      pop\n      pop\n      jump\t// out\n        /* \"#utility.yul\":3857:3975   */\n    tag_127:\n        /* \"#utility.yul\":3944:3968   */\n      tag_129\n        /* \"#utility.yul\":3962:3967   */\n      dup2\n        /* \"#utility.yul\":3944:3968   */\n      tag_130\n      jump\t// in\n    tag_129:\n        /* \"#utility.yul\":3939:3942   */\n      dup3\n        /* \"#utility.yul\":3932:3969   */\n      mstore\n        /* \"#utility.yul\":3922:3975   */\n      pop\n      pop\n      jump\t// out\n        /* \"#utility.yul\":3981:4096   */\n    tag_131:\n        /* \"#utility.yul\":4066:4089   */\n      tag_133\n        /* \"#utility.yul\":4083:4088   */\n      dup2\n        /* \"#utility.yul\":4066:4089   */\n      tag_134\n      jump\t// in\n    tag_133:\n        /* \"#utility.yul\":4061:4064   */\n      dup3\n        /* \"#utility.yul\":4054:4090   */\n      mstore\n        /* \"#utility.yul\":4044:4096   */\n      pop\n      pop\n      jump\t// out\n        /* \"#utility.yul\":4102:4411   */\n    tag_31:\n        /* \"#utility.yul\":4213:4217   */\n      0x00\n        /* \"#utility.yul\":4251:4253   */\n      0x20\n        /* \"#utility.yul\":4240:4249   */\n      dup3\n        /* \"#utility.yul\":4236:4254   */\n      add\n        /* \"#utility.yul\":4228:4254   */\n      swap1\n      pop\n        /* \"#utility.yul\":4300:4309   */\n      dup2\n        /* \"#utility.yul\":4294:4298   */\n      dup2\n        /* \"#utility.yul\":4290:4310   */\n      sub\n        /* \"#utility.yul\":4286:4287   */\n      0x00\n        /* \"#utility.yul\":4275:4284   */\n      dup4\n        /* \"#utility.yul\":4271:4288   */\n      add\n        /* \"#utility.yul\":4264:4311   */\n      mstore\n        /* \"#utility.yul\":4328:4404   */\n      tag_136\n        /* \"#utility.yul\":4399:4403   */\n      dup2\n        /* \"#utility.yul\":4390:4396   */\n      dup5\n        /* \"#utility.yul\":4328:4404   */\n      tag_98\n      jump\t// in\n    tag_136:\n        /* \"#utility.yul\":4320:4404   */\n      swap1\n      pop\n        /* \"#utility.yul\":4218:4411   */\n      swap3\n      swap2\n      pop\n      pop\n      jump\t// out\n        /* \"#utility.yul\":4417:4913   */\n    tag_51:\n        /* \"#utility.yul\":4593:4597   */\n      0x00\n        /* \"#utility.yul\":4631:4633   */\n      0x60\n        /* \"#utility.yul\":4620:4629   */\n      dup3\n        /* \"#utility.yul\":4616:4634   */\n      add\n        /* \"#utility.yul\":4608:4634   */\n      swap1\n      pop\n        /* \"#utility.yul\":4644:4721   */\n      tag_138\n        /* \"#utility.yul\":4718:4719   */\n      0x00\n        /* \"#utility.yul\":4707:4716   */\n      dup4\n        /* \"#utility.yul\":4703:4720   */\n      add\n        /* \"#utility.yul\":4694:4700   */\n      dup7\n        /* \"#utility.yul\":4644:4721   */\n      tag_107\n      jump\t// in\n    tag_138:\n        /* \"#utility.yul\":4731:4814   */\n      tag_139\n        /* \"#utility.yul\":4810:4812   */\n      0x20\n        /* \"#utility.yul\":4799:4808   */\n      dup4\n        /* \"#utility.yul\":4795:4813   */\n      add\n        /* \"#utility.yul\":4786:4792   */\n      dup6\n        /* \"#utility.yul\":4731:4814   */\n      tag_111\n      jump\t// in\n    tag_139:\n        /* \"#utility.yul\":4824:4906   */\n      tag_140\n        /* \"#utility.yul\":4902:4904   */\n      0x40\n        /* \"#utility.yul\":4891:4900   */\n      dup4\n        /* \"#utility.yul\":4887:4905   */\n      add\n        /* \"#utility.yul\":4878:4884   */\n      dup5\n        /* \"#utility.yul\":4824:4906   */\n      tag_115\n      jump\t// in\n    tag_140:\n        /* \"#utility.yul\":4598:4913   */\n      swap5\n      swap4\n      pop\n      pop\n      pop\n      pop\n      jump\t// out\n        /* \"#utility.yul\":4919:5543   */\n    tag_27:\n        /* \"#utility.yul\":5108:5112   */\n      0x00\n        /* \"#utility.yul\":5146:5148   */\n      0x60\n        /* \"#utility.yul\":5135:5144   */\n      dup3\n        /* \"#utility.yul\":5131:5149   */\n      add\n        /* \"#utility.yul\":5123:5149   */\n      swap1\n      pop\n        /* \"#utility.yul\":5195:5204   */\n      dup2\n        /* \"#utility.yul\":5189:5193   */\n      dup2\n        /* \"#utility.yul\":5185:5205   */\n      sub\n        /* \"#utility.yul\":5181:5182   */\n      0x00\n        /* \"#utility.yul\":5170:5179   */\n      dup4\n        /* \"#utility.yul\":5166:5183   */\n      add\n        /* \"#utility.yul\":5159:5206   */\n      mstore\n        /* \"#utility.yul\":5223:5301   */\n      tag_142\n        /* \"#utility.yul\":5296:5300   */\n      dup2\n        /* \"#utility.yul\":5287:5293   */\n      dup7\n        /* \"#utility.yul\":5223:5301   */\n      tag_119\n      jump\t// in\n    tag_142:\n        /* \"#utility.yul\":5215:5301   */\n      swap1\n      pop\n        /* \"#utility.yul\":5311:5383   */\n      tag_143\n        /* \"#utility.yul\":5379:5381   */\n      0x20\n        /* \"#utility.yul\":5368:5377   */\n      dup4\n        /* \"#utility.yul\":5364:5382   */\n      add\n        /* \"#utility.yul\":5355:5361   */\n      dup6\n        /* \"#utility.yul\":5311:5383   */\n      tag_127\n      jump\t// in\n    tag_143:\n        /* \"#utility.yul\":5430:5439   */\n      dup2\n        /* \"#utility.yul\":5424:5428   */\n      dup2\n        /* \"#utility.yul\":5420:5440   */\n      sub\n        /* \"#utility.yul\":5415:5417   */\n      0x40\n        /* \"#utility.yul\":5404:5413   */\n      dup4\n        /* \"#utility.yul\":5400:5418   */\n      add\n        /* \"#utility.yul\":5393:5441   */\n      mstore\n        /* \"#utility.yul\":5458:5536   */\n      tag_144\n        /* \"#utility.yul\":5531:5535   */\n      dup2\n        /* \"#utility.yul\":5522:5528   */\n      dup5\n        /* \"#utility.yul\":5458:5536   */\n      tag_119\n      jump\t// in\n    tag_144:\n        /* \"#utility.yul\":5450:5536   */\n      swap1\n      pop\n        /* \"#utility.yul\":5113:5543   */\n      swap5\n      swap4\n      pop\n      pop\n      pop\n      pop\n      jump\t// out\n        /* \"#utility.yul\":5549:5771   */\n    tag_14:\n        /* \"#utility.yul\":5642:5646   */\n      0x00\n        /* \"#utility.yul\":5680:5682   */\n      0x20\n        /* \"#utility.yul\":5669:5678   */\n      dup3\n        /* \"#utility.yul\":5665:5683   */\n      add\n        /* \"#utility.yul\":5657:5683   */\n      swap1\n      pop\n        /* \"#utility.yul\":5693:5764   */\n      tag_146\n        /* \"#utility.yul\":5761:5762   */\n      0x00\n        /* \"#utility.yul\":5750:5759   */\n      dup4\n        /* \"#utility.yul\":5746:5763   */\n      add\n        /* \"#utility.yul\":5737:5743   */\n      dup5\n        /* \"#utility.yul\":5693:5764   */\n      tag_127\n      jump\t// in\n    tag_146:\n        /* \"#utility.yul\":5647:5771   */\n      swap3\n      swap2\n      pop\n      pop\n      jump\t// out\n        /* \"#utility.yul\":5777:5995   */\n    tag_18:\n        /* \"#utility.yul\":5868:5872   */\n      0x00\n        /* \"#utility.yul\":5906:5908   */\n      0x20\n        /* \"#utility.yul\":5895:5904   */\n      dup3\n        /* \"#utility.yul\":5891:5909   */\n      add\n        /* \"#utility.yul\":5883:5909   */\n      swap1\n      pop\n        /* \"#utility.yul\":5919:5988   */\n      tag_148\n        /* \"#utility.yul\":5985:5986   */\n      0x00\n        /* \"#utility.yul\":5974:5983   */\n      dup4\n        /* \"#utility.yul\":5970:5987   */\n      add\n        /* \"#utility.yul\":5961:5967   */\n      dup5\n        /* \"#utility.yul\":5919:5988   */\n      tag_131\n      jump\t// in\n    tag_148:\n        /* \"#utility.yul\":5873:5995   */\n      swap3\n      swap2\n      pop\n      pop\n      jump\t// out\n        /* \"#utility.yul\":6001:6130   */\n    tag_63:\n        /* \"#utility.yul\":6035:6041   */\n      0x00\n        /* \"#utility.yul\":6062:6082   */\n      tag_150\n      tag_151\n      jump\t// in\n    tag_150:\n        /* \"#utility.yul\":6052:6082   */\n      swap1\n      pop\n        /* \"#utility.yul\":6091:6124   */\n      tag_152\n        /* \"#utility.yul\":6119:6123   */\n      dup3\n        /* \"#utility.yul\":6111:6117   */\n      dup3\n        /* \"#utility.yul\":6091:6124   */\n      tag_153\n      jump\t// in\n    tag_152:\n        /* \"#utility.yul\":6042:6130   */\n      swap2\n      swap1\n      pop\n      jump\t// out\n        /* \"#utility.yul\":6136:6211   */\n    tag_151:\n        /* \"#utility.yul\":6169:6175   */\n      0x00\n        /* \"#utility.yul\":6202:6204   */\n      0x40\n        /* \"#utility.yul\":6196:6205   */\n      mload\n        /* \"#utility.yul\":6186:6205   */\n      swap1\n      pop\n        /* \"#utility.yul\":6176:6211   */\n      swap1\n      jump\t// out\n        /* \"#utility.yul\":6217:6524   */\n    tag_62:\n        /* \"#utility.yul\":6278:6282   */\n      0x00\n        /* \"#utility.yul\":6368:6386   */\n      0xffffffffffffffff\n        /* \"#utility.yul\":6360:6366   */\n      dup3\n        /* \"#utility.yul\":6357:6387   */\n      gt\n        /* \"#utility.yul\":6354:6356   */\n      iszero\n      tag_156\n      jumpi\n        /* \"#utility.yul\":6390:6408   */\n      tag_157\n      tag_158\n      jump\t// in\n    tag_157:\n        /* \"#utility.yul\":6354:6356   */\n    tag_156:\n        /* \"#utility.yul\":6428:6457   */\n      tag_159\n        /* \"#utility.yul\":6450:6456   */\n      dup3\n        /* \"#utility.yul\":6428:6457   */\n      tag_106\n      jump\t// in\n    tag_159:\n        /* \"#utility.yul\":6420:6457   */\n      swap1\n      pop\n        /* \"#utility.yul\":6512:6516   */\n      0x20\n        /* \"#utility.yul\":6506:6510   */\n      dup2\n        /* \"#utility.yul\":6502:6517   */\n      add\n        /* \"#utility.yul\":6494:6517   */\n      swap1\n      pop\n        /* \"#utility.yul\":6283:6524   */\n      swap2\n      swap1\n      pop\n      jump\t// out\n        /* \"#utility.yul\":6530:6838   */\n    tag_71:\n        /* \"#utility.yul\":6592:6596   */\n      0x00\n        /* \"#utility.yul\":6682:6700   */\n      0xffffffffffffffff\n        /* \"#utility.yul\":6674:6680   */\n      dup3\n        /* \"#utility.yul\":6671:6701   */\n      gt\n        /* \"#utility.yul\":6668:6670   */\n      iszero\n      tag_161\n      jumpi\n        /* \"#utility.yul\":6704:6722   */\n      tag_162\n      tag_158\n      jump\t// in\n    tag_162:\n        /* \"#utility.yul\":6668:6670   */\n    tag_161:\n        /* \"#utility.yul\":6742:6771   */\n      tag_163\n        /* \"#utility.yul\":6764:6770   */\n      dup3\n        /* \"#utility.yul\":6742:6771   */\n      tag_106\n      jump\t// in\n    tag_163:\n        /* \"#utility.yul\":6734:6771   */\n      swap1\n      pop\n        /* \"#utility.yul\":6826:6830   */\n      0x20\n        /* \"#utility.yul\":6820:6824   */\n      dup2\n        /* \"#utility.yul\":6816:6831   */\n      add\n        /* \"#utility.yul\":6808:6831   */\n      swap1\n      pop\n        /* \"#utility.yul\":6597:6838   */\n      swap2\n      swap1\n      pop\n      jump\t// out\n        /* \"#utility.yul\":6844:6942   */\n    tag_101:\n        /* \"#utility.yul\":6895:6901   */\n      0x00\n        /* \"#utility.yul\":6929:6934   */\n      dup2\n        /* \"#utility.yul\":6923:6935   */\n      mload\n        /* \"#utility.yul\":6913:6935   */\n      swap1\n      pop\n        /* \"#utility.yul\":6902:6942   */\n      swap2\n      swap1\n      pop\n      jump\t// out\n        /* \"#utility.yul\":6948:7047   */\n    tag_122:\n        /* \"#utility.yul\":7000:7006   */\n      0x00\n        /* \"#utility.yul\":7034:7039   */\n      dup2\n        /* \"#utility.yul\":7028:7040   */\n      mload\n        /* \"#utility.yul\":7018:7040   */\n      swap1\n      pop\n        /* \"#utility.yul\":7007:7047   */\n      swap2\n      swap1\n      pop\n      jump\t// out\n        /* \"#utility.yul\":7053:7221   */\n    tag_103:\n        /* \"#utility.yul\":7136:7147   */\n      0x00\n        /* \"#utility.yul\":7170:7176   */\n      dup3\n        /* \"#utility.yul\":7165:7168   */\n      dup3\n        /* \"#utility.yul\":7158:7177   */\n      mstore\n        /* \"#utility.yul\":7210:7214   */\n      0x20\n        /* \"#utility.yul\":7205:7208   */\n      dup3\n        /* \"#utility.yul\":7201:7215   */\n      add\n        /* \"#utility.yul\":7186:7215   */\n      swap1\n      pop\n        /* \"#utility.yul\":7148:7221   */\n      swap3\n      swap2\n      pop\n      pop\n      jump\t// out\n        /* \"#utility.yul\":7227:7396   */\n    tag_124:\n        /* \"#utility.yul\":7311:7322   */\n      0x00\n        /* \"#utility.yul\":7345:7351   */\n      dup3\n        /* \"#utility.yul\":7340:7343   */\n      dup3\n        /* \"#utility.yul\":7333:7352   */\n      mstore\n        /* \"#utility.yul\":7385:7389   */\n      0x20\n        /* \"#utility.yul\":7380:7383   */\n      dup3\n        /* \"#utility.yul\":7376:7390   */\n      add\n        /* \"#utility.yul\":7361:7390   */\n      swap1\n      pop\n        /* \"#utility.yul\":7323:7396   */\n      swap3\n      swap2\n      pop\n      pop\n      jump\t// out\n        /* \"#utility.yul\":7402:7656   */\n    tag_42:\n        /* \"#utility.yul\":7441:7444   */\n      0x00\n        /* \"#utility.yul\":7460:7479   */\n      tag_169\n        /* \"#utility.yul\":7477:7478   */\n      dup3\n        /* \"#utility.yul\":7460:7479   */\n      tag_134\n      jump\t// in\n    tag_169:\n        /* \"#utility.yul\":7455:7479   */\n      swap2\n      pop\n        /* \"#utility.yul\":7493:7512   */\n      tag_170\n        /* \"#utility.yul\":7510:7511   */\n      dup4\n        /* \"#utility.yul\":7493:7512   */\n      tag_134\n      jump\t// in\n    tag_170:\n        /* \"#utility.yul\":7488:7512   */\n      swap3\n      pop\n        /* \"#utility.yul\":7598:7599   */\n      dup3\n        /* \"#utility.yul\":7578:7596   */\n      0xffffffffffffffff\n        /* \"#utility.yul\":7574:7600   */\n      sub\n        /* \"#utility.yul\":7571:7572   */\n      dup3\n        /* \"#utility.yul\":7568:7601   */\n      gt\n        /* \"#utility.yul\":7565:7567   */\n      iszero\n      tag_171\n      jumpi\n        /* \"#utility.yul\":7604:7622   */\n      tag_172\n      tag_173\n      jump\t// in\n    tag_172:\n        /* \"#utility.yul\":7565:7567   */\n    tag_171:\n        /* \"#utility.yul\":7648:7649   */\n      dup3\n        /* \"#utility.yul\":7645:7646   */\n      dup3\n        /* \"#utility.yul\":7641:7650   */\n      add\n        /* \"#utility.yul\":7634:7650   */\n      swap1\n      pop\n        /* \"#utility.yul\":7445:7656   */\n      swap3\n      swap2\n      pop\n      pop\n      jump\t// out\n        /* \"#utility.yul\":7662:7751   */\n    tag_174:\n        /* \"#utility.yul\":7698:7705   */\n      0x00\n        /* \"#utility.yul\":7738:7744   */\n      0xffff\n        /* \"#utility.yul\":7731:7736   */\n      dup3\n        /* \"#utility.yul\":7727:7745   */\n      and\n        /* \"#utility.yul\":7716:7745   */\n      swap1\n      pop\n        /* \"#utility.yul\":7706:7751   */\n      swap2\n      swap1\n      pop\n      jump\t// out\n        /* \"#utility.yul\":7757:7834   */\n    tag_130:\n        /* \"#utility.yul\":7794:7801   */\n      0x00\n        /* \"#utility.yul\":7823:7828   */\n      dup2\n        /* \"#utility.yul\":7812:7828   */\n      swap1\n      pop\n        /* \"#utility.yul\":7802:7834   */\n      swap2\n      swap1\n      pop\n      jump\t// out\n        /* \"#utility.yul\":7840:7941   */\n    tag_134:\n        /* \"#utility.yul\":7876:7883   */\n      0x00\n        /* \"#utility.yul\":7916:7934   */\n      0xffffffffffffffff\n        /* \"#utility.yul\":7909:7914   */\n      dup3\n        /* \"#utility.yul\":7905:7935   */\n      and\n        /* \"#utility.yul\":7894:7935   */\n      swap1\n      pop\n        /* \"#utility.yul\":7884:7941   */\n      swap2\n      swap1\n      pop\n      jump\t// out\n        /* \"#utility.yul\":7947:8033   */\n    tag_178:\n        /* \"#utility.yul\":7982:7989   */\n      0x00\n        /* \"#utility.yul\":8022:8026   */\n      0xff\n        /* \"#utility.yul\":8015:8020   */\n      dup3\n        /* \"#utility.yul\":8011:8027   */\n      and\n        /* \"#utility.yul\":8000:8027   */\n      swap1\n      pop\n        /* \"#utility.yul\":7990:8033   */\n      swap2\n      swap1\n      pop\n      jump\t// out\n        /* \"#utility.yul\":8039:8156   */\n    tag_110:\n        /* \"#utility.yul\":8095:8104   */\n      0x00\n        /* \"#utility.yul\":8128:8150   */\n      tag_181\n        /* \"#utility.yul\":8144:8149   */\n      dup3\n        /* \"#utility.yul\":8128:8150   */\n      tag_178\n      jump\t// in\n    tag_181:\n        /* \"#utility.yul\":8115:8150   */\n      swap1\n      pop\n        /* \"#utility.yul\":8105:8156   */\n      swap2\n      swap1\n      pop\n      jump\t// out\n        /* \"#utility.yul\":8162:8285   */\n    tag_114:\n        /* \"#utility.yul\":8223:8232   */\n      0x00\n        /* \"#utility.yul\":8256:8279   */\n      tag_183\n        /* \"#utility.yul\":8273:8278   */\n      dup3\n        /* \"#utility.yul\":8256:8279   */\n      tag_174\n      jump\t// in\n    tag_183:\n        /* \"#utility.yul\":8243:8279   */\n      swap1\n      pop\n        /* \"#utility.yul\":8233:8285   */\n      swap2\n      swap1\n      pop\n      jump\t// out\n        /* \"#utility.yul\":8291:8413   */\n    tag_118:\n        /* \"#utility.yul\":8351:8360   */\n      0x00\n        /* \"#utility.yul\":8384:8407   */\n      tag_185\n        /* \"#utility.yul\":8401:8406   */\n      dup3\n        /* \"#utility.yul\":8384:8407   */\n      tag_174\n      jump\t// in\n    tag_185:\n        /* \"#utility.yul\":8371:8407   */\n      swap1\n      pop\n        /* \"#utility.yul\":8361:8413   */\n      swap2\n      swap1\n      pop\n      jump\t// out\n        /* \"#utility.yul\":8419:8573   */\n    tag_66:\n        /* \"#utility.yul\":8503:8509   */\n      dup3\n        /* \"#utility.yul\":8498:8501   */\n      dup2\n        /* \"#utility.yul\":8493:8496   */\n      dup4\n        /* \"#utility.yul\":8480:8510   */\n      calldatacopy\n        /* \"#utility.yul\":8565:8566   */\n      0x00\n        /* \"#utility.yul\":8556:8562   */\n      dup4\n        /* \"#utility.yul\":8551:8554   */\n      dup4\n        /* \"#utility.yul\":8547:8563   */\n      add\n        /* \"#utility.yul\":8540:8567   */\n      mstore\n        /* \"#utility.yul\":8470:8573   */\n      pop\n      pop\n      pop\n      jump\t// out\n        /* \"#utility.yul\":8579:8886   */\n    tag_74:\n        /* \"#utility.yul\":8647:8648   */\n      0x00\n        /* \"#utility.yul\":8657:8770   */\n    tag_188:\n        /* \"#utility.yul\":8671:8677   */\n      dup4\n        /* \"#utility.yul\":8668:8669   */\n      dup2\n        /* \"#utility.yul\":8665:8678   */\n      lt\n        /* \"#utility.yul\":8657:8770   */\n      iszero\n      tag_190\n      jumpi\n        /* \"#utility.yul\":8756:8757   */\n      dup1\n        /* \"#utility.yul\":8751:8754   */\n      dup3\n        /* \"#utility.yul\":8747:8758   */\n      add\n        /* \"#utility.yul\":8741:8759   */\n      mload\n        /* \"#utility.yul\":8737:8738   */\n      dup2\n        /* \"#utility.yul\":8732:8735   */\n      dup5\n        /* \"#utility.yul\":8728:8739   */\n      add\n        /* \"#utility.yul\":8721:8760   */\n      mstore\n        /* \"#utility.yul\":8693:8695   */\n      0x20\n        /* \"#utility.yul\":8690:8691   */\n      dup2\n        /* \"#utility.yul\":8686:8696   */\n      add\n        /* \"#utility.yul\":8681:8696   */\n      swap1\n      pop\n        /* \"#utility.yul\":8657:8770   */\n      jump(tag_188)\n    tag_190:\n        /* \"#utility.yul\":8788:8794   */\n      dup4\n        /* \"#utility.yul\":8785:8786   */\n      dup2\n        /* \"#utility.yul\":8782:8795   */\n      gt\n        /* \"#utility.yul\":8779:8781   */\n      iszero\n      tag_191\n      jumpi\n        /* \"#utility.yul\":8868:8869   */\n      0x00\n        /* \"#utility.yul\":8859:8865   */\n      dup5\n        /* \"#utility.yul\":8854:8857   */\n      dup5\n        /* \"#utility.yul\":8850:8866   */\n      add\n        /* \"#utility.yul\":8843:8870   */\n      mstore\n        /* \"#utility.yul\":8779:8781   */\n    tag_191:\n        /* \"#utility.yul\":8628:8886   */\n      pop\n      pop\n      pop\n      pop\n      jump\t// out\n        /* \"#utility.yul\":8892:9173   */\n    tag_153:\n        /* \"#utility.yul\":8975:9002   */\n      tag_193\n        /* \"#utility.yul\":8997:9001   */\n      dup3\n        /* \"#utility.yul\":8975:9002   */\n      tag_106\n      jump\t// in\n    tag_193:\n        /* \"#utility.yul\":8967:8973   */\n      dup2\n        /* \"#utility.yul\":8963:9003   */\n      add\n        /* \"#utility.yul\":9105:9111   */\n      dup2\n        /* \"#utility.yul\":9093:9103   */\n      dup2\n        /* \"#utility.yul\":9090:9112   */\n      lt\n        /* \"#utility.yul\":9069:9087   */\n      0xffffffffffffffff\n        /* \"#utility.yul\":9057:9067   */\n      dup3\n        /* \"#utility.yul\":9054:9088   */\n      gt\n        /* \"#utility.yul\":9051:9113   */\n      or\n        /* \"#utility.yul\":9048:9050   */\n      iszero\n      tag_194\n      jumpi\n        /* \"#utility.yul\":9116:9134   */\n      tag_195\n      tag_158\n      jump\t// in\n    tag_195:\n        /* \"#utility.yul\":9048:9050   */\n    tag_194:\n        /* \"#utility.yul\":9156:9166   */\n      dup1\n        /* \"#utility.yul\":9152:9154   */\n      0x40\n        /* \"#utility.yul\":9145:9167   */\n      mstore\n        /* \"#utility.yul\":8935:9173   */\n      pop\n      pop\n      pop\n      jump\t// out\n        /* \"#utility.yul\":9179:9359   */\n    tag_173:\n        /* \"#utility.yul\":9227:9304   */\n      0x4e487b7100000000000000000000000000000000000000000000000000000000\n        /* \"#utility.yul\":9224:9225   */\n      0x00\n        /* \"#utility.yul\":9217:9305   */\n      mstore\n        /* \"#utility.yul\":9324:9328   */\n      0x11\n        /* \"#utility.yul\":9321:9322   */\n      0x04\n        /* \"#utility.yul\":9314:9329   */\n      mstore\n        /* \"#utility.yul\":9348:9352   */\n      0x24\n        /* \"#utility.yul\":9345:9346   */\n      0x00\n        /* \"#utility.yul\":9338:9353   */\n      revert\n        /* \"#utility.yul\":9365:9545   */\n    tag_158:\n        /* \"#utility.yul\":9413:9490   */\n      0x4e487b7100000000000000000000000000000000000000000000000000000000\n        /* \"#utility.yul\":9410:9411   */\n      0x00\n        /* \"#utility.yul\":9403:9491   */\n      mstore\n        /* \"#utility.yul\":9510:9514   */\n      0x41\n        /* \"#utility.yul\":9507:9508   */\n      0x04\n        /* \"#utility.yul\":9500:9515   */\n      mstore\n        /* \"#utility.yul\":9534:9538   */\n      0x24\n        /* \"#utility.yul\":9531:9532   */\n      0x00\n        /* \"#utility.yul\":9524:9539   */\n      revert\n        /* \"#utility.yul\":9551:9653   */\n    tag_106:\n        /* \"#utility.yul\":9592:9598   */\n      0x00\n        /* \"#utility.yul\":9643:9645   */\n      0x1f\n        /* \"#utility.yul\":9639:9646   */\n      not\n        /* \"#utility.yul\":9634:9636   */\n      0x1f\n        /* \"#utility.yul\":9627:9632   */\n      dup4\n        /* \"#utility.yul\":9623:9637   */\n      add\n        /* \"#utility.yul\":9619:9647   */\n      and\n        /* \"#utility.yul\":9609:9647   */\n      swap1\n      pop\n        /* \"#utility.yul\":9599:9653   */\n      swap2\n      swap1\n      pop\n      jump\t// out\n        /* \"#utility.yul\":9659:9781   */\n    tag_86:\n        /* \"#utility.yul\":9732:9756   */\n      tag_200\n        /* \"#utility.yul\":9750:9755   */\n      dup2\n        /* \"#utility.yul\":9732:9756   */\n      tag_130\n      jump\t// in\n    tag_200:\n        /* \"#utility.yul\":9725:9730   */\n      dup2\n        /* \"#utility.yul\":9722:9757   */\n      eq\n        /* \"#utility.yul\":9712:9714   */\n      tag_201\n      jumpi\n        /* \"#utility.yul\":9771:9772   */\n      0x00\n        /* \"#utility.yul\":9768:9769   */\n      dup1\n        /* \"#utility.yul\":9761:9773   */\n      revert\n        /* \"#utility.yul\":9712:9714   */\n    tag_201:\n        /* \"#utility.yul\":9702:9781   */\n      pop\n      jump\t// out\n\n    auxdata: 0xa264697066735822122085e4423d088146ac5b137a3559c2113c3a9713b7ce8e55622676a4595f1fa25b64736f6c63430008040033\n}\n",
				"bytecode": {
					"linkReferences": {},
					"object": "608060405234801561001057600080fd5b5061082f806100206000396000f3fe608060405234801561001057600080fd5b506004361061007d5760003560e01c8063416bdc521161005b578063416bdc52146100dc5780636097e7a31461010e5780638c492a761461012c5780639711715a1461014a5761007d565b806302a251a31461008257806329dcb0cf146100a05780633932abb1146100be575b600080fd5b61008a610168565b604051610097919061055e565b60405180910390f35b6100a8610172565b6040516100b59190610579565b60405180910390f35b6100c66101a9565b6040516100d3919061055e565b60405180910390f35b6100f660048036038101906100f19190610343565b6101b2565b60405161010593929190610519565b60405180910390f35b6101166101df565b60405161012391906104c0565b60405180910390f35b61013461020f565b60405161014191906104c0565b60405180910390f35b61015261023f565b60405161015f9190610579565b60405180910390f35b600061b2fa905090565b60008061017d6101a9565b436101889190610653565b90506000610194610168565b8261019f9190610653565b9050809250505090565b60006001905090565b606060006060838060200190518101906101cc9190610384565b8093508194508295505050509193909250565b6060600161b2ec6113886040516020016101fb939291906104e2565b604051602081830303815290604052905090565b6060600161b2ec61138860405160200161022b939291906104e2565b604051602081830303815290604052905090565b60008061024a6101a9565b436102559190610653565b90508091505090565b600061027161026c846105b9565b610594565b90508281526020810184848401111561028957600080fd5b610294848285610700565b509392505050565b60006102af6102aa846105ea565b610594565b9050828152602081018484840111156102c757600080fd5b6102d284828561070f565b509392505050565b600082601f8301126102eb57600080fd5b81356102fb84826020860161025e565b91505092915050565b600082601f83011261031557600080fd5b815161032584826020860161029c565b91505092915050565b60008151905061033d816107e2565b92915050565b60006020828403121561035557600080fd5b600082013567ffffffffffffffff81111561036f57600080fd5b61037b848285016102da565b91505092915050565b60008060006060848603121561039957600080fd5b600084015167ffffffffffffffff8111156103b357600080fd5b6103bf86828701610304565b93505060206103d08682870161032e565b925050604084015167ffffffffffffffff8111156103ed57600080fd5b6103f986828701610304565b9150509250925092565b600061040e8261061b565b6104188185610631565b935061042881856020860161070f565b610431816107d1565b840191505092915050565b610445816106ca565b82525050565b610454816106dc565b82525050565b610463816106ee565b82525050565b600061047482610626565b61047e8185610642565b935061048e81856020860161070f565b610497816107d1565b840191505092915050565b6104ab8161069f565b82525050565b6104ba816106a9565b82525050565b600060208201905081810360008301526104da8184610403565b905092915050565b60006060820190506104f7600083018661043c565b610504602083018561044b565b610511604083018461045a565b949350505050565b600060608201905081810360008301526105338186610469565b905061054260208301856104a2565b81810360408301526105548184610469565b9050949350505050565b600060208201905061057360008301846104a2565b92915050565b600060208201905061058e60008301846104b1565b92915050565b600061059e6105af565b90506105aa8282610742565b919050565b6000604051905090565b600067ffffffffffffffff8211156105d4576105d36107a2565b5b6105dd826107d1565b9050602081019050919050565b600067ffffffffffffffff821115610605576106046107a2565b5b61060e826107d1565b9050602081019050919050565b600081519050919050565b600081519050919050565b600082825260208201905092915050565b600082825260208201905092915050565b600061065e826106a9565b9150610669836106a9565b92508267ffffffffffffffff0382111561068657610685610773565b5b828201905092915050565b600061ffff82169050919050565b6000819050919050565b600067ffffffffffffffff82169050919050565b600060ff82169050919050565b60006106d5826106bd565b9050919050565b60006106e782610691565b9050919050565b60006106f982610691565b9050919050565b82818337600083830152505050565b60005b8381101561072d578082015181840152602081019050610712565b8381111561073c576000848401525b50505050565b61074b826107d1565b810181811067ffffffffffffffff8211171561076a576107696107a2565b5b80604052505050565b7f4e487b7100000000000000000000000000000000000000000000000000000000600052601160045260246000fd5b7f4e487b7100000000000000000000000000000000000000000000000000000000600052604160045260246000fd5b6000601f19601f8301169050919050565b6107eb8161069f565b81146107f657600080fd5b5056fea264697066735822122085e4423d088146ac5b137a3559c2113c3a9713b7ce8e55622676a4595f1fa25b64736f6c63430008040033",
					"opcodes": "PUSH1 0x80 PUSH1 0x40 MSTORE CALLVALUE DUP1 ISZERO PUSH2 0x10 JUMPI PUSH1 0x0 DUP1 REVERT JUMPDEST POP PUSH2 0x82F DUP1 PUSH2 0x20 PUSH1 0x0 CODECOPY PUSH1 0x0 RETURN INVALID PUSH1 0x80 PUSH1 0x40 MSTORE CALLVALUE DUP1 ISZERO PUSH2 0x10 JUMPI PUSH1 0x0 DUP1 REVERT JUMPDEST POP PUSH1 0x4 CALLDATASIZE LT PUSH2 0x7D JUMPI PUSH1 0x0 CALLDATALOAD PUSH1 0xE0 SHR DUP1 PUSH4 0x416BDC52 GT PUSH2 0x5B JUMPI DUP1 PUSH4 0x416BDC52 EQ PUSH2 0xDC JUMPI DUP1 PUSH4 0x6097E7A3 EQ PUSH2 0x10E JUMPI DUP1 PUSH4 0x8C492A76 EQ PUSH2 0x12C JUMPI DUP1 PUSH4 0x9711715A EQ PUSH2 0x14A JUMPI PUSH2 0x7D JUMP JUMPDEST DUP1 PUSH4 0x2A251A3 EQ PUSH2 0x82 JUMPI DUP1 PUSH4 0x29DCB0CF EQ PUSH2 0xA0 JUMPI DUP1 PUSH4 0x3932ABB1 EQ PUSH2 0xBE JUMPI JUMPDEST PUSH1 0x0 DUP1 REVERT JUMPDEST PUSH2 0x8A PUSH2 0x168 JUMP JUMPDEST PUSH1 0x40 MLOAD PUSH2 0x97 SWAP2 SWAP1 PUSH2 0x55E JUMP JUMPDEST PUSH1 0x40 MLOAD DUP1 SWAP2 SUB SWAP1 RETURN JUMPDEST PUSH2 0xA8 PUSH2 0x172 JUMP JUMPDEST PUSH1 0x40 MLOAD PUSH2 0xB5 SWAP2 SWAP1 PUSH2 0x579 JUMP JUMPDEST PUSH1 0x40 MLOAD DUP1 SWAP2 SUB SWAP1 RETURN JUMPDEST PUSH2 0xC6 PUSH2 0x1A9 JUMP JUMPDEST PUSH1 0x40 MLOAD PUSH2 0xD3 SWAP2 SWAP1 PUSH2 0x55E JUMP JUMPDEST PUSH1 0x40 MLOAD DUP1 SWAP2 SUB SWAP1 RETURN JUMPDEST PUSH2 0xF6 PUSH1 0x4 DUP1 CALLDATASIZE SUB DUP2 ADD SWAP1 PUSH2 0xF1 SWAP2 SWAP1 PUSH2 0x343 JUMP JUMPDEST PUSH2 0x1B2 JUMP JUMPDEST PUSH1 0x40 MLOAD PUSH2 0x105 SWAP4 SWAP3 SWAP2 SWAP1 PUSH2 0x519 JUMP JUMPDEST PUSH1 0x40 MLOAD DUP1 SWAP2 SUB SWAP1 RETURN JUMPDEST PUSH2 0x116 PUSH2 0x1DF JUMP JUMPDEST PUSH1 0x40 MLOAD PUSH2 0x123 SWAP2 SWAP1 PUSH2 0x4C0 JUMP JUMPDEST PUSH1 0x40 MLOAD DUP1 SWAP2 SUB SWAP1 RETURN JUMPDEST PUSH2 0x134 PUSH2 0x20F JUMP JUMPDEST PUSH1 0x40 MLOAD PUSH2 0x141 SWAP2 SWAP1 PUSH2 0x4C0 JUMP JUMPDEST PUSH1 0x40 MLOAD DUP1 SWAP2 SUB SWAP1 RETURN JUMPDEST PUSH2 0x152 PUSH2 0x23F JUMP JUMPDEST PUSH1 0x40 MLOAD PUSH2 0x15F SWAP2 SWAP1 PUSH2 0x579 JUMP JUMPDEST PUSH1 0x40 MLOAD DUP1 SWAP2 SUB SWAP1 RETURN JUMPDEST PUSH1 0x0 PUSH2 0xB2FA SWAP1 POP SWAP1 JUMP JUMPDEST PUSH1 0x0 DUP1 PUSH2 0x17D PUSH2 0x1A9 JUMP JUMPDEST NUMBER PUSH2 0x188 SWAP2 SWAP1 PUSH2 0x653 JUMP JUMPDEST SWAP1 POP PUSH1 0x0 PUSH2 0x194 PUSH2 0x168 JUMP JUMPDEST DUP3 PUSH2 0x19F SWAP2 SWAP1 PUSH2 0x653 JUMP JUMPDEST SWAP1 POP DUP1 SWAP3 POP POP POP SWAP1 JUMP JUMPDEST PUSH1 0x0 PUSH1 0x1 SWAP1 POP SWAP1 JUMP JUMPDEST PUSH1 0x60 PUSH1 0x0 PUSH1 0x60 DUP4 DUP1 PUSH1 0x20 ADD SWAP1 MLOAD DUP2 ADD SWAP1 PUSH2 0x1CC SWAP2 SWAP1 PUSH2 0x384 JUMP JUMPDEST DUP1 SWAP4 POP DUP2 SWAP5 POP DUP3 SWAP6 POP POP POP POP SWAP2 SWAP4 SWAP1 SWAP3 POP JUMP JUMPDEST PUSH1 0x60 PUSH1 0x1 PUSH2 0xB2EC PUSH2 0x1388 PUSH1 0x40 MLOAD PUSH1 0x20 ADD PUSH2 0x1FB SWAP4 SWAP3 SWAP2 SWAP1 PUSH2 0x4E2 JUMP JUMPDEST PUSH1 0x40 MLOAD PUSH1 0x20 DUP2 DUP4 SUB SUB DUP2 MSTORE SWAP1 PUSH1 0x40 MSTORE SWAP1 POP SWAP1 JUMP JUMPDEST PUSH1 0x60 PUSH1 0x1 PUSH2 0xB2EC PUSH2 0x1388 PUSH1 0x40 MLOAD PUSH1 0x20 ADD PUSH2 0x22B SWAP4 SWAP3 SWAP2 SWAP1 PUSH2 0x4E2 JUMP JUMPDEST PUSH1 0x40 MLOAD PUSH1 0x20 DUP2 DUP4 SUB SUB DUP2 MSTORE SWAP1 PUSH1 0x40 MSTORE SWAP1 POP SWAP1 JUMP JUMPDEST PUSH1 0x0 DUP1 PUSH2 0x24A PUSH2 0x1A9 JUMP JUMPDEST NUMBER PUSH2 0x255 SWAP2 SWAP1 PUSH2 0x653 JUMP JUMPDEST SWAP1 POP DUP1 SWAP2 POP POP SWAP1 JUMP JUMPDEST PUSH1 0x0 PUSH2 0x271 PUSH2 0x26C DUP5 PUSH2 0x5B9 JUMP JUMPDEST PUSH2 0x594 JUMP JUMPDEST SWAP1 POP DUP3 DUP2 MSTORE PUSH1 0x20 DUP2 ADD DUP5 DUP5 DUP5 ADD GT ISZERO PUSH2 0x289 JUMPI PUSH1 0x0 DUP1 REVERT JUMPDEST PUSH2 0x294 DUP5 DUP3 DUP6 PUSH2 0x700 JUMP JUMPDEST POP SWAP4 SWAP3 POP POP POP JUMP JUMPDEST PUSH1 0x0 PUSH2 0x2AF PUSH2 0x2AA DUP5 PUSH2 0x5EA JUMP JUMPDEST PUSH2 0x594 JUMP JUMPDEST SWAP1 POP DUP3 DUP2 MSTORE PUSH1 0x20 DUP2 ADD DUP5 DUP5 DUP5 ADD GT ISZERO PUSH2 0x2C7 JUMPI PUSH1 0x0 DUP1 REVERT JUMPDEST PUSH2 0x2D2 DUP5 DUP3 DUP6 PUSH2 0x70F JUMP JUMPDEST POP SWAP4 SWAP3 POP POP POP JUMP JUMPDEST PUSH1 0x0 DUP3 PUSH1 0x1F DUP4 ADD SLT PUSH2 0x2EB JUMPI PUSH1 0x0 DUP1 REVERT JUMPDEST DUP2 CALLDATALOAD PUSH2 0x2FB DUP5 DUP3 PUSH1 0x20 DUP7 ADD PUSH2 0x25E JUMP JUMPDEST SWAP2 POP POP SWAP3 SWAP2 POP POP JUMP JUMPDEST PUSH1 0x0 DUP3 PUSH1 0x1F DUP4 ADD SLT PUSH2 0x315 JUMPI PUSH1 0x0 DUP1 REVERT JUMPDEST DUP2 MLOAD PUSH2 0x325 DUP5 DUP3 PUSH1 0x20 DUP7 ADD PUSH2 0x29C JUMP JUMPDEST SWAP2 POP POP SWAP3 SWAP2 POP POP JUMP JUMPDEST PUSH1 0x0 DUP2 MLOAD SWAP1 POP PUSH2 0x33D DUP2 PUSH2 0x7E2 JUMP JUMPDEST SWAP3 SWAP2 POP POP JUMP JUMPDEST PUSH1 0x0 PUSH1 0x20 DUP3 DUP5 SUB SLT ISZERO PUSH2 0x355 JUMPI PUSH1 0x0 DUP1 REVERT JUMPDEST PUSH1 0x0 DUP3 ADD CALLDATALOAD PUSH8 0xFFFFFFFFFFFFFFFF DUP2 GT ISZERO PUSH2 0x36F JUMPI PUSH1 0x0 DUP1 REVERT JUMPDEST PUSH2 0x37B DUP5 DUP3 DUP6 ADD PUSH2 0x2DA JUMP JUMPDEST SWAP2 POP POP SWAP3 SWAP2 POP POP JUMP JUMPDEST PUSH1 0x0 DUP1 PUSH1 0x0 PUSH1 0x60 DUP5 DUP7 SUB SLT ISZERO PUSH2 0x399 JUMPI PUSH1 0x0 DUP1 REVERT JUMPDEST PUSH1 0x0 DUP5 ADD MLOAD PUSH8 0xFFFFFFFFFFFFFFFF DUP2 GT ISZERO PUSH2 0x3B3 JUMPI PUSH1 0x0 DUP1 REVERT JUMPDEST PUSH2 0x3BF DUP7 DUP3 DUP8 ADD PUSH2 0x304 JUMP JUMPDEST SWAP4 POP POP PUSH1 0x20 PUSH2 0x3D0 DUP7 DUP3 DUP8 ADD PUSH2 0x32E JUMP JUMPDEST SWAP3 POP POP PUSH1 0x40 DUP5 ADD MLOAD PUSH8 0xFFFFFFFFFFFFFFFF DUP2 GT ISZERO PUSH2 0x3ED JUMPI PUSH1 0x0 DUP1 REVERT JUMPDEST PUSH2 0x3F9 DUP7 DUP3 DUP8 ADD PUSH2 0x304 JUMP JUMPDEST SWAP2 POP POP SWAP3 POP SWAP3 POP SWAP3 JUMP JUMPDEST PUSH1 0x0 PUSH2 0x40E DUP3 PUSH2 0x61B JUMP JUMPDEST PUSH2 0x418 DUP2 DUP6 PUSH2 0x631 JUMP JUMPDEST SWAP4 POP PUSH2 0x428 DUP2 DUP6 PUSH1 0x20 DUP7 ADD PUSH2 0x70F JUMP JUMPDEST PUSH2 0x431 DUP2 PUSH2 0x7D1 JUMP JUMPDEST DUP5 ADD SWAP2 POP POP SWAP3 SWAP2 POP POP JUMP JUMPDEST PUSH2 0x445 DUP2 PUSH2 0x6CA JUMP JUMPDEST DUP3 MSTORE POP POP JUMP JUMPDEST PUSH2 0x454 DUP2 PUSH2 0x6DC JUMP JUMPDEST DUP3 MSTORE POP POP JUMP JUMPDEST PUSH2 0x463 DUP2 PUSH2 0x6EE JUMP JUMPDEST DUP3 MSTORE POP POP JUMP JUMPDEST PUSH1 0x0 PUSH2 0x474 DUP3 PUSH2 0x626 JUMP JUMPDEST PUSH2 0x47E DUP2 DUP6 PUSH2 0x642 JUMP JUMPDEST SWAP4 POP PUSH2 0x48E DUP2 DUP6 PUSH1 0x20 DUP7 ADD PUSH2 0x70F JUMP JUMPDEST PUSH2 0x497 DUP2 PUSH2 0x7D1 JUMP JUMPDEST DUP5 ADD SWAP2 POP POP SWAP3 SWAP2 POP POP JUMP JUMPDEST PUSH2 0x4AB DUP2 PUSH2 0x69F JUMP JUMPDEST DUP3 MSTORE POP POP JUMP JUMPDEST PUSH2 0x4BA DUP2 PUSH2 0x6A9 JUMP JUMPDEST DUP3 MSTORE POP POP JUMP JUMPDEST PUSH1 0x0 PUSH1 0x20 DUP3 ADD SWAP1 POP DUP2 DUP2 SUB PUSH1 0x0 DUP4 ADD MSTORE PUSH2 0x4DA DUP2 DUP5 PUSH2 0x403 JUMP JUMPDEST SWAP1 POP SWAP3 SWAP2 POP POP JUMP JUMPDEST PUSH1 0x0 PUSH1 0x60 DUP3 ADD SWAP1 POP PUSH2 0x4F7 PUSH1 0x0 DUP4 ADD DUP7 PUSH2 0x43C JUMP JUMPDEST PUSH2 0x504 PUSH1 0x20 DUP4 ADD DUP6 PUSH2 0x44B JUMP JUMPDEST PUSH2 0x511 PUSH1 0x40 DUP4 ADD DUP5 PUSH2 0x45A JUMP JUMPDEST SWAP5 SWAP4 POP POP POP POP JUMP JUMPDEST PUSH1 0x0 PUSH1 0x60 DUP3 ADD SWAP1 POP DUP2 DUP2 SUB PUSH1 0x0 DUP4 ADD MSTORE PUSH2 0x533 DUP2 DUP7 PUSH2 0x469 JUMP JUMPDEST SWAP1 POP PUSH2 0x542 PUSH1 0x20 DUP4 ADD DUP6 PUSH2 0x4A2 JUMP JUMPDEST DUP2 DUP2 SUB PUSH1 0x40 DUP4 ADD MSTORE PUSH2 0x554 DUP2 DUP5 PUSH2 0x469 JUMP JUMPDEST SWAP1 POP SWAP5 SWAP4 POP POP POP POP JUMP JUMPDEST PUSH1 0x0 PUSH1 0x20 DUP3 ADD SWAP1 POP PUSH2 0x573 PUSH1 0x0 DUP4 ADD DUP5 PUSH2 0x4A2 JUMP JUMPDEST SWAP3 SWAP2 POP POP JUMP JUMPDEST PUSH1 0x0 PUSH1 0x20 DUP3 ADD SWAP1 POP PUSH2 0x58E PUSH1 0x0 DUP4 ADD DUP5 PUSH2 0x4B1 JUMP JUMPDEST SWAP3 SWAP2 POP POP JUMP JUMPDEST PUSH1 0x0 PUSH2 0x59E PUSH2 0x5AF JUMP JUMPDEST SWAP1 POP PUSH2 0x5AA DUP3 DUP3 PUSH2 0x742 JUMP JUMPDEST SWAP2 SWAP1 POP JUMP JUMPDEST PUSH1 0x0 PUSH1 0x40 MLOAD SWAP1 POP SWAP1 JUMP JUMPDEST PUSH1 0x0 PUSH8 0xFFFFFFFFFFFFFFFF DUP3 GT ISZERO PUSH2 0x5D4 JUMPI PUSH2 0x5D3 PUSH2 0x7A2 JUMP JUMPDEST JUMPDEST PUSH2 0x5DD DUP3 PUSH2 0x7D1 JUMP JUMPDEST SWAP1 POP PUSH1 0x20 DUP2 ADD SWAP1 POP SWAP2 SWAP1 POP JUMP JUMPDEST PUSH1 0x0 PUSH8 0xFFFFFFFFFFFFFFFF DUP3 GT ISZERO PUSH2 0x605 JUMPI PUSH2 0x604 PUSH2 0x7A2 JUMP JUMPDEST JUMPDEST PUSH2 0x60E DUP3 PUSH2 0x7D1 JUMP JUMPDEST SWAP1 POP PUSH1 0x20 DUP2 ADD SWAP1 POP SWAP2 SWAP1 POP JUMP JUMPDEST PUSH1 0x0 DUP2 MLOAD SWAP1 POP SWAP2 SWAP1 POP JUMP JUMPDEST PUSH1 0x0 DUP2 MLOAD SWAP1 POP SWAP2 SWAP1 POP JUMP JUMPDEST PUSH1 0x0 DUP3 DUP3 MSTORE PUSH1 0x20 DUP3 ADD SWAP1 POP SWAP3 SWAP2 POP POP JUMP JUMPDEST PUSH1 0x0 DUP3 DUP3 MSTORE PUSH1 0x20 DUP3 ADD SWAP1 POP SWAP3 SWAP2 POP POP JUMP JUMPDEST PUSH1 0x0 PUSH2 0x65E DUP3 PUSH2 0x6A9 JUMP JUMPDEST SWAP2 POP PUSH2 0x669 DUP4 PUSH2 0x6A9 JUMP JUMPDEST SWAP3 POP DUP3 PUSH8 0xFFFFFFFFFFFFFFFF SUB DUP3 GT ISZERO PUSH2 0x686 JUMPI PUSH2 0x685 PUSH2 0x773 JUMP JUMPDEST JUMPDEST DUP3 DUP3 ADD SWAP1 POP SWAP3 SWAP2 POP POP JUMP JUMPDEST PUSH1 0x0 PUSH2 0xFFFF DUP3 AND SWAP1 POP SWAP2 SWAP1 POP JUMP JUMPDEST PUSH1 0x0 DUP2 SWAP1 POP SWAP2 SWAP1 POP JUMP JUMPDEST PUSH1 0x0 PUSH8 0xFFFFFFFFFFFFFFFF DUP3 AND SWAP1 POP SWAP2 SWAP1 POP JUMP JUMPDEST PUSH1 0x0 PUSH1 0xFF DUP3 AND SWAP1 POP SWAP2 SWAP1 POP JUMP JUMPDEST PUSH1 0x0 PUSH2 0x6D5 DUP3 PUSH2 0x6BD JUMP JUMPDEST SWAP1 POP SWAP2 SWAP1 POP JUMP JUMPDEST PUSH1 0x0 PUSH2 0x6E7 DUP3 PUSH2 0x691 JUMP JUMPDEST SWAP1 POP SWAP2 SWAP1 POP JUMP JUMPDEST PUSH1 0x0 PUSH2 0x6F9 DUP3 PUSH2 0x691 JUMP JUMPDEST SWAP1 POP SWAP2 SWAP1 POP JUMP JUMPDEST DUP3 DUP2 DUP4 CALLDATACOPY PUSH1 0x0 DUP4 DUP4 ADD MSTORE POP POP POP JUMP JUMPDEST PUSH1 0x0 JUMPDEST DUP4 DUP2 LT ISZERO PUSH2 0x72D JUMPI DUP1 DUP3 ADD MLOAD DUP2 DUP5 ADD MSTORE PUSH1 0x20 DUP2 ADD SWAP1 POP PUSH2 0x712 JUMP JUMPDEST DUP4 DUP2 GT ISZERO PUSH2 0x73C JUMPI PUSH1 0x0 DUP5 DUP5 ADD MSTORE JUMPDEST POP POP POP POP JUMP JUMPDEST PUSH2 0x74B DUP3 PUSH2 0x7D1 JUMP JUMPDEST DUP2 ADD DUP2 DUP2 LT PUSH8 0xFFFFFFFFFFFFFFFF DUP3 GT OR ISZERO PUSH2 0x76A JUMPI PUSH2 0x769 PUSH2 0x7A2 JUMP JUMPDEST JUMPDEST DUP1 PUSH1 0x40 MSTORE POP POP POP JUMP JUMPDEST PUSH32 0x4E487B7100000000000000000000000000000000000000000000000000000000 PUSH1 0x0 MSTORE PUSH1 0x11 PUSH1 0x4 MSTORE PUSH1 0x24 PUSH1 0x0 REVERT JUMPDEST PUSH32 0x4E487B7100000000000000000000000000000000000000000000000000000000 PUSH1 0x0 MSTORE PUSH1 0x41 PUSH1 0x4 MSTORE PUSH1 0x24 PUSH1 0x0 REVERT JUMPDEST PUSH1 0x0 PUSH1 0x1F NOT PUSH1 0x1F DUP4 ADD AND SWAP1 POP SWAP2 SWAP1 POP JUMP JUMPDEST PUSH2 0x7EB DUP2 PUSH2 0x69F JUMP JUMPDEST DUP2 EQ PUSH2 0x7F6 JUMPI PUSH1 0x0 DUP1 REVERT JUMPDEST POP JUMP INVALID LOG2 PUSH5 0x6970667358 0x22 SLT KECCAK256 DUP6 0xE4 TIMESTAMP RETURNDATASIZE ADDMOD DUP2 CHAINID 0xAC JUMPDEST SGT PUSH27 0x3559C2113C3A9713B7CE8E55622676A4595F1FA25B64736F6C6343 STOP ADDMOD DIV STOP CALLER "
				},
				"gasEstimates": {
					"creation": {
						"codeDepositCost": "419000",
						"executionCost": "455",
						"totalCost": "419455"
					},
					"external": {
						"abiDecode(bytes)": "infinite",
						"abiEncode()": "infinite",
						"deadline()": "infinite",
						"keccak256test()": "infinite",
						"snapshot()": "infinite",
						"votingDelay()": "382",
						"votingPeriod()": "338"
					}
				},
				"methodIdentifiers": {
					"abiDecode(bytes)": "416bdc52",
					"abiEncode()": "6097e7a3",
					"deadline()": "29dcb0cf",
					"keccak256test()": "8c492a76",
					"snapshot()": "9711715a",
					"votingDelay()": "3932abb1",
					"votingPeriod()": "02a251a3"
				}
			},
			"storageLayout": {
				"storage": [],
				"types": null
			},
			"userdoc": {
				"kind": "user",
				"methods": {},
				"version": 1
			}
		}
	}
}