{
	".workspaces/default_workspace/unMiracle/test.sol": {
		"test": {
			"abi": [
				{
					"inputs": [],
					"name": "deadline",
					"outputs": [
						{
							"internalType": "uint64",
							"name": "",
							"type": "uint64"
						}
					],
					"stateMutability": "view",
					"type": "function"
				},
				{
					"inputs": [],
					"name": "keccak256test",
					"outputs": [
						{
							"internalType": "bytes",
							"name": "",
							"type": "bytes"
						}
					],
					"stateMutability": "nonpayable",
					"type": "function"
				},
				{
					"inputs": [],
					"name": "snapshot",
					"outputs": [
						{
							"internalType": "uint64",
							"name": "",
							"type": "uint64"
						}
					],
					"stateMutability": "view",
					"type": "function"
				},
				{
					"inputs": [],
					"name": "votingDelay",
					"outputs": [
						{
							"internalType": "uint256",
							"name": "",
							"type": "uint256"
						}
					],
					"stateMutability": "pure",
					"type": "function"
				},
				{
					"inputs": [],
					"name": "votingPeriod",
					"outputs": [
						{
							"internalType": "uint256",
							"name": "",
							"type": "uint256"
						}
					],
					"stateMutability": "pure",
					"type": "function"
				}
			],
			"devdoc": {
				"kind": "dev",
				"methods": {},
				"version": 1
			},
			"evm": {
				"assembly": "    /* \".workspaces/default_workspace/unMiracle/test.sol\":170:1125  contract test {... */\n  mstore(0x40, 0x80)\n  callvalue\n  dup1\n  iszero\n  tag_1\n  jumpi\n  0x00\n  dup1\n  revert\ntag_1:\n  pop\n  dataSize(sub_0)\n  dup1\n  dataOffset(sub_0)\n  0x00\n  codecopy\n  0x00\n  return\nstop\n\nsub_0: assembly {\n        /* \".workspaces/default_workspace/unMiracle/test.sol\":170:1125  contract test {... */\n      mstore(0x40, 0x80)\n      callvalue\n      dup1\n      iszero\n      tag_1\n      jumpi\n      0x00\n      dup1\n      revert\n    tag_1:\n      pop\n      jumpi(tag_2, lt(calldatasize, 0x04))\n      shr(0xe0, calldataload(0x00))\n      dup1\n      0x02a251a3\n      eq\n      tag_3\n      jumpi\n      dup1\n      0x29dcb0cf\n      eq\n      tag_4\n      jumpi\n      dup1\n      0x3932abb1\n      eq\n      tag_5\n      jumpi\n      dup1\n      0x8c492a76\n      eq\n      tag_6\n      jumpi\n      dup1\n      0x9711715a\n      eq\n      tag_7\n      jumpi\n    tag_2:\n      0x00\n      dup1\n      revert\n        /* \".workspaces/default_workspace/unMiracle/test.sol\":653:744  function votingPeriod() public pure returns(uint256) {... */\n    tag_3:\n      tag_8\n      tag_9\n      jump\t// in\n    tag_8:\n      mload(0x40)\n      tag_10\n      swap2\n      swap1\n      tag_11\n      jump\t// in\n    tag_10:\n      mload(0x40)\n      dup1\n      swap2\n      sub\n      swap1\n      return\n        /* \".workspaces/default_workspace/unMiracle/test.sol\":909:1123  function deadline() public view returns(uint64) {... */\n    tag_4:\n      tag_12\n      tag_13\n      jump\t// in\n    tag_12:\n      mload(0x40)\n      tag_14\n      swap2\n      swap1\n      tag_15\n      jump\t// in\n    tag_14:\n      mload(0x40)\n      dup1\n      swap2\n      sub\n      swap1\n      return\n        /* \".workspaces/default_workspace/unMiracle/test.sol\":570:647  function votingDelay() public pure returns(uint256) {... */\n    tag_5:\n      tag_16\n      tag_17\n      jump\t// in\n    tag_16:\n      mload(0x40)\n      tag_18\n      swap2\n      swap1\n      tag_11\n      jump\t// in\n    tag_18:\n      mload(0x40)\n      dup1\n      swap2\n      sub\n      swap1\n      return\n        /* \".workspaces/default_workspace/unMiracle/test.sol\":192:563  function keccak256test() public returns(bytes memory) {... */\n    tag_6:\n      tag_19\n      tag_20\n      jump\t// in\n    tag_19:\n      mload(0x40)\n      tag_21\n      swap2\n      swap1\n      tag_22\n      jump\t// in\n    tag_21:\n      mload(0x40)\n      dup1\n      swap2\n      sub\n      swap1\n      return\n        /* \".workspaces/default_workspace/unMiracle/test.sol\":750:903  function snapshot() public view returns(uint64) {... */\n    tag_7:\n      tag_23\n      tag_24\n      jump\t// in\n    tag_23:\n      mload(0x40)\n      tag_25\n      swap2\n      swap1\n      tag_15\n      jump\t// in\n    tag_25:\n      mload(0x40)\n      dup1\n      swap2\n      sub\n      swap1\n      return\n        /* \".workspaces/default_workspace/unMiracle/test.sol\":653:744  function votingPeriod() public pure returns(uint256) {... */\n    tag_9:\n        /* \".workspaces/default_workspace/unMiracle/test.sol\":697:704  uint256 */\n      0x00\n        /* \".workspaces/default_workspace/unMiracle/test.sol\":723:728  45818 */\n      0xb2fa\n        /* \".workspaces/default_workspace/unMiracle/test.sol\":716:728  return 45818 */\n      swap1\n      pop\n        /* \".workspaces/default_workspace/unMiracle/test.sol\":653:744  function votingPeriod() public pure returns(uint256) {... */\n      swap1\n      jump\t// out\n        /* \".workspaces/default_workspace/unMiracle/test.sol\":909:1123  function deadline() public view returns(uint64) {... */\n    tag_13:\n        /* \".workspaces/default_workspace/unMiracle/test.sol\":949:955  uint64 */\n      0x00\n        /* \".workspaces/default_workspace/unMiracle/test.sol\":967:982  uint64 snapshot */\n      dup1\n        /* \".workspaces/default_workspace/unMiracle/test.sol\":1015:1028  votingDelay() */\n      tag_28\n        /* \".workspaces/default_workspace/unMiracle/test.sol\":1015:1026  votingDelay */\n      tag_17\n        /* \".workspaces/default_workspace/unMiracle/test.sol\":1015:1028  votingDelay() */\n      jump\t// in\n    tag_28:\n        /* \".workspaces/default_workspace/unMiracle/test.sol\":992:1004  block.number */\n      number\n        /* \".workspaces/default_workspace/unMiracle/test.sol\":985:1029  uint64(block.number) + uint64(votingDelay()) */\n      tag_29\n      swap2\n      swap1\n      tag_30\n      jump\t// in\n    tag_29:\n        /* \".workspaces/default_workspace/unMiracle/test.sol\":967:1029  uint64 snapshot = uint64(block.number) + uint64(votingDelay()) */\n      swap1\n      pop\n        /* \".workspaces/default_workspace/unMiracle/test.sol\":1039:1054  uint64 deadline */\n      0x00\n        /* \".workspaces/default_workspace/unMiracle/test.sol\":1075:1089  votingPeriod() */\n      tag_31\n        /* \".workspaces/default_workspace/unMiracle/test.sol\":1075:1087  votingPeriod */\n      tag_9\n        /* \".workspaces/default_workspace/unMiracle/test.sol\":1075:1089  votingPeriod() */\n      jump\t// in\n    tag_31:\n        /* \".workspaces/default_workspace/unMiracle/test.sol\":1057:1065  snapshot */\n      dup3\n        /* \".workspaces/default_workspace/unMiracle/test.sol\":1057:1090  snapshot + uint64(votingPeriod()) */\n      tag_32\n      swap2\n      swap1\n      tag_30\n      jump\t// in\n    tag_32:\n        /* \".workspaces/default_workspace/unMiracle/test.sol\":1039:1090  uint64 deadline = snapshot + uint64(votingPeriod()) */\n      swap1\n      pop\n        /* \".workspaces/default_workspace/unMiracle/test.sol\":1108:1116  deadline */\n      dup1\n        /* \".workspaces/default_workspace/unMiracle/test.sol\":1101:1116  return deadline */\n      swap3\n      pop\n      pop\n      pop\n        /* \".workspaces/default_workspace/unMiracle/test.sol\":909:1123  function deadline() public view returns(uint64) {... */\n      swap1\n      jump\t// out\n        /* \".workspaces/default_workspace/unMiracle/test.sol\":570:647  function votingDelay() public pure returns(uint256) {... */\n    tag_17:\n        /* \".workspaces/default_workspace/unMiracle/test.sol\":613:620  uint256 */\n      0x00\n        /* \".workspaces/default_workspace/unMiracle/test.sol\":639:640  1 */\n      0x01\n        /* \".workspaces/default_workspace/unMiracle/test.sol\":632:640  return 1 */\n      swap1\n      pop\n        /* \".workspaces/default_workspace/unMiracle/test.sol\":570:647  function votingDelay() public pure returns(uint256) {... */\n      swap1\n      jump\t// out\n        /* \".workspaces/default_workspace/unMiracle/test.sol\":192:563  function keccak256test() public returns(bytes memory) {... */\n    tag_20:\n        /* \".workspaces/default_workspace/unMiracle/test.sol\":232:244  bytes memory */\n      0x60\n        /* \".workspaces/default_workspace/unMiracle/test.sol\":423:556  abi.encode([msg.sender],[0], [\"0xec9ec573cf97ad1c270be71ac1de3b382790cb346036130c7d7ff844bf8f4974\"], keccak256(bytes(\"description\"))) */\n      mload(0x40)\n      dup1\n      0x20\n      add\n      0x40\n      mstore\n      dup1\n        /* \".workspaces/default_workspace/unMiracle/test.sol\":435:445  msg.sender */\n      caller\n        /* \".workspaces/default_workspace/unMiracle/test.sol\":423:556  abi.encode([msg.sender],[0], [\"0xec9ec573cf97ad1c270be71ac1de3b382790cb346036130c7d7ff844bf8f4974\"], keccak256(bytes(\"description\"))) */\n      0xffffffffffffffffffffffffffffffffffffffff\n      and\n      0xffffffffffffffffffffffffffffffffffffffff\n      and\n      dup2\n      mstore\n      pop\n      mload(0x40)\n      dup1\n      0x20\n      add\n      0x40\n      mstore\n      dup1\n        /* \".workspaces/default_workspace/unMiracle/test.sol\":448:449  0 */\n      0x00\n        /* \".workspaces/default_workspace/unMiracle/test.sol\":423:556  abi.encode([msg.sender],[0], [\"0xec9ec573cf97ad1c270be71ac1de3b382790cb346036130c7d7ff844bf8f4974\"], keccak256(bytes(\"description\"))) */\n      0xff\n      and\n      dup2\n      mstore\n      pop\n      mload(0x40)\n      dup1\n      0x20\n      add\n      0x40\n      mstore\n      dup1\n      mload(0x40)\n      dup1\n      0x80\n      add\n      0x40\n      mstore\n      dup1\n      0x42\n      dup2\n      mstore\n      0x20\n      add\n      data_a428f9fec05421f4dc16bec28fa8b467c785cdc730e37b87e7ea236e0f5ce1fa\n      0x42\n      swap2\n      codecopy\n      dup2\n      mstore\n      pop\n        /* \".workspaces/default_workspace/unMiracle/test.sol\":534:554  bytes(\"description\") */\n      mload(0x40)\n      dup1\n      0x40\n      add\n      0x40\n      mstore\n      dup1\n      0x0b\n      dup2\n      mstore\n      0x20\n      add\n      0x6465736372697074696f6e000000000000000000000000000000000000000000\n      dup2\n      mstore\n      pop\n        /* \".workspaces/default_workspace/unMiracle/test.sol\":524:555  keccak256(bytes(\"description\")) */\n      dup1\n      mload\n      swap1\n      0x20\n      add\n      keccak256\n        /* \".workspaces/default_workspace/unMiracle/test.sol\":423:556  abi.encode([msg.sender],[0], [\"0xec9ec573cf97ad1c270be71ac1de3b382790cb346036130c7d7ff844bf8f4974\"], keccak256(bytes(\"description\"))) */\n      add(0x20, mload(0x40))\n      tag_35\n      swap5\n      swap4\n      swap3\n      swap2\n      swap1\n      tag_36\n      jump\t// in\n    tag_35:\n      mload(0x40)\n      0x20\n      dup2\n      dup4\n      sub\n      sub\n      dup2\n      mstore\n      swap1\n      0x40\n      mstore\n        /* \".workspaces/default_workspace/unMiracle/test.sol\":416:556  return abi.encode([msg.sender],[0], [\"0xec9ec573cf97ad1c270be71ac1de3b382790cb346036130c7d7ff844bf8f4974\"], keccak256(bytes(\"description\"))) */\n      swap1\n      pop\n        /* \".workspaces/default_workspace/unMiracle/test.sol\":192:563  function keccak256test() public returns(bytes memory) {... */\n      swap1\n      jump\t// out\n        /* \".workspaces/default_workspace/unMiracle/test.sol\":750:903  function snapshot() public view returns(uint64) {... */\n    tag_24:\n        /* \".workspaces/default_workspace/unMiracle/test.sol\":790:796  uint64 */\n      0x00\n        /* \".workspaces/default_workspace/unMiracle/test.sol\":808:823  uint64 snapshot */\n      dup1\n        /* \".workspaces/default_workspace/unMiracle/test.sol\":856:869  votingDelay() */\n      tag_38\n        /* \".workspaces/default_workspace/unMiracle/test.sol\":856:867  votingDelay */\n      tag_17\n        /* \".workspaces/default_workspace/unMiracle/test.sol\":856:869  votingDelay() */\n      jump\t// in\n    tag_38:\n        /* \".workspaces/default_workspace/unMiracle/test.sol\":833:845  block.number */\n      number\n        /* \".workspaces/default_workspace/unMiracle/test.sol\":826:870  uint64(block.number) + uint64(votingDelay()) */\n      tag_39\n      swap2\n      swap1\n      tag_30\n      jump\t// in\n    tag_39:\n        /* \".workspaces/default_workspace/unMiracle/test.sol\":808:870  uint64 snapshot = uint64(block.number) + uint64(votingDelay()) */\n      swap1\n      pop\n        /* \".workspaces/default_workspace/unMiracle/test.sol\":888:896  snapshot */\n      dup1\n        /* \".workspaces/default_workspace/unMiracle/test.sol\":881:896  return snapshot */\n      swap2\n      pop\n      pop\n        /* \".workspaces/default_workspace/unMiracle/test.sol\":750:903  function snapshot() public view returns(uint64) {... */\n      swap1\n      jump\t// out\n        /* \"#utility.yul\":7:186   */\n    tag_41:\n        /* \"#utility.yul\":76:86   */\n      0x00\n        /* \"#utility.yul\":97:143   */\n      tag_43\n        /* \"#utility.yul\":139:142   */\n      dup4\n        /* \"#utility.yul\":131:137   */\n      dup4\n        /* \"#utility.yul\":97:143   */\n      tag_44\n      jump\t// in\n    tag_43:\n        /* \"#utility.yul\":175:179   */\n      0x20\n        /* \"#utility.yul\":170:173   */\n      dup4\n        /* \"#utility.yul\":166:180   */\n      add\n        /* \"#utility.yul\":152:180   */\n      swap1\n      pop\n        /* \"#utility.yul\":87:186   */\n      swap3\n      swap2\n      pop\n      pop\n      jump\t// out\n        /* \"#utility.yul\":192:388   */\n    tag_45:\n        /* \"#utility.yul\":281:291   */\n      0x00\n        /* \"#utility.yul\":316:382   */\n      tag_47\n        /* \"#utility.yul\":378:381   */\n      dup4\n        /* \"#utility.yul\":370:376   */\n      dup4\n        /* \"#utility.yul\":316:382   */\n      tag_48\n      jump\t// in\n    tag_47:\n        /* \"#utility.yul\":302:382   */\n      swap1\n      pop\n        /* \"#utility.yul\":292:388   */\n      swap3\n      swap2\n      pop\n      pop\n      jump\t// out\n        /* \"#utility.yul\":394:565   */\n    tag_49:\n        /* \"#utility.yul\":459:469   */\n      0x00\n        /* \"#utility.yul\":480:522   */\n      tag_51\n        /* \"#utility.yul\":518:521   */\n      dup4\n        /* \"#utility.yul\":510:516   */\n      dup4\n        /* \"#utility.yul\":480:522   */\n      tag_52\n      jump\t// in\n    tag_51:\n        /* \"#utility.yul\":554:558   */\n      0x20\n        /* \"#utility.yul\":549:552   */\n      dup4\n        /* \"#utility.yul\":545:559   */\n      add\n        /* \"#utility.yul\":531:559   */\n      swap1\n      pop\n        /* \"#utility.yul\":470:565   */\n      swap3\n      swap2\n      pop\n      pop\n      jump\t// out\n        /* \"#utility.yul\":571:679   */\n    tag_44:\n        /* \"#utility.yul\":648:672   */\n      tag_54\n        /* \"#utility.yul\":666:671   */\n      dup2\n        /* \"#utility.yul\":648:672   */\n      tag_55\n      jump\t// in\n    tag_54:\n        /* \"#utility.yul\":643:646   */\n      dup3\n        /* \"#utility.yul\":636:673   */\n      mstore\n        /* \"#utility.yul\":626:679   */\n      pop\n      pop\n      jump\t// out\n        /* \"#utility.yul\":717:1411   */\n    tag_56:\n        /* \"#utility.yul\":853:905   */\n      tag_58\n        /* \"#utility.yul\":899:904   */\n      dup2\n        /* \"#utility.yul\":853:905   */\n      tag_59\n      jump\t// in\n    tag_58:\n        /* \"#utility.yul\":921:1005   */\n      tag_60\n        /* \"#utility.yul\":998:1004   */\n      dup2\n        /* \"#utility.yul\":993:996   */\n      dup5\n        /* \"#utility.yul\":921:1005   */\n      tag_61\n      jump\t// in\n    tag_60:\n        /* \"#utility.yul\":914:1005   */\n      swap3\n      pop\n        /* \"#utility.yul\":1029:1083   */\n      tag_62\n        /* \"#utility.yul\":1077:1082   */\n      dup3\n        /* \"#utility.yul\":1029:1083   */\n      tag_63\n      jump\t// in\n    tag_62:\n        /* \"#utility.yul\":1106:1113   */\n      dup1\n        /* \"#utility.yul\":1137:1138   */\n      0x00\n        /* \"#utility.yul\":1122:1404   */\n    tag_64:\n        /* \"#utility.yul\":1147:1153   */\n      dup4\n        /* \"#utility.yul\":1144:1145   */\n      dup2\n        /* \"#utility.yul\":1141:1154   */\n      lt\n        /* \"#utility.yul\":1122:1404   */\n      iszero\n      tag_66\n      jumpi\n        /* \"#utility.yul\":1223:1229   */\n      dup2\n        /* \"#utility.yul\":1217:1230   */\n      mload\n        /* \"#utility.yul\":1250:1313   */\n      tag_67\n        /* \"#utility.yul\":1309:1312   */\n      dup8\n        /* \"#utility.yul\":1294:1307   */\n      dup3\n        /* \"#utility.yul\":1250:1313   */\n      tag_41\n      jump\t// in\n    tag_67:\n        /* \"#utility.yul\":1243:1313   */\n      swap7\n      pop\n        /* \"#utility.yul\":1336:1394   */\n      tag_68\n        /* \"#utility.yul\":1387:1393   */\n      dup4\n        /* \"#utility.yul\":1336:1394   */\n      tag_69\n      jump\t// in\n    tag_68:\n        /* \"#utility.yul\":1326:1394   */\n      swap3\n      pop\n        /* \"#utility.yul\":1182:1404   */\n      pop\n        /* \"#utility.yul\":1169:1170   */\n      0x01\n        /* \"#utility.yul\":1166:1167   */\n      dup2\n        /* \"#utility.yul\":1162:1171   */\n      add\n        /* \"#utility.yul\":1157:1171   */\n      swap1\n      pop\n        /* \"#utility.yul\":1122:1404   */\n      jump(tag_64)\n    tag_66:\n        /* \"#utility.yul\":1126:1140   */\n      pop\n        /* \"#utility.yul\":829:1411   */\n      pop\n      pop\n      pop\n      pop\n      pop\n      jump\t// out\n        /* \"#utility.yul\":1447:2426   */\n    tag_70:\n        /* \"#utility.yul\":1582:1585   */\n      0x00\n        /* \"#utility.yul\":1611:1673   */\n      tag_72\n        /* \"#utility.yul\":1667:1672   */\n      dup3\n        /* \"#utility.yul\":1611:1673   */\n      tag_73\n      jump\t// in\n    tag_72:\n        /* \"#utility.yul\":1689:1783   */\n      tag_74\n        /* \"#utility.yul\":1776:1782   */\n      dup2\n        /* \"#utility.yul\":1771:1774   */\n      dup6\n        /* \"#utility.yul\":1689:1783   */\n      tag_75\n      jump\t// in\n    tag_74:\n        /* \"#utility.yul\":1682:1783   */\n      swap4\n      pop\n        /* \"#utility.yul\":1809:1812   */\n      dup4\n        /* \"#utility.yul\":1854:1858   */\n      0x20\n        /* \"#utility.yul\":1846:1852   */\n      dup3\n        /* \"#utility.yul\":1842:1859   */\n      mul\n        /* \"#utility.yul\":1837:1840   */\n      dup6\n        /* \"#utility.yul\":1833:1860   */\n      add\n        /* \"#utility.yul\":1884:1948   */\n      tag_76\n        /* \"#utility.yul\":1942:1947   */\n      dup6\n        /* \"#utility.yul\":1884:1948   */\n      tag_77\n      jump\t// in\n    tag_76:\n        /* \"#utility.yul\":1971:1978   */\n      dup1\n        /* \"#utility.yul\":2002:2003   */\n      0x00\n        /* \"#utility.yul\":1987:2381   */\n    tag_78:\n        /* \"#utility.yul\":2012:2018   */\n      dup6\n        /* \"#utility.yul\":2009:2010   */\n      dup2\n        /* \"#utility.yul\":2006:2019   */\n      lt\n        /* \"#utility.yul\":1987:2381   */\n      iszero\n      tag_80\n      jumpi\n        /* \"#utility.yul\":2083:2092   */\n      dup5\n        /* \"#utility.yul\":2077:2081   */\n      dup5\n        /* \"#utility.yul\":2073:2093   */\n      sub\n        /* \"#utility.yul\":2068:2071   */\n      dup10\n        /* \"#utility.yul\":2061:2094   */\n      mstore\n        /* \"#utility.yul\":2134:2140   */\n      dup2\n        /* \"#utility.yul\":2128:2141   */\n      mload\n        /* \"#utility.yul\":2162:2246   */\n      tag_81\n        /* \"#utility.yul\":2241:2245   */\n      dup6\n        /* \"#utility.yul\":2226:2239   */\n      dup3\n        /* \"#utility.yul\":2162:2246   */\n      tag_45\n      jump\t// in\n    tag_81:\n        /* \"#utility.yul\":2154:2246   */\n      swap5\n      pop\n        /* \"#utility.yul\":2269:2337   */\n      tag_82\n        /* \"#utility.yul\":2330:2336   */\n      dup4\n        /* \"#utility.yul\":2269:2337   */\n      tag_83\n      jump\t// in\n    tag_82:\n        /* \"#utility.yul\":2259:2337   */\n      swap3\n      pop\n        /* \"#utility.yul\":2366:2370   */\n      0x20\n        /* \"#utility.yul\":2361:2364   */\n      dup11\n        /* \"#utility.yul\":2357:2371   */\n      add\n        /* \"#utility.yul\":2350:2371   */\n      swap10\n      pop\n        /* \"#utility.yul\":2047:2381   */\n      pop\n        /* \"#utility.yul\":2034:2035   */\n      0x01\n        /* \"#utility.yul\":2031:2032   */\n      dup2\n        /* \"#utility.yul\":2027:2036   */\n      add\n        /* \"#utility.yul\":2022:2036   */\n      swap1\n      pop\n        /* \"#utility.yul\":1987:2381   */\n      jump(tag_78)\n    tag_80:\n        /* \"#utility.yul\":1991:2005   */\n      pop\n        /* \"#utility.yul\":2397:2401   */\n      dup3\n        /* \"#utility.yul\":2390:2401   */\n      swap8\n      pop\n        /* \"#utility.yul\":2417:2420   */\n      dup8\n        /* \"#utility.yul\":2410:2420   */\n      swap6\n      pop\n        /* \"#utility.yul\":1587:2426   */\n      pop\n      pop\n      pop\n      pop\n      pop\n      swap3\n      swap2\n      pop\n      pop\n      jump\t// out\n        /* \"#utility.yul\":2460:3138   */\n    tag_84:\n        /* \"#utility.yul\":2592:2642   */\n      tag_86\n        /* \"#utility.yul\":2636:2641   */\n      dup2\n        /* \"#utility.yul\":2592:2642   */\n      tag_87\n      jump\t// in\n    tag_86:\n        /* \"#utility.yul\":2658:2740   */\n      tag_88\n        /* \"#utility.yul\":2733:2739   */\n      dup2\n        /* \"#utility.yul\":2728:2731   */\n      dup5\n        /* \"#utility.yul\":2658:2740   */\n      tag_89\n      jump\t// in\n    tag_88:\n        /* \"#utility.yul\":2651:2740   */\n      swap3\n      pop\n        /* \"#utility.yul\":2764:2816   */\n      tag_90\n        /* \"#utility.yul\":2810:2815   */\n      dup3\n        /* \"#utility.yul\":2764:2816   */\n      tag_91\n      jump\t// in\n    tag_90:\n        /* \"#utility.yul\":2839:2846   */\n      dup1\n        /* \"#utility.yul\":2870:2871   */\n      0x00\n        /* \"#utility.yul\":2855:3131   */\n    tag_92:\n        /* \"#utility.yul\":2880:2886   */\n      dup4\n        /* \"#utility.yul\":2877:2878   */\n      dup2\n        /* \"#utility.yul\":2874:2887   */\n      lt\n        /* \"#utility.yul\":2855:3131   */\n      iszero\n      tag_94\n      jumpi\n        /* \"#utility.yul\":2956:2962   */\n      dup2\n        /* \"#utility.yul\":2950:2963   */\n      mload\n        /* \"#utility.yul\":2983:3042   */\n      tag_95\n        /* \"#utility.yul\":3038:3041   */\n      dup8\n        /* \"#utility.yul\":3023:3036   */\n      dup3\n        /* \"#utility.yul\":2983:3042   */\n      tag_49\n      jump\t// in\n    tag_95:\n        /* \"#utility.yul\":2976:3042   */\n      swap7\n      pop\n        /* \"#utility.yul\":3065:3121   */\n      tag_96\n        /* \"#utility.yul\":3114:3120   */\n      dup4\n        /* \"#utility.yul\":3065:3121   */\n      tag_97\n      jump\t// in\n    tag_96:\n        /* \"#utility.yul\":3055:3121   */\n      swap3\n      pop\n        /* \"#utility.yul\":2915:3131   */\n      pop\n        /* \"#utility.yul\":2902:2903   */\n      0x01\n        /* \"#utility.yul\":2899:2900   */\n      dup2\n        /* \"#utility.yul\":2895:2904   */\n      add\n        /* \"#utility.yul\":2890:2904   */\n      swap1\n      pop\n        /* \"#utility.yul\":2855:3131   */\n      jump(tag_92)\n    tag_94:\n        /* \"#utility.yul\":2859:2873   */\n      pop\n        /* \"#utility.yul\":2568:3138   */\n      pop\n      pop\n      pop\n      pop\n      pop\n      jump\t// out\n        /* \"#utility.yul\":3144:3262   */\n    tag_98:\n        /* \"#utility.yul\":3231:3255   */\n      tag_100\n        /* \"#utility.yul\":3249:3254   */\n      dup2\n        /* \"#utility.yul\":3231:3255   */\n      tag_101\n      jump\t// in\n    tag_100:\n        /* \"#utility.yul\":3226:3229   */\n      dup3\n        /* \"#utility.yul\":3219:3256   */\n      mstore\n        /* \"#utility.yul\":3209:3262   */\n      pop\n      pop\n      jump\t// out\n        /* \"#utility.yul\":3268:3628   */\n    tag_102:\n        /* \"#utility.yul\":3354:3357   */\n      0x00\n        /* \"#utility.yul\":3382:3420   */\n      tag_104\n        /* \"#utility.yul\":3414:3419   */\n      dup3\n        /* \"#utility.yul\":3382:3420   */\n      tag_105\n      jump\t// in\n    tag_104:\n        /* \"#utility.yul\":3436:3506   */\n      tag_106\n        /* \"#utility.yul\":3499:3505   */\n      dup2\n        /* \"#utility.yul\":3494:3497   */\n      dup6\n        /* \"#utility.yul\":3436:3506   */\n      tag_107\n      jump\t// in\n    tag_106:\n        /* \"#utility.yul\":3429:3506   */\n      swap4\n      pop\n        /* \"#utility.yul\":3515:3567   */\n      tag_108\n        /* \"#utility.yul\":3560:3566   */\n      dup2\n        /* \"#utility.yul\":3555:3558   */\n      dup6\n        /* \"#utility.yul\":3548:3552   */\n      0x20\n        /* \"#utility.yul\":3541:3546   */\n      dup7\n        /* \"#utility.yul\":3537:3553   */\n      add\n        /* \"#utility.yul\":3515:3567   */\n      tag_109\n      jump\t// in\n    tag_108:\n        /* \"#utility.yul\":3592:3621   */\n      tag_110\n        /* \"#utility.yul\":3614:3620   */\n      dup2\n        /* \"#utility.yul\":3592:3621   */\n      tag_111\n      jump\t// in\n    tag_110:\n        /* \"#utility.yul\":3587:3590   */\n      dup5\n        /* \"#utility.yul\":3583:3622   */\n      add\n        /* \"#utility.yul\":3576:3622   */\n      swap2\n      pop\n        /* \"#utility.yul\":3358:3628   */\n      pop\n      swap3\n      swap2\n      pop\n      pop\n      jump\t// out\n        /* \"#utility.yul\":3634:3978   */\n    tag_48:\n        /* \"#utility.yul\":3712:3715   */\n      0x00\n        /* \"#utility.yul\":3740:3779   */\n      tag_113\n        /* \"#utility.yul\":3773:3778   */\n      dup3\n        /* \"#utility.yul\":3740:3779   */\n      tag_114\n      jump\t// in\n    tag_113:\n        /* \"#utility.yul\":3795:3856   */\n      tag_115\n        /* \"#utility.yul\":3849:3855   */\n      dup2\n        /* \"#utility.yul\":3844:3847   */\n      dup6\n        /* \"#utility.yul\":3795:3856   */\n      tag_116\n      jump\t// in\n    tag_115:\n        /* \"#utility.yul\":3788:3856   */\n      swap4\n      pop\n        /* \"#utility.yul\":3865:3917   */\n      tag_117\n        /* \"#utility.yul\":3910:3916   */\n      dup2\n        /* \"#utility.yul\":3905:3908   */\n      dup6\n        /* \"#utility.yul\":3898:3902   */\n      0x20\n        /* \"#utility.yul\":3891:3896   */\n      dup7\n        /* \"#utility.yul\":3887:3903   */\n      add\n        /* \"#utility.yul\":3865:3917   */\n      tag_109\n      jump\t// in\n    tag_117:\n        /* \"#utility.yul\":3942:3971   */\n      tag_118\n        /* \"#utility.yul\":3964:3970   */\n      dup2\n        /* \"#utility.yul\":3942:3971   */\n      tag_111\n      jump\t// in\n    tag_118:\n        /* \"#utility.yul\":3937:3940   */\n      dup5\n        /* \"#utility.yul\":3933:3972   */\n      add\n        /* \"#utility.yul\":3926:3972   */\n      swap2\n      pop\n        /* \"#utility.yul\":3716:3978   */\n      pop\n      swap3\n      swap2\n      pop\n      pop\n      jump\t// out\n        /* \"#utility.yul\":3984:4102   */\n    tag_119:\n        /* \"#utility.yul\":4071:4095   */\n      tag_121\n        /* \"#utility.yul\":4089:4094   */\n      dup2\n        /* \"#utility.yul\":4071:4095   */\n      tag_122\n      jump\t// in\n    tag_121:\n        /* \"#utility.yul\":4066:4069   */\n      dup3\n        /* \"#utility.yul\":4059:4096   */\n      mstore\n        /* \"#utility.yul\":4049:4102   */\n      pop\n      pop\n      jump\t// out\n        /* \"#utility.yul\":4108:4223   */\n    tag_123:\n        /* \"#utility.yul\":4193:4216   */\n      tag_125\n        /* \"#utility.yul\":4210:4215   */\n      dup2\n        /* \"#utility.yul\":4193:4216   */\n      tag_126\n      jump\t// in\n    tag_125:\n        /* \"#utility.yul\":4188:4191   */\n      dup3\n        /* \"#utility.yul\":4181:4217   */\n      mstore\n        /* \"#utility.yul\":4171:4223   */\n      pop\n      pop\n      jump\t// out\n        /* \"#utility.yul\":4229:4331   */\n    tag_52:\n        /* \"#utility.yul\":4302:4324   */\n      tag_128\n        /* \"#utility.yul\":4318:4323   */\n      dup2\n        /* \"#utility.yul\":4302:4324   */\n      tag_129\n      jump\t// in\n    tag_128:\n        /* \"#utility.yul\":4297:4300   */\n      dup3\n        /* \"#utility.yul\":4290:4325   */\n      mstore\n        /* \"#utility.yul\":4280:4331   */\n      pop\n      pop\n      jump\t// out\n        /* \"#utility.yul\":4337:5249   */\n    tag_36:\n        /* \"#utility.yul\":4668:4672   */\n      0x00\n        /* \"#utility.yul\":4706:4709   */\n      0x80\n        /* \"#utility.yul\":4695:4704   */\n      dup3\n        /* \"#utility.yul\":4691:4710   */\n      add\n        /* \"#utility.yul\":4683:4710   */\n      swap1\n      pop\n        /* \"#utility.yul\":4720:4837   */\n      tag_131\n        /* \"#utility.yul\":4834:4835   */\n      0x00\n        /* \"#utility.yul\":4823:4832   */\n      dup4\n        /* \"#utility.yul\":4819:4836   */\n      add\n        /* \"#utility.yul\":4810:4816   */\n      dup8\n        /* \"#utility.yul\":4720:4837   */\n      tag_56\n      jump\t// in\n    tag_131:\n        /* \"#utility.yul\":4847:4961   */\n      tag_132\n        /* \"#utility.yul\":4957:4959   */\n      0x20\n        /* \"#utility.yul\":4946:4955   */\n      dup4\n        /* \"#utility.yul\":4942:4960   */\n      add\n        /* \"#utility.yul\":4933:4939   */\n      dup7\n        /* \"#utility.yul\":4847:4961   */\n      tag_84\n      jump\t// in\n    tag_132:\n        /* \"#utility.yul\":5008:5017   */\n      dup2\n        /* \"#utility.yul\":5002:5006   */\n      dup2\n        /* \"#utility.yul\":4998:5018   */\n      sub\n        /* \"#utility.yul\":4993:4995   */\n      0x40\n        /* \"#utility.yul\":4982:4991   */\n      dup4\n        /* \"#utility.yul\":4978:4996   */\n      add\n        /* \"#utility.yul\":4971:5019   */\n      mstore\n        /* \"#utility.yul\":5036:5160   */\n      tag_133\n        /* \"#utility.yul\":5155:5159   */\n      dup2\n        /* \"#utility.yul\":5146:5152   */\n      dup6\n        /* \"#utility.yul\":5036:5160   */\n      tag_70\n      jump\t// in\n    tag_133:\n        /* \"#utility.yul\":5028:5160   */\n      swap1\n      pop\n        /* \"#utility.yul\":5170:5242   */\n      tag_134\n        /* \"#utility.yul\":5238:5240   */\n      0x60\n        /* \"#utility.yul\":5227:5236   */\n      dup4\n        /* \"#utility.yul\":5223:5241   */\n      add\n        /* \"#utility.yul\":5214:5220   */\n      dup5\n        /* \"#utility.yul\":5170:5242   */\n      tag_98\n      jump\t// in\n    tag_134:\n        /* \"#utility.yul\":4673:5249   */\n      swap6\n      swap5\n      pop\n      pop\n      pop\n      pop\n      pop\n      jump\t// out\n        /* \"#utility.yul\":5255:5564   */\n    tag_22:\n        /* \"#utility.yul\":5366:5370   */\n      0x00\n        /* \"#utility.yul\":5404:5406   */\n      0x20\n        /* \"#utility.yul\":5393:5402   */\n      dup3\n        /* \"#utility.yul\":5389:5407   */\n      add\n        /* \"#utility.yul\":5381:5407   */\n      swap1\n      pop\n        /* \"#utility.yul\":5453:5462   */\n      dup2\n        /* \"#utility.yul\":5447:5451   */\n      dup2\n        /* \"#utility.yul\":5443:5463   */\n      sub\n        /* \"#utility.yul\":5439:5440   */\n      0x00\n        /* \"#utility.yul\":5428:5437   */\n      dup4\n        /* \"#utility.yul\":5424:5441   */\n      add\n        /* \"#utility.yul\":5417:5464   */\n      mstore\n        /* \"#utility.yul\":5481:5557   */\n      tag_136\n        /* \"#utility.yul\":5552:5556   */\n      dup2\n        /* \"#utility.yul\":5543:5549   */\n      dup5\n        /* \"#utility.yul\":5481:5557   */\n      tag_102\n      jump\t// in\n    tag_136:\n        /* \"#utility.yul\":5473:5557   */\n      swap1\n      pop\n        /* \"#utility.yul\":5371:5564   */\n      swap3\n      swap2\n      pop\n      pop\n      jump\t// out\n        /* \"#utility.yul\":5570:5792   */\n    tag_11:\n        /* \"#utility.yul\":5663:5667   */\n      0x00\n        /* \"#utility.yul\":5701:5703   */\n      0x20\n        /* \"#utility.yul\":5690:5699   */\n      dup3\n        /* \"#utility.yul\":5686:5704   */\n      add\n        /* \"#utility.yul\":5678:5704   */\n      swap1\n      pop\n        /* \"#utility.yul\":5714:5785   */\n      tag_138\n        /* \"#utility.yul\":5782:5783   */\n      0x00\n        /* \"#utility.yul\":5771:5780   */\n      dup4\n        /* \"#utility.yul\":5767:5784   */\n      add\n        /* \"#utility.yul\":5758:5764   */\n      dup5\n        /* \"#utility.yul\":5714:5785   */\n      tag_119\n      jump\t// in\n    tag_138:\n        /* \"#utility.yul\":5668:5792   */\n      swap3\n      swap2\n      pop\n      pop\n      jump\t// out\n        /* \"#utility.yul\":5798:6016   */\n    tag_15:\n        /* \"#utility.yul\":5889:5893   */\n      0x00\n        /* \"#utility.yul\":5927:5929   */\n      0x20\n        /* \"#utility.yul\":5916:5925   */\n      dup3\n        /* \"#utility.yul\":5912:5930   */\n      add\n        /* \"#utility.yul\":5904:5930   */\n      swap1\n      pop\n        /* \"#utility.yul\":5940:6009   */\n      tag_140\n        /* \"#utility.yul\":6006:6007   */\n      0x00\n        /* \"#utility.yul\":5995:6004   */\n      dup4\n        /* \"#utility.yul\":5991:6008   */\n      add\n        /* \"#utility.yul\":5982:5988   */\n      dup5\n        /* \"#utility.yul\":5940:6009   */\n      tag_123\n      jump\t// in\n    tag_140:\n        /* \"#utility.yul\":5894:6016   */\n      swap3\n      swap2\n      pop\n      pop\n      jump\t// out\n        /* \"#utility.yul\":6022:6120   */\n    tag_63:\n        /* \"#utility.yul\":6087:6091   */\n      0x00\n        /* \"#utility.yul\":6110:6113   */\n      dup2\n        /* \"#utility.yul\":6102:6113   */\n      swap1\n      pop\n        /* \"#utility.yul\":6092:6120   */\n      swap2\n      swap1\n      pop\n      jump\t// out\n        /* \"#utility.yul\":6126:6234   */\n    tag_77:\n        /* \"#utility.yul\":6201:6205   */\n      0x00\n        /* \"#utility.yul\":6224:6227   */\n      dup2\n        /* \"#utility.yul\":6216:6227   */\n      swap1\n      pop\n        /* \"#utility.yul\":6206:6234   */\n      swap2\n      swap1\n      pop\n      jump\t// out\n        /* \"#utility.yul\":6240:6336   */\n    tag_91:\n        /* \"#utility.yul\":6303:6307   */\n      0x00\n        /* \"#utility.yul\":6326:6329   */\n      dup2\n        /* \"#utility.yul\":6318:6329   */\n      swap1\n      pop\n        /* \"#utility.yul\":6308:6336   */\n      swap2\n      swap1\n      pop\n      jump\t// out\n        /* \"#utility.yul\":6342:6446   */\n    tag_59:\n        /* \"#utility.yul\":6407:6413   */\n      0x00\n        /* \"#utility.yul\":6435:6439   */\n      0x01\n        /* \"#utility.yul\":6425:6439   */\n      swap1\n      pop\n        /* \"#utility.yul\":6414:6446   */\n      swap2\n      swap1\n      pop\n      jump\t// out\n        /* \"#utility.yul\":6452:6566   */\n    tag_73:\n        /* \"#utility.yul\":6527:6533   */\n      0x00\n        /* \"#utility.yul\":6555:6559   */\n      0x01\n        /* \"#utility.yul\":6545:6559   */\n      swap1\n      pop\n        /* \"#utility.yul\":6534:6566   */\n      swap2\n      swap1\n      pop\n      jump\t// out\n        /* \"#utility.yul\":6572:6674   */\n    tag_87:\n        /* \"#utility.yul\":6635:6641   */\n      0x00\n        /* \"#utility.yul\":6663:6667   */\n      0x01\n        /* \"#utility.yul\":6653:6667   */\n      swap1\n      pop\n        /* \"#utility.yul\":6642:6674   */\n      swap2\n      swap1\n      pop\n      jump\t// out\n        /* \"#utility.yul\":6680:6778   */\n    tag_105:\n        /* \"#utility.yul\":6731:6737   */\n      0x00\n        /* \"#utility.yul\":6765:6770   */\n      dup2\n        /* \"#utility.yul\":6759:6771   */\n      mload\n        /* \"#utility.yul\":6749:6771   */\n      swap1\n      pop\n        /* \"#utility.yul\":6738:6778   */\n      swap2\n      swap1\n      pop\n      jump\t// out\n        /* \"#utility.yul\":6784:6883   */\n    tag_114:\n        /* \"#utility.yul\":6836:6842   */\n      0x00\n        /* \"#utility.yul\":6870:6875   */\n      dup2\n        /* \"#utility.yul\":6864:6876   */\n      mload\n        /* \"#utility.yul\":6854:6876   */\n      swap1\n      pop\n        /* \"#utility.yul\":6843:6883   */\n      swap2\n      swap1\n      pop\n      jump\t// out\n        /* \"#utility.yul\":6889:7000   */\n    tag_69:\n        /* \"#utility.yul\":6957:6961   */\n      0x00\n        /* \"#utility.yul\":6989:6993   */\n      0x20\n        /* \"#utility.yul\":6984:6987   */\n      dup3\n        /* \"#utility.yul\":6980:6994   */\n      add\n        /* \"#utility.yul\":6972:6994   */\n      swap1\n      pop\n        /* \"#utility.yul\":6962:7000   */\n      swap2\n      swap1\n      pop\n      jump\t// out\n        /* \"#utility.yul\":7006:7127   */\n    tag_83:\n        /* \"#utility.yul\":7084:7088   */\n      0x00\n        /* \"#utility.yul\":7116:7120   */\n      0x20\n        /* \"#utility.yul\":7111:7114   */\n      dup3\n        /* \"#utility.yul\":7107:7121   */\n      add\n        /* \"#utility.yul\":7099:7121   */\n      swap1\n      pop\n        /* \"#utility.yul\":7089:7127   */\n      swap2\n      swap1\n      pop\n      jump\t// out\n        /* \"#utility.yul\":7133:7242   */\n    tag_97:\n        /* \"#utility.yul\":7199:7203   */\n      0x00\n        /* \"#utility.yul\":7231:7235   */\n      0x20\n        /* \"#utility.yul\":7226:7229   */\n      dup3\n        /* \"#utility.yul\":7222:7236   */\n      add\n        /* \"#utility.yul\":7214:7236   */\n      swap1\n      pop\n        /* \"#utility.yul\":7204:7242   */\n      swap2\n      swap1\n      pop\n      jump\t// out\n        /* \"#utility.yul\":7248:7391   */\n    tag_61:\n        /* \"#utility.yul\":7345:7356   */\n      0x00\n        /* \"#utility.yul\":7382:7385   */\n      dup2\n        /* \"#utility.yul\":7367:7385   */\n      swap1\n      pop\n        /* \"#utility.yul\":7357:7391   */\n      swap3\n      swap2\n      pop\n      pop\n      jump\t// out\n        /* \"#utility.yul\":7397:7550   */\n    tag_75:\n        /* \"#utility.yul\":7504:7515   */\n      0x00\n        /* \"#utility.yul\":7541:7544   */\n      dup2\n        /* \"#utility.yul\":7526:7544   */\n      swap1\n      pop\n        /* \"#utility.yul\":7516:7550   */\n      swap3\n      swap2\n      pop\n      pop\n      jump\t// out\n        /* \"#utility.yul\":7556:7697   */\n    tag_89:\n        /* \"#utility.yul\":7651:7662   */\n      0x00\n        /* \"#utility.yul\":7688:7691   */\n      dup2\n        /* \"#utility.yul\":7673:7691   */\n      swap1\n      pop\n        /* \"#utility.yul\":7663:7697   */\n      swap3\n      swap2\n      pop\n      pop\n      jump\t// out\n        /* \"#utility.yul\":7703:7871   */\n    tag_107:\n        /* \"#utility.yul\":7786:7797   */\n      0x00\n        /* \"#utility.yul\":7820:7826   */\n      dup3\n        /* \"#utility.yul\":7815:7818   */\n      dup3\n        /* \"#utility.yul\":7808:7827   */\n      mstore\n        /* \"#utility.yul\":7860:7864   */\n      0x20\n        /* \"#utility.yul\":7855:7858   */\n      dup3\n        /* \"#utility.yul\":7851:7865   */\n      add\n        /* \"#utility.yul\":7836:7865   */\n      swap1\n      pop\n        /* \"#utility.yul\":7798:7871   */\n      swap3\n      swap2\n      pop\n      pop\n      jump\t// out\n        /* \"#utility.yul\":7877:8036   */\n    tag_116:\n        /* \"#utility.yul\":7951:7962   */\n      0x00\n        /* \"#utility.yul\":7985:7991   */\n      dup3\n        /* \"#utility.yul\":7980:7983   */\n      dup3\n        /* \"#utility.yul\":7973:7992   */\n      mstore\n        /* \"#utility.yul\":8025:8029   */\n      0x20\n        /* \"#utility.yul\":8020:8023   */\n      dup3\n        /* \"#utility.yul\":8016:8030   */\n      add\n        /* \"#utility.yul\":8001:8030   */\n      swap1\n      pop\n        /* \"#utility.yul\":7963:8036   */\n      swap3\n      swap2\n      pop\n      pop\n      jump\t// out\n        /* \"#utility.yul\":8042:8296   */\n    tag_30:\n        /* \"#utility.yul\":8081:8084   */\n      0x00\n        /* \"#utility.yul\":8100:8119   */\n      tag_158\n        /* \"#utility.yul\":8117:8118   */\n      dup3\n        /* \"#utility.yul\":8100:8119   */\n      tag_126\n      jump\t// in\n    tag_158:\n        /* \"#utility.yul\":8095:8119   */\n      swap2\n      pop\n        /* \"#utility.yul\":8133:8152   */\n      tag_159\n        /* \"#utility.yul\":8150:8151   */\n      dup4\n        /* \"#utility.yul\":8133:8152   */\n      tag_126\n      jump\t// in\n    tag_159:\n        /* \"#utility.yul\":8128:8152   */\n      swap3\n      pop\n        /* \"#utility.yul\":8238:8239   */\n      dup3\n        /* \"#utility.yul\":8218:8236   */\n      0xffffffffffffffff\n        /* \"#utility.yul\":8214:8240   */\n      sub\n        /* \"#utility.yul\":8211:8212   */\n      dup3\n        /* \"#utility.yul\":8208:8241   */\n      gt\n        /* \"#utility.yul\":8205:8207   */\n      iszero\n      tag_160\n      jumpi\n        /* \"#utility.yul\":8244:8262   */\n      tag_161\n      tag_162\n      jump\t// in\n    tag_161:\n        /* \"#utility.yul\":8205:8207   */\n    tag_160:\n        /* \"#utility.yul\":8288:8289   */\n      dup3\n        /* \"#utility.yul\":8285:8286   */\n      dup3\n        /* \"#utility.yul\":8281:8290   */\n      add\n        /* \"#utility.yul\":8274:8290   */\n      swap1\n      pop\n        /* \"#utility.yul\":8085:8296   */\n      swap3\n      swap2\n      pop\n      pop\n      jump\t// out\n        /* \"#utility.yul\":8302:8398   */\n    tag_55:\n        /* \"#utility.yul\":8339:8346   */\n      0x00\n        /* \"#utility.yul\":8368:8392   */\n      tag_164\n        /* \"#utility.yul\":8386:8391   */\n      dup3\n        /* \"#utility.yul\":8368:8392   */\n      tag_165\n      jump\t// in\n    tag_164:\n        /* \"#utility.yul\":8357:8392   */\n      swap1\n      pop\n        /* \"#utility.yul\":8347:8398   */\n      swap2\n      swap1\n      pop\n      jump\t// out\n        /* \"#utility.yul\":8404:8481   */\n    tag_101:\n        /* \"#utility.yul\":8441:8448   */\n      0x00\n        /* \"#utility.yul\":8470:8475   */\n      dup2\n        /* \"#utility.yul\":8459:8475   */\n      swap1\n      pop\n        /* \"#utility.yul\":8449:8481   */\n      swap2\n      swap1\n      pop\n      jump\t// out\n        /* \"#utility.yul\":8487:8613   */\n    tag_165:\n        /* \"#utility.yul\":8524:8531   */\n      0x00\n        /* \"#utility.yul\":8564:8606   */\n      0xffffffffffffffffffffffffffffffffffffffff\n        /* \"#utility.yul\":8557:8562   */\n      dup3\n        /* \"#utility.yul\":8553:8607   */\n      and\n        /* \"#utility.yul\":8542:8607   */\n      swap1\n      pop\n        /* \"#utility.yul\":8532:8613   */\n      swap2\n      swap1\n      pop\n      jump\t// out\n        /* \"#utility.yul\":8619:8696   */\n    tag_122:\n        /* \"#utility.yul\":8656:8663   */\n      0x00\n        /* \"#utility.yul\":8685:8690   */\n      dup2\n        /* \"#utility.yul\":8674:8690   */\n      swap1\n      pop\n        /* \"#utility.yul\":8664:8696   */\n      swap2\n      swap1\n      pop\n      jump\t// out\n        /* \"#utility.yul\":8702:8803   */\n    tag_126:\n        /* \"#utility.yul\":8738:8745   */\n      0x00\n        /* \"#utility.yul\":8778:8796   */\n      0xffffffffffffffff\n        /* \"#utility.yul\":8771:8776   */\n      dup3\n        /* \"#utility.yul\":8767:8797   */\n      and\n        /* \"#utility.yul\":8756:8797   */\n      swap1\n      pop\n        /* \"#utility.yul\":8746:8803   */\n      swap2\n      swap1\n      pop\n      jump\t// out\n        /* \"#utility.yul\":8809:8895   */\n    tag_129:\n        /* \"#utility.yul\":8844:8851   */\n      0x00\n        /* \"#utility.yul\":8884:8888   */\n      0xff\n        /* \"#utility.yul\":8877:8882   */\n      dup3\n        /* \"#utility.yul\":8873:8889   */\n      and\n        /* \"#utility.yul\":8862:8889   */\n      swap1\n      pop\n        /* \"#utility.yul\":8852:8895   */\n      swap2\n      swap1\n      pop\n      jump\t// out\n        /* \"#utility.yul\":8901:9208   */\n    tag_109:\n        /* \"#utility.yul\":8969:8970   */\n      0x00\n        /* \"#utility.yul\":8979:9092   */\n    tag_172:\n        /* \"#utility.yul\":8993:8999   */\n      dup4\n        /* \"#utility.yul\":8990:8991   */\n      dup2\n        /* \"#utility.yul\":8987:9000   */\n      lt\n        /* \"#utility.yul\":8979:9092   */\n      iszero\n      tag_174\n      jumpi\n        /* \"#utility.yul\":9078:9079   */\n      dup1\n        /* \"#utility.yul\":9073:9076   */\n      dup3\n        /* \"#utility.yul\":9069:9080   */\n      add\n        /* \"#utility.yul\":9063:9081   */\n      mload\n        /* \"#utility.yul\":9059:9060   */\n      dup2\n        /* \"#utility.yul\":9054:9057   */\n      dup5\n        /* \"#utility.yul\":9050:9061   */\n      add\n        /* \"#utility.yul\":9043:9082   */\n      mstore\n        /* \"#utility.yul\":9015:9017   */\n      0x20\n        /* \"#utility.yul\":9012:9013   */\n      dup2\n        /* \"#utility.yul\":9008:9018   */\n      add\n        /* \"#utility.yul\":9003:9018   */\n      swap1\n      pop\n        /* \"#utility.yul\":8979:9092   */\n      jump(tag_172)\n    tag_174:\n        /* \"#utility.yul\":9110:9116   */\n      dup4\n        /* \"#utility.yul\":9107:9108   */\n      dup2\n        /* \"#utility.yul\":9104:9117   */\n      gt\n        /* \"#utility.yul\":9101:9103   */\n      iszero\n      tag_175\n      jumpi\n        /* \"#utility.yul\":9190:9191   */\n      0x00\n        /* \"#utility.yul\":9181:9187   */\n      dup5\n        /* \"#utility.yul\":9176:9179   */\n      dup5\n        /* \"#utility.yul\":9172:9188   */\n      add\n        /* \"#utility.yul\":9165:9192   */\n      mstore\n        /* \"#utility.yul\":9101:9103   */\n    tag_175:\n        /* \"#utility.yul\":8950:9208   */\n      pop\n      pop\n      pop\n      pop\n      jump\t// out\n        /* \"#utility.yul\":9214:9394   */\n    tag_162:\n        /* \"#utility.yul\":9262:9339   */\n      0x4e487b7100000000000000000000000000000000000000000000000000000000\n        /* \"#utility.yul\":9259:9260   */\n      0x00\n        /* \"#utility.yul\":9252:9340   */\n      mstore\n        /* \"#utility.yul\":9359:9363   */\n      0x11\n        /* \"#utility.yul\":9356:9357   */\n      0x04\n        /* \"#utility.yul\":9349:9364   */\n      mstore\n        /* \"#utility.yul\":9383:9387   */\n      0x24\n        /* \"#utility.yul\":9380:9381   */\n      0x00\n        /* \"#utility.yul\":9373:9388   */\n      revert\n        /* \"#utility.yul\":9400:9502   */\n    tag_111:\n        /* \"#utility.yul\":9441:9447   */\n      0x00\n        /* \"#utility.yul\":9492:9494   */\n      0x1f\n        /* \"#utility.yul\":9488:9495   */\n      not\n        /* \"#utility.yul\":9483:9485   */\n      0x1f\n        /* \"#utility.yul\":9476:9481   */\n      dup4\n        /* \"#utility.yul\":9472:9486   */\n      add\n        /* \"#utility.yul\":9468:9496   */\n      and\n        /* \"#utility.yul\":9458:9496   */\n      swap1\n      pop\n        /* \"#utility.yul\":9448:9502   */\n      swap2\n      swap1\n      pop\n      jump\t// out\n    stop\n    data_a428f9fec05421f4dc16bec28fa8b467c785cdc730e37b87e7ea236e0f5ce1fa 307865633965633537336366393761643163323730626537316163316465336233383237393063623334363033363133306337643766663834346266386634393734\n\n    auxdata: 0xa26469706673582212204baea7e68e4cefe7a76e9d3e86d637e4d48da052c7c4f62b7831a4e23c4a24bb64736f6c63430008040033\n}\n",
				"bytecode": {
					"linkReferences": {},
					"object": "608060405234801561001057600080fd5b5061074d806100206000396000f3fe608060405234801561001057600080fd5b50600436106100575760003560e01c806302a251a31461005c57806329dcb0cf1461007a5780633932abb1146100985780638c492a76146100b65780639711715a146100d4575b600080fd5b6100646100f2565b60405161007191906104c8565b60405180910390f35b6100826100fc565b60405161008f91906104e3565b60405180910390f35b6100a0610133565b6040516100ad91906104c8565b60405180910390f35b6100be61013c565b6040516100cb91906104a6565b60405180910390f35b6100dc610217565b6040516100e991906104e3565b60405180910390f35b600061b2fa905090565b600080610107610133565b4361011291906105bd565b9050600061011e6100f2565b8261012991906105bd565b9050809250505090565b60006001905090565b606060405180602001604052803373ffffffffffffffffffffffffffffffffffffffff1673ffffffffffffffffffffffffffffffffffffffff168152506040518060200160405280600060ff1681525060405180602001604052806040518060800160405280604281526020016106d6604291398152506040518060400160405280600b81526020017f6465736372697074696f6e00000000000000000000000000000000000000000081525080519060200120604051602001610203949392919061045a565b604051602081830303815290604052905090565b600080610222610133565b4361022d91906105bd565b90508091505090565b6000610242838361027a565b60208301905092915050565b600061025a83836103f4565b905092915050565b600061026e838361044b565b60208301905092915050565b610283816105fb565b82525050565b6102928161051c565b61029c818461057a565b92506102a7826104fe565b8060005b838110156102d85781516102bf8782610236565b96506102ca83610553565b9250506001810190506102ab565b505050505050565b60006102eb82610527565b6102f58185610585565b93508360208202850161030785610508565b8060005b858110156103435784840389528151610324858261024e565b945061032f83610560565b925060208a0199505060018101905061030b565b50829750879550505050505092915050565b61035e81610532565b6103688184610590565b925061037382610512565b8060005b838110156103a457815161038b8782610262565b96506103968361056d565b925050600181019050610377565b505050505050565b6103b58161060d565b82525050565b60006103c68261053d565b6103d0818561059b565b93506103e0818560208601610662565b6103e9816106c4565b840191505092915050565b60006103ff82610548565b61040981856105ac565b9350610419818560208601610662565b610422816106c4565b840191505092915050565b61043681610637565b82525050565b61044581610641565b82525050565b61045481610655565b82525050565b600060808201905061046f6000830187610289565b61047c6020830186610355565b818103604083015261048e81856102e0565b905061049d60608301846103ac565b95945050505050565b600060208201905081810360008301526104c081846103bb565b905092915050565b60006020820190506104dd600083018461042d565b92915050565b60006020820190506104f8600083018461043c565b92915050565b6000819050919050565b6000819050919050565b6000819050919050565b600060019050919050565b600060019050919050565b600060019050919050565b600081519050919050565b600081519050919050565b6000602082019050919050565b6000602082019050919050565b6000602082019050919050565b600081905092915050565b600081905092915050565b600081905092915050565b600082825260208201905092915050565b600082825260208201905092915050565b60006105c882610641565b91506105d383610641565b92508267ffffffffffffffff038211156105f0576105ef610695565b5b828201905092915050565b600061060682610617565b9050919050565b6000819050919050565b600073ffffffffffffffffffffffffffffffffffffffff82169050919050565b6000819050919050565b600067ffffffffffffffff82169050919050565b600060ff82169050919050565b60005b83811015610680578082015181840152602081019050610665565b8381111561068f576000848401525b50505050565b7f4e487b7100000000000000000000000000000000000000000000000000000000600052601160045260246000fd5b6000601f19601f830116905091905056fe307865633965633537336366393761643163323730626537316163316465336233383237393063623334363033363133306337643766663834346266386634393734a26469706673582212204baea7e68e4cefe7a76e9d3e86d637e4d48da052c7c4f62b7831a4e23c4a24bb64736f6c63430008040033",
					"opcodes": "PUSH1 0x80 PUSH1 0x40 MSTORE CALLVALUE DUP1 ISZERO PUSH2 0x10 JUMPI PUSH1 0x0 DUP1 REVERT JUMPDEST POP PUSH2 0x74D DUP1 PUSH2 0x20 PUSH1 0x0 CODECOPY PUSH1 0x0 RETURN INVALID PUSH1 0x80 PUSH1 0x40 MSTORE CALLVALUE DUP1 ISZERO PUSH2 0x10 JUMPI PUSH1 0x0 DUP1 REVERT JUMPDEST POP PUSH1 0x4 CALLDATASIZE LT PUSH2 0x57 JUMPI PUSH1 0x0 CALLDATALOAD PUSH1 0xE0 SHR DUP1 PUSH4 0x2A251A3 EQ PUSH2 0x5C JUMPI DUP1 PUSH4 0x29DCB0CF EQ PUSH2 0x7A JUMPI DUP1 PUSH4 0x3932ABB1 EQ PUSH2 0x98 JUMPI DUP1 PUSH4 0x8C492A76 EQ PUSH2 0xB6 JUMPI DUP1 PUSH4 0x9711715A EQ PUSH2 0xD4 JUMPI JUMPDEST PUSH1 0x0 DUP1 REVERT JUMPDEST PUSH2 0x64 PUSH2 0xF2 JUMP JUMPDEST PUSH1 0x40 MLOAD PUSH2 0x71 SWAP2 SWAP1 PUSH2 0x4C8 JUMP JUMPDEST PUSH1 0x40 MLOAD DUP1 SWAP2 SUB SWAP1 RETURN JUMPDEST PUSH2 0x82 PUSH2 0xFC JUMP JUMPDEST PUSH1 0x40 MLOAD PUSH2 0x8F SWAP2 SWAP1 PUSH2 0x4E3 JUMP JUMPDEST PUSH1 0x40 MLOAD DUP1 SWAP2 SUB SWAP1 RETURN JUMPDEST PUSH2 0xA0 PUSH2 0x133 JUMP JUMPDEST PUSH1 0x40 MLOAD PUSH2 0xAD SWAP2 SWAP1 PUSH2 0x4C8 JUMP JUMPDEST PUSH1 0x40 MLOAD DUP1 SWAP2 SUB SWAP1 RETURN JUMPDEST PUSH2 0xBE PUSH2 0x13C JUMP JUMPDEST PUSH1 0x40 MLOAD PUSH2 0xCB SWAP2 SWAP1 PUSH2 0x4A6 JUMP JUMPDEST PUSH1 0x40 MLOAD DUP1 SWAP2 SUB SWAP1 RETURN JUMPDEST PUSH2 0xDC PUSH2 0x217 JUMP JUMPDEST PUSH1 0x40 MLOAD PUSH2 0xE9 SWAP2 SWAP1 PUSH2 0x4E3 JUMP JUMPDEST PUSH1 0x40 MLOAD DUP1 SWAP2 SUB SWAP1 RETURN JUMPDEST PUSH1 0x0 PUSH2 0xB2FA SWAP1 POP SWAP1 JUMP JUMPDEST PUSH1 0x0 DUP1 PUSH2 0x107 PUSH2 0x133 JUMP JUMPDEST NUMBER PUSH2 0x112 SWAP2 SWAP1 PUSH2 0x5BD JUMP JUMPDEST SWAP1 POP PUSH1 0x0 PUSH2 0x11E PUSH2 0xF2 JUMP JUMPDEST DUP3 PUSH2 0x129 SWAP2 SWAP1 PUSH2 0x5BD JUMP JUMPDEST SWAP1 POP DUP1 SWAP3 POP POP POP SWAP1 JUMP JUMPDEST PUSH1 0x0 PUSH1 0x1 SWAP1 POP SWAP1 JUMP JUMPDEST PUSH1 0x60 PUSH1 0x40 MLOAD DUP1 PUSH1 0x20 ADD PUSH1 0x40 MSTORE DUP1 CALLER PUSH20 0xFFFFFFFFFFFFFFFFFFFFFFFFFFFFFFFFFFFFFFFF AND PUSH20 0xFFFFFFFFFFFFFFFFFFFFFFFFFFFFFFFFFFFFFFFF AND DUP2 MSTORE POP PUSH1 0x40 MLOAD DUP1 PUSH1 0x20 ADD PUSH1 0x40 MSTORE DUP1 PUSH1 0x0 PUSH1 0xFF AND DUP2 MSTORE POP PUSH1 0x40 MLOAD DUP1 PUSH1 0x20 ADD PUSH1 0x40 MSTORE DUP1 PUSH1 0x40 MLOAD DUP1 PUSH1 0x80 ADD PUSH1 0x40 MSTORE DUP1 PUSH1 0x42 DUP2 MSTORE PUSH1 0x20 ADD PUSH2 0x6D6 PUSH1 0x42 SWAP2 CODECOPY DUP2 MSTORE POP PUSH1 0x40 MLOAD DUP1 PUSH1 0x40 ADD PUSH1 0x40 MSTORE DUP1 PUSH1 0xB DUP2 MSTORE PUSH1 0x20 ADD PUSH32 0x6465736372697074696F6E000000000000000000000000000000000000000000 DUP2 MSTORE POP DUP1 MLOAD SWAP1 PUSH1 0x20 ADD KECCAK256 PUSH1 0x40 MLOAD PUSH1 0x20 ADD PUSH2 0x203 SWAP5 SWAP4 SWAP3 SWAP2 SWAP1 PUSH2 0x45A JUMP JUMPDEST PUSH1 0x40 MLOAD PUSH1 0x20 DUP2 DUP4 SUB SUB DUP2 MSTORE SWAP1 PUSH1 0x40 MSTORE SWAP1 POP SWAP1 JUMP JUMPDEST PUSH1 0x0 DUP1 PUSH2 0x222 PUSH2 0x133 JUMP JUMPDEST NUMBER PUSH2 0x22D SWAP2 SWAP1 PUSH2 0x5BD JUMP JUMPDEST SWAP1 POP DUP1 SWAP2 POP POP SWAP1 JUMP JUMPDEST PUSH1 0x0 PUSH2 0x242 DUP4 DUP4 PUSH2 0x27A JUMP JUMPDEST PUSH1 0x20 DUP4 ADD SWAP1 POP SWAP3 SWAP2 POP POP JUMP JUMPDEST PUSH1 0x0 PUSH2 0x25A DUP4 DUP4 PUSH2 0x3F4 JUMP JUMPDEST SWAP1 POP SWAP3 SWAP2 POP POP JUMP JUMPDEST PUSH1 0x0 PUSH2 0x26E DUP4 DUP4 PUSH2 0x44B JUMP JUMPDEST PUSH1 0x20 DUP4 ADD SWAP1 POP SWAP3 SWAP2 POP POP JUMP JUMPDEST PUSH2 0x283 DUP2 PUSH2 0x5FB JUMP JUMPDEST DUP3 MSTORE POP POP JUMP JUMPDEST PUSH2 0x292 DUP2 PUSH2 0x51C JUMP JUMPDEST PUSH2 0x29C DUP2 DUP5 PUSH2 0x57A JUMP JUMPDEST SWAP3 POP PUSH2 0x2A7 DUP3 PUSH2 0x4FE JUMP JUMPDEST DUP1 PUSH1 0x0 JUMPDEST DUP4 DUP2 LT ISZERO PUSH2 0x2D8 JUMPI DUP2 MLOAD PUSH2 0x2BF DUP8 DUP3 PUSH2 0x236 JUMP JUMPDEST SWAP7 POP PUSH2 0x2CA DUP4 PUSH2 0x553 JUMP JUMPDEST SWAP3 POP POP PUSH1 0x1 DUP2 ADD SWAP1 POP PUSH2 0x2AB JUMP JUMPDEST POP POP POP POP POP POP JUMP JUMPDEST PUSH1 0x0 PUSH2 0x2EB DUP3 PUSH2 0x527 JUMP JUMPDEST PUSH2 0x2F5 DUP2 DUP6 PUSH2 0x585 JUMP JUMPDEST SWAP4 POP DUP4 PUSH1 0x20 DUP3 MUL DUP6 ADD PUSH2 0x307 DUP6 PUSH2 0x508 JUMP JUMPDEST DUP1 PUSH1 0x0 JUMPDEST DUP6 DUP2 LT ISZERO PUSH2 0x343 JUMPI DUP5 DUP5 SUB DUP10 MSTORE DUP2 MLOAD PUSH2 0x324 DUP6 DUP3 PUSH2 0x24E JUMP JUMPDEST SWAP5 POP PUSH2 0x32F DUP4 PUSH2 0x560 JUMP JUMPDEST SWAP3 POP PUSH1 0x20 DUP11 ADD SWAP10 POP POP PUSH1 0x1 DUP2 ADD SWAP1 POP PUSH2 0x30B JUMP JUMPDEST POP DUP3 SWAP8 POP DUP8 SWAP6 POP POP POP POP POP POP SWAP3 SWAP2 POP POP JUMP JUMPDEST PUSH2 0x35E DUP2 PUSH2 0x532 JUMP JUMPDEST PUSH2 0x368 DUP2 DUP5 PUSH2 0x590 JUMP JUMPDEST SWAP3 POP PUSH2 0x373 DUP3 PUSH2 0x512 JUMP JUMPDEST DUP1 PUSH1 0x0 JUMPDEST DUP4 DUP2 LT ISZERO PUSH2 0x3A4 JUMPI DUP2 MLOAD PUSH2 0x38B DUP8 DUP3 PUSH2 0x262 JUMP JUMPDEST SWAP7 POP PUSH2 0x396 DUP4 PUSH2 0x56D JUMP JUMPDEST SWAP3 POP POP PUSH1 0x1 DUP2 ADD SWAP1 POP PUSH2 0x377 JUMP JUMPDEST POP POP POP POP POP POP JUMP JUMPDEST PUSH2 0x3B5 DUP2 PUSH2 0x60D JUMP JUMPDEST DUP3 MSTORE POP POP JUMP JUMPDEST PUSH1 0x0 PUSH2 0x3C6 DUP3 PUSH2 0x53D JUMP JUMPDEST PUSH2 0x3D0 DUP2 DUP6 PUSH2 0x59B JUMP JUMPDEST SWAP4 POP PUSH2 0x3E0 DUP2 DUP6 PUSH1 0x20 DUP7 ADD PUSH2 0x662 JUMP JUMPDEST PUSH2 0x3E9 DUP2 PUSH2 0x6C4 JUMP JUMPDEST DUP5 ADD SWAP2 POP POP SWAP3 SWAP2 POP POP JUMP JUMPDEST PUSH1 0x0 PUSH2 0x3FF DUP3 PUSH2 0x548 JUMP JUMPDEST PUSH2 0x409 DUP2 DUP6 PUSH2 0x5AC JUMP JUMPDEST SWAP4 POP PUSH2 0x419 DUP2 DUP6 PUSH1 0x20 DUP7 ADD PUSH2 0x662 JUMP JUMPDEST PUSH2 0x422 DUP2 PUSH2 0x6C4 JUMP JUMPDEST DUP5 ADD SWAP2 POP POP SWAP3 SWAP2 POP POP JUMP JUMPDEST PUSH2 0x436 DUP2 PUSH2 0x637 JUMP JUMPDEST DUP3 MSTORE POP POP JUMP JUMPDEST PUSH2 0x445 DUP2 PUSH2 0x641 JUMP JUMPDEST DUP3 MSTORE POP POP JUMP JUMPDEST PUSH2 0x454 DUP2 PUSH2 0x655 JUMP JUMPDEST DUP3 MSTORE POP POP JUMP JUMPDEST PUSH1 0x0 PUSH1 0x80 DUP3 ADD SWAP1 POP PUSH2 0x46F PUSH1 0x0 DUP4 ADD DUP8 PUSH2 0x289 JUMP JUMPDEST PUSH2 0x47C PUSH1 0x20 DUP4 ADD DUP7 PUSH2 0x355 JUMP JUMPDEST DUP2 DUP2 SUB PUSH1 0x40 DUP4 ADD MSTORE PUSH2 0x48E DUP2 DUP6 PUSH2 0x2E0 JUMP JUMPDEST SWAP1 POP PUSH2 0x49D PUSH1 0x60 DUP4 ADD DUP5 PUSH2 0x3AC JUMP JUMPDEST SWAP6 SWAP5 POP POP POP POP POP JUMP JUMPDEST PUSH1 0x0 PUSH1 0x20 DUP3 ADD SWAP1 POP DUP2 DUP2 SUB PUSH1 0x0 DUP4 ADD MSTORE PUSH2 0x4C0 DUP2 DUP5 PUSH2 0x3BB JUMP JUMPDEST SWAP1 POP SWAP3 SWAP2 POP POP JUMP JUMPDEST PUSH1 0x0 PUSH1 0x20 DUP3 ADD SWAP1 POP PUSH2 0x4DD PUSH1 0x0 DUP4 ADD DUP5 PUSH2 0x42D JUMP JUMPDEST SWAP3 SWAP2 POP POP JUMP JUMPDEST PUSH1 0x0 PUSH1 0x20 DUP3 ADD SWAP1 POP PUSH2 0x4F8 PUSH1 0x0 DUP4 ADD DUP5 PUSH2 0x43C JUMP JUMPDEST SWAP3 SWAP2 POP POP JUMP JUMPDEST PUSH1 0x0 DUP2 SWAP1 POP SWAP2 SWAP1 POP JUMP JUMPDEST PUSH1 0x0 DUP2 SWAP1 POP SWAP2 SWAP1 POP JUMP JUMPDEST PUSH1 0x0 DUP2 SWAP1 POP SWAP2 SWAP1 POP JUMP JUMPDEST PUSH1 0x0 PUSH1 0x1 SWAP1 POP SWAP2 SWAP1 POP JUMP JUMPDEST PUSH1 0x0 PUSH1 0x1 SWAP1 POP SWAP2 SWAP1 POP JUMP JUMPDEST PUSH1 0x0 PUSH1 0x1 SWAP1 POP SWAP2 SWAP1 POP JUMP JUMPDEST PUSH1 0x0 DUP2 MLOAD SWAP1 POP SWAP2 SWAP1 POP JUMP JUMPDEST PUSH1 0x0 DUP2 MLOAD SWAP1 POP SWAP2 SWAP1 POP JUMP JUMPDEST PUSH1 0x0 PUSH1 0x20 DUP3 ADD SWAP1 POP SWAP2 SWAP1 POP JUMP JUMPDEST PUSH1 0x0 PUSH1 0x20 DUP3 ADD SWAP1 POP SWAP2 SWAP1 POP JUMP JUMPDEST PUSH1 0x0 PUSH1 0x20 DUP3 ADD SWAP1 POP SWAP2 SWAP1 POP JUMP JUMPDEST PUSH1 0x0 DUP2 SWAP1 POP SWAP3 SWAP2 POP POP JUMP JUMPDEST PUSH1 0x0 DUP2 SWAP1 POP SWAP3 SWAP2 POP POP JUMP JUMPDEST PUSH1 0x0 DUP2 SWAP1 POP SWAP3 SWAP2 POP POP JUMP JUMPDEST PUSH1 0x0 DUP3 DUP3 MSTORE PUSH1 0x20 DUP3 ADD SWAP1 POP SWAP3 SWAP2 POP POP JUMP JUMPDEST PUSH1 0x0 DUP3 DUP3 MSTORE PUSH1 0x20 DUP3 ADD SWAP1 POP SWAP3 SWAP2 POP POP JUMP JUMPDEST PUSH1 0x0 PUSH2 0x5C8 DUP3 PUSH2 0x641 JUMP JUMPDEST SWAP2 POP PUSH2 0x5D3 DUP4 PUSH2 0x641 JUMP JUMPDEST SWAP3 POP DUP3 PUSH8 0xFFFFFFFFFFFFFFFF SUB DUP3 GT ISZERO PUSH2 0x5F0 JUMPI PUSH2 0x5EF PUSH2 0x695 JUMP JUMPDEST JUMPDEST DUP3 DUP3 ADD SWAP1 POP SWAP3 SWAP2 POP POP JUMP JUMPDEST PUSH1 0x0 PUSH2 0x606 DUP3 PUSH2 0x617 JUMP JUMPDEST SWAP1 POP SWAP2 SWAP1 POP JUMP JUMPDEST PUSH1 0x0 DUP2 SWAP1 POP SWAP2 SWAP1 POP JUMP JUMPDEST PUSH1 0x0 PUSH20 0xFFFFFFFFFFFFFFFFFFFFFFFFFFFFFFFFFFFFFFFF DUP3 AND SWAP1 POP SWAP2 SWAP1 POP JUMP JUMPDEST PUSH1 0x0 DUP2 SWAP1 POP SWAP2 SWAP1 POP JUMP JUMPDEST PUSH1 0x0 PUSH8 0xFFFFFFFFFFFFFFFF DUP3 AND SWAP1 POP SWAP2 SWAP1 POP JUMP JUMPDEST PUSH1 0x0 PUSH1 0xFF DUP3 AND SWAP1 POP SWAP2 SWAP1 POP JUMP JUMPDEST PUSH1 0x0 JUMPDEST DUP4 DUP2 LT ISZERO PUSH2 0x680 JUMPI DUP1 DUP3 ADD MLOAD DUP2 DUP5 ADD MSTORE PUSH1 0x20 DUP2 ADD SWAP1 POP PUSH2 0x665 JUMP JUMPDEST DUP4 DUP2 GT ISZERO PUSH2 0x68F JUMPI PUSH1 0x0 DUP5 DUP5 ADD MSTORE JUMPDEST POP POP POP POP JUMP JUMPDEST PUSH32 0x4E487B7100000000000000000000000000000000000000000000000000000000 PUSH1 0x0 MSTORE PUSH1 0x11 PUSH1 0x4 MSTORE PUSH1 0x24 PUSH1 0x0 REVERT JUMPDEST PUSH1 0x0 PUSH1 0x1F NOT PUSH1 0x1F DUP4 ADD AND SWAP1 POP SWAP2 SWAP1 POP JUMP INVALID ADDRESS PUSH25 0x65633965633537336366393761643163323730626537316163 BALANCE PUSH5 0x6533623338 ORIGIN CALLDATACOPY CODECOPY ADDRESS PUSH4 0x62333436 ADDRESS CALLER CALLDATASIZE BALANCE CALLER ADDRESS PUSH4 0x37643766 PUSH7 0x38343462663866 CALLVALUE CODECOPY CALLDATACOPY CALLVALUE LOG2 PUSH5 0x6970667358 0x22 SLT KECCAK256 0x4B 0xAE 0xA7 0xE6 DUP15 0x4C 0xEF 0xE7 0xA7 PUSH15 0x9D3E86D637E4D48DA052C7C4F62B78 BALANCE LOG4 0xE2 EXTCODECOPY 0x4A 0x24 0xBB PUSH5 0x736F6C6343 STOP ADDMOD DIV STOP CALLER "
				},
				"gasEstimates": {
					"creation": {
						"codeDepositCost": "373800",
						"executionCost": "411",
						"totalCost": "374211"
					},
					"external": {
						"deadline()": "infinite",
						"keccak256test()": "infinite",
						"snapshot()": "infinite",
						"votingDelay()": "359",
						"votingPeriod()": "315"
					}
				},
				"methodIdentifiers": {
					"deadline()": "29dcb0cf",
					"keccak256test()": "8c492a76",
					"snapshot()": "9711715a",
					"votingDelay()": "3932abb1",
					"votingPeriod()": "02a251a3"
				}
			},
			"storageLayout": {
				"storage": [],
				"types": null
			},
			"userdoc": {
				"kind": "user",
				"methods": {},
				"version": 1
			}
		}
	}
}