{
	".workspaces/default_workspace/unMiracle/UMRproposal.sol": {
		"UMRproposal": {
			"abi": [
				{
					"inputs": [
						{
							"internalType": "address",
							"name": "destination",
							"type": "address"
						},
						{
							"internalType": "string",
							"name": "description",
							"type": "string"
						},
						{
							"internalType": "bytes[]",
							"name": "calldatas",
							"type": "bytes[]"
						}
					],
					"name": "execute",
					"outputs": [
						{
							"internalType": "uint256",
							"name": "",
							"type": "uint256"
						}
					],
					"stateMutability": "payable",
					"type": "function"
				},
				{
					"inputs": [
						{
							"internalType": "uint256",
							"name": "proposalId",
							"type": "uint256"
						},
						{
							"internalType": "uint256",
							"name": "amount",
							"type": "uint256"
						}
					],
					"name": "getCurrentAmount",
					"outputs": [
						{
							"internalType": "uint256",
							"name": "",
							"type": "uint256"
						}
					],
					"stateMutability": "view",
					"type": "function"
				},
				{
					"inputs": [
						{
							"internalType": "address",
							"name": "destination",
							"type": "address"
						},
						{
							"internalType": "bytes[]",
							"name": "calldatas",
							"type": "bytes[]"
						},
						{
							"internalType": "bytes32",
							"name": "descriptionHash",
							"type": "bytes32"
						}
					],
					"name": "hashProposal",
					"outputs": [
						{
							"internalType": "uint256",
							"name": "",
							"type": "uint256"
						}
					],
					"stateMutability": "pure",
					"type": "function"
				},
				{
					"inputs": [
						{
							"internalType": "uint256",
							"name": "donateDelay",
							"type": "uint256"
						},
						{
							"internalType": "uint256",
							"name": "donatePeriod",
							"type": "uint256"
						},
						{
							"internalType": "uint256",
							"name": "donateMinimum",
							"type": "uint256"
						},
						{
							"internalType": "address",
							"name": "destination",
							"type": "address"
						},
						{
							"internalType": "string",
							"name": "description",
							"type": "string"
						},
						{
							"internalType": "bytes[]",
							"name": "calldatas",
							"type": "bytes[]"
						}
					],
					"name": "proposal",
					"outputs": [
						{
							"internalType": "uint256",
							"name": "",
							"type": "uint256"
						}
					],
					"stateMutability": "nonpayable",
					"type": "function"
				},
				{
					"inputs": [
						{
							"internalType": "uint256",
							"name": "proposalId",
							"type": "uint256"
						}
					],
					"name": "proposalDeadline",
					"outputs": [
						{
							"internalType": "uint256",
							"name": "",
							"type": "uint256"
						}
					],
					"stateMutability": "view",
					"type": "function"
				},
				{
					"inputs": [
						{
							"internalType": "uint256",
							"name": "proposalId",
							"type": "uint256"
						}
					],
					"name": "proposalDonateMinimum",
					"outputs": [
						{
							"internalType": "uint256",
							"name": "",
							"type": "uint256"
						}
					],
					"stateMutability": "view",
					"type": "function"
				},
				{
					"inputs": [
						{
							"internalType": "uint256",
							"name": "proposalId",
							"type": "uint256"
						}
					],
					"name": "proposalSnapshot",
					"outputs": [
						{
							"internalType": "uint256",
							"name": "",
							"type": "uint256"
						}
					],
					"stateMutability": "view",
					"type": "function"
				},
				{
					"inputs": [
						{
							"internalType": "uint256",
							"name": "proposalId",
							"type": "uint256"
						},
						{
							"internalType": "uint256",
							"name": "amount",
							"type": "uint256"
						}
					],
					"name": "setCurrentAmount",
					"outputs": [],
					"stateMutability": "nonpayable",
					"type": "function"
				},
				{
					"inputs": [
						{
							"internalType": "uint256",
							"name": "proposalId",
							"type": "uint256"
						}
					],
					"name": "state",
					"outputs": [
						{
							"internalType": "enum IUMRcore.ProposalState",
							"name": "",
							"type": "uint8"
						}
					],
					"stateMutability": "view",
					"type": "function"
				}
			],
			"devdoc": {
				"kind": "dev",
				"methods": {},
				"version": 1
			},
			"evm": {
				"assembly": "    /* \".workspaces/default_workspace/unMiracle/UMRproposal.sol\":113:5041  contract UMRproposal is IUMRcore{... */\n  mstore(0x40, 0x80)\n  callvalue\n  dup1\n  iszero\n  tag_1\n  jumpi\n  0x00\n  dup1\n  revert\ntag_1:\n  pop\n  dataSize(sub_0)\n  dup1\n  dataOffset(sub_0)\n  0x00\n  codecopy\n  0x00\n  return\nstop\n\nsub_0: assembly {\n        /* \".workspaces/default_workspace/unMiracle/UMRproposal.sol\":113:5041  contract UMRproposal is IUMRcore{... */\n      mstore(0x40, 0x80)\n      jumpi(tag_1, lt(calldatasize, 0x04))\n      shr(0xe0, calldataload(0x00))\n      dup1\n      0x8c4461b3\n      gt\n      tag_11\n      jumpi\n      dup1\n      0x8c4461b3\n      eq\n      tag_6\n      jumpi\n      dup1\n      0xa627e447\n      eq\n      tag_7\n      jumpi\n      dup1\n      0xc01f9e37\n      eq\n      tag_8\n      jumpi\n      dup1\n      0xeb9094a2\n      eq\n      tag_9\n      jumpi\n      dup1\n      0xf68deaf9\n      eq\n      tag_10\n      jumpi\n      jump(tag_1)\n    tag_11:\n      dup1\n      0x2d63f693\n      eq\n      tag_2\n      jumpi\n      dup1\n      0x39690b24\n      eq\n      tag_3\n      jumpi\n      dup1\n      0x3e4f49e6\n      eq\n      tag_4\n      jumpi\n      dup1\n      0x8c0e09f5\n      eq\n      tag_5\n      jumpi\n    tag_1:\n      0x00\n      dup1\n      revert\n        /* \".workspaces/default_workspace/unMiracle/UMRproposal.sol\":2874:3032  function proposalSnapshot(uint256 proposalId) public view virtual returns (uint256) {... */\n    tag_2:\n      callvalue\n      dup1\n      iszero\n      tag_12\n      jumpi\n      0x00\n      dup1\n      revert\n    tag_12:\n      pop\n      tag_13\n      0x04\n      dup1\n      calldatasize\n      sub\n      dup2\n      add\n      swap1\n      tag_14\n      swap2\n      swap1\n      tag_15\n      jump\t// in\n    tag_14:\n      tag_16\n      jump\t// in\n    tag_13:\n      mload(0x40)\n      tag_17\n      swap2\n      swap1\n      tag_18\n      jump\t// in\n    tag_17:\n      mload(0x40)\n      dup1\n      swap2\n      sub\n      swap1\n      return\n        /* \".workspaces/default_workspace/unMiracle/UMRproposal.sol\":3595:3766  function getCurrentAmount(uint256 proposalId,uint256 amount) public view virtual returns (uint256) {... */\n    tag_3:\n      callvalue\n      dup1\n      iszero\n      tag_19\n      jumpi\n      0x00\n      dup1\n      revert\n    tag_19:\n      pop\n      tag_20\n      0x04\n      dup1\n      calldatasize\n      sub\n      dup2\n      add\n      swap1\n      tag_21\n      swap2\n      swap1\n      tag_22\n      jump\t// in\n    tag_21:\n      tag_23\n      jump\t// in\n    tag_20:\n      mload(0x40)\n      tag_24\n      swap2\n      swap1\n      tag_18\n      jump\t// in\n    tag_24:\n      mload(0x40)\n      dup1\n      swap2\n      sub\n      swap1\n      return\n        /* \".workspaces/default_workspace/unMiracle/UMRproposal.sol\":476:1331  function state(uint256 proposalId) public view returns (ProposalState) {... */\n    tag_4:\n      callvalue\n      dup1\n      iszero\n      tag_25\n      jumpi\n      0x00\n      dup1\n      revert\n    tag_25:\n      pop\n      tag_26\n      0x04\n      dup1\n      calldatasize\n      sub\n      dup2\n      add\n      swap1\n      tag_27\n      swap2\n      swap1\n      tag_15\n      jump\t// in\n    tag_27:\n      tag_28\n      jump\t// in\n    tag_26:\n      mload(0x40)\n      tag_29\n      swap2\n      swap1\n      tag_30\n      jump\t// in\n    tag_29:\n      mload(0x40)\n      dup1\n      swap2\n      sub\n      swap1\n      return\n        /* \".workspaces/default_workspace/unMiracle/UMRproposal.sol\":1672:2836  function proposal(... */\n    tag_5:\n      callvalue\n      dup1\n      iszero\n      tag_31\n      jumpi\n      0x00\n      dup1\n      revert\n    tag_31:\n      pop\n      tag_32\n      0x04\n      dup1\n      calldatasize\n      sub\n      dup2\n      add\n      swap1\n      tag_33\n      swap2\n      swap1\n      tag_34\n      jump\t// in\n    tag_33:\n      tag_35\n      jump\t// in\n    tag_32:\n      mload(0x40)\n      tag_36\n      swap2\n      swap1\n      tag_18\n      jump\t// in\n    tag_36:\n      mload(0x40)\n      dup1\n      swap2\n      sub\n      swap1\n      return\n        /* \".workspaces/default_workspace/unMiracle/UMRproposal.sol\":1338:1666  function hashProposal(... */\n    tag_6:\n      callvalue\n      dup1\n      iszero\n      tag_37\n      jumpi\n      0x00\n      dup1\n      revert\n    tag_37:\n      pop\n      tag_38\n      0x04\n      dup1\n      calldatasize\n      sub\n      dup2\n      add\n      swap1\n      tag_39\n      swap2\n      swap1\n      tag_40\n      jump\t// in\n    tag_39:\n      tag_41\n      jump\t// in\n    tag_38:\n      mload(0x40)\n      tag_42\n      swap2\n      swap1\n      tag_18\n      jump\t// in\n    tag_42:\n      mload(0x40)\n      dup1\n      swap2\n      sub\n      swap1\n      return\n        /* \".workspaces/default_workspace/unMiracle/UMRproposal.sol\":3772:4503  function execute(... */\n    tag_7:\n      tag_43\n      0x04\n      dup1\n      calldatasize\n      sub\n      dup2\n      add\n      swap1\n      tag_44\n      swap2\n      swap1\n      tag_45\n      jump\t// in\n    tag_44:\n      tag_46\n      jump\t// in\n    tag_43:\n      mload(0x40)\n      tag_47\n      swap2\n      swap1\n      tag_18\n      jump\t// in\n    tag_47:\n      mload(0x40)\n      dup1\n      swap2\n      sub\n      swap1\n      return\n        /* \".workspaces/default_workspace/unMiracle/UMRproposal.sol\":3069:3225  function proposalDeadline(uint256 proposalId) public view virtual returns (uint256) {... */\n    tag_8:\n      callvalue\n      dup1\n      iszero\n      tag_48\n      jumpi\n      0x00\n      dup1\n      revert\n    tag_48:\n      pop\n      tag_49\n      0x04\n      dup1\n      calldatasize\n      sub\n      dup2\n      add\n      swap1\n      tag_50\n      swap2\n      swap1\n      tag_15\n      jump\t// in\n    tag_50:\n      tag_51\n      jump\t// in\n    tag_49:\n      mload(0x40)\n      tag_52\n      swap2\n      swap1\n      tag_18\n      jump\t// in\n    tag_52:\n      mload(0x40)\n      dup1\n      swap2\n      sub\n      swap1\n      return\n        /* \".workspaces/default_workspace/unMiracle/UMRproposal.sol\":3443:3590  function setCurrentAmount(uint256 proposalId,uint256 amount) public virtual {... */\n    tag_9:\n      callvalue\n      dup1\n      iszero\n      tag_53\n      jumpi\n      0x00\n      dup1\n      revert\n    tag_53:\n      pop\n      tag_54\n      0x04\n      dup1\n      calldatasize\n      sub\n      dup2\n      add\n      swap1\n      tag_55\n      swap2\n      swap1\n      tag_22\n      jump\t// in\n    tag_55:\n      tag_56\n      jump\t// in\n    tag_54:\n      stop\n        /* \".workspaces/default_workspace/unMiracle/UMRproposal.sol\":3276:3437  function proposalDonateMinimum(uint256 proposalId) public view virtual returns (uint256) {... */\n    tag_10:\n      callvalue\n      dup1\n      iszero\n      tag_57\n      jumpi\n      0x00\n      dup1\n      revert\n    tag_57:\n      pop\n      tag_58\n      0x04\n      dup1\n      calldatasize\n      sub\n      dup2\n      add\n      swap1\n      tag_59\n      swap2\n      swap1\n      tag_15\n      jump\t// in\n    tag_59:\n      tag_60\n      jump\t// in\n    tag_58:\n      mload(0x40)\n      tag_61\n      swap2\n      swap1\n      tag_18\n      jump\t// in\n    tag_61:\n      mload(0x40)\n      dup1\n      swap2\n      sub\n      swap1\n      return\n        /* \".workspaces/default_workspace/unMiracle/UMRproposal.sol\":2874:3032  function proposalSnapshot(uint256 proposalId) public view virtual returns (uint256) {... */\n    tag_16:\n        /* \".workspaces/default_workspace/unMiracle/UMRproposal.sol\":2949:2956  uint256 */\n      0x00\n        /* \".workspaces/default_workspace/unMiracle/UMRproposal.sol\":2975:3025  _proposals[proposalId].donationStart.getDeadline() */\n      tag_63\n        /* \".workspaces/default_workspace/unMiracle/UMRproposal.sol\":2975:2985  _proposals */\n      0x00\n        /* \".workspaces/default_workspace/unMiracle/UMRproposal.sol\":2975:2997  _proposals[proposalId] */\n      dup1\n        /* \".workspaces/default_workspace/unMiracle/UMRproposal.sol\":2986:2996  proposalId */\n      dup5\n        /* \".workspaces/default_workspace/unMiracle/UMRproposal.sol\":2975:2997  _proposals[proposalId] */\n      dup2\n      mstore\n      0x20\n      add\n      swap1\n      dup2\n      mstore\n      0x20\n      add\n      0x00\n      keccak256\n        /* \".workspaces/default_workspace/unMiracle/UMRproposal.sol\":2975:3011  _proposals[proposalId].donationStart */\n      0x00\n      add\n        /* \".workspaces/default_workspace/unMiracle/UMRproposal.sol\":2975:3023  _proposals[proposalId].donationStart.getDeadline */\n      mload(0x40)\n      dup1\n      0x60\n      add\n      0x40\n      mstore\n      swap1\n      dup2\n      0x00\n      dup3\n      add\n      sload\n      dup2\n      mstore\n      0x20\n      add\n      0x01\n      dup3\n      add\n      sload\n      dup2\n      mstore\n      0x20\n      add\n      0x02\n      dup3\n      add\n      sload\n      dup2\n      mstore\n      pop\n      pop\n      tag_64\n        /* \".workspaces/default_workspace/unMiracle/UMRproposal.sol\":2975:3025  _proposals[proposalId].donationStart.getDeadline() */\n      jump\t// in\n    tag_63:\n        /* \".workspaces/default_workspace/unMiracle/UMRproposal.sol\":2968:3025  return _proposals[proposalId].donationStart.getDeadline() */\n      swap1\n      pop\n        /* \".workspaces/default_workspace/unMiracle/UMRproposal.sol\":2874:3032  function proposalSnapshot(uint256 proposalId) public view virtual returns (uint256) {... */\n      swap2\n      swap1\n      pop\n      jump\t// out\n        /* \".workspaces/default_workspace/unMiracle/UMRproposal.sol\":3595:3766  function getCurrentAmount(uint256 proposalId,uint256 amount) public view virtual returns (uint256) {... */\n    tag_23:\n        /* \".workspaces/default_workspace/unMiracle/UMRproposal.sol\":3685:3692  uint256 */\n      0x00\n        /* \".workspaces/default_workspace/unMiracle/UMRproposal.sol\":3711:3759  _proposals[proposalId].donate.getCurrentAmount() */\n      tag_66\n        /* \".workspaces/default_workspace/unMiracle/UMRproposal.sol\":3711:3721  _proposals */\n      0x00\n        /* \".workspaces/default_workspace/unMiracle/UMRproposal.sol\":3711:3733  _proposals[proposalId] */\n      dup1\n        /* \".workspaces/default_workspace/unMiracle/UMRproposal.sol\":3722:3732  proposalId */\n      dup6\n        /* \".workspaces/default_workspace/unMiracle/UMRproposal.sol\":3711:3733  _proposals[proposalId] */\n      dup2\n      mstore\n      0x20\n      add\n      swap1\n      dup2\n      mstore\n      0x20\n      add\n      0x00\n      keccak256\n        /* \".workspaces/default_workspace/unMiracle/UMRproposal.sol\":3711:3740  _proposals[proposalId].donate */\n      0x09\n      add\n        /* \".workspaces/default_workspace/unMiracle/UMRproposal.sol\":3711:3757  _proposals[proposalId].donate.getCurrentAmount */\n      mload(0x40)\n      dup1\n      0x60\n      add\n      0x40\n      mstore\n      swap1\n      dup2\n      0x00\n      dup3\n      add\n      sload\n      dup2\n      mstore\n      0x20\n      add\n      0x01\n      dup3\n      add\n      sload\n      dup2\n      mstore\n      0x20\n      add\n      0x02\n      dup3\n      add\n      sload\n      dup2\n      mstore\n      pop\n      pop\n      tag_67\n        /* \".workspaces/default_workspace/unMiracle/UMRproposal.sol\":3711:3759  _proposals[proposalId].donate.getCurrentAmount() */\n      jump\t// in\n    tag_66:\n        /* \".workspaces/default_workspace/unMiracle/UMRproposal.sol\":3704:3759  return _proposals[proposalId].donate.getCurrentAmount() */\n      swap1\n      pop\n        /* \".workspaces/default_workspace/unMiracle/UMRproposal.sol\":3595:3766  function getCurrentAmount(uint256 proposalId,uint256 amount) public view virtual returns (uint256) {... */\n      swap3\n      swap2\n      pop\n      pop\n      jump\t// out\n        /* \".workspaces/default_workspace/unMiracle/UMRproposal.sol\":476:1331  function state(uint256 proposalId) public view returns (ProposalState) {... */\n    tag_28:\n        /* \".workspaces/default_workspace/unMiracle/UMRproposal.sol\":532:545  ProposalState */\n      0x00\n        /* \".workspaces/default_workspace/unMiracle/UMRproposal.sol\":557:586  ProposalCore storage proposal */\n      dup1\n        /* \".workspaces/default_workspace/unMiracle/UMRproposal.sol\":589:599  _proposals */\n      0x00\n        /* \".workspaces/default_workspace/unMiracle/UMRproposal.sol\":589:611  _proposals[proposalId] */\n      dup1\n        /* \".workspaces/default_workspace/unMiracle/UMRproposal.sol\":600:610  proposalId */\n      dup5\n        /* \".workspaces/default_workspace/unMiracle/UMRproposal.sol\":589:611  _proposals[proposalId] */\n      dup2\n      mstore\n      0x20\n      add\n      swap1\n      dup2\n      mstore\n      0x20\n      add\n      0x00\n      keccak256\n        /* \".workspaces/default_workspace/unMiracle/UMRproposal.sol\":557:611  ProposalCore storage proposal = _proposals[proposalId] */\n      swap1\n      pop\n        /* \".workspaces/default_workspace/unMiracle/UMRproposal.sol\":690:698  proposal */\n      dup1\n        /* \".workspaces/default_workspace/unMiracle/UMRproposal.sol\":690:707  proposal.executed */\n      0x0c\n      add\n      0x00\n      swap1\n      sload\n      swap1\n      0x0100\n      exp\n      swap1\n      div\n      0xff\n      and\n        /* \".workspaces/default_workspace/unMiracle/UMRproposal.sol\":686:763  if (proposal.executed) {... */\n      iszero\n      tag_69\n      jumpi\n        /* \".workspaces/default_workspace/unMiracle/UMRproposal.sol\":730:752  ProposalState.Executed */\n      0x05\n        /* \".workspaces/default_workspace/unMiracle/UMRproposal.sol\":723:752  return ProposalState.Executed */\n      swap2\n      pop\n      pop\n      jump(tag_68)\n        /* \".workspaces/default_workspace/unMiracle/UMRproposal.sol\":686:763  if (proposal.executed) {... */\n    tag_69:\n        /* \".workspaces/default_workspace/unMiracle/UMRproposal.sol\":817:825  proposal */\n      dup1\n        /* \".workspaces/default_workspace/unMiracle/UMRproposal.sol\":817:834  proposal.canceled */\n      0x0c\n      add\n      0x01\n      swap1\n      sload\n      swap1\n      0x0100\n      exp\n      swap1\n      div\n      0xff\n      and\n        /* \".workspaces/default_workspace/unMiracle/UMRproposal.sol\":813:890  if (proposal.canceled) {... */\n      iszero\n      tag_70\n      jumpi\n        /* \".workspaces/default_workspace/unMiracle/UMRproposal.sol\":857:879  ProposalState.Canceled */\n      0x02\n        /* \".workspaces/default_workspace/unMiracle/UMRproposal.sol\":850:879  return ProposalState.Canceled */\n      swap2\n      pop\n      pop\n      jump(tag_68)\n        /* \".workspaces/default_workspace/unMiracle/UMRproposal.sol\":813:890  if (proposal.canceled) {... */\n    tag_70:\n        /* \".workspaces/default_workspace/unMiracle/UMRproposal.sol\":900:916  uint256 snapshot */\n      0x00\n        /* \".workspaces/default_workspace/unMiracle/UMRproposal.sol\":919:947  proposalSnapshot(proposalId) */\n      tag_71\n        /* \".workspaces/default_workspace/unMiracle/UMRproposal.sol\":936:946  proposalId */\n      dup5\n        /* \".workspaces/default_workspace/unMiracle/UMRproposal.sol\":919:935  proposalSnapshot */\n      tag_16\n        /* \".workspaces/default_workspace/unMiracle/UMRproposal.sol\":919:947  proposalSnapshot(proposalId) */\n      jump\t// in\n    tag_71:\n        /* \".workspaces/default_workspace/unMiracle/UMRproposal.sol\":900:947  uint256 snapshot = proposalSnapshot(proposalId) */\n      swap1\n      pop\n        /* \".workspaces/default_workspace/unMiracle/UMRproposal.sol\":1013:1028  block.timestamp */\n      timestamp\n        /* \".workspaces/default_workspace/unMiracle/UMRproposal.sol\":1001:1009  snapshot */\n      dup2\n        /* \".workspaces/default_workspace/unMiracle/UMRproposal.sol\":1001:1028  snapshot >= block.timestamp */\n      lt\n        /* \".workspaces/default_workspace/unMiracle/UMRproposal.sol\":997:1083  if (snapshot >= block.timestamp) {... */\n      tag_72\n      jumpi\n        /* \".workspaces/default_workspace/unMiracle/UMRproposal.sol\":1051:1072  ProposalState.Pending */\n      0x00\n        /* \".workspaces/default_workspace/unMiracle/UMRproposal.sol\":1044:1072  return ProposalState.Pending */\n      swap3\n      pop\n      pop\n      pop\n      jump(tag_68)\n        /* \".workspaces/default_workspace/unMiracle/UMRproposal.sol\":997:1083  if (snapshot >= block.timestamp) {... */\n    tag_72:\n        /* \".workspaces/default_workspace/unMiracle/UMRproposal.sol\":1093:1109  uint256 deadline */\n      0x00\n        /* \".workspaces/default_workspace/unMiracle/UMRproposal.sol\":1112:1140  proposalDeadline(proposalId) */\n      tag_73\n        /* \".workspaces/default_workspace/unMiracle/UMRproposal.sol\":1129:1139  proposalId */\n      dup6\n        /* \".workspaces/default_workspace/unMiracle/UMRproposal.sol\":1112:1128  proposalDeadline */\n      tag_51\n        /* \".workspaces/default_workspace/unMiracle/UMRproposal.sol\":1112:1140  proposalDeadline(proposalId) */\n      jump\t// in\n    tag_73:\n        /* \".workspaces/default_workspace/unMiracle/UMRproposal.sol\":1093:1140  uint256 deadline = proposalDeadline(proposalId) */\n      swap1\n      pop\n        /* \".workspaces/default_workspace/unMiracle/UMRproposal.sol\":1196:1211  block.timestamp */\n      timestamp\n        /* \".workspaces/default_workspace/unMiracle/UMRproposal.sol\":1184:1192  deadline */\n      dup2\n        /* \".workspaces/default_workspace/unMiracle/UMRproposal.sol\":1184:1211  deadline >= block.timestamp */\n      lt\n        /* \".workspaces/default_workspace/unMiracle/UMRproposal.sol\":1180:1265  if (deadline >= block.timestamp) {... */\n      tag_74\n      jumpi\n        /* \".workspaces/default_workspace/unMiracle/UMRproposal.sol\":1234:1254  ProposalState.Active */\n      0x01\n        /* \".workspaces/default_workspace/unMiracle/UMRproposal.sol\":1227:1254  return ProposalState.Active */\n      swap4\n      pop\n      pop\n      pop\n      pop\n      jump(tag_68)\n        /* \".workspaces/default_workspace/unMiracle/UMRproposal.sol\":1180:1265  if (deadline >= block.timestamp) {... */\n    tag_74:\n        /* \".workspaces/default_workspace/unMiracle/UMRproposal.sol\":1301:1324  ProposalState.Succeeded */\n      0x03\n        /* \".workspaces/default_workspace/unMiracle/UMRproposal.sol\":1294:1324  return ProposalState.Succeeded */\n      swap4\n      pop\n      pop\n      pop\n      pop\n        /* \".workspaces/default_workspace/unMiracle/UMRproposal.sol\":476:1331  function state(uint256 proposalId) public view returns (ProposalState) {... */\n    tag_68:\n      swap2\n      swap1\n      pop\n      jump\t// out\n        /* \".workspaces/default_workspace/unMiracle/UMRproposal.sol\":1672:2836  function proposal(... */\n    tag_35:\n        /* \".workspaces/default_workspace/unMiracle/UMRproposal.sol\":2072:2079  uint256 */\n      0x00\n        /* \".workspaces/default_workspace/unMiracle/UMRproposal.sol\":2297:2315  uint256 proposalId */\n      dup1\n        /* \".workspaces/default_workspace/unMiracle/UMRproposal.sol\":2318:2319  1 */\n      0x01\n        /* \".workspaces/default_workspace/unMiracle/UMRproposal.sol\":2297:2319  uint256 proposalId = 1 */\n      swap1\n      pop\n        /* \".workspaces/default_workspace/unMiracle/UMRproposal.sol\":2361:2390  ProposalCore storage proposal */\n      0x00\n        /* \".workspaces/default_workspace/unMiracle/UMRproposal.sol\":2393:2403  _proposals */\n      dup1\n        /* \".workspaces/default_workspace/unMiracle/UMRproposal.sol\":2393:2415  _proposals[proposalId] */\n      0x00\n        /* \".workspaces/default_workspace/unMiracle/UMRproposal.sol\":2404:2414  proposalId */\n      dup4\n        /* \".workspaces/default_workspace/unMiracle/UMRproposal.sol\":2393:2415  _proposals[proposalId] */\n      dup2\n      mstore\n      0x20\n      add\n      swap1\n      dup2\n      mstore\n      0x20\n      add\n      0x00\n      keccak256\n        /* \".workspaces/default_workspace/unMiracle/UMRproposal.sol\":2361:2415  ProposalCore storage proposal = _proposals[proposalId] */\n      swap1\n      pop\n        /* \".workspaces/default_workspace/unMiracle/UMRproposal.sol\":2458:2474  uint256 snapshot */\n      0x00\n        /* \".workspaces/default_workspace/unMiracle/UMRproposal.sol\":2514:2516  60 */\n      0x3c\n        /* \".workspaces/default_workspace/unMiracle/UMRproposal.sol\":2511:2513  60 */\n      dup1\n        /* \".workspaces/default_workspace/unMiracle/UMRproposal.sol\":2508:2510  24 */\n      0x18\n        /* \".workspaces/default_workspace/unMiracle/UMRproposal.sol\":2496:2507  donateDelay */\n      dup13\n        /* \".workspaces/default_workspace/unMiracle/UMRproposal.sol\":2496:2510  donateDelay*24 */\n      tag_76\n      swap2\n      swap1\n      tag_77\n      jump\t// in\n    tag_76:\n        /* \".workspaces/default_workspace/unMiracle/UMRproposal.sol\":2496:2513  donateDelay*24*60 */\n      tag_78\n      swap2\n      swap1\n      tag_77\n      jump\t// in\n    tag_78:\n        /* \".workspaces/default_workspace/unMiracle/UMRproposal.sol\":2496:2516  donateDelay*24*60*60 */\n      tag_79\n      swap2\n      swap1\n      tag_77\n      jump\t// in\n    tag_79:\n        /* \".workspaces/default_workspace/unMiracle/UMRproposal.sol\":2478:2493  block.timestamp */\n      timestamp\n        /* \".workspaces/default_workspace/unMiracle/UMRproposal.sol\":2478:2516  block.timestamp + donateDelay*24*60*60 */\n      tag_80\n      swap2\n      swap1\n      tag_81\n      jump\t// in\n    tag_80:\n        /* \".workspaces/default_workspace/unMiracle/UMRproposal.sol\":2458:2516  uint256 snapshot =  block.timestamp + donateDelay*24*60*60 */\n      swap1\n      pop\n        /* \".workspaces/default_workspace/unMiracle/UMRproposal.sol\":2558:2574  uint256 deadline */\n      0x00\n        /* \".workspaces/default_workspace/unMiracle/UMRproposal.sol\":2607:2609  60 */\n      0x3c\n        /* \".workspaces/default_workspace/unMiracle/UMRproposal.sol\":2604:2606  60 */\n      dup1\n        /* \".workspaces/default_workspace/unMiracle/UMRproposal.sol\":2601:2603  24 */\n      0x18\n        /* \".workspaces/default_workspace/unMiracle/UMRproposal.sol\":2588:2600  donatePeriod */\n      dup13\n        /* \".workspaces/default_workspace/unMiracle/UMRproposal.sol\":2588:2603  donatePeriod*24 */\n      tag_82\n      swap2\n      swap1\n      tag_77\n      jump\t// in\n    tag_82:\n        /* \".workspaces/default_workspace/unMiracle/UMRproposal.sol\":2588:2606  donatePeriod*24*60 */\n      tag_83\n      swap2\n      swap1\n      tag_77\n      jump\t// in\n    tag_83:\n        /* \".workspaces/default_workspace/unMiracle/UMRproposal.sol\":2588:2609  donatePeriod*24*60*60 */\n      tag_84\n      swap2\n      swap1\n      tag_77\n      jump\t// in\n    tag_84:\n        /* \".workspaces/default_workspace/unMiracle/UMRproposal.sol\":2577:2585  snapshot */\n      dup3\n        /* \".workspaces/default_workspace/unMiracle/UMRproposal.sol\":2577:2609  snapshot + donatePeriod*24*60*60 */\n      tag_85\n      swap2\n      swap1\n      tag_81\n      jump\t// in\n    tag_85:\n        /* \".workspaces/default_workspace/unMiracle/UMRproposal.sol\":2558:2609  uint256 deadline = snapshot + donatePeriod*24*60*60 */\n      swap1\n      pop\n        /* \".workspaces/default_workspace/unMiracle/UMRproposal.sol\":2648:2692  proposal.donationStart.setDeadline(snapshot) */\n      tag_86\n        /* \".workspaces/default_workspace/unMiracle/UMRproposal.sol\":2683:2691  snapshot */\n      dup3\n        /* \".workspaces/default_workspace/unMiracle/UMRproposal.sol\":2648:2656  proposal */\n      dup5\n        /* \".workspaces/default_workspace/unMiracle/UMRproposal.sol\":2648:2670  proposal.donationStart */\n      0x00\n      add\n        /* \".workspaces/default_workspace/unMiracle/UMRproposal.sol\":2648:2682  proposal.donationStart.setDeadline */\n      tag_87\n      swap1\n        /* \".workspaces/default_workspace/unMiracle/UMRproposal.sol\":2648:2692  proposal.donationStart.setDeadline(snapshot) */\n      swap2\n      swap1\n      0xffffffff\n      and\n      jump\t// in\n    tag_86:\n        /* \".workspaces/default_workspace/unMiracle/UMRproposal.sol\":2702:2744  proposal.donationEnd.setDeadline(deadline) */\n      tag_88\n        /* \".workspaces/default_workspace/unMiracle/UMRproposal.sol\":2735:2743  deadline */\n      dup2\n        /* \".workspaces/default_workspace/unMiracle/UMRproposal.sol\":2702:2710  proposal */\n      dup5\n        /* \".workspaces/default_workspace/unMiracle/UMRproposal.sol\":2702:2722  proposal.donationEnd */\n      0x03\n      add\n        /* \".workspaces/default_workspace/unMiracle/UMRproposal.sol\":2702:2734  proposal.donationEnd.setDeadline */\n      tag_87\n      swap1\n        /* \".workspaces/default_workspace/unMiracle/UMRproposal.sol\":2702:2744  proposal.donationEnd.setDeadline(deadline) */\n      swap2\n      swap1\n      0xffffffff\n      and\n      jump\t// in\n    tag_88:\n        /* \".workspaces/default_workspace/unMiracle/UMRproposal.sol\":2754:2801  proposal.donateMinimum.setAmount(donateMinimum) */\n      tag_89\n        /* \".workspaces/default_workspace/unMiracle/UMRproposal.sol\":2787:2800  donateMinimum */\n      dup10\n        /* \".workspaces/default_workspace/unMiracle/UMRproposal.sol\":2754:2762  proposal */\n      dup5\n        /* \".workspaces/default_workspace/unMiracle/UMRproposal.sol\":2754:2776  proposal.donateMinimum */\n      0x06\n      add\n        /* \".workspaces/default_workspace/unMiracle/UMRproposal.sol\":2754:2786  proposal.donateMinimum.setAmount */\n      tag_90\n      swap1\n        /* \".workspaces/default_workspace/unMiracle/UMRproposal.sol\":2754:2801  proposal.donateMinimum.setAmount(donateMinimum) */\n      swap2\n      swap1\n      0xffffffff\n      and\n      jump\t// in\n    tag_89:\n        /* \".workspaces/default_workspace/unMiracle/UMRproposal.sol\":2819:2829  proposalId */\n      dup4\n        /* \".workspaces/default_workspace/unMiracle/UMRproposal.sol\":2812:2829  return proposalId */\n      swap5\n      pop\n      pop\n      pop\n      pop\n      pop\n        /* \".workspaces/default_workspace/unMiracle/UMRproposal.sol\":1672:2836  function proposal(... */\n      swap7\n      swap6\n      pop\n      pop\n      pop\n      pop\n      pop\n      pop\n      jump\t// out\n        /* \".workspaces/default_workspace/unMiracle/UMRproposal.sol\":1338:1666  function hashProposal(... */\n    tag_41:\n        /* \".workspaces/default_workspace/unMiracle/UMRproposal.sol\":1562:1569  uint256 */\n      0x00\n        /* \".workspaces/default_workspace/unMiracle/UMRproposal.sol\":1617:1628  destination */\n      dup4\n        /* \".workspaces/default_workspace/unMiracle/UMRproposal.sol\":1630:1639  calldatas */\n      dup4\n        /* \".workspaces/default_workspace/unMiracle/UMRproposal.sol\":1641:1656  descriptionHash */\n      dup4\n        /* \".workspaces/default_workspace/unMiracle/UMRproposal.sol\":1606:1657  abi.encode(destination, calldatas, descriptionHash) */\n      add(0x20, mload(0x40))\n      tag_92\n      swap4\n      swap3\n      swap2\n      swap1\n      tag_93\n      jump\t// in\n    tag_92:\n      mload(0x40)\n      0x20\n      dup2\n      dup4\n      sub\n      sub\n      dup2\n      mstore\n      swap1\n      0x40\n      mstore\n        /* \".workspaces/default_workspace/unMiracle/UMRproposal.sol\":1596:1658  keccak256(abi.encode(destination, calldatas, descriptionHash)) */\n      dup1\n      mload\n      swap1\n      0x20\n      add\n      keccak256\n        /* \".workspaces/default_workspace/unMiracle/UMRproposal.sol\":1588:1659  uint256(keccak256(abi.encode(destination, calldatas, descriptionHash))) */\n      0x00\n      shr\n        /* \".workspaces/default_workspace/unMiracle/UMRproposal.sol\":1581:1659  return uint256(keccak256(abi.encode(destination, calldatas, descriptionHash))) */\n      swap1\n      pop\n        /* \".workspaces/default_workspace/unMiracle/UMRproposal.sol\":1338:1666  function hashProposal(... */\n      swap4\n      swap3\n      pop\n      pop\n      pop\n      jump\t// out\n        /* \".workspaces/default_workspace/unMiracle/UMRproposal.sol\":3772:4503  function execute(... */\n    tag_46:\n        /* \".workspaces/default_workspace/unMiracle/UMRproposal.sol\":4014:4021  uint256 */\n      0x00\n        /* \".workspaces/default_workspace/unMiracle/UMRproposal.sol\":4082:4100  uint256 proposalId */\n      dup1\n        /* \".workspaces/default_workspace/unMiracle/UMRproposal.sol\":4103:4170  hashProposal(destination, calldatas, keccak256(bytes(description))) */\n      tag_95\n        /* \".workspaces/default_workspace/unMiracle/UMRproposal.sol\":4116:4127  destination */\n      dup6\n        /* \".workspaces/default_workspace/unMiracle/UMRproposal.sol\":4129:4138  calldatas */\n      dup5\n        /* \".workspaces/default_workspace/unMiracle/UMRproposal.sol\":4156:4167  description */\n      dup7\n        /* \".workspaces/default_workspace/unMiracle/UMRproposal.sol\":4140:4169  keccak256(bytes(description)) */\n      dup1\n      mload\n      swap1\n      0x20\n      add\n      keccak256\n        /* \".workspaces/default_workspace/unMiracle/UMRproposal.sol\":4103:4115  hashProposal */\n      tag_41\n        /* \".workspaces/default_workspace/unMiracle/UMRproposal.sol\":4103:4170  hashProposal(destination, calldatas, keccak256(bytes(description))) */\n      jump\t// in\n    tag_95:\n        /* \".workspaces/default_workspace/unMiracle/UMRproposal.sol\":4082:4170  uint256 proposalId = hashProposal(destination, calldatas, keccak256(bytes(description))) */\n      swap1\n      pop\n        /* \".workspaces/default_workspace/unMiracle/UMRproposal.sol\":4185:4205  ProposalState status */\n      0x00\n        /* \".workspaces/default_workspace/unMiracle/UMRproposal.sol\":4208:4225  state(proposalId) */\n      tag_96\n        /* \".workspaces/default_workspace/unMiracle/UMRproposal.sol\":4214:4224  proposalId */\n      dup3\n        /* \".workspaces/default_workspace/unMiracle/UMRproposal.sol\":4208:4213  state */\n      tag_28\n        /* \".workspaces/default_workspace/unMiracle/UMRproposal.sol\":4208:4225  state(proposalId) */\n      jump\t// in\n    tag_96:\n        /* \".workspaces/default_workspace/unMiracle/UMRproposal.sol\":4185:4225  ProposalState status = state(proposalId) */\n      swap1\n      pop\n        /* \".workspaces/default_workspace/unMiracle/UMRproposal.sol\":4271:4294  ProposalState.Succeeded */\n      0x03\n        /* \".workspaces/default_workspace/unMiracle/UMRproposal.sol\":4261:4294  status == ProposalState.Succeeded */\n      0x05\n      dup2\n      gt\n      iszero\n      tag_97\n      jumpi\n      tag_98\n      tag_99\n      jump\t// in\n    tag_98:\n    tag_97:\n        /* \".workspaces/default_workspace/unMiracle/UMRproposal.sol\":4261:4267  status */\n      dup2\n        /* \".workspaces/default_workspace/unMiracle/UMRproposal.sol\":4261:4294  status == ProposalState.Succeeded */\n      0x05\n      dup2\n      gt\n      iszero\n      tag_100\n      jumpi\n      tag_101\n      tag_99\n      jump\t// in\n    tag_101:\n    tag_100:\n      eq\n        /* \".workspaces/default_workspace/unMiracle/UMRproposal.sol\":4240:4357  require(... */\n      tag_102\n      jumpi\n      mload(0x40)\n      0x08c379a000000000000000000000000000000000000000000000000000000000\n      dup2\n      mstore\n      0x04\n      add\n      tag_103\n      swap1\n      tag_104\n      jump\t// in\n    tag_103:\n      mload(0x40)\n      dup1\n      swap2\n      sub\n      swap1\n      revert\n    tag_102:\n        /* \".workspaces/default_workspace/unMiracle/UMRproposal.sol\":4405:4409  true */\n      0x01\n        /* \".workspaces/default_workspace/unMiracle/UMRproposal.sol\":4371:4381  _proposals */\n      0x00\n        /* \".workspaces/default_workspace/unMiracle/UMRproposal.sol\":4371:4393  _proposals[proposalId] */\n      dup1\n        /* \".workspaces/default_workspace/unMiracle/UMRproposal.sol\":4382:4392  proposalId */\n      dup5\n        /* \".workspaces/default_workspace/unMiracle/UMRproposal.sol\":4371:4393  _proposals[proposalId] */\n      dup2\n      mstore\n      0x20\n      add\n      swap1\n      dup2\n      mstore\n      0x20\n      add\n      0x00\n      keccak256\n        /* \".workspaces/default_workspace/unMiracle/UMRproposal.sol\":4371:4402  _proposals[proposalId].executed */\n      0x0c\n      add\n      0x00\n        /* \".workspaces/default_workspace/unMiracle/UMRproposal.sol\":4371:4409  _proposals[proposalId].executed = true */\n      0x0100\n      exp\n      dup2\n      sload\n      dup2\n      0xff\n      mul\n      not\n      and\n      swap1\n      dup4\n      iszero\n      iszero\n      mul\n      or\n      swap1\n      sstore\n      pop\n        /* \".workspaces/default_workspace/unMiracle/UMRproposal.sol\":4023:4503  {... */\n      pop\n      pop\n        /* \".workspaces/default_workspace/unMiracle/UMRproposal.sol\":3772:4503  function execute(... */\n      swap4\n      swap3\n      pop\n      pop\n      pop\n      jump\t// out\n        /* \".workspaces/default_workspace/unMiracle/UMRproposal.sol\":3069:3225  function proposalDeadline(uint256 proposalId) public view virtual returns (uint256) {... */\n    tag_51:\n        /* \".workspaces/default_workspace/unMiracle/UMRproposal.sol\":3144:3151  uint256 */\n      0x00\n        /* \".workspaces/default_workspace/unMiracle/UMRproposal.sol\":3170:3218  _proposals[proposalId].donationEnd.getDeadline() */\n      tag_106\n        /* \".workspaces/default_workspace/unMiracle/UMRproposal.sol\":3170:3180  _proposals */\n      0x00\n        /* \".workspaces/default_workspace/unMiracle/UMRproposal.sol\":3170:3192  _proposals[proposalId] */\n      dup1\n        /* \".workspaces/default_workspace/unMiracle/UMRproposal.sol\":3181:3191  proposalId */\n      dup5\n        /* \".workspaces/default_workspace/unMiracle/UMRproposal.sol\":3170:3192  _proposals[proposalId] */\n      dup2\n      mstore\n      0x20\n      add\n      swap1\n      dup2\n      mstore\n      0x20\n      add\n      0x00\n      keccak256\n        /* \".workspaces/default_workspace/unMiracle/UMRproposal.sol\":3170:3204  _proposals[proposalId].donationEnd */\n      0x03\n      add\n        /* \".workspaces/default_workspace/unMiracle/UMRproposal.sol\":3170:3216  _proposals[proposalId].donationEnd.getDeadline */\n      mload(0x40)\n      dup1\n      0x60\n      add\n      0x40\n      mstore\n      swap1\n      dup2\n      0x00\n      dup3\n      add\n      sload\n      dup2\n      mstore\n      0x20\n      add\n      0x01\n      dup3\n      add\n      sload\n      dup2\n      mstore\n      0x20\n      add\n      0x02\n      dup3\n      add\n      sload\n      dup2\n      mstore\n      pop\n      pop\n      tag_64\n        /* \".workspaces/default_workspace/unMiracle/UMRproposal.sol\":3170:3218  _proposals[proposalId].donationEnd.getDeadline() */\n      jump\t// in\n    tag_106:\n        /* \".workspaces/default_workspace/unMiracle/UMRproposal.sol\":3163:3218  return _proposals[proposalId].donationEnd.getDeadline() */\n      swap1\n      pop\n        /* \".workspaces/default_workspace/unMiracle/UMRproposal.sol\":3069:3225  function proposalDeadline(uint256 proposalId) public view virtual returns (uint256) {... */\n      swap2\n      swap1\n      pop\n      jump\t// out\n        /* \".workspaces/default_workspace/unMiracle/UMRproposal.sol\":3443:3590  function setCurrentAmount(uint256 proposalId,uint256 amount) public virtual {... */\n    tag_56:\n        /* \".workspaces/default_workspace/unMiracle/UMRproposal.sol\":3529:3583  _proposals[proposalId].donate.setCurrentAmount(amount) */\n      tag_108\n        /* \".workspaces/default_workspace/unMiracle/UMRproposal.sol\":3576:3582  amount */\n      dup2\n        /* \".workspaces/default_workspace/unMiracle/UMRproposal.sol\":3529:3539  _proposals */\n      0x00\n        /* \".workspaces/default_workspace/unMiracle/UMRproposal.sol\":3529:3551  _proposals[proposalId] */\n      dup1\n        /* \".workspaces/default_workspace/unMiracle/UMRproposal.sol\":3540:3550  proposalId */\n      dup6\n        /* \".workspaces/default_workspace/unMiracle/UMRproposal.sol\":3529:3551  _proposals[proposalId] */\n      dup2\n      mstore\n      0x20\n      add\n      swap1\n      dup2\n      mstore\n      0x20\n      add\n      0x00\n      keccak256\n        /* \".workspaces/default_workspace/unMiracle/UMRproposal.sol\":3529:3558  _proposals[proposalId].donate */\n      0x09\n      add\n        /* \".workspaces/default_workspace/unMiracle/UMRproposal.sol\":3529:3575  _proposals[proposalId].donate.setCurrentAmount */\n      tag_109\n      swap1\n        /* \".workspaces/default_workspace/unMiracle/UMRproposal.sol\":3529:3583  _proposals[proposalId].donate.setCurrentAmount(amount) */\n      swap2\n      swap1\n      0xffffffff\n      and\n      jump\t// in\n    tag_108:\n        /* \".workspaces/default_workspace/unMiracle/UMRproposal.sol\":3443:3590  function setCurrentAmount(uint256 proposalId,uint256 amount) public virtual {... */\n      pop\n      pop\n      jump\t// out\n        /* \".workspaces/default_workspace/unMiracle/UMRproposal.sol\":3276:3437  function proposalDonateMinimum(uint256 proposalId) public view virtual returns (uint256) {... */\n    tag_60:\n        /* \".workspaces/default_workspace/unMiracle/UMRproposal.sol\":3356:3363  uint256 */\n      0x00\n        /* \".workspaces/default_workspace/unMiracle/UMRproposal.sol\":3382:3430  _proposals[proposalId].donateMinimum.getAmount() */\n      tag_111\n        /* \".workspaces/default_workspace/unMiracle/UMRproposal.sol\":3382:3392  _proposals */\n      0x00\n        /* \".workspaces/default_workspace/unMiracle/UMRproposal.sol\":3382:3404  _proposals[proposalId] */\n      dup1\n        /* \".workspaces/default_workspace/unMiracle/UMRproposal.sol\":3393:3403  proposalId */\n      dup5\n        /* \".workspaces/default_workspace/unMiracle/UMRproposal.sol\":3382:3404  _proposals[proposalId] */\n      dup2\n      mstore\n      0x20\n      add\n      swap1\n      dup2\n      mstore\n      0x20\n      add\n      0x00\n      keccak256\n        /* \".workspaces/default_workspace/unMiracle/UMRproposal.sol\":3382:3418  _proposals[proposalId].donateMinimum */\n      0x06\n      add\n        /* \".workspaces/default_workspace/unMiracle/UMRproposal.sol\":3382:3428  _proposals[proposalId].donateMinimum.getAmount */\n      mload(0x40)\n      dup1\n      0x60\n      add\n      0x40\n      mstore\n      swap1\n      dup2\n      0x00\n      dup3\n      add\n      sload\n      dup2\n      mstore\n      0x20\n      add\n      0x01\n      dup3\n      add\n      sload\n      dup2\n      mstore\n      0x20\n      add\n      0x02\n      dup3\n      add\n      sload\n      dup2\n      mstore\n      pop\n      pop\n      tag_112\n        /* \".workspaces/default_workspace/unMiracle/UMRproposal.sol\":3382:3430  _proposals[proposalId].donateMinimum.getAmount() */\n      jump\t// in\n    tag_111:\n        /* \".workspaces/default_workspace/unMiracle/UMRproposal.sol\":3375:3430  return _proposals[proposalId].donateMinimum.getAmount() */\n      swap1\n      pop\n        /* \".workspaces/default_workspace/unMiracle/UMRproposal.sol\":3276:3437  function proposalDonateMinimum(uint256 proposalId) public view virtual returns (uint256) {... */\n      swap2\n      swap1\n      pop\n      jump\t// out\n        /* \".workspaces/default_workspace/unMiracle/utils/setting.sol\":382:492  function getDeadline(SetInfo memory info) internal pure returns(uint256) {... */\n    tag_64:\n        /* \".workspaces/default_workspace/unMiracle/utils/setting.sol\":446:453  uint256 */\n      0x00\n        /* \".workspaces/default_workspace/unMiracle/utils/setting.sol\":472:476  info */\n      dup2\n        /* \".workspaces/default_workspace/unMiracle/utils/setting.sol\":472:485  info.deadline */\n      0x00\n      add\n      mload\n        /* \".workspaces/default_workspace/unMiracle/utils/setting.sol\":465:485  return info.deadline */\n      swap1\n      pop\n        /* \".workspaces/default_workspace/unMiracle/utils/setting.sol\":382:492  function getDeadline(SetInfo memory info) internal pure returns(uint256) {... */\n      swap2\n      swap1\n      pop\n      jump\t// out\n        /* \".workspaces/default_workspace/unMiracle/utils/setting.sol\":849:962  function getCurrentAmount(SetInfo memory info) internal pure returns(uint256) {... */\n    tag_67:\n        /* \".workspaces/default_workspace/unMiracle/utils/setting.sol\":918:925  uint256 */\n      0x00\n        /* \".workspaces/default_workspace/unMiracle/utils/setting.sol\":944:948  info */\n      dup2\n        /* \".workspaces/default_workspace/unMiracle/utils/setting.sol\":944:955  info.amount */\n      0x20\n      add\n      mload\n        /* \".workspaces/default_workspace/unMiracle/utils/setting.sol\":937:955  return info.amount */\n      swap1\n      pop\n        /* \".workspaces/default_workspace/unMiracle/utils/setting.sol\":849:962  function getCurrentAmount(SetInfo memory info) internal pure returns(uint256) {... */\n      swap2\n      swap1\n      pop\n      jump\t// out\n        /* \".workspaces/default_workspace/unMiracle/utils/setting.sol\":256:376  function setDeadline(SetInfo storage info, uint256 timestamp) internal {... */\n    tag_87:\n        /* \".workspaces/default_workspace/unMiracle/utils/setting.sol\":365:369  1000 */\n      0x03e8\n        /* \".workspaces/default_workspace/unMiracle/utils/setting.sol\":353:362  timestamp */\n      dup2\n        /* \".workspaces/default_workspace/unMiracle/utils/setting.sol\":353:369  timestamp * 1000 */\n      tag_116\n      swap2\n      swap1\n      tag_77\n      jump\t// in\n    tag_116:\n        /* \".workspaces/default_workspace/unMiracle/utils/setting.sol\":337:341  info */\n      dup3\n        /* \".workspaces/default_workspace/unMiracle/utils/setting.sol\":337:350  info.deadline */\n      0x00\n      add\n        /* \".workspaces/default_workspace/unMiracle/utils/setting.sol\":337:369  info.deadline = timestamp * 1000 */\n      dup2\n      swap1\n      sstore\n      pop\n        /* \".workspaces/default_workspace/unMiracle/utils/setting.sol\":256:376  function setDeadline(SetInfo storage info, uint256 timestamp) internal {... */\n      pop\n      pop\n      jump\t// out\n        /* \".workspaces/default_workspace/unMiracle/utils/setting.sol\":498:601  function setAmount(SetInfo storage info, uint256 amount) internal {... */\n    tag_90:\n        /* \".workspaces/default_workspace/unMiracle/utils/setting.sol\":588:594  amount */\n      dup1\n        /* \".workspaces/default_workspace/unMiracle/utils/setting.sol\":574:578  info */\n      dup3\n        /* \".workspaces/default_workspace/unMiracle/utils/setting.sol\":574:585  info.amount */\n      0x01\n      add\n        /* \".workspaces/default_workspace/unMiracle/utils/setting.sol\":574:594  info.amount = amount */\n      dup2\n      swap1\n      sstore\n      pop\n        /* \".workspaces/default_workspace/unMiracle/utils/setting.sol\":498:601  function setAmount(SetInfo storage info, uint256 amount) internal {... */\n      pop\n      pop\n      jump\t// out\n        /* \".workspaces/default_workspace/unMiracle/utils/setting.sol\":719:843  function setCurrentAmount(SetInfo storage info, uint256 amount) internal {... */\n    tag_109:\n        /* \".workspaces/default_workspace/unMiracle/utils/setting.sol\":830:836  amount */\n      dup1\n        /* \".workspaces/default_workspace/unMiracle/utils/setting.sol\":816:820  info */\n      dup3\n        /* \".workspaces/default_workspace/unMiracle/utils/setting.sol\":816:827  info.amount */\n      0x01\n      add\n      sload\n        /* \".workspaces/default_workspace/unMiracle/utils/setting.sol\":816:836  info.amount + amount */\n      tag_119\n      swap2\n      swap1\n      tag_81\n      jump\t// in\n    tag_119:\n        /* \".workspaces/default_workspace/unMiracle/utils/setting.sol\":802:806  info */\n      dup3\n        /* \".workspaces/default_workspace/unMiracle/utils/setting.sol\":802:813  info.amount */\n      0x01\n      add\n        /* \".workspaces/default_workspace/unMiracle/utils/setting.sol\":802:836  info.amount = info.amount + amount */\n      dup2\n      swap1\n      sstore\n      pop\n        /* \".workspaces/default_workspace/unMiracle/utils/setting.sol\":719:843  function setCurrentAmount(SetInfo storage info, uint256 amount) internal {... */\n      pop\n      pop\n      jump\t// out\n        /* \".workspaces/default_workspace/unMiracle/utils/setting.sol\":607:713  function getAmount(SetInfo memory info) internal pure returns(uint256) {... */\n    tag_112:\n        /* \".workspaces/default_workspace/unMiracle/utils/setting.sol\":669:676  uint256 */\n      0x00\n        /* \".workspaces/default_workspace/unMiracle/utils/setting.sol\":695:699  info */\n      dup2\n        /* \".workspaces/default_workspace/unMiracle/utils/setting.sol\":695:706  info.amount */\n      0x20\n      add\n      mload\n        /* \".workspaces/default_workspace/unMiracle/utils/setting.sol\":688:706  return info.amount */\n      swap1\n      pop\n        /* \".workspaces/default_workspace/unMiracle/utils/setting.sol\":607:713  function getAmount(SetInfo memory info) internal pure returns(uint256) {... */\n      swap2\n      swap1\n      pop\n      jump\t// out\n        /* \"#utility.yul\":7:82   */\n    tag_121:\n        /* \"#utility.yul\":40:46   */\n      0x00\n        /* \"#utility.yul\":73:75   */\n      0x40\n        /* \"#utility.yul\":67:76   */\n      mload\n        /* \"#utility.yul\":57:76   */\n      swap1\n      pop\n        /* \"#utility.yul\":7:82   */\n      swap1\n      jump\t// out\n        /* \"#utility.yul\":88:205   */\n    tag_122:\n        /* \"#utility.yul\":197:198   */\n      0x00\n        /* \"#utility.yul\":194:195   */\n      dup1\n        /* \"#utility.yul\":187:199   */\n      revert\n        /* \"#utility.yul\":211:328   */\n    tag_123:\n        /* \"#utility.yul\":320:321   */\n      0x00\n        /* \"#utility.yul\":317:318   */\n      dup1\n        /* \"#utility.yul\":310:322   */\n      revert\n        /* \"#utility.yul\":334:411   */\n    tag_124:\n        /* \"#utility.yul\":371:378   */\n      0x00\n        /* \"#utility.yul\":400:405   */\n      dup2\n        /* \"#utility.yul\":389:405   */\n      swap1\n      pop\n        /* \"#utility.yul\":334:411   */\n      swap2\n      swap1\n      pop\n      jump\t// out\n        /* \"#utility.yul\":417:539   */\n    tag_125:\n        /* \"#utility.yul\":490:514   */\n      tag_178\n        /* \"#utility.yul\":508:513   */\n      dup2\n        /* \"#utility.yul\":490:514   */\n      tag_124\n      jump\t// in\n    tag_178:\n        /* \"#utility.yul\":483:488   */\n      dup2\n        /* \"#utility.yul\":480:515   */\n      eq\n        /* \"#utility.yul\":470:533   */\n      tag_179\n      jumpi\n        /* \"#utility.yul\":529:530   */\n      0x00\n        /* \"#utility.yul\":526:527   */\n      dup1\n        /* \"#utility.yul\":519:531   */\n      revert\n        /* \"#utility.yul\":470:533   */\n    tag_179:\n        /* \"#utility.yul\":417:539   */\n      pop\n      jump\t// out\n        /* \"#utility.yul\":545:684   */\n    tag_126:\n        /* \"#utility.yul\":591:596   */\n      0x00\n        /* \"#utility.yul\":629:635   */\n      dup2\n        /* \"#utility.yul\":616:636   */\n      calldataload\n        /* \"#utility.yul\":607:636   */\n      swap1\n      pop\n        /* \"#utility.yul\":645:678   */\n      tag_181\n        /* \"#utility.yul\":672:677   */\n      dup2\n        /* \"#utility.yul\":645:678   */\n      tag_125\n      jump\t// in\n    tag_181:\n        /* \"#utility.yul\":545:684   */\n      swap3\n      swap2\n      pop\n      pop\n      jump\t// out\n        /* \"#utility.yul\":690:1019   */\n    tag_15:\n        /* \"#utility.yul\":749:755   */\n      0x00\n        /* \"#utility.yul\":798:800   */\n      0x20\n        /* \"#utility.yul\":786:795   */\n      dup3\n        /* \"#utility.yul\":777:784   */\n      dup5\n        /* \"#utility.yul\":773:796   */\n      sub\n        /* \"#utility.yul\":769:801   */\n      slt\n        /* \"#utility.yul\":766:885   */\n      iszero\n      tag_183\n      jumpi\n        /* \"#utility.yul\":804:883   */\n      tag_184\n      tag_122\n      jump\t// in\n    tag_184:\n        /* \"#utility.yul\":766:885   */\n    tag_183:\n        /* \"#utility.yul\":924:925   */\n      0x00\n        /* \"#utility.yul\":949:1002   */\n      tag_185\n        /* \"#utility.yul\":994:1001   */\n      dup5\n        /* \"#utility.yul\":985:991   */\n      dup3\n        /* \"#utility.yul\":974:983   */\n      dup6\n        /* \"#utility.yul\":970:992   */\n      add\n        /* \"#utility.yul\":949:1002   */\n      tag_126\n      jump\t// in\n    tag_185:\n        /* \"#utility.yul\":939:1002   */\n      swap2\n      pop\n        /* \"#utility.yul\":895:1012   */\n      pop\n        /* \"#utility.yul\":690:1019   */\n      swap3\n      swap2\n      pop\n      pop\n      jump\t// out\n        /* \"#utility.yul\":1025:1143   */\n    tag_127:\n        /* \"#utility.yul\":1112:1136   */\n      tag_187\n        /* \"#utility.yul\":1130:1135   */\n      dup2\n        /* \"#utility.yul\":1112:1136   */\n      tag_124\n      jump\t// in\n    tag_187:\n        /* \"#utility.yul\":1107:1110   */\n      dup3\n        /* \"#utility.yul\":1100:1137   */\n      mstore\n        /* \"#utility.yul\":1025:1143   */\n      pop\n      pop\n      jump\t// out\n        /* \"#utility.yul\":1149:1371   */\n    tag_18:\n        /* \"#utility.yul\":1242:1246   */\n      0x00\n        /* \"#utility.yul\":1280:1282   */\n      0x20\n        /* \"#utility.yul\":1269:1278   */\n      dup3\n        /* \"#utility.yul\":1265:1283   */\n      add\n        /* \"#utility.yul\":1257:1283   */\n      swap1\n      pop\n        /* \"#utility.yul\":1293:1364   */\n      tag_189\n        /* \"#utility.yul\":1361:1362   */\n      0x00\n        /* \"#utility.yul\":1350:1359   */\n      dup4\n        /* \"#utility.yul\":1346:1363   */\n      add\n        /* \"#utility.yul\":1337:1343   */\n      dup5\n        /* \"#utility.yul\":1293:1364   */\n      tag_127\n      jump\t// in\n    tag_189:\n        /* \"#utility.yul\":1149:1371   */\n      swap3\n      swap2\n      pop\n      pop\n      jump\t// out\n        /* \"#utility.yul\":1377:1851   */\n    tag_22:\n        /* \"#utility.yul\":1445:1451   */\n      0x00\n        /* \"#utility.yul\":1453:1459   */\n      dup1\n        /* \"#utility.yul\":1502:1504   */\n      0x40\n        /* \"#utility.yul\":1490:1499   */\n      dup4\n        /* \"#utility.yul\":1481:1488   */\n      dup6\n        /* \"#utility.yul\":1477:1500   */\n      sub\n        /* \"#utility.yul\":1473:1505   */\n      slt\n        /* \"#utility.yul\":1470:1589   */\n      iszero\n      tag_191\n      jumpi\n        /* \"#utility.yul\":1508:1587   */\n      tag_192\n      tag_122\n      jump\t// in\n    tag_192:\n        /* \"#utility.yul\":1470:1589   */\n    tag_191:\n        /* \"#utility.yul\":1628:1629   */\n      0x00\n        /* \"#utility.yul\":1653:1706   */\n      tag_193\n        /* \"#utility.yul\":1698:1705   */\n      dup6\n        /* \"#utility.yul\":1689:1695   */\n      dup3\n        /* \"#utility.yul\":1678:1687   */\n      dup7\n        /* \"#utility.yul\":1674:1696   */\n      add\n        /* \"#utility.yul\":1653:1706   */\n      tag_126\n      jump\t// in\n    tag_193:\n        /* \"#utility.yul\":1643:1706   */\n      swap3\n      pop\n        /* \"#utility.yul\":1599:1716   */\n      pop\n        /* \"#utility.yul\":1755:1757   */\n      0x20\n        /* \"#utility.yul\":1781:1834   */\n      tag_194\n        /* \"#utility.yul\":1826:1833   */\n      dup6\n        /* \"#utility.yul\":1817:1823   */\n      dup3\n        /* \"#utility.yul\":1806:1815   */\n      dup7\n        /* \"#utility.yul\":1802:1824   */\n      add\n        /* \"#utility.yul\":1781:1834   */\n      tag_126\n      jump\t// in\n    tag_194:\n        /* \"#utility.yul\":1771:1834   */\n      swap2\n      pop\n        /* \"#utility.yul\":1726:1844   */\n      pop\n        /* \"#utility.yul\":1377:1851   */\n      swap3\n      pop\n      swap3\n      swap1\n      pop\n      jump\t// out\n        /* \"#utility.yul\":1857:2037   */\n    tag_99:\n        /* \"#utility.yul\":1905:1982   */\n      0x4e487b7100000000000000000000000000000000000000000000000000000000\n        /* \"#utility.yul\":1902:1903   */\n      0x00\n        /* \"#utility.yul\":1895:1983   */\n      mstore\n        /* \"#utility.yul\":2002:2006   */\n      0x21\n        /* \"#utility.yul\":1999:2000   */\n      0x04\n        /* \"#utility.yul\":1992:2007   */\n      mstore\n        /* \"#utility.yul\":2026:2030   */\n      0x24\n        /* \"#utility.yul\":2023:2024   */\n      0x00\n        /* \"#utility.yul\":2016:2031   */\n      revert\n        /* \"#utility.yul\":2043:2163   */\n    tag_128:\n        /* \"#utility.yul\":2131:2132   */\n      0x06\n        /* \"#utility.yul\":2124:2129   */\n      dup2\n        /* \"#utility.yul\":2121:2133   */\n      lt\n        /* \"#utility.yul\":2111:2157   */\n      tag_197\n      jumpi\n        /* \"#utility.yul\":2137:2155   */\n      tag_198\n      tag_99\n      jump\t// in\n    tag_198:\n        /* \"#utility.yul\":2111:2157   */\n    tag_197:\n        /* \"#utility.yul\":2043:2163   */\n      pop\n      jump\t// out\n        /* \"#utility.yul\":2169:2310   */\n    tag_129:\n        /* \"#utility.yul\":2221:2228   */\n      0x00\n        /* \"#utility.yul\":2250:2255   */\n      dup2\n        /* \"#utility.yul\":2239:2255   */\n      swap1\n      pop\n        /* \"#utility.yul\":2256:2304   */\n      tag_200\n        /* \"#utility.yul\":2298:2303   */\n      dup3\n        /* \"#utility.yul\":2256:2304   */\n      tag_128\n      jump\t// in\n    tag_200:\n        /* \"#utility.yul\":2169:2310   */\n      swap2\n      swap1\n      pop\n      jump\t// out\n        /* \"#utility.yul\":2316:2457   */\n    tag_130:\n        /* \"#utility.yul\":2379:2388   */\n      0x00\n        /* \"#utility.yul\":2412:2451   */\n      tag_202\n        /* \"#utility.yul\":2445:2450   */\n      dup3\n        /* \"#utility.yul\":2412:2451   */\n      tag_129\n      jump\t// in\n    tag_202:\n        /* \"#utility.yul\":2399:2451   */\n      swap1\n      pop\n        /* \"#utility.yul\":2316:2457   */\n      swap2\n      swap1\n      pop\n      jump\t// out\n        /* \"#utility.yul\":2463:2620   */\n    tag_131:\n        /* \"#utility.yul\":2563:2613   */\n      tag_204\n        /* \"#utility.yul\":2607:2612   */\n      dup2\n        /* \"#utility.yul\":2563:2613   */\n      tag_130\n      jump\t// in\n    tag_204:\n        /* \"#utility.yul\":2558:2561   */\n      dup3\n        /* \"#utility.yul\":2551:2614   */\n      mstore\n        /* \"#utility.yul\":2463:2620   */\n      pop\n      pop\n      jump\t// out\n        /* \"#utility.yul\":2626:2874   */\n    tag_30:\n        /* \"#utility.yul\":2732:2736   */\n      0x00\n        /* \"#utility.yul\":2770:2772   */\n      0x20\n        /* \"#utility.yul\":2759:2768   */\n      dup3\n        /* \"#utility.yul\":2755:2773   */\n      add\n        /* \"#utility.yul\":2747:2773   */\n      swap1\n      pop\n        /* \"#utility.yul\":2783:2867   */\n      tag_206\n        /* \"#utility.yul\":2864:2865   */\n      0x00\n        /* \"#utility.yul\":2853:2862   */\n      dup4\n        /* \"#utility.yul\":2849:2866   */\n      add\n        /* \"#utility.yul\":2840:2846   */\n      dup5\n        /* \"#utility.yul\":2783:2867   */\n      tag_131\n      jump\t// in\n    tag_206:\n        /* \"#utility.yul\":2626:2874   */\n      swap3\n      swap2\n      pop\n      pop\n      jump\t// out\n        /* \"#utility.yul\":2880:3006   */\n    tag_132:\n        /* \"#utility.yul\":2917:2924   */\n      0x00\n        /* \"#utility.yul\":2957:2999   */\n      0xffffffffffffffffffffffffffffffffffffffff\n        /* \"#utility.yul\":2950:2955   */\n      dup3\n        /* \"#utility.yul\":2946:3000   */\n      and\n        /* \"#utility.yul\":2935:3000   */\n      swap1\n      pop\n        /* \"#utility.yul\":2880:3006   */\n      swap2\n      swap1\n      pop\n      jump\t// out\n        /* \"#utility.yul\":3012:3108   */\n    tag_133:\n        /* \"#utility.yul\":3049:3056   */\n      0x00\n        /* \"#utility.yul\":3078:3102   */\n      tag_209\n        /* \"#utility.yul\":3096:3101   */\n      dup3\n        /* \"#utility.yul\":3078:3102   */\n      tag_132\n      jump\t// in\n    tag_209:\n        /* \"#utility.yul\":3067:3102   */\n      swap1\n      pop\n        /* \"#utility.yul\":3012:3108   */\n      swap2\n      swap1\n      pop\n      jump\t// out\n        /* \"#utility.yul\":3114:3236   */\n    tag_134:\n        /* \"#utility.yul\":3187:3211   */\n      tag_211\n        /* \"#utility.yul\":3205:3210   */\n      dup2\n        /* \"#utility.yul\":3187:3211   */\n      tag_133\n      jump\t// in\n    tag_211:\n        /* \"#utility.yul\":3180:3185   */\n      dup2\n        /* \"#utility.yul\":3177:3212   */\n      eq\n        /* \"#utility.yul\":3167:3230   */\n      tag_212\n      jumpi\n        /* \"#utility.yul\":3226:3227   */\n      0x00\n        /* \"#utility.yul\":3223:3224   */\n      dup1\n        /* \"#utility.yul\":3216:3228   */\n      revert\n        /* \"#utility.yul\":3167:3230   */\n    tag_212:\n        /* \"#utility.yul\":3114:3236   */\n      pop\n      jump\t// out\n        /* \"#utility.yul\":3242:3381   */\n    tag_135:\n        /* \"#utility.yul\":3288:3293   */\n      0x00\n        /* \"#utility.yul\":3326:3332   */\n      dup2\n        /* \"#utility.yul\":3313:3333   */\n      calldataload\n        /* \"#utility.yul\":3304:3333   */\n      swap1\n      pop\n        /* \"#utility.yul\":3342:3375   */\n      tag_214\n        /* \"#utility.yul\":3369:3374   */\n      dup2\n        /* \"#utility.yul\":3342:3375   */\n      tag_134\n      jump\t// in\n    tag_214:\n        /* \"#utility.yul\":3242:3381   */\n      swap3\n      swap2\n      pop\n      pop\n      jump\t// out\n        /* \"#utility.yul\":3387:3504   */\n    tag_136:\n        /* \"#utility.yul\":3496:3497   */\n      0x00\n        /* \"#utility.yul\":3493:3494   */\n      dup1\n        /* \"#utility.yul\":3486:3498   */\n      revert\n        /* \"#utility.yul\":3510:3627   */\n    tag_137:\n        /* \"#utility.yul\":3619:3620   */\n      0x00\n        /* \"#utility.yul\":3616:3617   */\n      dup1\n        /* \"#utility.yul\":3609:3621   */\n      revert\n        /* \"#utility.yul\":3633:3735   */\n    tag_138:\n        /* \"#utility.yul\":3674:3680   */\n      0x00\n        /* \"#utility.yul\":3725:3727   */\n      0x1f\n        /* \"#utility.yul\":3721:3728   */\n      not\n        /* \"#utility.yul\":3716:3718   */\n      0x1f\n        /* \"#utility.yul\":3709:3714   */\n      dup4\n        /* \"#utility.yul\":3705:3719   */\n      add\n        /* \"#utility.yul\":3701:3729   */\n      and\n        /* \"#utility.yul\":3691:3729   */\n      swap1\n      pop\n        /* \"#utility.yul\":3633:3735   */\n      swap2\n      swap1\n      pop\n      jump\t// out\n        /* \"#utility.yul\":3741:3921   */\n    tag_139:\n        /* \"#utility.yul\":3789:3866   */\n      0x4e487b7100000000000000000000000000000000000000000000000000000000\n        /* \"#utility.yul\":3786:3787   */\n      0x00\n        /* \"#utility.yul\":3779:3867   */\n      mstore\n        /* \"#utility.yul\":3886:3890   */\n      0x41\n        /* \"#utility.yul\":3883:3884   */\n      0x04\n        /* \"#utility.yul\":3876:3891   */\n      mstore\n        /* \"#utility.yul\":3910:3914   */\n      0x24\n        /* \"#utility.yul\":3907:3908   */\n      0x00\n        /* \"#utility.yul\":3900:3915   */\n      revert\n        /* \"#utility.yul\":3927:4208   */\n    tag_140:\n        /* \"#utility.yul\":4010:4037   */\n      tag_220\n        /* \"#utility.yul\":4032:4036   */\n      dup3\n        /* \"#utility.yul\":4010:4037   */\n      tag_138\n      jump\t// in\n    tag_220:\n        /* \"#utility.yul\":4002:4008   */\n      dup2\n        /* \"#utility.yul\":3998:4038   */\n      add\n        /* \"#utility.yul\":4140:4146   */\n      dup2\n        /* \"#utility.yul\":4128:4138   */\n      dup2\n        /* \"#utility.yul\":4125:4147   */\n      lt\n        /* \"#utility.yul\":4104:4122   */\n      0xffffffffffffffff\n        /* \"#utility.yul\":4092:4102   */\n      dup3\n        /* \"#utility.yul\":4089:4123   */\n      gt\n        /* \"#utility.yul\":4086:4148   */\n      or\n        /* \"#utility.yul\":4083:4171   */\n      iszero\n      tag_221\n      jumpi\n        /* \"#utility.yul\":4151:4169   */\n      tag_222\n      tag_139\n      jump\t// in\n    tag_222:\n        /* \"#utility.yul\":4083:4171   */\n    tag_221:\n        /* \"#utility.yul\":4191:4201   */\n      dup1\n        /* \"#utility.yul\":4187:4189   */\n      0x40\n        /* \"#utility.yul\":4180:4202   */\n      mstore\n        /* \"#utility.yul\":3970:4208   */\n      pop\n        /* \"#utility.yul\":3927:4208   */\n      pop\n      pop\n      jump\t// out\n        /* \"#utility.yul\":4214:4343   */\n    tag_141:\n        /* \"#utility.yul\":4248:4254   */\n      0x00\n        /* \"#utility.yul\":4275:4295   */\n      tag_224\n      tag_121\n      jump\t// in\n    tag_224:\n        /* \"#utility.yul\":4265:4295   */\n      swap1\n      pop\n        /* \"#utility.yul\":4304:4337   */\n      tag_225\n        /* \"#utility.yul\":4332:4336   */\n      dup3\n        /* \"#utility.yul\":4324:4330   */\n      dup3\n        /* \"#utility.yul\":4304:4337   */\n      tag_140\n      jump\t// in\n    tag_225:\n        /* \"#utility.yul\":4214:4343   */\n      swap2\n      swap1\n      pop\n      jump\t// out\n        /* \"#utility.yul\":4349:4657   */\n    tag_142:\n        /* \"#utility.yul\":4411:4415   */\n      0x00\n        /* \"#utility.yul\":4501:4519   */\n      0xffffffffffffffff\n        /* \"#utility.yul\":4493:4499   */\n      dup3\n        /* \"#utility.yul\":4490:4520   */\n      gt\n        /* \"#utility.yul\":4487:4543   */\n      iszero\n      tag_227\n      jumpi\n        /* \"#utility.yul\":4523:4541   */\n      tag_228\n      tag_139\n      jump\t// in\n    tag_228:\n        /* \"#utility.yul\":4487:4543   */\n    tag_227:\n        /* \"#utility.yul\":4561:4590   */\n      tag_229\n        /* \"#utility.yul\":4583:4589   */\n      dup3\n        /* \"#utility.yul\":4561:4590   */\n      tag_138\n      jump\t// in\n    tag_229:\n        /* \"#utility.yul\":4553:4590   */\n      swap1\n      pop\n        /* \"#utility.yul\":4645:4649   */\n      0x20\n        /* \"#utility.yul\":4639:4643   */\n      dup2\n        /* \"#utility.yul\":4635:4650   */\n      add\n        /* \"#utility.yul\":4627:4650   */\n      swap1\n      pop\n        /* \"#utility.yul\":4349:4657   */\n      swap2\n      swap1\n      pop\n      jump\t// out\n        /* \"#utility.yul\":4663:4817   */\n    tag_143:\n        /* \"#utility.yul\":4747:4753   */\n      dup3\n        /* \"#utility.yul\":4742:4745   */\n      dup2\n        /* \"#utility.yul\":4737:4740   */\n      dup4\n        /* \"#utility.yul\":4724:4754   */\n      calldatacopy\n        /* \"#utility.yul\":4809:4810   */\n      0x00\n        /* \"#utility.yul\":4800:4806   */\n      dup4\n        /* \"#utility.yul\":4795:4798   */\n      dup4\n        /* \"#utility.yul\":4791:4807   */\n      add\n        /* \"#utility.yul\":4784:4811   */\n      mstore\n        /* \"#utility.yul\":4663:4817   */\n      pop\n      pop\n      pop\n      jump\t// out\n        /* \"#utility.yul\":4823:5235   */\n    tag_144:\n        /* \"#utility.yul\":4901:4906   */\n      0x00\n        /* \"#utility.yul\":4926:4992   */\n      tag_232\n        /* \"#utility.yul\":4942:4991   */\n      tag_233\n        /* \"#utility.yul\":4984:4990   */\n      dup5\n        /* \"#utility.yul\":4942:4991   */\n      tag_142\n      jump\t// in\n    tag_233:\n        /* \"#utility.yul\":4926:4992   */\n      tag_141\n      jump\t// in\n    tag_232:\n        /* \"#utility.yul\":4917:4992   */\n      swap1\n      pop\n        /* \"#utility.yul\":5015:5021   */\n      dup3\n        /* \"#utility.yul\":5008:5013   */\n      dup2\n        /* \"#utility.yul\":5001:5022   */\n      mstore\n        /* \"#utility.yul\":5053:5057   */\n      0x20\n        /* \"#utility.yul\":5046:5051   */\n      dup2\n        /* \"#utility.yul\":5042:5058   */\n      add\n        /* \"#utility.yul\":5091:5094   */\n      dup5\n        /* \"#utility.yul\":5082:5088   */\n      dup5\n        /* \"#utility.yul\":5077:5080   */\n      dup5\n        /* \"#utility.yul\":5073:5089   */\n      add\n        /* \"#utility.yul\":5070:5095   */\n      gt\n        /* \"#utility.yul\":5067:5179   */\n      iszero\n      tag_234\n      jumpi\n        /* \"#utility.yul\":5098:5177   */\n      tag_235\n      tag_137\n      jump\t// in\n    tag_235:\n        /* \"#utility.yul\":5067:5179   */\n    tag_234:\n        /* \"#utility.yul\":5188:5229   */\n      tag_236\n        /* \"#utility.yul\":5222:5228   */\n      dup5\n        /* \"#utility.yul\":5217:5220   */\n      dup3\n        /* \"#utility.yul\":5212:5215   */\n      dup6\n        /* \"#utility.yul\":5188:5229   */\n      tag_143\n      jump\t// in\n    tag_236:\n        /* \"#utility.yul\":4907:5235   */\n      pop\n        /* \"#utility.yul\":4823:5235   */\n      swap4\n      swap3\n      pop\n      pop\n      pop\n      jump\t// out\n        /* \"#utility.yul\":5255:5595   */\n    tag_145:\n        /* \"#utility.yul\":5311:5316   */\n      0x00\n        /* \"#utility.yul\":5360:5363   */\n      dup3\n        /* \"#utility.yul\":5353:5357   */\n      0x1f\n        /* \"#utility.yul\":5345:5351   */\n      dup4\n        /* \"#utility.yul\":5341:5358   */\n      add\n        /* \"#utility.yul\":5337:5364   */\n      slt\n        /* \"#utility.yul\":5327:5449   */\n      tag_238\n      jumpi\n        /* \"#utility.yul\":5368:5447   */\n      tag_239\n      tag_136\n      jump\t// in\n    tag_239:\n        /* \"#utility.yul\":5327:5449   */\n    tag_238:\n        /* \"#utility.yul\":5485:5491   */\n      dup2\n        /* \"#utility.yul\":5472:5492   */\n      calldataload\n        /* \"#utility.yul\":5510:5589   */\n      tag_240\n        /* \"#utility.yul\":5585:5588   */\n      dup5\n        /* \"#utility.yul\":5577:5583   */\n      dup3\n        /* \"#utility.yul\":5570:5574   */\n      0x20\n        /* \"#utility.yul\":5562:5568   */\n      dup7\n        /* \"#utility.yul\":5558:5575   */\n      add\n        /* \"#utility.yul\":5510:5589   */\n      tag_144\n      jump\t// in\n    tag_240:\n        /* \"#utility.yul\":5501:5589   */\n      swap2\n      pop\n        /* \"#utility.yul\":5317:5595   */\n      pop\n        /* \"#utility.yul\":5255:5595   */\n      swap3\n      swap2\n      pop\n      pop\n      jump\t// out\n        /* \"#utility.yul\":5601:5921   */\n    tag_146:\n        /* \"#utility.yul\":5687:5691   */\n      0x00\n        /* \"#utility.yul\":5777:5795   */\n      0xffffffffffffffff\n        /* \"#utility.yul\":5769:5775   */\n      dup3\n        /* \"#utility.yul\":5766:5796   */\n      gt\n        /* \"#utility.yul\":5763:5819   */\n      iszero\n      tag_242\n      jumpi\n        /* \"#utility.yul\":5799:5817   */\n      tag_243\n      tag_139\n      jump\t// in\n    tag_243:\n        /* \"#utility.yul\":5763:5819   */\n    tag_242:\n        /* \"#utility.yul\":5849:5853   */\n      0x20\n        /* \"#utility.yul\":5841:5847   */\n      dup3\n        /* \"#utility.yul\":5837:5854   */\n      mul\n        /* \"#utility.yul\":5829:5854   */\n      swap1\n      pop\n        /* \"#utility.yul\":5909:5913   */\n      0x20\n        /* \"#utility.yul\":5903:5907   */\n      dup2\n        /* \"#utility.yul\":5899:5914   */\n      add\n        /* \"#utility.yul\":5891:5914   */\n      swap1\n      pop\n        /* \"#utility.yul\":5601:5921   */\n      swap2\n      swap1\n      pop\n      jump\t// out\n        /* \"#utility.yul\":5927:6044   */\n    tag_147:\n        /* \"#utility.yul\":6036:6037   */\n      0x00\n        /* \"#utility.yul\":6033:6034   */\n      dup1\n        /* \"#utility.yul\":6026:6038   */\n      revert\n        /* \"#utility.yul\":6050:6357   */\n    tag_148:\n        /* \"#utility.yul\":6111:6115   */\n      0x00\n        /* \"#utility.yul\":6201:6219   */\n      0xffffffffffffffff\n        /* \"#utility.yul\":6193:6199   */\n      dup3\n        /* \"#utility.yul\":6190:6220   */\n      gt\n        /* \"#utility.yul\":6187:6243   */\n      iszero\n      tag_246\n      jumpi\n        /* \"#utility.yul\":6223:6241   */\n      tag_247\n      tag_139\n      jump\t// in\n    tag_247:\n        /* \"#utility.yul\":6187:6243   */\n    tag_246:\n        /* \"#utility.yul\":6261:6290   */\n      tag_248\n        /* \"#utility.yul\":6283:6289   */\n      dup3\n        /* \"#utility.yul\":6261:6290   */\n      tag_138\n      jump\t// in\n    tag_248:\n        /* \"#utility.yul\":6253:6290   */\n      swap1\n      pop\n        /* \"#utility.yul\":6345:6349   */\n      0x20\n        /* \"#utility.yul\":6339:6343   */\n      dup2\n        /* \"#utility.yul\":6335:6350   */\n      add\n        /* \"#utility.yul\":6327:6350   */\n      swap1\n      pop\n        /* \"#utility.yul\":6050:6357   */\n      swap2\n      swap1\n      pop\n      jump\t// out\n        /* \"#utility.yul\":6363:6773   */\n    tag_149:\n        /* \"#utility.yul\":6440:6445   */\n      0x00\n        /* \"#utility.yul\":6465:6530   */\n      tag_250\n        /* \"#utility.yul\":6481:6529   */\n      tag_251\n        /* \"#utility.yul\":6522:6528   */\n      dup5\n        /* \"#utility.yul\":6481:6529   */\n      tag_148\n      jump\t// in\n    tag_251:\n        /* \"#utility.yul\":6465:6530   */\n      tag_141\n      jump\t// in\n    tag_250:\n        /* \"#utility.yul\":6456:6530   */\n      swap1\n      pop\n        /* \"#utility.yul\":6553:6559   */\n      dup3\n        /* \"#utility.yul\":6546:6551   */\n      dup2\n        /* \"#utility.yul\":6539:6560   */\n      mstore\n        /* \"#utility.yul\":6591:6595   */\n      0x20\n        /* \"#utility.yul\":6584:6589   */\n      dup2\n        /* \"#utility.yul\":6580:6596   */\n      add\n        /* \"#utility.yul\":6629:6632   */\n      dup5\n        /* \"#utility.yul\":6620:6626   */\n      dup5\n        /* \"#utility.yul\":6615:6618   */\n      dup5\n        /* \"#utility.yul\":6611:6627   */\n      add\n        /* \"#utility.yul\":6608:6633   */\n      gt\n        /* \"#utility.yul\":6605:6717   */\n      iszero\n      tag_252\n      jumpi\n        /* \"#utility.yul\":6636:6715   */\n      tag_253\n      tag_137\n      jump\t// in\n    tag_253:\n        /* \"#utility.yul\":6605:6717   */\n    tag_252:\n        /* \"#utility.yul\":6726:6767   */\n      tag_254\n        /* \"#utility.yul\":6760:6766   */\n      dup5\n        /* \"#utility.yul\":6755:6758   */\n      dup3\n        /* \"#utility.yul\":6750:6753   */\n      dup6\n        /* \"#utility.yul\":6726:6767   */\n      tag_143\n      jump\t// in\n    tag_254:\n        /* \"#utility.yul\":6446:6773   */\n      pop\n        /* \"#utility.yul\":6363:6773   */\n      swap4\n      swap3\n      pop\n      pop\n      pop\n      jump\t// out\n        /* \"#utility.yul\":6792:7130   */\n    tag_150:\n        /* \"#utility.yul\":6847:6852   */\n      0x00\n        /* \"#utility.yul\":6896:6899   */\n      dup3\n        /* \"#utility.yul\":6889:6893   */\n      0x1f\n        /* \"#utility.yul\":6881:6887   */\n      dup4\n        /* \"#utility.yul\":6877:6894   */\n      add\n        /* \"#utility.yul\":6873:6900   */\n      slt\n        /* \"#utility.yul\":6863:6985   */\n      tag_256\n      jumpi\n        /* \"#utility.yul\":6904:6983   */\n      tag_257\n      tag_136\n      jump\t// in\n    tag_257:\n        /* \"#utility.yul\":6863:6985   */\n    tag_256:\n        /* \"#utility.yul\":7021:7027   */\n      dup2\n        /* \"#utility.yul\":7008:7028   */\n      calldataload\n        /* \"#utility.yul\":7046:7124   */\n      tag_258\n        /* \"#utility.yul\":7120:7123   */\n      dup5\n        /* \"#utility.yul\":7112:7118   */\n      dup3\n        /* \"#utility.yul\":7105:7109   */\n      0x20\n        /* \"#utility.yul\":7097:7103   */\n      dup7\n        /* \"#utility.yul\":7093:7110   */\n      add\n        /* \"#utility.yul\":7046:7124   */\n      tag_149\n      jump\t// in\n    tag_258:\n        /* \"#utility.yul\":7037:7124   */\n      swap2\n      pop\n        /* \"#utility.yul\":6853:7130   */\n      pop\n        /* \"#utility.yul\":6792:7130   */\n      swap3\n      swap2\n      pop\n      pop\n      jump\t// out\n        /* \"#utility.yul\":7151:8093   */\n    tag_151:\n        /* \"#utility.yul\":7256:7261   */\n      0x00\n        /* \"#utility.yul\":7281:7371   */\n      tag_260\n        /* \"#utility.yul\":7297:7370   */\n      tag_261\n        /* \"#utility.yul\":7363:7369   */\n      dup5\n        /* \"#utility.yul\":7297:7370   */\n      tag_146\n      jump\t// in\n    tag_261:\n        /* \"#utility.yul\":7281:7371   */\n      tag_141\n      jump\t// in\n    tag_260:\n        /* \"#utility.yul\":7272:7371   */\n      swap1\n      pop\n        /* \"#utility.yul\":7391:7396   */\n      dup1\n        /* \"#utility.yul\":7420:7426   */\n      dup4\n        /* \"#utility.yul\":7413:7418   */\n      dup3\n        /* \"#utility.yul\":7406:7427   */\n      mstore\n        /* \"#utility.yul\":7454:7458   */\n      0x20\n        /* \"#utility.yul\":7447:7452   */\n      dup3\n        /* \"#utility.yul\":7443:7459   */\n      add\n        /* \"#utility.yul\":7436:7459   */\n      swap1\n      pop\n        /* \"#utility.yul\":7507:7511   */\n      0x20\n        /* \"#utility.yul\":7499:7505   */\n      dup5\n        /* \"#utility.yul\":7495:7512   */\n      mul\n        /* \"#utility.yul\":7487:7493   */\n      dup4\n        /* \"#utility.yul\":7483:7513   */\n      add\n        /* \"#utility.yul\":7536:7539   */\n      dup6\n        /* \"#utility.yul\":7528:7534   */\n      dup2\n        /* \"#utility.yul\":7525:7540   */\n      gt\n        /* \"#utility.yul\":7522:7644   */\n      iszero\n      tag_262\n      jumpi\n        /* \"#utility.yul\":7555:7634   */\n      tag_263\n      tag_147\n      jump\t// in\n    tag_263:\n        /* \"#utility.yul\":7522:7644   */\n    tag_262:\n        /* \"#utility.yul\":7670:7676   */\n      dup4\n        /* \"#utility.yul\":7653:8087   */\n    tag_264:\n        /* \"#utility.yul\":7687:7693   */\n      dup2\n        /* \"#utility.yul\":7682:7685   */\n      dup2\n        /* \"#utility.yul\":7679:7694   */\n      lt\n        /* \"#utility.yul\":7653:8087   */\n      iszero\n      tag_266\n      jumpi\n        /* \"#utility.yul\":7776:7779   */\n      dup1\n        /* \"#utility.yul\":7763:7780   */\n      calldataload\n        /* \"#utility.yul\":7812:7830   */\n      0xffffffffffffffff\n        /* \"#utility.yul\":7799:7810   */\n      dup2\n        /* \"#utility.yul\":7796:7831   */\n      gt\n        /* \"#utility.yul\":7793:7915   */\n      iszero\n      tag_267\n      jumpi\n        /* \"#utility.yul\":7834:7913   */\n      tag_268\n      tag_136\n      jump\t// in\n    tag_268:\n        /* \"#utility.yul\":7793:7915   */\n    tag_267:\n        /* \"#utility.yul\":7958:7969   */\n      dup1\n        /* \"#utility.yul\":7950:7956   */\n      dup7\n        /* \"#utility.yul\":7946:7970   */\n      add\n        /* \"#utility.yul\":7996:8042   */\n      tag_269\n        /* \"#utility.yul\":8038:8041   */\n      dup10\n        /* \"#utility.yul\":8026:8036   */\n      dup3\n        /* \"#utility.yul\":7996:8042   */\n      tag_150\n      jump\t// in\n    tag_269:\n        /* \"#utility.yul\":7991:7994   */\n      dup6\n        /* \"#utility.yul\":7984:8043   */\n      mstore\n        /* \"#utility.yul\":8072:8076   */\n      0x20\n        /* \"#utility.yul\":8067:8070   */\n      dup6\n        /* \"#utility.yul\":8063:8077   */\n      add\n        /* \"#utility.yul\":8056:8077   */\n      swap5\n      pop\n        /* \"#utility.yul\":7729:8087   */\n      pop\n      pop\n        /* \"#utility.yul\":7713:7717   */\n      0x20\n        /* \"#utility.yul\":7708:7711   */\n      dup2\n        /* \"#utility.yul\":7704:7718   */\n      add\n        /* \"#utility.yul\":7697:7718   */\n      swap1\n      pop\n        /* \"#utility.yul\":7653:8087   */\n      jump(tag_264)\n    tag_266:\n        /* \"#utility.yul\":7657:7678   */\n      pop\n        /* \"#utility.yul\":7262:8093   */\n      pop\n      pop\n        /* \"#utility.yul\":7151:8093   */\n      swap4\n      swap3\n      pop\n      pop\n      pop\n      jump\t// out\n        /* \"#utility.yul\":8114:8502   */\n    tag_152:\n        /* \"#utility.yul\":8194:8199   */\n      0x00\n        /* \"#utility.yul\":8243:8246   */\n      dup3\n        /* \"#utility.yul\":8236:8240   */\n      0x1f\n        /* \"#utility.yul\":8228:8234   */\n      dup4\n        /* \"#utility.yul\":8224:8241   */\n      add\n        /* \"#utility.yul\":8220:8247   */\n      slt\n        /* \"#utility.yul\":8210:8332   */\n      tag_271\n      jumpi\n        /* \"#utility.yul\":8251:8330   */\n      tag_272\n      tag_136\n      jump\t// in\n    tag_272:\n        /* \"#utility.yul\":8210:8332   */\n    tag_271:\n        /* \"#utility.yul\":8368:8374   */\n      dup2\n        /* \"#utility.yul\":8355:8375   */\n      calldataload\n        /* \"#utility.yul\":8393:8496   */\n      tag_273\n        /* \"#utility.yul\":8492:8495   */\n      dup5\n        /* \"#utility.yul\":8484:8490   */\n      dup3\n        /* \"#utility.yul\":8477:8481   */\n      0x20\n        /* \"#utility.yul\":8469:8475   */\n      dup7\n        /* \"#utility.yul\":8465:8482   */\n      add\n        /* \"#utility.yul\":8393:8496   */\n      tag_151\n      jump\t// in\n    tag_273:\n        /* \"#utility.yul\":8384:8496   */\n      swap2\n      pop\n        /* \"#utility.yul\":8200:8502   */\n      pop\n        /* \"#utility.yul\":8114:8502   */\n      swap3\n      swap2\n      pop\n      pop\n      jump\t// out\n        /* \"#utility.yul\":8508:9973   */\n    tag_34:\n        /* \"#utility.yul\":8656:8662   */\n      0x00\n        /* \"#utility.yul\":8664:8670   */\n      dup1\n        /* \"#utility.yul\":8672:8678   */\n      0x00\n        /* \"#utility.yul\":8680:8686   */\n      dup1\n        /* \"#utility.yul\":8688:8694   */\n      0x00\n        /* \"#utility.yul\":8696:8702   */\n      dup1\n        /* \"#utility.yul\":8745:8748   */\n      0xc0\n        /* \"#utility.yul\":8733:8742   */\n      dup8\n        /* \"#utility.yul\":8724:8731   */\n      dup10\n        /* \"#utility.yul\":8720:8743   */\n      sub\n        /* \"#utility.yul\":8716:8749   */\n      slt\n        /* \"#utility.yul\":8713:8833   */\n      iszero\n      tag_275\n      jumpi\n        /* \"#utility.yul\":8752:8831   */\n      tag_276\n      tag_122\n      jump\t// in\n    tag_276:\n        /* \"#utility.yul\":8713:8833   */\n    tag_275:\n        /* \"#utility.yul\":8872:8873   */\n      0x00\n        /* \"#utility.yul\":8897:8950   */\n      tag_277\n        /* \"#utility.yul\":8942:8949   */\n      dup10\n        /* \"#utility.yul\":8933:8939   */\n      dup3\n        /* \"#utility.yul\":8922:8931   */\n      dup11\n        /* \"#utility.yul\":8918:8940   */\n      add\n        /* \"#utility.yul\":8897:8950   */\n      tag_126\n      jump\t// in\n    tag_277:\n        /* \"#utility.yul\":8887:8950   */\n      swap7\n      pop\n        /* \"#utility.yul\":8843:8960   */\n      pop\n        /* \"#utility.yul\":8999:9001   */\n      0x20\n        /* \"#utility.yul\":9025:9078   */\n      tag_278\n        /* \"#utility.yul\":9070:9077   */\n      dup10\n        /* \"#utility.yul\":9061:9067   */\n      dup3\n        /* \"#utility.yul\":9050:9059   */\n      dup11\n        /* \"#utility.yul\":9046:9068   */\n      add\n        /* \"#utility.yul\":9025:9078   */\n      tag_126\n      jump\t// in\n    tag_278:\n        /* \"#utility.yul\":9015:9078   */\n      swap6\n      pop\n        /* \"#utility.yul\":8970:9088   */\n      pop\n        /* \"#utility.yul\":9127:9129   */\n      0x40\n        /* \"#utility.yul\":9153:9206   */\n      tag_279\n        /* \"#utility.yul\":9198:9205   */\n      dup10\n        /* \"#utility.yul\":9189:9195   */\n      dup3\n        /* \"#utility.yul\":9178:9187   */\n      dup11\n        /* \"#utility.yul\":9174:9196   */\n      add\n        /* \"#utility.yul\":9153:9206   */\n      tag_126\n      jump\t// in\n    tag_279:\n        /* \"#utility.yul\":9143:9206   */\n      swap5\n      pop\n        /* \"#utility.yul\":9098:9216   */\n      pop\n        /* \"#utility.yul\":9255:9257   */\n      0x60\n        /* \"#utility.yul\":9281:9334   */\n      tag_280\n        /* \"#utility.yul\":9326:9333   */\n      dup10\n        /* \"#utility.yul\":9317:9323   */\n      dup3\n        /* \"#utility.yul\":9306:9315   */\n      dup11\n        /* \"#utility.yul\":9302:9324   */\n      add\n        /* \"#utility.yul\":9281:9334   */\n      tag_135\n      jump\t// in\n    tag_280:\n        /* \"#utility.yul\":9271:9334   */\n      swap4\n      pop\n        /* \"#utility.yul\":9226:9344   */\n      pop\n        /* \"#utility.yul\":9411:9414   */\n      0x80\n        /* \"#utility.yul\":9400:9409   */\n      dup8\n        /* \"#utility.yul\":9396:9415   */\n      add\n        /* \"#utility.yul\":9383:9416   */\n      calldataload\n        /* \"#utility.yul\":9443:9461   */\n      0xffffffffffffffff\n        /* \"#utility.yul\":9435:9441   */\n      dup2\n        /* \"#utility.yul\":9432:9462   */\n      gt\n        /* \"#utility.yul\":9429:9546   */\n      iszero\n      tag_281\n      jumpi\n        /* \"#utility.yul\":9465:9544   */\n      tag_282\n      tag_123\n      jump\t// in\n    tag_282:\n        /* \"#utility.yul\":9429:9546   */\n    tag_281:\n        /* \"#utility.yul\":9570:9633   */\n      tag_283\n        /* \"#utility.yul\":9625:9632   */\n      dup10\n        /* \"#utility.yul\":9616:9622   */\n      dup3\n        /* \"#utility.yul\":9605:9614   */\n      dup11\n        /* \"#utility.yul\":9601:9623   */\n      add\n        /* \"#utility.yul\":9570:9633   */\n      tag_145\n      jump\t// in\n    tag_283:\n        /* \"#utility.yul\":9560:9633   */\n      swap3\n      pop\n        /* \"#utility.yul\":9354:9643   */\n      pop\n        /* \"#utility.yul\":9710:9713   */\n      0xa0\n        /* \"#utility.yul\":9699:9708   */\n      dup8\n        /* \"#utility.yul\":9695:9714   */\n      add\n        /* \"#utility.yul\":9682:9715   */\n      calldataload\n        /* \"#utility.yul\":9742:9760   */\n      0xffffffffffffffff\n        /* \"#utility.yul\":9734:9740   */\n      dup2\n        /* \"#utility.yul\":9731:9761   */\n      gt\n        /* \"#utility.yul\":9728:9845   */\n      iszero\n      tag_284\n      jumpi\n        /* \"#utility.yul\":9764:9843   */\n      tag_285\n      tag_123\n      jump\t// in\n    tag_285:\n        /* \"#utility.yul\":9728:9845   */\n    tag_284:\n        /* \"#utility.yul\":9869:9956   */\n      tag_286\n        /* \"#utility.yul\":9948:9955   */\n      dup10\n        /* \"#utility.yul\":9939:9945   */\n      dup3\n        /* \"#utility.yul\":9928:9937   */\n      dup11\n        /* \"#utility.yul\":9924:9946   */\n      add\n        /* \"#utility.yul\":9869:9956   */\n      tag_152\n      jump\t// in\n    tag_286:\n        /* \"#utility.yul\":9859:9956   */\n      swap2\n      pop\n        /* \"#utility.yul\":9653:9966   */\n      pop\n        /* \"#utility.yul\":8508:9973   */\n      swap3\n      swap6\n      pop\n      swap3\n      swap6\n      pop\n      swap3\n      swap6\n      jump\t// out\n        /* \"#utility.yul\":9979:10056   */\n    tag_153:\n        /* \"#utility.yul\":10016:10023   */\n      0x00\n        /* \"#utility.yul\":10045:10050   */\n      dup2\n        /* \"#utility.yul\":10034:10050   */\n      swap1\n      pop\n        /* \"#utility.yul\":9979:10056   */\n      swap2\n      swap1\n      pop\n      jump\t// out\n        /* \"#utility.yul\":10062:10184   */\n    tag_154:\n        /* \"#utility.yul\":10135:10159   */\n      tag_289\n        /* \"#utility.yul\":10153:10158   */\n      dup2\n        /* \"#utility.yul\":10135:10159   */\n      tag_153\n      jump\t// in\n    tag_289:\n        /* \"#utility.yul\":10128:10133   */\n      dup2\n        /* \"#utility.yul\":10125:10160   */\n      eq\n        /* \"#utility.yul\":10115:10178   */\n      tag_290\n      jumpi\n        /* \"#utility.yul\":10174:10175   */\n      0x00\n        /* \"#utility.yul\":10171:10172   */\n      dup1\n        /* \"#utility.yul\":10164:10176   */\n      revert\n        /* \"#utility.yul\":10115:10178   */\n    tag_290:\n        /* \"#utility.yul\":10062:10184   */\n      pop\n      jump\t// out\n        /* \"#utility.yul\":10190:10329   */\n    tag_155:\n        /* \"#utility.yul\":10236:10241   */\n      0x00\n        /* \"#utility.yul\":10274:10280   */\n      dup2\n        /* \"#utility.yul\":10261:10281   */\n      calldataload\n        /* \"#utility.yul\":10252:10281   */\n      swap1\n      pop\n        /* \"#utility.yul\":10290:10323   */\n      tag_292\n        /* \"#utility.yul\":10317:10322   */\n      dup2\n        /* \"#utility.yul\":10290:10323   */\n      tag_154\n      jump\t// in\n    tag_292:\n        /* \"#utility.yul\":10190:10329   */\n      swap3\n      swap2\n      pop\n      pop\n      jump\t// out\n        /* \"#utility.yul\":10335:11182   */\n    tag_40:\n        /* \"#utility.yul\":10446:10452   */\n      0x00\n        /* \"#utility.yul\":10454:10460   */\n      dup1\n        /* \"#utility.yul\":10462:10468   */\n      0x00\n        /* \"#utility.yul\":10511:10513   */\n      0x60\n        /* \"#utility.yul\":10499:10508   */\n      dup5\n        /* \"#utility.yul\":10490:10497   */\n      dup7\n        /* \"#utility.yul\":10486:10509   */\n      sub\n        /* \"#utility.yul\":10482:10514   */\n      slt\n        /* \"#utility.yul\":10479:10598   */\n      iszero\n      tag_294\n      jumpi\n        /* \"#utility.yul\":10517:10596   */\n      tag_295\n      tag_122\n      jump\t// in\n    tag_295:\n        /* \"#utility.yul\":10479:10598   */\n    tag_294:\n        /* \"#utility.yul\":10637:10638   */\n      0x00\n        /* \"#utility.yul\":10662:10715   */\n      tag_296\n        /* \"#utility.yul\":10707:10714   */\n      dup7\n        /* \"#utility.yul\":10698:10704   */\n      dup3\n        /* \"#utility.yul\":10687:10696   */\n      dup8\n        /* \"#utility.yul\":10683:10705   */\n      add\n        /* \"#utility.yul\":10662:10715   */\n      tag_135\n      jump\t// in\n    tag_296:\n        /* \"#utility.yul\":10652:10715   */\n      swap4\n      pop\n        /* \"#utility.yul\":10608:10725   */\n      pop\n        /* \"#utility.yul\":10792:10794   */\n      0x20\n        /* \"#utility.yul\":10781:10790   */\n      dup5\n        /* \"#utility.yul\":10777:10795   */\n      add\n        /* \"#utility.yul\":10764:10796   */\n      calldataload\n        /* \"#utility.yul\":10823:10841   */\n      0xffffffffffffffff\n        /* \"#utility.yul\":10815:10821   */\n      dup2\n        /* \"#utility.yul\":10812:10842   */\n      gt\n        /* \"#utility.yul\":10809:10926   */\n      iszero\n      tag_297\n      jumpi\n        /* \"#utility.yul\":10845:10924   */\n      tag_298\n      tag_123\n      jump\t// in\n    tag_298:\n        /* \"#utility.yul\":10809:10926   */\n    tag_297:\n        /* \"#utility.yul\":10950:11037   */\n      tag_299\n        /* \"#utility.yul\":11029:11036   */\n      dup7\n        /* \"#utility.yul\":11020:11026   */\n      dup3\n        /* \"#utility.yul\":11009:11018   */\n      dup8\n        /* \"#utility.yul\":11005:11027   */\n      add\n        /* \"#utility.yul\":10950:11037   */\n      tag_152\n      jump\t// in\n    tag_299:\n        /* \"#utility.yul\":10940:11037   */\n      swap3\n      pop\n        /* \"#utility.yul\":10735:11047   */\n      pop\n        /* \"#utility.yul\":11086:11088   */\n      0x40\n        /* \"#utility.yul\":11112:11165   */\n      tag_300\n        /* \"#utility.yul\":11157:11164   */\n      dup7\n        /* \"#utility.yul\":11148:11154   */\n      dup3\n        /* \"#utility.yul\":11137:11146   */\n      dup8\n        /* \"#utility.yul\":11133:11155   */\n      add\n        /* \"#utility.yul\":11112:11165   */\n      tag_155\n      jump\t// in\n    tag_300:\n        /* \"#utility.yul\":11102:11165   */\n      swap2\n      pop\n        /* \"#utility.yul\":11057:11175   */\n      pop\n        /* \"#utility.yul\":10335:11182   */\n      swap3\n      pop\n      swap3\n      pop\n      swap3\n      jump\t// out\n        /* \"#utility.yul\":11188:12215   */\n    tag_45:\n        /* \"#utility.yul\":11309:11315   */\n      0x00\n        /* \"#utility.yul\":11317:11323   */\n      dup1\n        /* \"#utility.yul\":11325:11331   */\n      0x00\n        /* \"#utility.yul\":11374:11376   */\n      0x60\n        /* \"#utility.yul\":11362:11371   */\n      dup5\n        /* \"#utility.yul\":11353:11360   */\n      dup7\n        /* \"#utility.yul\":11349:11372   */\n      sub\n        /* \"#utility.yul\":11345:11377   */\n      slt\n        /* \"#utility.yul\":11342:11461   */\n      iszero\n      tag_302\n      jumpi\n        /* \"#utility.yul\":11380:11459   */\n      tag_303\n      tag_122\n      jump\t// in\n    tag_303:\n        /* \"#utility.yul\":11342:11461   */\n    tag_302:\n        /* \"#utility.yul\":11500:11501   */\n      0x00\n        /* \"#utility.yul\":11525:11578   */\n      tag_304\n        /* \"#utility.yul\":11570:11577   */\n      dup7\n        /* \"#utility.yul\":11561:11567   */\n      dup3\n        /* \"#utility.yul\":11550:11559   */\n      dup8\n        /* \"#utility.yul\":11546:11568   */\n      add\n        /* \"#utility.yul\":11525:11578   */\n      tag_135\n      jump\t// in\n    tag_304:\n        /* \"#utility.yul\":11515:11578   */\n      swap4\n      pop\n        /* \"#utility.yul\":11471:11588   */\n      pop\n        /* \"#utility.yul\":11655:11657   */\n      0x20\n        /* \"#utility.yul\":11644:11653   */\n      dup5\n        /* \"#utility.yul\":11640:11658   */\n      add\n        /* \"#utility.yul\":11627:11659   */\n      calldataload\n        /* \"#utility.yul\":11686:11704   */\n      0xffffffffffffffff\n        /* \"#utility.yul\":11678:11684   */\n      dup2\n        /* \"#utility.yul\":11675:11705   */\n      gt\n        /* \"#utility.yul\":11672:11789   */\n      iszero\n      tag_305\n      jumpi\n        /* \"#utility.yul\":11708:11787   */\n      tag_306\n      tag_123\n      jump\t// in\n    tag_306:\n        /* \"#utility.yul\":11672:11789   */\n    tag_305:\n        /* \"#utility.yul\":11813:11876   */\n      tag_307\n        /* \"#utility.yul\":11868:11875   */\n      dup7\n        /* \"#utility.yul\":11859:11865   */\n      dup3\n        /* \"#utility.yul\":11848:11857   */\n      dup8\n        /* \"#utility.yul\":11844:11866   */\n      add\n        /* \"#utility.yul\":11813:11876   */\n      tag_145\n      jump\t// in\n    tag_307:\n        /* \"#utility.yul\":11803:11876   */\n      swap3\n      pop\n        /* \"#utility.yul\":11598:11886   */\n      pop\n        /* \"#utility.yul\":11953:11955   */\n      0x40\n        /* \"#utility.yul\":11942:11951   */\n      dup5\n        /* \"#utility.yul\":11938:11956   */\n      add\n        /* \"#utility.yul\":11925:11957   */\n      calldataload\n        /* \"#utility.yul\":11984:12002   */\n      0xffffffffffffffff\n        /* \"#utility.yul\":11976:11982   */\n      dup2\n        /* \"#utility.yul\":11973:12003   */\n      gt\n        /* \"#utility.yul\":11970:12087   */\n      iszero\n      tag_308\n      jumpi\n        /* \"#utility.yul\":12006:12085   */\n      tag_309\n      tag_123\n      jump\t// in\n    tag_309:\n        /* \"#utility.yul\":11970:12087   */\n    tag_308:\n        /* \"#utility.yul\":12111:12198   */\n      tag_310\n        /* \"#utility.yul\":12190:12197   */\n      dup7\n        /* \"#utility.yul\":12181:12187   */\n      dup3\n        /* \"#utility.yul\":12170:12179   */\n      dup8\n        /* \"#utility.yul\":12166:12188   */\n      add\n        /* \"#utility.yul\":12111:12198   */\n      tag_152\n      jump\t// in\n    tag_310:\n        /* \"#utility.yul\":12101:12198   */\n      swap2\n      pop\n        /* \"#utility.yul\":11896:12208   */\n      pop\n        /* \"#utility.yul\":11188:12215   */\n      swap3\n      pop\n      swap3\n      pop\n      swap3\n      jump\t// out\n        /* \"#utility.yul\":12221:12401   */\n    tag_156:\n        /* \"#utility.yul\":12269:12346   */\n      0x4e487b7100000000000000000000000000000000000000000000000000000000\n        /* \"#utility.yul\":12266:12267   */\n      0x00\n        /* \"#utility.yul\":12259:12347   */\n      mstore\n        /* \"#utility.yul\":12366:12370   */\n      0x11\n        /* \"#utility.yul\":12363:12364   */\n      0x04\n        /* \"#utility.yul\":12356:12371   */\n      mstore\n        /* \"#utility.yul\":12390:12394   */\n      0x24\n        /* \"#utility.yul\":12387:12388   */\n      0x00\n        /* \"#utility.yul\":12380:12395   */\n      revert\n        /* \"#utility.yul\":12407:12755   */\n    tag_77:\n        /* \"#utility.yul\":12447:12454   */\n      0x00\n        /* \"#utility.yul\":12470:12490   */\n      tag_313\n        /* \"#utility.yul\":12488:12489   */\n      dup3\n        /* \"#utility.yul\":12470:12490   */\n      tag_124\n      jump\t// in\n    tag_313:\n        /* \"#utility.yul\":12465:12490   */\n      swap2\n      pop\n        /* \"#utility.yul\":12504:12524   */\n      tag_314\n        /* \"#utility.yul\":12522:12523   */\n      dup4\n        /* \"#utility.yul\":12504:12524   */\n      tag_124\n      jump\t// in\n    tag_314:\n        /* \"#utility.yul\":12499:12524   */\n      swap3\n      pop\n        /* \"#utility.yul\":12692:12693   */\n      dup2\n        /* \"#utility.yul\":12624:12690   */\n      0xffffffffffffffffffffffffffffffffffffffffffffffffffffffffffffffff\n        /* \"#utility.yul\":12620:12694   */\n      div\n        /* \"#utility.yul\":12617:12618   */\n      dup4\n        /* \"#utility.yul\":12614:12695   */\n      gt\n        /* \"#utility.yul\":12609:12610   */\n      dup3\n        /* \"#utility.yul\":12602:12611   */\n      iszero\n        /* \"#utility.yul\":12595:12612   */\n      iszero\n        /* \"#utility.yul\":12591:12696   */\n      and\n        /* \"#utility.yul\":12588:12719   */\n      iszero\n      tag_315\n      jumpi\n        /* \"#utility.yul\":12699:12717   */\n      tag_316\n      tag_156\n      jump\t// in\n    tag_316:\n        /* \"#utility.yul\":12588:12719   */\n    tag_315:\n        /* \"#utility.yul\":12747:12748   */\n      dup3\n        /* \"#utility.yul\":12744:12745   */\n      dup3\n        /* \"#utility.yul\":12740:12749   */\n      mul\n        /* \"#utility.yul\":12729:12749   */\n      swap1\n      pop\n        /* \"#utility.yul\":12407:12755   */\n      swap3\n      swap2\n      pop\n      pop\n      jump\t// out\n        /* \"#utility.yul\":12761:13066   */\n    tag_81:\n        /* \"#utility.yul\":12801:12804   */\n      0x00\n        /* \"#utility.yul\":12820:12840   */\n      tag_318\n        /* \"#utility.yul\":12838:12839   */\n      dup3\n        /* \"#utility.yul\":12820:12840   */\n      tag_124\n      jump\t// in\n    tag_318:\n        /* \"#utility.yul\":12815:12840   */\n      swap2\n      pop\n        /* \"#utility.yul\":12854:12874   */\n      tag_319\n        /* \"#utility.yul\":12872:12873   */\n      dup4\n        /* \"#utility.yul\":12854:12874   */\n      tag_124\n      jump\t// in\n    tag_319:\n        /* \"#utility.yul\":12849:12874   */\n      swap3\n      pop\n        /* \"#utility.yul\":13008:13009   */\n      dup3\n        /* \"#utility.yul\":12940:13006   */\n      0xffffffffffffffffffffffffffffffffffffffffffffffffffffffffffffffff\n        /* \"#utility.yul\":12936:13010   */\n      sub\n        /* \"#utility.yul\":12933:12934   */\n      dup3\n        /* \"#utility.yul\":12930:13011   */\n      gt\n        /* \"#utility.yul\":12927:13034   */\n      iszero\n      tag_320\n      jumpi\n        /* \"#utility.yul\":13014:13032   */\n      tag_321\n      tag_156\n      jump\t// in\n    tag_321:\n        /* \"#utility.yul\":12927:13034   */\n    tag_320:\n        /* \"#utility.yul\":13058:13059   */\n      dup3\n        /* \"#utility.yul\":13055:13056   */\n      dup3\n        /* \"#utility.yul\":13051:13060   */\n      add\n        /* \"#utility.yul\":13044:13060   */\n      swap1\n      pop\n        /* \"#utility.yul\":12761:13066   */\n      swap3\n      swap2\n      pop\n      pop\n      jump\t// out\n        /* \"#utility.yul\":13072:13190   */\n    tag_157:\n        /* \"#utility.yul\":13159:13183   */\n      tag_323\n        /* \"#utility.yul\":13177:13182   */\n      dup2\n        /* \"#utility.yul\":13159:13183   */\n      tag_133\n      jump\t// in\n    tag_323:\n        /* \"#utility.yul\":13154:13157   */\n      dup3\n        /* \"#utility.yul\":13147:13184   */\n      mstore\n        /* \"#utility.yul\":13072:13190   */\n      pop\n      pop\n      jump\t// out\n        /* \"#utility.yul\":13196:13319   */\n    tag_158:\n        /* \"#utility.yul\":13272:13278   */\n      0x00\n        /* \"#utility.yul\":13306:13311   */\n      dup2\n        /* \"#utility.yul\":13300:13312   */\n      mload\n        /* \"#utility.yul\":13290:13312   */\n      swap1\n      pop\n        /* \"#utility.yul\":13196:13319   */\n      swap2\n      swap1\n      pop\n      jump\t// out\n        /* \"#utility.yul\":13325:13518   */\n    tag_159:\n        /* \"#utility.yul\":13433:13444   */\n      0x00\n        /* \"#utility.yul\":13467:13473   */\n      dup3\n        /* \"#utility.yul\":13462:13465   */\n      dup3\n        /* \"#utility.yul\":13455:13474   */\n      mstore\n        /* \"#utility.yul\":13507:13511   */\n      0x20\n        /* \"#utility.yul\":13502:13505   */\n      dup3\n        /* \"#utility.yul\":13498:13512   */\n      add\n        /* \"#utility.yul\":13483:13512   */\n      swap1\n      pop\n        /* \"#utility.yul\":13325:13518   */\n      swap3\n      swap2\n      pop\n      pop\n      jump\t// out\n        /* \"#utility.yul\":13524:13665   */\n    tag_160:\n        /* \"#utility.yul\":13600:13604   */\n      0x00\n        /* \"#utility.yul\":13623:13626   */\n      dup2\n        /* \"#utility.yul\":13615:13626   */\n      swap1\n      pop\n        /* \"#utility.yul\":13653:13657   */\n      0x20\n        /* \"#utility.yul\":13648:13651   */\n      dup3\n        /* \"#utility.yul\":13644:13658   */\n      add\n        /* \"#utility.yul\":13636:13658   */\n      swap1\n      pop\n        /* \"#utility.yul\":13524:13665   */\n      swap2\n      swap1\n      pop\n      jump\t// out\n        /* \"#utility.yul\":13671:13769   */\n    tag_161:\n        /* \"#utility.yul\":13722:13728   */\n      0x00\n        /* \"#utility.yul\":13756:13761   */\n      dup2\n        /* \"#utility.yul\":13750:13762   */\n      mload\n        /* \"#utility.yul\":13740:13762   */\n      swap1\n      pop\n        /* \"#utility.yul\":13671:13769   */\n      swap2\n      swap1\n      pop\n      jump\t// out\n        /* \"#utility.yul\":13775:13933   */\n    tag_162:\n        /* \"#utility.yul\":13848:13859   */\n      0x00\n        /* \"#utility.yul\":13882:13888   */\n      dup3\n        /* \"#utility.yul\":13877:13880   */\n      dup3\n        /* \"#utility.yul\":13870:13889   */\n      mstore\n        /* \"#utility.yul\":13922:13926   */\n      0x20\n        /* \"#utility.yul\":13917:13920   */\n      dup3\n        /* \"#utility.yul\":13913:13927   */\n      add\n        /* \"#utility.yul\":13898:13927   */\n      swap1\n      pop\n        /* \"#utility.yul\":13775:13933   */\n      swap3\n      swap2\n      pop\n      pop\n      jump\t// out\n        /* \"#utility.yul\":13939:14246   */\n    tag_163:\n        /* \"#utility.yul\":14007:14008   */\n      0x00\n        /* \"#utility.yul\":14017:14130   */\n    tag_330:\n        /* \"#utility.yul\":14031:14037   */\n      dup4\n        /* \"#utility.yul\":14028:14029   */\n      dup2\n        /* \"#utility.yul\":14025:14038   */\n      lt\n        /* \"#utility.yul\":14017:14130   */\n      iszero\n      tag_332\n      jumpi\n        /* \"#utility.yul\":14116:14117   */\n      dup1\n        /* \"#utility.yul\":14111:14114   */\n      dup3\n        /* \"#utility.yul\":14107:14118   */\n      add\n        /* \"#utility.yul\":14101:14119   */\n      mload\n        /* \"#utility.yul\":14097:14098   */\n      dup2\n        /* \"#utility.yul\":14092:14095   */\n      dup5\n        /* \"#utility.yul\":14088:14099   */\n      add\n        /* \"#utility.yul\":14081:14120   */\n      mstore\n        /* \"#utility.yul\":14053:14055   */\n      0x20\n        /* \"#utility.yul\":14050:14051   */\n      dup2\n        /* \"#utility.yul\":14046:14056   */\n      add\n        /* \"#utility.yul\":14041:14056   */\n      swap1\n      pop\n        /* \"#utility.yul\":14017:14130   */\n      jump(tag_330)\n    tag_332:\n        /* \"#utility.yul\":14148:14154   */\n      dup4\n        /* \"#utility.yul\":14145:14146   */\n      dup2\n        /* \"#utility.yul\":14142:14155   */\n      gt\n        /* \"#utility.yul\":14139:14240   */\n      iszero\n      tag_333\n      jumpi\n        /* \"#utility.yul\":14228:14229   */\n      0x00\n        /* \"#utility.yul\":14219:14225   */\n      dup5\n        /* \"#utility.yul\":14214:14217   */\n      dup5\n        /* \"#utility.yul\":14210:14226   */\n      add\n        /* \"#utility.yul\":14203:14230   */\n      mstore\n        /* \"#utility.yul\":14139:14240   */\n    tag_333:\n        /* \"#utility.yul\":13988:14246   */\n      pop\n        /* \"#utility.yul\":13939:14246   */\n      pop\n      pop\n      pop\n      jump\t// out\n        /* \"#utility.yul\":14252:14592   */\n    tag_164:\n        /* \"#utility.yul\":14328:14331   */\n      0x00\n        /* \"#utility.yul\":14356:14394   */\n      tag_335\n        /* \"#utility.yul\":14388:14393   */\n      dup3\n        /* \"#utility.yul\":14356:14394   */\n      tag_161\n      jump\t// in\n    tag_335:\n        /* \"#utility.yul\":14410:14470   */\n      tag_336\n        /* \"#utility.yul\":14463:14469   */\n      dup2\n        /* \"#utility.yul\":14458:14461   */\n      dup6\n        /* \"#utility.yul\":14410:14470   */\n      tag_162\n      jump\t// in\n    tag_336:\n        /* \"#utility.yul\":14403:14470   */\n      swap4\n      pop\n        /* \"#utility.yul\":14479:14531   */\n      tag_337\n        /* \"#utility.yul\":14524:14530   */\n      dup2\n        /* \"#utility.yul\":14519:14522   */\n      dup6\n        /* \"#utility.yul\":14512:14516   */\n      0x20\n        /* \"#utility.yul\":14505:14510   */\n      dup7\n        /* \"#utility.yul\":14501:14517   */\n      add\n        /* \"#utility.yul\":14479:14531   */\n      tag_163\n      jump\t// in\n    tag_337:\n        /* \"#utility.yul\":14556:14585   */\n      tag_338\n        /* \"#utility.yul\":14578:14584   */\n      dup2\n        /* \"#utility.yul\":14556:14585   */\n      tag_138\n      jump\t// in\n    tag_338:\n        /* \"#utility.yul\":14551:14554   */\n      dup5\n        /* \"#utility.yul\":14547:14586   */\n      add\n        /* \"#utility.yul\":14540:14586   */\n      swap2\n      pop\n        /* \"#utility.yul\":14332:14592   */\n      pop\n        /* \"#utility.yul\":14252:14592   */\n      swap3\n      swap2\n      pop\n      pop\n      jump\t// out\n        /* \"#utility.yul\":14598:14790   */\n    tag_165:\n        /* \"#utility.yul\":14685:14695   */\n      0x00\n        /* \"#utility.yul\":14720:14784   */\n      tag_340\n        /* \"#utility.yul\":14780:14783   */\n      dup4\n        /* \"#utility.yul\":14772:14778   */\n      dup4\n        /* \"#utility.yul\":14720:14784   */\n      tag_164\n      jump\t// in\n    tag_340:\n        /* \"#utility.yul\":14706:14784   */\n      swap1\n      pop\n        /* \"#utility.yul\":14598:14790   */\n      swap3\n      swap2\n      pop\n      pop\n      jump\t// out\n        /* \"#utility.yul\":14796:14918   */\n    tag_166:\n        /* \"#utility.yul\":14875:14879   */\n      0x00\n        /* \"#utility.yul\":14907:14911   */\n      0x20\n        /* \"#utility.yul\":14902:14905   */\n      dup3\n        /* \"#utility.yul\":14898:14912   */\n      add\n        /* \"#utility.yul\":14890:14912   */\n      swap1\n      pop\n        /* \"#utility.yul\":14796:14918   */\n      swap2\n      swap1\n      pop\n      jump\t// out\n        /* \"#utility.yul\":14950:15933   */\n    tag_167:\n        /* \"#utility.yul\":15087:15090   */\n      0x00\n        /* \"#utility.yul\":15116:15179   */\n      tag_343\n        /* \"#utility.yul\":15173:15178   */\n      dup3\n        /* \"#utility.yul\":15116:15179   */\n      tag_158\n      jump\t// in\n    tag_343:\n        /* \"#utility.yul\":15195:15290   */\n      tag_344\n        /* \"#utility.yul\":15283:15289   */\n      dup2\n        /* \"#utility.yul\":15278:15281   */\n      dup6\n        /* \"#utility.yul\":15195:15290   */\n      tag_159\n      jump\t// in\n    tag_344:\n        /* \"#utility.yul\":15188:15290   */\n      swap4\n      pop\n        /* \"#utility.yul\":15316:15319   */\n      dup4\n        /* \"#utility.yul\":15361:15365   */\n      0x20\n        /* \"#utility.yul\":15353:15359   */\n      dup3\n        /* \"#utility.yul\":15349:15366   */\n      mul\n        /* \"#utility.yul\":15344:15347   */\n      dup6\n        /* \"#utility.yul\":15340:15367   */\n      add\n        /* \"#utility.yul\":15391:15456   */\n      tag_345\n        /* \"#utility.yul\":15450:15455   */\n      dup6\n        /* \"#utility.yul\":15391:15456   */\n      tag_160\n      jump\t// in\n    tag_345:\n        /* \"#utility.yul\":15479:15486   */\n      dup1\n        /* \"#utility.yul\":15510:15511   */\n      0x00\n        /* \"#utility.yul\":15495:15888   */\n    tag_346:\n        /* \"#utility.yul\":15520:15526   */\n      dup6\n        /* \"#utility.yul\":15517:15518   */\n      dup2\n        /* \"#utility.yul\":15514:15527   */\n      lt\n        /* \"#utility.yul\":15495:15888   */\n      iszero\n      tag_348\n      jumpi\n        /* \"#utility.yul\":15591:15600   */\n      dup5\n        /* \"#utility.yul\":15585:15589   */\n      dup5\n        /* \"#utility.yul\":15581:15601   */\n      sub\n        /* \"#utility.yul\":15576:15579   */\n      dup10\n        /* \"#utility.yul\":15569:15602   */\n      mstore\n        /* \"#utility.yul\":15642:15648   */\n      dup2\n        /* \"#utility.yul\":15636:15649   */\n      mload\n        /* \"#utility.yul\":15670:15752   */\n      tag_349\n        /* \"#utility.yul\":15747:15751   */\n      dup6\n        /* \"#utility.yul\":15732:15745   */\n      dup3\n        /* \"#utility.yul\":15670:15752   */\n      tag_165\n      jump\t// in\n    tag_349:\n        /* \"#utility.yul\":15662:15752   */\n      swap5\n      pop\n        /* \"#utility.yul\":15775:15844   */\n      tag_350\n        /* \"#utility.yul\":15837:15843   */\n      dup4\n        /* \"#utility.yul\":15775:15844   */\n      tag_166\n      jump\t// in\n    tag_350:\n        /* \"#utility.yul\":15765:15844   */\n      swap3\n      pop\n        /* \"#utility.yul\":15873:15877   */\n      0x20\n        /* \"#utility.yul\":15868:15871   */\n      dup11\n        /* \"#utility.yul\":15864:15878   */\n      add\n        /* \"#utility.yul\":15857:15878   */\n      swap10\n      pop\n        /* \"#utility.yul\":15555:15888   */\n      pop\n        /* \"#utility.yul\":15542:15543   */\n      0x01\n        /* \"#utility.yul\":15539:15540   */\n      dup2\n        /* \"#utility.yul\":15535:15544   */\n      add\n        /* \"#utility.yul\":15530:15544   */\n      swap1\n      pop\n        /* \"#utility.yul\":15495:15888   */\n      jump(tag_346)\n    tag_348:\n        /* \"#utility.yul\":15499:15513   */\n      pop\n        /* \"#utility.yul\":15904:15908   */\n      dup3\n        /* \"#utility.yul\":15897:15908   */\n      swap8\n      pop\n        /* \"#utility.yul\":15924:15927   */\n      dup8\n        /* \"#utility.yul\":15917:15927   */\n      swap6\n      pop\n        /* \"#utility.yul\":15092:15933   */\n      pop\n      pop\n      pop\n      pop\n      pop\n        /* \"#utility.yul\":14950:15933   */\n      swap3\n      swap2\n      pop\n      pop\n      jump\t// out\n        /* \"#utility.yul\":15939:16057   */\n    tag_168:\n        /* \"#utility.yul\":16026:16050   */\n      tag_352\n        /* \"#utility.yul\":16044:16049   */\n      dup2\n        /* \"#utility.yul\":16026:16050   */\n      tag_153\n      jump\t// in\n    tag_352:\n        /* \"#utility.yul\":16021:16024   */\n      dup3\n        /* \"#utility.yul\":16014:16051   */\n      mstore\n        /* \"#utility.yul\":15939:16057   */\n      pop\n      pop\n      jump\t// out\n        /* \"#utility.yul\":16063:16692   */\n    tag_93:\n        /* \"#utility.yul\":16280:16284   */\n      0x00\n        /* \"#utility.yul\":16318:16320   */\n      0x60\n        /* \"#utility.yul\":16307:16316   */\n      dup3\n        /* \"#utility.yul\":16303:16321   */\n      add\n        /* \"#utility.yul\":16295:16321   */\n      swap1\n      pop\n        /* \"#utility.yul\":16331:16402   */\n      tag_354\n        /* \"#utility.yul\":16399:16400   */\n      0x00\n        /* \"#utility.yul\":16388:16397   */\n      dup4\n        /* \"#utility.yul\":16384:16401   */\n      add\n        /* \"#utility.yul\":16375:16381   */\n      dup7\n        /* \"#utility.yul\":16331:16402   */\n      tag_157\n      jump\t// in\n    tag_354:\n        /* \"#utility.yul\":16449:16458   */\n      dup2\n        /* \"#utility.yul\":16443:16447   */\n      dup2\n        /* \"#utility.yul\":16439:16459   */\n      sub\n        /* \"#utility.yul\":16434:16436   */\n      0x20\n        /* \"#utility.yul\":16423:16432   */\n      dup4\n        /* \"#utility.yul\":16419:16437   */\n      add\n        /* \"#utility.yul\":16412:16460   */\n      mstore\n        /* \"#utility.yul\":16477:16603   */\n      tag_355\n        /* \"#utility.yul\":16598:16602   */\n      dup2\n        /* \"#utility.yul\":16589:16595   */\n      dup6\n        /* \"#utility.yul\":16477:16603   */\n      tag_167\n      jump\t// in\n    tag_355:\n        /* \"#utility.yul\":16469:16603   */\n      swap1\n      pop\n        /* \"#utility.yul\":16613:16685   */\n      tag_356\n        /* \"#utility.yul\":16681:16683   */\n      0x40\n        /* \"#utility.yul\":16670:16679   */\n      dup4\n        /* \"#utility.yul\":16666:16684   */\n      add\n        /* \"#utility.yul\":16657:16663   */\n      dup5\n        /* \"#utility.yul\":16613:16685   */\n      tag_168\n      jump\t// in\n    tag_356:\n        /* \"#utility.yul\":16063:16692   */\n      swap5\n      swap4\n      pop\n      pop\n      pop\n      pop\n      jump\t// out\n        /* \"#utility.yul\":16698:16867   */\n    tag_169:\n        /* \"#utility.yul\":16782:16793   */\n      0x00\n        /* \"#utility.yul\":16816:16822   */\n      dup3\n        /* \"#utility.yul\":16811:16814   */\n      dup3\n        /* \"#utility.yul\":16804:16823   */\n      mstore\n        /* \"#utility.yul\":16856:16860   */\n      0x20\n        /* \"#utility.yul\":16851:16854   */\n      dup3\n        /* \"#utility.yul\":16847:16861   */\n      add\n        /* \"#utility.yul\":16832:16861   */\n      swap1\n      pop\n        /* \"#utility.yul\":16698:16867   */\n      swap3\n      swap2\n      pop\n      pop\n      jump\t// out\n        /* \"#utility.yul\":16873:17093   */\n    tag_170:\n        /* \"#utility.yul\":17013:17047   */\n      0x476f7665726e6f723a2070726f706f73616c206e6f7420737563636573736675\n        /* \"#utility.yul\":17009:17010   */\n      0x00\n        /* \"#utility.yul\":17001:17007   */\n      dup3\n        /* \"#utility.yul\":16997:17011   */\n      add\n        /* \"#utility.yul\":16990:17048   */\n      mstore\n        /* \"#utility.yul\":17082:17085   */\n      0x6c00000000000000000000000000000000000000000000000000000000000000\n        /* \"#utility.yul\":17077:17079   */\n      0x20\n        /* \"#utility.yul\":17069:17075   */\n      dup3\n        /* \"#utility.yul\":17065:17080   */\n      add\n        /* \"#utility.yul\":17058:17086   */\n      mstore\n        /* \"#utility.yul\":16873:17093   */\n      pop\n      jump\t// out\n        /* \"#utility.yul\":17099:17465   */\n    tag_171:\n        /* \"#utility.yul\":17241:17244   */\n      0x00\n        /* \"#utility.yul\":17262:17329   */\n      tag_360\n        /* \"#utility.yul\":17326:17328   */\n      0x21\n        /* \"#utility.yul\":17321:17324   */\n      dup4\n        /* \"#utility.yul\":17262:17329   */\n      tag_169\n      jump\t// in\n    tag_360:\n        /* \"#utility.yul\":17255:17329   */\n      swap2\n      pop\n        /* \"#utility.yul\":17338:17431   */\n      tag_361\n        /* \"#utility.yul\":17427:17430   */\n      dup3\n        /* \"#utility.yul\":17338:17431   */\n      tag_170\n      jump\t// in\n    tag_361:\n        /* \"#utility.yul\":17456:17458   */\n      0x40\n        /* \"#utility.yul\":17451:17454   */\n      dup3\n        /* \"#utility.yul\":17447:17459   */\n      add\n        /* \"#utility.yul\":17440:17459   */\n      swap1\n      pop\n        /* \"#utility.yul\":17099:17465   */\n      swap2\n      swap1\n      pop\n      jump\t// out\n        /* \"#utility.yul\":17471:17890   */\n    tag_104:\n        /* \"#utility.yul\":17637:17641   */\n      0x00\n        /* \"#utility.yul\":17675:17677   */\n      0x20\n        /* \"#utility.yul\":17664:17673   */\n      dup3\n        /* \"#utility.yul\":17660:17678   */\n      add\n        /* \"#utility.yul\":17652:17678   */\n      swap1\n      pop\n        /* \"#utility.yul\":17724:17733   */\n      dup2\n        /* \"#utility.yul\":17718:17722   */\n      dup2\n        /* \"#utility.yul\":17714:17734   */\n      sub\n        /* \"#utility.yul\":17710:17711   */\n      0x00\n        /* \"#utility.yul\":17699:17708   */\n      dup4\n        /* \"#utility.yul\":17695:17712   */\n      add\n        /* \"#utility.yul\":17688:17735   */\n      mstore\n        /* \"#utility.yul\":17752:17883   */\n      tag_363\n        /* \"#utility.yul\":17878:17882   */\n      dup2\n        /* \"#utility.yul\":17752:17883   */\n      tag_171\n      jump\t// in\n    tag_363:\n        /* \"#utility.yul\":17744:17883   */\n      swap1\n      pop\n        /* \"#utility.yul\":17471:17890   */\n      swap2\n      swap1\n      pop\n      jump\t// out\n\n    auxdata: 0xa26469706673582212207ad0562fea0debbd83ddfca6ef007cda5b589005bfbb8b38221e0cbe83088dbb64736f6c634300080d0033\n}\n",
				"bytecode": {
					"linkReferences": {},
					"object": "608060405234801561001057600080fd5b506110cb806100206000396000f3fe6080604052600436106100865760003560e01c80638c4461b3116100595780638c4461b31461017f578063a627e447146101bc578063c01f9e37146101ec578063eb9094a214610229578063f68deaf91461025257610086565b80632d63f6931461008b57806339690b24146100c85780633e4f49e6146101055780638c0e09f514610142575b600080fd5b34801561009757600080fd5b506100b260048036038101906100ad9190610724565b61028f565b6040516100bf9190610760565b60405180910390f35b3480156100d457600080fd5b506100ef60048036038101906100ea919061077b565b6102de565b6040516100fc9190610760565b60405180910390f35b34801561011157600080fd5b5061012c60048036038101906101279190610724565b61032e565b6040516101399190610832565b60405180910390f35b34801561014e57600080fd5b5061016960048036038101906101649190610b78565b6103d3565b6040516101769190610760565b60405180910390f35b34801561018b57600080fd5b506101a660048036038101906101a19190610c73565b6104a9565b6040516101b39190610760565b60405180910390f35b6101d660048036038101906101d19190610ce2565b6104e2565b6040516101e39190610760565b60405180910390f35b3480156101f857600080fd5b50610213600480360381019061020e9190610724565b6105a4565b6040516102209190610760565b60405180910390f35b34801561023557600080fd5b50610250600480360381019061024b919061077b565b6105f3565b005b34801561025e57600080fd5b5061027960048036038101906102749190610724565b61061e565b6040516102869190610760565b60405180910390f35b60006102d7600080848152602001908152602001600020600001604051806060016040529081600082015481526020016001820154815260200160028201548152505061066d565b9050919050565b6000610326600080858152602001908152602001600020600901604051806060016040529081600082015481526020016001820154815260200160028201548152505061067b565b905092915050565b600080600080848152602001908152602001600020905080600c0160009054906101000a900460ff16156103665760059150506103ce565b80600c0160019054906101000a900460ff16156103875760029150506103ce565b60006103928461028f565b90504281106103a6576000925050506103ce565b60006103b1856105a4565b90504281106103c657600193505050506103ce565b600393505050505b919050565b60008060019050600080600083815260200190815260200160002090506000603c8060188c6104029190610d9c565b61040c9190610d9c565b6104169190610d9c565b426104219190610df6565b90506000603c8060188c6104359190610d9c565b61043f9190610d9c565b6104499190610d9c565b826104549190610df6565b905061046c828460000161068990919063ffffffff16565b610482818460030161068990919063ffffffff16565b61049889846006016106a390919063ffffffff16565b839450505050509695505050505050565b60008383836040516020016104c093929190610fb4565b6040516020818303038152906040528051906020012060001c90509392505050565b6000806104f7858486805190602001206104a9565b905060006105048261032e565b90506003600581111561051a576105196107bb565b5b81600581111561052d5761052c6107bb565b5b1461056d576040517f08c379a000000000000000000000000000000000000000000000000000000000815260040161056490611075565b60405180910390fd5b6001600080848152602001908152602001600020600c0160006101000a81548160ff02191690831515021790555050509392505050565b60006105ec600080848152602001908152602001600020600301604051806060016040529081600082015481526020016001820154815260200160028201548152505061066d565b9050919050565b61061a816000808581526020019081526020016000206009016106b090919063ffffffff16565b5050565b600061066660008084815260200190815260200160002060060160405180606001604052908160008201548152602001600182015481526020016002820154815250506106cc565b9050919050565b600081600001519050919050565b600081602001519050919050565b6103e8816106979190610d9c565b82600001819055505050565b8082600101819055505050565b8082600101546106c09190610df6565b82600101819055505050565b600081602001519050919050565b6000604051905090565b600080fd5b600080fd5b6000819050919050565b610701816106ee565b811461070c57600080fd5b50565b60008135905061071e816106f8565b92915050565b60006020828403121561073a576107396106e4565b5b60006107488482850161070f565b91505092915050565b61075a816106ee565b82525050565b60006020820190506107756000830184610751565b92915050565b60008060408385031215610792576107916106e4565b5b60006107a08582860161070f565b92505060206107b18582860161070f565b9150509250929050565b7f4e487b7100000000000000000000000000000000000000000000000000000000600052602160045260246000fd5b600681106107fb576107fa6107bb565b5b50565b600081905061080c826107ea565b919050565b600061081c826107fe565b9050919050565b61082c81610811565b82525050565b60006020820190506108476000830184610823565b92915050565b600073ffffffffffffffffffffffffffffffffffffffff82169050919050565b60006108788261084d565b9050919050565b6108888161086d565b811461089357600080fd5b50565b6000813590506108a58161087f565b92915050565b600080fd5b600080fd5b6000601f19601f8301169050919050565b7f4e487b7100000000000000000000000000000000000000000000000000000000600052604160045260246000fd5b6108fe826108b5565b810181811067ffffffffffffffff8211171561091d5761091c6108c6565b5b80604052505050565b60006109306106da565b905061093c82826108f5565b919050565b600067ffffffffffffffff82111561095c5761095b6108c6565b5b610965826108b5565b9050602081019050919050565b82818337600083830152505050565b600061099461098f84610941565b610926565b9050828152602081018484840111156109b0576109af6108b0565b5b6109bb848285610972565b509392505050565b600082601f8301126109d8576109d76108ab565b5b81356109e8848260208601610981565b91505092915050565b600067ffffffffffffffff821115610a0c57610a0b6108c6565b5b602082029050602081019050919050565b600080fd5b600067ffffffffffffffff821115610a3d57610a3c6108c6565b5b610a46826108b5565b9050602081019050919050565b6000610a66610a6184610a22565b610926565b905082815260208101848484011115610a8257610a816108b0565b5b610a8d848285610972565b509392505050565b600082601f830112610aaa57610aa96108ab565b5b8135610aba848260208601610a53565b91505092915050565b6000610ad6610ad1846109f1565b610926565b90508083825260208201905060208402830185811115610af957610af8610a1d565b5b835b81811015610b4057803567ffffffffffffffff811115610b1e57610b1d6108ab565b5b808601610b2b8982610a95565b85526020850194505050602081019050610afb565b5050509392505050565b600082601f830112610b5f57610b5e6108ab565b5b8135610b6f848260208601610ac3565b91505092915050565b60008060008060008060c08789031215610b9557610b946106e4565b5b6000610ba389828a0161070f565b9650506020610bb489828a0161070f565b9550506040610bc589828a0161070f565b9450506060610bd689828a01610896565b935050608087013567ffffffffffffffff811115610bf757610bf66106e9565b5b610c0389828a016109c3565b92505060a087013567ffffffffffffffff811115610c2457610c236106e9565b5b610c3089828a01610b4a565b9150509295509295509295565b6000819050919050565b610c5081610c3d565b8114610c5b57600080fd5b50565b600081359050610c6d81610c47565b92915050565b600080600060608486031215610c8c57610c8b6106e4565b5b6000610c9a86828701610896565b935050602084013567ffffffffffffffff811115610cbb57610cba6106e9565b5b610cc786828701610b4a565b9250506040610cd886828701610c5e565b9150509250925092565b600080600060608486031215610cfb57610cfa6106e4565b5b6000610d0986828701610896565b935050602084013567ffffffffffffffff811115610d2a57610d296106e9565b5b610d36868287016109c3565b925050604084013567ffffffffffffffff811115610d5757610d566106e9565b5b610d6386828701610b4a565b9150509250925092565b7f4e487b7100000000000000000000000000000000000000000000000000000000600052601160045260246000fd5b6000610da7826106ee565b9150610db2836106ee565b9250817fffffffffffffffffffffffffffffffffffffffffffffffffffffffffffffffff0483118215151615610deb57610dea610d6d565b5b828202905092915050565b6000610e01826106ee565b9150610e0c836106ee565b9250827fffffffffffffffffffffffffffffffffffffffffffffffffffffffffffffffff03821115610e4157610e40610d6d565b5b828201905092915050565b610e558161086d565b82525050565b600081519050919050565b600082825260208201905092915050565b6000819050602082019050919050565b600081519050919050565b600082825260208201905092915050565b60005b83811015610ec1578082015181840152602081019050610ea6565b83811115610ed0576000848401525b50505050565b6000610ee182610e87565b610eeb8185610e92565b9350610efb818560208601610ea3565b610f04816108b5565b840191505092915050565b6000610f1b8383610ed6565b905092915050565b6000602082019050919050565b6000610f3b82610e5b565b610f458185610e66565b935083602082028501610f5785610e77565b8060005b85811015610f935784840389528151610f748582610f0f565b9450610f7f83610f23565b925060208a01995050600181019050610f5b565b50829750879550505050505092915050565b610fae81610c3d565b82525050565b6000606082019050610fc96000830186610e4c565b8181036020830152610fdb8185610f30565b9050610fea6040830184610fa5565b949350505050565b600082825260208201905092915050565b7f476f7665726e6f723a2070726f706f73616c206e6f742073756363657373667560008201527f6c00000000000000000000000000000000000000000000000000000000000000602082015250565b600061105f602183610ff2565b915061106a82611003565b604082019050919050565b6000602082019050818103600083015261108e81611052565b905091905056fea26469706673582212207ad0562fea0debbd83ddfca6ef007cda5b589005bfbb8b38221e0cbe83088dbb64736f6c634300080d0033",
					"opcodes": "PUSH1 0x80 PUSH1 0x40 MSTORE CALLVALUE DUP1 ISZERO PUSH2 0x10 JUMPI PUSH1 0x0 DUP1 REVERT JUMPDEST POP PUSH2 0x10CB DUP1 PUSH2 0x20 PUSH1 0x0 CODECOPY PUSH1 0x0 RETURN INVALID PUSH1 0x80 PUSH1 0x40 MSTORE PUSH1 0x4 CALLDATASIZE LT PUSH2 0x86 JUMPI PUSH1 0x0 CALLDATALOAD PUSH1 0xE0 SHR DUP1 PUSH4 0x8C4461B3 GT PUSH2 0x59 JUMPI DUP1 PUSH4 0x8C4461B3 EQ PUSH2 0x17F JUMPI DUP1 PUSH4 0xA627E447 EQ PUSH2 0x1BC JUMPI DUP1 PUSH4 0xC01F9E37 EQ PUSH2 0x1EC JUMPI DUP1 PUSH4 0xEB9094A2 EQ PUSH2 0x229 JUMPI DUP1 PUSH4 0xF68DEAF9 EQ PUSH2 0x252 JUMPI PUSH2 0x86 JUMP JUMPDEST DUP1 PUSH4 0x2D63F693 EQ PUSH2 0x8B JUMPI DUP1 PUSH4 0x39690B24 EQ PUSH2 0xC8 JUMPI DUP1 PUSH4 0x3E4F49E6 EQ PUSH2 0x105 JUMPI DUP1 PUSH4 0x8C0E09F5 EQ PUSH2 0x142 JUMPI JUMPDEST PUSH1 0x0 DUP1 REVERT JUMPDEST CALLVALUE DUP1 ISZERO PUSH2 0x97 JUMPI PUSH1 0x0 DUP1 REVERT JUMPDEST POP PUSH2 0xB2 PUSH1 0x4 DUP1 CALLDATASIZE SUB DUP2 ADD SWAP1 PUSH2 0xAD SWAP2 SWAP1 PUSH2 0x724 JUMP JUMPDEST PUSH2 0x28F JUMP JUMPDEST PUSH1 0x40 MLOAD PUSH2 0xBF SWAP2 SWAP1 PUSH2 0x760 JUMP JUMPDEST PUSH1 0x40 MLOAD DUP1 SWAP2 SUB SWAP1 RETURN JUMPDEST CALLVALUE DUP1 ISZERO PUSH2 0xD4 JUMPI PUSH1 0x0 DUP1 REVERT JUMPDEST POP PUSH2 0xEF PUSH1 0x4 DUP1 CALLDATASIZE SUB DUP2 ADD SWAP1 PUSH2 0xEA SWAP2 SWAP1 PUSH2 0x77B JUMP JUMPDEST PUSH2 0x2DE JUMP JUMPDEST PUSH1 0x40 MLOAD PUSH2 0xFC SWAP2 SWAP1 PUSH2 0x760 JUMP JUMPDEST PUSH1 0x40 MLOAD DUP1 SWAP2 SUB SWAP1 RETURN JUMPDEST CALLVALUE DUP1 ISZERO PUSH2 0x111 JUMPI PUSH1 0x0 DUP1 REVERT JUMPDEST POP PUSH2 0x12C PUSH1 0x4 DUP1 CALLDATASIZE SUB DUP2 ADD SWAP1 PUSH2 0x127 SWAP2 SWAP1 PUSH2 0x724 JUMP JUMPDEST PUSH2 0x32E JUMP JUMPDEST PUSH1 0x40 MLOAD PUSH2 0x139 SWAP2 SWAP1 PUSH2 0x832 JUMP JUMPDEST PUSH1 0x40 MLOAD DUP1 SWAP2 SUB SWAP1 RETURN JUMPDEST CALLVALUE DUP1 ISZERO PUSH2 0x14E JUMPI PUSH1 0x0 DUP1 REVERT JUMPDEST POP PUSH2 0x169 PUSH1 0x4 DUP1 CALLDATASIZE SUB DUP2 ADD SWAP1 PUSH2 0x164 SWAP2 SWAP1 PUSH2 0xB78 JUMP JUMPDEST PUSH2 0x3D3 JUMP JUMPDEST PUSH1 0x40 MLOAD PUSH2 0x176 SWAP2 SWAP1 PUSH2 0x760 JUMP JUMPDEST PUSH1 0x40 MLOAD DUP1 SWAP2 SUB SWAP1 RETURN JUMPDEST CALLVALUE DUP1 ISZERO PUSH2 0x18B JUMPI PUSH1 0x0 DUP1 REVERT JUMPDEST POP PUSH2 0x1A6 PUSH1 0x4 DUP1 CALLDATASIZE SUB DUP2 ADD SWAP1 PUSH2 0x1A1 SWAP2 SWAP1 PUSH2 0xC73 JUMP JUMPDEST PUSH2 0x4A9 JUMP JUMPDEST PUSH1 0x40 MLOAD PUSH2 0x1B3 SWAP2 SWAP1 PUSH2 0x760 JUMP JUMPDEST PUSH1 0x40 MLOAD DUP1 SWAP2 SUB SWAP1 RETURN JUMPDEST PUSH2 0x1D6 PUSH1 0x4 DUP1 CALLDATASIZE SUB DUP2 ADD SWAP1 PUSH2 0x1D1 SWAP2 SWAP1 PUSH2 0xCE2 JUMP JUMPDEST PUSH2 0x4E2 JUMP JUMPDEST PUSH1 0x40 MLOAD PUSH2 0x1E3 SWAP2 SWAP1 PUSH2 0x760 JUMP JUMPDEST PUSH1 0x40 MLOAD DUP1 SWAP2 SUB SWAP1 RETURN JUMPDEST CALLVALUE DUP1 ISZERO PUSH2 0x1F8 JUMPI PUSH1 0x0 DUP1 REVERT JUMPDEST POP PUSH2 0x213 PUSH1 0x4 DUP1 CALLDATASIZE SUB DUP2 ADD SWAP1 PUSH2 0x20E SWAP2 SWAP1 PUSH2 0x724 JUMP JUMPDEST PUSH2 0x5A4 JUMP JUMPDEST PUSH1 0x40 MLOAD PUSH2 0x220 SWAP2 SWAP1 PUSH2 0x760 JUMP JUMPDEST PUSH1 0x40 MLOAD DUP1 SWAP2 SUB SWAP1 RETURN JUMPDEST CALLVALUE DUP1 ISZERO PUSH2 0x235 JUMPI PUSH1 0x0 DUP1 REVERT JUMPDEST POP PUSH2 0x250 PUSH1 0x4 DUP1 CALLDATASIZE SUB DUP2 ADD SWAP1 PUSH2 0x24B SWAP2 SWAP1 PUSH2 0x77B JUMP JUMPDEST PUSH2 0x5F3 JUMP JUMPDEST STOP JUMPDEST CALLVALUE DUP1 ISZERO PUSH2 0x25E JUMPI PUSH1 0x0 DUP1 REVERT JUMPDEST POP PUSH2 0x279 PUSH1 0x4 DUP1 CALLDATASIZE SUB DUP2 ADD SWAP1 PUSH2 0x274 SWAP2 SWAP1 PUSH2 0x724 JUMP JUMPDEST PUSH2 0x61E JUMP JUMPDEST PUSH1 0x40 MLOAD PUSH2 0x286 SWAP2 SWAP1 PUSH2 0x760 JUMP JUMPDEST PUSH1 0x40 MLOAD DUP1 SWAP2 SUB SWAP1 RETURN JUMPDEST PUSH1 0x0 PUSH2 0x2D7 PUSH1 0x0 DUP1 DUP5 DUP2 MSTORE PUSH1 0x20 ADD SWAP1 DUP2 MSTORE PUSH1 0x20 ADD PUSH1 0x0 KECCAK256 PUSH1 0x0 ADD PUSH1 0x40 MLOAD DUP1 PUSH1 0x60 ADD PUSH1 0x40 MSTORE SWAP1 DUP2 PUSH1 0x0 DUP3 ADD SLOAD DUP2 MSTORE PUSH1 0x20 ADD PUSH1 0x1 DUP3 ADD SLOAD DUP2 MSTORE PUSH1 0x20 ADD PUSH1 0x2 DUP3 ADD SLOAD DUP2 MSTORE POP POP PUSH2 0x66D JUMP JUMPDEST SWAP1 POP SWAP2 SWAP1 POP JUMP JUMPDEST PUSH1 0x0 PUSH2 0x326 PUSH1 0x0 DUP1 DUP6 DUP2 MSTORE PUSH1 0x20 ADD SWAP1 DUP2 MSTORE PUSH1 0x20 ADD PUSH1 0x0 KECCAK256 PUSH1 0x9 ADD PUSH1 0x40 MLOAD DUP1 PUSH1 0x60 ADD PUSH1 0x40 MSTORE SWAP1 DUP2 PUSH1 0x0 DUP3 ADD SLOAD DUP2 MSTORE PUSH1 0x20 ADD PUSH1 0x1 DUP3 ADD SLOAD DUP2 MSTORE PUSH1 0x20 ADD PUSH1 0x2 DUP3 ADD SLOAD DUP2 MSTORE POP POP PUSH2 0x67B JUMP JUMPDEST SWAP1 POP SWAP3 SWAP2 POP POP JUMP JUMPDEST PUSH1 0x0 DUP1 PUSH1 0x0 DUP1 DUP5 DUP2 MSTORE PUSH1 0x20 ADD SWAP1 DUP2 MSTORE PUSH1 0x20 ADD PUSH1 0x0 KECCAK256 SWAP1 POP DUP1 PUSH1 0xC ADD PUSH1 0x0 SWAP1 SLOAD SWAP1 PUSH2 0x100 EXP SWAP1 DIV PUSH1 0xFF AND ISZERO PUSH2 0x366 JUMPI PUSH1 0x5 SWAP2 POP POP PUSH2 0x3CE JUMP JUMPDEST DUP1 PUSH1 0xC ADD PUSH1 0x1 SWAP1 SLOAD SWAP1 PUSH2 0x100 EXP SWAP1 DIV PUSH1 0xFF AND ISZERO PUSH2 0x387 JUMPI PUSH1 0x2 SWAP2 POP POP PUSH2 0x3CE JUMP JUMPDEST PUSH1 0x0 PUSH2 0x392 DUP5 PUSH2 0x28F JUMP JUMPDEST SWAP1 POP TIMESTAMP DUP2 LT PUSH2 0x3A6 JUMPI PUSH1 0x0 SWAP3 POP POP POP PUSH2 0x3CE JUMP JUMPDEST PUSH1 0x0 PUSH2 0x3B1 DUP6 PUSH2 0x5A4 JUMP JUMPDEST SWAP1 POP TIMESTAMP DUP2 LT PUSH2 0x3C6 JUMPI PUSH1 0x1 SWAP4 POP POP POP POP PUSH2 0x3CE JUMP JUMPDEST PUSH1 0x3 SWAP4 POP POP POP POP JUMPDEST SWAP2 SWAP1 POP JUMP JUMPDEST PUSH1 0x0 DUP1 PUSH1 0x1 SWAP1 POP PUSH1 0x0 DUP1 PUSH1 0x0 DUP4 DUP2 MSTORE PUSH1 0x20 ADD SWAP1 DUP2 MSTORE PUSH1 0x20 ADD PUSH1 0x0 KECCAK256 SWAP1 POP PUSH1 0x0 PUSH1 0x3C DUP1 PUSH1 0x18 DUP13 PUSH2 0x402 SWAP2 SWAP1 PUSH2 0xD9C JUMP JUMPDEST PUSH2 0x40C SWAP2 SWAP1 PUSH2 0xD9C JUMP JUMPDEST PUSH2 0x416 SWAP2 SWAP1 PUSH2 0xD9C JUMP JUMPDEST TIMESTAMP PUSH2 0x421 SWAP2 SWAP1 PUSH2 0xDF6 JUMP JUMPDEST SWAP1 POP PUSH1 0x0 PUSH1 0x3C DUP1 PUSH1 0x18 DUP13 PUSH2 0x435 SWAP2 SWAP1 PUSH2 0xD9C JUMP JUMPDEST PUSH2 0x43F SWAP2 SWAP1 PUSH2 0xD9C JUMP JUMPDEST PUSH2 0x449 SWAP2 SWAP1 PUSH2 0xD9C JUMP JUMPDEST DUP3 PUSH2 0x454 SWAP2 SWAP1 PUSH2 0xDF6 JUMP JUMPDEST SWAP1 POP PUSH2 0x46C DUP3 DUP5 PUSH1 0x0 ADD PUSH2 0x689 SWAP1 SWAP2 SWAP1 PUSH4 0xFFFFFFFF AND JUMP JUMPDEST PUSH2 0x482 DUP2 DUP5 PUSH1 0x3 ADD PUSH2 0x689 SWAP1 SWAP2 SWAP1 PUSH4 0xFFFFFFFF AND JUMP JUMPDEST PUSH2 0x498 DUP10 DUP5 PUSH1 0x6 ADD PUSH2 0x6A3 SWAP1 SWAP2 SWAP1 PUSH4 0xFFFFFFFF AND JUMP JUMPDEST DUP4 SWAP5 POP POP POP POP POP SWAP7 SWAP6 POP POP POP POP POP POP JUMP JUMPDEST PUSH1 0x0 DUP4 DUP4 DUP4 PUSH1 0x40 MLOAD PUSH1 0x20 ADD PUSH2 0x4C0 SWAP4 SWAP3 SWAP2 SWAP1 PUSH2 0xFB4 JUMP JUMPDEST PUSH1 0x40 MLOAD PUSH1 0x20 DUP2 DUP4 SUB SUB DUP2 MSTORE SWAP1 PUSH1 0x40 MSTORE DUP1 MLOAD SWAP1 PUSH1 0x20 ADD KECCAK256 PUSH1 0x0 SHR SWAP1 POP SWAP4 SWAP3 POP POP POP JUMP JUMPDEST PUSH1 0x0 DUP1 PUSH2 0x4F7 DUP6 DUP5 DUP7 DUP1 MLOAD SWAP1 PUSH1 0x20 ADD KECCAK256 PUSH2 0x4A9 JUMP JUMPDEST SWAP1 POP PUSH1 0x0 PUSH2 0x504 DUP3 PUSH2 0x32E JUMP JUMPDEST SWAP1 POP PUSH1 0x3 PUSH1 0x5 DUP2 GT ISZERO PUSH2 0x51A JUMPI PUSH2 0x519 PUSH2 0x7BB JUMP JUMPDEST JUMPDEST DUP2 PUSH1 0x5 DUP2 GT ISZERO PUSH2 0x52D JUMPI PUSH2 0x52C PUSH2 0x7BB JUMP JUMPDEST JUMPDEST EQ PUSH2 0x56D JUMPI PUSH1 0x40 MLOAD PUSH32 0x8C379A000000000000000000000000000000000000000000000000000000000 DUP2 MSTORE PUSH1 0x4 ADD PUSH2 0x564 SWAP1 PUSH2 0x1075 JUMP JUMPDEST PUSH1 0x40 MLOAD DUP1 SWAP2 SUB SWAP1 REVERT JUMPDEST PUSH1 0x1 PUSH1 0x0 DUP1 DUP5 DUP2 MSTORE PUSH1 0x20 ADD SWAP1 DUP2 MSTORE PUSH1 0x20 ADD PUSH1 0x0 KECCAK256 PUSH1 0xC ADD PUSH1 0x0 PUSH2 0x100 EXP DUP2 SLOAD DUP2 PUSH1 0xFF MUL NOT AND SWAP1 DUP4 ISZERO ISZERO MUL OR SWAP1 SSTORE POP POP POP SWAP4 SWAP3 POP POP POP JUMP JUMPDEST PUSH1 0x0 PUSH2 0x5EC PUSH1 0x0 DUP1 DUP5 DUP2 MSTORE PUSH1 0x20 ADD SWAP1 DUP2 MSTORE PUSH1 0x20 ADD PUSH1 0x0 KECCAK256 PUSH1 0x3 ADD PUSH1 0x40 MLOAD DUP1 PUSH1 0x60 ADD PUSH1 0x40 MSTORE SWAP1 DUP2 PUSH1 0x0 DUP3 ADD SLOAD DUP2 MSTORE PUSH1 0x20 ADD PUSH1 0x1 DUP3 ADD SLOAD DUP2 MSTORE PUSH1 0x20 ADD PUSH1 0x2 DUP3 ADD SLOAD DUP2 MSTORE POP POP PUSH2 0x66D JUMP JUMPDEST SWAP1 POP SWAP2 SWAP1 POP JUMP JUMPDEST PUSH2 0x61A DUP2 PUSH1 0x0 DUP1 DUP6 DUP2 MSTORE PUSH1 0x20 ADD SWAP1 DUP2 MSTORE PUSH1 0x20 ADD PUSH1 0x0 KECCAK256 PUSH1 0x9 ADD PUSH2 0x6B0 SWAP1 SWAP2 SWAP1 PUSH4 0xFFFFFFFF AND JUMP JUMPDEST POP POP JUMP JUMPDEST PUSH1 0x0 PUSH2 0x666 PUSH1 0x0 DUP1 DUP5 DUP2 MSTORE PUSH1 0x20 ADD SWAP1 DUP2 MSTORE PUSH1 0x20 ADD PUSH1 0x0 KECCAK256 PUSH1 0x6 ADD PUSH1 0x40 MLOAD DUP1 PUSH1 0x60 ADD PUSH1 0x40 MSTORE SWAP1 DUP2 PUSH1 0x0 DUP3 ADD SLOAD DUP2 MSTORE PUSH1 0x20 ADD PUSH1 0x1 DUP3 ADD SLOAD DUP2 MSTORE PUSH1 0x20 ADD PUSH1 0x2 DUP3 ADD SLOAD DUP2 MSTORE POP POP PUSH2 0x6CC JUMP JUMPDEST SWAP1 POP SWAP2 SWAP1 POP JUMP JUMPDEST PUSH1 0x0 DUP2 PUSH1 0x0 ADD MLOAD SWAP1 POP SWAP2 SWAP1 POP JUMP JUMPDEST PUSH1 0x0 DUP2 PUSH1 0x20 ADD MLOAD SWAP1 POP SWAP2 SWAP1 POP JUMP JUMPDEST PUSH2 0x3E8 DUP2 PUSH2 0x697 SWAP2 SWAP1 PUSH2 0xD9C JUMP JUMPDEST DUP3 PUSH1 0x0 ADD DUP2 SWAP1 SSTORE POP POP POP JUMP JUMPDEST DUP1 DUP3 PUSH1 0x1 ADD DUP2 SWAP1 SSTORE POP POP POP JUMP JUMPDEST DUP1 DUP3 PUSH1 0x1 ADD SLOAD PUSH2 0x6C0 SWAP2 SWAP1 PUSH2 0xDF6 JUMP JUMPDEST DUP3 PUSH1 0x1 ADD DUP2 SWAP1 SSTORE POP POP POP JUMP JUMPDEST PUSH1 0x0 DUP2 PUSH1 0x20 ADD MLOAD SWAP1 POP SWAP2 SWAP1 POP JUMP JUMPDEST PUSH1 0x0 PUSH1 0x40 MLOAD SWAP1 POP SWAP1 JUMP JUMPDEST PUSH1 0x0 DUP1 REVERT JUMPDEST PUSH1 0x0 DUP1 REVERT JUMPDEST PUSH1 0x0 DUP2 SWAP1 POP SWAP2 SWAP1 POP JUMP JUMPDEST PUSH2 0x701 DUP2 PUSH2 0x6EE JUMP JUMPDEST DUP2 EQ PUSH2 0x70C JUMPI PUSH1 0x0 DUP1 REVERT JUMPDEST POP JUMP JUMPDEST PUSH1 0x0 DUP2 CALLDATALOAD SWAP1 POP PUSH2 0x71E DUP2 PUSH2 0x6F8 JUMP JUMPDEST SWAP3 SWAP2 POP POP JUMP JUMPDEST PUSH1 0x0 PUSH1 0x20 DUP3 DUP5 SUB SLT ISZERO PUSH2 0x73A JUMPI PUSH2 0x739 PUSH2 0x6E4 JUMP JUMPDEST JUMPDEST PUSH1 0x0 PUSH2 0x748 DUP5 DUP3 DUP6 ADD PUSH2 0x70F JUMP JUMPDEST SWAP2 POP POP SWAP3 SWAP2 POP POP JUMP JUMPDEST PUSH2 0x75A DUP2 PUSH2 0x6EE JUMP JUMPDEST DUP3 MSTORE POP POP JUMP JUMPDEST PUSH1 0x0 PUSH1 0x20 DUP3 ADD SWAP1 POP PUSH2 0x775 PUSH1 0x0 DUP4 ADD DUP5 PUSH2 0x751 JUMP JUMPDEST SWAP3 SWAP2 POP POP JUMP JUMPDEST PUSH1 0x0 DUP1 PUSH1 0x40 DUP4 DUP6 SUB SLT ISZERO PUSH2 0x792 JUMPI PUSH2 0x791 PUSH2 0x6E4 JUMP JUMPDEST JUMPDEST PUSH1 0x0 PUSH2 0x7A0 DUP6 DUP3 DUP7 ADD PUSH2 0x70F JUMP JUMPDEST SWAP3 POP POP PUSH1 0x20 PUSH2 0x7B1 DUP6 DUP3 DUP7 ADD PUSH2 0x70F JUMP JUMPDEST SWAP2 POP POP SWAP3 POP SWAP3 SWAP1 POP JUMP JUMPDEST PUSH32 0x4E487B7100000000000000000000000000000000000000000000000000000000 PUSH1 0x0 MSTORE PUSH1 0x21 PUSH1 0x4 MSTORE PUSH1 0x24 PUSH1 0x0 REVERT JUMPDEST PUSH1 0x6 DUP2 LT PUSH2 0x7FB JUMPI PUSH2 0x7FA PUSH2 0x7BB JUMP JUMPDEST JUMPDEST POP JUMP JUMPDEST PUSH1 0x0 DUP2 SWAP1 POP PUSH2 0x80C DUP3 PUSH2 0x7EA JUMP JUMPDEST SWAP2 SWAP1 POP JUMP JUMPDEST PUSH1 0x0 PUSH2 0x81C DUP3 PUSH2 0x7FE JUMP JUMPDEST SWAP1 POP SWAP2 SWAP1 POP JUMP JUMPDEST PUSH2 0x82C DUP2 PUSH2 0x811 JUMP JUMPDEST DUP3 MSTORE POP POP JUMP JUMPDEST PUSH1 0x0 PUSH1 0x20 DUP3 ADD SWAP1 POP PUSH2 0x847 PUSH1 0x0 DUP4 ADD DUP5 PUSH2 0x823 JUMP JUMPDEST SWAP3 SWAP2 POP POP JUMP JUMPDEST PUSH1 0x0 PUSH20 0xFFFFFFFFFFFFFFFFFFFFFFFFFFFFFFFFFFFFFFFF DUP3 AND SWAP1 POP SWAP2 SWAP1 POP JUMP JUMPDEST PUSH1 0x0 PUSH2 0x878 DUP3 PUSH2 0x84D JUMP JUMPDEST SWAP1 POP SWAP2 SWAP1 POP JUMP JUMPDEST PUSH2 0x888 DUP2 PUSH2 0x86D JUMP JUMPDEST DUP2 EQ PUSH2 0x893 JUMPI PUSH1 0x0 DUP1 REVERT JUMPDEST POP JUMP JUMPDEST PUSH1 0x0 DUP2 CALLDATALOAD SWAP1 POP PUSH2 0x8A5 DUP2 PUSH2 0x87F JUMP JUMPDEST SWAP3 SWAP2 POP POP JUMP JUMPDEST PUSH1 0x0 DUP1 REVERT JUMPDEST PUSH1 0x0 DUP1 REVERT JUMPDEST PUSH1 0x0 PUSH1 0x1F NOT PUSH1 0x1F DUP4 ADD AND SWAP1 POP SWAP2 SWAP1 POP JUMP JUMPDEST PUSH32 0x4E487B7100000000000000000000000000000000000000000000000000000000 PUSH1 0x0 MSTORE PUSH1 0x41 PUSH1 0x4 MSTORE PUSH1 0x24 PUSH1 0x0 REVERT JUMPDEST PUSH2 0x8FE DUP3 PUSH2 0x8B5 JUMP JUMPDEST DUP2 ADD DUP2 DUP2 LT PUSH8 0xFFFFFFFFFFFFFFFF DUP3 GT OR ISZERO PUSH2 0x91D JUMPI PUSH2 0x91C PUSH2 0x8C6 JUMP JUMPDEST JUMPDEST DUP1 PUSH1 0x40 MSTORE POP POP POP JUMP JUMPDEST PUSH1 0x0 PUSH2 0x930 PUSH2 0x6DA JUMP JUMPDEST SWAP1 POP PUSH2 0x93C DUP3 DUP3 PUSH2 0x8F5 JUMP JUMPDEST SWAP2 SWAP1 POP JUMP JUMPDEST PUSH1 0x0 PUSH8 0xFFFFFFFFFFFFFFFF DUP3 GT ISZERO PUSH2 0x95C JUMPI PUSH2 0x95B PUSH2 0x8C6 JUMP JUMPDEST JUMPDEST PUSH2 0x965 DUP3 PUSH2 0x8B5 JUMP JUMPDEST SWAP1 POP PUSH1 0x20 DUP2 ADD SWAP1 POP SWAP2 SWAP1 POP JUMP JUMPDEST DUP3 DUP2 DUP4 CALLDATACOPY PUSH1 0x0 DUP4 DUP4 ADD MSTORE POP POP POP JUMP JUMPDEST PUSH1 0x0 PUSH2 0x994 PUSH2 0x98F DUP5 PUSH2 0x941 JUMP JUMPDEST PUSH2 0x926 JUMP JUMPDEST SWAP1 POP DUP3 DUP2 MSTORE PUSH1 0x20 DUP2 ADD DUP5 DUP5 DUP5 ADD GT ISZERO PUSH2 0x9B0 JUMPI PUSH2 0x9AF PUSH2 0x8B0 JUMP JUMPDEST JUMPDEST PUSH2 0x9BB DUP5 DUP3 DUP6 PUSH2 0x972 JUMP JUMPDEST POP SWAP4 SWAP3 POP POP POP JUMP JUMPDEST PUSH1 0x0 DUP3 PUSH1 0x1F DUP4 ADD SLT PUSH2 0x9D8 JUMPI PUSH2 0x9D7 PUSH2 0x8AB JUMP JUMPDEST JUMPDEST DUP2 CALLDATALOAD PUSH2 0x9E8 DUP5 DUP3 PUSH1 0x20 DUP7 ADD PUSH2 0x981 JUMP JUMPDEST SWAP2 POP POP SWAP3 SWAP2 POP POP JUMP JUMPDEST PUSH1 0x0 PUSH8 0xFFFFFFFFFFFFFFFF DUP3 GT ISZERO PUSH2 0xA0C JUMPI PUSH2 0xA0B PUSH2 0x8C6 JUMP JUMPDEST JUMPDEST PUSH1 0x20 DUP3 MUL SWAP1 POP PUSH1 0x20 DUP2 ADD SWAP1 POP SWAP2 SWAP1 POP JUMP JUMPDEST PUSH1 0x0 DUP1 REVERT JUMPDEST PUSH1 0x0 PUSH8 0xFFFFFFFFFFFFFFFF DUP3 GT ISZERO PUSH2 0xA3D JUMPI PUSH2 0xA3C PUSH2 0x8C6 JUMP JUMPDEST JUMPDEST PUSH2 0xA46 DUP3 PUSH2 0x8B5 JUMP JUMPDEST SWAP1 POP PUSH1 0x20 DUP2 ADD SWAP1 POP SWAP2 SWAP1 POP JUMP JUMPDEST PUSH1 0x0 PUSH2 0xA66 PUSH2 0xA61 DUP5 PUSH2 0xA22 JUMP JUMPDEST PUSH2 0x926 JUMP JUMPDEST SWAP1 POP DUP3 DUP2 MSTORE PUSH1 0x20 DUP2 ADD DUP5 DUP5 DUP5 ADD GT ISZERO PUSH2 0xA82 JUMPI PUSH2 0xA81 PUSH2 0x8B0 JUMP JUMPDEST JUMPDEST PUSH2 0xA8D DUP5 DUP3 DUP6 PUSH2 0x972 JUMP JUMPDEST POP SWAP4 SWAP3 POP POP POP JUMP JUMPDEST PUSH1 0x0 DUP3 PUSH1 0x1F DUP4 ADD SLT PUSH2 0xAAA JUMPI PUSH2 0xAA9 PUSH2 0x8AB JUMP JUMPDEST JUMPDEST DUP2 CALLDATALOAD PUSH2 0xABA DUP5 DUP3 PUSH1 0x20 DUP7 ADD PUSH2 0xA53 JUMP JUMPDEST SWAP2 POP POP SWAP3 SWAP2 POP POP JUMP JUMPDEST PUSH1 0x0 PUSH2 0xAD6 PUSH2 0xAD1 DUP5 PUSH2 0x9F1 JUMP JUMPDEST PUSH2 0x926 JUMP JUMPDEST SWAP1 POP DUP1 DUP4 DUP3 MSTORE PUSH1 0x20 DUP3 ADD SWAP1 POP PUSH1 0x20 DUP5 MUL DUP4 ADD DUP6 DUP2 GT ISZERO PUSH2 0xAF9 JUMPI PUSH2 0xAF8 PUSH2 0xA1D JUMP JUMPDEST JUMPDEST DUP4 JUMPDEST DUP2 DUP2 LT ISZERO PUSH2 0xB40 JUMPI DUP1 CALLDATALOAD PUSH8 0xFFFFFFFFFFFFFFFF DUP2 GT ISZERO PUSH2 0xB1E JUMPI PUSH2 0xB1D PUSH2 0x8AB JUMP JUMPDEST JUMPDEST DUP1 DUP7 ADD PUSH2 0xB2B DUP10 DUP3 PUSH2 0xA95 JUMP JUMPDEST DUP6 MSTORE PUSH1 0x20 DUP6 ADD SWAP5 POP POP POP PUSH1 0x20 DUP2 ADD SWAP1 POP PUSH2 0xAFB JUMP JUMPDEST POP POP POP SWAP4 SWAP3 POP POP POP JUMP JUMPDEST PUSH1 0x0 DUP3 PUSH1 0x1F DUP4 ADD SLT PUSH2 0xB5F JUMPI PUSH2 0xB5E PUSH2 0x8AB JUMP JUMPDEST JUMPDEST DUP2 CALLDATALOAD PUSH2 0xB6F DUP5 DUP3 PUSH1 0x20 DUP7 ADD PUSH2 0xAC3 JUMP JUMPDEST SWAP2 POP POP SWAP3 SWAP2 POP POP JUMP JUMPDEST PUSH1 0x0 DUP1 PUSH1 0x0 DUP1 PUSH1 0x0 DUP1 PUSH1 0xC0 DUP8 DUP10 SUB SLT ISZERO PUSH2 0xB95 JUMPI PUSH2 0xB94 PUSH2 0x6E4 JUMP JUMPDEST JUMPDEST PUSH1 0x0 PUSH2 0xBA3 DUP10 DUP3 DUP11 ADD PUSH2 0x70F JUMP JUMPDEST SWAP7 POP POP PUSH1 0x20 PUSH2 0xBB4 DUP10 DUP3 DUP11 ADD PUSH2 0x70F JUMP JUMPDEST SWAP6 POP POP PUSH1 0x40 PUSH2 0xBC5 DUP10 DUP3 DUP11 ADD PUSH2 0x70F JUMP JUMPDEST SWAP5 POP POP PUSH1 0x60 PUSH2 0xBD6 DUP10 DUP3 DUP11 ADD PUSH2 0x896 JUMP JUMPDEST SWAP4 POP POP PUSH1 0x80 DUP8 ADD CALLDATALOAD PUSH8 0xFFFFFFFFFFFFFFFF DUP2 GT ISZERO PUSH2 0xBF7 JUMPI PUSH2 0xBF6 PUSH2 0x6E9 JUMP JUMPDEST JUMPDEST PUSH2 0xC03 DUP10 DUP3 DUP11 ADD PUSH2 0x9C3 JUMP JUMPDEST SWAP3 POP POP PUSH1 0xA0 DUP8 ADD CALLDATALOAD PUSH8 0xFFFFFFFFFFFFFFFF DUP2 GT ISZERO PUSH2 0xC24 JUMPI PUSH2 0xC23 PUSH2 0x6E9 JUMP JUMPDEST JUMPDEST PUSH2 0xC30 DUP10 DUP3 DUP11 ADD PUSH2 0xB4A JUMP JUMPDEST SWAP2 POP POP SWAP3 SWAP6 POP SWAP3 SWAP6 POP SWAP3 SWAP6 JUMP JUMPDEST PUSH1 0x0 DUP2 SWAP1 POP SWAP2 SWAP1 POP JUMP JUMPDEST PUSH2 0xC50 DUP2 PUSH2 0xC3D JUMP JUMPDEST DUP2 EQ PUSH2 0xC5B JUMPI PUSH1 0x0 DUP1 REVERT JUMPDEST POP JUMP JUMPDEST PUSH1 0x0 DUP2 CALLDATALOAD SWAP1 POP PUSH2 0xC6D DUP2 PUSH2 0xC47 JUMP JUMPDEST SWAP3 SWAP2 POP POP JUMP JUMPDEST PUSH1 0x0 DUP1 PUSH1 0x0 PUSH1 0x60 DUP5 DUP7 SUB SLT ISZERO PUSH2 0xC8C JUMPI PUSH2 0xC8B PUSH2 0x6E4 JUMP JUMPDEST JUMPDEST PUSH1 0x0 PUSH2 0xC9A DUP7 DUP3 DUP8 ADD PUSH2 0x896 JUMP JUMPDEST SWAP4 POP POP PUSH1 0x20 DUP5 ADD CALLDATALOAD PUSH8 0xFFFFFFFFFFFFFFFF DUP2 GT ISZERO PUSH2 0xCBB JUMPI PUSH2 0xCBA PUSH2 0x6E9 JUMP JUMPDEST JUMPDEST PUSH2 0xCC7 DUP7 DUP3 DUP8 ADD PUSH2 0xB4A JUMP JUMPDEST SWAP3 POP POP PUSH1 0x40 PUSH2 0xCD8 DUP7 DUP3 DUP8 ADD PUSH2 0xC5E JUMP JUMPDEST SWAP2 POP POP SWAP3 POP SWAP3 POP SWAP3 JUMP JUMPDEST PUSH1 0x0 DUP1 PUSH1 0x0 PUSH1 0x60 DUP5 DUP7 SUB SLT ISZERO PUSH2 0xCFB JUMPI PUSH2 0xCFA PUSH2 0x6E4 JUMP JUMPDEST JUMPDEST PUSH1 0x0 PUSH2 0xD09 DUP7 DUP3 DUP8 ADD PUSH2 0x896 JUMP JUMPDEST SWAP4 POP POP PUSH1 0x20 DUP5 ADD CALLDATALOAD PUSH8 0xFFFFFFFFFFFFFFFF DUP2 GT ISZERO PUSH2 0xD2A JUMPI PUSH2 0xD29 PUSH2 0x6E9 JUMP JUMPDEST JUMPDEST PUSH2 0xD36 DUP7 DUP3 DUP8 ADD PUSH2 0x9C3 JUMP JUMPDEST SWAP3 POP POP PUSH1 0x40 DUP5 ADD CALLDATALOAD PUSH8 0xFFFFFFFFFFFFFFFF DUP2 GT ISZERO PUSH2 0xD57 JUMPI PUSH2 0xD56 PUSH2 0x6E9 JUMP JUMPDEST JUMPDEST PUSH2 0xD63 DUP7 DUP3 DUP8 ADD PUSH2 0xB4A JUMP JUMPDEST SWAP2 POP POP SWAP3 POP SWAP3 POP SWAP3 JUMP JUMPDEST PUSH32 0x4E487B7100000000000000000000000000000000000000000000000000000000 PUSH1 0x0 MSTORE PUSH1 0x11 PUSH1 0x4 MSTORE PUSH1 0x24 PUSH1 0x0 REVERT JUMPDEST PUSH1 0x0 PUSH2 0xDA7 DUP3 PUSH2 0x6EE JUMP JUMPDEST SWAP2 POP PUSH2 0xDB2 DUP4 PUSH2 0x6EE JUMP JUMPDEST SWAP3 POP DUP2 PUSH32 0xFFFFFFFFFFFFFFFFFFFFFFFFFFFFFFFFFFFFFFFFFFFFFFFFFFFFFFFFFFFFFFFF DIV DUP4 GT DUP3 ISZERO ISZERO AND ISZERO PUSH2 0xDEB JUMPI PUSH2 0xDEA PUSH2 0xD6D JUMP JUMPDEST JUMPDEST DUP3 DUP3 MUL SWAP1 POP SWAP3 SWAP2 POP POP JUMP JUMPDEST PUSH1 0x0 PUSH2 0xE01 DUP3 PUSH2 0x6EE JUMP JUMPDEST SWAP2 POP PUSH2 0xE0C DUP4 PUSH2 0x6EE JUMP JUMPDEST SWAP3 POP DUP3 PUSH32 0xFFFFFFFFFFFFFFFFFFFFFFFFFFFFFFFFFFFFFFFFFFFFFFFFFFFFFFFFFFFFFFFF SUB DUP3 GT ISZERO PUSH2 0xE41 JUMPI PUSH2 0xE40 PUSH2 0xD6D JUMP JUMPDEST JUMPDEST DUP3 DUP3 ADD SWAP1 POP SWAP3 SWAP2 POP POP JUMP JUMPDEST PUSH2 0xE55 DUP2 PUSH2 0x86D JUMP JUMPDEST DUP3 MSTORE POP POP JUMP JUMPDEST PUSH1 0x0 DUP2 MLOAD SWAP1 POP SWAP2 SWAP1 POP JUMP JUMPDEST PUSH1 0x0 DUP3 DUP3 MSTORE PUSH1 0x20 DUP3 ADD SWAP1 POP SWAP3 SWAP2 POP POP JUMP JUMPDEST PUSH1 0x0 DUP2 SWAP1 POP PUSH1 0x20 DUP3 ADD SWAP1 POP SWAP2 SWAP1 POP JUMP JUMPDEST PUSH1 0x0 DUP2 MLOAD SWAP1 POP SWAP2 SWAP1 POP JUMP JUMPDEST PUSH1 0x0 DUP3 DUP3 MSTORE PUSH1 0x20 DUP3 ADD SWAP1 POP SWAP3 SWAP2 POP POP JUMP JUMPDEST PUSH1 0x0 JUMPDEST DUP4 DUP2 LT ISZERO PUSH2 0xEC1 JUMPI DUP1 DUP3 ADD MLOAD DUP2 DUP5 ADD MSTORE PUSH1 0x20 DUP2 ADD SWAP1 POP PUSH2 0xEA6 JUMP JUMPDEST DUP4 DUP2 GT ISZERO PUSH2 0xED0 JUMPI PUSH1 0x0 DUP5 DUP5 ADD MSTORE JUMPDEST POP POP POP POP JUMP JUMPDEST PUSH1 0x0 PUSH2 0xEE1 DUP3 PUSH2 0xE87 JUMP JUMPDEST PUSH2 0xEEB DUP2 DUP6 PUSH2 0xE92 JUMP JUMPDEST SWAP4 POP PUSH2 0xEFB DUP2 DUP6 PUSH1 0x20 DUP7 ADD PUSH2 0xEA3 JUMP JUMPDEST PUSH2 0xF04 DUP2 PUSH2 0x8B5 JUMP JUMPDEST DUP5 ADD SWAP2 POP POP SWAP3 SWAP2 POP POP JUMP JUMPDEST PUSH1 0x0 PUSH2 0xF1B DUP4 DUP4 PUSH2 0xED6 JUMP JUMPDEST SWAP1 POP SWAP3 SWAP2 POP POP JUMP JUMPDEST PUSH1 0x0 PUSH1 0x20 DUP3 ADD SWAP1 POP SWAP2 SWAP1 POP JUMP JUMPDEST PUSH1 0x0 PUSH2 0xF3B DUP3 PUSH2 0xE5B JUMP JUMPDEST PUSH2 0xF45 DUP2 DUP6 PUSH2 0xE66 JUMP JUMPDEST SWAP4 POP DUP4 PUSH1 0x20 DUP3 MUL DUP6 ADD PUSH2 0xF57 DUP6 PUSH2 0xE77 JUMP JUMPDEST DUP1 PUSH1 0x0 JUMPDEST DUP6 DUP2 LT ISZERO PUSH2 0xF93 JUMPI DUP5 DUP5 SUB DUP10 MSTORE DUP2 MLOAD PUSH2 0xF74 DUP6 DUP3 PUSH2 0xF0F JUMP JUMPDEST SWAP5 POP PUSH2 0xF7F DUP4 PUSH2 0xF23 JUMP JUMPDEST SWAP3 POP PUSH1 0x20 DUP11 ADD SWAP10 POP POP PUSH1 0x1 DUP2 ADD SWAP1 POP PUSH2 0xF5B JUMP JUMPDEST POP DUP3 SWAP8 POP DUP8 SWAP6 POP POP POP POP POP POP SWAP3 SWAP2 POP POP JUMP JUMPDEST PUSH2 0xFAE DUP2 PUSH2 0xC3D JUMP JUMPDEST DUP3 MSTORE POP POP JUMP JUMPDEST PUSH1 0x0 PUSH1 0x60 DUP3 ADD SWAP1 POP PUSH2 0xFC9 PUSH1 0x0 DUP4 ADD DUP7 PUSH2 0xE4C JUMP JUMPDEST DUP2 DUP2 SUB PUSH1 0x20 DUP4 ADD MSTORE PUSH2 0xFDB DUP2 DUP6 PUSH2 0xF30 JUMP JUMPDEST SWAP1 POP PUSH2 0xFEA PUSH1 0x40 DUP4 ADD DUP5 PUSH2 0xFA5 JUMP JUMPDEST SWAP5 SWAP4 POP POP POP POP JUMP JUMPDEST PUSH1 0x0 DUP3 DUP3 MSTORE PUSH1 0x20 DUP3 ADD SWAP1 POP SWAP3 SWAP2 POP POP JUMP JUMPDEST PUSH32 0x476F7665726E6F723A2070726F706F73616C206E6F7420737563636573736675 PUSH1 0x0 DUP3 ADD MSTORE PUSH32 0x6C00000000000000000000000000000000000000000000000000000000000000 PUSH1 0x20 DUP3 ADD MSTORE POP JUMP JUMPDEST PUSH1 0x0 PUSH2 0x105F PUSH1 0x21 DUP4 PUSH2 0xFF2 JUMP JUMPDEST SWAP2 POP PUSH2 0x106A DUP3 PUSH2 0x1003 JUMP JUMPDEST PUSH1 0x40 DUP3 ADD SWAP1 POP SWAP2 SWAP1 POP JUMP JUMPDEST PUSH1 0x0 PUSH1 0x20 DUP3 ADD SWAP1 POP DUP2 DUP2 SUB PUSH1 0x0 DUP4 ADD MSTORE PUSH2 0x108E DUP2 PUSH2 0x1052 JUMP JUMPDEST SWAP1 POP SWAP2 SWAP1 POP JUMP INVALID LOG2 PUSH5 0x6970667358 0x22 SLT KECCAK256 PUSH27 0xD0562FEA0DEBBD83DDFCA6EF007CDA5B589005BFBB8B38221E0CBE DUP4 ADDMOD DUP14 0xBB PUSH5 0x736F6C6343 STOP ADDMOD 0xD STOP CALLER "
				},
				"gasEstimates": {
					"creation": {
						"codeDepositCost": "859800",
						"executionCost": "896",
						"totalCost": "860696"
					},
					"external": {
						"execute(address,string,bytes[])": "infinite",
						"getCurrentAmount(uint256,uint256)": "infinite",
						"hashProposal(address,bytes[],bytes32)": "infinite",
						"proposal(uint256,uint256,uint256,address,string,bytes[])": "infinite",
						"proposalDeadline(uint256)": "infinite",
						"proposalDonateMinimum(uint256)": "infinite",
						"proposalSnapshot(uint256)": "infinite",
						"setCurrentAmount(uint256,uint256)": "infinite",
						"state(uint256)": "infinite"
					}
				},
				"methodIdentifiers": {
					"execute(address,string,bytes[])": "a627e447",
					"getCurrentAmount(uint256,uint256)": "39690b24",
					"hashProposal(address,bytes[],bytes32)": "8c4461b3",
					"proposal(uint256,uint256,uint256,address,string,bytes[])": "8c0e09f5",
					"proposalDeadline(uint256)": "c01f9e37",
					"proposalDonateMinimum(uint256)": "f68deaf9",
					"proposalSnapshot(uint256)": "2d63f693",
					"setCurrentAmount(uint256,uint256)": "eb9094a2",
					"state(uint256)": "3e4f49e6"
				}
			},
			"storageLayout": {
				"storage": [
					{
						"astId": 41,
						"contract": ".workspaces/default_workspace/unMiracle/UMRproposal.sol:UMRproposal",
						"label": "_proposals",
						"offset": 0,
						"slot": "0",
						"type": "t_mapping(t_uint256,t_struct(ProposalCore)36_storage)"
					}
				],
				"types": {
					"t_bool": {
						"encoding": "inplace",
						"label": "bool",
						"numberOfBytes": "1"
					},
					"t_mapping(t_uint256,t_struct(ProposalCore)36_storage)": {
						"encoding": "mapping",
						"key": "t_uint256",
						"label": "mapping(uint256 => struct UMRproposal.ProposalCore)",
						"numberOfBytes": "32",
						"value": "t_struct(ProposalCore)36_storage"
					},
					"t_struct(ProposalCore)36_storage": {
						"encoding": "inplace",
						"label": "struct UMRproposal.ProposalCore",
						"members": [
							{
								"astId": 22,
								"contract": ".workspaces/default_workspace/unMiracle/UMRproposal.sol:UMRproposal",
								"label": "donationStart",
								"offset": 0,
								"slot": "0",
								"type": "t_struct(SetInfo)346_storage"
							},
							{
								"astId": 25,
								"contract": ".workspaces/default_workspace/unMiracle/UMRproposal.sol:UMRproposal",
								"label": "donationEnd",
								"offset": 0,
								"slot": "3",
								"type": "t_struct(SetInfo)346_storage"
							},
							{
								"astId": 28,
								"contract": ".workspaces/default_workspace/unMiracle/UMRproposal.sol:UMRproposal",
								"label": "donateMinimum",
								"offset": 0,
								"slot": "6",
								"type": "t_struct(SetInfo)346_storage"
							},
							{
								"astId": 31,
								"contract": ".workspaces/default_workspace/unMiracle/UMRproposal.sol:UMRproposal",
								"label": "donate",
								"offset": 0,
								"slot": "9",
								"type": "t_struct(SetInfo)346_storage"
							},
							{
								"astId": 33,
								"contract": ".workspaces/default_workspace/unMiracle/UMRproposal.sol:UMRproposal",
								"label": "executed",
								"offset": 0,
								"slot": "12",
								"type": "t_bool"
							},
							{
								"astId": 35,
								"contract": ".workspaces/default_workspace/unMiracle/UMRproposal.sol:UMRproposal",
								"label": "canceled",
								"offset": 1,
								"slot": "12",
								"type": "t_bool"
							}
						],
						"numberOfBytes": "416"
					},
					"t_struct(SetInfo)346_storage": {
						"encoding": "inplace",
						"label": "struct Setting.SetInfo",
						"members": [
							{
								"astId": 341,
								"contract": ".workspaces/default_workspace/unMiracle/UMRproposal.sol:UMRproposal",
								"label": "deadline",
								"offset": 0,
								"slot": "0",
								"type": "t_uint256"
							},
							{
								"astId": 343,
								"contract": ".workspaces/default_workspace/unMiracle/UMRproposal.sol:UMRproposal",
								"label": "amount",
								"offset": 0,
								"slot": "1",
								"type": "t_uint256"
							},
							{
								"astId": 345,
								"contract": ".workspaces/default_workspace/unMiracle/UMRproposal.sol:UMRproposal",
								"label": "currentAmount",
								"offset": 0,
								"slot": "2",
								"type": "t_uint256"
							}
						],
						"numberOfBytes": "96"
					},
					"t_uint256": {
						"encoding": "inplace",
						"label": "uint256",
						"numberOfBytes": "32"
					}
				}
			},
			"userdoc": {
				"kind": "user",
				"methods": {},
				"version": 1
			}
		}
	}
}