{
	".workspaces/default_workspace/unMiracle/test.sol": {
		"test": {
			"abi": [
				{
					"inputs": [
						{
							"internalType": "bytes",
							"name": "data",
							"type": "bytes"
						}
					],
					"name": "abiDecode",
					"outputs": [
						{
							"internalType": "uint256",
							"name": "_str1",
							"type": "uint256"
						},
						{
							"internalType": "uint256",
							"name": "_number",
							"type": "uint256"
						},
						{
							"internalType": "uint256",
							"name": "_str2",
							"type": "uint256"
						}
					],
					"stateMutability": "nonpayable",
					"type": "function"
				},
				{
					"inputs": [],
					"name": "abiEncode",
					"outputs": [
						{
							"internalType": "bytes",
							"name": "",
							"type": "bytes"
						}
					],
					"stateMutability": "nonpayable",
					"type": "function"
				},
				{
					"inputs": [],
					"name": "deadline",
					"outputs": [
						{
							"internalType": "uint64",
							"name": "",
							"type": "uint64"
						}
					],
					"stateMutability": "view",
					"type": "function"
				},
				{
					"inputs": [],
					"name": "keccak256test",
					"outputs": [
						{
							"internalType": "bytes",
							"name": "",
							"type": "bytes"
						}
					],
					"stateMutability": "nonpayable",
					"type": "function"
				},
				{
					"inputs": [],
					"name": "name",
					"outputs": [
						{
							"internalType": "string",
							"name": "",
							"type": "string"
						}
					],
					"stateMutability": "nonpayable",
					"type": "function"
				},
				{
					"inputs": [],
					"name": "snapshot",
					"outputs": [
						{
							"internalType": "uint64",
							"name": "",
							"type": "uint64"
						}
					],
					"stateMutability": "view",
					"type": "function"
				},
				{
					"inputs": [],
					"name": "time",
					"outputs": [
						{
							"internalType": "uint256",
							"name": "",
							"type": "uint256"
						}
					],
					"stateMutability": "nonpayable",
					"type": "function"
				},
				{
					"inputs": [],
					"name": "votingDelay",
					"outputs": [
						{
							"internalType": "uint256",
							"name": "",
							"type": "uint256"
						}
					],
					"stateMutability": "pure",
					"type": "function"
				},
				{
					"inputs": [],
					"name": "votingPeriod",
					"outputs": [
						{
							"internalType": "uint256",
							"name": "",
							"type": "uint256"
						}
					],
					"stateMutability": "pure",
					"type": "function"
				}
			],
			"devdoc": {
				"kind": "dev",
				"methods": {},
				"version": 1
			},
			"evm": {
				"assembly": "    /* \".workspaces/default_workspace/unMiracle/test.sol\":167:1784  contract test {... */\n  mstore(0x40, 0x80)\n  callvalue\n  dup1\n  iszero\n  tag_1\n  jumpi\n  0x00\n  dup1\n  revert\ntag_1:\n  pop\n  dataSize(sub_0)\n  dup1\n  dataOffset(sub_0)\n  0x00\n  codecopy\n  0x00\n  return\nstop\n\nsub_0: assembly {\n        /* \".workspaces/default_workspace/unMiracle/test.sol\":167:1784  contract test {... */\n      mstore(0x40, 0x80)\n      callvalue\n      dup1\n      iszero\n      tag_1\n      jumpi\n      0x00\n      dup1\n      revert\n    tag_1:\n      pop\n      jumpi(tag_2, lt(calldatasize, 0x04))\n      shr(0xe0, calldataload(0x00))\n      dup1\n      0x3932abb1\n      gt\n      tag_12\n      jumpi\n      dup1\n      0x3932abb1\n      eq\n      tag_7\n      jumpi\n      dup1\n      0x416bdc52\n      eq\n      tag_8\n      jumpi\n      dup1\n      0x6097e7a3\n      eq\n      tag_9\n      jumpi\n      dup1\n      0x8c492a76\n      eq\n      tag_10\n      jumpi\n      dup1\n      0x9711715a\n      eq\n      tag_11\n      jumpi\n      jump(tag_2)\n    tag_12:\n      dup1\n      0x02a251a3\n      eq\n      tag_3\n      jumpi\n      dup1\n      0x06fdde03\n      eq\n      tag_4\n      jumpi\n      dup1\n      0x16ada547\n      eq\n      tag_5\n      jumpi\n      dup1\n      0x29dcb0cf\n      eq\n      tag_6\n      jumpi\n    tag_2:\n      0x00\n      dup1\n      revert\n        /* \".workspaces/default_workspace/unMiracle/test.sol\":1312:1403  function votingPeriod() public pure returns(uint256) {... */\n    tag_3:\n      tag_13\n      tag_14\n      jump\t// in\n    tag_13:\n      mload(0x40)\n      tag_15\n      swap2\n      swap1\n      tag_16\n      jump\t// in\n    tag_15:\n      mload(0x40)\n      dup1\n      swap2\n      sub\n      swap1\n      return\n        /* \".workspaces/default_workspace/unMiracle/test.sol\":409:489  function name() public returns(string memory) {... */\n    tag_4:\n      tag_17\n      tag_18\n      jump\t// in\n    tag_17:\n      mload(0x40)\n      tag_19\n      swap2\n      swap1\n      tag_20\n      jump\t// in\n    tag_19:\n      mload(0x40)\n      dup1\n      swap2\n      sub\n      swap1\n      return\n        /* \".workspaces/default_workspace/unMiracle/test.sol\":301:403  function time() public returns(uint){... */\n    tag_5:\n      tag_21\n      tag_22\n      jump\t// in\n    tag_21:\n      mload(0x40)\n      tag_23\n      swap2\n      swap1\n      tag_16\n      jump\t// in\n    tag_23:\n      mload(0x40)\n      dup1\n      swap2\n      sub\n      swap1\n      return\n        /* \".workspaces/default_workspace/unMiracle/test.sol\":1568:1782  function deadline() public view returns(uint64) {... */\n    tag_6:\n      tag_24\n      tag_25\n      jump\t// in\n    tag_24:\n      mload(0x40)\n      tag_26\n      swap2\n      swap1\n      tag_27\n      jump\t// in\n    tag_26:\n      mload(0x40)\n      dup1\n      swap2\n      sub\n      swap1\n      return\n        /* \".workspaces/default_workspace/unMiracle/test.sol\":1229:1306  function votingDelay() public pure returns(uint256) {... */\n    tag_7:\n      tag_28\n      tag_29\n      jump\t// in\n    tag_28:\n      mload(0x40)\n      tag_30\n      swap2\n      swap1\n      tag_16\n      jump\t// in\n    tag_30:\n      mload(0x40)\n      dup1\n      swap2\n      sub\n      swap1\n      return\n        /* \".workspaces/default_workspace/unMiracle/test.sol\":1040:1222  function abiDecode(bytes memory data) public returns(uint _str1, uint _number, uint _str2) {... */\n    tag_8:\n      tag_31\n      0x04\n      dup1\n      calldatasize\n      sub\n      dup2\n      add\n      swap1\n      tag_32\n      swap2\n      swap1\n      tag_33\n      jump\t// in\n    tag_32:\n      tag_34\n      jump\t// in\n    tag_31:\n      mload(0x40)\n      tag_35\n      swap4\n      swap3\n      swap2\n      swap1\n      tag_36\n      jump\t// in\n    tag_35:\n      mload(0x40)\n      dup1\n      swap2\n      sub\n      swap1\n      return\n        /* \".workspaces/default_workspace/unMiracle/test.sol\":937:1035  function abiEncode() public returns(bytes memory) {... */\n    tag_9:\n      tag_37\n      tag_38\n      jump\t// in\n    tag_37:\n      mload(0x40)\n      tag_39\n      swap2\n      swap1\n      tag_40\n      jump\t// in\n    tag_39:\n      mload(0x40)\n      dup1\n      swap2\n      sub\n      swap1\n      return\n        /* \".workspaces/default_workspace/unMiracle/test.sol\":667:931  function keccak256test() public returns(bytes memory) {... */\n    tag_10:\n      tag_41\n      tag_42\n      jump\t// in\n    tag_41:\n      mload(0x40)\n      tag_43\n      swap2\n      swap1\n      tag_40\n      jump\t// in\n    tag_43:\n      mload(0x40)\n      dup1\n      swap2\n      sub\n      swap1\n      return\n        /* \".workspaces/default_workspace/unMiracle/test.sol\":1409:1562  function snapshot() public view returns(uint64) {... */\n    tag_11:\n      tag_44\n      tag_45\n      jump\t// in\n    tag_44:\n      mload(0x40)\n      tag_46\n      swap2\n      swap1\n      tag_27\n      jump\t// in\n    tag_46:\n      mload(0x40)\n      dup1\n      swap2\n      sub\n      swap1\n      return\n        /* \".workspaces/default_workspace/unMiracle/test.sol\":1312:1403  function votingPeriod() public pure returns(uint256) {... */\n    tag_14:\n        /* \".workspaces/default_workspace/unMiracle/test.sol\":1356:1363  uint256 */\n      0x00\n        /* \".workspaces/default_workspace/unMiracle/test.sol\":1382:1387  45818 */\n      0xb2fa\n        /* \".workspaces/default_workspace/unMiracle/test.sol\":1375:1387  return 45818 */\n      swap1\n      pop\n        /* \".workspaces/default_workspace/unMiracle/test.sol\":1312:1403  function votingPeriod() public pure returns(uint256) {... */\n      swap1\n      jump\t// out\n        /* \".workspaces/default_workspace/unMiracle/test.sol\":409:489  function name() public returns(string memory) {... */\n    tag_18:\n        /* \".workspaces/default_workspace/unMiracle/test.sol\":440:453  string memory */\n      0x60\n        /* \".workspaces/default_workspace/unMiracle/test.sol\":465:482  return 'wonhyeok' */\n      mload(0x40)\n      dup1\n      0x40\n      add\n      0x40\n      mstore\n      dup1\n      0x08\n      dup2\n      mstore\n      0x20\n      add\n      0x776f6e6879656f6b000000000000000000000000000000000000000000000000\n      dup2\n      mstore\n      pop\n      swap1\n      pop\n        /* \".workspaces/default_workspace/unMiracle/test.sol\":409:489  function name() public returns(string memory) {... */\n      swap1\n      jump\t// out\n        /* \".workspaces/default_workspace/unMiracle/test.sol\":301:403  function time() public returns(uint){... */\n    tag_22:\n        /* \".workspaces/default_workspace/unMiracle/test.sol\":332:336  uint */\n      0x00\n        /* \".workspaces/default_workspace/unMiracle/test.sol\":347:354  uint re */\n      dup1\n        /* \".workspaces/default_workspace/unMiracle/test.sol\":373:377  1000 */\n      0x03e8\n        /* \".workspaces/default_workspace/unMiracle/test.sol\":357:372  block.timestamp */\n      timestamp\n        /* \".workspaces/default_workspace/unMiracle/test.sol\":357:377  block.timestamp*1000 */\n      tag_50\n      swap2\n      swap1\n      tag_51\n      jump\t// in\n    tag_50:\n        /* \".workspaces/default_workspace/unMiracle/test.sol\":347:377  uint re = block.timestamp*1000 */\n      swap1\n      pop\n        /* \".workspaces/default_workspace/unMiracle/test.sol\":394:396  re */\n      dup1\n        /* \".workspaces/default_workspace/unMiracle/test.sol\":387:396  return re */\n      swap2\n      pop\n      pop\n        /* \".workspaces/default_workspace/unMiracle/test.sol\":301:403  function time() public returns(uint){... */\n      swap1\n      jump\t// out\n        /* \".workspaces/default_workspace/unMiracle/test.sol\":1568:1782  function deadline() public view returns(uint64) {... */\n    tag_25:\n        /* \".workspaces/default_workspace/unMiracle/test.sol\":1608:1614  uint64 */\n      0x00\n        /* \".workspaces/default_workspace/unMiracle/test.sol\":1626:1641  uint64 snapshot */\n      dup1\n        /* \".workspaces/default_workspace/unMiracle/test.sol\":1674:1687  votingDelay() */\n      tag_53\n        /* \".workspaces/default_workspace/unMiracle/test.sol\":1674:1685  votingDelay */\n      tag_29\n        /* \".workspaces/default_workspace/unMiracle/test.sol\":1674:1687  votingDelay() */\n      jump\t// in\n    tag_53:\n        /* \".workspaces/default_workspace/unMiracle/test.sol\":1651:1663  block.number */\n      number\n        /* \".workspaces/default_workspace/unMiracle/test.sol\":1644:1688  uint64(block.number) + uint64(votingDelay()) */\n      tag_54\n      swap2\n      swap1\n      tag_55\n      jump\t// in\n    tag_54:\n        /* \".workspaces/default_workspace/unMiracle/test.sol\":1626:1688  uint64 snapshot = uint64(block.number) + uint64(votingDelay()) */\n      swap1\n      pop\n        /* \".workspaces/default_workspace/unMiracle/test.sol\":1698:1713  uint64 deadline */\n      0x00\n        /* \".workspaces/default_workspace/unMiracle/test.sol\":1734:1748  votingPeriod() */\n      tag_56\n        /* \".workspaces/default_workspace/unMiracle/test.sol\":1734:1746  votingPeriod */\n      tag_14\n        /* \".workspaces/default_workspace/unMiracle/test.sol\":1734:1748  votingPeriod() */\n      jump\t// in\n    tag_56:\n        /* \".workspaces/default_workspace/unMiracle/test.sol\":1716:1724  snapshot */\n      dup3\n        /* \".workspaces/default_workspace/unMiracle/test.sol\":1716:1749  snapshot + uint64(votingPeriod()) */\n      tag_57\n      swap2\n      swap1\n      tag_55\n      jump\t// in\n    tag_57:\n        /* \".workspaces/default_workspace/unMiracle/test.sol\":1698:1749  uint64 deadline = snapshot + uint64(votingPeriod()) */\n      swap1\n      pop\n        /* \".workspaces/default_workspace/unMiracle/test.sol\":1767:1775  deadline */\n      dup1\n        /* \".workspaces/default_workspace/unMiracle/test.sol\":1760:1775  return deadline */\n      swap3\n      pop\n      pop\n      pop\n        /* \".workspaces/default_workspace/unMiracle/test.sol\":1568:1782  function deadline() public view returns(uint64) {... */\n      swap1\n      jump\t// out\n        /* \".workspaces/default_workspace/unMiracle/test.sol\":1229:1306  function votingDelay() public pure returns(uint256) {... */\n    tag_29:\n        /* \".workspaces/default_workspace/unMiracle/test.sol\":1272:1279  uint256 */\n      0x00\n        /* \".workspaces/default_workspace/unMiracle/test.sol\":1298:1299  1 */\n      0x01\n        /* \".workspaces/default_workspace/unMiracle/test.sol\":1291:1299  return 1 */\n      swap1\n      pop\n        /* \".workspaces/default_workspace/unMiracle/test.sol\":1229:1306  function votingDelay() public pure returns(uint256) {... */\n      swap1\n      jump\t// out\n        /* \".workspaces/default_workspace/unMiracle/test.sol\":1040:1222  function abiDecode(bytes memory data) public returns(uint _str1, uint _number, uint _str2) {... */\n    tag_34:\n        /* \".workspaces/default_workspace/unMiracle/test.sol\":1093:1103  uint _str1 */\n      0x00\n        /* \".workspaces/default_workspace/unMiracle/test.sol\":1105:1117  uint _number */\n      dup1\n        /* \".workspaces/default_workspace/unMiracle/test.sol\":1119:1129  uint _str2 */\n      0x00\n        /* \".workspaces/default_workspace/unMiracle/test.sol\":1178:1182  data */\n      dup4\n        /* \".workspaces/default_workspace/unMiracle/test.sol\":1167:1203  abi.decode(data, (uint, uint, uint)) */\n      dup1\n      0x20\n      add\n      swap1\n      mload\n      dup2\n      add\n      swap1\n      tag_60\n      swap2\n      swap1\n      tag_61\n      jump\t// in\n    tag_60:\n        /* \".workspaces/default_workspace/unMiracle/test.sol\":1141:1203  (_str1, _number, _str2) = abi.decode(data, (uint, uint, uint)) */\n      dup1\n      swap4\n      pop\n      dup2\n      swap5\n      pop\n      dup3\n      swap6\n      pop\n      pop\n      pop\n      pop\n        /* \".workspaces/default_workspace/unMiracle/test.sol\":1040:1222  function abiDecode(bytes memory data) public returns(uint _str1, uint _number, uint _str2) {... */\n      swap2\n      swap4\n      swap1\n      swap3\n      pop\n      jump\t// out\n        /* \".workspaces/default_workspace/unMiracle/test.sol\":937:1035  function abiEncode() public returns(bytes memory) {... */\n    tag_38:\n        /* \".workspaces/default_workspace/unMiracle/test.sol\":973:985  bytes memory */\n      0x60\n        /* \".workspaces/default_workspace/unMiracle/test.sol\":1015:1016  1 */\n      0x01\n        /* \".workspaces/default_workspace/unMiracle/test.sol\":1017:1022  45804 */\n      0xb2ec\n        /* \".workspaces/default_workspace/unMiracle/test.sol\":1023:1027  5000 */\n      0x1388\n        /* \".workspaces/default_workspace/unMiracle/test.sol\":1004:1028  abi.encode(1,45804,5000) */\n      add(0x20, mload(0x40))\n      tag_63\n      swap4\n      swap3\n      swap2\n      swap1\n      tag_64\n      jump\t// in\n    tag_63:\n      mload(0x40)\n      0x20\n      dup2\n      dup4\n      sub\n      sub\n      dup2\n      mstore\n      swap1\n      0x40\n      mstore\n        /* \".workspaces/default_workspace/unMiracle/test.sol\":997:1028  return abi.encode(1,45804,5000) */\n      swap1\n      pop\n        /* \".workspaces/default_workspace/unMiracle/test.sol\":937:1035  function abiEncode() public returns(bytes memory) {... */\n      swap1\n      jump\t// out\n        /* \".workspaces/default_workspace/unMiracle/test.sol\":667:931  function keccak256test() public returns(bytes memory) {... */\n    tag_42:\n        /* \".workspaces/default_workspace/unMiracle/test.sol\":707:719  bytes memory */\n      0x60\n        /* \".workspaces/default_workspace/unMiracle/test.sol\":911:912  1 */\n      0x01\n        /* \".workspaces/default_workspace/unMiracle/test.sol\":913:918  45804 */\n      0xb2ec\n        /* \".workspaces/default_workspace/unMiracle/test.sol\":919:923  5000 */\n      0x1388\n        /* \".workspaces/default_workspace/unMiracle/test.sol\":900:924  abi.encode(1,45804,5000) */\n      add(0x20, mload(0x40))\n      tag_66\n      swap4\n      swap3\n      swap2\n      swap1\n      tag_64\n      jump\t// in\n    tag_66:\n      mload(0x40)\n      0x20\n      dup2\n      dup4\n      sub\n      sub\n      dup2\n      mstore\n      swap1\n      0x40\n      mstore\n        /* \".workspaces/default_workspace/unMiracle/test.sol\":892:924  return  abi.encode(1,45804,5000) */\n      swap1\n      pop\n        /* \".workspaces/default_workspace/unMiracle/test.sol\":667:931  function keccak256test() public returns(bytes memory) {... */\n      swap1\n      jump\t// out\n        /* \".workspaces/default_workspace/unMiracle/test.sol\":1409:1562  function snapshot() public view returns(uint64) {... */\n    tag_45:\n        /* \".workspaces/default_workspace/unMiracle/test.sol\":1449:1455  uint64 */\n      0x00\n        /* \".workspaces/default_workspace/unMiracle/test.sol\":1467:1482  uint64 snapshot */\n      dup1\n        /* \".workspaces/default_workspace/unMiracle/test.sol\":1515:1528  votingDelay() */\n      tag_68\n        /* \".workspaces/default_workspace/unMiracle/test.sol\":1515:1526  votingDelay */\n      tag_29\n        /* \".workspaces/default_workspace/unMiracle/test.sol\":1515:1528  votingDelay() */\n      jump\t// in\n    tag_68:\n        /* \".workspaces/default_workspace/unMiracle/test.sol\":1492:1504  block.number */\n      number\n        /* \".workspaces/default_workspace/unMiracle/test.sol\":1485:1529  uint64(block.number) + uint64(votingDelay()) */\n      tag_69\n      swap2\n      swap1\n      tag_55\n      jump\t// in\n    tag_69:\n        /* \".workspaces/default_workspace/unMiracle/test.sol\":1467:1529  uint64 snapshot = uint64(block.number) + uint64(votingDelay()) */\n      swap1\n      pop\n        /* \".workspaces/default_workspace/unMiracle/test.sol\":1547:1555  snapshot */\n      dup1\n        /* \".workspaces/default_workspace/unMiracle/test.sol\":1540:1555  return snapshot */\n      swap2\n      pop\n      pop\n        /* \".workspaces/default_workspace/unMiracle/test.sol\":1409:1562  function snapshot() public view returns(uint64) {... */\n      swap1\n      jump\t// out\n        /* \"#utility.yul\":7:84   */\n    tag_70:\n        /* \"#utility.yul\":44:51   */\n      0x00\n        /* \"#utility.yul\":73:78   */\n      dup2\n        /* \"#utility.yul\":62:78   */\n      swap1\n      pop\n        /* \"#utility.yul\":7:84   */\n      swap2\n      swap1\n      pop\n      jump\t// out\n        /* \"#utility.yul\":90:208   */\n    tag_71:\n        /* \"#utility.yul\":177:201   */\n      tag_112\n        /* \"#utility.yul\":195:200   */\n      dup2\n        /* \"#utility.yul\":177:201   */\n      tag_70\n      jump\t// in\n    tag_112:\n        /* \"#utility.yul\":172:175   */\n      dup3\n        /* \"#utility.yul\":165:202   */\n      mstore\n        /* \"#utility.yul\":90:208   */\n      pop\n      pop\n      jump\t// out\n        /* \"#utility.yul\":214:436   */\n    tag_16:\n        /* \"#utility.yul\":307:311   */\n      0x00\n        /* \"#utility.yul\":345:347   */\n      0x20\n        /* \"#utility.yul\":334:343   */\n      dup3\n        /* \"#utility.yul\":330:348   */\n      add\n        /* \"#utility.yul\":322:348   */\n      swap1\n      pop\n        /* \"#utility.yul\":358:429   */\n      tag_114\n        /* \"#utility.yul\":426:427   */\n      0x00\n        /* \"#utility.yul\":415:424   */\n      dup4\n        /* \"#utility.yul\":411:428   */\n      add\n        /* \"#utility.yul\":402:408   */\n      dup5\n        /* \"#utility.yul\":358:429   */\n      tag_71\n      jump\t// in\n    tag_114:\n        /* \"#utility.yul\":214:436   */\n      swap3\n      swap2\n      pop\n      pop\n      jump\t// out\n        /* \"#utility.yul\":442:541   */\n    tag_72:\n        /* \"#utility.yul\":494:500   */\n      0x00\n        /* \"#utility.yul\":528:533   */\n      dup2\n        /* \"#utility.yul\":522:534   */\n      mload\n        /* \"#utility.yul\":512:534   */\n      swap1\n      pop\n        /* \"#utility.yul\":442:541   */\n      swap2\n      swap1\n      pop\n      jump\t// out\n        /* \"#utility.yul\":547:716   */\n    tag_73:\n        /* \"#utility.yul\":631:642   */\n      0x00\n        /* \"#utility.yul\":665:671   */\n      dup3\n        /* \"#utility.yul\":660:663   */\n      dup3\n        /* \"#utility.yul\":653:672   */\n      mstore\n        /* \"#utility.yul\":705:709   */\n      0x20\n        /* \"#utility.yul\":700:703   */\n      dup3\n        /* \"#utility.yul\":696:710   */\n      add\n        /* \"#utility.yul\":681:710   */\n      swap1\n      pop\n        /* \"#utility.yul\":547:716   */\n      swap3\n      swap2\n      pop\n      pop\n      jump\t// out\n        /* \"#utility.yul\":722:1029   */\n    tag_74:\n        /* \"#utility.yul\":790:791   */\n      0x00\n        /* \"#utility.yul\":800:913   */\n    tag_118:\n        /* \"#utility.yul\":814:820   */\n      dup4\n        /* \"#utility.yul\":811:812   */\n      dup2\n        /* \"#utility.yul\":808:821   */\n      lt\n        /* \"#utility.yul\":800:913   */\n      iszero\n      tag_120\n      jumpi\n        /* \"#utility.yul\":899:900   */\n      dup1\n        /* \"#utility.yul\":894:897   */\n      dup3\n        /* \"#utility.yul\":890:901   */\n      add\n        /* \"#utility.yul\":884:902   */\n      mload\n        /* \"#utility.yul\":880:881   */\n      dup2\n        /* \"#utility.yul\":875:878   */\n      dup5\n        /* \"#utility.yul\":871:882   */\n      add\n        /* \"#utility.yul\":864:903   */\n      mstore\n        /* \"#utility.yul\":836:838   */\n      0x20\n        /* \"#utility.yul\":833:834   */\n      dup2\n        /* \"#utility.yul\":829:839   */\n      add\n        /* \"#utility.yul\":824:839   */\n      swap1\n      pop\n        /* \"#utility.yul\":800:913   */\n      jump(tag_118)\n    tag_120:\n        /* \"#utility.yul\":931:937   */\n      dup4\n        /* \"#utility.yul\":928:929   */\n      dup2\n        /* \"#utility.yul\":925:938   */\n      gt\n        /* \"#utility.yul\":922:1023   */\n      iszero\n      tag_121\n      jumpi\n        /* \"#utility.yul\":1011:1012   */\n      0x00\n        /* \"#utility.yul\":1002:1008   */\n      dup5\n        /* \"#utility.yul\":997:1000   */\n      dup5\n        /* \"#utility.yul\":993:1009   */\n      add\n        /* \"#utility.yul\":986:1013   */\n      mstore\n        /* \"#utility.yul\":922:1023   */\n    tag_121:\n        /* \"#utility.yul\":771:1029   */\n      pop\n        /* \"#utility.yul\":722:1029   */\n      pop\n      pop\n      pop\n      jump\t// out\n        /* \"#utility.yul\":1035:1137   */\n    tag_75:\n        /* \"#utility.yul\":1076:1082   */\n      0x00\n        /* \"#utility.yul\":1127:1129   */\n      0x1f\n        /* \"#utility.yul\":1123:1130   */\n      not\n        /* \"#utility.yul\":1118:1120   */\n      0x1f\n        /* \"#utility.yul\":1111:1116   */\n      dup4\n        /* \"#utility.yul\":1107:1121   */\n      add\n        /* \"#utility.yul\":1103:1131   */\n      and\n        /* \"#utility.yul\":1093:1131   */\n      swap1\n      pop\n        /* \"#utility.yul\":1035:1137   */\n      swap2\n      swap1\n      pop\n      jump\t// out\n        /* \"#utility.yul\":1143:1507   */\n    tag_76:\n        /* \"#utility.yul\":1231:1234   */\n      0x00\n        /* \"#utility.yul\":1259:1298   */\n      tag_124\n        /* \"#utility.yul\":1292:1297   */\n      dup3\n        /* \"#utility.yul\":1259:1298   */\n      tag_72\n      jump\t// in\n    tag_124:\n        /* \"#utility.yul\":1314:1385   */\n      tag_125\n        /* \"#utility.yul\":1378:1384   */\n      dup2\n        /* \"#utility.yul\":1373:1376   */\n      dup6\n        /* \"#utility.yul\":1314:1385   */\n      tag_73\n      jump\t// in\n    tag_125:\n        /* \"#utility.yul\":1307:1385   */\n      swap4\n      pop\n        /* \"#utility.yul\":1394:1446   */\n      tag_126\n        /* \"#utility.yul\":1439:1445   */\n      dup2\n        /* \"#utility.yul\":1434:1437   */\n      dup6\n        /* \"#utility.yul\":1427:1431   */\n      0x20\n        /* \"#utility.yul\":1420:1425   */\n      dup7\n        /* \"#utility.yul\":1416:1432   */\n      add\n        /* \"#utility.yul\":1394:1446   */\n      tag_74\n      jump\t// in\n    tag_126:\n        /* \"#utility.yul\":1471:1500   */\n      tag_127\n        /* \"#utility.yul\":1493:1499   */\n      dup2\n        /* \"#utility.yul\":1471:1500   */\n      tag_75\n      jump\t// in\n    tag_127:\n        /* \"#utility.yul\":1466:1469   */\n      dup5\n        /* \"#utility.yul\":1462:1501   */\n      add\n        /* \"#utility.yul\":1455:1501   */\n      swap2\n      pop\n        /* \"#utility.yul\":1235:1507   */\n      pop\n        /* \"#utility.yul\":1143:1507   */\n      swap3\n      swap2\n      pop\n      pop\n      jump\t// out\n        /* \"#utility.yul\":1513:1826   */\n    tag_20:\n        /* \"#utility.yul\":1626:1630   */\n      0x00\n        /* \"#utility.yul\":1664:1666   */\n      0x20\n        /* \"#utility.yul\":1653:1662   */\n      dup3\n        /* \"#utility.yul\":1649:1667   */\n      add\n        /* \"#utility.yul\":1641:1667   */\n      swap1\n      pop\n        /* \"#utility.yul\":1713:1722   */\n      dup2\n        /* \"#utility.yul\":1707:1711   */\n      dup2\n        /* \"#utility.yul\":1703:1723   */\n      sub\n        /* \"#utility.yul\":1699:1700   */\n      0x00\n        /* \"#utility.yul\":1688:1697   */\n      dup4\n        /* \"#utility.yul\":1684:1701   */\n      add\n        /* \"#utility.yul\":1677:1724   */\n      mstore\n        /* \"#utility.yul\":1741:1819   */\n      tag_129\n        /* \"#utility.yul\":1814:1818   */\n      dup2\n        /* \"#utility.yul\":1805:1811   */\n      dup5\n        /* \"#utility.yul\":1741:1819   */\n      tag_76\n      jump\t// in\n    tag_129:\n        /* \"#utility.yul\":1733:1819   */\n      swap1\n      pop\n        /* \"#utility.yul\":1513:1826   */\n      swap3\n      swap2\n      pop\n      pop\n      jump\t// out\n        /* \"#utility.yul\":1832:1933   */\n    tag_77:\n        /* \"#utility.yul\":1868:1875   */\n      0x00\n        /* \"#utility.yul\":1908:1926   */\n      0xffffffffffffffff\n        /* \"#utility.yul\":1901:1906   */\n      dup3\n        /* \"#utility.yul\":1897:1927   */\n      and\n        /* \"#utility.yul\":1886:1927   */\n      swap1\n      pop\n        /* \"#utility.yul\":1832:1933   */\n      swap2\n      swap1\n      pop\n      jump\t// out\n        /* \"#utility.yul\":1939:2054   */\n    tag_78:\n        /* \"#utility.yul\":2024:2047   */\n      tag_132\n        /* \"#utility.yul\":2041:2046   */\n      dup2\n        /* \"#utility.yul\":2024:2047   */\n      tag_77\n      jump\t// in\n    tag_132:\n        /* \"#utility.yul\":2019:2022   */\n      dup3\n        /* \"#utility.yul\":2012:2048   */\n      mstore\n        /* \"#utility.yul\":1939:2054   */\n      pop\n      pop\n      jump\t// out\n        /* \"#utility.yul\":2060:2278   */\n    tag_27:\n        /* \"#utility.yul\":2151:2155   */\n      0x00\n        /* \"#utility.yul\":2189:2191   */\n      0x20\n        /* \"#utility.yul\":2178:2187   */\n      dup3\n        /* \"#utility.yul\":2174:2192   */\n      add\n        /* \"#utility.yul\":2166:2192   */\n      swap1\n      pop\n        /* \"#utility.yul\":2202:2271   */\n      tag_134\n        /* \"#utility.yul\":2268:2269   */\n      0x00\n        /* \"#utility.yul\":2257:2266   */\n      dup4\n        /* \"#utility.yul\":2253:2270   */\n      add\n        /* \"#utility.yul\":2244:2250   */\n      dup5\n        /* \"#utility.yul\":2202:2271   */\n      tag_78\n      jump\t// in\n    tag_134:\n        /* \"#utility.yul\":2060:2278   */\n      swap3\n      swap2\n      pop\n      pop\n      jump\t// out\n        /* \"#utility.yul\":2284:2359   */\n    tag_79:\n        /* \"#utility.yul\":2317:2323   */\n      0x00\n        /* \"#utility.yul\":2350:2352   */\n      0x40\n        /* \"#utility.yul\":2344:2353   */\n      mload\n        /* \"#utility.yul\":2334:2353   */\n      swap1\n      pop\n        /* \"#utility.yul\":2284:2359   */\n      swap1\n      jump\t// out\n        /* \"#utility.yul\":2365:2482   */\n    tag_80:\n        /* \"#utility.yul\":2474:2475   */\n      0x00\n        /* \"#utility.yul\":2471:2472   */\n      dup1\n        /* \"#utility.yul\":2464:2476   */\n      revert\n        /* \"#utility.yul\":2488:2605   */\n    tag_81:\n        /* \"#utility.yul\":2597:2598   */\n      0x00\n        /* \"#utility.yul\":2594:2595   */\n      dup1\n        /* \"#utility.yul\":2587:2599   */\n      revert\n        /* \"#utility.yul\":2611:2728   */\n    tag_82:\n        /* \"#utility.yul\":2720:2721   */\n      0x00\n        /* \"#utility.yul\":2717:2718   */\n      dup1\n        /* \"#utility.yul\":2710:2722   */\n      revert\n        /* \"#utility.yul\":2734:2851   */\n    tag_83:\n        /* \"#utility.yul\":2843:2844   */\n      0x00\n        /* \"#utility.yul\":2840:2841   */\n      dup1\n        /* \"#utility.yul\":2833:2845   */\n      revert\n        /* \"#utility.yul\":2857:3037   */\n    tag_84:\n        /* \"#utility.yul\":2905:2982   */\n      0x4e487b7100000000000000000000000000000000000000000000000000000000\n        /* \"#utility.yul\":2902:2903   */\n      0x00\n        /* \"#utility.yul\":2895:2983   */\n      mstore\n        /* \"#utility.yul\":3002:3006   */\n      0x41\n        /* \"#utility.yul\":2999:3000   */\n      0x04\n        /* \"#utility.yul\":2992:3007   */\n      mstore\n        /* \"#utility.yul\":3026:3030   */\n      0x24\n        /* \"#utility.yul\":3023:3024   */\n      0x00\n        /* \"#utility.yul\":3016:3031   */\n      revert\n        /* \"#utility.yul\":3043:3324   */\n    tag_85:\n        /* \"#utility.yul\":3126:3153   */\n      tag_142\n        /* \"#utility.yul\":3148:3152   */\n      dup3\n        /* \"#utility.yul\":3126:3153   */\n      tag_75\n      jump\t// in\n    tag_142:\n        /* \"#utility.yul\":3118:3124   */\n      dup2\n        /* \"#utility.yul\":3114:3154   */\n      add\n        /* \"#utility.yul\":3256:3262   */\n      dup2\n        /* \"#utility.yul\":3244:3254   */\n      dup2\n        /* \"#utility.yul\":3241:3263   */\n      lt\n        /* \"#utility.yul\":3220:3238   */\n      0xffffffffffffffff\n        /* \"#utility.yul\":3208:3218   */\n      dup3\n        /* \"#utility.yul\":3205:3239   */\n      gt\n        /* \"#utility.yul\":3202:3264   */\n      or\n        /* \"#utility.yul\":3199:3287   */\n      iszero\n      tag_143\n      jumpi\n        /* \"#utility.yul\":3267:3285   */\n      tag_144\n      tag_84\n      jump\t// in\n    tag_144:\n        /* \"#utility.yul\":3199:3287   */\n    tag_143:\n        /* \"#utility.yul\":3307:3317   */\n      dup1\n        /* \"#utility.yul\":3303:3305   */\n      0x40\n        /* \"#utility.yul\":3296:3318   */\n      mstore\n        /* \"#utility.yul\":3086:3324   */\n      pop\n        /* \"#utility.yul\":3043:3324   */\n      pop\n      pop\n      jump\t// out\n        /* \"#utility.yul\":3330:3459   */\n    tag_86:\n        /* \"#utility.yul\":3364:3370   */\n      0x00\n        /* \"#utility.yul\":3391:3411   */\n      tag_146\n      tag_79\n      jump\t// in\n    tag_146:\n        /* \"#utility.yul\":3381:3411   */\n      swap1\n      pop\n        /* \"#utility.yul\":3420:3453   */\n      tag_147\n        /* \"#utility.yul\":3448:3452   */\n      dup3\n        /* \"#utility.yul\":3440:3446   */\n      dup3\n        /* \"#utility.yul\":3420:3453   */\n      tag_85\n      jump\t// in\n    tag_147:\n        /* \"#utility.yul\":3330:3459   */\n      swap2\n      swap1\n      pop\n      jump\t// out\n        /* \"#utility.yul\":3465:3772   */\n    tag_87:\n        /* \"#utility.yul\":3526:3530   */\n      0x00\n        /* \"#utility.yul\":3616:3634   */\n      0xffffffffffffffff\n        /* \"#utility.yul\":3608:3614   */\n      dup3\n        /* \"#utility.yul\":3605:3635   */\n      gt\n        /* \"#utility.yul\":3602:3658   */\n      iszero\n      tag_149\n      jumpi\n        /* \"#utility.yul\":3638:3656   */\n      tag_150\n      tag_84\n      jump\t// in\n    tag_150:\n        /* \"#utility.yul\":3602:3658   */\n    tag_149:\n        /* \"#utility.yul\":3676:3705   */\n      tag_151\n        /* \"#utility.yul\":3698:3704   */\n      dup3\n        /* \"#utility.yul\":3676:3705   */\n      tag_75\n      jump\t// in\n    tag_151:\n        /* \"#utility.yul\":3668:3705   */\n      swap1\n      pop\n        /* \"#utility.yul\":3760:3764   */\n      0x20\n        /* \"#utility.yul\":3754:3758   */\n      dup2\n        /* \"#utility.yul\":3750:3765   */\n      add\n        /* \"#utility.yul\":3742:3765   */\n      swap1\n      pop\n        /* \"#utility.yul\":3465:3772   */\n      swap2\n      swap1\n      pop\n      jump\t// out\n        /* \"#utility.yul\":3778:3932   */\n    tag_88:\n        /* \"#utility.yul\":3862:3868   */\n      dup3\n        /* \"#utility.yul\":3857:3860   */\n      dup2\n        /* \"#utility.yul\":3852:3855   */\n      dup4\n        /* \"#utility.yul\":3839:3869   */\n      calldatacopy\n        /* \"#utility.yul\":3924:3925   */\n      0x00\n        /* \"#utility.yul\":3915:3921   */\n      dup4\n        /* \"#utility.yul\":3910:3913   */\n      dup4\n        /* \"#utility.yul\":3906:3922   */\n      add\n        /* \"#utility.yul\":3899:3926   */\n      mstore\n        /* \"#utility.yul\":3778:3932   */\n      pop\n      pop\n      pop\n      jump\t// out\n        /* \"#utility.yul\":3938:4348   */\n    tag_89:\n        /* \"#utility.yul\":4015:4020   */\n      0x00\n        /* \"#utility.yul\":4040:4105   */\n      tag_154\n        /* \"#utility.yul\":4056:4104   */\n      tag_155\n        /* \"#utility.yul\":4097:4103   */\n      dup5\n        /* \"#utility.yul\":4056:4104   */\n      tag_87\n      jump\t// in\n    tag_155:\n        /* \"#utility.yul\":4040:4105   */\n      tag_86\n      jump\t// in\n    tag_154:\n        /* \"#utility.yul\":4031:4105   */\n      swap1\n      pop\n        /* \"#utility.yul\":4128:4134   */\n      dup3\n        /* \"#utility.yul\":4121:4126   */\n      dup2\n        /* \"#utility.yul\":4114:4135   */\n      mstore\n        /* \"#utility.yul\":4166:4170   */\n      0x20\n        /* \"#utility.yul\":4159:4164   */\n      dup2\n        /* \"#utility.yul\":4155:4171   */\n      add\n        /* \"#utility.yul\":4204:4207   */\n      dup5\n        /* \"#utility.yul\":4195:4201   */\n      dup5\n        /* \"#utility.yul\":4190:4193   */\n      dup5\n        /* \"#utility.yul\":4186:4202   */\n      add\n        /* \"#utility.yul\":4183:4208   */\n      gt\n        /* \"#utility.yul\":4180:4292   */\n      iszero\n      tag_156\n      jumpi\n        /* \"#utility.yul\":4211:4290   */\n      tag_157\n      tag_83\n      jump\t// in\n    tag_157:\n        /* \"#utility.yul\":4180:4292   */\n    tag_156:\n        /* \"#utility.yul\":4301:4342   */\n      tag_158\n        /* \"#utility.yul\":4335:4341   */\n      dup5\n        /* \"#utility.yul\":4330:4333   */\n      dup3\n        /* \"#utility.yul\":4325:4328   */\n      dup6\n        /* \"#utility.yul\":4301:4342   */\n      tag_88\n      jump\t// in\n    tag_158:\n        /* \"#utility.yul\":4021:4348   */\n      pop\n        /* \"#utility.yul\":3938:4348   */\n      swap4\n      swap3\n      pop\n      pop\n      pop\n      jump\t// out\n        /* \"#utility.yul\":4367:4705   */\n    tag_90:\n        /* \"#utility.yul\":4422:4427   */\n      0x00\n        /* \"#utility.yul\":4471:4474   */\n      dup3\n        /* \"#utility.yul\":4464:4468   */\n      0x1f\n        /* \"#utility.yul\":4456:4462   */\n      dup4\n        /* \"#utility.yul\":4452:4469   */\n      add\n        /* \"#utility.yul\":4448:4475   */\n      slt\n        /* \"#utility.yul\":4438:4560   */\n      tag_160\n      jumpi\n        /* \"#utility.yul\":4479:4558   */\n      tag_161\n      tag_82\n      jump\t// in\n    tag_161:\n        /* \"#utility.yul\":4438:4560   */\n    tag_160:\n        /* \"#utility.yul\":4596:4602   */\n      dup2\n        /* \"#utility.yul\":4583:4603   */\n      calldataload\n        /* \"#utility.yul\":4621:4699   */\n      tag_162\n        /* \"#utility.yul\":4695:4698   */\n      dup5\n        /* \"#utility.yul\":4687:4693   */\n      dup3\n        /* \"#utility.yul\":4680:4684   */\n      0x20\n        /* \"#utility.yul\":4672:4678   */\n      dup7\n        /* \"#utility.yul\":4668:4685   */\n      add\n        /* \"#utility.yul\":4621:4699   */\n      tag_89\n      jump\t// in\n    tag_162:\n        /* \"#utility.yul\":4612:4699   */\n      swap2\n      pop\n        /* \"#utility.yul\":4428:4705   */\n      pop\n        /* \"#utility.yul\":4367:4705   */\n      swap3\n      swap2\n      pop\n      pop\n      jump\t// out\n        /* \"#utility.yul\":4711:5218   */\n    tag_33:\n        /* \"#utility.yul\":4779:4785   */\n      0x00\n        /* \"#utility.yul\":4828:4830   */\n      0x20\n        /* \"#utility.yul\":4816:4825   */\n      dup3\n        /* \"#utility.yul\":4807:4814   */\n      dup5\n        /* \"#utility.yul\":4803:4826   */\n      sub\n        /* \"#utility.yul\":4799:4831   */\n      slt\n        /* \"#utility.yul\":4796:4915   */\n      iszero\n      tag_164\n      jumpi\n        /* \"#utility.yul\":4834:4913   */\n      tag_165\n      tag_80\n      jump\t// in\n    tag_165:\n        /* \"#utility.yul\":4796:4915   */\n    tag_164:\n        /* \"#utility.yul\":4982:4983   */\n      0x00\n        /* \"#utility.yul\":4971:4980   */\n      dup3\n        /* \"#utility.yul\":4967:4984   */\n      add\n        /* \"#utility.yul\":4954:4985   */\n      calldataload\n        /* \"#utility.yul\":5012:5030   */\n      0xffffffffffffffff\n        /* \"#utility.yul\":5004:5010   */\n      dup2\n        /* \"#utility.yul\":5001:5031   */\n      gt\n        /* \"#utility.yul\":4998:5115   */\n      iszero\n      tag_166\n      jumpi\n        /* \"#utility.yul\":5034:5113   */\n      tag_167\n      tag_81\n      jump\t// in\n    tag_167:\n        /* \"#utility.yul\":4998:5115   */\n    tag_166:\n        /* \"#utility.yul\":5139:5201   */\n      tag_168\n        /* \"#utility.yul\":5193:5200   */\n      dup5\n        /* \"#utility.yul\":5184:5190   */\n      dup3\n        /* \"#utility.yul\":5173:5182   */\n      dup6\n        /* \"#utility.yul\":5169:5191   */\n      add\n        /* \"#utility.yul\":5139:5201   */\n      tag_90\n      jump\t// in\n    tag_168:\n        /* \"#utility.yul\":5129:5201   */\n      swap2\n      pop\n        /* \"#utility.yul\":4925:5211   */\n      pop\n        /* \"#utility.yul\":4711:5218   */\n      swap3\n      swap2\n      pop\n      pop\n      jump\t// out\n        /* \"#utility.yul\":5224:5666   */\n    tag_36:\n        /* \"#utility.yul\":5373:5377   */\n      0x00\n        /* \"#utility.yul\":5411:5413   */\n      0x60\n        /* \"#utility.yul\":5400:5409   */\n      dup3\n        /* \"#utility.yul\":5396:5414   */\n      add\n        /* \"#utility.yul\":5388:5414   */\n      swap1\n      pop\n        /* \"#utility.yul\":5424:5495   */\n      tag_170\n        /* \"#utility.yul\":5492:5493   */\n      0x00\n        /* \"#utility.yul\":5481:5490   */\n      dup4\n        /* \"#utility.yul\":5477:5494   */\n      add\n        /* \"#utility.yul\":5468:5474   */\n      dup7\n        /* \"#utility.yul\":5424:5495   */\n      tag_71\n      jump\t// in\n    tag_170:\n        /* \"#utility.yul\":5505:5577   */\n      tag_171\n        /* \"#utility.yul\":5573:5575   */\n      0x20\n        /* \"#utility.yul\":5562:5571   */\n      dup4\n        /* \"#utility.yul\":5558:5576   */\n      add\n        /* \"#utility.yul\":5549:5555   */\n      dup6\n        /* \"#utility.yul\":5505:5577   */\n      tag_71\n      jump\t// in\n    tag_171:\n        /* \"#utility.yul\":5587:5659   */\n      tag_172\n        /* \"#utility.yul\":5655:5657   */\n      0x40\n        /* \"#utility.yul\":5644:5653   */\n      dup4\n        /* \"#utility.yul\":5640:5658   */\n      add\n        /* \"#utility.yul\":5631:5637   */\n      dup5\n        /* \"#utility.yul\":5587:5659   */\n      tag_71\n      jump\t// in\n    tag_172:\n        /* \"#utility.yul\":5224:5666   */\n      swap5\n      swap4\n      pop\n      pop\n      pop\n      pop\n      jump\t// out\n        /* \"#utility.yul\":5672:5770   */\n    tag_91:\n        /* \"#utility.yul\":5723:5729   */\n      0x00\n        /* \"#utility.yul\":5757:5762   */\n      dup2\n        /* \"#utility.yul\":5751:5763   */\n      mload\n        /* \"#utility.yul\":5741:5763   */\n      swap1\n      pop\n        /* \"#utility.yul\":5672:5770   */\n      swap2\n      swap1\n      pop\n      jump\t// out\n        /* \"#utility.yul\":5776:5944   */\n    tag_92:\n        /* \"#utility.yul\":5859:5870   */\n      0x00\n        /* \"#utility.yul\":5893:5899   */\n      dup3\n        /* \"#utility.yul\":5888:5891   */\n      dup3\n        /* \"#utility.yul\":5881:5900   */\n      mstore\n        /* \"#utility.yul\":5933:5937   */\n      0x20\n        /* \"#utility.yul\":5928:5931   */\n      dup3\n        /* \"#utility.yul\":5924:5938   */\n      add\n        /* \"#utility.yul\":5909:5938   */\n      swap1\n      pop\n        /* \"#utility.yul\":5776:5944   */\n      swap3\n      swap2\n      pop\n      pop\n      jump\t// out\n        /* \"#utility.yul\":5950:6310   */\n    tag_93:\n        /* \"#utility.yul\":6036:6039   */\n      0x00\n        /* \"#utility.yul\":6064:6102   */\n      tag_176\n        /* \"#utility.yul\":6096:6101   */\n      dup3\n        /* \"#utility.yul\":6064:6102   */\n      tag_91\n      jump\t// in\n    tag_176:\n        /* \"#utility.yul\":6118:6188   */\n      tag_177\n        /* \"#utility.yul\":6181:6187   */\n      dup2\n        /* \"#utility.yul\":6176:6179   */\n      dup6\n        /* \"#utility.yul\":6118:6188   */\n      tag_92\n      jump\t// in\n    tag_177:\n        /* \"#utility.yul\":6111:6188   */\n      swap4\n      pop\n        /* \"#utility.yul\":6197:6249   */\n      tag_178\n        /* \"#utility.yul\":6242:6248   */\n      dup2\n        /* \"#utility.yul\":6237:6240   */\n      dup6\n        /* \"#utility.yul\":6230:6234   */\n      0x20\n        /* \"#utility.yul\":6223:6228   */\n      dup7\n        /* \"#utility.yul\":6219:6235   */\n      add\n        /* \"#utility.yul\":6197:6249   */\n      tag_74\n      jump\t// in\n    tag_178:\n        /* \"#utility.yul\":6274:6303   */\n      tag_179\n        /* \"#utility.yul\":6296:6302   */\n      dup2\n        /* \"#utility.yul\":6274:6303   */\n      tag_75\n      jump\t// in\n    tag_179:\n        /* \"#utility.yul\":6269:6272   */\n      dup5\n        /* \"#utility.yul\":6265:6304   */\n      add\n        /* \"#utility.yul\":6258:6304   */\n      swap2\n      pop\n        /* \"#utility.yul\":6040:6310   */\n      pop\n        /* \"#utility.yul\":5950:6310   */\n      swap3\n      swap2\n      pop\n      pop\n      jump\t// out\n        /* \"#utility.yul\":6316:6625   */\n    tag_40:\n        /* \"#utility.yul\":6427:6431   */\n      0x00\n        /* \"#utility.yul\":6465:6467   */\n      0x20\n        /* \"#utility.yul\":6454:6463   */\n      dup3\n        /* \"#utility.yul\":6450:6468   */\n      add\n        /* \"#utility.yul\":6442:6468   */\n      swap1\n      pop\n        /* \"#utility.yul\":6514:6523   */\n      dup2\n        /* \"#utility.yul\":6508:6512   */\n      dup2\n        /* \"#utility.yul\":6504:6524   */\n      sub\n        /* \"#utility.yul\":6500:6501   */\n      0x00\n        /* \"#utility.yul\":6489:6498   */\n      dup4\n        /* \"#utility.yul\":6485:6502   */\n      add\n        /* \"#utility.yul\":6478:6525   */\n      mstore\n        /* \"#utility.yul\":6542:6618   */\n      tag_181\n        /* \"#utility.yul\":6613:6617   */\n      dup2\n        /* \"#utility.yul\":6604:6610   */\n      dup5\n        /* \"#utility.yul\":6542:6618   */\n      tag_93\n      jump\t// in\n    tag_181:\n        /* \"#utility.yul\":6534:6618   */\n      swap1\n      pop\n        /* \"#utility.yul\":6316:6625   */\n      swap3\n      swap2\n      pop\n      pop\n      jump\t// out\n        /* \"#utility.yul\":6631:6811   */\n    tag_94:\n        /* \"#utility.yul\":6679:6756   */\n      0x4e487b7100000000000000000000000000000000000000000000000000000000\n        /* \"#utility.yul\":6676:6677   */\n      0x00\n        /* \"#utility.yul\":6669:6757   */\n      mstore\n        /* \"#utility.yul\":6776:6780   */\n      0x11\n        /* \"#utility.yul\":6773:6774   */\n      0x04\n        /* \"#utility.yul\":6766:6781   */\n      mstore\n        /* \"#utility.yul\":6800:6804   */\n      0x24\n        /* \"#utility.yul\":6797:6798   */\n      0x00\n        /* \"#utility.yul\":6790:6805   */\n      revert\n        /* \"#utility.yul\":6817:7165   */\n    tag_51:\n        /* \"#utility.yul\":6857:6864   */\n      0x00\n        /* \"#utility.yul\":6880:6900   */\n      tag_184\n        /* \"#utility.yul\":6898:6899   */\n      dup3\n        /* \"#utility.yul\":6880:6900   */\n      tag_70\n      jump\t// in\n    tag_184:\n        /* \"#utility.yul\":6875:6900   */\n      swap2\n      pop\n        /* \"#utility.yul\":6914:6934   */\n      tag_185\n        /* \"#utility.yul\":6932:6933   */\n      dup4\n        /* \"#utility.yul\":6914:6934   */\n      tag_70\n      jump\t// in\n    tag_185:\n        /* \"#utility.yul\":6909:6934   */\n      swap3\n      pop\n        /* \"#utility.yul\":7102:7103   */\n      dup2\n        /* \"#utility.yul\":7034:7100   */\n      0xffffffffffffffffffffffffffffffffffffffffffffffffffffffffffffffff\n        /* \"#utility.yul\":7030:7104   */\n      div\n        /* \"#utility.yul\":7027:7028   */\n      dup4\n        /* \"#utility.yul\":7024:7105   */\n      gt\n        /* \"#utility.yul\":7019:7020   */\n      dup3\n        /* \"#utility.yul\":7012:7021   */\n      iszero\n        /* \"#utility.yul\":7005:7022   */\n      iszero\n        /* \"#utility.yul\":7001:7106   */\n      and\n        /* \"#utility.yul\":6998:7129   */\n      iszero\n      tag_186\n      jumpi\n        /* \"#utility.yul\":7109:7127   */\n      tag_187\n      tag_94\n      jump\t// in\n    tag_187:\n        /* \"#utility.yul\":6998:7129   */\n    tag_186:\n        /* \"#utility.yul\":7157:7158   */\n      dup3\n        /* \"#utility.yul\":7154:7155   */\n      dup3\n        /* \"#utility.yul\":7150:7159   */\n      mul\n        /* \"#utility.yul\":7139:7159   */\n      swap1\n      pop\n        /* \"#utility.yul\":6817:7165   */\n      swap3\n      swap2\n      pop\n      pop\n      jump\t// out\n        /* \"#utility.yul\":7171:7425   */\n    tag_55:\n        /* \"#utility.yul\":7210:7213   */\n      0x00\n        /* \"#utility.yul\":7229:7248   */\n      tag_189\n        /* \"#utility.yul\":7246:7247   */\n      dup3\n        /* \"#utility.yul\":7229:7248   */\n      tag_77\n      jump\t// in\n    tag_189:\n        /* \"#utility.yul\":7224:7248   */\n      swap2\n      pop\n        /* \"#utility.yul\":7262:7281   */\n      tag_190\n        /* \"#utility.yul\":7279:7280   */\n      dup4\n        /* \"#utility.yul\":7262:7281   */\n      tag_77\n      jump\t// in\n    tag_190:\n        /* \"#utility.yul\":7257:7281   */\n      swap3\n      pop\n        /* \"#utility.yul\":7367:7368   */\n      dup3\n        /* \"#utility.yul\":7347:7365   */\n      0xffffffffffffffff\n        /* \"#utility.yul\":7343:7369   */\n      sub\n        /* \"#utility.yul\":7340:7341   */\n      dup3\n        /* \"#utility.yul\":7337:7370   */\n      gt\n        /* \"#utility.yul\":7334:7393   */\n      iszero\n      tag_191\n      jumpi\n        /* \"#utility.yul\":7373:7391   */\n      tag_192\n      tag_94\n      jump\t// in\n    tag_192:\n        /* \"#utility.yul\":7334:7393   */\n    tag_191:\n        /* \"#utility.yul\":7417:7418   */\n      dup3\n        /* \"#utility.yul\":7414:7415   */\n      dup3\n        /* \"#utility.yul\":7410:7419   */\n      add\n        /* \"#utility.yul\":7403:7419   */\n      swap1\n      pop\n        /* \"#utility.yul\":7171:7425   */\n      swap3\n      swap2\n      pop\n      pop\n      jump\t// out\n        /* \"#utility.yul\":7431:7553   */\n    tag_95:\n        /* \"#utility.yul\":7504:7528   */\n      tag_194\n        /* \"#utility.yul\":7522:7527   */\n      dup2\n        /* \"#utility.yul\":7504:7528   */\n      tag_70\n      jump\t// in\n    tag_194:\n        /* \"#utility.yul\":7497:7502   */\n      dup2\n        /* \"#utility.yul\":7494:7529   */\n      eq\n        /* \"#utility.yul\":7484:7547   */\n      tag_195\n      jumpi\n        /* \"#utility.yul\":7543:7544   */\n      0x00\n        /* \"#utility.yul\":7540:7541   */\n      dup1\n        /* \"#utility.yul\":7533:7545   */\n      revert\n        /* \"#utility.yul\":7484:7547   */\n    tag_195:\n        /* \"#utility.yul\":7431:7553   */\n      pop\n      jump\t// out\n        /* \"#utility.yul\":7559:7702   */\n    tag_96:\n        /* \"#utility.yul\":7616:7621   */\n      0x00\n        /* \"#utility.yul\":7647:7653   */\n      dup2\n        /* \"#utility.yul\":7641:7654   */\n      mload\n        /* \"#utility.yul\":7632:7654   */\n      swap1\n      pop\n        /* \"#utility.yul\":7663:7696   */\n      tag_197\n        /* \"#utility.yul\":7690:7695   */\n      dup2\n        /* \"#utility.yul\":7663:7696   */\n      tag_95\n      jump\t// in\n    tag_197:\n        /* \"#utility.yul\":7559:7702   */\n      swap3\n      swap2\n      pop\n      pop\n      jump\t// out\n        /* \"#utility.yul\":7708:8371   */\n    tag_61:\n        /* \"#utility.yul\":7796:7802   */\n      0x00\n        /* \"#utility.yul\":7804:7810   */\n      dup1\n        /* \"#utility.yul\":7812:7818   */\n      0x00\n        /* \"#utility.yul\":7861:7863   */\n      0x60\n        /* \"#utility.yul\":7849:7858   */\n      dup5\n        /* \"#utility.yul\":7840:7847   */\n      dup7\n        /* \"#utility.yul\":7836:7859   */\n      sub\n        /* \"#utility.yul\":7832:7864   */\n      slt\n        /* \"#utility.yul\":7829:7948   */\n      iszero\n      tag_199\n      jumpi\n        /* \"#utility.yul\":7867:7946   */\n      tag_200\n      tag_80\n      jump\t// in\n    tag_200:\n        /* \"#utility.yul\":7829:7948   */\n    tag_199:\n        /* \"#utility.yul\":7987:7988   */\n      0x00\n        /* \"#utility.yul\":8012:8076   */\n      tag_201\n        /* \"#utility.yul\":8068:8075   */\n      dup7\n        /* \"#utility.yul\":8059:8065   */\n      dup3\n        /* \"#utility.yul\":8048:8057   */\n      dup8\n        /* \"#utility.yul\":8044:8066   */\n      add\n        /* \"#utility.yul\":8012:8076   */\n      tag_96\n      jump\t// in\n    tag_201:\n        /* \"#utility.yul\":8002:8076   */\n      swap4\n      pop\n        /* \"#utility.yul\":7958:8086   */\n      pop\n        /* \"#utility.yul\":8125:8127   */\n      0x20\n        /* \"#utility.yul\":8151:8215   */\n      tag_202\n        /* \"#utility.yul\":8207:8214   */\n      dup7\n        /* \"#utility.yul\":8198:8204   */\n      dup3\n        /* \"#utility.yul\":8187:8196   */\n      dup8\n        /* \"#utility.yul\":8183:8205   */\n      add\n        /* \"#utility.yul\":8151:8215   */\n      tag_96\n      jump\t// in\n    tag_202:\n        /* \"#utility.yul\":8141:8215   */\n      swap3\n      pop\n        /* \"#utility.yul\":8096:8225   */\n      pop\n        /* \"#utility.yul\":8264:8266   */\n      0x40\n        /* \"#utility.yul\":8290:8354   */\n      tag_203\n        /* \"#utility.yul\":8346:8353   */\n      dup7\n        /* \"#utility.yul\":8337:8343   */\n      dup3\n        /* \"#utility.yul\":8326:8335   */\n      dup8\n        /* \"#utility.yul\":8322:8344   */\n      add\n        /* \"#utility.yul\":8290:8354   */\n      tag_96\n      jump\t// in\n    tag_203:\n        /* \"#utility.yul\":8280:8354   */\n      swap2\n      pop\n        /* \"#utility.yul\":8235:8364   */\n      pop\n        /* \"#utility.yul\":7708:8371   */\n      swap3\n      pop\n      swap3\n      pop\n      swap3\n      jump\t// out\n        /* \"#utility.yul\":8377:8462   */\n    tag_97:\n        /* \"#utility.yul\":8422:8429   */\n      0x00\n        /* \"#utility.yul\":8451:8456   */\n      dup2\n        /* \"#utility.yul\":8440:8456   */\n      swap1\n      pop\n        /* \"#utility.yul\":8377:8462   */\n      swap2\n      swap1\n      pop\n      jump\t// out\n        /* \"#utility.yul\":8468:8554   */\n    tag_98:\n        /* \"#utility.yul\":8503:8510   */\n      0x00\n        /* \"#utility.yul\":8543:8547   */\n      0xff\n        /* \"#utility.yul\":8536:8541   */\n      dup3\n        /* \"#utility.yul\":8532:8548   */\n      and\n        /* \"#utility.yul\":8521:8548   */\n      swap1\n      pop\n        /* \"#utility.yul\":8468:8554   */\n      swap2\n      swap1\n      pop\n      jump\t// out\n        /* \"#utility.yul\":8560:8620   */\n    tag_99:\n        /* \"#utility.yul\":8588:8591   */\n      0x00\n        /* \"#utility.yul\":8609:8614   */\n      dup2\n        /* \"#utility.yul\":8602:8614   */\n      swap1\n      pop\n        /* \"#utility.yul\":8560:8620   */\n      swap2\n      swap1\n      pop\n      jump\t// out\n        /* \"#utility.yul\":8626:8780   */\n    tag_100:\n        /* \"#utility.yul\":8682:8691   */\n      0x00\n        /* \"#utility.yul\":8715:8774   */\n      tag_208\n        /* \"#utility.yul\":8731:8773   */\n      tag_209\n        /* \"#utility.yul\":8740:8772   */\n      tag_210\n        /* \"#utility.yul\":8766:8771   */\n      dup5\n        /* \"#utility.yul\":8740:8772   */\n      tag_97\n      jump\t// in\n    tag_210:\n        /* \"#utility.yul\":8731:8773   */\n      tag_99\n      jump\t// in\n    tag_209:\n        /* \"#utility.yul\":8715:8774   */\n      tag_98\n      jump\t// in\n    tag_208:\n        /* \"#utility.yul\":8702:8774   */\n      swap1\n      pop\n        /* \"#utility.yul\":8626:8780   */\n      swap2\n      swap1\n      pop\n      jump\t// out\n        /* \"#utility.yul\":8786:8929   */\n    tag_101:\n        /* \"#utility.yul\":8879:8922   */\n      tag_212\n        /* \"#utility.yul\":8916:8921   */\n      dup2\n        /* \"#utility.yul\":8879:8922   */\n      tag_100\n      jump\t// in\n    tag_212:\n        /* \"#utility.yul\":8874:8877   */\n      dup3\n        /* \"#utility.yul\":8867:8923   */\n      mstore\n        /* \"#utility.yul\":8786:8929   */\n      pop\n      pop\n      jump\t// out\n        /* \"#utility.yul\":8935:9024   */\n    tag_102:\n        /* \"#utility.yul\":8984:8991   */\n      0x00\n        /* \"#utility.yul\":9013:9018   */\n      dup2\n        /* \"#utility.yul\":9002:9018   */\n      swap1\n      pop\n        /* \"#utility.yul\":8935:9024   */\n      swap2\n      swap1\n      pop\n      jump\t// out\n        /* \"#utility.yul\":9030:9119   */\n    tag_103:\n        /* \"#utility.yul\":9066:9073   */\n      0x00\n        /* \"#utility.yul\":9106:9112   */\n      0xffff\n        /* \"#utility.yul\":9099:9104   */\n      dup3\n        /* \"#utility.yul\":9095:9113   */\n      and\n        /* \"#utility.yul\":9084:9113   */\n      swap1\n      pop\n        /* \"#utility.yul\":9030:9119   */\n      swap2\n      swap1\n      pop\n      jump\t// out\n        /* \"#utility.yul\":9125:9289   */\n    tag_104:\n        /* \"#utility.yul\":9186:9195   */\n      0x00\n        /* \"#utility.yul\":9219:9283   */\n      tag_216\n        /* \"#utility.yul\":9236:9282   */\n      tag_217\n        /* \"#utility.yul\":9245:9281   */\n      tag_218\n        /* \"#utility.yul\":9275:9280   */\n      dup5\n        /* \"#utility.yul\":9245:9281   */\n      tag_102\n      jump\t// in\n    tag_218:\n        /* \"#utility.yul\":9236:9282   */\n      tag_99\n      jump\t// in\n    tag_217:\n        /* \"#utility.yul\":9219:9283   */\n      tag_103\n      jump\t// in\n    tag_216:\n        /* \"#utility.yul\":9206:9283   */\n      swap1\n      pop\n        /* \"#utility.yul\":9125:9289   */\n      swap2\n      swap1\n      pop\n      jump\t// out\n        /* \"#utility.yul\":9295:9448   */\n    tag_105:\n        /* \"#utility.yul\":9393:9441   */\n      tag_220\n        /* \"#utility.yul\":9435:9440   */\n      dup2\n        /* \"#utility.yul\":9393:9441   */\n      tag_104\n      jump\t// in\n    tag_220:\n        /* \"#utility.yul\":9388:9391   */\n      dup3\n        /* \"#utility.yul\":9381:9442   */\n      mstore\n        /* \"#utility.yul\":9295:9448   */\n      pop\n      pop\n      jump\t// out\n        /* \"#utility.yul\":9454:9542   */\n    tag_106:\n        /* \"#utility.yul\":9502:9509   */\n      0x00\n        /* \"#utility.yul\":9531:9536   */\n      dup2\n        /* \"#utility.yul\":9520:9536   */\n      swap1\n      pop\n        /* \"#utility.yul\":9454:9542   */\n      swap2\n      swap1\n      pop\n      jump\t// out\n        /* \"#utility.yul\":9548:9710   */\n    tag_107:\n        /* \"#utility.yul\":9608:9617   */\n      0x00\n        /* \"#utility.yul\":9641:9704   */\n      tag_223\n        /* \"#utility.yul\":9658:9703   */\n      tag_224\n        /* \"#utility.yul\":9667:9702   */\n      tag_225\n        /* \"#utility.yul\":9696:9701   */\n      dup5\n        /* \"#utility.yul\":9667:9702   */\n      tag_106\n      jump\t// in\n    tag_225:\n        /* \"#utility.yul\":9658:9703   */\n      tag_99\n      jump\t// in\n    tag_224:\n        /* \"#utility.yul\":9641:9704   */\n      tag_103\n      jump\t// in\n    tag_223:\n        /* \"#utility.yul\":9628:9704   */\n      swap1\n      pop\n        /* \"#utility.yul\":9548:9710   */\n      swap2\n      swap1\n      pop\n      jump\t// out\n        /* \"#utility.yul\":9716:9867   */\n    tag_108:\n        /* \"#utility.yul\":9813:9860   */\n      tag_227\n        /* \"#utility.yul\":9854:9859   */\n      dup2\n        /* \"#utility.yul\":9813:9860   */\n      tag_107\n      jump\t// in\n    tag_227:\n        /* \"#utility.yul\":9808:9811   */\n      dup3\n        /* \"#utility.yul\":9801:9861   */\n      mstore\n        /* \"#utility.yul\":9716:9867   */\n      pop\n      pop\n      jump\t// out\n        /* \"#utility.yul\":9873:10369   */\n    tag_64:\n        /* \"#utility.yul\":10049:10053   */\n      0x00\n        /* \"#utility.yul\":10087:10089   */\n      0x60\n        /* \"#utility.yul\":10076:10085   */\n      dup3\n        /* \"#utility.yul\":10072:10090   */\n      add\n        /* \"#utility.yul\":10064:10090   */\n      swap1\n      pop\n        /* \"#utility.yul\":10100:10177   */\n      tag_229\n        /* \"#utility.yul\":10174:10175   */\n      0x00\n        /* \"#utility.yul\":10163:10172   */\n      dup4\n        /* \"#utility.yul\":10159:10176   */\n      add\n        /* \"#utility.yul\":10150:10156   */\n      dup7\n        /* \"#utility.yul\":10100:10177   */\n      tag_101\n      jump\t// in\n    tag_229:\n        /* \"#utility.yul\":10187:10270   */\n      tag_230\n        /* \"#utility.yul\":10266:10268   */\n      0x20\n        /* \"#utility.yul\":10255:10264   */\n      dup4\n        /* \"#utility.yul\":10251:10269   */\n      add\n        /* \"#utility.yul\":10242:10248   */\n      dup6\n        /* \"#utility.yul\":10187:10270   */\n      tag_105\n      jump\t// in\n    tag_230:\n        /* \"#utility.yul\":10280:10362   */\n      tag_231\n        /* \"#utility.yul\":10358:10360   */\n      0x40\n        /* \"#utility.yul\":10347:10356   */\n      dup4\n        /* \"#utility.yul\":10343:10361   */\n      add\n        /* \"#utility.yul\":10334:10340   */\n      dup5\n        /* \"#utility.yul\":10280:10362   */\n      tag_108\n      jump\t// in\n    tag_231:\n        /* \"#utility.yul\":9873:10369   */\n      swap5\n      swap4\n      pop\n      pop\n      pop\n      pop\n      jump\t// out\n\n    auxdata: 0xa2646970667358221220f67b297d73fcbb43d3dc2dd960183a46b6d88a71fcc56390bbb06a1939ce19fa64736f6c634300080d0033\n}\n",
				"bytecode": {
					"linkReferences": {},
					"object": "608060405234801561001057600080fd5b506108fc806100206000396000f3fe608060405234801561001057600080fd5b50600436106100935760003560e01c80633932abb1116100665780633932abb114610110578063416bdc521461012e5780636097e7a3146101605780638c492a761461017e5780639711715a1461019c57610093565b806302a251a31461009857806306fdde03146100b657806316ada547146100d457806329dcb0cf146100f2575b600080fd5b6100a06101ba565b6040516100ad919061031f565b60405180910390f35b6100be6101c4565b6040516100cb91906103d3565b60405180910390f35b6100dc610201565b6040516100e9919061031f565b60405180910390f35b6100fa61021b565b6040516101079190610418565b60405180910390f35b610118610252565b604051610125919061031f565b60405180910390f35b6101486004803603810190610143919061057c565b61025b565b604051610157939291906105c5565b60405180910390f35b610168610287565b6040516101759190610651565b60405180910390f35b6101866102b7565b6040516101939190610651565b60405180910390f35b6101a46102e7565b6040516101b19190610418565b60405180910390f35b600061b2fa905090565b60606040518060400160405280600881526020017f776f6e6879656f6b000000000000000000000000000000000000000000000000815250905090565b6000806103e84261021291906106a2565b90508091505090565b600080610226610252565b4361023191906106fc565b9050600061023d6101ba565b8261024891906106fc565b9050809250505090565b60006001905090565b6000806000838060200190518101906102749190610766565b8093508194508295505050509193909250565b6060600161b2ec6113886040516020016102a39392919061088f565b604051602081830303815290604052905090565b6060600161b2ec6113886040516020016102d39392919061088f565b604051602081830303815290604052905090565b6000806102f2610252565b436102fd91906106fc565b90508091505090565b6000819050919050565b61031981610306565b82525050565b60006020820190506103346000830184610310565b92915050565b600081519050919050565b600082825260208201905092915050565b60005b83811015610374578082015181840152602081019050610359565b83811115610383576000848401525b50505050565b6000601f19601f8301169050919050565b60006103a58261033a565b6103af8185610345565b93506103bf818560208601610356565b6103c881610389565b840191505092915050565b600060208201905081810360008301526103ed818461039a565b905092915050565b600067ffffffffffffffff82169050919050565b610412816103f5565b82525050565b600060208201905061042d6000830184610409565b92915050565b6000604051905090565b600080fd5b600080fd5b600080fd5b600080fd5b7f4e487b7100000000000000000000000000000000000000000000000000000000600052604160045260246000fd5b61048982610389565b810181811067ffffffffffffffff821117156104a8576104a7610451565b5b80604052505050565b60006104bb610433565b90506104c78282610480565b919050565b600067ffffffffffffffff8211156104e7576104e6610451565b5b6104f082610389565b9050602081019050919050565b82818337600083830152505050565b600061051f61051a846104cc565b6104b1565b90508281526020810184848401111561053b5761053a61044c565b5b6105468482856104fd565b509392505050565b600082601f83011261056357610562610447565b5b813561057384826020860161050c565b91505092915050565b6000602082840312156105925761059161043d565b5b600082013567ffffffffffffffff8111156105b0576105af610442565b5b6105bc8482850161054e565b91505092915050565b60006060820190506105da6000830186610310565b6105e76020830185610310565b6105f46040830184610310565b949350505050565b600081519050919050565b600082825260208201905092915050565b6000610623826105fc565b61062d8185610607565b935061063d818560208601610356565b61064681610389565b840191505092915050565b6000602082019050818103600083015261066b8184610618565b905092915050565b7f4e487b7100000000000000000000000000000000000000000000000000000000600052601160045260246000fd5b60006106ad82610306565b91506106b883610306565b9250817fffffffffffffffffffffffffffffffffffffffffffffffffffffffffffffffff04831182151516156106f1576106f0610673565b5b828202905092915050565b6000610707826103f5565b9150610712836103f5565b92508267ffffffffffffffff0382111561072f5761072e610673565b5b828201905092915050565b61074381610306565b811461074e57600080fd5b50565b6000815190506107608161073a565b92915050565b60008060006060848603121561077f5761077e61043d565b5b600061078d86828701610751565b935050602061079e86828701610751565b92505060406107af86828701610751565b9150509250925092565b6000819050919050565b600060ff82169050919050565b6000819050919050565b60006107f56107f06107eb846107b9565b6107d0565b6107c3565b9050919050565b610805816107da565b82525050565b6000819050919050565b600061ffff82169050919050565b600061083e6108396108348461080b565b6107d0565b610815565b9050919050565b61084e81610823565b82525050565b6000819050919050565b600061087961087461086f84610854565b6107d0565b610815565b9050919050565b6108898161085e565b82525050565b60006060820190506108a460008301866107fc565b6108b16020830185610845565b6108be6040830184610880565b94935050505056fea2646970667358221220f67b297d73fcbb43d3dc2dd960183a46b6d88a71fcc56390bbb06a1939ce19fa64736f6c634300080d0033",
					"opcodes": "PUSH1 0x80 PUSH1 0x40 MSTORE CALLVALUE DUP1 ISZERO PUSH2 0x10 JUMPI PUSH1 0x0 DUP1 REVERT JUMPDEST POP PUSH2 0x8FC DUP1 PUSH2 0x20 PUSH1 0x0 CODECOPY PUSH1 0x0 RETURN INVALID PUSH1 0x80 PUSH1 0x40 MSTORE CALLVALUE DUP1 ISZERO PUSH2 0x10 JUMPI PUSH1 0x0 DUP1 REVERT JUMPDEST POP PUSH1 0x4 CALLDATASIZE LT PUSH2 0x93 JUMPI PUSH1 0x0 CALLDATALOAD PUSH1 0xE0 SHR DUP1 PUSH4 0x3932ABB1 GT PUSH2 0x66 JUMPI DUP1 PUSH4 0x3932ABB1 EQ PUSH2 0x110 JUMPI DUP1 PUSH4 0x416BDC52 EQ PUSH2 0x12E JUMPI DUP1 PUSH4 0x6097E7A3 EQ PUSH2 0x160 JUMPI DUP1 PUSH4 0x8C492A76 EQ PUSH2 0x17E JUMPI DUP1 PUSH4 0x9711715A EQ PUSH2 0x19C JUMPI PUSH2 0x93 JUMP JUMPDEST DUP1 PUSH4 0x2A251A3 EQ PUSH2 0x98 JUMPI DUP1 PUSH4 0x6FDDE03 EQ PUSH2 0xB6 JUMPI DUP1 PUSH4 0x16ADA547 EQ PUSH2 0xD4 JUMPI DUP1 PUSH4 0x29DCB0CF EQ PUSH2 0xF2 JUMPI JUMPDEST PUSH1 0x0 DUP1 REVERT JUMPDEST PUSH2 0xA0 PUSH2 0x1BA JUMP JUMPDEST PUSH1 0x40 MLOAD PUSH2 0xAD SWAP2 SWAP1 PUSH2 0x31F JUMP JUMPDEST PUSH1 0x40 MLOAD DUP1 SWAP2 SUB SWAP1 RETURN JUMPDEST PUSH2 0xBE PUSH2 0x1C4 JUMP JUMPDEST PUSH1 0x40 MLOAD PUSH2 0xCB SWAP2 SWAP1 PUSH2 0x3D3 JUMP JUMPDEST PUSH1 0x40 MLOAD DUP1 SWAP2 SUB SWAP1 RETURN JUMPDEST PUSH2 0xDC PUSH2 0x201 JUMP JUMPDEST PUSH1 0x40 MLOAD PUSH2 0xE9 SWAP2 SWAP1 PUSH2 0x31F JUMP JUMPDEST PUSH1 0x40 MLOAD DUP1 SWAP2 SUB SWAP1 RETURN JUMPDEST PUSH2 0xFA PUSH2 0x21B JUMP JUMPDEST PUSH1 0x40 MLOAD PUSH2 0x107 SWAP2 SWAP1 PUSH2 0x418 JUMP JUMPDEST PUSH1 0x40 MLOAD DUP1 SWAP2 SUB SWAP1 RETURN JUMPDEST PUSH2 0x118 PUSH2 0x252 JUMP JUMPDEST PUSH1 0x40 MLOAD PUSH2 0x125 SWAP2 SWAP1 PUSH2 0x31F JUMP JUMPDEST PUSH1 0x40 MLOAD DUP1 SWAP2 SUB SWAP1 RETURN JUMPDEST PUSH2 0x148 PUSH1 0x4 DUP1 CALLDATASIZE SUB DUP2 ADD SWAP1 PUSH2 0x143 SWAP2 SWAP1 PUSH2 0x57C JUMP JUMPDEST PUSH2 0x25B JUMP JUMPDEST PUSH1 0x40 MLOAD PUSH2 0x157 SWAP4 SWAP3 SWAP2 SWAP1 PUSH2 0x5C5 JUMP JUMPDEST PUSH1 0x40 MLOAD DUP1 SWAP2 SUB SWAP1 RETURN JUMPDEST PUSH2 0x168 PUSH2 0x287 JUMP JUMPDEST PUSH1 0x40 MLOAD PUSH2 0x175 SWAP2 SWAP1 PUSH2 0x651 JUMP JUMPDEST PUSH1 0x40 MLOAD DUP1 SWAP2 SUB SWAP1 RETURN JUMPDEST PUSH2 0x186 PUSH2 0x2B7 JUMP JUMPDEST PUSH1 0x40 MLOAD PUSH2 0x193 SWAP2 SWAP1 PUSH2 0x651 JUMP JUMPDEST PUSH1 0x40 MLOAD DUP1 SWAP2 SUB SWAP1 RETURN JUMPDEST PUSH2 0x1A4 PUSH2 0x2E7 JUMP JUMPDEST PUSH1 0x40 MLOAD PUSH2 0x1B1 SWAP2 SWAP1 PUSH2 0x418 JUMP JUMPDEST PUSH1 0x40 MLOAD DUP1 SWAP2 SUB SWAP1 RETURN JUMPDEST PUSH1 0x0 PUSH2 0xB2FA SWAP1 POP SWAP1 JUMP JUMPDEST PUSH1 0x60 PUSH1 0x40 MLOAD DUP1 PUSH1 0x40 ADD PUSH1 0x40 MSTORE DUP1 PUSH1 0x8 DUP2 MSTORE PUSH1 0x20 ADD PUSH32 0x776F6E6879656F6B000000000000000000000000000000000000000000000000 DUP2 MSTORE POP SWAP1 POP SWAP1 JUMP JUMPDEST PUSH1 0x0 DUP1 PUSH2 0x3E8 TIMESTAMP PUSH2 0x212 SWAP2 SWAP1 PUSH2 0x6A2 JUMP JUMPDEST SWAP1 POP DUP1 SWAP2 POP POP SWAP1 JUMP JUMPDEST PUSH1 0x0 DUP1 PUSH2 0x226 PUSH2 0x252 JUMP JUMPDEST NUMBER PUSH2 0x231 SWAP2 SWAP1 PUSH2 0x6FC JUMP JUMPDEST SWAP1 POP PUSH1 0x0 PUSH2 0x23D PUSH2 0x1BA JUMP JUMPDEST DUP3 PUSH2 0x248 SWAP2 SWAP1 PUSH2 0x6FC JUMP JUMPDEST SWAP1 POP DUP1 SWAP3 POP POP POP SWAP1 JUMP JUMPDEST PUSH1 0x0 PUSH1 0x1 SWAP1 POP SWAP1 JUMP JUMPDEST PUSH1 0x0 DUP1 PUSH1 0x0 DUP4 DUP1 PUSH1 0x20 ADD SWAP1 MLOAD DUP2 ADD SWAP1 PUSH2 0x274 SWAP2 SWAP1 PUSH2 0x766 JUMP JUMPDEST DUP1 SWAP4 POP DUP2 SWAP5 POP DUP3 SWAP6 POP POP POP POP SWAP2 SWAP4 SWAP1 SWAP3 POP JUMP JUMPDEST PUSH1 0x60 PUSH1 0x1 PUSH2 0xB2EC PUSH2 0x1388 PUSH1 0x40 MLOAD PUSH1 0x20 ADD PUSH2 0x2A3 SWAP4 SWAP3 SWAP2 SWAP1 PUSH2 0x88F JUMP JUMPDEST PUSH1 0x40 MLOAD PUSH1 0x20 DUP2 DUP4 SUB SUB DUP2 MSTORE SWAP1 PUSH1 0x40 MSTORE SWAP1 POP SWAP1 JUMP JUMPDEST PUSH1 0x60 PUSH1 0x1 PUSH2 0xB2EC PUSH2 0x1388 PUSH1 0x40 MLOAD PUSH1 0x20 ADD PUSH2 0x2D3 SWAP4 SWAP3 SWAP2 SWAP1 PUSH2 0x88F JUMP JUMPDEST PUSH1 0x40 MLOAD PUSH1 0x20 DUP2 DUP4 SUB SUB DUP2 MSTORE SWAP1 PUSH1 0x40 MSTORE SWAP1 POP SWAP1 JUMP JUMPDEST PUSH1 0x0 DUP1 PUSH2 0x2F2 PUSH2 0x252 JUMP JUMPDEST NUMBER PUSH2 0x2FD SWAP2 SWAP1 PUSH2 0x6FC JUMP JUMPDEST SWAP1 POP DUP1 SWAP2 POP POP SWAP1 JUMP JUMPDEST PUSH1 0x0 DUP2 SWAP1 POP SWAP2 SWAP1 POP JUMP JUMPDEST PUSH2 0x319 DUP2 PUSH2 0x306 JUMP JUMPDEST DUP3 MSTORE POP POP JUMP JUMPDEST PUSH1 0x0 PUSH1 0x20 DUP3 ADD SWAP1 POP PUSH2 0x334 PUSH1 0x0 DUP4 ADD DUP5 PUSH2 0x310 JUMP JUMPDEST SWAP3 SWAP2 POP POP JUMP JUMPDEST PUSH1 0x0 DUP2 MLOAD SWAP1 POP SWAP2 SWAP1 POP JUMP JUMPDEST PUSH1 0x0 DUP3 DUP3 MSTORE PUSH1 0x20 DUP3 ADD SWAP1 POP SWAP3 SWAP2 POP POP JUMP JUMPDEST PUSH1 0x0 JUMPDEST DUP4 DUP2 LT ISZERO PUSH2 0x374 JUMPI DUP1 DUP3 ADD MLOAD DUP2 DUP5 ADD MSTORE PUSH1 0x20 DUP2 ADD SWAP1 POP PUSH2 0x359 JUMP JUMPDEST DUP4 DUP2 GT ISZERO PUSH2 0x383 JUMPI PUSH1 0x0 DUP5 DUP5 ADD MSTORE JUMPDEST POP POP POP POP JUMP JUMPDEST PUSH1 0x0 PUSH1 0x1F NOT PUSH1 0x1F DUP4 ADD AND SWAP1 POP SWAP2 SWAP1 POP JUMP JUMPDEST PUSH1 0x0 PUSH2 0x3A5 DUP3 PUSH2 0x33A JUMP JUMPDEST PUSH2 0x3AF DUP2 DUP6 PUSH2 0x345 JUMP JUMPDEST SWAP4 POP PUSH2 0x3BF DUP2 DUP6 PUSH1 0x20 DUP7 ADD PUSH2 0x356 JUMP JUMPDEST PUSH2 0x3C8 DUP2 PUSH2 0x389 JUMP JUMPDEST DUP5 ADD SWAP2 POP POP SWAP3 SWAP2 POP POP JUMP JUMPDEST PUSH1 0x0 PUSH1 0x20 DUP3 ADD SWAP1 POP DUP2 DUP2 SUB PUSH1 0x0 DUP4 ADD MSTORE PUSH2 0x3ED DUP2 DUP5 PUSH2 0x39A JUMP JUMPDEST SWAP1 POP SWAP3 SWAP2 POP POP JUMP JUMPDEST PUSH1 0x0 PUSH8 0xFFFFFFFFFFFFFFFF DUP3 AND SWAP1 POP SWAP2 SWAP1 POP JUMP JUMPDEST PUSH2 0x412 DUP2 PUSH2 0x3F5 JUMP JUMPDEST DUP3 MSTORE POP POP JUMP JUMPDEST PUSH1 0x0 PUSH1 0x20 DUP3 ADD SWAP1 POP PUSH2 0x42D PUSH1 0x0 DUP4 ADD DUP5 PUSH2 0x409 JUMP JUMPDEST SWAP3 SWAP2 POP POP JUMP JUMPDEST PUSH1 0x0 PUSH1 0x40 MLOAD SWAP1 POP SWAP1 JUMP JUMPDEST PUSH1 0x0 DUP1 REVERT JUMPDEST PUSH1 0x0 DUP1 REVERT JUMPDEST PUSH1 0x0 DUP1 REVERT JUMPDEST PUSH1 0x0 DUP1 REVERT JUMPDEST PUSH32 0x4E487B7100000000000000000000000000000000000000000000000000000000 PUSH1 0x0 MSTORE PUSH1 0x41 PUSH1 0x4 MSTORE PUSH1 0x24 PUSH1 0x0 REVERT JUMPDEST PUSH2 0x489 DUP3 PUSH2 0x389 JUMP JUMPDEST DUP2 ADD DUP2 DUP2 LT PUSH8 0xFFFFFFFFFFFFFFFF DUP3 GT OR ISZERO PUSH2 0x4A8 JUMPI PUSH2 0x4A7 PUSH2 0x451 JUMP JUMPDEST JUMPDEST DUP1 PUSH1 0x40 MSTORE POP POP POP JUMP JUMPDEST PUSH1 0x0 PUSH2 0x4BB PUSH2 0x433 JUMP JUMPDEST SWAP1 POP PUSH2 0x4C7 DUP3 DUP3 PUSH2 0x480 JUMP JUMPDEST SWAP2 SWAP1 POP JUMP JUMPDEST PUSH1 0x0 PUSH8 0xFFFFFFFFFFFFFFFF DUP3 GT ISZERO PUSH2 0x4E7 JUMPI PUSH2 0x4E6 PUSH2 0x451 JUMP JUMPDEST JUMPDEST PUSH2 0x4F0 DUP3 PUSH2 0x389 JUMP JUMPDEST SWAP1 POP PUSH1 0x20 DUP2 ADD SWAP1 POP SWAP2 SWAP1 POP JUMP JUMPDEST DUP3 DUP2 DUP4 CALLDATACOPY PUSH1 0x0 DUP4 DUP4 ADD MSTORE POP POP POP JUMP JUMPDEST PUSH1 0x0 PUSH2 0x51F PUSH2 0x51A DUP5 PUSH2 0x4CC JUMP JUMPDEST PUSH2 0x4B1 JUMP JUMPDEST SWAP1 POP DUP3 DUP2 MSTORE PUSH1 0x20 DUP2 ADD DUP5 DUP5 DUP5 ADD GT ISZERO PUSH2 0x53B JUMPI PUSH2 0x53A PUSH2 0x44C JUMP JUMPDEST JUMPDEST PUSH2 0x546 DUP5 DUP3 DUP6 PUSH2 0x4FD JUMP JUMPDEST POP SWAP4 SWAP3 POP POP POP JUMP JUMPDEST PUSH1 0x0 DUP3 PUSH1 0x1F DUP4 ADD SLT PUSH2 0x563 JUMPI PUSH2 0x562 PUSH2 0x447 JUMP JUMPDEST JUMPDEST DUP2 CALLDATALOAD PUSH2 0x573 DUP5 DUP3 PUSH1 0x20 DUP7 ADD PUSH2 0x50C JUMP JUMPDEST SWAP2 POP POP SWAP3 SWAP2 POP POP JUMP JUMPDEST PUSH1 0x0 PUSH1 0x20 DUP3 DUP5 SUB SLT ISZERO PUSH2 0x592 JUMPI PUSH2 0x591 PUSH2 0x43D JUMP JUMPDEST JUMPDEST PUSH1 0x0 DUP3 ADD CALLDATALOAD PUSH8 0xFFFFFFFFFFFFFFFF DUP2 GT ISZERO PUSH2 0x5B0 JUMPI PUSH2 0x5AF PUSH2 0x442 JUMP JUMPDEST JUMPDEST PUSH2 0x5BC DUP5 DUP3 DUP6 ADD PUSH2 0x54E JUMP JUMPDEST SWAP2 POP POP SWAP3 SWAP2 POP POP JUMP JUMPDEST PUSH1 0x0 PUSH1 0x60 DUP3 ADD SWAP1 POP PUSH2 0x5DA PUSH1 0x0 DUP4 ADD DUP7 PUSH2 0x310 JUMP JUMPDEST PUSH2 0x5E7 PUSH1 0x20 DUP4 ADD DUP6 PUSH2 0x310 JUMP JUMPDEST PUSH2 0x5F4 PUSH1 0x40 DUP4 ADD DUP5 PUSH2 0x310 JUMP JUMPDEST SWAP5 SWAP4 POP POP POP POP JUMP JUMPDEST PUSH1 0x0 DUP2 MLOAD SWAP1 POP SWAP2 SWAP1 POP JUMP JUMPDEST PUSH1 0x0 DUP3 DUP3 MSTORE PUSH1 0x20 DUP3 ADD SWAP1 POP SWAP3 SWAP2 POP POP JUMP JUMPDEST PUSH1 0x0 PUSH2 0x623 DUP3 PUSH2 0x5FC JUMP JUMPDEST PUSH2 0x62D DUP2 DUP6 PUSH2 0x607 JUMP JUMPDEST SWAP4 POP PUSH2 0x63D DUP2 DUP6 PUSH1 0x20 DUP7 ADD PUSH2 0x356 JUMP JUMPDEST PUSH2 0x646 DUP2 PUSH2 0x389 JUMP JUMPDEST DUP5 ADD SWAP2 POP POP SWAP3 SWAP2 POP POP JUMP JUMPDEST PUSH1 0x0 PUSH1 0x20 DUP3 ADD SWAP1 POP DUP2 DUP2 SUB PUSH1 0x0 DUP4 ADD MSTORE PUSH2 0x66B DUP2 DUP5 PUSH2 0x618 JUMP JUMPDEST SWAP1 POP SWAP3 SWAP2 POP POP JUMP JUMPDEST PUSH32 0x4E487B7100000000000000000000000000000000000000000000000000000000 PUSH1 0x0 MSTORE PUSH1 0x11 PUSH1 0x4 MSTORE PUSH1 0x24 PUSH1 0x0 REVERT JUMPDEST PUSH1 0x0 PUSH2 0x6AD DUP3 PUSH2 0x306 JUMP JUMPDEST SWAP2 POP PUSH2 0x6B8 DUP4 PUSH2 0x306 JUMP JUMPDEST SWAP3 POP DUP2 PUSH32 0xFFFFFFFFFFFFFFFFFFFFFFFFFFFFFFFFFFFFFFFFFFFFFFFFFFFFFFFFFFFFFFFF DIV DUP4 GT DUP3 ISZERO ISZERO AND ISZERO PUSH2 0x6F1 JUMPI PUSH2 0x6F0 PUSH2 0x673 JUMP JUMPDEST JUMPDEST DUP3 DUP3 MUL SWAP1 POP SWAP3 SWAP2 POP POP JUMP JUMPDEST PUSH1 0x0 PUSH2 0x707 DUP3 PUSH2 0x3F5 JUMP JUMPDEST SWAP2 POP PUSH2 0x712 DUP4 PUSH2 0x3F5 JUMP JUMPDEST SWAP3 POP DUP3 PUSH8 0xFFFFFFFFFFFFFFFF SUB DUP3 GT ISZERO PUSH2 0x72F JUMPI PUSH2 0x72E PUSH2 0x673 JUMP JUMPDEST JUMPDEST DUP3 DUP3 ADD SWAP1 POP SWAP3 SWAP2 POP POP JUMP JUMPDEST PUSH2 0x743 DUP2 PUSH2 0x306 JUMP JUMPDEST DUP2 EQ PUSH2 0x74E JUMPI PUSH1 0x0 DUP1 REVERT JUMPDEST POP JUMP JUMPDEST PUSH1 0x0 DUP2 MLOAD SWAP1 POP PUSH2 0x760 DUP2 PUSH2 0x73A JUMP JUMPDEST SWAP3 SWAP2 POP POP JUMP JUMPDEST PUSH1 0x0 DUP1 PUSH1 0x0 PUSH1 0x60 DUP5 DUP7 SUB SLT ISZERO PUSH2 0x77F JUMPI PUSH2 0x77E PUSH2 0x43D JUMP JUMPDEST JUMPDEST PUSH1 0x0 PUSH2 0x78D DUP7 DUP3 DUP8 ADD PUSH2 0x751 JUMP JUMPDEST SWAP4 POP POP PUSH1 0x20 PUSH2 0x79E DUP7 DUP3 DUP8 ADD PUSH2 0x751 JUMP JUMPDEST SWAP3 POP POP PUSH1 0x40 PUSH2 0x7AF DUP7 DUP3 DUP8 ADD PUSH2 0x751 JUMP JUMPDEST SWAP2 POP POP SWAP3 POP SWAP3 POP SWAP3 JUMP JUMPDEST PUSH1 0x0 DUP2 SWAP1 POP SWAP2 SWAP1 POP JUMP JUMPDEST PUSH1 0x0 PUSH1 0xFF DUP3 AND SWAP1 POP SWAP2 SWAP1 POP JUMP JUMPDEST PUSH1 0x0 DUP2 SWAP1 POP SWAP2 SWAP1 POP JUMP JUMPDEST PUSH1 0x0 PUSH2 0x7F5 PUSH2 0x7F0 PUSH2 0x7EB DUP5 PUSH2 0x7B9 JUMP JUMPDEST PUSH2 0x7D0 JUMP JUMPDEST PUSH2 0x7C3 JUMP JUMPDEST SWAP1 POP SWAP2 SWAP1 POP JUMP JUMPDEST PUSH2 0x805 DUP2 PUSH2 0x7DA JUMP JUMPDEST DUP3 MSTORE POP POP JUMP JUMPDEST PUSH1 0x0 DUP2 SWAP1 POP SWAP2 SWAP1 POP JUMP JUMPDEST PUSH1 0x0 PUSH2 0xFFFF DUP3 AND SWAP1 POP SWAP2 SWAP1 POP JUMP JUMPDEST PUSH1 0x0 PUSH2 0x83E PUSH2 0x839 PUSH2 0x834 DUP5 PUSH2 0x80B JUMP JUMPDEST PUSH2 0x7D0 JUMP JUMPDEST PUSH2 0x815 JUMP JUMPDEST SWAP1 POP SWAP2 SWAP1 POP JUMP JUMPDEST PUSH2 0x84E DUP2 PUSH2 0x823 JUMP JUMPDEST DUP3 MSTORE POP POP JUMP JUMPDEST PUSH1 0x0 DUP2 SWAP1 POP SWAP2 SWAP1 POP JUMP JUMPDEST PUSH1 0x0 PUSH2 0x879 PUSH2 0x874 PUSH2 0x86F DUP5 PUSH2 0x854 JUMP JUMPDEST PUSH2 0x7D0 JUMP JUMPDEST PUSH2 0x815 JUMP JUMPDEST SWAP1 POP SWAP2 SWAP1 POP JUMP JUMPDEST PUSH2 0x889 DUP2 PUSH2 0x85E JUMP JUMPDEST DUP3 MSTORE POP POP JUMP JUMPDEST PUSH1 0x0 PUSH1 0x60 DUP3 ADD SWAP1 POP PUSH2 0x8A4 PUSH1 0x0 DUP4 ADD DUP7 PUSH2 0x7FC JUMP JUMPDEST PUSH2 0x8B1 PUSH1 0x20 DUP4 ADD DUP6 PUSH2 0x845 JUMP JUMPDEST PUSH2 0x8BE PUSH1 0x40 DUP4 ADD DUP5 PUSH2 0x880 JUMP JUMPDEST SWAP5 SWAP4 POP POP POP POP JUMP INVALID LOG2 PUSH5 0x6970667358 0x22 SLT KECCAK256 0xF6 PUSH28 0x297D73FCBB43D3DC2DD960183A46B6D88A71FCC56390BBB06A1939CE NOT STATICCALL PUSH5 0x736F6C6343 STOP ADDMOD 0xD STOP CALLER "
				},
				"gasEstimates": {
					"creation": {
						"codeDepositCost": "460000",
						"executionCost": "493",
						"totalCost": "460493"
					},
					"external": {
						"abiDecode(bytes)": "infinite",
						"abiEncode()": "infinite",
						"deadline()": "infinite",
						"keccak256test()": "infinite",
						"name()": "infinite",
						"snapshot()": "infinite",
						"time()": "infinite",
						"votingDelay()": "337",
						"votingPeriod()": "338"
					}
				},
				"methodIdentifiers": {
					"abiDecode(bytes)": "416bdc52",
					"abiEncode()": "6097e7a3",
					"deadline()": "29dcb0cf",
					"keccak256test()": "8c492a76",
					"name()": "06fdde03",
					"snapshot()": "9711715a",
					"time()": "16ada547",
					"votingDelay()": "3932abb1",
					"votingPeriod()": "02a251a3"
				}
			},
			"storageLayout": {
				"storage": [
					{
						"astId": 13,
						"contract": ".workspaces/default_workspace/unMiracle/test.sol:test",
						"label": "_testS",
						"offset": 0,
						"slot": "0",
						"type": "t_mapping(t_uint256,t_struct(testS)8_storage)"
					}
				],
				"types": {
					"t_mapping(t_uint256,t_struct(testS)8_storage)": {
						"encoding": "mapping",
						"key": "t_uint256",
						"label": "mapping(uint256 => struct test.testS)",
						"numberOfBytes": "32",
						"value": "t_struct(testS)8_storage"
					},
					"t_string_storage": {
						"encoding": "bytes",
						"label": "string",
						"numberOfBytes": "32"
					},
					"t_struct(testS)8_storage": {
						"encoding": "inplace",
						"label": "struct test.testS",
						"members": [
							{
								"astId": 5,
								"contract": ".workspaces/default_workspace/unMiracle/test.sol:test",
								"label": "name",
								"offset": 0,
								"slot": "0",
								"type": "t_string_storage"
							},
							{
								"astId": 7,
								"contract": ".workspaces/default_workspace/unMiracle/test.sol:test",
								"label": "num",
								"offset": 0,
								"slot": "1",
								"type": "t_uint256"
							}
						],
						"numberOfBytes": "64"
					},
					"t_uint256": {
						"encoding": "inplace",
						"label": "uint256",
						"numberOfBytes": "32"
					}
				}
			},
			"userdoc": {
				"kind": "user",
				"methods": {},
				"version": 1
			}
		}
	}
}