{
	".workspaces/default_workspace/unMiracle/UMRCmiracle.sol": {
		"UMRproposal": {
			"abi": [
				{
					"inputs": [],
					"name": "get",
					"outputs": [
						{
							"components": [
								{
									"components": [
										{
											"internalType": "uint256",
											"name": "deadline",
											"type": "uint256"
										}
									],
									"internalType": "struct Time.Timestamp",
									"name": "donationStart",
									"type": "tuple"
								},
								{
									"components": [
										{
											"internalType": "uint256",
											"name": "deadline",
											"type": "uint256"
										}
									],
									"internalType": "struct Time.Timestamp",
									"name": "donationEnd",
									"type": "tuple"
								},
								{
									"internalType": "uint256",
									"name": "donateMinimum",
									"type": "uint256"
								},
								{
									"internalType": "bool",
									"name": "executed",
									"type": "bool"
								},
								{
									"internalType": "bool",
									"name": "canceled",
									"type": "bool"
								}
							],
							"internalType": "struct UMRproposal.ProposalCore",
							"name": "",
							"type": "tuple"
						}
					],
					"stateMutability": "view",
					"type": "function"
				},
				{
					"inputs": [
						{
							"internalType": "address",
							"name": "proposer",
							"type": "address"
						},
						{
							"internalType": "address",
							"name": "destination",
							"type": "address"
						},
						{
							"internalType": "bytes[]",
							"name": "calldatas",
							"type": "bytes[]"
						},
						{
							"internalType": "bytes32",
							"name": "descriptionHash",
							"type": "bytes32"
						}
					],
					"name": "hashProposal",
					"outputs": [
						{
							"internalType": "uint256",
							"name": "",
							"type": "uint256"
						}
					],
					"stateMutability": "pure",
					"type": "function"
				},
				{
					"inputs": [
						{
							"internalType": "uint256",
							"name": "donateDelay",
							"type": "uint256"
						},
						{
							"internalType": "uint256",
							"name": "donatePeriod",
							"type": "uint256"
						},
						{
							"internalType": "uint256",
							"name": "donateMinimum",
							"type": "uint256"
						}
					],
					"name": "proposal",
					"outputs": [
						{
							"internalType": "uint256",
							"name": "",
							"type": "uint256"
						}
					],
					"stateMutability": "nonpayable",
					"type": "function"
				}
			],
			"devdoc": {
				"kind": "dev",
				"methods": {},
				"version": 1
			},
			"evm": {
				"assembly": "    /* \".workspaces/default_workspace/unMiracle/UMRCmiracle.sol\":85:1815  contract UMRproposal {... */\n  mstore(0x40, 0x80)\n  callvalue\n  dup1\n  iszero\n  tag_1\n  jumpi\n  0x00\n  dup1\n  revert\ntag_1:\n  pop\n  dataSize(sub_0)\n  dup1\n  dataOffset(sub_0)\n  0x00\n  codecopy\n  0x00\n  return\nstop\n\nsub_0: assembly {\n        /* \".workspaces/default_workspace/unMiracle/UMRCmiracle.sol\":85:1815  contract UMRproposal {... */\n      mstore(0x40, 0x80)\n      callvalue\n      dup1\n      iszero\n      tag_1\n      jumpi\n      0x00\n      dup1\n      revert\n    tag_1:\n      pop\n      jumpi(tag_2, lt(calldatasize, 0x04))\n      shr(0xe0, calldataload(0x00))\n      dup1\n      0x2e1b2cc9\n      eq\n      tag_3\n      jumpi\n      dup1\n      0x6d4ce63c\n      eq\n      tag_4\n      jumpi\n      dup1\n      0xee4d6020\n      eq\n      tag_5\n      jumpi\n    tag_2:\n      0x00\n      dup1\n      revert\n        /* \".workspaces/default_workspace/unMiracle/UMRCmiracle.sol\":680:1714  function proposal(... */\n    tag_3:\n      tag_6\n      0x04\n      dup1\n      calldatasize\n      sub\n      dup2\n      add\n      swap1\n      tag_7\n      swap2\n      swap1\n      tag_8\n      jump\t// in\n    tag_7:\n      tag_9\n      jump\t// in\n    tag_6:\n      mload(0x40)\n      tag_10\n      swap2\n      swap1\n      tag_11\n      jump\t// in\n    tag_10:\n      mload(0x40)\n      dup1\n      swap2\n      sub\n      swap1\n      return\n        /* \".workspaces/default_workspace/unMiracle/UMRCmiracle.sol\":1720:1813  function get() public view returns(ProposalCore memory) {... */\n    tag_4:\n      tag_12\n      tag_13\n      jump\t// in\n    tag_12:\n      mload(0x40)\n      tag_14\n      swap2\n      swap1\n      tag_15\n      jump\t// in\n    tag_14:\n      mload(0x40)\n      dup1\n      swap2\n      sub\n      swap1\n      return\n        /* \".workspaces/default_workspace/unMiracle/UMRCmiracle.sol\":390:674  function hashProposal(... */\n    tag_5:\n      tag_16\n      0x04\n      dup1\n      calldatasize\n      sub\n      dup2\n      add\n      swap1\n      tag_17\n      swap2\n      swap1\n      tag_18\n      jump\t// in\n    tag_17:\n      tag_19\n      jump\t// in\n    tag_16:\n      mload(0x40)\n      tag_20\n      swap2\n      swap1\n      tag_11\n      jump\t// in\n    tag_20:\n      mload(0x40)\n      dup1\n      swap2\n      sub\n      swap1\n      return\n        /* \".workspaces/default_workspace/unMiracle/UMRCmiracle.sol\":680:1714  function proposal(... */\n    tag_9:\n        /* \".workspaces/default_workspace/unMiracle/UMRCmiracle.sol\":1147:1154  uint256 */\n      0x00\n        /* \".workspaces/default_workspace/unMiracle/UMRCmiracle.sol\":1308:1326  uint256 proposalId */\n      dup1\n        /* \".workspaces/default_workspace/unMiracle/UMRCmiracle.sol\":1329:1330  0 */\n      0x00\n        /* \".workspaces/default_workspace/unMiracle/UMRCmiracle.sol\":1308:1330  uint256 proposalId = 0 */\n      swap1\n      pop\n        /* \".workspaces/default_workspace/unMiracle/UMRCmiracle.sol\":1340:1369  ProposalCore storage proposal */\n      0x00\n        /* \".workspaces/default_workspace/unMiracle/UMRCmiracle.sol\":1372:1382  _proposals */\n      dup1\n        /* \".workspaces/default_workspace/unMiracle/UMRCmiracle.sol\":1372:1394  _proposals[proposalId] */\n      0x00\n        /* \".workspaces/default_workspace/unMiracle/UMRCmiracle.sol\":1383:1393  proposalId */\n      dup4\n        /* \".workspaces/default_workspace/unMiracle/UMRCmiracle.sol\":1372:1394  _proposals[proposalId] */\n      dup2\n      mstore\n      0x20\n      add\n      swap1\n      dup2\n      mstore\n      0x20\n      add\n      0x00\n      keccak256\n        /* \".workspaces/default_workspace/unMiracle/UMRCmiracle.sol\":1340:1394  ProposalCore storage proposal = _proposals[proposalId] */\n      swap1\n      pop\n        /* \".workspaces/default_workspace/unMiracle/UMRCmiracle.sol\":1405:1421  uint256 snapshot */\n      0x00\n        /* \".workspaces/default_workspace/unMiracle/UMRCmiracle.sol\":1461:1463  60 */\n      0x3c\n        /* \".workspaces/default_workspace/unMiracle/UMRCmiracle.sol\":1458:1460  60 */\n      dup1\n        /* \".workspaces/default_workspace/unMiracle/UMRCmiracle.sol\":1455:1457  24 */\n      0x18\n        /* \".workspaces/default_workspace/unMiracle/UMRCmiracle.sol\":1443:1454  donateDelay */\n      dup10\n        /* \".workspaces/default_workspace/unMiracle/UMRCmiracle.sol\":1443:1457  donateDelay*24 */\n      tag_22\n      swap2\n      swap1\n      tag_23\n      jump\t// in\n    tag_22:\n        /* \".workspaces/default_workspace/unMiracle/UMRCmiracle.sol\":1443:1460  donateDelay*24*60 */\n      tag_24\n      swap2\n      swap1\n      tag_23\n      jump\t// in\n    tag_24:\n        /* \".workspaces/default_workspace/unMiracle/UMRCmiracle.sol\":1443:1463  donateDelay*24*60*60 */\n      tag_25\n      swap2\n      swap1\n      tag_23\n      jump\t// in\n    tag_25:\n        /* \".workspaces/default_workspace/unMiracle/UMRCmiracle.sol\":1425:1440  block.timestamp */\n      timestamp\n        /* \".workspaces/default_workspace/unMiracle/UMRCmiracle.sol\":1425:1463  block.timestamp + donateDelay*24*60*60 */\n      tag_26\n      swap2\n      swap1\n      tag_27\n      jump\t// in\n    tag_26:\n        /* \".workspaces/default_workspace/unMiracle/UMRCmiracle.sol\":1405:1463  uint256 snapshot =  block.timestamp + donateDelay*24*60*60 */\n      swap1\n      pop\n        /* \".workspaces/default_workspace/unMiracle/UMRCmiracle.sol\":1473:1489  uint256 deadline */\n      0x00\n        /* \".workspaces/default_workspace/unMiracle/UMRCmiracle.sol\":1522:1524  60 */\n      0x3c\n        /* \".workspaces/default_workspace/unMiracle/UMRCmiracle.sol\":1519:1521  60 */\n      dup1\n        /* \".workspaces/default_workspace/unMiracle/UMRCmiracle.sol\":1516:1518  24 */\n      0x18\n        /* \".workspaces/default_workspace/unMiracle/UMRCmiracle.sol\":1503:1515  donatePeriod */\n      dup10\n        /* \".workspaces/default_workspace/unMiracle/UMRCmiracle.sol\":1503:1518  donatePeriod*24 */\n      tag_28\n      swap2\n      swap1\n      tag_23\n      jump\t// in\n    tag_28:\n        /* \".workspaces/default_workspace/unMiracle/UMRCmiracle.sol\":1503:1521  donatePeriod*24*60 */\n      tag_29\n      swap2\n      swap1\n      tag_23\n      jump\t// in\n    tag_29:\n        /* \".workspaces/default_workspace/unMiracle/UMRCmiracle.sol\":1503:1524  donatePeriod*24*60*60 */\n      tag_30\n      swap2\n      swap1\n      tag_23\n      jump\t// in\n    tag_30:\n        /* \".workspaces/default_workspace/unMiracle/UMRCmiracle.sol\":1492:1500  snapshot */\n      dup3\n        /* \".workspaces/default_workspace/unMiracle/UMRCmiracle.sol\":1492:1524  snapshot + donatePeriod*24*60*60 */\n      tag_31\n      swap2\n      swap1\n      tag_27\n      jump\t// in\n    tag_31:\n        /* \".workspaces/default_workspace/unMiracle/UMRCmiracle.sol\":1473:1524  uint256 deadline = snapshot + donatePeriod*24*60*60 */\n      swap1\n      pop\n        /* \".workspaces/default_workspace/unMiracle/UMRCmiracle.sol\":1535:1579  proposal.donationStart.setDeadline(snapshot) */\n      tag_32\n        /* \".workspaces/default_workspace/unMiracle/UMRCmiracle.sol\":1570:1578  snapshot */\n      dup3\n        /* \".workspaces/default_workspace/unMiracle/UMRCmiracle.sol\":1535:1543  proposal */\n      dup5\n        /* \".workspaces/default_workspace/unMiracle/UMRCmiracle.sol\":1535:1557  proposal.donationStart */\n      0x00\n      add\n        /* \".workspaces/default_workspace/unMiracle/UMRCmiracle.sol\":1535:1569  proposal.donationStart.setDeadline */\n      tag_33\n      swap1\n        /* \".workspaces/default_workspace/unMiracle/UMRCmiracle.sol\":1535:1579  proposal.donationStart.setDeadline(snapshot) */\n      swap2\n      swap1\n      0xffffffff\n      and\n      jump\t// in\n    tag_32:\n        /* \".workspaces/default_workspace/unMiracle/UMRCmiracle.sol\":1589:1631  proposal.donationEnd.setDeadline(deadline) */\n      tag_34\n        /* \".workspaces/default_workspace/unMiracle/UMRCmiracle.sol\":1622:1630  deadline */\n      dup2\n        /* \".workspaces/default_workspace/unMiracle/UMRCmiracle.sol\":1589:1597  proposal */\n      dup5\n        /* \".workspaces/default_workspace/unMiracle/UMRCmiracle.sol\":1589:1609  proposal.donationEnd */\n      0x01\n      add\n        /* \".workspaces/default_workspace/unMiracle/UMRCmiracle.sol\":1589:1621  proposal.donationEnd.setDeadline */\n      tag_33\n      swap1\n        /* \".workspaces/default_workspace/unMiracle/UMRCmiracle.sol\":1589:1631  proposal.donationEnd.setDeadline(deadline) */\n      swap2\n      swap1\n      0xffffffff\n      and\n      jump\t// in\n    tag_34:\n        /* \".workspaces/default_workspace/unMiracle/UMRCmiracle.sol\":1666:1679  donateMinimum */\n      dup6\n        /* \".workspaces/default_workspace/unMiracle/UMRCmiracle.sol\":1641:1649  proposal */\n      dup4\n        /* \".workspaces/default_workspace/unMiracle/UMRCmiracle.sol\":1641:1663  proposal.donateMinimum */\n      0x02\n      add\n        /* \".workspaces/default_workspace/unMiracle/UMRCmiracle.sol\":1641:1679  proposal.donateMinimum = donateMinimum */\n      dup2\n      swap1\n      sstore\n      pop\n        /* \".workspaces/default_workspace/unMiracle/UMRCmiracle.sol\":1697:1707  proposalId */\n      dup4\n        /* \".workspaces/default_workspace/unMiracle/UMRCmiracle.sol\":1690:1707  return proposalId */\n      swap5\n      pop\n      pop\n      pop\n      pop\n      pop\n        /* \".workspaces/default_workspace/unMiracle/UMRCmiracle.sol\":680:1714  function proposal(... */\n      swap4\n      swap3\n      pop\n      pop\n      pop\n      jump\t// out\n        /* \".workspaces/default_workspace/unMiracle/UMRCmiracle.sol\":1720:1813  function get() public view returns(ProposalCore memory) {... */\n    tag_13:\n        /* \".workspaces/default_workspace/unMiracle/UMRCmiracle.sol\":1755:1774  ProposalCore memory */\n      tag_35\n      tag_36\n      jump\t// in\n    tag_35:\n        /* \".workspaces/default_workspace/unMiracle/UMRCmiracle.sol\":1793:1803  _proposals */\n      0x00\n        /* \".workspaces/default_workspace/unMiracle/UMRCmiracle.sol\":1793:1806  _proposals[0] */\n      dup1\n        /* \".workspaces/default_workspace/unMiracle/UMRCmiracle.sol\":1804:1805  0 */\n      dup1\n        /* \".workspaces/default_workspace/unMiracle/UMRCmiracle.sol\":1793:1806  _proposals[0] */\n      dup2\n      mstore\n      0x20\n      add\n      swap1\n      dup2\n      mstore\n      0x20\n      add\n      0x00\n      keccak256\n        /* \".workspaces/default_workspace/unMiracle/UMRCmiracle.sol\":1786:1806  return _proposals[0] */\n      mload(0x40)\n      dup1\n      0xa0\n      add\n      0x40\n      mstore\n      swap1\n      dup2\n      0x00\n      dup3\n      add\n      mload(0x40)\n      dup1\n      0x20\n      add\n      0x40\n      mstore\n      swap1\n      dup2\n      0x00\n      dup3\n      add\n      sload\n      dup2\n      mstore\n      pop\n      pop\n      dup2\n      mstore\n      0x20\n      add\n      0x01\n      dup3\n      add\n      mload(0x40)\n      dup1\n      0x20\n      add\n      0x40\n      mstore\n      swap1\n      dup2\n      0x00\n      dup3\n      add\n      sload\n      dup2\n      mstore\n      pop\n      pop\n      dup2\n      mstore\n      0x20\n      add\n      0x02\n      dup3\n      add\n      sload\n      dup2\n      mstore\n      0x20\n      add\n      0x03\n      dup3\n      add\n      0x00\n      swap1\n      sload\n      swap1\n      0x0100\n      exp\n      swap1\n      div\n      0xff\n      and\n      iszero\n      iszero\n      iszero\n      iszero\n      dup2\n      mstore\n      0x20\n      add\n      0x03\n      dup3\n      add\n      0x01\n      swap1\n      sload\n      swap1\n      0x0100\n      exp\n      swap1\n      div\n      0xff\n      and\n      iszero\n      iszero\n      iszero\n      iszero\n      dup2\n      mstore\n      pop\n      pop\n      swap1\n      pop\n        /* \".workspaces/default_workspace/unMiracle/UMRCmiracle.sol\":1720:1813  function get() public view returns(ProposalCore memory) {... */\n      swap1\n      jump\t// out\n        /* \".workspaces/default_workspace/unMiracle/UMRCmiracle.sol\":390:674  function hashProposal(... */\n    tag_19:\n        /* \".workspaces/default_workspace/unMiracle/UMRCmiracle.sol\":561:568  uint256 */\n      0x00\n        /* \".workspaces/default_workspace/unMiracle/UMRCmiracle.sol\":616:624  proposer */\n      dup5\n        /* \".workspaces/default_workspace/unMiracle/UMRCmiracle.sol\":625:636  destination */\n      dup5\n        /* \".workspaces/default_workspace/unMiracle/UMRCmiracle.sol\":638:647  calldatas */\n      dup5\n        /* \".workspaces/default_workspace/unMiracle/UMRCmiracle.sol\":649:664  descriptionHash */\n      dup5\n        /* \".workspaces/default_workspace/unMiracle/UMRCmiracle.sol\":605:665  abi.encode(proposer,destination, calldatas, descriptionHash) */\n      add(0x20, mload(0x40))\n      tag_39\n      swap5\n      swap4\n      swap3\n      swap2\n      swap1\n      tag_40\n      jump\t// in\n    tag_39:\n      mload(0x40)\n      0x20\n      dup2\n      dup4\n      sub\n      sub\n      dup2\n      mstore\n      swap1\n      0x40\n      mstore\n        /* \".workspaces/default_workspace/unMiracle/UMRCmiracle.sol\":595:666  keccak256(abi.encode(proposer,destination, calldatas, descriptionHash)) */\n      dup1\n      mload\n      swap1\n      0x20\n      add\n      keccak256\n        /* \".workspaces/default_workspace/unMiracle/UMRCmiracle.sol\":587:667  uint256(keccak256(abi.encode(proposer,destination, calldatas, descriptionHash))) */\n      0x00\n      shr\n        /* \".workspaces/default_workspace/unMiracle/UMRCmiracle.sol\":580:667  return uint256(keccak256(abi.encode(proposer,destination, calldatas, descriptionHash))) */\n      swap1\n      pop\n        /* \".workspaces/default_workspace/unMiracle/UMRCmiracle.sol\":390:674  function hashProposal(... */\n      swap5\n      swap4\n      pop\n      pop\n      pop\n      pop\n      jump\t// out\n        /* \".workspaces/default_workspace/unMiracle/utils/time.sol\":320:442  function setDeadline(Timestamp storage time, uint256 timestamp) internal {... */\n    tag_33:\n        /* \".workspaces/default_workspace/unMiracle/utils/time.sol\":431:435  1000 */\n      0x03e8\n        /* \".workspaces/default_workspace/unMiracle/utils/time.sol\":419:428  timestamp */\n      dup2\n        /* \".workspaces/default_workspace/unMiracle/utils/time.sol\":419:435  timestamp * 1000 */\n      tag_42\n      swap2\n      swap1\n      tag_23\n      jump\t// in\n    tag_42:\n        /* \".workspaces/default_workspace/unMiracle/utils/time.sol\":403:407  time */\n      dup3\n        /* \".workspaces/default_workspace/unMiracle/utils/time.sol\":403:416  time.deadline */\n      0x00\n      add\n        /* \".workspaces/default_workspace/unMiracle/utils/time.sol\":403:435  time.deadline = timestamp * 1000 */\n      dup2\n      swap1\n      sstore\n      pop\n        /* \".workspaces/default_workspace/unMiracle/utils/time.sol\":320:442  function setDeadline(Timestamp storage time, uint256 timestamp) internal {... */\n      pop\n      pop\n      jump\t// out\n    tag_36:\n      mload(0x40)\n      dup1\n      0xa0\n      add\n      0x40\n      mstore\n      dup1\n      tag_43\n      tag_44\n      jump\t// in\n    tag_43:\n      dup2\n      mstore\n      0x20\n      add\n      tag_45\n      tag_44\n      jump\t// in\n    tag_45:\n      dup2\n      mstore\n      0x20\n      add\n      0x00\n      dup2\n      mstore\n      0x20\n      add\n      iszero(iszero(0x00))\n      dup2\n      mstore\n      0x20\n      add\n      iszero(iszero(0x00))\n      dup2\n      mstore\n      pop\n      swap1\n      jump\t// out\n    tag_44:\n      mload(0x40)\n      dup1\n      0x20\n      add\n      0x40\n      mstore\n      dup1\n      0x00\n      dup2\n      mstore\n      pop\n      swap1\n      jump\t// out\n        /* \"#utility.yul\":7:82   */\n    tag_46:\n        /* \"#utility.yul\":40:46   */\n      0x00\n        /* \"#utility.yul\":73:75   */\n      0x40\n        /* \"#utility.yul\":67:76   */\n      mload\n        /* \"#utility.yul\":57:76   */\n      swap1\n      pop\n        /* \"#utility.yul\":7:82   */\n      swap1\n      jump\t// out\n        /* \"#utility.yul\":88:205   */\n    tag_47:\n        /* \"#utility.yul\":197:198   */\n      0x00\n        /* \"#utility.yul\":194:195   */\n      dup1\n        /* \"#utility.yul\":187:199   */\n      revert\n        /* \"#utility.yul\":211:328   */\n    tag_48:\n        /* \"#utility.yul\":320:321   */\n      0x00\n        /* \"#utility.yul\":317:318   */\n      dup1\n        /* \"#utility.yul\":310:322   */\n      revert\n        /* \"#utility.yul\":334:411   */\n    tag_49:\n        /* \"#utility.yul\":371:378   */\n      0x00\n        /* \"#utility.yul\":400:405   */\n      dup2\n        /* \"#utility.yul\":389:405   */\n      swap1\n      pop\n        /* \"#utility.yul\":334:411   */\n      swap2\n      swap1\n      pop\n      jump\t// out\n        /* \"#utility.yul\":417:539   */\n    tag_50:\n        /* \"#utility.yul\":490:514   */\n      tag_98\n        /* \"#utility.yul\":508:513   */\n      dup2\n        /* \"#utility.yul\":490:514   */\n      tag_49\n      jump\t// in\n    tag_98:\n        /* \"#utility.yul\":483:488   */\n      dup2\n        /* \"#utility.yul\":480:515   */\n      eq\n        /* \"#utility.yul\":470:533   */\n      tag_99\n      jumpi\n        /* \"#utility.yul\":529:530   */\n      0x00\n        /* \"#utility.yul\":526:527   */\n      dup1\n        /* \"#utility.yul\":519:531   */\n      revert\n        /* \"#utility.yul\":470:533   */\n    tag_99:\n        /* \"#utility.yul\":417:539   */\n      pop\n      jump\t// out\n        /* \"#utility.yul\":545:684   */\n    tag_51:\n        /* \"#utility.yul\":591:596   */\n      0x00\n        /* \"#utility.yul\":629:635   */\n      dup2\n        /* \"#utility.yul\":616:636   */\n      calldataload\n        /* \"#utility.yul\":607:636   */\n      swap1\n      pop\n        /* \"#utility.yul\":645:678   */\n      tag_101\n        /* \"#utility.yul\":672:677   */\n      dup2\n        /* \"#utility.yul\":645:678   */\n      tag_50\n      jump\t// in\n    tag_101:\n        /* \"#utility.yul\":545:684   */\n      swap3\n      swap2\n      pop\n      pop\n      jump\t// out\n        /* \"#utility.yul\":690:1309   */\n    tag_8:\n        /* \"#utility.yul\":767:773   */\n      0x00\n        /* \"#utility.yul\":775:781   */\n      dup1\n        /* \"#utility.yul\":783:789   */\n      0x00\n        /* \"#utility.yul\":832:834   */\n      0x60\n        /* \"#utility.yul\":820:829   */\n      dup5\n        /* \"#utility.yul\":811:818   */\n      dup7\n        /* \"#utility.yul\":807:830   */\n      sub\n        /* \"#utility.yul\":803:835   */\n      slt\n        /* \"#utility.yul\":800:919   */\n      iszero\n      tag_103\n      jumpi\n        /* \"#utility.yul\":838:917   */\n      tag_104\n      tag_47\n      jump\t// in\n    tag_104:\n        /* \"#utility.yul\":800:919   */\n    tag_103:\n        /* \"#utility.yul\":958:959   */\n      0x00\n        /* \"#utility.yul\":983:1036   */\n      tag_105\n        /* \"#utility.yul\":1028:1035   */\n      dup7\n        /* \"#utility.yul\":1019:1025   */\n      dup3\n        /* \"#utility.yul\":1008:1017   */\n      dup8\n        /* \"#utility.yul\":1004:1026   */\n      add\n        /* \"#utility.yul\":983:1036   */\n      tag_51\n      jump\t// in\n    tag_105:\n        /* \"#utility.yul\":973:1036   */\n      swap4\n      pop\n        /* \"#utility.yul\":929:1046   */\n      pop\n        /* \"#utility.yul\":1085:1087   */\n      0x20\n        /* \"#utility.yul\":1111:1164   */\n      tag_106\n        /* \"#utility.yul\":1156:1163   */\n      dup7\n        /* \"#utility.yul\":1147:1153   */\n      dup3\n        /* \"#utility.yul\":1136:1145   */\n      dup8\n        /* \"#utility.yul\":1132:1154   */\n      add\n        /* \"#utility.yul\":1111:1164   */\n      tag_51\n      jump\t// in\n    tag_106:\n        /* \"#utility.yul\":1101:1164   */\n      swap3\n      pop\n        /* \"#utility.yul\":1056:1174   */\n      pop\n        /* \"#utility.yul\":1213:1215   */\n      0x40\n        /* \"#utility.yul\":1239:1292   */\n      tag_107\n        /* \"#utility.yul\":1284:1291   */\n      dup7\n        /* \"#utility.yul\":1275:1281   */\n      dup3\n        /* \"#utility.yul\":1264:1273   */\n      dup8\n        /* \"#utility.yul\":1260:1282   */\n      add\n        /* \"#utility.yul\":1239:1292   */\n      tag_51\n      jump\t// in\n    tag_107:\n        /* \"#utility.yul\":1229:1292   */\n      swap2\n      pop\n        /* \"#utility.yul\":1184:1302   */\n      pop\n        /* \"#utility.yul\":690:1309   */\n      swap3\n      pop\n      swap3\n      pop\n      swap3\n      jump\t// out\n        /* \"#utility.yul\":1315:1433   */\n    tag_52:\n        /* \"#utility.yul\":1402:1426   */\n      tag_109\n        /* \"#utility.yul\":1420:1425   */\n      dup2\n        /* \"#utility.yul\":1402:1426   */\n      tag_49\n      jump\t// in\n    tag_109:\n        /* \"#utility.yul\":1397:1400   */\n      dup3\n        /* \"#utility.yul\":1390:1427   */\n      mstore\n        /* \"#utility.yul\":1315:1433   */\n      pop\n      pop\n      jump\t// out\n        /* \"#utility.yul\":1439:1661   */\n    tag_11:\n        /* \"#utility.yul\":1532:1536   */\n      0x00\n        /* \"#utility.yul\":1570:1572   */\n      0x20\n        /* \"#utility.yul\":1559:1568   */\n      dup3\n        /* \"#utility.yul\":1555:1573   */\n      add\n        /* \"#utility.yul\":1547:1573   */\n      swap1\n      pop\n        /* \"#utility.yul\":1583:1654   */\n      tag_111\n        /* \"#utility.yul\":1651:1652   */\n      0x00\n        /* \"#utility.yul\":1640:1649   */\n      dup4\n        /* \"#utility.yul\":1636:1653   */\n      add\n        /* \"#utility.yul\":1627:1633   */\n      dup5\n        /* \"#utility.yul\":1583:1654   */\n      tag_52\n      jump\t// in\n    tag_111:\n        /* \"#utility.yul\":1439:1661   */\n      swap3\n      swap2\n      pop\n      pop\n      jump\t// out\n        /* \"#utility.yul\":1667:1775   */\n    tag_53:\n        /* \"#utility.yul\":1744:1768   */\n      tag_113\n        /* \"#utility.yul\":1762:1767   */\n      dup2\n        /* \"#utility.yul\":1744:1768   */\n      tag_49\n      jump\t// in\n    tag_113:\n        /* \"#utility.yul\":1739:1742   */\n      dup3\n        /* \"#utility.yul\":1732:1769   */\n      mstore\n        /* \"#utility.yul\":1667:1775   */\n      pop\n      pop\n      jump\t// out\n        /* \"#utility.yul\":1835:2164   */\n    tag_54:\n        /* \"#utility.yul\":1974:1978   */\n      0x20\n        /* \"#utility.yul\":1969:1972   */\n      dup3\n        /* \"#utility.yul\":1965:1979   */\n      add\n        /* \"#utility.yul\":2065:2069   */\n      0x00\n        /* \"#utility.yul\":2058:2063   */\n      dup3\n        /* \"#utility.yul\":2054:2070   */\n      add\n        /* \"#utility.yul\":2048:2071   */\n      mload\n        /* \"#utility.yul\":2084:2147   */\n      tag_115\n        /* \"#utility.yul\":2141:2145   */\n      0x00\n        /* \"#utility.yul\":2136:2139   */\n      dup6\n        /* \"#utility.yul\":2132:2146   */\n      add\n        /* \"#utility.yul\":2118:2130   */\n      dup3\n        /* \"#utility.yul\":2084:2147   */\n      tag_53\n      jump\t// in\n    tag_115:\n        /* \"#utility.yul\":1989:2157   */\n      pop\n        /* \"#utility.yul\":1943:2164   */\n      pop\n        /* \"#utility.yul\":1835:2164   */\n      pop\n      pop\n      jump\t// out\n        /* \"#utility.yul\":2170:2260   */\n    tag_55:\n        /* \"#utility.yul\":2204:2211   */\n      0x00\n        /* \"#utility.yul\":2247:2252   */\n      dup2\n        /* \"#utility.yul\":2240:2253   */\n      iszero\n        /* \"#utility.yul\":2233:2254   */\n      iszero\n        /* \"#utility.yul\":2222:2254   */\n      swap1\n      pop\n        /* \"#utility.yul\":2170:2260   */\n      swap2\n      swap1\n      pop\n      jump\t// out\n        /* \"#utility.yul\":2266:2365   */\n    tag_56:\n        /* \"#utility.yul\":2337:2358   */\n      tag_118\n        /* \"#utility.yul\":2352:2357   */\n      dup2\n        /* \"#utility.yul\":2337:2358   */\n      tag_55\n      jump\t// in\n    tag_118:\n        /* \"#utility.yul\":2332:2335   */\n      dup3\n        /* \"#utility.yul\":2325:2359   */\n      mstore\n        /* \"#utility.yul\":2266:2365   */\n      pop\n      pop\n      jump\t// out\n        /* \"#utility.yul\":2445:3605   */\n    tag_57:\n        /* \"#utility.yul\":2598:2602   */\n      0xa0\n        /* \"#utility.yul\":2593:2596   */\n      dup3\n        /* \"#utility.yul\":2589:2603   */\n      add\n        /* \"#utility.yul\":2694:2698   */\n      0x00\n        /* \"#utility.yul\":2687:2692   */\n      dup3\n        /* \"#utility.yul\":2683:2699   */\n      add\n        /* \"#utility.yul\":2677:2700   */\n      mload\n        /* \"#utility.yul\":2713:2828   */\n      tag_120\n        /* \"#utility.yul\":2822:2826   */\n      0x00\n        /* \"#utility.yul\":2817:2820   */\n      dup6\n        /* \"#utility.yul\":2813:2827   */\n      add\n        /* \"#utility.yul\":2799:2811   */\n      dup3\n        /* \"#utility.yul\":2713:2828   */\n      tag_54\n      jump\t// in\n    tag_120:\n        /* \"#utility.yul\":2613:2838   */\n      pop\n        /* \"#utility.yul\":2927:2931   */\n      0x20\n        /* \"#utility.yul\":2920:2925   */\n      dup3\n        /* \"#utility.yul\":2916:2932   */\n      add\n        /* \"#utility.yul\":2910:2933   */\n      mload\n        /* \"#utility.yul\":2946:3061   */\n      tag_121\n        /* \"#utility.yul\":3055:3059   */\n      0x20\n        /* \"#utility.yul\":3050:3053   */\n      dup6\n        /* \"#utility.yul\":3046:3060   */\n      add\n        /* \"#utility.yul\":3032:3044   */\n      dup3\n        /* \"#utility.yul\":2946:3061   */\n      tag_54\n      jump\t// in\n    tag_121:\n        /* \"#utility.yul\":2848:3071   */\n      pop\n        /* \"#utility.yul\":3162:3166   */\n      0x40\n        /* \"#utility.yul\":3155:3160   */\n      dup3\n        /* \"#utility.yul\":3151:3167   */\n      add\n        /* \"#utility.yul\":3145:3168   */\n      mload\n        /* \"#utility.yul\":3181:3244   */\n      tag_122\n        /* \"#utility.yul\":3238:3242   */\n      0x40\n        /* \"#utility.yul\":3233:3236   */\n      dup6\n        /* \"#utility.yul\":3229:3243   */\n      add\n        /* \"#utility.yul\":3215:3227   */\n      dup3\n        /* \"#utility.yul\":3181:3244   */\n      tag_53\n      jump\t// in\n    tag_122:\n        /* \"#utility.yul\":3081:3254   */\n      pop\n        /* \"#utility.yul\":3340:3344   */\n      0x60\n        /* \"#utility.yul\":3333:3338   */\n      dup3\n        /* \"#utility.yul\":3329:3345   */\n      add\n        /* \"#utility.yul\":3323:3346   */\n      mload\n        /* \"#utility.yul\":3359:3416   */\n      tag_123\n        /* \"#utility.yul\":3410:3414   */\n      0x60\n        /* \"#utility.yul\":3405:3408   */\n      dup6\n        /* \"#utility.yul\":3401:3415   */\n      add\n        /* \"#utility.yul\":3387:3399   */\n      dup3\n        /* \"#utility.yul\":3359:3416   */\n      tag_56\n      jump\t// in\n    tag_123:\n        /* \"#utility.yul\":3264:3426   */\n      pop\n        /* \"#utility.yul\":3512:3516   */\n      0x80\n        /* \"#utility.yul\":3505:3510   */\n      dup3\n        /* \"#utility.yul\":3501:3517   */\n      add\n        /* \"#utility.yul\":3495:3518   */\n      mload\n        /* \"#utility.yul\":3531:3588   */\n      tag_124\n        /* \"#utility.yul\":3582:3586   */\n      0x80\n        /* \"#utility.yul\":3577:3580   */\n      dup6\n        /* \"#utility.yul\":3573:3587   */\n      add\n        /* \"#utility.yul\":3559:3571   */\n      dup3\n        /* \"#utility.yul\":3531:3588   */\n      tag_56\n      jump\t// in\n    tag_124:\n        /* \"#utility.yul\":3436:3598   */\n      pop\n        /* \"#utility.yul\":2567:3605   */\n      pop\n        /* \"#utility.yul\":2445:3605   */\n      pop\n      pop\n      jump\t// out\n        /* \"#utility.yul\":3611:3946   */\n    tag_15:\n        /* \"#utility.yul\":3760:3764   */\n      0x00\n        /* \"#utility.yul\":3798:3801   */\n      0xa0\n        /* \"#utility.yul\":3787:3796   */\n      dup3\n        /* \"#utility.yul\":3783:3802   */\n      add\n        /* \"#utility.yul\":3775:3802   */\n      swap1\n      pop\n        /* \"#utility.yul\":3812:3939   */\n      tag_126\n        /* \"#utility.yul\":3936:3937   */\n      0x00\n        /* \"#utility.yul\":3925:3934   */\n      dup4\n        /* \"#utility.yul\":3921:3938   */\n      add\n        /* \"#utility.yul\":3912:3918   */\n      dup5\n        /* \"#utility.yul\":3812:3939   */\n      tag_57\n      jump\t// in\n    tag_126:\n        /* \"#utility.yul\":3611:3946   */\n      swap3\n      swap2\n      pop\n      pop\n      jump\t// out\n        /* \"#utility.yul\":3952:4078   */\n    tag_58:\n        /* \"#utility.yul\":3989:3996   */\n      0x00\n        /* \"#utility.yul\":4029:4071   */\n      0xffffffffffffffffffffffffffffffffffffffff\n        /* \"#utility.yul\":4022:4027   */\n      dup3\n        /* \"#utility.yul\":4018:4072   */\n      and\n        /* \"#utility.yul\":4007:4072   */\n      swap1\n      pop\n        /* \"#utility.yul\":3952:4078   */\n      swap2\n      swap1\n      pop\n      jump\t// out\n        /* \"#utility.yul\":4084:4180   */\n    tag_59:\n        /* \"#utility.yul\":4121:4128   */\n      0x00\n        /* \"#utility.yul\":4150:4174   */\n      tag_129\n        /* \"#utility.yul\":4168:4173   */\n      dup3\n        /* \"#utility.yul\":4150:4174   */\n      tag_58\n      jump\t// in\n    tag_129:\n        /* \"#utility.yul\":4139:4174   */\n      swap1\n      pop\n        /* \"#utility.yul\":4084:4180   */\n      swap2\n      swap1\n      pop\n      jump\t// out\n        /* \"#utility.yul\":4186:4308   */\n    tag_60:\n        /* \"#utility.yul\":4259:4283   */\n      tag_131\n        /* \"#utility.yul\":4277:4282   */\n      dup2\n        /* \"#utility.yul\":4259:4283   */\n      tag_59\n      jump\t// in\n    tag_131:\n        /* \"#utility.yul\":4252:4257   */\n      dup2\n        /* \"#utility.yul\":4249:4284   */\n      eq\n        /* \"#utility.yul\":4239:4302   */\n      tag_132\n      jumpi\n        /* \"#utility.yul\":4298:4299   */\n      0x00\n        /* \"#utility.yul\":4295:4296   */\n      dup1\n        /* \"#utility.yul\":4288:4300   */\n      revert\n        /* \"#utility.yul\":4239:4302   */\n    tag_132:\n        /* \"#utility.yul\":4186:4308   */\n      pop\n      jump\t// out\n        /* \"#utility.yul\":4314:4453   */\n    tag_61:\n        /* \"#utility.yul\":4360:4365   */\n      0x00\n        /* \"#utility.yul\":4398:4404   */\n      dup2\n        /* \"#utility.yul\":4385:4405   */\n      calldataload\n        /* \"#utility.yul\":4376:4405   */\n      swap1\n      pop\n        /* \"#utility.yul\":4414:4447   */\n      tag_134\n        /* \"#utility.yul\":4441:4446   */\n      dup2\n        /* \"#utility.yul\":4414:4447   */\n      tag_60\n      jump\t// in\n    tag_134:\n        /* \"#utility.yul\":4314:4453   */\n      swap3\n      swap2\n      pop\n      pop\n      jump\t// out\n        /* \"#utility.yul\":4459:4576   */\n    tag_62:\n        /* \"#utility.yul\":4568:4569   */\n      0x00\n        /* \"#utility.yul\":4565:4566   */\n      dup1\n        /* \"#utility.yul\":4558:4570   */\n      revert\n        /* \"#utility.yul\":4582:4684   */\n    tag_63:\n        /* \"#utility.yul\":4623:4629   */\n      0x00\n        /* \"#utility.yul\":4674:4676   */\n      0x1f\n        /* \"#utility.yul\":4670:4677   */\n      not\n        /* \"#utility.yul\":4665:4667   */\n      0x1f\n        /* \"#utility.yul\":4658:4663   */\n      dup4\n        /* \"#utility.yul\":4654:4668   */\n      add\n        /* \"#utility.yul\":4650:4678   */\n      and\n        /* \"#utility.yul\":4640:4678   */\n      swap1\n      pop\n        /* \"#utility.yul\":4582:4684   */\n      swap2\n      swap1\n      pop\n      jump\t// out\n        /* \"#utility.yul\":4690:4870   */\n    tag_64:\n        /* \"#utility.yul\":4738:4815   */\n      0x4e487b7100000000000000000000000000000000000000000000000000000000\n        /* \"#utility.yul\":4735:4736   */\n      0x00\n        /* \"#utility.yul\":4728:4816   */\n      mstore\n        /* \"#utility.yul\":4835:4839   */\n      0x41\n        /* \"#utility.yul\":4832:4833   */\n      0x04\n        /* \"#utility.yul\":4825:4840   */\n      mstore\n        /* \"#utility.yul\":4859:4863   */\n      0x24\n        /* \"#utility.yul\":4856:4857   */\n      0x00\n        /* \"#utility.yul\":4849:4864   */\n      revert\n        /* \"#utility.yul\":4876:5157   */\n    tag_65:\n        /* \"#utility.yul\":4959:4986   */\n      tag_139\n        /* \"#utility.yul\":4981:4985   */\n      dup3\n        /* \"#utility.yul\":4959:4986   */\n      tag_63\n      jump\t// in\n    tag_139:\n        /* \"#utility.yul\":4951:4957   */\n      dup2\n        /* \"#utility.yul\":4947:4987   */\n      add\n        /* \"#utility.yul\":5089:5095   */\n      dup2\n        /* \"#utility.yul\":5077:5087   */\n      dup2\n        /* \"#utility.yul\":5074:5096   */\n      lt\n        /* \"#utility.yul\":5053:5071   */\n      0xffffffffffffffff\n        /* \"#utility.yul\":5041:5051   */\n      dup3\n        /* \"#utility.yul\":5038:5072   */\n      gt\n        /* \"#utility.yul\":5035:5097   */\n      or\n        /* \"#utility.yul\":5032:5120   */\n      iszero\n      tag_140\n      jumpi\n        /* \"#utility.yul\":5100:5118   */\n      tag_141\n      tag_64\n      jump\t// in\n    tag_141:\n        /* \"#utility.yul\":5032:5120   */\n    tag_140:\n        /* \"#utility.yul\":5140:5150   */\n      dup1\n        /* \"#utility.yul\":5136:5138   */\n      0x40\n        /* \"#utility.yul\":5129:5151   */\n      mstore\n        /* \"#utility.yul\":4919:5157   */\n      pop\n        /* \"#utility.yul\":4876:5157   */\n      pop\n      pop\n      jump\t// out\n        /* \"#utility.yul\":5163:5292   */\n    tag_66:\n        /* \"#utility.yul\":5197:5203   */\n      0x00\n        /* \"#utility.yul\":5224:5244   */\n      tag_143\n      tag_46\n      jump\t// in\n    tag_143:\n        /* \"#utility.yul\":5214:5244   */\n      swap1\n      pop\n        /* \"#utility.yul\":5253:5286   */\n      tag_144\n        /* \"#utility.yul\":5281:5285   */\n      dup3\n        /* \"#utility.yul\":5273:5279   */\n      dup3\n        /* \"#utility.yul\":5253:5286   */\n      tag_65\n      jump\t// in\n    tag_144:\n        /* \"#utility.yul\":5163:5292   */\n      swap2\n      swap1\n      pop\n      jump\t// out\n        /* \"#utility.yul\":5298:5618   */\n    tag_67:\n        /* \"#utility.yul\":5384:5388   */\n      0x00\n        /* \"#utility.yul\":5474:5492   */\n      0xffffffffffffffff\n        /* \"#utility.yul\":5466:5472   */\n      dup3\n        /* \"#utility.yul\":5463:5493   */\n      gt\n        /* \"#utility.yul\":5460:5516   */\n      iszero\n      tag_146\n      jumpi\n        /* \"#utility.yul\":5496:5514   */\n      tag_147\n      tag_64\n      jump\t// in\n    tag_147:\n        /* \"#utility.yul\":5460:5516   */\n    tag_146:\n        /* \"#utility.yul\":5546:5550   */\n      0x20\n        /* \"#utility.yul\":5538:5544   */\n      dup3\n        /* \"#utility.yul\":5534:5551   */\n      mul\n        /* \"#utility.yul\":5526:5551   */\n      swap1\n      pop\n        /* \"#utility.yul\":5606:5610   */\n      0x20\n        /* \"#utility.yul\":5600:5604   */\n      dup2\n        /* \"#utility.yul\":5596:5611   */\n      add\n        /* \"#utility.yul\":5588:5611   */\n      swap1\n      pop\n        /* \"#utility.yul\":5298:5618   */\n      swap2\n      swap1\n      pop\n      jump\t// out\n        /* \"#utility.yul\":5624:5741   */\n    tag_68:\n        /* \"#utility.yul\":5733:5734   */\n      0x00\n        /* \"#utility.yul\":5730:5731   */\n      dup1\n        /* \"#utility.yul\":5723:5735   */\n      revert\n        /* \"#utility.yul\":5747:5864   */\n    tag_69:\n        /* \"#utility.yul\":5856:5857   */\n      0x00\n        /* \"#utility.yul\":5853:5854   */\n      dup1\n        /* \"#utility.yul\":5846:5858   */\n      revert\n        /* \"#utility.yul\":5870:6177   */\n    tag_70:\n        /* \"#utility.yul\":5931:5935   */\n      0x00\n        /* \"#utility.yul\":6021:6039   */\n      0xffffffffffffffff\n        /* \"#utility.yul\":6013:6019   */\n      dup3\n        /* \"#utility.yul\":6010:6040   */\n      gt\n        /* \"#utility.yul\":6007:6063   */\n      iszero\n      tag_151\n      jumpi\n        /* \"#utility.yul\":6043:6061   */\n      tag_152\n      tag_64\n      jump\t// in\n    tag_152:\n        /* \"#utility.yul\":6007:6063   */\n    tag_151:\n        /* \"#utility.yul\":6081:6110   */\n      tag_153\n        /* \"#utility.yul\":6103:6109   */\n      dup3\n        /* \"#utility.yul\":6081:6110   */\n      tag_63\n      jump\t// in\n    tag_153:\n        /* \"#utility.yul\":6073:6110   */\n      swap1\n      pop\n        /* \"#utility.yul\":6165:6169   */\n      0x20\n        /* \"#utility.yul\":6159:6163   */\n      dup2\n        /* \"#utility.yul\":6155:6170   */\n      add\n        /* \"#utility.yul\":6147:6170   */\n      swap1\n      pop\n        /* \"#utility.yul\":5870:6177   */\n      swap2\n      swap1\n      pop\n      jump\t// out\n        /* \"#utility.yul\":6183:6337   */\n    tag_71:\n        /* \"#utility.yul\":6267:6273   */\n      dup3\n        /* \"#utility.yul\":6262:6265   */\n      dup2\n        /* \"#utility.yul\":6257:6260   */\n      dup4\n        /* \"#utility.yul\":6244:6274   */\n      calldatacopy\n        /* \"#utility.yul\":6329:6330   */\n      0x00\n        /* \"#utility.yul\":6320:6326   */\n      dup4\n        /* \"#utility.yul\":6315:6318   */\n      dup4\n        /* \"#utility.yul\":6311:6327   */\n      add\n        /* \"#utility.yul\":6304:6331   */\n      mstore\n        /* \"#utility.yul\":6183:6337   */\n      pop\n      pop\n      pop\n      jump\t// out\n        /* \"#utility.yul\":6343:6753   */\n    tag_72:\n        /* \"#utility.yul\":6420:6425   */\n      0x00\n        /* \"#utility.yul\":6445:6510   */\n      tag_156\n        /* \"#utility.yul\":6461:6509   */\n      tag_157\n        /* \"#utility.yul\":6502:6508   */\n      dup5\n        /* \"#utility.yul\":6461:6509   */\n      tag_70\n      jump\t// in\n    tag_157:\n        /* \"#utility.yul\":6445:6510   */\n      tag_66\n      jump\t// in\n    tag_156:\n        /* \"#utility.yul\":6436:6510   */\n      swap1\n      pop\n        /* \"#utility.yul\":6533:6539   */\n      dup3\n        /* \"#utility.yul\":6526:6531   */\n      dup2\n        /* \"#utility.yul\":6519:6540   */\n      mstore\n        /* \"#utility.yul\":6571:6575   */\n      0x20\n        /* \"#utility.yul\":6564:6569   */\n      dup2\n        /* \"#utility.yul\":6560:6576   */\n      add\n        /* \"#utility.yul\":6609:6612   */\n      dup5\n        /* \"#utility.yul\":6600:6606   */\n      dup5\n        /* \"#utility.yul\":6595:6598   */\n      dup5\n        /* \"#utility.yul\":6591:6607   */\n      add\n        /* \"#utility.yul\":6588:6613   */\n      gt\n        /* \"#utility.yul\":6585:6697   */\n      iszero\n      tag_158\n      jumpi\n        /* \"#utility.yul\":6616:6695   */\n      tag_159\n      tag_69\n      jump\t// in\n    tag_159:\n        /* \"#utility.yul\":6585:6697   */\n    tag_158:\n        /* \"#utility.yul\":6706:6747   */\n      tag_160\n        /* \"#utility.yul\":6740:6746   */\n      dup5\n        /* \"#utility.yul\":6735:6738   */\n      dup3\n        /* \"#utility.yul\":6730:6733   */\n      dup6\n        /* \"#utility.yul\":6706:6747   */\n      tag_71\n      jump\t// in\n    tag_160:\n        /* \"#utility.yul\":6426:6753   */\n      pop\n        /* \"#utility.yul\":6343:6753   */\n      swap4\n      swap3\n      pop\n      pop\n      pop\n      jump\t// out\n        /* \"#utility.yul\":6772:7110   */\n    tag_73:\n        /* \"#utility.yul\":6827:6832   */\n      0x00\n        /* \"#utility.yul\":6876:6879   */\n      dup3\n        /* \"#utility.yul\":6869:6873   */\n      0x1f\n        /* \"#utility.yul\":6861:6867   */\n      dup4\n        /* \"#utility.yul\":6857:6874   */\n      add\n        /* \"#utility.yul\":6853:6880   */\n      slt\n        /* \"#utility.yul\":6843:6965   */\n      tag_162\n      jumpi\n        /* \"#utility.yul\":6884:6963   */\n      tag_163\n      tag_62\n      jump\t// in\n    tag_163:\n        /* \"#utility.yul\":6843:6965   */\n    tag_162:\n        /* \"#utility.yul\":7001:7007   */\n      dup2\n        /* \"#utility.yul\":6988:7008   */\n      calldataload\n        /* \"#utility.yul\":7026:7104   */\n      tag_164\n        /* \"#utility.yul\":7100:7103   */\n      dup5\n        /* \"#utility.yul\":7092:7098   */\n      dup3\n        /* \"#utility.yul\":7085:7089   */\n      0x20\n        /* \"#utility.yul\":7077:7083   */\n      dup7\n        /* \"#utility.yul\":7073:7090   */\n      add\n        /* \"#utility.yul\":7026:7104   */\n      tag_72\n      jump\t// in\n    tag_164:\n        /* \"#utility.yul\":7017:7104   */\n      swap2\n      pop\n        /* \"#utility.yul\":6833:7110   */\n      pop\n        /* \"#utility.yul\":6772:7110   */\n      swap3\n      swap2\n      pop\n      pop\n      jump\t// out\n        /* \"#utility.yul\":7131:8073   */\n    tag_74:\n        /* \"#utility.yul\":7236:7241   */\n      0x00\n        /* \"#utility.yul\":7261:7351   */\n      tag_166\n        /* \"#utility.yul\":7277:7350   */\n      tag_167\n        /* \"#utility.yul\":7343:7349   */\n      dup5\n        /* \"#utility.yul\":7277:7350   */\n      tag_67\n      jump\t// in\n    tag_167:\n        /* \"#utility.yul\":7261:7351   */\n      tag_66\n      jump\t// in\n    tag_166:\n        /* \"#utility.yul\":7252:7351   */\n      swap1\n      pop\n        /* \"#utility.yul\":7371:7376   */\n      dup1\n        /* \"#utility.yul\":7400:7406   */\n      dup4\n        /* \"#utility.yul\":7393:7398   */\n      dup3\n        /* \"#utility.yul\":7386:7407   */\n      mstore\n        /* \"#utility.yul\":7434:7438   */\n      0x20\n        /* \"#utility.yul\":7427:7432   */\n      dup3\n        /* \"#utility.yul\":7423:7439   */\n      add\n        /* \"#utility.yul\":7416:7439   */\n      swap1\n      pop\n        /* \"#utility.yul\":7487:7491   */\n      0x20\n        /* \"#utility.yul\":7479:7485   */\n      dup5\n        /* \"#utility.yul\":7475:7492   */\n      mul\n        /* \"#utility.yul\":7467:7473   */\n      dup4\n        /* \"#utility.yul\":7463:7493   */\n      add\n        /* \"#utility.yul\":7516:7519   */\n      dup6\n        /* \"#utility.yul\":7508:7514   */\n      dup2\n        /* \"#utility.yul\":7505:7520   */\n      gt\n        /* \"#utility.yul\":7502:7624   */\n      iszero\n      tag_168\n      jumpi\n        /* \"#utility.yul\":7535:7614   */\n      tag_169\n      tag_68\n      jump\t// in\n    tag_169:\n        /* \"#utility.yul\":7502:7624   */\n    tag_168:\n        /* \"#utility.yul\":7650:7656   */\n      dup4\n        /* \"#utility.yul\":7633:8067   */\n    tag_170:\n        /* \"#utility.yul\":7667:7673   */\n      dup2\n        /* \"#utility.yul\":7662:7665   */\n      dup2\n        /* \"#utility.yul\":7659:7674   */\n      lt\n        /* \"#utility.yul\":7633:8067   */\n      iszero\n      tag_172\n      jumpi\n        /* \"#utility.yul\":7756:7759   */\n      dup1\n        /* \"#utility.yul\":7743:7760   */\n      calldataload\n        /* \"#utility.yul\":7792:7810   */\n      0xffffffffffffffff\n        /* \"#utility.yul\":7779:7790   */\n      dup2\n        /* \"#utility.yul\":7776:7811   */\n      gt\n        /* \"#utility.yul\":7773:7895   */\n      iszero\n      tag_173\n      jumpi\n        /* \"#utility.yul\":7814:7893   */\n      tag_174\n      tag_62\n      jump\t// in\n    tag_174:\n        /* \"#utility.yul\":7773:7895   */\n    tag_173:\n        /* \"#utility.yul\":7938:7949   */\n      dup1\n        /* \"#utility.yul\":7930:7936   */\n      dup7\n        /* \"#utility.yul\":7926:7950   */\n      add\n        /* \"#utility.yul\":7976:8022   */\n      tag_175\n        /* \"#utility.yul\":8018:8021   */\n      dup10\n        /* \"#utility.yul\":8006:8016   */\n      dup3\n        /* \"#utility.yul\":7976:8022   */\n      tag_73\n      jump\t// in\n    tag_175:\n        /* \"#utility.yul\":7971:7974   */\n      dup6\n        /* \"#utility.yul\":7964:8023   */\n      mstore\n        /* \"#utility.yul\":8052:8056   */\n      0x20\n        /* \"#utility.yul\":8047:8050   */\n      dup6\n        /* \"#utility.yul\":8043:8057   */\n      add\n        /* \"#utility.yul\":8036:8057   */\n      swap5\n      pop\n        /* \"#utility.yul\":7709:8067   */\n      pop\n      pop\n        /* \"#utility.yul\":7693:7697   */\n      0x20\n        /* \"#utility.yul\":7688:7691   */\n      dup2\n        /* \"#utility.yul\":7684:7698   */\n      add\n        /* \"#utility.yul\":7677:7698   */\n      swap1\n      pop\n        /* \"#utility.yul\":7633:8067   */\n      jump(tag_170)\n    tag_172:\n        /* \"#utility.yul\":7637:7658   */\n      pop\n        /* \"#utility.yul\":7242:8073   */\n      pop\n      pop\n        /* \"#utility.yul\":7131:8073   */\n      swap4\n      swap3\n      pop\n      pop\n      pop\n      jump\t// out\n        /* \"#utility.yul\":8094:8482   */\n    tag_75:\n        /* \"#utility.yul\":8174:8179   */\n      0x00\n        /* \"#utility.yul\":8223:8226   */\n      dup3\n        /* \"#utility.yul\":8216:8220   */\n      0x1f\n        /* \"#utility.yul\":8208:8214   */\n      dup4\n        /* \"#utility.yul\":8204:8221   */\n      add\n        /* \"#utility.yul\":8200:8227   */\n      slt\n        /* \"#utility.yul\":8190:8312   */\n      tag_177\n      jumpi\n        /* \"#utility.yul\":8231:8310   */\n      tag_178\n      tag_62\n      jump\t// in\n    tag_178:\n        /* \"#utility.yul\":8190:8312   */\n    tag_177:\n        /* \"#utility.yul\":8348:8354   */\n      dup2\n        /* \"#utility.yul\":8335:8355   */\n      calldataload\n        /* \"#utility.yul\":8373:8476   */\n      tag_179\n        /* \"#utility.yul\":8472:8475   */\n      dup5\n        /* \"#utility.yul\":8464:8470   */\n      dup3\n        /* \"#utility.yul\":8457:8461   */\n      0x20\n        /* \"#utility.yul\":8449:8455   */\n      dup7\n        /* \"#utility.yul\":8445:8462   */\n      add\n        /* \"#utility.yul\":8373:8476   */\n      tag_74\n      jump\t// in\n    tag_179:\n        /* \"#utility.yul\":8364:8476   */\n      swap2\n      pop\n        /* \"#utility.yul\":8180:8482   */\n      pop\n        /* \"#utility.yul\":8094:8482   */\n      swap3\n      swap2\n      pop\n      pop\n      jump\t// out\n        /* \"#utility.yul\":8488:8565   */\n    tag_76:\n        /* \"#utility.yul\":8525:8532   */\n      0x00\n        /* \"#utility.yul\":8554:8559   */\n      dup2\n        /* \"#utility.yul\":8543:8559   */\n      swap1\n      pop\n        /* \"#utility.yul\":8488:8565   */\n      swap2\n      swap1\n      pop\n      jump\t// out\n        /* \"#utility.yul\":8571:8693   */\n    tag_77:\n        /* \"#utility.yul\":8644:8668   */\n      tag_182\n        /* \"#utility.yul\":8662:8667   */\n      dup2\n        /* \"#utility.yul\":8644:8668   */\n      tag_76\n      jump\t// in\n    tag_182:\n        /* \"#utility.yul\":8637:8642   */\n      dup2\n        /* \"#utility.yul\":8634:8669   */\n      eq\n        /* \"#utility.yul\":8624:8687   */\n      tag_183\n      jumpi\n        /* \"#utility.yul\":8683:8684   */\n      0x00\n        /* \"#utility.yul\":8680:8681   */\n      dup1\n        /* \"#utility.yul\":8673:8685   */\n      revert\n        /* \"#utility.yul\":8624:8687   */\n    tag_183:\n        /* \"#utility.yul\":8571:8693   */\n      pop\n      jump\t// out\n        /* \"#utility.yul\":8699:8838   */\n    tag_78:\n        /* \"#utility.yul\":8745:8750   */\n      0x00\n        /* \"#utility.yul\":8783:8789   */\n      dup2\n        /* \"#utility.yul\":8770:8790   */\n      calldataload\n        /* \"#utility.yul\":8761:8790   */\n      swap1\n      pop\n        /* \"#utility.yul\":8799:8832   */\n      tag_185\n        /* \"#utility.yul\":8826:8831   */\n      dup2\n        /* \"#utility.yul\":8799:8832   */\n      tag_77\n      jump\t// in\n    tag_185:\n        /* \"#utility.yul\":8699:8838   */\n      swap3\n      swap2\n      pop\n      pop\n      jump\t// out\n        /* \"#utility.yul\":8844:9837   */\n    tag_18:\n        /* \"#utility.yul\":8964:8970   */\n      0x00\n        /* \"#utility.yul\":8972:8978   */\n      dup1\n        /* \"#utility.yul\":8980:8986   */\n      0x00\n        /* \"#utility.yul\":8988:8994   */\n      dup1\n        /* \"#utility.yul\":9037:9040   */\n      0x80\n        /* \"#utility.yul\":9025:9034   */\n      dup6\n        /* \"#utility.yul\":9016:9023   */\n      dup8\n        /* \"#utility.yul\":9012:9035   */\n      sub\n        /* \"#utility.yul\":9008:9041   */\n      slt\n        /* \"#utility.yul\":9005:9125   */\n      iszero\n      tag_187\n      jumpi\n        /* \"#utility.yul\":9044:9123   */\n      tag_188\n      tag_47\n      jump\t// in\n    tag_188:\n        /* \"#utility.yul\":9005:9125   */\n    tag_187:\n        /* \"#utility.yul\":9164:9165   */\n      0x00\n        /* \"#utility.yul\":9189:9242   */\n      tag_189\n        /* \"#utility.yul\":9234:9241   */\n      dup8\n        /* \"#utility.yul\":9225:9231   */\n      dup3\n        /* \"#utility.yul\":9214:9223   */\n      dup9\n        /* \"#utility.yul\":9210:9232   */\n      add\n        /* \"#utility.yul\":9189:9242   */\n      tag_61\n      jump\t// in\n    tag_189:\n        /* \"#utility.yul\":9179:9242   */\n      swap5\n      pop\n        /* \"#utility.yul\":9135:9252   */\n      pop\n        /* \"#utility.yul\":9291:9293   */\n      0x20\n        /* \"#utility.yul\":9317:9370   */\n      tag_190\n        /* \"#utility.yul\":9362:9369   */\n      dup8\n        /* \"#utility.yul\":9353:9359   */\n      dup3\n        /* \"#utility.yul\":9342:9351   */\n      dup9\n        /* \"#utility.yul\":9338:9360   */\n      add\n        /* \"#utility.yul\":9317:9370   */\n      tag_61\n      jump\t// in\n    tag_190:\n        /* \"#utility.yul\":9307:9370   */\n      swap4\n      pop\n        /* \"#utility.yul\":9262:9380   */\n      pop\n        /* \"#utility.yul\":9447:9449   */\n      0x40\n        /* \"#utility.yul\":9436:9445   */\n      dup6\n        /* \"#utility.yul\":9432:9450   */\n      add\n        /* \"#utility.yul\":9419:9451   */\n      calldataload\n        /* \"#utility.yul\":9478:9496   */\n      0xffffffffffffffff\n        /* \"#utility.yul\":9470:9476   */\n      dup2\n        /* \"#utility.yul\":9467:9497   */\n      gt\n        /* \"#utility.yul\":9464:9581   */\n      iszero\n      tag_191\n      jumpi\n        /* \"#utility.yul\":9500:9579   */\n      tag_192\n      tag_48\n      jump\t// in\n    tag_192:\n        /* \"#utility.yul\":9464:9581   */\n    tag_191:\n        /* \"#utility.yul\":9605:9692   */\n      tag_193\n        /* \"#utility.yul\":9684:9691   */\n      dup8\n        /* \"#utility.yul\":9675:9681   */\n      dup3\n        /* \"#utility.yul\":9664:9673   */\n      dup9\n        /* \"#utility.yul\":9660:9682   */\n      add\n        /* \"#utility.yul\":9605:9692   */\n      tag_75\n      jump\t// in\n    tag_193:\n        /* \"#utility.yul\":9595:9692   */\n      swap3\n      pop\n        /* \"#utility.yul\":9390:9702   */\n      pop\n        /* \"#utility.yul\":9741:9743   */\n      0x60\n        /* \"#utility.yul\":9767:9820   */\n      tag_194\n        /* \"#utility.yul\":9812:9819   */\n      dup8\n        /* \"#utility.yul\":9803:9809   */\n      dup3\n        /* \"#utility.yul\":9792:9801   */\n      dup9\n        /* \"#utility.yul\":9788:9810   */\n      add\n        /* \"#utility.yul\":9767:9820   */\n      tag_78\n      jump\t// in\n    tag_194:\n        /* \"#utility.yul\":9757:9820   */\n      swap2\n      pop\n        /* \"#utility.yul\":9712:9830   */\n      pop\n        /* \"#utility.yul\":8844:9837   */\n      swap3\n      swap6\n      swap2\n      swap5\n      pop\n      swap3\n      pop\n      jump\t// out\n        /* \"#utility.yul\":9843:10023   */\n    tag_79:\n        /* \"#utility.yul\":9891:9968   */\n      0x4e487b7100000000000000000000000000000000000000000000000000000000\n        /* \"#utility.yul\":9888:9889   */\n      0x00\n        /* \"#utility.yul\":9881:9969   */\n      mstore\n        /* \"#utility.yul\":9988:9992   */\n      0x11\n        /* \"#utility.yul\":9985:9986   */\n      0x04\n        /* \"#utility.yul\":9978:9993   */\n      mstore\n        /* \"#utility.yul\":10012:10016   */\n      0x24\n        /* \"#utility.yul\":10009:10010   */\n      0x00\n        /* \"#utility.yul\":10002:10017   */\n      revert\n        /* \"#utility.yul\":10029:10377   */\n    tag_23:\n        /* \"#utility.yul\":10069:10076   */\n      0x00\n        /* \"#utility.yul\":10092:10112   */\n      tag_197\n        /* \"#utility.yul\":10110:10111   */\n      dup3\n        /* \"#utility.yul\":10092:10112   */\n      tag_49\n      jump\t// in\n    tag_197:\n        /* \"#utility.yul\":10087:10112   */\n      swap2\n      pop\n        /* \"#utility.yul\":10126:10146   */\n      tag_198\n        /* \"#utility.yul\":10144:10145   */\n      dup4\n        /* \"#utility.yul\":10126:10146   */\n      tag_49\n      jump\t// in\n    tag_198:\n        /* \"#utility.yul\":10121:10146   */\n      swap3\n      pop\n        /* \"#utility.yul\":10314:10315   */\n      dup2\n        /* \"#utility.yul\":10246:10312   */\n      0xffffffffffffffffffffffffffffffffffffffffffffffffffffffffffffffff\n        /* \"#utility.yul\":10242:10316   */\n      div\n        /* \"#utility.yul\":10239:10240   */\n      dup4\n        /* \"#utility.yul\":10236:10317   */\n      gt\n        /* \"#utility.yul\":10231:10232   */\n      dup3\n        /* \"#utility.yul\":10224:10233   */\n      iszero\n        /* \"#utility.yul\":10217:10234   */\n      iszero\n        /* \"#utility.yul\":10213:10318   */\n      and\n        /* \"#utility.yul\":10210:10341   */\n      iszero\n      tag_199\n      jumpi\n        /* \"#utility.yul\":10321:10339   */\n      tag_200\n      tag_79\n      jump\t// in\n    tag_200:\n        /* \"#utility.yul\":10210:10341   */\n    tag_199:\n        /* \"#utility.yul\":10369:10370   */\n      dup3\n        /* \"#utility.yul\":10366:10367   */\n      dup3\n        /* \"#utility.yul\":10362:10371   */\n      mul\n        /* \"#utility.yul\":10351:10371   */\n      swap1\n      pop\n        /* \"#utility.yul\":10029:10377   */\n      swap3\n      swap2\n      pop\n      pop\n      jump\t// out\n        /* \"#utility.yul\":10383:10688   */\n    tag_27:\n        /* \"#utility.yul\":10423:10426   */\n      0x00\n        /* \"#utility.yul\":10442:10462   */\n      tag_202\n        /* \"#utility.yul\":10460:10461   */\n      dup3\n        /* \"#utility.yul\":10442:10462   */\n      tag_49\n      jump\t// in\n    tag_202:\n        /* \"#utility.yul\":10437:10462   */\n      swap2\n      pop\n        /* \"#utility.yul\":10476:10496   */\n      tag_203\n        /* \"#utility.yul\":10494:10495   */\n      dup4\n        /* \"#utility.yul\":10476:10496   */\n      tag_49\n      jump\t// in\n    tag_203:\n        /* \"#utility.yul\":10471:10496   */\n      swap3\n      pop\n        /* \"#utility.yul\":10630:10631   */\n      dup3\n        /* \"#utility.yul\":10562:10628   */\n      0xffffffffffffffffffffffffffffffffffffffffffffffffffffffffffffffff\n        /* \"#utility.yul\":10558:10632   */\n      sub\n        /* \"#utility.yul\":10555:10556   */\n      dup3\n        /* \"#utility.yul\":10552:10633   */\n      gt\n        /* \"#utility.yul\":10549:10656   */\n      iszero\n      tag_204\n      jumpi\n        /* \"#utility.yul\":10636:10654   */\n      tag_205\n      tag_79\n      jump\t// in\n    tag_205:\n        /* \"#utility.yul\":10549:10656   */\n    tag_204:\n        /* \"#utility.yul\":10680:10681   */\n      dup3\n        /* \"#utility.yul\":10677:10678   */\n      dup3\n        /* \"#utility.yul\":10673:10682   */\n      add\n        /* \"#utility.yul\":10666:10682   */\n      swap1\n      pop\n        /* \"#utility.yul\":10383:10688   */\n      swap3\n      swap2\n      pop\n      pop\n      jump\t// out\n        /* \"#utility.yul\":10694:10812   */\n    tag_80:\n        /* \"#utility.yul\":10781:10805   */\n      tag_207\n        /* \"#utility.yul\":10799:10804   */\n      dup2\n        /* \"#utility.yul\":10781:10805   */\n      tag_59\n      jump\t// in\n    tag_207:\n        /* \"#utility.yul\":10776:10779   */\n      dup3\n        /* \"#utility.yul\":10769:10806   */\n      mstore\n        /* \"#utility.yul\":10694:10812   */\n      pop\n      pop\n      jump\t// out\n        /* \"#utility.yul\":10818:10941   */\n    tag_81:\n        /* \"#utility.yul\":10894:10900   */\n      0x00\n        /* \"#utility.yul\":10928:10933   */\n      dup2\n        /* \"#utility.yul\":10922:10934   */\n      mload\n        /* \"#utility.yul\":10912:10934   */\n      swap1\n      pop\n        /* \"#utility.yul\":10818:10941   */\n      swap2\n      swap1\n      pop\n      jump\t// out\n        /* \"#utility.yul\":10947:11140   */\n    tag_82:\n        /* \"#utility.yul\":11055:11066   */\n      0x00\n        /* \"#utility.yul\":11089:11095   */\n      dup3\n        /* \"#utility.yul\":11084:11087   */\n      dup3\n        /* \"#utility.yul\":11077:11096   */\n      mstore\n        /* \"#utility.yul\":11129:11133   */\n      0x20\n        /* \"#utility.yul\":11124:11127   */\n      dup3\n        /* \"#utility.yul\":11120:11134   */\n      add\n        /* \"#utility.yul\":11105:11134   */\n      swap1\n      pop\n        /* \"#utility.yul\":10947:11140   */\n      swap3\n      swap2\n      pop\n      pop\n      jump\t// out\n        /* \"#utility.yul\":11146:11287   */\n    tag_83:\n        /* \"#utility.yul\":11222:11226   */\n      0x00\n        /* \"#utility.yul\":11245:11248   */\n      dup2\n        /* \"#utility.yul\":11237:11248   */\n      swap1\n      pop\n        /* \"#utility.yul\":11275:11279   */\n      0x20\n        /* \"#utility.yul\":11270:11273   */\n      dup3\n        /* \"#utility.yul\":11266:11280   */\n      add\n        /* \"#utility.yul\":11258:11280   */\n      swap1\n      pop\n        /* \"#utility.yul\":11146:11287   */\n      swap2\n      swap1\n      pop\n      jump\t// out\n        /* \"#utility.yul\":11293:11391   */\n    tag_84:\n        /* \"#utility.yul\":11344:11350   */\n      0x00\n        /* \"#utility.yul\":11378:11383   */\n      dup2\n        /* \"#utility.yul\":11372:11384   */\n      mload\n        /* \"#utility.yul\":11362:11384   */\n      swap1\n      pop\n        /* \"#utility.yul\":11293:11391   */\n      swap2\n      swap1\n      pop\n      jump\t// out\n        /* \"#utility.yul\":11397:11555   */\n    tag_85:\n        /* \"#utility.yul\":11470:11481   */\n      0x00\n        /* \"#utility.yul\":11504:11510   */\n      dup3\n        /* \"#utility.yul\":11499:11502   */\n      dup3\n        /* \"#utility.yul\":11492:11511   */\n      mstore\n        /* \"#utility.yul\":11544:11548   */\n      0x20\n        /* \"#utility.yul\":11539:11542   */\n      dup3\n        /* \"#utility.yul\":11535:11549   */\n      add\n        /* \"#utility.yul\":11520:11549   */\n      swap1\n      pop\n        /* \"#utility.yul\":11397:11555   */\n      swap3\n      swap2\n      pop\n      pop\n      jump\t// out\n        /* \"#utility.yul\":11561:11868   */\n    tag_86:\n        /* \"#utility.yul\":11629:11630   */\n      0x00\n        /* \"#utility.yul\":11639:11752   */\n    tag_214:\n        /* \"#utility.yul\":11653:11659   */\n      dup4\n        /* \"#utility.yul\":11650:11651   */\n      dup2\n        /* \"#utility.yul\":11647:11660   */\n      lt\n        /* \"#utility.yul\":11639:11752   */\n      iszero\n      tag_216\n      jumpi\n        /* \"#utility.yul\":11738:11739   */\n      dup1\n        /* \"#utility.yul\":11733:11736   */\n      dup3\n        /* \"#utility.yul\":11729:11740   */\n      add\n        /* \"#utility.yul\":11723:11741   */\n      mload\n        /* \"#utility.yul\":11719:11720   */\n      dup2\n        /* \"#utility.yul\":11714:11717   */\n      dup5\n        /* \"#utility.yul\":11710:11721   */\n      add\n        /* \"#utility.yul\":11703:11742   */\n      mstore\n        /* \"#utility.yul\":11675:11677   */\n      0x20\n        /* \"#utility.yul\":11672:11673   */\n      dup2\n        /* \"#utility.yul\":11668:11678   */\n      add\n        /* \"#utility.yul\":11663:11678   */\n      swap1\n      pop\n        /* \"#utility.yul\":11639:11752   */\n      jump(tag_214)\n    tag_216:\n        /* \"#utility.yul\":11770:11776   */\n      dup4\n        /* \"#utility.yul\":11767:11768   */\n      dup2\n        /* \"#utility.yul\":11764:11777   */\n      gt\n        /* \"#utility.yul\":11761:11862   */\n      iszero\n      tag_217\n      jumpi\n        /* \"#utility.yul\":11850:11851   */\n      0x00\n        /* \"#utility.yul\":11841:11847   */\n      dup5\n        /* \"#utility.yul\":11836:11839   */\n      dup5\n        /* \"#utility.yul\":11832:11848   */\n      add\n        /* \"#utility.yul\":11825:11852   */\n      mstore\n        /* \"#utility.yul\":11761:11862   */\n    tag_217:\n        /* \"#utility.yul\":11610:11868   */\n      pop\n        /* \"#utility.yul\":11561:11868   */\n      pop\n      pop\n      pop\n      jump\t// out\n        /* \"#utility.yul\":11874:12214   */\n    tag_87:\n        /* \"#utility.yul\":11950:11953   */\n      0x00\n        /* \"#utility.yul\":11978:12016   */\n      tag_219\n        /* \"#utility.yul\":12010:12015   */\n      dup3\n        /* \"#utility.yul\":11978:12016   */\n      tag_84\n      jump\t// in\n    tag_219:\n        /* \"#utility.yul\":12032:12092   */\n      tag_220\n        /* \"#utility.yul\":12085:12091   */\n      dup2\n        /* \"#utility.yul\":12080:12083   */\n      dup6\n        /* \"#utility.yul\":12032:12092   */\n      tag_85\n      jump\t// in\n    tag_220:\n        /* \"#utility.yul\":12025:12092   */\n      swap4\n      pop\n        /* \"#utility.yul\":12101:12153   */\n      tag_221\n        /* \"#utility.yul\":12146:12152   */\n      dup2\n        /* \"#utility.yul\":12141:12144   */\n      dup6\n        /* \"#utility.yul\":12134:12138   */\n      0x20\n        /* \"#utility.yul\":12127:12132   */\n      dup7\n        /* \"#utility.yul\":12123:12139   */\n      add\n        /* \"#utility.yul\":12101:12153   */\n      tag_86\n      jump\t// in\n    tag_221:\n        /* \"#utility.yul\":12178:12207   */\n      tag_222\n        /* \"#utility.yul\":12200:12206   */\n      dup2\n        /* \"#utility.yul\":12178:12207   */\n      tag_63\n      jump\t// in\n    tag_222:\n        /* \"#utility.yul\":12173:12176   */\n      dup5\n        /* \"#utility.yul\":12169:12208   */\n      add\n        /* \"#utility.yul\":12162:12208   */\n      swap2\n      pop\n        /* \"#utility.yul\":11954:12214   */\n      pop\n        /* \"#utility.yul\":11874:12214   */\n      swap3\n      swap2\n      pop\n      pop\n      jump\t// out\n        /* \"#utility.yul\":12220:12412   */\n    tag_88:\n        /* \"#utility.yul\":12307:12317   */\n      0x00\n        /* \"#utility.yul\":12342:12406   */\n      tag_224\n        /* \"#utility.yul\":12402:12405   */\n      dup4\n        /* \"#utility.yul\":12394:12400   */\n      dup4\n        /* \"#utility.yul\":12342:12406   */\n      tag_87\n      jump\t// in\n    tag_224:\n        /* \"#utility.yul\":12328:12406   */\n      swap1\n      pop\n        /* \"#utility.yul\":12220:12412   */\n      swap3\n      swap2\n      pop\n      pop\n      jump\t// out\n        /* \"#utility.yul\":12418:12540   */\n    tag_89:\n        /* \"#utility.yul\":12497:12501   */\n      0x00\n        /* \"#utility.yul\":12529:12533   */\n      0x20\n        /* \"#utility.yul\":12524:12527   */\n      dup3\n        /* \"#utility.yul\":12520:12534   */\n      add\n        /* \"#utility.yul\":12512:12534   */\n      swap1\n      pop\n        /* \"#utility.yul\":12418:12540   */\n      swap2\n      swap1\n      pop\n      jump\t// out\n        /* \"#utility.yul\":12572:13555   */\n    tag_90:\n        /* \"#utility.yul\":12709:12712   */\n      0x00\n        /* \"#utility.yul\":12738:12801   */\n      tag_227\n        /* \"#utility.yul\":12795:12800   */\n      dup3\n        /* \"#utility.yul\":12738:12801   */\n      tag_81\n      jump\t// in\n    tag_227:\n        /* \"#utility.yul\":12817:12912   */\n      tag_228\n        /* \"#utility.yul\":12905:12911   */\n      dup2\n        /* \"#utility.yul\":12900:12903   */\n      dup6\n        /* \"#utility.yul\":12817:12912   */\n      tag_82\n      jump\t// in\n    tag_228:\n        /* \"#utility.yul\":12810:12912   */\n      swap4\n      pop\n        /* \"#utility.yul\":12938:12941   */\n      dup4\n        /* \"#utility.yul\":12983:12987   */\n      0x20\n        /* \"#utility.yul\":12975:12981   */\n      dup3\n        /* \"#utility.yul\":12971:12988   */\n      mul\n        /* \"#utility.yul\":12966:12969   */\n      dup6\n        /* \"#utility.yul\":12962:12989   */\n      add\n        /* \"#utility.yul\":13013:13078   */\n      tag_229\n        /* \"#utility.yul\":13072:13077   */\n      dup6\n        /* \"#utility.yul\":13013:13078   */\n      tag_83\n      jump\t// in\n    tag_229:\n        /* \"#utility.yul\":13101:13108   */\n      dup1\n        /* \"#utility.yul\":13132:13133   */\n      0x00\n        /* \"#utility.yul\":13117:13510   */\n    tag_230:\n        /* \"#utility.yul\":13142:13148   */\n      dup6\n        /* \"#utility.yul\":13139:13140   */\n      dup2\n        /* \"#utility.yul\":13136:13149   */\n      lt\n        /* \"#utility.yul\":13117:13510   */\n      iszero\n      tag_232\n      jumpi\n        /* \"#utility.yul\":13213:13222   */\n      dup5\n        /* \"#utility.yul\":13207:13211   */\n      dup5\n        /* \"#utility.yul\":13203:13223   */\n      sub\n        /* \"#utility.yul\":13198:13201   */\n      dup10\n        /* \"#utility.yul\":13191:13224   */\n      mstore\n        /* \"#utility.yul\":13264:13270   */\n      dup2\n        /* \"#utility.yul\":13258:13271   */\n      mload\n        /* \"#utility.yul\":13292:13374   */\n      tag_233\n        /* \"#utility.yul\":13369:13373   */\n      dup6\n        /* \"#utility.yul\":13354:13367   */\n      dup3\n        /* \"#utility.yul\":13292:13374   */\n      tag_88\n      jump\t// in\n    tag_233:\n        /* \"#utility.yul\":13284:13374   */\n      swap5\n      pop\n        /* \"#utility.yul\":13397:13466   */\n      tag_234\n        /* \"#utility.yul\":13459:13465   */\n      dup4\n        /* \"#utility.yul\":13397:13466   */\n      tag_89\n      jump\t// in\n    tag_234:\n        /* \"#utility.yul\":13387:13466   */\n      swap3\n      pop\n        /* \"#utility.yul\":13495:13499   */\n      0x20\n        /* \"#utility.yul\":13490:13493   */\n      dup11\n        /* \"#utility.yul\":13486:13500   */\n      add\n        /* \"#utility.yul\":13479:13500   */\n      swap10\n      pop\n        /* \"#utility.yul\":13177:13510   */\n      pop\n        /* \"#utility.yul\":13164:13165   */\n      0x01\n        /* \"#utility.yul\":13161:13162   */\n      dup2\n        /* \"#utility.yul\":13157:13166   */\n      add\n        /* \"#utility.yul\":13152:13166   */\n      swap1\n      pop\n        /* \"#utility.yul\":13117:13510   */\n      jump(tag_230)\n    tag_232:\n        /* \"#utility.yul\":13121:13135   */\n      pop\n        /* \"#utility.yul\":13526:13530   */\n      dup3\n        /* \"#utility.yul\":13519:13530   */\n      swap8\n      pop\n        /* \"#utility.yul\":13546:13549   */\n      dup8\n        /* \"#utility.yul\":13539:13549   */\n      swap6\n      pop\n        /* \"#utility.yul\":12714:13555   */\n      pop\n      pop\n      pop\n      pop\n      pop\n        /* \"#utility.yul\":12572:13555   */\n      swap3\n      swap2\n      pop\n      pop\n      jump\t// out\n        /* \"#utility.yul\":13561:13679   */\n    tag_91:\n        /* \"#utility.yul\":13648:13672   */\n      tag_236\n        /* \"#utility.yul\":13666:13671   */\n      dup2\n        /* \"#utility.yul\":13648:13672   */\n      tag_76\n      jump\t// in\n    tag_236:\n        /* \"#utility.yul\":13643:13646   */\n      dup3\n        /* \"#utility.yul\":13636:13673   */\n      mstore\n        /* \"#utility.yul\":13561:13679   */\n      pop\n      pop\n      jump\t// out\n        /* \"#utility.yul\":13685:14425   */\n    tag_40:\n        /* \"#utility.yul\":13930:13934   */\n      0x00\n        /* \"#utility.yul\":13968:13971   */\n      0x80\n        /* \"#utility.yul\":13957:13966   */\n      dup3\n        /* \"#utility.yul\":13953:13972   */\n      add\n        /* \"#utility.yul\":13945:13972   */\n      swap1\n      pop\n        /* \"#utility.yul\":13982:14053   */\n      tag_238\n        /* \"#utility.yul\":14050:14051   */\n      0x00\n        /* \"#utility.yul\":14039:14048   */\n      dup4\n        /* \"#utility.yul\":14035:14052   */\n      add\n        /* \"#utility.yul\":14026:14032   */\n      dup8\n        /* \"#utility.yul\":13982:14053   */\n      tag_80\n      jump\t// in\n    tag_238:\n        /* \"#utility.yul\":14063:14135   */\n      tag_239\n        /* \"#utility.yul\":14131:14133   */\n      0x20\n        /* \"#utility.yul\":14120:14129   */\n      dup4\n        /* \"#utility.yul\":14116:14134   */\n      add\n        /* \"#utility.yul\":14107:14113   */\n      dup7\n        /* \"#utility.yul\":14063:14135   */\n      tag_80\n      jump\t// in\n    tag_239:\n        /* \"#utility.yul\":14182:14191   */\n      dup2\n        /* \"#utility.yul\":14176:14180   */\n      dup2\n        /* \"#utility.yul\":14172:14192   */\n      sub\n        /* \"#utility.yul\":14167:14169   */\n      0x40\n        /* \"#utility.yul\":14156:14165   */\n      dup4\n        /* \"#utility.yul\":14152:14170   */\n      add\n        /* \"#utility.yul\":14145:14193   */\n      mstore\n        /* \"#utility.yul\":14210:14336   */\n      tag_240\n        /* \"#utility.yul\":14331:14335   */\n      dup2\n        /* \"#utility.yul\":14322:14328   */\n      dup6\n        /* \"#utility.yul\":14210:14336   */\n      tag_90\n      jump\t// in\n    tag_240:\n        /* \"#utility.yul\":14202:14336   */\n      swap1\n      pop\n        /* \"#utility.yul\":14346:14418   */\n      tag_241\n        /* \"#utility.yul\":14414:14416   */\n      0x60\n        /* \"#utility.yul\":14403:14412   */\n      dup4\n        /* \"#utility.yul\":14399:14417   */\n      add\n        /* \"#utility.yul\":14390:14396   */\n      dup5\n        /* \"#utility.yul\":14346:14418   */\n      tag_91\n      jump\t// in\n    tag_241:\n        /* \"#utility.yul\":13685:14425   */\n      swap6\n      swap5\n      pop\n      pop\n      pop\n      pop\n      pop\n      jump\t// out\n\n    auxdata: 0xa264697066735822122037ec314376b7de175edb973a034be4d4a5b83f6501863d59588730308df332be64736f6c634300080d0033\n}\n",
				"bytecode": {
					"linkReferences": {},
					"object": "608060405234801561001057600080fd5b50610a74806100206000396000f3fe608060405234801561001057600080fd5b50600436106100415760003560e01c80632e1b2cc9146100465780636d4ce63c14610076578063ee4d602014610094575b600080fd5b610060600480360381019061005b9190610322565b6100c4565b60405161006d9190610384565b60405180910390f35b61007e61018a565b60405161008b919061044d565b60405180910390f35b6100ae60048036038101906100a99190610728565b610230565b6040516100bb9190610384565b60405180910390f35b60008060009050600080600083815260200190815260200160002090506000603c806018896100f391906107da565b6100fd91906107da565b61010791906107da565b426101129190610834565b90506000603c8060188961012691906107da565b61013091906107da565b61013a91906107da565b826101459190610834565b905061015d828460000161026c90919063ffffffff16565b610173818460010161026c90919063ffffffff16565b858360020181905550839450505050509392505050565b610192610286565b6000808081526020019081526020016000206040518060a0016040529081600082016040518060200160405290816000820154815250508152602001600182016040518060200160405290816000820154815250508152602001600282015481526020016003820160009054906101000a900460ff161515151581526020016003820160019054906101000a900460ff161515151581525050905090565b60008484848460405160200161024994939291906109f2565b6040516020818303038152906040528051906020012060001c9050949350505050565b6103e88161027a91906107da565b82600001819055505050565b6040518060a001604052806102996102c5565b81526020016102a66102c5565b8152602001600081526020016000151581526020016000151581525090565b6040518060200160405280600081525090565b6000604051905090565b600080fd5b600080fd5b6000819050919050565b6102ff816102ec565b811461030a57600080fd5b50565b60008135905061031c816102f6565b92915050565b60008060006060848603121561033b5761033a6102e2565b5b60006103498682870161030d565b935050602061035a8682870161030d565b925050604061036b8682870161030d565b9150509250925092565b61037e816102ec565b82525050565b60006020820190506103996000830184610375565b92915050565b6103a8816102ec565b82525050565b6020820160008201516103c4600085018261039f565b50505050565b60008115159050919050565b6103df816103ca565b82525050565b60a0820160008201516103fb60008501826103ae565b50602082015161040e60208501826103ae565b506040820151610421604085018261039f565b50606082015161043460608501826103d6565b50608082015161044760808501826103d6565b50505050565b600060a08201905061046260008301846103e5565b92915050565b600073ffffffffffffffffffffffffffffffffffffffff82169050919050565b600061049382610468565b9050919050565b6104a381610488565b81146104ae57600080fd5b50565b6000813590506104c08161049a565b92915050565b600080fd5b6000601f19601f8301169050919050565b7f4e487b7100000000000000000000000000000000000000000000000000000000600052604160045260246000fd5b610514826104cb565b810181811067ffffffffffffffff82111715610533576105326104dc565b5b80604052505050565b60006105466102d8565b9050610552828261050b565b919050565b600067ffffffffffffffff821115610572576105716104dc565b5b602082029050602081019050919050565b600080fd5b600080fd5b600067ffffffffffffffff8211156105a8576105a76104dc565b5b6105b1826104cb565b9050602081019050919050565b82818337600083830152505050565b60006105e06105db8461058d565b61053c565b9050828152602081018484840111156105fc576105fb610588565b5b6106078482856105be565b509392505050565b600082601f830112610624576106236104c6565b5b81356106348482602086016105cd565b91505092915050565b600061065061064b84610557565b61053c565b9050808382526020820190506020840283018581111561067357610672610583565b5b835b818110156106ba57803567ffffffffffffffff811115610698576106976104c6565b5b8086016106a5898261060f565b85526020850194505050602081019050610675565b5050509392505050565b600082601f8301126106d9576106d86104c6565b5b81356106e984826020860161063d565b91505092915050565b6000819050919050565b610705816106f2565b811461071057600080fd5b50565b600081359050610722816106fc565b92915050565b60008060008060808587031215610742576107416102e2565b5b6000610750878288016104b1565b9450506020610761878288016104b1565b935050604085013567ffffffffffffffff811115610782576107816102e7565b5b61078e878288016106c4565b925050606061079f87828801610713565b91505092959194509250565b7f4e487b7100000000000000000000000000000000000000000000000000000000600052601160045260246000fd5b60006107e5826102ec565b91506107f0836102ec565b9250817fffffffffffffffffffffffffffffffffffffffffffffffffffffffffffffffff0483118215151615610829576108286107ab565b5b828202905092915050565b600061083f826102ec565b915061084a836102ec565b9250827fffffffffffffffffffffffffffffffffffffffffffffffffffffffffffffffff0382111561087f5761087e6107ab565b5b828201905092915050565b61089381610488565b82525050565b600081519050919050565b600082825260208201905092915050565b6000819050602082019050919050565b600081519050919050565b600082825260208201905092915050565b60005b838110156108ff5780820151818401526020810190506108e4565b8381111561090e576000848401525b50505050565b600061091f826108c5565b61092981856108d0565b93506109398185602086016108e1565b610942816104cb565b840191505092915050565b60006109598383610914565b905092915050565b6000602082019050919050565b600061097982610899565b61098381856108a4565b935083602082028501610995856108b5565b8060005b858110156109d157848403895281516109b2858261094d565b94506109bd83610961565b925060208a01995050600181019050610999565b50829750879550505050505092915050565b6109ec816106f2565b82525050565b6000608082019050610a07600083018761088a565b610a14602083018661088a565b8181036040830152610a26818561096e565b9050610a3560608301846109e3565b9594505050505056fea264697066735822122037ec314376b7de175edb973a034be4d4a5b83f6501863d59588730308df332be64736f6c634300080d0033",
					"opcodes": "PUSH1 0x80 PUSH1 0x40 MSTORE CALLVALUE DUP1 ISZERO PUSH2 0x10 JUMPI PUSH1 0x0 DUP1 REVERT JUMPDEST POP PUSH2 0xA74 DUP1 PUSH2 0x20 PUSH1 0x0 CODECOPY PUSH1 0x0 RETURN INVALID PUSH1 0x80 PUSH1 0x40 MSTORE CALLVALUE DUP1 ISZERO PUSH2 0x10 JUMPI PUSH1 0x0 DUP1 REVERT JUMPDEST POP PUSH1 0x4 CALLDATASIZE LT PUSH2 0x41 JUMPI PUSH1 0x0 CALLDATALOAD PUSH1 0xE0 SHR DUP1 PUSH4 0x2E1B2CC9 EQ PUSH2 0x46 JUMPI DUP1 PUSH4 0x6D4CE63C EQ PUSH2 0x76 JUMPI DUP1 PUSH4 0xEE4D6020 EQ PUSH2 0x94 JUMPI JUMPDEST PUSH1 0x0 DUP1 REVERT JUMPDEST PUSH2 0x60 PUSH1 0x4 DUP1 CALLDATASIZE SUB DUP2 ADD SWAP1 PUSH2 0x5B SWAP2 SWAP1 PUSH2 0x322 JUMP JUMPDEST PUSH2 0xC4 JUMP JUMPDEST PUSH1 0x40 MLOAD PUSH2 0x6D SWAP2 SWAP1 PUSH2 0x384 JUMP JUMPDEST PUSH1 0x40 MLOAD DUP1 SWAP2 SUB SWAP1 RETURN JUMPDEST PUSH2 0x7E PUSH2 0x18A JUMP JUMPDEST PUSH1 0x40 MLOAD PUSH2 0x8B SWAP2 SWAP1 PUSH2 0x44D JUMP JUMPDEST PUSH1 0x40 MLOAD DUP1 SWAP2 SUB SWAP1 RETURN JUMPDEST PUSH2 0xAE PUSH1 0x4 DUP1 CALLDATASIZE SUB DUP2 ADD SWAP1 PUSH2 0xA9 SWAP2 SWAP1 PUSH2 0x728 JUMP JUMPDEST PUSH2 0x230 JUMP JUMPDEST PUSH1 0x40 MLOAD PUSH2 0xBB SWAP2 SWAP1 PUSH2 0x384 JUMP JUMPDEST PUSH1 0x40 MLOAD DUP1 SWAP2 SUB SWAP1 RETURN JUMPDEST PUSH1 0x0 DUP1 PUSH1 0x0 SWAP1 POP PUSH1 0x0 DUP1 PUSH1 0x0 DUP4 DUP2 MSTORE PUSH1 0x20 ADD SWAP1 DUP2 MSTORE PUSH1 0x20 ADD PUSH1 0x0 KECCAK256 SWAP1 POP PUSH1 0x0 PUSH1 0x3C DUP1 PUSH1 0x18 DUP10 PUSH2 0xF3 SWAP2 SWAP1 PUSH2 0x7DA JUMP JUMPDEST PUSH2 0xFD SWAP2 SWAP1 PUSH2 0x7DA JUMP JUMPDEST PUSH2 0x107 SWAP2 SWAP1 PUSH2 0x7DA JUMP JUMPDEST TIMESTAMP PUSH2 0x112 SWAP2 SWAP1 PUSH2 0x834 JUMP JUMPDEST SWAP1 POP PUSH1 0x0 PUSH1 0x3C DUP1 PUSH1 0x18 DUP10 PUSH2 0x126 SWAP2 SWAP1 PUSH2 0x7DA JUMP JUMPDEST PUSH2 0x130 SWAP2 SWAP1 PUSH2 0x7DA JUMP JUMPDEST PUSH2 0x13A SWAP2 SWAP1 PUSH2 0x7DA JUMP JUMPDEST DUP3 PUSH2 0x145 SWAP2 SWAP1 PUSH2 0x834 JUMP JUMPDEST SWAP1 POP PUSH2 0x15D DUP3 DUP5 PUSH1 0x0 ADD PUSH2 0x26C SWAP1 SWAP2 SWAP1 PUSH4 0xFFFFFFFF AND JUMP JUMPDEST PUSH2 0x173 DUP2 DUP5 PUSH1 0x1 ADD PUSH2 0x26C SWAP1 SWAP2 SWAP1 PUSH4 0xFFFFFFFF AND JUMP JUMPDEST DUP6 DUP4 PUSH1 0x2 ADD DUP2 SWAP1 SSTORE POP DUP4 SWAP5 POP POP POP POP POP SWAP4 SWAP3 POP POP POP JUMP JUMPDEST PUSH2 0x192 PUSH2 0x286 JUMP JUMPDEST PUSH1 0x0 DUP1 DUP1 DUP2 MSTORE PUSH1 0x20 ADD SWAP1 DUP2 MSTORE PUSH1 0x20 ADD PUSH1 0x0 KECCAK256 PUSH1 0x40 MLOAD DUP1 PUSH1 0xA0 ADD PUSH1 0x40 MSTORE SWAP1 DUP2 PUSH1 0x0 DUP3 ADD PUSH1 0x40 MLOAD DUP1 PUSH1 0x20 ADD PUSH1 0x40 MSTORE SWAP1 DUP2 PUSH1 0x0 DUP3 ADD SLOAD DUP2 MSTORE POP POP DUP2 MSTORE PUSH1 0x20 ADD PUSH1 0x1 DUP3 ADD PUSH1 0x40 MLOAD DUP1 PUSH1 0x20 ADD PUSH1 0x40 MSTORE SWAP1 DUP2 PUSH1 0x0 DUP3 ADD SLOAD DUP2 MSTORE POP POP DUP2 MSTORE PUSH1 0x20 ADD PUSH1 0x2 DUP3 ADD SLOAD DUP2 MSTORE PUSH1 0x20 ADD PUSH1 0x3 DUP3 ADD PUSH1 0x0 SWAP1 SLOAD SWAP1 PUSH2 0x100 EXP SWAP1 DIV PUSH1 0xFF AND ISZERO ISZERO ISZERO ISZERO DUP2 MSTORE PUSH1 0x20 ADD PUSH1 0x3 DUP3 ADD PUSH1 0x1 SWAP1 SLOAD SWAP1 PUSH2 0x100 EXP SWAP1 DIV PUSH1 0xFF AND ISZERO ISZERO ISZERO ISZERO DUP2 MSTORE POP POP SWAP1 POP SWAP1 JUMP JUMPDEST PUSH1 0x0 DUP5 DUP5 DUP5 DUP5 PUSH1 0x40 MLOAD PUSH1 0x20 ADD PUSH2 0x249 SWAP5 SWAP4 SWAP3 SWAP2 SWAP1 PUSH2 0x9F2 JUMP JUMPDEST PUSH1 0x40 MLOAD PUSH1 0x20 DUP2 DUP4 SUB SUB DUP2 MSTORE SWAP1 PUSH1 0x40 MSTORE DUP1 MLOAD SWAP1 PUSH1 0x20 ADD KECCAK256 PUSH1 0x0 SHR SWAP1 POP SWAP5 SWAP4 POP POP POP POP JUMP JUMPDEST PUSH2 0x3E8 DUP2 PUSH2 0x27A SWAP2 SWAP1 PUSH2 0x7DA JUMP JUMPDEST DUP3 PUSH1 0x0 ADD DUP2 SWAP1 SSTORE POP POP POP JUMP JUMPDEST PUSH1 0x40 MLOAD DUP1 PUSH1 0xA0 ADD PUSH1 0x40 MSTORE DUP1 PUSH2 0x299 PUSH2 0x2C5 JUMP JUMPDEST DUP2 MSTORE PUSH1 0x20 ADD PUSH2 0x2A6 PUSH2 0x2C5 JUMP JUMPDEST DUP2 MSTORE PUSH1 0x20 ADD PUSH1 0x0 DUP2 MSTORE PUSH1 0x20 ADD PUSH1 0x0 ISZERO ISZERO DUP2 MSTORE PUSH1 0x20 ADD PUSH1 0x0 ISZERO ISZERO DUP2 MSTORE POP SWAP1 JUMP JUMPDEST PUSH1 0x40 MLOAD DUP1 PUSH1 0x20 ADD PUSH1 0x40 MSTORE DUP1 PUSH1 0x0 DUP2 MSTORE POP SWAP1 JUMP JUMPDEST PUSH1 0x0 PUSH1 0x40 MLOAD SWAP1 POP SWAP1 JUMP JUMPDEST PUSH1 0x0 DUP1 REVERT JUMPDEST PUSH1 0x0 DUP1 REVERT JUMPDEST PUSH1 0x0 DUP2 SWAP1 POP SWAP2 SWAP1 POP JUMP JUMPDEST PUSH2 0x2FF DUP2 PUSH2 0x2EC JUMP JUMPDEST DUP2 EQ PUSH2 0x30A JUMPI PUSH1 0x0 DUP1 REVERT JUMPDEST POP JUMP JUMPDEST PUSH1 0x0 DUP2 CALLDATALOAD SWAP1 POP PUSH2 0x31C DUP2 PUSH2 0x2F6 JUMP JUMPDEST SWAP3 SWAP2 POP POP JUMP JUMPDEST PUSH1 0x0 DUP1 PUSH1 0x0 PUSH1 0x60 DUP5 DUP7 SUB SLT ISZERO PUSH2 0x33B JUMPI PUSH2 0x33A PUSH2 0x2E2 JUMP JUMPDEST JUMPDEST PUSH1 0x0 PUSH2 0x349 DUP7 DUP3 DUP8 ADD PUSH2 0x30D JUMP JUMPDEST SWAP4 POP POP PUSH1 0x20 PUSH2 0x35A DUP7 DUP3 DUP8 ADD PUSH2 0x30D JUMP JUMPDEST SWAP3 POP POP PUSH1 0x40 PUSH2 0x36B DUP7 DUP3 DUP8 ADD PUSH2 0x30D JUMP JUMPDEST SWAP2 POP POP SWAP3 POP SWAP3 POP SWAP3 JUMP JUMPDEST PUSH2 0x37E DUP2 PUSH2 0x2EC JUMP JUMPDEST DUP3 MSTORE POP POP JUMP JUMPDEST PUSH1 0x0 PUSH1 0x20 DUP3 ADD SWAP1 POP PUSH2 0x399 PUSH1 0x0 DUP4 ADD DUP5 PUSH2 0x375 JUMP JUMPDEST SWAP3 SWAP2 POP POP JUMP JUMPDEST PUSH2 0x3A8 DUP2 PUSH2 0x2EC JUMP JUMPDEST DUP3 MSTORE POP POP JUMP JUMPDEST PUSH1 0x20 DUP3 ADD PUSH1 0x0 DUP3 ADD MLOAD PUSH2 0x3C4 PUSH1 0x0 DUP6 ADD DUP3 PUSH2 0x39F JUMP JUMPDEST POP POP POP POP JUMP JUMPDEST PUSH1 0x0 DUP2 ISZERO ISZERO SWAP1 POP SWAP2 SWAP1 POP JUMP JUMPDEST PUSH2 0x3DF DUP2 PUSH2 0x3CA JUMP JUMPDEST DUP3 MSTORE POP POP JUMP JUMPDEST PUSH1 0xA0 DUP3 ADD PUSH1 0x0 DUP3 ADD MLOAD PUSH2 0x3FB PUSH1 0x0 DUP6 ADD DUP3 PUSH2 0x3AE JUMP JUMPDEST POP PUSH1 0x20 DUP3 ADD MLOAD PUSH2 0x40E PUSH1 0x20 DUP6 ADD DUP3 PUSH2 0x3AE JUMP JUMPDEST POP PUSH1 0x40 DUP3 ADD MLOAD PUSH2 0x421 PUSH1 0x40 DUP6 ADD DUP3 PUSH2 0x39F JUMP JUMPDEST POP PUSH1 0x60 DUP3 ADD MLOAD PUSH2 0x434 PUSH1 0x60 DUP6 ADD DUP3 PUSH2 0x3D6 JUMP JUMPDEST POP PUSH1 0x80 DUP3 ADD MLOAD PUSH2 0x447 PUSH1 0x80 DUP6 ADD DUP3 PUSH2 0x3D6 JUMP JUMPDEST POP POP POP POP JUMP JUMPDEST PUSH1 0x0 PUSH1 0xA0 DUP3 ADD SWAP1 POP PUSH2 0x462 PUSH1 0x0 DUP4 ADD DUP5 PUSH2 0x3E5 JUMP JUMPDEST SWAP3 SWAP2 POP POP JUMP JUMPDEST PUSH1 0x0 PUSH20 0xFFFFFFFFFFFFFFFFFFFFFFFFFFFFFFFFFFFFFFFF DUP3 AND SWAP1 POP SWAP2 SWAP1 POP JUMP JUMPDEST PUSH1 0x0 PUSH2 0x493 DUP3 PUSH2 0x468 JUMP JUMPDEST SWAP1 POP SWAP2 SWAP1 POP JUMP JUMPDEST PUSH2 0x4A3 DUP2 PUSH2 0x488 JUMP JUMPDEST DUP2 EQ PUSH2 0x4AE JUMPI PUSH1 0x0 DUP1 REVERT JUMPDEST POP JUMP JUMPDEST PUSH1 0x0 DUP2 CALLDATALOAD SWAP1 POP PUSH2 0x4C0 DUP2 PUSH2 0x49A JUMP JUMPDEST SWAP3 SWAP2 POP POP JUMP JUMPDEST PUSH1 0x0 DUP1 REVERT JUMPDEST PUSH1 0x0 PUSH1 0x1F NOT PUSH1 0x1F DUP4 ADD AND SWAP1 POP SWAP2 SWAP1 POP JUMP JUMPDEST PUSH32 0x4E487B7100000000000000000000000000000000000000000000000000000000 PUSH1 0x0 MSTORE PUSH1 0x41 PUSH1 0x4 MSTORE PUSH1 0x24 PUSH1 0x0 REVERT JUMPDEST PUSH2 0x514 DUP3 PUSH2 0x4CB JUMP JUMPDEST DUP2 ADD DUP2 DUP2 LT PUSH8 0xFFFFFFFFFFFFFFFF DUP3 GT OR ISZERO PUSH2 0x533 JUMPI PUSH2 0x532 PUSH2 0x4DC JUMP JUMPDEST JUMPDEST DUP1 PUSH1 0x40 MSTORE POP POP POP JUMP JUMPDEST PUSH1 0x0 PUSH2 0x546 PUSH2 0x2D8 JUMP JUMPDEST SWAP1 POP PUSH2 0x552 DUP3 DUP3 PUSH2 0x50B JUMP JUMPDEST SWAP2 SWAP1 POP JUMP JUMPDEST PUSH1 0x0 PUSH8 0xFFFFFFFFFFFFFFFF DUP3 GT ISZERO PUSH2 0x572 JUMPI PUSH2 0x571 PUSH2 0x4DC JUMP JUMPDEST JUMPDEST PUSH1 0x20 DUP3 MUL SWAP1 POP PUSH1 0x20 DUP2 ADD SWAP1 POP SWAP2 SWAP1 POP JUMP JUMPDEST PUSH1 0x0 DUP1 REVERT JUMPDEST PUSH1 0x0 DUP1 REVERT JUMPDEST PUSH1 0x0 PUSH8 0xFFFFFFFFFFFFFFFF DUP3 GT ISZERO PUSH2 0x5A8 JUMPI PUSH2 0x5A7 PUSH2 0x4DC JUMP JUMPDEST JUMPDEST PUSH2 0x5B1 DUP3 PUSH2 0x4CB JUMP JUMPDEST SWAP1 POP PUSH1 0x20 DUP2 ADD SWAP1 POP SWAP2 SWAP1 POP JUMP JUMPDEST DUP3 DUP2 DUP4 CALLDATACOPY PUSH1 0x0 DUP4 DUP4 ADD MSTORE POP POP POP JUMP JUMPDEST PUSH1 0x0 PUSH2 0x5E0 PUSH2 0x5DB DUP5 PUSH2 0x58D JUMP JUMPDEST PUSH2 0x53C JUMP JUMPDEST SWAP1 POP DUP3 DUP2 MSTORE PUSH1 0x20 DUP2 ADD DUP5 DUP5 DUP5 ADD GT ISZERO PUSH2 0x5FC JUMPI PUSH2 0x5FB PUSH2 0x588 JUMP JUMPDEST JUMPDEST PUSH2 0x607 DUP5 DUP3 DUP6 PUSH2 0x5BE JUMP JUMPDEST POP SWAP4 SWAP3 POP POP POP JUMP JUMPDEST PUSH1 0x0 DUP3 PUSH1 0x1F DUP4 ADD SLT PUSH2 0x624 JUMPI PUSH2 0x623 PUSH2 0x4C6 JUMP JUMPDEST JUMPDEST DUP2 CALLDATALOAD PUSH2 0x634 DUP5 DUP3 PUSH1 0x20 DUP7 ADD PUSH2 0x5CD JUMP JUMPDEST SWAP2 POP POP SWAP3 SWAP2 POP POP JUMP JUMPDEST PUSH1 0x0 PUSH2 0x650 PUSH2 0x64B DUP5 PUSH2 0x557 JUMP JUMPDEST PUSH2 0x53C JUMP JUMPDEST SWAP1 POP DUP1 DUP4 DUP3 MSTORE PUSH1 0x20 DUP3 ADD SWAP1 POP PUSH1 0x20 DUP5 MUL DUP4 ADD DUP6 DUP2 GT ISZERO PUSH2 0x673 JUMPI PUSH2 0x672 PUSH2 0x583 JUMP JUMPDEST JUMPDEST DUP4 JUMPDEST DUP2 DUP2 LT ISZERO PUSH2 0x6BA JUMPI DUP1 CALLDATALOAD PUSH8 0xFFFFFFFFFFFFFFFF DUP2 GT ISZERO PUSH2 0x698 JUMPI PUSH2 0x697 PUSH2 0x4C6 JUMP JUMPDEST JUMPDEST DUP1 DUP7 ADD PUSH2 0x6A5 DUP10 DUP3 PUSH2 0x60F JUMP JUMPDEST DUP6 MSTORE PUSH1 0x20 DUP6 ADD SWAP5 POP POP POP PUSH1 0x20 DUP2 ADD SWAP1 POP PUSH2 0x675 JUMP JUMPDEST POP POP POP SWAP4 SWAP3 POP POP POP JUMP JUMPDEST PUSH1 0x0 DUP3 PUSH1 0x1F DUP4 ADD SLT PUSH2 0x6D9 JUMPI PUSH2 0x6D8 PUSH2 0x4C6 JUMP JUMPDEST JUMPDEST DUP2 CALLDATALOAD PUSH2 0x6E9 DUP5 DUP3 PUSH1 0x20 DUP7 ADD PUSH2 0x63D JUMP JUMPDEST SWAP2 POP POP SWAP3 SWAP2 POP POP JUMP JUMPDEST PUSH1 0x0 DUP2 SWAP1 POP SWAP2 SWAP1 POP JUMP JUMPDEST PUSH2 0x705 DUP2 PUSH2 0x6F2 JUMP JUMPDEST DUP2 EQ PUSH2 0x710 JUMPI PUSH1 0x0 DUP1 REVERT JUMPDEST POP JUMP JUMPDEST PUSH1 0x0 DUP2 CALLDATALOAD SWAP1 POP PUSH2 0x722 DUP2 PUSH2 0x6FC JUMP JUMPDEST SWAP3 SWAP2 POP POP JUMP JUMPDEST PUSH1 0x0 DUP1 PUSH1 0x0 DUP1 PUSH1 0x80 DUP6 DUP8 SUB SLT ISZERO PUSH2 0x742 JUMPI PUSH2 0x741 PUSH2 0x2E2 JUMP JUMPDEST JUMPDEST PUSH1 0x0 PUSH2 0x750 DUP8 DUP3 DUP9 ADD PUSH2 0x4B1 JUMP JUMPDEST SWAP5 POP POP PUSH1 0x20 PUSH2 0x761 DUP8 DUP3 DUP9 ADD PUSH2 0x4B1 JUMP JUMPDEST SWAP4 POP POP PUSH1 0x40 DUP6 ADD CALLDATALOAD PUSH8 0xFFFFFFFFFFFFFFFF DUP2 GT ISZERO PUSH2 0x782 JUMPI PUSH2 0x781 PUSH2 0x2E7 JUMP JUMPDEST JUMPDEST PUSH2 0x78E DUP8 DUP3 DUP9 ADD PUSH2 0x6C4 JUMP JUMPDEST SWAP3 POP POP PUSH1 0x60 PUSH2 0x79F DUP8 DUP3 DUP9 ADD PUSH2 0x713 JUMP JUMPDEST SWAP2 POP POP SWAP3 SWAP6 SWAP2 SWAP5 POP SWAP3 POP JUMP JUMPDEST PUSH32 0x4E487B7100000000000000000000000000000000000000000000000000000000 PUSH1 0x0 MSTORE PUSH1 0x11 PUSH1 0x4 MSTORE PUSH1 0x24 PUSH1 0x0 REVERT JUMPDEST PUSH1 0x0 PUSH2 0x7E5 DUP3 PUSH2 0x2EC JUMP JUMPDEST SWAP2 POP PUSH2 0x7F0 DUP4 PUSH2 0x2EC JUMP JUMPDEST SWAP3 POP DUP2 PUSH32 0xFFFFFFFFFFFFFFFFFFFFFFFFFFFFFFFFFFFFFFFFFFFFFFFFFFFFFFFFFFFFFFFF DIV DUP4 GT DUP3 ISZERO ISZERO AND ISZERO PUSH2 0x829 JUMPI PUSH2 0x828 PUSH2 0x7AB JUMP JUMPDEST JUMPDEST DUP3 DUP3 MUL SWAP1 POP SWAP3 SWAP2 POP POP JUMP JUMPDEST PUSH1 0x0 PUSH2 0x83F DUP3 PUSH2 0x2EC JUMP JUMPDEST SWAP2 POP PUSH2 0x84A DUP4 PUSH2 0x2EC JUMP JUMPDEST SWAP3 POP DUP3 PUSH32 0xFFFFFFFFFFFFFFFFFFFFFFFFFFFFFFFFFFFFFFFFFFFFFFFFFFFFFFFFFFFFFFFF SUB DUP3 GT ISZERO PUSH2 0x87F JUMPI PUSH2 0x87E PUSH2 0x7AB JUMP JUMPDEST JUMPDEST DUP3 DUP3 ADD SWAP1 POP SWAP3 SWAP2 POP POP JUMP JUMPDEST PUSH2 0x893 DUP2 PUSH2 0x488 JUMP JUMPDEST DUP3 MSTORE POP POP JUMP JUMPDEST PUSH1 0x0 DUP2 MLOAD SWAP1 POP SWAP2 SWAP1 POP JUMP JUMPDEST PUSH1 0x0 DUP3 DUP3 MSTORE PUSH1 0x20 DUP3 ADD SWAP1 POP SWAP3 SWAP2 POP POP JUMP JUMPDEST PUSH1 0x0 DUP2 SWAP1 POP PUSH1 0x20 DUP3 ADD SWAP1 POP SWAP2 SWAP1 POP JUMP JUMPDEST PUSH1 0x0 DUP2 MLOAD SWAP1 POP SWAP2 SWAP1 POP JUMP JUMPDEST PUSH1 0x0 DUP3 DUP3 MSTORE PUSH1 0x20 DUP3 ADD SWAP1 POP SWAP3 SWAP2 POP POP JUMP JUMPDEST PUSH1 0x0 JUMPDEST DUP4 DUP2 LT ISZERO PUSH2 0x8FF JUMPI DUP1 DUP3 ADD MLOAD DUP2 DUP5 ADD MSTORE PUSH1 0x20 DUP2 ADD SWAP1 POP PUSH2 0x8E4 JUMP JUMPDEST DUP4 DUP2 GT ISZERO PUSH2 0x90E JUMPI PUSH1 0x0 DUP5 DUP5 ADD MSTORE JUMPDEST POP POP POP POP JUMP JUMPDEST PUSH1 0x0 PUSH2 0x91F DUP3 PUSH2 0x8C5 JUMP JUMPDEST PUSH2 0x929 DUP2 DUP6 PUSH2 0x8D0 JUMP JUMPDEST SWAP4 POP PUSH2 0x939 DUP2 DUP6 PUSH1 0x20 DUP7 ADD PUSH2 0x8E1 JUMP JUMPDEST PUSH2 0x942 DUP2 PUSH2 0x4CB JUMP JUMPDEST DUP5 ADD SWAP2 POP POP SWAP3 SWAP2 POP POP JUMP JUMPDEST PUSH1 0x0 PUSH2 0x959 DUP4 DUP4 PUSH2 0x914 JUMP JUMPDEST SWAP1 POP SWAP3 SWAP2 POP POP JUMP JUMPDEST PUSH1 0x0 PUSH1 0x20 DUP3 ADD SWAP1 POP SWAP2 SWAP1 POP JUMP JUMPDEST PUSH1 0x0 PUSH2 0x979 DUP3 PUSH2 0x899 JUMP JUMPDEST PUSH2 0x983 DUP2 DUP6 PUSH2 0x8A4 JUMP JUMPDEST SWAP4 POP DUP4 PUSH1 0x20 DUP3 MUL DUP6 ADD PUSH2 0x995 DUP6 PUSH2 0x8B5 JUMP JUMPDEST DUP1 PUSH1 0x0 JUMPDEST DUP6 DUP2 LT ISZERO PUSH2 0x9D1 JUMPI DUP5 DUP5 SUB DUP10 MSTORE DUP2 MLOAD PUSH2 0x9B2 DUP6 DUP3 PUSH2 0x94D JUMP JUMPDEST SWAP5 POP PUSH2 0x9BD DUP4 PUSH2 0x961 JUMP JUMPDEST SWAP3 POP PUSH1 0x20 DUP11 ADD SWAP10 POP POP PUSH1 0x1 DUP2 ADD SWAP1 POP PUSH2 0x999 JUMP JUMPDEST POP DUP3 SWAP8 POP DUP8 SWAP6 POP POP POP POP POP POP SWAP3 SWAP2 POP POP JUMP JUMPDEST PUSH2 0x9EC DUP2 PUSH2 0x6F2 JUMP JUMPDEST DUP3 MSTORE POP POP JUMP JUMPDEST PUSH1 0x0 PUSH1 0x80 DUP3 ADD SWAP1 POP PUSH2 0xA07 PUSH1 0x0 DUP4 ADD DUP8 PUSH2 0x88A JUMP JUMPDEST PUSH2 0xA14 PUSH1 0x20 DUP4 ADD DUP7 PUSH2 0x88A JUMP JUMPDEST DUP2 DUP2 SUB PUSH1 0x40 DUP4 ADD MSTORE PUSH2 0xA26 DUP2 DUP6 PUSH2 0x96E JUMP JUMPDEST SWAP1 POP PUSH2 0xA35 PUSH1 0x60 DUP4 ADD DUP5 PUSH2 0x9E3 JUMP JUMPDEST SWAP6 SWAP5 POP POP POP POP POP JUMP INVALID LOG2 PUSH5 0x6970667358 0x22 SLT KECCAK256 CALLDATACOPY 0xEC BALANCE NUMBER PUSH23 0xB7DE175EDB973A034BE4D4A5B83F6501863D5958873030 DUP14 RETURN ORIGIN 0xBE PUSH5 0x736F6C6343 STOP ADDMOD 0xD STOP CALLER "
				},
				"gasEstimates": {
					"creation": {
						"codeDepositCost": "535200",
						"executionCost": "568",
						"totalCost": "535768"
					},
					"external": {
						"get()": "infinite",
						"hashProposal(address,address,bytes[],bytes32)": "infinite",
						"proposal(uint256,uint256,uint256)": "infinite"
					}
				},
				"methodIdentifiers": {
					"get()": "6d4ce63c",
					"hashProposal(address,address,bytes[],bytes32)": "ee4d6020",
					"proposal(uint256,uint256,uint256)": "2e1b2cc9"
				}
			},
			"storageLayout": {
				"storage": [
					{
						"astId": 24,
						"contract": ".workspaces/default_workspace/unMiracle/UMRCmiracle.sol:UMRproposal",
						"label": "_proposals",
						"offset": 0,
						"slot": "0",
						"type": "t_mapping(t_uint256,t_struct(ProposalCore)19_storage)"
					}
				],
				"types": {
					"t_bool": {
						"encoding": "inplace",
						"label": "bool",
						"numberOfBytes": "1"
					},
					"t_mapping(t_uint256,t_struct(ProposalCore)19_storage)": {
						"encoding": "mapping",
						"key": "t_uint256",
						"label": "mapping(uint256 => struct UMRproposal.ProposalCore)",
						"numberOfBytes": "32",
						"value": "t_struct(ProposalCore)19_storage"
					},
					"t_struct(ProposalCore)19_storage": {
						"encoding": "inplace",
						"label": "struct UMRproposal.ProposalCore",
						"members": [
							{
								"astId": 9,
								"contract": ".workspaces/default_workspace/unMiracle/UMRCmiracle.sol:UMRproposal",
								"label": "donationStart",
								"offset": 0,
								"slot": "0",
								"type": "t_struct(Timestamp)141_storage"
							},
							{
								"astId": 12,
								"contract": ".workspaces/default_workspace/unMiracle/UMRCmiracle.sol:UMRproposal",
								"label": "donationEnd",
								"offset": 0,
								"slot": "1",
								"type": "t_struct(Timestamp)141_storage"
							},
							{
								"astId": 14,
								"contract": ".workspaces/default_workspace/unMiracle/UMRCmiracle.sol:UMRproposal",
								"label": "donateMinimum",
								"offset": 0,
								"slot": "2",
								"type": "t_uint256"
							},
							{
								"astId": 16,
								"contract": ".workspaces/default_workspace/unMiracle/UMRCmiracle.sol:UMRproposal",
								"label": "executed",
								"offset": 0,
								"slot": "3",
								"type": "t_bool"
							},
							{
								"astId": 18,
								"contract": ".workspaces/default_workspace/unMiracle/UMRCmiracle.sol:UMRproposal",
								"label": "canceled",
								"offset": 1,
								"slot": "3",
								"type": "t_bool"
							}
						],
						"numberOfBytes": "128"
					},
					"t_struct(Timestamp)141_storage": {
						"encoding": "inplace",
						"label": "struct Time.Timestamp",
						"members": [
							{
								"astId": 140,
								"contract": ".workspaces/default_workspace/unMiracle/UMRCmiracle.sol:UMRproposal",
								"label": "deadline",
								"offset": 0,
								"slot": "0",
								"type": "t_uint256"
							}
						],
						"numberOfBytes": "32"
					},
					"t_uint256": {
						"encoding": "inplace",
						"label": "uint256",
						"numberOfBytes": "32"
					}
				}
			},
			"userdoc": {
				"kind": "user",
				"methods": {},
				"version": 1
			}
		}
	}
}