{
	".workspaces/default_workspace/unMiracle/test.sol": {
		"test": {
			"abi": [
				{
					"inputs": [],
					"name": "blockN",
					"outputs": [
						{
							"internalType": "uint256",
							"name": "",
							"type": "uint256"
						}
					],
					"stateMutability": "view",
					"type": "function"
				},
				{
					"inputs": [],
					"name": "testTime",
					"outputs": [
						{
							"internalType": "uint64",
							"name": "",
							"type": "uint64"
						}
					],
					"stateMutability": "view",
					"type": "function"
				},
				{
					"inputs": [],
					"name": "votingDelay",
					"outputs": [
						{
							"internalType": "uint256",
							"name": "",
							"type": "uint256"
						}
					],
					"stateMutability": "pure",
					"type": "function"
				},
				{
					"inputs": [],
					"name": "votingPeriod",
					"outputs": [
						{
							"internalType": "uint256",
							"name": "",
							"type": "uint256"
						}
					],
					"stateMutability": "pure",
					"type": "function"
				}
			],
			"devdoc": {
				"kind": "dev",
				"methods": {},
				"version": 1
			},
			"evm": {
				"assembly": "    /* \".workspaces/default_workspace/unMiracle/test.sol\":170:675  contract test {... */\n  mstore(0x40, 0x80)\n  callvalue\n  dup1\n  iszero\n  tag_1\n  jumpi\n  0x00\n  dup1\n  revert\ntag_1:\n  pop\n  dataSize(sub_0)\n  dup1\n  dataOffset(sub_0)\n  0x00\n  codecopy\n  0x00\n  return\nstop\n\nsub_0: assembly {\n        /* \".workspaces/default_workspace/unMiracle/test.sol\":170:675  contract test {... */\n      mstore(0x40, 0x80)\n      callvalue\n      dup1\n      iszero\n      tag_1\n      jumpi\n      0x00\n      dup1\n      revert\n    tag_1:\n      pop\n      jumpi(tag_2, lt(calldatasize, 0x04))\n      shr(0xe0, calldataload(0x00))\n      dup1\n      0x02a251a3\n      eq\n      tag_3\n      jumpi\n      dup1\n      0x3932abb1\n      eq\n      tag_4\n      jumpi\n      dup1\n      0x3c35a0c1\n      eq\n      tag_5\n      jumpi\n      dup1\n      0xa52dc2e7\n      eq\n      tag_6\n      jumpi\n    tag_2:\n      0x00\n      dup1\n      revert\n        /* \".workspaces/default_workspace/unMiracle/test.sol\":274:365  function votingPeriod() public pure returns(uint256) {... */\n    tag_3:\n      tag_7\n      tag_8\n      jump\t// in\n    tag_7:\n      mload(0x40)\n      tag_9\n      swap2\n      swap1\n      tag_10\n      jump\t// in\n    tag_9:\n      mload(0x40)\n      dup1\n      swap2\n      sub\n      swap1\n      return\n        /* \".workspaces/default_workspace/unMiracle/test.sol\":191:268  function votingDelay() public pure returns(uint256) {... */\n    tag_4:\n      tag_11\n      tag_12\n      jump\t// in\n    tag_11:\n      mload(0x40)\n      tag_13\n      swap2\n      swap1\n      tag_10\n      jump\t// in\n    tag_13:\n      mload(0x40)\n      dup1\n      swap2\n      sub\n      swap1\n      return\n        /* \".workspaces/default_workspace/unMiracle/test.sol\":371:585  function testTime() public view returns(uint64) {... */\n    tag_5:\n      tag_14\n      tag_15\n      jump\t// in\n    tag_14:\n      mload(0x40)\n      tag_16\n      swap2\n      swap1\n      tag_17\n      jump\t// in\n    tag_16:\n      mload(0x40)\n      dup1\n      swap2\n      sub\n      swap1\n      return\n        /* \".workspaces/default_workspace/unMiracle/test.sol\":590:673  function blockN() public view returns(uint256) {... */\n    tag_6:\n      tag_18\n      tag_19\n      jump\t// in\n    tag_18:\n      mload(0x40)\n      tag_20\n      swap2\n      swap1\n      tag_10\n      jump\t// in\n    tag_20:\n      mload(0x40)\n      dup1\n      swap2\n      sub\n      swap1\n      return\n        /* \".workspaces/default_workspace/unMiracle/test.sol\":274:365  function votingPeriod() public pure returns(uint256) {... */\n    tag_8:\n        /* \".workspaces/default_workspace/unMiracle/test.sol\":318:325  uint256 */\n      0x00\n        /* \".workspaces/default_workspace/unMiracle/test.sol\":344:349  45818 */\n      0xb2fa\n        /* \".workspaces/default_workspace/unMiracle/test.sol\":337:349  return 45818 */\n      swap1\n      pop\n        /* \".workspaces/default_workspace/unMiracle/test.sol\":274:365  function votingPeriod() public pure returns(uint256) {... */\n      swap1\n      jump\t// out\n        /* \".workspaces/default_workspace/unMiracle/test.sol\":191:268  function votingDelay() public pure returns(uint256) {... */\n    tag_12:\n        /* \".workspaces/default_workspace/unMiracle/test.sol\":234:241  uint256 */\n      0x00\n        /* \".workspaces/default_workspace/unMiracle/test.sol\":260:261  1 */\n      0x01\n        /* \".workspaces/default_workspace/unMiracle/test.sol\":253:261  return 1 */\n      swap1\n      pop\n        /* \".workspaces/default_workspace/unMiracle/test.sol\":191:268  function votingDelay() public pure returns(uint256) {... */\n      swap1\n      jump\t// out\n        /* \".workspaces/default_workspace/unMiracle/test.sol\":371:585  function testTime() public view returns(uint64) {... */\n    tag_15:\n        /* \".workspaces/default_workspace/unMiracle/test.sol\":411:417  uint64 */\n      0x00\n        /* \".workspaces/default_workspace/unMiracle/test.sol\":429:444  uint64 snapshot */\n      dup1\n        /* \".workspaces/default_workspace/unMiracle/test.sol\":477:490  votingDelay() */\n      tag_24\n        /* \".workspaces/default_workspace/unMiracle/test.sol\":477:488  votingDelay */\n      tag_12\n        /* \".workspaces/default_workspace/unMiracle/test.sol\":477:490  votingDelay() */\n      jump\t// in\n    tag_24:\n        /* \".workspaces/default_workspace/unMiracle/test.sol\":454:466  block.number */\n      number\n        /* \".workspaces/default_workspace/unMiracle/test.sol\":447:491  uint64(block.number) + uint64(votingDelay()) */\n      tag_25\n      swap2\n      swap1\n      tag_26\n      jump\t// in\n    tag_25:\n        /* \".workspaces/default_workspace/unMiracle/test.sol\":429:491  uint64 snapshot = uint64(block.number) + uint64(votingDelay()) */\n      swap1\n      pop\n        /* \".workspaces/default_workspace/unMiracle/test.sol\":501:516  uint64 deadline */\n      0x00\n        /* \".workspaces/default_workspace/unMiracle/test.sol\":537:551  votingPeriod() */\n      tag_27\n        /* \".workspaces/default_workspace/unMiracle/test.sol\":537:549  votingPeriod */\n      tag_8\n        /* \".workspaces/default_workspace/unMiracle/test.sol\":537:551  votingPeriod() */\n      jump\t// in\n    tag_27:\n        /* \".workspaces/default_workspace/unMiracle/test.sol\":519:527  snapshot */\n      dup3\n        /* \".workspaces/default_workspace/unMiracle/test.sol\":519:552  snapshot + uint64(votingPeriod()) */\n      tag_28\n      swap2\n      swap1\n      tag_26\n      jump\t// in\n    tag_28:\n        /* \".workspaces/default_workspace/unMiracle/test.sol\":501:552  uint64 deadline = snapshot + uint64(votingPeriod()) */\n      swap1\n      pop\n        /* \".workspaces/default_workspace/unMiracle/test.sol\":570:578  deadline */\n      dup1\n        /* \".workspaces/default_workspace/unMiracle/test.sol\":563:578  return deadline */\n      swap3\n      pop\n      pop\n      pop\n        /* \".workspaces/default_workspace/unMiracle/test.sol\":371:585  function testTime() public view returns(uint64) {... */\n      swap1\n      jump\t// out\n        /* \".workspaces/default_workspace/unMiracle/test.sol\":590:673  function blockN() public view returns(uint256) {... */\n    tag_19:\n        /* \".workspaces/default_workspace/unMiracle/test.sol\":628:635  uint256 */\n      0x00\n        /* \".workspaces/default_workspace/unMiracle/test.sol\":654:666  block.number */\n      number\n        /* \".workspaces/default_workspace/unMiracle/test.sol\":647:666  return block.number */\n      swap1\n      pop\n        /* \".workspaces/default_workspace/unMiracle/test.sol\":590:673  function blockN() public view returns(uint256) {... */\n      swap1\n      jump\t// out\n        /* \"#utility.yul\":7:125   */\n    tag_31:\n        /* \"#utility.yul\":94:118   */\n      tag_33\n        /* \"#utility.yul\":112:117   */\n      dup2\n        /* \"#utility.yul\":94:118   */\n      tag_34\n      jump\t// in\n    tag_33:\n        /* \"#utility.yul\":89:92   */\n      dup3\n        /* \"#utility.yul\":82:119   */\n      mstore\n        /* \"#utility.yul\":72:125   */\n      pop\n      pop\n      jump\t// out\n        /* \"#utility.yul\":131:246   */\n    tag_35:\n        /* \"#utility.yul\":216:239   */\n      tag_37\n        /* \"#utility.yul\":233:238   */\n      dup2\n        /* \"#utility.yul\":216:239   */\n      tag_38\n      jump\t// in\n    tag_37:\n        /* \"#utility.yul\":211:214   */\n      dup3\n        /* \"#utility.yul\":204:240   */\n      mstore\n        /* \"#utility.yul\":194:246   */\n      pop\n      pop\n      jump\t// out\n        /* \"#utility.yul\":252:474   */\n    tag_10:\n        /* \"#utility.yul\":345:349   */\n      0x00\n        /* \"#utility.yul\":383:385   */\n      0x20\n        /* \"#utility.yul\":372:381   */\n      dup3\n        /* \"#utility.yul\":368:386   */\n      add\n        /* \"#utility.yul\":360:386   */\n      swap1\n      pop\n        /* \"#utility.yul\":396:467   */\n      tag_40\n        /* \"#utility.yul\":464:465   */\n      0x00\n        /* \"#utility.yul\":453:462   */\n      dup4\n        /* \"#utility.yul\":449:466   */\n      add\n        /* \"#utility.yul\":440:446   */\n      dup5\n        /* \"#utility.yul\":396:467   */\n      tag_31\n      jump\t// in\n    tag_40:\n        /* \"#utility.yul\":350:474   */\n      swap3\n      swap2\n      pop\n      pop\n      jump\t// out\n        /* \"#utility.yul\":480:698   */\n    tag_17:\n        /* \"#utility.yul\":571:575   */\n      0x00\n        /* \"#utility.yul\":609:611   */\n      0x20\n        /* \"#utility.yul\":598:607   */\n      dup3\n        /* \"#utility.yul\":594:612   */\n      add\n        /* \"#utility.yul\":586:612   */\n      swap1\n      pop\n        /* \"#utility.yul\":622:691   */\n      tag_42\n        /* \"#utility.yul\":688:689   */\n      0x00\n        /* \"#utility.yul\":677:686   */\n      dup4\n        /* \"#utility.yul\":673:690   */\n      add\n        /* \"#utility.yul\":664:670   */\n      dup5\n        /* \"#utility.yul\":622:691   */\n      tag_35\n      jump\t// in\n    tag_42:\n        /* \"#utility.yul\":576:698   */\n      swap3\n      swap2\n      pop\n      pop\n      jump\t// out\n        /* \"#utility.yul\":704:958   */\n    tag_26:\n        /* \"#utility.yul\":743:746   */\n      0x00\n        /* \"#utility.yul\":762:781   */\n      tag_44\n        /* \"#utility.yul\":779:780   */\n      dup3\n        /* \"#utility.yul\":762:781   */\n      tag_38\n      jump\t// in\n    tag_44:\n        /* \"#utility.yul\":757:781   */\n      swap2\n      pop\n        /* \"#utility.yul\":795:814   */\n      tag_45\n        /* \"#utility.yul\":812:813   */\n      dup4\n        /* \"#utility.yul\":795:814   */\n      tag_38\n      jump\t// in\n    tag_45:\n        /* \"#utility.yul\":790:814   */\n      swap3\n      pop\n        /* \"#utility.yul\":900:901   */\n      dup3\n        /* \"#utility.yul\":880:898   */\n      0xffffffffffffffff\n        /* \"#utility.yul\":876:902   */\n      sub\n        /* \"#utility.yul\":873:874   */\n      dup3\n        /* \"#utility.yul\":870:903   */\n      gt\n        /* \"#utility.yul\":867:869   */\n      iszero\n      tag_46\n      jumpi\n        /* \"#utility.yul\":906:924   */\n      tag_47\n      tag_48\n      jump\t// in\n    tag_47:\n        /* \"#utility.yul\":867:869   */\n    tag_46:\n        /* \"#utility.yul\":950:951   */\n      dup3\n        /* \"#utility.yul\":947:948   */\n      dup3\n        /* \"#utility.yul\":943:952   */\n      add\n        /* \"#utility.yul\":936:952   */\n      swap1\n      pop\n        /* \"#utility.yul\":747:958   */\n      swap3\n      swap2\n      pop\n      pop\n      jump\t// out\n        /* \"#utility.yul\":964:1041   */\n    tag_34:\n        /* \"#utility.yul\":1001:1008   */\n      0x00\n        /* \"#utility.yul\":1030:1035   */\n      dup2\n        /* \"#utility.yul\":1019:1035   */\n      swap1\n      pop\n        /* \"#utility.yul\":1009:1041   */\n      swap2\n      swap1\n      pop\n      jump\t// out\n        /* \"#utility.yul\":1047:1148   */\n    tag_38:\n        /* \"#utility.yul\":1083:1090   */\n      0x00\n        /* \"#utility.yul\":1123:1141   */\n      0xffffffffffffffff\n        /* \"#utility.yul\":1116:1121   */\n      dup3\n        /* \"#utility.yul\":1112:1142   */\n      and\n        /* \"#utility.yul\":1101:1142   */\n      swap1\n      pop\n        /* \"#utility.yul\":1091:1148   */\n      swap2\n      swap1\n      pop\n      jump\t// out\n        /* \"#utility.yul\":1154:1334   */\n    tag_48:\n        /* \"#utility.yul\":1202:1279   */\n      0x4e487b7100000000000000000000000000000000000000000000000000000000\n        /* \"#utility.yul\":1199:1200   */\n      0x00\n        /* \"#utility.yul\":1192:1280   */\n      mstore\n        /* \"#utility.yul\":1299:1303   */\n      0x11\n        /* \"#utility.yul\":1296:1297   */\n      0x04\n        /* \"#utility.yul\":1289:1304   */\n      mstore\n        /* \"#utility.yul\":1323:1327   */\n      0x24\n        /* \"#utility.yul\":1320:1321   */\n      0x00\n        /* \"#utility.yul\":1313:1328   */\n      revert\n\n    auxdata: 0xa2646970667358221220628f8fe8282464d8c3e0194ac0a4d252f59e61f29490e8f693457786335aebea64736f6c63430008040033\n}\n",
				"bytecode": {
					"linkReferences": {},
					"object": "608060405234801561001057600080fd5b50610230806100206000396000f3fe608060405234801561001057600080fd5b506004361061004c5760003560e01c806302a251a3146100515780633932abb11461006f5780633c35a0c11461008d578063a52dc2e7146100ab575b600080fd5b6100596100c9565b6040516100669190610139565b60405180910390f35b6100776100d3565b6040516100849190610139565b60405180910390f35b6100956100dc565b6040516100a29190610154565b60405180910390f35b6100b3610113565b6040516100c09190610139565b60405180910390f35b600061b2fa905090565b60006001905090565b6000806100e76100d3565b436100f2919061016f565b905060006100fe6100c9565b82610109919061016f565b9050809250505090565b600043905090565b610124816101ad565b82525050565b610133816101b7565b82525050565b600060208201905061014e600083018461011b565b92915050565b6000602082019050610169600083018461012a565b92915050565b600061017a826101b7565b9150610185836101b7565b92508267ffffffffffffffff038211156101a2576101a16101cb565b5b828201905092915050565b6000819050919050565b600067ffffffffffffffff82169050919050565b7f4e487b7100000000000000000000000000000000000000000000000000000000600052601160045260246000fdfea2646970667358221220628f8fe8282464d8c3e0194ac0a4d252f59e61f29490e8f693457786335aebea64736f6c63430008040033",
					"opcodes": "PUSH1 0x80 PUSH1 0x40 MSTORE CALLVALUE DUP1 ISZERO PUSH2 0x10 JUMPI PUSH1 0x0 DUP1 REVERT JUMPDEST POP PUSH2 0x230 DUP1 PUSH2 0x20 PUSH1 0x0 CODECOPY PUSH1 0x0 RETURN INVALID PUSH1 0x80 PUSH1 0x40 MSTORE CALLVALUE DUP1 ISZERO PUSH2 0x10 JUMPI PUSH1 0x0 DUP1 REVERT JUMPDEST POP PUSH1 0x4 CALLDATASIZE LT PUSH2 0x4C JUMPI PUSH1 0x0 CALLDATALOAD PUSH1 0xE0 SHR DUP1 PUSH4 0x2A251A3 EQ PUSH2 0x51 JUMPI DUP1 PUSH4 0x3932ABB1 EQ PUSH2 0x6F JUMPI DUP1 PUSH4 0x3C35A0C1 EQ PUSH2 0x8D JUMPI DUP1 PUSH4 0xA52DC2E7 EQ PUSH2 0xAB JUMPI JUMPDEST PUSH1 0x0 DUP1 REVERT JUMPDEST PUSH2 0x59 PUSH2 0xC9 JUMP JUMPDEST PUSH1 0x40 MLOAD PUSH2 0x66 SWAP2 SWAP1 PUSH2 0x139 JUMP JUMPDEST PUSH1 0x40 MLOAD DUP1 SWAP2 SUB SWAP1 RETURN JUMPDEST PUSH2 0x77 PUSH2 0xD3 JUMP JUMPDEST PUSH1 0x40 MLOAD PUSH2 0x84 SWAP2 SWAP1 PUSH2 0x139 JUMP JUMPDEST PUSH1 0x40 MLOAD DUP1 SWAP2 SUB SWAP1 RETURN JUMPDEST PUSH2 0x95 PUSH2 0xDC JUMP JUMPDEST PUSH1 0x40 MLOAD PUSH2 0xA2 SWAP2 SWAP1 PUSH2 0x154 JUMP JUMPDEST PUSH1 0x40 MLOAD DUP1 SWAP2 SUB SWAP1 RETURN JUMPDEST PUSH2 0xB3 PUSH2 0x113 JUMP JUMPDEST PUSH1 0x40 MLOAD PUSH2 0xC0 SWAP2 SWAP1 PUSH2 0x139 JUMP JUMPDEST PUSH1 0x40 MLOAD DUP1 SWAP2 SUB SWAP1 RETURN JUMPDEST PUSH1 0x0 PUSH2 0xB2FA SWAP1 POP SWAP1 JUMP JUMPDEST PUSH1 0x0 PUSH1 0x1 SWAP1 POP SWAP1 JUMP JUMPDEST PUSH1 0x0 DUP1 PUSH2 0xE7 PUSH2 0xD3 JUMP JUMPDEST NUMBER PUSH2 0xF2 SWAP2 SWAP1 PUSH2 0x16F JUMP JUMPDEST SWAP1 POP PUSH1 0x0 PUSH2 0xFE PUSH2 0xC9 JUMP JUMPDEST DUP3 PUSH2 0x109 SWAP2 SWAP1 PUSH2 0x16F JUMP JUMPDEST SWAP1 POP DUP1 SWAP3 POP POP POP SWAP1 JUMP JUMPDEST PUSH1 0x0 NUMBER SWAP1 POP SWAP1 JUMP JUMPDEST PUSH2 0x124 DUP2 PUSH2 0x1AD JUMP JUMPDEST DUP3 MSTORE POP POP JUMP JUMPDEST PUSH2 0x133 DUP2 PUSH2 0x1B7 JUMP JUMPDEST DUP3 MSTORE POP POP JUMP JUMPDEST PUSH1 0x0 PUSH1 0x20 DUP3 ADD SWAP1 POP PUSH2 0x14E PUSH1 0x0 DUP4 ADD DUP5 PUSH2 0x11B JUMP JUMPDEST SWAP3 SWAP2 POP POP JUMP JUMPDEST PUSH1 0x0 PUSH1 0x20 DUP3 ADD SWAP1 POP PUSH2 0x169 PUSH1 0x0 DUP4 ADD DUP5 PUSH2 0x12A JUMP JUMPDEST SWAP3 SWAP2 POP POP JUMP JUMPDEST PUSH1 0x0 PUSH2 0x17A DUP3 PUSH2 0x1B7 JUMP JUMPDEST SWAP2 POP PUSH2 0x185 DUP4 PUSH2 0x1B7 JUMP JUMPDEST SWAP3 POP DUP3 PUSH8 0xFFFFFFFFFFFFFFFF SUB DUP3 GT ISZERO PUSH2 0x1A2 JUMPI PUSH2 0x1A1 PUSH2 0x1CB JUMP JUMPDEST JUMPDEST DUP3 DUP3 ADD SWAP1 POP SWAP3 SWAP2 POP POP JUMP JUMPDEST PUSH1 0x0 DUP2 SWAP1 POP SWAP2 SWAP1 POP JUMP JUMPDEST PUSH1 0x0 PUSH8 0xFFFFFFFFFFFFFFFF DUP3 AND SWAP1 POP SWAP2 SWAP1 POP JUMP JUMPDEST PUSH32 0x4E487B7100000000000000000000000000000000000000000000000000000000 PUSH1 0x0 MSTORE PUSH1 0x11 PUSH1 0x4 MSTORE PUSH1 0x24 PUSH1 0x0 REVERT INVALID LOG2 PUSH5 0x6970667358 0x22 SLT KECCAK256 PUSH3 0x8F8FE8 0x28 0x24 PUSH5 0xD8C3E0194A 0xC0 LOG4 0xD2 MSTORE CREATE2 SWAP15 PUSH2 0xF294 SWAP1 0xE8 0xF6 SWAP4 GASLIMIT PUSH24 0x86335AEBEA64736F6C634300080400330000000000000000 "
				},
				"gasEstimates": {
					"creation": {
						"codeDepositCost": "112000",
						"executionCost": "159",
						"totalCost": "112159"
					},
					"external": {
						"blockN()": "380",
						"testTime()": "infinite",
						"votingDelay()": "337",
						"votingPeriod()": "315"
					}
				},
				"methodIdentifiers": {
					"blockN()": "a52dc2e7",
					"testTime()": "3c35a0c1",
					"votingDelay()": "3932abb1",
					"votingPeriod()": "02a251a3"
				}
			},
			"storageLayout": {
				"storage": [],
				"types": null
			},
			"userdoc": {
				"kind": "user",
				"methods": {},
				"version": 1
			}
		}
	}
}