{
	".workspaces/default_workspace/unMiracle/UMRCmiracle.sol": {
		"UMRproposal": {
			"abi": [
				{
					"inputs": [
						{
							"internalType": "address",
							"name": "targets",
							"type": "address"
						},
						{
							"internalType": "bytes[]",
							"name": "calldatas",
							"type": "bytes[]"
						},
						{
							"internalType": "bytes32",
							"name": "descriptionHash",
							"type": "bytes32"
						}
					],
					"name": "hashProposal",
					"outputs": [
						{
							"internalType": "uint256",
							"name": "",
							"type": "uint256"
						}
					],
					"stateMutability": "pure",
					"type": "function"
				},
				{
					"inputs": [
						{
							"internalType": "address",
							"name": "proposer",
							"type": "address"
						},
						{
							"internalType": "uint256",
							"name": "donateDelay",
							"type": "uint256"
						},
						{
							"internalType": "uint256",
							"name": "donatePeriod",
							"type": "uint256"
						},
						{
							"internalType": "uint256",
							"name": "donateMinimum",
							"type": "uint256"
						},
						{
							"internalType": "address",
							"name": "destination",
							"type": "address"
						},
						{
							"internalType": "string",
							"name": "description",
							"type": "string"
						},
						{
							"internalType": "bytes[]",
							"name": "calldatas",
							"type": "bytes[]"
						}
					],
					"name": "proposal",
					"outputs": [
						{
							"internalType": "uint256",
							"name": "",
							"type": "uint256"
						}
					],
					"stateMutability": "nonpayable",
					"type": "function"
				}
			],
			"devdoc": {
				"kind": "dev",
				"methods": {},
				"version": 1
			},
			"evm": {
				"assembly": "    /* \".workspaces/default_workspace/unMiracle/UMRCmiracle.sol\":109:1566  contract UMRproposal {... */\n  mstore(0x40, 0x80)\n  callvalue\n  dup1\n  iszero\n  tag_1\n  jumpi\n  0x00\n  dup1\n  revert\ntag_1:\n  pop\n  dataSize(sub_0)\n  dup1\n  dataOffset(sub_0)\n  0x00\n  codecopy\n  0x00\n  return\nstop\n\nsub_0: assembly {\n        /* \".workspaces/default_workspace/unMiracle/UMRCmiracle.sol\":109:1566  contract UMRproposal {... */\n      mstore(0x40, 0x80)\n      callvalue\n      dup1\n      iszero\n      tag_1\n      jumpi\n      0x00\n      dup1\n      revert\n    tag_1:\n      pop\n      jumpi(tag_2, lt(calldatasize, 0x04))\n      shr(0xe0, calldataload(0x00))\n      dup1\n      0x42f9d5be\n      eq\n      tag_3\n      jumpi\n      dup1\n      0x8c4461b3\n      eq\n      tag_4\n      jumpi\n    tag_2:\n      0x00\n      dup1\n      revert\n        /* \".workspaces/default_workspace/unMiracle/UMRCmiracle.sol\":675:1564  function proposal(... */\n    tag_3:\n      tag_5\n      0x04\n      dup1\n      calldatasize\n      sub\n      dup2\n      add\n      swap1\n      tag_6\n      swap2\n      swap1\n      tag_7\n      jump\t// in\n    tag_6:\n      tag_8\n      jump\t// in\n    tag_5:\n      mload(0x40)\n      tag_9\n      swap2\n      swap1\n      tag_10\n      jump\t// in\n    tag_9:\n      mload(0x40)\n      dup1\n      swap2\n      sub\n      swap1\n      return\n        /* \".workspaces/default_workspace/unMiracle/UMRCmiracle.sol\":428:669  function hashProposal(... */\n    tag_4:\n      tag_11\n      0x04\n      dup1\n      calldatasize\n      sub\n      dup2\n      add\n      swap1\n      tag_12\n      swap2\n      swap1\n      tag_13\n      jump\t// in\n    tag_12:\n      tag_14\n      jump\t// in\n    tag_11:\n      mload(0x40)\n      tag_15\n      swap2\n      swap1\n      tag_10\n      jump\t// in\n    tag_15:\n      mload(0x40)\n      dup1\n      swap2\n      sub\n      swap1\n      return\n        /* \".workspaces/default_workspace/unMiracle/UMRCmiracle.sol\":675:1564  function proposal(... */\n    tag_8:\n        /* \".workspaces/default_workspace/unMiracle/UMRCmiracle.sol\":1068:1075  uint256 */\n      0x00\n        /* \".workspaces/default_workspace/unMiracle/UMRCmiracle.sol\":1087:1105  uint256 proposalId */\n      dup1\n        /* \".workspaces/default_workspace/unMiracle/UMRCmiracle.sol\":1108:1172  hashProposal(proposer, calldatas, keccak256(bytes(description))) */\n      tag_17\n        /* \".workspaces/default_workspace/unMiracle/UMRCmiracle.sol\":1121:1129  proposer */\n      dup10\n        /* \".workspaces/default_workspace/unMiracle/UMRCmiracle.sol\":1131:1140  calldatas */\n      dup5\n        /* \".workspaces/default_workspace/unMiracle/UMRCmiracle.sol\":1158:1169  description */\n      dup7\n        /* \".workspaces/default_workspace/unMiracle/UMRCmiracle.sol\":1142:1171  keccak256(bytes(description)) */\n      dup1\n      mload\n      swap1\n      0x20\n      add\n      keccak256\n        /* \".workspaces/default_workspace/unMiracle/UMRCmiracle.sol\":1108:1120  hashProposal */\n      tag_14\n        /* \".workspaces/default_workspace/unMiracle/UMRCmiracle.sol\":1108:1172  hashProposal(proposer, calldatas, keccak256(bytes(description))) */\n      jump\t// in\n    tag_17:\n        /* \".workspaces/default_workspace/unMiracle/UMRCmiracle.sol\":1087:1172  uint256 proposalId = hashProposal(proposer, calldatas, keccak256(bytes(description))) */\n      swap1\n      pop\n        /* \".workspaces/default_workspace/unMiracle/UMRCmiracle.sol\":1191:1220  ProposalCore storage proposal */\n      0x00\n        /* \".workspaces/default_workspace/unMiracle/UMRCmiracle.sol\":1223:1233  _proposals */\n      dup1\n        /* \".workspaces/default_workspace/unMiracle/UMRCmiracle.sol\":1223:1245  _proposals[proposalId] */\n      0x00\n        /* \".workspaces/default_workspace/unMiracle/UMRCmiracle.sol\":1234:1244  proposalId */\n      dup4\n        /* \".workspaces/default_workspace/unMiracle/UMRCmiracle.sol\":1223:1245  _proposals[proposalId] */\n      dup2\n      mstore\n      0x20\n      add\n      swap1\n      dup2\n      mstore\n      0x20\n      add\n      0x00\n      keccak256\n        /* \".workspaces/default_workspace/unMiracle/UMRCmiracle.sol\":1191:1245  ProposalCore storage proposal = _proposals[proposalId] */\n      swap1\n      pop\n        /* \".workspaces/default_workspace/unMiracle/UMRCmiracle.sol\":1256:1271  uint64 snapshot */\n      0x00\n        /* \".workspaces/default_workspace/unMiracle/UMRCmiracle.sol\":1304:1315  donateDelay */\n      dup10\n        /* \".workspaces/default_workspace/unMiracle/UMRCmiracle.sol\":1281:1293  block.number */\n      number\n        /* \".workspaces/default_workspace/unMiracle/UMRCmiracle.sol\":1274:1316  uint64(block.number) + uint64(donateDelay) */\n      tag_18\n      swap2\n      swap1\n      tag_19\n      jump\t// in\n    tag_18:\n        /* \".workspaces/default_workspace/unMiracle/UMRCmiracle.sol\":1256:1316  uint64 snapshot = uint64(block.number) + uint64(donateDelay) */\n      swap1\n      pop\n        /* \".workspaces/default_workspace/unMiracle/UMRCmiracle.sol\":1326:1341  uint64 deadline */\n      0x00\n        /* \".workspaces/default_workspace/unMiracle/UMRCmiracle.sol\":1362:1374  donatePeriod */\n      dup10\n        /* \".workspaces/default_workspace/unMiracle/UMRCmiracle.sol\":1344:1352  snapshot */\n      dup3\n        /* \".workspaces/default_workspace/unMiracle/UMRCmiracle.sol\":1344:1375  snapshot + uint64(donatePeriod) */\n      tag_20\n      swap2\n      swap1\n      tag_19\n      jump\t// in\n    tag_20:\n        /* \".workspaces/default_workspace/unMiracle/UMRCmiracle.sol\":1326:1375  uint64 deadline = snapshot + uint64(donatePeriod) */\n      swap1\n      pop\n        /* \".workspaces/default_workspace/unMiracle/UMRCmiracle.sol\":1386:1430  proposal.donationStart.setDeadline(snapshot) */\n      tag_21\n        /* \".workspaces/default_workspace/unMiracle/UMRCmiracle.sol\":1421:1429  snapshot */\n      dup3\n        /* \".workspaces/default_workspace/unMiracle/UMRCmiracle.sol\":1386:1394  proposal */\n      dup5\n        /* \".workspaces/default_workspace/unMiracle/UMRCmiracle.sol\":1386:1408  proposal.donationStart */\n      0x00\n      add\n        /* \".workspaces/default_workspace/unMiracle/UMRCmiracle.sol\":1386:1420  proposal.donationStart.setDeadline */\n      tag_22\n      swap1\n        /* \".workspaces/default_workspace/unMiracle/UMRCmiracle.sol\":1386:1430  proposal.donationStart.setDeadline(snapshot) */\n      swap2\n      swap1\n      0xffffffff\n      and\n      jump\t// in\n    tag_21:\n        /* \".workspaces/default_workspace/unMiracle/UMRCmiracle.sol\":1440:1482  proposal.donationEnd.setDeadline(deadline) */\n      tag_23\n        /* \".workspaces/default_workspace/unMiracle/UMRCmiracle.sol\":1473:1481  deadline */\n      dup2\n        /* \".workspaces/default_workspace/unMiracle/UMRCmiracle.sol\":1440:1448  proposal */\n      dup5\n        /* \".workspaces/default_workspace/unMiracle/UMRCmiracle.sol\":1440:1460  proposal.donationEnd */\n      0x01\n      add\n        /* \".workspaces/default_workspace/unMiracle/UMRCmiracle.sol\":1440:1472  proposal.donationEnd.setDeadline */\n      tag_22\n      swap1\n        /* \".workspaces/default_workspace/unMiracle/UMRCmiracle.sol\":1440:1482  proposal.donationEnd.setDeadline(deadline) */\n      swap2\n      swap1\n      0xffffffff\n      and\n      jump\t// in\n    tag_23:\n        /* \".workspaces/default_workspace/unMiracle/UMRCmiracle.sol\":1517:1530  donateMinimum */\n      dup9\n        /* \".workspaces/default_workspace/unMiracle/UMRCmiracle.sol\":1492:1500  proposal */\n      dup4\n        /* \".workspaces/default_workspace/unMiracle/UMRCmiracle.sol\":1492:1514  proposal.donateMinimum */\n      0x02\n      add\n        /* \".workspaces/default_workspace/unMiracle/UMRCmiracle.sol\":1492:1530  proposal.donateMinimum = donateMinimum */\n      dup2\n      swap1\n      sstore\n      pop\n        /* \".workspaces/default_workspace/unMiracle/UMRCmiracle.sol\":1547:1557  proposalId */\n      dup4\n        /* \".workspaces/default_workspace/unMiracle/UMRCmiracle.sol\":1540:1557  return proposalId */\n      swap5\n      pop\n      pop\n      pop\n      pop\n      pop\n        /* \".workspaces/default_workspace/unMiracle/UMRCmiracle.sol\":675:1564  function proposal(... */\n      swap8\n      swap7\n      pop\n      pop\n      pop\n      pop\n      pop\n      pop\n      pop\n      jump\t// out\n        /* \".workspaces/default_workspace/unMiracle/UMRCmiracle.sol\":428:669  function hashProposal(... */\n    tag_14:\n        /* \".workspaces/default_workspace/unMiracle/UMRCmiracle.sol\":569:576  uint256 */\n      0x00\n        /* \".workspaces/default_workspace/unMiracle/UMRCmiracle.sol\":624:631  targets */\n      dup4\n        /* \".workspaces/default_workspace/unMiracle/UMRCmiracle.sol\":633:642  calldatas */\n      dup4\n        /* \".workspaces/default_workspace/unMiracle/UMRCmiracle.sol\":644:659  descriptionHash */\n      dup4\n        /* \".workspaces/default_workspace/unMiracle/UMRCmiracle.sol\":613:660  abi.encode(targets, calldatas, descriptionHash) */\n      add(0x20, mload(0x40))\n      tag_25\n      swap4\n      swap3\n      swap2\n      swap1\n      tag_26\n      jump\t// in\n    tag_25:\n      mload(0x40)\n      0x20\n      dup2\n      dup4\n      sub\n      sub\n      dup2\n      mstore\n      swap1\n      0x40\n      mstore\n        /* \".workspaces/default_workspace/unMiracle/UMRCmiracle.sol\":603:661  keccak256(abi.encode(targets, calldatas, descriptionHash)) */\n      dup1\n      mload\n      swap1\n      0x20\n      add\n      keccak256\n        /* \".workspaces/default_workspace/unMiracle/UMRCmiracle.sol\":595:662  uint256(keccak256(abi.encode(targets, calldatas, descriptionHash))) */\n      0x00\n      shr\n        /* \".workspaces/default_workspace/unMiracle/UMRCmiracle.sol\":588:662  return uint256(keccak256(abi.encode(targets, calldatas, descriptionHash))) */\n      swap1\n      pop\n        /* \".workspaces/default_workspace/unMiracle/UMRCmiracle.sol\":428:669  function hashProposal(... */\n      swap4\n      swap3\n      pop\n      pop\n      pop\n      jump\t// out\n        /* \"@openzeppelin/contracts/utils/Timers.sol\":1293:1412  function setDeadline(BlockNumber storage timer, uint64 timestamp) internal {... */\n    tag_22:\n        /* \"@openzeppelin/contracts/utils/Timers.sol\":1396:1405  timestamp */\n      dup1\n        /* \"@openzeppelin/contracts/utils/Timers.sol\":1378:1383  timer */\n      dup3\n        /* \"@openzeppelin/contracts/utils/Timers.sol\":1378:1393  timer._deadline */\n      0x00\n      add\n      0x00\n        /* \"@openzeppelin/contracts/utils/Timers.sol\":1378:1405  timer._deadline = timestamp */\n      0x0100\n      exp\n      dup2\n      sload\n      dup2\n      0xffffffffffffffff\n      mul\n      not\n      and\n      swap1\n      dup4\n      0xffffffffffffffff\n      and\n      mul\n      or\n      swap1\n      sstore\n      pop\n        /* \"@openzeppelin/contracts/utils/Timers.sol\":1293:1412  function setDeadline(BlockNumber storage timer, uint64 timestamp) internal {... */\n      pop\n      pop\n      jump\t// out\n        /* \"#utility.yul\":22:842   */\n    tag_29:\n        /* \"#utility.yul\":127:132   */\n      0x00\n        /* \"#utility.yul\":152:242   */\n      tag_31\n        /* \"#utility.yul\":168:241   */\n      tag_32\n        /* \"#utility.yul\":234:240   */\n      dup5\n        /* \"#utility.yul\":168:241   */\n      tag_33\n      jump\t// in\n    tag_32:\n        /* \"#utility.yul\":152:242   */\n      tag_34\n      jump\t// in\n    tag_31:\n        /* \"#utility.yul\":143:242   */\n      swap1\n      pop\n        /* \"#utility.yul\":262:267   */\n      dup1\n        /* \"#utility.yul\":291:297   */\n      dup4\n        /* \"#utility.yul\":284:289   */\n      dup3\n        /* \"#utility.yul\":277:298   */\n      mstore\n        /* \"#utility.yul\":325:329   */\n      0x20\n        /* \"#utility.yul\":318:323   */\n      dup3\n        /* \"#utility.yul\":314:330   */\n      add\n        /* \"#utility.yul\":307:330   */\n      swap1\n      pop\n        /* \"#utility.yul\":351:357   */\n      dup3\n        /* \"#utility.yul\":401:404   */\n      dup6\n        /* \"#utility.yul\":393:397   */\n      0x20\n        /* \"#utility.yul\":385:391   */\n      dup7\n        /* \"#utility.yul\":381:398   */\n      mul\n        /* \"#utility.yul\":376:379   */\n      dup3\n        /* \"#utility.yul\":372:399   */\n      add\n        /* \"#utility.yul\":369:405   */\n      gt\n        /* \"#utility.yul\":366:368   */\n      iszero\n      tag_35\n      jumpi\n        /* \"#utility.yul\":430:431   */\n      0x00\n        /* \"#utility.yul\":427:428   */\n      dup1\n        /* \"#utility.yul\":420:432   */\n      revert\n        /* \"#utility.yul\":366:368   */\n    tag_35:\n        /* \"#utility.yul\":466:467   */\n      0x00\n        /* \"#utility.yul\":451:836   */\n    tag_36:\n        /* \"#utility.yul\":476:482   */\n      dup6\n        /* \"#utility.yul\":473:474   */\n      dup2\n        /* \"#utility.yul\":470:483   */\n      lt\n        /* \"#utility.yul\":451:836   */\n      iszero\n      tag_38\n      jumpi\n        /* \"#utility.yul\":558:561   */\n      dup2\n        /* \"#utility.yul\":545:562   */\n      calldataload\n        /* \"#utility.yul\":594:612   */\n      0xffffffffffffffff\n        /* \"#utility.yul\":581:592   */\n      dup2\n        /* \"#utility.yul\":578:613   */\n      gt\n        /* \"#utility.yul\":575:577   */\n      iszero\n      tag_39\n      jumpi\n        /* \"#utility.yul\":626:627   */\n      0x00\n        /* \"#utility.yul\":623:624   */\n      dup1\n        /* \"#utility.yul\":616:628   */\n      revert\n        /* \"#utility.yul\":575:577   */\n    tag_39:\n        /* \"#utility.yul\":673:684   */\n      dup1\n        /* \"#utility.yul\":665:671   */\n      dup7\n        /* \"#utility.yul\":661:685   */\n      add\n        /* \"#utility.yul\":711:757   */\n      tag_40\n        /* \"#utility.yul\":753:756   */\n      dup10\n        /* \"#utility.yul\":741:751   */\n      dup3\n        /* \"#utility.yul\":711:757   */\n      tag_41\n      jump\t// in\n    tag_40:\n        /* \"#utility.yul\":706:709   */\n      dup6\n        /* \"#utility.yul\":699:758   */\n      mstore\n        /* \"#utility.yul\":787:791   */\n      0x20\n        /* \"#utility.yul\":782:785   */\n      dup6\n        /* \"#utility.yul\":778:792   */\n      add\n        /* \"#utility.yul\":771:792   */\n      swap5\n      pop\n        /* \"#utility.yul\":821:825   */\n      0x20\n        /* \"#utility.yul\":816:819   */\n      dup5\n        /* \"#utility.yul\":812:826   */\n      add\n        /* \"#utility.yul\":805:826   */\n      swap4\n      pop\n        /* \"#utility.yul\":511:836   */\n      pop\n      pop\n        /* \"#utility.yul\":498:499   */\n      0x01\n        /* \"#utility.yul\":495:496   */\n      dup2\n        /* \"#utility.yul\":491:500   */\n      add\n        /* \"#utility.yul\":486:500   */\n      swap1\n      pop\n        /* \"#utility.yul\":451:836   */\n      jump(tag_36)\n    tag_38:\n        /* \"#utility.yul\":455:469   */\n      pop\n        /* \"#utility.yul\":133:842   */\n      pop\n      pop\n      swap4\n      swap3\n      pop\n      pop\n      pop\n      jump\t// out\n        /* \"#utility.yul\":848:1191   */\n    tag_42:\n        /* \"#utility.yul\":925:930   */\n      0x00\n        /* \"#utility.yul\":950:1015   */\n      tag_44\n        /* \"#utility.yul\":966:1014   */\n      tag_45\n        /* \"#utility.yul\":1007:1013   */\n      dup5\n        /* \"#utility.yul\":966:1014   */\n      tag_46\n      jump\t// in\n    tag_45:\n        /* \"#utility.yul\":950:1015   */\n      tag_34\n      jump\t// in\n    tag_44:\n        /* \"#utility.yul\":941:1015   */\n      swap1\n      pop\n        /* \"#utility.yul\":1038:1044   */\n      dup3\n        /* \"#utility.yul\":1031:1036   */\n      dup2\n        /* \"#utility.yul\":1024:1045   */\n      mstore\n        /* \"#utility.yul\":1076:1080   */\n      0x20\n        /* \"#utility.yul\":1069:1074   */\n      dup2\n        /* \"#utility.yul\":1065:1081   */\n      add\n        /* \"#utility.yul\":1114:1117   */\n      dup5\n        /* \"#utility.yul\":1105:1111   */\n      dup5\n        /* \"#utility.yul\":1100:1103   */\n      dup5\n        /* \"#utility.yul\":1096:1112   */\n      add\n        /* \"#utility.yul\":1093:1118   */\n      gt\n        /* \"#utility.yul\":1090:1092   */\n      iszero\n      tag_47\n      jumpi\n        /* \"#utility.yul\":1131:1132   */\n      0x00\n        /* \"#utility.yul\":1128:1129   */\n      dup1\n        /* \"#utility.yul\":1121:1133   */\n      revert\n        /* \"#utility.yul\":1090:1092   */\n    tag_47:\n        /* \"#utility.yul\":1144:1185   */\n      tag_48\n        /* \"#utility.yul\":1178:1184   */\n      dup5\n        /* \"#utility.yul\":1173:1176   */\n      dup3\n        /* \"#utility.yul\":1168:1171   */\n      dup6\n        /* \"#utility.yul\":1144:1185   */\n      tag_49\n      jump\t// in\n    tag_48:\n        /* \"#utility.yul\":931:1191   */\n      pop\n      swap4\n      swap3\n      pop\n      pop\n      pop\n      jump\t// out\n        /* \"#utility.yul\":1197:1542   */\n    tag_50:\n        /* \"#utility.yul\":1275:1280   */\n      0x00\n        /* \"#utility.yul\":1300:1366   */\n      tag_52\n        /* \"#utility.yul\":1316:1365   */\n      tag_53\n        /* \"#utility.yul\":1358:1364   */\n      dup5\n        /* \"#utility.yul\":1316:1365   */\n      tag_54\n      jump\t// in\n    tag_53:\n        /* \"#utility.yul\":1300:1366   */\n      tag_34\n      jump\t// in\n    tag_52:\n        /* \"#utility.yul\":1291:1366   */\n      swap1\n      pop\n        /* \"#utility.yul\":1389:1395   */\n      dup3\n        /* \"#utility.yul\":1382:1387   */\n      dup2\n        /* \"#utility.yul\":1375:1396   */\n      mstore\n        /* \"#utility.yul\":1427:1431   */\n      0x20\n        /* \"#utility.yul\":1420:1425   */\n      dup2\n        /* \"#utility.yul\":1416:1432   */\n      add\n        /* \"#utility.yul\":1465:1468   */\n      dup5\n        /* \"#utility.yul\":1456:1462   */\n      dup5\n        /* \"#utility.yul\":1451:1454   */\n      dup5\n        /* \"#utility.yul\":1447:1463   */\n      add\n        /* \"#utility.yul\":1444:1469   */\n      gt\n        /* \"#utility.yul\":1441:1443   */\n      iszero\n      tag_55\n      jumpi\n        /* \"#utility.yul\":1482:1483   */\n      0x00\n        /* \"#utility.yul\":1479:1480   */\n      dup1\n        /* \"#utility.yul\":1472:1484   */\n      revert\n        /* \"#utility.yul\":1441:1443   */\n    tag_55:\n        /* \"#utility.yul\":1495:1536   */\n      tag_56\n        /* \"#utility.yul\":1529:1535   */\n      dup5\n        /* \"#utility.yul\":1524:1527   */\n      dup3\n        /* \"#utility.yul\":1519:1522   */\n      dup6\n        /* \"#utility.yul\":1495:1536   */\n      tag_49\n      jump\t// in\n    tag_56:\n        /* \"#utility.yul\":1281:1542   */\n      pop\n      swap4\n      swap3\n      pop\n      pop\n      pop\n      jump\t// out\n        /* \"#utility.yul\":1548:1687   */\n    tag_57:\n        /* \"#utility.yul\":1594:1599   */\n      0x00\n        /* \"#utility.yul\":1632:1638   */\n      dup2\n        /* \"#utility.yul\":1619:1639   */\n      calldataload\n        /* \"#utility.yul\":1610:1639   */\n      swap1\n      pop\n        /* \"#utility.yul\":1648:1681   */\n      tag_59\n        /* \"#utility.yul\":1675:1680   */\n      dup2\n        /* \"#utility.yul\":1648:1681   */\n      tag_60\n      jump\t// in\n    tag_59:\n        /* \"#utility.yul\":1600:1687   */\n      swap3\n      swap2\n      pop\n      pop\n      jump\t// out\n        /* \"#utility.yul\":1708:2029   */\n    tag_61:\n        /* \"#utility.yul\":1788:1793   */\n      0x00\n        /* \"#utility.yul\":1837:1840   */\n      dup3\n        /* \"#utility.yul\":1830:1834   */\n      0x1f\n        /* \"#utility.yul\":1822:1828   */\n      dup4\n        /* \"#utility.yul\":1818:1835   */\n      add\n        /* \"#utility.yul\":1814:1841   */\n      slt\n        /* \"#utility.yul\":1804:1806   */\n      tag_63\n      jumpi\n        /* \"#utility.yul\":1855:1856   */\n      0x00\n        /* \"#utility.yul\":1852:1853   */\n      dup1\n        /* \"#utility.yul\":1845:1857   */\n      revert\n        /* \"#utility.yul\":1804:1806   */\n    tag_63:\n        /* \"#utility.yul\":1895:1901   */\n      dup2\n        /* \"#utility.yul\":1882:1902   */\n      calldataload\n        /* \"#utility.yul\":1920:2023   */\n      tag_64\n        /* \"#utility.yul\":2019:2022   */\n      dup5\n        /* \"#utility.yul\":2011:2017   */\n      dup3\n        /* \"#utility.yul\":2004:2008   */\n      0x20\n        /* \"#utility.yul\":1996:2002   */\n      dup7\n        /* \"#utility.yul\":1992:2009   */\n      add\n        /* \"#utility.yul\":1920:2023   */\n      tag_29\n      jump\t// in\n    tag_64:\n        /* \"#utility.yul\":1911:2023   */\n      swap2\n      pop\n        /* \"#utility.yul\":1794:2029   */\n      pop\n      swap3\n      swap2\n      pop\n      pop\n      jump\t// out\n        /* \"#utility.yul\":2035:2174   */\n    tag_65:\n        /* \"#utility.yul\":2081:2086   */\n      0x00\n        /* \"#utility.yul\":2119:2125   */\n      dup2\n        /* \"#utility.yul\":2106:2126   */\n      calldataload\n        /* \"#utility.yul\":2097:2126   */\n      swap1\n      pop\n        /* \"#utility.yul\":2135:2168   */\n      tag_67\n        /* \"#utility.yul\":2162:2167   */\n      dup2\n        /* \"#utility.yul\":2135:2168   */\n      tag_68\n      jump\t// in\n    tag_67:\n        /* \"#utility.yul\":2087:2174   */\n      swap3\n      swap2\n      pop\n      pop\n      jump\t// out\n        /* \"#utility.yul\":2193:2464   */\n    tag_41:\n        /* \"#utility.yul\":2248:2253   */\n      0x00\n        /* \"#utility.yul\":2297:2300   */\n      dup3\n        /* \"#utility.yul\":2290:2294   */\n      0x1f\n        /* \"#utility.yul\":2282:2288   */\n      dup4\n        /* \"#utility.yul\":2278:2295   */\n      add\n        /* \"#utility.yul\":2274:2301   */\n      slt\n        /* \"#utility.yul\":2264:2266   */\n      tag_70\n      jumpi\n        /* \"#utility.yul\":2315:2316   */\n      0x00\n        /* \"#utility.yul\":2312:2313   */\n      dup1\n        /* \"#utility.yul\":2305:2317   */\n      revert\n        /* \"#utility.yul\":2264:2266   */\n    tag_70:\n        /* \"#utility.yul\":2355:2361   */\n      dup2\n        /* \"#utility.yul\":2342:2362   */\n      calldataload\n        /* \"#utility.yul\":2380:2458   */\n      tag_71\n        /* \"#utility.yul\":2454:2457   */\n      dup5\n        /* \"#utility.yul\":2446:2452   */\n      dup3\n        /* \"#utility.yul\":2439:2443   */\n      0x20\n        /* \"#utility.yul\":2431:2437   */\n      dup7\n        /* \"#utility.yul\":2427:2444   */\n      add\n        /* \"#utility.yul\":2380:2458   */\n      tag_42\n      jump\t// in\n    tag_71:\n        /* \"#utility.yul\":2371:2458   */\n      swap2\n      pop\n        /* \"#utility.yul\":2254:2464   */\n      pop\n      swap3\n      swap2\n      pop\n      pop\n      jump\t// out\n        /* \"#utility.yul\":2484:2757   */\n    tag_72:\n        /* \"#utility.yul\":2540:2545   */\n      0x00\n        /* \"#utility.yul\":2589:2592   */\n      dup3\n        /* \"#utility.yul\":2582:2586   */\n      0x1f\n        /* \"#utility.yul\":2574:2580   */\n      dup4\n        /* \"#utility.yul\":2570:2587   */\n      add\n        /* \"#utility.yul\":2566:2593   */\n      slt\n        /* \"#utility.yul\":2556:2558   */\n      tag_74\n      jumpi\n        /* \"#utility.yul\":2607:2608   */\n      0x00\n        /* \"#utility.yul\":2604:2605   */\n      dup1\n        /* \"#utility.yul\":2597:2609   */\n      revert\n        /* \"#utility.yul\":2556:2558   */\n    tag_74:\n        /* \"#utility.yul\":2647:2653   */\n      dup2\n        /* \"#utility.yul\":2634:2654   */\n      calldataload\n        /* \"#utility.yul\":2672:2751   */\n      tag_75\n        /* \"#utility.yul\":2747:2750   */\n      dup5\n        /* \"#utility.yul\":2739:2745   */\n      dup3\n        /* \"#utility.yul\":2732:2736   */\n      0x20\n        /* \"#utility.yul\":2724:2730   */\n      dup7\n        /* \"#utility.yul\":2720:2737   */\n      add\n        /* \"#utility.yul\":2672:2751   */\n      tag_50\n      jump\t// in\n    tag_75:\n        /* \"#utility.yul\":2663:2751   */\n      swap2\n      pop\n        /* \"#utility.yul\":2546:2757   */\n      pop\n      swap3\n      swap2\n      pop\n      pop\n      jump\t// out\n        /* \"#utility.yul\":2763:2902   */\n    tag_76:\n        /* \"#utility.yul\":2809:2814   */\n      0x00\n        /* \"#utility.yul\":2847:2853   */\n      dup2\n        /* \"#utility.yul\":2834:2854   */\n      calldataload\n        /* \"#utility.yul\":2825:2854   */\n      swap1\n      pop\n        /* \"#utility.yul\":2863:2896   */\n      tag_78\n        /* \"#utility.yul\":2890:2895   */\n      dup2\n        /* \"#utility.yul\":2863:2896   */\n      tag_79\n      jump\t// in\n    tag_78:\n        /* \"#utility.yul\":2815:2902   */\n      swap3\n      swap2\n      pop\n      pop\n      jump\t// out\n        /* \"#utility.yul\":2908:3621   */\n    tag_13:\n        /* \"#utility.yul\":3019:3025   */\n      0x00\n        /* \"#utility.yul\":3027:3033   */\n      dup1\n        /* \"#utility.yul\":3035:3041   */\n      0x00\n        /* \"#utility.yul\":3084:3086   */\n      0x60\n        /* \"#utility.yul\":3072:3081   */\n      dup5\n        /* \"#utility.yul\":3063:3070   */\n      dup7\n        /* \"#utility.yul\":3059:3082   */\n      sub\n        /* \"#utility.yul\":3055:3087   */\n      slt\n        /* \"#utility.yul\":3052:3054   */\n      iszero\n      tag_81\n      jumpi\n        /* \"#utility.yul\":3100:3101   */\n      0x00\n        /* \"#utility.yul\":3097:3098   */\n      dup1\n        /* \"#utility.yul\":3090:3102   */\n      revert\n        /* \"#utility.yul\":3052:3054   */\n    tag_81:\n        /* \"#utility.yul\":3143:3144   */\n      0x00\n        /* \"#utility.yul\":3168:3221   */\n      tag_82\n        /* \"#utility.yul\":3213:3220   */\n      dup7\n        /* \"#utility.yul\":3204:3210   */\n      dup3\n        /* \"#utility.yul\":3193:3202   */\n      dup8\n        /* \"#utility.yul\":3189:3211   */\n      add\n        /* \"#utility.yul\":3168:3221   */\n      tag_57\n      jump\t// in\n    tag_82:\n        /* \"#utility.yul\":3158:3221   */\n      swap4\n      pop\n        /* \"#utility.yul\":3114:3231   */\n      pop\n        /* \"#utility.yul\":3298:3300   */\n      0x20\n        /* \"#utility.yul\":3287:3296   */\n      dup5\n        /* \"#utility.yul\":3283:3301   */\n      add\n        /* \"#utility.yul\":3270:3302   */\n      calldataload\n        /* \"#utility.yul\":3329:3347   */\n      0xffffffffffffffff\n        /* \"#utility.yul\":3321:3327   */\n      dup2\n        /* \"#utility.yul\":3318:3348   */\n      gt\n        /* \"#utility.yul\":3315:3317   */\n      iszero\n      tag_83\n      jumpi\n        /* \"#utility.yul\":3361:3362   */\n      0x00\n        /* \"#utility.yul\":3358:3359   */\n      dup1\n        /* \"#utility.yul\":3351:3363   */\n      revert\n        /* \"#utility.yul\":3315:3317   */\n    tag_83:\n        /* \"#utility.yul\":3389:3476   */\n      tag_84\n        /* \"#utility.yul\":3468:3475   */\n      dup7\n        /* \"#utility.yul\":3459:3465   */\n      dup3\n        /* \"#utility.yul\":3448:3457   */\n      dup8\n        /* \"#utility.yul\":3444:3466   */\n      add\n        /* \"#utility.yul\":3389:3476   */\n      tag_61\n      jump\t// in\n    tag_84:\n        /* \"#utility.yul\":3379:3476   */\n      swap3\n      pop\n        /* \"#utility.yul\":3241:3486   */\n      pop\n        /* \"#utility.yul\":3525:3527   */\n      0x40\n        /* \"#utility.yul\":3551:3604   */\n      tag_85\n        /* \"#utility.yul\":3596:3603   */\n      dup7\n        /* \"#utility.yul\":3587:3593   */\n      dup3\n        /* \"#utility.yul\":3576:3585   */\n      dup8\n        /* \"#utility.yul\":3572:3594   */\n      add\n        /* \"#utility.yul\":3551:3604   */\n      tag_65\n      jump\t// in\n    tag_85:\n        /* \"#utility.yul\":3541:3604   */\n      swap2\n      pop\n        /* \"#utility.yul\":3496:3614   */\n      pop\n        /* \"#utility.yul\":3042:3621   */\n      swap3\n      pop\n      swap3\n      pop\n      swap3\n      jump\t// out\n        /* \"#utility.yul\":3627:5037   */\n    tag_7:\n        /* \"#utility.yul\":3784:3790   */\n      0x00\n        /* \"#utility.yul\":3792:3798   */\n      dup1\n        /* \"#utility.yul\":3800:3806   */\n      0x00\n        /* \"#utility.yul\":3808:3814   */\n      dup1\n        /* \"#utility.yul\":3816:3822   */\n      0x00\n        /* \"#utility.yul\":3824:3830   */\n      dup1\n        /* \"#utility.yul\":3832:3838   */\n      0x00\n        /* \"#utility.yul\":3881:3884   */\n      0xe0\n        /* \"#utility.yul\":3869:3878   */\n      dup9\n        /* \"#utility.yul\":3860:3867   */\n      dup11\n        /* \"#utility.yul\":3856:3879   */\n      sub\n        /* \"#utility.yul\":3852:3885   */\n      slt\n        /* \"#utility.yul\":3849:3851   */\n      iszero\n      tag_87\n      jumpi\n        /* \"#utility.yul\":3898:3899   */\n      0x00\n        /* \"#utility.yul\":3895:3896   */\n      dup1\n        /* \"#utility.yul\":3888:3900   */\n      revert\n        /* \"#utility.yul\":3849:3851   */\n    tag_87:\n        /* \"#utility.yul\":3941:3942   */\n      0x00\n        /* \"#utility.yul\":3966:4019   */\n      tag_88\n        /* \"#utility.yul\":4011:4018   */\n      dup11\n        /* \"#utility.yul\":4002:4008   */\n      dup3\n        /* \"#utility.yul\":3991:4000   */\n      dup12\n        /* \"#utility.yul\":3987:4009   */\n      add\n        /* \"#utility.yul\":3966:4019   */\n      tag_57\n      jump\t// in\n    tag_88:\n        /* \"#utility.yul\":3956:4019   */\n      swap8\n      pop\n        /* \"#utility.yul\":3912:4029   */\n      pop\n        /* \"#utility.yul\":4068:4070   */\n      0x20\n        /* \"#utility.yul\":4094:4147   */\n      tag_89\n        /* \"#utility.yul\":4139:4146   */\n      dup11\n        /* \"#utility.yul\":4130:4136   */\n      dup3\n        /* \"#utility.yul\":4119:4128   */\n      dup12\n        /* \"#utility.yul\":4115:4137   */\n      add\n        /* \"#utility.yul\":4094:4147   */\n      tag_76\n      jump\t// in\n    tag_89:\n        /* \"#utility.yul\":4084:4147   */\n      swap7\n      pop\n        /* \"#utility.yul\":4039:4157   */\n      pop\n        /* \"#utility.yul\":4196:4198   */\n      0x40\n        /* \"#utility.yul\":4222:4275   */\n      tag_90\n        /* \"#utility.yul\":4267:4274   */\n      dup11\n        /* \"#utility.yul\":4258:4264   */\n      dup3\n        /* \"#utility.yul\":4247:4256   */\n      dup12\n        /* \"#utility.yul\":4243:4265   */\n      add\n        /* \"#utility.yul\":4222:4275   */\n      tag_76\n      jump\t// in\n    tag_90:\n        /* \"#utility.yul\":4212:4275   */\n      swap6\n      pop\n        /* \"#utility.yul\":4167:4285   */\n      pop\n        /* \"#utility.yul\":4324:4326   */\n      0x60\n        /* \"#utility.yul\":4350:4403   */\n      tag_91\n        /* \"#utility.yul\":4395:4402   */\n      dup11\n        /* \"#utility.yul\":4386:4392   */\n      dup3\n        /* \"#utility.yul\":4375:4384   */\n      dup12\n        /* \"#utility.yul\":4371:4393   */\n      add\n        /* \"#utility.yul\":4350:4403   */\n      tag_76\n      jump\t// in\n    tag_91:\n        /* \"#utility.yul\":4340:4403   */\n      swap5\n      pop\n        /* \"#utility.yul\":4295:4413   */\n      pop\n        /* \"#utility.yul\":4452:4455   */\n      0x80\n        /* \"#utility.yul\":4479:4532   */\n      tag_92\n        /* \"#utility.yul\":4524:4531   */\n      dup11\n        /* \"#utility.yul\":4515:4521   */\n      dup3\n        /* \"#utility.yul\":4504:4513   */\n      dup12\n        /* \"#utility.yul\":4500:4522   */\n      add\n        /* \"#utility.yul\":4479:4532   */\n      tag_57\n      jump\t// in\n    tag_92:\n        /* \"#utility.yul\":4469:4532   */\n      swap4\n      pop\n        /* \"#utility.yul\":4423:4542   */\n      pop\n        /* \"#utility.yul\":4609:4612   */\n      0xa0\n        /* \"#utility.yul\":4598:4607   */\n      dup9\n        /* \"#utility.yul\":4594:4613   */\n      add\n        /* \"#utility.yul\":4581:4614   */\n      calldataload\n        /* \"#utility.yul\":4641:4659   */\n      0xffffffffffffffff\n        /* \"#utility.yul\":4633:4639   */\n      dup2\n        /* \"#utility.yul\":4630:4660   */\n      gt\n        /* \"#utility.yul\":4627:4629   */\n      iszero\n      tag_93\n      jumpi\n        /* \"#utility.yul\":4673:4674   */\n      0x00\n        /* \"#utility.yul\":4670:4671   */\n      dup1\n        /* \"#utility.yul\":4663:4675   */\n      revert\n        /* \"#utility.yul\":4627:4629   */\n    tag_93:\n        /* \"#utility.yul\":4701:4764   */\n      tag_94\n        /* \"#utility.yul\":4756:4763   */\n      dup11\n        /* \"#utility.yul\":4747:4753   */\n      dup3\n        /* \"#utility.yul\":4736:4745   */\n      dup12\n        /* \"#utility.yul\":4732:4754   */\n      add\n        /* \"#utility.yul\":4701:4764   */\n      tag_72\n      jump\t// in\n    tag_94:\n        /* \"#utility.yul\":4691:4764   */\n      swap3\n      pop\n        /* \"#utility.yul\":4552:4774   */\n      pop\n        /* \"#utility.yul\":4841:4844   */\n      0xc0\n        /* \"#utility.yul\":4830:4839   */\n      dup9\n        /* \"#utility.yul\":4826:4845   */\n      add\n        /* \"#utility.yul\":4813:4846   */\n      calldataload\n        /* \"#utility.yul\":4873:4891   */\n      0xffffffffffffffff\n        /* \"#utility.yul\":4865:4871   */\n      dup2\n        /* \"#utility.yul\":4862:4892   */\n      gt\n        /* \"#utility.yul\":4859:4861   */\n      iszero\n      tag_95\n      jumpi\n        /* \"#utility.yul\":4905:4906   */\n      0x00\n        /* \"#utility.yul\":4902:4903   */\n      dup1\n        /* \"#utility.yul\":4895:4907   */\n      revert\n        /* \"#utility.yul\":4859:4861   */\n    tag_95:\n        /* \"#utility.yul\":4933:5020   */\n      tag_96\n        /* \"#utility.yul\":5012:5019   */\n      dup11\n        /* \"#utility.yul\":5003:5009   */\n      dup3\n        /* \"#utility.yul\":4992:5001   */\n      dup12\n        /* \"#utility.yul\":4988:5010   */\n      add\n        /* \"#utility.yul\":4933:5020   */\n      tag_61\n      jump\t// in\n    tag_96:\n        /* \"#utility.yul\":4923:5020   */\n      swap2\n      pop\n        /* \"#utility.yul\":4784:5030   */\n      pop\n        /* \"#utility.yul\":3839:5037   */\n      swap3\n      swap6\n      swap9\n      swap2\n      swap5\n      swap8\n      pop\n      swap3\n      swap6\n      pop\n      jump\t// out\n        /* \"#utility.yul\":5043:5235   */\n    tag_97:\n        /* \"#utility.yul\":5130:5140   */\n      0x00\n        /* \"#utility.yul\":5165:5229   */\n      tag_99\n        /* \"#utility.yul\":5225:5228   */\n      dup4\n        /* \"#utility.yul\":5217:5223   */\n      dup4\n        /* \"#utility.yul\":5165:5229   */\n      tag_100\n      jump\t// in\n    tag_99:\n        /* \"#utility.yul\":5151:5229   */\n      swap1\n      pop\n        /* \"#utility.yul\":5141:5235   */\n      swap3\n      swap2\n      pop\n      pop\n      jump\t// out\n        /* \"#utility.yul\":5241:5359   */\n    tag_101:\n        /* \"#utility.yul\":5328:5352   */\n      tag_103\n        /* \"#utility.yul\":5346:5351   */\n      dup2\n        /* \"#utility.yul\":5328:5352   */\n      tag_104\n      jump\t// in\n    tag_103:\n        /* \"#utility.yul\":5323:5326   */\n      dup3\n        /* \"#utility.yul\":5316:5353   */\n      mstore\n        /* \"#utility.yul\":5306:5359   */\n      pop\n      pop\n      jump\t// out\n        /* \"#utility.yul\":5391:6374   */\n    tag_105:\n        /* \"#utility.yul\":5528:5531   */\n      0x00\n        /* \"#utility.yul\":5557:5620   */\n      tag_107\n        /* \"#utility.yul\":5614:5619   */\n      dup3\n        /* \"#utility.yul\":5557:5620   */\n      tag_108\n      jump\t// in\n    tag_107:\n        /* \"#utility.yul\":5636:5731   */\n      tag_109\n        /* \"#utility.yul\":5724:5730   */\n      dup2\n        /* \"#utility.yul\":5719:5722   */\n      dup6\n        /* \"#utility.yul\":5636:5731   */\n      tag_110\n      jump\t// in\n    tag_109:\n        /* \"#utility.yul\":5629:5731   */\n      swap4\n      pop\n        /* \"#utility.yul\":5757:5760   */\n      dup4\n        /* \"#utility.yul\":5802:5806   */\n      0x20\n        /* \"#utility.yul\":5794:5800   */\n      dup3\n        /* \"#utility.yul\":5790:5807   */\n      mul\n        /* \"#utility.yul\":5785:5788   */\n      dup6\n        /* \"#utility.yul\":5781:5808   */\n      add\n        /* \"#utility.yul\":5832:5897   */\n      tag_111\n        /* \"#utility.yul\":5891:5896   */\n      dup6\n        /* \"#utility.yul\":5832:5897   */\n      tag_112\n      jump\t// in\n    tag_111:\n        /* \"#utility.yul\":5920:5927   */\n      dup1\n        /* \"#utility.yul\":5951:5952   */\n      0x00\n        /* \"#utility.yul\":5936:6329   */\n    tag_113:\n        /* \"#utility.yul\":5961:5967   */\n      dup6\n        /* \"#utility.yul\":5958:5959   */\n      dup2\n        /* \"#utility.yul\":5955:5968   */\n      lt\n        /* \"#utility.yul\":5936:6329   */\n      iszero\n      tag_115\n      jumpi\n        /* \"#utility.yul\":6032:6041   */\n      dup5\n        /* \"#utility.yul\":6026:6030   */\n      dup5\n        /* \"#utility.yul\":6022:6042   */\n      sub\n        /* \"#utility.yul\":6017:6020   */\n      dup10\n        /* \"#utility.yul\":6010:6043   */\n      mstore\n        /* \"#utility.yul\":6083:6089   */\n      dup2\n        /* \"#utility.yul\":6077:6090   */\n      mload\n        /* \"#utility.yul\":6111:6193   */\n      tag_116\n        /* \"#utility.yul\":6188:6192   */\n      dup6\n        /* \"#utility.yul\":6173:6186   */\n      dup3\n        /* \"#utility.yul\":6111:6193   */\n      tag_97\n      jump\t// in\n    tag_116:\n        /* \"#utility.yul\":6103:6193   */\n      swap5\n      pop\n        /* \"#utility.yul\":6216:6285   */\n      tag_117\n        /* \"#utility.yul\":6278:6284   */\n      dup4\n        /* \"#utility.yul\":6216:6285   */\n      tag_118\n      jump\t// in\n    tag_117:\n        /* \"#utility.yul\":6206:6285   */\n      swap3\n      pop\n        /* \"#utility.yul\":6314:6318   */\n      0x20\n        /* \"#utility.yul\":6309:6312   */\n      dup11\n        /* \"#utility.yul\":6305:6319   */\n      add\n        /* \"#utility.yul\":6298:6319   */\n      swap10\n      pop\n        /* \"#utility.yul\":5996:6329   */\n      pop\n        /* \"#utility.yul\":5983:5984   */\n      0x01\n        /* \"#utility.yul\":5980:5981   */\n      dup2\n        /* \"#utility.yul\":5976:5985   */\n      add\n        /* \"#utility.yul\":5971:5985   */\n      swap1\n      pop\n        /* \"#utility.yul\":5936:6329   */\n      jump(tag_113)\n    tag_115:\n        /* \"#utility.yul\":5940:5954   */\n      pop\n        /* \"#utility.yul\":6345:6349   */\n      dup3\n        /* \"#utility.yul\":6338:6349   */\n      swap8\n      pop\n        /* \"#utility.yul\":6365:6368   */\n      dup8\n        /* \"#utility.yul\":6358:6368   */\n      swap6\n      pop\n        /* \"#utility.yul\":5533:6374   */\n      pop\n      pop\n      pop\n      pop\n      pop\n      swap3\n      swap2\n      pop\n      pop\n      jump\t// out\n        /* \"#utility.yul\":6380:6498   */\n    tag_119:\n        /* \"#utility.yul\":6467:6491   */\n      tag_121\n        /* \"#utility.yul\":6485:6490   */\n      dup2\n        /* \"#utility.yul\":6467:6491   */\n      tag_122\n      jump\t// in\n    tag_121:\n        /* \"#utility.yul\":6462:6465   */\n      dup3\n        /* \"#utility.yul\":6455:6492   */\n      mstore\n        /* \"#utility.yul\":6445:6498   */\n      pop\n      pop\n      jump\t// out\n        /* \"#utility.yul\":6504:6844   */\n    tag_100:\n        /* \"#utility.yul\":6580:6583   */\n      0x00\n        /* \"#utility.yul\":6608:6646   */\n      tag_124\n        /* \"#utility.yul\":6640:6645   */\n      dup3\n        /* \"#utility.yul\":6608:6646   */\n      tag_125\n      jump\t// in\n    tag_124:\n        /* \"#utility.yul\":6662:6722   */\n      tag_126\n        /* \"#utility.yul\":6715:6721   */\n      dup2\n        /* \"#utility.yul\":6710:6713   */\n      dup6\n        /* \"#utility.yul\":6662:6722   */\n      tag_127\n      jump\t// in\n    tag_126:\n        /* \"#utility.yul\":6655:6722   */\n      swap4\n      pop\n        /* \"#utility.yul\":6731:6783   */\n      tag_128\n        /* \"#utility.yul\":6776:6782   */\n      dup2\n        /* \"#utility.yul\":6771:6774   */\n      dup6\n        /* \"#utility.yul\":6764:6768   */\n      0x20\n        /* \"#utility.yul\":6757:6762   */\n      dup7\n        /* \"#utility.yul\":6753:6769   */\n      add\n        /* \"#utility.yul\":6731:6783   */\n      tag_129\n      jump\t// in\n    tag_128:\n        /* \"#utility.yul\":6808:6837   */\n      tag_130\n        /* \"#utility.yul\":6830:6836   */\n      dup2\n        /* \"#utility.yul\":6808:6837   */\n      tag_131\n      jump\t// in\n    tag_130:\n        /* \"#utility.yul\":6803:6806   */\n      dup5\n        /* \"#utility.yul\":6799:6838   */\n      add\n        /* \"#utility.yul\":6792:6838   */\n      swap2\n      pop\n        /* \"#utility.yul\":6584:6844   */\n      pop\n      swap3\n      swap2\n      pop\n      pop\n      jump\t// out\n        /* \"#utility.yul\":6850:6968   */\n    tag_132:\n        /* \"#utility.yul\":6937:6961   */\n      tag_134\n        /* \"#utility.yul\":6955:6960   */\n      dup2\n        /* \"#utility.yul\":6937:6961   */\n      tag_135\n      jump\t// in\n    tag_134:\n        /* \"#utility.yul\":6932:6935   */\n      dup3\n        /* \"#utility.yul\":6925:6962   */\n      mstore\n        /* \"#utility.yul\":6915:6968   */\n      pop\n      pop\n      jump\t// out\n        /* \"#utility.yul\":6974:7603   */\n    tag_26:\n        /* \"#utility.yul\":7191:7195   */\n      0x00\n        /* \"#utility.yul\":7229:7231   */\n      0x60\n        /* \"#utility.yul\":7218:7227   */\n      dup3\n        /* \"#utility.yul\":7214:7232   */\n      add\n        /* \"#utility.yul\":7206:7232   */\n      swap1\n      pop\n        /* \"#utility.yul\":7242:7313   */\n      tag_137\n        /* \"#utility.yul\":7310:7311   */\n      0x00\n        /* \"#utility.yul\":7299:7308   */\n      dup4\n        /* \"#utility.yul\":7295:7312   */\n      add\n        /* \"#utility.yul\":7286:7292   */\n      dup7\n        /* \"#utility.yul\":7242:7313   */\n      tag_101\n      jump\t// in\n    tag_137:\n        /* \"#utility.yul\":7360:7369   */\n      dup2\n        /* \"#utility.yul\":7354:7358   */\n      dup2\n        /* \"#utility.yul\":7350:7370   */\n      sub\n        /* \"#utility.yul\":7345:7347   */\n      0x20\n        /* \"#utility.yul\":7334:7343   */\n      dup4\n        /* \"#utility.yul\":7330:7348   */\n      add\n        /* \"#utility.yul\":7323:7371   */\n      mstore\n        /* \"#utility.yul\":7388:7514   */\n      tag_138\n        /* \"#utility.yul\":7509:7513   */\n      dup2\n        /* \"#utility.yul\":7500:7506   */\n      dup6\n        /* \"#utility.yul\":7388:7514   */\n      tag_105\n      jump\t// in\n    tag_138:\n        /* \"#utility.yul\":7380:7514   */\n      swap1\n      pop\n        /* \"#utility.yul\":7524:7596   */\n      tag_139\n        /* \"#utility.yul\":7592:7594   */\n      0x40\n        /* \"#utility.yul\":7581:7590   */\n      dup4\n        /* \"#utility.yul\":7577:7595   */\n      add\n        /* \"#utility.yul\":7568:7574   */\n      dup5\n        /* \"#utility.yul\":7524:7596   */\n      tag_119\n      jump\t// in\n    tag_139:\n        /* \"#utility.yul\":7196:7603   */\n      swap5\n      swap4\n      pop\n      pop\n      pop\n      pop\n      jump\t// out\n        /* \"#utility.yul\":7609:7831   */\n    tag_10:\n        /* \"#utility.yul\":7702:7706   */\n      0x00\n        /* \"#utility.yul\":7740:7742   */\n      0x20\n        /* \"#utility.yul\":7729:7738   */\n      dup3\n        /* \"#utility.yul\":7725:7743   */\n      add\n        /* \"#utility.yul\":7717:7743   */\n      swap1\n      pop\n        /* \"#utility.yul\":7753:7824   */\n      tag_141\n        /* \"#utility.yul\":7821:7822   */\n      0x00\n        /* \"#utility.yul\":7810:7819   */\n      dup4\n        /* \"#utility.yul\":7806:7823   */\n      add\n        /* \"#utility.yul\":7797:7803   */\n      dup5\n        /* \"#utility.yul\":7753:7824   */\n      tag_132\n      jump\t// in\n    tag_141:\n        /* \"#utility.yul\":7707:7831   */\n      swap3\n      swap2\n      pop\n      pop\n      jump\t// out\n        /* \"#utility.yul\":7837:7966   */\n    tag_34:\n        /* \"#utility.yul\":7871:7877   */\n      0x00\n        /* \"#utility.yul\":7898:7918   */\n      tag_143\n      tag_144\n      jump\t// in\n    tag_143:\n        /* \"#utility.yul\":7888:7918   */\n      swap1\n      pop\n        /* \"#utility.yul\":7927:7960   */\n      tag_145\n        /* \"#utility.yul\":7955:7959   */\n      dup3\n        /* \"#utility.yul\":7947:7953   */\n      dup3\n        /* \"#utility.yul\":7927:7960   */\n      tag_146\n      jump\t// in\n    tag_145:\n        /* \"#utility.yul\":7878:7966   */\n      swap2\n      swap1\n      pop\n      jump\t// out\n        /* \"#utility.yul\":7972:8047   */\n    tag_144:\n        /* \"#utility.yul\":8005:8011   */\n      0x00\n        /* \"#utility.yul\":8038:8040   */\n      0x40\n        /* \"#utility.yul\":8032:8041   */\n      mload\n        /* \"#utility.yul\":8022:8041   */\n      swap1\n      pop\n        /* \"#utility.yul\":8012:8047   */\n      swap1\n      jump\t// out\n        /* \"#utility.yul\":8053:8373   */\n    tag_33:\n        /* \"#utility.yul\":8139:8143   */\n      0x00\n        /* \"#utility.yul\":8229:8247   */\n      0xffffffffffffffff\n        /* \"#utility.yul\":8221:8227   */\n      dup3\n        /* \"#utility.yul\":8218:8248   */\n      gt\n        /* \"#utility.yul\":8215:8217   */\n      iszero\n      tag_149\n      jumpi\n        /* \"#utility.yul\":8251:8269   */\n      tag_150\n      tag_151\n      jump\t// in\n    tag_150:\n        /* \"#utility.yul\":8215:8217   */\n    tag_149:\n        /* \"#utility.yul\":8301:8305   */\n      0x20\n        /* \"#utility.yul\":8293:8299   */\n      dup3\n        /* \"#utility.yul\":8289:8306   */\n      mul\n        /* \"#utility.yul\":8281:8306   */\n      swap1\n      pop\n        /* \"#utility.yul\":8361:8365   */\n      0x20\n        /* \"#utility.yul\":8355:8359   */\n      dup2\n        /* \"#utility.yul\":8351:8366   */\n      add\n        /* \"#utility.yul\":8343:8366   */\n      swap1\n      pop\n        /* \"#utility.yul\":8144:8373   */\n      swap2\n      swap1\n      pop\n      jump\t// out\n        /* \"#utility.yul\":8379:8686   */\n    tag_46:\n        /* \"#utility.yul\":8440:8444   */\n      0x00\n        /* \"#utility.yul\":8530:8548   */\n      0xffffffffffffffff\n        /* \"#utility.yul\":8522:8528   */\n      dup3\n        /* \"#utility.yul\":8519:8549   */\n      gt\n        /* \"#utility.yul\":8516:8518   */\n      iszero\n      tag_153\n      jumpi\n        /* \"#utility.yul\":8552:8570   */\n      tag_154\n      tag_151\n      jump\t// in\n    tag_154:\n        /* \"#utility.yul\":8516:8518   */\n    tag_153:\n        /* \"#utility.yul\":8590:8619   */\n      tag_155\n        /* \"#utility.yul\":8612:8618   */\n      dup3\n        /* \"#utility.yul\":8590:8619   */\n      tag_131\n      jump\t// in\n    tag_155:\n        /* \"#utility.yul\":8582:8619   */\n      swap1\n      pop\n        /* \"#utility.yul\":8674:8678   */\n      0x20\n        /* \"#utility.yul\":8668:8672   */\n      dup2\n        /* \"#utility.yul\":8664:8679   */\n      add\n        /* \"#utility.yul\":8656:8679   */\n      swap1\n      pop\n        /* \"#utility.yul\":8445:8686   */\n      swap2\n      swap1\n      pop\n      jump\t// out\n        /* \"#utility.yul\":8692:9000   */\n    tag_54:\n        /* \"#utility.yul\":8754:8758   */\n      0x00\n        /* \"#utility.yul\":8844:8862   */\n      0xffffffffffffffff\n        /* \"#utility.yul\":8836:8842   */\n      dup3\n        /* \"#utility.yul\":8833:8863   */\n      gt\n        /* \"#utility.yul\":8830:8832   */\n      iszero\n      tag_157\n      jumpi\n        /* \"#utility.yul\":8866:8884   */\n      tag_158\n      tag_151\n      jump\t// in\n    tag_158:\n        /* \"#utility.yul\":8830:8832   */\n    tag_157:\n        /* \"#utility.yul\":8904:8933   */\n      tag_159\n        /* \"#utility.yul\":8926:8932   */\n      dup3\n        /* \"#utility.yul\":8904:8933   */\n      tag_131\n      jump\t// in\n    tag_159:\n        /* \"#utility.yul\":8896:8933   */\n      swap1\n      pop\n        /* \"#utility.yul\":8988:8992   */\n      0x20\n        /* \"#utility.yul\":8982:8986   */\n      dup2\n        /* \"#utility.yul\":8978:8993   */\n      add\n        /* \"#utility.yul\":8970:8993   */\n      swap1\n      pop\n        /* \"#utility.yul\":8759:9000   */\n      swap2\n      swap1\n      pop\n      jump\t// out\n        /* \"#utility.yul\":9006:9147   */\n    tag_112:\n        /* \"#utility.yul\":9082:9086   */\n      0x00\n        /* \"#utility.yul\":9105:9108   */\n      dup2\n        /* \"#utility.yul\":9097:9108   */\n      swap1\n      pop\n        /* \"#utility.yul\":9135:9139   */\n      0x20\n        /* \"#utility.yul\":9130:9133   */\n      dup3\n        /* \"#utility.yul\":9126:9140   */\n      add\n        /* \"#utility.yul\":9118:9140   */\n      swap1\n      pop\n        /* \"#utility.yul\":9087:9147   */\n      swap2\n      swap1\n      pop\n      jump\t// out\n        /* \"#utility.yul\":9153:9276   */\n    tag_108:\n        /* \"#utility.yul\":9229:9235   */\n      0x00\n        /* \"#utility.yul\":9263:9268   */\n      dup2\n        /* \"#utility.yul\":9257:9269   */\n      mload\n        /* \"#utility.yul\":9247:9269   */\n      swap1\n      pop\n        /* \"#utility.yul\":9236:9276   */\n      swap2\n      swap1\n      pop\n      jump\t// out\n        /* \"#utility.yul\":9282:9380   */\n    tag_125:\n        /* \"#utility.yul\":9333:9339   */\n      0x00\n        /* \"#utility.yul\":9367:9372   */\n      dup2\n        /* \"#utility.yul\":9361:9373   */\n      mload\n        /* \"#utility.yul\":9351:9373   */\n      swap1\n      pop\n        /* \"#utility.yul\":9340:9380   */\n      swap2\n      swap1\n      pop\n      jump\t// out\n        /* \"#utility.yul\":9386:9508   */\n    tag_118:\n        /* \"#utility.yul\":9465:9469   */\n      0x00\n        /* \"#utility.yul\":9497:9501   */\n      0x20\n        /* \"#utility.yul\":9492:9495   */\n      dup3\n        /* \"#utility.yul\":9488:9502   */\n      add\n        /* \"#utility.yul\":9480:9502   */\n      swap1\n      pop\n        /* \"#utility.yul\":9470:9508   */\n      swap2\n      swap1\n      pop\n      jump\t// out\n        /* \"#utility.yul\":9514:9707   */\n    tag_110:\n        /* \"#utility.yul\":9622:9633   */\n      0x00\n        /* \"#utility.yul\":9656:9662   */\n      dup3\n        /* \"#utility.yul\":9651:9654   */\n      dup3\n        /* \"#utility.yul\":9644:9663   */\n      mstore\n        /* \"#utility.yul\":9696:9700   */\n      0x20\n        /* \"#utility.yul\":9691:9694   */\n      dup3\n        /* \"#utility.yul\":9687:9701   */\n      add\n        /* \"#utility.yul\":9672:9701   */\n      swap1\n      pop\n        /* \"#utility.yul\":9634:9707   */\n      swap3\n      swap2\n      pop\n      pop\n      jump\t// out\n        /* \"#utility.yul\":9713:9871   */\n    tag_127:\n        /* \"#utility.yul\":9786:9797   */\n      0x00\n        /* \"#utility.yul\":9820:9826   */\n      dup3\n        /* \"#utility.yul\":9815:9818   */\n      dup3\n        /* \"#utility.yul\":9808:9827   */\n      mstore\n        /* \"#utility.yul\":9860:9864   */\n      0x20\n        /* \"#utility.yul\":9855:9858   */\n      dup3\n        /* \"#utility.yul\":9851:9865   */\n      add\n        /* \"#utility.yul\":9836:9865   */\n      swap1\n      pop\n        /* \"#utility.yul\":9798:9871   */\n      swap3\n      swap2\n      pop\n      pop\n      jump\t// out\n        /* \"#utility.yul\":9877:10131   */\n    tag_19:\n        /* \"#utility.yul\":9916:9919   */\n      0x00\n        /* \"#utility.yul\":9935:9954   */\n      tag_167\n        /* \"#utility.yul\":9952:9953   */\n      dup3\n        /* \"#utility.yul\":9935:9954   */\n      tag_168\n      jump\t// in\n    tag_167:\n        /* \"#utility.yul\":9930:9954   */\n      swap2\n      pop\n        /* \"#utility.yul\":9968:9987   */\n      tag_169\n        /* \"#utility.yul\":9985:9986   */\n      dup4\n        /* \"#utility.yul\":9968:9987   */\n      tag_168\n      jump\t// in\n    tag_169:\n        /* \"#utility.yul\":9963:9987   */\n      swap3\n      pop\n        /* \"#utility.yul\":10073:10074   */\n      dup3\n        /* \"#utility.yul\":10053:10071   */\n      0xffffffffffffffff\n        /* \"#utility.yul\":10049:10075   */\n      sub\n        /* \"#utility.yul\":10046:10047   */\n      dup3\n        /* \"#utility.yul\":10043:10076   */\n      gt\n        /* \"#utility.yul\":10040:10042   */\n      iszero\n      tag_170\n      jumpi\n        /* \"#utility.yul\":10079:10097   */\n      tag_171\n      tag_172\n      jump\t// in\n    tag_171:\n        /* \"#utility.yul\":10040:10042   */\n    tag_170:\n        /* \"#utility.yul\":10123:10124   */\n      dup3\n        /* \"#utility.yul\":10120:10121   */\n      dup3\n        /* \"#utility.yul\":10116:10125   */\n      add\n        /* \"#utility.yul\":10109:10125   */\n      swap1\n      pop\n        /* \"#utility.yul\":9920:10131   */\n      swap3\n      swap2\n      pop\n      pop\n      jump\t// out\n        /* \"#utility.yul\":10137:10233   */\n    tag_104:\n        /* \"#utility.yul\":10174:10181   */\n      0x00\n        /* \"#utility.yul\":10203:10227   */\n      tag_174\n        /* \"#utility.yul\":10221:10226   */\n      dup3\n        /* \"#utility.yul\":10203:10227   */\n      tag_175\n      jump\t// in\n    tag_174:\n        /* \"#utility.yul\":10192:10227   */\n      swap1\n      pop\n        /* \"#utility.yul\":10182:10233   */\n      swap2\n      swap1\n      pop\n      jump\t// out\n        /* \"#utility.yul\":10239:10316   */\n    tag_122:\n        /* \"#utility.yul\":10276:10283   */\n      0x00\n        /* \"#utility.yul\":10305:10310   */\n      dup2\n        /* \"#utility.yul\":10294:10310   */\n      swap1\n      pop\n        /* \"#utility.yul\":10284:10316   */\n      swap2\n      swap1\n      pop\n      jump\t// out\n        /* \"#utility.yul\":10322:10448   */\n    tag_175:\n        /* \"#utility.yul\":10359:10366   */\n      0x00\n        /* \"#utility.yul\":10399:10441   */\n      0xffffffffffffffffffffffffffffffffffffffff\n        /* \"#utility.yul\":10392:10397   */\n      dup3\n        /* \"#utility.yul\":10388:10442   */\n      and\n        /* \"#utility.yul\":10377:10442   */\n      swap1\n      pop\n        /* \"#utility.yul\":10367:10448   */\n      swap2\n      swap1\n      pop\n      jump\t// out\n        /* \"#utility.yul\":10454:10531   */\n    tag_135:\n        /* \"#utility.yul\":10491:10498   */\n      0x00\n        /* \"#utility.yul\":10520:10525   */\n      dup2\n        /* \"#utility.yul\":10509:10525   */\n      swap1\n      pop\n        /* \"#utility.yul\":10499:10531   */\n      swap2\n      swap1\n      pop\n      jump\t// out\n        /* \"#utility.yul\":10537:10638   */\n    tag_168:\n        /* \"#utility.yul\":10573:10580   */\n      0x00\n        /* \"#utility.yul\":10613:10631   */\n      0xffffffffffffffff\n        /* \"#utility.yul\":10606:10611   */\n      dup3\n        /* \"#utility.yul\":10602:10632   */\n      and\n        /* \"#utility.yul\":10591:10632   */\n      swap1\n      pop\n        /* \"#utility.yul\":10581:10638   */\n      swap2\n      swap1\n      pop\n      jump\t// out\n        /* \"#utility.yul\":10644:10798   */\n    tag_49:\n        /* \"#utility.yul\":10728:10734   */\n      dup3\n        /* \"#utility.yul\":10723:10726   */\n      dup2\n        /* \"#utility.yul\":10718:10721   */\n      dup4\n        /* \"#utility.yul\":10705:10735   */\n      calldatacopy\n        /* \"#utility.yul\":10790:10791   */\n      0x00\n        /* \"#utility.yul\":10781:10787   */\n      dup4\n        /* \"#utility.yul\":10776:10779   */\n      dup4\n        /* \"#utility.yul\":10772:10788   */\n      add\n        /* \"#utility.yul\":10765:10792   */\n      mstore\n        /* \"#utility.yul\":10695:10798   */\n      pop\n      pop\n      pop\n      jump\t// out\n        /* \"#utility.yul\":10804:11111   */\n    tag_129:\n        /* \"#utility.yul\":10872:10873   */\n      0x00\n        /* \"#utility.yul\":10882:10995   */\n    tag_182:\n        /* \"#utility.yul\":10896:10902   */\n      dup4\n        /* \"#utility.yul\":10893:10894   */\n      dup2\n        /* \"#utility.yul\":10890:10903   */\n      lt\n        /* \"#utility.yul\":10882:10995   */\n      iszero\n      tag_184\n      jumpi\n        /* \"#utility.yul\":10981:10982   */\n      dup1\n        /* \"#utility.yul\":10976:10979   */\n      dup3\n        /* \"#utility.yul\":10972:10983   */\n      add\n        /* \"#utility.yul\":10966:10984   */\n      mload\n        /* \"#utility.yul\":10962:10963   */\n      dup2\n        /* \"#utility.yul\":10957:10960   */\n      dup5\n        /* \"#utility.yul\":10953:10964   */\n      add\n        /* \"#utility.yul\":10946:10985   */\n      mstore\n        /* \"#utility.yul\":10918:10920   */\n      0x20\n        /* \"#utility.yul\":10915:10916   */\n      dup2\n        /* \"#utility.yul\":10911:10921   */\n      add\n        /* \"#utility.yul\":10906:10921   */\n      swap1\n      pop\n        /* \"#utility.yul\":10882:10995   */\n      jump(tag_182)\n    tag_184:\n        /* \"#utility.yul\":11013:11019   */\n      dup4\n        /* \"#utility.yul\":11010:11011   */\n      dup2\n        /* \"#utility.yul\":11007:11020   */\n      gt\n        /* \"#utility.yul\":11004:11006   */\n      iszero\n      tag_185\n      jumpi\n        /* \"#utility.yul\":11093:11094   */\n      0x00\n        /* \"#utility.yul\":11084:11090   */\n      dup5\n        /* \"#utility.yul\":11079:11082   */\n      dup5\n        /* \"#utility.yul\":11075:11091   */\n      add\n        /* \"#utility.yul\":11068:11095   */\n      mstore\n        /* \"#utility.yul\":11004:11006   */\n    tag_185:\n        /* \"#utility.yul\":10853:11111   */\n      pop\n      pop\n      pop\n      pop\n      jump\t// out\n        /* \"#utility.yul\":11117:11398   */\n    tag_146:\n        /* \"#utility.yul\":11200:11227   */\n      tag_187\n        /* \"#utility.yul\":11222:11226   */\n      dup3\n        /* \"#utility.yul\":11200:11227   */\n      tag_131\n      jump\t// in\n    tag_187:\n        /* \"#utility.yul\":11192:11198   */\n      dup2\n        /* \"#utility.yul\":11188:11228   */\n      add\n        /* \"#utility.yul\":11330:11336   */\n      dup2\n        /* \"#utility.yul\":11318:11328   */\n      dup2\n        /* \"#utility.yul\":11315:11337   */\n      lt\n        /* \"#utility.yul\":11294:11312   */\n      0xffffffffffffffff\n        /* \"#utility.yul\":11282:11292   */\n      dup3\n        /* \"#utility.yul\":11279:11313   */\n      gt\n        /* \"#utility.yul\":11276:11338   */\n      or\n        /* \"#utility.yul\":11273:11275   */\n      iszero\n      tag_188\n      jumpi\n        /* \"#utility.yul\":11341:11359   */\n      tag_189\n      tag_151\n      jump\t// in\n    tag_189:\n        /* \"#utility.yul\":11273:11275   */\n    tag_188:\n        /* \"#utility.yul\":11381:11391   */\n      dup1\n        /* \"#utility.yul\":11377:11379   */\n      0x40\n        /* \"#utility.yul\":11370:11392   */\n      mstore\n        /* \"#utility.yul\":11160:11398   */\n      pop\n      pop\n      pop\n      jump\t// out\n        /* \"#utility.yul\":11404:11584   */\n    tag_172:\n        /* \"#utility.yul\":11452:11529   */\n      0x4e487b7100000000000000000000000000000000000000000000000000000000\n        /* \"#utility.yul\":11449:11450   */\n      0x00\n        /* \"#utility.yul\":11442:11530   */\n      mstore\n        /* \"#utility.yul\":11549:11553   */\n      0x11\n        /* \"#utility.yul\":11546:11547   */\n      0x04\n        /* \"#utility.yul\":11539:11554   */\n      mstore\n        /* \"#utility.yul\":11573:11577   */\n      0x24\n        /* \"#utility.yul\":11570:11571   */\n      0x00\n        /* \"#utility.yul\":11563:11578   */\n      revert\n        /* \"#utility.yul\":11590:11770   */\n    tag_151:\n        /* \"#utility.yul\":11638:11715   */\n      0x4e487b7100000000000000000000000000000000000000000000000000000000\n        /* \"#utility.yul\":11635:11636   */\n      0x00\n        /* \"#utility.yul\":11628:11716   */\n      mstore\n        /* \"#utility.yul\":11735:11739   */\n      0x41\n        /* \"#utility.yul\":11732:11733   */\n      0x04\n        /* \"#utility.yul\":11725:11740   */\n      mstore\n        /* \"#utility.yul\":11759:11763   */\n      0x24\n        /* \"#utility.yul\":11756:11757   */\n      0x00\n        /* \"#utility.yul\":11749:11764   */\n      revert\n        /* \"#utility.yul\":11776:11878   */\n    tag_131:\n        /* \"#utility.yul\":11817:11823   */\n      0x00\n        /* \"#utility.yul\":11868:11870   */\n      0x1f\n        /* \"#utility.yul\":11864:11871   */\n      not\n        /* \"#utility.yul\":11859:11861   */\n      0x1f\n        /* \"#utility.yul\":11852:11857   */\n      dup4\n        /* \"#utility.yul\":11848:11862   */\n      add\n        /* \"#utility.yul\":11844:11872   */\n      and\n        /* \"#utility.yul\":11834:11872   */\n      swap1\n      pop\n        /* \"#utility.yul\":11824:11878   */\n      swap2\n      swap1\n      pop\n      jump\t// out\n        /* \"#utility.yul\":11884:12006   */\n    tag_60:\n        /* \"#utility.yul\":11957:11981   */\n      tag_194\n        /* \"#utility.yul\":11975:11980   */\n      dup2\n        /* \"#utility.yul\":11957:11981   */\n      tag_104\n      jump\t// in\n    tag_194:\n        /* \"#utility.yul\":11950:11955   */\n      dup2\n        /* \"#utility.yul\":11947:11982   */\n      eq\n        /* \"#utility.yul\":11937:11939   */\n      tag_195\n      jumpi\n        /* \"#utility.yul\":11996:11997   */\n      0x00\n        /* \"#utility.yul\":11993:11994   */\n      dup1\n        /* \"#utility.yul\":11986:11998   */\n      revert\n        /* \"#utility.yul\":11937:11939   */\n    tag_195:\n        /* \"#utility.yul\":11927:12006   */\n      pop\n      jump\t// out\n        /* \"#utility.yul\":12012:12134   */\n    tag_68:\n        /* \"#utility.yul\":12085:12109   */\n      tag_197\n        /* \"#utility.yul\":12103:12108   */\n      dup2\n        /* \"#utility.yul\":12085:12109   */\n      tag_122\n      jump\t// in\n    tag_197:\n        /* \"#utility.yul\":12078:12083   */\n      dup2\n        /* \"#utility.yul\":12075:12110   */\n      eq\n        /* \"#utility.yul\":12065:12067   */\n      tag_198\n      jumpi\n        /* \"#utility.yul\":12124:12125   */\n      0x00\n        /* \"#utility.yul\":12121:12122   */\n      dup1\n        /* \"#utility.yul\":12114:12126   */\n      revert\n        /* \"#utility.yul\":12065:12067   */\n    tag_198:\n        /* \"#utility.yul\":12055:12134   */\n      pop\n      jump\t// out\n        /* \"#utility.yul\":12140:12262   */\n    tag_79:\n        /* \"#utility.yul\":12213:12237   */\n      tag_200\n        /* \"#utility.yul\":12231:12236   */\n      dup2\n        /* \"#utility.yul\":12213:12237   */\n      tag_135\n      jump\t// in\n    tag_200:\n        /* \"#utility.yul\":12206:12211   */\n      dup2\n        /* \"#utility.yul\":12203:12238   */\n      eq\n        /* \"#utility.yul\":12193:12195   */\n      tag_201\n      jumpi\n        /* \"#utility.yul\":12252:12253   */\n      0x00\n        /* \"#utility.yul\":12249:12250   */\n      dup1\n        /* \"#utility.yul\":12242:12254   */\n      revert\n        /* \"#utility.yul\":12193:12195   */\n    tag_201:\n        /* \"#utility.yul\":12183:12262   */\n      pop\n      jump\t// out\n\n    auxdata: 0xa26469706673582212207bd1e3436aa9c402f44c216aace35bd38c4c414b6b55ea6862c50d158099617f64736f6c63430008040033\n}\n",
				"bytecode": {
					"linkReferences": {},
					"object": "608060405234801561001057600080fd5b506108d0806100206000396000f3fe608060405234801561001057600080fd5b50600436106100365760003560e01c806342f9d5be1461003b5780638c4461b31461006b575b600080fd5b610055600480360381019061005091906103bd565b61009b565b60405161006291906105b8565b60405180910390f35b61008560048036038101906100809190610356565b61012f565b60405161009291906105b8565b60405180910390f35b6000806100b08984868051906020012061012f565b905060008060008381526020019081526020016000209050600089436100d691906106db565b9050600089826100e691906106db565b90506100fe828460000161016890919063ffffffff16565b610114818460010161016890919063ffffffff16565b88836002018190555083945050505050979650505050505050565b60008383836040516020016101469392919061057a565b6040516020818303038152906040528051906020012060001c90509392505050565b808260000160006101000a81548167ffffffffffffffff021916908367ffffffffffffffff1602179055505050565b60006101aa6101a5846105f8565b6105d3565b905080838252602082019050828560208602820111156101c957600080fd5b60005b8581101561021357813567ffffffffffffffff8111156101eb57600080fd5b8086016101f889826102ed565b855260208501945060208401935050506001810190506101cc565b5050509392505050565b600061023061022b84610624565b6105d3565b90508281526020810184848401111561024857600080fd5b610253848285610773565b509392505050565b600061026e61026984610655565b6105d3565b90508281526020810184848401111561028657600080fd5b610291848285610773565b509392505050565b6000813590506102a881610855565b92915050565b600082601f8301126102bf57600080fd5b81356102cf848260208601610197565b91505092915050565b6000813590506102e78161086c565b92915050565b600082601f8301126102fe57600080fd5b813561030e84826020860161021d565b91505092915050565b600082601f83011261032857600080fd5b813561033884826020860161025b565b91505092915050565b60008135905061035081610883565b92915050565b60008060006060848603121561036b57600080fd5b600061037986828701610299565b935050602084013567ffffffffffffffff81111561039657600080fd5b6103a2868287016102ae565b92505060406103b3868287016102d8565b9150509250925092565b600080600080600080600060e0888a0312156103d857600080fd5b60006103e68a828b01610299565b97505060206103f78a828b01610341565b96505060406104088a828b01610341565b95505060606104198a828b01610341565b945050608061042a8a828b01610299565b93505060a088013567ffffffffffffffff81111561044757600080fd5b6104538a828b01610317565b92505060c088013567ffffffffffffffff81111561047057600080fd5b61047c8a828b016102ae565b91505092959891949750929550565b60006104978383610532565b905092915050565b6104a881610719565b82525050565b60006104b982610696565b6104c381856106b9565b9350836020820285016104d585610686565b8060005b8581101561051157848403895281516104f2858261048b565b94506104fd836106ac565b925060208a019950506001810190506104d9565b50829750879550505050505092915050565b61052c8161072b565b82525050565b600061053d826106a1565b61054781856106ca565b9350610557818560208601610782565b61056081610844565b840191505092915050565b61057481610755565b82525050565b600060608201905061058f600083018661049f565b81810360208301526105a181856104ae565b90506105b06040830184610523565b949350505050565b60006020820190506105cd600083018461056b565b92915050565b60006105dd6105ee565b90506105e982826107b5565b919050565b6000604051905090565b600067ffffffffffffffff82111561061357610612610815565b5b602082029050602081019050919050565b600067ffffffffffffffff82111561063f5761063e610815565b5b61064882610844565b9050602081019050919050565b600067ffffffffffffffff8211156106705761066f610815565b5b61067982610844565b9050602081019050919050565b6000819050602082019050919050565b600081519050919050565b600081519050919050565b6000602082019050919050565b600082825260208201905092915050565b600082825260208201905092915050565b60006106e68261075f565b91506106f18361075f565b92508267ffffffffffffffff0382111561070e5761070d6107e6565b5b828201905092915050565b600061072482610735565b9050919050565b6000819050919050565b600073ffffffffffffffffffffffffffffffffffffffff82169050919050565b6000819050919050565b600067ffffffffffffffff82169050919050565b82818337600083830152505050565b60005b838110156107a0578082015181840152602081019050610785565b838111156107af576000848401525b50505050565b6107be82610844565b810181811067ffffffffffffffff821117156107dd576107dc610815565b5b80604052505050565b7f4e487b7100000000000000000000000000000000000000000000000000000000600052601160045260246000fd5b7f4e487b7100000000000000000000000000000000000000000000000000000000600052604160045260246000fd5b6000601f19601f8301169050919050565b61085e81610719565b811461086957600080fd5b50565b6108758161072b565b811461088057600080fd5b50565b61088c81610755565b811461089757600080fd5b5056fea26469706673582212207bd1e3436aa9c402f44c216aace35bd38c4c414b6b55ea6862c50d158099617f64736f6c63430008040033",
					"opcodes": "PUSH1 0x80 PUSH1 0x40 MSTORE CALLVALUE DUP1 ISZERO PUSH2 0x10 JUMPI PUSH1 0x0 DUP1 REVERT JUMPDEST POP PUSH2 0x8D0 DUP1 PUSH2 0x20 PUSH1 0x0 CODECOPY PUSH1 0x0 RETURN INVALID PUSH1 0x80 PUSH1 0x40 MSTORE CALLVALUE DUP1 ISZERO PUSH2 0x10 JUMPI PUSH1 0x0 DUP1 REVERT JUMPDEST POP PUSH1 0x4 CALLDATASIZE LT PUSH2 0x36 JUMPI PUSH1 0x0 CALLDATALOAD PUSH1 0xE0 SHR DUP1 PUSH4 0x42F9D5BE EQ PUSH2 0x3B JUMPI DUP1 PUSH4 0x8C4461B3 EQ PUSH2 0x6B JUMPI JUMPDEST PUSH1 0x0 DUP1 REVERT JUMPDEST PUSH2 0x55 PUSH1 0x4 DUP1 CALLDATASIZE SUB DUP2 ADD SWAP1 PUSH2 0x50 SWAP2 SWAP1 PUSH2 0x3BD JUMP JUMPDEST PUSH2 0x9B JUMP JUMPDEST PUSH1 0x40 MLOAD PUSH2 0x62 SWAP2 SWAP1 PUSH2 0x5B8 JUMP JUMPDEST PUSH1 0x40 MLOAD DUP1 SWAP2 SUB SWAP1 RETURN JUMPDEST PUSH2 0x85 PUSH1 0x4 DUP1 CALLDATASIZE SUB DUP2 ADD SWAP1 PUSH2 0x80 SWAP2 SWAP1 PUSH2 0x356 JUMP JUMPDEST PUSH2 0x12F JUMP JUMPDEST PUSH1 0x40 MLOAD PUSH2 0x92 SWAP2 SWAP1 PUSH2 0x5B8 JUMP JUMPDEST PUSH1 0x40 MLOAD DUP1 SWAP2 SUB SWAP1 RETURN JUMPDEST PUSH1 0x0 DUP1 PUSH2 0xB0 DUP10 DUP5 DUP7 DUP1 MLOAD SWAP1 PUSH1 0x20 ADD KECCAK256 PUSH2 0x12F JUMP JUMPDEST SWAP1 POP PUSH1 0x0 DUP1 PUSH1 0x0 DUP4 DUP2 MSTORE PUSH1 0x20 ADD SWAP1 DUP2 MSTORE PUSH1 0x20 ADD PUSH1 0x0 KECCAK256 SWAP1 POP PUSH1 0x0 DUP10 NUMBER PUSH2 0xD6 SWAP2 SWAP1 PUSH2 0x6DB JUMP JUMPDEST SWAP1 POP PUSH1 0x0 DUP10 DUP3 PUSH2 0xE6 SWAP2 SWAP1 PUSH2 0x6DB JUMP JUMPDEST SWAP1 POP PUSH2 0xFE DUP3 DUP5 PUSH1 0x0 ADD PUSH2 0x168 SWAP1 SWAP2 SWAP1 PUSH4 0xFFFFFFFF AND JUMP JUMPDEST PUSH2 0x114 DUP2 DUP5 PUSH1 0x1 ADD PUSH2 0x168 SWAP1 SWAP2 SWAP1 PUSH4 0xFFFFFFFF AND JUMP JUMPDEST DUP9 DUP4 PUSH1 0x2 ADD DUP2 SWAP1 SSTORE POP DUP4 SWAP5 POP POP POP POP POP SWAP8 SWAP7 POP POP POP POP POP POP POP JUMP JUMPDEST PUSH1 0x0 DUP4 DUP4 DUP4 PUSH1 0x40 MLOAD PUSH1 0x20 ADD PUSH2 0x146 SWAP4 SWAP3 SWAP2 SWAP1 PUSH2 0x57A JUMP JUMPDEST PUSH1 0x40 MLOAD PUSH1 0x20 DUP2 DUP4 SUB SUB DUP2 MSTORE SWAP1 PUSH1 0x40 MSTORE DUP1 MLOAD SWAP1 PUSH1 0x20 ADD KECCAK256 PUSH1 0x0 SHR SWAP1 POP SWAP4 SWAP3 POP POP POP JUMP JUMPDEST DUP1 DUP3 PUSH1 0x0 ADD PUSH1 0x0 PUSH2 0x100 EXP DUP2 SLOAD DUP2 PUSH8 0xFFFFFFFFFFFFFFFF MUL NOT AND SWAP1 DUP4 PUSH8 0xFFFFFFFFFFFFFFFF AND MUL OR SWAP1 SSTORE POP POP POP JUMP JUMPDEST PUSH1 0x0 PUSH2 0x1AA PUSH2 0x1A5 DUP5 PUSH2 0x5F8 JUMP JUMPDEST PUSH2 0x5D3 JUMP JUMPDEST SWAP1 POP DUP1 DUP4 DUP3 MSTORE PUSH1 0x20 DUP3 ADD SWAP1 POP DUP3 DUP6 PUSH1 0x20 DUP7 MUL DUP3 ADD GT ISZERO PUSH2 0x1C9 JUMPI PUSH1 0x0 DUP1 REVERT JUMPDEST PUSH1 0x0 JUMPDEST DUP6 DUP2 LT ISZERO PUSH2 0x213 JUMPI DUP2 CALLDATALOAD PUSH8 0xFFFFFFFFFFFFFFFF DUP2 GT ISZERO PUSH2 0x1EB JUMPI PUSH1 0x0 DUP1 REVERT JUMPDEST DUP1 DUP7 ADD PUSH2 0x1F8 DUP10 DUP3 PUSH2 0x2ED JUMP JUMPDEST DUP6 MSTORE PUSH1 0x20 DUP6 ADD SWAP5 POP PUSH1 0x20 DUP5 ADD SWAP4 POP POP POP PUSH1 0x1 DUP2 ADD SWAP1 POP PUSH2 0x1CC JUMP JUMPDEST POP POP POP SWAP4 SWAP3 POP POP POP JUMP JUMPDEST PUSH1 0x0 PUSH2 0x230 PUSH2 0x22B DUP5 PUSH2 0x624 JUMP JUMPDEST PUSH2 0x5D3 JUMP JUMPDEST SWAP1 POP DUP3 DUP2 MSTORE PUSH1 0x20 DUP2 ADD DUP5 DUP5 DUP5 ADD GT ISZERO PUSH2 0x248 JUMPI PUSH1 0x0 DUP1 REVERT JUMPDEST PUSH2 0x253 DUP5 DUP3 DUP6 PUSH2 0x773 JUMP JUMPDEST POP SWAP4 SWAP3 POP POP POP JUMP JUMPDEST PUSH1 0x0 PUSH2 0x26E PUSH2 0x269 DUP5 PUSH2 0x655 JUMP JUMPDEST PUSH2 0x5D3 JUMP JUMPDEST SWAP1 POP DUP3 DUP2 MSTORE PUSH1 0x20 DUP2 ADD DUP5 DUP5 DUP5 ADD GT ISZERO PUSH2 0x286 JUMPI PUSH1 0x0 DUP1 REVERT JUMPDEST PUSH2 0x291 DUP5 DUP3 DUP6 PUSH2 0x773 JUMP JUMPDEST POP SWAP4 SWAP3 POP POP POP JUMP JUMPDEST PUSH1 0x0 DUP2 CALLDATALOAD SWAP1 POP PUSH2 0x2A8 DUP2 PUSH2 0x855 JUMP JUMPDEST SWAP3 SWAP2 POP POP JUMP JUMPDEST PUSH1 0x0 DUP3 PUSH1 0x1F DUP4 ADD SLT PUSH2 0x2BF JUMPI PUSH1 0x0 DUP1 REVERT JUMPDEST DUP2 CALLDATALOAD PUSH2 0x2CF DUP5 DUP3 PUSH1 0x20 DUP7 ADD PUSH2 0x197 JUMP JUMPDEST SWAP2 POP POP SWAP3 SWAP2 POP POP JUMP JUMPDEST PUSH1 0x0 DUP2 CALLDATALOAD SWAP1 POP PUSH2 0x2E7 DUP2 PUSH2 0x86C JUMP JUMPDEST SWAP3 SWAP2 POP POP JUMP JUMPDEST PUSH1 0x0 DUP3 PUSH1 0x1F DUP4 ADD SLT PUSH2 0x2FE JUMPI PUSH1 0x0 DUP1 REVERT JUMPDEST DUP2 CALLDATALOAD PUSH2 0x30E DUP5 DUP3 PUSH1 0x20 DUP7 ADD PUSH2 0x21D JUMP JUMPDEST SWAP2 POP POP SWAP3 SWAP2 POP POP JUMP JUMPDEST PUSH1 0x0 DUP3 PUSH1 0x1F DUP4 ADD SLT PUSH2 0x328 JUMPI PUSH1 0x0 DUP1 REVERT JUMPDEST DUP2 CALLDATALOAD PUSH2 0x338 DUP5 DUP3 PUSH1 0x20 DUP7 ADD PUSH2 0x25B JUMP JUMPDEST SWAP2 POP POP SWAP3 SWAP2 POP POP JUMP JUMPDEST PUSH1 0x0 DUP2 CALLDATALOAD SWAP1 POP PUSH2 0x350 DUP2 PUSH2 0x883 JUMP JUMPDEST SWAP3 SWAP2 POP POP JUMP JUMPDEST PUSH1 0x0 DUP1 PUSH1 0x0 PUSH1 0x60 DUP5 DUP7 SUB SLT ISZERO PUSH2 0x36B JUMPI PUSH1 0x0 DUP1 REVERT JUMPDEST PUSH1 0x0 PUSH2 0x379 DUP7 DUP3 DUP8 ADD PUSH2 0x299 JUMP JUMPDEST SWAP4 POP POP PUSH1 0x20 DUP5 ADD CALLDATALOAD PUSH8 0xFFFFFFFFFFFFFFFF DUP2 GT ISZERO PUSH2 0x396 JUMPI PUSH1 0x0 DUP1 REVERT JUMPDEST PUSH2 0x3A2 DUP7 DUP3 DUP8 ADD PUSH2 0x2AE JUMP JUMPDEST SWAP3 POP POP PUSH1 0x40 PUSH2 0x3B3 DUP7 DUP3 DUP8 ADD PUSH2 0x2D8 JUMP JUMPDEST SWAP2 POP POP SWAP3 POP SWAP3 POP SWAP3 JUMP JUMPDEST PUSH1 0x0 DUP1 PUSH1 0x0 DUP1 PUSH1 0x0 DUP1 PUSH1 0x0 PUSH1 0xE0 DUP9 DUP11 SUB SLT ISZERO PUSH2 0x3D8 JUMPI PUSH1 0x0 DUP1 REVERT JUMPDEST PUSH1 0x0 PUSH2 0x3E6 DUP11 DUP3 DUP12 ADD PUSH2 0x299 JUMP JUMPDEST SWAP8 POP POP PUSH1 0x20 PUSH2 0x3F7 DUP11 DUP3 DUP12 ADD PUSH2 0x341 JUMP JUMPDEST SWAP7 POP POP PUSH1 0x40 PUSH2 0x408 DUP11 DUP3 DUP12 ADD PUSH2 0x341 JUMP JUMPDEST SWAP6 POP POP PUSH1 0x60 PUSH2 0x419 DUP11 DUP3 DUP12 ADD PUSH2 0x341 JUMP JUMPDEST SWAP5 POP POP PUSH1 0x80 PUSH2 0x42A DUP11 DUP3 DUP12 ADD PUSH2 0x299 JUMP JUMPDEST SWAP4 POP POP PUSH1 0xA0 DUP9 ADD CALLDATALOAD PUSH8 0xFFFFFFFFFFFFFFFF DUP2 GT ISZERO PUSH2 0x447 JUMPI PUSH1 0x0 DUP1 REVERT JUMPDEST PUSH2 0x453 DUP11 DUP3 DUP12 ADD PUSH2 0x317 JUMP JUMPDEST SWAP3 POP POP PUSH1 0xC0 DUP9 ADD CALLDATALOAD PUSH8 0xFFFFFFFFFFFFFFFF DUP2 GT ISZERO PUSH2 0x470 JUMPI PUSH1 0x0 DUP1 REVERT JUMPDEST PUSH2 0x47C DUP11 DUP3 DUP12 ADD PUSH2 0x2AE JUMP JUMPDEST SWAP2 POP POP SWAP3 SWAP6 SWAP9 SWAP2 SWAP5 SWAP8 POP SWAP3 SWAP6 POP JUMP JUMPDEST PUSH1 0x0 PUSH2 0x497 DUP4 DUP4 PUSH2 0x532 JUMP JUMPDEST SWAP1 POP SWAP3 SWAP2 POP POP JUMP JUMPDEST PUSH2 0x4A8 DUP2 PUSH2 0x719 JUMP JUMPDEST DUP3 MSTORE POP POP JUMP JUMPDEST PUSH1 0x0 PUSH2 0x4B9 DUP3 PUSH2 0x696 JUMP JUMPDEST PUSH2 0x4C3 DUP2 DUP6 PUSH2 0x6B9 JUMP JUMPDEST SWAP4 POP DUP4 PUSH1 0x20 DUP3 MUL DUP6 ADD PUSH2 0x4D5 DUP6 PUSH2 0x686 JUMP JUMPDEST DUP1 PUSH1 0x0 JUMPDEST DUP6 DUP2 LT ISZERO PUSH2 0x511 JUMPI DUP5 DUP5 SUB DUP10 MSTORE DUP2 MLOAD PUSH2 0x4F2 DUP6 DUP3 PUSH2 0x48B JUMP JUMPDEST SWAP5 POP PUSH2 0x4FD DUP4 PUSH2 0x6AC JUMP JUMPDEST SWAP3 POP PUSH1 0x20 DUP11 ADD SWAP10 POP POP PUSH1 0x1 DUP2 ADD SWAP1 POP PUSH2 0x4D9 JUMP JUMPDEST POP DUP3 SWAP8 POP DUP8 SWAP6 POP POP POP POP POP POP SWAP3 SWAP2 POP POP JUMP JUMPDEST PUSH2 0x52C DUP2 PUSH2 0x72B JUMP JUMPDEST DUP3 MSTORE POP POP JUMP JUMPDEST PUSH1 0x0 PUSH2 0x53D DUP3 PUSH2 0x6A1 JUMP JUMPDEST PUSH2 0x547 DUP2 DUP6 PUSH2 0x6CA JUMP JUMPDEST SWAP4 POP PUSH2 0x557 DUP2 DUP6 PUSH1 0x20 DUP7 ADD PUSH2 0x782 JUMP JUMPDEST PUSH2 0x560 DUP2 PUSH2 0x844 JUMP JUMPDEST DUP5 ADD SWAP2 POP POP SWAP3 SWAP2 POP POP JUMP JUMPDEST PUSH2 0x574 DUP2 PUSH2 0x755 JUMP JUMPDEST DUP3 MSTORE POP POP JUMP JUMPDEST PUSH1 0x0 PUSH1 0x60 DUP3 ADD SWAP1 POP PUSH2 0x58F PUSH1 0x0 DUP4 ADD DUP7 PUSH2 0x49F JUMP JUMPDEST DUP2 DUP2 SUB PUSH1 0x20 DUP4 ADD MSTORE PUSH2 0x5A1 DUP2 DUP6 PUSH2 0x4AE JUMP JUMPDEST SWAP1 POP PUSH2 0x5B0 PUSH1 0x40 DUP4 ADD DUP5 PUSH2 0x523 JUMP JUMPDEST SWAP5 SWAP4 POP POP POP POP JUMP JUMPDEST PUSH1 0x0 PUSH1 0x20 DUP3 ADD SWAP1 POP PUSH2 0x5CD PUSH1 0x0 DUP4 ADD DUP5 PUSH2 0x56B JUMP JUMPDEST SWAP3 SWAP2 POP POP JUMP JUMPDEST PUSH1 0x0 PUSH2 0x5DD PUSH2 0x5EE JUMP JUMPDEST SWAP1 POP PUSH2 0x5E9 DUP3 DUP3 PUSH2 0x7B5 JUMP JUMPDEST SWAP2 SWAP1 POP JUMP JUMPDEST PUSH1 0x0 PUSH1 0x40 MLOAD SWAP1 POP SWAP1 JUMP JUMPDEST PUSH1 0x0 PUSH8 0xFFFFFFFFFFFFFFFF DUP3 GT ISZERO PUSH2 0x613 JUMPI PUSH2 0x612 PUSH2 0x815 JUMP JUMPDEST JUMPDEST PUSH1 0x20 DUP3 MUL SWAP1 POP PUSH1 0x20 DUP2 ADD SWAP1 POP SWAP2 SWAP1 POP JUMP JUMPDEST PUSH1 0x0 PUSH8 0xFFFFFFFFFFFFFFFF DUP3 GT ISZERO PUSH2 0x63F JUMPI PUSH2 0x63E PUSH2 0x815 JUMP JUMPDEST JUMPDEST PUSH2 0x648 DUP3 PUSH2 0x844 JUMP JUMPDEST SWAP1 POP PUSH1 0x20 DUP2 ADD SWAP1 POP SWAP2 SWAP1 POP JUMP JUMPDEST PUSH1 0x0 PUSH8 0xFFFFFFFFFFFFFFFF DUP3 GT ISZERO PUSH2 0x670 JUMPI PUSH2 0x66F PUSH2 0x815 JUMP JUMPDEST JUMPDEST PUSH2 0x679 DUP3 PUSH2 0x844 JUMP JUMPDEST SWAP1 POP PUSH1 0x20 DUP2 ADD SWAP1 POP SWAP2 SWAP1 POP JUMP JUMPDEST PUSH1 0x0 DUP2 SWAP1 POP PUSH1 0x20 DUP3 ADD SWAP1 POP SWAP2 SWAP1 POP JUMP JUMPDEST PUSH1 0x0 DUP2 MLOAD SWAP1 POP SWAP2 SWAP1 POP JUMP JUMPDEST PUSH1 0x0 DUP2 MLOAD SWAP1 POP SWAP2 SWAP1 POP JUMP JUMPDEST PUSH1 0x0 PUSH1 0x20 DUP3 ADD SWAP1 POP SWAP2 SWAP1 POP JUMP JUMPDEST PUSH1 0x0 DUP3 DUP3 MSTORE PUSH1 0x20 DUP3 ADD SWAP1 POP SWAP3 SWAP2 POP POP JUMP JUMPDEST PUSH1 0x0 DUP3 DUP3 MSTORE PUSH1 0x20 DUP3 ADD SWAP1 POP SWAP3 SWAP2 POP POP JUMP JUMPDEST PUSH1 0x0 PUSH2 0x6E6 DUP3 PUSH2 0x75F JUMP JUMPDEST SWAP2 POP PUSH2 0x6F1 DUP4 PUSH2 0x75F JUMP JUMPDEST SWAP3 POP DUP3 PUSH8 0xFFFFFFFFFFFFFFFF SUB DUP3 GT ISZERO PUSH2 0x70E JUMPI PUSH2 0x70D PUSH2 0x7E6 JUMP JUMPDEST JUMPDEST DUP3 DUP3 ADD SWAP1 POP SWAP3 SWAP2 POP POP JUMP JUMPDEST PUSH1 0x0 PUSH2 0x724 DUP3 PUSH2 0x735 JUMP JUMPDEST SWAP1 POP SWAP2 SWAP1 POP JUMP JUMPDEST PUSH1 0x0 DUP2 SWAP1 POP SWAP2 SWAP1 POP JUMP JUMPDEST PUSH1 0x0 PUSH20 0xFFFFFFFFFFFFFFFFFFFFFFFFFFFFFFFFFFFFFFFF DUP3 AND SWAP1 POP SWAP2 SWAP1 POP JUMP JUMPDEST PUSH1 0x0 DUP2 SWAP1 POP SWAP2 SWAP1 POP JUMP JUMPDEST PUSH1 0x0 PUSH8 0xFFFFFFFFFFFFFFFF DUP3 AND SWAP1 POP SWAP2 SWAP1 POP JUMP JUMPDEST DUP3 DUP2 DUP4 CALLDATACOPY PUSH1 0x0 DUP4 DUP4 ADD MSTORE POP POP POP JUMP JUMPDEST PUSH1 0x0 JUMPDEST DUP4 DUP2 LT ISZERO PUSH2 0x7A0 JUMPI DUP1 DUP3 ADD MLOAD DUP2 DUP5 ADD MSTORE PUSH1 0x20 DUP2 ADD SWAP1 POP PUSH2 0x785 JUMP JUMPDEST DUP4 DUP2 GT ISZERO PUSH2 0x7AF JUMPI PUSH1 0x0 DUP5 DUP5 ADD MSTORE JUMPDEST POP POP POP POP JUMP JUMPDEST PUSH2 0x7BE DUP3 PUSH2 0x844 JUMP JUMPDEST DUP2 ADD DUP2 DUP2 LT PUSH8 0xFFFFFFFFFFFFFFFF DUP3 GT OR ISZERO PUSH2 0x7DD JUMPI PUSH2 0x7DC PUSH2 0x815 JUMP JUMPDEST JUMPDEST DUP1 PUSH1 0x40 MSTORE POP POP POP JUMP JUMPDEST PUSH32 0x4E487B7100000000000000000000000000000000000000000000000000000000 PUSH1 0x0 MSTORE PUSH1 0x11 PUSH1 0x4 MSTORE PUSH1 0x24 PUSH1 0x0 REVERT JUMPDEST PUSH32 0x4E487B7100000000000000000000000000000000000000000000000000000000 PUSH1 0x0 MSTORE PUSH1 0x41 PUSH1 0x4 MSTORE PUSH1 0x24 PUSH1 0x0 REVERT JUMPDEST PUSH1 0x0 PUSH1 0x1F NOT PUSH1 0x1F DUP4 ADD AND SWAP1 POP SWAP2 SWAP1 POP JUMP JUMPDEST PUSH2 0x85E DUP2 PUSH2 0x719 JUMP JUMPDEST DUP2 EQ PUSH2 0x869 JUMPI PUSH1 0x0 DUP1 REVERT JUMPDEST POP JUMP JUMPDEST PUSH2 0x875 DUP2 PUSH2 0x72B JUMP JUMPDEST DUP2 EQ PUSH2 0x880 JUMPI PUSH1 0x0 DUP1 REVERT JUMPDEST POP JUMP JUMPDEST PUSH2 0x88C DUP2 PUSH2 0x755 JUMP JUMPDEST DUP2 EQ PUSH2 0x897 JUMPI PUSH1 0x0 DUP1 REVERT JUMPDEST POP JUMP INVALID LOG2 PUSH5 0x6970667358 0x22 SLT KECCAK256 PUSH28 0xD1E3436AA9C402F44C216AACE35BD38C4C414B6B55EA6862C50D1580 SWAP10 PUSH2 0x7F64 PUSH20 0x6F6C634300080400330000000000000000000000 "
				},
				"gasEstimates": {
					"creation": {
						"codeDepositCost": "451200",
						"executionCost": "486",
						"totalCost": "451686"
					},
					"external": {
						"hashProposal(address,bytes[],bytes32)": "infinite",
						"proposal(address,uint256,uint256,uint256,address,string,bytes[])": "infinite"
					}
				},
				"methodIdentifiers": {
					"hashProposal(address,bytes[],bytes32)": "8c4461b3",
					"proposal(address,uint256,uint256,uint256,address,string,bytes[])": "42f9d5be"
				}
			},
			"storageLayout": {
				"storage": [
					{
						"astId": 24,
						"contract": ".workspaces/default_workspace/unMiracle/UMRCmiracle.sol:UMRproposal",
						"label": "_proposals",
						"offset": 0,
						"slot": "0",
						"type": "t_mapping(t_uint256,t_struct(ProposalCore)19_storage)"
					}
				],
				"types": {
					"t_bool": {
						"encoding": "inplace",
						"label": "bool",
						"numberOfBytes": "1"
					},
					"t_mapping(t_uint256,t_struct(ProposalCore)19_storage)": {
						"encoding": "mapping",
						"key": "t_uint256",
						"label": "mapping(uint256 => struct UMRproposal.ProposalCore)",
						"numberOfBytes": "32",
						"value": "t_struct(ProposalCore)19_storage"
					},
					"t_struct(BlockNumber)248_storage": {
						"encoding": "inplace",
						"label": "struct Timers.BlockNumber",
						"members": [
							{
								"astId": 247,
								"contract": ".workspaces/default_workspace/unMiracle/UMRCmiracle.sol:UMRproposal",
								"label": "_deadline",
								"offset": 0,
								"slot": "0",
								"type": "t_uint64"
							}
						],
						"numberOfBytes": "32"
					},
					"t_struct(ProposalCore)19_storage": {
						"encoding": "inplace",
						"label": "struct UMRproposal.ProposalCore",
						"members": [
							{
								"astId": 9,
								"contract": ".workspaces/default_workspace/unMiracle/UMRCmiracle.sol:UMRproposal",
								"label": "donationStart",
								"offset": 0,
								"slot": "0",
								"type": "t_struct(BlockNumber)248_storage"
							},
							{
								"astId": 12,
								"contract": ".workspaces/default_workspace/unMiracle/UMRCmiracle.sol:UMRproposal",
								"label": "donationEnd",
								"offset": 0,
								"slot": "1",
								"type": "t_struct(BlockNumber)248_storage"
							},
							{
								"astId": 14,
								"contract": ".workspaces/default_workspace/unMiracle/UMRCmiracle.sol:UMRproposal",
								"label": "donateMinimum",
								"offset": 0,
								"slot": "2",
								"type": "t_uint256"
							},
							{
								"astId": 16,
								"contract": ".workspaces/default_workspace/unMiracle/UMRCmiracle.sol:UMRproposal",
								"label": "executed",
								"offset": 0,
								"slot": "3",
								"type": "t_bool"
							},
							{
								"astId": 18,
								"contract": ".workspaces/default_workspace/unMiracle/UMRCmiracle.sol:UMRproposal",
								"label": "canceled",
								"offset": 1,
								"slot": "3",
								"type": "t_bool"
							}
						],
						"numberOfBytes": "128"
					},
					"t_uint256": {
						"encoding": "inplace",
						"label": "uint256",
						"numberOfBytes": "32"
					},
					"t_uint64": {
						"encoding": "inplace",
						"label": "uint64",
						"numberOfBytes": "8"
					}
				}
			},
			"userdoc": {
				"kind": "user",
				"methods": {},
				"version": 1
			}
		}
	}
}