{
	".workspaces/default_workspace/unMiracle/UMRproposal.sol": {
		"UMRproposal": {
			"abi": [
				{
					"inputs": [
						{
							"internalType": "address",
							"name": "destination",
							"type": "address"
						},
						{
							"internalType": "string",
							"name": "description",
							"type": "string"
						},
						{
							"internalType": "bytes[]",
							"name": "calldatas",
							"type": "bytes[]"
						}
					],
					"name": "execute",
					"outputs": [
						{
							"internalType": "uint256",
							"name": "",
							"type": "uint256"
						}
					],
					"stateMutability": "payable",
					"type": "function"
				},
				{
					"inputs": [
						{
							"internalType": "uint256",
							"name": "proposalId",
							"type": "uint256"
						},
						{
							"internalType": "uint256",
							"name": "amount",
							"type": "uint256"
						}
					],
					"name": "getCurrentAmount",
					"outputs": [
						{
							"internalType": "uint256",
							"name": "",
							"type": "uint256"
						}
					],
					"stateMutability": "view",
					"type": "function"
				},
				{
					"inputs": [
						{
							"internalType": "address",
							"name": "destination",
							"type": "address"
						},
						{
							"internalType": "bytes[]",
							"name": "calldatas",
							"type": "bytes[]"
						},
						{
							"internalType": "bytes32",
							"name": "descriptionHash",
							"type": "bytes32"
						}
					],
					"name": "hashProposal",
					"outputs": [
						{
							"internalType": "uint256",
							"name": "",
							"type": "uint256"
						}
					],
					"stateMutability": "pure",
					"type": "function"
				},
				{
					"inputs": [
						{
							"internalType": "uint256",
							"name": "donateDelay",
							"type": "uint256"
						},
						{
							"internalType": "uint256",
							"name": "donatePeriod",
							"type": "uint256"
						},
						{
							"internalType": "uint256",
							"name": "donateMinimum",
							"type": "uint256"
						}
					],
					"name": "proposal",
					"outputs": [
						{
							"internalType": "uint256",
							"name": "",
							"type": "uint256"
						}
					],
					"stateMutability": "nonpayable",
					"type": "function"
				},
				{
					"inputs": [
						{
							"internalType": "uint256",
							"name": "proposalId",
							"type": "uint256"
						}
					],
					"name": "proposalDeadline",
					"outputs": [
						{
							"internalType": "uint256",
							"name": "",
							"type": "uint256"
						}
					],
					"stateMutability": "view",
					"type": "function"
				},
				{
					"inputs": [
						{
							"internalType": "uint256",
							"name": "proposalId",
							"type": "uint256"
						}
					],
					"name": "proposalDonateMinimum",
					"outputs": [
						{
							"internalType": "uint256",
							"name": "",
							"type": "uint256"
						}
					],
					"stateMutability": "view",
					"type": "function"
				},
				{
					"inputs": [
						{
							"internalType": "uint256",
							"name": "proposalId",
							"type": "uint256"
						}
					],
					"name": "proposalSnapshot",
					"outputs": [
						{
							"internalType": "uint256",
							"name": "",
							"type": "uint256"
						}
					],
					"stateMutability": "view",
					"type": "function"
				},
				{
					"inputs": [
						{
							"internalType": "uint256",
							"name": "proposalId",
							"type": "uint256"
						},
						{
							"internalType": "uint256",
							"name": "amount",
							"type": "uint256"
						}
					],
					"name": "setCurrentAmount",
					"outputs": [],
					"stateMutability": "nonpayable",
					"type": "function"
				},
				{
					"inputs": [
						{
							"internalType": "uint256",
							"name": "proposalId",
							"type": "uint256"
						}
					],
					"name": "state",
					"outputs": [
						{
							"internalType": "enum IUMRcore.ProposalState",
							"name": "",
							"type": "uint8"
						}
					],
					"stateMutability": "view",
					"type": "function"
				}
			],
			"devdoc": {
				"kind": "dev",
				"methods": {},
				"version": 1
			},
			"evm": {
				"assembly": "    /* \".workspaces/default_workspace/unMiracle/UMRproposal.sol\":113:5049  contract UMRproposal is IUMRcore{... */\n  mstore(0x40, 0x80)\n  callvalue\n  dup1\n  iszero\n  tag_1\n  jumpi\n  0x00\n  dup1\n  revert\ntag_1:\n  pop\n  dataSize(sub_0)\n  dup1\n  dataOffset(sub_0)\n  0x00\n  codecopy\n  0x00\n  return\nstop\n\nsub_0: assembly {\n        /* \".workspaces/default_workspace/unMiracle/UMRproposal.sol\":113:5049  contract UMRproposal is IUMRcore{... */\n      mstore(0x40, 0x80)\n      jumpi(tag_1, lt(calldatasize, 0x04))\n      shr(0xe0, calldataload(0x00))\n      dup1\n      0x8c4461b3\n      gt\n      tag_11\n      jumpi\n      dup1\n      0x8c4461b3\n      eq\n      tag_6\n      jumpi\n      dup1\n      0xa627e447\n      eq\n      tag_7\n      jumpi\n      dup1\n      0xc01f9e37\n      eq\n      tag_8\n      jumpi\n      dup1\n      0xeb9094a2\n      eq\n      tag_9\n      jumpi\n      dup1\n      0xf68deaf9\n      eq\n      tag_10\n      jumpi\n      jump(tag_1)\n    tag_11:\n      dup1\n      0x2d63f693\n      eq\n      tag_2\n      jumpi\n      dup1\n      0x2e1b2cc9\n      eq\n      tag_3\n      jumpi\n      dup1\n      0x39690b24\n      eq\n      tag_4\n      jumpi\n      dup1\n      0x3e4f49e6\n      eq\n      tag_5\n      jumpi\n    tag_1:\n      0x00\n      dup1\n      revert\n        /* \".workspaces/default_workspace/unMiracle/UMRproposal.sol\":2882:3040  function proposalSnapshot(uint256 proposalId) public view virtual returns (uint256) {... */\n    tag_2:\n      callvalue\n      dup1\n      iszero\n      tag_12\n      jumpi\n      0x00\n      dup1\n      revert\n    tag_12:\n      pop\n      tag_13\n      0x04\n      dup1\n      calldatasize\n      sub\n      dup2\n      add\n      swap1\n      tag_14\n      swap2\n      swap1\n      tag_15\n      jump\t// in\n    tag_14:\n      tag_16\n      jump\t// in\n    tag_13:\n      mload(0x40)\n      tag_17\n      swap2\n      swap1\n      tag_18\n      jump\t// in\n    tag_17:\n      mload(0x40)\n      dup1\n      swap2\n      sub\n      swap1\n      return\n        /* \".workspaces/default_workspace/unMiracle/UMRproposal.sol\":1672:2844  function proposal(... */\n    tag_3:\n      callvalue\n      dup1\n      iszero\n      tag_19\n      jumpi\n      0x00\n      dup1\n      revert\n    tag_19:\n      pop\n      tag_20\n      0x04\n      dup1\n      calldatasize\n      sub\n      dup2\n      add\n      swap1\n      tag_21\n      swap2\n      swap1\n      tag_22\n      jump\t// in\n    tag_21:\n      tag_23\n      jump\t// in\n    tag_20:\n      mload(0x40)\n      tag_24\n      swap2\n      swap1\n      tag_18\n      jump\t// in\n    tag_24:\n      mload(0x40)\n      dup1\n      swap2\n      sub\n      swap1\n      return\n        /* \".workspaces/default_workspace/unMiracle/UMRproposal.sol\":3603:3774  function getCurrentAmount(uint256 proposalId,uint256 amount) public view virtual returns (uint256) {... */\n    tag_4:\n      callvalue\n      dup1\n      iszero\n      tag_25\n      jumpi\n      0x00\n      dup1\n      revert\n    tag_25:\n      pop\n      tag_26\n      0x04\n      dup1\n      calldatasize\n      sub\n      dup2\n      add\n      swap1\n      tag_27\n      swap2\n      swap1\n      tag_28\n      jump\t// in\n    tag_27:\n      tag_29\n      jump\t// in\n    tag_26:\n      mload(0x40)\n      tag_30\n      swap2\n      swap1\n      tag_18\n      jump\t// in\n    tag_30:\n      mload(0x40)\n      dup1\n      swap2\n      sub\n      swap1\n      return\n        /* \".workspaces/default_workspace/unMiracle/UMRproposal.sol\":476:1331  function state(uint256 proposalId) public view returns (ProposalState) {... */\n    tag_5:\n      callvalue\n      dup1\n      iszero\n      tag_31\n      jumpi\n      0x00\n      dup1\n      revert\n    tag_31:\n      pop\n      tag_32\n      0x04\n      dup1\n      calldatasize\n      sub\n      dup2\n      add\n      swap1\n      tag_33\n      swap2\n      swap1\n      tag_15\n      jump\t// in\n    tag_33:\n      tag_34\n      jump\t// in\n    tag_32:\n      mload(0x40)\n      tag_35\n      swap2\n      swap1\n      tag_36\n      jump\t// in\n    tag_35:\n      mload(0x40)\n      dup1\n      swap2\n      sub\n      swap1\n      return\n        /* \".workspaces/default_workspace/unMiracle/UMRproposal.sol\":1338:1666  function hashProposal(... */\n    tag_6:\n      callvalue\n      dup1\n      iszero\n      tag_37\n      jumpi\n      0x00\n      dup1\n      revert\n    tag_37:\n      pop\n      tag_38\n      0x04\n      dup1\n      calldatasize\n      sub\n      dup2\n      add\n      swap1\n      tag_39\n      swap2\n      swap1\n      tag_40\n      jump\t// in\n    tag_39:\n      tag_41\n      jump\t// in\n    tag_38:\n      mload(0x40)\n      tag_42\n      swap2\n      swap1\n      tag_18\n      jump\t// in\n    tag_42:\n      mload(0x40)\n      dup1\n      swap2\n      sub\n      swap1\n      return\n        /* \".workspaces/default_workspace/unMiracle/UMRproposal.sol\":3780:4511  function execute(... */\n    tag_7:\n      tag_43\n      0x04\n      dup1\n      calldatasize\n      sub\n      dup2\n      add\n      swap1\n      tag_44\n      swap2\n      swap1\n      tag_45\n      jump\t// in\n    tag_44:\n      tag_46\n      jump\t// in\n    tag_43:\n      mload(0x40)\n      tag_47\n      swap2\n      swap1\n      tag_18\n      jump\t// in\n    tag_47:\n      mload(0x40)\n      dup1\n      swap2\n      sub\n      swap1\n      return\n        /* \".workspaces/default_workspace/unMiracle/UMRproposal.sol\":3077:3233  function proposalDeadline(uint256 proposalId) public view virtual returns (uint256) {... */\n    tag_8:\n      callvalue\n      dup1\n      iszero\n      tag_48\n      jumpi\n      0x00\n      dup1\n      revert\n    tag_48:\n      pop\n      tag_49\n      0x04\n      dup1\n      calldatasize\n      sub\n      dup2\n      add\n      swap1\n      tag_50\n      swap2\n      swap1\n      tag_15\n      jump\t// in\n    tag_50:\n      tag_51\n      jump\t// in\n    tag_49:\n      mload(0x40)\n      tag_52\n      swap2\n      swap1\n      tag_18\n      jump\t// in\n    tag_52:\n      mload(0x40)\n      dup1\n      swap2\n      sub\n      swap1\n      return\n        /* \".workspaces/default_workspace/unMiracle/UMRproposal.sol\":3451:3598  function setCurrentAmount(uint256 proposalId,uint256 amount) public virtual {... */\n    tag_9:\n      callvalue\n      dup1\n      iszero\n      tag_53\n      jumpi\n      0x00\n      dup1\n      revert\n    tag_53:\n      pop\n      tag_54\n      0x04\n      dup1\n      calldatasize\n      sub\n      dup2\n      add\n      swap1\n      tag_55\n      swap2\n      swap1\n      tag_28\n      jump\t// in\n    tag_55:\n      tag_56\n      jump\t// in\n    tag_54:\n      stop\n        /* \".workspaces/default_workspace/unMiracle/UMRproposal.sol\":3284:3445  function proposalDonateMinimum(uint256 proposalId) public view virtual returns (uint256) {... */\n    tag_10:\n      callvalue\n      dup1\n      iszero\n      tag_57\n      jumpi\n      0x00\n      dup1\n      revert\n    tag_57:\n      pop\n      tag_58\n      0x04\n      dup1\n      calldatasize\n      sub\n      dup2\n      add\n      swap1\n      tag_59\n      swap2\n      swap1\n      tag_15\n      jump\t// in\n    tag_59:\n      tag_60\n      jump\t// in\n    tag_58:\n      mload(0x40)\n      tag_61\n      swap2\n      swap1\n      tag_18\n      jump\t// in\n    tag_61:\n      mload(0x40)\n      dup1\n      swap2\n      sub\n      swap1\n      return\n        /* \".workspaces/default_workspace/unMiracle/UMRproposal.sol\":2882:3040  function proposalSnapshot(uint256 proposalId) public view virtual returns (uint256) {... */\n    tag_16:\n        /* \".workspaces/default_workspace/unMiracle/UMRproposal.sol\":2957:2964  uint256 */\n      0x00\n        /* \".workspaces/default_workspace/unMiracle/UMRproposal.sol\":2983:3033  _proposals[proposalId].donationStart.getDeadline() */\n      tag_63\n        /* \".workspaces/default_workspace/unMiracle/UMRproposal.sol\":2983:2993  _proposals */\n      0x00\n        /* \".workspaces/default_workspace/unMiracle/UMRproposal.sol\":2983:3005  _proposals[proposalId] */\n      dup1\n        /* \".workspaces/default_workspace/unMiracle/UMRproposal.sol\":2994:3004  proposalId */\n      dup5\n        /* \".workspaces/default_workspace/unMiracle/UMRproposal.sol\":2983:3005  _proposals[proposalId] */\n      dup2\n      mstore\n      0x20\n      add\n      swap1\n      dup2\n      mstore\n      0x20\n      add\n      0x00\n      keccak256\n        /* \".workspaces/default_workspace/unMiracle/UMRproposal.sol\":2983:3019  _proposals[proposalId].donationStart */\n      0x00\n      add\n        /* \".workspaces/default_workspace/unMiracle/UMRproposal.sol\":2983:3031  _proposals[proposalId].donationStart.getDeadline */\n      mload(0x40)\n      dup1\n      0x60\n      add\n      0x40\n      mstore\n      swap1\n      dup2\n      0x00\n      dup3\n      add\n      sload\n      dup2\n      mstore\n      0x20\n      add\n      0x01\n      dup3\n      add\n      sload\n      dup2\n      mstore\n      0x20\n      add\n      0x02\n      dup3\n      add\n      sload\n      dup2\n      mstore\n      pop\n      pop\n      tag_64\n        /* \".workspaces/default_workspace/unMiracle/UMRproposal.sol\":2983:3033  _proposals[proposalId].donationStart.getDeadline() */\n      jump\t// in\n    tag_63:\n        /* \".workspaces/default_workspace/unMiracle/UMRproposal.sol\":2976:3033  return _proposals[proposalId].donationStart.getDeadline() */\n      swap1\n      pop\n        /* \".workspaces/default_workspace/unMiracle/UMRproposal.sol\":2882:3040  function proposalSnapshot(uint256 proposalId) public view virtual returns (uint256) {... */\n      swap2\n      swap1\n      pop\n      jump\t// out\n        /* \".workspaces/default_workspace/unMiracle/UMRproposal.sol\":1672:2844  function proposal(... */\n    tag_23:\n        /* \".workspaces/default_workspace/unMiracle/UMRproposal.sol\":2080:2087  uint256 */\n      0x00\n        /* \".workspaces/default_workspace/unMiracle/UMRproposal.sol\":2305:2323  uint256 proposalId */\n      dup1\n        /* \".workspaces/default_workspace/unMiracle/UMRproposal.sol\":2326:2327  1 */\n      0x01\n        /* \".workspaces/default_workspace/unMiracle/UMRproposal.sol\":2305:2327  uint256 proposalId = 1 */\n      swap1\n      pop\n        /* \".workspaces/default_workspace/unMiracle/UMRproposal.sol\":2369:2398  ProposalCore storage proposal */\n      0x00\n        /* \".workspaces/default_workspace/unMiracle/UMRproposal.sol\":2401:2411  _proposals */\n      dup1\n        /* \".workspaces/default_workspace/unMiracle/UMRproposal.sol\":2401:2423  _proposals[proposalId] */\n      0x00\n        /* \".workspaces/default_workspace/unMiracle/UMRproposal.sol\":2412:2422  proposalId */\n      dup4\n        /* \".workspaces/default_workspace/unMiracle/UMRproposal.sol\":2401:2423  _proposals[proposalId] */\n      dup2\n      mstore\n      0x20\n      add\n      swap1\n      dup2\n      mstore\n      0x20\n      add\n      0x00\n      keccak256\n        /* \".workspaces/default_workspace/unMiracle/UMRproposal.sol\":2369:2423  ProposalCore storage proposal = _proposals[proposalId] */\n      swap1\n      pop\n        /* \".workspaces/default_workspace/unMiracle/UMRproposal.sol\":2466:2482  uint256 snapshot */\n      0x00\n        /* \".workspaces/default_workspace/unMiracle/UMRproposal.sol\":2522:2524  60 */\n      0x3c\n        /* \".workspaces/default_workspace/unMiracle/UMRproposal.sol\":2519:2521  60 */\n      dup1\n        /* \".workspaces/default_workspace/unMiracle/UMRproposal.sol\":2516:2518  24 */\n      0x18\n        /* \".workspaces/default_workspace/unMiracle/UMRproposal.sol\":2504:2515  donateDelay */\n      dup10\n        /* \".workspaces/default_workspace/unMiracle/UMRproposal.sol\":2504:2518  donateDelay*24 */\n      tag_66\n      swap2\n      swap1\n      tag_67\n      jump\t// in\n    tag_66:\n        /* \".workspaces/default_workspace/unMiracle/UMRproposal.sol\":2504:2521  donateDelay*24*60 */\n      tag_68\n      swap2\n      swap1\n      tag_67\n      jump\t// in\n    tag_68:\n        /* \".workspaces/default_workspace/unMiracle/UMRproposal.sol\":2504:2524  donateDelay*24*60*60 */\n      tag_69\n      swap2\n      swap1\n      tag_67\n      jump\t// in\n    tag_69:\n        /* \".workspaces/default_workspace/unMiracle/UMRproposal.sol\":2486:2501  block.timestamp */\n      timestamp\n        /* \".workspaces/default_workspace/unMiracle/UMRproposal.sol\":2486:2524  block.timestamp + donateDelay*24*60*60 */\n      tag_70\n      swap2\n      swap1\n      tag_71\n      jump\t// in\n    tag_70:\n        /* \".workspaces/default_workspace/unMiracle/UMRproposal.sol\":2466:2524  uint256 snapshot =  block.timestamp + donateDelay*24*60*60 */\n      swap1\n      pop\n        /* \".workspaces/default_workspace/unMiracle/UMRproposal.sol\":2566:2582  uint256 deadline */\n      0x00\n        /* \".workspaces/default_workspace/unMiracle/UMRproposal.sol\":2615:2617  60 */\n      0x3c\n        /* \".workspaces/default_workspace/unMiracle/UMRproposal.sol\":2612:2614  60 */\n      dup1\n        /* \".workspaces/default_workspace/unMiracle/UMRproposal.sol\":2609:2611  24 */\n      0x18\n        /* \".workspaces/default_workspace/unMiracle/UMRproposal.sol\":2596:2608  donatePeriod */\n      dup10\n        /* \".workspaces/default_workspace/unMiracle/UMRproposal.sol\":2596:2611  donatePeriod*24 */\n      tag_72\n      swap2\n      swap1\n      tag_67\n      jump\t// in\n    tag_72:\n        /* \".workspaces/default_workspace/unMiracle/UMRproposal.sol\":2596:2614  donatePeriod*24*60 */\n      tag_73\n      swap2\n      swap1\n      tag_67\n      jump\t// in\n    tag_73:\n        /* \".workspaces/default_workspace/unMiracle/UMRproposal.sol\":2596:2617  donatePeriod*24*60*60 */\n      tag_74\n      swap2\n      swap1\n      tag_67\n      jump\t// in\n    tag_74:\n        /* \".workspaces/default_workspace/unMiracle/UMRproposal.sol\":2585:2593  snapshot */\n      dup3\n        /* \".workspaces/default_workspace/unMiracle/UMRproposal.sol\":2585:2617  snapshot + donatePeriod*24*60*60 */\n      tag_75\n      swap2\n      swap1\n      tag_71\n      jump\t// in\n    tag_75:\n        /* \".workspaces/default_workspace/unMiracle/UMRproposal.sol\":2566:2617  uint256 deadline = snapshot + donatePeriod*24*60*60 */\n      swap1\n      pop\n        /* \".workspaces/default_workspace/unMiracle/UMRproposal.sol\":2656:2700  proposal.donationStart.setDeadline(snapshot) */\n      tag_76\n        /* \".workspaces/default_workspace/unMiracle/UMRproposal.sol\":2691:2699  snapshot */\n      dup3\n        /* \".workspaces/default_workspace/unMiracle/UMRproposal.sol\":2656:2664  proposal */\n      dup5\n        /* \".workspaces/default_workspace/unMiracle/UMRproposal.sol\":2656:2678  proposal.donationStart */\n      0x00\n      add\n        /* \".workspaces/default_workspace/unMiracle/UMRproposal.sol\":2656:2690  proposal.donationStart.setDeadline */\n      tag_77\n      swap1\n        /* \".workspaces/default_workspace/unMiracle/UMRproposal.sol\":2656:2700  proposal.donationStart.setDeadline(snapshot) */\n      swap2\n      swap1\n      0xffffffff\n      and\n      jump\t// in\n    tag_76:\n        /* \".workspaces/default_workspace/unMiracle/UMRproposal.sol\":2710:2752  proposal.donationEnd.setDeadline(deadline) */\n      tag_78\n        /* \".workspaces/default_workspace/unMiracle/UMRproposal.sol\":2743:2751  deadline */\n      dup2\n        /* \".workspaces/default_workspace/unMiracle/UMRproposal.sol\":2710:2718  proposal */\n      dup5\n        /* \".workspaces/default_workspace/unMiracle/UMRproposal.sol\":2710:2730  proposal.donationEnd */\n      0x03\n      add\n        /* \".workspaces/default_workspace/unMiracle/UMRproposal.sol\":2710:2742  proposal.donationEnd.setDeadline */\n      tag_77\n      swap1\n        /* \".workspaces/default_workspace/unMiracle/UMRproposal.sol\":2710:2752  proposal.donationEnd.setDeadline(deadline) */\n      swap2\n      swap1\n      0xffffffff\n      and\n      jump\t// in\n    tag_78:\n        /* \".workspaces/default_workspace/unMiracle/UMRproposal.sol\":2762:2809  proposal.donateMinimum.setAmount(donateMinimum) */\n      tag_79\n        /* \".workspaces/default_workspace/unMiracle/UMRproposal.sol\":2795:2808  donateMinimum */\n      dup7\n        /* \".workspaces/default_workspace/unMiracle/UMRproposal.sol\":2762:2770  proposal */\n      dup5\n        /* \".workspaces/default_workspace/unMiracle/UMRproposal.sol\":2762:2784  proposal.donateMinimum */\n      0x06\n      add\n        /* \".workspaces/default_workspace/unMiracle/UMRproposal.sol\":2762:2794  proposal.donateMinimum.setAmount */\n      tag_80\n      swap1\n        /* \".workspaces/default_workspace/unMiracle/UMRproposal.sol\":2762:2809  proposal.donateMinimum.setAmount(donateMinimum) */\n      swap2\n      swap1\n      0xffffffff\n      and\n      jump\t// in\n    tag_79:\n        /* \".workspaces/default_workspace/unMiracle/UMRproposal.sol\":2827:2837  proposalId */\n      dup4\n        /* \".workspaces/default_workspace/unMiracle/UMRproposal.sol\":2820:2837  return proposalId */\n      swap5\n      pop\n      pop\n      pop\n      pop\n      pop\n        /* \".workspaces/default_workspace/unMiracle/UMRproposal.sol\":1672:2844  function proposal(... */\n      swap4\n      swap3\n      pop\n      pop\n      pop\n      jump\t// out\n        /* \".workspaces/default_workspace/unMiracle/UMRproposal.sol\":3603:3774  function getCurrentAmount(uint256 proposalId,uint256 amount) public view virtual returns (uint256) {... */\n    tag_29:\n        /* \".workspaces/default_workspace/unMiracle/UMRproposal.sol\":3693:3700  uint256 */\n      0x00\n        /* \".workspaces/default_workspace/unMiracle/UMRproposal.sol\":3719:3767  _proposals[proposalId].donate.getCurrentAmount() */\n      tag_82\n        /* \".workspaces/default_workspace/unMiracle/UMRproposal.sol\":3719:3729  _proposals */\n      0x00\n        /* \".workspaces/default_workspace/unMiracle/UMRproposal.sol\":3719:3741  _proposals[proposalId] */\n      dup1\n        /* \".workspaces/default_workspace/unMiracle/UMRproposal.sol\":3730:3740  proposalId */\n      dup6\n        /* \".workspaces/default_workspace/unMiracle/UMRproposal.sol\":3719:3741  _proposals[proposalId] */\n      dup2\n      mstore\n      0x20\n      add\n      swap1\n      dup2\n      mstore\n      0x20\n      add\n      0x00\n      keccak256\n        /* \".workspaces/default_workspace/unMiracle/UMRproposal.sol\":3719:3748  _proposals[proposalId].donate */\n      0x09\n      add\n        /* \".workspaces/default_workspace/unMiracle/UMRproposal.sol\":3719:3765  _proposals[proposalId].donate.getCurrentAmount */\n      mload(0x40)\n      dup1\n      0x60\n      add\n      0x40\n      mstore\n      swap1\n      dup2\n      0x00\n      dup3\n      add\n      sload\n      dup2\n      mstore\n      0x20\n      add\n      0x01\n      dup3\n      add\n      sload\n      dup2\n      mstore\n      0x20\n      add\n      0x02\n      dup3\n      add\n      sload\n      dup2\n      mstore\n      pop\n      pop\n      tag_83\n        /* \".workspaces/default_workspace/unMiracle/UMRproposal.sol\":3719:3767  _proposals[proposalId].donate.getCurrentAmount() */\n      jump\t// in\n    tag_82:\n        /* \".workspaces/default_workspace/unMiracle/UMRproposal.sol\":3712:3767  return _proposals[proposalId].donate.getCurrentAmount() */\n      swap1\n      pop\n        /* \".workspaces/default_workspace/unMiracle/UMRproposal.sol\":3603:3774  function getCurrentAmount(uint256 proposalId,uint256 amount) public view virtual returns (uint256) {... */\n      swap3\n      swap2\n      pop\n      pop\n      jump\t// out\n        /* \".workspaces/default_workspace/unMiracle/UMRproposal.sol\":476:1331  function state(uint256 proposalId) public view returns (ProposalState) {... */\n    tag_34:\n        /* \".workspaces/default_workspace/unMiracle/UMRproposal.sol\":532:545  ProposalState */\n      0x00\n        /* \".workspaces/default_workspace/unMiracle/UMRproposal.sol\":557:586  ProposalCore storage proposal */\n      dup1\n        /* \".workspaces/default_workspace/unMiracle/UMRproposal.sol\":589:599  _proposals */\n      0x00\n        /* \".workspaces/default_workspace/unMiracle/UMRproposal.sol\":589:611  _proposals[proposalId] */\n      dup1\n        /* \".workspaces/default_workspace/unMiracle/UMRproposal.sol\":600:610  proposalId */\n      dup5\n        /* \".workspaces/default_workspace/unMiracle/UMRproposal.sol\":589:611  _proposals[proposalId] */\n      dup2\n      mstore\n      0x20\n      add\n      swap1\n      dup2\n      mstore\n      0x20\n      add\n      0x00\n      keccak256\n        /* \".workspaces/default_workspace/unMiracle/UMRproposal.sol\":557:611  ProposalCore storage proposal = _proposals[proposalId] */\n      swap1\n      pop\n        /* \".workspaces/default_workspace/unMiracle/UMRproposal.sol\":690:698  proposal */\n      dup1\n        /* \".workspaces/default_workspace/unMiracle/UMRproposal.sol\":690:707  proposal.executed */\n      0x0c\n      add\n      0x00\n      swap1\n      sload\n      swap1\n      0x0100\n      exp\n      swap1\n      div\n      0xff\n      and\n        /* \".workspaces/default_workspace/unMiracle/UMRproposal.sol\":686:763  if (proposal.executed) {... */\n      iszero\n      tag_85\n      jumpi\n        /* \".workspaces/default_workspace/unMiracle/UMRproposal.sol\":730:752  ProposalState.Executed */\n      0x05\n        /* \".workspaces/default_workspace/unMiracle/UMRproposal.sol\":723:752  return ProposalState.Executed */\n      swap2\n      pop\n      pop\n      jump(tag_84)\n        /* \".workspaces/default_workspace/unMiracle/UMRproposal.sol\":686:763  if (proposal.executed) {... */\n    tag_85:\n        /* \".workspaces/default_workspace/unMiracle/UMRproposal.sol\":817:825  proposal */\n      dup1\n        /* \".workspaces/default_workspace/unMiracle/UMRproposal.sol\":817:834  proposal.canceled */\n      0x0c\n      add\n      0x01\n      swap1\n      sload\n      swap1\n      0x0100\n      exp\n      swap1\n      div\n      0xff\n      and\n        /* \".workspaces/default_workspace/unMiracle/UMRproposal.sol\":813:890  if (proposal.canceled) {... */\n      iszero\n      tag_86\n      jumpi\n        /* \".workspaces/default_workspace/unMiracle/UMRproposal.sol\":857:879  ProposalState.Canceled */\n      0x02\n        /* \".workspaces/default_workspace/unMiracle/UMRproposal.sol\":850:879  return ProposalState.Canceled */\n      swap2\n      pop\n      pop\n      jump(tag_84)\n        /* \".workspaces/default_workspace/unMiracle/UMRproposal.sol\":813:890  if (proposal.canceled) {... */\n    tag_86:\n        /* \".workspaces/default_workspace/unMiracle/UMRproposal.sol\":900:916  uint256 snapshot */\n      0x00\n        /* \".workspaces/default_workspace/unMiracle/UMRproposal.sol\":919:947  proposalSnapshot(proposalId) */\n      tag_87\n        /* \".workspaces/default_workspace/unMiracle/UMRproposal.sol\":936:946  proposalId */\n      dup5\n        /* \".workspaces/default_workspace/unMiracle/UMRproposal.sol\":919:935  proposalSnapshot */\n      tag_16\n        /* \".workspaces/default_workspace/unMiracle/UMRproposal.sol\":919:947  proposalSnapshot(proposalId) */\n      jump\t// in\n    tag_87:\n        /* \".workspaces/default_workspace/unMiracle/UMRproposal.sol\":900:947  uint256 snapshot = proposalSnapshot(proposalId) */\n      swap1\n      pop\n        /* \".workspaces/default_workspace/unMiracle/UMRproposal.sol\":1013:1028  block.timestamp */\n      timestamp\n        /* \".workspaces/default_workspace/unMiracle/UMRproposal.sol\":1001:1009  snapshot */\n      dup2\n        /* \".workspaces/default_workspace/unMiracle/UMRproposal.sol\":1001:1028  snapshot >= block.timestamp */\n      lt\n        /* \".workspaces/default_workspace/unMiracle/UMRproposal.sol\":997:1083  if (snapshot >= block.timestamp) {... */\n      tag_88\n      jumpi\n        /* \".workspaces/default_workspace/unMiracle/UMRproposal.sol\":1051:1072  ProposalState.Pending */\n      0x00\n        /* \".workspaces/default_workspace/unMiracle/UMRproposal.sol\":1044:1072  return ProposalState.Pending */\n      swap3\n      pop\n      pop\n      pop\n      jump(tag_84)\n        /* \".workspaces/default_workspace/unMiracle/UMRproposal.sol\":997:1083  if (snapshot >= block.timestamp) {... */\n    tag_88:\n        /* \".workspaces/default_workspace/unMiracle/UMRproposal.sol\":1093:1109  uint256 deadline */\n      0x00\n        /* \".workspaces/default_workspace/unMiracle/UMRproposal.sol\":1112:1140  proposalDeadline(proposalId) */\n      tag_89\n        /* \".workspaces/default_workspace/unMiracle/UMRproposal.sol\":1129:1139  proposalId */\n      dup6\n        /* \".workspaces/default_workspace/unMiracle/UMRproposal.sol\":1112:1128  proposalDeadline */\n      tag_51\n        /* \".workspaces/default_workspace/unMiracle/UMRproposal.sol\":1112:1140  proposalDeadline(proposalId) */\n      jump\t// in\n    tag_89:\n        /* \".workspaces/default_workspace/unMiracle/UMRproposal.sol\":1093:1140  uint256 deadline = proposalDeadline(proposalId) */\n      swap1\n      pop\n        /* \".workspaces/default_workspace/unMiracle/UMRproposal.sol\":1196:1211  block.timestamp */\n      timestamp\n        /* \".workspaces/default_workspace/unMiracle/UMRproposal.sol\":1184:1192  deadline */\n      dup2\n        /* \".workspaces/default_workspace/unMiracle/UMRproposal.sol\":1184:1211  deadline >= block.timestamp */\n      lt\n        /* \".workspaces/default_workspace/unMiracle/UMRproposal.sol\":1180:1265  if (deadline >= block.timestamp) {... */\n      tag_90\n      jumpi\n        /* \".workspaces/default_workspace/unMiracle/UMRproposal.sol\":1234:1254  ProposalState.Active */\n      0x01\n        /* \".workspaces/default_workspace/unMiracle/UMRproposal.sol\":1227:1254  return ProposalState.Active */\n      swap4\n      pop\n      pop\n      pop\n      pop\n      jump(tag_84)\n        /* \".workspaces/default_workspace/unMiracle/UMRproposal.sol\":1180:1265  if (deadline >= block.timestamp) {... */\n    tag_90:\n        /* \".workspaces/default_workspace/unMiracle/UMRproposal.sol\":1301:1324  ProposalState.Succeeded */\n      0x03\n        /* \".workspaces/default_workspace/unMiracle/UMRproposal.sol\":1294:1324  return ProposalState.Succeeded */\n      swap4\n      pop\n      pop\n      pop\n      pop\n        /* \".workspaces/default_workspace/unMiracle/UMRproposal.sol\":476:1331  function state(uint256 proposalId) public view returns (ProposalState) {... */\n    tag_84:\n      swap2\n      swap1\n      pop\n      jump\t// out\n        /* \".workspaces/default_workspace/unMiracle/UMRproposal.sol\":1338:1666  function hashProposal(... */\n    tag_41:\n        /* \".workspaces/default_workspace/unMiracle/UMRproposal.sol\":1562:1569  uint256 */\n      0x00\n        /* \".workspaces/default_workspace/unMiracle/UMRproposal.sol\":1617:1628  destination */\n      dup4\n        /* \".workspaces/default_workspace/unMiracle/UMRproposal.sol\":1630:1639  calldatas */\n      dup4\n        /* \".workspaces/default_workspace/unMiracle/UMRproposal.sol\":1641:1656  descriptionHash */\n      dup4\n        /* \".workspaces/default_workspace/unMiracle/UMRproposal.sol\":1606:1657  abi.encode(destination, calldatas, descriptionHash) */\n      add(0x20, mload(0x40))\n      tag_92\n      swap4\n      swap3\n      swap2\n      swap1\n      tag_93\n      jump\t// in\n    tag_92:\n      mload(0x40)\n      0x20\n      dup2\n      dup4\n      sub\n      sub\n      dup2\n      mstore\n      swap1\n      0x40\n      mstore\n        /* \".workspaces/default_workspace/unMiracle/UMRproposal.sol\":1596:1658  keccak256(abi.encode(destination, calldatas, descriptionHash)) */\n      dup1\n      mload\n      swap1\n      0x20\n      add\n      keccak256\n        /* \".workspaces/default_workspace/unMiracle/UMRproposal.sol\":1588:1659  uint256(keccak256(abi.encode(destination, calldatas, descriptionHash))) */\n      0x00\n      shr\n        /* \".workspaces/default_workspace/unMiracle/UMRproposal.sol\":1581:1659  return uint256(keccak256(abi.encode(destination, calldatas, descriptionHash))) */\n      swap1\n      pop\n        /* \".workspaces/default_workspace/unMiracle/UMRproposal.sol\":1338:1666  function hashProposal(... */\n      swap4\n      swap3\n      pop\n      pop\n      pop\n      jump\t// out\n        /* \".workspaces/default_workspace/unMiracle/UMRproposal.sol\":3780:4511  function execute(... */\n    tag_46:\n        /* \".workspaces/default_workspace/unMiracle/UMRproposal.sol\":4022:4029  uint256 */\n      0x00\n        /* \".workspaces/default_workspace/unMiracle/UMRproposal.sol\":4090:4108  uint256 proposalId */\n      dup1\n        /* \".workspaces/default_workspace/unMiracle/UMRproposal.sol\":4111:4178  hashProposal(destination, calldatas, keccak256(bytes(description))) */\n      tag_95\n        /* \".workspaces/default_workspace/unMiracle/UMRproposal.sol\":4124:4135  destination */\n      dup6\n        /* \".workspaces/default_workspace/unMiracle/UMRproposal.sol\":4137:4146  calldatas */\n      dup5\n        /* \".workspaces/default_workspace/unMiracle/UMRproposal.sol\":4164:4175  description */\n      dup7\n        /* \".workspaces/default_workspace/unMiracle/UMRproposal.sol\":4148:4177  keccak256(bytes(description)) */\n      dup1\n      mload\n      swap1\n      0x20\n      add\n      keccak256\n        /* \".workspaces/default_workspace/unMiracle/UMRproposal.sol\":4111:4123  hashProposal */\n      tag_41\n        /* \".workspaces/default_workspace/unMiracle/UMRproposal.sol\":4111:4178  hashProposal(destination, calldatas, keccak256(bytes(description))) */\n      jump\t// in\n    tag_95:\n        /* \".workspaces/default_workspace/unMiracle/UMRproposal.sol\":4090:4178  uint256 proposalId = hashProposal(destination, calldatas, keccak256(bytes(description))) */\n      swap1\n      pop\n        /* \".workspaces/default_workspace/unMiracle/UMRproposal.sol\":4193:4213  ProposalState status */\n      0x00\n        /* \".workspaces/default_workspace/unMiracle/UMRproposal.sol\":4216:4233  state(proposalId) */\n      tag_96\n        /* \".workspaces/default_workspace/unMiracle/UMRproposal.sol\":4222:4232  proposalId */\n      dup3\n        /* \".workspaces/default_workspace/unMiracle/UMRproposal.sol\":4216:4221  state */\n      tag_34\n        /* \".workspaces/default_workspace/unMiracle/UMRproposal.sol\":4216:4233  state(proposalId) */\n      jump\t// in\n    tag_96:\n        /* \".workspaces/default_workspace/unMiracle/UMRproposal.sol\":4193:4233  ProposalState status = state(proposalId) */\n      swap1\n      pop\n        /* \".workspaces/default_workspace/unMiracle/UMRproposal.sol\":4279:4302  ProposalState.Succeeded */\n      0x03\n        /* \".workspaces/default_workspace/unMiracle/UMRproposal.sol\":4269:4302  status == ProposalState.Succeeded */\n      0x05\n      dup2\n      gt\n      iszero\n      tag_97\n      jumpi\n      tag_98\n      tag_99\n      jump\t// in\n    tag_98:\n    tag_97:\n        /* \".workspaces/default_workspace/unMiracle/UMRproposal.sol\":4269:4275  status */\n      dup2\n        /* \".workspaces/default_workspace/unMiracle/UMRproposal.sol\":4269:4302  status == ProposalState.Succeeded */\n      0x05\n      dup2\n      gt\n      iszero\n      tag_100\n      jumpi\n      tag_101\n      tag_99\n      jump\t// in\n    tag_101:\n    tag_100:\n      eq\n        /* \".workspaces/default_workspace/unMiracle/UMRproposal.sol\":4248:4365  require(... */\n      tag_102\n      jumpi\n      mload(0x40)\n      0x08c379a000000000000000000000000000000000000000000000000000000000\n      dup2\n      mstore\n      0x04\n      add\n      tag_103\n      swap1\n      tag_104\n      jump\t// in\n    tag_103:\n      mload(0x40)\n      dup1\n      swap2\n      sub\n      swap1\n      revert\n    tag_102:\n        /* \".workspaces/default_workspace/unMiracle/UMRproposal.sol\":4413:4417  true */\n      0x01\n        /* \".workspaces/default_workspace/unMiracle/UMRproposal.sol\":4379:4389  _proposals */\n      0x00\n        /* \".workspaces/default_workspace/unMiracle/UMRproposal.sol\":4379:4401  _proposals[proposalId] */\n      dup1\n        /* \".workspaces/default_workspace/unMiracle/UMRproposal.sol\":4390:4400  proposalId */\n      dup5\n        /* \".workspaces/default_workspace/unMiracle/UMRproposal.sol\":4379:4401  _proposals[proposalId] */\n      dup2\n      mstore\n      0x20\n      add\n      swap1\n      dup2\n      mstore\n      0x20\n      add\n      0x00\n      keccak256\n        /* \".workspaces/default_workspace/unMiracle/UMRproposal.sol\":4379:4410  _proposals[proposalId].executed */\n      0x0c\n      add\n      0x00\n        /* \".workspaces/default_workspace/unMiracle/UMRproposal.sol\":4379:4417  _proposals[proposalId].executed = true */\n      0x0100\n      exp\n      dup2\n      sload\n      dup2\n      0xff\n      mul\n      not\n      and\n      swap1\n      dup4\n      iszero\n      iszero\n      mul\n      or\n      swap1\n      sstore\n      pop\n        /* \".workspaces/default_workspace/unMiracle/UMRproposal.sol\":4031:4511  {... */\n      pop\n      pop\n        /* \".workspaces/default_workspace/unMiracle/UMRproposal.sol\":3780:4511  function execute(... */\n      swap4\n      swap3\n      pop\n      pop\n      pop\n      jump\t// out\n        /* \".workspaces/default_workspace/unMiracle/UMRproposal.sol\":3077:3233  function proposalDeadline(uint256 proposalId) public view virtual returns (uint256) {... */\n    tag_51:\n        /* \".workspaces/default_workspace/unMiracle/UMRproposal.sol\":3152:3159  uint256 */\n      0x00\n        /* \".workspaces/default_workspace/unMiracle/UMRproposal.sol\":3178:3226  _proposals[proposalId].donationEnd.getDeadline() */\n      tag_106\n        /* \".workspaces/default_workspace/unMiracle/UMRproposal.sol\":3178:3188  _proposals */\n      0x00\n        /* \".workspaces/default_workspace/unMiracle/UMRproposal.sol\":3178:3200  _proposals[proposalId] */\n      dup1\n        /* \".workspaces/default_workspace/unMiracle/UMRproposal.sol\":3189:3199  proposalId */\n      dup5\n        /* \".workspaces/default_workspace/unMiracle/UMRproposal.sol\":3178:3200  _proposals[proposalId] */\n      dup2\n      mstore\n      0x20\n      add\n      swap1\n      dup2\n      mstore\n      0x20\n      add\n      0x00\n      keccak256\n        /* \".workspaces/default_workspace/unMiracle/UMRproposal.sol\":3178:3212  _proposals[proposalId].donationEnd */\n      0x03\n      add\n        /* \".workspaces/default_workspace/unMiracle/UMRproposal.sol\":3178:3224  _proposals[proposalId].donationEnd.getDeadline */\n      mload(0x40)\n      dup1\n      0x60\n      add\n      0x40\n      mstore\n      swap1\n      dup2\n      0x00\n      dup3\n      add\n      sload\n      dup2\n      mstore\n      0x20\n      add\n      0x01\n      dup3\n      add\n      sload\n      dup2\n      mstore\n      0x20\n      add\n      0x02\n      dup3\n      add\n      sload\n      dup2\n      mstore\n      pop\n      pop\n      tag_64\n        /* \".workspaces/default_workspace/unMiracle/UMRproposal.sol\":3178:3226  _proposals[proposalId].donationEnd.getDeadline() */\n      jump\t// in\n    tag_106:\n        /* \".workspaces/default_workspace/unMiracle/UMRproposal.sol\":3171:3226  return _proposals[proposalId].donationEnd.getDeadline() */\n      swap1\n      pop\n        /* \".workspaces/default_workspace/unMiracle/UMRproposal.sol\":3077:3233  function proposalDeadline(uint256 proposalId) public view virtual returns (uint256) {... */\n      swap2\n      swap1\n      pop\n      jump\t// out\n        /* \".workspaces/default_workspace/unMiracle/UMRproposal.sol\":3451:3598  function setCurrentAmount(uint256 proposalId,uint256 amount) public virtual {... */\n    tag_56:\n        /* \".workspaces/default_workspace/unMiracle/UMRproposal.sol\":3537:3591  _proposals[proposalId].donate.setCurrentAmount(amount) */\n      tag_108\n        /* \".workspaces/default_workspace/unMiracle/UMRproposal.sol\":3584:3590  amount */\n      dup2\n        /* \".workspaces/default_workspace/unMiracle/UMRproposal.sol\":3537:3547  _proposals */\n      0x00\n        /* \".workspaces/default_workspace/unMiracle/UMRproposal.sol\":3537:3559  _proposals[proposalId] */\n      dup1\n        /* \".workspaces/default_workspace/unMiracle/UMRproposal.sol\":3548:3558  proposalId */\n      dup6\n        /* \".workspaces/default_workspace/unMiracle/UMRproposal.sol\":3537:3559  _proposals[proposalId] */\n      dup2\n      mstore\n      0x20\n      add\n      swap1\n      dup2\n      mstore\n      0x20\n      add\n      0x00\n      keccak256\n        /* \".workspaces/default_workspace/unMiracle/UMRproposal.sol\":3537:3566  _proposals[proposalId].donate */\n      0x09\n      add\n        /* \".workspaces/default_workspace/unMiracle/UMRproposal.sol\":3537:3583  _proposals[proposalId].donate.setCurrentAmount */\n      tag_109\n      swap1\n        /* \".workspaces/default_workspace/unMiracle/UMRproposal.sol\":3537:3591  _proposals[proposalId].donate.setCurrentAmount(amount) */\n      swap2\n      swap1\n      0xffffffff\n      and\n      jump\t// in\n    tag_108:\n        /* \".workspaces/default_workspace/unMiracle/UMRproposal.sol\":3451:3598  function setCurrentAmount(uint256 proposalId,uint256 amount) public virtual {... */\n      pop\n      pop\n      jump\t// out\n        /* \".workspaces/default_workspace/unMiracle/UMRproposal.sol\":3284:3445  function proposalDonateMinimum(uint256 proposalId) public view virtual returns (uint256) {... */\n    tag_60:\n        /* \".workspaces/default_workspace/unMiracle/UMRproposal.sol\":3364:3371  uint256 */\n      0x00\n        /* \".workspaces/default_workspace/unMiracle/UMRproposal.sol\":3390:3438  _proposals[proposalId].donateMinimum.getAmount() */\n      tag_111\n        /* \".workspaces/default_workspace/unMiracle/UMRproposal.sol\":3390:3400  _proposals */\n      0x00\n        /* \".workspaces/default_workspace/unMiracle/UMRproposal.sol\":3390:3412  _proposals[proposalId] */\n      dup1\n        /* \".workspaces/default_workspace/unMiracle/UMRproposal.sol\":3401:3411  proposalId */\n      dup5\n        /* \".workspaces/default_workspace/unMiracle/UMRproposal.sol\":3390:3412  _proposals[proposalId] */\n      dup2\n      mstore\n      0x20\n      add\n      swap1\n      dup2\n      mstore\n      0x20\n      add\n      0x00\n      keccak256\n        /* \".workspaces/default_workspace/unMiracle/UMRproposal.sol\":3390:3426  _proposals[proposalId].donateMinimum */\n      0x06\n      add\n        /* \".workspaces/default_workspace/unMiracle/UMRproposal.sol\":3390:3436  _proposals[proposalId].donateMinimum.getAmount */\n      mload(0x40)\n      dup1\n      0x60\n      add\n      0x40\n      mstore\n      swap1\n      dup2\n      0x00\n      dup3\n      add\n      sload\n      dup2\n      mstore\n      0x20\n      add\n      0x01\n      dup3\n      add\n      sload\n      dup2\n      mstore\n      0x20\n      add\n      0x02\n      dup3\n      add\n      sload\n      dup2\n      mstore\n      pop\n      pop\n      tag_112\n        /* \".workspaces/default_workspace/unMiracle/UMRproposal.sol\":3390:3438  _proposals[proposalId].donateMinimum.getAmount() */\n      jump\t// in\n    tag_111:\n        /* \".workspaces/default_workspace/unMiracle/UMRproposal.sol\":3383:3438  return _proposals[proposalId].donateMinimum.getAmount() */\n      swap1\n      pop\n        /* \".workspaces/default_workspace/unMiracle/UMRproposal.sol\":3284:3445  function proposalDonateMinimum(uint256 proposalId) public view virtual returns (uint256) {... */\n      swap2\n      swap1\n      pop\n      jump\t// out\n        /* \".workspaces/default_workspace/unMiracle/utils/setting.sol\":382:492  function getDeadline(SetInfo memory info) internal pure returns(uint256) {... */\n    tag_64:\n        /* \".workspaces/default_workspace/unMiracle/utils/setting.sol\":446:453  uint256 */\n      0x00\n        /* \".workspaces/default_workspace/unMiracle/utils/setting.sol\":472:476  info */\n      dup2\n        /* \".workspaces/default_workspace/unMiracle/utils/setting.sol\":472:485  info.deadline */\n      0x00\n      add\n      mload\n        /* \".workspaces/default_workspace/unMiracle/utils/setting.sol\":465:485  return info.deadline */\n      swap1\n      pop\n        /* \".workspaces/default_workspace/unMiracle/utils/setting.sol\":382:492  function getDeadline(SetInfo memory info) internal pure returns(uint256) {... */\n      swap2\n      swap1\n      pop\n      jump\t// out\n        /* \".workspaces/default_workspace/unMiracle/utils/setting.sol\":256:376  function setDeadline(SetInfo storage info, uint256 timestamp) internal {... */\n    tag_77:\n        /* \".workspaces/default_workspace/unMiracle/utils/setting.sol\":365:369  1000 */\n      0x03e8\n        /* \".workspaces/default_workspace/unMiracle/utils/setting.sol\":353:362  timestamp */\n      dup2\n        /* \".workspaces/default_workspace/unMiracle/utils/setting.sol\":353:369  timestamp * 1000 */\n      tag_115\n      swap2\n      swap1\n      tag_67\n      jump\t// in\n    tag_115:\n        /* \".workspaces/default_workspace/unMiracle/utils/setting.sol\":337:341  info */\n      dup3\n        /* \".workspaces/default_workspace/unMiracle/utils/setting.sol\":337:350  info.deadline */\n      0x00\n      add\n        /* \".workspaces/default_workspace/unMiracle/utils/setting.sol\":337:369  info.deadline = timestamp * 1000 */\n      dup2\n      swap1\n      sstore\n      pop\n        /* \".workspaces/default_workspace/unMiracle/utils/setting.sol\":256:376  function setDeadline(SetInfo storage info, uint256 timestamp) internal {... */\n      pop\n      pop\n      jump\t// out\n        /* \".workspaces/default_workspace/unMiracle/utils/setting.sol\":498:601  function setAmount(SetInfo storage info, uint256 amount) internal {... */\n    tag_80:\n        /* \".workspaces/default_workspace/unMiracle/utils/setting.sol\":588:594  amount */\n      dup1\n        /* \".workspaces/default_workspace/unMiracle/utils/setting.sol\":574:578  info */\n      dup3\n        /* \".workspaces/default_workspace/unMiracle/utils/setting.sol\":574:585  info.amount */\n      0x01\n      add\n        /* \".workspaces/default_workspace/unMiracle/utils/setting.sol\":574:594  info.amount = amount */\n      dup2\n      swap1\n      sstore\n      pop\n        /* \".workspaces/default_workspace/unMiracle/utils/setting.sol\":498:601  function setAmount(SetInfo storage info, uint256 amount) internal {... */\n      pop\n      pop\n      jump\t// out\n        /* \".workspaces/default_workspace/unMiracle/utils/setting.sol\":849:962  function getCurrentAmount(SetInfo memory info) internal pure returns(uint256) {... */\n    tag_83:\n        /* \".workspaces/default_workspace/unMiracle/utils/setting.sol\":918:925  uint256 */\n      0x00\n        /* \".workspaces/default_workspace/unMiracle/utils/setting.sol\":944:948  info */\n      dup2\n        /* \".workspaces/default_workspace/unMiracle/utils/setting.sol\":944:955  info.amount */\n      0x20\n      add\n      mload\n        /* \".workspaces/default_workspace/unMiracle/utils/setting.sol\":937:955  return info.amount */\n      swap1\n      pop\n        /* \".workspaces/default_workspace/unMiracle/utils/setting.sol\":849:962  function getCurrentAmount(SetInfo memory info) internal pure returns(uint256) {... */\n      swap2\n      swap1\n      pop\n      jump\t// out\n        /* \".workspaces/default_workspace/unMiracle/utils/setting.sol\":719:843  function setCurrentAmount(SetInfo storage info, uint256 amount) internal {... */\n    tag_109:\n        /* \".workspaces/default_workspace/unMiracle/utils/setting.sol\":830:836  amount */\n      dup1\n        /* \".workspaces/default_workspace/unMiracle/utils/setting.sol\":816:820  info */\n      dup3\n        /* \".workspaces/default_workspace/unMiracle/utils/setting.sol\":816:827  info.amount */\n      0x01\n      add\n      sload\n        /* \".workspaces/default_workspace/unMiracle/utils/setting.sol\":816:836  info.amount + amount */\n      tag_119\n      swap2\n      swap1\n      tag_71\n      jump\t// in\n    tag_119:\n        /* \".workspaces/default_workspace/unMiracle/utils/setting.sol\":802:806  info */\n      dup3\n        /* \".workspaces/default_workspace/unMiracle/utils/setting.sol\":802:813  info.amount */\n      0x01\n      add\n        /* \".workspaces/default_workspace/unMiracle/utils/setting.sol\":802:836  info.amount = info.amount + amount */\n      dup2\n      swap1\n      sstore\n      pop\n        /* \".workspaces/default_workspace/unMiracle/utils/setting.sol\":719:843  function setCurrentAmount(SetInfo storage info, uint256 amount) internal {... */\n      pop\n      pop\n      jump\t// out\n        /* \".workspaces/default_workspace/unMiracle/utils/setting.sol\":607:713  function getAmount(SetInfo memory info) internal pure returns(uint256) {... */\n    tag_112:\n        /* \".workspaces/default_workspace/unMiracle/utils/setting.sol\":669:676  uint256 */\n      0x00\n        /* \".workspaces/default_workspace/unMiracle/utils/setting.sol\":695:699  info */\n      dup2\n        /* \".workspaces/default_workspace/unMiracle/utils/setting.sol\":695:706  info.amount */\n      0x20\n      add\n      mload\n        /* \".workspaces/default_workspace/unMiracle/utils/setting.sol\":688:706  return info.amount */\n      swap1\n      pop\n        /* \".workspaces/default_workspace/unMiracle/utils/setting.sol\":607:713  function getAmount(SetInfo memory info) internal pure returns(uint256) {... */\n      swap2\n      swap1\n      pop\n      jump\t// out\n        /* \"#utility.yul\":7:82   */\n    tag_121:\n        /* \"#utility.yul\":40:46   */\n      0x00\n        /* \"#utility.yul\":73:75   */\n      0x40\n        /* \"#utility.yul\":67:76   */\n      mload\n        /* \"#utility.yul\":57:76   */\n      swap1\n      pop\n        /* \"#utility.yul\":7:82   */\n      swap1\n      jump\t// out\n        /* \"#utility.yul\":88:205   */\n    tag_122:\n        /* \"#utility.yul\":197:198   */\n      0x00\n        /* \"#utility.yul\":194:195   */\n      dup1\n        /* \"#utility.yul\":187:199   */\n      revert\n        /* \"#utility.yul\":211:328   */\n    tag_123:\n        /* \"#utility.yul\":320:321   */\n      0x00\n        /* \"#utility.yul\":317:318   */\n      dup1\n        /* \"#utility.yul\":310:322   */\n      revert\n        /* \"#utility.yul\":334:411   */\n    tag_124:\n        /* \"#utility.yul\":371:378   */\n      0x00\n        /* \"#utility.yul\":400:405   */\n      dup2\n        /* \"#utility.yul\":389:405   */\n      swap1\n      pop\n        /* \"#utility.yul\":334:411   */\n      swap2\n      swap1\n      pop\n      jump\t// out\n        /* \"#utility.yul\":417:539   */\n    tag_125:\n        /* \"#utility.yul\":490:514   */\n      tag_178\n        /* \"#utility.yul\":508:513   */\n      dup2\n        /* \"#utility.yul\":490:514   */\n      tag_124\n      jump\t// in\n    tag_178:\n        /* \"#utility.yul\":483:488   */\n      dup2\n        /* \"#utility.yul\":480:515   */\n      eq\n        /* \"#utility.yul\":470:533   */\n      tag_179\n      jumpi\n        /* \"#utility.yul\":529:530   */\n      0x00\n        /* \"#utility.yul\":526:527   */\n      dup1\n        /* \"#utility.yul\":519:531   */\n      revert\n        /* \"#utility.yul\":470:533   */\n    tag_179:\n        /* \"#utility.yul\":417:539   */\n      pop\n      jump\t// out\n        /* \"#utility.yul\":545:684   */\n    tag_126:\n        /* \"#utility.yul\":591:596   */\n      0x00\n        /* \"#utility.yul\":629:635   */\n      dup2\n        /* \"#utility.yul\":616:636   */\n      calldataload\n        /* \"#utility.yul\":607:636   */\n      swap1\n      pop\n        /* \"#utility.yul\":645:678   */\n      tag_181\n        /* \"#utility.yul\":672:677   */\n      dup2\n        /* \"#utility.yul\":645:678   */\n      tag_125\n      jump\t// in\n    tag_181:\n        /* \"#utility.yul\":545:684   */\n      swap3\n      swap2\n      pop\n      pop\n      jump\t// out\n        /* \"#utility.yul\":690:1019   */\n    tag_15:\n        /* \"#utility.yul\":749:755   */\n      0x00\n        /* \"#utility.yul\":798:800   */\n      0x20\n        /* \"#utility.yul\":786:795   */\n      dup3\n        /* \"#utility.yul\":777:784   */\n      dup5\n        /* \"#utility.yul\":773:796   */\n      sub\n        /* \"#utility.yul\":769:801   */\n      slt\n        /* \"#utility.yul\":766:885   */\n      iszero\n      tag_183\n      jumpi\n        /* \"#utility.yul\":804:883   */\n      tag_184\n      tag_122\n      jump\t// in\n    tag_184:\n        /* \"#utility.yul\":766:885   */\n    tag_183:\n        /* \"#utility.yul\":924:925   */\n      0x00\n        /* \"#utility.yul\":949:1002   */\n      tag_185\n        /* \"#utility.yul\":994:1001   */\n      dup5\n        /* \"#utility.yul\":985:991   */\n      dup3\n        /* \"#utility.yul\":974:983   */\n      dup6\n        /* \"#utility.yul\":970:992   */\n      add\n        /* \"#utility.yul\":949:1002   */\n      tag_126\n      jump\t// in\n    tag_185:\n        /* \"#utility.yul\":939:1002   */\n      swap2\n      pop\n        /* \"#utility.yul\":895:1012   */\n      pop\n        /* \"#utility.yul\":690:1019   */\n      swap3\n      swap2\n      pop\n      pop\n      jump\t// out\n        /* \"#utility.yul\":1025:1143   */\n    tag_127:\n        /* \"#utility.yul\":1112:1136   */\n      tag_187\n        /* \"#utility.yul\":1130:1135   */\n      dup2\n        /* \"#utility.yul\":1112:1136   */\n      tag_124\n      jump\t// in\n    tag_187:\n        /* \"#utility.yul\":1107:1110   */\n      dup3\n        /* \"#utility.yul\":1100:1137   */\n      mstore\n        /* \"#utility.yul\":1025:1143   */\n      pop\n      pop\n      jump\t// out\n        /* \"#utility.yul\":1149:1371   */\n    tag_18:\n        /* \"#utility.yul\":1242:1246   */\n      0x00\n        /* \"#utility.yul\":1280:1282   */\n      0x20\n        /* \"#utility.yul\":1269:1278   */\n      dup3\n        /* \"#utility.yul\":1265:1283   */\n      add\n        /* \"#utility.yul\":1257:1283   */\n      swap1\n      pop\n        /* \"#utility.yul\":1293:1364   */\n      tag_189\n        /* \"#utility.yul\":1361:1362   */\n      0x00\n        /* \"#utility.yul\":1350:1359   */\n      dup4\n        /* \"#utility.yul\":1346:1363   */\n      add\n        /* \"#utility.yul\":1337:1343   */\n      dup5\n        /* \"#utility.yul\":1293:1364   */\n      tag_127\n      jump\t// in\n    tag_189:\n        /* \"#utility.yul\":1149:1371   */\n      swap3\n      swap2\n      pop\n      pop\n      jump\t// out\n        /* \"#utility.yul\":1377:1996   */\n    tag_22:\n        /* \"#utility.yul\":1454:1460   */\n      0x00\n        /* \"#utility.yul\":1462:1468   */\n      dup1\n        /* \"#utility.yul\":1470:1476   */\n      0x00\n        /* \"#utility.yul\":1519:1521   */\n      0x60\n        /* \"#utility.yul\":1507:1516   */\n      dup5\n        /* \"#utility.yul\":1498:1505   */\n      dup7\n        /* \"#utility.yul\":1494:1517   */\n      sub\n        /* \"#utility.yul\":1490:1522   */\n      slt\n        /* \"#utility.yul\":1487:1606   */\n      iszero\n      tag_191\n      jumpi\n        /* \"#utility.yul\":1525:1604   */\n      tag_192\n      tag_122\n      jump\t// in\n    tag_192:\n        /* \"#utility.yul\":1487:1606   */\n    tag_191:\n        /* \"#utility.yul\":1645:1646   */\n      0x00\n        /* \"#utility.yul\":1670:1723   */\n      tag_193\n        /* \"#utility.yul\":1715:1722   */\n      dup7\n        /* \"#utility.yul\":1706:1712   */\n      dup3\n        /* \"#utility.yul\":1695:1704   */\n      dup8\n        /* \"#utility.yul\":1691:1713   */\n      add\n        /* \"#utility.yul\":1670:1723   */\n      tag_126\n      jump\t// in\n    tag_193:\n        /* \"#utility.yul\":1660:1723   */\n      swap4\n      pop\n        /* \"#utility.yul\":1616:1733   */\n      pop\n        /* \"#utility.yul\":1772:1774   */\n      0x20\n        /* \"#utility.yul\":1798:1851   */\n      tag_194\n        /* \"#utility.yul\":1843:1850   */\n      dup7\n        /* \"#utility.yul\":1834:1840   */\n      dup3\n        /* \"#utility.yul\":1823:1832   */\n      dup8\n        /* \"#utility.yul\":1819:1841   */\n      add\n        /* \"#utility.yul\":1798:1851   */\n      tag_126\n      jump\t// in\n    tag_194:\n        /* \"#utility.yul\":1788:1851   */\n      swap3\n      pop\n        /* \"#utility.yul\":1743:1861   */\n      pop\n        /* \"#utility.yul\":1900:1902   */\n      0x40\n        /* \"#utility.yul\":1926:1979   */\n      tag_195\n        /* \"#utility.yul\":1971:1978   */\n      dup7\n        /* \"#utility.yul\":1962:1968   */\n      dup3\n        /* \"#utility.yul\":1951:1960   */\n      dup8\n        /* \"#utility.yul\":1947:1969   */\n      add\n        /* \"#utility.yul\":1926:1979   */\n      tag_126\n      jump\t// in\n    tag_195:\n        /* \"#utility.yul\":1916:1979   */\n      swap2\n      pop\n        /* \"#utility.yul\":1871:1989   */\n      pop\n        /* \"#utility.yul\":1377:1996   */\n      swap3\n      pop\n      swap3\n      pop\n      swap3\n      jump\t// out\n        /* \"#utility.yul\":2002:2476   */\n    tag_28:\n        /* \"#utility.yul\":2070:2076   */\n      0x00\n        /* \"#utility.yul\":2078:2084   */\n      dup1\n        /* \"#utility.yul\":2127:2129   */\n      0x40\n        /* \"#utility.yul\":2115:2124   */\n      dup4\n        /* \"#utility.yul\":2106:2113   */\n      dup6\n        /* \"#utility.yul\":2102:2125   */\n      sub\n        /* \"#utility.yul\":2098:2130   */\n      slt\n        /* \"#utility.yul\":2095:2214   */\n      iszero\n      tag_197\n      jumpi\n        /* \"#utility.yul\":2133:2212   */\n      tag_198\n      tag_122\n      jump\t// in\n    tag_198:\n        /* \"#utility.yul\":2095:2214   */\n    tag_197:\n        /* \"#utility.yul\":2253:2254   */\n      0x00\n        /* \"#utility.yul\":2278:2331   */\n      tag_199\n        /* \"#utility.yul\":2323:2330   */\n      dup6\n        /* \"#utility.yul\":2314:2320   */\n      dup3\n        /* \"#utility.yul\":2303:2312   */\n      dup7\n        /* \"#utility.yul\":2299:2321   */\n      add\n        /* \"#utility.yul\":2278:2331   */\n      tag_126\n      jump\t// in\n    tag_199:\n        /* \"#utility.yul\":2268:2331   */\n      swap3\n      pop\n        /* \"#utility.yul\":2224:2341   */\n      pop\n        /* \"#utility.yul\":2380:2382   */\n      0x20\n        /* \"#utility.yul\":2406:2459   */\n      tag_200\n        /* \"#utility.yul\":2451:2458   */\n      dup6\n        /* \"#utility.yul\":2442:2448   */\n      dup3\n        /* \"#utility.yul\":2431:2440   */\n      dup7\n        /* \"#utility.yul\":2427:2449   */\n      add\n        /* \"#utility.yul\":2406:2459   */\n      tag_126\n      jump\t// in\n    tag_200:\n        /* \"#utility.yul\":2396:2459   */\n      swap2\n      pop\n        /* \"#utility.yul\":2351:2469   */\n      pop\n        /* \"#utility.yul\":2002:2476   */\n      swap3\n      pop\n      swap3\n      swap1\n      pop\n      jump\t// out\n        /* \"#utility.yul\":2482:2662   */\n    tag_99:\n        /* \"#utility.yul\":2530:2607   */\n      0x4e487b7100000000000000000000000000000000000000000000000000000000\n        /* \"#utility.yul\":2527:2528   */\n      0x00\n        /* \"#utility.yul\":2520:2608   */\n      mstore\n        /* \"#utility.yul\":2627:2631   */\n      0x21\n        /* \"#utility.yul\":2624:2625   */\n      0x04\n        /* \"#utility.yul\":2617:2632   */\n      mstore\n        /* \"#utility.yul\":2651:2655   */\n      0x24\n        /* \"#utility.yul\":2648:2649   */\n      0x00\n        /* \"#utility.yul\":2641:2656   */\n      revert\n        /* \"#utility.yul\":2668:2788   */\n    tag_128:\n        /* \"#utility.yul\":2756:2757   */\n      0x06\n        /* \"#utility.yul\":2749:2754   */\n      dup2\n        /* \"#utility.yul\":2746:2758   */\n      lt\n        /* \"#utility.yul\":2736:2782   */\n      tag_203\n      jumpi\n        /* \"#utility.yul\":2762:2780   */\n      tag_204\n      tag_99\n      jump\t// in\n    tag_204:\n        /* \"#utility.yul\":2736:2782   */\n    tag_203:\n        /* \"#utility.yul\":2668:2788   */\n      pop\n      jump\t// out\n        /* \"#utility.yul\":2794:2935   */\n    tag_129:\n        /* \"#utility.yul\":2846:2853   */\n      0x00\n        /* \"#utility.yul\":2875:2880   */\n      dup2\n        /* \"#utility.yul\":2864:2880   */\n      swap1\n      pop\n        /* \"#utility.yul\":2881:2929   */\n      tag_206\n        /* \"#utility.yul\":2923:2928   */\n      dup3\n        /* \"#utility.yul\":2881:2929   */\n      tag_128\n      jump\t// in\n    tag_206:\n        /* \"#utility.yul\":2794:2935   */\n      swap2\n      swap1\n      pop\n      jump\t// out\n        /* \"#utility.yul\":2941:3082   */\n    tag_130:\n        /* \"#utility.yul\":3004:3013   */\n      0x00\n        /* \"#utility.yul\":3037:3076   */\n      tag_208\n        /* \"#utility.yul\":3070:3075   */\n      dup3\n        /* \"#utility.yul\":3037:3076   */\n      tag_129\n      jump\t// in\n    tag_208:\n        /* \"#utility.yul\":3024:3076   */\n      swap1\n      pop\n        /* \"#utility.yul\":2941:3082   */\n      swap2\n      swap1\n      pop\n      jump\t// out\n        /* \"#utility.yul\":3088:3245   */\n    tag_131:\n        /* \"#utility.yul\":3188:3238   */\n      tag_210\n        /* \"#utility.yul\":3232:3237   */\n      dup2\n        /* \"#utility.yul\":3188:3238   */\n      tag_130\n      jump\t// in\n    tag_210:\n        /* \"#utility.yul\":3183:3186   */\n      dup3\n        /* \"#utility.yul\":3176:3239   */\n      mstore\n        /* \"#utility.yul\":3088:3245   */\n      pop\n      pop\n      jump\t// out\n        /* \"#utility.yul\":3251:3499   */\n    tag_36:\n        /* \"#utility.yul\":3357:3361   */\n      0x00\n        /* \"#utility.yul\":3395:3397   */\n      0x20\n        /* \"#utility.yul\":3384:3393   */\n      dup3\n        /* \"#utility.yul\":3380:3398   */\n      add\n        /* \"#utility.yul\":3372:3398   */\n      swap1\n      pop\n        /* \"#utility.yul\":3408:3492   */\n      tag_212\n        /* \"#utility.yul\":3489:3490   */\n      0x00\n        /* \"#utility.yul\":3478:3487   */\n      dup4\n        /* \"#utility.yul\":3474:3491   */\n      add\n        /* \"#utility.yul\":3465:3471   */\n      dup5\n        /* \"#utility.yul\":3408:3492   */\n      tag_131\n      jump\t// in\n    tag_212:\n        /* \"#utility.yul\":3251:3499   */\n      swap3\n      swap2\n      pop\n      pop\n      jump\t// out\n        /* \"#utility.yul\":3505:3631   */\n    tag_132:\n        /* \"#utility.yul\":3542:3549   */\n      0x00\n        /* \"#utility.yul\":3582:3624   */\n      0xffffffffffffffffffffffffffffffffffffffff\n        /* \"#utility.yul\":3575:3580   */\n      dup3\n        /* \"#utility.yul\":3571:3625   */\n      and\n        /* \"#utility.yul\":3560:3625   */\n      swap1\n      pop\n        /* \"#utility.yul\":3505:3631   */\n      swap2\n      swap1\n      pop\n      jump\t// out\n        /* \"#utility.yul\":3637:3733   */\n    tag_133:\n        /* \"#utility.yul\":3674:3681   */\n      0x00\n        /* \"#utility.yul\":3703:3727   */\n      tag_215\n        /* \"#utility.yul\":3721:3726   */\n      dup3\n        /* \"#utility.yul\":3703:3727   */\n      tag_132\n      jump\t// in\n    tag_215:\n        /* \"#utility.yul\":3692:3727   */\n      swap1\n      pop\n        /* \"#utility.yul\":3637:3733   */\n      swap2\n      swap1\n      pop\n      jump\t// out\n        /* \"#utility.yul\":3739:3861   */\n    tag_134:\n        /* \"#utility.yul\":3812:3836   */\n      tag_217\n        /* \"#utility.yul\":3830:3835   */\n      dup2\n        /* \"#utility.yul\":3812:3836   */\n      tag_133\n      jump\t// in\n    tag_217:\n        /* \"#utility.yul\":3805:3810   */\n      dup2\n        /* \"#utility.yul\":3802:3837   */\n      eq\n        /* \"#utility.yul\":3792:3855   */\n      tag_218\n      jumpi\n        /* \"#utility.yul\":3851:3852   */\n      0x00\n        /* \"#utility.yul\":3848:3849   */\n      dup1\n        /* \"#utility.yul\":3841:3853   */\n      revert\n        /* \"#utility.yul\":3792:3855   */\n    tag_218:\n        /* \"#utility.yul\":3739:3861   */\n      pop\n      jump\t// out\n        /* \"#utility.yul\":3867:4006   */\n    tag_135:\n        /* \"#utility.yul\":3913:3918   */\n      0x00\n        /* \"#utility.yul\":3951:3957   */\n      dup2\n        /* \"#utility.yul\":3938:3958   */\n      calldataload\n        /* \"#utility.yul\":3929:3958   */\n      swap1\n      pop\n        /* \"#utility.yul\":3967:4000   */\n      tag_220\n        /* \"#utility.yul\":3994:3999   */\n      dup2\n        /* \"#utility.yul\":3967:4000   */\n      tag_134\n      jump\t// in\n    tag_220:\n        /* \"#utility.yul\":3867:4006   */\n      swap3\n      swap2\n      pop\n      pop\n      jump\t// out\n        /* \"#utility.yul\":4012:4129   */\n    tag_136:\n        /* \"#utility.yul\":4121:4122   */\n      0x00\n        /* \"#utility.yul\":4118:4119   */\n      dup1\n        /* \"#utility.yul\":4111:4123   */\n      revert\n        /* \"#utility.yul\":4135:4237   */\n    tag_137:\n        /* \"#utility.yul\":4176:4182   */\n      0x00\n        /* \"#utility.yul\":4227:4229   */\n      0x1f\n        /* \"#utility.yul\":4223:4230   */\n      not\n        /* \"#utility.yul\":4218:4220   */\n      0x1f\n        /* \"#utility.yul\":4211:4216   */\n      dup4\n        /* \"#utility.yul\":4207:4221   */\n      add\n        /* \"#utility.yul\":4203:4231   */\n      and\n        /* \"#utility.yul\":4193:4231   */\n      swap1\n      pop\n        /* \"#utility.yul\":4135:4237   */\n      swap2\n      swap1\n      pop\n      jump\t// out\n        /* \"#utility.yul\":4243:4423   */\n    tag_138:\n        /* \"#utility.yul\":4291:4368   */\n      0x4e487b7100000000000000000000000000000000000000000000000000000000\n        /* \"#utility.yul\":4288:4289   */\n      0x00\n        /* \"#utility.yul\":4281:4369   */\n      mstore\n        /* \"#utility.yul\":4388:4392   */\n      0x41\n        /* \"#utility.yul\":4385:4386   */\n      0x04\n        /* \"#utility.yul\":4378:4393   */\n      mstore\n        /* \"#utility.yul\":4412:4416   */\n      0x24\n        /* \"#utility.yul\":4409:4410   */\n      0x00\n        /* \"#utility.yul\":4402:4417   */\n      revert\n        /* \"#utility.yul\":4429:4710   */\n    tag_139:\n        /* \"#utility.yul\":4512:4539   */\n      tag_225\n        /* \"#utility.yul\":4534:4538   */\n      dup3\n        /* \"#utility.yul\":4512:4539   */\n      tag_137\n      jump\t// in\n    tag_225:\n        /* \"#utility.yul\":4504:4510   */\n      dup2\n        /* \"#utility.yul\":4500:4540   */\n      add\n        /* \"#utility.yul\":4642:4648   */\n      dup2\n        /* \"#utility.yul\":4630:4640   */\n      dup2\n        /* \"#utility.yul\":4627:4649   */\n      lt\n        /* \"#utility.yul\":4606:4624   */\n      0xffffffffffffffff\n        /* \"#utility.yul\":4594:4604   */\n      dup3\n        /* \"#utility.yul\":4591:4625   */\n      gt\n        /* \"#utility.yul\":4588:4650   */\n      or\n        /* \"#utility.yul\":4585:4673   */\n      iszero\n      tag_226\n      jumpi\n        /* \"#utility.yul\":4653:4671   */\n      tag_227\n      tag_138\n      jump\t// in\n    tag_227:\n        /* \"#utility.yul\":4585:4673   */\n    tag_226:\n        /* \"#utility.yul\":4693:4703   */\n      dup1\n        /* \"#utility.yul\":4689:4691   */\n      0x40\n        /* \"#utility.yul\":4682:4704   */\n      mstore\n        /* \"#utility.yul\":4472:4710   */\n      pop\n        /* \"#utility.yul\":4429:4710   */\n      pop\n      pop\n      jump\t// out\n        /* \"#utility.yul\":4716:4845   */\n    tag_140:\n        /* \"#utility.yul\":4750:4756   */\n      0x00\n        /* \"#utility.yul\":4777:4797   */\n      tag_229\n      tag_121\n      jump\t// in\n    tag_229:\n        /* \"#utility.yul\":4767:4797   */\n      swap1\n      pop\n        /* \"#utility.yul\":4806:4839   */\n      tag_230\n        /* \"#utility.yul\":4834:4838   */\n      dup3\n        /* \"#utility.yul\":4826:4832   */\n      dup3\n        /* \"#utility.yul\":4806:4839   */\n      tag_139\n      jump\t// in\n    tag_230:\n        /* \"#utility.yul\":4716:4845   */\n      swap2\n      swap1\n      pop\n      jump\t// out\n        /* \"#utility.yul\":4851:5171   */\n    tag_141:\n        /* \"#utility.yul\":4937:4941   */\n      0x00\n        /* \"#utility.yul\":5027:5045   */\n      0xffffffffffffffff\n        /* \"#utility.yul\":5019:5025   */\n      dup3\n        /* \"#utility.yul\":5016:5046   */\n      gt\n        /* \"#utility.yul\":5013:5069   */\n      iszero\n      tag_232\n      jumpi\n        /* \"#utility.yul\":5049:5067   */\n      tag_233\n      tag_138\n      jump\t// in\n    tag_233:\n        /* \"#utility.yul\":5013:5069   */\n    tag_232:\n        /* \"#utility.yul\":5099:5103   */\n      0x20\n        /* \"#utility.yul\":5091:5097   */\n      dup3\n        /* \"#utility.yul\":5087:5104   */\n      mul\n        /* \"#utility.yul\":5079:5104   */\n      swap1\n      pop\n        /* \"#utility.yul\":5159:5163   */\n      0x20\n        /* \"#utility.yul\":5153:5157   */\n      dup2\n        /* \"#utility.yul\":5149:5164   */\n      add\n        /* \"#utility.yul\":5141:5164   */\n      swap1\n      pop\n        /* \"#utility.yul\":4851:5171   */\n      swap2\n      swap1\n      pop\n      jump\t// out\n        /* \"#utility.yul\":5177:5294   */\n    tag_142:\n        /* \"#utility.yul\":5286:5287   */\n      0x00\n        /* \"#utility.yul\":5283:5284   */\n      dup1\n        /* \"#utility.yul\":5276:5288   */\n      revert\n        /* \"#utility.yul\":5300:5417   */\n    tag_143:\n        /* \"#utility.yul\":5409:5410   */\n      0x00\n        /* \"#utility.yul\":5406:5407   */\n      dup1\n        /* \"#utility.yul\":5399:5411   */\n      revert\n        /* \"#utility.yul\":5423:5730   */\n    tag_144:\n        /* \"#utility.yul\":5484:5488   */\n      0x00\n        /* \"#utility.yul\":5574:5592   */\n      0xffffffffffffffff\n        /* \"#utility.yul\":5566:5572   */\n      dup3\n        /* \"#utility.yul\":5563:5593   */\n      gt\n        /* \"#utility.yul\":5560:5616   */\n      iszero\n      tag_237\n      jumpi\n        /* \"#utility.yul\":5596:5614   */\n      tag_238\n      tag_138\n      jump\t// in\n    tag_238:\n        /* \"#utility.yul\":5560:5616   */\n    tag_237:\n        /* \"#utility.yul\":5634:5663   */\n      tag_239\n        /* \"#utility.yul\":5656:5662   */\n      dup3\n        /* \"#utility.yul\":5634:5663   */\n      tag_137\n      jump\t// in\n    tag_239:\n        /* \"#utility.yul\":5626:5663   */\n      swap1\n      pop\n        /* \"#utility.yul\":5718:5722   */\n      0x20\n        /* \"#utility.yul\":5712:5716   */\n      dup2\n        /* \"#utility.yul\":5708:5723   */\n      add\n        /* \"#utility.yul\":5700:5723   */\n      swap1\n      pop\n        /* \"#utility.yul\":5423:5730   */\n      swap2\n      swap1\n      pop\n      jump\t// out\n        /* \"#utility.yul\":5736:5890   */\n    tag_145:\n        /* \"#utility.yul\":5820:5826   */\n      dup3\n        /* \"#utility.yul\":5815:5818   */\n      dup2\n        /* \"#utility.yul\":5810:5813   */\n      dup4\n        /* \"#utility.yul\":5797:5827   */\n      calldatacopy\n        /* \"#utility.yul\":5882:5883   */\n      0x00\n        /* \"#utility.yul\":5873:5879   */\n      dup4\n        /* \"#utility.yul\":5868:5871   */\n      dup4\n        /* \"#utility.yul\":5864:5880   */\n      add\n        /* \"#utility.yul\":5857:5884   */\n      mstore\n        /* \"#utility.yul\":5736:5890   */\n      pop\n      pop\n      pop\n      jump\t// out\n        /* \"#utility.yul\":5896:6306   */\n    tag_146:\n        /* \"#utility.yul\":5973:5978   */\n      0x00\n        /* \"#utility.yul\":5998:6063   */\n      tag_242\n        /* \"#utility.yul\":6014:6062   */\n      tag_243\n        /* \"#utility.yul\":6055:6061   */\n      dup5\n        /* \"#utility.yul\":6014:6062   */\n      tag_144\n      jump\t// in\n    tag_243:\n        /* \"#utility.yul\":5998:6063   */\n      tag_140\n      jump\t// in\n    tag_242:\n        /* \"#utility.yul\":5989:6063   */\n      swap1\n      pop\n        /* \"#utility.yul\":6086:6092   */\n      dup3\n        /* \"#utility.yul\":6079:6084   */\n      dup2\n        /* \"#utility.yul\":6072:6093   */\n      mstore\n        /* \"#utility.yul\":6124:6128   */\n      0x20\n        /* \"#utility.yul\":6117:6122   */\n      dup2\n        /* \"#utility.yul\":6113:6129   */\n      add\n        /* \"#utility.yul\":6162:6165   */\n      dup5\n        /* \"#utility.yul\":6153:6159   */\n      dup5\n        /* \"#utility.yul\":6148:6151   */\n      dup5\n        /* \"#utility.yul\":6144:6160   */\n      add\n        /* \"#utility.yul\":6141:6166   */\n      gt\n        /* \"#utility.yul\":6138:6250   */\n      iszero\n      tag_244\n      jumpi\n        /* \"#utility.yul\":6169:6248   */\n      tag_245\n      tag_143\n      jump\t// in\n    tag_245:\n        /* \"#utility.yul\":6138:6250   */\n    tag_244:\n        /* \"#utility.yul\":6259:6300   */\n      tag_246\n        /* \"#utility.yul\":6293:6299   */\n      dup5\n        /* \"#utility.yul\":6288:6291   */\n      dup3\n        /* \"#utility.yul\":6283:6286   */\n      dup6\n        /* \"#utility.yul\":6259:6300   */\n      tag_145\n      jump\t// in\n    tag_246:\n        /* \"#utility.yul\":5979:6306   */\n      pop\n        /* \"#utility.yul\":5896:6306   */\n      swap4\n      swap3\n      pop\n      pop\n      pop\n      jump\t// out\n        /* \"#utility.yul\":6325:6663   */\n    tag_147:\n        /* \"#utility.yul\":6380:6385   */\n      0x00\n        /* \"#utility.yul\":6429:6432   */\n      dup3\n        /* \"#utility.yul\":6422:6426   */\n      0x1f\n        /* \"#utility.yul\":6414:6420   */\n      dup4\n        /* \"#utility.yul\":6410:6427   */\n      add\n        /* \"#utility.yul\":6406:6433   */\n      slt\n        /* \"#utility.yul\":6396:6518   */\n      tag_248\n      jumpi\n        /* \"#utility.yul\":6437:6516   */\n      tag_249\n      tag_136\n      jump\t// in\n    tag_249:\n        /* \"#utility.yul\":6396:6518   */\n    tag_248:\n        /* \"#utility.yul\":6554:6560   */\n      dup2\n        /* \"#utility.yul\":6541:6561   */\n      calldataload\n        /* \"#utility.yul\":6579:6657   */\n      tag_250\n        /* \"#utility.yul\":6653:6656   */\n      dup5\n        /* \"#utility.yul\":6645:6651   */\n      dup3\n        /* \"#utility.yul\":6638:6642   */\n      0x20\n        /* \"#utility.yul\":6630:6636   */\n      dup7\n        /* \"#utility.yul\":6626:6643   */\n      add\n        /* \"#utility.yul\":6579:6657   */\n      tag_146\n      jump\t// in\n    tag_250:\n        /* \"#utility.yul\":6570:6657   */\n      swap2\n      pop\n        /* \"#utility.yul\":6386:6663   */\n      pop\n        /* \"#utility.yul\":6325:6663   */\n      swap3\n      swap2\n      pop\n      pop\n      jump\t// out\n        /* \"#utility.yul\":6684:7626   */\n    tag_148:\n        /* \"#utility.yul\":6789:6794   */\n      0x00\n        /* \"#utility.yul\":6814:6904   */\n      tag_252\n        /* \"#utility.yul\":6830:6903   */\n      tag_253\n        /* \"#utility.yul\":6896:6902   */\n      dup5\n        /* \"#utility.yul\":6830:6903   */\n      tag_141\n      jump\t// in\n    tag_253:\n        /* \"#utility.yul\":6814:6904   */\n      tag_140\n      jump\t// in\n    tag_252:\n        /* \"#utility.yul\":6805:6904   */\n      swap1\n      pop\n        /* \"#utility.yul\":6924:6929   */\n      dup1\n        /* \"#utility.yul\":6953:6959   */\n      dup4\n        /* \"#utility.yul\":6946:6951   */\n      dup3\n        /* \"#utility.yul\":6939:6960   */\n      mstore\n        /* \"#utility.yul\":6987:6991   */\n      0x20\n        /* \"#utility.yul\":6980:6985   */\n      dup3\n        /* \"#utility.yul\":6976:6992   */\n      add\n        /* \"#utility.yul\":6969:6992   */\n      swap1\n      pop\n        /* \"#utility.yul\":7040:7044   */\n      0x20\n        /* \"#utility.yul\":7032:7038   */\n      dup5\n        /* \"#utility.yul\":7028:7045   */\n      mul\n        /* \"#utility.yul\":7020:7026   */\n      dup4\n        /* \"#utility.yul\":7016:7046   */\n      add\n        /* \"#utility.yul\":7069:7072   */\n      dup6\n        /* \"#utility.yul\":7061:7067   */\n      dup2\n        /* \"#utility.yul\":7058:7073   */\n      gt\n        /* \"#utility.yul\":7055:7177   */\n      iszero\n      tag_254\n      jumpi\n        /* \"#utility.yul\":7088:7167   */\n      tag_255\n      tag_142\n      jump\t// in\n    tag_255:\n        /* \"#utility.yul\":7055:7177   */\n    tag_254:\n        /* \"#utility.yul\":7203:7209   */\n      dup4\n        /* \"#utility.yul\":7186:7620   */\n    tag_256:\n        /* \"#utility.yul\":7220:7226   */\n      dup2\n        /* \"#utility.yul\":7215:7218   */\n      dup2\n        /* \"#utility.yul\":7212:7227   */\n      lt\n        /* \"#utility.yul\":7186:7620   */\n      iszero\n      tag_258\n      jumpi\n        /* \"#utility.yul\":7309:7312   */\n      dup1\n        /* \"#utility.yul\":7296:7313   */\n      calldataload\n        /* \"#utility.yul\":7345:7363   */\n      0xffffffffffffffff\n        /* \"#utility.yul\":7332:7343   */\n      dup2\n        /* \"#utility.yul\":7329:7364   */\n      gt\n        /* \"#utility.yul\":7326:7448   */\n      iszero\n      tag_259\n      jumpi\n        /* \"#utility.yul\":7367:7446   */\n      tag_260\n      tag_136\n      jump\t// in\n    tag_260:\n        /* \"#utility.yul\":7326:7448   */\n    tag_259:\n        /* \"#utility.yul\":7491:7502   */\n      dup1\n        /* \"#utility.yul\":7483:7489   */\n      dup7\n        /* \"#utility.yul\":7479:7503   */\n      add\n        /* \"#utility.yul\":7529:7575   */\n      tag_261\n        /* \"#utility.yul\":7571:7574   */\n      dup10\n        /* \"#utility.yul\":7559:7569   */\n      dup3\n        /* \"#utility.yul\":7529:7575   */\n      tag_147\n      jump\t// in\n    tag_261:\n        /* \"#utility.yul\":7524:7527   */\n      dup6\n        /* \"#utility.yul\":7517:7576   */\n      mstore\n        /* \"#utility.yul\":7605:7609   */\n      0x20\n        /* \"#utility.yul\":7600:7603   */\n      dup6\n        /* \"#utility.yul\":7596:7610   */\n      add\n        /* \"#utility.yul\":7589:7610   */\n      swap5\n      pop\n        /* \"#utility.yul\":7262:7620   */\n      pop\n      pop\n        /* \"#utility.yul\":7246:7250   */\n      0x20\n        /* \"#utility.yul\":7241:7244   */\n      dup2\n        /* \"#utility.yul\":7237:7251   */\n      add\n        /* \"#utility.yul\":7230:7251   */\n      swap1\n      pop\n        /* \"#utility.yul\":7186:7620   */\n      jump(tag_256)\n    tag_258:\n        /* \"#utility.yul\":7190:7211   */\n      pop\n        /* \"#utility.yul\":6795:7626   */\n      pop\n      pop\n        /* \"#utility.yul\":6684:7626   */\n      swap4\n      swap3\n      pop\n      pop\n      pop\n      jump\t// out\n        /* \"#utility.yul\":7647:8035   */\n    tag_149:\n        /* \"#utility.yul\":7727:7732   */\n      0x00\n        /* \"#utility.yul\":7776:7779   */\n      dup3\n        /* \"#utility.yul\":7769:7773   */\n      0x1f\n        /* \"#utility.yul\":7761:7767   */\n      dup4\n        /* \"#utility.yul\":7757:7774   */\n      add\n        /* \"#utility.yul\":7753:7780   */\n      slt\n        /* \"#utility.yul\":7743:7865   */\n      tag_263\n      jumpi\n        /* \"#utility.yul\":7784:7863   */\n      tag_264\n      tag_136\n      jump\t// in\n    tag_264:\n        /* \"#utility.yul\":7743:7865   */\n    tag_263:\n        /* \"#utility.yul\":7901:7907   */\n      dup2\n        /* \"#utility.yul\":7888:7908   */\n      calldataload\n        /* \"#utility.yul\":7926:8029   */\n      tag_265\n        /* \"#utility.yul\":8025:8028   */\n      dup5\n        /* \"#utility.yul\":8017:8023   */\n      dup3\n        /* \"#utility.yul\":8010:8014   */\n      0x20\n        /* \"#utility.yul\":8002:8008   */\n      dup7\n        /* \"#utility.yul\":7998:8015   */\n      add\n        /* \"#utility.yul\":7926:8029   */\n      tag_148\n      jump\t// in\n    tag_265:\n        /* \"#utility.yul\":7917:8029   */\n      swap2\n      pop\n        /* \"#utility.yul\":7733:8035   */\n      pop\n        /* \"#utility.yul\":7647:8035   */\n      swap3\n      swap2\n      pop\n      pop\n      jump\t// out\n        /* \"#utility.yul\":8041:8118   */\n    tag_150:\n        /* \"#utility.yul\":8078:8085   */\n      0x00\n        /* \"#utility.yul\":8107:8112   */\n      dup2\n        /* \"#utility.yul\":8096:8112   */\n      swap1\n      pop\n        /* \"#utility.yul\":8041:8118   */\n      swap2\n      swap1\n      pop\n      jump\t// out\n        /* \"#utility.yul\":8124:8246   */\n    tag_151:\n        /* \"#utility.yul\":8197:8221   */\n      tag_268\n        /* \"#utility.yul\":8215:8220   */\n      dup2\n        /* \"#utility.yul\":8197:8221   */\n      tag_150\n      jump\t// in\n    tag_268:\n        /* \"#utility.yul\":8190:8195   */\n      dup2\n        /* \"#utility.yul\":8187:8222   */\n      eq\n        /* \"#utility.yul\":8177:8240   */\n      tag_269\n      jumpi\n        /* \"#utility.yul\":8236:8237   */\n      0x00\n        /* \"#utility.yul\":8233:8234   */\n      dup1\n        /* \"#utility.yul\":8226:8238   */\n      revert\n        /* \"#utility.yul\":8177:8240   */\n    tag_269:\n        /* \"#utility.yul\":8124:8246   */\n      pop\n      jump\t// out\n        /* \"#utility.yul\":8252:8391   */\n    tag_152:\n        /* \"#utility.yul\":8298:8303   */\n      0x00\n        /* \"#utility.yul\":8336:8342   */\n      dup2\n        /* \"#utility.yul\":8323:8343   */\n      calldataload\n        /* \"#utility.yul\":8314:8343   */\n      swap1\n      pop\n        /* \"#utility.yul\":8352:8385   */\n      tag_271\n        /* \"#utility.yul\":8379:8384   */\n      dup2\n        /* \"#utility.yul\":8352:8385   */\n      tag_151\n      jump\t// in\n    tag_271:\n        /* \"#utility.yul\":8252:8391   */\n      swap3\n      swap2\n      pop\n      pop\n      jump\t// out\n        /* \"#utility.yul\":8397:9244   */\n    tag_40:\n        /* \"#utility.yul\":8508:8514   */\n      0x00\n        /* \"#utility.yul\":8516:8522   */\n      dup1\n        /* \"#utility.yul\":8524:8530   */\n      0x00\n        /* \"#utility.yul\":8573:8575   */\n      0x60\n        /* \"#utility.yul\":8561:8570   */\n      dup5\n        /* \"#utility.yul\":8552:8559   */\n      dup7\n        /* \"#utility.yul\":8548:8571   */\n      sub\n        /* \"#utility.yul\":8544:8576   */\n      slt\n        /* \"#utility.yul\":8541:8660   */\n      iszero\n      tag_273\n      jumpi\n        /* \"#utility.yul\":8579:8658   */\n      tag_274\n      tag_122\n      jump\t// in\n    tag_274:\n        /* \"#utility.yul\":8541:8660   */\n    tag_273:\n        /* \"#utility.yul\":8699:8700   */\n      0x00\n        /* \"#utility.yul\":8724:8777   */\n      tag_275\n        /* \"#utility.yul\":8769:8776   */\n      dup7\n        /* \"#utility.yul\":8760:8766   */\n      dup3\n        /* \"#utility.yul\":8749:8758   */\n      dup8\n        /* \"#utility.yul\":8745:8767   */\n      add\n        /* \"#utility.yul\":8724:8777   */\n      tag_135\n      jump\t// in\n    tag_275:\n        /* \"#utility.yul\":8714:8777   */\n      swap4\n      pop\n        /* \"#utility.yul\":8670:8787   */\n      pop\n        /* \"#utility.yul\":8854:8856   */\n      0x20\n        /* \"#utility.yul\":8843:8852   */\n      dup5\n        /* \"#utility.yul\":8839:8857   */\n      add\n        /* \"#utility.yul\":8826:8858   */\n      calldataload\n        /* \"#utility.yul\":8885:8903   */\n      0xffffffffffffffff\n        /* \"#utility.yul\":8877:8883   */\n      dup2\n        /* \"#utility.yul\":8874:8904   */\n      gt\n        /* \"#utility.yul\":8871:8988   */\n      iszero\n      tag_276\n      jumpi\n        /* \"#utility.yul\":8907:8986   */\n      tag_277\n      tag_123\n      jump\t// in\n    tag_277:\n        /* \"#utility.yul\":8871:8988   */\n    tag_276:\n        /* \"#utility.yul\":9012:9099   */\n      tag_278\n        /* \"#utility.yul\":9091:9098   */\n      dup7\n        /* \"#utility.yul\":9082:9088   */\n      dup3\n        /* \"#utility.yul\":9071:9080   */\n      dup8\n        /* \"#utility.yul\":9067:9089   */\n      add\n        /* \"#utility.yul\":9012:9099   */\n      tag_149\n      jump\t// in\n    tag_278:\n        /* \"#utility.yul\":9002:9099   */\n      swap3\n      pop\n        /* \"#utility.yul\":8797:9109   */\n      pop\n        /* \"#utility.yul\":9148:9150   */\n      0x40\n        /* \"#utility.yul\":9174:9227   */\n      tag_279\n        /* \"#utility.yul\":9219:9226   */\n      dup7\n        /* \"#utility.yul\":9210:9216   */\n      dup3\n        /* \"#utility.yul\":9199:9208   */\n      dup8\n        /* \"#utility.yul\":9195:9217   */\n      add\n        /* \"#utility.yul\":9174:9227   */\n      tag_152\n      jump\t// in\n    tag_279:\n        /* \"#utility.yul\":9164:9227   */\n      swap2\n      pop\n        /* \"#utility.yul\":9119:9237   */\n      pop\n        /* \"#utility.yul\":8397:9244   */\n      swap3\n      pop\n      swap3\n      pop\n      swap3\n      jump\t// out\n        /* \"#utility.yul\":9250:9558   */\n    tag_153:\n        /* \"#utility.yul\":9312:9316   */\n      0x00\n        /* \"#utility.yul\":9402:9420   */\n      0xffffffffffffffff\n        /* \"#utility.yul\":9394:9400   */\n      dup3\n        /* \"#utility.yul\":9391:9421   */\n      gt\n        /* \"#utility.yul\":9388:9444   */\n      iszero\n      tag_281\n      jumpi\n        /* \"#utility.yul\":9424:9442   */\n      tag_282\n      tag_138\n      jump\t// in\n    tag_282:\n        /* \"#utility.yul\":9388:9444   */\n    tag_281:\n        /* \"#utility.yul\":9462:9491   */\n      tag_283\n        /* \"#utility.yul\":9484:9490   */\n      dup3\n        /* \"#utility.yul\":9462:9491   */\n      tag_137\n      jump\t// in\n    tag_283:\n        /* \"#utility.yul\":9454:9491   */\n      swap1\n      pop\n        /* \"#utility.yul\":9546:9550   */\n      0x20\n        /* \"#utility.yul\":9540:9544   */\n      dup2\n        /* \"#utility.yul\":9536:9551   */\n      add\n        /* \"#utility.yul\":9528:9551   */\n      swap1\n      pop\n        /* \"#utility.yul\":9250:9558   */\n      swap2\n      swap1\n      pop\n      jump\t// out\n        /* \"#utility.yul\":9564:9976   */\n    tag_154:\n        /* \"#utility.yul\":9642:9647   */\n      0x00\n        /* \"#utility.yul\":9667:9733   */\n      tag_285\n        /* \"#utility.yul\":9683:9732   */\n      tag_286\n        /* \"#utility.yul\":9725:9731   */\n      dup5\n        /* \"#utility.yul\":9683:9732   */\n      tag_153\n      jump\t// in\n    tag_286:\n        /* \"#utility.yul\":9667:9733   */\n      tag_140\n      jump\t// in\n    tag_285:\n        /* \"#utility.yul\":9658:9733   */\n      swap1\n      pop\n        /* \"#utility.yul\":9756:9762   */\n      dup3\n        /* \"#utility.yul\":9749:9754   */\n      dup2\n        /* \"#utility.yul\":9742:9763   */\n      mstore\n        /* \"#utility.yul\":9794:9798   */\n      0x20\n        /* \"#utility.yul\":9787:9792   */\n      dup2\n        /* \"#utility.yul\":9783:9799   */\n      add\n        /* \"#utility.yul\":9832:9835   */\n      dup5\n        /* \"#utility.yul\":9823:9829   */\n      dup5\n        /* \"#utility.yul\":9818:9821   */\n      dup5\n        /* \"#utility.yul\":9814:9830   */\n      add\n        /* \"#utility.yul\":9811:9836   */\n      gt\n        /* \"#utility.yul\":9808:9920   */\n      iszero\n      tag_287\n      jumpi\n        /* \"#utility.yul\":9839:9918   */\n      tag_288\n      tag_143\n      jump\t// in\n    tag_288:\n        /* \"#utility.yul\":9808:9920   */\n    tag_287:\n        /* \"#utility.yul\":9929:9970   */\n      tag_289\n        /* \"#utility.yul\":9963:9969   */\n      dup5\n        /* \"#utility.yul\":9958:9961   */\n      dup3\n        /* \"#utility.yul\":9953:9956   */\n      dup6\n        /* \"#utility.yul\":9929:9970   */\n      tag_145\n      jump\t// in\n    tag_289:\n        /* \"#utility.yul\":9648:9976   */\n      pop\n        /* \"#utility.yul\":9564:9976   */\n      swap4\n      swap3\n      pop\n      pop\n      pop\n      jump\t// out\n        /* \"#utility.yul\":9996:10336   */\n    tag_155:\n        /* \"#utility.yul\":10052:10057   */\n      0x00\n        /* \"#utility.yul\":10101:10104   */\n      dup3\n        /* \"#utility.yul\":10094:10098   */\n      0x1f\n        /* \"#utility.yul\":10086:10092   */\n      dup4\n        /* \"#utility.yul\":10082:10099   */\n      add\n        /* \"#utility.yul\":10078:10105   */\n      slt\n        /* \"#utility.yul\":10068:10190   */\n      tag_291\n      jumpi\n        /* \"#utility.yul\":10109:10188   */\n      tag_292\n      tag_136\n      jump\t// in\n    tag_292:\n        /* \"#utility.yul\":10068:10190   */\n    tag_291:\n        /* \"#utility.yul\":10226:10232   */\n      dup2\n        /* \"#utility.yul\":10213:10233   */\n      calldataload\n        /* \"#utility.yul\":10251:10330   */\n      tag_293\n        /* \"#utility.yul\":10326:10329   */\n      dup5\n        /* \"#utility.yul\":10318:10324   */\n      dup3\n        /* \"#utility.yul\":10311:10315   */\n      0x20\n        /* \"#utility.yul\":10303:10309   */\n      dup7\n        /* \"#utility.yul\":10299:10316   */\n      add\n        /* \"#utility.yul\":10251:10330   */\n      tag_154\n      jump\t// in\n    tag_293:\n        /* \"#utility.yul\":10242:10330   */\n      swap2\n      pop\n        /* \"#utility.yul\":10058:10336   */\n      pop\n        /* \"#utility.yul\":9996:10336   */\n      swap3\n      swap2\n      pop\n      pop\n      jump\t// out\n        /* \"#utility.yul\":10342:11369   */\n    tag_45:\n        /* \"#utility.yul\":10463:10469   */\n      0x00\n        /* \"#utility.yul\":10471:10477   */\n      dup1\n        /* \"#utility.yul\":10479:10485   */\n      0x00\n        /* \"#utility.yul\":10528:10530   */\n      0x60\n        /* \"#utility.yul\":10516:10525   */\n      dup5\n        /* \"#utility.yul\":10507:10514   */\n      dup7\n        /* \"#utility.yul\":10503:10526   */\n      sub\n        /* \"#utility.yul\":10499:10531   */\n      slt\n        /* \"#utility.yul\":10496:10615   */\n      iszero\n      tag_295\n      jumpi\n        /* \"#utility.yul\":10534:10613   */\n      tag_296\n      tag_122\n      jump\t// in\n    tag_296:\n        /* \"#utility.yul\":10496:10615   */\n    tag_295:\n        /* \"#utility.yul\":10654:10655   */\n      0x00\n        /* \"#utility.yul\":10679:10732   */\n      tag_297\n        /* \"#utility.yul\":10724:10731   */\n      dup7\n        /* \"#utility.yul\":10715:10721   */\n      dup3\n        /* \"#utility.yul\":10704:10713   */\n      dup8\n        /* \"#utility.yul\":10700:10722   */\n      add\n        /* \"#utility.yul\":10679:10732   */\n      tag_135\n      jump\t// in\n    tag_297:\n        /* \"#utility.yul\":10669:10732   */\n      swap4\n      pop\n        /* \"#utility.yul\":10625:10742   */\n      pop\n        /* \"#utility.yul\":10809:10811   */\n      0x20\n        /* \"#utility.yul\":10798:10807   */\n      dup5\n        /* \"#utility.yul\":10794:10812   */\n      add\n        /* \"#utility.yul\":10781:10813   */\n      calldataload\n        /* \"#utility.yul\":10840:10858   */\n      0xffffffffffffffff\n        /* \"#utility.yul\":10832:10838   */\n      dup2\n        /* \"#utility.yul\":10829:10859   */\n      gt\n        /* \"#utility.yul\":10826:10943   */\n      iszero\n      tag_298\n      jumpi\n        /* \"#utility.yul\":10862:10941   */\n      tag_299\n      tag_123\n      jump\t// in\n    tag_299:\n        /* \"#utility.yul\":10826:10943   */\n    tag_298:\n        /* \"#utility.yul\":10967:11030   */\n      tag_300\n        /* \"#utility.yul\":11022:11029   */\n      dup7\n        /* \"#utility.yul\":11013:11019   */\n      dup3\n        /* \"#utility.yul\":11002:11011   */\n      dup8\n        /* \"#utility.yul\":10998:11020   */\n      add\n        /* \"#utility.yul\":10967:11030   */\n      tag_155\n      jump\t// in\n    tag_300:\n        /* \"#utility.yul\":10957:11030   */\n      swap3\n      pop\n        /* \"#utility.yul\":10752:11040   */\n      pop\n        /* \"#utility.yul\":11107:11109   */\n      0x40\n        /* \"#utility.yul\":11096:11105   */\n      dup5\n        /* \"#utility.yul\":11092:11110   */\n      add\n        /* \"#utility.yul\":11079:11111   */\n      calldataload\n        /* \"#utility.yul\":11138:11156   */\n      0xffffffffffffffff\n        /* \"#utility.yul\":11130:11136   */\n      dup2\n        /* \"#utility.yul\":11127:11157   */\n      gt\n        /* \"#utility.yul\":11124:11241   */\n      iszero\n      tag_301\n      jumpi\n        /* \"#utility.yul\":11160:11239   */\n      tag_302\n      tag_123\n      jump\t// in\n    tag_302:\n        /* \"#utility.yul\":11124:11241   */\n    tag_301:\n        /* \"#utility.yul\":11265:11352   */\n      tag_303\n        /* \"#utility.yul\":11344:11351   */\n      dup7\n        /* \"#utility.yul\":11335:11341   */\n      dup3\n        /* \"#utility.yul\":11324:11333   */\n      dup8\n        /* \"#utility.yul\":11320:11342   */\n      add\n        /* \"#utility.yul\":11265:11352   */\n      tag_149\n      jump\t// in\n    tag_303:\n        /* \"#utility.yul\":11255:11352   */\n      swap2\n      pop\n        /* \"#utility.yul\":11050:11362   */\n      pop\n        /* \"#utility.yul\":10342:11369   */\n      swap3\n      pop\n      swap3\n      pop\n      swap3\n      jump\t// out\n        /* \"#utility.yul\":11375:11555   */\n    tag_156:\n        /* \"#utility.yul\":11423:11500   */\n      0x4e487b7100000000000000000000000000000000000000000000000000000000\n        /* \"#utility.yul\":11420:11421   */\n      0x00\n        /* \"#utility.yul\":11413:11501   */\n      mstore\n        /* \"#utility.yul\":11520:11524   */\n      0x11\n        /* \"#utility.yul\":11517:11518   */\n      0x04\n        /* \"#utility.yul\":11510:11525   */\n      mstore\n        /* \"#utility.yul\":11544:11548   */\n      0x24\n        /* \"#utility.yul\":11541:11542   */\n      0x00\n        /* \"#utility.yul\":11534:11549   */\n      revert\n        /* \"#utility.yul\":11561:11909   */\n    tag_67:\n        /* \"#utility.yul\":11601:11608   */\n      0x00\n        /* \"#utility.yul\":11624:11644   */\n      tag_306\n        /* \"#utility.yul\":11642:11643   */\n      dup3\n        /* \"#utility.yul\":11624:11644   */\n      tag_124\n      jump\t// in\n    tag_306:\n        /* \"#utility.yul\":11619:11644   */\n      swap2\n      pop\n        /* \"#utility.yul\":11658:11678   */\n      tag_307\n        /* \"#utility.yul\":11676:11677   */\n      dup4\n        /* \"#utility.yul\":11658:11678   */\n      tag_124\n      jump\t// in\n    tag_307:\n        /* \"#utility.yul\":11653:11678   */\n      swap3\n      pop\n        /* \"#utility.yul\":11846:11847   */\n      dup2\n        /* \"#utility.yul\":11778:11844   */\n      0xffffffffffffffffffffffffffffffffffffffffffffffffffffffffffffffff\n        /* \"#utility.yul\":11774:11848   */\n      div\n        /* \"#utility.yul\":11771:11772   */\n      dup4\n        /* \"#utility.yul\":11768:11849   */\n      gt\n        /* \"#utility.yul\":11763:11764   */\n      dup3\n        /* \"#utility.yul\":11756:11765   */\n      iszero\n        /* \"#utility.yul\":11749:11766   */\n      iszero\n        /* \"#utility.yul\":11745:11850   */\n      and\n        /* \"#utility.yul\":11742:11873   */\n      iszero\n      tag_308\n      jumpi\n        /* \"#utility.yul\":11853:11871   */\n      tag_309\n      tag_156\n      jump\t// in\n    tag_309:\n        /* \"#utility.yul\":11742:11873   */\n    tag_308:\n        /* \"#utility.yul\":11901:11902   */\n      dup3\n        /* \"#utility.yul\":11898:11899   */\n      dup3\n        /* \"#utility.yul\":11894:11903   */\n      mul\n        /* \"#utility.yul\":11883:11903   */\n      swap1\n      pop\n        /* \"#utility.yul\":11561:11909   */\n      swap3\n      swap2\n      pop\n      pop\n      jump\t// out\n        /* \"#utility.yul\":11915:12220   */\n    tag_71:\n        /* \"#utility.yul\":11955:11958   */\n      0x00\n        /* \"#utility.yul\":11974:11994   */\n      tag_311\n        /* \"#utility.yul\":11992:11993   */\n      dup3\n        /* \"#utility.yul\":11974:11994   */\n      tag_124\n      jump\t// in\n    tag_311:\n        /* \"#utility.yul\":11969:11994   */\n      swap2\n      pop\n        /* \"#utility.yul\":12008:12028   */\n      tag_312\n        /* \"#utility.yul\":12026:12027   */\n      dup4\n        /* \"#utility.yul\":12008:12028   */\n      tag_124\n      jump\t// in\n    tag_312:\n        /* \"#utility.yul\":12003:12028   */\n      swap3\n      pop\n        /* \"#utility.yul\":12162:12163   */\n      dup3\n        /* \"#utility.yul\":12094:12160   */\n      0xffffffffffffffffffffffffffffffffffffffffffffffffffffffffffffffff\n        /* \"#utility.yul\":12090:12164   */\n      sub\n        /* \"#utility.yul\":12087:12088   */\n      dup3\n        /* \"#utility.yul\":12084:12165   */\n      gt\n        /* \"#utility.yul\":12081:12188   */\n      iszero\n      tag_313\n      jumpi\n        /* \"#utility.yul\":12168:12186   */\n      tag_314\n      tag_156\n      jump\t// in\n    tag_314:\n        /* \"#utility.yul\":12081:12188   */\n    tag_313:\n        /* \"#utility.yul\":12212:12213   */\n      dup3\n        /* \"#utility.yul\":12209:12210   */\n      dup3\n        /* \"#utility.yul\":12205:12214   */\n      add\n        /* \"#utility.yul\":12198:12214   */\n      swap1\n      pop\n        /* \"#utility.yul\":11915:12220   */\n      swap3\n      swap2\n      pop\n      pop\n      jump\t// out\n        /* \"#utility.yul\":12226:12344   */\n    tag_157:\n        /* \"#utility.yul\":12313:12337   */\n      tag_316\n        /* \"#utility.yul\":12331:12336   */\n      dup2\n        /* \"#utility.yul\":12313:12337   */\n      tag_133\n      jump\t// in\n    tag_316:\n        /* \"#utility.yul\":12308:12311   */\n      dup3\n        /* \"#utility.yul\":12301:12338   */\n      mstore\n        /* \"#utility.yul\":12226:12344   */\n      pop\n      pop\n      jump\t// out\n        /* \"#utility.yul\":12350:12473   */\n    tag_158:\n        /* \"#utility.yul\":12426:12432   */\n      0x00\n        /* \"#utility.yul\":12460:12465   */\n      dup2\n        /* \"#utility.yul\":12454:12466   */\n      mload\n        /* \"#utility.yul\":12444:12466   */\n      swap1\n      pop\n        /* \"#utility.yul\":12350:12473   */\n      swap2\n      swap1\n      pop\n      jump\t// out\n        /* \"#utility.yul\":12479:12672   */\n    tag_159:\n        /* \"#utility.yul\":12587:12598   */\n      0x00\n        /* \"#utility.yul\":12621:12627   */\n      dup3\n        /* \"#utility.yul\":12616:12619   */\n      dup3\n        /* \"#utility.yul\":12609:12628   */\n      mstore\n        /* \"#utility.yul\":12661:12665   */\n      0x20\n        /* \"#utility.yul\":12656:12659   */\n      dup3\n        /* \"#utility.yul\":12652:12666   */\n      add\n        /* \"#utility.yul\":12637:12666   */\n      swap1\n      pop\n        /* \"#utility.yul\":12479:12672   */\n      swap3\n      swap2\n      pop\n      pop\n      jump\t// out\n        /* \"#utility.yul\":12678:12819   */\n    tag_160:\n        /* \"#utility.yul\":12754:12758   */\n      0x00\n        /* \"#utility.yul\":12777:12780   */\n      dup2\n        /* \"#utility.yul\":12769:12780   */\n      swap1\n      pop\n        /* \"#utility.yul\":12807:12811   */\n      0x20\n        /* \"#utility.yul\":12802:12805   */\n      dup3\n        /* \"#utility.yul\":12798:12812   */\n      add\n        /* \"#utility.yul\":12790:12812   */\n      swap1\n      pop\n        /* \"#utility.yul\":12678:12819   */\n      swap2\n      swap1\n      pop\n      jump\t// out\n        /* \"#utility.yul\":12825:12923   */\n    tag_161:\n        /* \"#utility.yul\":12876:12882   */\n      0x00\n        /* \"#utility.yul\":12910:12915   */\n      dup2\n        /* \"#utility.yul\":12904:12916   */\n      mload\n        /* \"#utility.yul\":12894:12916   */\n      swap1\n      pop\n        /* \"#utility.yul\":12825:12923   */\n      swap2\n      swap1\n      pop\n      jump\t// out\n        /* \"#utility.yul\":12929:13087   */\n    tag_162:\n        /* \"#utility.yul\":13002:13013   */\n      0x00\n        /* \"#utility.yul\":13036:13042   */\n      dup3\n        /* \"#utility.yul\":13031:13034   */\n      dup3\n        /* \"#utility.yul\":13024:13043   */\n      mstore\n        /* \"#utility.yul\":13076:13080   */\n      0x20\n        /* \"#utility.yul\":13071:13074   */\n      dup3\n        /* \"#utility.yul\":13067:13081   */\n      add\n        /* \"#utility.yul\":13052:13081   */\n      swap1\n      pop\n        /* \"#utility.yul\":12929:13087   */\n      swap3\n      swap2\n      pop\n      pop\n      jump\t// out\n        /* \"#utility.yul\":13093:13400   */\n    tag_163:\n        /* \"#utility.yul\":13161:13162   */\n      0x00\n        /* \"#utility.yul\":13171:13284   */\n    tag_323:\n        /* \"#utility.yul\":13185:13191   */\n      dup4\n        /* \"#utility.yul\":13182:13183   */\n      dup2\n        /* \"#utility.yul\":13179:13192   */\n      lt\n        /* \"#utility.yul\":13171:13284   */\n      iszero\n      tag_325\n      jumpi\n        /* \"#utility.yul\":13270:13271   */\n      dup1\n        /* \"#utility.yul\":13265:13268   */\n      dup3\n        /* \"#utility.yul\":13261:13272   */\n      add\n        /* \"#utility.yul\":13255:13273   */\n      mload\n        /* \"#utility.yul\":13251:13252   */\n      dup2\n        /* \"#utility.yul\":13246:13249   */\n      dup5\n        /* \"#utility.yul\":13242:13253   */\n      add\n        /* \"#utility.yul\":13235:13274   */\n      mstore\n        /* \"#utility.yul\":13207:13209   */\n      0x20\n        /* \"#utility.yul\":13204:13205   */\n      dup2\n        /* \"#utility.yul\":13200:13210   */\n      add\n        /* \"#utility.yul\":13195:13210   */\n      swap1\n      pop\n        /* \"#utility.yul\":13171:13284   */\n      jump(tag_323)\n    tag_325:\n        /* \"#utility.yul\":13302:13308   */\n      dup4\n        /* \"#utility.yul\":13299:13300   */\n      dup2\n        /* \"#utility.yul\":13296:13309   */\n      gt\n        /* \"#utility.yul\":13293:13394   */\n      iszero\n      tag_326\n      jumpi\n        /* \"#utility.yul\":13382:13383   */\n      0x00\n        /* \"#utility.yul\":13373:13379   */\n      dup5\n        /* \"#utility.yul\":13368:13371   */\n      dup5\n        /* \"#utility.yul\":13364:13380   */\n      add\n        /* \"#utility.yul\":13357:13384   */\n      mstore\n        /* \"#utility.yul\":13293:13394   */\n    tag_326:\n        /* \"#utility.yul\":13142:13400   */\n      pop\n        /* \"#utility.yul\":13093:13400   */\n      pop\n      pop\n      pop\n      jump\t// out\n        /* \"#utility.yul\":13406:13746   */\n    tag_164:\n        /* \"#utility.yul\":13482:13485   */\n      0x00\n        /* \"#utility.yul\":13510:13548   */\n      tag_328\n        /* \"#utility.yul\":13542:13547   */\n      dup3\n        /* \"#utility.yul\":13510:13548   */\n      tag_161\n      jump\t// in\n    tag_328:\n        /* \"#utility.yul\":13564:13624   */\n      tag_329\n        /* \"#utility.yul\":13617:13623   */\n      dup2\n        /* \"#utility.yul\":13612:13615   */\n      dup6\n        /* \"#utility.yul\":13564:13624   */\n      tag_162\n      jump\t// in\n    tag_329:\n        /* \"#utility.yul\":13557:13624   */\n      swap4\n      pop\n        /* \"#utility.yul\":13633:13685   */\n      tag_330\n        /* \"#utility.yul\":13678:13684   */\n      dup2\n        /* \"#utility.yul\":13673:13676   */\n      dup6\n        /* \"#utility.yul\":13666:13670   */\n      0x20\n        /* \"#utility.yul\":13659:13664   */\n      dup7\n        /* \"#utility.yul\":13655:13671   */\n      add\n        /* \"#utility.yul\":13633:13685   */\n      tag_163\n      jump\t// in\n    tag_330:\n        /* \"#utility.yul\":13710:13739   */\n      tag_331\n        /* \"#utility.yul\":13732:13738   */\n      dup2\n        /* \"#utility.yul\":13710:13739   */\n      tag_137\n      jump\t// in\n    tag_331:\n        /* \"#utility.yul\":13705:13708   */\n      dup5\n        /* \"#utility.yul\":13701:13740   */\n      add\n        /* \"#utility.yul\":13694:13740   */\n      swap2\n      pop\n        /* \"#utility.yul\":13486:13746   */\n      pop\n        /* \"#utility.yul\":13406:13746   */\n      swap3\n      swap2\n      pop\n      pop\n      jump\t// out\n        /* \"#utility.yul\":13752:13944   */\n    tag_165:\n        /* \"#utility.yul\":13839:13849   */\n      0x00\n        /* \"#utility.yul\":13874:13938   */\n      tag_333\n        /* \"#utility.yul\":13934:13937   */\n      dup4\n        /* \"#utility.yul\":13926:13932   */\n      dup4\n        /* \"#utility.yul\":13874:13938   */\n      tag_164\n      jump\t// in\n    tag_333:\n        /* \"#utility.yul\":13860:13938   */\n      swap1\n      pop\n        /* \"#utility.yul\":13752:13944   */\n      swap3\n      swap2\n      pop\n      pop\n      jump\t// out\n        /* \"#utility.yul\":13950:14072   */\n    tag_166:\n        /* \"#utility.yul\":14029:14033   */\n      0x00\n        /* \"#utility.yul\":14061:14065   */\n      0x20\n        /* \"#utility.yul\":14056:14059   */\n      dup3\n        /* \"#utility.yul\":14052:14066   */\n      add\n        /* \"#utility.yul\":14044:14066   */\n      swap1\n      pop\n        /* \"#utility.yul\":13950:14072   */\n      swap2\n      swap1\n      pop\n      jump\t// out\n        /* \"#utility.yul\":14104:15087   */\n    tag_167:\n        /* \"#utility.yul\":14241:14244   */\n      0x00\n        /* \"#utility.yul\":14270:14333   */\n      tag_336\n        /* \"#utility.yul\":14327:14332   */\n      dup3\n        /* \"#utility.yul\":14270:14333   */\n      tag_158\n      jump\t// in\n    tag_336:\n        /* \"#utility.yul\":14349:14444   */\n      tag_337\n        /* \"#utility.yul\":14437:14443   */\n      dup2\n        /* \"#utility.yul\":14432:14435   */\n      dup6\n        /* \"#utility.yul\":14349:14444   */\n      tag_159\n      jump\t// in\n    tag_337:\n        /* \"#utility.yul\":14342:14444   */\n      swap4\n      pop\n        /* \"#utility.yul\":14470:14473   */\n      dup4\n        /* \"#utility.yul\":14515:14519   */\n      0x20\n        /* \"#utility.yul\":14507:14513   */\n      dup3\n        /* \"#utility.yul\":14503:14520   */\n      mul\n        /* \"#utility.yul\":14498:14501   */\n      dup6\n        /* \"#utility.yul\":14494:14521   */\n      add\n        /* \"#utility.yul\":14545:14610   */\n      tag_338\n        /* \"#utility.yul\":14604:14609   */\n      dup6\n        /* \"#utility.yul\":14545:14610   */\n      tag_160\n      jump\t// in\n    tag_338:\n        /* \"#utility.yul\":14633:14640   */\n      dup1\n        /* \"#utility.yul\":14664:14665   */\n      0x00\n        /* \"#utility.yul\":14649:15042   */\n    tag_339:\n        /* \"#utility.yul\":14674:14680   */\n      dup6\n        /* \"#utility.yul\":14671:14672   */\n      dup2\n        /* \"#utility.yul\":14668:14681   */\n      lt\n        /* \"#utility.yul\":14649:15042   */\n      iszero\n      tag_341\n      jumpi\n        /* \"#utility.yul\":14745:14754   */\n      dup5\n        /* \"#utility.yul\":14739:14743   */\n      dup5\n        /* \"#utility.yul\":14735:14755   */\n      sub\n        /* \"#utility.yul\":14730:14733   */\n      dup10\n        /* \"#utility.yul\":14723:14756   */\n      mstore\n        /* \"#utility.yul\":14796:14802   */\n      dup2\n        /* \"#utility.yul\":14790:14803   */\n      mload\n        /* \"#utility.yul\":14824:14906   */\n      tag_342\n        /* \"#utility.yul\":14901:14905   */\n      dup6\n        /* \"#utility.yul\":14886:14899   */\n      dup3\n        /* \"#utility.yul\":14824:14906   */\n      tag_165\n      jump\t// in\n    tag_342:\n        /* \"#utility.yul\":14816:14906   */\n      swap5\n      pop\n        /* \"#utility.yul\":14929:14998   */\n      tag_343\n        /* \"#utility.yul\":14991:14997   */\n      dup4\n        /* \"#utility.yul\":14929:14998   */\n      tag_166\n      jump\t// in\n    tag_343:\n        /* \"#utility.yul\":14919:14998   */\n      swap3\n      pop\n        /* \"#utility.yul\":15027:15031   */\n      0x20\n        /* \"#utility.yul\":15022:15025   */\n      dup11\n        /* \"#utility.yul\":15018:15032   */\n      add\n        /* \"#utility.yul\":15011:15032   */\n      swap10\n      pop\n        /* \"#utility.yul\":14709:15042   */\n      pop\n        /* \"#utility.yul\":14696:14697   */\n      0x01\n        /* \"#utility.yul\":14693:14694   */\n      dup2\n        /* \"#utility.yul\":14689:14698   */\n      add\n        /* \"#utility.yul\":14684:14698   */\n      swap1\n      pop\n        /* \"#utility.yul\":14649:15042   */\n      jump(tag_339)\n    tag_341:\n        /* \"#utility.yul\":14653:14667   */\n      pop\n        /* \"#utility.yul\":15058:15062   */\n      dup3\n        /* \"#utility.yul\":15051:15062   */\n      swap8\n      pop\n        /* \"#utility.yul\":15078:15081   */\n      dup8\n        /* \"#utility.yul\":15071:15081   */\n      swap6\n      pop\n        /* \"#utility.yul\":14246:15087   */\n      pop\n      pop\n      pop\n      pop\n      pop\n        /* \"#utility.yul\":14104:15087   */\n      swap3\n      swap2\n      pop\n      pop\n      jump\t// out\n        /* \"#utility.yul\":15093:15211   */\n    tag_168:\n        /* \"#utility.yul\":15180:15204   */\n      tag_345\n        /* \"#utility.yul\":15198:15203   */\n      dup2\n        /* \"#utility.yul\":15180:15204   */\n      tag_150\n      jump\t// in\n    tag_345:\n        /* \"#utility.yul\":15175:15178   */\n      dup3\n        /* \"#utility.yul\":15168:15205   */\n      mstore\n        /* \"#utility.yul\":15093:15211   */\n      pop\n      pop\n      jump\t// out\n        /* \"#utility.yul\":15217:15846   */\n    tag_93:\n        /* \"#utility.yul\":15434:15438   */\n      0x00\n        /* \"#utility.yul\":15472:15474   */\n      0x60\n        /* \"#utility.yul\":15461:15470   */\n      dup3\n        /* \"#utility.yul\":15457:15475   */\n      add\n        /* \"#utility.yul\":15449:15475   */\n      swap1\n      pop\n        /* \"#utility.yul\":15485:15556   */\n      tag_347\n        /* \"#utility.yul\":15553:15554   */\n      0x00\n        /* \"#utility.yul\":15542:15551   */\n      dup4\n        /* \"#utility.yul\":15538:15555   */\n      add\n        /* \"#utility.yul\":15529:15535   */\n      dup7\n        /* \"#utility.yul\":15485:15556   */\n      tag_157\n      jump\t// in\n    tag_347:\n        /* \"#utility.yul\":15603:15612   */\n      dup2\n        /* \"#utility.yul\":15597:15601   */\n      dup2\n        /* \"#utility.yul\":15593:15613   */\n      sub\n        /* \"#utility.yul\":15588:15590   */\n      0x20\n        /* \"#utility.yul\":15577:15586   */\n      dup4\n        /* \"#utility.yul\":15573:15591   */\n      add\n        /* \"#utility.yul\":15566:15614   */\n      mstore\n        /* \"#utility.yul\":15631:15757   */\n      tag_348\n        /* \"#utility.yul\":15752:15756   */\n      dup2\n        /* \"#utility.yul\":15743:15749   */\n      dup6\n        /* \"#utility.yul\":15631:15757   */\n      tag_167\n      jump\t// in\n    tag_348:\n        /* \"#utility.yul\":15623:15757   */\n      swap1\n      pop\n        /* \"#utility.yul\":15767:15839   */\n      tag_349\n        /* \"#utility.yul\":15835:15837   */\n      0x40\n        /* \"#utility.yul\":15824:15833   */\n      dup4\n        /* \"#utility.yul\":15820:15838   */\n      add\n        /* \"#utility.yul\":15811:15817   */\n      dup5\n        /* \"#utility.yul\":15767:15839   */\n      tag_168\n      jump\t// in\n    tag_349:\n        /* \"#utility.yul\":15217:15846   */\n      swap5\n      swap4\n      pop\n      pop\n      pop\n      pop\n      jump\t// out\n        /* \"#utility.yul\":15852:16021   */\n    tag_169:\n        /* \"#utility.yul\":15936:15947   */\n      0x00\n        /* \"#utility.yul\":15970:15976   */\n      dup3\n        /* \"#utility.yul\":15965:15968   */\n      dup3\n        /* \"#utility.yul\":15958:15977   */\n      mstore\n        /* \"#utility.yul\":16010:16014   */\n      0x20\n        /* \"#utility.yul\":16005:16008   */\n      dup3\n        /* \"#utility.yul\":16001:16015   */\n      add\n        /* \"#utility.yul\":15986:16015   */\n      swap1\n      pop\n        /* \"#utility.yul\":15852:16021   */\n      swap3\n      swap2\n      pop\n      pop\n      jump\t// out\n        /* \"#utility.yul\":16027:16247   */\n    tag_170:\n        /* \"#utility.yul\":16167:16201   */\n      0x476f7665726e6f723a2070726f706f73616c206e6f7420737563636573736675\n        /* \"#utility.yul\":16163:16164   */\n      0x00\n        /* \"#utility.yul\":16155:16161   */\n      dup3\n        /* \"#utility.yul\":16151:16165   */\n      add\n        /* \"#utility.yul\":16144:16202   */\n      mstore\n        /* \"#utility.yul\":16236:16239   */\n      0x6c00000000000000000000000000000000000000000000000000000000000000\n        /* \"#utility.yul\":16231:16233   */\n      0x20\n        /* \"#utility.yul\":16223:16229   */\n      dup3\n        /* \"#utility.yul\":16219:16234   */\n      add\n        /* \"#utility.yul\":16212:16240   */\n      mstore\n        /* \"#utility.yul\":16027:16247   */\n      pop\n      jump\t// out\n        /* \"#utility.yul\":16253:16619   */\n    tag_171:\n        /* \"#utility.yul\":16395:16398   */\n      0x00\n        /* \"#utility.yul\":16416:16483   */\n      tag_353\n        /* \"#utility.yul\":16480:16482   */\n      0x21\n        /* \"#utility.yul\":16475:16478   */\n      dup4\n        /* \"#utility.yul\":16416:16483   */\n      tag_169\n      jump\t// in\n    tag_353:\n        /* \"#utility.yul\":16409:16483   */\n      swap2\n      pop\n        /* \"#utility.yul\":16492:16585   */\n      tag_354\n        /* \"#utility.yul\":16581:16584   */\n      dup3\n        /* \"#utility.yul\":16492:16585   */\n      tag_170\n      jump\t// in\n    tag_354:\n        /* \"#utility.yul\":16610:16612   */\n      0x40\n        /* \"#utility.yul\":16605:16608   */\n      dup3\n        /* \"#utility.yul\":16601:16613   */\n      add\n        /* \"#utility.yul\":16594:16613   */\n      swap1\n      pop\n        /* \"#utility.yul\":16253:16619   */\n      swap2\n      swap1\n      pop\n      jump\t// out\n        /* \"#utility.yul\":16625:17044   */\n    tag_104:\n        /* \"#utility.yul\":16791:16795   */\n      0x00\n        /* \"#utility.yul\":16829:16831   */\n      0x20\n        /* \"#utility.yul\":16818:16827   */\n      dup3\n        /* \"#utility.yul\":16814:16832   */\n      add\n        /* \"#utility.yul\":16806:16832   */\n      swap1\n      pop\n        /* \"#utility.yul\":16878:16887   */\n      dup2\n        /* \"#utility.yul\":16872:16876   */\n      dup2\n        /* \"#utility.yul\":16868:16888   */\n      sub\n        /* \"#utility.yul\":16864:16865   */\n      0x00\n        /* \"#utility.yul\":16853:16862   */\n      dup4\n        /* \"#utility.yul\":16849:16866   */\n      add\n        /* \"#utility.yul\":16842:16889   */\n      mstore\n        /* \"#utility.yul\":16906:17037   */\n      tag_356\n        /* \"#utility.yul\":17032:17036   */\n      dup2\n        /* \"#utility.yul\":16906:17037   */\n      tag_171\n      jump\t// in\n    tag_356:\n        /* \"#utility.yul\":16898:17037   */\n      swap1\n      pop\n        /* \"#utility.yul\":16625:17044   */\n      swap2\n      swap1\n      pop\n      jump\t// out\n\n    auxdata: 0xa26469706673582212200344de317f2b2091f8b9e5f8a6f4dfbc0ee1cdcd6a415958ae2414a10dbb1df264736f6c634300080d0033\n}\n",
				"bytecode": {
					"linkReferences": {},
					"object": "608060405234801561001057600080fd5b50611056806100206000396000f3fe6080604052600436106100865760003560e01c80638c4461b3116100595780638c4461b31461017f578063a627e447146101bc578063c01f9e37146101ec578063eb9094a214610229578063f68deaf91461025257610086565b80632d63f6931461008b5780632e1b2cc9146100c857806339690b24146101055780633e4f49e614610142575b600080fd5b34801561009757600080fd5b506100b260048036038101906100ad9190610721565b61028f565b6040516100bf919061075d565b60405180910390f35b3480156100d457600080fd5b506100ef60048036038101906100ea9190610778565b6102de565b6040516100fc919061075d565b60405180910390f35b34801561011157600080fd5b5061012c600480360381019061012791906107cb565b6103b1565b604051610139919061075d565b60405180910390f35b34801561014e57600080fd5b5061016960048036038101906101649190610721565b610401565b6040516101769190610882565b60405180910390f35b34801561018b57600080fd5b506101a660048036038101906101a19190610b5d565b6104a6565b6040516101b3919061075d565b60405180910390f35b6101d660048036038101906101d19190610c6d565b6104df565b6040516101e3919061075d565b60405180910390f35b3480156101f857600080fd5b50610213600480360381019061020e9190610721565b6105a1565b604051610220919061075d565b60405180910390f35b34801561023557600080fd5b50610250600480360381019061024b91906107cb565b6105f0565b005b34801561025e57600080fd5b5061027960048036038101906102749190610721565b61061b565b604051610286919061075d565b60405180910390f35b60006102d7600080848152602001908152602001600020600001604051806060016040529081600082015481526020016001820154815260200160028201548152505061066a565b9050919050565b60008060019050600080600083815260200190815260200160002090506000603c8060188961030d9190610d27565b6103179190610d27565b6103219190610d27565b4261032c9190610d81565b90506000603c806018896103409190610d27565b61034a9190610d27565b6103549190610d27565b8261035f9190610d81565b9050610377828460000161067890919063ffffffff16565b61038d818460030161067890919063ffffffff16565b6103a3868460060161069290919063ffffffff16565b839450505050509392505050565b60006103f9600080858152602001908152602001600020600901604051806060016040529081600082015481526020016001820154815260200160028201548152505061069f565b905092915050565b600080600080848152602001908152602001600020905080600c0160009054906101000a900460ff16156104395760059150506104a1565b80600c0160019054906101000a900460ff161561045a5760029150506104a1565b60006104658461028f565b9050428110610479576000925050506104a1565b6000610484856105a1565b905042811061049957600193505050506104a1565b600393505050505b919050565b60008383836040516020016104bd93929190610f3f565b6040516020818303038152906040528051906020012060001c90509392505050565b6000806104f4858486805190602001206104a6565b9050600061050182610401565b9050600360058111156105175761051661080b565b5b81600581111561052a5761052961080b565b5b1461056a576040517f08c379a000000000000000000000000000000000000000000000000000000000815260040161056190611000565b60405180910390fd5b6001600080848152602001908152602001600020600c0160006101000a81548160ff02191690831515021790555050509392505050565b60006105e9600080848152602001908152602001600020600301604051806060016040529081600082015481526020016001820154815260200160028201548152505061066a565b9050919050565b610617816000808581526020019081526020016000206009016106ad90919063ffffffff16565b5050565b600061066360008084815260200190815260200160002060060160405180606001604052908160008201548152602001600182015481526020016002820154815250506106c9565b9050919050565b600081600001519050919050565b6103e8816106869190610d27565b82600001819055505050565b8082600101819055505050565b600081602001519050919050565b8082600101546106bd9190610d81565b82600101819055505050565b600081602001519050919050565b6000604051905090565b600080fd5b600080fd5b6000819050919050565b6106fe816106eb565b811461070957600080fd5b50565b60008135905061071b816106f5565b92915050565b600060208284031215610737576107366106e1565b5b60006107458482850161070c565b91505092915050565b610757816106eb565b82525050565b6000602082019050610772600083018461074e565b92915050565b600080600060608486031215610791576107906106e1565b5b600061079f8682870161070c565b93505060206107b08682870161070c565b92505060406107c18682870161070c565b9150509250925092565b600080604083850312156107e2576107e16106e1565b5b60006107f08582860161070c565b92505060206108018582860161070c565b9150509250929050565b7f4e487b7100000000000000000000000000000000000000000000000000000000600052602160045260246000fd5b6006811061084b5761084a61080b565b5b50565b600081905061085c8261083a565b919050565b600061086c8261084e565b9050919050565b61087c81610861565b82525050565b60006020820190506108976000830184610873565b92915050565b600073ffffffffffffffffffffffffffffffffffffffff82169050919050565b60006108c88261089d565b9050919050565b6108d8816108bd565b81146108e357600080fd5b50565b6000813590506108f5816108cf565b92915050565b600080fd5b6000601f19601f8301169050919050565b7f4e487b7100000000000000000000000000000000000000000000000000000000600052604160045260246000fd5b61094982610900565b810181811067ffffffffffffffff8211171561096857610967610911565b5b80604052505050565b600061097b6106d7565b90506109878282610940565b919050565b600067ffffffffffffffff8211156109a7576109a6610911565b5b602082029050602081019050919050565b600080fd5b600080fd5b600067ffffffffffffffff8211156109dd576109dc610911565b5b6109e682610900565b9050602081019050919050565b82818337600083830152505050565b6000610a15610a10846109c2565b610971565b905082815260208101848484011115610a3157610a306109bd565b5b610a3c8482856109f3565b509392505050565b600082601f830112610a5957610a586108fb565b5b8135610a69848260208601610a02565b91505092915050565b6000610a85610a808461098c565b610971565b90508083825260208201905060208402830185811115610aa857610aa76109b8565b5b835b81811015610aef57803567ffffffffffffffff811115610acd57610acc6108fb565b5b808601610ada8982610a44565b85526020850194505050602081019050610aaa565b5050509392505050565b600082601f830112610b0e57610b0d6108fb565b5b8135610b1e848260208601610a72565b91505092915050565b6000819050919050565b610b3a81610b27565b8114610b4557600080fd5b50565b600081359050610b5781610b31565b92915050565b600080600060608486031215610b7657610b756106e1565b5b6000610b84868287016108e6565b935050602084013567ffffffffffffffff811115610ba557610ba46106e6565b5b610bb186828701610af9565b9250506040610bc286828701610b48565b9150509250925092565b600067ffffffffffffffff821115610be757610be6610911565b5b610bf082610900565b9050602081019050919050565b6000610c10610c0b84610bcc565b610971565b905082815260208101848484011115610c2c57610c2b6109bd565b5b610c378482856109f3565b509392505050565b600082601f830112610c5457610c536108fb565b5b8135610c64848260208601610bfd565b91505092915050565b600080600060608486031215610c8657610c856106e1565b5b6000610c94868287016108e6565b935050602084013567ffffffffffffffff811115610cb557610cb46106e6565b5b610cc186828701610c3f565b925050604084013567ffffffffffffffff811115610ce257610ce16106e6565b5b610cee86828701610af9565b9150509250925092565b7f4e487b7100000000000000000000000000000000000000000000000000000000600052601160045260246000fd5b6000610d32826106eb565b9150610d3d836106eb565b9250817fffffffffffffffffffffffffffffffffffffffffffffffffffffffffffffffff0483118215151615610d7657610d75610cf8565b5b828202905092915050565b6000610d8c826106eb565b9150610d97836106eb565b9250827fffffffffffffffffffffffffffffffffffffffffffffffffffffffffffffffff03821115610dcc57610dcb610cf8565b5b828201905092915050565b610de0816108bd565b82525050565b600081519050919050565b600082825260208201905092915050565b6000819050602082019050919050565b600081519050919050565b600082825260208201905092915050565b60005b83811015610e4c578082015181840152602081019050610e31565b83811115610e5b576000848401525b50505050565b6000610e6c82610e12565b610e768185610e1d565b9350610e86818560208601610e2e565b610e8f81610900565b840191505092915050565b6000610ea68383610e61565b905092915050565b6000602082019050919050565b6000610ec682610de6565b610ed08185610df1565b935083602082028501610ee285610e02565b8060005b85811015610f1e5784840389528151610eff8582610e9a565b9450610f0a83610eae565b925060208a01995050600181019050610ee6565b50829750879550505050505092915050565b610f3981610b27565b82525050565b6000606082019050610f546000830186610dd7565b8181036020830152610f668185610ebb565b9050610f756040830184610f30565b949350505050565b600082825260208201905092915050565b7f476f7665726e6f723a2070726f706f73616c206e6f742073756363657373667560008201527f6c00000000000000000000000000000000000000000000000000000000000000602082015250565b6000610fea602183610f7d565b9150610ff582610f8e565b604082019050919050565b6000602082019050818103600083015261101981610fdd565b905091905056fea26469706673582212200344de317f2b2091f8b9e5f8a6f4dfbc0ee1cdcd6a415958ae2414a10dbb1df264736f6c634300080d0033",
					"opcodes": "PUSH1 0x80 PUSH1 0x40 MSTORE CALLVALUE DUP1 ISZERO PUSH2 0x10 JUMPI PUSH1 0x0 DUP1 REVERT JUMPDEST POP PUSH2 0x1056 DUP1 PUSH2 0x20 PUSH1 0x0 CODECOPY PUSH1 0x0 RETURN INVALID PUSH1 0x80 PUSH1 0x40 MSTORE PUSH1 0x4 CALLDATASIZE LT PUSH2 0x86 JUMPI PUSH1 0x0 CALLDATALOAD PUSH1 0xE0 SHR DUP1 PUSH4 0x8C4461B3 GT PUSH2 0x59 JUMPI DUP1 PUSH4 0x8C4461B3 EQ PUSH2 0x17F JUMPI DUP1 PUSH4 0xA627E447 EQ PUSH2 0x1BC JUMPI DUP1 PUSH4 0xC01F9E37 EQ PUSH2 0x1EC JUMPI DUP1 PUSH4 0xEB9094A2 EQ PUSH2 0x229 JUMPI DUP1 PUSH4 0xF68DEAF9 EQ PUSH2 0x252 JUMPI PUSH2 0x86 JUMP JUMPDEST DUP1 PUSH4 0x2D63F693 EQ PUSH2 0x8B JUMPI DUP1 PUSH4 0x2E1B2CC9 EQ PUSH2 0xC8 JUMPI DUP1 PUSH4 0x39690B24 EQ PUSH2 0x105 JUMPI DUP1 PUSH4 0x3E4F49E6 EQ PUSH2 0x142 JUMPI JUMPDEST PUSH1 0x0 DUP1 REVERT JUMPDEST CALLVALUE DUP1 ISZERO PUSH2 0x97 JUMPI PUSH1 0x0 DUP1 REVERT JUMPDEST POP PUSH2 0xB2 PUSH1 0x4 DUP1 CALLDATASIZE SUB DUP2 ADD SWAP1 PUSH2 0xAD SWAP2 SWAP1 PUSH2 0x721 JUMP JUMPDEST PUSH2 0x28F JUMP JUMPDEST PUSH1 0x40 MLOAD PUSH2 0xBF SWAP2 SWAP1 PUSH2 0x75D JUMP JUMPDEST PUSH1 0x40 MLOAD DUP1 SWAP2 SUB SWAP1 RETURN JUMPDEST CALLVALUE DUP1 ISZERO PUSH2 0xD4 JUMPI PUSH1 0x0 DUP1 REVERT JUMPDEST POP PUSH2 0xEF PUSH1 0x4 DUP1 CALLDATASIZE SUB DUP2 ADD SWAP1 PUSH2 0xEA SWAP2 SWAP1 PUSH2 0x778 JUMP JUMPDEST PUSH2 0x2DE JUMP JUMPDEST PUSH1 0x40 MLOAD PUSH2 0xFC SWAP2 SWAP1 PUSH2 0x75D JUMP JUMPDEST PUSH1 0x40 MLOAD DUP1 SWAP2 SUB SWAP1 RETURN JUMPDEST CALLVALUE DUP1 ISZERO PUSH2 0x111 JUMPI PUSH1 0x0 DUP1 REVERT JUMPDEST POP PUSH2 0x12C PUSH1 0x4 DUP1 CALLDATASIZE SUB DUP2 ADD SWAP1 PUSH2 0x127 SWAP2 SWAP1 PUSH2 0x7CB JUMP JUMPDEST PUSH2 0x3B1 JUMP JUMPDEST PUSH1 0x40 MLOAD PUSH2 0x139 SWAP2 SWAP1 PUSH2 0x75D JUMP JUMPDEST PUSH1 0x40 MLOAD DUP1 SWAP2 SUB SWAP1 RETURN JUMPDEST CALLVALUE DUP1 ISZERO PUSH2 0x14E JUMPI PUSH1 0x0 DUP1 REVERT JUMPDEST POP PUSH2 0x169 PUSH1 0x4 DUP1 CALLDATASIZE SUB DUP2 ADD SWAP1 PUSH2 0x164 SWAP2 SWAP1 PUSH2 0x721 JUMP JUMPDEST PUSH2 0x401 JUMP JUMPDEST PUSH1 0x40 MLOAD PUSH2 0x176 SWAP2 SWAP1 PUSH2 0x882 JUMP JUMPDEST PUSH1 0x40 MLOAD DUP1 SWAP2 SUB SWAP1 RETURN JUMPDEST CALLVALUE DUP1 ISZERO PUSH2 0x18B JUMPI PUSH1 0x0 DUP1 REVERT JUMPDEST POP PUSH2 0x1A6 PUSH1 0x4 DUP1 CALLDATASIZE SUB DUP2 ADD SWAP1 PUSH2 0x1A1 SWAP2 SWAP1 PUSH2 0xB5D JUMP JUMPDEST PUSH2 0x4A6 JUMP JUMPDEST PUSH1 0x40 MLOAD PUSH2 0x1B3 SWAP2 SWAP1 PUSH2 0x75D JUMP JUMPDEST PUSH1 0x40 MLOAD DUP1 SWAP2 SUB SWAP1 RETURN JUMPDEST PUSH2 0x1D6 PUSH1 0x4 DUP1 CALLDATASIZE SUB DUP2 ADD SWAP1 PUSH2 0x1D1 SWAP2 SWAP1 PUSH2 0xC6D JUMP JUMPDEST PUSH2 0x4DF JUMP JUMPDEST PUSH1 0x40 MLOAD PUSH2 0x1E3 SWAP2 SWAP1 PUSH2 0x75D JUMP JUMPDEST PUSH1 0x40 MLOAD DUP1 SWAP2 SUB SWAP1 RETURN JUMPDEST CALLVALUE DUP1 ISZERO PUSH2 0x1F8 JUMPI PUSH1 0x0 DUP1 REVERT JUMPDEST POP PUSH2 0x213 PUSH1 0x4 DUP1 CALLDATASIZE SUB DUP2 ADD SWAP1 PUSH2 0x20E SWAP2 SWAP1 PUSH2 0x721 JUMP JUMPDEST PUSH2 0x5A1 JUMP JUMPDEST PUSH1 0x40 MLOAD PUSH2 0x220 SWAP2 SWAP1 PUSH2 0x75D JUMP JUMPDEST PUSH1 0x40 MLOAD DUP1 SWAP2 SUB SWAP1 RETURN JUMPDEST CALLVALUE DUP1 ISZERO PUSH2 0x235 JUMPI PUSH1 0x0 DUP1 REVERT JUMPDEST POP PUSH2 0x250 PUSH1 0x4 DUP1 CALLDATASIZE SUB DUP2 ADD SWAP1 PUSH2 0x24B SWAP2 SWAP1 PUSH2 0x7CB JUMP JUMPDEST PUSH2 0x5F0 JUMP JUMPDEST STOP JUMPDEST CALLVALUE DUP1 ISZERO PUSH2 0x25E JUMPI PUSH1 0x0 DUP1 REVERT JUMPDEST POP PUSH2 0x279 PUSH1 0x4 DUP1 CALLDATASIZE SUB DUP2 ADD SWAP1 PUSH2 0x274 SWAP2 SWAP1 PUSH2 0x721 JUMP JUMPDEST PUSH2 0x61B JUMP JUMPDEST PUSH1 0x40 MLOAD PUSH2 0x286 SWAP2 SWAP1 PUSH2 0x75D JUMP JUMPDEST PUSH1 0x40 MLOAD DUP1 SWAP2 SUB SWAP1 RETURN JUMPDEST PUSH1 0x0 PUSH2 0x2D7 PUSH1 0x0 DUP1 DUP5 DUP2 MSTORE PUSH1 0x20 ADD SWAP1 DUP2 MSTORE PUSH1 0x20 ADD PUSH1 0x0 KECCAK256 PUSH1 0x0 ADD PUSH1 0x40 MLOAD DUP1 PUSH1 0x60 ADD PUSH1 0x40 MSTORE SWAP1 DUP2 PUSH1 0x0 DUP3 ADD SLOAD DUP2 MSTORE PUSH1 0x20 ADD PUSH1 0x1 DUP3 ADD SLOAD DUP2 MSTORE PUSH1 0x20 ADD PUSH1 0x2 DUP3 ADD SLOAD DUP2 MSTORE POP POP PUSH2 0x66A JUMP JUMPDEST SWAP1 POP SWAP2 SWAP1 POP JUMP JUMPDEST PUSH1 0x0 DUP1 PUSH1 0x1 SWAP1 POP PUSH1 0x0 DUP1 PUSH1 0x0 DUP4 DUP2 MSTORE PUSH1 0x20 ADD SWAP1 DUP2 MSTORE PUSH1 0x20 ADD PUSH1 0x0 KECCAK256 SWAP1 POP PUSH1 0x0 PUSH1 0x3C DUP1 PUSH1 0x18 DUP10 PUSH2 0x30D SWAP2 SWAP1 PUSH2 0xD27 JUMP JUMPDEST PUSH2 0x317 SWAP2 SWAP1 PUSH2 0xD27 JUMP JUMPDEST PUSH2 0x321 SWAP2 SWAP1 PUSH2 0xD27 JUMP JUMPDEST TIMESTAMP PUSH2 0x32C SWAP2 SWAP1 PUSH2 0xD81 JUMP JUMPDEST SWAP1 POP PUSH1 0x0 PUSH1 0x3C DUP1 PUSH1 0x18 DUP10 PUSH2 0x340 SWAP2 SWAP1 PUSH2 0xD27 JUMP JUMPDEST PUSH2 0x34A SWAP2 SWAP1 PUSH2 0xD27 JUMP JUMPDEST PUSH2 0x354 SWAP2 SWAP1 PUSH2 0xD27 JUMP JUMPDEST DUP3 PUSH2 0x35F SWAP2 SWAP1 PUSH2 0xD81 JUMP JUMPDEST SWAP1 POP PUSH2 0x377 DUP3 DUP5 PUSH1 0x0 ADD PUSH2 0x678 SWAP1 SWAP2 SWAP1 PUSH4 0xFFFFFFFF AND JUMP JUMPDEST PUSH2 0x38D DUP2 DUP5 PUSH1 0x3 ADD PUSH2 0x678 SWAP1 SWAP2 SWAP1 PUSH4 0xFFFFFFFF AND JUMP JUMPDEST PUSH2 0x3A3 DUP7 DUP5 PUSH1 0x6 ADD PUSH2 0x692 SWAP1 SWAP2 SWAP1 PUSH4 0xFFFFFFFF AND JUMP JUMPDEST DUP4 SWAP5 POP POP POP POP POP SWAP4 SWAP3 POP POP POP JUMP JUMPDEST PUSH1 0x0 PUSH2 0x3F9 PUSH1 0x0 DUP1 DUP6 DUP2 MSTORE PUSH1 0x20 ADD SWAP1 DUP2 MSTORE PUSH1 0x20 ADD PUSH1 0x0 KECCAK256 PUSH1 0x9 ADD PUSH1 0x40 MLOAD DUP1 PUSH1 0x60 ADD PUSH1 0x40 MSTORE SWAP1 DUP2 PUSH1 0x0 DUP3 ADD SLOAD DUP2 MSTORE PUSH1 0x20 ADD PUSH1 0x1 DUP3 ADD SLOAD DUP2 MSTORE PUSH1 0x20 ADD PUSH1 0x2 DUP3 ADD SLOAD DUP2 MSTORE POP POP PUSH2 0x69F JUMP JUMPDEST SWAP1 POP SWAP3 SWAP2 POP POP JUMP JUMPDEST PUSH1 0x0 DUP1 PUSH1 0x0 DUP1 DUP5 DUP2 MSTORE PUSH1 0x20 ADD SWAP1 DUP2 MSTORE PUSH1 0x20 ADD PUSH1 0x0 KECCAK256 SWAP1 POP DUP1 PUSH1 0xC ADD PUSH1 0x0 SWAP1 SLOAD SWAP1 PUSH2 0x100 EXP SWAP1 DIV PUSH1 0xFF AND ISZERO PUSH2 0x439 JUMPI PUSH1 0x5 SWAP2 POP POP PUSH2 0x4A1 JUMP JUMPDEST DUP1 PUSH1 0xC ADD PUSH1 0x1 SWAP1 SLOAD SWAP1 PUSH2 0x100 EXP SWAP1 DIV PUSH1 0xFF AND ISZERO PUSH2 0x45A JUMPI PUSH1 0x2 SWAP2 POP POP PUSH2 0x4A1 JUMP JUMPDEST PUSH1 0x0 PUSH2 0x465 DUP5 PUSH2 0x28F JUMP JUMPDEST SWAP1 POP TIMESTAMP DUP2 LT PUSH2 0x479 JUMPI PUSH1 0x0 SWAP3 POP POP POP PUSH2 0x4A1 JUMP JUMPDEST PUSH1 0x0 PUSH2 0x484 DUP6 PUSH2 0x5A1 JUMP JUMPDEST SWAP1 POP TIMESTAMP DUP2 LT PUSH2 0x499 JUMPI PUSH1 0x1 SWAP4 POP POP POP POP PUSH2 0x4A1 JUMP JUMPDEST PUSH1 0x3 SWAP4 POP POP POP POP JUMPDEST SWAP2 SWAP1 POP JUMP JUMPDEST PUSH1 0x0 DUP4 DUP4 DUP4 PUSH1 0x40 MLOAD PUSH1 0x20 ADD PUSH2 0x4BD SWAP4 SWAP3 SWAP2 SWAP1 PUSH2 0xF3F JUMP JUMPDEST PUSH1 0x40 MLOAD PUSH1 0x20 DUP2 DUP4 SUB SUB DUP2 MSTORE SWAP1 PUSH1 0x40 MSTORE DUP1 MLOAD SWAP1 PUSH1 0x20 ADD KECCAK256 PUSH1 0x0 SHR SWAP1 POP SWAP4 SWAP3 POP POP POP JUMP JUMPDEST PUSH1 0x0 DUP1 PUSH2 0x4F4 DUP6 DUP5 DUP7 DUP1 MLOAD SWAP1 PUSH1 0x20 ADD KECCAK256 PUSH2 0x4A6 JUMP JUMPDEST SWAP1 POP PUSH1 0x0 PUSH2 0x501 DUP3 PUSH2 0x401 JUMP JUMPDEST SWAP1 POP PUSH1 0x3 PUSH1 0x5 DUP2 GT ISZERO PUSH2 0x517 JUMPI PUSH2 0x516 PUSH2 0x80B JUMP JUMPDEST JUMPDEST DUP2 PUSH1 0x5 DUP2 GT ISZERO PUSH2 0x52A JUMPI PUSH2 0x529 PUSH2 0x80B JUMP JUMPDEST JUMPDEST EQ PUSH2 0x56A JUMPI PUSH1 0x40 MLOAD PUSH32 0x8C379A000000000000000000000000000000000000000000000000000000000 DUP2 MSTORE PUSH1 0x4 ADD PUSH2 0x561 SWAP1 PUSH2 0x1000 JUMP JUMPDEST PUSH1 0x40 MLOAD DUP1 SWAP2 SUB SWAP1 REVERT JUMPDEST PUSH1 0x1 PUSH1 0x0 DUP1 DUP5 DUP2 MSTORE PUSH1 0x20 ADD SWAP1 DUP2 MSTORE PUSH1 0x20 ADD PUSH1 0x0 KECCAK256 PUSH1 0xC ADD PUSH1 0x0 PUSH2 0x100 EXP DUP2 SLOAD DUP2 PUSH1 0xFF MUL NOT AND SWAP1 DUP4 ISZERO ISZERO MUL OR SWAP1 SSTORE POP POP POP SWAP4 SWAP3 POP POP POP JUMP JUMPDEST PUSH1 0x0 PUSH2 0x5E9 PUSH1 0x0 DUP1 DUP5 DUP2 MSTORE PUSH1 0x20 ADD SWAP1 DUP2 MSTORE PUSH1 0x20 ADD PUSH1 0x0 KECCAK256 PUSH1 0x3 ADD PUSH1 0x40 MLOAD DUP1 PUSH1 0x60 ADD PUSH1 0x40 MSTORE SWAP1 DUP2 PUSH1 0x0 DUP3 ADD SLOAD DUP2 MSTORE PUSH1 0x20 ADD PUSH1 0x1 DUP3 ADD SLOAD DUP2 MSTORE PUSH1 0x20 ADD PUSH1 0x2 DUP3 ADD SLOAD DUP2 MSTORE POP POP PUSH2 0x66A JUMP JUMPDEST SWAP1 POP SWAP2 SWAP1 POP JUMP JUMPDEST PUSH2 0x617 DUP2 PUSH1 0x0 DUP1 DUP6 DUP2 MSTORE PUSH1 0x20 ADD SWAP1 DUP2 MSTORE PUSH1 0x20 ADD PUSH1 0x0 KECCAK256 PUSH1 0x9 ADD PUSH2 0x6AD SWAP1 SWAP2 SWAP1 PUSH4 0xFFFFFFFF AND JUMP JUMPDEST POP POP JUMP JUMPDEST PUSH1 0x0 PUSH2 0x663 PUSH1 0x0 DUP1 DUP5 DUP2 MSTORE PUSH1 0x20 ADD SWAP1 DUP2 MSTORE PUSH1 0x20 ADD PUSH1 0x0 KECCAK256 PUSH1 0x6 ADD PUSH1 0x40 MLOAD DUP1 PUSH1 0x60 ADD PUSH1 0x40 MSTORE SWAP1 DUP2 PUSH1 0x0 DUP3 ADD SLOAD DUP2 MSTORE PUSH1 0x20 ADD PUSH1 0x1 DUP3 ADD SLOAD DUP2 MSTORE PUSH1 0x20 ADD PUSH1 0x2 DUP3 ADD SLOAD DUP2 MSTORE POP POP PUSH2 0x6C9 JUMP JUMPDEST SWAP1 POP SWAP2 SWAP1 POP JUMP JUMPDEST PUSH1 0x0 DUP2 PUSH1 0x0 ADD MLOAD SWAP1 POP SWAP2 SWAP1 POP JUMP JUMPDEST PUSH2 0x3E8 DUP2 PUSH2 0x686 SWAP2 SWAP1 PUSH2 0xD27 JUMP JUMPDEST DUP3 PUSH1 0x0 ADD DUP2 SWAP1 SSTORE POP POP POP JUMP JUMPDEST DUP1 DUP3 PUSH1 0x1 ADD DUP2 SWAP1 SSTORE POP POP POP JUMP JUMPDEST PUSH1 0x0 DUP2 PUSH1 0x20 ADD MLOAD SWAP1 POP SWAP2 SWAP1 POP JUMP JUMPDEST DUP1 DUP3 PUSH1 0x1 ADD SLOAD PUSH2 0x6BD SWAP2 SWAP1 PUSH2 0xD81 JUMP JUMPDEST DUP3 PUSH1 0x1 ADD DUP2 SWAP1 SSTORE POP POP POP JUMP JUMPDEST PUSH1 0x0 DUP2 PUSH1 0x20 ADD MLOAD SWAP1 POP SWAP2 SWAP1 POP JUMP JUMPDEST PUSH1 0x0 PUSH1 0x40 MLOAD SWAP1 POP SWAP1 JUMP JUMPDEST PUSH1 0x0 DUP1 REVERT JUMPDEST PUSH1 0x0 DUP1 REVERT JUMPDEST PUSH1 0x0 DUP2 SWAP1 POP SWAP2 SWAP1 POP JUMP JUMPDEST PUSH2 0x6FE DUP2 PUSH2 0x6EB JUMP JUMPDEST DUP2 EQ PUSH2 0x709 JUMPI PUSH1 0x0 DUP1 REVERT JUMPDEST POP JUMP JUMPDEST PUSH1 0x0 DUP2 CALLDATALOAD SWAP1 POP PUSH2 0x71B DUP2 PUSH2 0x6F5 JUMP JUMPDEST SWAP3 SWAP2 POP POP JUMP JUMPDEST PUSH1 0x0 PUSH1 0x20 DUP3 DUP5 SUB SLT ISZERO PUSH2 0x737 JUMPI PUSH2 0x736 PUSH2 0x6E1 JUMP JUMPDEST JUMPDEST PUSH1 0x0 PUSH2 0x745 DUP5 DUP3 DUP6 ADD PUSH2 0x70C JUMP JUMPDEST SWAP2 POP POP SWAP3 SWAP2 POP POP JUMP JUMPDEST PUSH2 0x757 DUP2 PUSH2 0x6EB JUMP JUMPDEST DUP3 MSTORE POP POP JUMP JUMPDEST PUSH1 0x0 PUSH1 0x20 DUP3 ADD SWAP1 POP PUSH2 0x772 PUSH1 0x0 DUP4 ADD DUP5 PUSH2 0x74E JUMP JUMPDEST SWAP3 SWAP2 POP POP JUMP JUMPDEST PUSH1 0x0 DUP1 PUSH1 0x0 PUSH1 0x60 DUP5 DUP7 SUB SLT ISZERO PUSH2 0x791 JUMPI PUSH2 0x790 PUSH2 0x6E1 JUMP JUMPDEST JUMPDEST PUSH1 0x0 PUSH2 0x79F DUP7 DUP3 DUP8 ADD PUSH2 0x70C JUMP JUMPDEST SWAP4 POP POP PUSH1 0x20 PUSH2 0x7B0 DUP7 DUP3 DUP8 ADD PUSH2 0x70C JUMP JUMPDEST SWAP3 POP POP PUSH1 0x40 PUSH2 0x7C1 DUP7 DUP3 DUP8 ADD PUSH2 0x70C JUMP JUMPDEST SWAP2 POP POP SWAP3 POP SWAP3 POP SWAP3 JUMP JUMPDEST PUSH1 0x0 DUP1 PUSH1 0x40 DUP4 DUP6 SUB SLT ISZERO PUSH2 0x7E2 JUMPI PUSH2 0x7E1 PUSH2 0x6E1 JUMP JUMPDEST JUMPDEST PUSH1 0x0 PUSH2 0x7F0 DUP6 DUP3 DUP7 ADD PUSH2 0x70C JUMP JUMPDEST SWAP3 POP POP PUSH1 0x20 PUSH2 0x801 DUP6 DUP3 DUP7 ADD PUSH2 0x70C JUMP JUMPDEST SWAP2 POP POP SWAP3 POP SWAP3 SWAP1 POP JUMP JUMPDEST PUSH32 0x4E487B7100000000000000000000000000000000000000000000000000000000 PUSH1 0x0 MSTORE PUSH1 0x21 PUSH1 0x4 MSTORE PUSH1 0x24 PUSH1 0x0 REVERT JUMPDEST PUSH1 0x6 DUP2 LT PUSH2 0x84B JUMPI PUSH2 0x84A PUSH2 0x80B JUMP JUMPDEST JUMPDEST POP JUMP JUMPDEST PUSH1 0x0 DUP2 SWAP1 POP PUSH2 0x85C DUP3 PUSH2 0x83A JUMP JUMPDEST SWAP2 SWAP1 POP JUMP JUMPDEST PUSH1 0x0 PUSH2 0x86C DUP3 PUSH2 0x84E JUMP JUMPDEST SWAP1 POP SWAP2 SWAP1 POP JUMP JUMPDEST PUSH2 0x87C DUP2 PUSH2 0x861 JUMP JUMPDEST DUP3 MSTORE POP POP JUMP JUMPDEST PUSH1 0x0 PUSH1 0x20 DUP3 ADD SWAP1 POP PUSH2 0x897 PUSH1 0x0 DUP4 ADD DUP5 PUSH2 0x873 JUMP JUMPDEST SWAP3 SWAP2 POP POP JUMP JUMPDEST PUSH1 0x0 PUSH20 0xFFFFFFFFFFFFFFFFFFFFFFFFFFFFFFFFFFFFFFFF DUP3 AND SWAP1 POP SWAP2 SWAP1 POP JUMP JUMPDEST PUSH1 0x0 PUSH2 0x8C8 DUP3 PUSH2 0x89D JUMP JUMPDEST SWAP1 POP SWAP2 SWAP1 POP JUMP JUMPDEST PUSH2 0x8D8 DUP2 PUSH2 0x8BD JUMP JUMPDEST DUP2 EQ PUSH2 0x8E3 JUMPI PUSH1 0x0 DUP1 REVERT JUMPDEST POP JUMP JUMPDEST PUSH1 0x0 DUP2 CALLDATALOAD SWAP1 POP PUSH2 0x8F5 DUP2 PUSH2 0x8CF JUMP JUMPDEST SWAP3 SWAP2 POP POP JUMP JUMPDEST PUSH1 0x0 DUP1 REVERT JUMPDEST PUSH1 0x0 PUSH1 0x1F NOT PUSH1 0x1F DUP4 ADD AND SWAP1 POP SWAP2 SWAP1 POP JUMP JUMPDEST PUSH32 0x4E487B7100000000000000000000000000000000000000000000000000000000 PUSH1 0x0 MSTORE PUSH1 0x41 PUSH1 0x4 MSTORE PUSH1 0x24 PUSH1 0x0 REVERT JUMPDEST PUSH2 0x949 DUP3 PUSH2 0x900 JUMP JUMPDEST DUP2 ADD DUP2 DUP2 LT PUSH8 0xFFFFFFFFFFFFFFFF DUP3 GT OR ISZERO PUSH2 0x968 JUMPI PUSH2 0x967 PUSH2 0x911 JUMP JUMPDEST JUMPDEST DUP1 PUSH1 0x40 MSTORE POP POP POP JUMP JUMPDEST PUSH1 0x0 PUSH2 0x97B PUSH2 0x6D7 JUMP JUMPDEST SWAP1 POP PUSH2 0x987 DUP3 DUP3 PUSH2 0x940 JUMP JUMPDEST SWAP2 SWAP1 POP JUMP JUMPDEST PUSH1 0x0 PUSH8 0xFFFFFFFFFFFFFFFF DUP3 GT ISZERO PUSH2 0x9A7 JUMPI PUSH2 0x9A6 PUSH2 0x911 JUMP JUMPDEST JUMPDEST PUSH1 0x20 DUP3 MUL SWAP1 POP PUSH1 0x20 DUP2 ADD SWAP1 POP SWAP2 SWAP1 POP JUMP JUMPDEST PUSH1 0x0 DUP1 REVERT JUMPDEST PUSH1 0x0 DUP1 REVERT JUMPDEST PUSH1 0x0 PUSH8 0xFFFFFFFFFFFFFFFF DUP3 GT ISZERO PUSH2 0x9DD JUMPI PUSH2 0x9DC PUSH2 0x911 JUMP JUMPDEST JUMPDEST PUSH2 0x9E6 DUP3 PUSH2 0x900 JUMP JUMPDEST SWAP1 POP PUSH1 0x20 DUP2 ADD SWAP1 POP SWAP2 SWAP1 POP JUMP JUMPDEST DUP3 DUP2 DUP4 CALLDATACOPY PUSH1 0x0 DUP4 DUP4 ADD MSTORE POP POP POP JUMP JUMPDEST PUSH1 0x0 PUSH2 0xA15 PUSH2 0xA10 DUP5 PUSH2 0x9C2 JUMP JUMPDEST PUSH2 0x971 JUMP JUMPDEST SWAP1 POP DUP3 DUP2 MSTORE PUSH1 0x20 DUP2 ADD DUP5 DUP5 DUP5 ADD GT ISZERO PUSH2 0xA31 JUMPI PUSH2 0xA30 PUSH2 0x9BD JUMP JUMPDEST JUMPDEST PUSH2 0xA3C DUP5 DUP3 DUP6 PUSH2 0x9F3 JUMP JUMPDEST POP SWAP4 SWAP3 POP POP POP JUMP JUMPDEST PUSH1 0x0 DUP3 PUSH1 0x1F DUP4 ADD SLT PUSH2 0xA59 JUMPI PUSH2 0xA58 PUSH2 0x8FB JUMP JUMPDEST JUMPDEST DUP2 CALLDATALOAD PUSH2 0xA69 DUP5 DUP3 PUSH1 0x20 DUP7 ADD PUSH2 0xA02 JUMP JUMPDEST SWAP2 POP POP SWAP3 SWAP2 POP POP JUMP JUMPDEST PUSH1 0x0 PUSH2 0xA85 PUSH2 0xA80 DUP5 PUSH2 0x98C JUMP JUMPDEST PUSH2 0x971 JUMP JUMPDEST SWAP1 POP DUP1 DUP4 DUP3 MSTORE PUSH1 0x20 DUP3 ADD SWAP1 POP PUSH1 0x20 DUP5 MUL DUP4 ADD DUP6 DUP2 GT ISZERO PUSH2 0xAA8 JUMPI PUSH2 0xAA7 PUSH2 0x9B8 JUMP JUMPDEST JUMPDEST DUP4 JUMPDEST DUP2 DUP2 LT ISZERO PUSH2 0xAEF JUMPI DUP1 CALLDATALOAD PUSH8 0xFFFFFFFFFFFFFFFF DUP2 GT ISZERO PUSH2 0xACD JUMPI PUSH2 0xACC PUSH2 0x8FB JUMP JUMPDEST JUMPDEST DUP1 DUP7 ADD PUSH2 0xADA DUP10 DUP3 PUSH2 0xA44 JUMP JUMPDEST DUP6 MSTORE PUSH1 0x20 DUP6 ADD SWAP5 POP POP POP PUSH1 0x20 DUP2 ADD SWAP1 POP PUSH2 0xAAA JUMP JUMPDEST POP POP POP SWAP4 SWAP3 POP POP POP JUMP JUMPDEST PUSH1 0x0 DUP3 PUSH1 0x1F DUP4 ADD SLT PUSH2 0xB0E JUMPI PUSH2 0xB0D PUSH2 0x8FB JUMP JUMPDEST JUMPDEST DUP2 CALLDATALOAD PUSH2 0xB1E DUP5 DUP3 PUSH1 0x20 DUP7 ADD PUSH2 0xA72 JUMP JUMPDEST SWAP2 POP POP SWAP3 SWAP2 POP POP JUMP JUMPDEST PUSH1 0x0 DUP2 SWAP1 POP SWAP2 SWAP1 POP JUMP JUMPDEST PUSH2 0xB3A DUP2 PUSH2 0xB27 JUMP JUMPDEST DUP2 EQ PUSH2 0xB45 JUMPI PUSH1 0x0 DUP1 REVERT JUMPDEST POP JUMP JUMPDEST PUSH1 0x0 DUP2 CALLDATALOAD SWAP1 POP PUSH2 0xB57 DUP2 PUSH2 0xB31 JUMP JUMPDEST SWAP3 SWAP2 POP POP JUMP JUMPDEST PUSH1 0x0 DUP1 PUSH1 0x0 PUSH1 0x60 DUP5 DUP7 SUB SLT ISZERO PUSH2 0xB76 JUMPI PUSH2 0xB75 PUSH2 0x6E1 JUMP JUMPDEST JUMPDEST PUSH1 0x0 PUSH2 0xB84 DUP7 DUP3 DUP8 ADD PUSH2 0x8E6 JUMP JUMPDEST SWAP4 POP POP PUSH1 0x20 DUP5 ADD CALLDATALOAD PUSH8 0xFFFFFFFFFFFFFFFF DUP2 GT ISZERO PUSH2 0xBA5 JUMPI PUSH2 0xBA4 PUSH2 0x6E6 JUMP JUMPDEST JUMPDEST PUSH2 0xBB1 DUP7 DUP3 DUP8 ADD PUSH2 0xAF9 JUMP JUMPDEST SWAP3 POP POP PUSH1 0x40 PUSH2 0xBC2 DUP7 DUP3 DUP8 ADD PUSH2 0xB48 JUMP JUMPDEST SWAP2 POP POP SWAP3 POP SWAP3 POP SWAP3 JUMP JUMPDEST PUSH1 0x0 PUSH8 0xFFFFFFFFFFFFFFFF DUP3 GT ISZERO PUSH2 0xBE7 JUMPI PUSH2 0xBE6 PUSH2 0x911 JUMP JUMPDEST JUMPDEST PUSH2 0xBF0 DUP3 PUSH2 0x900 JUMP JUMPDEST SWAP1 POP PUSH1 0x20 DUP2 ADD SWAP1 POP SWAP2 SWAP1 POP JUMP JUMPDEST PUSH1 0x0 PUSH2 0xC10 PUSH2 0xC0B DUP5 PUSH2 0xBCC JUMP JUMPDEST PUSH2 0x971 JUMP JUMPDEST SWAP1 POP DUP3 DUP2 MSTORE PUSH1 0x20 DUP2 ADD DUP5 DUP5 DUP5 ADD GT ISZERO PUSH2 0xC2C JUMPI PUSH2 0xC2B PUSH2 0x9BD JUMP JUMPDEST JUMPDEST PUSH2 0xC37 DUP5 DUP3 DUP6 PUSH2 0x9F3 JUMP JUMPDEST POP SWAP4 SWAP3 POP POP POP JUMP JUMPDEST PUSH1 0x0 DUP3 PUSH1 0x1F DUP4 ADD SLT PUSH2 0xC54 JUMPI PUSH2 0xC53 PUSH2 0x8FB JUMP JUMPDEST JUMPDEST DUP2 CALLDATALOAD PUSH2 0xC64 DUP5 DUP3 PUSH1 0x20 DUP7 ADD PUSH2 0xBFD JUMP JUMPDEST SWAP2 POP POP SWAP3 SWAP2 POP POP JUMP JUMPDEST PUSH1 0x0 DUP1 PUSH1 0x0 PUSH1 0x60 DUP5 DUP7 SUB SLT ISZERO PUSH2 0xC86 JUMPI PUSH2 0xC85 PUSH2 0x6E1 JUMP JUMPDEST JUMPDEST PUSH1 0x0 PUSH2 0xC94 DUP7 DUP3 DUP8 ADD PUSH2 0x8E6 JUMP JUMPDEST SWAP4 POP POP PUSH1 0x20 DUP5 ADD CALLDATALOAD PUSH8 0xFFFFFFFFFFFFFFFF DUP2 GT ISZERO PUSH2 0xCB5 JUMPI PUSH2 0xCB4 PUSH2 0x6E6 JUMP JUMPDEST JUMPDEST PUSH2 0xCC1 DUP7 DUP3 DUP8 ADD PUSH2 0xC3F JUMP JUMPDEST SWAP3 POP POP PUSH1 0x40 DUP5 ADD CALLDATALOAD PUSH8 0xFFFFFFFFFFFFFFFF DUP2 GT ISZERO PUSH2 0xCE2 JUMPI PUSH2 0xCE1 PUSH2 0x6E6 JUMP JUMPDEST JUMPDEST PUSH2 0xCEE DUP7 DUP3 DUP8 ADD PUSH2 0xAF9 JUMP JUMPDEST SWAP2 POP POP SWAP3 POP SWAP3 POP SWAP3 JUMP JUMPDEST PUSH32 0x4E487B7100000000000000000000000000000000000000000000000000000000 PUSH1 0x0 MSTORE PUSH1 0x11 PUSH1 0x4 MSTORE PUSH1 0x24 PUSH1 0x0 REVERT JUMPDEST PUSH1 0x0 PUSH2 0xD32 DUP3 PUSH2 0x6EB JUMP JUMPDEST SWAP2 POP PUSH2 0xD3D DUP4 PUSH2 0x6EB JUMP JUMPDEST SWAP3 POP DUP2 PUSH32 0xFFFFFFFFFFFFFFFFFFFFFFFFFFFFFFFFFFFFFFFFFFFFFFFFFFFFFFFFFFFFFFFF DIV DUP4 GT DUP3 ISZERO ISZERO AND ISZERO PUSH2 0xD76 JUMPI PUSH2 0xD75 PUSH2 0xCF8 JUMP JUMPDEST JUMPDEST DUP3 DUP3 MUL SWAP1 POP SWAP3 SWAP2 POP POP JUMP JUMPDEST PUSH1 0x0 PUSH2 0xD8C DUP3 PUSH2 0x6EB JUMP JUMPDEST SWAP2 POP PUSH2 0xD97 DUP4 PUSH2 0x6EB JUMP JUMPDEST SWAP3 POP DUP3 PUSH32 0xFFFFFFFFFFFFFFFFFFFFFFFFFFFFFFFFFFFFFFFFFFFFFFFFFFFFFFFFFFFFFFFF SUB DUP3 GT ISZERO PUSH2 0xDCC JUMPI PUSH2 0xDCB PUSH2 0xCF8 JUMP JUMPDEST JUMPDEST DUP3 DUP3 ADD SWAP1 POP SWAP3 SWAP2 POP POP JUMP JUMPDEST PUSH2 0xDE0 DUP2 PUSH2 0x8BD JUMP JUMPDEST DUP3 MSTORE POP POP JUMP JUMPDEST PUSH1 0x0 DUP2 MLOAD SWAP1 POP SWAP2 SWAP1 POP JUMP JUMPDEST PUSH1 0x0 DUP3 DUP3 MSTORE PUSH1 0x20 DUP3 ADD SWAP1 POP SWAP3 SWAP2 POP POP JUMP JUMPDEST PUSH1 0x0 DUP2 SWAP1 POP PUSH1 0x20 DUP3 ADD SWAP1 POP SWAP2 SWAP1 POP JUMP JUMPDEST PUSH1 0x0 DUP2 MLOAD SWAP1 POP SWAP2 SWAP1 POP JUMP JUMPDEST PUSH1 0x0 DUP3 DUP3 MSTORE PUSH1 0x20 DUP3 ADD SWAP1 POP SWAP3 SWAP2 POP POP JUMP JUMPDEST PUSH1 0x0 JUMPDEST DUP4 DUP2 LT ISZERO PUSH2 0xE4C JUMPI DUP1 DUP3 ADD MLOAD DUP2 DUP5 ADD MSTORE PUSH1 0x20 DUP2 ADD SWAP1 POP PUSH2 0xE31 JUMP JUMPDEST DUP4 DUP2 GT ISZERO PUSH2 0xE5B JUMPI PUSH1 0x0 DUP5 DUP5 ADD MSTORE JUMPDEST POP POP POP POP JUMP JUMPDEST PUSH1 0x0 PUSH2 0xE6C DUP3 PUSH2 0xE12 JUMP JUMPDEST PUSH2 0xE76 DUP2 DUP6 PUSH2 0xE1D JUMP JUMPDEST SWAP4 POP PUSH2 0xE86 DUP2 DUP6 PUSH1 0x20 DUP7 ADD PUSH2 0xE2E JUMP JUMPDEST PUSH2 0xE8F DUP2 PUSH2 0x900 JUMP JUMPDEST DUP5 ADD SWAP2 POP POP SWAP3 SWAP2 POP POP JUMP JUMPDEST PUSH1 0x0 PUSH2 0xEA6 DUP4 DUP4 PUSH2 0xE61 JUMP JUMPDEST SWAP1 POP SWAP3 SWAP2 POP POP JUMP JUMPDEST PUSH1 0x0 PUSH1 0x20 DUP3 ADD SWAP1 POP SWAP2 SWAP1 POP JUMP JUMPDEST PUSH1 0x0 PUSH2 0xEC6 DUP3 PUSH2 0xDE6 JUMP JUMPDEST PUSH2 0xED0 DUP2 DUP6 PUSH2 0xDF1 JUMP JUMPDEST SWAP4 POP DUP4 PUSH1 0x20 DUP3 MUL DUP6 ADD PUSH2 0xEE2 DUP6 PUSH2 0xE02 JUMP JUMPDEST DUP1 PUSH1 0x0 JUMPDEST DUP6 DUP2 LT ISZERO PUSH2 0xF1E JUMPI DUP5 DUP5 SUB DUP10 MSTORE DUP2 MLOAD PUSH2 0xEFF DUP6 DUP3 PUSH2 0xE9A JUMP JUMPDEST SWAP5 POP PUSH2 0xF0A DUP4 PUSH2 0xEAE JUMP JUMPDEST SWAP3 POP PUSH1 0x20 DUP11 ADD SWAP10 POP POP PUSH1 0x1 DUP2 ADD SWAP1 POP PUSH2 0xEE6 JUMP JUMPDEST POP DUP3 SWAP8 POP DUP8 SWAP6 POP POP POP POP POP POP SWAP3 SWAP2 POP POP JUMP JUMPDEST PUSH2 0xF39 DUP2 PUSH2 0xB27 JUMP JUMPDEST DUP3 MSTORE POP POP JUMP JUMPDEST PUSH1 0x0 PUSH1 0x60 DUP3 ADD SWAP1 POP PUSH2 0xF54 PUSH1 0x0 DUP4 ADD DUP7 PUSH2 0xDD7 JUMP JUMPDEST DUP2 DUP2 SUB PUSH1 0x20 DUP4 ADD MSTORE PUSH2 0xF66 DUP2 DUP6 PUSH2 0xEBB JUMP JUMPDEST SWAP1 POP PUSH2 0xF75 PUSH1 0x40 DUP4 ADD DUP5 PUSH2 0xF30 JUMP JUMPDEST SWAP5 SWAP4 POP POP POP POP JUMP JUMPDEST PUSH1 0x0 DUP3 DUP3 MSTORE PUSH1 0x20 DUP3 ADD SWAP1 POP SWAP3 SWAP2 POP POP JUMP JUMPDEST PUSH32 0x476F7665726E6F723A2070726F706F73616C206E6F7420737563636573736675 PUSH1 0x0 DUP3 ADD MSTORE PUSH32 0x6C00000000000000000000000000000000000000000000000000000000000000 PUSH1 0x20 DUP3 ADD MSTORE POP JUMP JUMPDEST PUSH1 0x0 PUSH2 0xFEA PUSH1 0x21 DUP4 PUSH2 0xF7D JUMP JUMPDEST SWAP2 POP PUSH2 0xFF5 DUP3 PUSH2 0xF8E JUMP JUMPDEST PUSH1 0x40 DUP3 ADD SWAP1 POP SWAP2 SWAP1 POP JUMP JUMPDEST PUSH1 0x0 PUSH1 0x20 DUP3 ADD SWAP1 POP DUP2 DUP2 SUB PUSH1 0x0 DUP4 ADD MSTORE PUSH2 0x1019 DUP2 PUSH2 0xFDD JUMP JUMPDEST SWAP1 POP SWAP2 SWAP1 POP JUMP INVALID LOG2 PUSH5 0x6970667358 0x22 SLT KECCAK256 SUB DIFFICULTY 0xDE BALANCE PUSH32 0x2B2091F8B9E5F8A6F4DFBC0EE1CDCD6A415958AE2414A10DBB1DF264736F6C63 NUMBER STOP ADDMOD 0xD STOP CALLER "
				},
				"gasEstimates": {
					"creation": {
						"codeDepositCost": "836400",
						"executionCost": "870",
						"totalCost": "837270"
					},
					"external": {
						"execute(address,string,bytes[])": "infinite",
						"getCurrentAmount(uint256,uint256)": "infinite",
						"hashProposal(address,bytes[],bytes32)": "infinite",
						"proposal(uint256,uint256,uint256)": "infinite",
						"proposalDeadline(uint256)": "infinite",
						"proposalDonateMinimum(uint256)": "infinite",
						"proposalSnapshot(uint256)": "infinite",
						"setCurrentAmount(uint256,uint256)": "infinite",
						"state(uint256)": "infinite"
					}
				},
				"methodIdentifiers": {
					"execute(address,string,bytes[])": "a627e447",
					"getCurrentAmount(uint256,uint256)": "39690b24",
					"hashProposal(address,bytes[],bytes32)": "8c4461b3",
					"proposal(uint256,uint256,uint256)": "2e1b2cc9",
					"proposalDeadline(uint256)": "c01f9e37",
					"proposalDonateMinimum(uint256)": "f68deaf9",
					"proposalSnapshot(uint256)": "2d63f693",
					"setCurrentAmount(uint256,uint256)": "eb9094a2",
					"state(uint256)": "3e4f49e6"
				}
			},
			"storageLayout": {
				"storage": [
					{
						"astId": 41,
						"contract": ".workspaces/default_workspace/unMiracle/UMRproposal.sol:UMRproposal",
						"label": "_proposals",
						"offset": 0,
						"slot": "0",
						"type": "t_mapping(t_uint256,t_struct(ProposalCore)36_storage)"
					}
				],
				"types": {
					"t_bool": {
						"encoding": "inplace",
						"label": "bool",
						"numberOfBytes": "1"
					},
					"t_mapping(t_uint256,t_struct(ProposalCore)36_storage)": {
						"encoding": "mapping",
						"key": "t_uint256",
						"label": "mapping(uint256 => struct UMRproposal.ProposalCore)",
						"numberOfBytes": "32",
						"value": "t_struct(ProposalCore)36_storage"
					},
					"t_struct(ProposalCore)36_storage": {
						"encoding": "inplace",
						"label": "struct UMRproposal.ProposalCore",
						"members": [
							{
								"astId": 22,
								"contract": ".workspaces/default_workspace/unMiracle/UMRproposal.sol:UMRproposal",
								"label": "donationStart",
								"offset": 0,
								"slot": "0",
								"type": "t_struct(SetInfo)339_storage"
							},
							{
								"astId": 25,
								"contract": ".workspaces/default_workspace/unMiracle/UMRproposal.sol:UMRproposal",
								"label": "donationEnd",
								"offset": 0,
								"slot": "3",
								"type": "t_struct(SetInfo)339_storage"
							},
							{
								"astId": 28,
								"contract": ".workspaces/default_workspace/unMiracle/UMRproposal.sol:UMRproposal",
								"label": "donateMinimum",
								"offset": 0,
								"slot": "6",
								"type": "t_struct(SetInfo)339_storage"
							},
							{
								"astId": 31,
								"contract": ".workspaces/default_workspace/unMiracle/UMRproposal.sol:UMRproposal",
								"label": "donate",
								"offset": 0,
								"slot": "9",
								"type": "t_struct(SetInfo)339_storage"
							},
							{
								"astId": 33,
								"contract": ".workspaces/default_workspace/unMiracle/UMRproposal.sol:UMRproposal",
								"label": "executed",
								"offset": 0,
								"slot": "12",
								"type": "t_bool"
							},
							{
								"astId": 35,
								"contract": ".workspaces/default_workspace/unMiracle/UMRproposal.sol:UMRproposal",
								"label": "canceled",
								"offset": 1,
								"slot": "12",
								"type": "t_bool"
							}
						],
						"numberOfBytes": "416"
					},
					"t_struct(SetInfo)339_storage": {
						"encoding": "inplace",
						"label": "struct Setting.SetInfo",
						"members": [
							{
								"astId": 334,
								"contract": ".workspaces/default_workspace/unMiracle/UMRproposal.sol:UMRproposal",
								"label": "deadline",
								"offset": 0,
								"slot": "0",
								"type": "t_uint256"
							},
							{
								"astId": 336,
								"contract": ".workspaces/default_workspace/unMiracle/UMRproposal.sol:UMRproposal",
								"label": "amount",
								"offset": 0,
								"slot": "1",
								"type": "t_uint256"
							},
							{
								"astId": 338,
								"contract": ".workspaces/default_workspace/unMiracle/UMRproposal.sol:UMRproposal",
								"label": "currentAmount",
								"offset": 0,
								"slot": "2",
								"type": "t_uint256"
							}
						],
						"numberOfBytes": "96"
					},
					"t_uint256": {
						"encoding": "inplace",
						"label": "uint256",
						"numberOfBytes": "32"
					}
				}
			},
			"userdoc": {
				"kind": "user",
				"methods": {},
				"version": 1
			}
		}
	}
}