{
	".workspaces/default_workspace/unMiracle/test.sol": {
		"test": {
			"abi": [
				{
					"inputs": [],
					"name": "_executor",
					"outputs": [
						{
							"internalType": "address",
							"name": "",
							"type": "address"
						}
					],
					"stateMutability": "view",
					"type": "function"
				},
				{
					"inputs": [
						{
							"internalType": "bytes",
							"name": "data",
							"type": "bytes"
						}
					],
					"name": "abiDecode",
					"outputs": [
						{
							"internalType": "uint256",
							"name": "_str1",
							"type": "uint256"
						},
						{
							"internalType": "uint256",
							"name": "_number",
							"type": "uint256"
						},
						{
							"internalType": "uint256",
							"name": "_str2",
							"type": "uint256"
						}
					],
					"stateMutability": "nonpayable",
					"type": "function"
				},
				{
					"inputs": [],
					"name": "abiEncode",
					"outputs": [
						{
							"internalType": "bytes",
							"name": "",
							"type": "bytes"
						}
					],
					"stateMutability": "nonpayable",
					"type": "function"
				},
				{
					"inputs": [],
					"name": "deadline",
					"outputs": [
						{
							"internalType": "uint64",
							"name": "",
							"type": "uint64"
						}
					],
					"stateMutability": "view",
					"type": "function"
				},
				{
					"inputs": [],
					"name": "keccak256test",
					"outputs": [
						{
							"internalType": "bytes",
							"name": "",
							"type": "bytes"
						}
					],
					"stateMutability": "nonpayable",
					"type": "function"
				},
				{
					"inputs": [],
					"name": "name",
					"outputs": [
						{
							"internalType": "string",
							"name": "",
							"type": "string"
						}
					],
					"stateMutability": "nonpayable",
					"type": "function"
				},
				{
					"inputs": [],
					"name": "snapshot",
					"outputs": [
						{
							"internalType": "uint64",
							"name": "",
							"type": "uint64"
						}
					],
					"stateMutability": "view",
					"type": "function"
				},
				{
					"inputs": [],
					"name": "time",
					"outputs": [
						{
							"internalType": "uint256",
							"name": "",
							"type": "uint256"
						}
					],
					"stateMutability": "nonpayable",
					"type": "function"
				},
				{
					"inputs": [],
					"name": "votingDelay",
					"outputs": [
						{
							"internalType": "uint256",
							"name": "",
							"type": "uint256"
						}
					],
					"stateMutability": "pure",
					"type": "function"
				},
				{
					"inputs": [],
					"name": "votingPeriod",
					"outputs": [
						{
							"internalType": "uint256",
							"name": "",
							"type": "uint256"
						}
					],
					"stateMutability": "pure",
					"type": "function"
				}
			],
			"devdoc": {
				"kind": "dev",
				"methods": {},
				"version": 1
			},
			"evm": {
				"assembly": "    /* \".workspaces/default_workspace/unMiracle/test.sol\":167:2084  contract test {... */\n  mstore(0x40, 0x80)\n  callvalue\n  dup1\n  iszero\n  tag_1\n  jumpi\n  0x00\n  dup1\n  revert\ntag_1:\n  pop\n  dataSize(sub_0)\n  dup1\n  dataOffset(sub_0)\n  0x00\n  codecopy\n  0x00\n  return\nstop\n\nsub_0: assembly {\n        /* \".workspaces/default_workspace/unMiracle/test.sol\":167:2084  contract test {... */\n      mstore(0x40, 0x80)\n      callvalue\n      dup1\n      iszero\n      tag_1\n      jumpi\n      0x00\n      dup1\n      revert\n    tag_1:\n      pop\n      jumpi(tag_2, lt(calldatasize, 0x04))\n      shr(0xe0, calldataload(0x00))\n      dup1\n      0x416bdc52\n      gt\n      tag_13\n      jumpi\n      dup1\n      0x416bdc52\n      eq\n      tag_8\n      jumpi\n      dup1\n      0x6097e7a3\n      eq\n      tag_9\n      jumpi\n      dup1\n      0x8c492a76\n      eq\n      tag_10\n      jumpi\n      dup1\n      0x9711715a\n      eq\n      tag_11\n      jumpi\n      dup1\n      0xfb1a746f\n      eq\n      tag_12\n      jumpi\n      jump(tag_2)\n    tag_13:\n      dup1\n      0x02a251a3\n      eq\n      tag_3\n      jumpi\n      dup1\n      0x06fdde03\n      eq\n      tag_4\n      jumpi\n      dup1\n      0x16ada547\n      eq\n      tag_5\n      jumpi\n      dup1\n      0x29dcb0cf\n      eq\n      tag_6\n      jumpi\n      dup1\n      0x3932abb1\n      eq\n      tag_7\n      jumpi\n    tag_2:\n      0x00\n      dup1\n      revert\n        /* \".workspaces/default_workspace/unMiracle/test.sol\":1612:1703  function votingPeriod() public pure returns(uint256) {... */\n    tag_3:\n      tag_14\n      tag_15\n      jump\t// in\n    tag_14:\n      mload(0x40)\n      tag_16\n      swap2\n      swap1\n      tag_17\n      jump\t// in\n    tag_16:\n      mload(0x40)\n      dup1\n      swap2\n      sub\n      swap1\n      return\n        /* \".workspaces/default_workspace/unMiracle/test.sol\":708:788  function name() public returns(string memory) {... */\n    tag_4:\n      tag_18\n      tag_19\n      jump\t// in\n    tag_18:\n      mload(0x40)\n      tag_20\n      swap2\n      swap1\n      tag_21\n      jump\t// in\n    tag_20:\n      mload(0x40)\n      dup1\n      swap2\n      sub\n      swap1\n      return\n        /* \".workspaces/default_workspace/unMiracle/test.sol\":586:702  function time() public returns(uint256){... */\n    tag_5:\n      tag_22\n      tag_23\n      jump\t// in\n    tag_22:\n      mload(0x40)\n      tag_24\n      swap2\n      swap1\n      tag_17\n      jump\t// in\n    tag_24:\n      mload(0x40)\n      dup1\n      swap2\n      sub\n      swap1\n      return\n        /* \".workspaces/default_workspace/unMiracle/test.sol\":1868:2082  function deadline() public view returns(uint64) {... */\n    tag_6:\n      tag_25\n      tag_26\n      jump\t// in\n    tag_25:\n      mload(0x40)\n      tag_27\n      swap2\n      swap1\n      tag_28\n      jump\t// in\n    tag_27:\n      mload(0x40)\n      dup1\n      swap2\n      sub\n      swap1\n      return\n        /* \".workspaces/default_workspace/unMiracle/test.sol\":1529:1606  function votingDelay() public pure returns(uint256) {... */\n    tag_7:\n      tag_29\n      tag_30\n      jump\t// in\n    tag_29:\n      mload(0x40)\n      tag_31\n      swap2\n      swap1\n      tag_17\n      jump\t// in\n    tag_31:\n      mload(0x40)\n      dup1\n      swap2\n      sub\n      swap1\n      return\n        /* \".workspaces/default_workspace/unMiracle/test.sol\":1340:1522  function abiDecode(bytes memory data) public returns(uint _str1, uint _number, uint _str2) {... */\n    tag_8:\n      tag_32\n      0x04\n      dup1\n      calldatasize\n      sub\n      dup2\n      add\n      swap1\n      tag_33\n      swap2\n      swap1\n      tag_34\n      jump\t// in\n    tag_33:\n      tag_35\n      jump\t// in\n    tag_32:\n      mload(0x40)\n      tag_36\n      swap4\n      swap3\n      swap2\n      swap1\n      tag_37\n      jump\t// in\n    tag_36:\n      mload(0x40)\n      dup1\n      swap2\n      sub\n      swap1\n      return\n        /* \".workspaces/default_workspace/unMiracle/test.sol\":1237:1335  function abiEncode() public returns(bytes memory) {... */\n    tag_9:\n      tag_38\n      tag_39\n      jump\t// in\n    tag_38:\n      mload(0x40)\n      tag_40\n      swap2\n      swap1\n      tag_41\n      jump\t// in\n    tag_40:\n      mload(0x40)\n      dup1\n      swap2\n      sub\n      swap1\n      return\n        /* \".workspaces/default_workspace/unMiracle/test.sol\":966:1231  function keccak256test() public returns(bytes memory) {... */\n    tag_10:\n      tag_42\n      tag_43\n      jump\t// in\n    tag_42:\n      mload(0x40)\n      tag_44\n      swap2\n      swap1\n      tag_41\n      jump\t// in\n    tag_44:\n      mload(0x40)\n      dup1\n      swap2\n      sub\n      swap1\n      return\n        /* \".workspaces/default_workspace/unMiracle/test.sol\":1709:1862  function snapshot() public view returns(uint64) {... */\n    tag_11:\n      tag_45\n      tag_46\n      jump\t// in\n    tag_45:\n      mload(0x40)\n      tag_47\n      swap2\n      swap1\n      tag_28\n      jump\t// in\n    tag_47:\n      mload(0x40)\n      dup1\n      swap2\n      sub\n      swap1\n      return\n        /* \".workspaces/default_workspace/unMiracle/test.sol\":492:580  function _executor() public view returns (address) {... */\n    tag_12:\n      tag_48\n      tag_49\n      jump\t// in\n    tag_48:\n      mload(0x40)\n      tag_50\n      swap2\n      swap1\n      tag_51\n      jump\t// in\n    tag_50:\n      mload(0x40)\n      dup1\n      swap2\n      sub\n      swap1\n      return\n        /* \".workspaces/default_workspace/unMiracle/test.sol\":1612:1703  function votingPeriod() public pure returns(uint256) {... */\n    tag_15:\n        /* \".workspaces/default_workspace/unMiracle/test.sol\":1656:1663  uint256 */\n      0x00\n        /* \".workspaces/default_workspace/unMiracle/test.sol\":1682:1687  45818 */\n      0xb2fa\n        /* \".workspaces/default_workspace/unMiracle/test.sol\":1675:1687  return 45818 */\n      swap1\n      pop\n        /* \".workspaces/default_workspace/unMiracle/test.sol\":1612:1703  function votingPeriod() public pure returns(uint256) {... */\n      swap1\n      jump\t// out\n        /* \".workspaces/default_workspace/unMiracle/test.sol\":708:788  function name() public returns(string memory) {... */\n    tag_19:\n        /* \".workspaces/default_workspace/unMiracle/test.sol\":739:752  string memory */\n      0x60\n        /* \".workspaces/default_workspace/unMiracle/test.sol\":764:781  return 'wonhyeok' */\n      mload(0x40)\n      dup1\n      0x40\n      add\n      0x40\n      mstore\n      dup1\n      0x08\n      dup2\n      mstore\n      0x20\n      add\n      0x776f6e6879656f6b000000000000000000000000000000000000000000000000\n      dup2\n      mstore\n      pop\n      swap1\n      pop\n        /* \".workspaces/default_workspace/unMiracle/test.sol\":708:788  function name() public returns(string memory) {... */\n      swap1\n      jump\t// out\n        /* \".workspaces/default_workspace/unMiracle/test.sol\":586:702  function time() public returns(uint256){... */\n    tag_23:\n        /* \".workspaces/default_workspace/unMiracle/test.sol\":617:624  uint256 */\n      0x00\n        /* \".workspaces/default_workspace/unMiracle/test.sol\":635:645  uint256 re */\n      dup1\n        /* \".workspaces/default_workspace/unMiracle/test.sol\":666:676  5*24*60*60 */\n      0x069780\n        /* \".workspaces/default_workspace/unMiracle/test.sol\":648:663  block.timestamp */\n      timestamp\n        /* \".workspaces/default_workspace/unMiracle/test.sol\":648:676  block.timestamp + 5*24*60*60 */\n      tag_55\n      swap2\n      swap1\n      tag_56\n      jump\t// in\n    tag_55:\n        /* \".workspaces/default_workspace/unMiracle/test.sol\":635:676  uint256 re = block.timestamp + 5*24*60*60 */\n      swap1\n      pop\n        /* \".workspaces/default_workspace/unMiracle/test.sol\":693:695  re */\n      dup1\n        /* \".workspaces/default_workspace/unMiracle/test.sol\":686:695  return re */\n      swap2\n      pop\n      pop\n        /* \".workspaces/default_workspace/unMiracle/test.sol\":586:702  function time() public returns(uint256){... */\n      swap1\n      jump\t// out\n        /* \".workspaces/default_workspace/unMiracle/test.sol\":1868:2082  function deadline() public view returns(uint64) {... */\n    tag_26:\n        /* \".workspaces/default_workspace/unMiracle/test.sol\":1908:1914  uint64 */\n      0x00\n        /* \".workspaces/default_workspace/unMiracle/test.sol\":1926:1941  uint64 snapshot */\n      dup1\n        /* \".workspaces/default_workspace/unMiracle/test.sol\":1974:1987  votingDelay() */\n      tag_58\n        /* \".workspaces/default_workspace/unMiracle/test.sol\":1974:1985  votingDelay */\n      tag_30\n        /* \".workspaces/default_workspace/unMiracle/test.sol\":1974:1987  votingDelay() */\n      jump\t// in\n    tag_58:\n        /* \".workspaces/default_workspace/unMiracle/test.sol\":1951:1963  block.number */\n      number\n        /* \".workspaces/default_workspace/unMiracle/test.sol\":1944:1988  uint64(block.number) + uint64(votingDelay()) */\n      tag_59\n      swap2\n      swap1\n      tag_60\n      jump\t// in\n    tag_59:\n        /* \".workspaces/default_workspace/unMiracle/test.sol\":1926:1988  uint64 snapshot = uint64(block.number) + uint64(votingDelay()) */\n      swap1\n      pop\n        /* \".workspaces/default_workspace/unMiracle/test.sol\":1998:2013  uint64 deadline */\n      0x00\n        /* \".workspaces/default_workspace/unMiracle/test.sol\":2034:2048  votingPeriod() */\n      tag_61\n        /* \".workspaces/default_workspace/unMiracle/test.sol\":2034:2046  votingPeriod */\n      tag_15\n        /* \".workspaces/default_workspace/unMiracle/test.sol\":2034:2048  votingPeriod() */\n      jump\t// in\n    tag_61:\n        /* \".workspaces/default_workspace/unMiracle/test.sol\":2016:2024  snapshot */\n      dup3\n        /* \".workspaces/default_workspace/unMiracle/test.sol\":2016:2049  snapshot + uint64(votingPeriod()) */\n      tag_62\n      swap2\n      swap1\n      tag_60\n      jump\t// in\n    tag_62:\n        /* \".workspaces/default_workspace/unMiracle/test.sol\":1998:2049  uint64 deadline = snapshot + uint64(votingPeriod()) */\n      swap1\n      pop\n        /* \".workspaces/default_workspace/unMiracle/test.sol\":2067:2075  deadline */\n      dup1\n        /* \".workspaces/default_workspace/unMiracle/test.sol\":2060:2075  return deadline */\n      swap3\n      pop\n      pop\n      pop\n        /* \".workspaces/default_workspace/unMiracle/test.sol\":1868:2082  function deadline() public view returns(uint64) {... */\n      swap1\n      jump\t// out\n        /* \".workspaces/default_workspace/unMiracle/test.sol\":1529:1606  function votingDelay() public pure returns(uint256) {... */\n    tag_30:\n        /* \".workspaces/default_workspace/unMiracle/test.sol\":1572:1579  uint256 */\n      0x00\n        /* \".workspaces/default_workspace/unMiracle/test.sol\":1598:1599  1 */\n      0x01\n        /* \".workspaces/default_workspace/unMiracle/test.sol\":1591:1599  return 1 */\n      swap1\n      pop\n        /* \".workspaces/default_workspace/unMiracle/test.sol\":1529:1606  function votingDelay() public pure returns(uint256) {... */\n      swap1\n      jump\t// out\n        /* \".workspaces/default_workspace/unMiracle/test.sol\":1340:1522  function abiDecode(bytes memory data) public returns(uint _str1, uint _number, uint _str2) {... */\n    tag_35:\n        /* \".workspaces/default_workspace/unMiracle/test.sol\":1393:1403  uint _str1 */\n      0x00\n        /* \".workspaces/default_workspace/unMiracle/test.sol\":1405:1417  uint _number */\n      dup1\n        /* \".workspaces/default_workspace/unMiracle/test.sol\":1419:1429  uint _str2 */\n      0x00\n        /* \".workspaces/default_workspace/unMiracle/test.sol\":1478:1482  data */\n      dup4\n        /* \".workspaces/default_workspace/unMiracle/test.sol\":1467:1503  abi.decode(data, (uint, uint, uint)) */\n      dup1\n      0x20\n      add\n      swap1\n      mload\n      dup2\n      add\n      swap1\n      tag_65\n      swap2\n      swap1\n      tag_66\n      jump\t// in\n    tag_65:\n        /* \".workspaces/default_workspace/unMiracle/test.sol\":1441:1503  (_str1, _number, _str2) = abi.decode(data, (uint, uint, uint)) */\n      dup1\n      swap4\n      pop\n      dup2\n      swap5\n      pop\n      dup3\n      swap6\n      pop\n      pop\n      pop\n      pop\n        /* \".workspaces/default_workspace/unMiracle/test.sol\":1340:1522  function abiDecode(bytes memory data) public returns(uint _str1, uint _number, uint _str2) {... */\n      swap2\n      swap4\n      swap1\n      swap3\n      pop\n      jump\t// out\n        /* \".workspaces/default_workspace/unMiracle/test.sol\":1237:1335  function abiEncode() public returns(bytes memory) {... */\n    tag_39:\n        /* \".workspaces/default_workspace/unMiracle/test.sol\":1273:1285  bytes memory */\n      0x60\n        /* \".workspaces/default_workspace/unMiracle/test.sol\":1315:1316  1 */\n      0x01\n        /* \".workspaces/default_workspace/unMiracle/test.sol\":1317:1322  45804 */\n      0xb2ec\n        /* \".workspaces/default_workspace/unMiracle/test.sol\":1323:1327  5000 */\n      0x1388\n        /* \".workspaces/default_workspace/unMiracle/test.sol\":1304:1328  abi.encode(1,45804,5000) */\n      add(0x20, mload(0x40))\n      tag_68\n      swap4\n      swap3\n      swap2\n      swap1\n      tag_69\n      jump\t// in\n    tag_68:\n      mload(0x40)\n      0x20\n      dup2\n      dup4\n      sub\n      sub\n      dup2\n      mstore\n      swap1\n      0x40\n      mstore\n        /* \".workspaces/default_workspace/unMiracle/test.sol\":1297:1328  return abi.encode(1,45804,5000) */\n      swap1\n      pop\n        /* \".workspaces/default_workspace/unMiracle/test.sol\":1237:1335  function abiEncode() public returns(bytes memory) {... */\n      swap1\n      jump\t// out\n        /* \".workspaces/default_workspace/unMiracle/test.sol\":966:1231  function keccak256test() public returns(bytes memory) {... */\n    tag_43:\n        /* \".workspaces/default_workspace/unMiracle/test.sol\":1006:1018  bytes memory */\n      0x60\n        /* \".workspaces/default_workspace/unMiracle/test.sol\":1210:1211  1 */\n      0x01\n        /* \".workspaces/default_workspace/unMiracle/test.sol\":1212:1217  45804 */\n      0xb2ec\n        /* \".workspaces/default_workspace/unMiracle/test.sol\":1218:1222  5000 */\n      0x1388\n        /* \".workspaces/default_workspace/unMiracle/test.sol\":1199:1223  abi.encode(1,45804,5000) */\n      add(0x20, mload(0x40))\n      tag_71\n      swap4\n      swap3\n      swap2\n      swap1\n      tag_69\n      jump\t// in\n    tag_71:\n      mload(0x40)\n      0x20\n      dup2\n      dup4\n      sub\n      sub\n      dup2\n      mstore\n      swap1\n      0x40\n      mstore\n        /* \".workspaces/default_workspace/unMiracle/test.sol\":1191:1223  return  abi.encode(1,45804,5000) */\n      swap1\n      pop\n        /* \".workspaces/default_workspace/unMiracle/test.sol\":966:1231  function keccak256test() public returns(bytes memory) {... */\n      swap1\n      jump\t// out\n        /* \".workspaces/default_workspace/unMiracle/test.sol\":1709:1862  function snapshot() public view returns(uint64) {... */\n    tag_46:\n        /* \".workspaces/default_workspace/unMiracle/test.sol\":1749:1755  uint64 */\n      0x00\n        /* \".workspaces/default_workspace/unMiracle/test.sol\":1767:1782  uint64 snapshot */\n      dup1\n        /* \".workspaces/default_workspace/unMiracle/test.sol\":1815:1828  votingDelay() */\n      tag_73\n        /* \".workspaces/default_workspace/unMiracle/test.sol\":1815:1826  votingDelay */\n      tag_30\n        /* \".workspaces/default_workspace/unMiracle/test.sol\":1815:1828  votingDelay() */\n      jump\t// in\n    tag_73:\n        /* \".workspaces/default_workspace/unMiracle/test.sol\":1792:1804  block.number */\n      number\n        /* \".workspaces/default_workspace/unMiracle/test.sol\":1785:1829  uint64(block.number) + uint64(votingDelay()) */\n      tag_74\n      swap2\n      swap1\n      tag_60\n      jump\t// in\n    tag_74:\n        /* \".workspaces/default_workspace/unMiracle/test.sol\":1767:1829  uint64 snapshot = uint64(block.number) + uint64(votingDelay()) */\n      swap1\n      pop\n        /* \".workspaces/default_workspace/unMiracle/test.sol\":1847:1855  snapshot */\n      dup1\n        /* \".workspaces/default_workspace/unMiracle/test.sol\":1840:1855  return snapshot */\n      swap2\n      pop\n      pop\n        /* \".workspaces/default_workspace/unMiracle/test.sol\":1709:1862  function snapshot() public view returns(uint64) {... */\n      swap1\n      jump\t// out\n        /* \".workspaces/default_workspace/unMiracle/test.sol\":492:580  function _executor() public view returns (address) {... */\n    tag_49:\n        /* \".workspaces/default_workspace/unMiracle/test.sol\":534:541  address */\n      0x00\n        /* \".workspaces/default_workspace/unMiracle/test.sol\":568:572  this */\n      address\n        /* \".workspaces/default_workspace/unMiracle/test.sol\":553:573  return address(this) */\n      swap1\n      pop\n        /* \".workspaces/default_workspace/unMiracle/test.sol\":492:580  function _executor() public view returns (address) {... */\n      swap1\n      jump\t// out\n        /* \"#utility.yul\":7:84   */\n    tag_76:\n        /* \"#utility.yul\":44:51   */\n      0x00\n        /* \"#utility.yul\":73:78   */\n      dup2\n        /* \"#utility.yul\":62:78   */\n      swap1\n      pop\n        /* \"#utility.yul\":7:84   */\n      swap2\n      swap1\n      pop\n      jump\t// out\n        /* \"#utility.yul\":90:208   */\n    tag_77:\n        /* \"#utility.yul\":177:201   */\n      tag_121\n        /* \"#utility.yul\":195:200   */\n      dup2\n        /* \"#utility.yul\":177:201   */\n      tag_76\n      jump\t// in\n    tag_121:\n        /* \"#utility.yul\":172:175   */\n      dup3\n        /* \"#utility.yul\":165:202   */\n      mstore\n        /* \"#utility.yul\":90:208   */\n      pop\n      pop\n      jump\t// out\n        /* \"#utility.yul\":214:436   */\n    tag_17:\n        /* \"#utility.yul\":307:311   */\n      0x00\n        /* \"#utility.yul\":345:347   */\n      0x20\n        /* \"#utility.yul\":334:343   */\n      dup3\n        /* \"#utility.yul\":330:348   */\n      add\n        /* \"#utility.yul\":322:348   */\n      swap1\n      pop\n        /* \"#utility.yul\":358:429   */\n      tag_123\n        /* \"#utility.yul\":426:427   */\n      0x00\n        /* \"#utility.yul\":415:424   */\n      dup4\n        /* \"#utility.yul\":411:428   */\n      add\n        /* \"#utility.yul\":402:408   */\n      dup5\n        /* \"#utility.yul\":358:429   */\n      tag_77\n      jump\t// in\n    tag_123:\n        /* \"#utility.yul\":214:436   */\n      swap3\n      swap2\n      pop\n      pop\n      jump\t// out\n        /* \"#utility.yul\":442:541   */\n    tag_78:\n        /* \"#utility.yul\":494:500   */\n      0x00\n        /* \"#utility.yul\":528:533   */\n      dup2\n        /* \"#utility.yul\":522:534   */\n      mload\n        /* \"#utility.yul\":512:534   */\n      swap1\n      pop\n        /* \"#utility.yul\":442:541   */\n      swap2\n      swap1\n      pop\n      jump\t// out\n        /* \"#utility.yul\":547:716   */\n    tag_79:\n        /* \"#utility.yul\":631:642   */\n      0x00\n        /* \"#utility.yul\":665:671   */\n      dup3\n        /* \"#utility.yul\":660:663   */\n      dup3\n        /* \"#utility.yul\":653:672   */\n      mstore\n        /* \"#utility.yul\":705:709   */\n      0x20\n        /* \"#utility.yul\":700:703   */\n      dup3\n        /* \"#utility.yul\":696:710   */\n      add\n        /* \"#utility.yul\":681:710   */\n      swap1\n      pop\n        /* \"#utility.yul\":547:716   */\n      swap3\n      swap2\n      pop\n      pop\n      jump\t// out\n        /* \"#utility.yul\":722:1029   */\n    tag_80:\n        /* \"#utility.yul\":790:791   */\n      0x00\n        /* \"#utility.yul\":800:913   */\n    tag_127:\n        /* \"#utility.yul\":814:820   */\n      dup4\n        /* \"#utility.yul\":811:812   */\n      dup2\n        /* \"#utility.yul\":808:821   */\n      lt\n        /* \"#utility.yul\":800:913   */\n      iszero\n      tag_129\n      jumpi\n        /* \"#utility.yul\":899:900   */\n      dup1\n        /* \"#utility.yul\":894:897   */\n      dup3\n        /* \"#utility.yul\":890:901   */\n      add\n        /* \"#utility.yul\":884:902   */\n      mload\n        /* \"#utility.yul\":880:881   */\n      dup2\n        /* \"#utility.yul\":875:878   */\n      dup5\n        /* \"#utility.yul\":871:882   */\n      add\n        /* \"#utility.yul\":864:903   */\n      mstore\n        /* \"#utility.yul\":836:838   */\n      0x20\n        /* \"#utility.yul\":833:834   */\n      dup2\n        /* \"#utility.yul\":829:839   */\n      add\n        /* \"#utility.yul\":824:839   */\n      swap1\n      pop\n        /* \"#utility.yul\":800:913   */\n      jump(tag_127)\n    tag_129:\n        /* \"#utility.yul\":931:937   */\n      dup4\n        /* \"#utility.yul\":928:929   */\n      dup2\n        /* \"#utility.yul\":925:938   */\n      gt\n        /* \"#utility.yul\":922:1023   */\n      iszero\n      tag_130\n      jumpi\n        /* \"#utility.yul\":1011:1012   */\n      0x00\n        /* \"#utility.yul\":1002:1008   */\n      dup5\n        /* \"#utility.yul\":997:1000   */\n      dup5\n        /* \"#utility.yul\":993:1009   */\n      add\n        /* \"#utility.yul\":986:1013   */\n      mstore\n        /* \"#utility.yul\":922:1023   */\n    tag_130:\n        /* \"#utility.yul\":771:1029   */\n      pop\n        /* \"#utility.yul\":722:1029   */\n      pop\n      pop\n      pop\n      jump\t// out\n        /* \"#utility.yul\":1035:1137   */\n    tag_81:\n        /* \"#utility.yul\":1076:1082   */\n      0x00\n        /* \"#utility.yul\":1127:1129   */\n      0x1f\n        /* \"#utility.yul\":1123:1130   */\n      not\n        /* \"#utility.yul\":1118:1120   */\n      0x1f\n        /* \"#utility.yul\":1111:1116   */\n      dup4\n        /* \"#utility.yul\":1107:1121   */\n      add\n        /* \"#utility.yul\":1103:1131   */\n      and\n        /* \"#utility.yul\":1093:1131   */\n      swap1\n      pop\n        /* \"#utility.yul\":1035:1137   */\n      swap2\n      swap1\n      pop\n      jump\t// out\n        /* \"#utility.yul\":1143:1507   */\n    tag_82:\n        /* \"#utility.yul\":1231:1234   */\n      0x00\n        /* \"#utility.yul\":1259:1298   */\n      tag_133\n        /* \"#utility.yul\":1292:1297   */\n      dup3\n        /* \"#utility.yul\":1259:1298   */\n      tag_78\n      jump\t// in\n    tag_133:\n        /* \"#utility.yul\":1314:1385   */\n      tag_134\n        /* \"#utility.yul\":1378:1384   */\n      dup2\n        /* \"#utility.yul\":1373:1376   */\n      dup6\n        /* \"#utility.yul\":1314:1385   */\n      tag_79\n      jump\t// in\n    tag_134:\n        /* \"#utility.yul\":1307:1385   */\n      swap4\n      pop\n        /* \"#utility.yul\":1394:1446   */\n      tag_135\n        /* \"#utility.yul\":1439:1445   */\n      dup2\n        /* \"#utility.yul\":1434:1437   */\n      dup6\n        /* \"#utility.yul\":1427:1431   */\n      0x20\n        /* \"#utility.yul\":1420:1425   */\n      dup7\n        /* \"#utility.yul\":1416:1432   */\n      add\n        /* \"#utility.yul\":1394:1446   */\n      tag_80\n      jump\t// in\n    tag_135:\n        /* \"#utility.yul\":1471:1500   */\n      tag_136\n        /* \"#utility.yul\":1493:1499   */\n      dup2\n        /* \"#utility.yul\":1471:1500   */\n      tag_81\n      jump\t// in\n    tag_136:\n        /* \"#utility.yul\":1466:1469   */\n      dup5\n        /* \"#utility.yul\":1462:1501   */\n      add\n        /* \"#utility.yul\":1455:1501   */\n      swap2\n      pop\n        /* \"#utility.yul\":1235:1507   */\n      pop\n        /* \"#utility.yul\":1143:1507   */\n      swap3\n      swap2\n      pop\n      pop\n      jump\t// out\n        /* \"#utility.yul\":1513:1826   */\n    tag_21:\n        /* \"#utility.yul\":1626:1630   */\n      0x00\n        /* \"#utility.yul\":1664:1666   */\n      0x20\n        /* \"#utility.yul\":1653:1662   */\n      dup3\n        /* \"#utility.yul\":1649:1667   */\n      add\n        /* \"#utility.yul\":1641:1667   */\n      swap1\n      pop\n        /* \"#utility.yul\":1713:1722   */\n      dup2\n        /* \"#utility.yul\":1707:1711   */\n      dup2\n        /* \"#utility.yul\":1703:1723   */\n      sub\n        /* \"#utility.yul\":1699:1700   */\n      0x00\n        /* \"#utility.yul\":1688:1697   */\n      dup4\n        /* \"#utility.yul\":1684:1701   */\n      add\n        /* \"#utility.yul\":1677:1724   */\n      mstore\n        /* \"#utility.yul\":1741:1819   */\n      tag_138\n        /* \"#utility.yul\":1814:1818   */\n      dup2\n        /* \"#utility.yul\":1805:1811   */\n      dup5\n        /* \"#utility.yul\":1741:1819   */\n      tag_82\n      jump\t// in\n    tag_138:\n        /* \"#utility.yul\":1733:1819   */\n      swap1\n      pop\n        /* \"#utility.yul\":1513:1826   */\n      swap3\n      swap2\n      pop\n      pop\n      jump\t// out\n        /* \"#utility.yul\":1832:1933   */\n    tag_83:\n        /* \"#utility.yul\":1868:1875   */\n      0x00\n        /* \"#utility.yul\":1908:1926   */\n      0xffffffffffffffff\n        /* \"#utility.yul\":1901:1906   */\n      dup3\n        /* \"#utility.yul\":1897:1927   */\n      and\n        /* \"#utility.yul\":1886:1927   */\n      swap1\n      pop\n        /* \"#utility.yul\":1832:1933   */\n      swap2\n      swap1\n      pop\n      jump\t// out\n        /* \"#utility.yul\":1939:2054   */\n    tag_84:\n        /* \"#utility.yul\":2024:2047   */\n      tag_141\n        /* \"#utility.yul\":2041:2046   */\n      dup2\n        /* \"#utility.yul\":2024:2047   */\n      tag_83\n      jump\t// in\n    tag_141:\n        /* \"#utility.yul\":2019:2022   */\n      dup3\n        /* \"#utility.yul\":2012:2048   */\n      mstore\n        /* \"#utility.yul\":1939:2054   */\n      pop\n      pop\n      jump\t// out\n        /* \"#utility.yul\":2060:2278   */\n    tag_28:\n        /* \"#utility.yul\":2151:2155   */\n      0x00\n        /* \"#utility.yul\":2189:2191   */\n      0x20\n        /* \"#utility.yul\":2178:2187   */\n      dup3\n        /* \"#utility.yul\":2174:2192   */\n      add\n        /* \"#utility.yul\":2166:2192   */\n      swap1\n      pop\n        /* \"#utility.yul\":2202:2271   */\n      tag_143\n        /* \"#utility.yul\":2268:2269   */\n      0x00\n        /* \"#utility.yul\":2257:2266   */\n      dup4\n        /* \"#utility.yul\":2253:2270   */\n      add\n        /* \"#utility.yul\":2244:2250   */\n      dup5\n        /* \"#utility.yul\":2202:2271   */\n      tag_84\n      jump\t// in\n    tag_143:\n        /* \"#utility.yul\":2060:2278   */\n      swap3\n      swap2\n      pop\n      pop\n      jump\t// out\n        /* \"#utility.yul\":2284:2359   */\n    tag_85:\n        /* \"#utility.yul\":2317:2323   */\n      0x00\n        /* \"#utility.yul\":2350:2352   */\n      0x40\n        /* \"#utility.yul\":2344:2353   */\n      mload\n        /* \"#utility.yul\":2334:2353   */\n      swap1\n      pop\n        /* \"#utility.yul\":2284:2359   */\n      swap1\n      jump\t// out\n        /* \"#utility.yul\":2365:2482   */\n    tag_86:\n        /* \"#utility.yul\":2474:2475   */\n      0x00\n        /* \"#utility.yul\":2471:2472   */\n      dup1\n        /* \"#utility.yul\":2464:2476   */\n      revert\n        /* \"#utility.yul\":2488:2605   */\n    tag_87:\n        /* \"#utility.yul\":2597:2598   */\n      0x00\n        /* \"#utility.yul\":2594:2595   */\n      dup1\n        /* \"#utility.yul\":2587:2599   */\n      revert\n        /* \"#utility.yul\":2611:2728   */\n    tag_88:\n        /* \"#utility.yul\":2720:2721   */\n      0x00\n        /* \"#utility.yul\":2717:2718   */\n      dup1\n        /* \"#utility.yul\":2710:2722   */\n      revert\n        /* \"#utility.yul\":2734:2851   */\n    tag_89:\n        /* \"#utility.yul\":2843:2844   */\n      0x00\n        /* \"#utility.yul\":2840:2841   */\n      dup1\n        /* \"#utility.yul\":2833:2845   */\n      revert\n        /* \"#utility.yul\":2857:3037   */\n    tag_90:\n        /* \"#utility.yul\":2905:2982   */\n      0x4e487b7100000000000000000000000000000000000000000000000000000000\n        /* \"#utility.yul\":2902:2903   */\n      0x00\n        /* \"#utility.yul\":2895:2983   */\n      mstore\n        /* \"#utility.yul\":3002:3006   */\n      0x41\n        /* \"#utility.yul\":2999:3000   */\n      0x04\n        /* \"#utility.yul\":2992:3007   */\n      mstore\n        /* \"#utility.yul\":3026:3030   */\n      0x24\n        /* \"#utility.yul\":3023:3024   */\n      0x00\n        /* \"#utility.yul\":3016:3031   */\n      revert\n        /* \"#utility.yul\":3043:3324   */\n    tag_91:\n        /* \"#utility.yul\":3126:3153   */\n      tag_151\n        /* \"#utility.yul\":3148:3152   */\n      dup3\n        /* \"#utility.yul\":3126:3153   */\n      tag_81\n      jump\t// in\n    tag_151:\n        /* \"#utility.yul\":3118:3124   */\n      dup2\n        /* \"#utility.yul\":3114:3154   */\n      add\n        /* \"#utility.yul\":3256:3262   */\n      dup2\n        /* \"#utility.yul\":3244:3254   */\n      dup2\n        /* \"#utility.yul\":3241:3263   */\n      lt\n        /* \"#utility.yul\":3220:3238   */\n      0xffffffffffffffff\n        /* \"#utility.yul\":3208:3218   */\n      dup3\n        /* \"#utility.yul\":3205:3239   */\n      gt\n        /* \"#utility.yul\":3202:3264   */\n      or\n        /* \"#utility.yul\":3199:3287   */\n      iszero\n      tag_152\n      jumpi\n        /* \"#utility.yul\":3267:3285   */\n      tag_153\n      tag_90\n      jump\t// in\n    tag_153:\n        /* \"#utility.yul\":3199:3287   */\n    tag_152:\n        /* \"#utility.yul\":3307:3317   */\n      dup1\n        /* \"#utility.yul\":3303:3305   */\n      0x40\n        /* \"#utility.yul\":3296:3318   */\n      mstore\n        /* \"#utility.yul\":3086:3324   */\n      pop\n        /* \"#utility.yul\":3043:3324   */\n      pop\n      pop\n      jump\t// out\n        /* \"#utility.yul\":3330:3459   */\n    tag_92:\n        /* \"#utility.yul\":3364:3370   */\n      0x00\n        /* \"#utility.yul\":3391:3411   */\n      tag_155\n      tag_85\n      jump\t// in\n    tag_155:\n        /* \"#utility.yul\":3381:3411   */\n      swap1\n      pop\n        /* \"#utility.yul\":3420:3453   */\n      tag_156\n        /* \"#utility.yul\":3448:3452   */\n      dup3\n        /* \"#utility.yul\":3440:3446   */\n      dup3\n        /* \"#utility.yul\":3420:3453   */\n      tag_91\n      jump\t// in\n    tag_156:\n        /* \"#utility.yul\":3330:3459   */\n      swap2\n      swap1\n      pop\n      jump\t// out\n        /* \"#utility.yul\":3465:3772   */\n    tag_93:\n        /* \"#utility.yul\":3526:3530   */\n      0x00\n        /* \"#utility.yul\":3616:3634   */\n      0xffffffffffffffff\n        /* \"#utility.yul\":3608:3614   */\n      dup3\n        /* \"#utility.yul\":3605:3635   */\n      gt\n        /* \"#utility.yul\":3602:3658   */\n      iszero\n      tag_158\n      jumpi\n        /* \"#utility.yul\":3638:3656   */\n      tag_159\n      tag_90\n      jump\t// in\n    tag_159:\n        /* \"#utility.yul\":3602:3658   */\n    tag_158:\n        /* \"#utility.yul\":3676:3705   */\n      tag_160\n        /* \"#utility.yul\":3698:3704   */\n      dup3\n        /* \"#utility.yul\":3676:3705   */\n      tag_81\n      jump\t// in\n    tag_160:\n        /* \"#utility.yul\":3668:3705   */\n      swap1\n      pop\n        /* \"#utility.yul\":3760:3764   */\n      0x20\n        /* \"#utility.yul\":3754:3758   */\n      dup2\n        /* \"#utility.yul\":3750:3765   */\n      add\n        /* \"#utility.yul\":3742:3765   */\n      swap1\n      pop\n        /* \"#utility.yul\":3465:3772   */\n      swap2\n      swap1\n      pop\n      jump\t// out\n        /* \"#utility.yul\":3778:3932   */\n    tag_94:\n        /* \"#utility.yul\":3862:3868   */\n      dup3\n        /* \"#utility.yul\":3857:3860   */\n      dup2\n        /* \"#utility.yul\":3852:3855   */\n      dup4\n        /* \"#utility.yul\":3839:3869   */\n      calldatacopy\n        /* \"#utility.yul\":3924:3925   */\n      0x00\n        /* \"#utility.yul\":3915:3921   */\n      dup4\n        /* \"#utility.yul\":3910:3913   */\n      dup4\n        /* \"#utility.yul\":3906:3922   */\n      add\n        /* \"#utility.yul\":3899:3926   */\n      mstore\n        /* \"#utility.yul\":3778:3932   */\n      pop\n      pop\n      pop\n      jump\t// out\n        /* \"#utility.yul\":3938:4348   */\n    tag_95:\n        /* \"#utility.yul\":4015:4020   */\n      0x00\n        /* \"#utility.yul\":4040:4105   */\n      tag_163\n        /* \"#utility.yul\":4056:4104   */\n      tag_164\n        /* \"#utility.yul\":4097:4103   */\n      dup5\n        /* \"#utility.yul\":4056:4104   */\n      tag_93\n      jump\t// in\n    tag_164:\n        /* \"#utility.yul\":4040:4105   */\n      tag_92\n      jump\t// in\n    tag_163:\n        /* \"#utility.yul\":4031:4105   */\n      swap1\n      pop\n        /* \"#utility.yul\":4128:4134   */\n      dup3\n        /* \"#utility.yul\":4121:4126   */\n      dup2\n        /* \"#utility.yul\":4114:4135   */\n      mstore\n        /* \"#utility.yul\":4166:4170   */\n      0x20\n        /* \"#utility.yul\":4159:4164   */\n      dup2\n        /* \"#utility.yul\":4155:4171   */\n      add\n        /* \"#utility.yul\":4204:4207   */\n      dup5\n        /* \"#utility.yul\":4195:4201   */\n      dup5\n        /* \"#utility.yul\":4190:4193   */\n      dup5\n        /* \"#utility.yul\":4186:4202   */\n      add\n        /* \"#utility.yul\":4183:4208   */\n      gt\n        /* \"#utility.yul\":4180:4292   */\n      iszero\n      tag_165\n      jumpi\n        /* \"#utility.yul\":4211:4290   */\n      tag_166\n      tag_89\n      jump\t// in\n    tag_166:\n        /* \"#utility.yul\":4180:4292   */\n    tag_165:\n        /* \"#utility.yul\":4301:4342   */\n      tag_167\n        /* \"#utility.yul\":4335:4341   */\n      dup5\n        /* \"#utility.yul\":4330:4333   */\n      dup3\n        /* \"#utility.yul\":4325:4328   */\n      dup6\n        /* \"#utility.yul\":4301:4342   */\n      tag_94\n      jump\t// in\n    tag_167:\n        /* \"#utility.yul\":4021:4348   */\n      pop\n        /* \"#utility.yul\":3938:4348   */\n      swap4\n      swap3\n      pop\n      pop\n      pop\n      jump\t// out\n        /* \"#utility.yul\":4367:4705   */\n    tag_96:\n        /* \"#utility.yul\":4422:4427   */\n      0x00\n        /* \"#utility.yul\":4471:4474   */\n      dup3\n        /* \"#utility.yul\":4464:4468   */\n      0x1f\n        /* \"#utility.yul\":4456:4462   */\n      dup4\n        /* \"#utility.yul\":4452:4469   */\n      add\n        /* \"#utility.yul\":4448:4475   */\n      slt\n        /* \"#utility.yul\":4438:4560   */\n      tag_169\n      jumpi\n        /* \"#utility.yul\":4479:4558   */\n      tag_170\n      tag_88\n      jump\t// in\n    tag_170:\n        /* \"#utility.yul\":4438:4560   */\n    tag_169:\n        /* \"#utility.yul\":4596:4602   */\n      dup2\n        /* \"#utility.yul\":4583:4603   */\n      calldataload\n        /* \"#utility.yul\":4621:4699   */\n      tag_171\n        /* \"#utility.yul\":4695:4698   */\n      dup5\n        /* \"#utility.yul\":4687:4693   */\n      dup3\n        /* \"#utility.yul\":4680:4684   */\n      0x20\n        /* \"#utility.yul\":4672:4678   */\n      dup7\n        /* \"#utility.yul\":4668:4685   */\n      add\n        /* \"#utility.yul\":4621:4699   */\n      tag_95\n      jump\t// in\n    tag_171:\n        /* \"#utility.yul\":4612:4699   */\n      swap2\n      pop\n        /* \"#utility.yul\":4428:4705   */\n      pop\n        /* \"#utility.yul\":4367:4705   */\n      swap3\n      swap2\n      pop\n      pop\n      jump\t// out\n        /* \"#utility.yul\":4711:5218   */\n    tag_34:\n        /* \"#utility.yul\":4779:4785   */\n      0x00\n        /* \"#utility.yul\":4828:4830   */\n      0x20\n        /* \"#utility.yul\":4816:4825   */\n      dup3\n        /* \"#utility.yul\":4807:4814   */\n      dup5\n        /* \"#utility.yul\":4803:4826   */\n      sub\n        /* \"#utility.yul\":4799:4831   */\n      slt\n        /* \"#utility.yul\":4796:4915   */\n      iszero\n      tag_173\n      jumpi\n        /* \"#utility.yul\":4834:4913   */\n      tag_174\n      tag_86\n      jump\t// in\n    tag_174:\n        /* \"#utility.yul\":4796:4915   */\n    tag_173:\n        /* \"#utility.yul\":4982:4983   */\n      0x00\n        /* \"#utility.yul\":4971:4980   */\n      dup3\n        /* \"#utility.yul\":4967:4984   */\n      add\n        /* \"#utility.yul\":4954:4985   */\n      calldataload\n        /* \"#utility.yul\":5012:5030   */\n      0xffffffffffffffff\n        /* \"#utility.yul\":5004:5010   */\n      dup2\n        /* \"#utility.yul\":5001:5031   */\n      gt\n        /* \"#utility.yul\":4998:5115   */\n      iszero\n      tag_175\n      jumpi\n        /* \"#utility.yul\":5034:5113   */\n      tag_176\n      tag_87\n      jump\t// in\n    tag_176:\n        /* \"#utility.yul\":4998:5115   */\n    tag_175:\n        /* \"#utility.yul\":5139:5201   */\n      tag_177\n        /* \"#utility.yul\":5193:5200   */\n      dup5\n        /* \"#utility.yul\":5184:5190   */\n      dup3\n        /* \"#utility.yul\":5173:5182   */\n      dup6\n        /* \"#utility.yul\":5169:5191   */\n      add\n        /* \"#utility.yul\":5139:5201   */\n      tag_96\n      jump\t// in\n    tag_177:\n        /* \"#utility.yul\":5129:5201   */\n      swap2\n      pop\n        /* \"#utility.yul\":4925:5211   */\n      pop\n        /* \"#utility.yul\":4711:5218   */\n      swap3\n      swap2\n      pop\n      pop\n      jump\t// out\n        /* \"#utility.yul\":5224:5666   */\n    tag_37:\n        /* \"#utility.yul\":5373:5377   */\n      0x00\n        /* \"#utility.yul\":5411:5413   */\n      0x60\n        /* \"#utility.yul\":5400:5409   */\n      dup3\n        /* \"#utility.yul\":5396:5414   */\n      add\n        /* \"#utility.yul\":5388:5414   */\n      swap1\n      pop\n        /* \"#utility.yul\":5424:5495   */\n      tag_179\n        /* \"#utility.yul\":5492:5493   */\n      0x00\n        /* \"#utility.yul\":5481:5490   */\n      dup4\n        /* \"#utility.yul\":5477:5494   */\n      add\n        /* \"#utility.yul\":5468:5474   */\n      dup7\n        /* \"#utility.yul\":5424:5495   */\n      tag_77\n      jump\t// in\n    tag_179:\n        /* \"#utility.yul\":5505:5577   */\n      tag_180\n        /* \"#utility.yul\":5573:5575   */\n      0x20\n        /* \"#utility.yul\":5562:5571   */\n      dup4\n        /* \"#utility.yul\":5558:5576   */\n      add\n        /* \"#utility.yul\":5549:5555   */\n      dup6\n        /* \"#utility.yul\":5505:5577   */\n      tag_77\n      jump\t// in\n    tag_180:\n        /* \"#utility.yul\":5587:5659   */\n      tag_181\n        /* \"#utility.yul\":5655:5657   */\n      0x40\n        /* \"#utility.yul\":5644:5653   */\n      dup4\n        /* \"#utility.yul\":5640:5658   */\n      add\n        /* \"#utility.yul\":5631:5637   */\n      dup5\n        /* \"#utility.yul\":5587:5659   */\n      tag_77\n      jump\t// in\n    tag_181:\n        /* \"#utility.yul\":5224:5666   */\n      swap5\n      swap4\n      pop\n      pop\n      pop\n      pop\n      jump\t// out\n        /* \"#utility.yul\":5672:5770   */\n    tag_97:\n        /* \"#utility.yul\":5723:5729   */\n      0x00\n        /* \"#utility.yul\":5757:5762   */\n      dup2\n        /* \"#utility.yul\":5751:5763   */\n      mload\n        /* \"#utility.yul\":5741:5763   */\n      swap1\n      pop\n        /* \"#utility.yul\":5672:5770   */\n      swap2\n      swap1\n      pop\n      jump\t// out\n        /* \"#utility.yul\":5776:5944   */\n    tag_98:\n        /* \"#utility.yul\":5859:5870   */\n      0x00\n        /* \"#utility.yul\":5893:5899   */\n      dup3\n        /* \"#utility.yul\":5888:5891   */\n      dup3\n        /* \"#utility.yul\":5881:5900   */\n      mstore\n        /* \"#utility.yul\":5933:5937   */\n      0x20\n        /* \"#utility.yul\":5928:5931   */\n      dup3\n        /* \"#utility.yul\":5924:5938   */\n      add\n        /* \"#utility.yul\":5909:5938   */\n      swap1\n      pop\n        /* \"#utility.yul\":5776:5944   */\n      swap3\n      swap2\n      pop\n      pop\n      jump\t// out\n        /* \"#utility.yul\":5950:6310   */\n    tag_99:\n        /* \"#utility.yul\":6036:6039   */\n      0x00\n        /* \"#utility.yul\":6064:6102   */\n      tag_185\n        /* \"#utility.yul\":6096:6101   */\n      dup3\n        /* \"#utility.yul\":6064:6102   */\n      tag_97\n      jump\t// in\n    tag_185:\n        /* \"#utility.yul\":6118:6188   */\n      tag_186\n        /* \"#utility.yul\":6181:6187   */\n      dup2\n        /* \"#utility.yul\":6176:6179   */\n      dup6\n        /* \"#utility.yul\":6118:6188   */\n      tag_98\n      jump\t// in\n    tag_186:\n        /* \"#utility.yul\":6111:6188   */\n      swap4\n      pop\n        /* \"#utility.yul\":6197:6249   */\n      tag_187\n        /* \"#utility.yul\":6242:6248   */\n      dup2\n        /* \"#utility.yul\":6237:6240   */\n      dup6\n        /* \"#utility.yul\":6230:6234   */\n      0x20\n        /* \"#utility.yul\":6223:6228   */\n      dup7\n        /* \"#utility.yul\":6219:6235   */\n      add\n        /* \"#utility.yul\":6197:6249   */\n      tag_80\n      jump\t// in\n    tag_187:\n        /* \"#utility.yul\":6274:6303   */\n      tag_188\n        /* \"#utility.yul\":6296:6302   */\n      dup2\n        /* \"#utility.yul\":6274:6303   */\n      tag_81\n      jump\t// in\n    tag_188:\n        /* \"#utility.yul\":6269:6272   */\n      dup5\n        /* \"#utility.yul\":6265:6304   */\n      add\n        /* \"#utility.yul\":6258:6304   */\n      swap2\n      pop\n        /* \"#utility.yul\":6040:6310   */\n      pop\n        /* \"#utility.yul\":5950:6310   */\n      swap3\n      swap2\n      pop\n      pop\n      jump\t// out\n        /* \"#utility.yul\":6316:6625   */\n    tag_41:\n        /* \"#utility.yul\":6427:6431   */\n      0x00\n        /* \"#utility.yul\":6465:6467   */\n      0x20\n        /* \"#utility.yul\":6454:6463   */\n      dup3\n        /* \"#utility.yul\":6450:6468   */\n      add\n        /* \"#utility.yul\":6442:6468   */\n      swap1\n      pop\n        /* \"#utility.yul\":6514:6523   */\n      dup2\n        /* \"#utility.yul\":6508:6512   */\n      dup2\n        /* \"#utility.yul\":6504:6524   */\n      sub\n        /* \"#utility.yul\":6500:6501   */\n      0x00\n        /* \"#utility.yul\":6489:6498   */\n      dup4\n        /* \"#utility.yul\":6485:6502   */\n      add\n        /* \"#utility.yul\":6478:6525   */\n      mstore\n        /* \"#utility.yul\":6542:6618   */\n      tag_190\n        /* \"#utility.yul\":6613:6617   */\n      dup2\n        /* \"#utility.yul\":6604:6610   */\n      dup5\n        /* \"#utility.yul\":6542:6618   */\n      tag_99\n      jump\t// in\n    tag_190:\n        /* \"#utility.yul\":6534:6618   */\n      swap1\n      pop\n        /* \"#utility.yul\":6316:6625   */\n      swap3\n      swap2\n      pop\n      pop\n      jump\t// out\n        /* \"#utility.yul\":6631:6757   */\n    tag_100:\n        /* \"#utility.yul\":6668:6675   */\n      0x00\n        /* \"#utility.yul\":6708:6750   */\n      0xffffffffffffffffffffffffffffffffffffffff\n        /* \"#utility.yul\":6701:6706   */\n      dup3\n        /* \"#utility.yul\":6697:6751   */\n      and\n        /* \"#utility.yul\":6686:6751   */\n      swap1\n      pop\n        /* \"#utility.yul\":6631:6757   */\n      swap2\n      swap1\n      pop\n      jump\t// out\n        /* \"#utility.yul\":6763:6859   */\n    tag_101:\n        /* \"#utility.yul\":6800:6807   */\n      0x00\n        /* \"#utility.yul\":6829:6853   */\n      tag_193\n        /* \"#utility.yul\":6847:6852   */\n      dup3\n        /* \"#utility.yul\":6829:6853   */\n      tag_100\n      jump\t// in\n    tag_193:\n        /* \"#utility.yul\":6818:6853   */\n      swap1\n      pop\n        /* \"#utility.yul\":6763:6859   */\n      swap2\n      swap1\n      pop\n      jump\t// out\n        /* \"#utility.yul\":6865:6983   */\n    tag_102:\n        /* \"#utility.yul\":6952:6976   */\n      tag_195\n        /* \"#utility.yul\":6970:6975   */\n      dup2\n        /* \"#utility.yul\":6952:6976   */\n      tag_101\n      jump\t// in\n    tag_195:\n        /* \"#utility.yul\":6947:6950   */\n      dup3\n        /* \"#utility.yul\":6940:6977   */\n      mstore\n        /* \"#utility.yul\":6865:6983   */\n      pop\n      pop\n      jump\t// out\n        /* \"#utility.yul\":6989:7211   */\n    tag_51:\n        /* \"#utility.yul\":7082:7086   */\n      0x00\n        /* \"#utility.yul\":7120:7122   */\n      0x20\n        /* \"#utility.yul\":7109:7118   */\n      dup3\n        /* \"#utility.yul\":7105:7123   */\n      add\n        /* \"#utility.yul\":7097:7123   */\n      swap1\n      pop\n        /* \"#utility.yul\":7133:7204   */\n      tag_197\n        /* \"#utility.yul\":7201:7202   */\n      0x00\n        /* \"#utility.yul\":7190:7199   */\n      dup4\n        /* \"#utility.yul\":7186:7203   */\n      add\n        /* \"#utility.yul\":7177:7183   */\n      dup5\n        /* \"#utility.yul\":7133:7204   */\n      tag_102\n      jump\t// in\n    tag_197:\n        /* \"#utility.yul\":6989:7211   */\n      swap3\n      swap2\n      pop\n      pop\n      jump\t// out\n        /* \"#utility.yul\":7217:7397   */\n    tag_103:\n        /* \"#utility.yul\":7265:7342   */\n      0x4e487b7100000000000000000000000000000000000000000000000000000000\n        /* \"#utility.yul\":7262:7263   */\n      0x00\n        /* \"#utility.yul\":7255:7343   */\n      mstore\n        /* \"#utility.yul\":7362:7366   */\n      0x11\n        /* \"#utility.yul\":7359:7360   */\n      0x04\n        /* \"#utility.yul\":7352:7367   */\n      mstore\n        /* \"#utility.yul\":7386:7390   */\n      0x24\n        /* \"#utility.yul\":7383:7384   */\n      0x00\n        /* \"#utility.yul\":7376:7391   */\n      revert\n        /* \"#utility.yul\":7403:7708   */\n    tag_56:\n        /* \"#utility.yul\":7443:7446   */\n      0x00\n        /* \"#utility.yul\":7462:7482   */\n      tag_200\n        /* \"#utility.yul\":7480:7481   */\n      dup3\n        /* \"#utility.yul\":7462:7482   */\n      tag_76\n      jump\t// in\n    tag_200:\n        /* \"#utility.yul\":7457:7482   */\n      swap2\n      pop\n        /* \"#utility.yul\":7496:7516   */\n      tag_201\n        /* \"#utility.yul\":7514:7515   */\n      dup4\n        /* \"#utility.yul\":7496:7516   */\n      tag_76\n      jump\t// in\n    tag_201:\n        /* \"#utility.yul\":7491:7516   */\n      swap3\n      pop\n        /* \"#utility.yul\":7650:7651   */\n      dup3\n        /* \"#utility.yul\":7582:7648   */\n      0xffffffffffffffffffffffffffffffffffffffffffffffffffffffffffffffff\n        /* \"#utility.yul\":7578:7652   */\n      sub\n        /* \"#utility.yul\":7575:7576   */\n      dup3\n        /* \"#utility.yul\":7572:7653   */\n      gt\n        /* \"#utility.yul\":7569:7676   */\n      iszero\n      tag_202\n      jumpi\n        /* \"#utility.yul\":7656:7674   */\n      tag_203\n      tag_103\n      jump\t// in\n    tag_203:\n        /* \"#utility.yul\":7569:7676   */\n    tag_202:\n        /* \"#utility.yul\":7700:7701   */\n      dup3\n        /* \"#utility.yul\":7697:7698   */\n      dup3\n        /* \"#utility.yul\":7693:7702   */\n      add\n        /* \"#utility.yul\":7686:7702   */\n      swap1\n      pop\n        /* \"#utility.yul\":7403:7708   */\n      swap3\n      swap2\n      pop\n      pop\n      jump\t// out\n        /* \"#utility.yul\":7714:7968   */\n    tag_60:\n        /* \"#utility.yul\":7753:7756   */\n      0x00\n        /* \"#utility.yul\":7772:7791   */\n      tag_205\n        /* \"#utility.yul\":7789:7790   */\n      dup3\n        /* \"#utility.yul\":7772:7791   */\n      tag_83\n      jump\t// in\n    tag_205:\n        /* \"#utility.yul\":7767:7791   */\n      swap2\n      pop\n        /* \"#utility.yul\":7805:7824   */\n      tag_206\n        /* \"#utility.yul\":7822:7823   */\n      dup4\n        /* \"#utility.yul\":7805:7824   */\n      tag_83\n      jump\t// in\n    tag_206:\n        /* \"#utility.yul\":7800:7824   */\n      swap3\n      pop\n        /* \"#utility.yul\":7910:7911   */\n      dup3\n        /* \"#utility.yul\":7890:7908   */\n      0xffffffffffffffff\n        /* \"#utility.yul\":7886:7912   */\n      sub\n        /* \"#utility.yul\":7883:7884   */\n      dup3\n        /* \"#utility.yul\":7880:7913   */\n      gt\n        /* \"#utility.yul\":7877:7936   */\n      iszero\n      tag_207\n      jumpi\n        /* \"#utility.yul\":7916:7934   */\n      tag_208\n      tag_103\n      jump\t// in\n    tag_208:\n        /* \"#utility.yul\":7877:7936   */\n    tag_207:\n        /* \"#utility.yul\":7960:7961   */\n      dup3\n        /* \"#utility.yul\":7957:7958   */\n      dup3\n        /* \"#utility.yul\":7953:7962   */\n      add\n        /* \"#utility.yul\":7946:7962   */\n      swap1\n      pop\n        /* \"#utility.yul\":7714:7968   */\n      swap3\n      swap2\n      pop\n      pop\n      jump\t// out\n        /* \"#utility.yul\":7974:8096   */\n    tag_104:\n        /* \"#utility.yul\":8047:8071   */\n      tag_210\n        /* \"#utility.yul\":8065:8070   */\n      dup2\n        /* \"#utility.yul\":8047:8071   */\n      tag_76\n      jump\t// in\n    tag_210:\n        /* \"#utility.yul\":8040:8045   */\n      dup2\n        /* \"#utility.yul\":8037:8072   */\n      eq\n        /* \"#utility.yul\":8027:8090   */\n      tag_211\n      jumpi\n        /* \"#utility.yul\":8086:8087   */\n      0x00\n        /* \"#utility.yul\":8083:8084   */\n      dup1\n        /* \"#utility.yul\":8076:8088   */\n      revert\n        /* \"#utility.yul\":8027:8090   */\n    tag_211:\n        /* \"#utility.yul\":7974:8096   */\n      pop\n      jump\t// out\n        /* \"#utility.yul\":8102:8245   */\n    tag_105:\n        /* \"#utility.yul\":8159:8164   */\n      0x00\n        /* \"#utility.yul\":8190:8196   */\n      dup2\n        /* \"#utility.yul\":8184:8197   */\n      mload\n        /* \"#utility.yul\":8175:8197   */\n      swap1\n      pop\n        /* \"#utility.yul\":8206:8239   */\n      tag_213\n        /* \"#utility.yul\":8233:8238   */\n      dup2\n        /* \"#utility.yul\":8206:8239   */\n      tag_104\n      jump\t// in\n    tag_213:\n        /* \"#utility.yul\":8102:8245   */\n      swap3\n      swap2\n      pop\n      pop\n      jump\t// out\n        /* \"#utility.yul\":8251:8914   */\n    tag_66:\n        /* \"#utility.yul\":8339:8345   */\n      0x00\n        /* \"#utility.yul\":8347:8353   */\n      dup1\n        /* \"#utility.yul\":8355:8361   */\n      0x00\n        /* \"#utility.yul\":8404:8406   */\n      0x60\n        /* \"#utility.yul\":8392:8401   */\n      dup5\n        /* \"#utility.yul\":8383:8390   */\n      dup7\n        /* \"#utility.yul\":8379:8402   */\n      sub\n        /* \"#utility.yul\":8375:8407   */\n      slt\n        /* \"#utility.yul\":8372:8491   */\n      iszero\n      tag_215\n      jumpi\n        /* \"#utility.yul\":8410:8489   */\n      tag_216\n      tag_86\n      jump\t// in\n    tag_216:\n        /* \"#utility.yul\":8372:8491   */\n    tag_215:\n        /* \"#utility.yul\":8530:8531   */\n      0x00\n        /* \"#utility.yul\":8555:8619   */\n      tag_217\n        /* \"#utility.yul\":8611:8618   */\n      dup7\n        /* \"#utility.yul\":8602:8608   */\n      dup3\n        /* \"#utility.yul\":8591:8600   */\n      dup8\n        /* \"#utility.yul\":8587:8609   */\n      add\n        /* \"#utility.yul\":8555:8619   */\n      tag_105\n      jump\t// in\n    tag_217:\n        /* \"#utility.yul\":8545:8619   */\n      swap4\n      pop\n        /* \"#utility.yul\":8501:8629   */\n      pop\n        /* \"#utility.yul\":8668:8670   */\n      0x20\n        /* \"#utility.yul\":8694:8758   */\n      tag_218\n        /* \"#utility.yul\":8750:8757   */\n      dup7\n        /* \"#utility.yul\":8741:8747   */\n      dup3\n        /* \"#utility.yul\":8730:8739   */\n      dup8\n        /* \"#utility.yul\":8726:8748   */\n      add\n        /* \"#utility.yul\":8694:8758   */\n      tag_105\n      jump\t// in\n    tag_218:\n        /* \"#utility.yul\":8684:8758   */\n      swap3\n      pop\n        /* \"#utility.yul\":8639:8768   */\n      pop\n        /* \"#utility.yul\":8807:8809   */\n      0x40\n        /* \"#utility.yul\":8833:8897   */\n      tag_219\n        /* \"#utility.yul\":8889:8896   */\n      dup7\n        /* \"#utility.yul\":8880:8886   */\n      dup3\n        /* \"#utility.yul\":8869:8878   */\n      dup8\n        /* \"#utility.yul\":8865:8887   */\n      add\n        /* \"#utility.yul\":8833:8897   */\n      tag_105\n      jump\t// in\n    tag_219:\n        /* \"#utility.yul\":8823:8897   */\n      swap2\n      pop\n        /* \"#utility.yul\":8778:8907   */\n      pop\n        /* \"#utility.yul\":8251:8914   */\n      swap3\n      pop\n      swap3\n      pop\n      swap3\n      jump\t// out\n        /* \"#utility.yul\":8920:9005   */\n    tag_106:\n        /* \"#utility.yul\":8965:8972   */\n      0x00\n        /* \"#utility.yul\":8994:8999   */\n      dup2\n        /* \"#utility.yul\":8983:8999   */\n      swap1\n      pop\n        /* \"#utility.yul\":8920:9005   */\n      swap2\n      swap1\n      pop\n      jump\t// out\n        /* \"#utility.yul\":9011:9097   */\n    tag_107:\n        /* \"#utility.yul\":9046:9053   */\n      0x00\n        /* \"#utility.yul\":9086:9090   */\n      0xff\n        /* \"#utility.yul\":9079:9084   */\n      dup3\n        /* \"#utility.yul\":9075:9091   */\n      and\n        /* \"#utility.yul\":9064:9091   */\n      swap1\n      pop\n        /* \"#utility.yul\":9011:9097   */\n      swap2\n      swap1\n      pop\n      jump\t// out\n        /* \"#utility.yul\":9103:9163   */\n    tag_108:\n        /* \"#utility.yul\":9131:9134   */\n      0x00\n        /* \"#utility.yul\":9152:9157   */\n      dup2\n        /* \"#utility.yul\":9145:9157   */\n      swap1\n      pop\n        /* \"#utility.yul\":9103:9163   */\n      swap2\n      swap1\n      pop\n      jump\t// out\n        /* \"#utility.yul\":9169:9323   */\n    tag_109:\n        /* \"#utility.yul\":9225:9234   */\n      0x00\n        /* \"#utility.yul\":9258:9317   */\n      tag_224\n        /* \"#utility.yul\":9274:9316   */\n      tag_225\n        /* \"#utility.yul\":9283:9315   */\n      tag_226\n        /* \"#utility.yul\":9309:9314   */\n      dup5\n        /* \"#utility.yul\":9283:9315   */\n      tag_106\n      jump\t// in\n    tag_226:\n        /* \"#utility.yul\":9274:9316   */\n      tag_108\n      jump\t// in\n    tag_225:\n        /* \"#utility.yul\":9258:9317   */\n      tag_107\n      jump\t// in\n    tag_224:\n        /* \"#utility.yul\":9245:9317   */\n      swap1\n      pop\n        /* \"#utility.yul\":9169:9323   */\n      swap2\n      swap1\n      pop\n      jump\t// out\n        /* \"#utility.yul\":9329:9472   */\n    tag_110:\n        /* \"#utility.yul\":9422:9465   */\n      tag_228\n        /* \"#utility.yul\":9459:9464   */\n      dup2\n        /* \"#utility.yul\":9422:9465   */\n      tag_109\n      jump\t// in\n    tag_228:\n        /* \"#utility.yul\":9417:9420   */\n      dup3\n        /* \"#utility.yul\":9410:9466   */\n      mstore\n        /* \"#utility.yul\":9329:9472   */\n      pop\n      pop\n      jump\t// out\n        /* \"#utility.yul\":9478:9567   */\n    tag_111:\n        /* \"#utility.yul\":9527:9534   */\n      0x00\n        /* \"#utility.yul\":9556:9561   */\n      dup2\n        /* \"#utility.yul\":9545:9561   */\n      swap1\n      pop\n        /* \"#utility.yul\":9478:9567   */\n      swap2\n      swap1\n      pop\n      jump\t// out\n        /* \"#utility.yul\":9573:9662   */\n    tag_112:\n        /* \"#utility.yul\":9609:9616   */\n      0x00\n        /* \"#utility.yul\":9649:9655   */\n      0xffff\n        /* \"#utility.yul\":9642:9647   */\n      dup3\n        /* \"#utility.yul\":9638:9656   */\n      and\n        /* \"#utility.yul\":9627:9656   */\n      swap1\n      pop\n        /* \"#utility.yul\":9573:9662   */\n      swap2\n      swap1\n      pop\n      jump\t// out\n        /* \"#utility.yul\":9668:9832   */\n    tag_113:\n        /* \"#utility.yul\":9729:9738   */\n      0x00\n        /* \"#utility.yul\":9762:9826   */\n      tag_232\n        /* \"#utility.yul\":9779:9825   */\n      tag_233\n        /* \"#utility.yul\":9788:9824   */\n      tag_234\n        /* \"#utility.yul\":9818:9823   */\n      dup5\n        /* \"#utility.yul\":9788:9824   */\n      tag_111\n      jump\t// in\n    tag_234:\n        /* \"#utility.yul\":9779:9825   */\n      tag_108\n      jump\t// in\n    tag_233:\n        /* \"#utility.yul\":9762:9826   */\n      tag_112\n      jump\t// in\n    tag_232:\n        /* \"#utility.yul\":9749:9826   */\n      swap1\n      pop\n        /* \"#utility.yul\":9668:9832   */\n      swap2\n      swap1\n      pop\n      jump\t// out\n        /* \"#utility.yul\":9838:9991   */\n    tag_114:\n        /* \"#utility.yul\":9936:9984   */\n      tag_236\n        /* \"#utility.yul\":9978:9983   */\n      dup2\n        /* \"#utility.yul\":9936:9984   */\n      tag_113\n      jump\t// in\n    tag_236:\n        /* \"#utility.yul\":9931:9934   */\n      dup3\n        /* \"#utility.yul\":9924:9985   */\n      mstore\n        /* \"#utility.yul\":9838:9991   */\n      pop\n      pop\n      jump\t// out\n        /* \"#utility.yul\":9997:10085   */\n    tag_115:\n        /* \"#utility.yul\":10045:10052   */\n      0x00\n        /* \"#utility.yul\":10074:10079   */\n      dup2\n        /* \"#utility.yul\":10063:10079   */\n      swap1\n      pop\n        /* \"#utility.yul\":9997:10085   */\n      swap2\n      swap1\n      pop\n      jump\t// out\n        /* \"#utility.yul\":10091:10253   */\n    tag_116:\n        /* \"#utility.yul\":10151:10160   */\n      0x00\n        /* \"#utility.yul\":10184:10247   */\n      tag_239\n        /* \"#utility.yul\":10201:10246   */\n      tag_240\n        /* \"#utility.yul\":10210:10245   */\n      tag_241\n        /* \"#utility.yul\":10239:10244   */\n      dup5\n        /* \"#utility.yul\":10210:10245   */\n      tag_115\n      jump\t// in\n    tag_241:\n        /* \"#utility.yul\":10201:10246   */\n      tag_108\n      jump\t// in\n    tag_240:\n        /* \"#utility.yul\":10184:10247   */\n      tag_112\n      jump\t// in\n    tag_239:\n        /* \"#utility.yul\":10171:10247   */\n      swap1\n      pop\n        /* \"#utility.yul\":10091:10253   */\n      swap2\n      swap1\n      pop\n      jump\t// out\n        /* \"#utility.yul\":10259:10410   */\n    tag_117:\n        /* \"#utility.yul\":10356:10403   */\n      tag_243\n        /* \"#utility.yul\":10397:10402   */\n      dup2\n        /* \"#utility.yul\":10356:10403   */\n      tag_116\n      jump\t// in\n    tag_243:\n        /* \"#utility.yul\":10351:10354   */\n      dup3\n        /* \"#utility.yul\":10344:10404   */\n      mstore\n        /* \"#utility.yul\":10259:10410   */\n      pop\n      pop\n      jump\t// out\n        /* \"#utility.yul\":10416:10912   */\n    tag_69:\n        /* \"#utility.yul\":10592:10596   */\n      0x00\n        /* \"#utility.yul\":10630:10632   */\n      0x60\n        /* \"#utility.yul\":10619:10628   */\n      dup3\n        /* \"#utility.yul\":10615:10633   */\n      add\n        /* \"#utility.yul\":10607:10633   */\n      swap1\n      pop\n        /* \"#utility.yul\":10643:10720   */\n      tag_245\n        /* \"#utility.yul\":10717:10718   */\n      0x00\n        /* \"#utility.yul\":10706:10715   */\n      dup4\n        /* \"#utility.yul\":10702:10719   */\n      add\n        /* \"#utility.yul\":10693:10699   */\n      dup7\n        /* \"#utility.yul\":10643:10720   */\n      tag_110\n      jump\t// in\n    tag_245:\n        /* \"#utility.yul\":10730:10813   */\n      tag_246\n        /* \"#utility.yul\":10809:10811   */\n      0x20\n        /* \"#utility.yul\":10798:10807   */\n      dup4\n        /* \"#utility.yul\":10794:10812   */\n      add\n        /* \"#utility.yul\":10785:10791   */\n      dup6\n        /* \"#utility.yul\":10730:10813   */\n      tag_114\n      jump\t// in\n    tag_246:\n        /* \"#utility.yul\":10823:10905   */\n      tag_247\n        /* \"#utility.yul\":10901:10903   */\n      0x40\n        /* \"#utility.yul\":10890:10899   */\n      dup4\n        /* \"#utility.yul\":10886:10904   */\n      add\n        /* \"#utility.yul\":10877:10883   */\n      dup5\n        /* \"#utility.yul\":10823:10905   */\n      tag_117\n      jump\t// in\n    tag_247:\n        /* \"#utility.yul\":10416:10912   */\n      swap5\n      swap4\n      pop\n      pop\n      pop\n      pop\n      jump\t// out\n\n    auxdata: 0xa2646970667358221220bda9b59bafe0c422ac9e9d8c9458427e0db9d6f44fdc0a14d3d995ecede4d40064736f6c634300080d0033\n}\n",
				"bytecode": {
					"linkReferences": {},
					"object": "608060405234801561001057600080fd5b50610986806100206000396000f3fe608060405234801561001057600080fd5b506004361061009e5760003560e01c8063416bdc5211610066578063416bdc52146101395780636097e7a31461016b5780638c492a76146101895780639711715a146101a7578063fb1a746f146101c55761009e565b806302a251a3146100a357806306fdde03146100c157806316ada547146100df57806329dcb0cf146100fd5780633932abb11461011b575b600080fd5b6100ab6101e3565b6040516100b89190610351565b60405180910390f35b6100c96101ed565b6040516100d69190610405565b60405180910390f35b6100e761022a565b6040516100f49190610351565b60405180910390f35b610105610245565b604051610112919061044a565b60405180910390f35b61012361027c565b6040516101309190610351565b60405180910390f35b610153600480360381019061014e91906105ae565b610285565b604051610162939291906105f7565b60405180910390f35b6101736102b1565b6040516101809190610683565b60405180910390f35b6101916102e1565b60405161019e9190610683565b60405180910390f35b6101af610311565b6040516101bc919061044a565b60405180910390f35b6101cd610330565b6040516101da91906106e6565b60405180910390f35b600061b2fa905090565b60606040518060400160405280600881526020017f776f6e6879656f6b000000000000000000000000000000000000000000000000815250905090565b600080620697804261023c9190610730565b90508091505090565b60008061025061027c565b4361025b9190610786565b905060006102676101e3565b826102729190610786565b9050809250505090565b60006001905090565b60008060008380602001905181019061029e91906107f0565b8093508194508295505050509193909250565b6060600161b2ec6113886040516020016102cd93929190610919565b604051602081830303815290604052905090565b6060600161b2ec6113886040516020016102fd93929190610919565b604051602081830303815290604052905090565b60008061031c61027c565b436103279190610786565b90508091505090565b600030905090565b6000819050919050565b61034b81610338565b82525050565b60006020820190506103666000830184610342565b92915050565b600081519050919050565b600082825260208201905092915050565b60005b838110156103a657808201518184015260208101905061038b565b838111156103b5576000848401525b50505050565b6000601f19601f8301169050919050565b60006103d78261036c565b6103e18185610377565b93506103f1818560208601610388565b6103fa816103bb565b840191505092915050565b6000602082019050818103600083015261041f81846103cc565b905092915050565b600067ffffffffffffffff82169050919050565b61044481610427565b82525050565b600060208201905061045f600083018461043b565b92915050565b6000604051905090565b600080fd5b600080fd5b600080fd5b600080fd5b7f4e487b7100000000000000000000000000000000000000000000000000000000600052604160045260246000fd5b6104bb826103bb565b810181811067ffffffffffffffff821117156104da576104d9610483565b5b80604052505050565b60006104ed610465565b90506104f982826104b2565b919050565b600067ffffffffffffffff82111561051957610518610483565b5b610522826103bb565b9050602081019050919050565b82818337600083830152505050565b600061055161054c846104fe565b6104e3565b90508281526020810184848401111561056d5761056c61047e565b5b61057884828561052f565b509392505050565b600082601f83011261059557610594610479565b5b81356105a584826020860161053e565b91505092915050565b6000602082840312156105c4576105c361046f565b5b600082013567ffffffffffffffff8111156105e2576105e1610474565b5b6105ee84828501610580565b91505092915050565b600060608201905061060c6000830186610342565b6106196020830185610342565b6106266040830184610342565b949350505050565b600081519050919050565b600082825260208201905092915050565b60006106558261062e565b61065f8185610639565b935061066f818560208601610388565b610678816103bb565b840191505092915050565b6000602082019050818103600083015261069d818461064a565b905092915050565b600073ffffffffffffffffffffffffffffffffffffffff82169050919050565b60006106d0826106a5565b9050919050565b6106e0816106c5565b82525050565b60006020820190506106fb60008301846106d7565b92915050565b7f4e487b7100000000000000000000000000000000000000000000000000000000600052601160045260246000fd5b600061073b82610338565b915061074683610338565b9250827fffffffffffffffffffffffffffffffffffffffffffffffffffffffffffffffff0382111561077b5761077a610701565b5b828201905092915050565b600061079182610427565b915061079c83610427565b92508267ffffffffffffffff038211156107b9576107b8610701565b5b828201905092915050565b6107cd81610338565b81146107d857600080fd5b50565b6000815190506107ea816107c4565b92915050565b6000806000606084860312156108095761080861046f565b5b6000610817868287016107db565b9350506020610828868287016107db565b9250506040610839868287016107db565b9150509250925092565b6000819050919050565b600060ff82169050919050565b6000819050919050565b600061087f61087a61087584610843565b61085a565b61084d565b9050919050565b61088f81610864565b82525050565b6000819050919050565b600061ffff82169050919050565b60006108c86108c36108be84610895565b61085a565b61089f565b9050919050565b6108d8816108ad565b82525050565b6000819050919050565b60006109036108fe6108f9846108de565b61085a565b61089f565b9050919050565b610913816108e8565b82525050565b600060608201905061092e6000830186610886565b61093b60208301856108cf565b610948604083018461090a565b94935050505056fea2646970667358221220bda9b59bafe0c422ac9e9d8c9458427e0db9d6f44fdc0a14d3d995ecede4d40064736f6c634300080d0033",
					"opcodes": "PUSH1 0x80 PUSH1 0x40 MSTORE CALLVALUE DUP1 ISZERO PUSH2 0x10 JUMPI PUSH1 0x0 DUP1 REVERT JUMPDEST POP PUSH2 0x986 DUP1 PUSH2 0x20 PUSH1 0x0 CODECOPY PUSH1 0x0 RETURN INVALID PUSH1 0x80 PUSH1 0x40 MSTORE CALLVALUE DUP1 ISZERO PUSH2 0x10 JUMPI PUSH1 0x0 DUP1 REVERT JUMPDEST POP PUSH1 0x4 CALLDATASIZE LT PUSH2 0x9E JUMPI PUSH1 0x0 CALLDATALOAD PUSH1 0xE0 SHR DUP1 PUSH4 0x416BDC52 GT PUSH2 0x66 JUMPI DUP1 PUSH4 0x416BDC52 EQ PUSH2 0x139 JUMPI DUP1 PUSH4 0x6097E7A3 EQ PUSH2 0x16B JUMPI DUP1 PUSH4 0x8C492A76 EQ PUSH2 0x189 JUMPI DUP1 PUSH4 0x9711715A EQ PUSH2 0x1A7 JUMPI DUP1 PUSH4 0xFB1A746F EQ PUSH2 0x1C5 JUMPI PUSH2 0x9E JUMP JUMPDEST DUP1 PUSH4 0x2A251A3 EQ PUSH2 0xA3 JUMPI DUP1 PUSH4 0x6FDDE03 EQ PUSH2 0xC1 JUMPI DUP1 PUSH4 0x16ADA547 EQ PUSH2 0xDF JUMPI DUP1 PUSH4 0x29DCB0CF EQ PUSH2 0xFD JUMPI DUP1 PUSH4 0x3932ABB1 EQ PUSH2 0x11B JUMPI JUMPDEST PUSH1 0x0 DUP1 REVERT JUMPDEST PUSH2 0xAB PUSH2 0x1E3 JUMP JUMPDEST PUSH1 0x40 MLOAD PUSH2 0xB8 SWAP2 SWAP1 PUSH2 0x351 JUMP JUMPDEST PUSH1 0x40 MLOAD DUP1 SWAP2 SUB SWAP1 RETURN JUMPDEST PUSH2 0xC9 PUSH2 0x1ED JUMP JUMPDEST PUSH1 0x40 MLOAD PUSH2 0xD6 SWAP2 SWAP1 PUSH2 0x405 JUMP JUMPDEST PUSH1 0x40 MLOAD DUP1 SWAP2 SUB SWAP1 RETURN JUMPDEST PUSH2 0xE7 PUSH2 0x22A JUMP JUMPDEST PUSH1 0x40 MLOAD PUSH2 0xF4 SWAP2 SWAP1 PUSH2 0x351 JUMP JUMPDEST PUSH1 0x40 MLOAD DUP1 SWAP2 SUB SWAP1 RETURN JUMPDEST PUSH2 0x105 PUSH2 0x245 JUMP JUMPDEST PUSH1 0x40 MLOAD PUSH2 0x112 SWAP2 SWAP1 PUSH2 0x44A JUMP JUMPDEST PUSH1 0x40 MLOAD DUP1 SWAP2 SUB SWAP1 RETURN JUMPDEST PUSH2 0x123 PUSH2 0x27C JUMP JUMPDEST PUSH1 0x40 MLOAD PUSH2 0x130 SWAP2 SWAP1 PUSH2 0x351 JUMP JUMPDEST PUSH1 0x40 MLOAD DUP1 SWAP2 SUB SWAP1 RETURN JUMPDEST PUSH2 0x153 PUSH1 0x4 DUP1 CALLDATASIZE SUB DUP2 ADD SWAP1 PUSH2 0x14E SWAP2 SWAP1 PUSH2 0x5AE JUMP JUMPDEST PUSH2 0x285 JUMP JUMPDEST PUSH1 0x40 MLOAD PUSH2 0x162 SWAP4 SWAP3 SWAP2 SWAP1 PUSH2 0x5F7 JUMP JUMPDEST PUSH1 0x40 MLOAD DUP1 SWAP2 SUB SWAP1 RETURN JUMPDEST PUSH2 0x173 PUSH2 0x2B1 JUMP JUMPDEST PUSH1 0x40 MLOAD PUSH2 0x180 SWAP2 SWAP1 PUSH2 0x683 JUMP JUMPDEST PUSH1 0x40 MLOAD DUP1 SWAP2 SUB SWAP1 RETURN JUMPDEST PUSH2 0x191 PUSH2 0x2E1 JUMP JUMPDEST PUSH1 0x40 MLOAD PUSH2 0x19E SWAP2 SWAP1 PUSH2 0x683 JUMP JUMPDEST PUSH1 0x40 MLOAD DUP1 SWAP2 SUB SWAP1 RETURN JUMPDEST PUSH2 0x1AF PUSH2 0x311 JUMP JUMPDEST PUSH1 0x40 MLOAD PUSH2 0x1BC SWAP2 SWAP1 PUSH2 0x44A JUMP JUMPDEST PUSH1 0x40 MLOAD DUP1 SWAP2 SUB SWAP1 RETURN JUMPDEST PUSH2 0x1CD PUSH2 0x330 JUMP JUMPDEST PUSH1 0x40 MLOAD PUSH2 0x1DA SWAP2 SWAP1 PUSH2 0x6E6 JUMP JUMPDEST PUSH1 0x40 MLOAD DUP1 SWAP2 SUB SWAP1 RETURN JUMPDEST PUSH1 0x0 PUSH2 0xB2FA SWAP1 POP SWAP1 JUMP JUMPDEST PUSH1 0x60 PUSH1 0x40 MLOAD DUP1 PUSH1 0x40 ADD PUSH1 0x40 MSTORE DUP1 PUSH1 0x8 DUP2 MSTORE PUSH1 0x20 ADD PUSH32 0x776F6E6879656F6B000000000000000000000000000000000000000000000000 DUP2 MSTORE POP SWAP1 POP SWAP1 JUMP JUMPDEST PUSH1 0x0 DUP1 PUSH3 0x69780 TIMESTAMP PUSH2 0x23C SWAP2 SWAP1 PUSH2 0x730 JUMP JUMPDEST SWAP1 POP DUP1 SWAP2 POP POP SWAP1 JUMP JUMPDEST PUSH1 0x0 DUP1 PUSH2 0x250 PUSH2 0x27C JUMP JUMPDEST NUMBER PUSH2 0x25B SWAP2 SWAP1 PUSH2 0x786 JUMP JUMPDEST SWAP1 POP PUSH1 0x0 PUSH2 0x267 PUSH2 0x1E3 JUMP JUMPDEST DUP3 PUSH2 0x272 SWAP2 SWAP1 PUSH2 0x786 JUMP JUMPDEST SWAP1 POP DUP1 SWAP3 POP POP POP SWAP1 JUMP JUMPDEST PUSH1 0x0 PUSH1 0x1 SWAP1 POP SWAP1 JUMP JUMPDEST PUSH1 0x0 DUP1 PUSH1 0x0 DUP4 DUP1 PUSH1 0x20 ADD SWAP1 MLOAD DUP2 ADD SWAP1 PUSH2 0x29E SWAP2 SWAP1 PUSH2 0x7F0 JUMP JUMPDEST DUP1 SWAP4 POP DUP2 SWAP5 POP DUP3 SWAP6 POP POP POP POP SWAP2 SWAP4 SWAP1 SWAP3 POP JUMP JUMPDEST PUSH1 0x60 PUSH1 0x1 PUSH2 0xB2EC PUSH2 0x1388 PUSH1 0x40 MLOAD PUSH1 0x20 ADD PUSH2 0x2CD SWAP4 SWAP3 SWAP2 SWAP1 PUSH2 0x919 JUMP JUMPDEST PUSH1 0x40 MLOAD PUSH1 0x20 DUP2 DUP4 SUB SUB DUP2 MSTORE SWAP1 PUSH1 0x40 MSTORE SWAP1 POP SWAP1 JUMP JUMPDEST PUSH1 0x60 PUSH1 0x1 PUSH2 0xB2EC PUSH2 0x1388 PUSH1 0x40 MLOAD PUSH1 0x20 ADD PUSH2 0x2FD SWAP4 SWAP3 SWAP2 SWAP1 PUSH2 0x919 JUMP JUMPDEST PUSH1 0x40 MLOAD PUSH1 0x20 DUP2 DUP4 SUB SUB DUP2 MSTORE SWAP1 PUSH1 0x40 MSTORE SWAP1 POP SWAP1 JUMP JUMPDEST PUSH1 0x0 DUP1 PUSH2 0x31C PUSH2 0x27C JUMP JUMPDEST NUMBER PUSH2 0x327 SWAP2 SWAP1 PUSH2 0x786 JUMP JUMPDEST SWAP1 POP DUP1 SWAP2 POP POP SWAP1 JUMP JUMPDEST PUSH1 0x0 ADDRESS SWAP1 POP SWAP1 JUMP JUMPDEST PUSH1 0x0 DUP2 SWAP1 POP SWAP2 SWAP1 POP JUMP JUMPDEST PUSH2 0x34B DUP2 PUSH2 0x338 JUMP JUMPDEST DUP3 MSTORE POP POP JUMP JUMPDEST PUSH1 0x0 PUSH1 0x20 DUP3 ADD SWAP1 POP PUSH2 0x366 PUSH1 0x0 DUP4 ADD DUP5 PUSH2 0x342 JUMP JUMPDEST SWAP3 SWAP2 POP POP JUMP JUMPDEST PUSH1 0x0 DUP2 MLOAD SWAP1 POP SWAP2 SWAP1 POP JUMP JUMPDEST PUSH1 0x0 DUP3 DUP3 MSTORE PUSH1 0x20 DUP3 ADD SWAP1 POP SWAP3 SWAP2 POP POP JUMP JUMPDEST PUSH1 0x0 JUMPDEST DUP4 DUP2 LT ISZERO PUSH2 0x3A6 JUMPI DUP1 DUP3 ADD MLOAD DUP2 DUP5 ADD MSTORE PUSH1 0x20 DUP2 ADD SWAP1 POP PUSH2 0x38B JUMP JUMPDEST DUP4 DUP2 GT ISZERO PUSH2 0x3B5 JUMPI PUSH1 0x0 DUP5 DUP5 ADD MSTORE JUMPDEST POP POP POP POP JUMP JUMPDEST PUSH1 0x0 PUSH1 0x1F NOT PUSH1 0x1F DUP4 ADD AND SWAP1 POP SWAP2 SWAP1 POP JUMP JUMPDEST PUSH1 0x0 PUSH2 0x3D7 DUP3 PUSH2 0x36C JUMP JUMPDEST PUSH2 0x3E1 DUP2 DUP6 PUSH2 0x377 JUMP JUMPDEST SWAP4 POP PUSH2 0x3F1 DUP2 DUP6 PUSH1 0x20 DUP7 ADD PUSH2 0x388 JUMP JUMPDEST PUSH2 0x3FA DUP2 PUSH2 0x3BB JUMP JUMPDEST DUP5 ADD SWAP2 POP POP SWAP3 SWAP2 POP POP JUMP JUMPDEST PUSH1 0x0 PUSH1 0x20 DUP3 ADD SWAP1 POP DUP2 DUP2 SUB PUSH1 0x0 DUP4 ADD MSTORE PUSH2 0x41F DUP2 DUP5 PUSH2 0x3CC JUMP JUMPDEST SWAP1 POP SWAP3 SWAP2 POP POP JUMP JUMPDEST PUSH1 0x0 PUSH8 0xFFFFFFFFFFFFFFFF DUP3 AND SWAP1 POP SWAP2 SWAP1 POP JUMP JUMPDEST PUSH2 0x444 DUP2 PUSH2 0x427 JUMP JUMPDEST DUP3 MSTORE POP POP JUMP JUMPDEST PUSH1 0x0 PUSH1 0x20 DUP3 ADD SWAP1 POP PUSH2 0x45F PUSH1 0x0 DUP4 ADD DUP5 PUSH2 0x43B JUMP JUMPDEST SWAP3 SWAP2 POP POP JUMP JUMPDEST PUSH1 0x0 PUSH1 0x40 MLOAD SWAP1 POP SWAP1 JUMP JUMPDEST PUSH1 0x0 DUP1 REVERT JUMPDEST PUSH1 0x0 DUP1 REVERT JUMPDEST PUSH1 0x0 DUP1 REVERT JUMPDEST PUSH1 0x0 DUP1 REVERT JUMPDEST PUSH32 0x4E487B7100000000000000000000000000000000000000000000000000000000 PUSH1 0x0 MSTORE PUSH1 0x41 PUSH1 0x4 MSTORE PUSH1 0x24 PUSH1 0x0 REVERT JUMPDEST PUSH2 0x4BB DUP3 PUSH2 0x3BB JUMP JUMPDEST DUP2 ADD DUP2 DUP2 LT PUSH8 0xFFFFFFFFFFFFFFFF DUP3 GT OR ISZERO PUSH2 0x4DA JUMPI PUSH2 0x4D9 PUSH2 0x483 JUMP JUMPDEST JUMPDEST DUP1 PUSH1 0x40 MSTORE POP POP POP JUMP JUMPDEST PUSH1 0x0 PUSH2 0x4ED PUSH2 0x465 JUMP JUMPDEST SWAP1 POP PUSH2 0x4F9 DUP3 DUP3 PUSH2 0x4B2 JUMP JUMPDEST SWAP2 SWAP1 POP JUMP JUMPDEST PUSH1 0x0 PUSH8 0xFFFFFFFFFFFFFFFF DUP3 GT ISZERO PUSH2 0x519 JUMPI PUSH2 0x518 PUSH2 0x483 JUMP JUMPDEST JUMPDEST PUSH2 0x522 DUP3 PUSH2 0x3BB JUMP JUMPDEST SWAP1 POP PUSH1 0x20 DUP2 ADD SWAP1 POP SWAP2 SWAP1 POP JUMP JUMPDEST DUP3 DUP2 DUP4 CALLDATACOPY PUSH1 0x0 DUP4 DUP4 ADD MSTORE POP POP POP JUMP JUMPDEST PUSH1 0x0 PUSH2 0x551 PUSH2 0x54C DUP5 PUSH2 0x4FE JUMP JUMPDEST PUSH2 0x4E3 JUMP JUMPDEST SWAP1 POP DUP3 DUP2 MSTORE PUSH1 0x20 DUP2 ADD DUP5 DUP5 DUP5 ADD GT ISZERO PUSH2 0x56D JUMPI PUSH2 0x56C PUSH2 0x47E JUMP JUMPDEST JUMPDEST PUSH2 0x578 DUP5 DUP3 DUP6 PUSH2 0x52F JUMP JUMPDEST POP SWAP4 SWAP3 POP POP POP JUMP JUMPDEST PUSH1 0x0 DUP3 PUSH1 0x1F DUP4 ADD SLT PUSH2 0x595 JUMPI PUSH2 0x594 PUSH2 0x479 JUMP JUMPDEST JUMPDEST DUP2 CALLDATALOAD PUSH2 0x5A5 DUP5 DUP3 PUSH1 0x20 DUP7 ADD PUSH2 0x53E JUMP JUMPDEST SWAP2 POP POP SWAP3 SWAP2 POP POP JUMP JUMPDEST PUSH1 0x0 PUSH1 0x20 DUP3 DUP5 SUB SLT ISZERO PUSH2 0x5C4 JUMPI PUSH2 0x5C3 PUSH2 0x46F JUMP JUMPDEST JUMPDEST PUSH1 0x0 DUP3 ADD CALLDATALOAD PUSH8 0xFFFFFFFFFFFFFFFF DUP2 GT ISZERO PUSH2 0x5E2 JUMPI PUSH2 0x5E1 PUSH2 0x474 JUMP JUMPDEST JUMPDEST PUSH2 0x5EE DUP5 DUP3 DUP6 ADD PUSH2 0x580 JUMP JUMPDEST SWAP2 POP POP SWAP3 SWAP2 POP POP JUMP JUMPDEST PUSH1 0x0 PUSH1 0x60 DUP3 ADD SWAP1 POP PUSH2 0x60C PUSH1 0x0 DUP4 ADD DUP7 PUSH2 0x342 JUMP JUMPDEST PUSH2 0x619 PUSH1 0x20 DUP4 ADD DUP6 PUSH2 0x342 JUMP JUMPDEST PUSH2 0x626 PUSH1 0x40 DUP4 ADD DUP5 PUSH2 0x342 JUMP JUMPDEST SWAP5 SWAP4 POP POP POP POP JUMP JUMPDEST PUSH1 0x0 DUP2 MLOAD SWAP1 POP SWAP2 SWAP1 POP JUMP JUMPDEST PUSH1 0x0 DUP3 DUP3 MSTORE PUSH1 0x20 DUP3 ADD SWAP1 POP SWAP3 SWAP2 POP POP JUMP JUMPDEST PUSH1 0x0 PUSH2 0x655 DUP3 PUSH2 0x62E JUMP JUMPDEST PUSH2 0x65F DUP2 DUP6 PUSH2 0x639 JUMP JUMPDEST SWAP4 POP PUSH2 0x66F DUP2 DUP6 PUSH1 0x20 DUP7 ADD PUSH2 0x388 JUMP JUMPDEST PUSH2 0x678 DUP2 PUSH2 0x3BB JUMP JUMPDEST DUP5 ADD SWAP2 POP POP SWAP3 SWAP2 POP POP JUMP JUMPDEST PUSH1 0x0 PUSH1 0x20 DUP3 ADD SWAP1 POP DUP2 DUP2 SUB PUSH1 0x0 DUP4 ADD MSTORE PUSH2 0x69D DUP2 DUP5 PUSH2 0x64A JUMP JUMPDEST SWAP1 POP SWAP3 SWAP2 POP POP JUMP JUMPDEST PUSH1 0x0 PUSH20 0xFFFFFFFFFFFFFFFFFFFFFFFFFFFFFFFFFFFFFFFF DUP3 AND SWAP1 POP SWAP2 SWAP1 POP JUMP JUMPDEST PUSH1 0x0 PUSH2 0x6D0 DUP3 PUSH2 0x6A5 JUMP JUMPDEST SWAP1 POP SWAP2 SWAP1 POP JUMP JUMPDEST PUSH2 0x6E0 DUP2 PUSH2 0x6C5 JUMP JUMPDEST DUP3 MSTORE POP POP JUMP JUMPDEST PUSH1 0x0 PUSH1 0x20 DUP3 ADD SWAP1 POP PUSH2 0x6FB PUSH1 0x0 DUP4 ADD DUP5 PUSH2 0x6D7 JUMP JUMPDEST SWAP3 SWAP2 POP POP JUMP JUMPDEST PUSH32 0x4E487B7100000000000000000000000000000000000000000000000000000000 PUSH1 0x0 MSTORE PUSH1 0x11 PUSH1 0x4 MSTORE PUSH1 0x24 PUSH1 0x0 REVERT JUMPDEST PUSH1 0x0 PUSH2 0x73B DUP3 PUSH2 0x338 JUMP JUMPDEST SWAP2 POP PUSH2 0x746 DUP4 PUSH2 0x338 JUMP JUMPDEST SWAP3 POP DUP3 PUSH32 0xFFFFFFFFFFFFFFFFFFFFFFFFFFFFFFFFFFFFFFFFFFFFFFFFFFFFFFFFFFFFFFFF SUB DUP3 GT ISZERO PUSH2 0x77B JUMPI PUSH2 0x77A PUSH2 0x701 JUMP JUMPDEST JUMPDEST DUP3 DUP3 ADD SWAP1 POP SWAP3 SWAP2 POP POP JUMP JUMPDEST PUSH1 0x0 PUSH2 0x791 DUP3 PUSH2 0x427 JUMP JUMPDEST SWAP2 POP PUSH2 0x79C DUP4 PUSH2 0x427 JUMP JUMPDEST SWAP3 POP DUP3 PUSH8 0xFFFFFFFFFFFFFFFF SUB DUP3 GT ISZERO PUSH2 0x7B9 JUMPI PUSH2 0x7B8 PUSH2 0x701 JUMP JUMPDEST JUMPDEST DUP3 DUP3 ADD SWAP1 POP SWAP3 SWAP2 POP POP JUMP JUMPDEST PUSH2 0x7CD DUP2 PUSH2 0x338 JUMP JUMPDEST DUP2 EQ PUSH2 0x7D8 JUMPI PUSH1 0x0 DUP1 REVERT JUMPDEST POP JUMP JUMPDEST PUSH1 0x0 DUP2 MLOAD SWAP1 POP PUSH2 0x7EA DUP2 PUSH2 0x7C4 JUMP JUMPDEST SWAP3 SWAP2 POP POP JUMP JUMPDEST PUSH1 0x0 DUP1 PUSH1 0x0 PUSH1 0x60 DUP5 DUP7 SUB SLT ISZERO PUSH2 0x809 JUMPI PUSH2 0x808 PUSH2 0x46F JUMP JUMPDEST JUMPDEST PUSH1 0x0 PUSH2 0x817 DUP7 DUP3 DUP8 ADD PUSH2 0x7DB JUMP JUMPDEST SWAP4 POP POP PUSH1 0x20 PUSH2 0x828 DUP7 DUP3 DUP8 ADD PUSH2 0x7DB JUMP JUMPDEST SWAP3 POP POP PUSH1 0x40 PUSH2 0x839 DUP7 DUP3 DUP8 ADD PUSH2 0x7DB JUMP JUMPDEST SWAP2 POP POP SWAP3 POP SWAP3 POP SWAP3 JUMP JUMPDEST PUSH1 0x0 DUP2 SWAP1 POP SWAP2 SWAP1 POP JUMP JUMPDEST PUSH1 0x0 PUSH1 0xFF DUP3 AND SWAP1 POP SWAP2 SWAP1 POP JUMP JUMPDEST PUSH1 0x0 DUP2 SWAP1 POP SWAP2 SWAP1 POP JUMP JUMPDEST PUSH1 0x0 PUSH2 0x87F PUSH2 0x87A PUSH2 0x875 DUP5 PUSH2 0x843 JUMP JUMPDEST PUSH2 0x85A JUMP JUMPDEST PUSH2 0x84D JUMP JUMPDEST SWAP1 POP SWAP2 SWAP1 POP JUMP JUMPDEST PUSH2 0x88F DUP2 PUSH2 0x864 JUMP JUMPDEST DUP3 MSTORE POP POP JUMP JUMPDEST PUSH1 0x0 DUP2 SWAP1 POP SWAP2 SWAP1 POP JUMP JUMPDEST PUSH1 0x0 PUSH2 0xFFFF DUP3 AND SWAP1 POP SWAP2 SWAP1 POP JUMP JUMPDEST PUSH1 0x0 PUSH2 0x8C8 PUSH2 0x8C3 PUSH2 0x8BE DUP5 PUSH2 0x895 JUMP JUMPDEST PUSH2 0x85A JUMP JUMPDEST PUSH2 0x89F JUMP JUMPDEST SWAP1 POP SWAP2 SWAP1 POP JUMP JUMPDEST PUSH2 0x8D8 DUP2 PUSH2 0x8AD JUMP JUMPDEST DUP3 MSTORE POP POP JUMP JUMPDEST PUSH1 0x0 DUP2 SWAP1 POP SWAP2 SWAP1 POP JUMP JUMPDEST PUSH1 0x0 PUSH2 0x903 PUSH2 0x8FE PUSH2 0x8F9 DUP5 PUSH2 0x8DE JUMP JUMPDEST PUSH2 0x85A JUMP JUMPDEST PUSH2 0x89F JUMP JUMPDEST SWAP1 POP SWAP2 SWAP1 POP JUMP JUMPDEST PUSH2 0x913 DUP2 PUSH2 0x8E8 JUMP JUMPDEST DUP3 MSTORE POP POP JUMP JUMPDEST PUSH1 0x0 PUSH1 0x60 DUP3 ADD SWAP1 POP PUSH2 0x92E PUSH1 0x0 DUP4 ADD DUP7 PUSH2 0x886 JUMP JUMPDEST PUSH2 0x93B PUSH1 0x20 DUP4 ADD DUP6 PUSH2 0x8CF JUMP JUMPDEST PUSH2 0x948 PUSH1 0x40 DUP4 ADD DUP5 PUSH2 0x90A JUMP JUMPDEST SWAP5 SWAP4 POP POP POP POP JUMP INVALID LOG2 PUSH5 0x6970667358 0x22 SLT KECCAK256 0xBD 0xA9 0xB5 SWAP12 0xAF 0xE0 0xC4 0x22 0xAC SWAP15 SWAP14 DUP13 SWAP5 PC TIMESTAMP PUSH31 0xDB9D6F44FDC0A14D3D995ECEDE4D40064736F6C634300080D003300000000 "
				},
				"gasEstimates": {
					"creation": {
						"codeDepositCost": "487600",
						"executionCost": "524",
						"totalCost": "488124"
					},
					"external": {
						"_executor()": "473",
						"abiDecode(bytes)": "infinite",
						"abiEncode()": "infinite",
						"deadline()": "infinite",
						"keccak256test()": "infinite",
						"name()": "infinite",
						"snapshot()": "infinite",
						"time()": "infinite",
						"votingDelay()": "426",
						"votingPeriod()": "338"
					}
				},
				"methodIdentifiers": {
					"_executor()": "fb1a746f",
					"abiDecode(bytes)": "416bdc52",
					"abiEncode()": "6097e7a3",
					"deadline()": "29dcb0cf",
					"keccak256test()": "8c492a76",
					"name()": "06fdde03",
					"snapshot()": "9711715a",
					"time()": "16ada547",
					"votingDelay()": "3932abb1",
					"votingPeriod()": "02a251a3"
				}
			},
			"storageLayout": {
				"storage": [
					{
						"astId": 13,
						"contract": ".workspaces/default_workspace/unMiracle/test.sol:test",
						"label": "_testS",
						"offset": 0,
						"slot": "0",
						"type": "t_mapping(t_uint256,t_struct(testS)8_storage)"
					}
				],
				"types": {
					"t_mapping(t_uint256,t_struct(testS)8_storage)": {
						"encoding": "mapping",
						"key": "t_uint256",
						"label": "mapping(uint256 => struct test.testS)",
						"numberOfBytes": "32",
						"value": "t_struct(testS)8_storage"
					},
					"t_string_storage": {
						"encoding": "bytes",
						"label": "string",
						"numberOfBytes": "32"
					},
					"t_struct(testS)8_storage": {
						"encoding": "inplace",
						"label": "struct test.testS",
						"members": [
							{
								"astId": 5,
								"contract": ".workspaces/default_workspace/unMiracle/test.sol:test",
								"label": "name",
								"offset": 0,
								"slot": "0",
								"type": "t_string_storage"
							},
							{
								"astId": 7,
								"contract": ".workspaces/default_workspace/unMiracle/test.sol:test",
								"label": "num",
								"offset": 0,
								"slot": "1",
								"type": "t_uint256"
							}
						],
						"numberOfBytes": "64"
					},
					"t_uint256": {
						"encoding": "inplace",
						"label": "uint256",
						"numberOfBytes": "32"
					}
				}
			},
			"userdoc": {
				"kind": "user",
				"methods": {},
				"version": 1
			}
		}
	}
}