{
	".workspaces/default_workspace/unMiracle/test.sol": {
		"test": {
			"abi": [
				{
					"inputs": [],
					"name": "testTime",
					"outputs": [
						{
							"internalType": "uint64",
							"name": "",
							"type": "uint64"
						}
					],
					"stateMutability": "view",
					"type": "function"
				},
				{
					"inputs": [],
					"name": "votingDelay",
					"outputs": [
						{
							"internalType": "uint256",
							"name": "",
							"type": "uint256"
						}
					],
					"stateMutability": "pure",
					"type": "function"
				},
				{
					"inputs": [],
					"name": "votingPeriod",
					"outputs": [
						{
							"internalType": "uint256",
							"name": "",
							"type": "uint256"
						}
					],
					"stateMutability": "pure",
					"type": "function"
				}
			],
			"devdoc": {
				"kind": "dev",
				"methods": {},
				"version": 1
			},
			"evm": {
				"assembly": "    /* \".workspaces/default_workspace/unMiracle/test.sol\":170:587  contract test {... */\n  mstore(0x40, 0x80)\n  callvalue\n  dup1\n  iszero\n  tag_1\n  jumpi\n  0x00\n  dup1\n  revert\ntag_1:\n  pop\n  dataSize(sub_0)\n  dup1\n  dataOffset(sub_0)\n  0x00\n  codecopy\n  0x00\n  return\nstop\n\nsub_0: assembly {\n        /* \".workspaces/default_workspace/unMiracle/test.sol\":170:587  contract test {... */\n      mstore(0x40, 0x80)\n      callvalue\n      dup1\n      iszero\n      tag_1\n      jumpi\n      0x00\n      dup1\n      revert\n    tag_1:\n      pop\n      jumpi(tag_2, lt(calldatasize, 0x04))\n      shr(0xe0, calldataload(0x00))\n      dup1\n      0x02a251a3\n      eq\n      tag_3\n      jumpi\n      dup1\n      0x3932abb1\n      eq\n      tag_4\n      jumpi\n      dup1\n      0x3c35a0c1\n      eq\n      tag_5\n      jumpi\n    tag_2:\n      0x00\n      dup1\n      revert\n        /* \".workspaces/default_workspace/unMiracle/test.sol\":274:365  function votingPeriod() public pure returns(uint256) {... */\n    tag_3:\n      tag_6\n      tag_7\n      jump\t// in\n    tag_6:\n      mload(0x40)\n      tag_8\n      swap2\n      swap1\n      tag_9\n      jump\t// in\n    tag_8:\n      mload(0x40)\n      dup1\n      swap2\n      sub\n      swap1\n      return\n        /* \".workspaces/default_workspace/unMiracle/test.sol\":191:268  function votingDelay() public pure returns(uint256) {... */\n    tag_4:\n      tag_10\n      tag_11\n      jump\t// in\n    tag_10:\n      mload(0x40)\n      tag_12\n      swap2\n      swap1\n      tag_9\n      jump\t// in\n    tag_12:\n      mload(0x40)\n      dup1\n      swap2\n      sub\n      swap1\n      return\n        /* \".workspaces/default_workspace/unMiracle/test.sol\":371:585  function testTime() public view returns(uint64) {... */\n    tag_5:\n      tag_13\n      tag_14\n      jump\t// in\n    tag_13:\n      mload(0x40)\n      tag_15\n      swap2\n      swap1\n      tag_16\n      jump\t// in\n    tag_15:\n      mload(0x40)\n      dup1\n      swap2\n      sub\n      swap1\n      return\n        /* \".workspaces/default_workspace/unMiracle/test.sol\":274:365  function votingPeriod() public pure returns(uint256) {... */\n    tag_7:\n        /* \".workspaces/default_workspace/unMiracle/test.sol\":318:325  uint256 */\n      0x00\n        /* \".workspaces/default_workspace/unMiracle/test.sol\":344:349  45818 */\n      0xb2fa\n        /* \".workspaces/default_workspace/unMiracle/test.sol\":337:349  return 45818 */\n      swap1\n      pop\n        /* \".workspaces/default_workspace/unMiracle/test.sol\":274:365  function votingPeriod() public pure returns(uint256) {... */\n      swap1\n      jump\t// out\n        /* \".workspaces/default_workspace/unMiracle/test.sol\":191:268  function votingDelay() public pure returns(uint256) {... */\n    tag_11:\n        /* \".workspaces/default_workspace/unMiracle/test.sol\":234:241  uint256 */\n      0x00\n        /* \".workspaces/default_workspace/unMiracle/test.sol\":260:261  1 */\n      0x01\n        /* \".workspaces/default_workspace/unMiracle/test.sol\":253:261  return 1 */\n      swap1\n      pop\n        /* \".workspaces/default_workspace/unMiracle/test.sol\":191:268  function votingDelay() public pure returns(uint256) {... */\n      swap1\n      jump\t// out\n        /* \".workspaces/default_workspace/unMiracle/test.sol\":371:585  function testTime() public view returns(uint64) {... */\n    tag_14:\n        /* \".workspaces/default_workspace/unMiracle/test.sol\":411:417  uint64 */\n      0x00\n        /* \".workspaces/default_workspace/unMiracle/test.sol\":429:444  uint64 snapshot */\n      dup1\n        /* \".workspaces/default_workspace/unMiracle/test.sol\":477:490  votingDelay() */\n      tag_20\n        /* \".workspaces/default_workspace/unMiracle/test.sol\":477:488  votingDelay */\n      tag_11\n        /* \".workspaces/default_workspace/unMiracle/test.sol\":477:490  votingDelay() */\n      jump\t// in\n    tag_20:\n        /* \".workspaces/default_workspace/unMiracle/test.sol\":454:466  block.number */\n      number\n        /* \".workspaces/default_workspace/unMiracle/test.sol\":447:491  uint64(block.number) + uint64(votingDelay()) */\n      tag_21\n      swap2\n      swap1\n      tag_22\n      jump\t// in\n    tag_21:\n        /* \".workspaces/default_workspace/unMiracle/test.sol\":429:491  uint64 snapshot = uint64(block.number) + uint64(votingDelay()) */\n      swap1\n      pop\n        /* \".workspaces/default_workspace/unMiracle/test.sol\":501:516  uint64 deadline */\n      0x00\n        /* \".workspaces/default_workspace/unMiracle/test.sol\":537:551  votingPeriod() */\n      tag_23\n        /* \".workspaces/default_workspace/unMiracle/test.sol\":537:549  votingPeriod */\n      tag_7\n        /* \".workspaces/default_workspace/unMiracle/test.sol\":537:551  votingPeriod() */\n      jump\t// in\n    tag_23:\n        /* \".workspaces/default_workspace/unMiracle/test.sol\":519:527  snapshot */\n      dup3\n        /* \".workspaces/default_workspace/unMiracle/test.sol\":519:552  snapshot + uint64(votingPeriod()) */\n      tag_24\n      swap2\n      swap1\n      tag_22\n      jump\t// in\n    tag_24:\n        /* \".workspaces/default_workspace/unMiracle/test.sol\":501:552  uint64 deadline = snapshot + uint64(votingPeriod()) */\n      swap1\n      pop\n        /* \".workspaces/default_workspace/unMiracle/test.sol\":570:578  deadline */\n      dup1\n        /* \".workspaces/default_workspace/unMiracle/test.sol\":563:578  return deadline */\n      swap3\n      pop\n      pop\n      pop\n        /* \".workspaces/default_workspace/unMiracle/test.sol\":371:585  function testTime() public view returns(uint64) {... */\n      swap1\n      jump\t// out\n        /* \"#utility.yul\":7:125   */\n    tag_26:\n        /* \"#utility.yul\":94:118   */\n      tag_28\n        /* \"#utility.yul\":112:117   */\n      dup2\n        /* \"#utility.yul\":94:118   */\n      tag_29\n      jump\t// in\n    tag_28:\n        /* \"#utility.yul\":89:92   */\n      dup3\n        /* \"#utility.yul\":82:119   */\n      mstore\n        /* \"#utility.yul\":72:125   */\n      pop\n      pop\n      jump\t// out\n        /* \"#utility.yul\":131:246   */\n    tag_30:\n        /* \"#utility.yul\":216:239   */\n      tag_32\n        /* \"#utility.yul\":233:238   */\n      dup2\n        /* \"#utility.yul\":216:239   */\n      tag_33\n      jump\t// in\n    tag_32:\n        /* \"#utility.yul\":211:214   */\n      dup3\n        /* \"#utility.yul\":204:240   */\n      mstore\n        /* \"#utility.yul\":194:246   */\n      pop\n      pop\n      jump\t// out\n        /* \"#utility.yul\":252:474   */\n    tag_9:\n        /* \"#utility.yul\":345:349   */\n      0x00\n        /* \"#utility.yul\":383:385   */\n      0x20\n        /* \"#utility.yul\":372:381   */\n      dup3\n        /* \"#utility.yul\":368:386   */\n      add\n        /* \"#utility.yul\":360:386   */\n      swap1\n      pop\n        /* \"#utility.yul\":396:467   */\n      tag_35\n        /* \"#utility.yul\":464:465   */\n      0x00\n        /* \"#utility.yul\":453:462   */\n      dup4\n        /* \"#utility.yul\":449:466   */\n      add\n        /* \"#utility.yul\":440:446   */\n      dup5\n        /* \"#utility.yul\":396:467   */\n      tag_26\n      jump\t// in\n    tag_35:\n        /* \"#utility.yul\":350:474   */\n      swap3\n      swap2\n      pop\n      pop\n      jump\t// out\n        /* \"#utility.yul\":480:698   */\n    tag_16:\n        /* \"#utility.yul\":571:575   */\n      0x00\n        /* \"#utility.yul\":609:611   */\n      0x20\n        /* \"#utility.yul\":598:607   */\n      dup3\n        /* \"#utility.yul\":594:612   */\n      add\n        /* \"#utility.yul\":586:612   */\n      swap1\n      pop\n        /* \"#utility.yul\":622:691   */\n      tag_37\n        /* \"#utility.yul\":688:689   */\n      0x00\n        /* \"#utility.yul\":677:686   */\n      dup4\n        /* \"#utility.yul\":673:690   */\n      add\n        /* \"#utility.yul\":664:670   */\n      dup5\n        /* \"#utility.yul\":622:691   */\n      tag_30\n      jump\t// in\n    tag_37:\n        /* \"#utility.yul\":576:698   */\n      swap3\n      swap2\n      pop\n      pop\n      jump\t// out\n        /* \"#utility.yul\":704:958   */\n    tag_22:\n        /* \"#utility.yul\":743:746   */\n      0x00\n        /* \"#utility.yul\":762:781   */\n      tag_39\n        /* \"#utility.yul\":779:780   */\n      dup3\n        /* \"#utility.yul\":762:781   */\n      tag_33\n      jump\t// in\n    tag_39:\n        /* \"#utility.yul\":757:781   */\n      swap2\n      pop\n        /* \"#utility.yul\":795:814   */\n      tag_40\n        /* \"#utility.yul\":812:813   */\n      dup4\n        /* \"#utility.yul\":795:814   */\n      tag_33\n      jump\t// in\n    tag_40:\n        /* \"#utility.yul\":790:814   */\n      swap3\n      pop\n        /* \"#utility.yul\":900:901   */\n      dup3\n        /* \"#utility.yul\":880:898   */\n      0xffffffffffffffff\n        /* \"#utility.yul\":876:902   */\n      sub\n        /* \"#utility.yul\":873:874   */\n      dup3\n        /* \"#utility.yul\":870:903   */\n      gt\n        /* \"#utility.yul\":867:869   */\n      iszero\n      tag_41\n      jumpi\n        /* \"#utility.yul\":906:924   */\n      tag_42\n      tag_43\n      jump\t// in\n    tag_42:\n        /* \"#utility.yul\":867:869   */\n    tag_41:\n        /* \"#utility.yul\":950:951   */\n      dup3\n        /* \"#utility.yul\":947:948   */\n      dup3\n        /* \"#utility.yul\":943:952   */\n      add\n        /* \"#utility.yul\":936:952   */\n      swap1\n      pop\n        /* \"#utility.yul\":747:958   */\n      swap3\n      swap2\n      pop\n      pop\n      jump\t// out\n        /* \"#utility.yul\":964:1041   */\n    tag_29:\n        /* \"#utility.yul\":1001:1008   */\n      0x00\n        /* \"#utility.yul\":1030:1035   */\n      dup2\n        /* \"#utility.yul\":1019:1035   */\n      swap1\n      pop\n        /* \"#utility.yul\":1009:1041   */\n      swap2\n      swap1\n      pop\n      jump\t// out\n        /* \"#utility.yul\":1047:1148   */\n    tag_33:\n        /* \"#utility.yul\":1083:1090   */\n      0x00\n        /* \"#utility.yul\":1123:1141   */\n      0xffffffffffffffff\n        /* \"#utility.yul\":1116:1121   */\n      dup3\n        /* \"#utility.yul\":1112:1142   */\n      and\n        /* \"#utility.yul\":1101:1142   */\n      swap1\n      pop\n        /* \"#utility.yul\":1091:1148   */\n      swap2\n      swap1\n      pop\n      jump\t// out\n        /* \"#utility.yul\":1154:1334   */\n    tag_43:\n        /* \"#utility.yul\":1202:1279   */\n      0x4e487b7100000000000000000000000000000000000000000000000000000000\n        /* \"#utility.yul\":1199:1200   */\n      0x00\n        /* \"#utility.yul\":1192:1280   */\n      mstore\n        /* \"#utility.yul\":1299:1303   */\n      0x11\n        /* \"#utility.yul\":1296:1297   */\n      0x04\n        /* \"#utility.yul\":1289:1304   */\n      mstore\n        /* \"#utility.yul\":1323:1327   */\n      0x24\n        /* \"#utility.yul\":1320:1321   */\n      0x00\n        /* \"#utility.yul\":1313:1328   */\n      revert\n\n    auxdata: 0xa26469706673582212203e9e21fbd344e0cf1a5774b95cfd0b5057dfd8518ba15c10e8f2c694d935e7e264736f6c63430008040033\n}\n",
				"bytecode": {
					"linkReferences": {},
					"object": "608060405234801561001057600080fd5b506101ff806100206000396000f3fe608060405234801561001057600080fd5b50600436106100415760003560e01c806302a251a3146100465780633932abb1146100645780633c35a0c114610082575b600080fd5b61004e6100a0565b60405161005b9190610108565b60405180910390f35b61006c6100aa565b6040516100799190610108565b60405180910390f35b61008a6100b3565b6040516100979190610123565b60405180910390f35b600061b2fa905090565b60006001905090565b6000806100be6100aa565b436100c9919061013e565b905060006100d56100a0565b826100e0919061013e565b9050809250505090565b6100f38161017c565b82525050565b61010281610186565b82525050565b600060208201905061011d60008301846100ea565b92915050565b600060208201905061013860008301846100f9565b92915050565b600061014982610186565b915061015483610186565b92508267ffffffffffffffff038211156101715761017061019a565b5b828201905092915050565b6000819050919050565b600067ffffffffffffffff82169050919050565b7f4e487b7100000000000000000000000000000000000000000000000000000000600052601160045260246000fdfea26469706673582212203e9e21fbd344e0cf1a5774b95cfd0b5057dfd8518ba15c10e8f2c694d935e7e264736f6c63430008040033",
					"opcodes": "PUSH1 0x80 PUSH1 0x40 MSTORE CALLVALUE DUP1 ISZERO PUSH2 0x10 JUMPI PUSH1 0x0 DUP1 REVERT JUMPDEST POP PUSH2 0x1FF DUP1 PUSH2 0x20 PUSH1 0x0 CODECOPY PUSH1 0x0 RETURN INVALID PUSH1 0x80 PUSH1 0x40 MSTORE CALLVALUE DUP1 ISZERO PUSH2 0x10 JUMPI PUSH1 0x0 DUP1 REVERT JUMPDEST POP PUSH1 0x4 CALLDATASIZE LT PUSH2 0x41 JUMPI PUSH1 0x0 CALLDATALOAD PUSH1 0xE0 SHR DUP1 PUSH4 0x2A251A3 EQ PUSH2 0x46 JUMPI DUP1 PUSH4 0x3932ABB1 EQ PUSH2 0x64 JUMPI DUP1 PUSH4 0x3C35A0C1 EQ PUSH2 0x82 JUMPI JUMPDEST PUSH1 0x0 DUP1 REVERT JUMPDEST PUSH2 0x4E PUSH2 0xA0 JUMP JUMPDEST PUSH1 0x40 MLOAD PUSH2 0x5B SWAP2 SWAP1 PUSH2 0x108 JUMP JUMPDEST PUSH1 0x40 MLOAD DUP1 SWAP2 SUB SWAP1 RETURN JUMPDEST PUSH2 0x6C PUSH2 0xAA JUMP JUMPDEST PUSH1 0x40 MLOAD PUSH2 0x79 SWAP2 SWAP1 PUSH2 0x108 JUMP JUMPDEST PUSH1 0x40 MLOAD DUP1 SWAP2 SUB SWAP1 RETURN JUMPDEST PUSH2 0x8A PUSH2 0xB3 JUMP JUMPDEST PUSH1 0x40 MLOAD PUSH2 0x97 SWAP2 SWAP1 PUSH2 0x123 JUMP JUMPDEST PUSH1 0x40 MLOAD DUP1 SWAP2 SUB SWAP1 RETURN JUMPDEST PUSH1 0x0 PUSH2 0xB2FA SWAP1 POP SWAP1 JUMP JUMPDEST PUSH1 0x0 PUSH1 0x1 SWAP1 POP SWAP1 JUMP JUMPDEST PUSH1 0x0 DUP1 PUSH2 0xBE PUSH2 0xAA JUMP JUMPDEST NUMBER PUSH2 0xC9 SWAP2 SWAP1 PUSH2 0x13E JUMP JUMPDEST SWAP1 POP PUSH1 0x0 PUSH2 0xD5 PUSH2 0xA0 JUMP JUMPDEST DUP3 PUSH2 0xE0 SWAP2 SWAP1 PUSH2 0x13E JUMP JUMPDEST SWAP1 POP DUP1 SWAP3 POP POP POP SWAP1 JUMP JUMPDEST PUSH2 0xF3 DUP2 PUSH2 0x17C JUMP JUMPDEST DUP3 MSTORE POP POP JUMP JUMPDEST PUSH2 0x102 DUP2 PUSH2 0x186 JUMP JUMPDEST DUP3 MSTORE POP POP JUMP JUMPDEST PUSH1 0x0 PUSH1 0x20 DUP3 ADD SWAP1 POP PUSH2 0x11D PUSH1 0x0 DUP4 ADD DUP5 PUSH2 0xEA JUMP JUMPDEST SWAP3 SWAP2 POP POP JUMP JUMPDEST PUSH1 0x0 PUSH1 0x20 DUP3 ADD SWAP1 POP PUSH2 0x138 PUSH1 0x0 DUP4 ADD DUP5 PUSH2 0xF9 JUMP JUMPDEST SWAP3 SWAP2 POP POP JUMP JUMPDEST PUSH1 0x0 PUSH2 0x149 DUP3 PUSH2 0x186 JUMP JUMPDEST SWAP2 POP PUSH2 0x154 DUP4 PUSH2 0x186 JUMP JUMPDEST SWAP3 POP DUP3 PUSH8 0xFFFFFFFFFFFFFFFF SUB DUP3 GT ISZERO PUSH2 0x171 JUMPI PUSH2 0x170 PUSH2 0x19A JUMP JUMPDEST JUMPDEST DUP3 DUP3 ADD SWAP1 POP SWAP3 SWAP2 POP POP JUMP JUMPDEST PUSH1 0x0 DUP2 SWAP1 POP SWAP2 SWAP1 POP JUMP JUMPDEST PUSH1 0x0 PUSH8 0xFFFFFFFFFFFFFFFF DUP3 AND SWAP1 POP SWAP2 SWAP1 POP JUMP JUMPDEST PUSH32 0x4E487B7100000000000000000000000000000000000000000000000000000000 PUSH1 0x0 MSTORE PUSH1 0x11 PUSH1 0x4 MSTORE PUSH1 0x24 PUSH1 0x0 REVERT INVALID LOG2 PUSH5 0x6970667358 0x22 SLT KECCAK256 RETURNDATACOPY SWAP15 0x21 0xFB 0xD3 DIFFICULTY 0xE0 0xCF BYTE JUMPI PUSH21 0xB95CFD0B5057DFD8518BA15C10E8F2C694D935E7E2 PUSH5 0x736F6C6343 STOP ADDMOD DIV STOP CALLER "
				},
				"gasEstimates": {
					"creation": {
						"codeDepositCost": "102200",
						"executionCost": "147",
						"totalCost": "102347"
					},
					"external": {
						"testTime()": "infinite",
						"votingDelay()": "337",
						"votingPeriod()": "315"
					}
				},
				"methodIdentifiers": {
					"testTime()": "3c35a0c1",
					"votingDelay()": "3932abb1",
					"votingPeriod()": "02a251a3"
				}
			},
			"storageLayout": {
				"storage": [],
				"types": null
			},
			"userdoc": {
				"kind": "user",
				"methods": {},
				"version": 1
			}
		}
	}
}